{
	"safeMath/safemath.sol": {
		"math": {
			"abi": [
				{
					"inputs": [
						{
							"internalType": "uint256",
							"name": "_a",
							"type": "uint256"
						},
						{
							"internalType": "uint256",
							"name": "_b",
							"type": "uint256"
						}
					],
					"name": "matha",
					"outputs": [],
					"stateMutability": "nonpayable",
					"type": "function"
				}
			],
			"devdoc": {
				"kind": "dev",
				"methods": {},
				"version": 1
			},
			"evm": {
				"assembly": "    /* \"safeMath/safemath.sol\":583:721  contract math {... */\n  mstore(0x40, 0x80)\n  callvalue\n  dup1\n  iszero\n  tag_1\n  jumpi\n  0x00\n  dup1\n  revert\ntag_1:\n  pop\n  dataSize(sub_0)\n  dup1\n  dataOffset(sub_0)\n  0x00\n  codecopy\n  0x00\n  return\nstop\n\nsub_0: assembly {\n        /* \"safeMath/safemath.sol\":583:721  contract math {... */\n      mstore(0x40, 0x80)\n      callvalue\n      dup1\n      iszero\n      tag_1\n      jumpi\n      0x00\n      dup1\n      revert\n    tag_1:\n      pop\n      jumpi(tag_2, lt(calldatasize, 0x04))\n      shr(0xe0, calldataload(0x00))\n      dup1\n      0x803ab3a9\n      eq\n      tag_3\n      jumpi\n    tag_2:\n      0x00\n      dup1\n      revert\n        /* \"safeMath/safemath.sol\":636:718  function matha(uint _a, uint _b) external   {... */\n    tag_3:\n      tag_4\n      tag_5\n      calldatasize\n      0x04\n      tag_6\n      jump\t// in\n    tag_5:\n      tag_7\n      jump\t// in\n    tag_4:\n      stop\n    tag_7:\n        /* \"safeMath/safemath.sol\":691:697  uint c */\n      0x00\n        /* \"safeMath/safemath.sol\":700:710  _a.add(_b) */\n      tag_9\n        /* \"safeMath/safemath.sol\":700:702  _a */\n      dup4\n        /* \"safeMath/safemath.sol\":707:709  _b */\n      dup4\n        /* \"safeMath/safemath.sol\":700:706  _a.add */\n      tag_10\n        /* \"safeMath/safemath.sol\":700:710  _a.add(_b) */\n      jump\t// in\n    tag_9:\n      pop\n      pop\n      pop\n      pop\n        /* \"safeMath/safemath.sol\":636:718  function matha(uint _a, uint _b) external   {... */\n      jump\t// out\n        /* \"safeMath/safemath.sol\":87:201  function add(uint a, uint b) internal pure returns (uint c) {... */\n    tag_10:\n        /* \"safeMath/safemath.sol\":139:145  uint c */\n      0x00\n        /* \"safeMath/safemath.sol\":162:167  a + b */\n      tag_12\n        /* \"safeMath/safemath.sol\":166:167  b */\n      dup3\n        /* \"safeMath/safemath.sol\":162:163  a */\n      dup5\n        /* \"safeMath/safemath.sol\":162:167  a + b */\n      tag_13\n      jump\t// in\n    tag_12:\n        /* \"safeMath/safemath.sol\":158:167  c = a + b */\n      swap1\n      pop\n        /* \"safeMath/safemath.sol\":191:192  a */\n      dup3\n        /* \"safeMath/safemath.sol\":186:187  c */\n      dup2\n        /* \"safeMath/safemath.sol\":186:192  c >= a */\n      lt\n      iszero\n        /* \"safeMath/safemath.sol\":178:193  require(c >= a) */\n      tag_14\n      jumpi\n      0x00\n      dup1\n      revert\n    tag_14:\n        /* \"safeMath/safemath.sol\":87:201  function add(uint a, uint b) internal pure returns (uint c) {... */\n      swap3\n      swap2\n      pop\n      pop\n      jump\t// out\n        /* \"#utility.yul\":14:262   */\n    tag_6:\n        /* \"#utility.yul\":82:88   */\n      0x00\n        /* \"#utility.yul\":90:96   */\n      dup1\n        /* \"#utility.yul\":143:145   */\n      0x40\n        /* \"#utility.yul\":131:140   */\n      dup4\n        /* \"#utility.yul\":122:129   */\n      dup6\n        /* \"#utility.yul\":118:141   */\n      sub\n        /* \"#utility.yul\":114:146   */\n      slt\n        /* \"#utility.yul\":111:163   */\n      iszero\n      tag_17\n      jumpi\n        /* \"#utility.yul\":159:160   */\n      0x00\n        /* \"#utility.yul\":156:157   */\n      dup1\n        /* \"#utility.yul\":149:161   */\n      revert\n        /* \"#utility.yul\":111:163   */\n    tag_17:\n      pop\n      pop\n        /* \"#utility.yul\":182:205   */\n      dup1\n      calldataload\n      swap3\n        /* \"#utility.yul\":252:254   */\n      0x20\n        /* \"#utility.yul\":237:255   */\n      swap1\n      swap2\n      add\n        /* \"#utility.yul\":224:256   */\n      calldataload\n      swap2\n      pop\n        /* \"#utility.yul\":14:262   */\n      jump\t// out\n        /* \"#utility.yul\":267:492   */\n    tag_13:\n        /* \"#utility.yul\":307:310   */\n      0x00\n        /* \"#utility.yul\":338:339   */\n      dup3\n        /* \"#utility.yul\":334:340   */\n      not\n        /* \"#utility.yul\":331:332   */\n      dup3\n        /* \"#utility.yul\":328:341   */\n      gt\n        /* \"#utility.yul\":325:461   */\n      iszero\n      tag_19\n      jumpi\n        /* \"#utility.yul\":383:393   */\n      0x4e487b71\n        /* \"#utility.yul\":378:381   */\n      0xe0\n        /* \"#utility.yul\":374:394   */\n      shl\n        /* \"#utility.yul\":371:372   */\n      0x00\n        /* \"#utility.yul\":364:395   */\n      mstore\n        /* \"#utility.yul\":418:422   */\n      0x11\n        /* \"#utility.yul\":415:416   */\n      0x04\n        /* \"#utility.yul\":408:423   */\n      mstore\n        /* \"#utility.yul\":446:450   */\n      0x24\n        /* \"#utility.yul\":443:444   */\n      0x00\n        /* \"#utility.yul\":436:451   */\n      revert\n        /* \"#utility.yul\":325:461   */\n    tag_19:\n      pop\n        /* \"#utility.yul\":477:486   */\n      add\n      swap1\n        /* \"#utility.yul\":267:492   */\n      jump\t// out\n\n    auxdata: 0xa264697066735822122063548b16db1b65067b1ed2f7cf611a998edd8c26292658a758bfd438cd37390f64736f6c634300080f0033\n}\n",
				"bytecode": {
					"linkReferences": {},
					"object": "608060405234801561001057600080fd5b5060e88061001f6000396000f3fe6080604052348015600f57600080fd5b506004361060285760003560e01c8063803ab3a914602d575b600080fd5b603c6038366004606c565b603e565b005b600060488383604e565b50505050565b600060588284608d565b905082811015606657600080fd5b92915050565b60008060408385031215607e57600080fd5b50508035926020909101359150565b6000821982111560ad57634e487b7160e01b600052601160045260246000fd5b50019056fea264697066735822122063548b16db1b65067b1ed2f7cf611a998edd8c26292658a758bfd438cd37390f64736f6c634300080f0033",
					"opcodes": "PUSH1 0x80 PUSH1 0x40 MSTORE CALLVALUE DUP1 ISZERO PUSH2 0x10 JUMPI PUSH1 0x0 DUP1 REVERT JUMPDEST POP PUSH1 0xE8 DUP1 PUSH2 0x1F PUSH1 0x0 CODECOPY PUSH1 0x0 RETURN INVALID PUSH1 0x80 PUSH1 0x40 MSTORE CALLVALUE DUP1 ISZERO PUSH1 0xF JUMPI PUSH1 0x0 DUP1 REVERT JUMPDEST POP PUSH1 0x4 CALLDATASIZE LT PUSH1 0x28 JUMPI PUSH1 0x0 CALLDATALOAD PUSH1 0xE0 SHR DUP1 PUSH4 0x803AB3A9 EQ PUSH1 0x2D JUMPI JUMPDEST PUSH1 0x0 DUP1 REVERT JUMPDEST PUSH1 0x3C PUSH1 0x38 CALLDATASIZE PUSH1 0x4 PUSH1 0x6C JUMP JUMPDEST PUSH1 0x3E JUMP JUMPDEST STOP JUMPDEST PUSH1 0x0 PUSH1 0x48 DUP4 DUP4 PUSH1 0x4E JUMP JUMPDEST POP POP POP POP JUMP JUMPDEST PUSH1 0x0 PUSH1 0x58 DUP3 DUP5 PUSH1 0x8D JUMP JUMPDEST SWAP1 POP DUP3 DUP2 LT ISZERO PUSH1 0x66 JUMPI PUSH1 0x0 DUP1 REVERT JUMPDEST SWAP3 SWAP2 POP POP JUMP JUMPDEST PUSH1 0x0 DUP1 PUSH1 0x40 DUP4 DUP6 SUB SLT ISZERO PUSH1 0x7E JUMPI PUSH1 0x0 DUP1 REVERT JUMPDEST POP POP DUP1 CALLDATALOAD SWAP3 PUSH1 0x20 SWAP1 SWAP2 ADD CALLDATALOAD SWAP2 POP JUMP JUMPDEST PUSH1 0x0 DUP3 NOT DUP3 GT ISZERO PUSH1 0xAD JUMPI PUSH4 0x4E487B71 PUSH1 0xE0 SHL PUSH1 0x0 MSTORE PUSH1 0x11 PUSH1 0x4 MSTORE PUSH1 0x24 PUSH1 0x0 REVERT JUMPDEST POP ADD SWAP1 JUMP INVALID LOG2 PUSH5 0x6970667358 0x22 SLT KECCAK256 PUSH4 0x548B16DB SHL PUSH6 0x67B1ED2F7CF PUSH2 0x1A99 DUP15 0xDD DUP13 0x26 0x29 0x26 PC 0xA7 PC 0xBF 0xD4 CODESIZE 0xCD CALLDATACOPY CODECOPY 0xF PUSH5 0x736F6C6343 STOP ADDMOD 0xF STOP CALLER "
				},
				"gasEstimates": {
					"creation": {
						"codeDepositCost": "46400",
						"executionCost": "99",
						"totalCost": "46499"
					},
					"external": {
						"matha(uint256,uint256)": "377"
					}
				},
				"methodIdentifiers": {
					"matha(uint256,uint256)": "803ab3a9"
				}
			},
			"storageLayout": {
				"storage": [],
				"types": null
			},
			"userdoc": {
				"kind": "user",
				"methods": {},
				"version": 1
			}
		}
	}
}