{
	"solidity映射.sol": {
		"Mapping": {
			"abi": [
				{
					"inputs": [
						{
							"internalType": "address",
							"name": "",
							"type": "address"
						}
					],
					"name": "balances",
					"outputs": [
						{
							"internalType": "uint256",
							"name": "",
							"type": "uint256"
						}
					],
					"stateMutability": "view",
					"type": "function"
				},
				{
					"inputs": [],
					"name": "examples",
					"outputs": [],
					"stateMutability": "nonpayable",
					"type": "function"
				},
				{
					"inputs": [
						{
							"internalType": "address",
							"name": "",
							"type": "address"
						},
						{
							"internalType": "address",
							"name": "",
							"type": "address"
						}
					],
					"name": "isFriend",
					"outputs": [
						{
							"internalType": "bool",
							"name": "",
							"type": "bool"
						}
					],
					"stateMutability": "view",
					"type": "function"
				}
			],
			"devdoc": {
				"kind": "dev",
				"methods": {},
				"version": 1
			},
			"evm": {
				"assembly": "    /* \"solidity\\xe6\\x98\\xa0\\xe5\\xb0\\x84.sol\":254:1140  contract Mapping {... */\n  mstore(0x40, 0x80)\n  callvalue\n  dup1\n  iszero\n  tag_1\n  jumpi\n  0x00\n  dup1\n  revert\ntag_1:\n  pop\n  dataSize(sub_0)\n  dup1\n  dataOffset(sub_0)\n  0x00\n  codecopy\n  0x00\n  return\nstop\n\nsub_0: assembly {\n        /* \"solidity\\xe6\\x98\\xa0\\xe5\\xb0\\x84.sol\":254:1140  contract Mapping {... */\n      mstore(0x40, 0x80)\n      callvalue\n      dup1\n      iszero\n      tag_1\n      jumpi\n      0x00\n      dup1\n      revert\n    tag_1:\n      pop\n      jumpi(tag_2, lt(calldatasize, 0x04))\n      shr(0xe0, calldataload(0x00))\n      dup1\n      0x27e235e3\n      eq\n      tag_3\n      jumpi\n      dup1\n      0x2da5d42e\n      eq\n      tag_4\n      jumpi\n      dup1\n      0x335d00c2\n      eq\n      tag_5\n      jumpi\n    tag_2:\n      0x00\n      dup1\n      revert\n        /* \"solidity\\xe6\\x98\\xa0\\xe5\\xb0\\x84.sol\":364:404  mapping(address => uint) public balances */\n    tag_3:\n      tag_6\n      tag_7\n      calldatasize\n      0x04\n      tag_8\n      jump\t// in\n    tag_7:\n      0x00\n      0x20\n      dup2\n      swap1\n      mstore\n      swap1\n      dup2\n      mstore\n      0x40\n      swap1\n      keccak256\n      sload\n      dup2\n      jump\n    tag_6:\n      mload(0x40)\n        /* \"#utility.yul\":529:554   */\n      swap1\n      dup2\n      mstore\n        /* \"#utility.yul\":517:519   */\n      0x20\n        /* \"#utility.yul\":502:520   */\n      add\n        /* \"solidity\\xe6\\x98\\xa0\\xe5\\xb0\\x84.sol\":364:404  mapping(address => uint) public balances */\n    tag_10:\n      mload(0x40)\n      dup1\n      swap2\n      sub\n      swap1\n      return\n        /* \"solidity\\xe6\\x98\\xa0\\xe5\\xb0\\x84.sol\":536:596  mapping(address => mapping(address => bool)) public isFriend */\n    tag_4:\n      tag_12\n      tag_13\n      calldatasize\n      0x04\n      tag_14\n      jump\t// in\n    tag_13:\n      0x01\n      0x20\n      swap1\n      dup2\n      mstore\n      0x00\n      swap3\n      dup4\n      mstore\n      0x40\n      dup1\n      dup5\n      keccak256\n      swap1\n      swap2\n      mstore\n      swap1\n      dup3\n      mstore\n      swap1\n      keccak256\n      sload\n      0xff\n      and\n      dup2\n      jump\n    tag_12:\n      mload(0x40)\n        /* \"#utility.yul\":995:1009   */\n      swap1\n      iszero\n        /* \"#utility.yul\":988:1010   */\n      iszero\n        /* \"#utility.yul\":970:1011   */\n      dup2\n      mstore\n        /* \"#utility.yul\":958:960   */\n      0x20\n        /* \"#utility.yul\":943:961   */\n      add\n        /* \"solidity\\xe6\\x98\\xa0\\xe5\\xb0\\x84.sol\":536:596  mapping(address => mapping(address => bool)) public isFriend */\n      tag_10\n        /* \"#utility.yul\":830:1017   */\n      jump\n        /* \"solidity\\xe6\\x98\\xa0\\xe5\\xb0\\x84.sol\":622:1133  function examples() external {... */\n    tag_5:\n      tag_18\n      tag_19\n      jump\t// in\n    tag_18:\n      stop\n    tag_19:\n        /* \"solidity\\xe6\\x98\\xa0\\xe5\\xb0\\x84.sol\":720:730  msg.sender */\n      caller\n        /* \"solidity\\xe6\\x98\\xa0\\xe5\\xb0\\x84.sol\":711:719  balances */\n      0x00\n        /* \"solidity\\xe6\\x98\\xa0\\xe5\\xb0\\x84.sol\":711:731  balances[msg.sender] */\n      swap1\n      dup2\n      mstore\n      0x20\n      dup2\n      swap1\n      mstore\n      0x40\n      dup2\n      keccak256\n        /* \"solidity\\xe6\\x98\\xa0\\xe5\\xb0\\x84.sol\":734:737  123 */\n      0x7b\n        /* \"solidity\\xe6\\x98\\xa0\\xe5\\xb0\\x84.sol\":711:737  balances[msg.sender] = 123 */\n      dup1\n      dup3\n      sstore\n        /* \"solidity\\xe6\\x98\\xa0\\xe5\\xb0\\x84.sol\":802:822  balances[address(1)] */\n      sload(0xada5013122d395ba3c54772283fb069b10426056ef8ca54750cb9bb552a59e7d)\n        /* \"solidity\\xe6\\x98\\xa0\\xe5\\xb0\\x84.sol\":734:737  123 */\n      swap1\n      swap3\n        /* \"solidity\\xe6\\x98\\xa0\\xe5\\xb0\\x84.sol\":802:822  balances[address(1)] */\n      swap1\n      swap2\n        /* \"solidity\\xe6\\x98\\xa0\\xe5\\xb0\\x84.sol\":922:925  456 */\n      0x01c8\n      swap2\n        /* \"solidity\\xe6\\x98\\xa0\\xe5\\xb0\\x84.sol\":898:925  balances[msg.sender] += 456 */\n      tag_21\n        /* \"solidity\\xe6\\x98\\xa0\\xe5\\xb0\\x84.sol\":922:925  456 */\n      dup4\n        /* \"solidity\\xe6\\x98\\xa0\\xe5\\xb0\\x84.sol\":734:737  123 */\n      dup7\n        /* \"solidity\\xe6\\x98\\xa0\\xe5\\xb0\\x84.sol\":898:925  balances[msg.sender] += 456 */\n      tag_22\n      jump\t// in\n    tag_21:\n      swap1\n      swap2\n      sstore\n      pop\n      pop\n        /* \"solidity\\xe6\\x98\\xa0\\xe5\\xb0\\x84.sol\":999:1009  msg.sender */\n      caller\n        /* \"solidity\\xe6\\x98\\xa0\\xe5\\xb0\\x84.sol\":990:998  balances */\n      0x00\n        /* \"solidity\\xe6\\x98\\xa0\\xe5\\xb0\\x84.sol\":990:1010  balances[msg.sender] */\n      swap1\n      dup2\n      mstore\n      0x20\n      dup2\n      dup2\n      mstore\n      0x40\n      dup1\n      dup4\n      keccak256\n        /* \"solidity\\xe6\\x98\\xa0\\xe5\\xb0\\x84.sol\":983:1010  delete balances[msg.sender] */\n      dup4\n      swap1\n      sstore\n        /* \"solidity\\xe6\\x98\\xa0\\xe5\\xb0\\x84.sol\":1119:1123  true */\n      0x01\n        /* \"solidity\\xe6\\x98\\xa0\\xe5\\xb0\\x84.sol\":1081:1101  isFriend[msg.sender] */\n      dup1\n      dup4\n      mstore\n      dup2\n      dup5\n      keccak256\n        /* \"solidity\\xe6\\x98\\xa0\\xe5\\xb0\\x84.sol\":1110:1114  this */\n      address\n        /* \"solidity\\xe6\\x98\\xa0\\xe5\\xb0\\x84.sol\":1081:1116  isFriend[msg.sender][address(this)] */\n      dup6\n      mstore\n      swap1\n      swap3\n      mstore\n      swap1\n      swap2\n      keccak256\n        /* \"solidity\\xe6\\x98\\xa0\\xe5\\xb0\\x84.sol\":1081:1123  isFriend[msg.sender][address(this)] = true */\n      dup1\n      sload\n      not(0xff)\n      and\n      swap1\n      swap2\n      or\n      swap1\n      sstore\n      pop\n      pop\n        /* \"solidity\\xe6\\x98\\xa0\\xe5\\xb0\\x84.sol\":622:1133  function examples() external {... */\n      jump\t// out\n        /* \"#utility.yul\":14:187   */\n    tag_23:\n        /* \"#utility.yul\":82:102   */\n      dup1\n      calldataload\n      sub(shl(0xa0, 0x01), 0x01)\n        /* \"#utility.yul\":131:162   */\n      dup2\n      and\n        /* \"#utility.yul\":121:163   */\n      dup2\n      eq\n        /* \"#utility.yul\":111:181   */\n      tag_26\n      jumpi\n        /* \"#utility.yul\":177:178   */\n      0x00\n        /* \"#utility.yul\":174:175   */\n      dup1\n        /* \"#utility.yul\":167:179   */\n      revert\n        /* \"#utility.yul\":111:181   */\n    tag_26:\n        /* \"#utility.yul\":14:187   */\n      swap2\n      swap1\n      pop\n      jump\t// out\n        /* \"#utility.yul\":192:378   */\n    tag_8:\n        /* \"#utility.yul\":251:257   */\n      0x00\n        /* \"#utility.yul\":304:306   */\n      0x20\n        /* \"#utility.yul\":292:301   */\n      dup3\n        /* \"#utility.yul\":283:290   */\n      dup5\n        /* \"#utility.yul\":279:302   */\n      sub\n        /* \"#utility.yul\":275:307   */\n      slt\n        /* \"#utility.yul\":272:324   */\n      iszero\n      tag_28\n      jumpi\n        /* \"#utility.yul\":320:321   */\n      0x00\n        /* \"#utility.yul\":317:318   */\n      dup1\n        /* \"#utility.yul\":310:322   */\n      revert\n        /* \"#utility.yul\":272:324   */\n    tag_28:\n        /* \"#utility.yul\":343:372   */\n      tag_29\n        /* \"#utility.yul\":362:371   */\n      dup3\n        /* \"#utility.yul\":343:372   */\n      tag_23\n      jump\t// in\n    tag_29:\n        /* \"#utility.yul\":333:372   */\n      swap4\n        /* \"#utility.yul\":192:378   */\n      swap3\n      pop\n      pop\n      pop\n      jump\t// out\n        /* \"#utility.yul\":565:825   */\n    tag_14:\n        /* \"#utility.yul\":633:639   */\n      0x00\n        /* \"#utility.yul\":641:647   */\n      dup1\n        /* \"#utility.yul\":694:696   */\n      0x40\n        /* \"#utility.yul\":682:691   */\n      dup4\n        /* \"#utility.yul\":673:680   */\n      dup6\n        /* \"#utility.yul\":669:692   */\n      sub\n        /* \"#utility.yul\":665:697   */\n      slt\n        /* \"#utility.yul\":662:714   */\n      iszero\n      tag_32\n      jumpi\n        /* \"#utility.yul\":710:711   */\n      0x00\n        /* \"#utility.yul\":707:708   */\n      dup1\n        /* \"#utility.yul\":700:712   */\n      revert\n        /* \"#utility.yul\":662:714   */\n    tag_32:\n        /* \"#utility.yul\":733:762   */\n      tag_33\n        /* \"#utility.yul\":752:761   */\n      dup4\n        /* \"#utility.yul\":733:762   */\n      tag_23\n      jump\t// in\n    tag_33:\n        /* \"#utility.yul\":723:762   */\n      swap2\n      pop\n        /* \"#utility.yul\":781:819   */\n      tag_34\n        /* \"#utility.yul\":815:817   */\n      0x20\n        /* \"#utility.yul\":804:813   */\n      dup5\n        /* \"#utility.yul\":800:818   */\n      add\n        /* \"#utility.yul\":781:819   */\n      tag_23\n      jump\t// in\n    tag_34:\n        /* \"#utility.yul\":771:819   */\n      swap1\n      pop\n        /* \"#utility.yul\":565:825   */\n      swap3\n      pop\n      swap3\n      swap1\n      pop\n      jump\t// out\n        /* \"#utility.yul\":1022:1247   */\n    tag_22:\n        /* \"#utility.yul\":1062:1065   */\n      0x00\n        /* \"#utility.yul\":1093:1094   */\n      dup3\n        /* \"#utility.yul\":1089:1095   */\n      not\n        /* \"#utility.yul\":1086:1087   */\n      dup3\n        /* \"#utility.yul\":1083:1096   */\n      gt\n        /* \"#utility.yul\":1080:1216   */\n      iszero\n      tag_37\n      jumpi\n        /* \"#utility.yul\":1138:1148   */\n      0x4e487b71\n        /* \"#utility.yul\":1133:1136   */\n      0xe0\n        /* \"#utility.yul\":1129:1149   */\n      shl\n        /* \"#utility.yul\":1126:1127   */\n      0x00\n        /* \"#utility.yul\":1119:1150   */\n      mstore\n        /* \"#utility.yul\":1173:1177   */\n      0x11\n        /* \"#utility.yul\":1170:1171   */\n      0x04\n        /* \"#utility.yul\":1163:1178   */\n      mstore\n        /* \"#utility.yul\":1201:1205   */\n      0x24\n        /* \"#utility.yul\":1198:1199   */\n      0x00\n        /* \"#utility.yul\":1191:1206   */\n      revert\n        /* \"#utility.yul\":1080:1216   */\n    tag_37:\n      pop\n        /* \"#utility.yul\":1232:1241   */\n      add\n      swap1\n        /* \"#utility.yul\":1022:1247   */\n      jump\t// out\n\n    auxdata: 0xa264697066735822122047863098842d017912231fbeeaa50a9b40e4c9bf309a153681b1e648c50d125264736f6c634300080f0033\n}\n",
				"bytecode": {
					"linkReferences": {},
					"object": "608060405234801561001057600080fd5b5061020e806100206000396000f3fe608060405234801561001057600080fd5b50600436106100415760003560e01c806327e235e3146100465780632da5d42e14610079578063335d00c2146100b7575b600080fd5b61006661005436600461015d565b60006020819052908152604090205481565b6040519081526020015b60405180910390f35b6100a761008736600461017f565b600160209081526000928352604080842090915290825290205460ff1681565b6040519015158152602001610070565b6100bf6100c1565b005b336000908152602081905260408120607b8082557fada5013122d395ba3c54772283fb069b10426056ef8ca54750cb9bb552a59e7d54909290916101c89161010983866101b2565b9091555050336000908152602081815260408083208390556001808352818420308552909252909120805460ff191690911790555050565b80356001600160a01b038116811461015857600080fd5b919050565b60006020828403121561016f57600080fd5b61017882610141565b9392505050565b6000806040838503121561019257600080fd5b61019b83610141565b91506101a960208401610141565b90509250929050565b600082198211156101d357634e487b7160e01b600052601160045260246000fd5b50019056fea264697066735822122047863098842d017912231fbeeaa50a9b40e4c9bf309a153681b1e648c50d125264736f6c634300080f0033",
					"opcodes": "PUSH1 0x80 PUSH1 0x40 MSTORE CALLVALUE DUP1 ISZERO PUSH2 0x10 JUMPI PUSH1 0x0 DUP1 REVERT JUMPDEST POP PUSH2 0x20E DUP1 PUSH2 0x20 PUSH1 0x0 CODECOPY PUSH1 0x0 RETURN INVALID PUSH1 0x80 PUSH1 0x40 MSTORE CALLVALUE DUP1 ISZERO PUSH2 0x10 JUMPI PUSH1 0x0 DUP1 REVERT JUMPDEST POP PUSH1 0x4 CALLDATASIZE LT PUSH2 0x41 JUMPI PUSH1 0x0 CALLDATALOAD PUSH1 0xE0 SHR DUP1 PUSH4 0x27E235E3 EQ PUSH2 0x46 JUMPI DUP1 PUSH4 0x2DA5D42E EQ PUSH2 0x79 JUMPI DUP1 PUSH4 0x335D00C2 EQ PUSH2 0xB7 JUMPI JUMPDEST PUSH1 0x0 DUP1 REVERT JUMPDEST PUSH2 0x66 PUSH2 0x54 CALLDATASIZE PUSH1 0x4 PUSH2 0x15D JUMP JUMPDEST PUSH1 0x0 PUSH1 0x20 DUP2 SWAP1 MSTORE SWAP1 DUP2 MSTORE PUSH1 0x40 SWAP1 KECCAK256 SLOAD DUP2 JUMP JUMPDEST PUSH1 0x40 MLOAD SWAP1 DUP2 MSTORE PUSH1 0x20 ADD JUMPDEST PUSH1 0x40 MLOAD DUP1 SWAP2 SUB SWAP1 RETURN JUMPDEST PUSH2 0xA7 PUSH2 0x87 CALLDATASIZE PUSH1 0x4 PUSH2 0x17F JUMP JUMPDEST PUSH1 0x1 PUSH1 0x20 SWAP1 DUP2 MSTORE PUSH1 0x0 SWAP3 DUP4 MSTORE PUSH1 0x40 DUP1 DUP5 KECCAK256 SWAP1 SWAP2 MSTORE SWAP1 DUP3 MSTORE SWAP1 KECCAK256 SLOAD PUSH1 0xFF AND DUP2 JUMP JUMPDEST PUSH1 0x40 MLOAD SWAP1 ISZERO ISZERO DUP2 MSTORE PUSH1 0x20 ADD PUSH2 0x70 JUMP JUMPDEST PUSH2 0xBF PUSH2 0xC1 JUMP JUMPDEST STOP JUMPDEST CALLER PUSH1 0x0 SWAP1 DUP2 MSTORE PUSH1 0x20 DUP2 SWAP1 MSTORE PUSH1 0x40 DUP2 KECCAK256 PUSH1 0x7B DUP1 DUP3 SSTORE PUSH32 0xADA5013122D395BA3C54772283FB069B10426056EF8CA54750CB9BB552A59E7D SLOAD SWAP1 SWAP3 SWAP1 SWAP2 PUSH2 0x1C8 SWAP2 PUSH2 0x109 DUP4 DUP7 PUSH2 0x1B2 JUMP JUMPDEST SWAP1 SWAP2 SSTORE POP POP CALLER PUSH1 0x0 SWAP1 DUP2 MSTORE PUSH1 0x20 DUP2 DUP2 MSTORE PUSH1 0x40 DUP1 DUP4 KECCAK256 DUP4 SWAP1 SSTORE PUSH1 0x1 DUP1 DUP4 MSTORE DUP2 DUP5 KECCAK256 ADDRESS DUP6 MSTORE SWAP1 SWAP3 MSTORE SWAP1 SWAP2 KECCAK256 DUP1 SLOAD PUSH1 0xFF NOT AND SWAP1 SWAP2 OR SWAP1 SSTORE POP POP JUMP JUMPDEST DUP1 CALLDATALOAD PUSH1 0x1 PUSH1 0x1 PUSH1 0xA0 SHL SUB DUP2 AND DUP2 EQ PUSH2 0x158 JUMPI PUSH1 0x0 DUP1 REVERT JUMPDEST SWAP2 SWAP1 POP JUMP JUMPDEST PUSH1 0x0 PUSH1 0x20 DUP3 DUP5 SUB SLT ISZERO PUSH2 0x16F JUMPI PUSH1 0x0 DUP1 REVERT JUMPDEST PUSH2 0x178 DUP3 PUSH2 0x141 JUMP JUMPDEST SWAP4 SWAP3 POP POP POP JUMP JUMPDEST PUSH1 0x0 DUP1 PUSH1 0x40 DUP4 DUP6 SUB SLT ISZERO PUSH2 0x192 JUMPI PUSH1 0x0 DUP1 REVERT JUMPDEST PUSH2 0x19B DUP4 PUSH2 0x141 JUMP JUMPDEST SWAP2 POP PUSH2 0x1A9 PUSH1 0x20 DUP5 ADD PUSH2 0x141 JUMP JUMPDEST SWAP1 POP SWAP3 POP SWAP3 SWAP1 POP JUMP JUMPDEST PUSH1 0x0 DUP3 NOT DUP3 GT ISZERO PUSH2 0x1D3 JUMPI PUSH4 0x4E487B71 PUSH1 0xE0 SHL PUSH1 0x0 MSTORE PUSH1 0x11 PUSH1 0x4 MSTORE PUSH1 0x24 PUSH1 0x0 REVERT JUMPDEST POP ADD SWAP1 JUMP INVALID LOG2 PUSH5 0x6970667358 0x22 SLT KECCAK256 SELFBALANCE DUP7 ADDRESS SWAP9 DUP5 0x2D ADD PUSH26 0x12231FBEEAA50A9B40E4C9BF309A153681B1E648C50D12526473 PUSH16 0x6C634300080F00330000000000000000 "
				},
				"gasEstimates": {
					"creation": {
						"codeDepositCost": "105200",
						"executionCost": "153",
						"totalCost": "105353"
					},
					"external": {
						"balances(address)": "2489",
						"examples()": "58986",
						"isFriend(address,address)": "infinite"
					}
				},
				"methodIdentifiers": {
					"balances(address)": "27e235e3",
					"examples()": "335d00c2",
					"isFriend(address,address)": "2da5d42e"
				}
			},
			"storageLayout": {
				"storage": [
					{
						"astId": 5,
						"contract": "solidity映射.sol:Mapping",
						"label": "balances",
						"offset": 0,
						"slot": "0",
						"type": "t_mapping(t_address,t_uint256)"
					},
					{
						"astId": 11,
						"contract": "solidity映射.sol:Mapping",
						"label": "isFriend",
						"offset": 0,
						"slot": "1",
						"type": "t_mapping(t_address,t_mapping(t_address,t_bool))"
					},
					{
						"astId": 13,
						"contract": "solidity映射.sol:Mapping",
						"label": "bal",
						"offset": 0,
						"slot": "2",
						"type": "t_uint256"
					}
				],
				"types": {
					"t_address": {
						"encoding": "inplace",
						"label": "address",
						"numberOfBytes": "20"
					},
					"t_bool": {
						"encoding": "inplace",
						"label": "bool",
						"numberOfBytes": "1"
					},
					"t_mapping(t_address,t_bool)": {
						"encoding": "mapping",
						"key": "t_address",
						"label": "mapping(address => bool)",
						"numberOfBytes": "32",
						"value": "t_bool"
					},
					"t_mapping(t_address,t_mapping(t_address,t_bool))": {
						"encoding": "mapping",
						"key": "t_address",
						"label": "mapping(address => mapping(address => bool))",
						"numberOfBytes": "32",
						"value": "t_mapping(t_address,t_bool)"
					},
					"t_mapping(t_address,t_uint256)": {
						"encoding": "mapping",
						"key": "t_address",
						"label": "mapping(address => uint256)",
						"numberOfBytes": "32",
						"value": "t_uint256"
					},
					"t_uint256": {
						"encoding": "inplace",
						"label": "uint256",
						"numberOfBytes": "32"
					}
				}
			},
			"userdoc": {
				"kind": "user",
				"methods": {},
				"version": 1
			}
		}
	}
}