{
	"solidity报错控制.sol": {
		"Error": {
			"abi": [
				{
					"inputs": [
						{
							"internalType": "address",
							"name": "caller",
							"type": "address"
						},
						{
							"internalType": "uint256",
							"name": "i",
							"type": "uint256"
						}
					],
					"name": "MyError",
					"type": "error"
				},
				{
					"inputs": [
						{
							"internalType": "uint256",
							"name": "_i",
							"type": "uint256"
						}
					],
					"name": "foo",
					"outputs": [],
					"stateMutability": "nonpayable",
					"type": "function"
				},
				{
					"inputs": [],
					"name": "num",
					"outputs": [
						{
							"internalType": "uint256",
							"name": "",
							"type": "uint256"
						}
					],
					"stateMutability": "view",
					"type": "function"
				},
				{
					"inputs": [],
					"name": "testAssert",
					"outputs": [],
					"stateMutability": "view",
					"type": "function"
				},
				{
					"inputs": [
						{
							"internalType": "uint256",
							"name": "_i",
							"type": "uint256"
						}
					],
					"name": "testCustomError",
					"outputs": [],
					"stateMutability": "view",
					"type": "function"
				},
				{
					"inputs": [
						{
							"internalType": "uint256",
							"name": "_i",
							"type": "uint256"
						}
					],
					"name": "testRequire",
					"outputs": [],
					"stateMutability": "pure",
					"type": "function"
				},
				{
					"inputs": [
						{
							"internalType": "uint256",
							"name": "_i",
							"type": "uint256"
						}
					],
					"name": "testRevert",
					"outputs": [],
					"stateMutability": "pure",
					"type": "function"
				}
			],
			"devdoc": {
				"kind": "dev",
				"methods": {},
				"version": 1
			},
			"evm": {
				"assembly": "    /* \"solidity\\xe6\\x8a\\xa5\\xe9\\x94\\x99\\xe6\\x8e\\xa7\\xe5\\x88\\xb6.sol\":154:1647  contract Error {... */\n  mstore(0x40, 0x80)\n    /* \"solidity\\xe6\\x8a\\xa5\\xe9\\x94\\x99\\xe6\\x8e\\xa7\\xe5\\x88\\xb6.sol\":857:860  123 */\n  0x7b\n    /* \"solidity\\xe6\\x8a\\xa5\\xe9\\x94\\x99\\xe6\\x8e\\xa7\\xe5\\x88\\xb6.sol\":839:860  uint public num = 123 */\n  0x00\n  sstore\n    /* \"solidity\\xe6\\x8a\\xa5\\xe9\\x94\\x99\\xe6\\x8e\\xa7\\xe5\\x88\\xb6.sol\":154:1647  contract Error {... */\n  callvalue\n  dup1\n  iszero\n  tag_1\n  jumpi\n  0x00\n  dup1\n  revert\ntag_1:\n  pop\n  dataSize(sub_0)\n  dup1\n  dataOffset(sub_0)\n  0x00\n  codecopy\n  0x00\n  return\nstop\n\nsub_0: assembly {\n        /* \"solidity\\xe6\\x8a\\xa5\\xe9\\x94\\x99\\xe6\\x8e\\xa7\\xe5\\x88\\xb6.sol\":154:1647  contract Error {... */\n      mstore(0x40, 0x80)\n      callvalue\n      dup1\n      iszero\n      tag_1\n      jumpi\n      0x00\n      dup1\n      revert\n    tag_1:\n      pop\n      jumpi(tag_2, lt(calldatasize, 0x04))\n      shr(0xe0, calldataload(0x00))\n      dup1\n      0x20987767\n      eq\n      tag_3\n      jumpi\n      dup1\n      0x2b813bc0\n      eq\n      tag_4\n      jumpi\n      dup1\n      0x2fbebd38\n      eq\n      tag_5\n      jumpi\n      dup1\n      0x4e70b1dc\n      eq\n      tag_6\n      jumpi\n      dup1\n      0x75f7286c\n      eq\n      tag_7\n      jumpi\n      dup1\n      0xb8bd717f\n      eq\n      tag_8\n      jumpi\n    tag_2:\n      0x00\n      dup1\n      revert\n        /* \"solidity\\xe6\\x8a\\xa5\\xe9\\x94\\x99\\xe6\\x8e\\xa7\\xe5\\x88\\xb6.sol\":610:833  function testRevert(uint _i) public pure {... */\n    tag_3:\n      tag_9\n      tag_10\n      calldatasize\n      0x04\n      tag_11\n      jump\t// in\n    tag_10:\n      tag_12\n      jump\t// in\n    tag_9:\n      stop\n        /* \"solidity\\xe6\\x8a\\xa5\\xe9\\x94\\x99\\xe6\\x8e\\xa7\\xe5\\x88\\xb6.sol\":941:1067  function testAssert() public view {... */\n    tag_4:\n      tag_9\n      tag_14\n      jump\t// in\n        /* \"solidity\\xe6\\x8a\\xa5\\xe9\\x94\\x99\\xe6\\x8e\\xa7\\xe5\\x88\\xb6.sol\":1102:1370  function foo(uint _i) public {... */\n    tag_5:\n      tag_9\n      tag_16\n      calldatasize\n      0x04\n      tag_11\n      jump\t// in\n    tag_16:\n      tag_17\n      jump\t// in\n        /* \"solidity\\xe6\\x8a\\xa5\\xe9\\x94\\x99\\xe6\\x8e\\xa7\\xe5\\x88\\xb6.sol\":839:860  uint public num = 123 */\n    tag_6:\n      tag_18\n      sload(0x00)\n      dup2\n      jump\n    tag_18:\n      mload(0x40)\n        /* \"#utility.yul\":345:370   */\n      swap1\n      dup2\n      mstore\n        /* \"#utility.yul\":333:335   */\n      0x20\n        /* \"#utility.yul\":318:336   */\n      add\n        /* \"solidity\\xe6\\x8a\\xa5\\xe9\\x94\\x99\\xe6\\x8e\\xa7\\xe5\\x88\\xb6.sol\":839:860  uint public num = 123 */\n      mload(0x40)\n      dup1\n      swap2\n      sub\n      swap1\n      return\n        /* \"solidity\\xe6\\x8a\\xa5\\xe9\\x94\\x99\\xe6\\x8e\\xa7\\xe5\\x88\\xb6.sol\":1509:1643  function testCustomError(uint _i) public view {... */\n    tag_7:\n      tag_9\n      tag_23\n      calldatasize\n      0x04\n      tag_11\n      jump\t// in\n    tag_23:\n      tag_24\n      jump\t// in\n        /* \"solidity\\xe6\\x8a\\xa5\\xe9\\x94\\x99\\xe6\\x8e\\xa7\\xe5\\x88\\xb6.sol\":266:392  function testRequire(uint _i) public pure {... */\n    tag_8:\n      tag_9\n      tag_26\n      calldatasize\n      0x04\n      tag_11\n      jump\t// in\n    tag_26:\n      tag_27\n      jump\t// in\n        /* \"solidity\\xe6\\x8a\\xa5\\xe9\\x94\\x99\\xe6\\x8e\\xa7\\xe5\\x88\\xb6.sol\":610:833  function testRevert(uint _i) public pure {... */\n    tag_12:\n        /* \"solidity\\xe6\\x8a\\xa5\\xe9\\x94\\x99\\xe6\\x8e\\xa7\\xe5\\x88\\xb6.sol\":671:673  10 */\n      0x0a\n        /* \"solidity\\xe6\\x8a\\xa5\\xe9\\x94\\x99\\xe6\\x8e\\xa7\\xe5\\x88\\xb6.sol\":666:668  _i */\n      dup2\n        /* \"solidity\\xe6\\x8a\\xa5\\xe9\\x94\\x99\\xe6\\x8e\\xa7\\xe5\\x88\\xb6.sol\":666:673  _i > 10 */\n      gt\n        /* \"solidity\\xe6\\x8a\\xa5\\xe9\\x94\\x99\\xe6\\x8e\\xa7\\xe5\\x88\\xb6.sol\":662:739  if (_i > 10) {... */\n      iszero\n      tag_29\n      jumpi\n        /* \"solidity\\xe6\\x8a\\xa5\\xe9\\x94\\x99\\xe6\\x8e\\xa7\\xe5\\x88\\xb6.sol\":690:727  revert(\"i Cannot be greater than 10\") */\n      mload(0x40)\n      shl(0xe5, 0x461bcd)\n      dup2\n      mstore\n        /* \"#utility.yul\":583:585   */\n      0x20\n        /* \"solidity\\xe6\\x8a\\xa5\\xe9\\x94\\x99\\xe6\\x8e\\xa7\\xe5\\x88\\xb6.sol\":690:727  revert(\"i Cannot be greater than 10\") */\n      0x04\n      dup3\n      add\n        /* \"#utility.yul\":565:586   */\n      mstore\n        /* \"#utility.yul\":622:624   */\n      0x1b\n        /* \"#utility.yul\":602:620   */\n      0x24\n      dup3\n      add\n        /* \"#utility.yul\":595:625   */\n      mstore\n        /* \"#utility.yul\":661:690   */\n      0x692043616e6e6f742062652067726561746572207468616e2031300000000000\n        /* \"#utility.yul\":641:659   */\n      0x44\n      dup3\n      add\n        /* \"#utility.yul\":634:691   */\n      mstore\n        /* \"#utility.yul\":708:726   */\n      0x64\n      add\n        /* \"solidity\\xe6\\x8a\\xa5\\xe9\\x94\\x99\\xe6\\x8e\\xa7\\xe5\\x88\\xb6.sol\":690:727  revert(\"i Cannot be greater than 10\") */\n    tag_30:\n      mload(0x40)\n      dup1\n      swap2\n      sub\n      swap1\n      revert\n        /* \"solidity\\xe6\\x8a\\xa5\\xe9\\x94\\x99\\xe6\\x8e\\xa7\\xe5\\x88\\xb6.sol\":662:739  if (_i > 10) {... */\n    tag_29:\n        /* \"solidity\\xe6\\x8a\\xa5\\xe9\\x94\\x99\\xe6\\x8e\\xa7\\xe5\\x88\\xb6.sol\":758:759  2 */\n      0x02\n        /* \"solidity\\xe6\\x8a\\xa5\\xe9\\x94\\x99\\xe6\\x8e\\xa7\\xe5\\x88\\xb6.sol\":753:755  _i */\n      dup2\n        /* \"solidity\\xe6\\x8a\\xa5\\xe9\\x94\\x99\\xe6\\x8e\\xa7\\xe5\\x88\\xb6.sol\":753:759  _i < 2 */\n      lt\n        /* \"solidity\\xe6\\x8a\\xa5\\xe9\\x94\\x99\\xe6\\x8e\\xa7\\xe5\\x88\\xb6.sol\":749:826  if (_i < 2) {... */\n      iszero\n      tag_32\n      jumpi\n        /* \"solidity\\xe6\\x8a\\xa5\\xe9\\x94\\x99\\xe6\\x8e\\xa7\\xe5\\x88\\xb6.sol\":776:812  revert(\"i Cannot be greater than 2\") */\n      mload(0x40)\n      shl(0xe5, 0x461bcd)\n      dup2\n      mstore\n        /* \"#utility.yul\":939:941   */\n      0x20\n        /* \"solidity\\xe6\\x8a\\xa5\\xe9\\x94\\x99\\xe6\\x8e\\xa7\\xe5\\x88\\xb6.sol\":776:812  revert(\"i Cannot be greater than 2\") */\n      0x04\n      dup3\n      add\n        /* \"#utility.yul\":921:942   */\n      mstore\n        /* \"#utility.yul\":978:980   */\n      0x1a\n        /* \"#utility.yul\":958:976   */\n      0x24\n      dup3\n      add\n        /* \"#utility.yul\":951:981   */\n      mstore\n        /* \"#utility.yul\":1017:1045   */\n      0x692043616e6e6f742062652067726561746572207468616e2032000000000000\n        /* \"#utility.yul\":997:1015   */\n      0x44\n      dup3\n      add\n        /* \"#utility.yul\":990:1046   */\n      mstore\n        /* \"#utility.yul\":1063:1081   */\n      0x64\n      add\n        /* \"solidity\\xe6\\x8a\\xa5\\xe9\\x94\\x99\\xe6\\x8e\\xa7\\xe5\\x88\\xb6.sol\":776:812  revert(\"i Cannot be greater than 2\") */\n      tag_30\n        /* \"#utility.yul\":737:1087   */\n      jump\n        /* \"solidity\\xe6\\x8a\\xa5\\xe9\\x94\\x99\\xe6\\x8e\\xa7\\xe5\\x88\\xb6.sol\":749:826  if (_i < 2) {... */\n    tag_32:\n        /* \"solidity\\xe6\\x8a\\xa5\\xe9\\x94\\x99\\xe6\\x8e\\xa7\\xe5\\x88\\xb6.sol\":610:833  function testRevert(uint _i) public pure {... */\n      pop\n      jump\t// out\n        /* \"solidity\\xe6\\x8a\\xa5\\xe9\\x94\\x99\\xe6\\x8e\\xa7\\xe5\\x88\\xb6.sol\":941:1067  function testAssert() public view {... */\n    tag_14:\n        /* \"solidity\\xe6\\x8a\\xa5\\xe9\\x94\\x99\\xe6\\x8e\\xa7\\xe5\\x88\\xb6.sol\":1048:1051  num */\n      sload(0x00)\n        /* \"solidity\\xe6\\x8a\\xa5\\xe9\\x94\\x99\\xe6\\x8e\\xa7\\xe5\\x88\\xb6.sol\":1055:1058  123 */\n      0x7b\n        /* \"solidity\\xe6\\x8a\\xa5\\xe9\\x94\\x99\\xe6\\x8e\\xa7\\xe5\\x88\\xb6.sol\":1048:1058  num == 123 */\n      eq\n        /* \"solidity\\xe6\\x8a\\xa5\\xe9\\x94\\x99\\xe6\\x8e\\xa7\\xe5\\x88\\xb6.sol\":1041:1059  assert(num == 123) */\n      tag_37\n      jumpi\n      tag_37\n      tag_38\n      jump\t// in\n    tag_37:\n        /* \"solidity\\xe6\\x8a\\xa5\\xe9\\x94\\x99\\xe6\\x8e\\xa7\\xe5\\x88\\xb6.sol\":941:1067  function testAssert() public view {... */\n      jump\t// out\n        /* \"solidity\\xe6\\x8a\\xa5\\xe9\\x94\\x99\\xe6\\x8e\\xa7\\xe5\\x88\\xb6.sol\":1102:1370  function foo(uint _i) public {... */\n    tag_17:\n        /* \"solidity\\xe6\\x8a\\xa5\\xe9\\x94\\x99\\xe6\\x8e\\xa7\\xe5\\x88\\xb6.sol\":1269:1270  1 */\n      0x01\n        /* \"solidity\\xe6\\x8a\\xa5\\xe9\\x94\\x99\\xe6\\x8e\\xa7\\xe5\\x88\\xb6.sol\":1262:1265  num */\n      0x00\n      dup1\n        /* \"solidity\\xe6\\x8a\\xa5\\xe9\\x94\\x99\\xe6\\x8e\\xa7\\xe5\\x88\\xb6.sol\":1262:1270  num += 1 */\n      dup3\n      dup3\n      sload\n      tag_40\n      swap2\n      swap1\n      tag_41\n      jump\t// in\n    tag_40:\n      swap1\n      swap2\n      sstore\n      pop\n      pop\n        /* \"solidity\\xe6\\x8a\\xa5\\xe9\\x94\\x99\\xe6\\x8e\\xa7\\xe5\\x88\\xb6.sol\":1338:1340  10 */\n      0x0a\n        /* \"solidity\\xe6\\x8a\\xa5\\xe9\\x94\\x99\\xe6\\x8e\\xa7\\xe5\\x88\\xb6.sol\":1333:1340  _i < 10 */\n      dup2\n      lt\n        /* \"solidity\\xe6\\x8a\\xa5\\xe9\\x94\\x99\\xe6\\x8e\\xa7\\xe5\\x88\\xb6.sol\":1325:1362  require(_i < 10,\" I CANT < 10 ERROR\") */\n      tag_32\n      jumpi\n      mload(0x40)\n      shl(0xe5, 0x461bcd)\n      dup2\n      mstore\n        /* \"#utility.yul\":1656:1658   */\n      0x20\n        /* \"solidity\\xe6\\x8a\\xa5\\xe9\\x94\\x99\\xe6\\x8e\\xa7\\xe5\\x88\\xb6.sol\":1325:1362  require(_i < 10,\" I CANT < 10 ERROR\") */\n      0x04\n      dup3\n      add\n        /* \"#utility.yul\":1638:1659   */\n      mstore\n        /* \"#utility.yul\":1695:1697   */\n      0x12\n        /* \"#utility.yul\":1675:1693   */\n      0x24\n      dup3\n      add\n        /* \"#utility.yul\":1668:1698   */\n      mstore\n      shl(0x71, 0x10249021a0a72a101e1018981022a92927a9)\n        /* \"#utility.yul\":1714:1732   */\n      0x44\n      dup3\n      add\n        /* \"#utility.yul\":1707:1755   */\n      mstore\n        /* \"#utility.yul\":1772:1790   */\n      0x64\n      add\n        /* \"solidity\\xe6\\x8a\\xa5\\xe9\\x94\\x99\\xe6\\x8e\\xa7\\xe5\\x88\\xb6.sol\":1325:1362  require(_i < 10,\" I CANT < 10 ERROR\") */\n      tag_30\n        /* \"#utility.yul\":1454:1796   */\n      jump\n        /* \"solidity\\xe6\\x8a\\xa5\\xe9\\x94\\x99\\xe6\\x8e\\xa7\\xe5\\x88\\xb6.sol\":1509:1643  function testCustomError(uint _i) public view {... */\n    tag_24:\n        /* \"solidity\\xe6\\x8a\\xa5\\xe9\\x94\\x99\\xe6\\x8e\\xa7\\xe5\\x88\\xb6.sol\":1575:1577  10 */\n      0x0a\n        /* \"solidity\\xe6\\x8a\\xa5\\xe9\\x94\\x99\\xe6\\x8e\\xa7\\xe5\\x88\\xb6.sol\":1570:1572  _i */\n      dup2\n        /* \"solidity\\xe6\\x8a\\xa5\\xe9\\x94\\x99\\xe6\\x8e\\xa7\\xe5\\x88\\xb6.sol\":1570:1577  _i > 10 */\n      gt\n        /* \"solidity\\xe6\\x8a\\xa5\\xe9\\x94\\x99\\xe6\\x8e\\xa7\\xe5\\x88\\xb6.sol\":1566:1636  if (_i > 10) {... */\n      iszero\n      tag_32\n      jumpi\n        /* \"solidity\\xe6\\x8a\\xa5\\xe9\\x94\\x99\\xe6\\x8e\\xa7\\xe5\\x88\\xb6.sol\":1601:1624  MyError(msg.sender, _i) */\n      mload(0x40)\n      shl(0xe3, 0x1c473377)\n      dup2\n      mstore\n        /* \"solidity\\xe6\\x8a\\xa5\\xe9\\x94\\x99\\xe6\\x8e\\xa7\\xe5\\x88\\xb6.sol\":1609:1619  msg.sender */\n      caller\n        /* \"solidity\\xe6\\x8a\\xa5\\xe9\\x94\\x99\\xe6\\x8e\\xa7\\xe5\\x88\\xb6.sol\":1601:1624  MyError(msg.sender, _i) */\n      0x04\n      dup3\n      add\n        /* \"#utility.yul\":1975:2026   */\n      mstore\n        /* \"#utility.yul\":2042:2060   */\n      0x24\n      dup2\n      add\n        /* \"#utility.yul\":2035:2069   */\n      dup3\n      swap1\n      mstore\n        /* \"#utility.yul\":1948:1966   */\n      0x44\n      add\n        /* \"solidity\\xe6\\x8a\\xa5\\xe9\\x94\\x99\\xe6\\x8e\\xa7\\xe5\\x88\\xb6.sol\":1601:1624  MyError(msg.sender, _i) */\n      tag_30\n        /* \"#utility.yul\":1801:2075   */\n      jump\n        /* \"solidity\\xe6\\x8a\\xa5\\xe9\\x94\\x99\\xe6\\x8e\\xa7\\xe5\\x88\\xb6.sol\":266:392  function testRequire(uint _i) public pure {... */\n    tag_27:\n        /* \"solidity\\xe6\\x8a\\xa5\\xe9\\x94\\x99\\xe6\\x8e\\xa7\\xe5\\x88\\xb6.sol\":333:335  10 */\n      0x0a\n        /* \"solidity\\xe6\\x8a\\xa5\\xe9\\x94\\x99\\xe6\\x8e\\xa7\\xe5\\x88\\xb6.sol\":327:329  _i */\n      dup2\n        /* \"solidity\\xe6\\x8a\\xa5\\xe9\\x94\\x99\\xe6\\x8e\\xa7\\xe5\\x88\\xb6.sol\":327:335  _i <= 10 */\n      gt\n      iszero\n        /* \"solidity\\xe6\\x8a\\xa5\\xe9\\x94\\x99\\xe6\\x8e\\xa7\\xe5\\x88\\xb6.sol\":319:367  require(_i <= 10, \"i Cannot be greater than 10\") */\n      tag_32\n      jumpi\n      mload(0x40)\n      shl(0xe5, 0x461bcd)\n      dup2\n      mstore\n        /* \"#utility.yul\":583:585   */\n      0x20\n        /* \"solidity\\xe6\\x8a\\xa5\\xe9\\x94\\x99\\xe6\\x8e\\xa7\\xe5\\x88\\xb6.sol\":319:367  require(_i <= 10, \"i Cannot be greater than 10\") */\n      0x04\n      dup3\n      add\n        /* \"#utility.yul\":565:586   */\n      mstore\n        /* \"#utility.yul\":622:624   */\n      0x1b\n        /* \"#utility.yul\":602:620   */\n      0x24\n      dup3\n      add\n        /* \"#utility.yul\":595:625   */\n      mstore\n        /* \"#utility.yul\":661:690   */\n      0x692043616e6e6f742062652067726561746572207468616e2031300000000000\n        /* \"#utility.yul\":641:659   */\n      0x44\n      dup3\n      add\n        /* \"#utility.yul\":634:691   */\n      mstore\n        /* \"#utility.yul\":708:726   */\n      0x64\n      add\n        /* \"solidity\\xe6\\x8a\\xa5\\xe9\\x94\\x99\\xe6\\x8e\\xa7\\xe5\\x88\\xb6.sol\":319:367  require(_i <= 10, \"i Cannot be greater than 10\") */\n      tag_30\n        /* \"#utility.yul\":381:732   */\n      jump\n        /* \"#utility.yul\":14:194   */\n    tag_11:\n        /* \"#utility.yul\":73:79   */\n      0x00\n        /* \"#utility.yul\":126:128   */\n      0x20\n        /* \"#utility.yul\":114:123   */\n      dup3\n        /* \"#utility.yul\":105:112   */\n      dup5\n        /* \"#utility.yul\":101:124   */\n      sub\n        /* \"#utility.yul\":97:129   */\n      slt\n        /* \"#utility.yul\":94:146   */\n      iszero\n      tag_54\n      jumpi\n        /* \"#utility.yul\":142:143   */\n      0x00\n        /* \"#utility.yul\":139:140   */\n      dup1\n        /* \"#utility.yul\":132:144   */\n      revert\n        /* \"#utility.yul\":94:146   */\n    tag_54:\n      pop\n        /* \"#utility.yul\":165:188   */\n      calldataload\n      swap2\n        /* \"#utility.yul\":14:194   */\n      swap1\n      pop\n      jump\t// out\n        /* \"#utility.yul\":1092:1219   */\n    tag_38:\n        /* \"#utility.yul\":1153:1163   */\n      0x4e487b71\n        /* \"#utility.yul\":1148:1151   */\n      0xe0\n        /* \"#utility.yul\":1144:1164   */\n      shl\n        /* \"#utility.yul\":1141:1142   */\n      0x00\n        /* \"#utility.yul\":1134:1165   */\n      mstore\n        /* \"#utility.yul\":1184:1188   */\n      0x01\n        /* \"#utility.yul\":1181:1182   */\n      0x04\n        /* \"#utility.yul\":1174:1189   */\n      mstore\n        /* \"#utility.yul\":1208:1212   */\n      0x24\n        /* \"#utility.yul\":1205:1206   */\n      0x00\n        /* \"#utility.yul\":1198:1213   */\n      revert\n        /* \"#utility.yul\":1224:1449   */\n    tag_41:\n        /* \"#utility.yul\":1264:1267   */\n      0x00\n        /* \"#utility.yul\":1295:1296   */\n      dup3\n        /* \"#utility.yul\":1291:1297   */\n      not\n        /* \"#utility.yul\":1288:1289   */\n      dup3\n        /* \"#utility.yul\":1285:1298   */\n      gt\n        /* \"#utility.yul\":1282:1418   */\n      iszero\n      tag_60\n      jumpi\n        /* \"#utility.yul\":1340:1350   */\n      0x4e487b71\n        /* \"#utility.yul\":1335:1338   */\n      0xe0\n        /* \"#utility.yul\":1331:1351   */\n      shl\n        /* \"#utility.yul\":1328:1329   */\n      0x00\n        /* \"#utility.yul\":1321:1352   */\n      mstore\n        /* \"#utility.yul\":1375:1379   */\n      0x11\n        /* \"#utility.yul\":1372:1373   */\n      0x04\n        /* \"#utility.yul\":1365:1380   */\n      mstore\n        /* \"#utility.yul\":1403:1407   */\n      0x24\n        /* \"#utility.yul\":1400:1401   */\n      0x00\n        /* \"#utility.yul\":1393:1408   */\n      revert\n        /* \"#utility.yul\":1282:1418   */\n    tag_60:\n      pop\n        /* \"#utility.yul\":1434:1443   */\n      add\n      swap1\n        /* \"#utility.yul\":1224:1449   */\n      jump\t// out\n\n    auxdata: 0xa2646970667358221220a389e7821c9891856e28c7d7d26260c2ab3367147ccd63d438f02e56aea9d8b664736f6c634300080f0033\n}\n",
				"bytecode": {
					"linkReferences": {},
					"object": "6080604052607b60005534801561001557600080fd5b506102f9806100256000396000f3fe608060405234801561001057600080fd5b50600436106100625760003560e01c806320987767146100675780632b813bc01461007c5780632fbebd38146100845780634e70b1dc1461009757806375f7286c146100b2578063b8bd717f146100c5575b600080fd5b61007a61007536600461026e565b6100d8565b005b61007a610182565b61007a61009236600461026e565b610196565b6100a060005481565b60405190815260200160405180910390f35b61007a6100c036600461026e565b6101f2565b61007a6100d336600461026e565b61021d565b600a81111561012e5760405162461bcd60e51b815260206004820152601b60248201527f692043616e6e6f742062652067726561746572207468616e203130000000000060448201526064015b60405180910390fd5b600281101561017f5760405162461bcd60e51b815260206004820152601a60248201527f692043616e6e6f742062652067726561746572207468616e20320000000000006044820152606401610125565b50565b600054607b1461019457610194610287565b565b60016000808282546101a8919061029d565b9091555050600a811061017f5760405162461bcd60e51b815260206004820152601260248201527110249021a0a72a101e1018981022a92927a960711b6044820152606401610125565b600a81111561017f57604051631c47337760e31b815233600482015260248101829052604401610125565b600a81111561017f5760405162461bcd60e51b815260206004820152601b60248201527f692043616e6e6f742062652067726561746572207468616e20313000000000006044820152606401610125565b60006020828403121561028057600080fd5b5035919050565b634e487b7160e01b600052600160045260246000fd5b600082198211156102be57634e487b7160e01b600052601160045260246000fd5b50019056fea2646970667358221220a389e7821c9891856e28c7d7d26260c2ab3367147ccd63d438f02e56aea9d8b664736f6c634300080f0033",
					"opcodes": "PUSH1 0x80 PUSH1 0x40 MSTORE PUSH1 0x7B PUSH1 0x0 SSTORE CALLVALUE DUP1 ISZERO PUSH2 0x15 JUMPI PUSH1 0x0 DUP1 REVERT JUMPDEST POP PUSH2 0x2F9 DUP1 PUSH2 0x25 PUSH1 0x0 CODECOPY PUSH1 0x0 RETURN INVALID PUSH1 0x80 PUSH1 0x40 MSTORE CALLVALUE DUP1 ISZERO PUSH2 0x10 JUMPI PUSH1 0x0 DUP1 REVERT JUMPDEST POP PUSH1 0x4 CALLDATASIZE LT PUSH2 0x62 JUMPI PUSH1 0x0 CALLDATALOAD PUSH1 0xE0 SHR DUP1 PUSH4 0x20987767 EQ PUSH2 0x67 JUMPI DUP1 PUSH4 0x2B813BC0 EQ PUSH2 0x7C JUMPI DUP1 PUSH4 0x2FBEBD38 EQ PUSH2 0x84 JUMPI DUP1 PUSH4 0x4E70B1DC EQ PUSH2 0x97 JUMPI DUP1 PUSH4 0x75F7286C EQ PUSH2 0xB2 JUMPI DUP1 PUSH4 0xB8BD717F EQ PUSH2 0xC5 JUMPI JUMPDEST PUSH1 0x0 DUP1 REVERT JUMPDEST PUSH2 0x7A PUSH2 0x75 CALLDATASIZE PUSH1 0x4 PUSH2 0x26E JUMP JUMPDEST PUSH2 0xD8 JUMP JUMPDEST STOP JUMPDEST PUSH2 0x7A PUSH2 0x182 JUMP JUMPDEST PUSH2 0x7A PUSH2 0x92 CALLDATASIZE PUSH1 0x4 PUSH2 0x26E JUMP JUMPDEST PUSH2 0x196 JUMP JUMPDEST PUSH2 0xA0 PUSH1 0x0 SLOAD DUP2 JUMP JUMPDEST PUSH1 0x40 MLOAD SWAP1 DUP2 MSTORE PUSH1 0x20 ADD PUSH1 0x40 MLOAD DUP1 SWAP2 SUB SWAP1 RETURN JUMPDEST PUSH2 0x7A PUSH2 0xC0 CALLDATASIZE PUSH1 0x4 PUSH2 0x26E JUMP JUMPDEST PUSH2 0x1F2 JUMP JUMPDEST PUSH2 0x7A PUSH2 0xD3 CALLDATASIZE PUSH1 0x4 PUSH2 0x26E JUMP JUMPDEST PUSH2 0x21D JUMP JUMPDEST PUSH1 0xA DUP2 GT ISZERO PUSH2 0x12E JUMPI PUSH1 0x40 MLOAD PUSH3 0x461BCD PUSH1 0xE5 SHL DUP2 MSTORE PUSH1 0x20 PUSH1 0x4 DUP3 ADD MSTORE PUSH1 0x1B PUSH1 0x24 DUP3 ADD MSTORE PUSH32 0x692043616E6E6F742062652067726561746572207468616E2031300000000000 PUSH1 0x44 DUP3 ADD MSTORE PUSH1 0x64 ADD JUMPDEST PUSH1 0x40 MLOAD DUP1 SWAP2 SUB SWAP1 REVERT JUMPDEST PUSH1 0x2 DUP2 LT ISZERO PUSH2 0x17F JUMPI PUSH1 0x40 MLOAD PUSH3 0x461BCD PUSH1 0xE5 SHL DUP2 MSTORE PUSH1 0x20 PUSH1 0x4 DUP3 ADD MSTORE PUSH1 0x1A PUSH1 0x24 DUP3 ADD MSTORE PUSH32 0x692043616E6E6F742062652067726561746572207468616E2032000000000000 PUSH1 0x44 DUP3 ADD MSTORE PUSH1 0x64 ADD PUSH2 0x125 JUMP JUMPDEST POP JUMP JUMPDEST PUSH1 0x0 SLOAD PUSH1 0x7B EQ PUSH2 0x194 JUMPI PUSH2 0x194 PUSH2 0x287 JUMP JUMPDEST JUMP JUMPDEST PUSH1 0x1 PUSH1 0x0 DUP1 DUP3 DUP3 SLOAD PUSH2 0x1A8 SWAP2 SWAP1 PUSH2 0x29D JUMP JUMPDEST SWAP1 SWAP2 SSTORE POP POP PUSH1 0xA DUP2 LT PUSH2 0x17F JUMPI PUSH1 0x40 MLOAD PUSH3 0x461BCD PUSH1 0xE5 SHL DUP2 MSTORE PUSH1 0x20 PUSH1 0x4 DUP3 ADD MSTORE PUSH1 0x12 PUSH1 0x24 DUP3 ADD MSTORE PUSH18 0x10249021A0A72A101E1018981022A92927A9 PUSH1 0x71 SHL PUSH1 0x44 DUP3 ADD MSTORE PUSH1 0x64 ADD PUSH2 0x125 JUMP JUMPDEST PUSH1 0xA DUP2 GT ISZERO PUSH2 0x17F JUMPI PUSH1 0x40 MLOAD PUSH4 0x1C473377 PUSH1 0xE3 SHL DUP2 MSTORE CALLER PUSH1 0x4 DUP3 ADD MSTORE PUSH1 0x24 DUP2 ADD DUP3 SWAP1 MSTORE PUSH1 0x44 ADD PUSH2 0x125 JUMP JUMPDEST PUSH1 0xA DUP2 GT ISZERO PUSH2 0x17F JUMPI PUSH1 0x40 MLOAD PUSH3 0x461BCD PUSH1 0xE5 SHL DUP2 MSTORE PUSH1 0x20 PUSH1 0x4 DUP3 ADD MSTORE PUSH1 0x1B PUSH1 0x24 DUP3 ADD MSTORE PUSH32 0x692043616E6E6F742062652067726561746572207468616E2031300000000000 PUSH1 0x44 DUP3 ADD MSTORE PUSH1 0x64 ADD PUSH2 0x125 JUMP JUMPDEST PUSH1 0x0 PUSH1 0x20 DUP3 DUP5 SUB SLT ISZERO PUSH2 0x280 JUMPI PUSH1 0x0 DUP1 REVERT JUMPDEST POP CALLDATALOAD SWAP2 SWAP1 POP JUMP JUMPDEST PUSH4 0x4E487B71 PUSH1 0xE0 SHL PUSH1 0x0 MSTORE PUSH1 0x1 PUSH1 0x4 MSTORE PUSH1 0x24 PUSH1 0x0 REVERT JUMPDEST PUSH1 0x0 DUP3 NOT DUP3 GT ISZERO PUSH2 0x2BE JUMPI PUSH4 0x4E487B71 PUSH1 0xE0 SHL PUSH1 0x0 MSTORE PUSH1 0x11 PUSH1 0x4 MSTORE PUSH1 0x24 PUSH1 0x0 REVERT JUMPDEST POP ADD SWAP1 JUMP INVALID LOG2 PUSH5 0x6970667358 0x22 SLT KECCAK256 LOG3 DUP10 0xE7 DUP3 SHR SWAP9 SWAP2 DUP6 PUSH15 0x28C7D7D26260C2AB3367147CCD63D4 CODESIZE CREATE 0x2E JUMP 0xAE 0xA9 0xD8 0xB6 PUSH5 0x736F6C6343 STOP ADDMOD 0xF STOP CALLER "
				},
				"gasEstimates": {
					"creation": {
						"codeDepositCost": "152200",
						"executionCost": "22302",
						"totalCost": "174502"
					},
					"external": {
						"foo(uint256)": "24674",
						"num()": "2327",
						"testAssert()": "2302",
						"testCustomError(uint256)": "404",
						"testRequire(uint256)": "442",
						"testRevert(uint256)": "358"
					}
				},
				"methodIdentifiers": {
					"foo(uint256)": "2fbebd38",
					"num()": "4e70b1dc",
					"testAssert()": "2b813bc0",
					"testCustomError(uint256)": "75f7286c",
					"testRequire(uint256)": "b8bd717f",
					"testRevert(uint256)": "20987767"
				}
			},
			"storageLayout": {
				"storage": [
					{
						"astId": 41,
						"contract": "solidity报错控制.sol:Error",
						"label": "num",
						"offset": 0,
						"slot": "0",
						"type": "t_uint256"
					}
				],
				"types": {
					"t_uint256": {
						"encoding": "inplace",
						"label": "uint256",
						"numberOfBytes": "32"
					}
				}
			},
			"userdoc": {
				"kind": "user",
				"methods": {},
				"version": 1
			}
		}
	}
}