{
	"多签钱包合约.sol": {
		"MultiSigWallet": {
			"abi": [
				{
					"inputs": [
						{
							"internalType": "address[]",
							"name": "_owners",
							"type": "address[]"
						},
						{
							"internalType": "uint256",
							"name": "_required",
							"type": "uint256"
						}
					],
					"stateMutability": "nonpayable",
					"type": "constructor"
				},
				{
					"anonymous": false,
					"inputs": [
						{
							"indexed": true,
							"internalType": "address",
							"name": "owner",
							"type": "address"
						},
						{
							"indexed": true,
							"internalType": "uint256",
							"name": "txId",
							"type": "uint256"
						}
					],
					"name": "Approve",
					"type": "event"
				},
				{
					"anonymous": false,
					"inputs": [
						{
							"indexed": true,
							"internalType": "address",
							"name": "sender",
							"type": "address"
						},
						{
							"indexed": false,
							"internalType": "uint256",
							"name": "amout",
							"type": "uint256"
						}
					],
					"name": "Deposit",
					"type": "event"
				},
				{
					"anonymous": false,
					"inputs": [
						{
							"indexed": true,
							"internalType": "uint256",
							"name": "txId",
							"type": "uint256"
						}
					],
					"name": "Execute",
					"type": "event"
				},
				{
					"anonymous": false,
					"inputs": [
						{
							"indexed": true,
							"internalType": "address",
							"name": "owner",
							"type": "address"
						},
						{
							"indexed": true,
							"internalType": "uint256",
							"name": "txId",
							"type": "uint256"
						}
					],
					"name": "Revoke",
					"type": "event"
				},
				{
					"anonymous": false,
					"inputs": [
						{
							"indexed": true,
							"internalType": "uint256",
							"name": "txId",
							"type": "uint256"
						}
					],
					"name": "Submit",
					"type": "event"
				},
				{
					"inputs": [
						{
							"internalType": "uint256",
							"name": "_txId",
							"type": "uint256"
						}
					],
					"name": "approve",
					"outputs": [],
					"stateMutability": "nonpayable",
					"type": "function"
				},
				{
					"inputs": [
						{
							"internalType": "uint256",
							"name": "",
							"type": "uint256"
						},
						{
							"internalType": "address",
							"name": "",
							"type": "address"
						}
					],
					"name": "approved",
					"outputs": [
						{
							"internalType": "bool",
							"name": "",
							"type": "bool"
						}
					],
					"stateMutability": "view",
					"type": "function"
				},
				{
					"inputs": [
						{
							"internalType": "uint256",
							"name": "_txId",
							"type": "uint256"
						}
					],
					"name": "executed",
					"outputs": [],
					"stateMutability": "nonpayable",
					"type": "function"
				},
				{
					"inputs": [
						{
							"internalType": "address",
							"name": "",
							"type": "address"
						}
					],
					"name": "isOwner",
					"outputs": [
						{
							"internalType": "bool",
							"name": "",
							"type": "bool"
						}
					],
					"stateMutability": "view",
					"type": "function"
				},
				{
					"inputs": [
						{
							"internalType": "uint256",
							"name": "",
							"type": "uint256"
						}
					],
					"name": "owners",
					"outputs": [
						{
							"internalType": "address",
							"name": "",
							"type": "address"
						}
					],
					"stateMutability": "view",
					"type": "function"
				},
				{
					"inputs": [],
					"name": "required",
					"outputs": [
						{
							"internalType": "uint256",
							"name": "",
							"type": "uint256"
						}
					],
					"stateMutability": "view",
					"type": "function"
				},
				{
					"inputs": [
						{
							"internalType": "uint256",
							"name": "_txId",
							"type": "uint256"
						}
					],
					"name": "revoke",
					"outputs": [],
					"stateMutability": "nonpayable",
					"type": "function"
				},
				{
					"inputs": [
						{
							"internalType": "address",
							"name": "_to",
							"type": "address"
						},
						{
							"internalType": "uint256",
							"name": "_value",
							"type": "uint256"
						},
						{
							"internalType": "bytes",
							"name": "_data",
							"type": "bytes"
						}
					],
					"name": "submit",
					"outputs": [],
					"stateMutability": "nonpayable",
					"type": "function"
				},
				{
					"inputs": [
						{
							"internalType": "uint256",
							"name": "",
							"type": "uint256"
						}
					],
					"name": "transactions",
					"outputs": [
						{
							"internalType": "address",
							"name": "to",
							"type": "address"
						},
						{
							"internalType": "uint256",
							"name": "value",
							"type": "uint256"
						},
						{
							"internalType": "bytes",
							"name": "data",
							"type": "bytes"
						},
						{
							"internalType": "bool",
							"name": "executed",
							"type": "bool"
						}
					],
					"stateMutability": "view",
					"type": "function"
				},
				{
					"stateMutability": "payable",
					"type": "receive"
				}
			],
			"devdoc": {
				"kind": "dev",
				"methods": {},
				"version": 1
			},
			"evm": {
				"assembly": "    /* \"\\xe5\\xa4\\x9a\\xe7\\xad\\xbe\\xe9\\x92\\xb1\\xe5\\x8c\\x85\\xe5\\x90\\x88\\xe7\\xba\\xa6.sol\":66:3824  contract MultiSigWallet {... */\n  mstore(0x40, 0x80)\n    /* \"\\xe5\\xa4\\x9a\\xe7\\xad\\xbe\\xe9\\x92\\xb1\\xe5\\x8c\\x85\\xe5\\x90\\x88\\xe7\\xba\\xa6.sol\":1408:2216  constructor(address[] memory _owners, uint _required) {... */\n  callvalue\n  dup1\n  iszero\n  tag_1\n  jumpi\n  0x00\n  dup1\n  revert\ntag_1:\n  pop\n  mload(0x40)\n  sub(codesize, bytecodeSize)\n  dup1\n  bytecodeSize\n  dup4\n  codecopy\n  dup2\n  add\n  0x40\n  dup2\n  swap1\n  mstore\n  tag_2\n  swap2\n  tag_3\n  jump\t// in\ntag_2:\n    /* \"\\xe5\\xa4\\x9a\\xe7\\xad\\xbe\\xe9\\x92\\xb1\\xe5\\x8c\\x85\\xe5\\x90\\x88\\xe7\\xba\\xa6.sol\":1536:1537  0 */\n  0x00\n    /* \"\\xe5\\xa4\\x9a\\xe7\\xad\\xbe\\xe9\\x92\\xb1\\xe5\\x8c\\x85\\xe5\\x90\\x88\\xe7\\xba\\xa6.sol\":1519:1526  _owners */\n  dup3\n    /* \"\\xe5\\xa4\\x9a\\xe7\\xad\\xbe\\xe9\\x92\\xb1\\xe5\\x8c\\x85\\xe5\\x90\\x88\\xe7\\xba\\xa6.sol\":1519:1533  _owners.length */\n  mload\n    /* \"\\xe5\\xa4\\x9a\\xe7\\xad\\xbe\\xe9\\x92\\xb1\\xe5\\x8c\\x85\\xe5\\x90\\x88\\xe7\\xba\\xa6.sol\":1519:1537  _owners.length > 0 */\n  gt\n    /* \"\\xe5\\xa4\\x9a\\xe7\\xad\\xbe\\xe9\\x92\\xb1\\xe5\\x8c\\x85\\xe5\\x90\\x88\\xe7\\xba\\xa6.sol\":1511:1557  require(_owners.length > 0, \"owners required\") */\n  tag_6\n  jumpi\n  mload(0x40)\n  shl(0xe5, 0x461bcd)\n  dup2\n  mstore\n    /* \"#utility.yul\":1727:1729   */\n  0x20\n    /* \"\\xe5\\xa4\\x9a\\xe7\\xad\\xbe\\xe9\\x92\\xb1\\xe5\\x8c\\x85\\xe5\\x90\\x88\\xe7\\xba\\xa6.sol\":1511:1557  require(_owners.length > 0, \"owners required\") */\n  0x04\n  dup3\n  add\n    /* \"#utility.yul\":1709:1730   */\n  mstore\n    /* \"#utility.yul\":1766:1768   */\n  0x0f\n    /* \"#utility.yul\":1746:1764   */\n  0x24\n  dup3\n  add\n    /* \"#utility.yul\":1739:1769   */\n  mstore\n  shl(0x8a, 0x1bdddb995c9cc81c995c5d5a5c9959)\n    /* \"#utility.yul\":1785:1803   */\n  0x44\n  dup3\n  add\n    /* \"#utility.yul\":1778:1823   */\n  mstore\n    /* \"#utility.yul\":1840:1858   */\n  0x64\n  add\n    /* \"\\xe5\\xa4\\x9a\\xe7\\xad\\xbe\\xe9\\x92\\xb1\\xe5\\x8c\\x85\\xe5\\x90\\x88\\xe7\\xba\\xa6.sol\":1511:1557  require(_owners.length > 0, \"owners required\") */\ntag_7:\n  mload(0x40)\n  dup1\n  swap2\n  sub\n  swap1\n  revert\ntag_6:\n    /* \"\\xe5\\xa4\\x9a\\xe7\\xad\\xbe\\xe9\\x92\\xb1\\xe5\\x8c\\x85\\xe5\\x90\\x88\\xe7\\xba\\xa6.sol\":1671:1672  0 */\n  0x00\n    /* \"\\xe5\\xa4\\x9a\\xe7\\xad\\xbe\\xe9\\x92\\xb1\\xe5\\x8c\\x85\\xe5\\x90\\x88\\xe7\\xba\\xa6.sol\":1659:1668  _required */\n  dup2\n    /* \"\\xe5\\xa4\\x9a\\xe7\\xad\\xbe\\xe9\\x92\\xb1\\xe5\\x8c\\x85\\xe5\\x90\\x88\\xe7\\xba\\xa6.sol\":1659:1672  _required > 0 */\n  gt\n    /* \"\\xe5\\xa4\\x9a\\xe7\\xad\\xbe\\xe9\\x92\\xb1\\xe5\\x8c\\x85\\xe5\\x90\\x88\\xe7\\xba\\xa6.sol\":1659:1703  _required > 0 && _required <= _owners.length */\n  dup1\n  iszero\n  tag_9\n  jumpi\n  pop\n    /* \"\\xe5\\xa4\\x9a\\xe7\\xad\\xbe\\xe9\\x92\\xb1\\xe5\\x8c\\x85\\xe5\\x90\\x88\\xe7\\xba\\xa6.sol\":1689:1696  _owners */\n  dup2\n    /* \"\\xe5\\xa4\\x9a\\xe7\\xad\\xbe\\xe9\\x92\\xb1\\xe5\\x8c\\x85\\xe5\\x90\\x88\\xe7\\xba\\xa6.sol\":1689:1703  _owners.length */\n  mload\n    /* \"\\xe5\\xa4\\x9a\\xe7\\xad\\xbe\\xe9\\x92\\xb1\\xe5\\x8c\\x85\\xe5\\x90\\x88\\xe7\\xba\\xa6.sol\":1676:1685  _required */\n  dup2\n    /* \"\\xe5\\xa4\\x9a\\xe7\\xad\\xbe\\xe9\\x92\\xb1\\xe5\\x8c\\x85\\xe5\\x90\\x88\\xe7\\xba\\xa6.sol\":1676:1703  _required <= _owners.length */\n  gt\n  iszero\n    /* \"\\xe5\\xa4\\x9a\\xe7\\xad\\xbe\\xe9\\x92\\xb1\\xe5\\x8c\\x85\\xe5\\x90\\x88\\xe7\\xba\\xa6.sol\":1659:1703  _required > 0 && _required <= _owners.length */\ntag_9:\n    /* \"\\xe5\\xa4\\x9a\\xe7\\xad\\xbe\\xe9\\x92\\xb1\\xe5\\x8c\\x85\\xe5\\x90\\x88\\xe7\\xba\\xa6.sol\":1651:1732  require(_required > 0 && _required <= _owners.length,... */\n  tag_10\n  jumpi\n  mload(0x40)\n  shl(0xe5, 0x461bcd)\n  dup2\n  mstore\n    /* \"#utility.yul\":2071:2073   */\n  0x20\n    /* \"\\xe5\\xa4\\x9a\\xe7\\xad\\xbe\\xe9\\x92\\xb1\\xe5\\x8c\\x85\\xe5\\x90\\x88\\xe7\\xba\\xa6.sol\":1651:1732  require(_required > 0 && _required <= _owners.length,... */\n  0x04\n  dup3\n  add\n    /* \"#utility.yul\":2053:2074   */\n  mstore\n    /* \"#utility.yul\":2110:2112   */\n  0x0f\n    /* \"#utility.yul\":2090:2108   */\n  0x24\n  dup3\n  add\n    /* \"#utility.yul\":2083:2113   */\n  mstore\n  shl(0x8a, 0x195c9c9bdc881b195b99dd1a195cdd)\n    /* \"#utility.yul\":2129:2147   */\n  0x44\n  dup3\n  add\n    /* \"#utility.yul\":2122:2167   */\n  mstore\n    /* \"#utility.yul\":2184:2202   */\n  0x64\n  add\n    /* \"\\xe5\\xa4\\x9a\\xe7\\xad\\xbe\\xe9\\x92\\xb1\\xe5\\x8c\\x85\\xe5\\x90\\x88\\xe7\\xba\\xa6.sol\":1651:1732  require(_required > 0 && _required <= _owners.length,... */\n  tag_7\n    /* \"#utility.yul\":1869:2208   */\n  jump\n    /* \"\\xe5\\xa4\\x9a\\xe7\\xad\\xbe\\xe9\\x92\\xb1\\xe5\\x8c\\x85\\xe5\\x90\\x88\\xe7\\xba\\xa6.sol\":1651:1732  require(_required > 0 && _required <= _owners.length,... */\ntag_10:\n    /* \"\\xe5\\xa4\\x9a\\xe7\\xad\\xbe\\xe9\\x92\\xb1\\xe5\\x8c\\x85\\xe5\\x90\\x88\\xe7\\xba\\xa6.sol\":1820:1826  uint i */\n  0x00\n    /* \"\\xe5\\xa4\\x9a\\xe7\\xad\\xbe\\xe9\\x92\\xb1\\xe5\\x8c\\x85\\xe5\\x90\\x88\\xe7\\xba\\xa6.sol\":1815:2178  for (uint i; i < _owners.length; i++) {... */\ntag_13:\n    /* \"\\xe5\\xa4\\x9a\\xe7\\xad\\xbe\\xe9\\x92\\xb1\\xe5\\x8c\\x85\\xe5\\x90\\x88\\xe7\\xba\\xa6.sol\":1832:1839  _owners */\n  dup3\n    /* \"\\xe5\\xa4\\x9a\\xe7\\xad\\xbe\\xe9\\x92\\xb1\\xe5\\x8c\\x85\\xe5\\x90\\x88\\xe7\\xba\\xa6.sol\":1832:1846  _owners.length */\n  mload\n    /* \"\\xe5\\xa4\\x9a\\xe7\\xad\\xbe\\xe9\\x92\\xb1\\xe5\\x8c\\x85\\xe5\\x90\\x88\\xe7\\xba\\xa6.sol\":1828:1829  i */\n  dup2\n    /* \"\\xe5\\xa4\\x9a\\xe7\\xad\\xbe\\xe9\\x92\\xb1\\xe5\\x8c\\x85\\xe5\\x90\\x88\\xe7\\xba\\xa6.sol\":1828:1846  i < _owners.length */\n  lt\n    /* \"\\xe5\\xa4\\x9a\\xe7\\xad\\xbe\\xe9\\x92\\xb1\\xe5\\x8c\\x85\\xe5\\x90\\x88\\xe7\\xba\\xa6.sol\":1815:2178  for (uint i; i < _owners.length; i++) {... */\n  iszero\n  tag_14\n  jumpi\n    /* \"\\xe5\\xa4\\x9a\\xe7\\xad\\xbe\\xe9\\x92\\xb1\\xe5\\x8c\\x85\\xe5\\x90\\x88\\xe7\\xba\\xa6.sol\":1864:1877  address owner */\n  0x00\n    /* \"\\xe5\\xa4\\x9a\\xe7\\xad\\xbe\\xe9\\x92\\xb1\\xe5\\x8c\\x85\\xe5\\x90\\x88\\xe7\\xba\\xa6.sol\":1880:1887  _owners */\n  dup4\n    /* \"\\xe5\\xa4\\x9a\\xe7\\xad\\xbe\\xe9\\x92\\xb1\\xe5\\x8c\\x85\\xe5\\x90\\x88\\xe7\\xba\\xa6.sol\":1888:1889  i */\n  dup3\n    /* \"\\xe5\\xa4\\x9a\\xe7\\xad\\xbe\\xe9\\x92\\xb1\\xe5\\x8c\\x85\\xe5\\x90\\x88\\xe7\\xba\\xa6.sol\":1880:1890  _owners[i] */\n  dup2\n  mload\n  dup2\n  lt\n  tag_17\n  jumpi\n  tag_17\n  tag_18\n  jump\t// in\ntag_17:\n  0x20\n  mul\n  0x20\n  add\n  add\n  mload\n    /* \"\\xe5\\xa4\\x9a\\xe7\\xad\\xbe\\xe9\\x92\\xb1\\xe5\\x8c\\x85\\xe5\\x90\\x88\\xe7\\xba\\xa6.sol\":1864:1890  address owner = _owners[i] */\n  swap1\n  pop\n    /* \"\\xe5\\xa4\\x9a\\xe7\\xad\\xbe\\xe9\\x92\\xb1\\xe5\\x8c\\x85\\xe5\\x90\\x88\\xe7\\xba\\xa6.sol\":1926:1927  0 */\n  0x00\n  sub(shl(0xa0, 0x01), 0x01)\n    /* \"\\xe5\\xa4\\x9a\\xe7\\xad\\xbe\\xe9\\x92\\xb1\\xe5\\x8c\\x85\\xe5\\x90\\x88\\xe7\\xba\\xa6.sol\":1909:1928  owner != address(0) */\n  and\n    /* \"\\xe5\\xa4\\x9a\\xe7\\xad\\xbe\\xe9\\x92\\xb1\\xe5\\x8c\\x85\\xe5\\x90\\x88\\xe7\\xba\\xa6.sol\":1909:1914  owner */\n  dup2\n  sub(shl(0xa0, 0x01), 0x01)\n    /* \"\\xe5\\xa4\\x9a\\xe7\\xad\\xbe\\xe9\\x92\\xb1\\xe5\\x8c\\x85\\xe5\\x90\\x88\\xe7\\xba\\xa6.sol\":1909:1928  owner != address(0) */\n  and\n  sub\n    /* \"\\xe5\\xa4\\x9a\\xe7\\xad\\xbe\\xe9\\x92\\xb1\\xe5\\x8c\\x85\\xe5\\x90\\x88\\xe7\\xba\\xa6.sol\":1901:1935  require(owner != address(0),\"!=0\") */\n  tag_19\n  jumpi\n  mload(0x40)\n  shl(0xe5, 0x461bcd)\n  dup2\n  mstore\n    /* \"#utility.yul\":2547:2549   */\n  0x20\n    /* \"\\xe5\\xa4\\x9a\\xe7\\xad\\xbe\\xe9\\x92\\xb1\\xe5\\x8c\\x85\\xe5\\x90\\x88\\xe7\\xba\\xa6.sol\":1901:1935  require(owner != address(0),\"!=0\") */\n  0x04\n  dup3\n  add\n    /* \"#utility.yul\":2529:2550   */\n  mstore\n    /* \"#utility.yul\":2586:2587   */\n  0x03\n    /* \"#utility.yul\":2566:2584   */\n  0x24\n  dup3\n  add\n    /* \"#utility.yul\":2559:2588   */\n  mstore\n  shl(0xec, 0x0213d3)\n    /* \"#utility.yul\":2604:2622   */\n  0x44\n  dup3\n  add\n    /* \"#utility.yul\":2597:2630   */\n  mstore\n    /* \"#utility.yul\":2647:2665   */\n  0x64\n  add\n    /* \"\\xe5\\xa4\\x9a\\xe7\\xad\\xbe\\xe9\\x92\\xb1\\xe5\\x8c\\x85\\xe5\\x90\\x88\\xe7\\xba\\xa6.sol\":1901:1935  require(owner != address(0),\"!=0\") */\n  tag_7\n    /* \"#utility.yul\":2345:2671   */\n  jump\n    /* \"\\xe5\\xa4\\x9a\\xe7\\xad\\xbe\\xe9\\x92\\xb1\\xe5\\x8c\\x85\\xe5\\x90\\x88\\xe7\\xba\\xa6.sol\":1901:1935  require(owner != address(0),\"!=0\") */\ntag_19:\n  sub(shl(0xa0, 0x01), 0x01)\n    /* \"\\xe5\\xa4\\x9a\\xe7\\xad\\xbe\\xe9\\x92\\xb1\\xe5\\x8c\\x85\\xe5\\x90\\x88\\xe7\\xba\\xa6.sol\":1955:1969  isOwner[owner] */\n  dup2\n  and\n  0x00\n  swap1\n  dup2\n  mstore\n    /* \"\\xe5\\xa4\\x9a\\xe7\\xad\\xbe\\xe9\\x92\\xb1\\xe5\\x8c\\x85\\xe5\\x90\\x88\\xe7\\xba\\xa6.sol\":1955:1962  isOwner */\n  0x01\n    /* \"\\xe5\\xa4\\x9a\\xe7\\xad\\xbe\\xe9\\x92\\xb1\\xe5\\x8c\\x85\\xe5\\x90\\x88\\xe7\\xba\\xa6.sol\":1955:1969  isOwner[owner] */\n  0x20\n  mstore\n  0x40\n  swap1\n  keccak256\n  sload\n  0xff\n  and\n    /* \"\\xe5\\xa4\\x9a\\xe7\\xad\\xbe\\xe9\\x92\\xb1\\xe5\\x8c\\x85\\xe5\\x90\\x88\\xe7\\xba\\xa6.sol\":1954:1969  !isOwner[owner] */\n  iszero\n    /* \"\\xe5\\xa4\\x9a\\xe7\\xad\\xbe\\xe9\\x92\\xb1\\xe5\\x8c\\x85\\xe5\\x90\\x88\\xe7\\xba\\xa6.sol\":1946:1992  require(!isOwner[owner],\"owner is not unique\") */\n  tag_22\n  jumpi\n  mload(0x40)\n  shl(0xe5, 0x461bcd)\n  dup2\n  mstore\n    /* \"#utility.yul\":2878:2880   */\n  0x20\n    /* \"\\xe5\\xa4\\x9a\\xe7\\xad\\xbe\\xe9\\x92\\xb1\\xe5\\x8c\\x85\\xe5\\x90\\x88\\xe7\\xba\\xa6.sol\":1946:1992  require(!isOwner[owner],\"owner is not unique\") */\n  0x04\n  dup3\n  add\n    /* \"#utility.yul\":2860:2881   */\n  mstore\n    /* \"#utility.yul\":2917:2919   */\n  0x13\n    /* \"#utility.yul\":2897:2915   */\n  0x24\n  dup3\n  add\n    /* \"#utility.yul\":2890:2920   */\n  mstore\n    /* \"#utility.yul\":2956:2977   */\n  0x6f776e6572206973206e6f7420756e6971756500000000000000000000000000\n    /* \"#utility.yul\":2936:2954   */\n  0x44\n  dup3\n  add\n    /* \"#utility.yul\":2929:2978   */\n  mstore\n    /* \"#utility.yul\":2995:3013   */\n  0x64\n  add\n    /* \"\\xe5\\xa4\\x9a\\xe7\\xad\\xbe\\xe9\\x92\\xb1\\xe5\\x8c\\x85\\xe5\\x90\\x88\\xe7\\xba\\xa6.sol\":1946:1992  require(!isOwner[owner],\"owner is not unique\") */\n  tag_7\n    /* \"#utility.yul\":2676:3019   */\n  jump\n    /* \"\\xe5\\xa4\\x9a\\xe7\\xad\\xbe\\xe9\\x92\\xb1\\xe5\\x8c\\x85\\xe5\\x90\\x88\\xe7\\xba\\xa6.sol\":1946:1992  require(!isOwner[owner],\"owner is not unique\") */\ntag_22:\n  sub(shl(0xa0, 0x01), 0x01)\n    /* \"\\xe5\\xa4\\x9a\\xe7\\xad\\xbe\\xe9\\x92\\xb1\\xe5\\x8c\\x85\\xe5\\x90\\x88\\xe7\\xba\\xa6.sol\":2116:2130  isOwner[owner] */\n  and\n  0x00\n  dup2\n  dup2\n  mstore\n    /* \"\\xe5\\xa4\\x9a\\xe7\\xad\\xbe\\xe9\\x92\\xb1\\xe5\\x8c\\x85\\xe5\\x90\\x88\\xe7\\xba\\xa6.sol\":2133:2137  true */\n  0x01\n    /* \"\\xe5\\xa4\\x9a\\xe7\\xad\\xbe\\xe9\\x92\\xb1\\xe5\\x8c\\x85\\xe5\\x90\\x88\\xe7\\xba\\xa6.sol\":2116:2130  isOwner[owner] */\n  0x20\n  dup2\n  swap1\n  mstore\n  0x40\n  dup3\n  keccak256\n    /* \"\\xe5\\xa4\\x9a\\xe7\\xad\\xbe\\xe9\\x92\\xb1\\xe5\\x8c\\x85\\xe5\\x90\\x88\\xe7\\xba\\xa6.sol\":2116:2137  isOwner[owner] = true */\n  dup1\n  sload\n  not(0xff)\n  and\n  dup3\n  or\n  swap1\n  sstore\n    /* \"\\xe5\\xa4\\x9a\\xe7\\xad\\xbe\\xe9\\x92\\xb1\\xe5\\x8c\\x85\\xe5\\x90\\x88\\xe7\\xba\\xa6.sol\":2148:2166  owners.push(owner) */\n  dup2\n  sload\n  swap1\n  dup2\n  add\n  dup3\n  sstore\n  swap1\n  dup1\n  mstore\n  0x290decd9548b62a8d60345a988386fc84ba6bc95484008f6362f93160ef3e563\n  add\n  dup1\n  sload\n  not(sub(shl(0xa0, 0x01), 0x01))\n  and\n  swap1\n  swap2\n  or\n  swap1\n  sstore\n    /* \"\\xe5\\xa4\\x9a\\xe7\\xad\\xbe\\xe9\\x92\\xb1\\xe5\\x8c\\x85\\xe5\\x90\\x88\\xe7\\xba\\xa6.sol\":1848:1851  i++ */\n  dup1\n  tag_26\n  dup2\n  tag_27\n  jump\t// in\ntag_26:\n  swap2\n  pop\n  pop\n    /* \"\\xe5\\xa4\\x9a\\xe7\\xad\\xbe\\xe9\\x92\\xb1\\xe5\\x8c\\x85\\xe5\\x90\\x88\\xe7\\xba\\xa6.sol\":1815:2178  for (uint i; i < _owners.length; i++) {... */\n  jump(tag_13)\ntag_14:\n  pop\n    /* \"\\xe5\\xa4\\x9a\\xe7\\xad\\xbe\\xe9\\x92\\xb1\\xe5\\x8c\\x85\\xe5\\x90\\x88\\xe7\\xba\\xa6.sol\":2188:2196  required */\n  0x02\n    /* \"\\xe5\\xa4\\x9a\\xe7\\xad\\xbe\\xe9\\x92\\xb1\\xe5\\x8c\\x85\\xe5\\x90\\x88\\xe7\\xba\\xa6.sol\":2188:2208  required = _required */\n  sstore\n  pop\n    /* \"\\xe5\\xa4\\x9a\\xe7\\xad\\xbe\\xe9\\x92\\xb1\\xe5\\x8c\\x85\\xe5\\x90\\x88\\xe7\\xba\\xa6.sol\":66:3824  contract MultiSigWallet {... */\n  jump(tag_31)\n    /* \"#utility.yul\":14:141   */\ntag_29:\n    /* \"#utility.yul\":75:85   */\n  0x4e487b71\n    /* \"#utility.yul\":70:73   */\n  0xe0\n    /* \"#utility.yul\":66:86   */\n  shl\n    /* \"#utility.yul\":63:64   */\n  0x00\n    /* \"#utility.yul\":56:87   */\n  mstore\n    /* \"#utility.yul\":106:110   */\n  0x41\n    /* \"#utility.yul\":103:104   */\n  0x04\n    /* \"#utility.yul\":96:111   */\n  mstore\n    /* \"#utility.yul\":130:134   */\n  0x24\n    /* \"#utility.yul\":127:128   */\n  0x00\n    /* \"#utility.yul\":120:135   */\n  revert\n    /* \"#utility.yul\":146:323   */\ntag_30:\n    /* \"#utility.yul\":225:238   */\n  dup1\n  mload\n  sub(shl(0xa0, 0x01), 0x01)\n    /* \"#utility.yul\":267:298   */\n  dup2\n  and\n    /* \"#utility.yul\":257:299   */\n  dup2\n  eq\n    /* \"#utility.yul\":247:317   */\n  tag_34\n  jumpi\n    /* \"#utility.yul\":313:314   */\n  0x00\n    /* \"#utility.yul\":310:311   */\n  dup1\n    /* \"#utility.yul\":303:315   */\n  revert\n    /* \"#utility.yul\":247:317   */\ntag_34:\n    /* \"#utility.yul\":146:323   */\n  swap2\n  swap1\n  pop\n  jump\t// out\n    /* \"#utility.yul\":328:1520   */\ntag_3:\n    /* \"#utility.yul\":432:438   */\n  0x00\n    /* \"#utility.yul\":440:446   */\n  dup1\n    /* \"#utility.yul\":493:495   */\n  0x40\n    /* \"#utility.yul\":481:490   */\n  dup4\n    /* \"#utility.yul\":472:479   */\n  dup6\n    /* \"#utility.yul\":468:491   */\n  sub\n    /* \"#utility.yul\":464:496   */\n  slt\n    /* \"#utility.yul\":461:513   */\n  iszero\n  tag_36\n  jumpi\n    /* \"#utility.yul\":509:510   */\n  0x00\n    /* \"#utility.yul\":506:507   */\n  dup1\n    /* \"#utility.yul\":499:511   */\n  revert\n    /* \"#utility.yul\":461:513   */\ntag_36:\n    /* \"#utility.yul\":536:552   */\n  dup3\n  mload\n  sub(shl(0x40, 0x01), 0x01)\n    /* \"#utility.yul\":601:615   */\n  dup1\n  dup3\n  gt\n    /* \"#utility.yul\":598:632   */\n  iszero\n  tag_37\n  jumpi\n    /* \"#utility.yul\":628:629   */\n  0x00\n    /* \"#utility.yul\":625:626   */\n  dup1\n    /* \"#utility.yul\":618:630   */\n  revert\n    /* \"#utility.yul\":598:632   */\ntag_37:\n    /* \"#utility.yul\":666:672   */\n  dup2\n    /* \"#utility.yul\":655:664   */\n  dup6\n    /* \"#utility.yul\":651:673   */\n  add\n    /* \"#utility.yul\":641:673   */\n  swap2\n  pop\n    /* \"#utility.yul\":711:718   */\n  dup6\n    /* \"#utility.yul\":704:708   */\n  0x1f\n    /* \"#utility.yul\":700:702   */\n  dup4\n    /* \"#utility.yul\":696:709   */\n  add\n    /* \"#utility.yul\":692:719   */\n  slt\n    /* \"#utility.yul\":682:737   */\n  tag_38\n  jumpi\n    /* \"#utility.yul\":733:734   */\n  0x00\n    /* \"#utility.yul\":730:731   */\n  dup1\n    /* \"#utility.yul\":723:735   */\n  revert\n    /* \"#utility.yul\":682:737   */\ntag_38:\n    /* \"#utility.yul\":762:764   */\n  dup2\n    /* \"#utility.yul\":756:765   */\n  mload\n    /* \"#utility.yul\":784:788   */\n  0x20\n    /* \"#utility.yul\":807:809   */\n  dup3\n    /* \"#utility.yul\":803:805   */\n  dup3\n    /* \"#utility.yul\":800:810   */\n  gt\n    /* \"#utility.yul\":797:833   */\n  iszero\n  tag_40\n  jumpi\n    /* \"#utility.yul\":813:831   */\n  tag_40\n  tag_29\n  jump\t// in\ntag_40:\n    /* \"#utility.yul\":859:861   */\n  dup2\n    /* \"#utility.yul\":856:857   */\n  0x05\n    /* \"#utility.yul\":852:862   */\n  shl\n    /* \"#utility.yul\":891:893   */\n  0x40\n    /* \"#utility.yul\":885:894   */\n  mload\n    /* \"#utility.yul\":954:956   */\n  0x1f\n    /* \"#utility.yul\":950:957   */\n  not\n    /* \"#utility.yul\":945:947   */\n  0x3f\n    /* \"#utility.yul\":941:943   */\n  dup4\n    /* \"#utility.yul\":937:948   */\n  add\n    /* \"#utility.yul\":933:958   */\n  and\n    /* \"#utility.yul\":925:931   */\n  dup2\n    /* \"#utility.yul\":921:959   */\n  add\n    /* \"#utility.yul\":1009:1015   */\n  dup2\n    /* \"#utility.yul\":997:1007   */\n  dup2\n    /* \"#utility.yul\":994:1016   */\n  lt\n    /* \"#utility.yul\":989:991   */\n  dup7\n    /* \"#utility.yul\":977:987   */\n  dup3\n    /* \"#utility.yul\":974:992   */\n  gt\n    /* \"#utility.yul\":971:1017   */\n  or\n    /* \"#utility.yul\":968:1040   */\n  iszero\n  tag_42\n  jumpi\n    /* \"#utility.yul\":1020:1038   */\n  tag_42\n  tag_29\n  jump\t// in\ntag_42:\n    /* \"#utility.yul\":1056:1058   */\n  0x40\n    /* \"#utility.yul\":1049:1071   */\n  mstore\n    /* \"#utility.yul\":1106:1124   */\n  swap3\n  dup4\n  mstore\n    /* \"#utility.yul\":1140:1155   */\n  dup2\n  dup4\n  add\n  swap4\n  pop\n    /* \"#utility.yul\":1182:1193   */\n  dup5\n  dup2\n  add\n    /* \"#utility.yul\":1178:1198   */\n  dup3\n  add\n  swap3\n    /* \"#utility.yul\":1210:1229   */\n  dup10\n  dup5\n  gt\n    /* \"#utility.yul\":1207:1246   */\n  iszero\n  tag_43\n  jumpi\n    /* \"#utility.yul\":1242:1243   */\n  0x00\n    /* \"#utility.yul\":1239:1240   */\n  dup1\n    /* \"#utility.yul\":1232:1244   */\n  revert\n    /* \"#utility.yul\":1207:1246   */\ntag_43:\n    /* \"#utility.yul\":1266:1277   */\n  swap5\n  dup3\n  add\n  swap5\n    /* \"#utility.yul\":1286:1445   */\ntag_44:\n    /* \"#utility.yul\":1302:1308   */\n  dup4\n    /* \"#utility.yul\":1297:1300   */\n  dup7\n    /* \"#utility.yul\":1294:1309   */\n  lt\n    /* \"#utility.yul\":1286:1445   */\n  iszero\n  tag_46\n  jumpi\n    /* \"#utility.yul\":1368:1402   */\n  tag_47\n    /* \"#utility.yul\":1398:1401   */\n  dup7\n    /* \"#utility.yul\":1368:1402   */\n  tag_30\n  jump\t// in\ntag_47:\n    /* \"#utility.yul\":1356:1403   */\n  dup6\n  mstore\n    /* \"#utility.yul\":1319:1331   */\n  swap5\n  dup3\n  add\n  swap5\n    /* \"#utility.yul\":1423:1435   */\n  swap4\n  dup3\n  add\n  swap4\n    /* \"#utility.yul\":1286:1445   */\n  jump(tag_44)\ntag_46:\n    /* \"#utility.yul\":1495:1513   */\n  swap8\n  swap1\n  swap2\n  add\n    /* \"#utility.yul\":1489:1514   */\n  mload\n    /* \"#utility.yul\":1464:1470   */\n  swap7\n  swap9\n    /* \"#utility.yul\":1489:1514   */\n  swap7\n  swap8\n  pop\n  pop\n  pop\n  pop\n  pop\n  pop\n  pop\n    /* \"#utility.yul\":328:1520   */\n  jump\t// out\n    /* \"#utility.yul\":2213:2340   */\ntag_18:\n    /* \"#utility.yul\":2274:2284   */\n  0x4e487b71\n    /* \"#utility.yul\":2269:2272   */\n  0xe0\n    /* \"#utility.yul\":2265:2285   */\n  shl\n    /* \"#utility.yul\":2262:2263   */\n  0x00\n    /* \"#utility.yul\":2255:2286   */\n  mstore\n    /* \"#utility.yul\":2305:2309   */\n  0x32\n    /* \"#utility.yul\":2302:2303   */\n  0x04\n    /* \"#utility.yul\":2295:2310   */\n  mstore\n    /* \"#utility.yul\":2329:2333   */\n  0x24\n    /* \"#utility.yul\":2326:2327   */\n  0x00\n    /* \"#utility.yul\":2319:2334   */\n  revert\n    /* \"#utility.yul\":3024:3256   */\ntag_27:\n    /* \"#utility.yul\":3063:3066   */\n  0x00\n    /* \"#utility.yul\":3084:3101   */\n  0x01\n  dup3\n  add\n    /* \"#utility.yul\":3081:3221   */\n  tag_54\n  jumpi\n    /* \"#utility.yul\":3143:3153   */\n  0x4e487b71\n    /* \"#utility.yul\":3138:3141   */\n  0xe0\n    /* \"#utility.yul\":3134:3154   */\n  shl\n    /* \"#utility.yul\":3131:3132   */\n  0x00\n    /* \"#utility.yul\":3124:3155   */\n  mstore\n    /* \"#utility.yul\":3178:3182   */\n  0x11\n    /* \"#utility.yul\":3175:3176   */\n  0x04\n    /* \"#utility.yul\":3168:3183   */\n  mstore\n    /* \"#utility.yul\":3206:3210   */\n  0x24\n    /* \"#utility.yul\":3203:3204   */\n  0x00\n    /* \"#utility.yul\":3196:3211   */\n  revert\n    /* \"#utility.yul\":3081:3221   */\ntag_54:\n  pop\n    /* \"#utility.yul\":3248:3249   */\n  0x01\n    /* \"#utility.yul\":3237:3250   */\n  add\n  swap1\n    /* \"#utility.yul\":3024:3256   */\n  jump\t// out\ntag_31:\n    /* \"\\xe5\\xa4\\x9a\\xe7\\xad\\xbe\\xe9\\x92\\xb1\\xe5\\x8c\\x85\\xe5\\x90\\x88\\xe7\\xba\\xa6.sol\":66:3824  contract MultiSigWallet {... */\n  dataSize(sub_0)\n  dup1\n  dataOffset(sub_0)\n  0x00\n  codecopy\n  0x00\n  return\nstop\n\nsub_0: assembly {\n        /* \"\\xe5\\xa4\\x9a\\xe7\\xad\\xbe\\xe9\\x92\\xb1\\xe5\\x8c\\x85\\xe5\\x90\\x88\\xe7\\xba\\xa6.sol\":66:3824  contract MultiSigWallet {... */\n      mstore(0x40, 0x80)\n      jumpi(tag_1, lt(calldatasize, 0x04))\n      shr(0xe0, calldataload(0x00))\n      dup1\n      0x8253951a\n      gt\n      tag_12\n      jumpi\n      dup1\n      0x8253951a\n      eq\n      tag_7\n      jumpi\n      dup1\n      0x9ace38c2\n      eq\n      tag_8\n      jumpi\n      dup1\n      0xb759f954\n      eq\n      tag_9\n      jumpi\n      dup1\n      0xd3ecebd7\n      eq\n      tag_10\n      jumpi\n      dup1\n      0xdc8452cd\n      eq\n      tag_11\n      jumpi\n      0x00\n      dup1\n      revert\n    tag_12:\n      dup1\n      0x025e7c27\n      eq\n      tag_3\n      jumpi\n      dup1\n      0x14de327f\n      eq\n      tag_4\n      jumpi\n      dup1\n      0x20c5429b\n      eq\n      tag_5\n      jumpi\n      dup1\n      0x2f54bf6e\n      eq\n      tag_6\n      jumpi\n      0x00\n      dup1\n      revert\n    tag_1:\n      jumpi(tag_2, calldatasize)\n        /* \"\\xe5\\xa4\\x9a\\xe7\\xad\\xbe\\xe9\\x92\\xb1\\xe5\\x8c\\x85\\xe5\\x90\\x88\\xe7\\xba\\xa6.sol\":2273:2303  Deposit(msg.sender, msg.value) */\n      mload(0x40)\n        /* \"\\xe5\\xa4\\x9a\\xe7\\xad\\xbe\\xe9\\x92\\xb1\\xe5\\x8c\\x85\\xe5\\x90\\x88\\xe7\\xba\\xa6.sol\":2293:2302  msg.value */\n      callvalue\n        /* \"#utility.yul\":160:185   */\n      dup2\n      mstore\n        /* \"\\xe5\\xa4\\x9a\\xe7\\xad\\xbe\\xe9\\x92\\xb1\\xe5\\x8c\\x85\\xe5\\x90\\x88\\xe7\\xba\\xa6.sol\":2281:2291  msg.sender */\n      caller\n      swap1\n        /* \"\\xe5\\xa4\\x9a\\xe7\\xad\\xbe\\xe9\\x92\\xb1\\xe5\\x8c\\x85\\xe5\\x90\\x88\\xe7\\xba\\xa6.sol\":2273:2303  Deposit(msg.sender, msg.value) */\n      0xe1fffcc4923d04b559f4d29a8bfc6cda04eb5b0d3c460751c2402c5c5cc9109c\n      swap1\n        /* \"#utility.yul\":148:150   */\n      0x20\n        /* \"#utility.yul\":133:151   */\n      add\n        /* \"\\xe5\\xa4\\x9a\\xe7\\xad\\xbe\\xe9\\x92\\xb1\\xe5\\x8c\\x85\\xe5\\x90\\x88\\xe7\\xba\\xa6.sol\":2273:2303  Deposit(msg.sender, msg.value) */\n      mload(0x40)\n      dup1\n      swap2\n      sub\n      swap1\n      log2\n        /* \"\\xe5\\xa4\\x9a\\xe7\\xad\\xbe\\xe9\\x92\\xb1\\xe5\\x8c\\x85\\xe5\\x90\\x88\\xe7\\xba\\xa6.sol\":66:3824  contract MultiSigWallet {... */\n      stop\n    tag_2:\n      0x00\n      dup1\n      revert\n        /* \"\\xe5\\xa4\\x9a\\xe7\\xad\\xbe\\xe9\\x92\\xb1\\xe5\\x8c\\x85\\xe5\\x90\\x88\\xe7\\xba\\xa6.sol\":481:504  address[] public owners */\n    tag_3:\n      callvalue\n      dup1\n      iszero\n      tag_17\n      jumpi\n      0x00\n      dup1\n      revert\n    tag_17:\n      pop\n      tag_18\n      tag_19\n      calldatasize\n      0x04\n      tag_20\n      jump\t// in\n    tag_19:\n      tag_21\n      jump\t// in\n    tag_18:\n      mload(0x40)\n      sub(shl(0xa0, 0x01), 0x01)\n        /* \"#utility.yul\":545:577   */\n      swap1\n      swap2\n      and\n        /* \"#utility.yul\":527:578   */\n      dup2\n      mstore\n        /* \"#utility.yul\":515:517   */\n      0x20\n        /* \"#utility.yul\":500:518   */\n      add\n        /* \"\\xe5\\xa4\\x9a\\xe7\\xad\\xbe\\xe9\\x92\\xb1\\xe5\\x8c\\x85\\xe5\\x90\\x88\\xe7\\xba\\xa6.sol\":481:504  address[] public owners */\n    tag_22:\n      mload(0x40)\n      dup1\n      swap2\n      sub\n      swap1\n      return\n        /* \"\\xe5\\xa4\\x9a\\xe7\\xad\\xbe\\xe9\\x92\\xb1\\xe5\\x8c\\x85\\xe5\\x90\\x88\\xe7\\xba\\xa6.sol\":2319:2620  function submit(address _to, uint _value, bytes calldata _data) external onlyOwner{... */\n    tag_4:\n      callvalue\n      dup1\n      iszero\n      tag_24\n      jumpi\n      0x00\n      dup1\n      revert\n    tag_24:\n      pop\n      tag_25\n      tag_26\n      calldatasize\n      0x04\n      tag_27\n      jump\t// in\n    tag_26:\n      tag_28\n      jump\t// in\n    tag_25:\n      stop\n        /* \"\\xe5\\xa4\\x9a\\xe7\\xad\\xbe\\xe9\\x92\\xb1\\xe5\\x8c\\x85\\xe5\\x90\\x88\\xe7\\xba\\xa6.sol\":3577:3819  function revoke(uint _txId) external onlyOwner txExists(_txId) notExecuted(_txId){... */\n    tag_5:\n      callvalue\n      dup1\n      iszero\n      tag_29\n      jumpi\n      0x00\n      dup1\n      revert\n    tag_29:\n      pop\n      tag_25\n      tag_31\n      calldatasize\n      0x04\n      tag_20\n      jump\t// in\n    tag_31:\n      tag_32\n      jump\t// in\n        /* \"\\xe5\\xa4\\x9a\\xe7\\xad\\xbe\\xe9\\x92\\xb1\\xe5\\x8c\\x85\\xe5\\x90\\x88\\xe7\\xba\\xa6.sol\":513:552  mapping(address => bool) public isOwner */\n    tag_6:\n      callvalue\n      dup1\n      iszero\n      tag_33\n      jumpi\n      0x00\n      dup1\n      revert\n    tag_33:\n      pop\n      tag_34\n      tag_35\n      calldatasize\n      0x04\n      tag_36\n      jump\t// in\n    tag_35:\n      mstore(0x20, 0x01)\n      0x00\n      swap1\n      dup2\n      mstore\n      0x40\n      swap1\n      keccak256\n      sload\n      0xff\n      and\n      dup2\n      jump\n    tag_34:\n      mload(0x40)\n        /* \"#utility.yul\":1957:1971   */\n      swap1\n      iszero\n        /* \"#utility.yul\":1950:1972   */\n      iszero\n        /* \"#utility.yul\":1932:1973   */\n      dup2\n      mstore\n        /* \"#utility.yul\":1920:1922   */\n      0x20\n        /* \"#utility.yul\":1905:1923   */\n      add\n        /* \"\\xe5\\xa4\\x9a\\xe7\\xad\\xbe\\xe9\\x92\\xb1\\xe5\\x8c\\x85\\xe5\\x90\\x88\\xe7\\xba\\xa6.sol\":513:552  mapping(address => bool) public isOwner */\n      tag_22\n        /* \"#utility.yul\":1792:1979   */\n      jump\n        /* \"\\xe5\\xa4\\x9a\\xe7\\xad\\xbe\\xe9\\x92\\xb1\\xe5\\x8c\\x85\\xe5\\x90\\x88\\xe7\\xba\\xa6.sol\":630:687  mapping(uint => mapping(address => bool)) public approved */\n    tag_7:\n      callvalue\n      dup1\n      iszero\n      tag_40\n      jumpi\n      0x00\n      dup1\n      revert\n    tag_40:\n      pop\n      tag_34\n      tag_42\n      calldatasize\n      0x04\n      tag_43\n      jump\t// in\n    tag_42:\n      0x04\n      0x20\n      swap1\n      dup2\n      mstore\n      0x00\n      swap3\n      dup4\n      mstore\n      0x40\n      dup1\n      dup5\n      keccak256\n      swap1\n      swap2\n      mstore\n      swap1\n      dup3\n      mstore\n      swap1\n      keccak256\n      sload\n      0xff\n      and\n      dup2\n      jump\n        /* \"\\xe5\\xa4\\x9a\\xe7\\xad\\xbe\\xe9\\x92\\xb1\\xe5\\x8c\\x85\\xe5\\x90\\x88\\xe7\\xba\\xa6.sol\":590:623  Transaction[] public transactions */\n    tag_8:\n      callvalue\n      dup1\n      iszero\n      tag_46\n      jumpi\n      0x00\n      dup1\n      revert\n    tag_46:\n      pop\n      tag_47\n      tag_48\n      calldatasize\n      0x04\n      tag_20\n      jump\t// in\n    tag_48:\n      tag_49\n      jump\t// in\n    tag_47:\n      mload(0x40)\n      tag_22\n      swap5\n      swap4\n      swap3\n      swap2\n      swap1\n      tag_51\n      jump\t// in\n        /* \"\\xe5\\xa4\\x9a\\xe7\\xad\\xbe\\xe9\\x92\\xb1\\xe5\\x8c\\x85\\xe5\\x90\\x88\\xe7\\xba\\xa6.sol\":2628:2840  function approve(uint _txId) external onlyOwner... */\n    tag_9:\n      callvalue\n      dup1\n      iszero\n      tag_52\n      jumpi\n      0x00\n      dup1\n      revert\n    tag_52:\n      pop\n      tag_25\n      tag_54\n      calldatasize\n      0x04\n      tag_20\n      jump\t// in\n    tag_54:\n      tag_55\n      jump\t// in\n        /* \"\\xe5\\xa4\\x9a\\xe7\\xad\\xbe\\xe9\\x92\\xb1\\xe5\\x8c\\x85\\xe5\\x90\\x88\\xe7\\xba\\xa6.sol\":3113:3569  function executed (uint _txId) external txExists(_txId) notExecuted(_txId) {... */\n    tag_10:\n      callvalue\n      dup1\n      iszero\n      tag_56\n      jumpi\n      0x00\n      dup1\n      revert\n    tag_56:\n      pop\n      tag_25\n      tag_58\n      calldatasize\n      0x04\n      tag_20\n      jump\t// in\n    tag_58:\n      tag_59\n      jump\t// in\n        /* \"\\xe5\\xa4\\x9a\\xe7\\xad\\xbe\\xe9\\x92\\xb1\\xe5\\x8c\\x85\\xe5\\x90\\x88\\xe7\\xba\\xa6.sol\":561:581  uint public required */\n    tag_11:\n      callvalue\n      dup1\n      iszero\n      tag_60\n      jumpi\n      0x00\n      dup1\n      revert\n    tag_60:\n      pop\n      tag_61\n      sload(0x02)\n      dup2\n      jump\n    tag_61:\n      mload(0x40)\n        /* \"#utility.yul\":160:185   */\n      swap1\n      dup2\n      mstore\n        /* \"#utility.yul\":148:150   */\n      0x20\n        /* \"#utility.yul\":133:151   */\n      add\n        /* \"\\xe5\\xa4\\x9a\\xe7\\xad\\xbe\\xe9\\x92\\xb1\\xe5\\x8c\\x85\\xe5\\x90\\x88\\xe7\\xba\\xa6.sol\":561:581  uint public required */\n      tag_22\n        /* \"#utility.yul\":14:191   */\n      jump\n        /* \"\\xe5\\xa4\\x9a\\xe7\\xad\\xbe\\xe9\\x92\\xb1\\xe5\\x8c\\x85\\xe5\\x90\\x88\\xe7\\xba\\xa6.sol\":481:504  address[] public owners */\n    tag_21:\n      0x00\n      dup2\n      dup2\n      sload\n      dup2\n      lt\n      tag_64\n      jumpi\n      0x00\n      dup1\n      revert\n    tag_64:\n      0x00\n      swap2\n      dup3\n      mstore\n      0x20\n      swap1\n      swap2\n      keccak256\n      add\n      sload\n      sub(shl(0xa0, 0x01), 0x01)\n      and\n      swap1\n      pop\n      dup2\n      jump\t// out\n        /* \"\\xe5\\xa4\\x9a\\xe7\\xad\\xbe\\xe9\\x92\\xb1\\xe5\\x8c\\x85\\xe5\\x90\\x88\\xe7\\xba\\xa6.sol\":2319:2620  function submit(address _to, uint _value, bytes calldata _data) external onlyOwner{... */\n    tag_28:\n        /* \"\\xe5\\xa4\\x9a\\xe7\\xad\\xbe\\xe9\\x92\\xb1\\xe5\\x8c\\x85\\xe5\\x90\\x88\\xe7\\xba\\xa6.sol\":802:812  msg.sender */\n      caller\n        /* \"\\xe5\\xa4\\x9a\\xe7\\xad\\xbe\\xe9\\x92\\xb1\\xe5\\x8c\\x85\\xe5\\x90\\x88\\xe7\\xba\\xa6.sol\":794:813  isOwner[msg.sender] */\n      0x00\n      swap1\n      dup2\n      mstore\n        /* \"\\xe5\\xa4\\x9a\\xe7\\xad\\xbe\\xe9\\x92\\xb1\\xe5\\x8c\\x85\\xe5\\x90\\x88\\xe7\\xba\\xa6.sol\":794:801  isOwner */\n      0x01\n        /* \"\\xe5\\xa4\\x9a\\xe7\\xad\\xbe\\xe9\\x92\\xb1\\xe5\\x8c\\x85\\xe5\\x90\\x88\\xe7\\xba\\xa6.sol\":794:813  isOwner[msg.sender] */\n      0x20\n      mstore\n      0x40\n      swap1\n      keccak256\n      sload\n      0xff\n      and\n        /* \"\\xe5\\xa4\\x9a\\xe7\\xad\\xbe\\xe9\\x92\\xb1\\xe5\\x8c\\x85\\xe5\\x90\\x88\\xe7\\xba\\xa6.sol\":786:826  require(isOwner[msg.sender],\"not owner\") */\n      tag_67\n      jumpi\n      mload(0x40)\n      shl(0xe5, 0x461bcd)\n      dup2\n      mstore\n      0x04\n      add\n      tag_68\n      swap1\n      tag_69\n      jump\t// in\n    tag_68:\n      mload(0x40)\n      dup1\n      swap2\n      sub\n      swap1\n      revert\n    tag_67:\n        /* \"\\xe5\\xa4\\x9a\\xe7\\xad\\xbe\\xe9\\x92\\xb1\\xe5\\x8c\\x85\\xe5\\x90\\x88\\xe7\\xba\\xa6.sol\":2412:2424  transactions */\n      0x03\n        /* \"\\xe5\\xa4\\x9a\\xe7\\xad\\xbe\\xe9\\x92\\xb1\\xe5\\x8c\\x85\\xe5\\x90\\x88\\xe7\\xba\\xa6.sol\":2430:2560  Transaction({... */\n      mload(0x40)\n      dup1\n      0x80\n      add\n      0x40\n      mstore\n      dup1\n        /* \"\\xe5\\xa4\\x9a\\xe7\\xad\\xbe\\xe9\\x92\\xb1\\xe5\\x8c\\x85\\xe5\\x90\\x88\\xe7\\xba\\xa6.sol\":2461:2464  _to */\n      dup7\n      sub(shl(0xa0, 0x01), 0x01)\n        /* \"\\xe5\\xa4\\x9a\\xe7\\xad\\xbe\\xe9\\x92\\xb1\\xe5\\x8c\\x85\\xe5\\x90\\x88\\xe7\\xba\\xa6.sol\":2430:2560  Transaction({... */\n      and\n      dup2\n      mstore\n      0x20\n      add\n        /* \"\\xe5\\xa4\\x9a\\xe7\\xad\\xbe\\xe9\\x92\\xb1\\xe5\\x8c\\x85\\xe5\\x90\\x88\\xe7\\xba\\xa6.sol\":2486:2492  _value */\n      dup6\n        /* \"\\xe5\\xa4\\x9a\\xe7\\xad\\xbe\\xe9\\x92\\xb1\\xe5\\x8c\\x85\\xe5\\x90\\x88\\xe7\\xba\\xa6.sol\":2430:2560  Transaction({... */\n      dup2\n      mstore\n      0x20\n      add\n        /* \"\\xe5\\xa4\\x9a\\xe7\\xad\\xbe\\xe9\\x92\\xb1\\xe5\\x8c\\x85\\xe5\\x90\\x88\\xe7\\xba\\xa6.sol\":2513:2518  _data */\n      dup5\n      dup5\n        /* \"\\xe5\\xa4\\x9a\\xe7\\xad\\xbe\\xe9\\x92\\xb1\\xe5\\x8c\\x85\\xe5\\x90\\x88\\xe7\\xba\\xa6.sol\":2430:2560  Transaction({... */\n      dup1\n      dup1\n      0x1f\n      add\n      0x20\n      dup1\n      swap2\n      div\n      mul\n      0x20\n      add\n      mload(0x40)\n      swap1\n      dup2\n      add\n      0x40\n      mstore\n      dup1\n      swap4\n      swap3\n      swap2\n      swap1\n      dup2\n      dup2\n      mstore\n      0x20\n      add\n      dup4\n      dup4\n      dup1\n      dup3\n      dup5\n      calldatacopy\n      0x00\n      swap3\n      add\n      dup3\n      swap1\n      mstore\n      pop\n      swap4\n      dup6\n      mstore\n      pop\n      pop\n      pop\n      0x20\n      swap2\n      dup3\n      add\n      dup2\n      swap1\n      mstore\n        /* \"\\xe5\\xa4\\x9a\\xe7\\xad\\xbe\\xe9\\x92\\xb1\\xe5\\x8c\\x85\\xe5\\x90\\x88\\xe7\\xba\\xa6.sol\":2412:2561  transactions.push(Transaction({... */\n      dup4\n      sload\n        /* \"\\xe5\\xa4\\x9a\\xe7\\xad\\xbe\\xe9\\x92\\xb1\\xe5\\x8c\\x85\\xe5\\x90\\x88\\xe7\\xba\\xa6.sol\":2430:2560  Transaction({... */\n      0x01\n        /* \"\\xe5\\xa4\\x9a\\xe7\\xad\\xbe\\xe9\\x92\\xb1\\xe5\\x8c\\x85\\xe5\\x90\\x88\\xe7\\xba\\xa6.sol\":2412:2561  transactions.push(Transaction({... */\n      dup1\n      dup3\n      add\n      dup7\n      sstore\n      swap5\n      dup3\n      mstore\n      swap1\n      dup3\n      swap1\n      keccak256\n      dup4\n      mload\n      0x04\n      swap1\n      swap3\n      mul\n      add\n      dup1\n      sload\n      not(sub(shl(0xa0, 0x01), 0x01))\n      and\n      sub(shl(0xa0, 0x01), 0x01)\n      swap1\n      swap3\n      and\n      swap2\n      swap1\n      swap2\n      or\n      dup2\n      sstore\n      swap1\n      dup3\n      add\n      mload\n      swap3\n      dup2\n      add\n      swap3\n      swap1\n      swap3\n      sstore\n      0x40\n      dup2\n      add\n      mload\n      swap1\n      swap2\n      swap1\n      0x02\n      dup3\n      add\n      swap1\n      tag_72\n      swap1\n      dup3\n      tag_73\n      jump\t// in\n    tag_72:\n      pop\n      0x60\n      swap2\n      swap1\n      swap2\n      add\n      mload\n      0x03\n      swap2\n      dup3\n      add\n      dup1\n      sload\n      not(0xff)\n      and\n      swap2\n      iszero\n      iszero\n      swap2\n      swap1\n      swap2\n      or\n      swap1\n      sstore\n        /* \"\\xe5\\xa4\\x9a\\xe7\\xad\\xbe\\xe9\\x92\\xb1\\xe5\\x8c\\x85\\xe5\\x90\\x88\\xe7\\xba\\xa6.sol\":2588:2607  transactions.length */\n      sload\n        /* \"\\xe5\\xa4\\x9a\\xe7\\xad\\xbe\\xe9\\x92\\xb1\\xe5\\x8c\\x85\\xe5\\x90\\x88\\xe7\\xba\\xa6.sol\":2588:2611  transactions.length - 1 */\n      tag_74\n      swap1\n      0x01\n      swap1\n      tag_75\n      jump\t// in\n    tag_74:\n        /* \"\\xe5\\xa4\\x9a\\xe7\\xad\\xbe\\xe9\\x92\\xb1\\xe5\\x8c\\x85\\xe5\\x90\\x88\\xe7\\xba\\xa6.sol\":2581:2612  Submit(transactions.length - 1) */\n      mload(0x40)\n      0x08324b3d745b914e3abd4ffbfead91e3b78391a98c173202129215ab933adfbe\n      swap1\n      0x00\n      swap1\n      log2\n        /* \"\\xe5\\xa4\\x9a\\xe7\\xad\\xbe\\xe9\\x92\\xb1\\xe5\\x8c\\x85\\xe5\\x90\\x88\\xe7\\xba\\xa6.sol\":2319:2620  function submit(address _to, uint _value, bytes calldata _data) external onlyOwner{... */\n      pop\n      pop\n      pop\n      pop\n      jump\t// out\n        /* \"\\xe5\\xa4\\x9a\\xe7\\xad\\xbe\\xe9\\x92\\xb1\\xe5\\x8c\\x85\\xe5\\x90\\x88\\xe7\\xba\\xa6.sol\":3577:3819  function revoke(uint _txId) external onlyOwner txExists(_txId) notExecuted(_txId){... */\n    tag_32:\n        /* \"\\xe5\\xa4\\x9a\\xe7\\xad\\xbe\\xe9\\x92\\xb1\\xe5\\x8c\\x85\\xe5\\x90\\x88\\xe7\\xba\\xa6.sol\":802:812  msg.sender */\n      caller\n        /* \"\\xe5\\xa4\\x9a\\xe7\\xad\\xbe\\xe9\\x92\\xb1\\xe5\\x8c\\x85\\xe5\\x90\\x88\\xe7\\xba\\xa6.sol\":794:813  isOwner[msg.sender] */\n      0x00\n      swap1\n      dup2\n      mstore\n        /* \"\\xe5\\xa4\\x9a\\xe7\\xad\\xbe\\xe9\\x92\\xb1\\xe5\\x8c\\x85\\xe5\\x90\\x88\\xe7\\xba\\xa6.sol\":794:801  isOwner */\n      0x01\n        /* \"\\xe5\\xa4\\x9a\\xe7\\xad\\xbe\\xe9\\x92\\xb1\\xe5\\x8c\\x85\\xe5\\x90\\x88\\xe7\\xba\\xa6.sol\":794:813  isOwner[msg.sender] */\n      0x20\n      mstore\n      0x40\n      swap1\n      keccak256\n      sload\n      0xff\n      and\n        /* \"\\xe5\\xa4\\x9a\\xe7\\xad\\xbe\\xe9\\x92\\xb1\\xe5\\x8c\\x85\\xe5\\x90\\x88\\xe7\\xba\\xa6.sol\":786:826  require(isOwner[msg.sender],\"not owner\") */\n      tag_77\n      jumpi\n      mload(0x40)\n      shl(0xe5, 0x461bcd)\n      dup2\n      mstore\n      0x04\n      add\n      tag_68\n      swap1\n      tag_69\n      jump\t// in\n    tag_77:\n        /* \"\\xe5\\xa4\\x9a\\xe7\\xad\\xbe\\xe9\\x92\\xb1\\xe5\\x8c\\x85\\xe5\\x90\\x88\\xe7\\xba\\xa6.sol\":959:971  transactions */\n      0x03\n        /* \"\\xe5\\xa4\\x9a\\xe7\\xad\\xbe\\xe9\\x92\\xb1\\xe5\\x8c\\x85\\xe5\\x90\\x88\\xe7\\xba\\xa6.sol\":959:978  transactions.length */\n      sload\n        /* \"\\xe5\\xa4\\x9a\\xe7\\xad\\xbe\\xe9\\x92\\xb1\\xe5\\x8c\\x85\\xe5\\x90\\x88\\xe7\\xba\\xa6.sol\":3633:3638  _txId */\n      dup2\n      swap1\n        /* \"\\xe5\\xa4\\x9a\\xe7\\xad\\xbe\\xe9\\x92\\xb1\\xe5\\x8c\\x85\\xe5\\x90\\x88\\xe7\\xba\\xa6.sol\":951:978  _txId < transactions.length */\n      dup2\n      lt\n        /* \"\\xe5\\xa4\\x9a\\xe7\\xad\\xbe\\xe9\\x92\\xb1\\xe5\\x8c\\x85\\xe5\\x90\\x88\\xe7\\xba\\xa6.sol\":943:1000  require(_txId < transactions.length, \"tx does not exist\") */\n      tag_80\n      jumpi\n      mload(0x40)\n      shl(0xe5, 0x461bcd)\n      dup2\n      mstore\n      0x04\n      add\n      tag_68\n      swap1\n      tag_82\n      jump\t// in\n    tag_80:\n        /* \"\\xe5\\xa4\\x9a\\xe7\\xad\\xbe\\xe9\\x92\\xb1\\xe5\\x8c\\x85\\xe5\\x90\\x88\\xe7\\xba\\xa6.sol\":3652:3657  _txId */\n      dup2\n        /* \"\\xe5\\xa4\\x9a\\xe7\\xad\\xbe\\xe9\\x92\\xb1\\xe5\\x8c\\x85\\xe5\\x90\\x88\\xe7\\xba\\xa6.sol\":1324:1336  transactions */\n      0x03\n        /* \"\\xe5\\xa4\\x9a\\xe7\\xad\\xbe\\xe9\\x92\\xb1\\xe5\\x8c\\x85\\xe5\\x90\\x88\\xe7\\xba\\xa6.sol\":1337:1342  _txId */\n      dup2\n        /* \"\\xe5\\xa4\\x9a\\xe7\\xad\\xbe\\xe9\\x92\\xb1\\xe5\\x8c\\x85\\xe5\\x90\\x88\\xe7\\xba\\xa6.sol\":1324:1343  transactions[_txId] */\n      dup2\n      sload\n      dup2\n      lt\n      tag_85\n      jumpi\n      tag_85\n      tag_86\n      jump\t// in\n    tag_85:\n      0x00\n      swap2\n      dup3\n      mstore\n      0x20\n      swap1\n      swap2\n      keccak256\n        /* \"\\xe5\\xa4\\x9a\\xe7\\xad\\xbe\\xe9\\x92\\xb1\\xe5\\x8c\\x85\\xe5\\x90\\x88\\xe7\\xba\\xa6.sol\":1324:1352  transactions[_txId].executed */\n      0x03\n        /* \"\\xe5\\xa4\\x9a\\xe7\\xad\\xbe\\xe9\\x92\\xb1\\xe5\\x8c\\x85\\xe5\\x90\\x88\\xe7\\xba\\xa6.sol\":1324:1343  transactions[_txId] */\n      0x04\n      swap1\n      swap3\n      mul\n      add\n        /* \"\\xe5\\xa4\\x9a\\xe7\\xad\\xbe\\xe9\\x92\\xb1\\xe5\\x8c\\x85\\xe5\\x90\\x88\\xe7\\xba\\xa6.sol\":1324:1352  transactions[_txId].executed */\n      add\n      sload\n      0xff\n      and\n        /* \"\\xe5\\xa4\\x9a\\xe7\\xad\\xbe\\xe9\\x92\\xb1\\xe5\\x8c\\x85\\xe5\\x90\\x88\\xe7\\xba\\xa6.sol\":1323:1352  !transactions[_txId].executed */\n      iszero\n        /* \"\\xe5\\xa4\\x9a\\xe7\\xad\\xbe\\xe9\\x92\\xb1\\xe5\\x8c\\x85\\xe5\\x90\\x88\\xe7\\xba\\xa6.sol\":1315:1376  require(!transactions[_txId].executed, \"tx already executed\") */\n      tag_88\n      jumpi\n      mload(0x40)\n      shl(0xe5, 0x461bcd)\n      dup2\n      mstore\n      0x04\n      add\n      tag_68\n      swap1\n      tag_90\n      jump\t// in\n    tag_88:\n        /* \"\\xe5\\xa4\\x9a\\xe7\\xad\\xbe\\xe9\\x92\\xb1\\xe5\\x8c\\x85\\xe5\\x90\\x88\\xe7\\xba\\xa6.sol\":3677:3692  approved[_txId] */\n      0x00\n      dup4\n      dup2\n      mstore\n        /* \"\\xe5\\xa4\\x9a\\xe7\\xad\\xbe\\xe9\\x92\\xb1\\xe5\\x8c\\x85\\xe5\\x90\\x88\\xe7\\xba\\xa6.sol\":3677:3685  approved */\n      0x04\n        /* \"\\xe5\\xa4\\x9a\\xe7\\xad\\xbe\\xe9\\x92\\xb1\\xe5\\x8c\\x85\\xe5\\x90\\x88\\xe7\\xba\\xa6.sol\":3677:3692  approved[_txId] */\n      0x20\n      swap1\n      dup2\n      mstore\n      0x40\n      dup1\n      dup4\n      keccak256\n        /* \"\\xe5\\xa4\\x9a\\xe7\\xad\\xbe\\xe9\\x92\\xb1\\xe5\\x8c\\x85\\xe5\\x90\\x88\\xe7\\xba\\xa6.sol\":3693:3703  msg.sender */\n      caller\n        /* \"\\xe5\\xa4\\x9a\\xe7\\xad\\xbe\\xe9\\x92\\xb1\\xe5\\x8c\\x85\\xe5\\x90\\x88\\xe7\\xba\\xa6.sol\":3677:3704  approved[_txId][msg.sender] */\n      dup5\n      mstore\n      swap1\n      swap2\n      mstore\n      swap1\n      keccak256\n      sload\n      0xff\n      and\n        /* \"\\xe5\\xa4\\x9a\\xe7\\xad\\xbe\\xe9\\x92\\xb1\\xe5\\x8c\\x85\\xe5\\x90\\x88\\xe7\\xba\\xa6.sol\":3669:3724  require(approved[_txId][msg.sender], \"tx not approved\") */\n      tag_92\n      jumpi\n      mload(0x40)\n      shl(0xe5, 0x461bcd)\n      dup2\n      mstore\n        /* \"#utility.yul\":7432:7434   */\n      0x20\n        /* \"\\xe5\\xa4\\x9a\\xe7\\xad\\xbe\\xe9\\x92\\xb1\\xe5\\x8c\\x85\\xe5\\x90\\x88\\xe7\\xba\\xa6.sol\":3669:3724  require(approved[_txId][msg.sender], \"tx not approved\") */\n      0x04\n      dup3\n      add\n        /* \"#utility.yul\":7414:7435   */\n      mstore\n        /* \"#utility.yul\":7471:7473   */\n      0x0f\n        /* \"#utility.yul\":7451:7469   */\n      0x24\n      dup3\n      add\n        /* \"#utility.yul\":7444:7474   */\n      mstore\n      shl(0x8a, 0x1d1e081b9bdd08185c1c1c9bdd9959)\n        /* \"#utility.yul\":7490:7508   */\n      0x44\n      dup3\n      add\n        /* \"#utility.yul\":7483:7528   */\n      mstore\n        /* \"#utility.yul\":7545:7563   */\n      0x64\n      add\n        /* \"\\xe5\\xa4\\x9a\\xe7\\xad\\xbe\\xe9\\x92\\xb1\\xe5\\x8c\\x85\\xe5\\x90\\x88\\xe7\\xba\\xa6.sol\":3669:3724  require(approved[_txId][msg.sender], \"tx not approved\") */\n      tag_68\n        /* \"#utility.yul\":7230:7569   */\n      jump\n        /* \"\\xe5\\xa4\\x9a\\xe7\\xad\\xbe\\xe9\\x92\\xb1\\xe5\\x8c\\x85\\xe5\\x90\\x88\\xe7\\xba\\xa6.sol\":3669:3724  require(approved[_txId][msg.sender], \"tx not approved\") */\n    tag_92:\n        /* \"\\xe5\\xa4\\x9a\\xe7\\xad\\xbe\\xe9\\x92\\xb1\\xe5\\x8c\\x85\\xe5\\x90\\x88\\xe7\\xba\\xa6.sol\":3765:3770  false */\n      0x00\n        /* \"\\xe5\\xa4\\x9a\\xe7\\xad\\xbe\\xe9\\x92\\xb1\\xe5\\x8c\\x85\\xe5\\x90\\x88\\xe7\\xba\\xa6.sol\":3735:3750  approved[_txId] */\n      dup4\n      dup2\n      mstore\n        /* \"\\xe5\\xa4\\x9a\\xe7\\xad\\xbe\\xe9\\x92\\xb1\\xe5\\x8c\\x85\\xe5\\x90\\x88\\xe7\\xba\\xa6.sol\":3735:3743  approved */\n      0x04\n        /* \"\\xe5\\xa4\\x9a\\xe7\\xad\\xbe\\xe9\\x92\\xb1\\xe5\\x8c\\x85\\xe5\\x90\\x88\\xe7\\xba\\xa6.sol\":3735:3750  approved[_txId] */\n      0x20\n      swap1\n      dup2\n      mstore\n      0x40\n      dup1\n      dup4\n      keccak256\n        /* \"\\xe5\\xa4\\x9a\\xe7\\xad\\xbe\\xe9\\x92\\xb1\\xe5\\x8c\\x85\\xe5\\x90\\x88\\xe7\\xba\\xa6.sol\":3751:3761  msg.sender */\n      caller\n        /* \"\\xe5\\xa4\\x9a\\xe7\\xad\\xbe\\xe9\\x92\\xb1\\xe5\\x8c\\x85\\xe5\\x90\\x88\\xe7\\xba\\xa6.sol\":3735:3762  approved[_txId][msg.sender] */\n      dup1\n      dup6\n      mstore\n      swap3\n      mstore\n      dup1\n      dup4\n      keccak256\n        /* \"\\xe5\\xa4\\x9a\\xe7\\xad\\xbe\\xe9\\x92\\xb1\\xe5\\x8c\\x85\\xe5\\x90\\x88\\xe7\\xba\\xa6.sol\":3735:3770  approved[_txId][msg.sender] = false */\n      dup1\n      sload\n      not(0xff)\n      and\n      swap1\n      sstore\n        /* \"\\xe5\\xa4\\x9a\\xe7\\xad\\xbe\\xe9\\x92\\xb1\\xe5\\x8c\\x85\\xe5\\x90\\x88\\xe7\\xba\\xa6.sol\":3786:3811  Revoke(msg.sender, _txId) */\n      mload\n        /* \"\\xe5\\xa4\\x9a\\xe7\\xad\\xbe\\xe9\\x92\\xb1\\xe5\\x8c\\x85\\xe5\\x90\\x88\\xe7\\xba\\xa6.sol\":3744:3749  _txId */\n      dup6\n      swap3\n        /* \"\\xe5\\xa4\\x9a\\xe7\\xad\\xbe\\xe9\\x92\\xb1\\xe5\\x8c\\x85\\xe5\\x90\\x88\\xe7\\xba\\xa6.sol\":3786:3811  Revoke(msg.sender, _txId) */\n      0xec9ab91322523c899ede7830ec9bfc992b5981cdcc27b91162fb23de5791117b\n      swap2\n      log3\n        /* \"\\xe5\\xa4\\x9a\\xe7\\xad\\xbe\\xe9\\x92\\xb1\\xe5\\x8c\\x85\\xe5\\x90\\x88\\xe7\\xba\\xa6.sol\":1011:1012  _ */\n      pop\n        /* \"\\xe5\\xa4\\x9a\\xe7\\xad\\xbe\\xe9\\x92\\xb1\\xe5\\x8c\\x85\\xe5\\x90\\x88\\xe7\\xba\\xa6.sol\":837:838  _ */\n      pop\n        /* \"\\xe5\\xa4\\x9a\\xe7\\xad\\xbe\\xe9\\x92\\xb1\\xe5\\x8c\\x85\\xe5\\x90\\x88\\xe7\\xba\\xa6.sol\":3577:3819  function revoke(uint _txId) external onlyOwner txExists(_txId) notExecuted(_txId){... */\n      pop\n      jump\t// out\n        /* \"\\xe5\\xa4\\x9a\\xe7\\xad\\xbe\\xe9\\x92\\xb1\\xe5\\x8c\\x85\\xe5\\x90\\x88\\xe7\\xba\\xa6.sol\":590:623  Transaction[] public transactions */\n    tag_49:\n      0x03\n      dup2\n      dup2\n      sload\n      dup2\n      lt\n      tag_95\n      jumpi\n      0x00\n      dup1\n      revert\n    tag_95:\n      0x00\n      swap2\n      dup3\n      mstore\n      0x20\n      swap1\n      swap2\n      keccak256\n      0x04\n      swap1\n      swap2\n      mul\n      add\n      dup1\n      sload\n      0x01\n      dup3\n      add\n      sload\n      0x02\n      dup4\n      add\n      dup1\n      sload\n      sub(shl(0xa0, 0x01), 0x01)\n      swap1\n      swap4\n      and\n      swap5\n      pop\n      swap1\n      swap3\n      swap2\n      tag_97\n      swap1\n      tag_98\n      jump\t// in\n    tag_97:\n      dup1\n      0x1f\n      add\n      0x20\n      dup1\n      swap2\n      div\n      mul\n      0x20\n      add\n      mload(0x40)\n      swap1\n      dup2\n      add\n      0x40\n      mstore\n      dup1\n      swap3\n      swap2\n      swap1\n      dup2\n      dup2\n      mstore\n      0x20\n      add\n      dup3\n      dup1\n      sload\n      tag_99\n      swap1\n      tag_98\n      jump\t// in\n    tag_99:\n      dup1\n      iszero\n      tag_100\n      jumpi\n      dup1\n      0x1f\n      lt\n      tag_101\n      jumpi\n      0x0100\n      dup1\n      dup4\n      sload\n      div\n      mul\n      dup4\n      mstore\n      swap2\n      0x20\n      add\n      swap2\n      jump(tag_100)\n    tag_101:\n      dup3\n      add\n      swap2\n      swap1\n      0x00\n      mstore\n      keccak256(0x00, 0x20)\n      swap1\n    tag_102:\n      dup2\n      sload\n      dup2\n      mstore\n      swap1\n      0x01\n      add\n      swap1\n      0x20\n      add\n      dup1\n      dup4\n      gt\n      tag_102\n      jumpi\n      dup3\n      swap1\n      sub\n      0x1f\n      and\n      dup3\n      add\n      swap2\n    tag_100:\n      pop\n      pop\n      pop\n      0x03\n      swap1\n      swap4\n      add\n      sload\n      swap2\n      swap3\n      pop\n      pop\n      0xff\n      and\n      dup5\n      jump\t// out\n        /* \"\\xe5\\xa4\\x9a\\xe7\\xad\\xbe\\xe9\\x92\\xb1\\xe5\\x8c\\x85\\xe5\\x90\\x88\\xe7\\xba\\xa6.sol\":2628:2840  function approve(uint _txId) external onlyOwner... */\n    tag_55:\n        /* \"\\xe5\\xa4\\x9a\\xe7\\xad\\xbe\\xe9\\x92\\xb1\\xe5\\x8c\\x85\\xe5\\x90\\x88\\xe7\\xba\\xa6.sol\":802:812  msg.sender */\n      caller\n        /* \"\\xe5\\xa4\\x9a\\xe7\\xad\\xbe\\xe9\\x92\\xb1\\xe5\\x8c\\x85\\xe5\\x90\\x88\\xe7\\xba\\xa6.sol\":794:813  isOwner[msg.sender] */\n      0x00\n      swap1\n      dup2\n      mstore\n        /* \"\\xe5\\xa4\\x9a\\xe7\\xad\\xbe\\xe9\\x92\\xb1\\xe5\\x8c\\x85\\xe5\\x90\\x88\\xe7\\xba\\xa6.sol\":794:801  isOwner */\n      0x01\n        /* \"\\xe5\\xa4\\x9a\\xe7\\xad\\xbe\\xe9\\x92\\xb1\\xe5\\x8c\\x85\\xe5\\x90\\x88\\xe7\\xba\\xa6.sol\":794:813  isOwner[msg.sender] */\n      0x20\n      mstore\n      0x40\n      swap1\n      keccak256\n      sload\n      0xff\n      and\n        /* \"\\xe5\\xa4\\x9a\\xe7\\xad\\xbe\\xe9\\x92\\xb1\\xe5\\x8c\\x85\\xe5\\x90\\x88\\xe7\\xba\\xa6.sol\":786:826  require(isOwner[msg.sender],\"not owner\") */\n      tag_104\n      jumpi\n      mload(0x40)\n      shl(0xe5, 0x461bcd)\n      dup2\n      mstore\n      0x04\n      add\n      tag_68\n      swap1\n      tag_69\n      jump\t// in\n    tag_104:\n        /* \"\\xe5\\xa4\\x9a\\xe7\\xad\\xbe\\xe9\\x92\\xb1\\xe5\\x8c\\x85\\xe5\\x90\\x88\\xe7\\xba\\xa6.sol\":959:971  transactions */\n      0x03\n        /* \"\\xe5\\xa4\\x9a\\xe7\\xad\\xbe\\xe9\\x92\\xb1\\xe5\\x8c\\x85\\xe5\\x90\\x88\\xe7\\xba\\xa6.sol\":959:978  transactions.length */\n      sload\n        /* \"\\xe5\\xa4\\x9a\\xe7\\xad\\xbe\\xe9\\x92\\xb1\\xe5\\x8c\\x85\\xe5\\x90\\x88\\xe7\\xba\\xa6.sol\":2690:2695  _txId */\n      dup2\n      swap1\n        /* \"\\xe5\\xa4\\x9a\\xe7\\xad\\xbe\\xe9\\x92\\xb1\\xe5\\x8c\\x85\\xe5\\x90\\x88\\xe7\\xba\\xa6.sol\":951:978  _txId < transactions.length */\n      dup2\n      lt\n        /* \"\\xe5\\xa4\\x9a\\xe7\\xad\\xbe\\xe9\\x92\\xb1\\xe5\\x8c\\x85\\xe5\\x90\\x88\\xe7\\xba\\xa6.sol\":943:1000  require(_txId < transactions.length, \"tx does not exist\") */\n      tag_107\n      jumpi\n      mload(0x40)\n      shl(0xe5, 0x461bcd)\n      dup2\n      mstore\n      0x04\n      add\n      tag_68\n      swap1\n      tag_82\n      jump\t// in\n    tag_107:\n        /* \"\\xe5\\xa4\\x9a\\xe7\\xad\\xbe\\xe9\\x92\\xb1\\xe5\\x8c\\x85\\xe5\\x90\\x88\\xe7\\xba\\xa6.sol\":2714:2719  _txId */\n      dup2\n        /* \"\\xe5\\xa4\\x9a\\xe7\\xad\\xbe\\xe9\\x92\\xb1\\xe5\\x8c\\x85\\xe5\\x90\\x88\\xe7\\xba\\xa6.sol\":1324:1336  transactions */\n      0x03\n        /* \"\\xe5\\xa4\\x9a\\xe7\\xad\\xbe\\xe9\\x92\\xb1\\xe5\\x8c\\x85\\xe5\\x90\\x88\\xe7\\xba\\xa6.sol\":1337:1342  _txId */\n      dup2\n        /* \"\\xe5\\xa4\\x9a\\xe7\\xad\\xbe\\xe9\\x92\\xb1\\xe5\\x8c\\x85\\xe5\\x90\\x88\\xe7\\xba\\xa6.sol\":1324:1343  transactions[_txId] */\n      dup2\n      sload\n      dup2\n      lt\n      tag_111\n      jumpi\n      tag_111\n      tag_86\n      jump\t// in\n    tag_111:\n      0x00\n      swap2\n      dup3\n      mstore\n      0x20\n      swap1\n      swap2\n      keccak256\n        /* \"\\xe5\\xa4\\x9a\\xe7\\xad\\xbe\\xe9\\x92\\xb1\\xe5\\x8c\\x85\\xe5\\x90\\x88\\xe7\\xba\\xa6.sol\":1324:1352  transactions[_txId].executed */\n      0x03\n        /* \"\\xe5\\xa4\\x9a\\xe7\\xad\\xbe\\xe9\\x92\\xb1\\xe5\\x8c\\x85\\xe5\\x90\\x88\\xe7\\xba\\xa6.sol\":1324:1343  transactions[_txId] */\n      0x04\n      swap1\n      swap3\n      mul\n      add\n        /* \"\\xe5\\xa4\\x9a\\xe7\\xad\\xbe\\xe9\\x92\\xb1\\xe5\\x8c\\x85\\xe5\\x90\\x88\\xe7\\xba\\xa6.sol\":1324:1352  transactions[_txId].executed */\n      add\n      sload\n      0xff\n      and\n        /* \"\\xe5\\xa4\\x9a\\xe7\\xad\\xbe\\xe9\\x92\\xb1\\xe5\\x8c\\x85\\xe5\\x90\\x88\\xe7\\xba\\xa6.sol\":1323:1352  !transactions[_txId].executed */\n      iszero\n        /* \"\\xe5\\xa4\\x9a\\xe7\\xad\\xbe\\xe9\\x92\\xb1\\xe5\\x8c\\x85\\xe5\\x90\\x88\\xe7\\xba\\xa6.sol\":1315:1376  require(!transactions[_txId].executed, \"tx already executed\") */\n      tag_113\n      jumpi\n      mload(0x40)\n      shl(0xe5, 0x461bcd)\n      dup2\n      mstore\n      0x04\n      add\n      tag_68\n      swap1\n      tag_90\n      jump\t// in\n    tag_113:\n        /* \"\\xe5\\xa4\\x9a\\xe7\\xad\\xbe\\xe9\\x92\\xb1\\xe5\\x8c\\x85\\xe5\\x90\\x88\\xe7\\xba\\xa6.sol\":2738:2743  _txId */\n      dup3\n        /* \"\\xe5\\xa4\\x9a\\xe7\\xad\\xbe\\xe9\\x92\\xb1\\xe5\\x8c\\x85\\xe5\\x90\\x88\\xe7\\xba\\xa6.sol\":1324:1336  transactions */\n      0x03\n        /* \"\\xe5\\xa4\\x9a\\xe7\\xad\\xbe\\xe9\\x92\\xb1\\xe5\\x8c\\x85\\xe5\\x90\\x88\\xe7\\xba\\xa6.sol\":1337:1342  _txId */\n      dup2\n        /* \"\\xe5\\xa4\\x9a\\xe7\\xad\\xbe\\xe9\\x92\\xb1\\xe5\\x8c\\x85\\xe5\\x90\\x88\\xe7\\xba\\xa6.sol\":1324:1343  transactions[_txId] */\n      dup2\n      sload\n      dup2\n      lt\n      tag_117\n      jumpi\n      tag_117\n      tag_86\n      jump\t// in\n    tag_117:\n      0x00\n      swap2\n      dup3\n      mstore\n      0x20\n      swap1\n      swap2\n      keccak256\n        /* \"\\xe5\\xa4\\x9a\\xe7\\xad\\xbe\\xe9\\x92\\xb1\\xe5\\x8c\\x85\\xe5\\x90\\x88\\xe7\\xba\\xa6.sol\":1324:1352  transactions[_txId].executed */\n      0x03\n        /* \"\\xe5\\xa4\\x9a\\xe7\\xad\\xbe\\xe9\\x92\\xb1\\xe5\\x8c\\x85\\xe5\\x90\\x88\\xe7\\xba\\xa6.sol\":1324:1343  transactions[_txId] */\n      0x04\n      swap1\n      swap3\n      mul\n      add\n        /* \"\\xe5\\xa4\\x9a\\xe7\\xad\\xbe\\xe9\\x92\\xb1\\xe5\\x8c\\x85\\xe5\\x90\\x88\\xe7\\xba\\xa6.sol\":1324:1352  transactions[_txId].executed */\n      add\n      sload\n      0xff\n      and\n        /* \"\\xe5\\xa4\\x9a\\xe7\\xad\\xbe\\xe9\\x92\\xb1\\xe5\\x8c\\x85\\xe5\\x90\\x88\\xe7\\xba\\xa6.sol\":1323:1352  !transactions[_txId].executed */\n      iszero\n        /* \"\\xe5\\xa4\\x9a\\xe7\\xad\\xbe\\xe9\\x92\\xb1\\xe5\\x8c\\x85\\xe5\\x90\\x88\\xe7\\xba\\xa6.sol\":1315:1376  require(!transactions[_txId].executed, \"tx already executed\") */\n      tag_119\n      jumpi\n      mload(0x40)\n      shl(0xe5, 0x461bcd)\n      dup2\n      mstore\n      0x04\n      add\n      tag_68\n      swap1\n      tag_90\n      jump\t// in\n    tag_119:\n        /* \"\\xe5\\xa4\\x9a\\xe7\\xad\\xbe\\xe9\\x92\\xb1\\xe5\\x8c\\x85\\xe5\\x90\\x88\\xe7\\xba\\xa6.sol\":2756:2771  approved[_txId] */\n      0x00\n      dup5\n      dup2\n      mstore\n        /* \"\\xe5\\xa4\\x9a\\xe7\\xad\\xbe\\xe9\\x92\\xb1\\xe5\\x8c\\x85\\xe5\\x90\\x88\\xe7\\xba\\xa6.sol\":2756:2764  approved */\n      0x04\n        /* \"\\xe5\\xa4\\x9a\\xe7\\xad\\xbe\\xe9\\x92\\xb1\\xe5\\x8c\\x85\\xe5\\x90\\x88\\xe7\\xba\\xa6.sol\":2756:2771  approved[_txId] */\n      0x20\n      swap1\n      dup2\n      mstore\n      0x40\n      dup1\n      dup4\n      keccak256\n        /* \"\\xe5\\xa4\\x9a\\xe7\\xad\\xbe\\xe9\\x92\\xb1\\xe5\\x8c\\x85\\xe5\\x90\\x88\\xe7\\xba\\xa6.sol\":2772:2782  msg.sender */\n      caller\n        /* \"\\xe5\\xa4\\x9a\\xe7\\xad\\xbe\\xe9\\x92\\xb1\\xe5\\x8c\\x85\\xe5\\x90\\x88\\xe7\\xba\\xa6.sol\":2756:2783  approved[_txId][msg.sender] */\n      dup1\n      dup6\n      mstore\n      swap3\n      mstore\n      dup1\n      dup4\n      keccak256\n        /* \"\\xe5\\xa4\\x9a\\xe7\\xad\\xbe\\xe9\\x92\\xb1\\xe5\\x8c\\x85\\xe5\\x90\\x88\\xe7\\xba\\xa6.sol\":2756:2790  approved[_txId][msg.sender] = true */\n      dup1\n      sload\n      not(0xff)\n      and\n        /* \"\\xe5\\xa4\\x9a\\xe7\\xad\\xbe\\xe9\\x92\\xb1\\xe5\\x8c\\x85\\xe5\\x90\\x88\\xe7\\xba\\xa6.sol\":2786:2790  true */\n      0x01\n        /* \"\\xe5\\xa4\\x9a\\xe7\\xad\\xbe\\xe9\\x92\\xb1\\xe5\\x8c\\x85\\xe5\\x90\\x88\\xe7\\xba\\xa6.sol\":2756:2790  approved[_txId][msg.sender] = true */\n      or\n      swap1\n      sstore\n        /* \"\\xe5\\xa4\\x9a\\xe7\\xad\\xbe\\xe9\\x92\\xb1\\xe5\\x8c\\x85\\xe5\\x90\\x88\\xe7\\xba\\xa6.sol\":2806:2832  Approve(msg.sender, _txId) */\n      mload\n        /* \"\\xe5\\xa4\\x9a\\xe7\\xad\\xbe\\xe9\\x92\\xb1\\xe5\\x8c\\x85\\xe5\\x90\\x88\\xe7\\xba\\xa6.sol\":2765:2770  _txId */\n      dup7\n      swap3\n        /* \"\\xe5\\xa4\\x9a\\xe7\\xad\\xbe\\xe9\\x92\\xb1\\xe5\\x8c\\x85\\xe5\\x90\\x88\\xe7\\xba\\xa6.sol\":2806:2832  Approve(msg.sender, _txId) */\n      0x90ec57f18fa7b15c6b8d5e4d1deb90796c74b2ff23d4d0cecad0cb42a96b3128\n      swap2\n      log3\n        /* \"\\xe5\\xa4\\x9a\\xe7\\xad\\xbe\\xe9\\x92\\xb1\\xe5\\x8c\\x85\\xe5\\x90\\x88\\xe7\\xba\\xa6.sol\":1387:1388  _ */\n      pop\n        /* \"\\xe5\\xa4\\x9a\\xe7\\xad\\xbe\\xe9\\x92\\xb1\\xe5\\x8c\\x85\\xe5\\x90\\x88\\xe7\\xba\\xa6.sol\":1011:1012  _ */\n      pop\n        /* \"\\xe5\\xa4\\x9a\\xe7\\xad\\xbe\\xe9\\x92\\xb1\\xe5\\x8c\\x85\\xe5\\x90\\x88\\xe7\\xba\\xa6.sol\":837:838  _ */\n      pop\n        /* \"\\xe5\\xa4\\x9a\\xe7\\xad\\xbe\\xe9\\x92\\xb1\\xe5\\x8c\\x85\\xe5\\x90\\x88\\xe7\\xba\\xa6.sol\":2628:2840  function approve(uint _txId) external onlyOwner... */\n      pop\n      jump\t// out\n        /* \"\\xe5\\xa4\\x9a\\xe7\\xad\\xbe\\xe9\\x92\\xb1\\xe5\\x8c\\x85\\xe5\\x90\\x88\\xe7\\xba\\xa6.sol\":3113:3569  function executed (uint _txId) external txExists(_txId) notExecuted(_txId) {... */\n    tag_59:\n        /* \"\\xe5\\xa4\\x9a\\xe7\\xad\\xbe\\xe9\\x92\\xb1\\xe5\\x8c\\x85\\xe5\\x90\\x88\\xe7\\xba\\xa6.sol\":959:971  transactions */\n      0x03\n        /* \"\\xe5\\xa4\\x9a\\xe7\\xad\\xbe\\xe9\\x92\\xb1\\xe5\\x8c\\x85\\xe5\\x90\\x88\\xe7\\xba\\xa6.sol\":959:978  transactions.length */\n      sload\n        /* \"\\xe5\\xa4\\x9a\\xe7\\xad\\xbe\\xe9\\x92\\xb1\\xe5\\x8c\\x85\\xe5\\x90\\x88\\xe7\\xba\\xa6.sol\":3162:3167  _txId */\n      dup2\n      swap1\n        /* \"\\xe5\\xa4\\x9a\\xe7\\xad\\xbe\\xe9\\x92\\xb1\\xe5\\x8c\\x85\\xe5\\x90\\x88\\xe7\\xba\\xa6.sol\":951:978  _txId < transactions.length */\n      dup2\n      lt\n        /* \"\\xe5\\xa4\\x9a\\xe7\\xad\\xbe\\xe9\\x92\\xb1\\xe5\\x8c\\x85\\xe5\\x90\\x88\\xe7\\xba\\xa6.sol\":943:1000  require(_txId < transactions.length, \"tx does not exist\") */\n      tag_123\n      jumpi\n      mload(0x40)\n      shl(0xe5, 0x461bcd)\n      dup2\n      mstore\n      0x04\n      add\n      tag_68\n      swap1\n      tag_82\n      jump\t// in\n    tag_123:\n        /* \"\\xe5\\xa4\\x9a\\xe7\\xad\\xbe\\xe9\\x92\\xb1\\xe5\\x8c\\x85\\xe5\\x90\\x88\\xe7\\xba\\xa6.sol\":3181:3186  _txId */\n      dup2\n        /* \"\\xe5\\xa4\\x9a\\xe7\\xad\\xbe\\xe9\\x92\\xb1\\xe5\\x8c\\x85\\xe5\\x90\\x88\\xe7\\xba\\xa6.sol\":1324:1336  transactions */\n      0x03\n        /* \"\\xe5\\xa4\\x9a\\xe7\\xad\\xbe\\xe9\\x92\\xb1\\xe5\\x8c\\x85\\xe5\\x90\\x88\\xe7\\xba\\xa6.sol\":1337:1342  _txId */\n      dup2\n        /* \"\\xe5\\xa4\\x9a\\xe7\\xad\\xbe\\xe9\\x92\\xb1\\xe5\\x8c\\x85\\xe5\\x90\\x88\\xe7\\xba\\xa6.sol\":1324:1343  transactions[_txId] */\n      dup2\n      sload\n      dup2\n      lt\n      tag_127\n      jumpi\n      tag_127\n      tag_86\n      jump\t// in\n    tag_127:\n      0x00\n      swap2\n      dup3\n      mstore\n      0x20\n      swap1\n      swap2\n      keccak256\n        /* \"\\xe5\\xa4\\x9a\\xe7\\xad\\xbe\\xe9\\x92\\xb1\\xe5\\x8c\\x85\\xe5\\x90\\x88\\xe7\\xba\\xa6.sol\":1324:1352  transactions[_txId].executed */\n      0x03\n        /* \"\\xe5\\xa4\\x9a\\xe7\\xad\\xbe\\xe9\\x92\\xb1\\xe5\\x8c\\x85\\xe5\\x90\\x88\\xe7\\xba\\xa6.sol\":1324:1343  transactions[_txId] */\n      0x04\n      swap1\n      swap3\n      mul\n      add\n        /* \"\\xe5\\xa4\\x9a\\xe7\\xad\\xbe\\xe9\\x92\\xb1\\xe5\\x8c\\x85\\xe5\\x90\\x88\\xe7\\xba\\xa6.sol\":1324:1352  transactions[_txId].executed */\n      add\n      sload\n      0xff\n      and\n        /* \"\\xe5\\xa4\\x9a\\xe7\\xad\\xbe\\xe9\\x92\\xb1\\xe5\\x8c\\x85\\xe5\\x90\\x88\\xe7\\xba\\xa6.sol\":1323:1352  !transactions[_txId].executed */\n      iszero\n        /* \"\\xe5\\xa4\\x9a\\xe7\\xad\\xbe\\xe9\\x92\\xb1\\xe5\\x8c\\x85\\xe5\\x90\\x88\\xe7\\xba\\xa6.sol\":1315:1376  require(!transactions[_txId].executed, \"tx already executed\") */\n      tag_129\n      jumpi\n      mload(0x40)\n      shl(0xe5, 0x461bcd)\n      dup2\n      mstore\n      0x04\n      add\n      tag_68\n      swap1\n      tag_90\n      jump\t// in\n    tag_129:\n        /* \"\\xe5\\xa4\\x9a\\xe7\\xad\\xbe\\xe9\\x92\\xb1\\xe5\\x8c\\x85\\xe5\\x90\\x88\\xe7\\xba\\xa6.sol\":3235:3243  required */\n      sload(0x02)\n        /* \"\\xe5\\xa4\\x9a\\xe7\\xad\\xbe\\xe9\\x92\\xb1\\xe5\\x8c\\x85\\xe5\\x90\\x88\\xe7\\xba\\xa6.sol\":3207:3231  _getApprovalCount(_txId) */\n      tag_132\n        /* \"\\xe5\\xa4\\x9a\\xe7\\xad\\xbe\\xe9\\x92\\xb1\\xe5\\x8c\\x85\\xe5\\x90\\x88\\xe7\\xba\\xa6.sol\":3225:3230  _txId */\n      dup5\n        /* \"\\xe5\\xa4\\x9a\\xe7\\xad\\xbe\\xe9\\x92\\xb1\\xe5\\x8c\\x85\\xe5\\x90\\x88\\xe7\\xba\\xa6.sol\":3207:3224  _getApprovalCount */\n      tag_133\n        /* \"\\xe5\\xa4\\x9a\\xe7\\xad\\xbe\\xe9\\x92\\xb1\\xe5\\x8c\\x85\\xe5\\x90\\x88\\xe7\\xba\\xa6.sol\":3207:3231  _getApprovalCount(_txId) */\n      jump\t// in\n    tag_132:\n        /* \"\\xe5\\xa4\\x9a\\xe7\\xad\\xbe\\xe9\\x92\\xb1\\xe5\\x8c\\x85\\xe5\\x90\\x88\\xe7\\xba\\xa6.sol\":3207:3243  _getApprovalCount(_txId) >= required */\n      lt\n      iszero\n        /* \"\\xe5\\xa4\\x9a\\xe7\\xad\\xbe\\xe9\\x92\\xb1\\xe5\\x8c\\x85\\xe5\\x90\\x88\\xe7\\xba\\xa6.sol\":3199:3268  require(_getApprovalCount(_txId) >= required, \"approvals < required\") */\n      tag_134\n      jumpi\n      mload(0x40)\n      shl(0xe5, 0x461bcd)\n      dup2\n      mstore\n        /* \"#utility.yul\":7776:7778   */\n      0x20\n        /* \"\\xe5\\xa4\\x9a\\xe7\\xad\\xbe\\xe9\\x92\\xb1\\xe5\\x8c\\x85\\xe5\\x90\\x88\\xe7\\xba\\xa6.sol\":3199:3268  require(_getApprovalCount(_txId) >= required, \"approvals < required\") */\n      0x04\n      dup3\n      add\n        /* \"#utility.yul\":7758:7779   */\n      mstore\n        /* \"#utility.yul\":7815:7817   */\n      0x14\n        /* \"#utility.yul\":7795:7813   */\n      0x24\n      dup3\n      add\n        /* \"#utility.yul\":7788:7818   */\n      mstore\n      shl(0x62, 0x185c1c1c9bdd985b1cc80f081c995c5d5a5c9959)\n        /* \"#utility.yul\":7834:7852   */\n      0x44\n      dup3\n      add\n        /* \"#utility.yul\":7827:7877   */\n      mstore\n        /* \"#utility.yul\":7894:7912   */\n      0x64\n      add\n        /* \"\\xe5\\xa4\\x9a\\xe7\\xad\\xbe\\xe9\\x92\\xb1\\xe5\\x8c\\x85\\xe5\\x90\\x88\\xe7\\xba\\xa6.sol\":3199:3268  require(_getApprovalCount(_txId) >= required, \"approvals < required\") */\n      tag_68\n        /* \"#utility.yul\":7574:7918   */\n      jump\n        /* \"\\xe5\\xa4\\x9a\\xe7\\xad\\xbe\\xe9\\x92\\xb1\\xe5\\x8c\\x85\\xe5\\x90\\x88\\xe7\\xba\\xa6.sol\":3199:3268  require(_getApprovalCount(_txId) >= required, \"approvals < required\") */\n    tag_134:\n        /* \"\\xe5\\xa4\\x9a\\xe7\\xad\\xbe\\xe9\\x92\\xb1\\xe5\\x8c\\x85\\xe5\\x90\\x88\\xe7\\xba\\xa6.sol\":3279:3310  Transaction storage transaction */\n      0x00\n        /* \"\\xe5\\xa4\\x9a\\xe7\\xad\\xbe\\xe9\\x92\\xb1\\xe5\\x8c\\x85\\xe5\\x90\\x88\\xe7\\xba\\xa6.sol\":3313:3325  transactions */\n      0x03\n        /* \"\\xe5\\xa4\\x9a\\xe7\\xad\\xbe\\xe9\\x92\\xb1\\xe5\\x8c\\x85\\xe5\\x90\\x88\\xe7\\xba\\xa6.sol\":3326:3331  _txId */\n      dup5\n        /* \"\\xe5\\xa4\\x9a\\xe7\\xad\\xbe\\xe9\\x92\\xb1\\xe5\\x8c\\x85\\xe5\\x90\\x88\\xe7\\xba\\xa6.sol\":3313:3332  transactions[_txId] */\n      dup2\n      sload\n      dup2\n      lt\n      tag_138\n      jumpi\n      tag_138\n      tag_86\n      jump\t// in\n    tag_138:\n      0x00\n      swap2\n      dup3\n      mstore\n      0x20\n      dup3\n      keccak256\n        /* \"\\xe5\\xa4\\x9a\\xe7\\xad\\xbe\\xe9\\x92\\xb1\\xe5\\x8c\\x85\\xe5\\x90\\x88\\xe7\\xba\\xa6.sol\":3345:3365  transaction.executed */\n      0x03\n        /* \"\\xe5\\xa4\\x9a\\xe7\\xad\\xbe\\xe9\\x92\\xb1\\xe5\\x8c\\x85\\xe5\\x90\\x88\\xe7\\xba\\xa6.sol\":3313:3332  transactions[_txId] */\n      0x04\n      swap1\n      swap3\n      mul\n      add\n        /* \"\\xe5\\xa4\\x9a\\xe7\\xad\\xbe\\xe9\\x92\\xb1\\xe5\\x8c\\x85\\xe5\\x90\\x88\\xe7\\xba\\xa6.sol\":3345:3365  transaction.executed */\n      swap1\n      dup2\n      add\n        /* \"\\xe5\\xa4\\x9a\\xe7\\xad\\xbe\\xe9\\x92\\xb1\\xe5\\x8c\\x85\\xe5\\x90\\x88\\xe7\\xba\\xa6.sol\":3345:3372  transaction.executed = true */\n      dup1\n      sload\n      not(0xff)\n      and\n        /* \"\\xe5\\xa4\\x9a\\xe7\\xad\\xbe\\xe9\\x92\\xb1\\xe5\\x8c\\x85\\xe5\\x90\\x88\\xe7\\xba\\xa6.sol\":3368:3372  true */\n      0x01\n        /* \"\\xe5\\xa4\\x9a\\xe7\\xad\\xbe\\xe9\\x92\\xb1\\xe5\\x8c\\x85\\xe5\\x90\\x88\\xe7\\xba\\xa6.sol\":3345:3372  transaction.executed = true */\n      swap1\n      dup2\n      or\n      swap1\n      swap2\n      sstore\n        /* \"\\xe5\\xa4\\x9a\\xe7\\xad\\xbe\\xe9\\x92\\xb1\\xe5\\x8c\\x85\\xe5\\x90\\x88\\xe7\\xba\\xa6.sol\":3404:3418  transaction.to */\n      dup2\n      sload\n        /* \"\\xe5\\xa4\\x9a\\xe7\\xad\\xbe\\xe9\\x92\\xb1\\xe5\\x8c\\x85\\xe5\\x90\\x88\\xe7\\xba\\xa6.sol\":3431:3448  transaction.value */\n      swap1\n      dup3\n      add\n      sload\n        /* \"\\xe5\\xa4\\x9a\\xe7\\xad\\xbe\\xe9\\x92\\xb1\\xe5\\x8c\\x85\\xe5\\x90\\x88\\xe7\\xba\\xa6.sol\":3404:3491  transaction.to.call{value: transaction.value}(... */\n      mload(0x40)\n        /* \"\\xe5\\xa4\\x9a\\xe7\\xad\\xbe\\xe9\\x92\\xb1\\xe5\\x8c\\x85\\xe5\\x90\\x88\\xe7\\xba\\xa6.sol\":3313:3332  transactions[_txId] */\n      swap3\n      swap5\n      pop\n      sub(shl(0xa0, 0x01), 0x01)\n        /* \"\\xe5\\xa4\\x9a\\xe7\\xad\\xbe\\xe9\\x92\\xb1\\xe5\\x8c\\x85\\xe5\\x90\\x88\\xe7\\xba\\xa6.sol\":3404:3418  transaction.to */\n      swap1\n      swap2\n      and\n      swap2\n        /* \"\\xe5\\xa4\\x9a\\xe7\\xad\\xbe\\xe9\\x92\\xb1\\xe5\\x8c\\x85\\xe5\\x90\\x88\\xe7\\xba\\xa6.sol\":3404:3491  transaction.to.call{value: transaction.value}(... */\n      tag_140\n      swap1\n        /* \"\\xe5\\xa4\\x9a\\xe7\\xad\\xbe\\xe9\\x92\\xb1\\xe5\\x8c\\x85\\xe5\\x90\\x88\\xe7\\xba\\xa6.sol\":3464:3480  transaction.data */\n      0x02\n      dup7\n      add\n      swap1\n        /* \"\\xe5\\xa4\\x9a\\xe7\\xad\\xbe\\xe9\\x92\\xb1\\xe5\\x8c\\x85\\xe5\\x90\\x88\\xe7\\xba\\xa6.sol\":3404:3491  transaction.to.call{value: transaction.value}(... */\n      tag_141\n      jump\t// in\n    tag_140:\n      0x00\n      mload(0x40)\n      dup1\n      dup4\n      sub\n      dup2\n      dup6\n      dup8\n      gas\n      call\n      swap3\n      pop\n      pop\n      pop\n      returndatasize\n      dup1\n      0x00\n      dup2\n      eq\n      tag_144\n      jumpi\n      mload(0x40)\n      swap2\n      pop\n      and(add(returndatasize, 0x3f), not(0x1f))\n      dup3\n      add\n      0x40\n      mstore\n      returndatasize\n      dup3\n      mstore\n      returndatasize\n      0x00\n      0x20\n      dup5\n      add\n      returndatacopy\n      jump(tag_143)\n    tag_144:\n      0x60\n      swap2\n      pop\n    tag_143:\n      pop\n        /* \"\\xe5\\xa4\\x9a\\xe7\\xad\\xbe\\xe9\\x92\\xb1\\xe5\\x8c\\x85\\xe5\\x90\\x88\\xe7\\xba\\xa6.sol\":3385:3491  (bool success, ) = transaction.to.call{value: transaction.value}(... */\n      pop\n      swap1\n      pop\n        /* \"\\xe5\\xa4\\x9a\\xe7\\xad\\xbe\\xe9\\x92\\xb1\\xe5\\x8c\\x85\\xe5\\x90\\x88\\xe7\\xba\\xa6.sol\":3510:3517  success */\n      dup1\n        /* \"\\xe5\\xa4\\x9a\\xe7\\xad\\xbe\\xe9\\x92\\xb1\\xe5\\x8c\\x85\\xe5\\x90\\x88\\xe7\\xba\\xa6.sol\":3502:3531  require(success, \"tx failed\") */\n      tag_145\n      jumpi\n      mload(0x40)\n      shl(0xe5, 0x461bcd)\n      dup2\n      mstore\n        /* \"#utility.yul\":8970:8972   */\n      0x20\n        /* \"\\xe5\\xa4\\x9a\\xe7\\xad\\xbe\\xe9\\x92\\xb1\\xe5\\x8c\\x85\\xe5\\x90\\x88\\xe7\\xba\\xa6.sol\":3502:3531  require(success, \"tx failed\") */\n      0x04\n      dup3\n      add\n        /* \"#utility.yul\":8952:8973   */\n      mstore\n        /* \"#utility.yul\":9009:9010   */\n      0x09\n        /* \"#utility.yul\":8989:9007   */\n      0x24\n      dup3\n      add\n        /* \"#utility.yul\":8982:9011   */\n      mstore\n      shl(0xba, 0x1d1e0819985a5b1959)\n        /* \"#utility.yul\":9027:9045   */\n      0x44\n      dup3\n      add\n        /* \"#utility.yul\":9020:9059   */\n      mstore\n        /* \"#utility.yul\":9076:9094   */\n      0x64\n      add\n        /* \"\\xe5\\xa4\\x9a\\xe7\\xad\\xbe\\xe9\\x92\\xb1\\xe5\\x8c\\x85\\xe5\\x90\\x88\\xe7\\xba\\xa6.sol\":3502:3531  require(success, \"tx failed\") */\n      tag_68\n        /* \"#utility.yul\":8768:9100   */\n      jump\n        /* \"\\xe5\\xa4\\x9a\\xe7\\xad\\xbe\\xe9\\x92\\xb1\\xe5\\x8c\\x85\\xe5\\x90\\x88\\xe7\\xba\\xa6.sol\":3502:3531  require(success, \"tx failed\") */\n    tag_145:\n        /* \"\\xe5\\xa4\\x9a\\xe7\\xad\\xbe\\xe9\\x92\\xb1\\xe5\\x8c\\x85\\xe5\\x90\\x88\\xe7\\xba\\xa6.sol\":3547:3561  Execute(_txId) */\n      mload(0x40)\n        /* \"\\xe5\\xa4\\x9a\\xe7\\xad\\xbe\\xe9\\x92\\xb1\\xe5\\x8c\\x85\\xe5\\x90\\x88\\xe7\\xba\\xa6.sol\":3555:3560  _txId */\n      dup6\n      swap1\n        /* \"\\xe5\\xa4\\x9a\\xe7\\xad\\xbe\\xe9\\x92\\xb1\\xe5\\x8c\\x85\\xe5\\x90\\x88\\xe7\\xba\\xa6.sol\":3547:3561  Execute(_txId) */\n      0xddb556f1d2c1ec821e910b019d3685b229db152a0ecd517ca7e24b8bd7139289\n      swap1\n      0x00\n      swap1\n      log2\n        /* \"\\xe5\\xa4\\x9a\\xe7\\xad\\xbe\\xe9\\x92\\xb1\\xe5\\x8c\\x85\\xe5\\x90\\x88\\xe7\\xba\\xa6.sol\":3188:3569  {... */\n      pop\n      pop\n        /* \"\\xe5\\xa4\\x9a\\xe7\\xad\\xbe\\xe9\\x92\\xb1\\xe5\\x8c\\x85\\xe5\\x90\\x88\\xe7\\xba\\xa6.sol\":1011:1012  _ */\n      pop\n        /* \"\\xe5\\xa4\\x9a\\xe7\\xad\\xbe\\xe9\\x92\\xb1\\xe5\\x8c\\x85\\xe5\\x90\\x88\\xe7\\xba\\xa6.sol\":3113:3569  function executed (uint _txId) external txExists(_txId) notExecuted(_txId) {... */\n      pop\n      pop\n      jump\t// out\n        /* \"\\xe5\\xa4\\x9a\\xe7\\xad\\xbe\\xe9\\x92\\xb1\\xe5\\x8c\\x85\\xe5\\x90\\x88\\xe7\\xba\\xa6.sol\":2848:3105  function _getApprovalCount(uint _txId) private view returns (uint count) {... */\n    tag_133:\n        /* \"\\xe5\\xa4\\x9a\\xe7\\xad\\xbe\\xe9\\x92\\xb1\\xe5\\x8c\\x85\\xe5\\x90\\x88\\xe7\\xba\\xa6.sol\":2909:2919  uint count */\n      0x00\n        /* \"\\xe5\\xa4\\x9a\\xe7\\xad\\xbe\\xe9\\x92\\xb1\\xe5\\x8c\\x85\\xe5\\x90\\x88\\xe7\\xba\\xa6.sol\":2937:2943  uint i */\n      dup1\n        /* \"\\xe5\\xa4\\x9a\\xe7\\xad\\xbe\\xe9\\x92\\xb1\\xe5\\x8c\\x85\\xe5\\x90\\x88\\xe7\\xba\\xa6.sol\":2932:3072  for (uint i; i < owners.length; i++) {... */\n    tag_149:\n        /* \"\\xe5\\xa4\\x9a\\xe7\\xad\\xbe\\xe9\\x92\\xb1\\xe5\\x8c\\x85\\xe5\\x90\\x88\\xe7\\xba\\xa6.sol\":2949:2955  owners */\n      0x00\n        /* \"\\xe5\\xa4\\x9a\\xe7\\xad\\xbe\\xe9\\x92\\xb1\\xe5\\x8c\\x85\\xe5\\x90\\x88\\xe7\\xba\\xa6.sol\":2949:2962  owners.length */\n      sload\n        /* \"\\xe5\\xa4\\x9a\\xe7\\xad\\xbe\\xe9\\x92\\xb1\\xe5\\x8c\\x85\\xe5\\x90\\x88\\xe7\\xba\\xa6.sol\":2945:2962  i < owners.length */\n      dup2\n      lt\n        /* \"\\xe5\\xa4\\x9a\\xe7\\xad\\xbe\\xe9\\x92\\xb1\\xe5\\x8c\\x85\\xe5\\x90\\x88\\xe7\\xba\\xa6.sol\":2932:3072  for (uint i; i < owners.length; i++) {... */\n      iszero\n      tag_150\n      jumpi\n        /* \"\\xe5\\xa4\\x9a\\xe7\\xad\\xbe\\xe9\\x92\\xb1\\xe5\\x8c\\x85\\xe5\\x90\\x88\\xe7\\xba\\xa6.sol\":2988:2996  approved */\n      0x04\n        /* \"\\xe5\\xa4\\x9a\\xe7\\xad\\xbe\\xe9\\x92\\xb1\\xe5\\x8c\\x85\\xe5\\x90\\x88\\xe7\\xba\\xa6.sol\":2988:3003  approved[_txId] */\n      0x00\n        /* \"\\xe5\\xa4\\x9a\\xe7\\xad\\xbe\\xe9\\x92\\xb1\\xe5\\x8c\\x85\\xe5\\x90\\x88\\xe7\\xba\\xa6.sol\":2997:3002  _txId */\n      dup5\n        /* \"\\xe5\\xa4\\x9a\\xe7\\xad\\xbe\\xe9\\x92\\xb1\\xe5\\x8c\\x85\\xe5\\x90\\x88\\xe7\\xba\\xa6.sol\":2988:3003  approved[_txId] */\n      dup2\n      mstore\n      0x20\n      add\n      swap1\n      dup2\n      mstore\n      0x20\n      add\n      0x00\n      keccak256\n        /* \"\\xe5\\xa4\\x9a\\xe7\\xad\\xbe\\xe9\\x92\\xb1\\xe5\\x8c\\x85\\xe5\\x90\\x88\\xe7\\xba\\xa6.sol\":2988:3014  approved[_txId][owners[i]] */\n      0x00\n        /* \"\\xe5\\xa4\\x9a\\xe7\\xad\\xbe\\xe9\\x92\\xb1\\xe5\\x8c\\x85\\xe5\\x90\\x88\\xe7\\xba\\xa6.sol\":3004:3010  owners */\n      dup1\n        /* \"\\xe5\\xa4\\x9a\\xe7\\xad\\xbe\\xe9\\x92\\xb1\\xe5\\x8c\\x85\\xe5\\x90\\x88\\xe7\\xba\\xa6.sol\":3011:3012  i */\n      dup4\n        /* \"\\xe5\\xa4\\x9a\\xe7\\xad\\xbe\\xe9\\x92\\xb1\\xe5\\x8c\\x85\\xe5\\x90\\x88\\xe7\\xba\\xa6.sol\":3004:3013  owners[i] */\n      dup2\n      sload\n      dup2\n      lt\n      tag_153\n      jumpi\n      tag_153\n      tag_86\n      jump\t// in\n    tag_153:\n      0x00\n      swap2\n      dup3\n      mstore\n      0x20\n      dup1\n      dup4\n      keccak256\n      swap1\n      swap2\n      add\n      sload\n      sub(shl(0xa0, 0x01), 0x01)\n      and\n        /* \"\\xe5\\xa4\\x9a\\xe7\\xad\\xbe\\xe9\\x92\\xb1\\xe5\\x8c\\x85\\xe5\\x90\\x88\\xe7\\xba\\xa6.sol\":2988:3014  approved[_txId][owners[i]] */\n      dup4\n      mstore\n      dup3\n      add\n      swap3\n      swap1\n      swap3\n      mstore\n      0x40\n      add\n      swap1\n      keccak256\n      sload\n      0xff\n      and\n        /* \"\\xe5\\xa4\\x9a\\xe7\\xad\\xbe\\xe9\\x92\\xb1\\xe5\\x8c\\x85\\xe5\\x90\\x88\\xe7\\xba\\xa6.sol\":2984:3061  if (approved[_txId][owners[i]]) {... */\n      iszero\n      tag_155\n      jumpi\n        /* \"\\xe5\\xa4\\x9a\\xe7\\xad\\xbe\\xe9\\x92\\xb1\\xe5\\x8c\\x85\\xe5\\x90\\x88\\xe7\\xba\\xa6.sol\":3035:3045  count += 1 */\n      tag_156\n        /* \"\\xe5\\xa4\\x9a\\xe7\\xad\\xbe\\xe9\\x92\\xb1\\xe5\\x8c\\x85\\xe5\\x90\\x88\\xe7\\xba\\xa6.sol\":3044:3045  1 */\n      0x01\n        /* \"\\xe5\\xa4\\x9a\\xe7\\xad\\xbe\\xe9\\x92\\xb1\\xe5\\x8c\\x85\\xe5\\x90\\x88\\xe7\\xba\\xa6.sol\":3035:3045  count += 1 */\n      dup4\n      tag_157\n      jump\t// in\n    tag_156:\n      swap2\n      pop\n        /* \"\\xe5\\xa4\\x9a\\xe7\\xad\\xbe\\xe9\\x92\\xb1\\xe5\\x8c\\x85\\xe5\\x90\\x88\\xe7\\xba\\xa6.sol\":2984:3061  if (approved[_txId][owners[i]]) {... */\n    tag_155:\n        /* \"\\xe5\\xa4\\x9a\\xe7\\xad\\xbe\\xe9\\x92\\xb1\\xe5\\x8c\\x85\\xe5\\x90\\x88\\xe7\\xba\\xa6.sol\":2964:2967  i++ */\n      dup1\n      tag_158\n      dup2\n      tag_159\n      jump\t// in\n    tag_158:\n      swap2\n      pop\n      pop\n        /* \"\\xe5\\xa4\\x9a\\xe7\\xad\\xbe\\xe9\\x92\\xb1\\xe5\\x8c\\x85\\xe5\\x90\\x88\\xe7\\xba\\xa6.sol\":2932:3072  for (uint i; i < owners.length; i++) {... */\n      jump(tag_149)\n    tag_150:\n      pop\n        /* \"\\xe5\\xa4\\x9a\\xe7\\xad\\xbe\\xe9\\x92\\xb1\\xe5\\x8c\\x85\\xe5\\x90\\x88\\xe7\\xba\\xa6.sol\":2848:3105  function _getApprovalCount(uint _txId) private view returns (uint count) {... */\n      swap2\n      swap1\n      pop\n      jump\t// out\n        /* \"#utility.yul\":196:376   */\n    tag_20:\n        /* \"#utility.yul\":255:261   */\n      0x00\n        /* \"#utility.yul\":308:310   */\n      0x20\n        /* \"#utility.yul\":296:305   */\n      dup3\n        /* \"#utility.yul\":287:294   */\n      dup5\n        /* \"#utility.yul\":283:306   */\n      sub\n        /* \"#utility.yul\":279:311   */\n      slt\n        /* \"#utility.yul\":276:328   */\n      iszero\n      tag_170\n      jumpi\n        /* \"#utility.yul\":324:325   */\n      0x00\n        /* \"#utility.yul\":321:322   */\n      dup1\n        /* \"#utility.yul\":314:326   */\n      revert\n        /* \"#utility.yul\":276:328   */\n    tag_170:\n      pop\n        /* \"#utility.yul\":347:370   */\n      calldataload\n      swap2\n        /* \"#utility.yul\":196:376   */\n      swap1\n      pop\n      jump\t// out\n        /* \"#utility.yul\":589:762   */\n    tag_160:\n        /* \"#utility.yul\":657:677   */\n      dup1\n      calldataload\n      sub(shl(0xa0, 0x01), 0x01)\n        /* \"#utility.yul\":706:737   */\n      dup2\n      and\n        /* \"#utility.yul\":696:738   */\n      dup2\n      eq\n        /* \"#utility.yul\":686:756   */\n      tag_173\n      jumpi\n        /* \"#utility.yul\":752:753   */\n      0x00\n        /* \"#utility.yul\":749:750   */\n      dup1\n        /* \"#utility.yul\":742:754   */\n      revert\n        /* \"#utility.yul\":686:756   */\n    tag_173:\n        /* \"#utility.yul\":589:762   */\n      swap2\n      swap1\n      pop\n      jump\t// out\n        /* \"#utility.yul\":767:1500   */\n    tag_27:\n        /* \"#utility.yul\":855:861   */\n      0x00\n        /* \"#utility.yul\":863:869   */\n      dup1\n        /* \"#utility.yul\":871:877   */\n      0x00\n        /* \"#utility.yul\":879:885   */\n      dup1\n        /* \"#utility.yul\":932:934   */\n      0x60\n        /* \"#utility.yul\":920:929   */\n      dup6\n        /* \"#utility.yul\":911:918   */\n      dup8\n        /* \"#utility.yul\":907:930   */\n      sub\n        /* \"#utility.yul\":903:935   */\n      slt\n        /* \"#utility.yul\":900:952   */\n      iszero\n      tag_175\n      jumpi\n        /* \"#utility.yul\":948:949   */\n      0x00\n        /* \"#utility.yul\":945:946   */\n      dup1\n        /* \"#utility.yul\":938:950   */\n      revert\n        /* \"#utility.yul\":900:952   */\n    tag_175:\n        /* \"#utility.yul\":971:1000   */\n      tag_176\n        /* \"#utility.yul\":990:999   */\n      dup6\n        /* \"#utility.yul\":971:1000   */\n      tag_160\n      jump\t// in\n    tag_176:\n        /* \"#utility.yul\":961:1000   */\n      swap4\n      pop\n        /* \"#utility.yul\":1047:1049   */\n      0x20\n        /* \"#utility.yul\":1036:1045   */\n      dup6\n        /* \"#utility.yul\":1032:1050   */\n      add\n        /* \"#utility.yul\":1019:1051   */\n      calldataload\n        /* \"#utility.yul\":1009:1051   */\n      swap3\n      pop\n        /* \"#utility.yul\":1102:1104   */\n      0x40\n        /* \"#utility.yul\":1091:1100   */\n      dup6\n        /* \"#utility.yul\":1087:1105   */\n      add\n        /* \"#utility.yul\":1074:1106   */\n      calldataload\n        /* \"#utility.yul\":1125:1143   */\n      0xffffffffffffffff\n        /* \"#utility.yul\":1166:1168   */\n      dup1\n        /* \"#utility.yul\":1158:1164   */\n      dup3\n        /* \"#utility.yul\":1155:1169   */\n      gt\n        /* \"#utility.yul\":1152:1186   */\n      iszero\n      tag_177\n      jumpi\n        /* \"#utility.yul\":1182:1183   */\n      0x00\n        /* \"#utility.yul\":1179:1180   */\n      dup1\n        /* \"#utility.yul\":1172:1184   */\n      revert\n        /* \"#utility.yul\":1152:1186   */\n    tag_177:\n        /* \"#utility.yul\":1220:1226   */\n      dup2\n        /* \"#utility.yul\":1209:1218   */\n      dup8\n        /* \"#utility.yul\":1205:1227   */\n      add\n        /* \"#utility.yul\":1195:1227   */\n      swap2\n      pop\n        /* \"#utility.yul\":1265:1272   */\n      dup8\n        /* \"#utility.yul\":1258:1262   */\n      0x1f\n        /* \"#utility.yul\":1254:1256   */\n      dup4\n        /* \"#utility.yul\":1250:1263   */\n      add\n        /* \"#utility.yul\":1246:1273   */\n      slt\n        /* \"#utility.yul\":1236:1291   */\n      tag_178\n      jumpi\n        /* \"#utility.yul\":1287:1288   */\n      0x00\n        /* \"#utility.yul\":1284:1285   */\n      dup1\n        /* \"#utility.yul\":1277:1289   */\n      revert\n        /* \"#utility.yul\":1236:1291   */\n    tag_178:\n        /* \"#utility.yul\":1327:1329   */\n      dup2\n        /* \"#utility.yul\":1314:1330   */\n      calldataload\n        /* \"#utility.yul\":1353:1355   */\n      dup2\n        /* \"#utility.yul\":1345:1351   */\n      dup2\n        /* \"#utility.yul\":1342:1356   */\n      gt\n        /* \"#utility.yul\":1339:1373   */\n      iszero\n      tag_179\n      jumpi\n        /* \"#utility.yul\":1369:1370   */\n      0x00\n        /* \"#utility.yul\":1366:1367   */\n      dup1\n        /* \"#utility.yul\":1359:1371   */\n      revert\n        /* \"#utility.yul\":1339:1373   */\n    tag_179:\n        /* \"#utility.yul\":1414:1421   */\n      dup9\n        /* \"#utility.yul\":1409:1411   */\n      0x20\n        /* \"#utility.yul\":1400:1406   */\n      dup3\n        /* \"#utility.yul\":1396:1398   */\n      dup6\n        /* \"#utility.yul\":1392:1407   */\n      add\n        /* \"#utility.yul\":1388:1412   */\n      add\n        /* \"#utility.yul\":1385:1422   */\n      gt\n        /* \"#utility.yul\":1382:1439   */\n      iszero\n      tag_180\n      jumpi\n        /* \"#utility.yul\":1435:1436   */\n      0x00\n        /* \"#utility.yul\":1432:1433   */\n      dup1\n        /* \"#utility.yul\":1425:1437   */\n      revert\n        /* \"#utility.yul\":1382:1439   */\n    tag_180:\n        /* \"#utility.yul\":767:1500   */\n      swap6\n      swap9\n      swap5\n      swap8\n      pop\n      pop\n        /* \"#utility.yul\":1466:1468   */\n      0x20\n        /* \"#utility.yul\":1458:1469   */\n      add\n      swap5\n      pop\n      pop\n      pop\n        /* \"#utility.yul\":767:1500   */\n      jump\t// out\n        /* \"#utility.yul\":1505:1691   */\n    tag_36:\n        /* \"#utility.yul\":1564:1570   */\n      0x00\n        /* \"#utility.yul\":1617:1619   */\n      0x20\n        /* \"#utility.yul\":1605:1614   */\n      dup3\n        /* \"#utility.yul\":1596:1603   */\n      dup5\n        /* \"#utility.yul\":1592:1615   */\n      sub\n        /* \"#utility.yul\":1588:1620   */\n      slt\n        /* \"#utility.yul\":1585:1637   */\n      iszero\n      tag_182\n      jumpi\n        /* \"#utility.yul\":1633:1634   */\n      0x00\n        /* \"#utility.yul\":1630:1631   */\n      dup1\n        /* \"#utility.yul\":1623:1635   */\n      revert\n        /* \"#utility.yul\":1585:1637   */\n    tag_182:\n        /* \"#utility.yul\":1656:1685   */\n      tag_183\n        /* \"#utility.yul\":1675:1684   */\n      dup3\n        /* \"#utility.yul\":1656:1685   */\n      tag_160\n      jump\t// in\n    tag_183:\n        /* \"#utility.yul\":1646:1685   */\n      swap4\n        /* \"#utility.yul\":1505:1691   */\n      swap3\n      pop\n      pop\n      pop\n      jump\t// out\n        /* \"#utility.yul\":1984:2238   */\n    tag_43:\n        /* \"#utility.yul\":2052:2058   */\n      0x00\n        /* \"#utility.yul\":2060:2066   */\n      dup1\n        /* \"#utility.yul\":2113:2115   */\n      0x40\n        /* \"#utility.yul\":2101:2110   */\n      dup4\n        /* \"#utility.yul\":2092:2099   */\n      dup6\n        /* \"#utility.yul\":2088:2111   */\n      sub\n        /* \"#utility.yul\":2084:2116   */\n      slt\n        /* \"#utility.yul\":2081:2133   */\n      iszero\n      tag_187\n      jumpi\n        /* \"#utility.yul\":2129:2130   */\n      0x00\n        /* \"#utility.yul\":2126:2127   */\n      dup1\n        /* \"#utility.yul\":2119:2131   */\n      revert\n        /* \"#utility.yul\":2081:2133   */\n    tag_187:\n        /* \"#utility.yul\":2165:2174   */\n      dup3\n        /* \"#utility.yul\":2152:2175   */\n      calldataload\n        /* \"#utility.yul\":2142:2175   */\n      swap2\n      pop\n        /* \"#utility.yul\":2194:2232   */\n      tag_188\n        /* \"#utility.yul\":2228:2230   */\n      0x20\n        /* \"#utility.yul\":2217:2226   */\n      dup5\n        /* \"#utility.yul\":2213:2231   */\n      add\n        /* \"#utility.yul\":2194:2232   */\n      tag_160\n      jump\t// in\n    tag_188:\n        /* \"#utility.yul\":2184:2232   */\n      swap1\n      pop\n        /* \"#utility.yul\":1984:2238   */\n      swap3\n      pop\n      swap3\n      swap1\n      pop\n      jump\t// out\n        /* \"#utility.yul\":2243:3085   */\n    tag_51:\n        /* \"#utility.yul\":2497:2498   */\n      0x01\n        /* \"#utility.yul\":2493:2494   */\n      dup1\n        /* \"#utility.yul\":2488:2491   */\n      0xa0\n        /* \"#utility.yul\":2484:2495   */\n      shl\n        /* \"#utility.yul\":2480:2499   */\n      sub\n        /* \"#utility.yul\":2472:2478   */\n      dup6\n        /* \"#utility.yul\":2468:2500   */\n      and\n        /* \"#utility.yul\":2457:2466   */\n      dup2\n        /* \"#utility.yul\":2450:2501   */\n      mstore\n        /* \"#utility.yul\":2431:2435   */\n      0x00\n        /* \"#utility.yul\":2520:2522   */\n      0x20\n        /* \"#utility.yul\":2558:2564   */\n      dup6\n        /* \"#utility.yul\":2553:2555   */\n      dup2\n        /* \"#utility.yul\":2542:2551   */\n      dup5\n        /* \"#utility.yul\":2538:2556   */\n      add\n        /* \"#utility.yul\":2531:2565   */\n      mstore\n        /* \"#utility.yul\":2601:2604   */\n      0x80\n        /* \"#utility.yul\":2596:2598   */\n      0x40\n        /* \"#utility.yul\":2585:2594   */\n      dup5\n        /* \"#utility.yul\":2581:2599   */\n      add\n        /* \"#utility.yul\":2574:2605   */\n      mstore\n        /* \"#utility.yul\":2634:2640   */\n      dup5\n        /* \"#utility.yul\":2628:2641   */\n      mload\n        /* \"#utility.yul\":2678:2684   */\n      dup1\n        /* \"#utility.yul\":2672:2675   */\n      0x80\n        /* \"#utility.yul\":2661:2670   */\n      dup6\n        /* \"#utility.yul\":2657:2676   */\n      add\n        /* \"#utility.yul\":2650:2685   */\n      mstore\n        /* \"#utility.yul\":2703:2704   */\n      0x00\n        /* \"#utility.yul\":2713:2854   */\n    tag_190:\n        /* \"#utility.yul\":2727:2733   */\n      dup2\n        /* \"#utility.yul\":2724:2725   */\n      dup2\n        /* \"#utility.yul\":2721:2734   */\n      lt\n        /* \"#utility.yul\":2713:2854   */\n      iszero\n      tag_192\n      jumpi\n        /* \"#utility.yul\":2823:2837   */\n      dup7\n      dup2\n      add\n        /* \"#utility.yul\":2819:2842   */\n      dup4\n      add\n        /* \"#utility.yul\":2813:2843   */\n      mload\n        /* \"#utility.yul\":2788:2805   */\n      dup6\n      dup3\n      add\n        /* \"#utility.yul\":2807:2810   */\n      0xa0\n        /* \"#utility.yul\":2784:2811   */\n      add\n        /* \"#utility.yul\":2777:2844   */\n      mstore\n        /* \"#utility.yul\":2742:2752   */\n      dup3\n      add\n        /* \"#utility.yul\":2713:2854   */\n      jump(tag_190)\n    tag_192:\n        /* \"#utility.yul\":2872:2878   */\n      dup2\n        /* \"#utility.yul\":2869:2870   */\n      dup2\n        /* \"#utility.yul\":2866:2879   */\n      gt\n        /* \"#utility.yul\":2863:2955   */\n      iszero\n      tag_193\n      jumpi\n        /* \"#utility.yul\":2943:2944   */\n      0x00\n        /* \"#utility.yul\":2937:2940   */\n      0xa0\n        /* \"#utility.yul\":2928:2934   */\n      dup4\n        /* \"#utility.yul\":2917:2926   */\n      dup8\n        /* \"#utility.yul\":2913:2935   */\n      add\n        /* \"#utility.yul\":2909:2941   */\n      add\n        /* \"#utility.yul\":2902:2945   */\n      mstore\n        /* \"#utility.yul\":2863:2955   */\n    tag_193:\n      pop\n        /* \"#utility.yul\":3016:3018   */\n      0x1f\n        /* \"#utility.yul\":2995:3010   */\n      add\n      not(0x1f)\n        /* \"#utility.yul\":2991:3020   */\n      and\n        /* \"#utility.yul\":2976:3021   */\n      dup4\n      add\n        /* \"#utility.yul\":3023:3026   */\n      0xa0\n        /* \"#utility.yul\":2972:3027   */\n      add\n      swap2\n      pop\n        /* \"#utility.yul\":3036:3079   */\n      tag_194\n      swap1\n      pop\n        /* \"#utility.yul\":3075:3077   */\n      0x60\n        /* \"#utility.yul\":3060:3078   */\n      dup4\n      add\n        /* \"#utility.yul\":3052:3058   */\n      dup5\n        /* \"#utility.yul\":1766:1779   */\n      iszero\n        /* \"#utility.yul\":1759:1780   */\n      iszero\n        /* \"#utility.yul\":1747:1781   */\n      swap1\n      mstore\n        /* \"#utility.yul\":1696:1787   */\n      jump\n        /* \"#utility.yul\":3036:3079   */\n    tag_194:\n        /* \"#utility.yul\":2243:3085   */\n      swap6\n      swap5\n      pop\n      pop\n      pop\n      pop\n      pop\n      jump\t// out\n        /* \"#utility.yul\":3090:3422   */\n    tag_69:\n        /* \"#utility.yul\":3292:3294   */\n      0x20\n        /* \"#utility.yul\":3274:3295   */\n      dup1\n      dup3\n      mstore\n        /* \"#utility.yul\":3331:3332   */\n      0x09\n        /* \"#utility.yul\":3311:3329   */\n      swap1\n      dup3\n      add\n        /* \"#utility.yul\":3304:3333   */\n      mstore\n      shl(0xb9, 0x3737ba1037bbb732b9)\n        /* \"#utility.yul\":3364:3366   */\n      0x40\n        /* \"#utility.yul\":3349:3367   */\n      dup3\n      add\n        /* \"#utility.yul\":3342:3381   */\n      mstore\n        /* \"#utility.yul\":3413:3415   */\n      0x60\n        /* \"#utility.yul\":3398:3416   */\n      add\n      swap1\n        /* \"#utility.yul\":3090:3422   */\n      jump\t// out\n        /* \"#utility.yul\":3427:3554   */\n    tag_162:\n        /* \"#utility.yul\":3488:3498   */\n      0x4e487b71\n        /* \"#utility.yul\":3483:3486   */\n      0xe0\n        /* \"#utility.yul\":3479:3499   */\n      shl\n        /* \"#utility.yul\":3476:3477   */\n      0x00\n        /* \"#utility.yul\":3469:3500   */\n      mstore\n        /* \"#utility.yul\":3519:3523   */\n      0x41\n        /* \"#utility.yul\":3516:3517   */\n      0x04\n        /* \"#utility.yul\":3509:3524   */\n      mstore\n        /* \"#utility.yul\":3543:3547   */\n      0x24\n        /* \"#utility.yul\":3540:3541   */\n      0x00\n        /* \"#utility.yul\":3533:3548   */\n      revert\n        /* \"#utility.yul\":3559:3939   */\n    tag_98:\n        /* \"#utility.yul\":3638:3639   */\n      0x01\n        /* \"#utility.yul\":3634:3646   */\n      dup2\n      dup2\n      shr\n      swap1\n        /* \"#utility.yul\":3681:3693   */\n      dup3\n      and\n      dup1\n        /* \"#utility.yul\":3702:3763   */\n      tag_198\n      jumpi\n        /* \"#utility.yul\":3756:3760   */\n      0x7f\n        /* \"#utility.yul\":3748:3754   */\n      dup3\n        /* \"#utility.yul\":3744:3761   */\n      and\n        /* \"#utility.yul\":3734:3761   */\n      swap2\n      pop\n        /* \"#utility.yul\":3702:3763   */\n    tag_198:\n        /* \"#utility.yul\":3809:3811   */\n      0x20\n        /* \"#utility.yul\":3801:3807   */\n      dup3\n        /* \"#utility.yul\":3798:3812   */\n      lt\n        /* \"#utility.yul\":3778:3796   */\n      dup2\n        /* \"#utility.yul\":3775:3813   */\n      sub\n        /* \"#utility.yul\":3772:3933   */\n      tag_150\n      jumpi\n        /* \"#utility.yul\":3855:3865   */\n      0x4e487b71\n        /* \"#utility.yul\":3850:3853   */\n      0xe0\n        /* \"#utility.yul\":3846:3866   */\n      shl\n        /* \"#utility.yul\":3843:3844   */\n      0x00\n        /* \"#utility.yul\":3836:3867   */\n      mstore\n        /* \"#utility.yul\":3890:3894   */\n      0x22\n        /* \"#utility.yul\":3887:3888   */\n      0x04\n        /* \"#utility.yul\":3880:3895   */\n      mstore\n        /* \"#utility.yul\":3918:3922   */\n      0x24\n        /* \"#utility.yul\":3915:3916   */\n      0x00\n        /* \"#utility.yul\":3908:3923   */\n      revert\n        /* \"#utility.yul\":4069:4613   */\n    tag_164:\n        /* \"#utility.yul\":4170:4172   */\n      0x1f\n        /* \"#utility.yul\":4165:4168   */\n      dup3\n        /* \"#utility.yul\":4162:4173   */\n      gt\n        /* \"#utility.yul\":4159:4607   */\n      iszero\n      tag_202\n      jumpi\n        /* \"#utility.yul\":4206:4207   */\n      0x00\n        /* \"#utility.yul\":4231:4236   */\n      dup2\n        /* \"#utility.yul\":4227:4229   */\n      dup2\n        /* \"#utility.yul\":4220:4237   */\n      mstore\n        /* \"#utility.yul\":4276:4280   */\n      0x20\n        /* \"#utility.yul\":4272:4274   */\n      dup2\n        /* \"#utility.yul\":4262:4281   */\n      keccak256\n        /* \"#utility.yul\":4346:4348   */\n      0x1f\n        /* \"#utility.yul\":4334:4344   */\n      dup6\n        /* \"#utility.yul\":4330:4349   */\n      add\n        /* \"#utility.yul\":4327:4328   */\n      0x05\n        /* \"#utility.yul\":4323:4350   */\n      shr\n        /* \"#utility.yul\":4317:4321   */\n      dup2\n        /* \"#utility.yul\":4313:4351   */\n      add\n        /* \"#utility.yul\":4382:4386   */\n      0x20\n        /* \"#utility.yul\":4370:4380   */\n      dup7\n        /* \"#utility.yul\":4367:4387   */\n      lt\n        /* \"#utility.yul\":4364:4411   */\n      iszero\n      tag_203\n      jumpi\n      pop\n        /* \"#utility.yul\":4405:4409   */\n      dup1\n        /* \"#utility.yul\":4364:4411   */\n    tag_203:\n        /* \"#utility.yul\":4460:4462   */\n      0x1f\n        /* \"#utility.yul\":4455:4458   */\n      dup6\n        /* \"#utility.yul\":4451:4463   */\n      add\n        /* \"#utility.yul\":4448:4449   */\n      0x05\n        /* \"#utility.yul\":4444:4464   */\n      shr\n        /* \"#utility.yul\":4438:4442   */\n      dup3\n        /* \"#utility.yul\":4434:4465   */\n      add\n        /* \"#utility.yul\":4424:4465   */\n      swap2\n      pop\n        /* \"#utility.yul\":4515:4597   */\n    tag_204:\n        /* \"#utility.yul\":4533:4535   */\n      dup2\n        /* \"#utility.yul\":4526:4531   */\n      dup2\n        /* \"#utility.yul\":4523:4536   */\n      lt\n        /* \"#utility.yul\":4515:4597   */\n      iszero\n      tag_206\n      jumpi\n        /* \"#utility.yul\":4578:4595   */\n      dup3\n      dup2\n      sstore\n        /* \"#utility.yul\":4559:4560   */\n      0x01\n        /* \"#utility.yul\":4548:4561   */\n      add\n        /* \"#utility.yul\":4515:4597   */\n      jump(tag_204)\n    tag_206:\n        /* \"#utility.yul\":4519:4522   */\n      pop\n      pop\n      pop\n        /* \"#utility.yul\":4159:4607   */\n    tag_202:\n        /* \"#utility.yul\":4069:4613   */\n      pop\n      pop\n      pop\n      jump\t// out\n        /* \"#utility.yul\":4789:6137   */\n    tag_73:\n        /* \"#utility.yul\":4913:4916   */\n      dup2\n        /* \"#utility.yul\":4907:4917   */\n      mload\n        /* \"#utility.yul\":4940:4958   */\n      0xffffffffffffffff\n        /* \"#utility.yul\":4932:4938   */\n      dup2\n        /* \"#utility.yul\":4929:4959   */\n      gt\n        /* \"#utility.yul\":4926:4982   */\n      iszero\n      tag_210\n      jumpi\n        /* \"#utility.yul\":4962:4980   */\n      tag_210\n      tag_162\n      jump\t// in\n    tag_210:\n        /* \"#utility.yul\":4991:5087   */\n      tag_211\n        /* \"#utility.yul\":5080:5086   */\n      dup2\n        /* \"#utility.yul\":5040:5078   */\n      tag_212\n        /* \"#utility.yul\":5072:5076   */\n      dup5\n        /* \"#utility.yul\":5066:5077   */\n      sload\n        /* \"#utility.yul\":5040:5078   */\n      tag_98\n      jump\t// in\n    tag_212:\n        /* \"#utility.yul\":5034:5038   */\n      dup5\n        /* \"#utility.yul\":4991:5087   */\n      tag_164\n      jump\t// in\n    tag_211:\n        /* \"#utility.yul\":5142:5146   */\n      0x20\n      dup1\n        /* \"#utility.yul\":5206:5208   */\n      0x1f\n        /* \"#utility.yul\":5195:5209   */\n      dup4\n      gt\n        /* \"#utility.yul\":5223:5224   */\n      0x01\n        /* \"#utility.yul\":5218:5880   */\n      dup2\n      eq\n      tag_214\n      jumpi\n        /* \"#utility.yul\":5924:5925   */\n      0x00\n        /* \"#utility.yul\":5941:5947   */\n      dup5\n        /* \"#utility.yul\":5938:6027   */\n      iszero\n      tag_215\n      jumpi\n      pop\n        /* \"#utility.yul\":5993:6012   */\n      dup6\n      dup4\n      add\n        /* \"#utility.yul\":5987:6013   */\n      mload\n        /* \"#utility.yul\":5938:6027   */\n    tag_215:\n      not(0x00)\n        /* \"#utility.yul\":4746:4747   */\n      0x03\n        /* \"#utility.yul\":4742:4753   */\n      dup7\n      swap1\n      shl\n        /* \"#utility.yul\":4738:4762   */\n      shr\n        /* \"#utility.yul\":4734:4763   */\n      not\n        /* \"#utility.yul\":4724:4764   */\n      and\n        /* \"#utility.yul\":4770:4771   */\n      0x01\n        /* \"#utility.yul\":4766:4777   */\n      dup6\n      swap1\n      shl\n        /* \"#utility.yul\":4721:4778   */\n      or\n        /* \"#utility.yul\":6040:6121   */\n      dup6\n      sstore\n        /* \"#utility.yul\":5188:6131   */\n      jump(tag_206)\n        /* \"#utility.yul\":5218:5880   */\n    tag_214:\n        /* \"#utility.yul\":4016:4017   */\n      0x00\n        /* \"#utility.yul\":4009:4023   */\n      dup6\n      dup2\n      mstore\n        /* \"#utility.yul\":4053:4057   */\n      0x20\n        /* \"#utility.yul\":4040:4058   */\n      dup2\n      keccak256\n      not(0x1f)\n        /* \"#utility.yul\":5254:5274   */\n      dup7\n      and\n      swap2\n        /* \"#utility.yul\":5371:5607   */\n    tag_218:\n        /* \"#utility.yul\":5385:5392   */\n      dup3\n        /* \"#utility.yul\":5382:5383   */\n      dup2\n        /* \"#utility.yul\":5379:5393   */\n      lt\n        /* \"#utility.yul\":5371:5607   */\n      iszero\n      tag_220\n      jumpi\n        /* \"#utility.yul\":5474:5493   */\n      dup9\n      dup7\n      add\n        /* \"#utility.yul\":5468:5494   */\n      mload\n        /* \"#utility.yul\":5453:5495   */\n      dup3\n      sstore\n        /* \"#utility.yul\":5566:5593   */\n      swap5\n      dup5\n      add\n      swap5\n        /* \"#utility.yul\":5534:5535   */\n      0x01\n        /* \"#utility.yul\":5522:5536   */\n      swap1\n      swap2\n      add\n      swap1\n        /* \"#utility.yul\":5401:5420   */\n      dup5\n      add\n        /* \"#utility.yul\":5371:5607   */\n      jump(tag_218)\n    tag_220:\n        /* \"#utility.yul\":5375:5378   */\n      pop\n        /* \"#utility.yul\":5635:5641   */\n      dup6\n        /* \"#utility.yul\":5626:5633   */\n      dup3\n        /* \"#utility.yul\":5623:5642   */\n      lt\n        /* \"#utility.yul\":5620:5821   */\n      iszero\n      tag_221\n      jumpi\n        /* \"#utility.yul\":5696:5715   */\n      dup8\n      dup6\n      add\n        /* \"#utility.yul\":5690:5716   */\n      mload\n      not(0x00)\n        /* \"#utility.yul\":5779:5780   */\n      0x03\n        /* \"#utility.yul\":5775:5789   */\n      dup9\n      swap1\n      shl\n        /* \"#utility.yul\":5791:5794   */\n      0xf8\n        /* \"#utility.yul\":5771:5795   */\n      and\n        /* \"#utility.yul\":5767:5804   */\n      shr\n        /* \"#utility.yul\":5763:5805   */\n      not\n        /* \"#utility.yul\":5748:5806   */\n      and\n        /* \"#utility.yul\":5733:5807   */\n      dup2\n      sstore\n        /* \"#utility.yul\":5620:5821   */\n    tag_221:\n      pop\n      pop\n      pop\n      pop\n      pop\n        /* \"#utility.yul\":5867:5868   */\n      0x01\n        /* \"#utility.yul\":5851:5865   */\n      swap1\n      dup2\n      shl\n        /* \"#utility.yul\":5847:5869   */\n      add\n        /* \"#utility.yul\":5834:5870   */\n      swap1\n      sstore\n      pop\n        /* \"#utility.yul\":4789:6137   */\n      jump\t// out\n        /* \"#utility.yul\":6142:6269   */\n    tag_166:\n        /* \"#utility.yul\":6203:6213   */\n      0x4e487b71\n        /* \"#utility.yul\":6198:6201   */\n      0xe0\n        /* \"#utility.yul\":6194:6214   */\n      shl\n        /* \"#utility.yul\":6191:6192   */\n      0x00\n        /* \"#utility.yul\":6184:6215   */\n      mstore\n        /* \"#utility.yul\":6234:6238   */\n      0x11\n        /* \"#utility.yul\":6231:6232   */\n      0x04\n        /* \"#utility.yul\":6224:6239   */\n      mstore\n        /* \"#utility.yul\":6258:6262   */\n      0x24\n        /* \"#utility.yul\":6255:6256   */\n      0x00\n        /* \"#utility.yul\":6248:6263   */\n      revert\n        /* \"#utility.yul\":6274:6399   */\n    tag_75:\n        /* \"#utility.yul\":6314:6318   */\n      0x00\n        /* \"#utility.yul\":6342:6343   */\n      dup3\n        /* \"#utility.yul\":6339:6340   */\n      dup3\n        /* \"#utility.yul\":6336:6344   */\n      lt\n        /* \"#utility.yul\":6333:6367   */\n      iszero\n      tag_225\n      jumpi\n        /* \"#utility.yul\":6347:6365   */\n      tag_225\n      tag_166\n      jump\t// in\n    tag_225:\n      pop\n        /* \"#utility.yul\":6384:6393   */\n      sub\n      swap1\n        /* \"#utility.yul\":6274:6399   */\n      jump\t// out\n        /* \"#utility.yul\":6404:6745   */\n    tag_82:\n        /* \"#utility.yul\":6606:6608   */\n      0x20\n        /* \"#utility.yul\":6588:6609   */\n      dup1\n      dup3\n      mstore\n        /* \"#utility.yul\":6645:6647   */\n      0x11\n        /* \"#utility.yul\":6625:6643   */\n      swap1\n      dup3\n      add\n        /* \"#utility.yul\":6618:6648   */\n      mstore\n      shl(0x7a, 0x1d1e08191bd95cc81b9bdd08195e1a5cdd)\n        /* \"#utility.yul\":6679:6681   */\n      0x40\n        /* \"#utility.yul\":6664:6682   */\n      dup3\n      add\n        /* \"#utility.yul\":6657:6704   */\n      mstore\n        /* \"#utility.yul\":6736:6738   */\n      0x60\n        /* \"#utility.yul\":6721:6739   */\n      add\n      swap1\n        /* \"#utility.yul\":6404:6745   */\n      jump\t// out\n        /* \"#utility.yul\":6750:6877   */\n    tag_86:\n        /* \"#utility.yul\":6811:6821   */\n      0x4e487b71\n        /* \"#utility.yul\":6806:6809   */\n      0xe0\n        /* \"#utility.yul\":6802:6822   */\n      shl\n        /* \"#utility.yul\":6799:6800   */\n      0x00\n        /* \"#utility.yul\":6792:6823   */\n      mstore\n        /* \"#utility.yul\":6842:6846   */\n      0x32\n        /* \"#utility.yul\":6839:6840   */\n      0x04\n        /* \"#utility.yul\":6832:6847   */\n      mstore\n        /* \"#utility.yul\":6866:6870   */\n      0x24\n        /* \"#utility.yul\":6863:6864   */\n      0x00\n        /* \"#utility.yul\":6856:6871   */\n      revert\n        /* \"#utility.yul\":6882:7225   */\n    tag_90:\n        /* \"#utility.yul\":7084:7086   */\n      0x20\n        /* \"#utility.yul\":7066:7087   */\n      dup1\n      dup3\n      mstore\n        /* \"#utility.yul\":7123:7125   */\n      0x13\n        /* \"#utility.yul\":7103:7121   */\n      swap1\n      dup3\n      add\n        /* \"#utility.yul\":7096:7126   */\n      mstore\n      shl(0x6a, 0x1d1e08185b1c9958591e48195e1958dd5d1959)\n        /* \"#utility.yul\":7157:7159   */\n      0x40\n        /* \"#utility.yul\":7142:7160   */\n      dup3\n      add\n        /* \"#utility.yul\":7135:7184   */\n      mstore\n        /* \"#utility.yul\":7216:7218   */\n      0x60\n        /* \"#utility.yul\":7201:7219   */\n      add\n      swap1\n        /* \"#utility.yul\":6882:7225   */\n      jump\t// out\n        /* \"#utility.yul\":7923:8763   */\n    tag_141:\n        /* \"#utility.yul\":8049:8052   */\n      0x00\n        /* \"#utility.yul\":8078:8079   */\n      dup1\n        /* \"#utility.yul\":8111:8117   */\n      dup4\n        /* \"#utility.yul\":8105:8118   */\n      sload\n        /* \"#utility.yul\":8141:8177   */\n      tag_232\n        /* \"#utility.yul\":8167:8176   */\n      dup2\n        /* \"#utility.yul\":8141:8177   */\n      tag_98\n      jump\t// in\n    tag_232:\n        /* \"#utility.yul\":8196:8197   */\n      0x01\n        /* \"#utility.yul\":8213:8231   */\n      dup3\n      dup2\n      and\n        /* \"#utility.yul\":8240:8373   */\n      dup1\n      iszero\n      tag_234\n      jumpi\n        /* \"#utility.yul\":8387:8388   */\n      0x01\n        /* \"#utility.yul\":8382:8738   */\n      dup2\n      eq\n      tag_235\n      jumpi\n        /* \"#utility.yul\":8206:8738   */\n      jump(tag_233)\n        /* \"#utility.yul\":8240:8373   */\n    tag_234:\n      not(0xff)\n        /* \"#utility.yul\":8273:8297   */\n      dup5\n      and\n        /* \"#utility.yul\":8261:8298   */\n      dup8\n      mstore\n        /* \"#utility.yul\":8346:8360   */\n      dup3\n      iszero\n        /* \"#utility.yul\":8339:8361   */\n      iszero\n        /* \"#utility.yul\":8327:8362   */\n      dup4\n      mul\n        /* \"#utility.yul\":8318:8363   */\n      dup8\n      add\n      swap5\n      pop\n        /* \"#utility.yul\":8240:8373   */\n      jump(tag_233)\n        /* \"#utility.yul\":8382:8738   */\n    tag_235:\n        /* \"#utility.yul\":8413:8419   */\n      dup8\n        /* \"#utility.yul\":8410:8411   */\n      0x00\n        /* \"#utility.yul\":8403:8420   */\n      mstore\n        /* \"#utility.yul\":8443:8447   */\n      0x20\n        /* \"#utility.yul\":8488:8490   */\n      dup1\n        /* \"#utility.yul\":8485:8486   */\n      0x00\n        /* \"#utility.yul\":8475:8491   */\n      keccak256\n        /* \"#utility.yul\":8513:8514   */\n      0x00\n        /* \"#utility.yul\":8527:8692   */\n    tag_236:\n        /* \"#utility.yul\":8541:8547   */\n      dup6\n        /* \"#utility.yul\":8538:8539   */\n      dup2\n        /* \"#utility.yul\":8535:8548   */\n      lt\n        /* \"#utility.yul\":8527:8692   */\n      iszero\n      tag_238\n      jumpi\n        /* \"#utility.yul\":8619:8633   */\n      dup2\n      sload\n        /* \"#utility.yul\":8606:8617   */\n      dup11\n      dup3\n      add\n        /* \"#utility.yul\":8599:8634   */\n      mstore\n        /* \"#utility.yul\":8662:8678   */\n      swap1\n      dup5\n      add\n      swap1\n        /* \"#utility.yul\":8556:8566   */\n      dup3\n      add\n        /* \"#utility.yul\":8527:8692   */\n      jump(tag_236)\n    tag_238:\n        /* \"#utility.yul\":8531:8534   */\n      pop\n      pop\n      pop\n        /* \"#utility.yul\":8721:8727   */\n      dup3\n        /* \"#utility.yul\":8716:8719   */\n      dup8\n        /* \"#utility.yul\":8712:8728   */\n      add\n        /* \"#utility.yul\":8705:8728   */\n      swap5\n      pop\n        /* \"#utility.yul\":8206:8738   */\n    tag_233:\n      pop\n        /* \"#utility.yul\":8754:8757   */\n      swap3\n      swap7\n        /* \"#utility.yul\":7923:8763   */\n      swap6\n      pop\n      pop\n      pop\n      pop\n      pop\n      pop\n      jump\t// out\n        /* \"#utility.yul\":9105:9233   */\n    tag_157:\n        /* \"#utility.yul\":9145:9148   */\n      0x00\n        /* \"#utility.yul\":9176:9177   */\n      dup3\n        /* \"#utility.yul\":9172:9178   */\n      not\n        /* \"#utility.yul\":9169:9170   */\n      dup3\n        /* \"#utility.yul\":9166:9179   */\n      gt\n        /* \"#utility.yul\":9163:9202   */\n      iszero\n      tag_242\n      jumpi\n        /* \"#utility.yul\":9182:9200   */\n      tag_242\n      tag_166\n      jump\t// in\n    tag_242:\n      pop\n        /* \"#utility.yul\":9218:9227   */\n      add\n      swap1\n        /* \"#utility.yul\":9105:9233   */\n      jump\t// out\n        /* \"#utility.yul\":9238:9373   */\n    tag_159:\n        /* \"#utility.yul\":9277:9280   */\n      0x00\n        /* \"#utility.yul\":9298:9315   */\n      0x01\n      dup3\n      add\n        /* \"#utility.yul\":9295:9338   */\n      tag_245\n      jumpi\n        /* \"#utility.yul\":9318:9336   */\n      tag_245\n      tag_166\n      jump\t// in\n    tag_245:\n      pop\n        /* \"#utility.yul\":9365:9366   */\n      0x01\n        /* \"#utility.yul\":9354:9367   */\n      add\n      swap1\n        /* \"#utility.yul\":9238:9373   */\n      jump\t// out\n\n    auxdata: 0xa2646970667358221220f4aed29df1f5c8639153f76ccbae3b8d67bb44a034e0e2047ebbae59c4eb877e64736f6c634300080f0033\n}\n",
				"bytecode": {
					"linkReferences": {},
					"object": "60806040523480156200001157600080fd5b506040516200116c3803806200116c833981016040819052620000349162000265565b60008251116200007d5760405162461bcd60e51b815260206004820152600f60248201526e1bdddb995c9cc81c995c5d5a5c9959608a1b60448201526064015b60405180910390fd5b6000811180156200008f575081518111155b620000cf5760405162461bcd60e51b815260206004820152600f60248201526e195c9c9bdc881b195b99dd1a195cdd608a1b604482015260640162000074565b60005b825181101562000227576000838281518110620000f357620000f36200033f565b6020026020010151905060006001600160a01b0316816001600160a01b031603620001475760405162461bcd60e51b81526020600482015260036024820152620213d360ec1b604482015260640162000074565b6001600160a01b03811660009081526001602052604090205460ff1615620001b25760405162461bcd60e51b815260206004820152601360248201527f6f776e6572206973206e6f7420756e6971756500000000000000000000000000604482015260640162000074565b6001600160a01b031660008181526001602081905260408220805460ff191682179055815490810182559080527f290decd9548b62a8d60345a988386fc84ba6bc95484008f6362f93160ef3e5630180546001600160a01b0319169091179055806200021e8162000355565b915050620000d2565b50600255506200037d565b634e487b7160e01b600052604160045260246000fd5b80516001600160a01b03811681146200026057600080fd5b919050565b600080604083850312156200027957600080fd5b82516001600160401b03808211156200029157600080fd5b818501915085601f830112620002a657600080fd5b8151602082821115620002bd57620002bd62000232565b8160051b604051601f19603f83011681018181108682111715620002e557620002e562000232565b6040529283528183019350848101820192898411156200030457600080fd5b948201945b838610156200032d576200031d8662000248565b8552948201949382019362000309565b97909101519698969750505050505050565b634e487b7160e01b600052603260045260246000fd5b6000600182016200037657634e487b7160e01b600052601160045260246000fd5b5060010190565b610ddf806200038d6000396000f3fe60806040526004361061008a5760003560e01c80638253951a116100595780638253951a1461018a5780639ace38c2146101c5578063b759f954146101f5578063d3ecebd714610215578063dc8452cd1461023557600080fd5b8063025e7c27146100cb57806314de327f1461010857806320c5429b1461012a5780632f54bf6e1461014a57600080fd5b366100c65760405134815233907fe1fffcc4923d04b559f4d29a8bfc6cda04eb5b0d3c460751c2402c5c5cc9109c9060200160405180910390a2005b600080fd5b3480156100d757600080fd5b506100eb6100e6366004610965565b610259565b6040516001600160a01b0390911681526020015b60405180910390f35b34801561011457600080fd5b5061012861012336600461099a565b610283565b005b34801561013657600080fd5b50610128610145366004610965565b6103cc565b34801561015657600080fd5b5061017a610165366004610a21565b60016020526000908152604090205460ff1681565b60405190151581526020016100ff565b34801561019657600080fd5b5061017a6101a5366004610a43565b600460209081526000928352604080842090915290825290205460ff1681565b3480156101d157600080fd5b506101e56101e0366004610965565b61050e565b6040516100ff9493929190610a6f565b34801561020157600080fd5b50610128610210366004610965565b6105e0565b34801561022157600080fd5b50610128610230366004610965565b610713565b34801561024157600080fd5b5061024b60025481565b6040519081526020016100ff565b6000818154811061026957600080fd5b6000918252602090912001546001600160a01b0316905081565b3360009081526001602052604090205460ff166102bb5760405162461bcd60e51b81526004016102b290610aeb565b60405180910390fd5b60036040518060800160405280866001600160a01b0316815260200185815260200184848080601f0160208091040260200160405190810160405280939291908181526020018383808284376000920182905250938552505050602091820181905283546001808201865594825290829020835160049092020180546001600160a01b0319166001600160a01b039092169190911781559082015192810192909255604081015190919060028201906103749082610ba7565b50606091909101516003918201805460ff19169115159190911790555461039d90600190610c7d565b6040517f08324b3d745b914e3abd4ffbfead91e3b78391a98c173202129215ab933adfbe90600090a250505050565b3360009081526001602052604090205460ff166103fb5760405162461bcd60e51b81526004016102b290610aeb565b6003548190811061041e5760405162461bcd60e51b81526004016102b290610c94565b816003818154811061043257610432610cbf565b600091825260209091206003600490920201015460ff16156104665760405162461bcd60e51b81526004016102b290610cd5565b600083815260046020908152604080832033845290915290205460ff166104c15760405162461bcd60e51b815260206004820152600f60248201526e1d1e081b9bdd08185c1c1c9bdd9959608a1b60448201526064016102b2565b6000838152600460209081526040808320338085529252808320805460ff191690555185927fec9ab91322523c899ede7830ec9bfc992b5981cdcc27b91162fb23de5791117b91a3505050565b6003818154811061051e57600080fd5b60009182526020909120600490910201805460018201546002830180546001600160a01b03909316945090929161055490610b24565b80601f016020809104026020016040519081016040528092919081815260200182805461058090610b24565b80156105cd5780601f106105a2576101008083540402835291602001916105cd565b820191906000526020600020905b8154815290600101906020018083116105b057829003601f168201915b5050506003909301549192505060ff1684565b3360009081526001602052604090205460ff1661060f5760405162461bcd60e51b81526004016102b290610aeb565b600354819081106106325760405162461bcd60e51b81526004016102b290610c94565b816003818154811061064657610646610cbf565b600091825260209091206003600490920201015460ff161561067a5760405162461bcd60e51b81526004016102b290610cd5565b826003818154811061068e5761068e610cbf565b600091825260209091206003600490920201015460ff16156106c25760405162461bcd60e51b81526004016102b290610cd5565b6000848152600460209081526040808320338085529252808320805460ff191660011790555186927f90ec57f18fa7b15c6b8d5e4d1deb90796c74b2ff23d4d0cecad0cb42a96b312891a350505050565b600354819081106107365760405162461bcd60e51b81526004016102b290610c94565b816003818154811061074a5761074a610cbf565b600091825260209091206003600490920201015460ff161561077e5760405162461bcd60e51b81526004016102b290610cd5565b60025461078a846108dd565b10156107cf5760405162461bcd60e51b8152602060048201526014602482015273185c1c1c9bdd985b1cc80f081c995c5d5a5c995960621b60448201526064016102b2565b6000600384815481106107e4576107e4610cbf565b6000918252602082206003600490920201908101805460ff191660019081179091558154908201546040519294506001600160a01b039091169161082c906002860190610d02565b60006040518083038185875af1925050503d8060008114610869576040519150601f19603f3d011682016040523d82523d6000602084013e61086e565b606091505b50509050806108ab5760405162461bcd60e51b81526020600482015260096024820152681d1e0819985a5b195960ba1b60448201526064016102b2565b60405185907fddb556f1d2c1ec821e910b019d3685b229db152a0ecd517ca7e24b8bd713928990600090a25050505050565b6000805b60005481101561095f5760046000848152602001908152602001600020600080838154811061091257610912610cbf565b60009182526020808320909101546001600160a01b0316835282019290925260400190205460ff161561094d5761094a600183610d78565b91505b8061095781610d90565b9150506108e1565b50919050565b60006020828403121561097757600080fd5b5035919050565b80356001600160a01b038116811461099557600080fd5b919050565b600080600080606085870312156109b057600080fd5b6109b98561097e565b935060208501359250604085013567ffffffffffffffff808211156109dd57600080fd5b818701915087601f8301126109f157600080fd5b813581811115610a0057600080fd5b886020828501011115610a1257600080fd5b95989497505060200194505050565b600060208284031215610a3357600080fd5b610a3c8261097e565b9392505050565b60008060408385031215610a5657600080fd5b82359150610a666020840161097e565b90509250929050565b60018060a01b038516815260006020858184015260806040840152845180608085015260005b81811015610ab15786810183015185820160a001528201610a95565b81811115610ac357600060a083870101525b50601f01601f1916830160a0019150610ae29050606083018415159052565b95945050505050565b6020808252600990820152683737ba1037bbb732b960b91b604082015260600190565b634e487b7160e01b600052604160045260246000fd5b600181811c90821680610b3857607f821691505b60208210810361095f57634e487b7160e01b600052602260045260246000fd5b601f821115610ba257600081815260208120601f850160051c81016020861015610b7f5750805b601f850160051c820191505b81811015610b9e57828155600101610b8b565b5050505b505050565b815167ffffffffffffffff811115610bc157610bc1610b0e565b610bd581610bcf8454610b24565b84610b58565b602080601f831160018114610c0a5760008415610bf25750858301515b600019600386901b1c1916600185901b178555610b9e565b600085815260208120601f198616915b82811015610c3957888601518255948401946001909101908401610c1a565b5085821015610c575787850151600019600388901b60f8161c191681555b5050505050600190811b01905550565b634e487b7160e01b600052601160045260246000fd5b600082821015610c8f57610c8f610c67565b500390565b6020808252601190820152701d1e08191bd95cc81b9bdd08195e1a5cdd607a1b604082015260600190565b634e487b7160e01b600052603260045260246000fd5b6020808252601390820152721d1e08185b1c9958591e48195e1958dd5d1959606a1b604082015260600190565b6000808354610d1081610b24565b60018281168015610d285760018114610d3d57610d6c565b60ff1984168752821515830287019450610d6c565b8760005260208060002060005b85811015610d635781548a820152908401908201610d4a565b50505082870194505b50929695505050505050565b60008219821115610d8b57610d8b610c67565b500190565b600060018201610da257610da2610c67565b506001019056fea2646970667358221220f4aed29df1f5c8639153f76ccbae3b8d67bb44a034e0e2047ebbae59c4eb877e64736f6c634300080f0033",
					"opcodes": "PUSH1 0x80 PUSH1 0x40 MSTORE CALLVALUE DUP1 ISZERO PUSH3 0x11 JUMPI PUSH1 0x0 DUP1 REVERT JUMPDEST POP PUSH1 0x40 MLOAD PUSH3 0x116C CODESIZE SUB DUP1 PUSH3 0x116C DUP4 CODECOPY DUP2 ADD PUSH1 0x40 DUP2 SWAP1 MSTORE PUSH3 0x34 SWAP2 PUSH3 0x265 JUMP JUMPDEST PUSH1 0x0 DUP3 MLOAD GT PUSH3 0x7D JUMPI PUSH1 0x40 MLOAD PUSH3 0x461BCD PUSH1 0xE5 SHL DUP2 MSTORE PUSH1 0x20 PUSH1 0x4 DUP3 ADD MSTORE PUSH1 0xF PUSH1 0x24 DUP3 ADD MSTORE PUSH15 0x1BDDDB995C9CC81C995C5D5A5C9959 PUSH1 0x8A SHL PUSH1 0x44 DUP3 ADD MSTORE PUSH1 0x64 ADD JUMPDEST PUSH1 0x40 MLOAD DUP1 SWAP2 SUB SWAP1 REVERT JUMPDEST PUSH1 0x0 DUP2 GT DUP1 ISZERO PUSH3 0x8F JUMPI POP DUP2 MLOAD DUP2 GT ISZERO JUMPDEST PUSH3 0xCF JUMPI PUSH1 0x40 MLOAD PUSH3 0x461BCD PUSH1 0xE5 SHL DUP2 MSTORE PUSH1 0x20 PUSH1 0x4 DUP3 ADD MSTORE PUSH1 0xF PUSH1 0x24 DUP3 ADD MSTORE PUSH15 0x195C9C9BDC881B195B99DD1A195CDD PUSH1 0x8A SHL PUSH1 0x44 DUP3 ADD MSTORE PUSH1 0x64 ADD PUSH3 0x74 JUMP JUMPDEST PUSH1 0x0 JUMPDEST DUP3 MLOAD DUP2 LT ISZERO PUSH3 0x227 JUMPI PUSH1 0x0 DUP4 DUP3 DUP2 MLOAD DUP2 LT PUSH3 0xF3 JUMPI PUSH3 0xF3 PUSH3 0x33F JUMP JUMPDEST PUSH1 0x20 MUL PUSH1 0x20 ADD ADD MLOAD SWAP1 POP PUSH1 0x0 PUSH1 0x1 PUSH1 0x1 PUSH1 0xA0 SHL SUB AND DUP2 PUSH1 0x1 PUSH1 0x1 PUSH1 0xA0 SHL SUB AND SUB PUSH3 0x147 JUMPI PUSH1 0x40 MLOAD PUSH3 0x461BCD PUSH1 0xE5 SHL DUP2 MSTORE PUSH1 0x20 PUSH1 0x4 DUP3 ADD MSTORE PUSH1 0x3 PUSH1 0x24 DUP3 ADD MSTORE PUSH3 0x213D3 PUSH1 0xEC SHL PUSH1 0x44 DUP3 ADD MSTORE PUSH1 0x64 ADD PUSH3 0x74 JUMP JUMPDEST PUSH1 0x1 PUSH1 0x1 PUSH1 0xA0 SHL SUB DUP2 AND PUSH1 0x0 SWAP1 DUP2 MSTORE PUSH1 0x1 PUSH1 0x20 MSTORE PUSH1 0x40 SWAP1 KECCAK256 SLOAD PUSH1 0xFF AND ISZERO PUSH3 0x1B2 JUMPI PUSH1 0x40 MLOAD PUSH3 0x461BCD PUSH1 0xE5 SHL DUP2 MSTORE PUSH1 0x20 PUSH1 0x4 DUP3 ADD MSTORE PUSH1 0x13 PUSH1 0x24 DUP3 ADD MSTORE PUSH32 0x6F776E6572206973206E6F7420756E6971756500000000000000000000000000 PUSH1 0x44 DUP3 ADD MSTORE PUSH1 0x64 ADD PUSH3 0x74 JUMP JUMPDEST PUSH1 0x1 PUSH1 0x1 PUSH1 0xA0 SHL SUB AND PUSH1 0x0 DUP2 DUP2 MSTORE PUSH1 0x1 PUSH1 0x20 DUP2 SWAP1 MSTORE PUSH1 0x40 DUP3 KECCAK256 DUP1 SLOAD PUSH1 0xFF NOT AND DUP3 OR SWAP1 SSTORE DUP2 SLOAD SWAP1 DUP2 ADD DUP3 SSTORE SWAP1 DUP1 MSTORE PUSH32 0x290DECD9548B62A8D60345A988386FC84BA6BC95484008F6362F93160EF3E563 ADD DUP1 SLOAD PUSH1 0x1 PUSH1 0x1 PUSH1 0xA0 SHL SUB NOT AND SWAP1 SWAP2 OR SWAP1 SSTORE DUP1 PUSH3 0x21E DUP2 PUSH3 0x355 JUMP JUMPDEST SWAP2 POP POP PUSH3 0xD2 JUMP JUMPDEST POP PUSH1 0x2 SSTORE POP PUSH3 0x37D JUMP JUMPDEST PUSH4 0x4E487B71 PUSH1 0xE0 SHL PUSH1 0x0 MSTORE PUSH1 0x41 PUSH1 0x4 MSTORE PUSH1 0x24 PUSH1 0x0 REVERT JUMPDEST DUP1 MLOAD PUSH1 0x1 PUSH1 0x1 PUSH1 0xA0 SHL SUB DUP2 AND DUP2 EQ PUSH3 0x260 JUMPI PUSH1 0x0 DUP1 REVERT JUMPDEST SWAP2 SWAP1 POP JUMP JUMPDEST PUSH1 0x0 DUP1 PUSH1 0x40 DUP4 DUP6 SUB SLT ISZERO PUSH3 0x279 JUMPI PUSH1 0x0 DUP1 REVERT JUMPDEST DUP3 MLOAD PUSH1 0x1 PUSH1 0x1 PUSH1 0x40 SHL SUB DUP1 DUP3 GT ISZERO PUSH3 0x291 JUMPI PUSH1 0x0 DUP1 REVERT JUMPDEST DUP2 DUP6 ADD SWAP2 POP DUP6 PUSH1 0x1F DUP4 ADD SLT PUSH3 0x2A6 JUMPI PUSH1 0x0 DUP1 REVERT JUMPDEST DUP2 MLOAD PUSH1 0x20 DUP3 DUP3 GT ISZERO PUSH3 0x2BD JUMPI PUSH3 0x2BD PUSH3 0x232 JUMP JUMPDEST DUP2 PUSH1 0x5 SHL PUSH1 0x40 MLOAD PUSH1 0x1F NOT PUSH1 0x3F DUP4 ADD AND DUP2 ADD DUP2 DUP2 LT DUP7 DUP3 GT OR ISZERO PUSH3 0x2E5 JUMPI PUSH3 0x2E5 PUSH3 0x232 JUMP JUMPDEST PUSH1 0x40 MSTORE SWAP3 DUP4 MSTORE DUP2 DUP4 ADD SWAP4 POP DUP5 DUP2 ADD DUP3 ADD SWAP3 DUP10 DUP5 GT ISZERO PUSH3 0x304 JUMPI PUSH1 0x0 DUP1 REVERT JUMPDEST SWAP5 DUP3 ADD SWAP5 JUMPDEST DUP4 DUP7 LT ISZERO PUSH3 0x32D JUMPI PUSH3 0x31D DUP7 PUSH3 0x248 JUMP JUMPDEST DUP6 MSTORE SWAP5 DUP3 ADD SWAP5 SWAP4 DUP3 ADD SWAP4 PUSH3 0x309 JUMP JUMPDEST SWAP8 SWAP1 SWAP2 ADD MLOAD SWAP7 SWAP9 SWAP7 SWAP8 POP POP POP POP POP POP POP JUMP JUMPDEST PUSH4 0x4E487B71 PUSH1 0xE0 SHL PUSH1 0x0 MSTORE PUSH1 0x32 PUSH1 0x4 MSTORE PUSH1 0x24 PUSH1 0x0 REVERT JUMPDEST PUSH1 0x0 PUSH1 0x1 DUP3 ADD PUSH3 0x376 JUMPI PUSH4 0x4E487B71 PUSH1 0xE0 SHL PUSH1 0x0 MSTORE PUSH1 0x11 PUSH1 0x4 MSTORE PUSH1 0x24 PUSH1 0x0 REVERT JUMPDEST POP PUSH1 0x1 ADD SWAP1 JUMP JUMPDEST PUSH2 0xDDF DUP1 PUSH3 0x38D PUSH1 0x0 CODECOPY PUSH1 0x0 RETURN INVALID PUSH1 0x80 PUSH1 0x40 MSTORE PUSH1 0x4 CALLDATASIZE LT PUSH2 0x8A JUMPI PUSH1 0x0 CALLDATALOAD PUSH1 0xE0 SHR DUP1 PUSH4 0x8253951A GT PUSH2 0x59 JUMPI DUP1 PUSH4 0x8253951A EQ PUSH2 0x18A JUMPI DUP1 PUSH4 0x9ACE38C2 EQ PUSH2 0x1C5 JUMPI DUP1 PUSH4 0xB759F954 EQ PUSH2 0x1F5 JUMPI DUP1 PUSH4 0xD3ECEBD7 EQ PUSH2 0x215 JUMPI DUP1 PUSH4 0xDC8452CD EQ PUSH2 0x235 JUMPI PUSH1 0x0 DUP1 REVERT JUMPDEST DUP1 PUSH4 0x25E7C27 EQ PUSH2 0xCB JUMPI DUP1 PUSH4 0x14DE327F EQ PUSH2 0x108 JUMPI DUP1 PUSH4 0x20C5429B EQ PUSH2 0x12A JUMPI DUP1 PUSH4 0x2F54BF6E EQ PUSH2 0x14A JUMPI PUSH1 0x0 DUP1 REVERT JUMPDEST CALLDATASIZE PUSH2 0xC6 JUMPI PUSH1 0x40 MLOAD CALLVALUE DUP2 MSTORE CALLER SWAP1 PUSH32 0xE1FFFCC4923D04B559F4D29A8BFC6CDA04EB5B0D3C460751C2402C5C5CC9109C SWAP1 PUSH1 0x20 ADD PUSH1 0x40 MLOAD DUP1 SWAP2 SUB SWAP1 LOG2 STOP JUMPDEST PUSH1 0x0 DUP1 REVERT JUMPDEST CALLVALUE DUP1 ISZERO PUSH2 0xD7 JUMPI PUSH1 0x0 DUP1 REVERT JUMPDEST POP PUSH2 0xEB PUSH2 0xE6 CALLDATASIZE PUSH1 0x4 PUSH2 0x965 JUMP JUMPDEST PUSH2 0x259 JUMP JUMPDEST PUSH1 0x40 MLOAD PUSH1 0x1 PUSH1 0x1 PUSH1 0xA0 SHL SUB SWAP1 SWAP2 AND DUP2 MSTORE PUSH1 0x20 ADD JUMPDEST PUSH1 0x40 MLOAD DUP1 SWAP2 SUB SWAP1 RETURN JUMPDEST CALLVALUE DUP1 ISZERO PUSH2 0x114 JUMPI PUSH1 0x0 DUP1 REVERT JUMPDEST POP PUSH2 0x128 PUSH2 0x123 CALLDATASIZE PUSH1 0x4 PUSH2 0x99A JUMP JUMPDEST PUSH2 0x283 JUMP JUMPDEST STOP JUMPDEST CALLVALUE DUP1 ISZERO PUSH2 0x136 JUMPI PUSH1 0x0 DUP1 REVERT JUMPDEST POP PUSH2 0x128 PUSH2 0x145 CALLDATASIZE PUSH1 0x4 PUSH2 0x965 JUMP JUMPDEST PUSH2 0x3CC JUMP JUMPDEST CALLVALUE DUP1 ISZERO PUSH2 0x156 JUMPI PUSH1 0x0 DUP1 REVERT JUMPDEST POP PUSH2 0x17A PUSH2 0x165 CALLDATASIZE PUSH1 0x4 PUSH2 0xA21 JUMP JUMPDEST PUSH1 0x1 PUSH1 0x20 MSTORE PUSH1 0x0 SWAP1 DUP2 MSTORE PUSH1 0x40 SWAP1 KECCAK256 SLOAD PUSH1 0xFF AND DUP2 JUMP JUMPDEST PUSH1 0x40 MLOAD SWAP1 ISZERO ISZERO DUP2 MSTORE PUSH1 0x20 ADD PUSH2 0xFF JUMP JUMPDEST CALLVALUE DUP1 ISZERO PUSH2 0x196 JUMPI PUSH1 0x0 DUP1 REVERT JUMPDEST POP PUSH2 0x17A PUSH2 0x1A5 CALLDATASIZE PUSH1 0x4 PUSH2 0xA43 JUMP JUMPDEST PUSH1 0x4 PUSH1 0x20 SWAP1 DUP2 MSTORE PUSH1 0x0 SWAP3 DUP4 MSTORE PUSH1 0x40 DUP1 DUP5 KECCAK256 SWAP1 SWAP2 MSTORE SWAP1 DUP3 MSTORE SWAP1 KECCAK256 SLOAD PUSH1 0xFF AND DUP2 JUMP JUMPDEST CALLVALUE DUP1 ISZERO PUSH2 0x1D1 JUMPI PUSH1 0x0 DUP1 REVERT JUMPDEST POP PUSH2 0x1E5 PUSH2 0x1E0 CALLDATASIZE PUSH1 0x4 PUSH2 0x965 JUMP JUMPDEST PUSH2 0x50E JUMP JUMPDEST PUSH1 0x40 MLOAD PUSH2 0xFF SWAP5 SWAP4 SWAP3 SWAP2 SWAP1 PUSH2 0xA6F JUMP JUMPDEST CALLVALUE DUP1 ISZERO PUSH2 0x201 JUMPI PUSH1 0x0 DUP1 REVERT JUMPDEST POP PUSH2 0x128 PUSH2 0x210 CALLDATASIZE PUSH1 0x4 PUSH2 0x965 JUMP JUMPDEST PUSH2 0x5E0 JUMP JUMPDEST CALLVALUE DUP1 ISZERO PUSH2 0x221 JUMPI PUSH1 0x0 DUP1 REVERT JUMPDEST POP PUSH2 0x128 PUSH2 0x230 CALLDATASIZE PUSH1 0x4 PUSH2 0x965 JUMP JUMPDEST PUSH2 0x713 JUMP JUMPDEST CALLVALUE DUP1 ISZERO PUSH2 0x241 JUMPI PUSH1 0x0 DUP1 REVERT JUMPDEST POP PUSH2 0x24B PUSH1 0x2 SLOAD DUP2 JUMP JUMPDEST PUSH1 0x40 MLOAD SWAP1 DUP2 MSTORE PUSH1 0x20 ADD PUSH2 0xFF JUMP JUMPDEST PUSH1 0x0 DUP2 DUP2 SLOAD DUP2 LT PUSH2 0x269 JUMPI PUSH1 0x0 DUP1 REVERT JUMPDEST PUSH1 0x0 SWAP2 DUP3 MSTORE PUSH1 0x20 SWAP1 SWAP2 KECCAK256 ADD SLOAD PUSH1 0x1 PUSH1 0x1 PUSH1 0xA0 SHL SUB AND SWAP1 POP DUP2 JUMP JUMPDEST CALLER PUSH1 0x0 SWAP1 DUP2 MSTORE PUSH1 0x1 PUSH1 0x20 MSTORE PUSH1 0x40 SWAP1 KECCAK256 SLOAD PUSH1 0xFF AND PUSH2 0x2BB JUMPI PUSH1 0x40 MLOAD PUSH3 0x461BCD PUSH1 0xE5 SHL DUP2 MSTORE PUSH1 0x4 ADD PUSH2 0x2B2 SWAP1 PUSH2 0xAEB JUMP JUMPDEST PUSH1 0x40 MLOAD DUP1 SWAP2 SUB SWAP1 REVERT JUMPDEST PUSH1 0x3 PUSH1 0x40 MLOAD DUP1 PUSH1 0x80 ADD PUSH1 0x40 MSTORE DUP1 DUP7 PUSH1 0x1 PUSH1 0x1 PUSH1 0xA0 SHL SUB AND DUP2 MSTORE PUSH1 0x20 ADD DUP6 DUP2 MSTORE PUSH1 0x20 ADD DUP5 DUP5 DUP1 DUP1 PUSH1 0x1F ADD PUSH1 0x20 DUP1 SWAP2 DIV MUL PUSH1 0x20 ADD PUSH1 0x40 MLOAD SWAP1 DUP2 ADD PUSH1 0x40 MSTORE DUP1 SWAP4 SWAP3 SWAP2 SWAP1 DUP2 DUP2 MSTORE PUSH1 0x20 ADD DUP4 DUP4 DUP1 DUP3 DUP5 CALLDATACOPY PUSH1 0x0 SWAP3 ADD DUP3 SWAP1 MSTORE POP SWAP4 DUP6 MSTORE POP POP POP PUSH1 0x20 SWAP2 DUP3 ADD DUP2 SWAP1 MSTORE DUP4 SLOAD PUSH1 0x1 DUP1 DUP3 ADD DUP7 SSTORE SWAP5 DUP3 MSTORE SWAP1 DUP3 SWAP1 KECCAK256 DUP4 MLOAD PUSH1 0x4 SWAP1 SWAP3 MUL ADD DUP1 SLOAD PUSH1 0x1 PUSH1 0x1 PUSH1 0xA0 SHL SUB NOT AND PUSH1 0x1 PUSH1 0x1 PUSH1 0xA0 SHL SUB SWAP1 SWAP3 AND SWAP2 SWAP1 SWAP2 OR DUP2 SSTORE SWAP1 DUP3 ADD MLOAD SWAP3 DUP2 ADD SWAP3 SWAP1 SWAP3 SSTORE PUSH1 0x40 DUP2 ADD MLOAD SWAP1 SWAP2 SWAP1 PUSH1 0x2 DUP3 ADD SWAP1 PUSH2 0x374 SWAP1 DUP3 PUSH2 0xBA7 JUMP JUMPDEST POP PUSH1 0x60 SWAP2 SWAP1 SWAP2 ADD MLOAD PUSH1 0x3 SWAP2 DUP3 ADD DUP1 SLOAD PUSH1 0xFF NOT AND SWAP2 ISZERO ISZERO SWAP2 SWAP1 SWAP2 OR SWAP1 SSTORE SLOAD PUSH2 0x39D SWAP1 PUSH1 0x1 SWAP1 PUSH2 0xC7D JUMP JUMPDEST PUSH1 0x40 MLOAD PUSH32 0x8324B3D745B914E3ABD4FFBFEAD91E3B78391A98C173202129215AB933ADFBE SWAP1 PUSH1 0x0 SWAP1 LOG2 POP POP POP POP JUMP JUMPDEST CALLER PUSH1 0x0 SWAP1 DUP2 MSTORE PUSH1 0x1 PUSH1 0x20 MSTORE PUSH1 0x40 SWAP1 KECCAK256 SLOAD PUSH1 0xFF AND PUSH2 0x3FB JUMPI PUSH1 0x40 MLOAD PUSH3 0x461BCD PUSH1 0xE5 SHL DUP2 MSTORE PUSH1 0x4 ADD PUSH2 0x2B2 SWAP1 PUSH2 0xAEB JUMP JUMPDEST PUSH1 0x3 SLOAD DUP2 SWAP1 DUP2 LT PUSH2 0x41E JUMPI PUSH1 0x40 MLOAD PUSH3 0x461BCD PUSH1 0xE5 SHL DUP2 MSTORE PUSH1 0x4 ADD PUSH2 0x2B2 SWAP1 PUSH2 0xC94 JUMP JUMPDEST DUP2 PUSH1 0x3 DUP2 DUP2 SLOAD DUP2 LT PUSH2 0x432 JUMPI PUSH2 0x432 PUSH2 0xCBF JUMP JUMPDEST PUSH1 0x0 SWAP2 DUP3 MSTORE PUSH1 0x20 SWAP1 SWAP2 KECCAK256 PUSH1 0x3 PUSH1 0x4 SWAP1 SWAP3 MUL ADD ADD SLOAD PUSH1 0xFF AND ISZERO PUSH2 0x466 JUMPI PUSH1 0x40 MLOAD PUSH3 0x461BCD PUSH1 0xE5 SHL DUP2 MSTORE PUSH1 0x4 ADD PUSH2 0x2B2 SWAP1 PUSH2 0xCD5 JUMP JUMPDEST PUSH1 0x0 DUP4 DUP2 MSTORE PUSH1 0x4 PUSH1 0x20 SWAP1 DUP2 MSTORE PUSH1 0x40 DUP1 DUP4 KECCAK256 CALLER DUP5 MSTORE SWAP1 SWAP2 MSTORE SWAP1 KECCAK256 SLOAD PUSH1 0xFF AND PUSH2 0x4C1 JUMPI PUSH1 0x40 MLOAD PUSH3 0x461BCD PUSH1 0xE5 SHL DUP2 MSTORE PUSH1 0x20 PUSH1 0x4 DUP3 ADD MSTORE PUSH1 0xF PUSH1 0x24 DUP3 ADD MSTORE PUSH15 0x1D1E081B9BDD08185C1C1C9BDD9959 PUSH1 0x8A SHL PUSH1 0x44 DUP3 ADD MSTORE PUSH1 0x64 ADD PUSH2 0x2B2 JUMP JUMPDEST PUSH1 0x0 DUP4 DUP2 MSTORE PUSH1 0x4 PUSH1 0x20 SWAP1 DUP2 MSTORE PUSH1 0x40 DUP1 DUP4 KECCAK256 CALLER DUP1 DUP6 MSTORE SWAP3 MSTORE DUP1 DUP4 KECCAK256 DUP1 SLOAD PUSH1 0xFF NOT AND SWAP1 SSTORE MLOAD DUP6 SWAP3 PUSH32 0xEC9AB91322523C899EDE7830EC9BFC992B5981CDCC27B91162FB23DE5791117B SWAP2 LOG3 POP POP POP JUMP JUMPDEST PUSH1 0x3 DUP2 DUP2 SLOAD DUP2 LT PUSH2 0x51E JUMPI PUSH1 0x0 DUP1 REVERT JUMPDEST PUSH1 0x0 SWAP2 DUP3 MSTORE PUSH1 0x20 SWAP1 SWAP2 KECCAK256 PUSH1 0x4 SWAP1 SWAP2 MUL ADD DUP1 SLOAD PUSH1 0x1 DUP3 ADD SLOAD PUSH1 0x2 DUP4 ADD DUP1 SLOAD PUSH1 0x1 PUSH1 0x1 PUSH1 0xA0 SHL SUB SWAP1 SWAP4 AND SWAP5 POP SWAP1 SWAP3 SWAP2 PUSH2 0x554 SWAP1 PUSH2 0xB24 JUMP JUMPDEST DUP1 PUSH1 0x1F ADD PUSH1 0x20 DUP1 SWAP2 DIV MUL PUSH1 0x20 ADD PUSH1 0x40 MLOAD SWAP1 DUP2 ADD PUSH1 0x40 MSTORE DUP1 SWAP3 SWAP2 SWAP1 DUP2 DUP2 MSTORE PUSH1 0x20 ADD DUP3 DUP1 SLOAD PUSH2 0x580 SWAP1 PUSH2 0xB24 JUMP JUMPDEST DUP1 ISZERO PUSH2 0x5CD JUMPI DUP1 PUSH1 0x1F LT PUSH2 0x5A2 JUMPI PUSH2 0x100 DUP1 DUP4 SLOAD DIV MUL DUP4 MSTORE SWAP2 PUSH1 0x20 ADD SWAP2 PUSH2 0x5CD JUMP JUMPDEST DUP3 ADD SWAP2 SWAP1 PUSH1 0x0 MSTORE PUSH1 0x20 PUSH1 0x0 KECCAK256 SWAP1 JUMPDEST DUP2 SLOAD DUP2 MSTORE SWAP1 PUSH1 0x1 ADD SWAP1 PUSH1 0x20 ADD DUP1 DUP4 GT PUSH2 0x5B0 JUMPI DUP3 SWAP1 SUB PUSH1 0x1F AND DUP3 ADD SWAP2 JUMPDEST POP POP POP PUSH1 0x3 SWAP1 SWAP4 ADD SLOAD SWAP2 SWAP3 POP POP PUSH1 0xFF AND DUP5 JUMP JUMPDEST CALLER PUSH1 0x0 SWAP1 DUP2 MSTORE PUSH1 0x1 PUSH1 0x20 MSTORE PUSH1 0x40 SWAP1 KECCAK256 SLOAD PUSH1 0xFF AND PUSH2 0x60F JUMPI PUSH1 0x40 MLOAD PUSH3 0x461BCD PUSH1 0xE5 SHL DUP2 MSTORE PUSH1 0x4 ADD PUSH2 0x2B2 SWAP1 PUSH2 0xAEB JUMP JUMPDEST PUSH1 0x3 SLOAD DUP2 SWAP1 DUP2 LT PUSH2 0x632 JUMPI PUSH1 0x40 MLOAD PUSH3 0x461BCD PUSH1 0xE5 SHL DUP2 MSTORE PUSH1 0x4 ADD PUSH2 0x2B2 SWAP1 PUSH2 0xC94 JUMP JUMPDEST DUP2 PUSH1 0x3 DUP2 DUP2 SLOAD DUP2 LT PUSH2 0x646 JUMPI PUSH2 0x646 PUSH2 0xCBF JUMP JUMPDEST PUSH1 0x0 SWAP2 DUP3 MSTORE PUSH1 0x20 SWAP1 SWAP2 KECCAK256 PUSH1 0x3 PUSH1 0x4 SWAP1 SWAP3 MUL ADD ADD SLOAD PUSH1 0xFF AND ISZERO PUSH2 0x67A JUMPI PUSH1 0x40 MLOAD PUSH3 0x461BCD PUSH1 0xE5 SHL DUP2 MSTORE PUSH1 0x4 ADD PUSH2 0x2B2 SWAP1 PUSH2 0xCD5 JUMP JUMPDEST DUP3 PUSH1 0x3 DUP2 DUP2 SLOAD DUP2 LT PUSH2 0x68E JUMPI PUSH2 0x68E PUSH2 0xCBF JUMP JUMPDEST PUSH1 0x0 SWAP2 DUP3 MSTORE PUSH1 0x20 SWAP1 SWAP2 KECCAK256 PUSH1 0x3 PUSH1 0x4 SWAP1 SWAP3 MUL ADD ADD SLOAD PUSH1 0xFF AND ISZERO PUSH2 0x6C2 JUMPI PUSH1 0x40 MLOAD PUSH3 0x461BCD PUSH1 0xE5 SHL DUP2 MSTORE PUSH1 0x4 ADD PUSH2 0x2B2 SWAP1 PUSH2 0xCD5 JUMP JUMPDEST PUSH1 0x0 DUP5 DUP2 MSTORE PUSH1 0x4 PUSH1 0x20 SWAP1 DUP2 MSTORE PUSH1 0x40 DUP1 DUP4 KECCAK256 CALLER DUP1 DUP6 MSTORE SWAP3 MSTORE DUP1 DUP4 KECCAK256 DUP1 SLOAD PUSH1 0xFF NOT AND PUSH1 0x1 OR SWAP1 SSTORE MLOAD DUP7 SWAP3 PUSH32 0x90EC57F18FA7B15C6B8D5E4D1DEB90796C74B2FF23D4D0CECAD0CB42A96B3128 SWAP2 LOG3 POP POP POP POP JUMP JUMPDEST PUSH1 0x3 SLOAD DUP2 SWAP1 DUP2 LT PUSH2 0x736 JUMPI PUSH1 0x40 MLOAD PUSH3 0x461BCD PUSH1 0xE5 SHL DUP2 MSTORE PUSH1 0x4 ADD PUSH2 0x2B2 SWAP1 PUSH2 0xC94 JUMP JUMPDEST DUP2 PUSH1 0x3 DUP2 DUP2 SLOAD DUP2 LT PUSH2 0x74A JUMPI PUSH2 0x74A PUSH2 0xCBF JUMP JUMPDEST PUSH1 0x0 SWAP2 DUP3 MSTORE PUSH1 0x20 SWAP1 SWAP2 KECCAK256 PUSH1 0x3 PUSH1 0x4 SWAP1 SWAP3 MUL ADD ADD SLOAD PUSH1 0xFF AND ISZERO PUSH2 0x77E JUMPI PUSH1 0x40 MLOAD PUSH3 0x461BCD PUSH1 0xE5 SHL DUP2 MSTORE PUSH1 0x4 ADD PUSH2 0x2B2 SWAP1 PUSH2 0xCD5 JUMP JUMPDEST PUSH1 0x2 SLOAD PUSH2 0x78A DUP5 PUSH2 0x8DD JUMP JUMPDEST LT ISZERO PUSH2 0x7CF JUMPI PUSH1 0x40 MLOAD PUSH3 0x461BCD PUSH1 0xE5 SHL DUP2 MSTORE PUSH1 0x20 PUSH1 0x4 DUP3 ADD MSTORE PUSH1 0x14 PUSH1 0x24 DUP3 ADD MSTORE PUSH20 0x185C1C1C9BDD985B1CC80F081C995C5D5A5C9959 PUSH1 0x62 SHL PUSH1 0x44 DUP3 ADD MSTORE PUSH1 0x64 ADD PUSH2 0x2B2 JUMP JUMPDEST PUSH1 0x0 PUSH1 0x3 DUP5 DUP2 SLOAD DUP2 LT PUSH2 0x7E4 JUMPI PUSH2 0x7E4 PUSH2 0xCBF JUMP JUMPDEST PUSH1 0x0 SWAP2 DUP3 MSTORE PUSH1 0x20 DUP3 KECCAK256 PUSH1 0x3 PUSH1 0x4 SWAP1 SWAP3 MUL ADD SWAP1 DUP2 ADD DUP1 SLOAD PUSH1 0xFF NOT AND PUSH1 0x1 SWAP1 DUP2 OR SWAP1 SWAP2 SSTORE DUP2 SLOAD SWAP1 DUP3 ADD SLOAD PUSH1 0x40 MLOAD SWAP3 SWAP5 POP PUSH1 0x1 PUSH1 0x1 PUSH1 0xA0 SHL SUB SWAP1 SWAP2 AND SWAP2 PUSH2 0x82C SWAP1 PUSH1 0x2 DUP7 ADD SWAP1 PUSH2 0xD02 JUMP JUMPDEST PUSH1 0x0 PUSH1 0x40 MLOAD DUP1 DUP4 SUB DUP2 DUP6 DUP8 GAS CALL SWAP3 POP POP POP RETURNDATASIZE DUP1 PUSH1 0x0 DUP2 EQ PUSH2 0x869 JUMPI PUSH1 0x40 MLOAD SWAP2 POP PUSH1 0x1F NOT PUSH1 0x3F RETURNDATASIZE ADD AND DUP3 ADD PUSH1 0x40 MSTORE RETURNDATASIZE DUP3 MSTORE RETURNDATASIZE PUSH1 0x0 PUSH1 0x20 DUP5 ADD RETURNDATACOPY PUSH2 0x86E JUMP JUMPDEST PUSH1 0x60 SWAP2 POP JUMPDEST POP POP SWAP1 POP DUP1 PUSH2 0x8AB JUMPI PUSH1 0x40 MLOAD PUSH3 0x461BCD PUSH1 0xE5 SHL DUP2 MSTORE PUSH1 0x20 PUSH1 0x4 DUP3 ADD MSTORE PUSH1 0x9 PUSH1 0x24 DUP3 ADD MSTORE PUSH9 0x1D1E0819985A5B1959 PUSH1 0xBA SHL PUSH1 0x44 DUP3 ADD MSTORE PUSH1 0x64 ADD PUSH2 0x2B2 JUMP JUMPDEST PUSH1 0x40 MLOAD DUP6 SWAP1 PUSH32 0xDDB556F1D2C1EC821E910B019D3685B229DB152A0ECD517CA7E24B8BD7139289 SWAP1 PUSH1 0x0 SWAP1 LOG2 POP POP POP POP POP JUMP JUMPDEST PUSH1 0x0 DUP1 JUMPDEST PUSH1 0x0 SLOAD DUP2 LT ISZERO PUSH2 0x95F JUMPI PUSH1 0x4 PUSH1 0x0 DUP5 DUP2 MSTORE PUSH1 0x20 ADD SWAP1 DUP2 MSTORE PUSH1 0x20 ADD PUSH1 0x0 KECCAK256 PUSH1 0x0 DUP1 DUP4 DUP2 SLOAD DUP2 LT PUSH2 0x912 JUMPI PUSH2 0x912 PUSH2 0xCBF JUMP JUMPDEST PUSH1 0x0 SWAP2 DUP3 MSTORE PUSH1 0x20 DUP1 DUP4 KECCAK256 SWAP1 SWAP2 ADD SLOAD PUSH1 0x1 PUSH1 0x1 PUSH1 0xA0 SHL SUB AND DUP4 MSTORE DUP3 ADD SWAP3 SWAP1 SWAP3 MSTORE PUSH1 0x40 ADD SWAP1 KECCAK256 SLOAD PUSH1 0xFF AND ISZERO PUSH2 0x94D JUMPI PUSH2 0x94A PUSH1 0x1 DUP4 PUSH2 0xD78 JUMP JUMPDEST SWAP2 POP JUMPDEST DUP1 PUSH2 0x957 DUP2 PUSH2 0xD90 JUMP JUMPDEST SWAP2 POP POP PUSH2 0x8E1 JUMP JUMPDEST POP SWAP2 SWAP1 POP JUMP JUMPDEST PUSH1 0x0 PUSH1 0x20 DUP3 DUP5 SUB SLT ISZERO PUSH2 0x977 JUMPI PUSH1 0x0 DUP1 REVERT JUMPDEST POP CALLDATALOAD SWAP2 SWAP1 POP JUMP JUMPDEST DUP1 CALLDATALOAD PUSH1 0x1 PUSH1 0x1 PUSH1 0xA0 SHL SUB DUP2 AND DUP2 EQ PUSH2 0x995 JUMPI PUSH1 0x0 DUP1 REVERT JUMPDEST SWAP2 SWAP1 POP JUMP JUMPDEST PUSH1 0x0 DUP1 PUSH1 0x0 DUP1 PUSH1 0x60 DUP6 DUP8 SUB SLT ISZERO PUSH2 0x9B0 JUMPI PUSH1 0x0 DUP1 REVERT JUMPDEST PUSH2 0x9B9 DUP6 PUSH2 0x97E JUMP JUMPDEST SWAP4 POP PUSH1 0x20 DUP6 ADD CALLDATALOAD SWAP3 POP PUSH1 0x40 DUP6 ADD CALLDATALOAD PUSH8 0xFFFFFFFFFFFFFFFF DUP1 DUP3 GT ISZERO PUSH2 0x9DD JUMPI PUSH1 0x0 DUP1 REVERT JUMPDEST DUP2 DUP8 ADD SWAP2 POP DUP8 PUSH1 0x1F DUP4 ADD SLT PUSH2 0x9F1 JUMPI PUSH1 0x0 DUP1 REVERT JUMPDEST DUP2 CALLDATALOAD DUP2 DUP2 GT ISZERO PUSH2 0xA00 JUMPI PUSH1 0x0 DUP1 REVERT JUMPDEST DUP9 PUSH1 0x20 DUP3 DUP6 ADD ADD GT ISZERO PUSH2 0xA12 JUMPI PUSH1 0x0 DUP1 REVERT JUMPDEST SWAP6 SWAP9 SWAP5 SWAP8 POP POP PUSH1 0x20 ADD SWAP5 POP POP POP JUMP JUMPDEST PUSH1 0x0 PUSH1 0x20 DUP3 DUP5 SUB SLT ISZERO PUSH2 0xA33 JUMPI PUSH1 0x0 DUP1 REVERT JUMPDEST PUSH2 0xA3C DUP3 PUSH2 0x97E JUMP JUMPDEST SWAP4 SWAP3 POP POP POP JUMP JUMPDEST PUSH1 0x0 DUP1 PUSH1 0x40 DUP4 DUP6 SUB SLT ISZERO PUSH2 0xA56 JUMPI PUSH1 0x0 DUP1 REVERT JUMPDEST DUP3 CALLDATALOAD SWAP2 POP PUSH2 0xA66 PUSH1 0x20 DUP5 ADD PUSH2 0x97E JUMP JUMPDEST SWAP1 POP SWAP3 POP SWAP3 SWAP1 POP JUMP JUMPDEST PUSH1 0x1 DUP1 PUSH1 0xA0 SHL SUB DUP6 AND DUP2 MSTORE PUSH1 0x0 PUSH1 0x20 DUP6 DUP2 DUP5 ADD MSTORE PUSH1 0x80 PUSH1 0x40 DUP5 ADD MSTORE DUP5 MLOAD DUP1 PUSH1 0x80 DUP6 ADD MSTORE PUSH1 0x0 JUMPDEST DUP2 DUP2 LT ISZERO PUSH2 0xAB1 JUMPI DUP7 DUP2 ADD DUP4 ADD MLOAD DUP6 DUP3 ADD PUSH1 0xA0 ADD MSTORE DUP3 ADD PUSH2 0xA95 JUMP JUMPDEST DUP2 DUP2 GT ISZERO PUSH2 0xAC3 JUMPI PUSH1 0x0 PUSH1 0xA0 DUP4 DUP8 ADD ADD MSTORE JUMPDEST POP PUSH1 0x1F ADD PUSH1 0x1F NOT AND DUP4 ADD PUSH1 0xA0 ADD SWAP2 POP PUSH2 0xAE2 SWAP1 POP PUSH1 0x60 DUP4 ADD DUP5 ISZERO ISZERO SWAP1 MSTORE JUMP JUMPDEST SWAP6 SWAP5 POP POP POP POP POP JUMP JUMPDEST PUSH1 0x20 DUP1 DUP3 MSTORE PUSH1 0x9 SWAP1 DUP3 ADD MSTORE PUSH9 0x3737BA1037BBB732B9 PUSH1 0xB9 SHL PUSH1 0x40 DUP3 ADD MSTORE PUSH1 0x60 ADD SWAP1 JUMP JUMPDEST PUSH4 0x4E487B71 PUSH1 0xE0 SHL PUSH1 0x0 MSTORE PUSH1 0x41 PUSH1 0x4 MSTORE PUSH1 0x24 PUSH1 0x0 REVERT JUMPDEST PUSH1 0x1 DUP2 DUP2 SHR SWAP1 DUP3 AND DUP1 PUSH2 0xB38 JUMPI PUSH1 0x7F DUP3 AND SWAP2 POP JUMPDEST PUSH1 0x20 DUP3 LT DUP2 SUB PUSH2 0x95F JUMPI PUSH4 0x4E487B71 PUSH1 0xE0 SHL PUSH1 0x0 MSTORE PUSH1 0x22 PUSH1 0x4 MSTORE PUSH1 0x24 PUSH1 0x0 REVERT JUMPDEST PUSH1 0x1F DUP3 GT ISZERO PUSH2 0xBA2 JUMPI PUSH1 0x0 DUP2 DUP2 MSTORE PUSH1 0x20 DUP2 KECCAK256 PUSH1 0x1F DUP6 ADD PUSH1 0x5 SHR DUP2 ADD PUSH1 0x20 DUP7 LT ISZERO PUSH2 0xB7F JUMPI POP DUP1 JUMPDEST PUSH1 0x1F DUP6 ADD PUSH1 0x5 SHR DUP3 ADD SWAP2 POP JUMPDEST DUP2 DUP2 LT ISZERO PUSH2 0xB9E JUMPI DUP3 DUP2 SSTORE PUSH1 0x1 ADD PUSH2 0xB8B JUMP JUMPDEST POP POP POP JUMPDEST POP POP POP JUMP JUMPDEST DUP2 MLOAD PUSH8 0xFFFFFFFFFFFFFFFF DUP2 GT ISZERO PUSH2 0xBC1 JUMPI PUSH2 0xBC1 PUSH2 0xB0E JUMP JUMPDEST PUSH2 0xBD5 DUP2 PUSH2 0xBCF DUP5 SLOAD PUSH2 0xB24 JUMP JUMPDEST DUP5 PUSH2 0xB58 JUMP JUMPDEST PUSH1 0x20 DUP1 PUSH1 0x1F DUP4 GT PUSH1 0x1 DUP2 EQ PUSH2 0xC0A JUMPI PUSH1 0x0 DUP5 ISZERO PUSH2 0xBF2 JUMPI POP DUP6 DUP4 ADD MLOAD JUMPDEST PUSH1 0x0 NOT PUSH1 0x3 DUP7 SWAP1 SHL SHR NOT AND PUSH1 0x1 DUP6 SWAP1 SHL OR DUP6 SSTORE PUSH2 0xB9E JUMP JUMPDEST PUSH1 0x0 DUP6 DUP2 MSTORE PUSH1 0x20 DUP2 KECCAK256 PUSH1 0x1F NOT DUP7 AND SWAP2 JUMPDEST DUP3 DUP2 LT ISZERO PUSH2 0xC39 JUMPI DUP9 DUP7 ADD MLOAD DUP3 SSTORE SWAP5 DUP5 ADD SWAP5 PUSH1 0x1 SWAP1 SWAP2 ADD SWAP1 DUP5 ADD PUSH2 0xC1A JUMP JUMPDEST POP DUP6 DUP3 LT ISZERO PUSH2 0xC57 JUMPI DUP8 DUP6 ADD MLOAD PUSH1 0x0 NOT PUSH1 0x3 DUP9 SWAP1 SHL PUSH1 0xF8 AND SHR NOT AND DUP2 SSTORE JUMPDEST POP POP POP POP POP PUSH1 0x1 SWAP1 DUP2 SHL ADD SWAP1 SSTORE POP JUMP JUMPDEST PUSH4 0x4E487B71 PUSH1 0xE0 SHL PUSH1 0x0 MSTORE PUSH1 0x11 PUSH1 0x4 MSTORE PUSH1 0x24 PUSH1 0x0 REVERT JUMPDEST PUSH1 0x0 DUP3 DUP3 LT ISZERO PUSH2 0xC8F JUMPI PUSH2 0xC8F PUSH2 0xC67 JUMP JUMPDEST POP SUB SWAP1 JUMP JUMPDEST PUSH1 0x20 DUP1 DUP3 MSTORE PUSH1 0x11 SWAP1 DUP3 ADD MSTORE PUSH17 0x1D1E08191BD95CC81B9BDD08195E1A5CDD PUSH1 0x7A SHL PUSH1 0x40 DUP3 ADD MSTORE PUSH1 0x60 ADD SWAP1 JUMP JUMPDEST PUSH4 0x4E487B71 PUSH1 0xE0 SHL PUSH1 0x0 MSTORE PUSH1 0x32 PUSH1 0x4 MSTORE PUSH1 0x24 PUSH1 0x0 REVERT JUMPDEST PUSH1 0x20 DUP1 DUP3 MSTORE PUSH1 0x13 SWAP1 DUP3 ADD MSTORE PUSH19 0x1D1E08185B1C9958591E48195E1958DD5D1959 PUSH1 0x6A SHL PUSH1 0x40 DUP3 ADD MSTORE PUSH1 0x60 ADD SWAP1 JUMP JUMPDEST PUSH1 0x0 DUP1 DUP4 SLOAD PUSH2 0xD10 DUP2 PUSH2 0xB24 JUMP JUMPDEST PUSH1 0x1 DUP3 DUP2 AND DUP1 ISZERO PUSH2 0xD28 JUMPI PUSH1 0x1 DUP2 EQ PUSH2 0xD3D JUMPI PUSH2 0xD6C JUMP JUMPDEST PUSH1 0xFF NOT DUP5 AND DUP8 MSTORE DUP3 ISZERO ISZERO DUP4 MUL DUP8 ADD SWAP5 POP PUSH2 0xD6C JUMP JUMPDEST DUP8 PUSH1 0x0 MSTORE PUSH1 0x20 DUP1 PUSH1 0x0 KECCAK256 PUSH1 0x0 JUMPDEST DUP6 DUP2 LT ISZERO PUSH2 0xD63 JUMPI DUP2 SLOAD DUP11 DUP3 ADD MSTORE SWAP1 DUP5 ADD SWAP1 DUP3 ADD PUSH2 0xD4A JUMP JUMPDEST POP POP POP DUP3 DUP8 ADD SWAP5 POP JUMPDEST POP SWAP3 SWAP7 SWAP6 POP POP POP POP POP POP JUMP JUMPDEST PUSH1 0x0 DUP3 NOT DUP3 GT ISZERO PUSH2 0xD8B JUMPI PUSH2 0xD8B PUSH2 0xC67 JUMP JUMPDEST POP ADD SWAP1 JUMP JUMPDEST PUSH1 0x0 PUSH1 0x1 DUP3 ADD PUSH2 0xDA2 JUMPI PUSH2 0xDA2 PUSH2 0xC67 JUMP JUMPDEST POP PUSH1 0x1 ADD SWAP1 JUMP INVALID LOG2 PUSH5 0x6970667358 0x22 SLT KECCAK256 DELEGATECALL 0xAE 0xD2 SWAP14 CALL CREATE2 0xC8 PUSH4 0x9153F76C 0xCB 0xAE EXTCODESIZE DUP14 PUSH8 0xBB44A034E0E2047E 0xBB 0xAE MSIZE 0xC4 0xEB DUP8 PUSH31 0x64736F6C634300080F00330000000000000000000000000000000000000000 "
				},
				"gasEstimates": {
					"creation": {
						"codeDepositCost": "710200",
						"executionCost": "infinite",
						"totalCost": "infinite"
					},
					"external": {
						"approve(uint256)": "39142",
						"approved(uint256,address)": "2629",
						"executed(uint256)": "infinite",
						"isOwner(address)": "2598",
						"owners(uint256)": "4604",
						"required()": "2383",
						"revoke(uint256)": "37060",
						"submit(address,uint256,bytes)": "infinite",
						"transactions(uint256)": "infinite"
					},
					"internal": {
						"_getApprovalCount(uint256)": "infinite"
					}
				},
				"methodIdentifiers": {
					"approve(uint256)": "b759f954",
					"approved(uint256,address)": "8253951a",
					"executed(uint256)": "d3ecebd7",
					"isOwner(address)": "2f54bf6e",
					"owners(uint256)": "025e7c27",
					"required()": "dc8452cd",
					"revoke(uint256)": "20c5429b",
					"submit(address,uint256,bytes)": "14de327f",
					"transactions(uint256)": "9ace38c2"
				}
			},
			"storageLayout": {
				"storage": [
					{
						"astId": 39,
						"contract": "多签钱包合约.sol:MultiSigWallet",
						"label": "owners",
						"offset": 0,
						"slot": "0",
						"type": "t_array(t_address)dyn_storage"
					},
					{
						"astId": 43,
						"contract": "多签钱包合约.sol:MultiSigWallet",
						"label": "isOwner",
						"offset": 0,
						"slot": "1",
						"type": "t_mapping(t_address,t_bool)"
					},
					{
						"astId": 45,
						"contract": "多签钱包合约.sol:MultiSigWallet",
						"label": "required",
						"offset": 0,
						"slot": "2",
						"type": "t_uint256"
					},
					{
						"astId": 49,
						"contract": "多签钱包合约.sol:MultiSigWallet",
						"label": "transactions",
						"offset": 0,
						"slot": "3",
						"type": "t_array(t_struct(Transaction)36_storage)dyn_storage"
					},
					{
						"astId": 55,
						"contract": "多签钱包合约.sol:MultiSigWallet",
						"label": "approved",
						"offset": 0,
						"slot": "4",
						"type": "t_mapping(t_uint256,t_mapping(t_address,t_bool))"
					}
				],
				"types": {
					"t_address": {
						"encoding": "inplace",
						"label": "address",
						"numberOfBytes": "20"
					},
					"t_array(t_address)dyn_storage": {
						"base": "t_address",
						"encoding": "dynamic_array",
						"label": "address[]",
						"numberOfBytes": "32"
					},
					"t_array(t_struct(Transaction)36_storage)dyn_storage": {
						"base": "t_struct(Transaction)36_storage",
						"encoding": "dynamic_array",
						"label": "struct MultiSigWallet.Transaction[]",
						"numberOfBytes": "32"
					},
					"t_bool": {
						"encoding": "inplace",
						"label": "bool",
						"numberOfBytes": "1"
					},
					"t_bytes_storage": {
						"encoding": "bytes",
						"label": "bytes",
						"numberOfBytes": "32"
					},
					"t_mapping(t_address,t_bool)": {
						"encoding": "mapping",
						"key": "t_address",
						"label": "mapping(address => bool)",
						"numberOfBytes": "32",
						"value": "t_bool"
					},
					"t_mapping(t_uint256,t_mapping(t_address,t_bool))": {
						"encoding": "mapping",
						"key": "t_uint256",
						"label": "mapping(uint256 => mapping(address => bool))",
						"numberOfBytes": "32",
						"value": "t_mapping(t_address,t_bool)"
					},
					"t_struct(Transaction)36_storage": {
						"encoding": "inplace",
						"label": "struct MultiSigWallet.Transaction",
						"members": [
							{
								"astId": 29,
								"contract": "多签钱包合约.sol:MultiSigWallet",
								"label": "to",
								"offset": 0,
								"slot": "0",
								"type": "t_address"
							},
							{
								"astId": 31,
								"contract": "多签钱包合约.sol:MultiSigWallet",
								"label": "value",
								"offset": 0,
								"slot": "1",
								"type": "t_uint256"
							},
							{
								"astId": 33,
								"contract": "多签钱包合约.sol:MultiSigWallet",
								"label": "data",
								"offset": 0,
								"slot": "2",
								"type": "t_bytes_storage"
							},
							{
								"astId": 35,
								"contract": "多签钱包合约.sol:MultiSigWallet",
								"label": "executed",
								"offset": 0,
								"slot": "3",
								"type": "t_bool"
							}
						],
						"numberOfBytes": "128"
					},
					"t_uint256": {
						"encoding": "inplace",
						"label": "uint256",
						"numberOfBytes": "32"
					}
				}
			},
			"userdoc": {
				"kind": "user",
				"methods": {},
				"version": 1
			}
		}
	}
}