{
	"定息矿池-进阶.sol": {
		"StakeContract": {
			"abi": [
				{
					"inputs": [
						{
							"internalType": "address",
							"name": "",
							"type": "address"
						}
					],
					"name": "User_Map",
					"outputs": [
						{
							"internalType": "uint256",
							"name": "stakeNumber",
							"type": "uint256"
						},
						{
							"internalType": "uint256",
							"name": "last_Stake_Time",
							"type": "uint256"
						},
						{
							"internalType": "uint256",
							"name": "last_totoken_ratio",
							"type": "uint256"
						},
						{
							"internalType": "uint256",
							"name": "whole_ratio",
							"type": "uint256"
						},
						{
							"internalType": "uint256",
							"name": "last_totoken_Time",
							"type": "uint256"
						}
					],
					"stateMutability": "view",
					"type": "function"
				},
				{
					"inputs": [],
					"name": "owner",
					"outputs": [
						{
							"internalType": "address",
							"name": "",
							"type": "address"
						}
					],
					"stateMutability": "view",
					"type": "function"
				},
				{
					"inputs": [],
					"name": "ratio",
					"outputs": [
						{
							"internalType": "uint256",
							"name": "",
							"type": "uint256"
						}
					],
					"stateMutability": "view",
					"type": "function"
				},
				{
					"inputs": [],
					"name": "rewardtoken",
					"outputs": [
						{
							"internalType": "address",
							"name": "",
							"type": "address"
						}
					],
					"stateMutability": "view",
					"type": "function"
				},
				{
					"inputs": [],
					"name": "staketoken",
					"outputs": [
						{
							"internalType": "address",
							"name": "",
							"type": "address"
						}
					],
					"stateMutability": "view",
					"type": "function"
				},
				{
					"inputs": [],
					"name": "staketotal",
					"outputs": [
						{
							"internalType": "uint256",
							"name": "",
							"type": "uint256"
						}
					],
					"stateMutability": "view",
					"type": "function"
				}
			],
			"devdoc": {
				"kind": "dev",
				"methods": {},
				"version": 1
			},
			"evm": {
				"assembly": "    /* \"\\xe5\\xae\\x9a\\xe6\\x81\\xaf\\xe7\\x9f\\xbf\\xe6\\xb1\\xa0-\\xe8\\xbf\\x9b\\xe9\\x98\\xb6.sol\":865:1649  contract StakeContract {... */\n  mstore(0x40, 0x80)\n  callvalue\n  dup1\n  iszero\n  tag_1\n  jumpi\n  0x00\n  dup1\n  revert\ntag_1:\n  pop\n  dataSize(sub_0)\n  dup1\n  dataOffset(sub_0)\n  0x00\n  codecopy\n  0x00\n  return\nstop\n\nsub_0: assembly {\n        /* \"\\xe5\\xae\\x9a\\xe6\\x81\\xaf\\xe7\\x9f\\xbf\\xe6\\xb1\\xa0-\\xe8\\xbf\\x9b\\xe9\\x98\\xb6.sol\":865:1649  contract StakeContract {... */\n      mstore(0x40, 0x80)\n      callvalue\n      dup1\n      iszero\n      tag_1\n      jumpi\n      0x00\n      dup1\n      revert\n    tag_1:\n      pop\n      jumpi(tag_2, lt(calldatasize, 0x04))\n      shr(0xe0, calldataload(0x00))\n      dup1\n      0x6dff132e\n      eq\n      tag_3\n      jumpi\n      dup1\n      0x71ca337d\n      eq\n      tag_4\n      jumpi\n      dup1\n      0x8c93ecff\n      eq\n      tag_5\n      jumpi\n      dup1\n      0x8da5cb5b\n      eq\n      tag_6\n      jumpi\n      dup1\n      0xdab2997b\n      eq\n      tag_7\n      jumpi\n      dup1\n      0xe8221917\n      eq\n      tag_8\n      jumpi\n    tag_2:\n      0x00\n      dup1\n      revert\n        /* \"\\xe5\\xae\\x9a\\xe6\\x81\\xaf\\xe7\\x9f\\xbf\\xe6\\xb1\\xa0-\\xe8\\xbf\\x9b\\xe9\\x98\\xb6.sol\":1114:1140  address public rewardtoken */\n    tag_3:\n      sload(0x02)\n      tag_9\n      swap1\n      sub(shl(0xa0, 0x01), 0x01)\n      and\n      dup2\n      jump\n    tag_9:\n      mload(0x40)\n      sub(shl(0xa0, 0x01), 0x01)\n        /* \"#utility.yul\":178:210   */\n      swap1\n      swap2\n      and\n        /* \"#utility.yul\":160:211   */\n      dup2\n      mstore\n        /* \"#utility.yul\":148:150   */\n      0x20\n        /* \"#utility.yul\":133:151   */\n      add\n        /* \"\\xe5\\xae\\x9a\\xe6\\x81\\xaf\\xe7\\x9f\\xbf\\xe6\\xb1\\xa0-\\xe8\\xbf\\x9b\\xe9\\x98\\xb6.sol\":1114:1140  address public rewardtoken */\n    tag_11:\n      mload(0x40)\n      dup1\n      swap2\n      sub\n      swap1\n      return\n        /* \"\\xe5\\xae\\x9a\\xe6\\x81\\xaf\\xe7\\x9f\\xbf\\xe6\\xb1\\xa0-\\xe8\\xbf\\x9b\\xe9\\x98\\xb6.sol\":989:1006  uint public ratio */\n    tag_4:\n      tag_13\n      sload(0x00)\n      dup2\n      jump\n    tag_13:\n      mload(0x40)\n        /* \"#utility.yul\":368:393   */\n      swap1\n      dup2\n      mstore\n        /* \"#utility.yul\":356:358   */\n      0x20\n        /* \"#utility.yul\":341:359   */\n      add\n        /* \"\\xe5\\xae\\x9a\\xe6\\x81\\xaf\\xe7\\x9f\\xbf\\xe6\\xb1\\xa0-\\xe8\\xbf\\x9b\\xe9\\x98\\xb6.sol\":989:1006  uint public ratio */\n      tag_11\n        /* \"#utility.yul\":222:399   */\n      jump\n        /* \"\\xe5\\xae\\x9a\\xe6\\x81\\xaf\\xe7\\x9f\\xbf\\xe6\\xb1\\xa0-\\xe8\\xbf\\x9b\\xe9\\x98\\xb6.sol\":1599:1639  mapping(address => User) public User_Map */\n    tag_5:\n      tag_17\n      tag_18\n      calldatasize\n      0x04\n      tag_19\n      jump\t// in\n    tag_18:\n      mstore(0x20, 0x05)\n      0x00\n      swap1\n      dup2\n      mstore\n      0x40\n      swap1\n      keccak256\n      dup1\n      sload\n      0x01\n      dup3\n      add\n      sload\n      0x02\n      dup4\n      add\n      sload\n      0x03\n      dup5\n      add\n      sload\n      0x04\n      swap1\n      swap5\n      add\n      sload\n      swap3\n      swap4\n      swap2\n      swap3\n      swap1\n      swap2\n      swap1\n      dup6\n      jump\n    tag_17:\n      0x40\n      dup1\n      mload\n        /* \"#utility.yul\":954:979   */\n      swap6\n      dup7\n      mstore\n        /* \"#utility.yul\":1010:1012   */\n      0x20\n        /* \"#utility.yul\":995:1013   */\n      dup7\n      add\n        /* \"#utility.yul\":988:1022   */\n      swap5\n      swap1\n      swap5\n      mstore\n        /* \"#utility.yul\":1038:1056   */\n      swap3\n      dup5\n      add\n        /* \"#utility.yul\":1031:1065   */\n      swap2\n      swap1\n      swap2\n      mstore\n        /* \"#utility.yul\":1096:1098   */\n      0x60\n        /* \"#utility.yul\":1081:1099   */\n      dup4\n      add\n        /* \"#utility.yul\":1074:1108   */\n      mstore\n        /* \"#utility.yul\":1139:1142   */\n      0x80\n        /* \"#utility.yul\":1124:1143   */\n      dup3\n      add\n        /* \"#utility.yul\":1117:1152   */\n      mstore\n        /* \"#utility.yul\":941:944   */\n      0xa0\n        /* \"#utility.yul\":926:945   */\n      add\n        /* \"\\xe5\\xae\\x9a\\xe6\\x81\\xaf\\xe7\\x9f\\xbf\\xe6\\xb1\\xa0-\\xe8\\xbf\\x9b\\xe9\\x98\\xb6.sol\":1599:1639  mapping(address => User) public User_Map */\n      tag_11\n        /* \"#utility.yul\":695:1158   */\n      jump\n        /* \"\\xe5\\xae\\x9a\\xe6\\x81\\xaf\\xe7\\x9f\\xbf\\xe6\\xb1\\xa0-\\xe8\\xbf\\x9b\\xe9\\x98\\xb6.sol\":1197:1217  address public owner */\n    tag_6:\n      sload(0x04)\n      tag_9\n      swap1\n      sub(shl(0xa0, 0x01), 0x01)\n      and\n      dup2\n      jump\n        /* \"\\xe5\\xae\\x9a\\xe6\\x81\\xaf\\xe7\\x9f\\xbf\\xe6\\xb1\\xa0-\\xe8\\xbf\\x9b\\xe9\\x98\\xb6.sol\":1076:1101  address public staketoken */\n    tag_7:\n      sload(0x01)\n      tag_9\n      swap1\n      sub(shl(0xa0, 0x01), 0x01)\n      and\n      dup2\n      jump\n        /* \"\\xe5\\xae\\x9a\\xe6\\x81\\xaf\\xe7\\x9f\\xbf\\xe6\\xb1\\xa0-\\xe8\\xbf\\x9b\\xe9\\x98\\xb6.sol\":1168:1190  uint public staketotal */\n    tag_8:\n      tag_13\n      sload(0x03)\n      dup2\n      jump\n        /* \"#utility.yul\":404:690   */\n    tag_19:\n        /* \"#utility.yul\":463:469   */\n      0x00\n        /* \"#utility.yul\":516:518   */\n      0x20\n        /* \"#utility.yul\":504:513   */\n      dup3\n        /* \"#utility.yul\":495:502   */\n      dup5\n        /* \"#utility.yul\":491:514   */\n      sub\n        /* \"#utility.yul\":487:519   */\n      slt\n        /* \"#utility.yul\":484:536   */\n      iszero\n      tag_36\n      jumpi\n        /* \"#utility.yul\":532:533   */\n      0x00\n        /* \"#utility.yul\":529:530   */\n      dup1\n        /* \"#utility.yul\":522:534   */\n      revert\n        /* \"#utility.yul\":484:536   */\n    tag_36:\n        /* \"#utility.yul\":558:581   */\n      dup2\n      calldataload\n      sub(shl(0xa0, 0x01), 0x01)\n        /* \"#utility.yul\":610:641   */\n      dup2\n      and\n        /* \"#utility.yul\":600:642   */\n      dup2\n      eq\n        /* \"#utility.yul\":590:660   */\n      tag_37\n      jumpi\n        /* \"#utility.yul\":656:657   */\n      0x00\n        /* \"#utility.yul\":653:654   */\n      dup1\n        /* \"#utility.yul\":646:658   */\n      revert\n        /* \"#utility.yul\":590:660   */\n    tag_37:\n        /* \"#utility.yul\":679:684   */\n      swap4\n        /* \"#utility.yul\":404:690   */\n      swap3\n      pop\n      pop\n      pop\n      jump\t// out\n\n    auxdata: 0xa264697066735822122000093a4d981195064370c125ccf3b7b39fb8e6af9e2e3f567b1b0fd6f413a7bc64736f6c634300080f0033\n}\n",
				"bytecode": {
					"linkReferences": {},
					"object": "608060405234801561001057600080fd5b506101a8806100206000396000f3fe608060405234801561001057600080fd5b50600436106100625760003560e01c80636dff132e1461006757806371ca337d146100975780638c93ecff146100ae5780638da5cb5b14610113578063dab2997b14610126578063e822191714610139575b600080fd5b60025461007a906001600160a01b031681565b6040516001600160a01b0390911681526020015b60405180910390f35b6100a060005481565b60405190815260200161008e565b6100eb6100bc366004610142565b600560205260009081526040902080546001820154600283015460038401546004909401549293919290919085565b604080519586526020860194909452928401919091526060830152608082015260a00161008e565b60045461007a906001600160a01b031681565b60015461007a906001600160a01b031681565b6100a060035481565b60006020828403121561015457600080fd5b81356001600160a01b038116811461016b57600080fd5b939250505056fea264697066735822122000093a4d981195064370c125ccf3b7b39fb8e6af9e2e3f567b1b0fd6f413a7bc64736f6c634300080f0033",
					"opcodes": "PUSH1 0x80 PUSH1 0x40 MSTORE CALLVALUE DUP1 ISZERO PUSH2 0x10 JUMPI PUSH1 0x0 DUP1 REVERT JUMPDEST POP PUSH2 0x1A8 DUP1 PUSH2 0x20 PUSH1 0x0 CODECOPY PUSH1 0x0 RETURN INVALID PUSH1 0x80 PUSH1 0x40 MSTORE CALLVALUE DUP1 ISZERO PUSH2 0x10 JUMPI PUSH1 0x0 DUP1 REVERT JUMPDEST POP PUSH1 0x4 CALLDATASIZE LT PUSH2 0x62 JUMPI PUSH1 0x0 CALLDATALOAD PUSH1 0xE0 SHR DUP1 PUSH4 0x6DFF132E EQ PUSH2 0x67 JUMPI DUP1 PUSH4 0x71CA337D EQ PUSH2 0x97 JUMPI DUP1 PUSH4 0x8C93ECFF EQ PUSH2 0xAE JUMPI DUP1 PUSH4 0x8DA5CB5B EQ PUSH2 0x113 JUMPI DUP1 PUSH4 0xDAB2997B EQ PUSH2 0x126 JUMPI DUP1 PUSH4 0xE8221917 EQ PUSH2 0x139 JUMPI JUMPDEST PUSH1 0x0 DUP1 REVERT JUMPDEST PUSH1 0x2 SLOAD PUSH2 0x7A SWAP1 PUSH1 0x1 PUSH1 0x1 PUSH1 0xA0 SHL SUB AND DUP2 JUMP JUMPDEST PUSH1 0x40 MLOAD PUSH1 0x1 PUSH1 0x1 PUSH1 0xA0 SHL SUB SWAP1 SWAP2 AND DUP2 MSTORE PUSH1 0x20 ADD JUMPDEST PUSH1 0x40 MLOAD DUP1 SWAP2 SUB SWAP1 RETURN JUMPDEST PUSH2 0xA0 PUSH1 0x0 SLOAD DUP2 JUMP JUMPDEST PUSH1 0x40 MLOAD SWAP1 DUP2 MSTORE PUSH1 0x20 ADD PUSH2 0x8E JUMP JUMPDEST PUSH2 0xEB PUSH2 0xBC CALLDATASIZE PUSH1 0x4 PUSH2 0x142 JUMP JUMPDEST PUSH1 0x5 PUSH1 0x20 MSTORE PUSH1 0x0 SWAP1 DUP2 MSTORE PUSH1 0x40 SWAP1 KECCAK256 DUP1 SLOAD PUSH1 0x1 DUP3 ADD SLOAD PUSH1 0x2 DUP4 ADD SLOAD PUSH1 0x3 DUP5 ADD SLOAD PUSH1 0x4 SWAP1 SWAP5 ADD SLOAD SWAP3 SWAP4 SWAP2 SWAP3 SWAP1 SWAP2 SWAP1 DUP6 JUMP JUMPDEST PUSH1 0x40 DUP1 MLOAD SWAP6 DUP7 MSTORE PUSH1 0x20 DUP7 ADD SWAP5 SWAP1 SWAP5 MSTORE SWAP3 DUP5 ADD SWAP2 SWAP1 SWAP2 MSTORE PUSH1 0x60 DUP4 ADD MSTORE PUSH1 0x80 DUP3 ADD MSTORE PUSH1 0xA0 ADD PUSH2 0x8E JUMP JUMPDEST PUSH1 0x4 SLOAD PUSH2 0x7A SWAP1 PUSH1 0x1 PUSH1 0x1 PUSH1 0xA0 SHL SUB AND DUP2 JUMP JUMPDEST PUSH1 0x1 SLOAD PUSH2 0x7A SWAP1 PUSH1 0x1 PUSH1 0x1 PUSH1 0xA0 SHL SUB AND DUP2 JUMP JUMPDEST PUSH2 0xA0 PUSH1 0x3 SLOAD DUP2 JUMP JUMPDEST PUSH1 0x0 PUSH1 0x20 DUP3 DUP5 SUB SLT ISZERO PUSH2 0x154 JUMPI PUSH1 0x0 DUP1 REVERT JUMPDEST DUP2 CALLDATALOAD PUSH1 0x1 PUSH1 0x1 PUSH1 0xA0 SHL SUB DUP2 AND DUP2 EQ PUSH2 0x16B JUMPI PUSH1 0x0 DUP1 REVERT JUMPDEST SWAP4 SWAP3 POP POP POP JUMP INVALID LOG2 PUSH5 0x6970667358 0x22 SLT KECCAK256 STOP MULMOD GASPRICE 0x4D SWAP9 GT SWAP6 MOD NUMBER PUSH17 0xC125CCF3B7B39FB8E6AF9E2E3F567B1B0F 0xD6 DELEGATECALL SGT 0xA7 0xBC PUSH5 0x736F6C6343 STOP ADDMOD 0xF STOP CALLER "
				},
				"gasEstimates": {
					"creation": {
						"codeDepositCost": "84800",
						"executionCost": "135",
						"totalCost": "84935"
					},
					"external": {
						"User_Map(address)": "11050",
						"owner()": "2370",
						"ratio()": "2295",
						"rewardtoken()": "2304",
						"staketoken()": "2392",
						"staketotal()": "2383"
					}
				},
				"methodIdentifiers": {
					"User_Map(address)": "8c93ecff",
					"owner()": "8da5cb5b",
					"ratio()": "71ca337d",
					"rewardtoken()": "6dff132e",
					"staketoken()": "dab2997b",
					"staketotal()": "e8221917"
				}
			},
			"storageLayout": {
				"storage": [
					{
						"astId": 799,
						"contract": "定息矿池-进阶.sol:StakeContract",
						"label": "ratio",
						"offset": 0,
						"slot": "0",
						"type": "t_uint256"
					},
					{
						"astId": 801,
						"contract": "定息矿池-进阶.sol:StakeContract",
						"label": "staketoken",
						"offset": 0,
						"slot": "1",
						"type": "t_address"
					},
					{
						"astId": 803,
						"contract": "定息矿池-进阶.sol:StakeContract",
						"label": "rewardtoken",
						"offset": 0,
						"slot": "2",
						"type": "t_address"
					},
					{
						"astId": 805,
						"contract": "定息矿池-进阶.sol:StakeContract",
						"label": "staketotal",
						"offset": 0,
						"slot": "3",
						"type": "t_uint256"
					},
					{
						"astId": 807,
						"contract": "定息矿池-进阶.sol:StakeContract",
						"label": "owner",
						"offset": 0,
						"slot": "4",
						"type": "t_address"
					},
					{
						"astId": 823,
						"contract": "定息矿池-进阶.sol:StakeContract",
						"label": "User_Map",
						"offset": 0,
						"slot": "5",
						"type": "t_mapping(t_address,t_struct(User)818_storage)"
					}
				],
				"types": {
					"t_address": {
						"encoding": "inplace",
						"label": "address",
						"numberOfBytes": "20"
					},
					"t_mapping(t_address,t_struct(User)818_storage)": {
						"encoding": "mapping",
						"key": "t_address",
						"label": "mapping(address => struct StakeContract.User)",
						"numberOfBytes": "32",
						"value": "t_struct(User)818_storage"
					},
					"t_struct(User)818_storage": {
						"encoding": "inplace",
						"label": "struct StakeContract.User",
						"members": [
							{
								"astId": 809,
								"contract": "定息矿池-进阶.sol:StakeContract",
								"label": "stakeNumber",
								"offset": 0,
								"slot": "0",
								"type": "t_uint256"
							},
							{
								"astId": 811,
								"contract": "定息矿池-进阶.sol:StakeContract",
								"label": "last_Stake_Time",
								"offset": 0,
								"slot": "1",
								"type": "t_uint256"
							},
							{
								"astId": 813,
								"contract": "定息矿池-进阶.sol:StakeContract",
								"label": "last_totoken_ratio",
								"offset": 0,
								"slot": "2",
								"type": "t_uint256"
							},
							{
								"astId": 815,
								"contract": "定息矿池-进阶.sol:StakeContract",
								"label": "whole_ratio",
								"offset": 0,
								"slot": "3",
								"type": "t_uint256"
							},
							{
								"astId": 817,
								"contract": "定息矿池-进阶.sol:StakeContract",
								"label": "last_totoken_Time",
								"offset": 0,
								"slot": "4",
								"type": "t_uint256"
							}
						],
						"numberOfBytes": "160"
					},
					"t_uint256": {
						"encoding": "inplace",
						"label": "uint256",
						"numberOfBytes": "32"
					}
				}
			},
			"userdoc": {
				"kind": "user",
				"methods": {},
				"version": 1
			}
		}
	}
}