{
	"自己写个矿池,定息矿池.sol": {
		"StakeContract": {
			"abi": [
				{
					"inputs": [
						{
							"internalType": "address",
							"name": "_staketoken",
							"type": "address"
						},
						{
							"internalType": "address",
							"name": "_totoken",
							"type": "address"
						}
					],
					"stateMutability": "nonpayable",
					"type": "constructor"
				},
				{
					"anonymous": false,
					"inputs": [
						{
							"indexed": true,
							"internalType": "address",
							"name": "owner",
							"type": "address"
						},
						{
							"indexed": true,
							"internalType": "address",
							"name": "spender",
							"type": "address"
						},
						{
							"indexed": false,
							"internalType": "uint256",
							"name": "amout",
							"type": "uint256"
						}
					],
					"name": "Approveal",
					"type": "event"
				},
				{
					"anonymous": false,
					"inputs": [
						{
							"indexed": true,
							"internalType": "address",
							"name": "from",
							"type": "address"
						},
						{
							"indexed": true,
							"internalType": "address",
							"name": "to",
							"type": "address"
						},
						{
							"indexed": false,
							"internalType": "uint256",
							"name": "amout",
							"type": "uint256"
						}
					],
					"name": "Trasfer",
					"type": "event"
				},
				{
					"anonymous": false,
					"inputs": [
						{
							"indexed": true,
							"internalType": "address",
							"name": "to",
							"type": "address"
						},
						{
							"indexed": false,
							"internalType": "uint256",
							"name": "amout",
							"type": "uint256"
						}
					],
					"name": "transfer",
					"type": "event"
				},
				{
					"inputs": [
						{
							"internalType": "uint256",
							"name": "_amount",
							"type": "uint256"
						}
					],
					"name": "Stake",
					"outputs": [
						{
							"internalType": "bool",
							"name": "",
							"type": "bool"
						}
					],
					"stateMutability": "nonpayable",
					"type": "function"
				},
				{
					"inputs": [
						{
							"internalType": "address",
							"name": "",
							"type": "address"
						}
					],
					"name": "User_Map",
					"outputs": [
						{
							"internalType": "uint256",
							"name": "stakeNumber",
							"type": "uint256"
						},
						{
							"internalType": "uint256",
							"name": "last_Stake_Time",
							"type": "uint256"
						},
						{
							"internalType": "uint256",
							"name": "last_totoken_ratio",
							"type": "uint256"
						},
						{
							"internalType": "uint256",
							"name": "whole_ratio",
							"type": "uint256"
						},
						{
							"internalType": "uint256",
							"name": "last_totoken_Time",
							"type": "uint256"
						}
					],
					"stateMutability": "view",
					"type": "function"
				},
				{
					"inputs": [],
					"name": "harvestwithDraw",
					"outputs": [
						{
							"internalType": "bool",
							"name": "",
							"type": "bool"
						}
					],
					"stateMutability": "nonpayable",
					"type": "function"
				},
				{
					"inputs": [],
					"name": "lastTotokenRatio",
					"outputs": [
						{
							"internalType": "uint256",
							"name": "",
							"type": "uint256"
						}
					],
					"stateMutability": "view",
					"type": "function"
				},
				{
					"inputs": [],
					"name": "newTotokenRatio",
					"outputs": [
						{
							"internalType": "uint256",
							"name": "",
							"type": "uint256"
						}
					],
					"stateMutability": "view",
					"type": "function"
				},
				{
					"inputs": [],
					"name": "owner",
					"outputs": [
						{
							"internalType": "address",
							"name": "",
							"type": "address"
						}
					],
					"stateMutability": "view",
					"type": "function"
				},
				{
					"inputs": [],
					"name": "ratio",
					"outputs": [
						{
							"internalType": "uint256",
							"name": "",
							"type": "uint256"
						}
					],
					"stateMutability": "view",
					"type": "function"
				},
				{
					"inputs": [
						{
							"internalType": "uint256",
							"name": "_ratio",
							"type": "uint256"
						}
					],
					"name": "setRatio",
					"outputs": [],
					"stateMutability": "nonpayable",
					"type": "function"
				},
				{
					"inputs": [],
					"name": "stakeSupple",
					"outputs": [
						{
							"internalType": "uint256",
							"name": "",
							"type": "uint256"
						}
					],
					"stateMutability": "view",
					"type": "function"
				},
				{
					"inputs": [],
					"name": "staketoken",
					"outputs": [
						{
							"internalType": "address",
							"name": "",
							"type": "address"
						}
					],
					"stateMutability": "view",
					"type": "function"
				},
				{
					"inputs": [],
					"name": "totoken",
					"outputs": [
						{
							"internalType": "address",
							"name": "",
							"type": "address"
						}
					],
					"stateMutability": "view",
					"type": "function"
				}
			],
			"devdoc": {
				"kind": "dev",
				"methods": {},
				"version": 1
			},
			"evm": {
				"assembly": "    /* \"\\xe8\\x87\\xaa\\xe5\\xb7\\xb1\\xe5\\x86\\x99\\xe4\\xb8\\xaa\\xe7\\x9f\\xbf\\xe6\\xb1\\xa0,\\xe5\\xae\\x9a\\xe6\\x81\\xaf\\xe7\\x9f\\xbf\\xe6\\xb1\\xa0.sol\":732:5550  contract StakeContract {... */\n  mstore(0x40, 0x80)\n    /* \"\\xe8\\x87\\xaa\\xe5\\xb7\\xb1\\xe5\\x86\\x99\\xe4\\xb8\\xaa\\xe7\\x9f\\xbf\\xe6\\xb1\\xa0,\\xe5\\xae\\x9a\\xe6\\x81\\xaf\\xe7\\x9f\\xbf\\xe6\\xb1\\xa0.sol\":1383:1721  constructor (address _staketoken, address _totoken) {... */\n  callvalue\n  dup1\n  iszero\n  tag_1\n  jumpi\n  0x00\n  dup1\n  revert\ntag_1:\n  pop\n  mload(0x40)\n  sub(codesize, bytecodeSize)\n  dup1\n  bytecodeSize\n  dup4\n  codecopy\n  dup2\n  add\n  0x40\n  dup2\n  swap1\n  mstore\n  tag_2\n  swap2\n  tag_3\n  jump\t// in\ntag_2:\n    /* \"\\xe8\\x87\\xaa\\xe5\\xb7\\xb1\\xe5\\x86\\x99\\xe4\\xb8\\xaa\\xe7\\x9f\\xbf\\xe6\\xb1\\xa0,\\xe5\\xae\\x9a\\xe6\\x81\\xaf\\xe7\\x9f\\xbf\\xe6\\xb1\\xa0.sol\":1446:1451  owner */\n  0x04\n    /* \"\\xe8\\x87\\xaa\\xe5\\xb7\\xb1\\xe5\\x86\\x99\\xe4\\xb8\\xaa\\xe7\\x9f\\xbf\\xe6\\xb1\\xa0,\\xe5\\xae\\x9a\\xe6\\x81\\xaf\\xe7\\x9f\\xbf\\xe6\\xb1\\xa0.sol\":1446:1464  owner = msg.sender */\n  dup1\n  sload\n  not(sub(shl(0xa0, 0x01), 0x01))\n  and\n    /* \"\\xe8\\x87\\xaa\\xe5\\xb7\\xb1\\xe5\\x86\\x99\\xe4\\xb8\\xaa\\xe7\\x9f\\xbf\\xe6\\xb1\\xa0,\\xe5\\xae\\x9a\\xe6\\x81\\xaf\\xe7\\x9f\\xbf\\xe6\\xb1\\xa0.sol\":1454:1464  msg.sender */\n  caller\n    /* \"\\xe8\\x87\\xaa\\xe5\\xb7\\xb1\\xe5\\x86\\x99\\xe4\\xb8\\xaa\\xe7\\x9f\\xbf\\xe6\\xb1\\xa0,\\xe5\\xae\\x9a\\xe6\\x81\\xaf\\xe7\\x9f\\xbf\\xe6\\xb1\\xa0.sol\":1446:1464  owner = msg.sender */\n  or\n  swap1\n  sstore\n  sub(shl(0xa0, 0x01), 0x01)\n    /* \"\\xe8\\x87\\xaa\\xe5\\xb7\\xb1\\xe5\\x86\\x99\\xe4\\xb8\\xaa\\xe7\\x9f\\xbf\\xe6\\xb1\\xa0,\\xe5\\xae\\x9a\\xe6\\x81\\xaf\\xe7\\x9f\\xbf\\xe6\\xb1\\xa0.sol\":1483:1508  _staketoken != address(0) */\n  dup3\n  and\n    /* \"\\xe8\\x87\\xaa\\xe5\\xb7\\xb1\\xe5\\x86\\x99\\xe4\\xb8\\xaa\\xe7\\x9f\\xbf\\xe6\\xb1\\xa0,\\xe5\\xae\\x9a\\xe6\\x81\\xaf\\xe7\\x9f\\xbf\\xe6\\xb1\\xa0.sol\":1475:1528  require(_staketoken != address(0),\"NOT,S 0X ADDRESS\") */\n  tag_6\n  jumpi\n  mload(0x40)\n  shl(0xe5, 0x461bcd)\n  dup2\n  mstore\n    /* \"#utility.yul\":696:698   */\n  0x20\n    /* \"\\xe8\\x87\\xaa\\xe5\\xb7\\xb1\\xe5\\x86\\x99\\xe4\\xb8\\xaa\\xe7\\x9f\\xbf\\xe6\\xb1\\xa0,\\xe5\\xae\\x9a\\xe6\\x81\\xaf\\xe7\\x9f\\xbf\\xe6\\xb1\\xa0.sol\":1475:1528  require(_staketoken != address(0),\"NOT,S 0X ADDRESS\") */\n  0x04\n  dup3\n  add\n    /* \"#utility.yul\":678:699   */\n  mstore\n    /* \"#utility.yul\":735:737   */\n  0x10\n    /* \"#utility.yul\":715:733   */\n  0x24\n  dup3\n  add\n    /* \"#utility.yul\":708:738   */\n  mstore\n  shl(0x80, 0x4e4f542c532030582041444452455353)\n    /* \"#utility.yul\":754:772   */\n  0x44\n  dup3\n  add\n    /* \"#utility.yul\":747:793   */\n  mstore\n    /* \"#utility.yul\":810:828   */\n  0x64\n  add\n    /* \"\\xe8\\x87\\xaa\\xe5\\xb7\\xb1\\xe5\\x86\\x99\\xe4\\xb8\\xaa\\xe7\\x9f\\xbf\\xe6\\xb1\\xa0,\\xe5\\xae\\x9a\\xe6\\x81\\xaf\\xe7\\x9f\\xbf\\xe6\\xb1\\xa0.sol\":1475:1528  require(_staketoken != address(0),\"NOT,S 0X ADDRESS\") */\ntag_7:\n  mload(0x40)\n  dup1\n  swap2\n  sub\n  swap1\n  revert\ntag_6:\n  sub(shl(0xa0, 0x01), 0x01)\n    /* \"\\xe8\\x87\\xaa\\xe5\\xb7\\xb1\\xe5\\x86\\x99\\xe4\\xb8\\xaa\\xe7\\x9f\\xbf\\xe6\\xb1\\xa0,\\xe5\\xae\\x9a\\xe6\\x81\\xaf\\xe7\\x9f\\xbf\\xe6\\xb1\\xa0.sol\":1547:1569  _totoken != address(0) */\n  dup2\n  and\n    /* \"\\xe8\\x87\\xaa\\xe5\\xb7\\xb1\\xe5\\x86\\x99\\xe4\\xb8\\xaa\\xe7\\x9f\\xbf\\xe6\\xb1\\xa0,\\xe5\\xae\\x9a\\xe6\\x81\\xaf\\xe7\\x9f\\xbf\\xe6\\xb1\\xa0.sol\":1539:1589  require(_totoken != address(0),\"NOT,S 0X ADDRESS\") */\n  tag_9\n  jumpi\n  mload(0x40)\n  shl(0xe5, 0x461bcd)\n  dup2\n  mstore\n    /* \"#utility.yul\":696:698   */\n  0x20\n    /* \"\\xe8\\x87\\xaa\\xe5\\xb7\\xb1\\xe5\\x86\\x99\\xe4\\xb8\\xaa\\xe7\\x9f\\xbf\\xe6\\xb1\\xa0,\\xe5\\xae\\x9a\\xe6\\x81\\xaf\\xe7\\x9f\\xbf\\xe6\\xb1\\xa0.sol\":1539:1589  require(_totoken != address(0),\"NOT,S 0X ADDRESS\") */\n  0x04\n  dup3\n  add\n    /* \"#utility.yul\":678:699   */\n  mstore\n    /* \"#utility.yul\":735:737   */\n  0x10\n    /* \"#utility.yul\":715:733   */\n  0x24\n  dup3\n  add\n    /* \"#utility.yul\":708:738   */\n  mstore\n  shl(0x80, 0x4e4f542c532030582041444452455353)\n    /* \"#utility.yul\":754:772   */\n  0x44\n  dup3\n  add\n    /* \"#utility.yul\":747:793   */\n  mstore\n    /* \"#utility.yul\":810:828   */\n  0x64\n  add\n    /* \"\\xe8\\x87\\xaa\\xe5\\xb7\\xb1\\xe5\\x86\\x99\\xe4\\xb8\\xaa\\xe7\\x9f\\xbf\\xe6\\xb1\\xa0,\\xe5\\xae\\x9a\\xe6\\x81\\xaf\\xe7\\x9f\\xbf\\xe6\\xb1\\xa0.sol\":1539:1589  require(_totoken != address(0),\"NOT,S 0X ADDRESS\") */\n  tag_7\n    /* \"#utility.yul\":494:834   */\n  jump\n    /* \"\\xe8\\x87\\xaa\\xe5\\xb7\\xb1\\xe5\\x86\\x99\\xe4\\xb8\\xaa\\xe7\\x9f\\xbf\\xe6\\xb1\\xa0,\\xe5\\xae\\x9a\\xe6\\x81\\xaf\\xe7\\x9f\\xbf\\xe6\\xb1\\xa0.sol\":1539:1589  require(_totoken != address(0),\"NOT,S 0X ADDRESS\") */\ntag_9:\n    /* \"\\xe8\\x87\\xaa\\xe5\\xb7\\xb1\\xe5\\x86\\x99\\xe4\\xb8\\xaa\\xe7\\x9f\\xbf\\xe6\\xb1\\xa0,\\xe5\\xae\\x9a\\xe6\\x81\\xaf\\xe7\\x9f\\xbf\\xe6\\xb1\\xa0.sol\":1623:1631  _totoken */\n  dup1\n  sub(shl(0xa0, 0x01), 0x01)\n    /* \"\\xe8\\x87\\xaa\\xe5\\xb7\\xb1\\xe5\\x86\\x99\\xe4\\xb8\\xaa\\xe7\\x9f\\xbf\\xe6\\xb1\\xa0,\\xe5\\xae\\x9a\\xe6\\x81\\xaf\\xe7\\x9f\\xbf\\xe6\\xb1\\xa0.sol\":1608:1631  _staketoken == _totoken */\n  and\n    /* \"\\xe8\\x87\\xaa\\xe5\\xb7\\xb1\\xe5\\x86\\x99\\xe4\\xb8\\xaa\\xe7\\x9f\\xbf\\xe6\\xb1\\xa0,\\xe5\\xae\\x9a\\xe6\\x81\\xaf\\xe7\\x9f\\xbf\\xe6\\xb1\\xa0.sol\":1608:1619  _staketoken */\n  dup3\n  sub(shl(0xa0, 0x01), 0x01)\n    /* \"\\xe8\\x87\\xaa\\xe5\\xb7\\xb1\\xe5\\x86\\x99\\xe4\\xb8\\xaa\\xe7\\x9f\\xbf\\xe6\\xb1\\xa0,\\xe5\\xae\\x9a\\xe6\\x81\\xaf\\xe7\\x9f\\xbf\\xe6\\xb1\\xa0.sol\":1608:1631  _staketoken == _totoken */\n  and\n  eq\n    /* \"\\xe8\\x87\\xaa\\xe5\\xb7\\xb1\\xe5\\x86\\x99\\xe4\\xb8\\xaa\\xe7\\x9f\\xbf\\xe6\\xb1\\xa0,\\xe5\\xae\\x9a\\xe6\\x81\\xaf\\xe7\\x9f\\xbf\\xe6\\xb1\\xa0.sol\":1600:1649  require(_staketoken == _totoken,\"NEED agreement\") */\n  tag_11\n  jumpi\n  mload(0x40)\n  shl(0xe5, 0x461bcd)\n  dup2\n  mstore\n    /* \"#utility.yul\":1041:1043   */\n  0x20\n    /* \"\\xe8\\x87\\xaa\\xe5\\xb7\\xb1\\xe5\\x86\\x99\\xe4\\xb8\\xaa\\xe7\\x9f\\xbf\\xe6\\xb1\\xa0,\\xe5\\xae\\x9a\\xe6\\x81\\xaf\\xe7\\x9f\\xbf\\xe6\\xb1\\xa0.sol\":1600:1649  require(_staketoken == _totoken,\"NEED agreement\") */\n  0x04\n  dup3\n  add\n    /* \"#utility.yul\":1023:1044   */\n  mstore\n    /* \"#utility.yul\":1080:1082   */\n  0x0e\n    /* \"#utility.yul\":1060:1078   */\n  0x24\n  dup3\n  add\n    /* \"#utility.yul\":1053:1083   */\n  mstore\n  shl(0x92, 0x13915151081859dc99595b595b9d)\n    /* \"#utility.yul\":1099:1117   */\n  0x44\n  dup3\n  add\n    /* \"#utility.yul\":1092:1136   */\n  mstore\n    /* \"#utility.yul\":1153:1171   */\n  0x64\n  add\n    /* \"\\xe8\\x87\\xaa\\xe5\\xb7\\xb1\\xe5\\x86\\x99\\xe4\\xb8\\xaa\\xe7\\x9f\\xbf\\xe6\\xb1\\xa0,\\xe5\\xae\\x9a\\xe6\\x81\\xaf\\xe7\\x9f\\xbf\\xe6\\xb1\\xa0.sol\":1600:1649  require(_staketoken == _totoken,\"NEED agreement\") */\n  tag_7\n    /* \"#utility.yul\":839:1177   */\n  jump\n    /* \"\\xe8\\x87\\xaa\\xe5\\xb7\\xb1\\xe5\\x86\\x99\\xe4\\xb8\\xaa\\xe7\\x9f\\xbf\\xe6\\xb1\\xa0,\\xe5\\xae\\x9a\\xe6\\x81\\xaf\\xe7\\x9f\\xbf\\xe6\\xb1\\xa0.sol\":1600:1649  require(_staketoken == _totoken,\"NEED agreement\") */\ntag_11:\n    /* \"\\xe8\\x87\\xaa\\xe5\\xb7\\xb1\\xe5\\x86\\x99\\xe4\\xb8\\xaa\\xe7\\x9f\\xbf\\xe6\\xb1\\xa0,\\xe5\\xae\\x9a\\xe6\\x81\\xaf\\xe7\\x9f\\xbf\\xe6\\xb1\\xa0.sol\":1660:1670  staketoken */\n  0x01\n    /* \"\\xe8\\x87\\xaa\\xe5\\xb7\\xb1\\xe5\\x86\\x99\\xe4\\xb8\\xaa\\xe7\\x9f\\xbf\\xe6\\xb1\\xa0,\\xe5\\xae\\x9a\\xe6\\x81\\xaf\\xe7\\x9f\\xbf\\xe6\\xb1\\xa0.sol\":1660:1684  staketoken = _staketoken */\n  dup1\n  sload\n  sub(shl(0xa0, 0x01), 0x01)\n  swap4\n  dup5\n  and\n  not(sub(shl(0xa0, 0x01), 0x01))\n  swap2\n  dup3\n  and\n  or\n  swap1\n  swap2\n  sstore\n    /* \"\\xe8\\x87\\xaa\\xe5\\xb7\\xb1\\xe5\\x86\\x99\\xe4\\xb8\\xaa\\xe7\\x9f\\xbf\\xe6\\xb1\\xa0,\\xe5\\xae\\x9a\\xe6\\x81\\xaf\\xe7\\x9f\\xbf\\xe6\\xb1\\xa0.sol\":1695:1702  totoken */\n  0x02\n    /* \"\\xe8\\x87\\xaa\\xe5\\xb7\\xb1\\xe5\\x86\\x99\\xe4\\xb8\\xaa\\xe7\\x9f\\xbf\\xe6\\xb1\\xa0,\\xe5\\xae\\x9a\\xe6\\x81\\xaf\\xe7\\x9f\\xbf\\xe6\\xb1\\xa0.sol\":1695:1713  totoken = _totoken */\n  dup1\n  sload\n  swap3\n  swap1\n  swap4\n  and\n  swap2\n  and\n  or\n  swap1\n  sstore\n    /* \"\\xe8\\x87\\xaa\\xe5\\xb7\\xb1\\xe5\\x86\\x99\\xe4\\xb8\\xaa\\xe7\\x9f\\xbf\\xe6\\xb1\\xa0,\\xe5\\xae\\x9a\\xe6\\x81\\xaf\\xe7\\x9f\\xbf\\xe6\\xb1\\xa0.sol\":732:5550  contract StakeContract {... */\n  jump(tag_16)\n    /* \"#utility.yul\":14:191   */\ntag_15:\n    /* \"#utility.yul\":93:106   */\n  dup1\n  mload\n  sub(shl(0xa0, 0x01), 0x01)\n    /* \"#utility.yul\":135:166   */\n  dup2\n  and\n    /* \"#utility.yul\":125:167   */\n  dup2\n  eq\n    /* \"#utility.yul\":115:185   */\n  tag_18\n  jumpi\n    /* \"#utility.yul\":181:182   */\n  0x00\n    /* \"#utility.yul\":178:179   */\n  dup1\n    /* \"#utility.yul\":171:183   */\n  revert\n    /* \"#utility.yul\":115:185   */\ntag_18:\n    /* \"#utility.yul\":14:191   */\n  swap2\n  swap1\n  pop\n  jump\t// out\n    /* \"#utility.yul\":196:489   */\ntag_3:\n    /* \"#utility.yul\":275:281   */\n  0x00\n    /* \"#utility.yul\":283:289   */\n  dup1\n    /* \"#utility.yul\":336:338   */\n  0x40\n    /* \"#utility.yul\":324:333   */\n  dup4\n    /* \"#utility.yul\":315:322   */\n  dup6\n    /* \"#utility.yul\":311:334   */\n  sub\n    /* \"#utility.yul\":307:339   */\n  slt\n    /* \"#utility.yul\":304:356   */\n  iszero\n  tag_20\n  jumpi\n    /* \"#utility.yul\":352:353   */\n  0x00\n    /* \"#utility.yul\":349:350   */\n  dup1\n    /* \"#utility.yul\":342:354   */\n  revert\n    /* \"#utility.yul\":304:356   */\ntag_20:\n    /* \"#utility.yul\":375:415   */\n  tag_21\n    /* \"#utility.yul\":405:414   */\n  dup4\n    /* \"#utility.yul\":375:415   */\n  tag_15\n  jump\t// in\ntag_21:\n    /* \"#utility.yul\":365:415   */\n  swap2\n  pop\n    /* \"#utility.yul\":434:483   */\n  tag_22\n    /* \"#utility.yul\":479:481   */\n  0x20\n    /* \"#utility.yul\":468:477   */\n  dup5\n    /* \"#utility.yul\":464:482   */\n  add\n    /* \"#utility.yul\":434:483   */\n  tag_15\n  jump\t// in\ntag_22:\n    /* \"#utility.yul\":424:483   */\n  swap1\n  pop\n    /* \"#utility.yul\":196:489   */\n  swap3\n  pop\n  swap3\n  swap1\n  pop\n  jump\t// out\n    /* \"#utility.yul\":839:1177   */\ntag_16:\n    /* \"\\xe8\\x87\\xaa\\xe5\\xb7\\xb1\\xe5\\x86\\x99\\xe4\\xb8\\xaa\\xe7\\x9f\\xbf\\xe6\\xb1\\xa0,\\xe5\\xae\\x9a\\xe6\\x81\\xaf\\xe7\\x9f\\xbf\\xe6\\xb1\\xa0.sol\":732:5550  contract StakeContract {... */\n  dataSize(sub_0)\n  dup1\n  dataOffset(sub_0)\n  0x00\n  codecopy\n  0x00\n  return\nstop\n\nsub_0: assembly {\n        /* \"\\xe8\\x87\\xaa\\xe5\\xb7\\xb1\\xe5\\x86\\x99\\xe4\\xb8\\xaa\\xe7\\x9f\\xbf\\xe6\\xb1\\xa0,\\xe5\\xae\\x9a\\xe6\\x81\\xaf\\xe7\\x9f\\xbf\\xe6\\xb1\\xa0.sol\":732:5550  contract StakeContract {... */\n      mstore(0x40, 0x80)\n      callvalue\n      dup1\n      iszero\n      tag_1\n      jumpi\n      0x00\n      dup1\n      revert\n    tag_1:\n      pop\n      jumpi(tag_2, lt(calldatasize, 0x04))\n      shr(0xe0, calldataload(0x00))\n      dup1\n      0x8c93ecff\n      gt\n      tag_14\n      jumpi\n      dup1\n      0x8c93ecff\n      eq\n      tag_8\n      jumpi\n      dup1\n      0x8da5cb5b\n      eq\n      tag_9\n      jumpi\n      dup1\n      0xb2237ba3\n      eq\n      tag_10\n      jumpi\n      dup1\n      0xd942727f\n      eq\n      tag_11\n      jumpi\n      dup1\n      0xdab2997b\n      eq\n      tag_12\n      jumpi\n      dup1\n      0xfb5bca7a\n      eq\n      tag_13\n      jumpi\n      0x00\n      dup1\n      revert\n    tag_14:\n      dup1\n      0x227a473b\n      eq\n      tag_3\n      jumpi\n      dup1\n      0x2c46502d\n      eq\n      tag_4\n      jumpi\n      dup1\n      0x529aca49\n      eq\n      tag_5\n      jumpi\n      dup1\n      0x5e9f4435\n      eq\n      tag_6\n      jumpi\n      dup1\n      0x71ca337d\n      eq\n      tag_7\n      jumpi\n    tag_2:\n      0x00\n      dup1\n      revert\n        /* \"\\xe8\\x87\\xaa\\xe5\\xb7\\xb1\\xe5\\x86\\x99\\xe4\\xb8\\xaa\\xe7\\x9f\\xbf\\xe6\\xb1\\xa0,\\xe5\\xae\\x9a\\xe6\\x81\\xaf\\xe7\\x9f\\xbf\\xe6\\xb1\\xa0.sol\":2034:2731  function Stake(uint _amount) public returns (bool){... */\n    tag_3:\n      tag_15\n      tag_16\n      calldatasize\n      0x04\n      tag_17\n      jump\t// in\n    tag_16:\n      tag_18\n      jump\t// in\n    tag_15:\n      mload(0x40)\n        /* \"#utility.yul\":364:378   */\n      swap1\n      iszero\n        /* \"#utility.yul\":357:379   */\n      iszero\n        /* \"#utility.yul\":339:380   */\n      dup2\n      mstore\n        /* \"#utility.yul\":327:329   */\n      0x20\n        /* \"#utility.yul\":312:330   */\n      add\n        /* \"\\xe8\\x87\\xaa\\xe5\\xb7\\xb1\\xe5\\x86\\x99\\xe4\\xb8\\xaa\\xe7\\x9f\\xbf\\xe6\\xb1\\xa0,\\xe5\\xae\\x9a\\xe6\\x81\\xaf\\xe7\\x9f\\xbf\\xe6\\xb1\\xa0.sol\":2034:2731  function Stake(uint _amount) public returns (bool){... */\n    tag_19:\n      mload(0x40)\n      dup1\n      swap2\n      sub\n      swap1\n      return\n        /* \"\\xe8\\x87\\xaa\\xe5\\xb7\\xb1\\xe5\\x86\\x99\\xe4\\xb8\\xaa\\xe7\\x9f\\xbf\\xe6\\xb1\\xa0,\\xe5\\xae\\x9a\\xe6\\x81\\xaf\\xe7\\x9f\\xbf\\xe6\\xb1\\xa0.sol\":849:871  address public totoken */\n    tag_4:\n      sload(0x02)\n      tag_21\n      swap1\n      sub(shl(0xa0, 0x01), 0x01)\n      and\n      dup2\n      jump\n    tag_21:\n      mload(0x40)\n      sub(shl(0xa0, 0x01), 0x01)\n        /* \"#utility.yul\":555:587   */\n      swap1\n      swap2\n      and\n        /* \"#utility.yul\":537:588   */\n      dup2\n      mstore\n        /* \"#utility.yul\":525:527   */\n      0x20\n        /* \"#utility.yul\":510:528   */\n      add\n        /* \"\\xe8\\x87\\xaa\\xe5\\xb7\\xb1\\xe5\\x86\\x99\\xe4\\xb8\\xaa\\xe7\\x9f\\xbf\\xe6\\xb1\\xa0,\\xe5\\xae\\x9a\\xe6\\x81\\xaf\\xe7\\x9f\\xbf\\xe6\\xb1\\xa0.sol\":849:871  address public totoken */\n      tag_19\n        /* \"#utility.yul\":391:594   */\n      jump\n        /* \"\\xe8\\x87\\xaa\\xe5\\xb7\\xb1\\xe5\\x86\\x99\\xe4\\xb8\\xaa\\xe7\\x9f\\xbf\\xe6\\xb1\\xa0,\\xe5\\xae\\x9a\\xe6\\x81\\xaf\\xe7\\x9f\\xbf\\xe6\\xb1\\xa0.sol\":5028:5357  function newTotokenRatio() public view returns (uint) {... */\n    tag_5:\n      tag_25\n      tag_26\n      jump\t// in\n    tag_25:\n      mload(0x40)\n        /* \"#utility.yul\":745:770   */\n      swap1\n      dup2\n      mstore\n        /* \"#utility.yul\":733:735   */\n      0x20\n        /* \"#utility.yul\":718:736   */\n      add\n        /* \"\\xe8\\x87\\xaa\\xe5\\xb7\\xb1\\xe5\\x86\\x99\\xe4\\xb8\\xaa\\xe7\\x9f\\xbf\\xe6\\xb1\\xa0,\\xe5\\xae\\x9a\\xe6\\x81\\xaf\\xe7\\x9f\\xbf\\xe6\\xb1\\xa0.sol\":5028:5357  function newTotokenRatio() public view returns (uint) {... */\n      tag_19\n        /* \"#utility.yul\":599:776   */\n      jump\n        /* \"\\xe8\\x87\\xaa\\xe5\\xb7\\xb1\\xe5\\x86\\x99\\xe4\\xb8\\xaa\\xe7\\x9f\\xbf\\xe6\\xb1\\xa0,\\xe5\\xae\\x9a\\xe6\\x81\\xaf\\xe7\\x9f\\xbf\\xe6\\xb1\\xa0.sol\":5365:5536  function lastTotokenRatio()public view returns(uint) {... */\n    tag_6:\n        /* \"\\xe8\\x87\\xaa\\xe5\\xb7\\xb1\\xe5\\x86\\x99\\xe4\\xb8\\xaa\\xe7\\x9f\\xbf\\xe6\\xb1\\xa0,\\xe5\\xae\\x9a\\xe6\\x81\\xaf\\xe7\\x9f\\xbf\\xe6\\xb1\\xa0.sol\":5463:5473  msg.sender */\n      caller\n        /* \"\\xe8\\x87\\xaa\\xe5\\xb7\\xb1\\xe5\\x86\\x99\\xe4\\xb8\\xaa\\xe7\\x9f\\xbf\\xe6\\xb1\\xa0,\\xe5\\xae\\x9a\\xe6\\x81\\xaf\\xe7\\x9f\\xbf\\xe6\\xb1\\xa0.sol\":5412:5416  uint */\n      0x00\n        /* \"\\xe8\\x87\\xaa\\xe5\\xb7\\xb1\\xe5\\x86\\x99\\xe4\\xb8\\xaa\\xe7\\x9f\\xbf\\xe6\\xb1\\xa0,\\xe5\\xae\\x9a\\xe6\\x81\\xaf\\xe7\\x9f\\xbf\\xe6\\xb1\\xa0.sol\":5454:5474  User_Map[msg.sender] */\n      swap1\n      dup2\n      mstore\n        /* \"\\xe8\\x87\\xaa\\xe5\\xb7\\xb1\\xe5\\x86\\x99\\xe4\\xb8\\xaa\\xe7\\x9f\\xbf\\xe6\\xb1\\xa0,\\xe5\\xae\\x9a\\xe6\\x81\\xaf\\xe7\\x9f\\xbf\\xe6\\xb1\\xa0.sol\":5454:5462  User_Map */\n      0x05\n        /* \"\\xe8\\x87\\xaa\\xe5\\xb7\\xb1\\xe5\\x86\\x99\\xe4\\xb8\\xaa\\xe7\\x9f\\xbf\\xe6\\xb1\\xa0,\\xe5\\xae\\x9a\\xe6\\x81\\xaf\\xe7\\x9f\\xbf\\xe6\\xb1\\xa0.sol\":5454:5474  User_Map[msg.sender] */\n      0x20\n      mstore\n      0x40\n      swap1\n      keccak256\n        /* \"\\xe8\\x87\\xaa\\xe5\\xb7\\xb1\\xe5\\x86\\x99\\xe4\\xb8\\xaa\\xe7\\x9f\\xbf\\xe6\\xb1\\xa0,\\xe5\\xae\\x9a\\xe6\\x81\\xaf\\xe7\\x9f\\xbf\\xe6\\xb1\\xa0.sol\":5454:5493  User_Map[msg.sender].last_totoken_ratio */\n      0x02\n      add\n      sload\n        /* \"\\xe8\\x87\\xaa\\xe5\\xb7\\xb1\\xe5\\x86\\x99\\xe4\\xb8\\xaa\\xe7\\x9f\\xbf\\xe6\\xb1\\xa0,\\xe5\\xae\\x9a\\xe6\\x81\\xaf\\xe7\\x9f\\xbf\\xe6\\xb1\\xa0.sol\":5365:5536  function lastTotokenRatio()public view returns(uint) {... */\n      jump(tag_25)\n        /* \"\\xe8\\x87\\xaa\\xe5\\xb7\\xb1\\xe5\\x86\\x99\\xe4\\xb8\\xaa\\xe7\\x9f\\xbf\\xe6\\xb1\\xa0,\\xe5\\xae\\x9a\\xe6\\x81\\xaf\\xe7\\x9f\\xbf\\xe6\\xb1\\xa0.sol\":793:810  uint public ratio */\n    tag_7:\n      tag_25\n      sload(0x00)\n      dup2\n      jump\n        /* \"\\xe8\\x87\\xaa\\xe5\\xb7\\xb1\\xe5\\x86\\x99\\xe4\\xb8\\xaa\\xe7\\x9f\\xbf\\xe6\\xb1\\xa0,\\xe5\\xae\\x9a\\xe6\\x81\\xaf\\xe7\\x9f\\xbf\\xe6\\xb1\\xa0.sol\":1334:1374  mapping(address => User) public User_Map */\n    tag_8:\n      tag_35\n      tag_36\n      calldatasize\n      0x04\n      tag_37\n      jump\t// in\n    tag_36:\n      mstore(0x20, 0x05)\n      0x00\n      swap1\n      dup2\n      mstore\n      0x40\n      swap1\n      keccak256\n      dup1\n      sload\n      0x01\n      dup3\n      add\n      sload\n      0x02\n      dup4\n      add\n      sload\n      0x03\n      dup5\n      add\n      sload\n      0x04\n      swap1\n      swap5\n      add\n      sload\n      swap3\n      swap4\n      swap2\n      swap3\n      swap1\n      swap2\n      swap1\n      dup6\n      jump\n    tag_35:\n      0x40\n      dup1\n      mload\n        /* \"#utility.yul\":1331:1356   */\n      swap6\n      dup7\n      mstore\n        /* \"#utility.yul\":1387:1389   */\n      0x20\n        /* \"#utility.yul\":1372:1390   */\n      dup7\n      add\n        /* \"#utility.yul\":1365:1399   */\n      swap5\n      swap1\n      swap5\n      mstore\n        /* \"#utility.yul\":1415:1433   */\n      swap3\n      dup5\n      add\n        /* \"#utility.yul\":1408:1442   */\n      swap2\n      swap1\n      swap2\n      mstore\n        /* \"#utility.yul\":1473:1475   */\n      0x60\n        /* \"#utility.yul\":1458:1476   */\n      dup4\n      add\n        /* \"#utility.yul\":1451:1485   */\n      mstore\n        /* \"#utility.yul\":1516:1519   */\n      0x80\n        /* \"#utility.yul\":1501:1520   */\n      dup3\n      add\n        /* \"#utility.yul\":1494:1529   */\n      mstore\n        /* \"#utility.yul\":1318:1321   */\n      0xa0\n        /* \"#utility.yul\":1303:1322   */\n      add\n        /* \"\\xe8\\x87\\xaa\\xe5\\xb7\\xb1\\xe5\\x86\\x99\\xe4\\xb8\\xaa\\xe7\\x9f\\xbf\\xe6\\xb1\\xa0,\\xe5\\xae\\x9a\\xe6\\x81\\xaf\\xe7\\x9f\\xbf\\xe6\\xb1\\xa0.sol\":1334:1374  mapping(address => User) public User_Map */\n      tag_19\n        /* \"#utility.yul\":1072:1535   */\n      jump\n        /* \"\\xe8\\x87\\xaa\\xe5\\xb7\\xb1\\xe5\\x86\\x99\\xe4\\xb8\\xaa\\xe7\\x9f\\xbf\\xe6\\xb1\\xa0,\\xe5\\xae\\x9a\\xe6\\x81\\xaf\\xe7\\x9f\\xbf\\xe6\\xb1\\xa0.sol\":908:928  address public owner */\n    tag_9:\n      sload(0x04)\n      tag_21\n      swap1\n      sub(shl(0xa0, 0x01), 0x01)\n      and\n      dup2\n      jump\n        /* \"\\xe8\\x87\\xaa\\xe5\\xb7\\xb1\\xe5\\x86\\x99\\xe4\\xb8\\xaa\\xe7\\x9f\\xbf\\xe6\\xb1\\xa0,\\xe5\\xae\\x9a\\xe6\\x81\\xaf\\xe7\\x9f\\xbf\\xe6\\xb1\\xa0.sol\":1934:2026  function setRatio(uint _ratio) external onlyOwner {    ... */\n    tag_10:\n      tag_44\n      tag_45\n      calldatasize\n      0x04\n      tag_17\n      jump\t// in\n    tag_45:\n      tag_46\n      jump\t// in\n    tag_44:\n      stop\n        /* \"\\xe8\\x87\\xaa\\xe5\\xb7\\xb1\\xe5\\x86\\x99\\xe4\\xb8\\xaa\\xe7\\x9f\\xbf\\xe6\\xb1\\xa0,\\xe5\\xae\\x9a\\xe6\\x81\\xaf\\xe7\\x9f\\xbf\\xe6\\xb1\\xa0.sol\":878:901  uint public stakeSupple */\n    tag_11:\n      tag_25\n      sload(0x03)\n      dup2\n      jump\n        /* \"\\xe8\\x87\\xaa\\xe5\\xb7\\xb1\\xe5\\x86\\x99\\xe4\\xb8\\xaa\\xe7\\x9f\\xbf\\xe6\\xb1\\xa0,\\xe5\\xae\\x9a\\xe6\\x81\\xaf\\xe7\\x9f\\xbf\\xe6\\xb1\\xa0.sol\":817:842  address public staketoken */\n    tag_12:\n      sload(0x01)\n      tag_21\n      swap1\n      sub(shl(0xa0, 0x01), 0x01)\n      and\n      dup2\n      jump\n        /* \"\\xe8\\x87\\xaa\\xe5\\xb7\\xb1\\xe5\\x86\\x99\\xe4\\xb8\\xaa\\xe7\\x9f\\xbf\\xe6\\xb1\\xa0,\\xe5\\xae\\x9a\\xe6\\x81\\xaf\\xe7\\x9f\\xbf\\xe6\\xb1\\xa0.sol\":2739:3558  function harvestwithDraw() public returns (bool) {... */\n    tag_13:\n      tag_15\n      tag_54\n      jump\t// in\n        /* \"\\xe8\\x87\\xaa\\xe5\\xb7\\xb1\\xe5\\x86\\x99\\xe4\\xb8\\xaa\\xe7\\x9f\\xbf\\xe6\\xb1\\xa0,\\xe5\\xae\\x9a\\xe6\\x81\\xaf\\xe7\\x9f\\xbf\\xe6\\xb1\\xa0.sol\":2034:2731  function Stake(uint _amount) public returns (bool){... */\n    tag_18:\n        /* \"\\xe8\\x87\\xaa\\xe5\\xb7\\xb1\\xe5\\x86\\x99\\xe4\\xb8\\xaa\\xe7\\x9f\\xbf\\xe6\\xb1\\xa0,\\xe5\\xae\\x9a\\xe6\\x81\\xaf\\xe7\\x9f\\xbf\\xe6\\xb1\\xa0.sol\":2104:2114  staketoken */\n      sload(0x01)\n        /* \"\\xe8\\x87\\xaa\\xe5\\xb7\\xb1\\xe5\\x86\\x99\\xe4\\xb8\\xaa\\xe7\\x9f\\xbf\\xe6\\xb1\\xa0,\\xe5\\xae\\x9a\\xe6\\x81\\xaf\\xe7\\x9f\\xbf\\xe6\\xb1\\xa0.sol\":2097:2164  IERC20(staketoken).transferFrom(msg.sender, address(this), _amount) */\n      mload(0x40)\n      shl(0xe0, 0x23b872dd)\n      dup2\n      mstore\n        /* \"\\xe8\\x87\\xaa\\xe5\\xb7\\xb1\\xe5\\x86\\x99\\xe4\\xb8\\xaa\\xe7\\x9f\\xbf\\xe6\\xb1\\xa0,\\xe5\\xae\\x9a\\xe6\\x81\\xaf\\xe7\\x9f\\xbf\\xe6\\xb1\\xa0.sol\":2129:2139  msg.sender */\n      caller\n        /* \"\\xe8\\x87\\xaa\\xe5\\xb7\\xb1\\xe5\\x86\\x99\\xe4\\xb8\\xaa\\xe7\\x9f\\xbf\\xe6\\xb1\\xa0,\\xe5\\xae\\x9a\\xe6\\x81\\xaf\\xe7\\x9f\\xbf\\xe6\\xb1\\xa0.sol\":2097:2164  IERC20(staketoken).transferFrom(msg.sender, address(this), _amount) */\n      0x04\n      dup3\n      add\n        /* \"#utility.yul\":1780:1814   */\n      mstore\n        /* \"\\xe8\\x87\\xaa\\xe5\\xb7\\xb1\\xe5\\x86\\x99\\xe4\\xb8\\xaa\\xe7\\x9f\\xbf\\xe6\\xb1\\xa0,\\xe5\\xae\\x9a\\xe6\\x81\\xaf\\xe7\\x9f\\xbf\\xe6\\xb1\\xa0.sol\":2149:2153  this */\n      address\n        /* \"#utility.yul\":1830:1848   */\n      0x24\n      dup3\n      add\n        /* \"#utility.yul\":1823:1866   */\n      mstore\n        /* \"#utility.yul\":1882:1900   */\n      0x44\n      dup2\n      add\n        /* \"#utility.yul\":1875:1909   */\n      dup4\n      swap1\n      mstore\n        /* \"\\xe8\\x87\\xaa\\xe5\\xb7\\xb1\\xe5\\x86\\x99\\xe4\\xb8\\xaa\\xe7\\x9f\\xbf\\xe6\\xb1\\xa0,\\xe5\\xae\\x9a\\xe6\\x81\\xaf\\xe7\\x9f\\xbf\\xe6\\xb1\\xa0.sol\":2079:2083  bool */\n      0x00\n      swap2\n      sub(shl(0xa0, 0x01), 0x01)\n        /* \"\\xe8\\x87\\xaa\\xe5\\xb7\\xb1\\xe5\\x86\\x99\\xe4\\xb8\\xaa\\xe7\\x9f\\xbf\\xe6\\xb1\\xa0,\\xe5\\xae\\x9a\\xe6\\x81\\xaf\\xe7\\x9f\\xbf\\xe6\\xb1\\xa0.sol\":2104:2114  staketoken */\n      and\n      swap1\n        /* \"\\xe8\\x87\\xaa\\xe5\\xb7\\xb1\\xe5\\x86\\x99\\xe4\\xb8\\xaa\\xe7\\x9f\\xbf\\xe6\\xb1\\xa0,\\xe5\\xae\\x9a\\xe6\\x81\\xaf\\xe7\\x9f\\xbf\\xe6\\xb1\\xa0.sol\":2097:2128  IERC20(staketoken).transferFrom */\n      0x23b872dd\n      swap1\n        /* \"#utility.yul\":1715:1733   */\n      0x64\n      add\n        /* \"\\xe8\\x87\\xaa\\xe5\\xb7\\xb1\\xe5\\x86\\x99\\xe4\\xb8\\xaa\\xe7\\x9f\\xbf\\xe6\\xb1\\xa0,\\xe5\\xae\\x9a\\xe6\\x81\\xaf\\xe7\\x9f\\xbf\\xe6\\xb1\\xa0.sol\":2097:2164  IERC20(staketoken).transferFrom(msg.sender, address(this), _amount) */\n      0x20\n      mload(0x40)\n      dup1\n      dup4\n      sub\n      dup2\n      0x00\n      dup8\n      gas\n      call\n      iszero\n      dup1\n      iszero\n      tag_60\n      jumpi\n      returndatasize\n      0x00\n      dup1\n      returndatacopy\n      revert(0x00, returndatasize)\n    tag_60:\n      pop\n      pop\n      pop\n      pop\n      mload(0x40)\n      returndatasize\n      not(0x1f)\n      0x1f\n      dup3\n      add\n      and\n      dup3\n      add\n      dup1\n      0x40\n      mstore\n      pop\n      dup2\n      add\n      swap1\n      tag_61\n      swap2\n      swap1\n      tag_62\n      jump\t// in\n    tag_61:\n      pop\n        /* \"\\xe8\\x87\\xaa\\xe5\\xb7\\xb1\\xe5\\x86\\x99\\xe4\\xb8\\xaa\\xe7\\x9f\\xbf\\xe6\\xb1\\xa0,\\xe5\\xae\\x9a\\xe6\\x81\\xaf\\xe7\\x9f\\xbf\\xe6\\xb1\\xa0.sol\":2183:2226  Trasfer(msg.sender, address(this), _amount) */\n      mload(0x40)\n        /* \"#utility.yul\":745:770   */\n      dup3\n      dup2\n      mstore\n        /* \"\\xe8\\x87\\xaa\\xe5\\xb7\\xb1\\xe5\\x86\\x99\\xe4\\xb8\\xaa\\xe7\\x9f\\xbf\\xe6\\xb1\\xa0,\\xe5\\xae\\x9a\\xe6\\x81\\xaf\\xe7\\x9f\\xbf\\xe6\\xb1\\xa0.sol\":2211:2215  this */\n      address\n      swap1\n        /* \"\\xe8\\x87\\xaa\\xe5\\xb7\\xb1\\xe5\\x86\\x99\\xe4\\xb8\\xaa\\xe7\\x9f\\xbf\\xe6\\xb1\\xa0,\\xe5\\xae\\x9a\\xe6\\x81\\xaf\\xe7\\x9f\\xbf\\xe6\\xb1\\xa0.sol\":2191:2201  msg.sender */\n      caller\n      swap1\n        /* \"\\xe8\\x87\\xaa\\xe5\\xb7\\xb1\\xe5\\x86\\x99\\xe4\\xb8\\xaa\\xe7\\x9f\\xbf\\xe6\\xb1\\xa0,\\xe5\\xae\\x9a\\xe6\\x81\\xaf\\xe7\\x9f\\xbf\\xe6\\xb1\\xa0.sol\":2183:2226  Trasfer(msg.sender, address(this), _amount) */\n      0x1fd6ebb971d137acf3f01670862b8a96758cfc7e39dccb093e68daf461b0262c\n      swap1\n        /* \"#utility.yul\":733:735   */\n      0x20\n        /* \"#utility.yul\":718:736   */\n      add\n        /* \"\\xe8\\x87\\xaa\\xe5\\xb7\\xb1\\xe5\\x86\\x99\\xe4\\xb8\\xaa\\xe7\\x9f\\xbf\\xe6\\xb1\\xa0,\\xe5\\xae\\x9a\\xe6\\x81\\xaf\\xe7\\x9f\\xbf\\xe6\\xb1\\xa0.sol\":2183:2226  Trasfer(msg.sender, address(this), _amount) */\n      mload(0x40)\n      dup1\n      swap2\n      sub\n      swap1\n      log3\n        /* \"\\xe8\\x87\\xaa\\xe5\\xb7\\xb1\\xe5\\x86\\x99\\xe4\\xb8\\xaa\\xe7\\x9f\\xbf\\xe6\\xb1\\xa0,\\xe5\\xae\\x9a\\xe6\\x81\\xaf\\xe7\\x9f\\xbf\\xe6\\xb1\\xa0.sol\":2239:2262  uint last_totoken_ratio */\n      0x00\n        /* \"\\xe8\\x87\\xaa\\xe5\\xb7\\xb1\\xe5\\x86\\x99\\xe4\\xb8\\xaa\\xe7\\x9f\\xbf\\xe6\\xb1\\xa0,\\xe5\\xae\\x9a\\xe6\\x81\\xaf\\xe7\\x9f\\xbf\\xe6\\xb1\\xa0.sol\":2361:2366  ratio */\n      dup1\n      sload\n        /* \"\\xe8\\x87\\xaa\\xe5\\xb7\\xb1\\xe5\\x86\\x99\\xe4\\xb8\\xaa\\xe7\\x9f\\xbf\\xe6\\xb1\\xa0,\\xe5\\xae\\x9a\\xe6\\x81\\xaf\\xe7\\x9f\\xbf\\xe6\\xb1\\xa0.sol\":2335:2345  msg.sender */\n      caller\n        /* \"\\xe8\\x87\\xaa\\xe5\\xb7\\xb1\\xe5\\x86\\x99\\xe4\\xb8\\xaa\\xe7\\x9f\\xbf\\xe6\\xb1\\xa0,\\xe5\\xae\\x9a\\xe6\\x81\\xaf\\xe7\\x9f\\xbf\\xe6\\xb1\\xa0.sol\":2326:2346  User_Map[msg.sender] */\n      dup3\n      mstore\n        /* \"\\xe8\\x87\\xaa\\xe5\\xb7\\xb1\\xe5\\x86\\x99\\xe4\\xb8\\xaa\\xe7\\x9f\\xbf\\xe6\\xb1\\xa0,\\xe5\\xae\\x9a\\xe6\\x81\\xaf\\xe7\\x9f\\xbf\\xe6\\xb1\\xa0.sol\":2326:2334  User_Map */\n      0x05\n        /* \"\\xe8\\x87\\xaa\\xe5\\xb7\\xb1\\xe5\\x86\\x99\\xe4\\xb8\\xaa\\xe7\\x9f\\xbf\\xe6\\xb1\\xa0,\\xe5\\xae\\x9a\\xe6\\x81\\xaf\\xe7\\x9f\\xbf\\xe6\\xb1\\xa0.sol\":2326:2346  User_Map[msg.sender] */\n      0x20\n      mstore\n      0x40\n      dup3\n      keccak256\n        /* \"\\xe8\\x87\\xaa\\xe5\\xb7\\xb1\\xe5\\x86\\x99\\xe4\\xb8\\xaa\\xe7\\x9f\\xbf\\xe6\\xb1\\xa0,\\xe5\\xae\\x9a\\xe6\\x81\\xaf\\xe7\\x9f\\xbf\\xe6\\xb1\\xa0.sol\":2326:2358  User_Map[msg.sender].stakeNumber */\n      sload\n        /* \"\\xe8\\x87\\xaa\\xe5\\xb7\\xb1\\xe5\\x86\\x99\\xe4\\xb8\\xaa\\xe7\\x9f\\xbf\\xe6\\xb1\\xa0,\\xe5\\xae\\x9a\\xe6\\x81\\xaf\\xe7\\x9f\\xbf\\xe6\\xb1\\xa0.sol\":2375:2383  31536000 */\n      0x01e13380\n      swap2\n        /* \"\\xe8\\x87\\xaa\\xe5\\xb7\\xb1\\xe5\\x86\\x99\\xe4\\xb8\\xaa\\xe7\\x9f\\xbf\\xe6\\xb1\\xa0,\\xe5\\xae\\x9a\\xe6\\x81\\xaf\\xe7\\x9f\\xbf\\xe6\\xb1\\xa0.sol\":2368:2371  100 */\n      0x64\n      swap2\n        /* \"\\xe8\\x87\\xaa\\xe5\\xb7\\xb1\\xe5\\x86\\x99\\xe4\\xb8\\xaa\\xe7\\x9f\\xbf\\xe6\\xb1\\xa0,\\xe5\\xae\\x9a\\xe6\\x81\\xaf\\xe7\\x9f\\xbf\\xe6\\xb1\\xa0.sol\":2326:2366  User_Map[msg.sender].stakeNumber * ratio */\n      tag_64\n      swap2\n        /* \"\\xe8\\x87\\xaa\\xe5\\xb7\\xb1\\xe5\\x86\\x99\\xe4\\xb8\\xaa\\xe7\\x9f\\xbf\\xe6\\xb1\\xa0,\\xe5\\xae\\x9a\\xe6\\x81\\xaf\\xe7\\x9f\\xbf\\xe6\\xb1\\xa0.sol\":2361:2366  ratio */\n      swap1\n        /* \"\\xe8\\x87\\xaa\\xe5\\xb7\\xb1\\xe5\\x86\\x99\\xe4\\xb8\\xaa\\xe7\\x9f\\xbf\\xe6\\xb1\\xa0,\\xe5\\xae\\x9a\\xe6\\x81\\xaf\\xe7\\x9f\\xbf\\xe6\\xb1\\xa0.sol\":2326:2366  User_Map[msg.sender].stakeNumber * ratio */\n      tag_65\n      jump\t// in\n    tag_64:\n        /* \"\\xe8\\x87\\xaa\\xe5\\xb7\\xb1\\xe5\\x86\\x99\\xe4\\xb8\\xaa\\xe7\\x9f\\xbf\\xe6\\xb1\\xa0,\\xe5\\xae\\x9a\\xe6\\x81\\xaf\\xe7\\x9f\\xbf\\xe6\\xb1\\xa0.sol\":2326:2371  User_Map[msg.sender].stakeNumber * ratio /100 */\n      tag_66\n      swap2\n      swap1\n      tag_67\n      jump\t// in\n    tag_66:\n        /* \"\\xe8\\x87\\xaa\\xe5\\xb7\\xb1\\xe5\\x86\\x99\\xe4\\xb8\\xaa\\xe7\\x9f\\xbf\\xe6\\xb1\\xa0,\\xe5\\xae\\x9a\\xe6\\x81\\xaf\\xe7\\x9f\\xbf\\xe6\\xb1\\xa0.sol\":2325:2383  (User_Map[msg.sender].stakeNumber * ratio /100) / 31536000 */\n      tag_68\n      swap2\n      swap1\n      tag_67\n      jump\t// in\n    tag_68:\n        /* \"\\xe8\\x87\\xaa\\xe5\\xb7\\xb1\\xe5\\x86\\x99\\xe4\\xb8\\xaa\\xe7\\x9f\\xbf\\xe6\\xb1\\xa0,\\xe5\\xae\\x9a\\xe6\\x81\\xaf\\xe7\\x9f\\xbf\\xe6\\xb1\\xa0.sol\":2293:2303  msg.sender */\n      caller\n        /* \"\\xe8\\x87\\xaa\\xe5\\xb7\\xb1\\xe5\\x86\\x99\\xe4\\xb8\\xaa\\xe7\\x9f\\xbf\\xe6\\xb1\\xa0,\\xe5\\xae\\x9a\\xe6\\x81\\xaf\\xe7\\x9f\\xbf\\xe6\\xb1\\xa0.sol\":2284:2304  User_Map[msg.sender] */\n      0x00\n      swap1\n      dup2\n      mstore\n        /* \"\\xe8\\x87\\xaa\\xe5\\xb7\\xb1\\xe5\\x86\\x99\\xe4\\xb8\\xaa\\xe7\\x9f\\xbf\\xe6\\xb1\\xa0,\\xe5\\xae\\x9a\\xe6\\x81\\xaf\\xe7\\x9f\\xbf\\xe6\\xb1\\xa0.sol\":2284:2292  User_Map */\n      0x05\n        /* \"\\xe8\\x87\\xaa\\xe5\\xb7\\xb1\\xe5\\x86\\x99\\xe4\\xb8\\xaa\\xe7\\x9f\\xbf\\xe6\\xb1\\xa0,\\xe5\\xae\\x9a\\xe6\\x81\\xaf\\xe7\\x9f\\xbf\\xe6\\xb1\\xa0.sol\":2284:2304  User_Map[msg.sender] */\n      0x20\n      mstore\n      0x40\n      swap1\n      keccak256\n        /* \"\\xe8\\x87\\xaa\\xe5\\xb7\\xb1\\xe5\\x86\\x99\\xe4\\xb8\\xaa\\xe7\\x9f\\xbf\\xe6\\xb1\\xa0,\\xe5\\xae\\x9a\\xe6\\x81\\xaf\\xe7\\x9f\\xbf\\xe6\\xb1\\xa0.sol\":2284:2320  User_Map[msg.sender].last_Stake_Time */\n      0x01\n      add\n      sload\n        /* \"\\xe8\\x87\\xaa\\xe5\\xb7\\xb1\\xe5\\x86\\x99\\xe4\\xb8\\xaa\\xe7\\x9f\\xbf\\xe6\\xb1\\xa0,\\xe5\\xae\\x9a\\xe6\\x81\\xaf\\xe7\\x9f\\xbf\\xe6\\xb1\\xa0.sol\":2266:2320  block.timestamp - User_Map[msg.sender].last_Stake_Time */\n      tag_69\n      swap1\n        /* \"\\xe8\\x87\\xaa\\xe5\\xb7\\xb1\\xe5\\x86\\x99\\xe4\\xb8\\xaa\\xe7\\x9f\\xbf\\xe6\\xb1\\xa0,\\xe5\\xae\\x9a\\xe6\\x81\\xaf\\xe7\\x9f\\xbf\\xe6\\xb1\\xa0.sol\":2266:2281  block.timestamp */\n      timestamp\n        /* \"\\xe8\\x87\\xaa\\xe5\\xb7\\xb1\\xe5\\x86\\x99\\xe4\\xb8\\xaa\\xe7\\x9f\\xbf\\xe6\\xb1\\xa0,\\xe5\\xae\\x9a\\xe6\\x81\\xaf\\xe7\\x9f\\xbf\\xe6\\xb1\\xa0.sol\":2266:2320  block.timestamp - User_Map[msg.sender].last_Stake_Time */\n      tag_70\n      jump\t// in\n    tag_69:\n        /* \"\\xe8\\x87\\xaa\\xe5\\xb7\\xb1\\xe5\\x86\\x99\\xe4\\xb8\\xaa\\xe7\\x9f\\xbf\\xe6\\xb1\\xa0,\\xe5\\xae\\x9a\\xe6\\x81\\xaf\\xe7\\x9f\\xbf\\xe6\\xb1\\xa0.sol\":2265:2384  (block.timestamp - User_Map[msg.sender].last_Stake_Time) * ((User_Map[msg.sender].stakeNumber * ratio /100) / 31536000) */\n      tag_71\n      swap2\n      swap1\n      tag_65\n      jump\t// in\n    tag_71:\n        /* \"\\xe8\\x87\\xaa\\xe5\\xb7\\xb1\\xe5\\x86\\x99\\xe4\\xb8\\xaa\\xe7\\x9f\\xbf\\xe6\\xb1\\xa0,\\xe5\\xae\\x9a\\xe6\\x81\\xaf\\xe7\\x9f\\xbf\\xe6\\xb1\\xa0.sol\":2404:2414  msg.sender */\n      caller\n        /* \"\\xe8\\x87\\xaa\\xe5\\xb7\\xb1\\xe5\\x86\\x99\\xe4\\xb8\\xaa\\xe7\\x9f\\xbf\\xe6\\xb1\\xa0,\\xe5\\xae\\x9a\\xe6\\x81\\xaf\\xe7\\x9f\\xbf\\xe6\\xb1\\xa0.sol\":2395:2415  User_Map[msg.sender] */\n      0x00\n      swap1\n      dup2\n      mstore\n        /* \"\\xe8\\x87\\xaa\\xe5\\xb7\\xb1\\xe5\\x86\\x99\\xe4\\xb8\\xaa\\xe7\\x9f\\xbf\\xe6\\xb1\\xa0,\\xe5\\xae\\x9a\\xe6\\x81\\xaf\\xe7\\x9f\\xbf\\xe6\\xb1\\xa0.sol\":2395:2403  User_Map */\n      0x05\n        /* \"\\xe8\\x87\\xaa\\xe5\\xb7\\xb1\\xe5\\x86\\x99\\xe4\\xb8\\xaa\\xe7\\x9f\\xbf\\xe6\\xb1\\xa0,\\xe5\\xae\\x9a\\xe6\\x81\\xaf\\xe7\\x9f\\xbf\\xe6\\xb1\\xa0.sol\":2395:2415  User_Map[msg.sender] */\n      0x20\n      mstore\n      0x40\n      dup2\n      keccak256\n        /* \"\\xe8\\x87\\xaa\\xe5\\xb7\\xb1\\xe5\\x86\\x99\\xe4\\xb8\\xaa\\xe7\\x9f\\xbf\\xe6\\xb1\\xa0,\\xe5\\xae\\x9a\\xe6\\x81\\xaf\\xe7\\x9f\\xbf\\xe6\\xb1\\xa0.sol\":2395:2434  User_Map[msg.sender].last_totoken_ratio */\n      0x02\n      add\n        /* \"\\xe8\\x87\\xaa\\xe5\\xb7\\xb1\\xe5\\x86\\x99\\xe4\\xb8\\xaa\\xe7\\x9f\\xbf\\xe6\\xb1\\xa0,\\xe5\\xae\\x9a\\xe6\\x81\\xaf\\xe7\\x9f\\xbf\\xe6\\xb1\\xa0.sol\":2395:2456  User_Map[msg.sender].last_totoken_ratio += last_totoken_ratio */\n      dup1\n      sload\n        /* \"\\xe8\\x87\\xaa\\xe5\\xb7\\xb1\\xe5\\x86\\x99\\xe4\\xb8\\xaa\\xe7\\x9f\\xbf\\xe6\\xb1\\xa0,\\xe5\\xae\\x9a\\xe6\\x81\\xaf\\xe7\\x9f\\xbf\\xe6\\xb1\\xa0.sol\":2239:2384  uint last_totoken_ratio = (block.timestamp - User_Map[msg.sender].last_Stake_Time) * ((User_Map[msg.sender].stakeNumber * ratio /100) / 31536000) */\n      swap3\n      swap4\n      pop\n      dup4\n      swap3\n        /* \"\\xe8\\x87\\xaa\\xe5\\xb7\\xb1\\xe5\\x86\\x99\\xe4\\xb8\\xaa\\xe7\\x9f\\xbf\\xe6\\xb1\\xa0,\\xe5\\xae\\x9a\\xe6\\x81\\xaf\\xe7\\x9f\\xbf\\xe6\\xb1\\xa0.sol\":2395:2434  User_Map[msg.sender].last_totoken_ratio */\n      swap1\n      swap2\n        /* \"\\xe8\\x87\\xaa\\xe5\\xb7\\xb1\\xe5\\x86\\x99\\xe4\\xb8\\xaa\\xe7\\x9f\\xbf\\xe6\\xb1\\xa0,\\xe5\\xae\\x9a\\xe6\\x81\\xaf\\xe7\\x9f\\xbf\\xe6\\xb1\\xa0.sol\":2395:2415  User_Map[msg.sender] */\n      swap1\n        /* \"\\xe8\\x87\\xaa\\xe5\\xb7\\xb1\\xe5\\x86\\x99\\xe4\\xb8\\xaa\\xe7\\x9f\\xbf\\xe6\\xb1\\xa0,\\xe5\\xae\\x9a\\xe6\\x81\\xaf\\xe7\\x9f\\xbf\\xe6\\xb1\\xa0.sol\":2395:2456  User_Map[msg.sender].last_totoken_ratio += last_totoken_ratio */\n      tag_72\n      swap1\n        /* \"\\xe8\\x87\\xaa\\xe5\\xb7\\xb1\\xe5\\x86\\x99\\xe4\\xb8\\xaa\\xe7\\x9f\\xbf\\xe6\\xb1\\xa0,\\xe5\\xae\\x9a\\xe6\\x81\\xaf\\xe7\\x9f\\xbf\\xe6\\xb1\\xa0.sol\":2239:2384  uint last_totoken_ratio = (block.timestamp - User_Map[msg.sender].last_Stake_Time) * ((User_Map[msg.sender].stakeNumber * ratio /100) / 31536000) */\n      dup5\n      swap1\n        /* \"\\xe8\\x87\\xaa\\xe5\\xb7\\xb1\\xe5\\x86\\x99\\xe4\\xb8\\xaa\\xe7\\x9f\\xbf\\xe6\\xb1\\xa0,\\xe5\\xae\\x9a\\xe6\\x81\\xaf\\xe7\\x9f\\xbf\\xe6\\xb1\\xa0.sol\":2395:2456  User_Map[msg.sender].last_totoken_ratio += last_totoken_ratio */\n      tag_73\n      jump\t// in\n    tag_72:\n      swap1\n      swap2\n      sstore\n      pop\n      pop\n        /* \"\\xe8\\x87\\xaa\\xe5\\xb7\\xb1\\xe5\\x86\\x99\\xe4\\xb8\\xaa\\xe7\\x9f\\xbf\\xe6\\xb1\\xa0,\\xe5\\xae\\x9a\\xe6\\x81\\xaf\\xe7\\x9f\\xbf\\xe6\\xb1\\xa0.sol\":2476:2486  msg.sender */\n      caller\n        /* \"\\xe8\\x87\\xaa\\xe5\\xb7\\xb1\\xe5\\x86\\x99\\xe4\\xb8\\xaa\\xe7\\x9f\\xbf\\xe6\\xb1\\xa0,\\xe5\\xae\\x9a\\xe6\\x81\\xaf\\xe7\\x9f\\xbf\\xe6\\xb1\\xa0.sol\":2467:2487  User_Map[msg.sender] */\n      0x00\n      swap1\n      dup2\n      mstore\n        /* \"\\xe8\\x87\\xaa\\xe5\\xb7\\xb1\\xe5\\x86\\x99\\xe4\\xb8\\xaa\\xe7\\x9f\\xbf\\xe6\\xb1\\xa0,\\xe5\\xae\\x9a\\xe6\\x81\\xaf\\xe7\\x9f\\xbf\\xe6\\xb1\\xa0.sol\":2467:2475  User_Map */\n      0x05\n        /* \"\\xe8\\x87\\xaa\\xe5\\xb7\\xb1\\xe5\\x86\\x99\\xe4\\xb8\\xaa\\xe7\\x9f\\xbf\\xe6\\xb1\\xa0,\\xe5\\xae\\x9a\\xe6\\x81\\xaf\\xe7\\x9f\\xbf\\xe6\\xb1\\xa0.sol\":2467:2487  User_Map[msg.sender] */\n      0x20\n      mstore\n      0x40\n      dup2\n      keccak256\n        /* \"\\xe8\\x87\\xaa\\xe5\\xb7\\xb1\\xe5\\x86\\x99\\xe4\\xb8\\xaa\\xe7\\x9f\\xbf\\xe6\\xb1\\xa0,\\xe5\\xae\\x9a\\xe6\\x81\\xaf\\xe7\\x9f\\xbf\\xe6\\xb1\\xa0.sol\":2467:2510  User_Map[msg.sender].stakeNumber += _amount */\n      dup1\n      sload\n        /* \"\\xe8\\x87\\xaa\\xe5\\xb7\\xb1\\xe5\\x86\\x99\\xe4\\xb8\\xaa\\xe7\\x9f\\xbf\\xe6\\xb1\\xa0,\\xe5\\xae\\x9a\\xe6\\x81\\xaf\\xe7\\x9f\\xbf\\xe6\\xb1\\xa0.sol\":2503:2510  _amount */\n      dup6\n      swap3\n        /* \"\\xe8\\x87\\xaa\\xe5\\xb7\\xb1\\xe5\\x86\\x99\\xe4\\xb8\\xaa\\xe7\\x9f\\xbf\\xe6\\xb1\\xa0,\\xe5\\xae\\x9a\\xe6\\x81\\xaf\\xe7\\x9f\\xbf\\xe6\\xb1\\xa0.sol\":2467:2487  User_Map[msg.sender] */\n      swap1\n        /* \"\\xe8\\x87\\xaa\\xe5\\xb7\\xb1\\xe5\\x86\\x99\\xe4\\xb8\\xaa\\xe7\\x9f\\xbf\\xe6\\xb1\\xa0,\\xe5\\xae\\x9a\\xe6\\x81\\xaf\\xe7\\x9f\\xbf\\xe6\\xb1\\xa0.sol\":2467:2510  User_Map[msg.sender].stakeNumber += _amount */\n      tag_74\n      swap1\n        /* \"\\xe8\\x87\\xaa\\xe5\\xb7\\xb1\\xe5\\x86\\x99\\xe4\\xb8\\xaa\\xe7\\x9f\\xbf\\xe6\\xb1\\xa0,\\xe5\\xae\\x9a\\xe6\\x81\\xaf\\xe7\\x9f\\xbf\\xe6\\xb1\\xa0.sol\":2503:2510  _amount */\n      dup5\n      swap1\n        /* \"\\xe8\\x87\\xaa\\xe5\\xb7\\xb1\\xe5\\x86\\x99\\xe4\\xb8\\xaa\\xe7\\x9f\\xbf\\xe6\\xb1\\xa0,\\xe5\\xae\\x9a\\xe6\\x81\\xaf\\xe7\\x9f\\xbf\\xe6\\xb1\\xa0.sol\":2467:2510  User_Map[msg.sender].stakeNumber += _amount */\n      tag_73\n      jump\t// in\n    tag_74:\n      swap1\n      swap2\n      sstore\n      pop\n      pop\n        /* \"\\xe8\\x87\\xaa\\xe5\\xb7\\xb1\\xe5\\x86\\x99\\xe4\\xb8\\xaa\\xe7\\x9f\\xbf\\xe6\\xb1\\xa0,\\xe5\\xae\\x9a\\xe6\\x81\\xaf\\xe7\\x9f\\xbf\\xe6\\xb1\\xa0.sol\":2530:2540  msg.sender */\n      caller\n        /* \"\\xe8\\x87\\xaa\\xe5\\xb7\\xb1\\xe5\\x86\\x99\\xe4\\xb8\\xaa\\xe7\\x9f\\xbf\\xe6\\xb1\\xa0,\\xe5\\xae\\x9a\\xe6\\x81\\xaf\\xe7\\x9f\\xbf\\xe6\\xb1\\xa0.sol\":2521:2541  User_Map[msg.sender] */\n      0x00\n      swap1\n      dup2\n      mstore\n        /* \"\\xe8\\x87\\xaa\\xe5\\xb7\\xb1\\xe5\\x86\\x99\\xe4\\xb8\\xaa\\xe7\\x9f\\xbf\\xe6\\xb1\\xa0,\\xe5\\xae\\x9a\\xe6\\x81\\xaf\\xe7\\x9f\\xbf\\xe6\\xb1\\xa0.sol\":2521:2529  User_Map */\n      0x05\n        /* \"\\xe8\\x87\\xaa\\xe5\\xb7\\xb1\\xe5\\x86\\x99\\xe4\\xb8\\xaa\\xe7\\x9f\\xbf\\xe6\\xb1\\xa0,\\xe5\\xae\\x9a\\xe6\\x81\\xaf\\xe7\\x9f\\xbf\\xe6\\xb1\\xa0.sol\":2521:2541  User_Map[msg.sender] */\n      0x20\n      mstore\n      0x40\n      dup2\n      keccak256\n        /* \"\\xe8\\x87\\xaa\\xe5\\xb7\\xb1\\xe5\\x86\\x99\\xe4\\xb8\\xaa\\xe7\\x9f\\xbf\\xe6\\xb1\\xa0,\\xe5\\xae\\x9a\\xe6\\x81\\xaf\\xe7\\x9f\\xbf\\xe6\\xb1\\xa0.sol\":2560:2575  block.timestamp */\n      timestamp\n        /* \"\\xe8\\x87\\xaa\\xe5\\xb7\\xb1\\xe5\\x86\\x99\\xe4\\xb8\\xaa\\xe7\\x9f\\xbf\\xe6\\xb1\\xa0,\\xe5\\xae\\x9a\\xe6\\x81\\xaf\\xe7\\x9f\\xbf\\xe6\\xb1\\xa0.sol\":2521:2557  User_Map[msg.sender].last_Stake_Time */\n      0x01\n      swap1\n      swap2\n      add\n        /* \"\\xe8\\x87\\xaa\\xe5\\xb7\\xb1\\xe5\\x86\\x99\\xe4\\xb8\\xaa\\xe7\\x9f\\xbf\\xe6\\xb1\\xa0,\\xe5\\xae\\x9a\\xe6\\x81\\xaf\\xe7\\x9f\\xbf\\xe6\\xb1\\xa0.sol\":2521:2575  User_Map[msg.sender].last_Stake_Time = block.timestamp */\n      sstore\n        /* \"\\xe8\\x87\\xaa\\xe5\\xb7\\xb1\\xe5\\x86\\x99\\xe4\\xb8\\xaa\\xe7\\x9f\\xbf\\xe6\\xb1\\xa0,\\xe5\\xae\\x9a\\xe6\\x81\\xaf\\xe7\\x9f\\xbf\\xe6\\xb1\\xa0.sol\":2586:2597  stakeSupple */\n      0x03\n        /* \"\\xe8\\x87\\xaa\\xe5\\xb7\\xb1\\xe5\\x86\\x99\\xe4\\xb8\\xaa\\xe7\\x9f\\xbf\\xe6\\xb1\\xa0,\\xe5\\xae\\x9a\\xe6\\x81\\xaf\\xe7\\x9f\\xbf\\xe6\\xb1\\xa0.sol\":2586:2608  stakeSupple += _amount */\n      dup1\n      sload\n        /* \"\\xe8\\x87\\xaa\\xe5\\xb7\\xb1\\xe5\\x86\\x99\\xe4\\xb8\\xaa\\xe7\\x9f\\xbf\\xe6\\xb1\\xa0,\\xe5\\xae\\x9a\\xe6\\x81\\xaf\\xe7\\x9f\\xbf\\xe6\\xb1\\xa0.sol\":2601:2608  _amount */\n      dup6\n      swap3\n        /* \"\\xe8\\x87\\xaa\\xe5\\xb7\\xb1\\xe5\\x86\\x99\\xe4\\xb8\\xaa\\xe7\\x9f\\xbf\\xe6\\xb1\\xa0,\\xe5\\xae\\x9a\\xe6\\x81\\xaf\\xe7\\x9f\\xbf\\xe6\\xb1\\xa0.sol\":2521:2541  User_Map[msg.sender] */\n      swap1\n        /* \"\\xe8\\x87\\xaa\\xe5\\xb7\\xb1\\xe5\\x86\\x99\\xe4\\xb8\\xaa\\xe7\\x9f\\xbf\\xe6\\xb1\\xa0,\\xe5\\xae\\x9a\\xe6\\x81\\xaf\\xe7\\x9f\\xbf\\xe6\\xb1\\xa0.sol\":2586:2608  stakeSupple += _amount */\n      tag_75\n      swap1\n        /* \"\\xe8\\x87\\xaa\\xe5\\xb7\\xb1\\xe5\\x86\\x99\\xe4\\xb8\\xaa\\xe7\\x9f\\xbf\\xe6\\xb1\\xa0,\\xe5\\xae\\x9a\\xe6\\x81\\xaf\\xe7\\x9f\\xbf\\xe6\\xb1\\xa0.sol\":2601:2608  _amount */\n      dup5\n      swap1\n        /* \"\\xe8\\x87\\xaa\\xe5\\xb7\\xb1\\xe5\\x86\\x99\\xe4\\xb8\\xaa\\xe7\\x9f\\xbf\\xe6\\xb1\\xa0,\\xe5\\xae\\x9a\\xe6\\x81\\xaf\\xe7\\x9f\\xbf\\xe6\\xb1\\xa0.sol\":2586:2608  stakeSupple += _amount */\n      tag_73\n      jump\t// in\n    tag_75:\n      swap1\n      swap2\n      sstore\n      pop\n      pop\n        /* \"\\xe8\\x87\\xaa\\xe5\\xb7\\xb1\\xe5\\x86\\x99\\xe4\\xb8\\xaa\\xe7\\x9f\\xbf\\xe6\\xb1\\xa0,\\xe5\\xae\\x9a\\xe6\\x81\\xaf\\xe7\\x9f\\xbf\\xe6\\xb1\\xa0.sol\":2669:2679  msg.sender */\n      caller\n        /* \"\\xe8\\x87\\xaa\\xe5\\xb7\\xb1\\xe5\\x86\\x99\\xe4\\xb8\\xaa\\xe7\\x9f\\xbf\\xe6\\xb1\\xa0,\\xe5\\xae\\x9a\\xe6\\x81\\xaf\\xe7\\x9f\\xbf\\xe6\\xb1\\xa0.sol\":2660:2680  User_Map[msg.sender] */\n      0x00\n      swap1\n      dup2\n      mstore\n        /* \"\\xe8\\x87\\xaa\\xe5\\xb7\\xb1\\xe5\\x86\\x99\\xe4\\xb8\\xaa\\xe7\\x9f\\xbf\\xe6\\xb1\\xa0,\\xe5\\xae\\x9a\\xe6\\x81\\xaf\\xe7\\x9f\\xbf\\xe6\\xb1\\xa0.sol\":2660:2668  User_Map */\n      0x05\n        /* \"\\xe8\\x87\\xaa\\xe5\\xb7\\xb1\\xe5\\x86\\x99\\xe4\\xb8\\xaa\\xe7\\x9f\\xbf\\xe6\\xb1\\xa0,\\xe5\\xae\\x9a\\xe6\\x81\\xaf\\xe7\\x9f\\xbf\\xe6\\xb1\\xa0.sol\":2660:2680  User_Map[msg.sender] */\n      0x20\n      mstore\n      0x40\n      swap1\n      keccak256\n        /* \"\\xe8\\x87\\xaa\\xe5\\xb7\\xb1\\xe5\\x86\\x99\\xe4\\xb8\\xaa\\xe7\\x9f\\xbf\\xe6\\xb1\\xa0,\\xe5\\xae\\x9a\\xe6\\x81\\xaf\\xe7\\x9f\\xbf\\xe6\\xb1\\xa0.sol\":2660:2696  User_Map[msg.sender].last_Stake_Time */\n      0x01\n      dup1\n      dup3\n      add\n      sload\n        /* \"\\xe8\\x87\\xaa\\xe5\\xb7\\xb1\\xe5\\x86\\x99\\xe4\\xb8\\xaa\\xe7\\x9f\\xbf\\xe6\\xb1\\xa0,\\xe5\\xae\\x9a\\xe6\\x81\\xaf\\xe7\\x9f\\xbf\\xe6\\xb1\\xa0.sol\":2619:2657  User_Map[msg.sender].last_totoken_Time */\n      0x04\n      swap1\n      swap3\n      add\n        /* \"\\xe8\\x87\\xaa\\xe5\\xb7\\xb1\\xe5\\x86\\x99\\xe4\\xb8\\xaa\\xe7\\x9f\\xbf\\xe6\\xb1\\xa0,\\xe5\\xae\\x9a\\xe6\\x81\\xaf\\xe7\\x9f\\xbf\\xe6\\xb1\\xa0.sol\":2619:2696  User_Map[msg.sender].last_totoken_Time = User_Map[msg.sender].last_Stake_Time */\n      swap2\n      swap1\n      swap2\n      sstore\n        /* \"\\xe8\\x87\\xaa\\xe5\\xb7\\xb1\\xe5\\x86\\x99\\xe4\\xb8\\xaa\\xe7\\x9f\\xbf\\xe6\\xb1\\xa0,\\xe5\\xae\\x9a\\xe6\\x81\\xaf\\xe7\\x9f\\xbf\\xe6\\xb1\\xa0.sol\":2660:2696  User_Map[msg.sender].last_Stake_Time */\n      swap4\n        /* \"\\xe8\\x87\\xaa\\xe5\\xb7\\xb1\\xe5\\x86\\x99\\xe4\\xb8\\xaa\\xe7\\x9f\\xbf\\xe6\\xb1\\xa0,\\xe5\\xae\\x9a\\xe6\\x81\\xaf\\xe7\\x9f\\xbf\\xe6\\xb1\\xa0.sol\":2034:2731  function Stake(uint _amount) public returns (bool){... */\n      swap3\n      pop\n      pop\n      pop\n      jump\t// out\n        /* \"\\xe8\\x87\\xaa\\xe5\\xb7\\xb1\\xe5\\x86\\x99\\xe4\\xb8\\xaa\\xe7\\x9f\\xbf\\xe6\\xb1\\xa0,\\xe5\\xae\\x9a\\xe6\\x81\\xaf\\xe7\\x9f\\xbf\\xe6\\xb1\\xa0.sol\":5028:5357  function newTotokenRatio() public view returns (uint) {... */\n    tag_26:\n        /* \"\\xe8\\x87\\xaa\\xe5\\xb7\\xb1\\xe5\\x86\\x99\\xe4\\xb8\\xaa\\xe7\\x9f\\xbf\\xe6\\xb1\\xa0,\\xe5\\xae\\x9a\\xe6\\x81\\xaf\\xe7\\x9f\\xbf\\xe6\\xb1\\xa0.sol\":5135:5145  msg.sender */\n      caller\n        /* \"\\xe8\\x87\\xaa\\xe5\\xb7\\xb1\\xe5\\x86\\x99\\xe4\\xb8\\xaa\\xe7\\x9f\\xbf\\xe6\\xb1\\xa0,\\xe5\\xae\\x9a\\xe6\\x81\\xaf\\xe7\\x9f\\xbf\\xe6\\xb1\\xa0.sol\":5076:5080  uint */\n      0x00\n        /* \"\\xe8\\x87\\xaa\\xe5\\xb7\\xb1\\xe5\\x86\\x99\\xe4\\xb8\\xaa\\xe7\\x9f\\xbf\\xe6\\xb1\\xa0,\\xe5\\xae\\x9a\\xe6\\x81\\xaf\\xe7\\x9f\\xbf\\xe6\\xb1\\xa0.sol\":5126:5146  User_Map[msg.sender] */\n      swap1\n      dup2\n      mstore\n        /* \"\\xe8\\x87\\xaa\\xe5\\xb7\\xb1\\xe5\\x86\\x99\\xe4\\xb8\\xaa\\xe7\\x9f\\xbf\\xe6\\xb1\\xa0,\\xe5\\xae\\x9a\\xe6\\x81\\xaf\\xe7\\x9f\\xbf\\xe6\\xb1\\xa0.sol\":5126:5134  User_Map */\n      0x05\n        /* \"\\xe8\\x87\\xaa\\xe5\\xb7\\xb1\\xe5\\x86\\x99\\xe4\\xb8\\xaa\\xe7\\x9f\\xbf\\xe6\\xb1\\xa0,\\xe5\\xae\\x9a\\xe6\\x81\\xaf\\xe7\\x9f\\xbf\\xe6\\xb1\\xa0.sol\":5126:5146  User_Map[msg.sender] */\n      0x20\n      mstore\n      0x40\n      dup2\n      keccak256\n        /* \"\\xe8\\x87\\xaa\\xe5\\xb7\\xb1\\xe5\\x86\\x99\\xe4\\xb8\\xaa\\xe7\\x9f\\xbf\\xe6\\xb1\\xa0,\\xe5\\xae\\x9a\\xe6\\x81\\xaf\\xe7\\x9f\\xbf\\xe6\\xb1\\xa0.sol\":5126:5164  User_Map[msg.sender].last_totoken_Time */\n      0x04\n      add\n      sload\n        /* \"\\xe8\\x87\\xaa\\xe5\\xb7\\xb1\\xe5\\x86\\x99\\xe4\\xb8\\xaa\\xe7\\x9f\\xbf\\xe6\\xb1\\xa0,\\xe5\\xae\\x9a\\xe6\\x81\\xaf\\xe7\\x9f\\xbf\\xe6\\xb1\\xa0.sol\":5076:5080  uint */\n      dup2\n      swap1\n        /* \"\\xe8\\x87\\xaa\\xe5\\xb7\\xb1\\xe5\\x86\\x99\\xe4\\xb8\\xaa\\xe7\\x9f\\xbf\\xe6\\xb1\\xa0,\\xe5\\xae\\x9a\\xe6\\x81\\xaf\\xe7\\x9f\\xbf\\xe6\\xb1\\xa0.sol\":5108:5164  block.timestamp - User_Map[msg.sender].last_totoken_Time */\n      tag_77\n      swap1\n        /* \"\\xe8\\x87\\xaa\\xe5\\xb7\\xb1\\xe5\\x86\\x99\\xe4\\xb8\\xaa\\xe7\\x9f\\xbf\\xe6\\xb1\\xa0,\\xe5\\xae\\x9a\\xe6\\x81\\xaf\\xe7\\x9f\\xbf\\xe6\\xb1\\xa0.sol\":5108:5123  block.timestamp */\n      timestamp\n        /* \"\\xe8\\x87\\xaa\\xe5\\xb7\\xb1\\xe5\\x86\\x99\\xe4\\xb8\\xaa\\xe7\\x9f\\xbf\\xe6\\xb1\\xa0,\\xe5\\xae\\x9a\\xe6\\x81\\xaf\\xe7\\x9f\\xbf\\xe6\\xb1\\xa0.sol\":5108:5164  block.timestamp - User_Map[msg.sender].last_totoken_Time */\n      tag_70\n      jump\t// in\n    tag_77:\n        /* \"\\xe8\\x87\\xaa\\xe5\\xb7\\xb1\\xe5\\x86\\x99\\xe4\\xb8\\xaa\\xe7\\x9f\\xbf\\xe6\\xb1\\xa0,\\xe5\\xae\\x9a\\xe6\\x81\\xaf\\xe7\\x9f\\xbf\\xe6\\xb1\\xa0.sol\":5282:5292  msg.sender */\n      caller\n        /* \"\\xe8\\x87\\xaa\\xe5\\xb7\\xb1\\xe5\\x86\\x99\\xe4\\xb8\\xaa\\xe7\\x9f\\xbf\\xe6\\xb1\\xa0,\\xe5\\xae\\x9a\\xe6\\x81\\xaf\\xe7\\x9f\\xbf\\xe6\\xb1\\xa0.sol\":5175:5197  uint newTotokenRatione */\n      0x00\n        /* \"\\xe8\\x87\\xaa\\xe5\\xb7\\xb1\\xe5\\x86\\x99\\xe4\\xb8\\xaa\\xe7\\x9f\\xbf\\xe6\\xb1\\xa0,\\xe5\\xae\\x9a\\xe6\\x81\\xaf\\xe7\\x9f\\xbf\\xe6\\xb1\\xa0.sol\":5273:5293  User_Map[msg.sender] */\n      swap1\n      dup2\n      mstore\n        /* \"\\xe8\\x87\\xaa\\xe5\\xb7\\xb1\\xe5\\x86\\x99\\xe4\\xb8\\xaa\\xe7\\x9f\\xbf\\xe6\\xb1\\xa0,\\xe5\\xae\\x9a\\xe6\\x81\\xaf\\xe7\\x9f\\xbf\\xe6\\xb1\\xa0.sol\":5273:5281  User_Map */\n      0x05\n        /* \"\\xe8\\x87\\xaa\\xe5\\xb7\\xb1\\xe5\\x86\\x99\\xe4\\xb8\\xaa\\xe7\\x9f\\xbf\\xe6\\xb1\\xa0,\\xe5\\xae\\x9a\\xe6\\x81\\xaf\\xe7\\x9f\\xbf\\xe6\\xb1\\xa0.sol\":5273:5293  User_Map[msg.sender] */\n      0x20\n      mstore\n      0x40\n      dup2\n      keccak256\n        /* \"\\xe8\\x87\\xaa\\xe5\\xb7\\xb1\\xe5\\x86\\x99\\xe4\\xb8\\xaa\\xe7\\x9f\\xbf\\xe6\\xb1\\xa0,\\xe5\\xae\\x9a\\xe6\\x81\\xaf\\xe7\\x9f\\xbf\\xe6\\xb1\\xa0.sol\":5273:5312  User_Map[msg.sender].last_totoken_ratio */\n      0x02\n      dup2\n      add\n      sload\n        /* \"\\xe8\\x87\\xaa\\xe5\\xb7\\xb1\\xe5\\x86\\x99\\xe4\\xb8\\xaa\\xe7\\x9f\\xbf\\xe6\\xb1\\xa0,\\xe5\\xae\\x9a\\xe6\\x81\\xaf\\xe7\\x9f\\xbf\\xe6\\xb1\\xa0.sol\":5247:5252  ratio */\n      dup3\n      sload\n        /* \"\\xe8\\x87\\xaa\\xe5\\xb7\\xb1\\xe5\\x86\\x99\\xe4\\xb8\\xaa\\xe7\\x9f\\xbf\\xe6\\xb1\\xa0,\\xe5\\xae\\x9a\\xe6\\x81\\xaf\\xe7\\x9f\\xbf\\xe6\\xb1\\xa0.sol\":5212:5244  User_Map[msg.sender].stakeNumber */\n      swap2\n      sload\n        /* \"\\xe8\\x87\\xaa\\xe5\\xb7\\xb1\\xe5\\x86\\x99\\xe4\\xb8\\xaa\\xe7\\x9f\\xbf\\xe6\\xb1\\xa0,\\xe5\\xae\\x9a\\xe6\\x81\\xaf\\xe7\\x9f\\xbf\\xe6\\xb1\\xa0.sol\":5093:5164  uint newtime = block.timestamp - User_Map[msg.sender].last_totoken_Time */\n      swap4\n      swap5\n      pop\n        /* \"\\xe8\\x87\\xaa\\xe5\\xb7\\xb1\\xe5\\x86\\x99\\xe4\\xb8\\xaa\\xe7\\x9f\\xbf\\xe6\\xb1\\xa0,\\xe5\\xae\\x9a\\xe6\\x81\\xaf\\xe7\\x9f\\xbf\\xe6\\xb1\\xa0.sol\":5175:5197  uint newTotokenRatione */\n      swap2\n      swap3\n        /* \"\\xe8\\x87\\xaa\\xe5\\xb7\\xb1\\xe5\\x86\\x99\\xe4\\xb8\\xaa\\xe7\\x9f\\xbf\\xe6\\xb1\\xa0,\\xe5\\xae\\x9a\\xe6\\x81\\xaf\\xe7\\x9f\\xbf\\xe6\\xb1\\xa0.sol\":5261:5269  31536000 */\n      0x01e13380\n      swap2\n        /* \"\\xe8\\x87\\xaa\\xe5\\xb7\\xb1\\xe5\\x86\\x99\\xe4\\xb8\\xaa\\xe7\\x9f\\xbf\\xe6\\xb1\\xa0,\\xe5\\xae\\x9a\\xe6\\x81\\xaf\\xe7\\x9f\\xbf\\xe6\\xb1\\xa0.sol\":5254:5257  100 */\n      0x64\n      swap2\n        /* \"\\xe8\\x87\\xaa\\xe5\\xb7\\xb1\\xe5\\x86\\x99\\xe4\\xb8\\xaa\\xe7\\x9f\\xbf\\xe6\\xb1\\xa0,\\xe5\\xae\\x9a\\xe6\\x81\\xaf\\xe7\\x9f\\xbf\\xe6\\xb1\\xa0.sol\":5212:5252  User_Map[msg.sender].stakeNumber * ratio */\n      tag_78\n      swap2\n        /* \"\\xe8\\x87\\xaa\\xe5\\xb7\\xb1\\xe5\\x86\\x99\\xe4\\xb8\\xaa\\xe7\\x9f\\xbf\\xe6\\xb1\\xa0,\\xe5\\xae\\x9a\\xe6\\x81\\xaf\\xe7\\x9f\\xbf\\xe6\\xb1\\xa0.sol\":5247:5252  ratio */\n      swap1\n        /* \"\\xe8\\x87\\xaa\\xe5\\xb7\\xb1\\xe5\\x86\\x99\\xe4\\xb8\\xaa\\xe7\\x9f\\xbf\\xe6\\xb1\\xa0,\\xe5\\xae\\x9a\\xe6\\x81\\xaf\\xe7\\x9f\\xbf\\xe6\\xb1\\xa0.sol\":5212:5252  User_Map[msg.sender].stakeNumber * ratio */\n      tag_65\n      jump\t// in\n    tag_78:\n        /* \"\\xe8\\x87\\xaa\\xe5\\xb7\\xb1\\xe5\\x86\\x99\\xe4\\xb8\\xaa\\xe7\\x9f\\xbf\\xe6\\xb1\\xa0,\\xe5\\xae\\x9a\\xe6\\x81\\xaf\\xe7\\x9f\\xbf\\xe6\\xb1\\xa0.sol\":5212:5257  User_Map[msg.sender].stakeNumber * ratio /100 */\n      tag_79\n      swap2\n      swap1\n      tag_67\n      jump\t// in\n    tag_79:\n        /* \"\\xe8\\x87\\xaa\\xe5\\xb7\\xb1\\xe5\\x86\\x99\\xe4\\xb8\\xaa\\xe7\\x9f\\xbf\\xe6\\xb1\\xa0,\\xe5\\xae\\x9a\\xe6\\x81\\xaf\\xe7\\x9f\\xbf\\xe6\\xb1\\xa0.sol\":5211:5269  (User_Map[msg.sender].stakeNumber * ratio /100) / 31536000 */\n      tag_80\n      swap2\n      swap1\n      tag_67\n      jump\t// in\n    tag_80:\n        /* \"\\xe8\\x87\\xaa\\xe5\\xb7\\xb1\\xe5\\x86\\x99\\xe4\\xb8\\xaa\\xe7\\x9f\\xbf\\xe6\\xb1\\xa0,\\xe5\\xae\\x9a\\xe6\\x81\\xaf\\xe7\\x9f\\xbf\\xe6\\xb1\\xa0.sol\":5200:5270  newtime * ((User_Map[msg.sender].stakeNumber * ratio /100) / 31536000) */\n      tag_81\n      swap1\n        /* \"\\xe8\\x87\\xaa\\xe5\\xb7\\xb1\\xe5\\x86\\x99\\xe4\\xb8\\xaa\\xe7\\x9f\\xbf\\xe6\\xb1\\xa0,\\xe5\\xae\\x9a\\xe6\\x81\\xaf\\xe7\\x9f\\xbf\\xe6\\xb1\\xa0.sol\":5200:5207  newtime */\n      dup5\n        /* \"\\xe8\\x87\\xaa\\xe5\\xb7\\xb1\\xe5\\x86\\x99\\xe4\\xb8\\xaa\\xe7\\x9f\\xbf\\xe6\\xb1\\xa0,\\xe5\\xae\\x9a\\xe6\\x81\\xaf\\xe7\\x9f\\xbf\\xe6\\xb1\\xa0.sol\":5200:5270  newtime * ((User_Map[msg.sender].stakeNumber * ratio /100) / 31536000) */\n      tag_65\n      jump\t// in\n    tag_81:\n        /* \"\\xe8\\x87\\xaa\\xe5\\xb7\\xb1\\xe5\\x86\\x99\\xe4\\xb8\\xaa\\xe7\\x9f\\xbf\\xe6\\xb1\\xa0,\\xe5\\xae\\x9a\\xe6\\x81\\xaf\\xe7\\x9f\\xbf\\xe6\\xb1\\xa0.sol\":5200:5312  newtime * ((User_Map[msg.sender].stakeNumber * ratio /100) / 31536000) + User_Map[msg.sender].last_totoken_ratio */\n      tag_82\n      swap2\n      swap1\n      tag_73\n      jump\t// in\n    tag_82:\n        /* \"\\xe8\\x87\\xaa\\xe5\\xb7\\xb1\\xe5\\x86\\x99\\xe4\\xb8\\xaa\\xe7\\x9f\\xbf\\xe6\\xb1\\xa0,\\xe5\\xae\\x9a\\xe6\\x81\\xaf\\xe7\\x9f\\xbf\\xe6\\xb1\\xa0.sol\":5175:5312  uint newTotokenRatione = newtime * ((User_Map[msg.sender].stakeNumber * ratio /100) / 31536000) + User_Map[msg.sender].last_totoken_ratio */\n      swap4\n        /* \"\\xe8\\x87\\xaa\\xe5\\xb7\\xb1\\xe5\\x86\\x99\\xe4\\xb8\\xaa\\xe7\\x9f\\xbf\\xe6\\xb1\\xa0,\\xe5\\xae\\x9a\\xe6\\x81\\xaf\\xe7\\x9f\\xbf\\xe6\\xb1\\xa0.sol\":5028:5357  function newTotokenRatio() public view returns (uint) {... */\n      swap3\n      pop\n      pop\n      pop\n      jump\t// out\n        /* \"\\xe8\\x87\\xaa\\xe5\\xb7\\xb1\\xe5\\x86\\x99\\xe4\\xb8\\xaa\\xe7\\x9f\\xbf\\xe6\\xb1\\xa0,\\xe5\\xae\\x9a\\xe6\\x81\\xaf\\xe7\\x9f\\xbf\\xe6\\xb1\\xa0.sol\":1934:2026  function setRatio(uint _ratio) external onlyOwner {    ... */\n    tag_46:\n        /* \"\\xe8\\x87\\xaa\\xe5\\xb7\\xb1\\xe5\\x86\\x99\\xe4\\xb8\\xaa\\xe7\\x9f\\xbf\\xe6\\xb1\\xa0,\\xe5\\xae\\x9a\\xe6\\x81\\xaf\\xe7\\x9f\\xbf\\xe6\\xb1\\xa0.sol\":1783:1788  owner */\n      and(sub(shl(0xa0, 0x01), 0x01), sload(0x04))\n        /* \"\\xe8\\x87\\xaa\\xe5\\xb7\\xb1\\xe5\\x86\\x99\\xe4\\xb8\\xaa\\xe7\\x9f\\xbf\\xe6\\xb1\\xa0,\\xe5\\xae\\x9a\\xe6\\x81\\xaf\\xe7\\x9f\\xbf\\xe6\\xb1\\xa0.sol\":1769:1779  msg.sender */\n      caller\n        /* \"\\xe8\\x87\\xaa\\xe5\\xb7\\xb1\\xe5\\x86\\x99\\xe4\\xb8\\xaa\\xe7\\x9f\\xbf\\xe6\\xb1\\xa0,\\xe5\\xae\\x9a\\xe6\\x81\\xaf\\xe7\\x9f\\xbf\\xe6\\xb1\\xa0.sol\":1769:1788  msg.sender == owner */\n      eq\n        /* \"\\xe8\\x87\\xaa\\xe5\\xb7\\xb1\\xe5\\x86\\x99\\xe4\\xb8\\xaa\\xe7\\x9f\\xbf\\xe6\\xb1\\xa0,\\xe5\\xae\\x9a\\xe6\\x81\\xaf\\xe7\\x9f\\xbf\\xe6\\xb1\\xa0.sol\":1761:1803  require(msg.sender == owner , \"not owner\") */\n      tag_85\n      jumpi\n      mload(0x40)\n      shl(0xe5, 0x461bcd)\n      dup2\n      mstore\n        /* \"#utility.yul\":3194:3196   */\n      0x20\n        /* \"\\xe8\\x87\\xaa\\xe5\\xb7\\xb1\\xe5\\x86\\x99\\xe4\\xb8\\xaa\\xe7\\x9f\\xbf\\xe6\\xb1\\xa0,\\xe5\\xae\\x9a\\xe6\\x81\\xaf\\xe7\\x9f\\xbf\\xe6\\xb1\\xa0.sol\":1761:1803  require(msg.sender == owner , \"not owner\") */\n      0x04\n      dup3\n      add\n        /* \"#utility.yul\":3176:3197   */\n      mstore\n        /* \"#utility.yul\":3233:3234   */\n      0x09\n        /* \"#utility.yul\":3213:3231   */\n      0x24\n      dup3\n      add\n        /* \"#utility.yul\":3206:3235   */\n      mstore\n      shl(0xb9, 0x3737ba1037bbb732b9)\n        /* \"#utility.yul\":3251:3269   */\n      0x44\n      dup3\n      add\n        /* \"#utility.yul\":3244:3283   */\n      mstore\n        /* \"#utility.yul\":3300:3318   */\n      0x64\n      add\n        /* \"\\xe8\\x87\\xaa\\xe5\\xb7\\xb1\\xe5\\x86\\x99\\xe4\\xb8\\xaa\\xe7\\x9f\\xbf\\xe6\\xb1\\xa0,\\xe5\\xae\\x9a\\xe6\\x81\\xaf\\xe7\\x9f\\xbf\\xe6\\xb1\\xa0.sol\":1761:1803  require(msg.sender == owner , \"not owner\") */\n      mload(0x40)\n      dup1\n      swap2\n      sub\n      swap1\n      revert\n    tag_85:\n        /* \"\\xe8\\x87\\xaa\\xe5\\xb7\\xb1\\xe5\\x86\\x99\\xe4\\xb8\\xaa\\xe7\\x9f\\xbf\\xe6\\xb1\\xa0,\\xe5\\xae\\x9a\\xe6\\x81\\xaf\\xe7\\x9f\\xbf\\xe6\\xb1\\xa0.sol\":1999:2004  ratio */\n      0x00\n        /* \"\\xe8\\x87\\xaa\\xe5\\xb7\\xb1\\xe5\\x86\\x99\\xe4\\xb8\\xaa\\xe7\\x9f\\xbf\\xe6\\xb1\\xa0,\\xe5\\xae\\x9a\\xe6\\x81\\xaf\\xe7\\x9f\\xbf\\xe6\\xb1\\xa0.sol\":1999:2013  ratio = _ratio */\n      sstore\n        /* \"\\xe8\\x87\\xaa\\xe5\\xb7\\xb1\\xe5\\x86\\x99\\xe4\\xb8\\xaa\\xe7\\x9f\\xbf\\xe6\\xb1\\xa0,\\xe5\\xae\\x9a\\xe6\\x81\\xaf\\xe7\\x9f\\xbf\\xe6\\xb1\\xa0.sol\":1934:2026  function setRatio(uint _ratio) external onlyOwner {    ... */\n      jump\t// out\n        /* \"\\xe8\\x87\\xaa\\xe5\\xb7\\xb1\\xe5\\x86\\x99\\xe4\\xb8\\xaa\\xe7\\x9f\\xbf\\xe6\\xb1\\xa0,\\xe5\\xae\\x9a\\xe6\\x81\\xaf\\xe7\\x9f\\xbf\\xe6\\xb1\\xa0.sol\":2739:3558  function harvestwithDraw() public returns (bool) {... */\n    tag_54:\n        /* \"\\xe8\\x87\\xaa\\xe5\\xb7\\xb1\\xe5\\x86\\x99\\xe4\\xb8\\xaa\\xe7\\x9f\\xbf\\xe6\\xb1\\xa0,\\xe5\\xae\\x9a\\xe6\\x81\\xaf\\xe7\\x9f\\xbf\\xe6\\xb1\\xa0.sol\":2782:2786  bool */\n      0x00\n        /* \"\\xe8\\x87\\xaa\\xe5\\xb7\\xb1\\xe5\\x86\\x99\\xe4\\xb8\\xaa\\xe7\\x9f\\xbf\\xe6\\xb1\\xa0,\\xe5\\xae\\x9a\\xe6\\x81\\xaf\\xe7\\x9f\\xbf\\xe6\\xb1\\xa0.sol\":2972:2977  ratio */\n      dup1\n      sload\n        /* \"\\xe8\\x87\\xaa\\xe5\\xb7\\xb1\\xe5\\x86\\x99\\xe4\\xb8\\xaa\\xe7\\x9f\\xbf\\xe6\\xb1\\xa0,\\xe5\\xae\\x9a\\xe6\\x81\\xaf\\xe7\\x9f\\xbf\\xe6\\xb1\\xa0.sol\":2946:2956  msg.sender */\n      caller\n        /* \"\\xe8\\x87\\xaa\\xe5\\xb7\\xb1\\xe5\\x86\\x99\\xe4\\xb8\\xaa\\xe7\\x9f\\xbf\\xe6\\xb1\\xa0,\\xe5\\xae\\x9a\\xe6\\x81\\xaf\\xe7\\x9f\\xbf\\xe6\\xb1\\xa0.sol\":2937:2957  User_Map[msg.sender] */\n      dup3\n      mstore\n        /* \"\\xe8\\x87\\xaa\\xe5\\xb7\\xb1\\xe5\\x86\\x99\\xe4\\xb8\\xaa\\xe7\\x9f\\xbf\\xe6\\xb1\\xa0,\\xe5\\xae\\x9a\\xe6\\x81\\xaf\\xe7\\x9f\\xbf\\xe6\\xb1\\xa0.sol\":2937:2945  User_Map */\n      0x05\n        /* \"\\xe8\\x87\\xaa\\xe5\\xb7\\xb1\\xe5\\x86\\x99\\xe4\\xb8\\xaa\\xe7\\x9f\\xbf\\xe6\\xb1\\xa0,\\xe5\\xae\\x9a\\xe6\\x81\\xaf\\xe7\\x9f\\xbf\\xe6\\xb1\\xa0.sol\":2937:2957  User_Map[msg.sender] */\n      0x20\n      mstore\n      0x40\n      dup3\n      keccak256\n        /* \"\\xe8\\x87\\xaa\\xe5\\xb7\\xb1\\xe5\\x86\\x99\\xe4\\xb8\\xaa\\xe7\\x9f\\xbf\\xe6\\xb1\\xa0,\\xe5\\xae\\x9a\\xe6\\x81\\xaf\\xe7\\x9f\\xbf\\xe6\\xb1\\xa0.sol\":2937:2969  User_Map[msg.sender].stakeNumber */\n      sload\n        /* \"\\xe8\\x87\\xaa\\xe5\\xb7\\xb1\\xe5\\x86\\x99\\xe4\\xb8\\xaa\\xe7\\x9f\\xbf\\xe6\\xb1\\xa0,\\xe5\\xae\\x9a\\xe6\\x81\\xaf\\xe7\\x9f\\xbf\\xe6\\xb1\\xa0.sol\":2986:2994  31536000 */\n      0x01e13380\n      swap2\n        /* \"\\xe8\\x87\\xaa\\xe5\\xb7\\xb1\\xe5\\x86\\x99\\xe4\\xb8\\xaa\\xe7\\x9f\\xbf\\xe6\\xb1\\xa0,\\xe5\\xae\\x9a\\xe6\\x81\\xaf\\xe7\\x9f\\xbf\\xe6\\xb1\\xa0.sol\":2979:2982  100 */\n      0x64\n      swap2\n        /* \"\\xe8\\x87\\xaa\\xe5\\xb7\\xb1\\xe5\\x86\\x99\\xe4\\xb8\\xaa\\xe7\\x9f\\xbf\\xe6\\xb1\\xa0,\\xe5\\xae\\x9a\\xe6\\x81\\xaf\\xe7\\x9f\\xbf\\xe6\\xb1\\xa0.sol\":2937:2977  User_Map[msg.sender].stakeNumber * ratio */\n      tag_90\n      swap2\n        /* \"\\xe8\\x87\\xaa\\xe5\\xb7\\xb1\\xe5\\x86\\x99\\xe4\\xb8\\xaa\\xe7\\x9f\\xbf\\xe6\\xb1\\xa0,\\xe5\\xae\\x9a\\xe6\\x81\\xaf\\xe7\\x9f\\xbf\\xe6\\xb1\\xa0.sol\":2972:2977  ratio */\n      swap1\n        /* \"\\xe8\\x87\\xaa\\xe5\\xb7\\xb1\\xe5\\x86\\x99\\xe4\\xb8\\xaa\\xe7\\x9f\\xbf\\xe6\\xb1\\xa0,\\xe5\\xae\\x9a\\xe6\\x81\\xaf\\xe7\\x9f\\xbf\\xe6\\xb1\\xa0.sol\":2937:2977  User_Map[msg.sender].stakeNumber * ratio */\n      tag_65\n      jump\t// in\n    tag_90:\n        /* \"\\xe8\\x87\\xaa\\xe5\\xb7\\xb1\\xe5\\x86\\x99\\xe4\\xb8\\xaa\\xe7\\x9f\\xbf\\xe6\\xb1\\xa0,\\xe5\\xae\\x9a\\xe6\\x81\\xaf\\xe7\\x9f\\xbf\\xe6\\xb1\\xa0.sol\":2937:2982  User_Map[msg.sender].stakeNumber * ratio /100 */\n      tag_91\n      swap2\n      swap1\n      tag_67\n      jump\t// in\n    tag_91:\n        /* \"\\xe8\\x87\\xaa\\xe5\\xb7\\xb1\\xe5\\x86\\x99\\xe4\\xb8\\xaa\\xe7\\x9f\\xbf\\xe6\\xb1\\xa0,\\xe5\\xae\\x9a\\xe6\\x81\\xaf\\xe7\\x9f\\xbf\\xe6\\xb1\\xa0.sol\":2936:2994  (User_Map[msg.sender].stakeNumber * ratio /100) / 31536000 */\n      tag_92\n      swap2\n      swap1\n      tag_67\n      jump\t// in\n    tag_92:\n        /* \"\\xe8\\x87\\xaa\\xe5\\xb7\\xb1\\xe5\\x86\\x99\\xe4\\xb8\\xaa\\xe7\\x9f\\xbf\\xe6\\xb1\\xa0,\\xe5\\xae\\x9a\\xe6\\x81\\xaf\\xe7\\x9f\\xbf\\xe6\\xb1\\xa0.sol\":2904:2914  msg.sender */\n      caller\n        /* \"\\xe8\\x87\\xaa\\xe5\\xb7\\xb1\\xe5\\x86\\x99\\xe4\\xb8\\xaa\\xe7\\x9f\\xbf\\xe6\\xb1\\xa0,\\xe5\\xae\\x9a\\xe6\\x81\\xaf\\xe7\\x9f\\xbf\\xe6\\xb1\\xa0.sol\":2895:2915  User_Map[msg.sender] */\n      0x00\n      swap1\n      dup2\n      mstore\n        /* \"\\xe8\\x87\\xaa\\xe5\\xb7\\xb1\\xe5\\x86\\x99\\xe4\\xb8\\xaa\\xe7\\x9f\\xbf\\xe6\\xb1\\xa0,\\xe5\\xae\\x9a\\xe6\\x81\\xaf\\xe7\\x9f\\xbf\\xe6\\xb1\\xa0.sol\":2895:2903  User_Map */\n      0x05\n        /* \"\\xe8\\x87\\xaa\\xe5\\xb7\\xb1\\xe5\\x86\\x99\\xe4\\xb8\\xaa\\xe7\\x9f\\xbf\\xe6\\xb1\\xa0,\\xe5\\xae\\x9a\\xe6\\x81\\xaf\\xe7\\x9f\\xbf\\xe6\\xb1\\xa0.sol\":2895:2915  User_Map[msg.sender] */\n      0x20\n      mstore\n      0x40\n      swap1\n      keccak256\n        /* \"\\xe8\\x87\\xaa\\xe5\\xb7\\xb1\\xe5\\x86\\x99\\xe4\\xb8\\xaa\\xe7\\x9f\\xbf\\xe6\\xb1\\xa0,\\xe5\\xae\\x9a\\xe6\\x81\\xaf\\xe7\\x9f\\xbf\\xe6\\xb1\\xa0.sol\":2895:2931  User_Map[msg.sender].last_Stake_Time */\n      0x01\n      add\n      sload\n        /* \"\\xe8\\x87\\xaa\\xe5\\xb7\\xb1\\xe5\\x86\\x99\\xe4\\xb8\\xaa\\xe7\\x9f\\xbf\\xe6\\xb1\\xa0,\\xe5\\xae\\x9a\\xe6\\x81\\xaf\\xe7\\x9f\\xbf\\xe6\\xb1\\xa0.sol\":2877:2931  block.timestamp - User_Map[msg.sender].last_Stake_Time */\n      tag_93\n      swap1\n        /* \"\\xe8\\x87\\xaa\\xe5\\xb7\\xb1\\xe5\\x86\\x99\\xe4\\xb8\\xaa\\xe7\\x9f\\xbf\\xe6\\xb1\\xa0,\\xe5\\xae\\x9a\\xe6\\x81\\xaf\\xe7\\x9f\\xbf\\xe6\\xb1\\xa0.sol\":2877:2892  block.timestamp */\n      timestamp\n        /* \"\\xe8\\x87\\xaa\\xe5\\xb7\\xb1\\xe5\\x86\\x99\\xe4\\xb8\\xaa\\xe7\\x9f\\xbf\\xe6\\xb1\\xa0,\\xe5\\xae\\x9a\\xe6\\x81\\xaf\\xe7\\x9f\\xbf\\xe6\\xb1\\xa0.sol\":2877:2931  block.timestamp - User_Map[msg.sender].last_Stake_Time */\n      tag_70\n      jump\t// in\n    tag_93:\n        /* \"\\xe8\\x87\\xaa\\xe5\\xb7\\xb1\\xe5\\x86\\x99\\xe4\\xb8\\xaa\\xe7\\x9f\\xbf\\xe6\\xb1\\xa0,\\xe5\\xae\\x9a\\xe6\\x81\\xaf\\xe7\\x9f\\xbf\\xe6\\xb1\\xa0.sol\":2876:2995  (block.timestamp - User_Map[msg.sender].last_Stake_Time) * ((User_Map[msg.sender].stakeNumber * ratio /100) / 31536000) */\n      tag_94\n      swap2\n      swap1\n      tag_65\n      jump\t// in\n    tag_94:\n        /* \"\\xe8\\x87\\xaa\\xe5\\xb7\\xb1\\xe5\\x86\\x99\\xe4\\xb8\\xaa\\xe7\\x9f\\xbf\\xe6\\xb1\\xa0,\\xe5\\xae\\x9a\\xe6\\x81\\xaf\\xe7\\x9f\\xbf\\xe6\\xb1\\xa0.sol\":2843:2853  msg.sender */\n      caller\n        /* \"\\xe8\\x87\\xaa\\xe5\\xb7\\xb1\\xe5\\x86\\x99\\xe4\\xb8\\xaa\\xe7\\x9f\\xbf\\xe6\\xb1\\xa0,\\xe5\\xae\\x9a\\xe6\\x81\\xaf\\xe7\\x9f\\xbf\\xe6\\xb1\\xa0.sol\":2834:2854  User_Map[msg.sender] */\n      0x00\n      swap1\n      dup2\n      mstore\n        /* \"\\xe8\\x87\\xaa\\xe5\\xb7\\xb1\\xe5\\x86\\x99\\xe4\\xb8\\xaa\\xe7\\x9f\\xbf\\xe6\\xb1\\xa0,\\xe5\\xae\\x9a\\xe6\\x81\\xaf\\xe7\\x9f\\xbf\\xe6\\xb1\\xa0.sol\":2834:2842  User_Map */\n      0x05\n        /* \"\\xe8\\x87\\xaa\\xe5\\xb7\\xb1\\xe5\\x86\\x99\\xe4\\xb8\\xaa\\xe7\\x9f\\xbf\\xe6\\xb1\\xa0,\\xe5\\xae\\x9a\\xe6\\x81\\xaf\\xe7\\x9f\\xbf\\xe6\\xb1\\xa0.sol\":2834:2854  User_Map[msg.sender] */\n      0x20\n      mstore\n      0x40\n      swap1\n      keccak256\n        /* \"\\xe8\\x87\\xaa\\xe5\\xb7\\xb1\\xe5\\x86\\x99\\xe4\\xb8\\xaa\\xe7\\x9f\\xbf\\xe6\\xb1\\xa0,\\xe5\\xae\\x9a\\xe6\\x81\\xaf\\xe7\\x9f\\xbf\\xe6\\xb1\\xa0.sol\":2834:2873  User_Map[msg.sender].last_totoken_ratio */\n      0x02\n      add\n      sload\n        /* \"\\xe8\\x87\\xaa\\xe5\\xb7\\xb1\\xe5\\x86\\x99\\xe4\\xb8\\xaa\\xe7\\x9f\\xbf\\xe6\\xb1\\xa0,\\xe5\\xae\\x9a\\xe6\\x81\\xaf\\xe7\\x9f\\xbf\\xe6\\xb1\\xa0.sol\":2834:2995  User_Map[msg.sender].last_totoken_ratio + (block.timestamp - User_Map[msg.sender].last_Stake_Time) * ((User_Map[msg.sender].stakeNumber * ratio /100) / 31536000) */\n      tag_95\n      swap2\n      swap1\n      tag_73\n      jump\t// in\n    tag_95:\n        /* \"\\xe8\\x87\\xaa\\xe5\\xb7\\xb1\\xe5\\x86\\x99\\xe4\\xb8\\xaa\\xe7\\x9f\\xbf\\xe6\\xb1\\xa0,\\xe5\\xae\\x9a\\xe6\\x81\\xaf\\xe7\\x9f\\xbf\\xe6\\xb1\\xa0.sol\":2808:2818  msg.sender */\n      caller\n        /* \"\\xe8\\x87\\xaa\\xe5\\xb7\\xb1\\xe5\\x86\\x99\\xe4\\xb8\\xaa\\xe7\\x9f\\xbf\\xe6\\xb1\\xa0,\\xe5\\xae\\x9a\\xe6\\x81\\xaf\\xe7\\x9f\\xbf\\xe6\\xb1\\xa0.sol\":2799:2819  User_Map[msg.sender] */\n      0x00\n      dup2\n      dup2\n      mstore\n        /* \"\\xe8\\x87\\xaa\\xe5\\xb7\\xb1\\xe5\\x86\\x99\\xe4\\xb8\\xaa\\xe7\\x9f\\xbf\\xe6\\xb1\\xa0,\\xe5\\xae\\x9a\\xe6\\x81\\xaf\\xe7\\x9f\\xbf\\xe6\\xb1\\xa0.sol\":2799:2807  User_Map */\n      0x05\n        /* \"\\xe8\\x87\\xaa\\xe5\\xb7\\xb1\\xe5\\x86\\x99\\xe4\\xb8\\xaa\\xe7\\x9f\\xbf\\xe6\\xb1\\xa0,\\xe5\\xae\\x9a\\xe6\\x81\\xaf\\xe7\\x9f\\xbf\\xe6\\xb1\\xa0.sol\":2799:2819  User_Map[msg.sender] */\n      0x20\n      mstore\n      0x40\n      swap1\n      dup2\n      swap1\n      keccak256\n        /* \"\\xe8\\x87\\xaa\\xe5\\xb7\\xb1\\xe5\\x86\\x99\\xe4\\xb8\\xaa\\xe7\\x9f\\xbf\\xe6\\xb1\\xa0,\\xe5\\xae\\x9a\\xe6\\x81\\xaf\\xe7\\x9f\\xbf\\xe6\\xb1\\xa0.sol\":2799:2831  User_Map[msg.sender].whole_ratio */\n      0x03\n      add\n        /* \"\\xe8\\x87\\xaa\\xe5\\xb7\\xb1\\xe5\\x86\\x99\\xe4\\xb8\\xaa\\xe7\\x9f\\xbf\\xe6\\xb1\\xa0,\\xe5\\xae\\x9a\\xe6\\x81\\xaf\\xe7\\x9f\\xbf\\xe6\\xb1\\xa0.sol\":2799:2995  User_Map[msg.sender].whole_ratio = User_Map[msg.sender].last_totoken_ratio + (block.timestamp - User_Map[msg.sender].last_Stake_Time) * ((User_Map[msg.sender].stakeNumber * ratio /100) / 31536000) */\n      dup4\n      swap1\n      sstore\n        /* \"\\xe8\\x87\\xaa\\xe5\\xb7\\xb1\\xe5\\x86\\x99\\xe4\\xb8\\xaa\\xe7\\x9f\\xbf\\xe6\\xb1\\xa0,\\xe5\\xae\\x9a\\xe6\\x81\\xaf\\xe7\\x9f\\xbf\\xe6\\xb1\\xa0.sol\":3013:3020  totoken */\n      sload(0x02)\n        /* \"\\xe8\\x87\\xaa\\xe5\\xb7\\xb1\\xe5\\x86\\x99\\xe4\\xb8\\xaa\\xe7\\x9f\\xbf\\xe6\\xb1\\xa0,\\xe5\\xae\\x9a\\xe6\\x81\\xaf\\xe7\\x9f\\xbf\\xe6\\xb1\\xa0.sol\":3006:3076  IERC20(totoken).transfer(msg.sender, User_Map[msg.sender].whole_ratio) */\n      swap1\n      mload\n      shl(0xe0, 0xa9059cbb)\n      dup2\n      mstore\n      0x04\n      dup2\n      add\n        /* \"#utility.yul\":3503:3554   */\n      swap3\n      swap1\n      swap3\n      mstore\n        /* \"#utility.yul\":3570:3588   */\n      0x24\n      dup3\n      add\n        /* \"#utility.yul\":3563:3597   */\n      swap3\n      swap1\n      swap3\n      mstore\n      sub(shl(0xa0, 0x01), 0x01)\n        /* \"\\xe8\\x87\\xaa\\xe5\\xb7\\xb1\\xe5\\x86\\x99\\xe4\\xb8\\xaa\\xe7\\x9f\\xbf\\xe6\\xb1\\xa0,\\xe5\\xae\\x9a\\xe6\\x81\\xaf\\xe7\\x9f\\xbf\\xe6\\xb1\\xa0.sol\":3013:3020  totoken */\n      swap1\n      swap2\n      and\n      swap1\n        /* \"\\xe8\\x87\\xaa\\xe5\\xb7\\xb1\\xe5\\x86\\x99\\xe4\\xb8\\xaa\\xe7\\x9f\\xbf\\xe6\\xb1\\xa0,\\xe5\\xae\\x9a\\xe6\\x81\\xaf\\xe7\\x9f\\xbf\\xe6\\xb1\\xa0.sol\":3006:3030  IERC20(totoken).transfer */\n      0xa9059cbb\n      swap1\n        /* \"#utility.yul\":3476:3494   */\n      0x44\n      add\n        /* \"\\xe8\\x87\\xaa\\xe5\\xb7\\xb1\\xe5\\x86\\x99\\xe4\\xb8\\xaa\\xe7\\x9f\\xbf\\xe6\\xb1\\xa0,\\xe5\\xae\\x9a\\xe6\\x81\\xaf\\xe7\\x9f\\xbf\\xe6\\xb1\\xa0.sol\":3006:3076  IERC20(totoken).transfer(msg.sender, User_Map[msg.sender].whole_ratio) */\n      0x20\n      mload(0x40)\n      dup1\n      dup4\n      sub\n      dup2\n      0x00\n      dup8\n      gas\n      call\n      iszero\n      dup1\n      iszero\n      tag_99\n      jumpi\n      returndatasize\n      0x00\n      dup1\n      returndatacopy\n      revert(0x00, returndatasize)\n    tag_99:\n      pop\n      pop\n      pop\n      pop\n      mload(0x40)\n      returndatasize\n      not(0x1f)\n      0x1f\n      dup3\n      add\n      and\n      dup3\n      add\n      dup1\n      0x40\n      mstore\n      pop\n      dup2\n      add\n      swap1\n      tag_100\n      swap2\n      swap1\n      tag_62\n      jump\t// in\n    tag_100:\n      pop\n        /* \"\\xe8\\x87\\xaa\\xe5\\xb7\\xb1\\xe5\\x86\\x99\\xe4\\xb8\\xaa\\xe7\\x9f\\xbf\\xe6\\xb1\\xa0,\\xe5\\xae\\x9a\\xe6\\x81\\xaf\\xe7\\x9f\\xbf\\xe6\\xb1\\xa0.sol\":3104:3114  msg.sender */\n      caller\n        /* \"\\xe8\\x87\\xaa\\xe5\\xb7\\xb1\\xe5\\x86\\x99\\xe4\\xb8\\xaa\\xe7\\x9f\\xbf\\xe6\\xb1\\xa0,\\xe5\\xae\\x9a\\xe6\\x81\\xaf\\xe7\\x9f\\xbf\\xe6\\xb1\\xa0.sol\":3116:3136  User_Map[msg.sender] */\n      0x00\n      dup2\n      dup2\n      mstore\n        /* \"\\xe8\\x87\\xaa\\xe5\\xb7\\xb1\\xe5\\x86\\x99\\xe4\\xb8\\xaa\\xe7\\x9f\\xbf\\xe6\\xb1\\xa0,\\xe5\\xae\\x9a\\xe6\\x81\\xaf\\xe7\\x9f\\xbf\\xe6\\xb1\\xa0.sol\":3116:3124  User_Map */\n      0x05\n        /* \"\\xe8\\x87\\xaa\\xe5\\xb7\\xb1\\xe5\\x86\\x99\\xe4\\xb8\\xaa\\xe7\\x9f\\xbf\\xe6\\xb1\\xa0,\\xe5\\xae\\x9a\\xe6\\x81\\xaf\\xe7\\x9f\\xbf\\xe6\\xb1\\xa0.sol\":3116:3136  User_Map[msg.sender] */\n      0x20\n      swap1\n      dup2\n      mstore\n      0x40\n      swap2\n      dup3\n      swap1\n      keccak256\n        /* \"\\xe8\\x87\\xaa\\xe5\\xb7\\xb1\\xe5\\x86\\x99\\xe4\\xb8\\xaa\\xe7\\x9f\\xbf\\xe6\\xb1\\xa0,\\xe5\\xae\\x9a\\xe6\\x81\\xaf\\xe7\\x9f\\xbf\\xe6\\xb1\\xa0.sol\":3116:3148  User_Map[msg.sender].whole_ratio */\n      0x03\n      add\n      sload\n        /* \"\\xe8\\x87\\xaa\\xe5\\xb7\\xb1\\xe5\\x86\\x99\\xe4\\xb8\\xaa\\xe7\\x9f\\xbf\\xe6\\xb1\\xa0,\\xe5\\xae\\x9a\\xe6\\x81\\xaf\\xe7\\x9f\\xbf\\xe6\\xb1\\xa0.sol\":3095:3149  transfer(msg.sender, User_Map[msg.sender].whole_ratio) */\n      swap2\n      mload\n        /* \"#utility.yul\":745:770   */\n      swap2\n      dup3\n      mstore\n        /* \"\\xe8\\x87\\xaa\\xe5\\xb7\\xb1\\xe5\\x86\\x99\\xe4\\xb8\\xaa\\xe7\\x9f\\xbf\\xe6\\xb1\\xa0,\\xe5\\xae\\x9a\\xe6\\x81\\xaf\\xe7\\x9f\\xbf\\xe6\\xb1\\xa0.sol\":3095:3149  transfer(msg.sender, User_Map[msg.sender].whole_ratio) */\n      0xa9059cbb2ab09eb219583f4a59a5d0623ade346d962bcd4e46b11da047c9049b\n      swap2\n        /* \"#utility.yul\":718:736   */\n      add\n        /* \"\\xe8\\x87\\xaa\\xe5\\xb7\\xb1\\xe5\\x86\\x99\\xe4\\xb8\\xaa\\xe7\\x9f\\xbf\\xe6\\xb1\\xa0,\\xe5\\xae\\x9a\\xe6\\x81\\xaf\\xe7\\x9f\\xbf\\xe6\\xb1\\xa0.sol\":3095:3149  transfer(msg.sender, User_Map[msg.sender].whole_ratio) */\n      mload(0x40)\n      dup1\n      swap2\n      sub\n      swap1\n      log2\n        /* \"\\xe8\\x87\\xaa\\xe5\\xb7\\xb1\\xe5\\x86\\x99\\xe4\\xb8\\xaa\\xe7\\x9f\\xbf\\xe6\\xb1\\xa0,\\xe5\\xae\\x9a\\xe6\\x81\\xaf\\xe7\\x9f\\xbf\\xe6\\xb1\\xa0.sol\":3171:3181  msg.sender */\n      caller\n        /* \"\\xe8\\x87\\xaa\\xe5\\xb7\\xb1\\xe5\\x86\\x99\\xe4\\xb8\\xaa\\xe7\\x9f\\xbf\\xe6\\xb1\\xa0,\\xe5\\xae\\x9a\\xe6\\x81\\xaf\\xe7\\x9f\\xbf\\xe6\\xb1\\xa0.sol\":3197:3198  0 */\n      0x00\n        /* \"\\xe8\\x87\\xaa\\xe5\\xb7\\xb1\\xe5\\x86\\x99\\xe4\\xb8\\xaa\\xe7\\x9f\\xbf\\xe6\\xb1\\xa0,\\xe5\\xae\\x9a\\xe6\\x81\\xaf\\xe7\\x9f\\xbf\\xe6\\xb1\\xa0.sol\":3162:3182  User_Map[msg.sender] */\n      dup2\n      dup2\n      mstore\n        /* \"\\xe8\\x87\\xaa\\xe5\\xb7\\xb1\\xe5\\x86\\x99\\xe4\\xb8\\xaa\\xe7\\x9f\\xbf\\xe6\\xb1\\xa0,\\xe5\\xae\\x9a\\xe6\\x81\\xaf\\xe7\\x9f\\xbf\\xe6\\xb1\\xa0.sol\":3162:3170  User_Map */\n      0x05\n        /* \"\\xe8\\x87\\xaa\\xe5\\xb7\\xb1\\xe5\\x86\\x99\\xe4\\xb8\\xaa\\xe7\\x9f\\xbf\\xe6\\xb1\\xa0,\\xe5\\xae\\x9a\\xe6\\x81\\xaf\\xe7\\x9f\\xbf\\xe6\\xb1\\xa0.sol\":3162:3182  User_Map[msg.sender] */\n      0x20\n      mstore\n      0x40\n      dup1\n      dup3\n      keccak256\n        /* \"\\xe8\\x87\\xaa\\xe5\\xb7\\xb1\\xe5\\x86\\x99\\xe4\\xb8\\xaa\\xe7\\x9f\\xbf\\xe6\\xb1\\xa0,\\xe5\\xae\\x9a\\xe6\\x81\\xaf\\xe7\\x9f\\xbf\\xe6\\xb1\\xa0.sol\":3162:3194  User_Map[msg.sender].whole_ratio */\n      0x03\n      dup2\n      add\n        /* \"\\xe8\\x87\\xaa\\xe5\\xb7\\xb1\\xe5\\x86\\x99\\xe4\\xb8\\xaa\\xe7\\x9f\\xbf\\xe6\\xb1\\xa0,\\xe5\\xae\\x9a\\xe6\\x81\\xaf\\xe7\\x9f\\xbf\\xe6\\xb1\\xa0.sol\":3162:3198  User_Map[msg.sender].whole_ratio = 0 */\n      dup4\n      swap1\n      sstore\n        /* \"\\xe8\\x87\\xaa\\xe5\\xb7\\xb1\\xe5\\x86\\x99\\xe4\\xb8\\xaa\\xe7\\x9f\\xbf\\xe6\\xb1\\xa0,\\xe5\\xae\\x9a\\xe6\\x81\\xaf\\xe7\\x9f\\xbf\\xe6\\xb1\\xa0.sol\":3209:3248  User_Map[msg.sender].last_totoken_ratio */\n      0x02\n      dup2\n      add\n        /* \"\\xe8\\x87\\xaa\\xe5\\xb7\\xb1\\xe5\\x86\\x99\\xe4\\xb8\\xaa\\xe7\\x9f\\xbf\\xe6\\xb1\\xa0,\\xe5\\xae\\x9a\\xe6\\x81\\xaf\\xe7\\x9f\\xbf\\xe6\\xb1\\xa0.sol\":3209:3252  User_Map[msg.sender].last_totoken_ratio = 0 */\n      swap3\n      swap1\n      swap3\n      sstore\n      0x01\n        /* \"\\xe8\\x87\\xaa\\xe5\\xb7\\xb1\\xe5\\x86\\x99\\xe4\\xb8\\xaa\\xe7\\x9f\\xbf\\xe6\\xb1\\xa0,\\xe5\\xae\\x9a\\xe6\\x81\\xaf\\xe7\\x9f\\xbf\\xe6\\xb1\\xa0.sol\":3275:3285  staketoken */\n      sload\n        /* \"\\xe8\\x87\\xaa\\xe5\\xb7\\xb1\\xe5\\x86\\x99\\xe4\\xb8\\xaa\\xe7\\x9f\\xbf\\xe6\\xb1\\xa0,\\xe5\\xae\\x9a\\xe6\\x81\\xaf\\xe7\\x9f\\xbf\\xe6\\xb1\\xa0.sol\":3308:3340  User_Map[msg.sender].stakeNumber */\n      swap2\n      sload\n        /* \"\\xe8\\x87\\xaa\\xe5\\xb7\\xb1\\xe5\\x86\\x99\\xe4\\xb8\\xaa\\xe7\\x9f\\xbf\\xe6\\xb1\\xa0,\\xe5\\xae\\x9a\\xe6\\x81\\xaf\\xe7\\x9f\\xbf\\xe6\\xb1\\xa0.sol\":3268:3341  IERC20(staketoken).transfer(msg.sender, User_Map[msg.sender].stakeNumber) */\n      swap1\n      mload\n      shl(0xe0, 0xa9059cbb)\n      dup2\n      mstore\n      0x04\n      dup2\n      add\n        /* \"#utility.yul\":3503:3554   */\n      swap4\n      swap1\n      swap4\n      mstore\n        /* \"#utility.yul\":3570:3588   */\n      0x24\n      dup4\n      add\n        /* \"#utility.yul\":3563:3597   */\n      mstore\n      sub(shl(0xa0, 0x01), 0x01)\n        /* \"\\xe8\\x87\\xaa\\xe5\\xb7\\xb1\\xe5\\x86\\x99\\xe4\\xb8\\xaa\\xe7\\x9f\\xbf\\xe6\\xb1\\xa0,\\xe5\\xae\\x9a\\xe6\\x81\\xaf\\xe7\\x9f\\xbf\\xe6\\xb1\\xa0.sol\":3275:3285  staketoken */\n      and\n      swap1\n        /* \"\\xe8\\x87\\xaa\\xe5\\xb7\\xb1\\xe5\\x86\\x99\\xe4\\xb8\\xaa\\xe7\\x9f\\xbf\\xe6\\xb1\\xa0,\\xe5\\xae\\x9a\\xe6\\x81\\xaf\\xe7\\x9f\\xbf\\xe6\\xb1\\xa0.sol\":3268:3295  IERC20(staketoken).transfer */\n      0xa9059cbb\n      swap1\n        /* \"#utility.yul\":3476:3494   */\n      0x44\n      add\n        /* \"\\xe8\\x87\\xaa\\xe5\\xb7\\xb1\\xe5\\x86\\x99\\xe4\\xb8\\xaa\\xe7\\x9f\\xbf\\xe6\\xb1\\xa0,\\xe5\\xae\\x9a\\xe6\\x81\\xaf\\xe7\\x9f\\xbf\\xe6\\xb1\\xa0.sol\":3268:3341  IERC20(staketoken).transfer(msg.sender, User_Map[msg.sender].stakeNumber) */\n      0x20\n      mload(0x40)\n      dup1\n      dup4\n      sub\n      dup2\n      0x00\n      dup8\n      gas\n      call\n      iszero\n      dup1\n      iszero\n      tag_104\n      jumpi\n      returndatasize\n      0x00\n      dup1\n      returndatacopy\n      revert(0x00, returndatasize)\n    tag_104:\n      pop\n      pop\n      pop\n      pop\n      mload(0x40)\n      returndatasize\n      not(0x1f)\n      0x1f\n      dup3\n      add\n      and\n      dup3\n      add\n      dup1\n      0x40\n      mstore\n      pop\n      dup2\n      add\n      swap1\n      tag_105\n      swap2\n      swap1\n      tag_62\n      jump\t// in\n    tag_105:\n      pop\n        /* \"\\xe8\\x87\\xaa\\xe5\\xb7\\xb1\\xe5\\x86\\x99\\xe4\\xb8\\xaa\\xe7\\x9f\\xbf\\xe6\\xb1\\xa0,\\xe5\\xae\\x9a\\xe6\\x81\\xaf\\xe7\\x9f\\xbf\\xe6\\xb1\\xa0.sol\":3369:3379  msg.sender */\n      caller\n        /* \"\\xe8\\x87\\xaa\\xe5\\xb7\\xb1\\xe5\\x86\\x99\\xe4\\xb8\\xaa\\xe7\\x9f\\xbf\\xe6\\xb1\\xa0,\\xe5\\xae\\x9a\\xe6\\x81\\xaf\\xe7\\x9f\\xbf\\xe6\\xb1\\xa0.sol\":3381:3401  User_Map[msg.sender] */\n      0x00\n      dup2\n      dup2\n      mstore\n        /* \"\\xe8\\x87\\xaa\\xe5\\xb7\\xb1\\xe5\\x86\\x99\\xe4\\xb8\\xaa\\xe7\\x9f\\xbf\\xe6\\xb1\\xa0,\\xe5\\xae\\x9a\\xe6\\x81\\xaf\\xe7\\x9f\\xbf\\xe6\\xb1\\xa0.sol\":3381:3389  User_Map */\n      0x05\n        /* \"\\xe8\\x87\\xaa\\xe5\\xb7\\xb1\\xe5\\x86\\x99\\xe4\\xb8\\xaa\\xe7\\x9f\\xbf\\xe6\\xb1\\xa0,\\xe5\\xae\\x9a\\xe6\\x81\\xaf\\xe7\\x9f\\xbf\\xe6\\xb1\\xa0.sol\":3381:3401  User_Map[msg.sender] */\n      0x20\n      swap1\n      dup2\n      mstore\n      0x40\n      swap2\n      dup3\n      swap1\n      keccak256\n        /* \"\\xe8\\x87\\xaa\\xe5\\xb7\\xb1\\xe5\\x86\\x99\\xe4\\xb8\\xaa\\xe7\\x9f\\xbf\\xe6\\xb1\\xa0,\\xe5\\xae\\x9a\\xe6\\x81\\xaf\\xe7\\x9f\\xbf\\xe6\\xb1\\xa0.sol\":3381:3413  User_Map[msg.sender].stakeNumber */\n      sload\n        /* \"\\xe8\\x87\\xaa\\xe5\\xb7\\xb1\\xe5\\x86\\x99\\xe4\\xb8\\xaa\\xe7\\x9f\\xbf\\xe6\\xb1\\xa0,\\xe5\\xae\\x9a\\xe6\\x81\\xaf\\xe7\\x9f\\xbf\\xe6\\xb1\\xa0.sol\":3360:3414  transfer(msg.sender, User_Map[msg.sender].stakeNumber) */\n      swap2\n      mload\n        /* \"#utility.yul\":745:770   */\n      swap2\n      dup3\n      mstore\n        /* \"\\xe8\\x87\\xaa\\xe5\\xb7\\xb1\\xe5\\x86\\x99\\xe4\\xb8\\xaa\\xe7\\x9f\\xbf\\xe6\\xb1\\xa0,\\xe5\\xae\\x9a\\xe6\\x81\\xaf\\xe7\\x9f\\xbf\\xe6\\xb1\\xa0.sol\":3360:3414  transfer(msg.sender, User_Map[msg.sender].stakeNumber) */\n      0xa9059cbb2ab09eb219583f4a59a5d0623ade346d962bcd4e46b11da047c9049b\n      swap2\n        /* \"#utility.yul\":718:736   */\n      add\n        /* \"\\xe8\\x87\\xaa\\xe5\\xb7\\xb1\\xe5\\x86\\x99\\xe4\\xb8\\xaa\\xe7\\x9f\\xbf\\xe6\\xb1\\xa0,\\xe5\\xae\\x9a\\xe6\\x81\\xaf\\xe7\\x9f\\xbf\\xe6\\xb1\\xa0.sol\":3360:3414  transfer(msg.sender, User_Map[msg.sender].stakeNumber) */\n      mload(0x40)\n      dup1\n      swap2\n      sub\n      swap1\n      log2\n        /* \"\\xe8\\x87\\xaa\\xe5\\xb7\\xb1\\xe5\\x86\\x99\\xe4\\xb8\\xaa\\xe7\\x9f\\xbf\\xe6\\xb1\\xa0,\\xe5\\xae\\x9a\\xe6\\x81\\xaf\\xe7\\x9f\\xbf\\xe6\\xb1\\xa0.sol\":3449:3459  msg.sender */\n      caller\n        /* \"\\xe8\\x87\\xaa\\xe5\\xb7\\xb1\\xe5\\x86\\x99\\xe4\\xb8\\xaa\\xe7\\x9f\\xbf\\xe6\\xb1\\xa0,\\xe5\\xae\\x9a\\xe6\\x81\\xaf\\xe7\\x9f\\xbf\\xe6\\xb1\\xa0.sol\":3440:3460  User_Map[msg.sender] */\n      0x00\n      swap1\n      dup2\n      mstore\n        /* \"\\xe8\\x87\\xaa\\xe5\\xb7\\xb1\\xe5\\x86\\x99\\xe4\\xb8\\xaa\\xe7\\x9f\\xbf\\xe6\\xb1\\xa0,\\xe5\\xae\\x9a\\xe6\\x81\\xaf\\xe7\\x9f\\xbf\\xe6\\xb1\\xa0.sol\":3440:3448  User_Map */\n      0x05\n        /* \"\\xe8\\x87\\xaa\\xe5\\xb7\\xb1\\xe5\\x86\\x99\\xe4\\xb8\\xaa\\xe7\\x9f\\xbf\\xe6\\xb1\\xa0,\\xe5\\xae\\x9a\\xe6\\x81\\xaf\\xe7\\x9f\\xbf\\xe6\\xb1\\xa0.sol\":3440:3460  User_Map[msg.sender] */\n      0x20\n      mstore\n      0x40\n      dup2\n      keccak256\n        /* \"\\xe8\\x87\\xaa\\xe5\\xb7\\xb1\\xe5\\x86\\x99\\xe4\\xb8\\xaa\\xe7\\x9f\\xbf\\xe6\\xb1\\xa0,\\xe5\\xae\\x9a\\xe6\\x81\\xaf\\xe7\\x9f\\xbf\\xe6\\xb1\\xa0.sol\":3440:3472  User_Map[msg.sender].stakeNumber */\n      sload\n        /* \"\\xe8\\x87\\xaa\\xe5\\xb7\\xb1\\xe5\\x86\\x99\\xe4\\xb8\\xaa\\xe7\\x9f\\xbf\\xe6\\xb1\\xa0,\\xe5\\xae\\x9a\\xe6\\x81\\xaf\\xe7\\x9f\\xbf\\xe6\\xb1\\xa0.sol\":3425:3436  stakeSupple */\n      0x03\n        /* \"\\xe8\\x87\\xaa\\xe5\\xb7\\xb1\\xe5\\x86\\x99\\xe4\\xb8\\xaa\\xe7\\x9f\\xbf\\xe6\\xb1\\xa0,\\xe5\\xae\\x9a\\xe6\\x81\\xaf\\xe7\\x9f\\xbf\\xe6\\xb1\\xa0.sol\":3425:3472  stakeSupple -= User_Map[msg.sender].stakeNumber */\n      dup1\n      sload\n        /* \"\\xe8\\x87\\xaa\\xe5\\xb7\\xb1\\xe5\\x86\\x99\\xe4\\xb8\\xaa\\xe7\\x9f\\xbf\\xe6\\xb1\\xa0,\\xe5\\xae\\x9a\\xe6\\x81\\xaf\\xe7\\x9f\\xbf\\xe6\\xb1\\xa0.sol\":3440:3472  User_Map[msg.sender].stakeNumber */\n      swap2\n      swap3\n        /* \"\\xe8\\x87\\xaa\\xe5\\xb7\\xb1\\xe5\\x86\\x99\\xe4\\xb8\\xaa\\xe7\\x9f\\xbf\\xe6\\xb1\\xa0,\\xe5\\xae\\x9a\\xe6\\x81\\xaf\\xe7\\x9f\\xbf\\xe6\\xb1\\xa0.sol\":3425:3436  stakeSupple */\n      swap1\n      swap2\n        /* \"\\xe8\\x87\\xaa\\xe5\\xb7\\xb1\\xe5\\x86\\x99\\xe4\\xb8\\xaa\\xe7\\x9f\\xbf\\xe6\\xb1\\xa0,\\xe5\\xae\\x9a\\xe6\\x81\\xaf\\xe7\\x9f\\xbf\\xe6\\xb1\\xa0.sol\":3425:3472  stakeSupple -= User_Map[msg.sender].stakeNumber */\n      tag_107\n      swap1\n        /* \"\\xe8\\x87\\xaa\\xe5\\xb7\\xb1\\xe5\\x86\\x99\\xe4\\xb8\\xaa\\xe7\\x9f\\xbf\\xe6\\xb1\\xa0,\\xe5\\xae\\x9a\\xe6\\x81\\xaf\\xe7\\x9f\\xbf\\xe6\\xb1\\xa0.sol\":3440:3472  User_Map[msg.sender].stakeNumber */\n      dup5\n      swap1\n        /* \"\\xe8\\x87\\xaa\\xe5\\xb7\\xb1\\xe5\\x86\\x99\\xe4\\xb8\\xaa\\xe7\\x9f\\xbf\\xe6\\xb1\\xa0,\\xe5\\xae\\x9a\\xe6\\x81\\xaf\\xe7\\x9f\\xbf\\xe6\\xb1\\xa0.sol\":3425:3472  stakeSupple -= User_Map[msg.sender].stakeNumber */\n      tag_70\n      jump\t// in\n    tag_107:\n      swap1\n      swap2\n      sstore\n      pop\n      pop\n        /* \"\\xe8\\x87\\xaa\\xe5\\xb7\\xb1\\xe5\\x86\\x99\\xe4\\xb8\\xaa\\xe7\\x9f\\xbf\\xe6\\xb1\\xa0,\\xe5\\xae\\x9a\\xe6\\x81\\xaf\\xe7\\x9f\\xbf\\xe6\\xb1\\xa0.sol\":3492:3502  msg.sender */\n      caller\n        /* \"\\xe8\\x87\\xaa\\xe5\\xb7\\xb1\\xe5\\x86\\x99\\xe4\\xb8\\xaa\\xe7\\x9f\\xbf\\xe6\\xb1\\xa0,\\xe5\\xae\\x9a\\xe6\\x81\\xaf\\xe7\\x9f\\xbf\\xe6\\xb1\\xa0.sol\":3518:3519  0 */\n      0x00\n        /* \"\\xe8\\x87\\xaa\\xe5\\xb7\\xb1\\xe5\\x86\\x99\\xe4\\xb8\\xaa\\xe7\\x9f\\xbf\\xe6\\xb1\\xa0,\\xe5\\xae\\x9a\\xe6\\x81\\xaf\\xe7\\x9f\\xbf\\xe6\\xb1\\xa0.sol\":3483:3503  User_Map[msg.sender] */\n      swap1\n      dup2\n      mstore\n        /* \"\\xe8\\x87\\xaa\\xe5\\xb7\\xb1\\xe5\\x86\\x99\\xe4\\xb8\\xaa\\xe7\\x9f\\xbf\\xe6\\xb1\\xa0,\\xe5\\xae\\x9a\\xe6\\x81\\xaf\\xe7\\x9f\\xbf\\xe6\\xb1\\xa0.sol\":3483:3491  User_Map */\n      0x05\n        /* \"\\xe8\\x87\\xaa\\xe5\\xb7\\xb1\\xe5\\x86\\x99\\xe4\\xb8\\xaa\\xe7\\x9f\\xbf\\xe6\\xb1\\xa0,\\xe5\\xae\\x9a\\xe6\\x81\\xaf\\xe7\\x9f\\xbf\\xe6\\xb1\\xa0.sol\":3483:3503  User_Map[msg.sender] */\n      0x20\n      mstore\n      0x40\n      dup2\n      keccak256\n        /* \"\\xe8\\x87\\xaa\\xe5\\xb7\\xb1\\xe5\\x86\\x99\\xe4\\xb8\\xaa\\xe7\\x9f\\xbf\\xe6\\xb1\\xa0,\\xe5\\xae\\x9a\\xe6\\x81\\xaf\\xe7\\x9f\\xbf\\xe6\\xb1\\xa0.sol\":3483:3519  User_Map[msg.sender].stakeNumber = 0 */\n      sstore\n      pop\n        /* \"\\xe8\\x87\\xaa\\xe5\\xb7\\xb1\\xe5\\x86\\x99\\xe4\\xb8\\xaa\\xe7\\x9f\\xbf\\xe6\\xb1\\xa0,\\xe5\\xae\\x9a\\xe6\\x81\\xaf\\xe7\\x9f\\xbf\\xe6\\xb1\\xa0.sol\":3546:3550  true */\n      0x01\n      swap1\n        /* \"\\xe8\\x87\\xaa\\xe5\\xb7\\xb1\\xe5\\x86\\x99\\xe4\\xb8\\xaa\\xe7\\x9f\\xbf\\xe6\\xb1\\xa0,\\xe5\\xae\\x9a\\xe6\\x81\\xaf\\xe7\\x9f\\xbf\\xe6\\xb1\\xa0.sol\":2739:3558  function harvestwithDraw() public returns (bool) {... */\n      jump\t// out\n        /* \"#utility.yul\":14:194   */\n    tag_17:\n        /* \"#utility.yul\":73:79   */\n      0x00\n        /* \"#utility.yul\":126:128   */\n      0x20\n        /* \"#utility.yul\":114:123   */\n      dup3\n        /* \"#utility.yul\":105:112   */\n      dup5\n        /* \"#utility.yul\":101:124   */\n      sub\n        /* \"#utility.yul\":97:129   */\n      slt\n        /* \"#utility.yul\":94:146   */\n      iszero\n      tag_111\n      jumpi\n        /* \"#utility.yul\":142:143   */\n      0x00\n        /* \"#utility.yul\":139:140   */\n      dup1\n        /* \"#utility.yul\":132:144   */\n      revert\n        /* \"#utility.yul\":94:146   */\n    tag_111:\n      pop\n        /* \"#utility.yul\":165:188   */\n      calldataload\n      swap2\n        /* \"#utility.yul\":14:194   */\n      swap1\n      pop\n      jump\t// out\n        /* \"#utility.yul\":781:1067   */\n    tag_37:\n        /* \"#utility.yul\":840:846   */\n      0x00\n        /* \"#utility.yul\":893:895   */\n      0x20\n        /* \"#utility.yul\":881:890   */\n      dup3\n        /* \"#utility.yul\":872:879   */\n      dup5\n        /* \"#utility.yul\":868:891   */\n      sub\n        /* \"#utility.yul\":864:896   */\n      slt\n        /* \"#utility.yul\":861:913   */\n      iszero\n      tag_116\n      jumpi\n        /* \"#utility.yul\":909:910   */\n      0x00\n        /* \"#utility.yul\":906:907   */\n      dup1\n        /* \"#utility.yul\":899:911   */\n      revert\n        /* \"#utility.yul\":861:913   */\n    tag_116:\n        /* \"#utility.yul\":935:958   */\n      dup2\n      calldataload\n      sub(shl(0xa0, 0x01), 0x01)\n        /* \"#utility.yul\":987:1018   */\n      dup2\n      and\n        /* \"#utility.yul\":977:1019   */\n      dup2\n      eq\n        /* \"#utility.yul\":967:1037   */\n      tag_82\n      jumpi\n        /* \"#utility.yul\":1033:1034   */\n      0x00\n        /* \"#utility.yul\":1030:1031   */\n      dup1\n        /* \"#utility.yul\":1023:1035   */\n      revert\n        /* \"#utility.yul\":1920:2197   */\n    tag_62:\n        /* \"#utility.yul\":1987:1993   */\n      0x00\n        /* \"#utility.yul\":2040:2042   */\n      0x20\n        /* \"#utility.yul\":2028:2037   */\n      dup3\n        /* \"#utility.yul\":2019:2026   */\n      dup5\n        /* \"#utility.yul\":2015:2038   */\n      sub\n        /* \"#utility.yul\":2011:2043   */\n      slt\n        /* \"#utility.yul\":2008:2060   */\n      iszero\n      tag_121\n      jumpi\n        /* \"#utility.yul\":2056:2057   */\n      0x00\n        /* \"#utility.yul\":2053:2054   */\n      dup1\n        /* \"#utility.yul\":2046:2058   */\n      revert\n        /* \"#utility.yul\":2008:2060   */\n    tag_121:\n        /* \"#utility.yul\":2088:2097   */\n      dup2\n        /* \"#utility.yul\":2082:2098   */\n      mload\n        /* \"#utility.yul\":2141:2146   */\n      dup1\n        /* \"#utility.yul\":2134:2147   */\n      iszero\n        /* \"#utility.yul\":2127:2148   */\n      iszero\n        /* \"#utility.yul\":2120:2125   */\n      dup2\n        /* \"#utility.yul\":2117:2149   */\n      eq\n        /* \"#utility.yul\":2107:2167   */\n      tag_82\n      jumpi\n        /* \"#utility.yul\":2163:2164   */\n      0x00\n        /* \"#utility.yul\":2160:2161   */\n      dup1\n        /* \"#utility.yul\":2153:2165   */\n      revert\n        /* \"#utility.yul\":2202:2329   */\n    tag_108:\n        /* \"#utility.yul\":2263:2273   */\n      0x4e487b71\n        /* \"#utility.yul\":2258:2261   */\n      0xe0\n        /* \"#utility.yul\":2254:2274   */\n      shl\n        /* \"#utility.yul\":2251:2252   */\n      0x00\n        /* \"#utility.yul\":2244:2275   */\n      mstore\n        /* \"#utility.yul\":2294:2298   */\n      0x11\n        /* \"#utility.yul\":2291:2292   */\n      0x04\n        /* \"#utility.yul\":2284:2299   */\n      mstore\n        /* \"#utility.yul\":2318:2322   */\n      0x24\n        /* \"#utility.yul\":2315:2316   */\n      0x00\n        /* \"#utility.yul\":2308:2323   */\n      revert\n        /* \"#utility.yul\":2334:2502   */\n    tag_65:\n        /* \"#utility.yul\":2374:2381   */\n      0x00\n        /* \"#utility.yul\":2440:2441   */\n      dup2\n        /* \"#utility.yul\":2436:2437   */\n      0x00\n        /* \"#utility.yul\":2432:2438   */\n      not\n        /* \"#utility.yul\":2428:2442   */\n      div\n        /* \"#utility.yul\":2425:2426   */\n      dup4\n        /* \"#utility.yul\":2422:2443   */\n      gt\n        /* \"#utility.yul\":2417:2418   */\n      dup3\n        /* \"#utility.yul\":2410:2419   */\n      iszero\n        /* \"#utility.yul\":2403:2420   */\n      iszero\n        /* \"#utility.yul\":2399:2444   */\n      and\n        /* \"#utility.yul\":2396:2467   */\n      iszero\n      tag_126\n      jumpi\n        /* \"#utility.yul\":2447:2465   */\n      tag_126\n      tag_108\n      jump\t// in\n    tag_126:\n      pop\n        /* \"#utility.yul\":2487:2496   */\n      mul\n      swap1\n        /* \"#utility.yul\":2334:2502   */\n      jump\t// out\n        /* \"#utility.yul\":2507:2724   */\n    tag_67:\n        /* \"#utility.yul\":2547:2548   */\n      0x00\n        /* \"#utility.yul\":2573:2574   */\n      dup3\n        /* \"#utility.yul\":2563:2695   */\n      tag_128\n      jumpi\n        /* \"#utility.yul\":2617:2627   */\n      0x4e487b71\n        /* \"#utility.yul\":2612:2615   */\n      0xe0\n        /* \"#utility.yul\":2608:2628   */\n      shl\n        /* \"#utility.yul\":2605:2606   */\n      0x00\n        /* \"#utility.yul\":2598:2629   */\n      mstore\n        /* \"#utility.yul\":2652:2656   */\n      0x12\n        /* \"#utility.yul\":2649:2650   */\n      0x04\n        /* \"#utility.yul\":2642:2657   */\n      mstore\n        /* \"#utility.yul\":2680:2684   */\n      0x24\n        /* \"#utility.yul\":2677:2678   */\n      0x00\n        /* \"#utility.yul\":2670:2685   */\n      revert\n        /* \"#utility.yul\":2563:2695   */\n    tag_128:\n      pop\n        /* \"#utility.yul\":2709:2718   */\n      div\n      swap1\n        /* \"#utility.yul\":2507:2724   */\n      jump\t// out\n        /* \"#utility.yul\":2729:2854   */\n    tag_70:\n        /* \"#utility.yul\":2769:2773   */\n      0x00\n        /* \"#utility.yul\":2797:2798   */\n      dup3\n        /* \"#utility.yul\":2794:2795   */\n      dup3\n        /* \"#utility.yul\":2791:2799   */\n      lt\n        /* \"#utility.yul\":2788:2822   */\n      iszero\n      tag_131\n      jumpi\n        /* \"#utility.yul\":2802:2820   */\n      tag_131\n      tag_108\n      jump\t// in\n    tag_131:\n      pop\n        /* \"#utility.yul\":2839:2848   */\n      sub\n      swap1\n        /* \"#utility.yul\":2729:2854   */\n      jump\t// out\n        /* \"#utility.yul\":2859:2987   */\n    tag_73:\n        /* \"#utility.yul\":2899:2902   */\n      0x00\n        /* \"#utility.yul\":2930:2931   */\n      dup3\n        /* \"#utility.yul\":2926:2932   */\n      not\n        /* \"#utility.yul\":2923:2924   */\n      dup3\n        /* \"#utility.yul\":2920:2933   */\n      gt\n        /* \"#utility.yul\":2917:2956   */\n      iszero\n      tag_134\n      jumpi\n        /* \"#utility.yul\":2936:2954   */\n      tag_134\n      tag_108\n      jump\t// in\n    tag_134:\n      pop\n        /* \"#utility.yul\":2972:2981   */\n      add\n      swap1\n        /* \"#utility.yul\":2859:2987   */\n      jump\t// out\n\n    auxdata: 0xa264697066735822122052167ad7176d98323c1142ec594b417d6d8a471cb2896f9a677861e1b1c8f64864736f6c634300080f0033\n}\n",
				"bytecode": {
					"linkReferences": {},
					"object": "608060405234801561001057600080fd5b506040516109ac3803806109ac83398101604081905261002f91610177565b600480546001600160a01b031916331790556001600160a01b03821661008f5760405162461bcd60e51b815260206004820152601060248201526f4e4f542c53203058204144445245535360801b60448201526064015b60405180910390fd5b6001600160a01b0381166100d85760405162461bcd60e51b815260206004820152601060248201526f4e4f542c53203058204144445245535360801b6044820152606401610086565b806001600160a01b0316826001600160a01b03161461012a5760405162461bcd60e51b815260206004820152600e60248201526d13915151081859dc99595b595b9d60921b6044820152606401610086565b600180546001600160a01b039384166001600160a01b031991821617909155600280549290931691161790556101aa565b80516001600160a01b038116811461017257600080fd5b919050565b6000806040838503121561018a57600080fd5b6101938361015b565b91506101a16020840161015b565b90509250929050565b6107f3806101b96000396000f3fe608060405234801561001057600080fd5b50600436106100a95760003560e01c80638c93ecff116100715780638c93ecff146101385780638da5cb5b1461019d578063b2237ba3146101b0578063d942727f146101c5578063dab2997b146101ce578063fb5bca7a146101e157600080fd5b8063227a473b146100ae5780632c46502d146100d6578063529aca49146101015780635e9f44351461011757806371ca337d1461012f575b600080fd5b6100c16100bc3660046106d3565b6101e9565b60405190151581526020015b60405180910390f35b6002546100e9906001600160a01b031681565b6040516001600160a01b0390911681526020016100cd565b61010961039e565b6040519081526020016100cd565b33600090815260056020526040902060020154610109565b61010960005481565b6101756101463660046106ec565b600560205260009081526040902080546001820154600283015460038401546004909401549293919290919085565b604080519586526020860194909452928401919091526060830152608082015260a0016100cd565b6004546100e9906001600160a01b031681565b6101c36101be3660046106d3565b61041c565b005b61010960035481565b6001546100e9906001600160a01b031681565b6100c161046b565b6001546040516323b872dd60e01b8152336004820152306024820152604481018390526000916001600160a01b0316906323b872dd906064016020604051808303816000875af1158015610241573d6000803e3d6000fd5b505050506040513d601f19601f820116820180604052508101906102659190610715565b50604051828152309033907f1fd6ebb971d137acf3f01670862b8a96758cfc7e39dccb093e68daf461b0262c9060200160405180910390a360008054338252600560205260408220546301e13380916064916102c1919061074d565b6102cb919061076c565b6102d5919061076c565b336000908152600560205260409020600101546102f2904261078e565b6102fc919061074d565b336000908152600560205260408120600201805492935083929091906103239084906107a5565b909155505033600090815260056020526040812080548592906103479084906107a5565b909155505033600090815260056020526040812042600190910155600380548592906103749084906107a5565b90915550503360009081526005602052604090206001808201546004909201919091559392505050565b3360009081526005602052604081206004015481906103bd904261078e565b33600090815260056020526040812060028101548254915493945091926301e13380916064916103ed919061074d565b6103f7919061076c565b610401919061076c565b61040b908461074d565b61041591906107a5565b9392505050565b6004546001600160a01b031633146104665760405162461bcd60e51b81526020600482015260096024820152683737ba1037bbb732b960b91b604482015260640160405180910390fd5b600055565b60008054338252600560205260408220546301e133809160649161048f919061074d565b610499919061076c565b6104a3919061076c565b336000908152600560205260409020600101546104c0904261078e565b6104ca919061074d565b336000908152600560205260409020600201546104e791906107a5565b3360008181526005602052604090819020600301839055600254905163a9059cbb60e01b8152600481019290925260248201929092526001600160a01b039091169063a9059cbb906044016020604051808303816000875af1158015610551573d6000803e3d6000fd5b505050506040513d601f19601f820116820180604052508101906105759190610715565b50336000818152600560209081526040918290206003015491519182527fa9059cbb2ab09eb219583f4a59a5d0623ade346d962bcd4e46b11da047c9049b910160405180910390a2336000818152600560205260408082206003810183905560028101929092556001549154905163a9059cbb60e01b8152600481019390935260248301526001600160a01b03169063a9059cbb906044016020604051808303816000875af115801561062c573d6000803e3d6000fd5b505050506040513d601f19601f820116820180604052508101906106509190610715565b50336000818152600560209081526040918290205491519182527fa9059cbb2ab09eb219583f4a59a5d0623ade346d962bcd4e46b11da047c9049b910160405180910390a23360009081526005602052604081205460038054919290916106b890849061078e565b90915550503360009081526005602052604081205550600190565b6000602082840312156106e557600080fd5b5035919050565b6000602082840312156106fe57600080fd5b81356001600160a01b038116811461041557600080fd5b60006020828403121561072757600080fd5b8151801515811461041557600080fd5b634e487b7160e01b600052601160045260246000fd5b600081600019048311821515161561076757610767610737565b500290565b60008261078957634e487b7160e01b600052601260045260246000fd5b500490565b6000828210156107a0576107a0610737565b500390565b600082198211156107b8576107b8610737565b50019056fea264697066735822122052167ad7176d98323c1142ec594b417d6d8a471cb2896f9a677861e1b1c8f64864736f6c634300080f0033",
					"opcodes": "PUSH1 0x80 PUSH1 0x40 MSTORE CALLVALUE DUP1 ISZERO PUSH2 0x10 JUMPI PUSH1 0x0 DUP1 REVERT JUMPDEST POP PUSH1 0x40 MLOAD PUSH2 0x9AC CODESIZE SUB DUP1 PUSH2 0x9AC DUP4 CODECOPY DUP2 ADD PUSH1 0x40 DUP2 SWAP1 MSTORE PUSH2 0x2F SWAP2 PUSH2 0x177 JUMP JUMPDEST PUSH1 0x4 DUP1 SLOAD PUSH1 0x1 PUSH1 0x1 PUSH1 0xA0 SHL SUB NOT AND CALLER OR SWAP1 SSTORE PUSH1 0x1 PUSH1 0x1 PUSH1 0xA0 SHL SUB DUP3 AND PUSH2 0x8F JUMPI PUSH1 0x40 MLOAD PUSH3 0x461BCD PUSH1 0xE5 SHL DUP2 MSTORE PUSH1 0x20 PUSH1 0x4 DUP3 ADD MSTORE PUSH1 0x10 PUSH1 0x24 DUP3 ADD MSTORE PUSH16 0x4E4F542C532030582041444452455353 PUSH1 0x80 SHL PUSH1 0x44 DUP3 ADD MSTORE PUSH1 0x64 ADD JUMPDEST PUSH1 0x40 MLOAD DUP1 SWAP2 SUB SWAP1 REVERT JUMPDEST PUSH1 0x1 PUSH1 0x1 PUSH1 0xA0 SHL SUB DUP2 AND PUSH2 0xD8 JUMPI PUSH1 0x40 MLOAD PUSH3 0x461BCD PUSH1 0xE5 SHL DUP2 MSTORE PUSH1 0x20 PUSH1 0x4 DUP3 ADD MSTORE PUSH1 0x10 PUSH1 0x24 DUP3 ADD MSTORE PUSH16 0x4E4F542C532030582041444452455353 PUSH1 0x80 SHL PUSH1 0x44 DUP3 ADD MSTORE PUSH1 0x64 ADD PUSH2 0x86 JUMP JUMPDEST DUP1 PUSH1 0x1 PUSH1 0x1 PUSH1 0xA0 SHL SUB AND DUP3 PUSH1 0x1 PUSH1 0x1 PUSH1 0xA0 SHL SUB AND EQ PUSH2 0x12A JUMPI PUSH1 0x40 MLOAD PUSH3 0x461BCD PUSH1 0xE5 SHL DUP2 MSTORE PUSH1 0x20 PUSH1 0x4 DUP3 ADD MSTORE PUSH1 0xE PUSH1 0x24 DUP3 ADD MSTORE PUSH14 0x13915151081859DC99595B595B9D PUSH1 0x92 SHL PUSH1 0x44 DUP3 ADD MSTORE PUSH1 0x64 ADD PUSH2 0x86 JUMP JUMPDEST PUSH1 0x1 DUP1 SLOAD PUSH1 0x1 PUSH1 0x1 PUSH1 0xA0 SHL SUB SWAP4 DUP5 AND PUSH1 0x1 PUSH1 0x1 PUSH1 0xA0 SHL SUB NOT SWAP2 DUP3 AND OR SWAP1 SWAP2 SSTORE PUSH1 0x2 DUP1 SLOAD SWAP3 SWAP1 SWAP4 AND SWAP2 AND OR SWAP1 SSTORE PUSH2 0x1AA JUMP JUMPDEST DUP1 MLOAD PUSH1 0x1 PUSH1 0x1 PUSH1 0xA0 SHL SUB DUP2 AND DUP2 EQ PUSH2 0x172 JUMPI PUSH1 0x0 DUP1 REVERT JUMPDEST SWAP2 SWAP1 POP JUMP JUMPDEST PUSH1 0x0 DUP1 PUSH1 0x40 DUP4 DUP6 SUB SLT ISZERO PUSH2 0x18A JUMPI PUSH1 0x0 DUP1 REVERT JUMPDEST PUSH2 0x193 DUP4 PUSH2 0x15B JUMP JUMPDEST SWAP2 POP PUSH2 0x1A1 PUSH1 0x20 DUP5 ADD PUSH2 0x15B JUMP JUMPDEST SWAP1 POP SWAP3 POP SWAP3 SWAP1 POP JUMP JUMPDEST PUSH2 0x7F3 DUP1 PUSH2 0x1B9 PUSH1 0x0 CODECOPY PUSH1 0x0 RETURN INVALID PUSH1 0x80 PUSH1 0x40 MSTORE CALLVALUE DUP1 ISZERO PUSH2 0x10 JUMPI PUSH1 0x0 DUP1 REVERT JUMPDEST POP PUSH1 0x4 CALLDATASIZE LT PUSH2 0xA9 JUMPI PUSH1 0x0 CALLDATALOAD PUSH1 0xE0 SHR DUP1 PUSH4 0x8C93ECFF GT PUSH2 0x71 JUMPI DUP1 PUSH4 0x8C93ECFF EQ PUSH2 0x138 JUMPI DUP1 PUSH4 0x8DA5CB5B EQ PUSH2 0x19D JUMPI DUP1 PUSH4 0xB2237BA3 EQ PUSH2 0x1B0 JUMPI DUP1 PUSH4 0xD942727F EQ PUSH2 0x1C5 JUMPI DUP1 PUSH4 0xDAB2997B EQ PUSH2 0x1CE JUMPI DUP1 PUSH4 0xFB5BCA7A EQ PUSH2 0x1E1 JUMPI PUSH1 0x0 DUP1 REVERT JUMPDEST DUP1 PUSH4 0x227A473B EQ PUSH2 0xAE JUMPI DUP1 PUSH4 0x2C46502D EQ PUSH2 0xD6 JUMPI DUP1 PUSH4 0x529ACA49 EQ PUSH2 0x101 JUMPI DUP1 PUSH4 0x5E9F4435 EQ PUSH2 0x117 JUMPI DUP1 PUSH4 0x71CA337D EQ PUSH2 0x12F JUMPI JUMPDEST PUSH1 0x0 DUP1 REVERT JUMPDEST PUSH2 0xC1 PUSH2 0xBC CALLDATASIZE PUSH1 0x4 PUSH2 0x6D3 JUMP JUMPDEST PUSH2 0x1E9 JUMP JUMPDEST PUSH1 0x40 MLOAD SWAP1 ISZERO ISZERO DUP2 MSTORE PUSH1 0x20 ADD JUMPDEST PUSH1 0x40 MLOAD DUP1 SWAP2 SUB SWAP1 RETURN JUMPDEST PUSH1 0x2 SLOAD PUSH2 0xE9 SWAP1 PUSH1 0x1 PUSH1 0x1 PUSH1 0xA0 SHL SUB AND DUP2 JUMP JUMPDEST PUSH1 0x40 MLOAD PUSH1 0x1 PUSH1 0x1 PUSH1 0xA0 SHL SUB SWAP1 SWAP2 AND DUP2 MSTORE PUSH1 0x20 ADD PUSH2 0xCD JUMP JUMPDEST PUSH2 0x109 PUSH2 0x39E JUMP JUMPDEST PUSH1 0x40 MLOAD SWAP1 DUP2 MSTORE PUSH1 0x20 ADD PUSH2 0xCD JUMP JUMPDEST CALLER PUSH1 0x0 SWAP1 DUP2 MSTORE PUSH1 0x5 PUSH1 0x20 MSTORE PUSH1 0x40 SWAP1 KECCAK256 PUSH1 0x2 ADD SLOAD PUSH2 0x109 JUMP JUMPDEST PUSH2 0x109 PUSH1 0x0 SLOAD DUP2 JUMP JUMPDEST PUSH2 0x175 PUSH2 0x146 CALLDATASIZE PUSH1 0x4 PUSH2 0x6EC JUMP JUMPDEST PUSH1 0x5 PUSH1 0x20 MSTORE PUSH1 0x0 SWAP1 DUP2 MSTORE PUSH1 0x40 SWAP1 KECCAK256 DUP1 SLOAD PUSH1 0x1 DUP3 ADD SLOAD PUSH1 0x2 DUP4 ADD SLOAD PUSH1 0x3 DUP5 ADD SLOAD PUSH1 0x4 SWAP1 SWAP5 ADD SLOAD SWAP3 SWAP4 SWAP2 SWAP3 SWAP1 SWAP2 SWAP1 DUP6 JUMP JUMPDEST PUSH1 0x40 DUP1 MLOAD SWAP6 DUP7 MSTORE PUSH1 0x20 DUP7 ADD SWAP5 SWAP1 SWAP5 MSTORE SWAP3 DUP5 ADD SWAP2 SWAP1 SWAP2 MSTORE PUSH1 0x60 DUP4 ADD MSTORE PUSH1 0x80 DUP3 ADD MSTORE PUSH1 0xA0 ADD PUSH2 0xCD JUMP JUMPDEST PUSH1 0x4 SLOAD PUSH2 0xE9 SWAP1 PUSH1 0x1 PUSH1 0x1 PUSH1 0xA0 SHL SUB AND DUP2 JUMP JUMPDEST PUSH2 0x1C3 PUSH2 0x1BE CALLDATASIZE PUSH1 0x4 PUSH2 0x6D3 JUMP JUMPDEST PUSH2 0x41C JUMP JUMPDEST STOP JUMPDEST PUSH2 0x109 PUSH1 0x3 SLOAD DUP2 JUMP JUMPDEST PUSH1 0x1 SLOAD PUSH2 0xE9 SWAP1 PUSH1 0x1 PUSH1 0x1 PUSH1 0xA0 SHL SUB AND DUP2 JUMP JUMPDEST PUSH2 0xC1 PUSH2 0x46B JUMP JUMPDEST PUSH1 0x1 SLOAD PUSH1 0x40 MLOAD PUSH4 0x23B872DD PUSH1 0xE0 SHL DUP2 MSTORE CALLER PUSH1 0x4 DUP3 ADD MSTORE ADDRESS PUSH1 0x24 DUP3 ADD MSTORE PUSH1 0x44 DUP2 ADD DUP4 SWAP1 MSTORE PUSH1 0x0 SWAP2 PUSH1 0x1 PUSH1 0x1 PUSH1 0xA0 SHL SUB AND SWAP1 PUSH4 0x23B872DD SWAP1 PUSH1 0x64 ADD PUSH1 0x20 PUSH1 0x40 MLOAD DUP1 DUP4 SUB DUP2 PUSH1 0x0 DUP8 GAS CALL ISZERO DUP1 ISZERO PUSH2 0x241 JUMPI RETURNDATASIZE PUSH1 0x0 DUP1 RETURNDATACOPY RETURNDATASIZE PUSH1 0x0 REVERT JUMPDEST POP POP POP POP PUSH1 0x40 MLOAD RETURNDATASIZE PUSH1 0x1F NOT PUSH1 0x1F DUP3 ADD AND DUP3 ADD DUP1 PUSH1 0x40 MSTORE POP DUP2 ADD SWAP1 PUSH2 0x265 SWAP2 SWAP1 PUSH2 0x715 JUMP JUMPDEST POP PUSH1 0x40 MLOAD DUP3 DUP2 MSTORE ADDRESS SWAP1 CALLER SWAP1 PUSH32 0x1FD6EBB971D137ACF3F01670862B8A96758CFC7E39DCCB093E68DAF461B0262C SWAP1 PUSH1 0x20 ADD PUSH1 0x40 MLOAD DUP1 SWAP2 SUB SWAP1 LOG3 PUSH1 0x0 DUP1 SLOAD CALLER DUP3 MSTORE PUSH1 0x5 PUSH1 0x20 MSTORE PUSH1 0x40 DUP3 KECCAK256 SLOAD PUSH4 0x1E13380 SWAP2 PUSH1 0x64 SWAP2 PUSH2 0x2C1 SWAP2 SWAP1 PUSH2 0x74D JUMP JUMPDEST PUSH2 0x2CB SWAP2 SWAP1 PUSH2 0x76C JUMP JUMPDEST PUSH2 0x2D5 SWAP2 SWAP1 PUSH2 0x76C JUMP JUMPDEST CALLER PUSH1 0x0 SWAP1 DUP2 MSTORE PUSH1 0x5 PUSH1 0x20 MSTORE PUSH1 0x40 SWAP1 KECCAK256 PUSH1 0x1 ADD SLOAD PUSH2 0x2F2 SWAP1 TIMESTAMP PUSH2 0x78E JUMP JUMPDEST PUSH2 0x2FC SWAP2 SWAP1 PUSH2 0x74D JUMP JUMPDEST CALLER PUSH1 0x0 SWAP1 DUP2 MSTORE PUSH1 0x5 PUSH1 0x20 MSTORE PUSH1 0x40 DUP2 KECCAK256 PUSH1 0x2 ADD DUP1 SLOAD SWAP3 SWAP4 POP DUP4 SWAP3 SWAP1 SWAP2 SWAP1 PUSH2 0x323 SWAP1 DUP5 SWAP1 PUSH2 0x7A5 JUMP JUMPDEST SWAP1 SWAP2 SSTORE POP POP CALLER PUSH1 0x0 SWAP1 DUP2 MSTORE PUSH1 0x5 PUSH1 0x20 MSTORE PUSH1 0x40 DUP2 KECCAK256 DUP1 SLOAD DUP6 SWAP3 SWAP1 PUSH2 0x347 SWAP1 DUP5 SWAP1 PUSH2 0x7A5 JUMP JUMPDEST SWAP1 SWAP2 SSTORE POP POP CALLER PUSH1 0x0 SWAP1 DUP2 MSTORE PUSH1 0x5 PUSH1 0x20 MSTORE PUSH1 0x40 DUP2 KECCAK256 TIMESTAMP PUSH1 0x1 SWAP1 SWAP2 ADD SSTORE PUSH1 0x3 DUP1 SLOAD DUP6 SWAP3 SWAP1 PUSH2 0x374 SWAP1 DUP5 SWAP1 PUSH2 0x7A5 JUMP JUMPDEST SWAP1 SWAP2 SSTORE POP POP CALLER PUSH1 0x0 SWAP1 DUP2 MSTORE PUSH1 0x5 PUSH1 0x20 MSTORE PUSH1 0x40 SWAP1 KECCAK256 PUSH1 0x1 DUP1 DUP3 ADD SLOAD PUSH1 0x4 SWAP1 SWAP3 ADD SWAP2 SWAP1 SWAP2 SSTORE SWAP4 SWAP3 POP POP POP JUMP JUMPDEST CALLER PUSH1 0x0 SWAP1 DUP2 MSTORE PUSH1 0x5 PUSH1 0x20 MSTORE PUSH1 0x40 DUP2 KECCAK256 PUSH1 0x4 ADD SLOAD DUP2 SWAP1 PUSH2 0x3BD SWAP1 TIMESTAMP PUSH2 0x78E JUMP JUMPDEST CALLER PUSH1 0x0 SWAP1 DUP2 MSTORE PUSH1 0x5 PUSH1 0x20 MSTORE PUSH1 0x40 DUP2 KECCAK256 PUSH1 0x2 DUP2 ADD SLOAD DUP3 SLOAD SWAP2 SLOAD SWAP4 SWAP5 POP SWAP2 SWAP3 PUSH4 0x1E13380 SWAP2 PUSH1 0x64 SWAP2 PUSH2 0x3ED SWAP2 SWAP1 PUSH2 0x74D JUMP JUMPDEST PUSH2 0x3F7 SWAP2 SWAP1 PUSH2 0x76C JUMP JUMPDEST PUSH2 0x401 SWAP2 SWAP1 PUSH2 0x76C JUMP JUMPDEST PUSH2 0x40B SWAP1 DUP5 PUSH2 0x74D JUMP JUMPDEST PUSH2 0x415 SWAP2 SWAP1 PUSH2 0x7A5 JUMP JUMPDEST SWAP4 SWAP3 POP POP POP JUMP JUMPDEST PUSH1 0x4 SLOAD PUSH1 0x1 PUSH1 0x1 PUSH1 0xA0 SHL SUB AND CALLER EQ PUSH2 0x466 JUMPI PUSH1 0x40 MLOAD PUSH3 0x461BCD PUSH1 0xE5 SHL DUP2 MSTORE PUSH1 0x20 PUSH1 0x4 DUP3 ADD MSTORE PUSH1 0x9 PUSH1 0x24 DUP3 ADD MSTORE PUSH9 0x3737BA1037BBB732B9 PUSH1 0xB9 SHL PUSH1 0x44 DUP3 ADD MSTORE PUSH1 0x64 ADD PUSH1 0x40 MLOAD DUP1 SWAP2 SUB SWAP1 REVERT JUMPDEST PUSH1 0x0 SSTORE JUMP JUMPDEST PUSH1 0x0 DUP1 SLOAD CALLER DUP3 MSTORE PUSH1 0x5 PUSH1 0x20 MSTORE PUSH1 0x40 DUP3 KECCAK256 SLOAD PUSH4 0x1E13380 SWAP2 PUSH1 0x64 SWAP2 PUSH2 0x48F SWAP2 SWAP1 PUSH2 0x74D JUMP JUMPDEST PUSH2 0x499 SWAP2 SWAP1 PUSH2 0x76C JUMP JUMPDEST PUSH2 0x4A3 SWAP2 SWAP1 PUSH2 0x76C JUMP JUMPDEST CALLER PUSH1 0x0 SWAP1 DUP2 MSTORE PUSH1 0x5 PUSH1 0x20 MSTORE PUSH1 0x40 SWAP1 KECCAK256 PUSH1 0x1 ADD SLOAD PUSH2 0x4C0 SWAP1 TIMESTAMP PUSH2 0x78E JUMP JUMPDEST PUSH2 0x4CA SWAP2 SWAP1 PUSH2 0x74D JUMP JUMPDEST CALLER PUSH1 0x0 SWAP1 DUP2 MSTORE PUSH1 0x5 PUSH1 0x20 MSTORE PUSH1 0x40 SWAP1 KECCAK256 PUSH1 0x2 ADD SLOAD PUSH2 0x4E7 SWAP2 SWAP1 PUSH2 0x7A5 JUMP JUMPDEST CALLER PUSH1 0x0 DUP2 DUP2 MSTORE PUSH1 0x5 PUSH1 0x20 MSTORE PUSH1 0x40 SWAP1 DUP2 SWAP1 KECCAK256 PUSH1 0x3 ADD DUP4 SWAP1 SSTORE PUSH1 0x2 SLOAD SWAP1 MLOAD PUSH4 0xA9059CBB PUSH1 0xE0 SHL DUP2 MSTORE PUSH1 0x4 DUP2 ADD SWAP3 SWAP1 SWAP3 MSTORE PUSH1 0x24 DUP3 ADD SWAP3 SWAP1 SWAP3 MSTORE PUSH1 0x1 PUSH1 0x1 PUSH1 0xA0 SHL SUB SWAP1 SWAP2 AND SWAP1 PUSH4 0xA9059CBB SWAP1 PUSH1 0x44 ADD PUSH1 0x20 PUSH1 0x40 MLOAD DUP1 DUP4 SUB DUP2 PUSH1 0x0 DUP8 GAS CALL ISZERO DUP1 ISZERO PUSH2 0x551 JUMPI RETURNDATASIZE PUSH1 0x0 DUP1 RETURNDATACOPY RETURNDATASIZE PUSH1 0x0 REVERT JUMPDEST POP POP POP POP PUSH1 0x40 MLOAD RETURNDATASIZE PUSH1 0x1F NOT PUSH1 0x1F DUP3 ADD AND DUP3 ADD DUP1 PUSH1 0x40 MSTORE POP DUP2 ADD SWAP1 PUSH2 0x575 SWAP2 SWAP1 PUSH2 0x715 JUMP JUMPDEST POP CALLER PUSH1 0x0 DUP2 DUP2 MSTORE PUSH1 0x5 PUSH1 0x20 SWAP1 DUP2 MSTORE PUSH1 0x40 SWAP2 DUP3 SWAP1 KECCAK256 PUSH1 0x3 ADD SLOAD SWAP2 MLOAD SWAP2 DUP3 MSTORE PUSH32 0xA9059CBB2AB09EB219583F4A59A5D0623ADE346D962BCD4E46B11DA047C9049B SWAP2 ADD PUSH1 0x40 MLOAD DUP1 SWAP2 SUB SWAP1 LOG2 CALLER PUSH1 0x0 DUP2 DUP2 MSTORE PUSH1 0x5 PUSH1 0x20 MSTORE PUSH1 0x40 DUP1 DUP3 KECCAK256 PUSH1 0x3 DUP2 ADD DUP4 SWAP1 SSTORE PUSH1 0x2 DUP2 ADD SWAP3 SWAP1 SWAP3 SSTORE PUSH1 0x1 SLOAD SWAP2 SLOAD SWAP1 MLOAD PUSH4 0xA9059CBB PUSH1 0xE0 SHL DUP2 MSTORE PUSH1 0x4 DUP2 ADD SWAP4 SWAP1 SWAP4 MSTORE PUSH1 0x24 DUP4 ADD MSTORE PUSH1 0x1 PUSH1 0x1 PUSH1 0xA0 SHL SUB AND SWAP1 PUSH4 0xA9059CBB SWAP1 PUSH1 0x44 ADD PUSH1 0x20 PUSH1 0x40 MLOAD DUP1 DUP4 SUB DUP2 PUSH1 0x0 DUP8 GAS CALL ISZERO DUP1 ISZERO PUSH2 0x62C JUMPI RETURNDATASIZE PUSH1 0x0 DUP1 RETURNDATACOPY RETURNDATASIZE PUSH1 0x0 REVERT JUMPDEST POP POP POP POP PUSH1 0x40 MLOAD RETURNDATASIZE PUSH1 0x1F NOT PUSH1 0x1F DUP3 ADD AND DUP3 ADD DUP1 PUSH1 0x40 MSTORE POP DUP2 ADD SWAP1 PUSH2 0x650 SWAP2 SWAP1 PUSH2 0x715 JUMP JUMPDEST POP CALLER PUSH1 0x0 DUP2 DUP2 MSTORE PUSH1 0x5 PUSH1 0x20 SWAP1 DUP2 MSTORE PUSH1 0x40 SWAP2 DUP3 SWAP1 KECCAK256 SLOAD SWAP2 MLOAD SWAP2 DUP3 MSTORE PUSH32 0xA9059CBB2AB09EB219583F4A59A5D0623ADE346D962BCD4E46B11DA047C9049B SWAP2 ADD PUSH1 0x40 MLOAD DUP1 SWAP2 SUB SWAP1 LOG2 CALLER PUSH1 0x0 SWAP1 DUP2 MSTORE PUSH1 0x5 PUSH1 0x20 MSTORE PUSH1 0x40 DUP2 KECCAK256 SLOAD PUSH1 0x3 DUP1 SLOAD SWAP2 SWAP3 SWAP1 SWAP2 PUSH2 0x6B8 SWAP1 DUP5 SWAP1 PUSH2 0x78E JUMP JUMPDEST SWAP1 SWAP2 SSTORE POP POP CALLER PUSH1 0x0 SWAP1 DUP2 MSTORE PUSH1 0x5 PUSH1 0x20 MSTORE PUSH1 0x40 DUP2 KECCAK256 SSTORE POP PUSH1 0x1 SWAP1 JUMP JUMPDEST PUSH1 0x0 PUSH1 0x20 DUP3 DUP5 SUB SLT ISZERO PUSH2 0x6E5 JUMPI PUSH1 0x0 DUP1 REVERT JUMPDEST POP CALLDATALOAD SWAP2 SWAP1 POP JUMP JUMPDEST PUSH1 0x0 PUSH1 0x20 DUP3 DUP5 SUB SLT ISZERO PUSH2 0x6FE JUMPI PUSH1 0x0 DUP1 REVERT JUMPDEST DUP2 CALLDATALOAD PUSH1 0x1 PUSH1 0x1 PUSH1 0xA0 SHL SUB DUP2 AND DUP2 EQ PUSH2 0x415 JUMPI PUSH1 0x0 DUP1 REVERT JUMPDEST PUSH1 0x0 PUSH1 0x20 DUP3 DUP5 SUB SLT ISZERO PUSH2 0x727 JUMPI PUSH1 0x0 DUP1 REVERT JUMPDEST DUP2 MLOAD DUP1 ISZERO ISZERO DUP2 EQ PUSH2 0x415 JUMPI PUSH1 0x0 DUP1 REVERT JUMPDEST PUSH4 0x4E487B71 PUSH1 0xE0 SHL PUSH1 0x0 MSTORE PUSH1 0x11 PUSH1 0x4 MSTORE PUSH1 0x24 PUSH1 0x0 REVERT JUMPDEST PUSH1 0x0 DUP2 PUSH1 0x0 NOT DIV DUP4 GT DUP3 ISZERO ISZERO AND ISZERO PUSH2 0x767 JUMPI PUSH2 0x767 PUSH2 0x737 JUMP JUMPDEST POP MUL SWAP1 JUMP JUMPDEST PUSH1 0x0 DUP3 PUSH2 0x789 JUMPI PUSH4 0x4E487B71 PUSH1 0xE0 SHL PUSH1 0x0 MSTORE PUSH1 0x12 PUSH1 0x4 MSTORE PUSH1 0x24 PUSH1 0x0 REVERT JUMPDEST POP DIV SWAP1 JUMP JUMPDEST PUSH1 0x0 DUP3 DUP3 LT ISZERO PUSH2 0x7A0 JUMPI PUSH2 0x7A0 PUSH2 0x737 JUMP JUMPDEST POP SUB SWAP1 JUMP JUMPDEST PUSH1 0x0 DUP3 NOT DUP3 GT ISZERO PUSH2 0x7B8 JUMPI PUSH2 0x7B8 PUSH2 0x737 JUMP JUMPDEST POP ADD SWAP1 JUMP INVALID LOG2 PUSH5 0x6970667358 0x22 SLT KECCAK256 MSTORE AND PUSH27 0xD7176D98323C1142EC594B417D6D8A471CB2896F9A677861E1B1C8 0xF6 BASEFEE PUSH5 0x736F6C6343 STOP ADDMOD 0xF STOP CALLER "
				},
				"gasEstimates": {
					"creation": {
						"codeDepositCost": "407000",
						"executionCost": "infinite",
						"totalCost": "infinite"
					},
					"external": {
						"Stake(uint256)": "infinite",
						"User_Map(address)": "11028",
						"harvestwithDraw()": "infinite",
						"lastTotokenRatio()": "2433",
						"newTotokenRatio()": "infinite",
						"owner()": "2359",
						"ratio()": "2384",
						"setRatio(uint256)": "24508",
						"stakeSupple()": "2361",
						"staketoken()": "2425",
						"totoken()": "2360"
					}
				},
				"methodIdentifiers": {
					"Stake(uint256)": "227a473b",
					"User_Map(address)": "8c93ecff",
					"harvestwithDraw()": "fb5bca7a",
					"lastTotokenRatio()": "5e9f4435",
					"newTotokenRatio()": "529aca49",
					"owner()": "8da5cb5b",
					"ratio()": "71ca337d",
					"setRatio(uint256)": "b2237ba3",
					"stakeSupple()": "d942727f",
					"staketoken()": "dab2997b",
					"totoken()": "2c46502d"
				}
			},
			"storageLayout": {
				"storage": [
					{
						"astId": 70,
						"contract": "自己写个矿池,定息矿池.sol:StakeContract",
						"label": "ratio",
						"offset": 0,
						"slot": "0",
						"type": "t_uint256"
					},
					{
						"astId": 72,
						"contract": "自己写个矿池,定息矿池.sol:StakeContract",
						"label": "staketoken",
						"offset": 0,
						"slot": "1",
						"type": "t_address"
					},
					{
						"astId": 74,
						"contract": "自己写个矿池,定息矿池.sol:StakeContract",
						"label": "totoken",
						"offset": 0,
						"slot": "2",
						"type": "t_address"
					},
					{
						"astId": 76,
						"contract": "自己写个矿池,定息矿池.sol:StakeContract",
						"label": "stakeSupple",
						"offset": 0,
						"slot": "3",
						"type": "t_uint256"
					},
					{
						"astId": 78,
						"contract": "自己写个矿池,定息矿池.sol:StakeContract",
						"label": "owner",
						"offset": 0,
						"slot": "4",
						"type": "t_address"
					},
					{
						"astId": 116,
						"contract": "自己写个矿池,定息矿池.sol:StakeContract",
						"label": "User_Map",
						"offset": 0,
						"slot": "5",
						"type": "t_mapping(t_address,t_struct(User)111_storage)"
					}
				],
				"types": {
					"t_address": {
						"encoding": "inplace",
						"label": "address",
						"numberOfBytes": "20"
					},
					"t_mapping(t_address,t_struct(User)111_storage)": {
						"encoding": "mapping",
						"key": "t_address",
						"label": "mapping(address => struct StakeContract.User)",
						"numberOfBytes": "32",
						"value": "t_struct(User)111_storage"
					},
					"t_struct(User)111_storage": {
						"encoding": "inplace",
						"label": "struct StakeContract.User",
						"members": [
							{
								"astId": 102,
								"contract": "自己写个矿池,定息矿池.sol:StakeContract",
								"label": "stakeNumber",
								"offset": 0,
								"slot": "0",
								"type": "t_uint256"
							},
							{
								"astId": 104,
								"contract": "自己写个矿池,定息矿池.sol:StakeContract",
								"label": "last_Stake_Time",
								"offset": 0,
								"slot": "1",
								"type": "t_uint256"
							},
							{
								"astId": 106,
								"contract": "自己写个矿池,定息矿池.sol:StakeContract",
								"label": "last_totoken_ratio",
								"offset": 0,
								"slot": "2",
								"type": "t_uint256"
							},
							{
								"astId": 108,
								"contract": "自己写个矿池,定息矿池.sol:StakeContract",
								"label": "whole_ratio",
								"offset": 0,
								"slot": "3",
								"type": "t_uint256"
							},
							{
								"astId": 110,
								"contract": "自己写个矿池,定息矿池.sol:StakeContract",
								"label": "last_totoken_Time",
								"offset": 0,
								"slot": "4",
								"type": "t_uint256"
							}
						],
						"numberOfBytes": "160"
					},
					"t_uint256": {
						"encoding": "inplace",
						"label": "uint256",
						"numberOfBytes": "32"
					}
				}
			},
			"userdoc": {
				"kind": "user",
				"methods": {},
				"version": 1
			}
		}
	}
}