{
	"solidity映射迭代.sol": {
		"IterableMapping": {
			"abi": [
				{
					"inputs": [
						{
							"internalType": "address",
							"name": "",
							"type": "address"
						}
					],
					"name": "balances",
					"outputs": [
						{
							"internalType": "uint256",
							"name": "",
							"type": "uint256"
						}
					],
					"stateMutability": "view",
					"type": "function"
				},
				{
					"inputs": [],
					"name": "first",
					"outputs": [
						{
							"internalType": "uint256",
							"name": "",
							"type": "uint256"
						}
					],
					"stateMutability": "view",
					"type": "function"
				},
				{
					"inputs": [
						{
							"internalType": "uint256",
							"name": "_i",
							"type": "uint256"
						}
					],
					"name": "get",
					"outputs": [
						{
							"internalType": "uint256",
							"name": "",
							"type": "uint256"
						}
					],
					"stateMutability": "view",
					"type": "function"
				},
				{
					"inputs": [],
					"name": "getSize",
					"outputs": [
						{
							"internalType": "uint256",
							"name": "",
							"type": "uint256"
						}
					],
					"stateMutability": "view",
					"type": "function"
				},
				{
					"inputs": [
						{
							"internalType": "address",
							"name": "",
							"type": "address"
						}
					],
					"name": "inserted",
					"outputs": [
						{
							"internalType": "bool",
							"name": "",
							"type": "bool"
						}
					],
					"stateMutability": "view",
					"type": "function"
				},
				{
					"inputs": [
						{
							"internalType": "uint256",
							"name": "",
							"type": "uint256"
						}
					],
					"name": "keys",
					"outputs": [
						{
							"internalType": "address",
							"name": "",
							"type": "address"
						}
					],
					"stateMutability": "view",
					"type": "function"
				},
				{
					"inputs": [],
					"name": "last",
					"outputs": [
						{
							"internalType": "uint256",
							"name": "",
							"type": "uint256"
						}
					],
					"stateMutability": "view",
					"type": "function"
				},
				{
					"inputs": [
						{
							"internalType": "address",
							"name": "_key",
							"type": "address"
						},
						{
							"internalType": "uint256",
							"name": "_val",
							"type": "uint256"
						}
					],
					"name": "set",
					"outputs": [],
					"stateMutability": "nonpayable",
					"type": "function"
				}
			],
			"devdoc": {
				"kind": "dev",
				"methods": {},
				"version": 1
			},
			"evm": {
				"assembly": "    /* \"solidity\\xe6\\x98\\xa0\\xe5\\xb0\\x84\\xe8\\xbf\\xad\\xe4\\xbb\\xa3.sol\":154:1298  contract IterableMapping {... */\n  mstore(0x40, 0x80)\n  callvalue\n  dup1\n  iszero\n  tag_1\n  jumpi\n  0x00\n  dup1\n  revert\ntag_1:\n  pop\n  dataSize(sub_0)\n  dup1\n  dataOffset(sub_0)\n  0x00\n  codecopy\n  0x00\n  return\nstop\n\nsub_0: assembly {\n        /* \"solidity\\xe6\\x98\\xa0\\xe5\\xb0\\x84\\xe8\\xbf\\xad\\xe4\\xbb\\xa3.sol\":154:1298  contract IterableMapping {... */\n      mstore(0x40, 0x80)\n      callvalue\n      dup1\n      iszero\n      tag_1\n      jumpi\n      0x00\n      dup1\n      revert\n    tag_1:\n      pop\n      jumpi(tag_2, lt(calldatasize, 0x04))\n      shr(0xe0, calldataload(0x00))\n      dup1\n      0x47799da8\n      gt\n      tag_11\n      jumpi\n      dup1\n      0x47799da8\n      eq\n      tag_7\n      jumpi\n      dup1\n      0x7cd380f1\n      eq\n      tag_8\n      jumpi\n      dup1\n      0x9507d39a\n      eq\n      tag_9\n      jumpi\n      dup1\n      0xde8fa431\n      eq\n      tag_10\n      jumpi\n      0x00\n      dup1\n      revert\n    tag_11:\n      dup1\n      0x0cb6aaf1\n      eq\n      tag_3\n      jumpi\n      dup1\n      0x27e235e3\n      eq\n      tag_4\n      jumpi\n      dup1\n      0x3825d828\n      eq\n      tag_5\n      jumpi\n      dup1\n      0x3df4ddf4\n      eq\n      tag_6\n      jumpi\n    tag_2:\n      0x00\n      dup1\n      revert\n        /* \"solidity\\xe6\\x98\\xa0\\xe5\\xb0\\x84\\xe8\\xbf\\xad\\xe4\\xbb\\xa3.sol\":325:346  address[] public keys */\n    tag_3:\n      tag_12\n      tag_13\n      calldatasize\n      0x04\n      tag_14\n      jump\t// in\n    tag_13:\n      tag_15\n      jump\t// in\n    tag_12:\n      mload(0x40)\n      sub(shl(0xa0, 0x01), 0x01)\n        /* \"#utility.yul\":363:395   */\n      swap1\n      swap2\n      and\n        /* \"#utility.yul\":345:396   */\n      dup2\n      mstore\n        /* \"#utility.yul\":333:335   */\n      0x20\n        /* \"#utility.yul\":318:336   */\n      add\n        /* \"solidity\\xe6\\x98\\xa0\\xe5\\xb0\\x84\\xe8\\xbf\\xad\\xe4\\xbb\\xa3.sol\":325:346  address[] public keys */\n    tag_16:\n      mload(0x40)\n      dup1\n      swap2\n      sub\n      swap1\n      return\n        /* \"solidity\\xe6\\x98\\xa0\\xe5\\xb0\\x84\\xe8\\xbf\\xad\\xe4\\xbb\\xa3.sol\":186:226  mapping(address => uint) public balances */\n    tag_4:\n      tag_18\n      tag_19\n      calldatasize\n      0x04\n      tag_20\n      jump\t// in\n    tag_19:\n      0x00\n      0x20\n      dup2\n      swap1\n      mstore\n      swap1\n      dup2\n      mstore\n      0x40\n      swap1\n      keccak256\n      sload\n      dup2\n      jump\n    tag_18:\n      mload(0x40)\n        /* \"#utility.yul\":922:947   */\n      swap1\n      dup2\n      mstore\n        /* \"#utility.yul\":910:912   */\n      0x20\n        /* \"#utility.yul\":895:913   */\n      add\n        /* \"solidity\\xe6\\x98\\xa0\\xe5\\xb0\\x84\\xe8\\xbf\\xad\\xe4\\xbb\\xa3.sol\":186:226  mapping(address => uint) public balances */\n      tag_16\n        /* \"#utility.yul\":776:953   */\n      jump\n        /* \"solidity\\xe6\\x98\\xa0\\xe5\\xb0\\x84\\xe8\\xbf\\xad\\xe4\\xbb\\xa3.sol\":355:788  function set(address _key, uint _val) external {... */\n    tag_5:\n      tag_24\n      tag_25\n      calldatasize\n      0x04\n      tag_26\n      jump\t// in\n    tag_25:\n      tag_27\n      jump\t// in\n    tag_24:\n      stop\n        /* \"solidity\\xe6\\x98\\xa0\\xe5\\xb0\\x84\\xe8\\xbf\\xad\\xe4\\xbb\\xa3.sol\":955:1044  function first() external view returns (uint) {... */\n    tag_6:\n      tag_18\n      tag_29\n      jump\t// in\n        /* \"solidity\\xe6\\x98\\xa0\\xe5\\xb0\\x84\\xe8\\xbf\\xad\\xe4\\xbb\\xa3.sol\":1088:1190  function last() external view returns (uint) {... */\n    tag_7:\n      tag_18\n      tag_32\n      jump\t// in\n        /* \"solidity\\xe6\\x98\\xa0\\xe5\\xb0\\x84\\xe8\\xbf\\xad\\xe4\\xbb\\xa3.sol\":233:273  mapping(address => bool) public inserted */\n    tag_8:\n      tag_34\n      tag_35\n      calldatasize\n      0x04\n      tag_20\n      jump\t// in\n    tag_35:\n      mstore(0x20, 0x01)\n      0x00\n      swap1\n      dup2\n      mstore\n      0x40\n      swap1\n      keccak256\n      sload\n      0xff\n      and\n      dup2\n      jump\n    tag_34:\n      mload(0x40)\n        /* \"#utility.yul\":1382:1396   */\n      swap1\n      iszero\n        /* \"#utility.yul\":1375:1397   */\n      iszero\n        /* \"#utility.yul\":1357:1398   */\n      dup2\n      mstore\n        /* \"#utility.yul\":1345:1347   */\n      0x20\n        /* \"#utility.yul\":1330:1348   */\n      add\n        /* \"solidity\\xe6\\x98\\xa0\\xe5\\xb0\\x84\\xe8\\xbf\\xad\\xe4\\xbb\\xa3.sol\":233:273  mapping(address => bool) public inserted */\n      tag_16\n        /* \"#utility.yul\":1217:1404   */\n      jump\n        /* \"solidity\\xe6\\x98\\xa0\\xe5\\xb0\\x84\\xe8\\xbf\\xad\\xe4\\xbb\\xa3.sol\":1198:1293  function get(uint _i) external view returns (uint) {... */\n    tag_9:\n      tag_18\n      tag_40\n      calldatasize\n      0x04\n      tag_14\n      jump\t// in\n    tag_40:\n      tag_41\n      jump\t// in\n        /* \"solidity\\xe6\\x98\\xa0\\xe5\\xb0\\x84\\xe8\\xbf\\xad\\xe4\\xbb\\xa3.sol\":830:915  function getSize() external view returns (uint) {... */\n    tag_10:\n        /* \"solidity\\xe6\\x98\\xa0\\xe5\\xb0\\x84\\xe8\\xbf\\xad\\xe4\\xbb\\xa3.sol\":896:900  keys */\n      0x02\n        /* \"solidity\\xe6\\x98\\xa0\\xe5\\xb0\\x84\\xe8\\xbf\\xad\\xe4\\xbb\\xa3.sol\":896:907  keys.length */\n      sload\n        /* \"solidity\\xe6\\x98\\xa0\\xe5\\xb0\\x84\\xe8\\xbf\\xad\\xe4\\xbb\\xa3.sol\":830:915  function getSize() external view returns (uint) {... */\n      jump(tag_18)\n        /* \"solidity\\xe6\\x98\\xa0\\xe5\\xb0\\x84\\xe8\\xbf\\xad\\xe4\\xbb\\xa3.sol\":325:346  address[] public keys */\n    tag_15:\n      0x02\n      dup2\n      dup2\n      sload\n      dup2\n      lt\n      tag_46\n      jumpi\n      0x00\n      dup1\n      revert\n    tag_46:\n      0x00\n      swap2\n      dup3\n      mstore\n      0x20\n      swap1\n      swap2\n      keccak256\n      add\n      sload\n      sub(shl(0xa0, 0x01), 0x01)\n      and\n      swap1\n      pop\n      dup2\n      jump\t// out\n        /* \"solidity\\xe6\\x98\\xa0\\xe5\\xb0\\x84\\xe8\\xbf\\xad\\xe4\\xbb\\xa3.sol\":355:788  function set(address _key, uint _val) external {... */\n    tag_27:\n      sub(shl(0xa0, 0x01), 0x01)\n        /* \"solidity\\xe6\\x98\\xa0\\xe5\\xb0\\x84\\xe8\\xbf\\xad\\xe4\\xbb\\xa3.sol\":476:491  balances [_key] */\n      dup3\n      and\n        /* \"solidity\\xe6\\x98\\xa0\\xe5\\xb0\\x84\\xe8\\xbf\\xad\\xe4\\xbb\\xa3.sol\":476:484  balances */\n      0x00\n        /* \"solidity\\xe6\\x98\\xa0\\xe5\\xb0\\x84\\xe8\\xbf\\xad\\xe4\\xbb\\xa3.sol\":476:491  balances [_key] */\n      swap1\n      dup2\n      mstore\n      0x20\n      dup2\n      dup2\n      mstore\n      0x40\n      dup1\n      dup4\n      keccak256\n        /* \"solidity\\xe6\\x98\\xa0\\xe5\\xb0\\x84\\xe8\\xbf\\xad\\xe4\\xbb\\xa3.sol\":476:498  balances [_key] = _val */\n      dup5\n      swap1\n      sstore\n        /* \"solidity\\xe6\\x98\\xa0\\xe5\\xb0\\x84\\xe8\\xbf\\xad\\xe4\\xbb\\xa3.sol\":576:584  inserted */\n      0x01\n        /* \"solidity\\xe6\\x98\\xa0\\xe5\\xb0\\x84\\xe8\\xbf\\xad\\xe4\\xbb\\xa3.sol\":576:590  inserted[_key] */\n      swap1\n      swap2\n      mstore\n      swap1\n      keccak256\n      sload\n      0xff\n      and\n        /* \"solidity\\xe6\\x98\\xa0\\xe5\\xb0\\x84\\xe8\\xbf\\xad\\xe4\\xbb\\xa3.sol\":571:781  if (!inserted[_key]) {... */\n      tag_49\n      jumpi\n      sub(shl(0xa0, 0x01), 0x01)\n        /* \"solidity\\xe6\\x98\\xa0\\xe5\\xb0\\x84\\xe8\\xbf\\xad\\xe4\\xbb\\xa3.sol\":668:682  inserted[_key] */\n      dup3\n      and\n      0x00\n      dup2\n      dup2\n      mstore\n        /* \"solidity\\xe6\\x98\\xa0\\xe5\\xb0\\x84\\xe8\\xbf\\xad\\xe4\\xbb\\xa3.sol\":685:689  true */\n      0x01\n        /* \"solidity\\xe6\\x98\\xa0\\xe5\\xb0\\x84\\xe8\\xbf\\xad\\xe4\\xbb\\xa3.sol\":668:682  inserted[_key] */\n      0x20\n      dup2\n      swap1\n      mstore\n      0x40\n      dup3\n      keccak256\n        /* \"solidity\\xe6\\x98\\xa0\\xe5\\xb0\\x84\\xe8\\xbf\\xad\\xe4\\xbb\\xa3.sol\":668:689  inserted[_key] = true */\n      dup1\n      sload\n      not(0xff)\n      and\n      dup3\n      or\n      swap1\n      sstore\n        /* \"solidity\\xe6\\x98\\xa0\\xe5\\xb0\\x84\\xe8\\xbf\\xad\\xe4\\xbb\\xa3.sol\":754:758  keys */\n      0x02\n        /* \"solidity\\xe6\\x98\\xa0\\xe5\\xb0\\x84\\xe8\\xbf\\xad\\xe4\\xbb\\xa3.sol\":754:769  keys.push(_key) */\n      dup1\n      sload\n      swap2\n      dup3\n      add\n      dup2\n      sstore\n      swap1\n      swap2\n      mstore\n      0x405787fa12a823e0f2b7631cc41b3ba8828b3321ca811111fa75cd3aa3bb5ace\n      add\n      dup1\n      sload\n      not(sub(shl(0xa0, 0x01), 0x01))\n      and\n      swap1\n      swap2\n      or\n      swap1\n      sstore\n        /* \"solidity\\xe6\\x98\\xa0\\xe5\\xb0\\x84\\xe8\\xbf\\xad\\xe4\\xbb\\xa3.sol\":571:781  if (!inserted[_key]) {... */\n    tag_49:\n        /* \"solidity\\xe6\\x98\\xa0\\xe5\\xb0\\x84\\xe8\\xbf\\xad\\xe4\\xbb\\xa3.sol\":355:788  function set(address _key, uint _val) external {... */\n      pop\n      pop\n      jump\t// out\n        /* \"solidity\\xe6\\x98\\xa0\\xe5\\xb0\\x84\\xe8\\xbf\\xad\\xe4\\xbb\\xa3.sol\":955:1044  function first() external view returns (uint) {... */\n    tag_29:\n        /* \"solidity\\xe6\\x98\\xa0\\xe5\\xb0\\x84\\xe8\\xbf\\xad\\xe4\\xbb\\xa3.sol\":995:999  uint */\n      0x00\n        /* \"solidity\\xe6\\x98\\xa0\\xe5\\xb0\\x84\\xe8\\xbf\\xad\\xe4\\xbb\\xa3.sol\":1019:1027  balances */\n      dup1\n        /* \"solidity\\xe6\\x98\\xa0\\xe5\\xb0\\x84\\xe8\\xbf\\xad\\xe4\\xbb\\xa3.sol\":1019:1036  balances[keys[0]] */\n      0x00\n        /* \"solidity\\xe6\\x98\\xa0\\xe5\\xb0\\x84\\xe8\\xbf\\xad\\xe4\\xbb\\xa3.sol\":1028:1032  keys */\n      0x02\n        /* \"solidity\\xe6\\x98\\xa0\\xe5\\xb0\\x84\\xe8\\xbf\\xad\\xe4\\xbb\\xa3.sol\":1033:1034  0 */\n      0x00\n        /* \"solidity\\xe6\\x98\\xa0\\xe5\\xb0\\x84\\xe8\\xbf\\xad\\xe4\\xbb\\xa3.sol\":1028:1035  keys[0] */\n      dup2\n      sload\n      dup2\n      lt\n      tag_53\n      jumpi\n      tag_53\n      tag_54\n      jump\t// in\n    tag_53:\n      0x00\n      swap2\n      dup3\n      mstore\n      0x20\n      dup1\n      dup4\n      keccak256\n      swap1\n      swap2\n      add\n      sload\n      sub(shl(0xa0, 0x01), 0x01)\n      and\n        /* \"solidity\\xe6\\x98\\xa0\\xe5\\xb0\\x84\\xe8\\xbf\\xad\\xe4\\xbb\\xa3.sol\":1019:1036  balances[keys[0]] */\n      dup4\n      mstore\n      dup3\n      add\n      swap3\n      swap1\n      swap3\n      mstore\n      0x40\n      add\n      swap1\n      keccak256\n      sload\n      swap2\n        /* \"solidity\\xe6\\x98\\xa0\\xe5\\xb0\\x84\\xe8\\xbf\\xad\\xe4\\xbb\\xa3.sol\":955:1044  function first() external view returns (uint) {... */\n      swap1\n      pop\n      jump\t// out\n        /* \"solidity\\xe6\\x98\\xa0\\xe5\\xb0\\x84\\xe8\\xbf\\xad\\xe4\\xbb\\xa3.sol\":1088:1190  function last() external view returns (uint) {... */\n    tag_32:\n        /* \"solidity\\xe6\\x98\\xa0\\xe5\\xb0\\x84\\xe8\\xbf\\xad\\xe4\\xbb\\xa3.sol\":1127:1131  uint */\n      0x00\n        /* \"solidity\\xe6\\x98\\xa0\\xe5\\xb0\\x84\\xe8\\xbf\\xad\\xe4\\xbb\\xa3.sol\":1151:1159  balances */\n      dup1\n        /* \"solidity\\xe6\\x98\\xa0\\xe5\\xb0\\x84\\xe8\\xbf\\xad\\xe4\\xbb\\xa3.sol\":1151:1182  balances[keys[keys.length - 1]] */\n      0x00\n        /* \"solidity\\xe6\\x98\\xa0\\xe5\\xb0\\x84\\xe8\\xbf\\xad\\xe4\\xbb\\xa3.sol\":1160:1164  keys */\n      0x02\n        /* \"solidity\\xe6\\x98\\xa0\\xe5\\xb0\\x84\\xe8\\xbf\\xad\\xe4\\xbb\\xa3.sol\":1179:1180  1 */\n      0x01\n        /* \"solidity\\xe6\\x98\\xa0\\xe5\\xb0\\x84\\xe8\\xbf\\xad\\xe4\\xbb\\xa3.sol\":1165:1169  keys */\n      0x02\n        /* \"solidity\\xe6\\x98\\xa0\\xe5\\xb0\\x84\\xe8\\xbf\\xad\\xe4\\xbb\\xa3.sol\":1165:1176  keys.length */\n      dup1\n      sload\n      swap1\n      pop\n        /* \"solidity\\xe6\\x98\\xa0\\xe5\\xb0\\x84\\xe8\\xbf\\xad\\xe4\\xbb\\xa3.sol\":1165:1180  keys.length - 1 */\n      tag_57\n      swap2\n      swap1\n      tag_58\n      jump\t// in\n    tag_57:\n        /* \"solidity\\xe6\\x98\\xa0\\xe5\\xb0\\x84\\xe8\\xbf\\xad\\xe4\\xbb\\xa3.sol\":1160:1181  keys[keys.length - 1] */\n      dup2\n      sload\n      dup2\n      lt\n      tag_53\n      jumpi\n      tag_53\n      tag_54\n      jump\t// in\n        /* \"solidity\\xe6\\x98\\xa0\\xe5\\xb0\\x84\\xe8\\xbf\\xad\\xe4\\xbb\\xa3.sol\":1198:1293  function get(uint _i) external view returns (uint) {... */\n    tag_41:\n        /* \"solidity\\xe6\\x98\\xa0\\xe5\\xb0\\x84\\xe8\\xbf\\xad\\xe4\\xbb\\xa3.sol\":1243:1247  uint */\n      0x00\n        /* \"solidity\\xe6\\x98\\xa0\\xe5\\xb0\\x84\\xe8\\xbf\\xad\\xe4\\xbb\\xa3.sol\":1267:1275  balances */\n      dup1\n        /* \"solidity\\xe6\\x98\\xa0\\xe5\\xb0\\x84\\xe8\\xbf\\xad\\xe4\\xbb\\xa3.sol\":1267:1285  balances[keys[_i]] */\n      0x00\n        /* \"solidity\\xe6\\x98\\xa0\\xe5\\xb0\\x84\\xe8\\xbf\\xad\\xe4\\xbb\\xa3.sol\":1276:1280  keys */\n      0x02\n        /* \"solidity\\xe6\\x98\\xa0\\xe5\\xb0\\x84\\xe8\\xbf\\xad\\xe4\\xbb\\xa3.sol\":1281:1283  _i */\n      dup5\n        /* \"solidity\\xe6\\x98\\xa0\\xe5\\xb0\\x84\\xe8\\xbf\\xad\\xe4\\xbb\\xa3.sol\":1276:1284  keys[_i] */\n      dup2\n      sload\n      dup2\n      lt\n      tag_64\n      jumpi\n      tag_64\n      tag_54\n      jump\t// in\n    tag_64:\n      0x00\n      swap2\n      dup3\n      mstore\n      0x20\n      dup1\n      dup4\n      keccak256\n      swap1\n      swap2\n      add\n      sload\n      sub(shl(0xa0, 0x01), 0x01)\n      and\n        /* \"solidity\\xe6\\x98\\xa0\\xe5\\xb0\\x84\\xe8\\xbf\\xad\\xe4\\xbb\\xa3.sol\":1267:1285  balances[keys[_i]] */\n      dup4\n      mstore\n      dup3\n      add\n      swap3\n      swap1\n      swap3\n      mstore\n      0x40\n      add\n      swap1\n      keccak256\n      sload\n      swap3\n        /* \"solidity\\xe6\\x98\\xa0\\xe5\\xb0\\x84\\xe8\\xbf\\xad\\xe4\\xbb\\xa3.sol\":1198:1293  function get(uint _i) external view returns (uint) {... */\n      swap2\n      pop\n      pop\n      jump\t// out\n        /* \"#utility.yul\":14:194   */\n    tag_14:\n        /* \"#utility.yul\":73:79   */\n      0x00\n        /* \"#utility.yul\":126:128   */\n      0x20\n        /* \"#utility.yul\":114:123   */\n      dup3\n        /* \"#utility.yul\":105:112   */\n      dup5\n        /* \"#utility.yul\":101:124   */\n      sub\n        /* \"#utility.yul\":97:129   */\n      slt\n        /* \"#utility.yul\":94:146   */\n      iszero\n      tag_70\n      jumpi\n        /* \"#utility.yul\":142:143   */\n      0x00\n        /* \"#utility.yul\":139:140   */\n      dup1\n        /* \"#utility.yul\":132:144   */\n      revert\n        /* \"#utility.yul\":94:146   */\n    tag_70:\n      pop\n        /* \"#utility.yul\":165:188   */\n      calldataload\n      swap2\n        /* \"#utility.yul\":14:194   */\n      swap1\n      pop\n      jump\t// out\n        /* \"#utility.yul\":407:580   */\n    tag_67:\n        /* \"#utility.yul\":475:495   */\n      dup1\n      calldataload\n      sub(shl(0xa0, 0x01), 0x01)\n        /* \"#utility.yul\":524:555   */\n      dup2\n      and\n        /* \"#utility.yul\":514:556   */\n      dup2\n      eq\n        /* \"#utility.yul\":504:574   */\n      tag_73\n      jumpi\n        /* \"#utility.yul\":570:571   */\n      0x00\n        /* \"#utility.yul\":567:568   */\n      dup1\n        /* \"#utility.yul\":560:572   */\n      revert\n        /* \"#utility.yul\":504:574   */\n    tag_73:\n        /* \"#utility.yul\":407:580   */\n      swap2\n      swap1\n      pop\n      jump\t// out\n        /* \"#utility.yul\":585:771   */\n    tag_20:\n        /* \"#utility.yul\":644:650   */\n      0x00\n        /* \"#utility.yul\":697:699   */\n      0x20\n        /* \"#utility.yul\":685:694   */\n      dup3\n        /* \"#utility.yul\":676:683   */\n      dup5\n        /* \"#utility.yul\":672:695   */\n      sub\n        /* \"#utility.yul\":668:700   */\n      slt\n        /* \"#utility.yul\":665:717   */\n      iszero\n      tag_75\n      jumpi\n        /* \"#utility.yul\":713:714   */\n      0x00\n        /* \"#utility.yul\":710:711   */\n      dup1\n        /* \"#utility.yul\":703:715   */\n      revert\n        /* \"#utility.yul\":665:717   */\n    tag_75:\n        /* \"#utility.yul\":736:765   */\n      tag_76\n        /* \"#utility.yul\":755:764   */\n      dup3\n        /* \"#utility.yul\":736:765   */\n      tag_67\n      jump\t// in\n    tag_76:\n        /* \"#utility.yul\":726:765   */\n      swap4\n        /* \"#utility.yul\":585:771   */\n      swap3\n      pop\n      pop\n      pop\n      jump\t// out\n        /* \"#utility.yul\":958:1212   */\n    tag_26:\n        /* \"#utility.yul\":1026:1032   */\n      0x00\n        /* \"#utility.yul\":1034:1040   */\n      dup1\n        /* \"#utility.yul\":1087:1089   */\n      0x40\n        /* \"#utility.yul\":1075:1084   */\n      dup4\n        /* \"#utility.yul\":1066:1073   */\n      dup6\n        /* \"#utility.yul\":1062:1085   */\n      sub\n        /* \"#utility.yul\":1058:1090   */\n      slt\n        /* \"#utility.yul\":1055:1107   */\n      iszero\n      tag_79\n      jumpi\n        /* \"#utility.yul\":1103:1104   */\n      0x00\n        /* \"#utility.yul\":1100:1101   */\n      dup1\n        /* \"#utility.yul\":1093:1105   */\n      revert\n        /* \"#utility.yul\":1055:1107   */\n    tag_79:\n        /* \"#utility.yul\":1126:1155   */\n      tag_80\n        /* \"#utility.yul\":1145:1154   */\n      dup4\n        /* \"#utility.yul\":1126:1155   */\n      tag_67\n      jump\t// in\n    tag_80:\n        /* \"#utility.yul\":1116:1155   */\n      swap5\n        /* \"#utility.yul\":1202:1204   */\n      0x20\n        /* \"#utility.yul\":1187:1205   */\n      swap4\n      swap1\n      swap4\n      add\n        /* \"#utility.yul\":1174:1206   */\n      calldataload\n      swap4\n      pop\n      pop\n      pop\n        /* \"#utility.yul\":958:1212   */\n      jump\t// out\n        /* \"#utility.yul\":1409:1536   */\n    tag_54:\n        /* \"#utility.yul\":1470:1480   */\n      0x4e487b71\n        /* \"#utility.yul\":1465:1468   */\n      0xe0\n        /* \"#utility.yul\":1461:1481   */\n      shl\n        /* \"#utility.yul\":1458:1459   */\n      0x00\n        /* \"#utility.yul\":1451:1482   */\n      mstore\n        /* \"#utility.yul\":1501:1505   */\n      0x32\n        /* \"#utility.yul\":1498:1499   */\n      0x04\n        /* \"#utility.yul\":1491:1506   */\n      mstore\n        /* \"#utility.yul\":1525:1529   */\n      0x24\n        /* \"#utility.yul\":1522:1523   */\n      0x00\n        /* \"#utility.yul\":1515:1530   */\n      revert\n        /* \"#utility.yul\":1541:1763   */\n    tag_58:\n        /* \"#utility.yul\":1581:1585   */\n      0x00\n        /* \"#utility.yul\":1609:1610   */\n      dup3\n        /* \"#utility.yul\":1606:1607   */\n      dup3\n        /* \"#utility.yul\":1603:1611   */\n      lt\n        /* \"#utility.yul\":1600:1731   */\n      iszero\n      tag_84\n      jumpi\n        /* \"#utility.yul\":1653:1663   */\n      0x4e487b71\n        /* \"#utility.yul\":1648:1651   */\n      0xe0\n        /* \"#utility.yul\":1644:1664   */\n      shl\n        /* \"#utility.yul\":1641:1642   */\n      0x00\n        /* \"#utility.yul\":1634:1665   */\n      mstore\n        /* \"#utility.yul\":1688:1692   */\n      0x11\n        /* \"#utility.yul\":1685:1686   */\n      0x04\n        /* \"#utility.yul\":1678:1693   */\n      mstore\n        /* \"#utility.yul\":1716:1720   */\n      0x24\n        /* \"#utility.yul\":1713:1714   */\n      0x00\n        /* \"#utility.yul\":1706:1721   */\n      revert\n        /* \"#utility.yul\":1600:1731   */\n    tag_84:\n      pop\n        /* \"#utility.yul\":1748:1757   */\n      sub\n      swap1\n        /* \"#utility.yul\":1541:1763   */\n      jump\t// out\n\n    auxdata: 0xa26469706673582212206282043928cbdab0baf20ad8ccf43fe0506b39a75a03e7ee458db84f86600b6664736f6c634300080f0033\n}\n",
				"bytecode": {
					"linkReferences": {},
					"object": "608060405234801561001057600080fd5b506103bc806100206000396000f3fe608060405234801561001057600080fd5b50600436106100885760003560e01c806347799da81161005b57806347799da8146101085780637cd380f1146101105780639507d39a14610143578063de8fa4311461015657600080fd5b80630cb6aaf11461008d57806327e235e3146100bd5780633825d828146100eb5780633df4ddf414610100575b600080fd5b6100a061009b3660046102ca565b61015e565b6040516001600160a01b0390911681526020015b60405180910390f35b6100dd6100cb3660046102ff565b60006020819052908152604090205481565b6040519081526020016100b4565b6100fe6100f9366004610321565b610188565b005b6100dd61021b565b6100dd61025e565b61013361011e3660046102ff565b60016020526000908152604090205460ff1681565b60405190151581526020016100b4565b6100dd6101513660046102ca565b610287565b6002546100dd565b6002818154811061016e57600080fd5b6000918252602090912001546001600160a01b0316905081565b6001600160a01b038216600090815260208181526040808320849055600190915290205460ff16610217576001600160a01b03821660008181526001602081905260408220805460ff1916821790556002805491820181559091527f405787fa12a823e0f2b7631cc41b3ba8828b3321ca811111fa75cd3aa3bb5ace0180546001600160a01b03191690911790555b5050565b600080600060026000815481106102345761023461034b565b60009182526020808320909101546001600160a01b03168352820192909252604001902054919050565b6000806000600260016002805490506102779190610361565b815481106102345761023461034b565b60008060006002848154811061029f5761029f61034b565b60009182526020808320909101546001600160a01b0316835282019290925260400190205492915050565b6000602082840312156102dc57600080fd5b5035919050565b80356001600160a01b03811681146102fa57600080fd5b919050565b60006020828403121561031157600080fd5b61031a826102e3565b9392505050565b6000806040838503121561033457600080fd5b61033d836102e3565b946020939093013593505050565b634e487b7160e01b600052603260045260246000fd5b60008282101561038157634e487b7160e01b600052601160045260246000fd5b50039056fea26469706673582212206282043928cbdab0baf20ad8ccf43fe0506b39a75a03e7ee458db84f86600b6664736f6c634300080f0033",
					"opcodes": "PUSH1 0x80 PUSH1 0x40 MSTORE CALLVALUE DUP1 ISZERO PUSH2 0x10 JUMPI PUSH1 0x0 DUP1 REVERT JUMPDEST POP PUSH2 0x3BC DUP1 PUSH2 0x20 PUSH1 0x0 CODECOPY PUSH1 0x0 RETURN INVALID PUSH1 0x80 PUSH1 0x40 MSTORE CALLVALUE DUP1 ISZERO PUSH2 0x10 JUMPI PUSH1 0x0 DUP1 REVERT JUMPDEST POP PUSH1 0x4 CALLDATASIZE LT PUSH2 0x88 JUMPI PUSH1 0x0 CALLDATALOAD PUSH1 0xE0 SHR DUP1 PUSH4 0x47799DA8 GT PUSH2 0x5B JUMPI DUP1 PUSH4 0x47799DA8 EQ PUSH2 0x108 JUMPI DUP1 PUSH4 0x7CD380F1 EQ PUSH2 0x110 JUMPI DUP1 PUSH4 0x9507D39A EQ PUSH2 0x143 JUMPI DUP1 PUSH4 0xDE8FA431 EQ PUSH2 0x156 JUMPI PUSH1 0x0 DUP1 REVERT JUMPDEST DUP1 PUSH4 0xCB6AAF1 EQ PUSH2 0x8D JUMPI DUP1 PUSH4 0x27E235E3 EQ PUSH2 0xBD JUMPI DUP1 PUSH4 0x3825D828 EQ PUSH2 0xEB JUMPI DUP1 PUSH4 0x3DF4DDF4 EQ PUSH2 0x100 JUMPI JUMPDEST PUSH1 0x0 DUP1 REVERT JUMPDEST PUSH2 0xA0 PUSH2 0x9B CALLDATASIZE PUSH1 0x4 PUSH2 0x2CA JUMP JUMPDEST PUSH2 0x15E JUMP JUMPDEST PUSH1 0x40 MLOAD PUSH1 0x1 PUSH1 0x1 PUSH1 0xA0 SHL SUB SWAP1 SWAP2 AND DUP2 MSTORE PUSH1 0x20 ADD JUMPDEST PUSH1 0x40 MLOAD DUP1 SWAP2 SUB SWAP1 RETURN JUMPDEST PUSH2 0xDD PUSH2 0xCB CALLDATASIZE PUSH1 0x4 PUSH2 0x2FF JUMP JUMPDEST PUSH1 0x0 PUSH1 0x20 DUP2 SWAP1 MSTORE SWAP1 DUP2 MSTORE PUSH1 0x40 SWAP1 KECCAK256 SLOAD DUP2 JUMP JUMPDEST PUSH1 0x40 MLOAD SWAP1 DUP2 MSTORE PUSH1 0x20 ADD PUSH2 0xB4 JUMP JUMPDEST PUSH2 0xFE PUSH2 0xF9 CALLDATASIZE PUSH1 0x4 PUSH2 0x321 JUMP JUMPDEST PUSH2 0x188 JUMP JUMPDEST STOP JUMPDEST PUSH2 0xDD PUSH2 0x21B JUMP JUMPDEST PUSH2 0xDD PUSH2 0x25E JUMP JUMPDEST PUSH2 0x133 PUSH2 0x11E CALLDATASIZE PUSH1 0x4 PUSH2 0x2FF JUMP JUMPDEST PUSH1 0x1 PUSH1 0x20 MSTORE PUSH1 0x0 SWAP1 DUP2 MSTORE PUSH1 0x40 SWAP1 KECCAK256 SLOAD PUSH1 0xFF AND DUP2 JUMP JUMPDEST PUSH1 0x40 MLOAD SWAP1 ISZERO ISZERO DUP2 MSTORE PUSH1 0x20 ADD PUSH2 0xB4 JUMP JUMPDEST PUSH2 0xDD PUSH2 0x151 CALLDATASIZE PUSH1 0x4 PUSH2 0x2CA JUMP JUMPDEST PUSH2 0x287 JUMP JUMPDEST PUSH1 0x2 SLOAD PUSH2 0xDD JUMP JUMPDEST PUSH1 0x2 DUP2 DUP2 SLOAD DUP2 LT PUSH2 0x16E JUMPI PUSH1 0x0 DUP1 REVERT JUMPDEST PUSH1 0x0 SWAP2 DUP3 MSTORE PUSH1 0x20 SWAP1 SWAP2 KECCAK256 ADD SLOAD PUSH1 0x1 PUSH1 0x1 PUSH1 0xA0 SHL SUB AND SWAP1 POP DUP2 JUMP JUMPDEST PUSH1 0x1 PUSH1 0x1 PUSH1 0xA0 SHL SUB DUP3 AND PUSH1 0x0 SWAP1 DUP2 MSTORE PUSH1 0x20 DUP2 DUP2 MSTORE PUSH1 0x40 DUP1 DUP4 KECCAK256 DUP5 SWAP1 SSTORE PUSH1 0x1 SWAP1 SWAP2 MSTORE SWAP1 KECCAK256 SLOAD PUSH1 0xFF AND PUSH2 0x217 JUMPI PUSH1 0x1 PUSH1 0x1 PUSH1 0xA0 SHL SUB DUP3 AND PUSH1 0x0 DUP2 DUP2 MSTORE PUSH1 0x1 PUSH1 0x20 DUP2 SWAP1 MSTORE PUSH1 0x40 DUP3 KECCAK256 DUP1 SLOAD PUSH1 0xFF NOT AND DUP3 OR SWAP1 SSTORE PUSH1 0x2 DUP1 SLOAD SWAP2 DUP3 ADD DUP2 SSTORE SWAP1 SWAP2 MSTORE PUSH32 0x405787FA12A823E0F2B7631CC41B3BA8828B3321CA811111FA75CD3AA3BB5ACE ADD DUP1 SLOAD PUSH1 0x1 PUSH1 0x1 PUSH1 0xA0 SHL SUB NOT AND SWAP1 SWAP2 OR SWAP1 SSTORE JUMPDEST POP POP JUMP JUMPDEST PUSH1 0x0 DUP1 PUSH1 0x0 PUSH1 0x2 PUSH1 0x0 DUP2 SLOAD DUP2 LT PUSH2 0x234 JUMPI PUSH2 0x234 PUSH2 0x34B JUMP JUMPDEST PUSH1 0x0 SWAP2 DUP3 MSTORE PUSH1 0x20 DUP1 DUP4 KECCAK256 SWAP1 SWAP2 ADD SLOAD PUSH1 0x1 PUSH1 0x1 PUSH1 0xA0 SHL SUB AND DUP4 MSTORE DUP3 ADD SWAP3 SWAP1 SWAP3 MSTORE PUSH1 0x40 ADD SWAP1 KECCAK256 SLOAD SWAP2 SWAP1 POP JUMP JUMPDEST PUSH1 0x0 DUP1 PUSH1 0x0 PUSH1 0x2 PUSH1 0x1 PUSH1 0x2 DUP1 SLOAD SWAP1 POP PUSH2 0x277 SWAP2 SWAP1 PUSH2 0x361 JUMP JUMPDEST DUP2 SLOAD DUP2 LT PUSH2 0x234 JUMPI PUSH2 0x234 PUSH2 0x34B JUMP JUMPDEST PUSH1 0x0 DUP1 PUSH1 0x0 PUSH1 0x2 DUP5 DUP2 SLOAD DUP2 LT PUSH2 0x29F JUMPI PUSH2 0x29F PUSH2 0x34B JUMP JUMPDEST PUSH1 0x0 SWAP2 DUP3 MSTORE PUSH1 0x20 DUP1 DUP4 KECCAK256 SWAP1 SWAP2 ADD SLOAD PUSH1 0x1 PUSH1 0x1 PUSH1 0xA0 SHL SUB AND DUP4 MSTORE DUP3 ADD SWAP3 SWAP1 SWAP3 MSTORE PUSH1 0x40 ADD SWAP1 KECCAK256 SLOAD SWAP3 SWAP2 POP POP JUMP JUMPDEST PUSH1 0x0 PUSH1 0x20 DUP3 DUP5 SUB SLT ISZERO PUSH2 0x2DC JUMPI PUSH1 0x0 DUP1 REVERT JUMPDEST POP CALLDATALOAD SWAP2 SWAP1 POP JUMP JUMPDEST DUP1 CALLDATALOAD PUSH1 0x1 PUSH1 0x1 PUSH1 0xA0 SHL SUB DUP2 AND DUP2 EQ PUSH2 0x2FA JUMPI PUSH1 0x0 DUP1 REVERT JUMPDEST SWAP2 SWAP1 POP JUMP JUMPDEST PUSH1 0x0 PUSH1 0x20 DUP3 DUP5 SUB SLT ISZERO PUSH2 0x311 JUMPI PUSH1 0x0 DUP1 REVERT JUMPDEST PUSH2 0x31A DUP3 PUSH2 0x2E3 JUMP JUMPDEST SWAP4 SWAP3 POP POP POP JUMP JUMPDEST PUSH1 0x0 DUP1 PUSH1 0x40 DUP4 DUP6 SUB SLT ISZERO PUSH2 0x334 JUMPI PUSH1 0x0 DUP1 REVERT JUMPDEST PUSH2 0x33D DUP4 PUSH2 0x2E3 JUMP JUMPDEST SWAP5 PUSH1 0x20 SWAP4 SWAP1 SWAP4 ADD CALLDATALOAD SWAP4 POP POP POP JUMP JUMPDEST PUSH4 0x4E487B71 PUSH1 0xE0 SHL PUSH1 0x0 MSTORE PUSH1 0x32 PUSH1 0x4 MSTORE PUSH1 0x24 PUSH1 0x0 REVERT JUMPDEST PUSH1 0x0 DUP3 DUP3 LT ISZERO PUSH2 0x381 JUMPI PUSH4 0x4E487B71 PUSH1 0xE0 SHL PUSH1 0x0 MSTORE PUSH1 0x11 PUSH1 0x4 MSTORE PUSH1 0x24 PUSH1 0x0 REVERT JUMPDEST POP SUB SWAP1 JUMP INVALID LOG2 PUSH5 0x6970667358 0x22 SLT KECCAK256 PUSH3 0x820439 0x28 0xCB 0xDA 0xB0 0xBA CALLCODE EXP 0xD8 0xCC DELEGATECALL EXTCODEHASH 0xE0 POP PUSH12 0x39A75A03E7EE458DB84F8660 SIGNEXTEND PUSH7 0x64736F6C634300 ADDMOD 0xF STOP CALLER "
				},
				"gasEstimates": {
					"creation": {
						"codeDepositCost": "191200",
						"executionCost": "232",
						"totalCost": "191432"
					},
					"external": {
						"balances(address)": "2545",
						"first()": "6773",
						"get(uint256)": "6829",
						"getSize()": "2358",
						"inserted(address)": "2553",
						"keys(uint256)": "4604",
						"last()": "8884",
						"set(address,uint256)": "97537"
					}
				},
				"methodIdentifiers": {
					"balances(address)": "27e235e3",
					"first()": "3df4ddf4",
					"get(uint256)": "9507d39a",
					"getSize()": "de8fa431",
					"inserted(address)": "7cd380f1",
					"keys(uint256)": "0cb6aaf1",
					"last()": "47799da8",
					"set(address,uint256)": "3825d828"
				}
			},
			"storageLayout": {
				"storage": [
					{
						"astId": 5,
						"contract": "solidity映射迭代.sol:IterableMapping",
						"label": "balances",
						"offset": 0,
						"slot": "0",
						"type": "t_mapping(t_address,t_uint256)"
					},
					{
						"astId": 9,
						"contract": "solidity映射迭代.sol:IterableMapping",
						"label": "inserted",
						"offset": 0,
						"slot": "1",
						"type": "t_mapping(t_address,t_bool)"
					},
					{
						"astId": 12,
						"contract": "solidity映射迭代.sol:IterableMapping",
						"label": "keys",
						"offset": 0,
						"slot": "2",
						"type": "t_array(t_address)dyn_storage"
					}
				],
				"types": {
					"t_address": {
						"encoding": "inplace",
						"label": "address",
						"numberOfBytes": "20"
					},
					"t_array(t_address)dyn_storage": {
						"base": "t_address",
						"encoding": "dynamic_array",
						"label": "address[]",
						"numberOfBytes": "32"
					},
					"t_bool": {
						"encoding": "inplace",
						"label": "bool",
						"numberOfBytes": "1"
					},
					"t_mapping(t_address,t_bool)": {
						"encoding": "mapping",
						"key": "t_address",
						"label": "mapping(address => bool)",
						"numberOfBytes": "32",
						"value": "t_bool"
					},
					"t_mapping(t_address,t_uint256)": {
						"encoding": "mapping",
						"key": "t_address",
						"label": "mapping(address => uint256)",
						"numberOfBytes": "32",
						"value": "t_uint256"
					},
					"t_uint256": {
						"encoding": "inplace",
						"label": "uint256",
						"numberOfBytes": "32"
					}
				}
			},
			"userdoc": {
				"kind": "user",
				"methods": {},
				"version": 1
			}
		}
	}
}