{
	"定息矿池-进阶.sol": {
		"StakeContract": {
			"abi": [
				{
					"inputs": [
						{
							"internalType": "address",
							"name": "_staketoken",
							"type": "address"
						}
					],
					"stateMutability": "nonpayable",
					"type": "constructor"
				},
				{
					"inputs": [
						{
							"internalType": "address",
							"name": "",
							"type": "address"
						}
					],
					"name": "User_Map",
					"outputs": [
						{
							"internalType": "uint256",
							"name": "stakeNumber",
							"type": "uint256"
						},
						{
							"internalType": "uint256",
							"name": "last_Stake_Time",
							"type": "uint256"
						},
						{
							"internalType": "uint256",
							"name": "last_totoken_ratio",
							"type": "uint256"
						},
						{
							"internalType": "uint256",
							"name": "whole_ratio",
							"type": "uint256"
						},
						{
							"internalType": "uint256",
							"name": "last_totoken_Time",
							"type": "uint256"
						}
					],
					"stateMutability": "view",
					"type": "function"
				},
				{
					"inputs": [
						{
							"internalType": "uint256",
							"name": "_amount",
							"type": "uint256"
						}
					],
					"name": "deposit",
					"outputs": [
						{
							"internalType": "bool",
							"name": "",
							"type": "bool"
						}
					],
					"stateMutability": "nonpayable",
					"type": "function"
				},
				{
					"inputs": [],
					"name": "owner",
					"outputs": [
						{
							"internalType": "address",
							"name": "",
							"type": "address"
						}
					],
					"stateMutability": "view",
					"type": "function"
				},
				{
					"inputs": [],
					"name": "ratio",
					"outputs": [
						{
							"internalType": "uint256",
							"name": "",
							"type": "uint256"
						}
					],
					"stateMutability": "view",
					"type": "function"
				},
				{
					"inputs": [],
					"name": "rewardtoken",
					"outputs": [
						{
							"internalType": "address",
							"name": "",
							"type": "address"
						}
					],
					"stateMutability": "view",
					"type": "function"
				},
				{
					"inputs": [
						{
							"internalType": "uint256",
							"name": "_ratio",
							"type": "uint256"
						}
					],
					"name": "setratio",
					"outputs": [],
					"stateMutability": "nonpayable",
					"type": "function"
				},
				{
					"inputs": [],
					"name": "staketoken",
					"outputs": [
						{
							"internalType": "address",
							"name": "",
							"type": "address"
						}
					],
					"stateMutability": "view",
					"type": "function"
				},
				{
					"inputs": [],
					"name": "staketotal",
					"outputs": [
						{
							"internalType": "uint256",
							"name": "",
							"type": "uint256"
						}
					],
					"stateMutability": "view",
					"type": "function"
				}
			],
			"devdoc": {
				"kind": "dev",
				"methods": {},
				"version": 1
			},
			"evm": {
				"assembly": "    /* \"\\xe5\\xae\\x9a\\xe6\\x81\\xaf\\xe7\\x9f\\xbf\\xe6\\xb1\\xa0-\\xe8\\xbf\\x9b\\xe9\\x98\\xb6.sol\":169:1714  contract StakeContract {... */\n  mstore(0x40, 0x80)\n    /* \"\\xe5\\xae\\x9a\\xe6\\x81\\xaf\\xe7\\x9f\\xbf\\xe6\\xb1\\xa0-\\xe8\\xbf\\x9b\\xe9\\x98\\xb6.sol\":912:1118  constructor (address _staketoken) {... */\n  callvalue\n  dup1\n  iszero\n  tag_1\n  jumpi\n  0x00\n  dup1\n  revert\ntag_1:\n  pop\n  mload(0x40)\n  sub(codesize, bytecodeSize)\n  dup1\n  bytecodeSize\n  dup4\n  codecopy\n  dup2\n  add\n  0x40\n  dup2\n  swap1\n  mstore\n  tag_2\n  swap2\n  tag_3\n  jump\t// in\ntag_2:\n    /* \"\\xe5\\xae\\x9a\\xe6\\x81\\xaf\\xe7\\x9f\\xbf\\xe6\\xb1\\xa0-\\xe8\\xbf\\x9b\\xe9\\x98\\xb6.sol\":957:962  owner */\n  0x04\n    /* \"\\xe5\\xae\\x9a\\xe6\\x81\\xaf\\xe7\\x9f\\xbf\\xe6\\xb1\\xa0-\\xe8\\xbf\\x9b\\xe9\\x98\\xb6.sol\":957:975  owner = msg.sender */\n  dup1\n  sload\n  not(sub(shl(0xa0, 0x01), 0x01))\n  and\n    /* \"\\xe5\\xae\\x9a\\xe6\\x81\\xaf\\xe7\\x9f\\xbf\\xe6\\xb1\\xa0-\\xe8\\xbf\\x9b\\xe9\\x98\\xb6.sol\":965:975  msg.sender */\n  caller\n    /* \"\\xe5\\xae\\x9a\\xe6\\x81\\xaf\\xe7\\x9f\\xbf\\xe6\\xb1\\xa0-\\xe8\\xbf\\x9b\\xe9\\x98\\xb6.sol\":957:975  owner = msg.sender */\n  or\n  swap1\n  sstore\n  sub(shl(0xa0, 0x01), 0x01)\n    /* \"\\xe5\\xae\\x9a\\xe6\\x81\\xaf\\xe7\\x9f\\xbf\\xe6\\xb1\\xa0-\\xe8\\xbf\\x9b\\xe9\\x98\\xb6.sol\":994:1019  _staketoken != address(0) */\n  dup2\n  and\n    /* \"\\xe5\\xae\\x9a\\xe6\\x81\\xaf\\xe7\\x9f\\xbf\\xe6\\xb1\\xa0-\\xe8\\xbf\\x9b\\xe9\\x98\\xb6.sol\":986:1039  require(_staketoken != address(0),\"NOT,S 0X ADDRESS\") */\n  tag_6\n  jumpi\n  mload(0x40)\n  shl(0xe5, 0x461bcd)\n  dup2\n  mstore\n    /* \"#utility.yul\":511:513   */\n  0x20\n    /* \"\\xe5\\xae\\x9a\\xe6\\x81\\xaf\\xe7\\x9f\\xbf\\xe6\\xb1\\xa0-\\xe8\\xbf\\x9b\\xe9\\x98\\xb6.sol\":986:1039  require(_staketoken != address(0),\"NOT,S 0X ADDRESS\") */\n  0x04\n  dup3\n  add\n    /* \"#utility.yul\":493:514   */\n  mstore\n    /* \"#utility.yul\":550:552   */\n  0x10\n    /* \"#utility.yul\":530:548   */\n  0x24\n  dup3\n  add\n    /* \"#utility.yul\":523:553   */\n  mstore\n  shl(0x80, 0x4e4f542c532030582041444452455353)\n    /* \"#utility.yul\":569:587   */\n  0x44\n  dup3\n  add\n    /* \"#utility.yul\":562:608   */\n  mstore\n    /* \"#utility.yul\":625:643   */\n  0x64\n  add\n    /* \"\\xe5\\xae\\x9a\\xe6\\x81\\xaf\\xe7\\x9f\\xbf\\xe6\\xb1\\xa0-\\xe8\\xbf\\x9b\\xe9\\x98\\xb6.sol\":986:1039  require(_staketoken != address(0),\"NOT,S 0X ADDRESS\") */\n  mload(0x40)\n  dup1\n  swap2\n  sub\n  swap1\n  revert\ntag_6:\n    /* \"\\xe5\\xae\\x9a\\xe6\\x81\\xaf\\xe7\\x9f\\xbf\\xe6\\xb1\\xa0-\\xe8\\xbf\\x9b\\xe9\\x98\\xb6.sol\":1050:1060  staketoken */\n  0x01\n    /* \"\\xe5\\xae\\x9a\\xe6\\x81\\xaf\\xe7\\x9f\\xbf\\xe6\\xb1\\xa0-\\xe8\\xbf\\x9b\\xe9\\x98\\xb6.sol\":1050:1074  staketoken = _staketoken */\n  dup1\n  sload\n  sub(shl(0xa0, 0x01), 0x01)\n  swap1\n  swap3\n  and\n  not(sub(shl(0xa0, 0x01), 0x01))\n  swap3\n  dup4\n  and\n  dup2\n  or\n  swap1\n  swap2\n  sstore\n    /* \"\\xe5\\xae\\x9a\\xe6\\x81\\xaf\\xe7\\x9f\\xbf\\xe6\\xb1\\xa0-\\xe8\\xbf\\x9b\\xe9\\x98\\xb6.sol\":1085:1096  rewardtoken */\n  0x02\n    /* \"\\xe5\\xae\\x9a\\xe6\\x81\\xaf\\xe7\\x9f\\xbf\\xe6\\xb1\\xa0-\\xe8\\xbf\\x9b\\xe9\\x98\\xb6.sol\":1085:1110  rewardtoken = _staketoken */\n  dup1\n  sload\n  swap1\n  swap3\n  and\n  or\n  swap1\n  sstore\n    /* \"\\xe5\\xae\\x9a\\xe6\\x81\\xaf\\xe7\\x9f\\xbf\\xe6\\xb1\\xa0-\\xe8\\xbf\\x9b\\xe9\\x98\\xb6.sol\":169:1714  contract StakeContract {... */\n  jump(tag_10)\n    /* \"#utility.yul\":14:304   */\ntag_3:\n    /* \"#utility.yul\":84:90   */\n  0x00\n    /* \"#utility.yul\":137:139   */\n  0x20\n    /* \"#utility.yul\":125:134   */\n  dup3\n    /* \"#utility.yul\":116:123   */\n  dup5\n    /* \"#utility.yul\":112:135   */\n  sub\n    /* \"#utility.yul\":108:140   */\n  slt\n    /* \"#utility.yul\":105:157   */\n  iszero\n  tag_12\n  jumpi\n    /* \"#utility.yul\":153:154   */\n  0x00\n    /* \"#utility.yul\":150:151   */\n  dup1\n    /* \"#utility.yul\":143:155   */\n  revert\n    /* \"#utility.yul\":105:157   */\ntag_12:\n    /* \"#utility.yul\":179:195   */\n  dup2\n  mload\n  sub(shl(0xa0, 0x01), 0x01)\n    /* \"#utility.yul\":224:255   */\n  dup2\n  and\n    /* \"#utility.yul\":214:256   */\n  dup2\n  eq\n    /* \"#utility.yul\":204:274   */\n  tag_13\n  jumpi\n    /* \"#utility.yul\":270:271   */\n  0x00\n    /* \"#utility.yul\":267:268   */\n  dup1\n    /* \"#utility.yul\":260:272   */\n  revert\n    /* \"#utility.yul\":204:274   */\ntag_13:\n    /* \"#utility.yul\":293:298   */\n  swap4\n    /* \"#utility.yul\":14:304   */\n  swap3\n  pop\n  pop\n  pop\n  jump\t// out\n    /* \"#utility.yul\":309:649   */\ntag_10:\n    /* \"\\xe5\\xae\\x9a\\xe6\\x81\\xaf\\xe7\\x9f\\xbf\\xe6\\xb1\\xa0-\\xe8\\xbf\\x9b\\xe9\\x98\\xb6.sol\":169:1714  contract StakeContract {... */\n  dataSize(sub_0)\n  dup1\n  dataOffset(sub_0)\n  0x00\n  codecopy\n  0x00\n  return\nstop\n\nsub_0: assembly {\n        /* \"\\xe5\\xae\\x9a\\xe6\\x81\\xaf\\xe7\\x9f\\xbf\\xe6\\xb1\\xa0-\\xe8\\xbf\\x9b\\xe9\\x98\\xb6.sol\":169:1714  contract StakeContract {... */\n      mstore(0x40, 0x80)\n      callvalue\n      dup1\n      iszero\n      tag_1\n      jumpi\n      0x00\n      dup1\n      revert\n    tag_1:\n      pop\n      jumpi(tag_2, lt(calldatasize, 0x04))\n      shr(0xe0, calldataload(0x00))\n      dup1\n      0x8da5cb5b\n      gt\n      tag_11\n      jumpi\n      dup1\n      0x8da5cb5b\n      eq\n      tag_7\n      jumpi\n      dup1\n      0xb6b55f25\n      eq\n      tag_8\n      jumpi\n      dup1\n      0xdab2997b\n      eq\n      tag_9\n      jumpi\n      dup1\n      0xe8221917\n      eq\n      tag_10\n      jumpi\n      0x00\n      dup1\n      revert\n    tag_11:\n      dup1\n      0x1afaa6e8\n      eq\n      tag_3\n      jumpi\n      dup1\n      0x6dff132e\n      eq\n      tag_4\n      jumpi\n      dup1\n      0x71ca337d\n      eq\n      tag_5\n      jumpi\n      dup1\n      0x8c93ecff\n      eq\n      tag_6\n      jumpi\n    tag_2:\n      0x00\n      dup1\n      revert\n        /* \"\\xe5\\xae\\x9a\\xe6\\x81\\xaf\\xe7\\x9f\\xbf\\xe6\\xb1\\xa0-\\xe8\\xbf\\x9b\\xe9\\x98\\xb6.sol\":1153:1226  function setratio(uint _ratio) external {... */\n    tag_3:\n      tag_12\n      tag_13\n      calldatasize\n      0x04\n      tag_14\n      jump\t// in\n    tag_13:\n        /* \"\\xe5\\xae\\x9a\\xe6\\x81\\xaf\\xe7\\x9f\\xbf\\xe6\\xb1\\xa0-\\xe8\\xbf\\x9b\\xe9\\x98\\xb6.sol\":1204:1209  ratio */\n      0x00\n        /* \"\\xe5\\xae\\x9a\\xe6\\x81\\xaf\\xe7\\x9f\\xbf\\xe6\\xb1\\xa0-\\xe8\\xbf\\x9b\\xe9\\x98\\xb6.sol\":1204:1218  ratio = _ratio */\n      sstore\n        /* \"\\xe5\\xae\\x9a\\xe6\\x81\\xaf\\xe7\\x9f\\xbf\\xe6\\xb1\\xa0-\\xe8\\xbf\\x9b\\xe9\\x98\\xb6.sol\":1153:1226  function setratio(uint _ratio) external {... */\n      jump\n    tag_12:\n      stop\n        /* \"\\xe5\\xae\\x9a\\xe6\\x81\\xaf\\xe7\\x9f\\xbf\\xe6\\xb1\\xa0-\\xe8\\xbf\\x9b\\xe9\\x98\\xb6.sol\":378:404  address public rewardtoken */\n    tag_4:\n      sload(0x02)\n      tag_16\n      swap1\n      sub(shl(0xa0, 0x01), 0x01)\n      and\n      dup2\n      jump\n    tag_16:\n      mload(0x40)\n      sub(shl(0xa0, 0x01), 0x01)\n        /* \"#utility.yul\":363:395   */\n      swap1\n      swap2\n      and\n        /* \"#utility.yul\":345:396   */\n      dup2\n      mstore\n        /* \"#utility.yul\":333:335   */\n      0x20\n        /* \"#utility.yul\":318:336   */\n      add\n        /* \"\\xe5\\xae\\x9a\\xe6\\x81\\xaf\\xe7\\x9f\\xbf\\xe6\\xb1\\xa0-\\xe8\\xbf\\x9b\\xe9\\x98\\xb6.sol\":378:404  address public rewardtoken */\n    tag_18:\n      mload(0x40)\n      dup1\n      swap2\n      sub\n      swap1\n      return\n        /* \"\\xe5\\xae\\x9a\\xe6\\x81\\xaf\\xe7\\x9f\\xbf\\xe6\\xb1\\xa0-\\xe8\\xbf\\x9b\\xe9\\x98\\xb6.sol\":279:296  uint public ratio */\n    tag_5:\n      tag_20\n      sload(0x00)\n      dup2\n      jump\n    tag_20:\n      mload(0x40)\n        /* \"#utility.yul\":553:578   */\n      swap1\n      dup2\n      mstore\n        /* \"#utility.yul\":541:543   */\n      0x20\n        /* \"#utility.yul\":526:544   */\n      add\n        /* \"\\xe5\\xae\\x9a\\xe6\\x81\\xaf\\xe7\\x9f\\xbf\\xe6\\xb1\\xa0-\\xe8\\xbf\\x9b\\xe9\\x98\\xb6.sol\":279:296  uint public ratio */\n      tag_18\n        /* \"#utility.yul\":407:584   */\n      jump\n        /* \"\\xe5\\xae\\x9a\\xe6\\x81\\xaf\\xe7\\x9f\\xbf\\xe6\\xb1\\xa0-\\xe8\\xbf\\x9b\\xe9\\x98\\xb6.sol\":863:903  mapping(address => User) public User_Map */\n    tag_6:\n      tag_24\n      tag_25\n      calldatasize\n      0x04\n      tag_26\n      jump\t// in\n    tag_25:\n      mstore(0x20, 0x05)\n      0x00\n      swap1\n      dup2\n      mstore\n      0x40\n      swap1\n      keccak256\n      dup1\n      sload\n      0x01\n      dup3\n      add\n      sload\n      0x02\n      dup4\n      add\n      sload\n      0x03\n      dup5\n      add\n      sload\n      0x04\n      swap1\n      swap5\n      add\n      sload\n      swap3\n      swap4\n      swap2\n      swap3\n      swap1\n      swap2\n      swap1\n      dup6\n      jump\n    tag_24:\n      0x40\n      dup1\n      mload\n        /* \"#utility.yul\":1139:1164   */\n      swap6\n      dup7\n      mstore\n        /* \"#utility.yul\":1195:1197   */\n      0x20\n        /* \"#utility.yul\":1180:1198   */\n      dup7\n      add\n        /* \"#utility.yul\":1173:1207   */\n      swap5\n      swap1\n      swap5\n      mstore\n        /* \"#utility.yul\":1223:1241   */\n      swap3\n      dup5\n      add\n        /* \"#utility.yul\":1216:1250   */\n      swap2\n      swap1\n      swap2\n      mstore\n        /* \"#utility.yul\":1281:1283   */\n      0x60\n        /* \"#utility.yul\":1266:1284   */\n      dup4\n      add\n        /* \"#utility.yul\":1259:1293   */\n      mstore\n        /* \"#utility.yul\":1324:1327   */\n      0x80\n        /* \"#utility.yul\":1309:1328   */\n      dup3\n      add\n        /* \"#utility.yul\":1302:1337   */\n      mstore\n        /* \"#utility.yul\":1126:1129   */\n      0xa0\n        /* \"#utility.yul\":1111:1130   */\n      add\n        /* \"\\xe5\\xae\\x9a\\xe6\\x81\\xaf\\xe7\\x9f\\xbf\\xe6\\xb1\\xa0-\\xe8\\xbf\\x9b\\xe9\\x98\\xb6.sol\":863:903  mapping(address => User) public User_Map */\n      tag_18\n        /* \"#utility.yul\":880:1343   */\n      jump\n        /* \"\\xe5\\xae\\x9a\\xe6\\x81\\xaf\\xe7\\x9f\\xbf\\xe6\\xb1\\xa0-\\xe8\\xbf\\x9b\\xe9\\x98\\xb6.sol\":461:481  address public owner */\n    tag_7:\n      sload(0x04)\n      tag_16\n      swap1\n      sub(shl(0xa0, 0x01), 0x01)\n      and\n      dup2\n      jump\n        /* \"\\xe5\\xae\\x9a\\xe6\\x81\\xaf\\xe7\\x9f\\xbf\\xe6\\xb1\\xa0-\\xe8\\xbf\\x9b\\xe9\\x98\\xb6.sol\":1255:1701  function deposit(uint _amount) public returns (bool) {... */\n    tag_8:\n      tag_33\n      tag_34\n      calldatasize\n      0x04\n      tag_14\n      jump\t// in\n    tag_34:\n      tag_35\n      jump\t// in\n    tag_33:\n      mload(0x40)\n        /* \"#utility.yul\":1513:1527   */\n      swap1\n      iszero\n        /* \"#utility.yul\":1506:1528   */\n      iszero\n        /* \"#utility.yul\":1488:1529   */\n      dup2\n      mstore\n        /* \"#utility.yul\":1476:1478   */\n      0x20\n        /* \"#utility.yul\":1461:1479   */\n      add\n        /* \"\\xe5\\xae\\x9a\\xe6\\x81\\xaf\\xe7\\x9f\\xbf\\xe6\\xb1\\xa0-\\xe8\\xbf\\x9b\\xe9\\x98\\xb6.sol\":1255:1701  function deposit(uint _amount) public returns (bool) {... */\n      tag_18\n        /* \"#utility.yul\":1348:1535   */\n      jump\n        /* \"\\xe5\\xae\\x9a\\xe6\\x81\\xaf\\xe7\\x9f\\xbf\\xe6\\xb1\\xa0-\\xe8\\xbf\\x9b\\xe9\\x98\\xb6.sol\":325:350  address public staketoken */\n    tag_9:\n      sload(0x01)\n      tag_16\n      swap1\n      sub(shl(0xa0, 0x01), 0x01)\n      and\n      dup2\n      jump\n        /* \"\\xe5\\xae\\x9a\\xe6\\x81\\xaf\\xe7\\x9f\\xbf\\xe6\\xb1\\xa0-\\xe8\\xbf\\x9b\\xe9\\x98\\xb6.sol\":432:454  uint public staketotal */\n    tag_10:\n      tag_20\n      sload(0x03)\n      dup2\n      jump\n        /* \"\\xe5\\xae\\x9a\\xe6\\x81\\xaf\\xe7\\x9f\\xbf\\xe6\\xb1\\xa0-\\xe8\\xbf\\x9b\\xe9\\x98\\xb6.sol\":1255:1701  function deposit(uint _amount) public returns (bool) {... */\n    tag_35:\n        /* \"\\xe5\\xae\\x9a\\xe6\\x81\\xaf\\xe7\\x9f\\xbf\\xe6\\xb1\\xa0-\\xe8\\xbf\\x9b\\xe9\\x98\\xb6.sol\":1398:1408  staketoken */\n      sload(0x01)\n        /* \"\\xe5\\xae\\x9a\\xe6\\x81\\xaf\\xe7\\x9f\\xbf\\xe6\\xb1\\xa0-\\xe8\\xbf\\x9b\\xe9\\x98\\xb6.sol\":1391:1431  IERC20(staketoken).balanceOf(msg.sender) */\n      mload(0x40)\n      shl(0xe0, 0x70a08231)\n      dup2\n      mstore\n        /* \"\\xe5\\xae\\x9a\\xe6\\x81\\xaf\\xe7\\x9f\\xbf\\xe6\\xb1\\xa0-\\xe8\\xbf\\x9b\\xe9\\x98\\xb6.sol\":1420:1430  msg.sender */\n      caller\n        /* \"\\xe5\\xae\\x9a\\xe6\\x81\\xaf\\xe7\\x9f\\xbf\\xe6\\xb1\\xa0-\\xe8\\xbf\\x9b\\xe9\\x98\\xb6.sol\":1391:1431  IERC20(staketoken).balanceOf(msg.sender) */\n      0x04\n      dup3\n      add\n        /* \"#utility.yul\":345:396   */\n      mstore\n        /* \"\\xe5\\xae\\x9a\\xe6\\x81\\xaf\\xe7\\x9f\\xbf\\xe6\\xb1\\xa0-\\xe8\\xbf\\x9b\\xe9\\x98\\xb6.sol\":1302:1306  bool */\n      0x00\n      swap2\n        /* \"\\xe5\\xae\\x9a\\xe6\\x81\\xaf\\xe7\\x9f\\xbf\\xe6\\xb1\\xa0-\\xe8\\xbf\\x9b\\xe9\\x98\\xb6.sol\":1434:1441  _amount */\n      dup4\n      swap2\n      sub(shl(0xa0, 0x01), 0x01)\n        /* \"\\xe5\\xae\\x9a\\xe6\\x81\\xaf\\xe7\\x9f\\xbf\\xe6\\xb1\\xa0-\\xe8\\xbf\\x9b\\xe9\\x98\\xb6.sol\":1398:1408  staketoken */\n      swap1\n      swap2\n      and\n      swap1\n        /* \"\\xe5\\xae\\x9a\\xe6\\x81\\xaf\\xe7\\x9f\\xbf\\xe6\\xb1\\xa0-\\xe8\\xbf\\x9b\\xe9\\x98\\xb6.sol\":1391:1419  IERC20(staketoken).balanceOf */\n      0x70a08231\n      swap1\n        /* \"#utility.yul\":318:336   */\n      0x24\n      add\n        /* \"\\xe5\\xae\\x9a\\xe6\\x81\\xaf\\xe7\\x9f\\xbf\\xe6\\xb1\\xa0-\\xe8\\xbf\\x9b\\xe9\\x98\\xb6.sol\":1391:1431  IERC20(staketoken).balanceOf(msg.sender) */\n      0x20\n      mload(0x40)\n      dup1\n      dup4\n      sub\n      dup2\n      dup7\n      gas\n      staticcall\n      iszero\n      dup1\n      iszero\n      tag_48\n      jumpi\n      returndatasize\n      0x00\n      dup1\n      returndatacopy\n      revert(0x00, returndatasize)\n    tag_48:\n      pop\n      pop\n      pop\n      pop\n      mload(0x40)\n      returndatasize\n      not(0x1f)\n      0x1f\n      dup3\n      add\n      and\n      dup3\n      add\n      dup1\n      0x40\n      mstore\n      pop\n      dup2\n      add\n      swap1\n      tag_49\n      swap2\n      swap1\n      tag_50\n      jump\t// in\n    tag_49:\n        /* \"\\xe5\\xae\\x9a\\xe6\\x81\\xaf\\xe7\\x9f\\xbf\\xe6\\xb1\\xa0-\\xe8\\xbf\\x9b\\xe9\\x98\\xb6.sol\":1391:1441  IERC20(staketoken).balanceOf(msg.sender) > _amount */\n      gt\n        /* \"\\xe5\\xae\\x9a\\xe6\\x81\\xaf\\xe7\\x9f\\xbf\\xe6\\xb1\\xa0-\\xe8\\xbf\\x9b\\xe9\\x98\\xb6.sol\":1383:1466  require(IERC20(staketoken).balanceOf(msg.sender) > _amount, \"Balance Insufficient\") */\n      tag_51\n      jumpi\n      mload(0x40)\n      shl(0xe5, 0x461bcd)\n      dup2\n      mstore\n        /* \"#utility.yul\":1931:1933   */\n      0x20\n        /* \"\\xe5\\xae\\x9a\\xe6\\x81\\xaf\\xe7\\x9f\\xbf\\xe6\\xb1\\xa0-\\xe8\\xbf\\x9b\\xe9\\x98\\xb6.sol\":1383:1466  require(IERC20(staketoken).balanceOf(msg.sender) > _amount, \"Balance Insufficient\") */\n      0x04\n      dup3\n      add\n        /* \"#utility.yul\":1913:1934   */\n      mstore\n        /* \"#utility.yul\":1970:1972   */\n      0x14\n        /* \"#utility.yul\":1950:1968   */\n      0x24\n      dup3\n      add\n        /* \"#utility.yul\":1943:1973   */\n      mstore\n      shl(0x62, 0x10985b185b98d948125b9cdd59999a58da595b9d)\n        /* \"#utility.yul\":1989:2007   */\n      0x44\n      dup3\n      add\n        /* \"#utility.yul\":1982:2032   */\n      mstore\n        /* \"#utility.yul\":2049:2067   */\n      0x64\n      add\n        /* \"\\xe5\\xae\\x9a\\xe6\\x81\\xaf\\xe7\\x9f\\xbf\\xe6\\xb1\\xa0-\\xe8\\xbf\\x9b\\xe9\\x98\\xb6.sol\":1383:1466  require(IERC20(staketoken).balanceOf(msg.sender) > _amount, \"Balance Insufficient\") */\n      mload(0x40)\n      dup1\n      swap2\n      sub\n      swap1\n      revert\n    tag_51:\n        /* \"\\xe5\\xae\\x9a\\xe6\\x81\\xaf\\xe7\\x9f\\xbf\\xe6\\xb1\\xa0-\\xe8\\xbf\\x9b\\xe9\\x98\\xb6.sol\":1484:1494  staketoken */\n      sload(0x01)\n        /* \"\\xe5\\xae\\x9a\\xe6\\x81\\xaf\\xe7\\x9f\\xbf\\xe6\\xb1\\xa0-\\xe8\\xbf\\x9b\\xe9\\x98\\xb6.sol\":1477:1544  IERC20(staketoken).transferFrom(msg.sender, address(this), _amount) */\n      mload(0x40)\n      shl(0xe0, 0x23b872dd)\n      dup2\n      mstore\n        /* \"\\xe5\\xae\\x9a\\xe6\\x81\\xaf\\xe7\\x9f\\xbf\\xe6\\xb1\\xa0-\\xe8\\xbf\\x9b\\xe9\\x98\\xb6.sol\":1509:1519  msg.sender */\n      caller\n        /* \"\\xe5\\xae\\x9a\\xe6\\x81\\xaf\\xe7\\x9f\\xbf\\xe6\\xb1\\xa0-\\xe8\\xbf\\x9b\\xe9\\x98\\xb6.sol\":1477:1544  IERC20(staketoken).transferFrom(msg.sender, address(this), _amount) */\n      0x04\n      dup3\n      add\n        /* \"#utility.yul\":2318:2352   */\n      mstore\n        /* \"\\xe5\\xae\\x9a\\xe6\\x81\\xaf\\xe7\\x9f\\xbf\\xe6\\xb1\\xa0-\\xe8\\xbf\\x9b\\xe9\\x98\\xb6.sol\":1529:1533  this */\n      address\n        /* \"#utility.yul\":2368:2386   */\n      0x24\n      dup3\n      add\n        /* \"#utility.yul\":2361:2404   */\n      mstore\n        /* \"#utility.yul\":2420:2438   */\n      0x44\n      dup2\n      add\n        /* \"#utility.yul\":2413:2447   */\n      dup5\n      swap1\n      mstore\n      sub(shl(0xa0, 0x01), 0x01)\n        /* \"\\xe5\\xae\\x9a\\xe6\\x81\\xaf\\xe7\\x9f\\xbf\\xe6\\xb1\\xa0-\\xe8\\xbf\\x9b\\xe9\\x98\\xb6.sol\":1484:1494  staketoken */\n      swap1\n      swap2\n      and\n      swap1\n        /* \"\\xe5\\xae\\x9a\\xe6\\x81\\xaf\\xe7\\x9f\\xbf\\xe6\\xb1\\xa0-\\xe8\\xbf\\x9b\\xe9\\x98\\xb6.sol\":1477:1508  IERC20(staketoken).transferFrom */\n      0x23b872dd\n      swap1\n        /* \"#utility.yul\":2253:2271   */\n      0x64\n      add\n        /* \"\\xe5\\xae\\x9a\\xe6\\x81\\xaf\\xe7\\x9f\\xbf\\xe6\\xb1\\xa0-\\xe8\\xbf\\x9b\\xe9\\x98\\xb6.sol\":1477:1544  IERC20(staketoken).transferFrom(msg.sender, address(this), _amount) */\n      0x20\n      mload(0x40)\n      dup1\n      dup4\n      sub\n      dup2\n      0x00\n      dup8\n      gas\n      call\n      iszero\n      dup1\n      iszero\n      tag_57\n      jumpi\n      returndatasize\n      0x00\n      dup1\n      returndatacopy\n      revert(0x00, returndatasize)\n    tag_57:\n      pop\n      pop\n      pop\n      pop\n      mload(0x40)\n      returndatasize\n      not(0x1f)\n      0x1f\n      dup3\n      add\n      and\n      dup3\n      add\n      dup1\n      0x40\n      mstore\n      pop\n      dup2\n      add\n      swap1\n      tag_58\n      swap2\n      swap1\n      tag_59\n      jump\t// in\n    tag_58:\n      pop\n        /* \"\\xe5\\xae\\x9a\\xe6\\x81\\xaf\\xe7\\x9f\\xbf\\xe6\\xb1\\xa0-\\xe8\\xbf\\x9b\\xe9\\x98\\xb6.sol\":1564:1574  msg.sender */\n      caller\n        /* \"\\xe5\\xae\\x9a\\xe6\\x81\\xaf\\xe7\\x9f\\xbf\\xe6\\xb1\\xa0-\\xe8\\xbf\\x9b\\xe9\\x98\\xb6.sol\":1555:1575  User_Map[msg.sender] */\n      0x00\n      swap1\n      dup2\n      mstore\n        /* \"\\xe5\\xae\\x9a\\xe6\\x81\\xaf\\xe7\\x9f\\xbf\\xe6\\xb1\\xa0-\\xe8\\xbf\\x9b\\xe9\\x98\\xb6.sol\":1555:1563  User_Map */\n      0x05\n        /* \"\\xe5\\xae\\x9a\\xe6\\x81\\xaf\\xe7\\x9f\\xbf\\xe6\\xb1\\xa0-\\xe8\\xbf\\x9b\\xe9\\x98\\xb6.sol\":1555:1575  User_Map[msg.sender] */\n      0x20\n      mstore\n      0x40\n      dup2\n      keccak256\n        /* \"\\xe5\\xae\\x9a\\xe6\\x81\\xaf\\xe7\\x9f\\xbf\\xe6\\xb1\\xa0-\\xe8\\xbf\\x9b\\xe9\\x98\\xb6.sol\":1555:1598  User_Map[msg.sender].stakeNumber += _amount */\n      dup1\n      sload\n        /* \"\\xe5\\xae\\x9a\\xe6\\x81\\xaf\\xe7\\x9f\\xbf\\xe6\\xb1\\xa0-\\xe8\\xbf\\x9b\\xe9\\x98\\xb6.sol\":1591:1598  _amount */\n      dup5\n      swap3\n        /* \"\\xe5\\xae\\x9a\\xe6\\x81\\xaf\\xe7\\x9f\\xbf\\xe6\\xb1\\xa0-\\xe8\\xbf\\x9b\\xe9\\x98\\xb6.sol\":1555:1575  User_Map[msg.sender] */\n      swap1\n        /* \"\\xe5\\xae\\x9a\\xe6\\x81\\xaf\\xe7\\x9f\\xbf\\xe6\\xb1\\xa0-\\xe8\\xbf\\x9b\\xe9\\x98\\xb6.sol\":1555:1598  User_Map[msg.sender].stakeNumber += _amount */\n      tag_60\n      swap1\n        /* \"\\xe5\\xae\\x9a\\xe6\\x81\\xaf\\xe7\\x9f\\xbf\\xe6\\xb1\\xa0-\\xe8\\xbf\\x9b\\xe9\\x98\\xb6.sol\":1591:1598  _amount */\n      dup5\n      swap1\n        /* \"\\xe5\\xae\\x9a\\xe6\\x81\\xaf\\xe7\\x9f\\xbf\\xe6\\xb1\\xa0-\\xe8\\xbf\\x9b\\xe9\\x98\\xb6.sol\":1555:1598  User_Map[msg.sender].stakeNumber += _amount */\n      tag_61\n      jump\t// in\n    tag_60:\n      swap1\n      swap2\n      sstore\n      pop\n      pop\n        /* \"\\xe5\\xae\\x9a\\xe6\\x81\\xaf\\xe7\\x9f\\xbf\\xe6\\xb1\\xa0-\\xe8\\xbf\\x9b\\xe9\\x98\\xb6.sol\":1618:1628  msg.sender */\n      caller\n        /* \"\\xe5\\xae\\x9a\\xe6\\x81\\xaf\\xe7\\x9f\\xbf\\xe6\\xb1\\xa0-\\xe8\\xbf\\x9b\\xe9\\x98\\xb6.sol\":1609:1629  User_Map[msg.sender] */\n      0x00\n      swap1\n      dup2\n      mstore\n        /* \"\\xe5\\xae\\x9a\\xe6\\x81\\xaf\\xe7\\x9f\\xbf\\xe6\\xb1\\xa0-\\xe8\\xbf\\x9b\\xe9\\x98\\xb6.sol\":1609:1617  User_Map */\n      0x05\n        /* \"\\xe5\\xae\\x9a\\xe6\\x81\\xaf\\xe7\\x9f\\xbf\\xe6\\xb1\\xa0-\\xe8\\xbf\\x9b\\xe9\\x98\\xb6.sol\":1609:1629  User_Map[msg.sender] */\n      0x20\n      mstore\n      0x40\n      swap1\n      keccak256\n        /* \"\\xe5\\xae\\x9a\\xe6\\x81\\xaf\\xe7\\x9f\\xbf\\xe6\\xb1\\xa0-\\xe8\\xbf\\x9b\\xe9\\x98\\xb6.sol\":1648:1663  block.timestamp */\n      timestamp\n        /* \"\\xe5\\xae\\x9a\\xe6\\x81\\xaf\\xe7\\x9f\\xbf\\xe6\\xb1\\xa0-\\xe8\\xbf\\x9b\\xe9\\x98\\xb6.sol\":1609:1645  User_Map[msg.sender].last_Stake_Time */\n      0x01\n      swap2\n      dup3\n      add\n        /* \"\\xe5\\xae\\x9a\\xe6\\x81\\xaf\\xe7\\x9f\\xbf\\xe6\\xb1\\xa0-\\xe8\\xbf\\x9b\\xe9\\x98\\xb6.sol\":1609:1663  User_Map[msg.sender].last_Stake_Time = block.timestamp */\n      sstore\n        /* \"\\xe5\\xae\\x9a\\xe6\\x81\\xaf\\xe7\\x9f\\xbf\\xe6\\xb1\\xa0-\\xe8\\xbf\\x9b\\xe9\\x98\\xb6.sol\":1609:1645  User_Map[msg.sender].last_Stake_Time */\n      swap3\n        /* \"\\xe5\\xae\\x9a\\xe6\\x81\\xaf\\xe7\\x9f\\xbf\\xe6\\xb1\\xa0-\\xe8\\xbf\\x9b\\xe9\\x98\\xb6.sol\":1255:1701  function deposit(uint _amount) public returns (bool) {... */\n      swap2\n      pop\n      pop\n      jump\t// out\n        /* \"#utility.yul\":14:194   */\n    tag_14:\n        /* \"#utility.yul\":73:79   */\n      0x00\n        /* \"#utility.yul\":126:128   */\n      0x20\n        /* \"#utility.yul\":114:123   */\n      dup3\n        /* \"#utility.yul\":105:112   */\n      dup5\n        /* \"#utility.yul\":101:124   */\n      sub\n        /* \"#utility.yul\":97:129   */\n      slt\n        /* \"#utility.yul\":94:146   */\n      iszero\n      tag_64\n      jumpi\n        /* \"#utility.yul\":142:143   */\n      0x00\n        /* \"#utility.yul\":139:140   */\n      dup1\n        /* \"#utility.yul\":132:144   */\n      revert\n        /* \"#utility.yul\":94:146   */\n    tag_64:\n      pop\n        /* \"#utility.yul\":165:188   */\n      calldataload\n      swap2\n        /* \"#utility.yul\":14:194   */\n      swap1\n      pop\n      jump\t// out\n        /* \"#utility.yul\":589:875   */\n    tag_26:\n        /* \"#utility.yul\":648:654   */\n      0x00\n        /* \"#utility.yul\":701:703   */\n      0x20\n        /* \"#utility.yul\":689:698   */\n      dup3\n        /* \"#utility.yul\":680:687   */\n      dup5\n        /* \"#utility.yul\":676:699   */\n      sub\n        /* \"#utility.yul\":672:704   */\n      slt\n        /* \"#utility.yul\":669:721   */\n      iszero\n      tag_68\n      jumpi\n        /* \"#utility.yul\":717:718   */\n      0x00\n        /* \"#utility.yul\":714:715   */\n      dup1\n        /* \"#utility.yul\":707:719   */\n      revert\n        /* \"#utility.yul\":669:721   */\n    tag_68:\n        /* \"#utility.yul\":743:766   */\n      dup2\n      calldataload\n      sub(shl(0xa0, 0x01), 0x01)\n        /* \"#utility.yul\":795:826   */\n      dup2\n      and\n        /* \"#utility.yul\":785:827   */\n      dup2\n      eq\n        /* \"#utility.yul\":775:845   */\n      tag_69\n      jumpi\n        /* \"#utility.yul\":841:842   */\n      0x00\n        /* \"#utility.yul\":838:839   */\n      dup1\n        /* \"#utility.yul\":831:843   */\n      revert\n        /* \"#utility.yul\":775:845   */\n    tag_69:\n        /* \"#utility.yul\":864:869   */\n      swap4\n        /* \"#utility.yul\":589:875   */\n      swap3\n      pop\n      pop\n      pop\n      jump\t// out\n        /* \"#utility.yul\":1540:1724   */\n    tag_50:\n        /* \"#utility.yul\":1610:1616   */\n      0x00\n        /* \"#utility.yul\":1663:1665   */\n      0x20\n        /* \"#utility.yul\":1651:1660   */\n      dup3\n        /* \"#utility.yul\":1642:1649   */\n      dup5\n        /* \"#utility.yul\":1638:1661   */\n      sub\n        /* \"#utility.yul\":1634:1666   */\n      slt\n        /* \"#utility.yul\":1631:1683   */\n      iszero\n      tag_73\n      jumpi\n        /* \"#utility.yul\":1679:1680   */\n      0x00\n        /* \"#utility.yul\":1676:1677   */\n      dup1\n        /* \"#utility.yul\":1669:1681   */\n      revert\n        /* \"#utility.yul\":1631:1683   */\n    tag_73:\n      pop\n        /* \"#utility.yul\":1702:1718   */\n      mload\n      swap2\n        /* \"#utility.yul\":1540:1724   */\n      swap1\n      pop\n      jump\t// out\n        /* \"#utility.yul\":2458:2735   */\n    tag_59:\n        /* \"#utility.yul\":2525:2531   */\n      0x00\n        /* \"#utility.yul\":2578:2580   */\n      0x20\n        /* \"#utility.yul\":2566:2575   */\n      dup3\n        /* \"#utility.yul\":2557:2564   */\n      dup5\n        /* \"#utility.yul\":2553:2576   */\n      sub\n        /* \"#utility.yul\":2549:2581   */\n      slt\n        /* \"#utility.yul\":2546:2598   */\n      iszero\n      tag_77\n      jumpi\n        /* \"#utility.yul\":2594:2595   */\n      0x00\n        /* \"#utility.yul\":2591:2592   */\n      dup1\n        /* \"#utility.yul\":2584:2596   */\n      revert\n        /* \"#utility.yul\":2546:2598   */\n    tag_77:\n        /* \"#utility.yul\":2626:2635   */\n      dup2\n        /* \"#utility.yul\":2620:2636   */\n      mload\n        /* \"#utility.yul\":2679:2684   */\n      dup1\n        /* \"#utility.yul\":2672:2685   */\n      iszero\n        /* \"#utility.yul\":2665:2686   */\n      iszero\n        /* \"#utility.yul\":2658:2663   */\n      dup2\n        /* \"#utility.yul\":2655:2687   */\n      eq\n        /* \"#utility.yul\":2645:2705   */\n      tag_69\n      jumpi\n        /* \"#utility.yul\":2701:2702   */\n      0x00\n        /* \"#utility.yul\":2698:2699   */\n      dup1\n        /* \"#utility.yul\":2691:2703   */\n      revert\n        /* \"#utility.yul\":2740:2965   */\n    tag_61:\n        /* \"#utility.yul\":2780:2783   */\n      0x00\n        /* \"#utility.yul\":2811:2812   */\n      dup3\n        /* \"#utility.yul\":2807:2813   */\n      not\n        /* \"#utility.yul\":2804:2805   */\n      dup3\n        /* \"#utility.yul\":2801:2814   */\n      gt\n        /* \"#utility.yul\":2798:2934   */\n      iszero\n      tag_80\n      jumpi\n        /* \"#utility.yul\":2856:2866   */\n      0x4e487b71\n        /* \"#utility.yul\":2851:2854   */\n      0xe0\n        /* \"#utility.yul\":2847:2867   */\n      shl\n        /* \"#utility.yul\":2844:2845   */\n      0x00\n        /* \"#utility.yul\":2837:2868   */\n      mstore\n        /* \"#utility.yul\":2891:2895   */\n      0x11\n        /* \"#utility.yul\":2888:2889   */\n      0x04\n        /* \"#utility.yul\":2881:2896   */\n      mstore\n        /* \"#utility.yul\":2919:2923   */\n      0x24\n        /* \"#utility.yul\":2916:2917   */\n      0x00\n        /* \"#utility.yul\":2909:2924   */\n      revert\n        /* \"#utility.yul\":2798:2934   */\n    tag_80:\n      pop\n        /* \"#utility.yul\":2950:2959   */\n      add\n      swap1\n        /* \"#utility.yul\":2740:2965   */\n      jump\t// out\n\n    auxdata: 0xa264697066735822122038ac9f173768fb67279a1edfb6088d691b0855980406baec1d64fbd86abc599e64736f6c634300080f0033\n}\n",
				"bytecode": {
					"linkReferences": {},
					"object": "608060405234801561001057600080fd5b506040516104f13803806104f183398101604081905261002f916100bd565b600480546001600160a01b031916331790556001600160a01b03811661008e5760405162461bcd60e51b815260206004820152601060248201526f4e4f542c53203058204144445245535360801b604482015260640160405180910390fd5b600180546001600160a01b039092166001600160a01b03199283168117909155600280549092161790556100ed565b6000602082840312156100cf57600080fd5b81516001600160a01b03811681146100e657600080fd5b9392505050565b6103f5806100fc6000396000f3fe608060405234801561001057600080fd5b50600436106100885760003560e01c80638da5cb5b1161005b5780638da5cb5b1461014e578063b6b55f2514610161578063dab2997b14610184578063e82219171461019757600080fd5b80631afaa6e81461008d5780636dff132e146100a257806371ca337d146100d25780638c93ecff146100e9575b600080fd5b6100a061009b366004610315565b600055565b005b6002546100b5906001600160a01b031681565b6040516001600160a01b0390911681526020015b60405180910390f35b6100db60005481565b6040519081526020016100c9565b6101266100f736600461032e565b600560205260009081526040902080546001820154600283015460038401546004909401549293919290919085565b604080519586526020860194909452928401919091526060830152608082015260a0016100c9565b6004546100b5906001600160a01b031681565b61017461016f366004610315565b6101a0565b60405190151581526020016100c9565b6001546100b5906001600160a01b031681565b6100db60035481565b6001546040516370a0823160e01b815233600482015260009183916001600160a01b03909116906370a0823190602401602060405180830381865afa1580156101ed573d6000803e3d6000fd5b505050506040513d601f19601f82011682018060405250810190610211919061035e565b116102595760405162461bcd60e51b815260206004820152601460248201527310985b185b98d948125b9cdd59999a58da595b9d60621b604482015260640160405180910390fd5b6001546040516323b872dd60e01b8152336004820152306024820152604481018490526001600160a01b03909116906323b872dd906064016020604051808303816000875af11580156102b0573d6000803e3d6000fd5b505050506040513d601f19601f820116820180604052508101906102d49190610377565b5033600090815260056020526040812080548492906102f4908490610399565b90915550503360009081526005602052604090204260019182015592915050565b60006020828403121561032757600080fd5b5035919050565b60006020828403121561034057600080fd5b81356001600160a01b038116811461035757600080fd5b9392505050565b60006020828403121561037057600080fd5b5051919050565b60006020828403121561038957600080fd5b8151801515811461035757600080fd5b600082198211156103ba57634e487b7160e01b600052601160045260246000fd5b50019056fea264697066735822122038ac9f173768fb67279a1edfb6088d691b0855980406baec1d64fbd86abc599e64736f6c634300080f0033",
					"opcodes": "PUSH1 0x80 PUSH1 0x40 MSTORE CALLVALUE DUP1 ISZERO PUSH2 0x10 JUMPI PUSH1 0x0 DUP1 REVERT JUMPDEST POP PUSH1 0x40 MLOAD PUSH2 0x4F1 CODESIZE SUB DUP1 PUSH2 0x4F1 DUP4 CODECOPY DUP2 ADD PUSH1 0x40 DUP2 SWAP1 MSTORE PUSH2 0x2F SWAP2 PUSH2 0xBD JUMP JUMPDEST PUSH1 0x4 DUP1 SLOAD PUSH1 0x1 PUSH1 0x1 PUSH1 0xA0 SHL SUB NOT AND CALLER OR SWAP1 SSTORE PUSH1 0x1 PUSH1 0x1 PUSH1 0xA0 SHL SUB DUP2 AND PUSH2 0x8E JUMPI PUSH1 0x40 MLOAD PUSH3 0x461BCD PUSH1 0xE5 SHL DUP2 MSTORE PUSH1 0x20 PUSH1 0x4 DUP3 ADD MSTORE PUSH1 0x10 PUSH1 0x24 DUP3 ADD MSTORE PUSH16 0x4E4F542C532030582041444452455353 PUSH1 0x80 SHL PUSH1 0x44 DUP3 ADD MSTORE PUSH1 0x64 ADD PUSH1 0x40 MLOAD DUP1 SWAP2 SUB SWAP1 REVERT JUMPDEST PUSH1 0x1 DUP1 SLOAD PUSH1 0x1 PUSH1 0x1 PUSH1 0xA0 SHL SUB SWAP1 SWAP3 AND PUSH1 0x1 PUSH1 0x1 PUSH1 0xA0 SHL SUB NOT SWAP3 DUP4 AND DUP2 OR SWAP1 SWAP2 SSTORE PUSH1 0x2 DUP1 SLOAD SWAP1 SWAP3 AND OR SWAP1 SSTORE PUSH2 0xED JUMP JUMPDEST PUSH1 0x0 PUSH1 0x20 DUP3 DUP5 SUB SLT ISZERO PUSH2 0xCF JUMPI PUSH1 0x0 DUP1 REVERT JUMPDEST DUP2 MLOAD PUSH1 0x1 PUSH1 0x1 PUSH1 0xA0 SHL SUB DUP2 AND DUP2 EQ PUSH2 0xE6 JUMPI PUSH1 0x0 DUP1 REVERT JUMPDEST SWAP4 SWAP3 POP POP POP JUMP JUMPDEST PUSH2 0x3F5 DUP1 PUSH2 0xFC PUSH1 0x0 CODECOPY PUSH1 0x0 RETURN INVALID PUSH1 0x80 PUSH1 0x40 MSTORE CALLVALUE DUP1 ISZERO PUSH2 0x10 JUMPI PUSH1 0x0 DUP1 REVERT JUMPDEST POP PUSH1 0x4 CALLDATASIZE LT PUSH2 0x88 JUMPI PUSH1 0x0 CALLDATALOAD PUSH1 0xE0 SHR DUP1 PUSH4 0x8DA5CB5B GT PUSH2 0x5B JUMPI DUP1 PUSH4 0x8DA5CB5B EQ PUSH2 0x14E JUMPI DUP1 PUSH4 0xB6B55F25 EQ PUSH2 0x161 JUMPI DUP1 PUSH4 0xDAB2997B EQ PUSH2 0x184 JUMPI DUP1 PUSH4 0xE8221917 EQ PUSH2 0x197 JUMPI PUSH1 0x0 DUP1 REVERT JUMPDEST DUP1 PUSH4 0x1AFAA6E8 EQ PUSH2 0x8D JUMPI DUP1 PUSH4 0x6DFF132E EQ PUSH2 0xA2 JUMPI DUP1 PUSH4 0x71CA337D EQ PUSH2 0xD2 JUMPI DUP1 PUSH4 0x8C93ECFF EQ PUSH2 0xE9 JUMPI JUMPDEST PUSH1 0x0 DUP1 REVERT JUMPDEST PUSH2 0xA0 PUSH2 0x9B CALLDATASIZE PUSH1 0x4 PUSH2 0x315 JUMP JUMPDEST PUSH1 0x0 SSTORE JUMP JUMPDEST STOP JUMPDEST PUSH1 0x2 SLOAD PUSH2 0xB5 SWAP1 PUSH1 0x1 PUSH1 0x1 PUSH1 0xA0 SHL SUB AND DUP2 JUMP JUMPDEST PUSH1 0x40 MLOAD PUSH1 0x1 PUSH1 0x1 PUSH1 0xA0 SHL SUB SWAP1 SWAP2 AND DUP2 MSTORE PUSH1 0x20 ADD JUMPDEST PUSH1 0x40 MLOAD DUP1 SWAP2 SUB SWAP1 RETURN JUMPDEST PUSH2 0xDB PUSH1 0x0 SLOAD DUP2 JUMP JUMPDEST PUSH1 0x40 MLOAD SWAP1 DUP2 MSTORE PUSH1 0x20 ADD PUSH2 0xC9 JUMP JUMPDEST PUSH2 0x126 PUSH2 0xF7 CALLDATASIZE PUSH1 0x4 PUSH2 0x32E JUMP JUMPDEST PUSH1 0x5 PUSH1 0x20 MSTORE PUSH1 0x0 SWAP1 DUP2 MSTORE PUSH1 0x40 SWAP1 KECCAK256 DUP1 SLOAD PUSH1 0x1 DUP3 ADD SLOAD PUSH1 0x2 DUP4 ADD SLOAD PUSH1 0x3 DUP5 ADD SLOAD PUSH1 0x4 SWAP1 SWAP5 ADD SLOAD SWAP3 SWAP4 SWAP2 SWAP3 SWAP1 SWAP2 SWAP1 DUP6 JUMP JUMPDEST PUSH1 0x40 DUP1 MLOAD SWAP6 DUP7 MSTORE PUSH1 0x20 DUP7 ADD SWAP5 SWAP1 SWAP5 MSTORE SWAP3 DUP5 ADD SWAP2 SWAP1 SWAP2 MSTORE PUSH1 0x60 DUP4 ADD MSTORE PUSH1 0x80 DUP3 ADD MSTORE PUSH1 0xA0 ADD PUSH2 0xC9 JUMP JUMPDEST PUSH1 0x4 SLOAD PUSH2 0xB5 SWAP1 PUSH1 0x1 PUSH1 0x1 PUSH1 0xA0 SHL SUB AND DUP2 JUMP JUMPDEST PUSH2 0x174 PUSH2 0x16F CALLDATASIZE PUSH1 0x4 PUSH2 0x315 JUMP JUMPDEST PUSH2 0x1A0 JUMP JUMPDEST PUSH1 0x40 MLOAD SWAP1 ISZERO ISZERO DUP2 MSTORE PUSH1 0x20 ADD PUSH2 0xC9 JUMP JUMPDEST PUSH1 0x1 SLOAD PUSH2 0xB5 SWAP1 PUSH1 0x1 PUSH1 0x1 PUSH1 0xA0 SHL SUB AND DUP2 JUMP JUMPDEST PUSH2 0xDB PUSH1 0x3 SLOAD DUP2 JUMP JUMPDEST PUSH1 0x1 SLOAD PUSH1 0x40 MLOAD PUSH4 0x70A08231 PUSH1 0xE0 SHL DUP2 MSTORE CALLER PUSH1 0x4 DUP3 ADD MSTORE PUSH1 0x0 SWAP2 DUP4 SWAP2 PUSH1 0x1 PUSH1 0x1 PUSH1 0xA0 SHL SUB SWAP1 SWAP2 AND SWAP1 PUSH4 0x70A08231 SWAP1 PUSH1 0x24 ADD PUSH1 0x20 PUSH1 0x40 MLOAD DUP1 DUP4 SUB DUP2 DUP7 GAS STATICCALL ISZERO DUP1 ISZERO PUSH2 0x1ED JUMPI RETURNDATASIZE PUSH1 0x0 DUP1 RETURNDATACOPY RETURNDATASIZE PUSH1 0x0 REVERT JUMPDEST POP POP POP POP PUSH1 0x40 MLOAD RETURNDATASIZE PUSH1 0x1F NOT PUSH1 0x1F DUP3 ADD AND DUP3 ADD DUP1 PUSH1 0x40 MSTORE POP DUP2 ADD SWAP1 PUSH2 0x211 SWAP2 SWAP1 PUSH2 0x35E JUMP JUMPDEST GT PUSH2 0x259 JUMPI PUSH1 0x40 MLOAD PUSH3 0x461BCD PUSH1 0xE5 SHL DUP2 MSTORE PUSH1 0x20 PUSH1 0x4 DUP3 ADD MSTORE PUSH1 0x14 PUSH1 0x24 DUP3 ADD MSTORE PUSH20 0x10985B185B98D948125B9CDD59999A58DA595B9D PUSH1 0x62 SHL PUSH1 0x44 DUP3 ADD MSTORE PUSH1 0x64 ADD PUSH1 0x40 MLOAD DUP1 SWAP2 SUB SWAP1 REVERT JUMPDEST PUSH1 0x1 SLOAD PUSH1 0x40 MLOAD PUSH4 0x23B872DD PUSH1 0xE0 SHL DUP2 MSTORE CALLER PUSH1 0x4 DUP3 ADD MSTORE ADDRESS PUSH1 0x24 DUP3 ADD MSTORE PUSH1 0x44 DUP2 ADD DUP5 SWAP1 MSTORE PUSH1 0x1 PUSH1 0x1 PUSH1 0xA0 SHL SUB SWAP1 SWAP2 AND SWAP1 PUSH4 0x23B872DD SWAP1 PUSH1 0x64 ADD PUSH1 0x20 PUSH1 0x40 MLOAD DUP1 DUP4 SUB DUP2 PUSH1 0x0 DUP8 GAS CALL ISZERO DUP1 ISZERO PUSH2 0x2B0 JUMPI RETURNDATASIZE PUSH1 0x0 DUP1 RETURNDATACOPY RETURNDATASIZE PUSH1 0x0 REVERT JUMPDEST POP POP POP POP PUSH1 0x40 MLOAD RETURNDATASIZE PUSH1 0x1F NOT PUSH1 0x1F DUP3 ADD AND DUP3 ADD DUP1 PUSH1 0x40 MSTORE POP DUP2 ADD SWAP1 PUSH2 0x2D4 SWAP2 SWAP1 PUSH2 0x377 JUMP JUMPDEST POP CALLER PUSH1 0x0 SWAP1 DUP2 MSTORE PUSH1 0x5 PUSH1 0x20 MSTORE PUSH1 0x40 DUP2 KECCAK256 DUP1 SLOAD DUP5 SWAP3 SWAP1 PUSH2 0x2F4 SWAP1 DUP5 SWAP1 PUSH2 0x399 JUMP JUMPDEST SWAP1 SWAP2 SSTORE POP POP CALLER PUSH1 0x0 SWAP1 DUP2 MSTORE PUSH1 0x5 PUSH1 0x20 MSTORE PUSH1 0x40 SWAP1 KECCAK256 TIMESTAMP PUSH1 0x1 SWAP2 DUP3 ADD SSTORE SWAP3 SWAP2 POP POP JUMP JUMPDEST PUSH1 0x0 PUSH1 0x20 DUP3 DUP5 SUB SLT ISZERO PUSH2 0x327 JUMPI PUSH1 0x0 DUP1 REVERT JUMPDEST POP CALLDATALOAD SWAP2 SWAP1 POP JUMP JUMPDEST PUSH1 0x0 PUSH1 0x20 DUP3 DUP5 SUB SLT ISZERO PUSH2 0x340 JUMPI PUSH1 0x0 DUP1 REVERT JUMPDEST DUP2 CALLDATALOAD PUSH1 0x1 PUSH1 0x1 PUSH1 0xA0 SHL SUB DUP2 AND DUP2 EQ PUSH2 0x357 JUMPI PUSH1 0x0 DUP1 REVERT JUMPDEST SWAP4 SWAP3 POP POP POP JUMP JUMPDEST PUSH1 0x0 PUSH1 0x20 DUP3 DUP5 SUB SLT ISZERO PUSH2 0x370 JUMPI PUSH1 0x0 DUP1 REVERT JUMPDEST POP MLOAD SWAP2 SWAP1 POP JUMP JUMPDEST PUSH1 0x0 PUSH1 0x20 DUP3 DUP5 SUB SLT ISZERO PUSH2 0x389 JUMPI PUSH1 0x0 DUP1 REVERT JUMPDEST DUP2 MLOAD DUP1 ISZERO ISZERO DUP2 EQ PUSH2 0x357 JUMPI PUSH1 0x0 DUP1 REVERT JUMPDEST PUSH1 0x0 DUP3 NOT DUP3 GT ISZERO PUSH2 0x3BA JUMPI PUSH4 0x4E487B71 PUSH1 0xE0 SHL PUSH1 0x0 MSTORE PUSH1 0x11 PUSH1 0x4 MSTORE PUSH1 0x24 PUSH1 0x0 REVERT JUMPDEST POP ADD SWAP1 JUMP INVALID LOG2 PUSH5 0x6970667358 0x22 SLT KECCAK256 CODESIZE 0xAC SWAP16 OR CALLDATACOPY PUSH9 0xFB67279A1EDFB6088D PUSH10 0x1B0855980406BAEC1D64 0xFB 0xD8 PUSH11 0xBC599E64736F6C63430008 0xF STOP CALLER "
				},
				"gasEstimates": {
					"creation": {
						"codeDepositCost": "202600",
						"executionCost": "infinite",
						"totalCost": "infinite"
					},
					"external": {
						"User_Map(address)": "11095",
						"deposit(uint256)": "infinite",
						"owner()": "2326",
						"ratio()": "2340",
						"rewardtoken()": "2349",
						"setratio(uint256)": "22313",
						"staketoken()": "2370",
						"staketotal()": "2361"
					}
				},
				"methodIdentifiers": {
					"User_Map(address)": "8c93ecff",
					"deposit(uint256)": "b6b55f25",
					"owner()": "8da5cb5b",
					"ratio()": "71ca337d",
					"rewardtoken()": "6dff132e",
					"setratio(uint256)": "1afaa6e8",
					"staketoken()": "dab2997b",
					"staketotal()": "e8221917"
				}
			},
			"storageLayout": {
				"storage": [
					{
						"astId": 799,
						"contract": "定息矿池-进阶.sol:StakeContract",
						"label": "ratio",
						"offset": 0,
						"slot": "0",
						"type": "t_uint256"
					},
					{
						"astId": 801,
						"contract": "定息矿池-进阶.sol:StakeContract",
						"label": "staketoken",
						"offset": 0,
						"slot": "1",
						"type": "t_address"
					},
					{
						"astId": 803,
						"contract": "定息矿池-进阶.sol:StakeContract",
						"label": "rewardtoken",
						"offset": 0,
						"slot": "2",
						"type": "t_address"
					},
					{
						"astId": 805,
						"contract": "定息矿池-进阶.sol:StakeContract",
						"label": "staketotal",
						"offset": 0,
						"slot": "3",
						"type": "t_uint256"
					},
					{
						"astId": 807,
						"contract": "定息矿池-进阶.sol:StakeContract",
						"label": "owner",
						"offset": 0,
						"slot": "4",
						"type": "t_address"
					},
					{
						"astId": 823,
						"contract": "定息矿池-进阶.sol:StakeContract",
						"label": "User_Map",
						"offset": 0,
						"slot": "5",
						"type": "t_mapping(t_address,t_struct(User)818_storage)"
					}
				],
				"types": {
					"t_address": {
						"encoding": "inplace",
						"label": "address",
						"numberOfBytes": "20"
					},
					"t_mapping(t_address,t_struct(User)818_storage)": {
						"encoding": "mapping",
						"key": "t_address",
						"label": "mapping(address => struct StakeContract.User)",
						"numberOfBytes": "32",
						"value": "t_struct(User)818_storage"
					},
					"t_struct(User)818_storage": {
						"encoding": "inplace",
						"label": "struct StakeContract.User",
						"members": [
							{
								"astId": 809,
								"contract": "定息矿池-进阶.sol:StakeContract",
								"label": "stakeNumber",
								"offset": 0,
								"slot": "0",
								"type": "t_uint256"
							},
							{
								"astId": 811,
								"contract": "定息矿池-进阶.sol:StakeContract",
								"label": "last_Stake_Time",
								"offset": 0,
								"slot": "1",
								"type": "t_uint256"
							},
							{
								"astId": 813,
								"contract": "定息矿池-进阶.sol:StakeContract",
								"label": "last_totoken_ratio",
								"offset": 0,
								"slot": "2",
								"type": "t_uint256"
							},
							{
								"astId": 815,
								"contract": "定息矿池-进阶.sol:StakeContract",
								"label": "whole_ratio",
								"offset": 0,
								"slot": "3",
								"type": "t_uint256"
							},
							{
								"astId": 817,
								"contract": "定息矿池-进阶.sol:StakeContract",
								"label": "last_totoken_Time",
								"offset": 0,
								"slot": "4",
								"type": "t_uint256"
							}
						],
						"numberOfBytes": "160"
					},
					"t_uint256": {
						"encoding": "inplace",
						"label": "uint256",
						"numberOfBytes": "32"
					}
				}
			},
			"userdoc": {
				"kind": "user",
				"methods": {},
				"version": 1
			}
		}
	}
}