{
	"自己写个矿池,定息矿池.sol": {
		"StakeContract": {
			"abi": [
				{
					"inputs": [
						{
							"internalType": "address",
							"name": "_staketoken",
							"type": "address"
						},
						{
							"internalType": "address",
							"name": "_totoken",
							"type": "address"
						}
					],
					"stateMutability": "nonpayable",
					"type": "constructor"
				},
				{
					"anonymous": false,
					"inputs": [
						{
							"indexed": true,
							"internalType": "address",
							"name": "owner",
							"type": "address"
						},
						{
							"indexed": true,
							"internalType": "address",
							"name": "spender",
							"type": "address"
						},
						{
							"indexed": false,
							"internalType": "uint256",
							"name": "amout",
							"type": "uint256"
						}
					],
					"name": "Approveal",
					"type": "event"
				},
				{
					"anonymous": false,
					"inputs": [
						{
							"indexed": true,
							"internalType": "address",
							"name": "from",
							"type": "address"
						},
						{
							"indexed": true,
							"internalType": "address",
							"name": "to",
							"type": "address"
						},
						{
							"indexed": false,
							"internalType": "uint256",
							"name": "amout",
							"type": "uint256"
						}
					],
					"name": "Trasfer",
					"type": "event"
				},
				{
					"anonymous": false,
					"inputs": [
						{
							"indexed": true,
							"internalType": "address",
							"name": "to",
							"type": "address"
						},
						{
							"indexed": false,
							"internalType": "uint256",
							"name": "amout",
							"type": "uint256"
						}
					],
					"name": "transfer",
					"type": "event"
				},
				{
					"inputs": [
						{
							"internalType": "uint256",
							"name": "_amount",
							"type": "uint256"
						}
					],
					"name": "Stake",
					"outputs": [
						{
							"internalType": "bool",
							"name": "",
							"type": "bool"
						}
					],
					"stateMutability": "nonpayable",
					"type": "function"
				},
				{
					"inputs": [
						{
							"internalType": "address",
							"name": "",
							"type": "address"
						}
					],
					"name": "User_Map",
					"outputs": [
						{
							"internalType": "uint256",
							"name": "stakeNumber",
							"type": "uint256"
						},
						{
							"internalType": "uint256",
							"name": "last_Stake_Time",
							"type": "uint256"
						},
						{
							"internalType": "uint256",
							"name": "last_totoken_ratio",
							"type": "uint256"
						},
						{
							"internalType": "uint256",
							"name": "whole_ratio",
							"type": "uint256"
						},
						{
							"internalType": "uint256",
							"name": "last_totoken_Time",
							"type": "uint256"
						},
						{
							"internalType": "uint256",
							"name": "Clima_Number",
							"type": "uint256"
						}
					],
					"stateMutability": "view",
					"type": "function"
				},
				{
					"inputs": [],
					"name": "harvest",
					"outputs": [
						{
							"internalType": "bool",
							"name": "",
							"type": "bool"
						}
					],
					"stateMutability": "nonpayable",
					"type": "function"
				},
				{
					"inputs": [],
					"name": "harvestwithDraw",
					"outputs": [
						{
							"internalType": "bool",
							"name": "",
							"type": "bool"
						}
					],
					"stateMutability": "nonpayable",
					"type": "function"
				},
				{
					"inputs": [],
					"name": "lastTotokenRatio",
					"outputs": [
						{
							"internalType": "uint256",
							"name": "",
							"type": "uint256"
						}
					],
					"stateMutability": "view",
					"type": "function"
				},
				{
					"inputs": [],
					"name": "newTotokenRatio",
					"outputs": [
						{
							"internalType": "uint256",
							"name": "",
							"type": "uint256"
						}
					],
					"stateMutability": "view",
					"type": "function"
				},
				{
					"inputs": [],
					"name": "owner",
					"outputs": [
						{
							"internalType": "address",
							"name": "",
							"type": "address"
						}
					],
					"stateMutability": "view",
					"type": "function"
				},
				{
					"inputs": [],
					"name": "ratio",
					"outputs": [
						{
							"internalType": "uint256",
							"name": "",
							"type": "uint256"
						}
					],
					"stateMutability": "view",
					"type": "function"
				},
				{
					"inputs": [
						{
							"internalType": "uint256",
							"name": "_ratio",
							"type": "uint256"
						}
					],
					"name": "setRatio",
					"outputs": [],
					"stateMutability": "nonpayable",
					"type": "function"
				},
				{
					"inputs": [],
					"name": "stakeSupple",
					"outputs": [
						{
							"internalType": "uint256",
							"name": "",
							"type": "uint256"
						}
					],
					"stateMutability": "view",
					"type": "function"
				},
				{
					"inputs": [],
					"name": "staketoken",
					"outputs": [
						{
							"internalType": "address",
							"name": "",
							"type": "address"
						}
					],
					"stateMutability": "view",
					"type": "function"
				},
				{
					"inputs": [],
					"name": "totoken",
					"outputs": [
						{
							"internalType": "address",
							"name": "",
							"type": "address"
						}
					],
					"stateMutability": "view",
					"type": "function"
				},
				{
					"inputs": [],
					"name": "withDraw",
					"outputs": [
						{
							"internalType": "bool",
							"name": "",
							"type": "bool"
						}
					],
					"stateMutability": "nonpayable",
					"type": "function"
				}
			],
			"devdoc": {
				"kind": "dev",
				"methods": {},
				"version": 1
			},
			"evm": {
				"assembly": "    /* \"\\xe8\\x87\\xaa\\xe5\\xb7\\xb1\\xe5\\x86\\x99\\xe4\\xb8\\xaa\\xe7\\x9f\\xbf\\xe6\\xb1\\xa0,\\xe5\\xae\\x9a\\xe6\\x81\\xaf\\xe7\\x9f\\xbf\\xe6\\xb1\\xa0.sol\":732:5409  contract StakeContract {... */\n  mstore(0x40, 0x80)\n    /* \"\\xe8\\x87\\xaa\\xe5\\xb7\\xb1\\xe5\\x86\\x99\\xe4\\xb8\\xaa\\xe7\\x9f\\xbf\\xe6\\xb1\\xa0,\\xe5\\xae\\x9a\\xe6\\x81\\xaf\\xe7\\x9f\\xbf\\xe6\\xb1\\xa0.sol\":1411:1749  constructor (address _staketoken, address _totoken) {... */\n  callvalue\n  dup1\n  iszero\n  tag_1\n  jumpi\n  0x00\n  dup1\n  revert\ntag_1:\n  pop\n  mload(0x40)\n  sub(codesize, bytecodeSize)\n  dup1\n  bytecodeSize\n  dup4\n  codecopy\n  dup2\n  add\n  0x40\n  dup2\n  swap1\n  mstore\n  tag_2\n  swap2\n  tag_3\n  jump\t// in\ntag_2:\n    /* \"\\xe8\\x87\\xaa\\xe5\\xb7\\xb1\\xe5\\x86\\x99\\xe4\\xb8\\xaa\\xe7\\x9f\\xbf\\xe6\\xb1\\xa0,\\xe5\\xae\\x9a\\xe6\\x81\\xaf\\xe7\\x9f\\xbf\\xe6\\xb1\\xa0.sol\":1474:1479  owner */\n  0x04\n    /* \"\\xe8\\x87\\xaa\\xe5\\xb7\\xb1\\xe5\\x86\\x99\\xe4\\xb8\\xaa\\xe7\\x9f\\xbf\\xe6\\xb1\\xa0,\\xe5\\xae\\x9a\\xe6\\x81\\xaf\\xe7\\x9f\\xbf\\xe6\\xb1\\xa0.sol\":1474:1492  owner = msg.sender */\n  dup1\n  sload\n  not(sub(shl(0xa0, 0x01), 0x01))\n  and\n    /* \"\\xe8\\x87\\xaa\\xe5\\xb7\\xb1\\xe5\\x86\\x99\\xe4\\xb8\\xaa\\xe7\\x9f\\xbf\\xe6\\xb1\\xa0,\\xe5\\xae\\x9a\\xe6\\x81\\xaf\\xe7\\x9f\\xbf\\xe6\\xb1\\xa0.sol\":1482:1492  msg.sender */\n  caller\n    /* \"\\xe8\\x87\\xaa\\xe5\\xb7\\xb1\\xe5\\x86\\x99\\xe4\\xb8\\xaa\\xe7\\x9f\\xbf\\xe6\\xb1\\xa0,\\xe5\\xae\\x9a\\xe6\\x81\\xaf\\xe7\\x9f\\xbf\\xe6\\xb1\\xa0.sol\":1474:1492  owner = msg.sender */\n  or\n  swap1\n  sstore\n  sub(shl(0xa0, 0x01), 0x01)\n    /* \"\\xe8\\x87\\xaa\\xe5\\xb7\\xb1\\xe5\\x86\\x99\\xe4\\xb8\\xaa\\xe7\\x9f\\xbf\\xe6\\xb1\\xa0,\\xe5\\xae\\x9a\\xe6\\x81\\xaf\\xe7\\x9f\\xbf\\xe6\\xb1\\xa0.sol\":1511:1536  _staketoken != address(0) */\n  dup3\n  and\n    /* \"\\xe8\\x87\\xaa\\xe5\\xb7\\xb1\\xe5\\x86\\x99\\xe4\\xb8\\xaa\\xe7\\x9f\\xbf\\xe6\\xb1\\xa0,\\xe5\\xae\\x9a\\xe6\\x81\\xaf\\xe7\\x9f\\xbf\\xe6\\xb1\\xa0.sol\":1503:1556  require(_staketoken != address(0),\"NOT,S 0X ADDRESS\") */\n  tag_6\n  jumpi\n  mload(0x40)\n  shl(0xe5, 0x461bcd)\n  dup2\n  mstore\n    /* \"#utility.yul\":696:698   */\n  0x20\n    /* \"\\xe8\\x87\\xaa\\xe5\\xb7\\xb1\\xe5\\x86\\x99\\xe4\\xb8\\xaa\\xe7\\x9f\\xbf\\xe6\\xb1\\xa0,\\xe5\\xae\\x9a\\xe6\\x81\\xaf\\xe7\\x9f\\xbf\\xe6\\xb1\\xa0.sol\":1503:1556  require(_staketoken != address(0),\"NOT,S 0X ADDRESS\") */\n  0x04\n  dup3\n  add\n    /* \"#utility.yul\":678:699   */\n  mstore\n    /* \"#utility.yul\":735:737   */\n  0x10\n    /* \"#utility.yul\":715:733   */\n  0x24\n  dup3\n  add\n    /* \"#utility.yul\":708:738   */\n  mstore\n  shl(0x80, 0x4e4f542c532030582041444452455353)\n    /* \"#utility.yul\":754:772   */\n  0x44\n  dup3\n  add\n    /* \"#utility.yul\":747:793   */\n  mstore\n    /* \"#utility.yul\":810:828   */\n  0x64\n  add\n    /* \"\\xe8\\x87\\xaa\\xe5\\xb7\\xb1\\xe5\\x86\\x99\\xe4\\xb8\\xaa\\xe7\\x9f\\xbf\\xe6\\xb1\\xa0,\\xe5\\xae\\x9a\\xe6\\x81\\xaf\\xe7\\x9f\\xbf\\xe6\\xb1\\xa0.sol\":1503:1556  require(_staketoken != address(0),\"NOT,S 0X ADDRESS\") */\ntag_7:\n  mload(0x40)\n  dup1\n  swap2\n  sub\n  swap1\n  revert\ntag_6:\n  sub(shl(0xa0, 0x01), 0x01)\n    /* \"\\xe8\\x87\\xaa\\xe5\\xb7\\xb1\\xe5\\x86\\x99\\xe4\\xb8\\xaa\\xe7\\x9f\\xbf\\xe6\\xb1\\xa0,\\xe5\\xae\\x9a\\xe6\\x81\\xaf\\xe7\\x9f\\xbf\\xe6\\xb1\\xa0.sol\":1575:1597  _totoken != address(0) */\n  dup2\n  and\n    /* \"\\xe8\\x87\\xaa\\xe5\\xb7\\xb1\\xe5\\x86\\x99\\xe4\\xb8\\xaa\\xe7\\x9f\\xbf\\xe6\\xb1\\xa0,\\xe5\\xae\\x9a\\xe6\\x81\\xaf\\xe7\\x9f\\xbf\\xe6\\xb1\\xa0.sol\":1567:1617  require(_totoken != address(0),\"NOT,S 0X ADDRESS\") */\n  tag_9\n  jumpi\n  mload(0x40)\n  shl(0xe5, 0x461bcd)\n  dup2\n  mstore\n    /* \"#utility.yul\":696:698   */\n  0x20\n    /* \"\\xe8\\x87\\xaa\\xe5\\xb7\\xb1\\xe5\\x86\\x99\\xe4\\xb8\\xaa\\xe7\\x9f\\xbf\\xe6\\xb1\\xa0,\\xe5\\xae\\x9a\\xe6\\x81\\xaf\\xe7\\x9f\\xbf\\xe6\\xb1\\xa0.sol\":1567:1617  require(_totoken != address(0),\"NOT,S 0X ADDRESS\") */\n  0x04\n  dup3\n  add\n    /* \"#utility.yul\":678:699   */\n  mstore\n    /* \"#utility.yul\":735:737   */\n  0x10\n    /* \"#utility.yul\":715:733   */\n  0x24\n  dup3\n  add\n    /* \"#utility.yul\":708:738   */\n  mstore\n  shl(0x80, 0x4e4f542c532030582041444452455353)\n    /* \"#utility.yul\":754:772   */\n  0x44\n  dup3\n  add\n    /* \"#utility.yul\":747:793   */\n  mstore\n    /* \"#utility.yul\":810:828   */\n  0x64\n  add\n    /* \"\\xe8\\x87\\xaa\\xe5\\xb7\\xb1\\xe5\\x86\\x99\\xe4\\xb8\\xaa\\xe7\\x9f\\xbf\\xe6\\xb1\\xa0,\\xe5\\xae\\x9a\\xe6\\x81\\xaf\\xe7\\x9f\\xbf\\xe6\\xb1\\xa0.sol\":1567:1617  require(_totoken != address(0),\"NOT,S 0X ADDRESS\") */\n  tag_7\n    /* \"#utility.yul\":494:834   */\n  jump\n    /* \"\\xe8\\x87\\xaa\\xe5\\xb7\\xb1\\xe5\\x86\\x99\\xe4\\xb8\\xaa\\xe7\\x9f\\xbf\\xe6\\xb1\\xa0,\\xe5\\xae\\x9a\\xe6\\x81\\xaf\\xe7\\x9f\\xbf\\xe6\\xb1\\xa0.sol\":1567:1617  require(_totoken != address(0),\"NOT,S 0X ADDRESS\") */\ntag_9:\n    /* \"\\xe8\\x87\\xaa\\xe5\\xb7\\xb1\\xe5\\x86\\x99\\xe4\\xb8\\xaa\\xe7\\x9f\\xbf\\xe6\\xb1\\xa0,\\xe5\\xae\\x9a\\xe6\\x81\\xaf\\xe7\\x9f\\xbf\\xe6\\xb1\\xa0.sol\":1651:1659  _totoken */\n  dup1\n  sub(shl(0xa0, 0x01), 0x01)\n    /* \"\\xe8\\x87\\xaa\\xe5\\xb7\\xb1\\xe5\\x86\\x99\\xe4\\xb8\\xaa\\xe7\\x9f\\xbf\\xe6\\xb1\\xa0,\\xe5\\xae\\x9a\\xe6\\x81\\xaf\\xe7\\x9f\\xbf\\xe6\\xb1\\xa0.sol\":1636:1659  _staketoken == _totoken */\n  and\n    /* \"\\xe8\\x87\\xaa\\xe5\\xb7\\xb1\\xe5\\x86\\x99\\xe4\\xb8\\xaa\\xe7\\x9f\\xbf\\xe6\\xb1\\xa0,\\xe5\\xae\\x9a\\xe6\\x81\\xaf\\xe7\\x9f\\xbf\\xe6\\xb1\\xa0.sol\":1636:1647  _staketoken */\n  dup3\n  sub(shl(0xa0, 0x01), 0x01)\n    /* \"\\xe8\\x87\\xaa\\xe5\\xb7\\xb1\\xe5\\x86\\x99\\xe4\\xb8\\xaa\\xe7\\x9f\\xbf\\xe6\\xb1\\xa0,\\xe5\\xae\\x9a\\xe6\\x81\\xaf\\xe7\\x9f\\xbf\\xe6\\xb1\\xa0.sol\":1636:1659  _staketoken == _totoken */\n  and\n  eq\n    /* \"\\xe8\\x87\\xaa\\xe5\\xb7\\xb1\\xe5\\x86\\x99\\xe4\\xb8\\xaa\\xe7\\x9f\\xbf\\xe6\\xb1\\xa0,\\xe5\\xae\\x9a\\xe6\\x81\\xaf\\xe7\\x9f\\xbf\\xe6\\xb1\\xa0.sol\":1628:1677  require(_staketoken == _totoken,\"NEED agreement\") */\n  tag_11\n  jumpi\n  mload(0x40)\n  shl(0xe5, 0x461bcd)\n  dup2\n  mstore\n    /* \"#utility.yul\":1041:1043   */\n  0x20\n    /* \"\\xe8\\x87\\xaa\\xe5\\xb7\\xb1\\xe5\\x86\\x99\\xe4\\xb8\\xaa\\xe7\\x9f\\xbf\\xe6\\xb1\\xa0,\\xe5\\xae\\x9a\\xe6\\x81\\xaf\\xe7\\x9f\\xbf\\xe6\\xb1\\xa0.sol\":1628:1677  require(_staketoken == _totoken,\"NEED agreement\") */\n  0x04\n  dup3\n  add\n    /* \"#utility.yul\":1023:1044   */\n  mstore\n    /* \"#utility.yul\":1080:1082   */\n  0x0e\n    /* \"#utility.yul\":1060:1078   */\n  0x24\n  dup3\n  add\n    /* \"#utility.yul\":1053:1083   */\n  mstore\n  shl(0x92, 0x13915151081859dc99595b595b9d)\n    /* \"#utility.yul\":1099:1117   */\n  0x44\n  dup3\n  add\n    /* \"#utility.yul\":1092:1136   */\n  mstore\n    /* \"#utility.yul\":1153:1171   */\n  0x64\n  add\n    /* \"\\xe8\\x87\\xaa\\xe5\\xb7\\xb1\\xe5\\x86\\x99\\xe4\\xb8\\xaa\\xe7\\x9f\\xbf\\xe6\\xb1\\xa0,\\xe5\\xae\\x9a\\xe6\\x81\\xaf\\xe7\\x9f\\xbf\\xe6\\xb1\\xa0.sol\":1628:1677  require(_staketoken == _totoken,\"NEED agreement\") */\n  tag_7\n    /* \"#utility.yul\":839:1177   */\n  jump\n    /* \"\\xe8\\x87\\xaa\\xe5\\xb7\\xb1\\xe5\\x86\\x99\\xe4\\xb8\\xaa\\xe7\\x9f\\xbf\\xe6\\xb1\\xa0,\\xe5\\xae\\x9a\\xe6\\x81\\xaf\\xe7\\x9f\\xbf\\xe6\\xb1\\xa0.sol\":1628:1677  require(_staketoken == _totoken,\"NEED agreement\") */\ntag_11:\n    /* \"\\xe8\\x87\\xaa\\xe5\\xb7\\xb1\\xe5\\x86\\x99\\xe4\\xb8\\xaa\\xe7\\x9f\\xbf\\xe6\\xb1\\xa0,\\xe5\\xae\\x9a\\xe6\\x81\\xaf\\xe7\\x9f\\xbf\\xe6\\xb1\\xa0.sol\":1688:1698  staketoken */\n  0x01\n    /* \"\\xe8\\x87\\xaa\\xe5\\xb7\\xb1\\xe5\\x86\\x99\\xe4\\xb8\\xaa\\xe7\\x9f\\xbf\\xe6\\xb1\\xa0,\\xe5\\xae\\x9a\\xe6\\x81\\xaf\\xe7\\x9f\\xbf\\xe6\\xb1\\xa0.sol\":1688:1712  staketoken = _staketoken */\n  dup1\n  sload\n  sub(shl(0xa0, 0x01), 0x01)\n  swap4\n  dup5\n  and\n  not(sub(shl(0xa0, 0x01), 0x01))\n  swap2\n  dup3\n  and\n  or\n  swap1\n  swap2\n  sstore\n    /* \"\\xe8\\x87\\xaa\\xe5\\xb7\\xb1\\xe5\\x86\\x99\\xe4\\xb8\\xaa\\xe7\\x9f\\xbf\\xe6\\xb1\\xa0,\\xe5\\xae\\x9a\\xe6\\x81\\xaf\\xe7\\x9f\\xbf\\xe6\\xb1\\xa0.sol\":1723:1730  totoken */\n  0x02\n    /* \"\\xe8\\x87\\xaa\\xe5\\xb7\\xb1\\xe5\\x86\\x99\\xe4\\xb8\\xaa\\xe7\\x9f\\xbf\\xe6\\xb1\\xa0,\\xe5\\xae\\x9a\\xe6\\x81\\xaf\\xe7\\x9f\\xbf\\xe6\\xb1\\xa0.sol\":1723:1741  totoken = _totoken */\n  dup1\n  sload\n  swap3\n  swap1\n  swap4\n  and\n  swap2\n  and\n  or\n  swap1\n  sstore\n    /* \"\\xe8\\x87\\xaa\\xe5\\xb7\\xb1\\xe5\\x86\\x99\\xe4\\xb8\\xaa\\xe7\\x9f\\xbf\\xe6\\xb1\\xa0,\\xe5\\xae\\x9a\\xe6\\x81\\xaf\\xe7\\x9f\\xbf\\xe6\\xb1\\xa0.sol\":732:5409  contract StakeContract {... */\n  jump(tag_16)\n    /* \"#utility.yul\":14:191   */\ntag_15:\n    /* \"#utility.yul\":93:106   */\n  dup1\n  mload\n  sub(shl(0xa0, 0x01), 0x01)\n    /* \"#utility.yul\":135:166   */\n  dup2\n  and\n    /* \"#utility.yul\":125:167   */\n  dup2\n  eq\n    /* \"#utility.yul\":115:185   */\n  tag_18\n  jumpi\n    /* \"#utility.yul\":181:182   */\n  0x00\n    /* \"#utility.yul\":178:179   */\n  dup1\n    /* \"#utility.yul\":171:183   */\n  revert\n    /* \"#utility.yul\":115:185   */\ntag_18:\n    /* \"#utility.yul\":14:191   */\n  swap2\n  swap1\n  pop\n  jump\t// out\n    /* \"#utility.yul\":196:489   */\ntag_3:\n    /* \"#utility.yul\":275:281   */\n  0x00\n    /* \"#utility.yul\":283:289   */\n  dup1\n    /* \"#utility.yul\":336:338   */\n  0x40\n    /* \"#utility.yul\":324:333   */\n  dup4\n    /* \"#utility.yul\":315:322   */\n  dup6\n    /* \"#utility.yul\":311:334   */\n  sub\n    /* \"#utility.yul\":307:339   */\n  slt\n    /* \"#utility.yul\":304:356   */\n  iszero\n  tag_20\n  jumpi\n    /* \"#utility.yul\":352:353   */\n  0x00\n    /* \"#utility.yul\":349:350   */\n  dup1\n    /* \"#utility.yul\":342:354   */\n  revert\n    /* \"#utility.yul\":304:356   */\ntag_20:\n    /* \"#utility.yul\":375:415   */\n  tag_21\n    /* \"#utility.yul\":405:414   */\n  dup4\n    /* \"#utility.yul\":375:415   */\n  tag_15\n  jump\t// in\ntag_21:\n    /* \"#utility.yul\":365:415   */\n  swap2\n  pop\n    /* \"#utility.yul\":434:483   */\n  tag_22\n    /* \"#utility.yul\":479:481   */\n  0x20\n    /* \"#utility.yul\":468:477   */\n  dup5\n    /* \"#utility.yul\":464:482   */\n  add\n    /* \"#utility.yul\":434:483   */\n  tag_15\n  jump\t// in\ntag_22:\n    /* \"#utility.yul\":424:483   */\n  swap1\n  pop\n    /* \"#utility.yul\":196:489   */\n  swap3\n  pop\n  swap3\n  swap1\n  pop\n  jump\t// out\n    /* \"#utility.yul\":839:1177   */\ntag_16:\n    /* \"\\xe8\\x87\\xaa\\xe5\\xb7\\xb1\\xe5\\x86\\x99\\xe4\\xb8\\xaa\\xe7\\x9f\\xbf\\xe6\\xb1\\xa0,\\xe5\\xae\\x9a\\xe6\\x81\\xaf\\xe7\\x9f\\xbf\\xe6\\xb1\\xa0.sol\":732:5409  contract StakeContract {... */\n  dataSize(sub_0)\n  dup1\n  dataOffset(sub_0)\n  0x00\n  codecopy\n  0x00\n  return\nstop\n\nsub_0: assembly {\n        /* \"\\xe8\\x87\\xaa\\xe5\\xb7\\xb1\\xe5\\x86\\x99\\xe4\\xb8\\xaa\\xe7\\x9f\\xbf\\xe6\\xb1\\xa0,\\xe5\\xae\\x9a\\xe6\\x81\\xaf\\xe7\\x9f\\xbf\\xe6\\xb1\\xa0.sol\":732:5409  contract StakeContract {... */\n      mstore(0x40, 0x80)\n      callvalue\n      dup1\n      iszero\n      tag_1\n      jumpi\n      0x00\n      dup1\n      revert\n    tag_1:\n      pop\n      jumpi(tag_2, lt(calldatasize, 0x04))\n      shr(0xe0, calldataload(0x00))\n      dup1\n      0x71ca337d\n      gt\n      tag_16\n      jumpi\n      dup1\n      0xb2237ba3\n      gt\n      tag_17\n      jumpi\n      dup1\n      0xb2237ba3\n      eq\n      tag_12\n      jumpi\n      dup1\n      0xd942727f\n      eq\n      tag_13\n      jumpi\n      dup1\n      0xdab2997b\n      eq\n      tag_14\n      jumpi\n      dup1\n      0xfb5bca7a\n      eq\n      tag_15\n      jumpi\n      0x00\n      dup1\n      revert\n    tag_17:\n      dup1\n      0x71ca337d\n      eq\n      tag_9\n      jumpi\n      dup1\n      0x8c93ecff\n      eq\n      tag_10\n      jumpi\n      dup1\n      0x8da5cb5b\n      eq\n      tag_11\n      jumpi\n      0x00\n      dup1\n      revert\n    tag_16:\n      dup1\n      0x0fdb1c10\n      eq\n      tag_3\n      jumpi\n      dup1\n      0x227a473b\n      eq\n      tag_4\n      jumpi\n      dup1\n      0x2c46502d\n      eq\n      tag_5\n      jumpi\n      dup1\n      0x4641257d\n      eq\n      tag_6\n      jumpi\n      dup1\n      0x529aca49\n      eq\n      tag_7\n      jumpi\n      dup1\n      0x5e9f4435\n      eq\n      tag_8\n      jumpi\n    tag_2:\n      0x00\n      dup1\n      revert\n        /* \"\\xe8\\x87\\xaa\\xe5\\xb7\\xb1\\xe5\\x86\\x99\\xe4\\xb8\\xaa\\xe7\\x9f\\xbf\\xe6\\xb1\\xa0,\\xe5\\xae\\x9a\\xe6\\x81\\xaf\\xe7\\x9f\\xbf\\xe6\\xb1\\xa0.sol\":2712:3063  function withDraw () public returns (bool) {... */\n    tag_3:\n      tag_18\n      tag_19\n      jump\t// in\n    tag_18:\n      mload(0x40)\n        /* \"#utility.yul\":179:193   */\n      swap1\n      iszero\n        /* \"#utility.yul\":172:194   */\n      iszero\n        /* \"#utility.yul\":154:195   */\n      dup2\n      mstore\n        /* \"#utility.yul\":142:144   */\n      0x20\n        /* \"#utility.yul\":127:145   */\n      add\n        /* \"\\xe8\\x87\\xaa\\xe5\\xb7\\xb1\\xe5\\x86\\x99\\xe4\\xb8\\xaa\\xe7\\x9f\\xbf\\xe6\\xb1\\xa0,\\xe5\\xae\\x9a\\xe6\\x81\\xaf\\xe7\\x9f\\xbf\\xe6\\xb1\\xa0.sol\":2712:3063  function withDraw () public returns (bool) {... */\n    tag_20:\n      mload(0x40)\n      dup1\n      swap2\n      sub\n      swap1\n      return\n        /* \"\\xe8\\x87\\xaa\\xe5\\xb7\\xb1\\xe5\\x86\\x99\\xe4\\xb8\\xaa\\xe7\\x9f\\xbf\\xe6\\xb1\\xa0,\\xe5\\xae\\x9a\\xe6\\x81\\xaf\\xe7\\x9f\\xbf\\xe6\\xb1\\xa0.sol\":2062:2704  function Stake(uint _amount) public returns (bool){... */\n    tag_4:\n      tag_18\n      tag_23\n      calldatasize\n      0x04\n      tag_24\n      jump\t// in\n    tag_23:\n      tag_25\n      jump\t// in\n        /* \"\\xe8\\x87\\xaa\\xe5\\xb7\\xb1\\xe5\\x86\\x99\\xe4\\xb8\\xaa\\xe7\\x9f\\xbf\\xe6\\xb1\\xa0,\\xe5\\xae\\x9a\\xe6\\x81\\xaf\\xe7\\x9f\\xbf\\xe6\\xb1\\xa0.sol\":849:871  address public totoken */\n    tag_5:\n      sload(0x02)\n      tag_27\n      swap1\n      sub(shl(0xa0, 0x01), 0x01)\n      and\n      dup2\n      jump\n    tag_27:\n      mload(0x40)\n      sub(shl(0xa0, 0x01), 0x01)\n        /* \"#utility.yul\":555:587   */\n      swap1\n      swap2\n      and\n        /* \"#utility.yul\":537:588   */\n      dup2\n      mstore\n        /* \"#utility.yul\":525:527   */\n      0x20\n        /* \"#utility.yul\":510:528   */\n      add\n        /* \"\\xe8\\x87\\xaa\\xe5\\xb7\\xb1\\xe5\\x86\\x99\\xe4\\xb8\\xaa\\xe7\\x9f\\xbf\\xe6\\xb1\\xa0,\\xe5\\xae\\x9a\\xe6\\x81\\xaf\\xe7\\x9f\\xbf\\xe6\\xb1\\xa0.sol\":849:871  address public totoken */\n      tag_20\n        /* \"#utility.yul\":391:594   */\n      jump\n        /* \"\\xe8\\x87\\xaa\\xe5\\xb7\\xb1\\xe5\\x86\\x99\\xe4\\xb8\\xaa\\xe7\\x9f\\xbf\\xe6\\xb1\\xa0,\\xe5\\xae\\x9a\\xe6\\x81\\xaf\\xe7\\x9f\\xbf\\xe6\\xb1\\xa0.sol\":3071:3762  function harvest() public returns (bool) {... */\n    tag_6:\n      tag_18\n      tag_32\n      jump\t// in\n        /* \"\\xe8\\x87\\xaa\\xe5\\xb7\\xb1\\xe5\\x86\\x99\\xe4\\xb8\\xaa\\xe7\\x9f\\xbf\\xe6\\xb1\\xa0,\\xe5\\xae\\x9a\\xe6\\x81\\xaf\\xe7\\x9f\\xbf\\xe6\\xb1\\xa0.sol\":4116:4403  function newTotokenRatio() public view returns (uint) {... */\n    tag_7:\n      tag_34\n      tag_35\n      jump\t// in\n    tag_34:\n      mload(0x40)\n        /* \"#utility.yul\":745:770   */\n      swap1\n      dup2\n      mstore\n        /* \"#utility.yul\":733:735   */\n      0x20\n        /* \"#utility.yul\":718:736   */\n      add\n        /* \"\\xe8\\x87\\xaa\\xe5\\xb7\\xb1\\xe5\\x86\\x99\\xe4\\xb8\\xaa\\xe7\\x9f\\xbf\\xe6\\xb1\\xa0,\\xe5\\xae\\x9a\\xe6\\x81\\xaf\\xe7\\x9f\\xbf\\xe6\\xb1\\xa0.sol\":4116:4403  function newTotokenRatio() public view returns (uint) {... */\n      tag_20\n        /* \"#utility.yul\":599:776   */\n      jump\n        /* \"\\xe8\\x87\\xaa\\xe5\\xb7\\xb1\\xe5\\x86\\x99\\xe4\\xb8\\xaa\\xe7\\x9f\\xbf\\xe6\\xb1\\xa0,\\xe5\\xae\\x9a\\xe6\\x81\\xaf\\xe7\\x9f\\xbf\\xe6\\xb1\\xa0.sol\":4411:4582  function lastTotokenRatio()public view returns(uint) {... */\n    tag_8:\n        /* \"\\xe8\\x87\\xaa\\xe5\\xb7\\xb1\\xe5\\x86\\x99\\xe4\\xb8\\xaa\\xe7\\x9f\\xbf\\xe6\\xb1\\xa0,\\xe5\\xae\\x9a\\xe6\\x81\\xaf\\xe7\\x9f\\xbf\\xe6\\xb1\\xa0.sol\":4509:4519  msg.sender */\n      caller\n        /* \"\\xe8\\x87\\xaa\\xe5\\xb7\\xb1\\xe5\\x86\\x99\\xe4\\xb8\\xaa\\xe7\\x9f\\xbf\\xe6\\xb1\\xa0,\\xe5\\xae\\x9a\\xe6\\x81\\xaf\\xe7\\x9f\\xbf\\xe6\\xb1\\xa0.sol\":4458:4462  uint */\n      0x00\n        /* \"\\xe8\\x87\\xaa\\xe5\\xb7\\xb1\\xe5\\x86\\x99\\xe4\\xb8\\xaa\\xe7\\x9f\\xbf\\xe6\\xb1\\xa0,\\xe5\\xae\\x9a\\xe6\\x81\\xaf\\xe7\\x9f\\xbf\\xe6\\xb1\\xa0.sol\":4500:4520  User_Map[msg.sender] */\n      swap1\n      dup2\n      mstore\n        /* \"\\xe8\\x87\\xaa\\xe5\\xb7\\xb1\\xe5\\x86\\x99\\xe4\\xb8\\xaa\\xe7\\x9f\\xbf\\xe6\\xb1\\xa0,\\xe5\\xae\\x9a\\xe6\\x81\\xaf\\xe7\\x9f\\xbf\\xe6\\xb1\\xa0.sol\":4500:4508  User_Map */\n      0x05\n        /* \"\\xe8\\x87\\xaa\\xe5\\xb7\\xb1\\xe5\\x86\\x99\\xe4\\xb8\\xaa\\xe7\\x9f\\xbf\\xe6\\xb1\\xa0,\\xe5\\xae\\x9a\\xe6\\x81\\xaf\\xe7\\x9f\\xbf\\xe6\\xb1\\xa0.sol\":4500:4520  User_Map[msg.sender] */\n      0x20\n      mstore\n      0x40\n      swap1\n      keccak256\n        /* \"\\xe8\\x87\\xaa\\xe5\\xb7\\xb1\\xe5\\x86\\x99\\xe4\\xb8\\xaa\\xe7\\x9f\\xbf\\xe6\\xb1\\xa0,\\xe5\\xae\\x9a\\xe6\\x81\\xaf\\xe7\\x9f\\xbf\\xe6\\xb1\\xa0.sol\":4500:4539  User_Map[msg.sender].last_totoken_ratio */\n      0x02\n      add\n      sload\n        /* \"\\xe8\\x87\\xaa\\xe5\\xb7\\xb1\\xe5\\x86\\x99\\xe4\\xb8\\xaa\\xe7\\x9f\\xbf\\xe6\\xb1\\xa0,\\xe5\\xae\\x9a\\xe6\\x81\\xaf\\xe7\\x9f\\xbf\\xe6\\xb1\\xa0.sol\":4411:4582  function lastTotokenRatio()public view returns(uint) {... */\n      jump(tag_34)\n        /* \"\\xe8\\x87\\xaa\\xe5\\xb7\\xb1\\xe5\\x86\\x99\\xe4\\xb8\\xaa\\xe7\\x9f\\xbf\\xe6\\xb1\\xa0,\\xe5\\xae\\x9a\\xe6\\x81\\xaf\\xe7\\x9f\\xbf\\xe6\\xb1\\xa0.sol\":793:810  uint public ratio */\n    tag_9:\n      tag_34\n      sload(0x00)\n      dup2\n      jump\n        /* \"\\xe8\\x87\\xaa\\xe5\\xb7\\xb1\\xe5\\x86\\x99\\xe4\\xb8\\xaa\\xe7\\x9f\\xbf\\xe6\\xb1\\xa0,\\xe5\\xae\\x9a\\xe6\\x81\\xaf\\xe7\\x9f\\xbf\\xe6\\xb1\\xa0.sol\":1362:1402  mapping(address => User) public User_Map */\n    tag_10:\n      tag_44\n      tag_45\n      calldatasize\n      0x04\n      tag_46\n      jump\t// in\n    tag_45:\n      0x05\n      0x20\n      dup2\n      swap1\n      mstore\n      0x00\n      swap2\n      dup3\n      mstore\n      0x40\n      swap1\n      swap2\n      keccak256\n      dup1\n      sload\n      0x01\n      dup3\n      add\n      sload\n      0x02\n      dup4\n      add\n      sload\n      0x03\n      dup5\n      add\n      sload\n      0x04\n      dup6\n      add\n      sload\n      swap5\n      swap1\n      swap6\n      add\n      sload\n      swap3\n      swap5\n      swap2\n      swap4\n      swap1\n      swap3\n      dup7\n      jump\n    tag_44:\n      0x40\n      dup1\n      mload\n        /* \"#utility.yul\":1359:1384   */\n      swap7\n      dup8\n      mstore\n        /* \"#utility.yul\":1415:1417   */\n      0x20\n        /* \"#utility.yul\":1400:1418   */\n      dup8\n      add\n        /* \"#utility.yul\":1393:1427   */\n      swap6\n      swap1\n      swap6\n      mstore\n        /* \"#utility.yul\":1443:1461   */\n      swap4\n      dup6\n      add\n        /* \"#utility.yul\":1436:1470   */\n      swap3\n      swap1\n      swap3\n      mstore\n        /* \"#utility.yul\":1501:1503   */\n      0x60\n        /* \"#utility.yul\":1486:1504   */\n      dup5\n      add\n        /* \"#utility.yul\":1479:1513   */\n      mstore\n        /* \"#utility.yul\":1544:1547   */\n      0x80\n        /* \"#utility.yul\":1529:1548   */\n      dup4\n      add\n        /* \"#utility.yul\":1522:1557   */\n      mstore\n        /* \"#utility.yul\":1588:1591   */\n      0xa0\n        /* \"#utility.yul\":1573:1592   */\n      dup3\n      add\n        /* \"#utility.yul\":1566:1601   */\n      mstore\n        /* \"#utility.yul\":1346:1349   */\n      0xc0\n        /* \"#utility.yul\":1331:1350   */\n      add\n        /* \"\\xe8\\x87\\xaa\\xe5\\xb7\\xb1\\xe5\\x86\\x99\\xe4\\xb8\\xaa\\xe7\\x9f\\xbf\\xe6\\xb1\\xa0,\\xe5\\xae\\x9a\\xe6\\x81\\xaf\\xe7\\x9f\\xbf\\xe6\\xb1\\xa0.sol\":1362:1402  mapping(address => User) public User_Map */\n      tag_20\n        /* \"#utility.yul\":1072:1607   */\n      jump\n        /* \"\\xe8\\x87\\xaa\\xe5\\xb7\\xb1\\xe5\\x86\\x99\\xe4\\xb8\\xaa\\xe7\\x9f\\xbf\\xe6\\xb1\\xa0,\\xe5\\xae\\x9a\\xe6\\x81\\xaf\\xe7\\x9f\\xbf\\xe6\\xb1\\xa0.sol\":908:928  address public owner */\n    tag_11:\n      sload(0x04)\n      tag_27\n      swap1\n      sub(shl(0xa0, 0x01), 0x01)\n      and\n      dup2\n      jump\n        /* \"\\xe8\\x87\\xaa\\xe5\\xb7\\xb1\\xe5\\x86\\x99\\xe4\\xb8\\xaa\\xe7\\x9f\\xbf\\xe6\\xb1\\xa0,\\xe5\\xae\\x9a\\xe6\\x81\\xaf\\xe7\\x9f\\xbf\\xe6\\xb1\\xa0.sol\":1962:2054  function setRatio(uint _ratio) external onlyOwner {    ... */\n    tag_12:\n      tag_53\n      tag_54\n      calldatasize\n      0x04\n      tag_24\n      jump\t// in\n    tag_54:\n      tag_55\n      jump\t// in\n    tag_53:\n      stop\n        /* \"\\xe8\\x87\\xaa\\xe5\\xb7\\xb1\\xe5\\x86\\x99\\xe4\\xb8\\xaa\\xe7\\x9f\\xbf\\xe6\\xb1\\xa0,\\xe5\\xae\\x9a\\xe6\\x81\\xaf\\xe7\\x9f\\xbf\\xe6\\xb1\\xa0.sol\":878:901  uint public stakeSupple */\n    tag_13:\n      tag_34\n      sload(0x03)\n      dup2\n      jump\n        /* \"\\xe8\\x87\\xaa\\xe5\\xb7\\xb1\\xe5\\x86\\x99\\xe4\\xb8\\xaa\\xe7\\x9f\\xbf\\xe6\\xb1\\xa0,\\xe5\\xae\\x9a\\xe6\\x81\\xaf\\xe7\\x9f\\xbf\\xe6\\xb1\\xa0.sol\":817:842  address public staketoken */\n    tag_14:\n      sload(0x01)\n      tag_27\n      swap1\n      sub(shl(0xa0, 0x01), 0x01)\n      and\n      dup2\n      jump\n        /* \"\\xe8\\x87\\xaa\\xe5\\xb7\\xb1\\xe5\\x86\\x99\\xe4\\xb8\\xaa\\xe7\\x9f\\xbf\\xe6\\xb1\\xa0,\\xe5\\xae\\x9a\\xe6\\x81\\xaf\\xe7\\x9f\\xbf\\xe6\\xb1\\xa0.sol\":4597:5406  function harvestwithDraw() public returns (bool) {... */\n    tag_15:\n      tag_18\n      tag_63\n      jump\t// in\n        /* \"\\xe8\\x87\\xaa\\xe5\\xb7\\xb1\\xe5\\x86\\x99\\xe4\\xb8\\xaa\\xe7\\x9f\\xbf\\xe6\\xb1\\xa0,\\xe5\\xae\\x9a\\xe6\\x81\\xaf\\xe7\\x9f\\xbf\\xe6\\xb1\\xa0.sol\":2712:3063  function withDraw () public returns (bool) {... */\n    tag_19:\n        /* \"\\xe8\\x87\\xaa\\xe5\\xb7\\xb1\\xe5\\x86\\x99\\xe4\\xb8\\xaa\\xe7\\x9f\\xbf\\xe6\\xb1\\xa0,\\xe5\\xae\\x9a\\xe6\\x81\\xaf\\xe7\\x9f\\xbf\\xe6\\xb1\\xa0.sol\":2773:2783  staketoken */\n      sload(0x01)\n        /* \"\\xe8\\x87\\xaa\\xe5\\xb7\\xb1\\xe5\\x86\\x99\\xe4\\xb8\\xaa\\xe7\\x9f\\xbf\\xe6\\xb1\\xa0,\\xe5\\xae\\x9a\\xe6\\x81\\xaf\\xe7\\x9f\\xbf\\xe6\\xb1\\xa0.sol\":2794:2804  msg.sender */\n      caller\n        /* \"\\xe8\\x87\\xaa\\xe5\\xb7\\xb1\\xe5\\x86\\x99\\xe4\\xb8\\xaa\\xe7\\x9f\\xbf\\xe6\\xb1\\xa0,\\xe5\\xae\\x9a\\xe6\\x81\\xaf\\xe7\\x9f\\xbf\\xe6\\xb1\\xa0.sol\":2749:2753  bool */\n      0x00\n        /* \"\\xe8\\x87\\xaa\\xe5\\xb7\\xb1\\xe5\\x86\\x99\\xe4\\xb8\\xaa\\xe7\\x9f\\xbf\\xe6\\xb1\\xa0,\\xe5\\xae\\x9a\\xe6\\x81\\xaf\\xe7\\x9f\\xbf\\xe6\\xb1\\xa0.sol\":2806:2826  User_Map[msg.sender] */\n      dup2\n      dup2\n      mstore\n        /* \"\\xe8\\x87\\xaa\\xe5\\xb7\\xb1\\xe5\\x86\\x99\\xe4\\xb8\\xaa\\xe7\\x9f\\xbf\\xe6\\xb1\\xa0,\\xe5\\xae\\x9a\\xe6\\x81\\xaf\\xe7\\x9f\\xbf\\xe6\\xb1\\xa0.sol\":2806:2814  User_Map */\n      0x05\n        /* \"\\xe8\\x87\\xaa\\xe5\\xb7\\xb1\\xe5\\x86\\x99\\xe4\\xb8\\xaa\\xe7\\x9f\\xbf\\xe6\\xb1\\xa0,\\xe5\\xae\\x9a\\xe6\\x81\\xaf\\xe7\\x9f\\xbf\\xe6\\xb1\\xa0.sol\":2806:2826  User_Map[msg.sender] */\n      0x20\n      mstore\n      0x40\n      dup1\n      dup3\n      keccak256\n        /* \"\\xe8\\x87\\xaa\\xe5\\xb7\\xb1\\xe5\\x86\\x99\\xe4\\xb8\\xaa\\xe7\\x9f\\xbf\\xe6\\xb1\\xa0,\\xe5\\xae\\x9a\\xe6\\x81\\xaf\\xe7\\x9f\\xbf\\xe6\\xb1\\xa0.sol\":2806:2838  User_Map[msg.sender].stakeNumber */\n      sload\n        /* \"\\xe8\\x87\\xaa\\xe5\\xb7\\xb1\\xe5\\x86\\x99\\xe4\\xb8\\xaa\\xe7\\x9f\\xbf\\xe6\\xb1\\xa0,\\xe5\\xae\\x9a\\xe6\\x81\\xaf\\xe7\\x9f\\xbf\\xe6\\xb1\\xa0.sol\":2766:2839  IERC20(staketoken).transfer(msg.sender, User_Map[msg.sender].stakeNumber) */\n      swap1\n      mload\n      shl(0xe0, 0xa9059cbb)\n      dup2\n      mstore\n      0x04\n      dup2\n      add\n        /* \"#utility.yul\":1786:1837   */\n      swap4\n      swap1\n      swap4\n      mstore\n        /* \"#utility.yul\":1853:1871   */\n      0x24\n      dup4\n      add\n        /* \"#utility.yul\":1846:1880   */\n      mstore\n        /* \"\\xe8\\x87\\xaa\\xe5\\xb7\\xb1\\xe5\\x86\\x99\\xe4\\xb8\\xaa\\xe7\\x9f\\xbf\\xe6\\xb1\\xa0,\\xe5\\xae\\x9a\\xe6\\x81\\xaf\\xe7\\x9f\\xbf\\xe6\\xb1\\xa0.sol\":2749:2753  bool */\n      swap2\n      sub(shl(0xa0, 0x01), 0x01)\n        /* \"\\xe8\\x87\\xaa\\xe5\\xb7\\xb1\\xe5\\x86\\x99\\xe4\\xb8\\xaa\\xe7\\x9f\\xbf\\xe6\\xb1\\xa0,\\xe5\\xae\\x9a\\xe6\\x81\\xaf\\xe7\\x9f\\xbf\\xe6\\xb1\\xa0.sol\":2773:2783  staketoken */\n      and\n      swap1\n        /* \"\\xe8\\x87\\xaa\\xe5\\xb7\\xb1\\xe5\\x86\\x99\\xe4\\xb8\\xaa\\xe7\\x9f\\xbf\\xe6\\xb1\\xa0,\\xe5\\xae\\x9a\\xe6\\x81\\xaf\\xe7\\x9f\\xbf\\xe6\\xb1\\xa0.sol\":2766:2793  IERC20(staketoken).transfer */\n      0xa9059cbb\n      swap1\n        /* \"#utility.yul\":1759:1777   */\n      0x44\n      add\n        /* \"\\xe8\\x87\\xaa\\xe5\\xb7\\xb1\\xe5\\x86\\x99\\xe4\\xb8\\xaa\\xe7\\x9f\\xbf\\xe6\\xb1\\xa0,\\xe5\\xae\\x9a\\xe6\\x81\\xaf\\xe7\\x9f\\xbf\\xe6\\xb1\\xa0.sol\":2766:2839  IERC20(staketoken).transfer(msg.sender, User_Map[msg.sender].stakeNumber) */\n      0x20\n      mload(0x40)\n      dup1\n      dup4\n      sub\n      dup2\n      0x00\n      dup8\n      gas\n      call\n      iszero\n      dup1\n      iszero\n      tag_69\n      jumpi\n      returndatasize\n      0x00\n      dup1\n      returndatacopy\n      revert(0x00, returndatasize)\n    tag_69:\n      pop\n      pop\n      pop\n      pop\n      mload(0x40)\n      returndatasize\n      not(0x1f)\n      0x1f\n      dup3\n      add\n      and\n      dup3\n      add\n      dup1\n      0x40\n      mstore\n      pop\n      dup2\n      add\n      swap1\n      tag_70\n      swap2\n      swap1\n      tag_71\n      jump\t// in\n    tag_70:\n      pop\n        /* \"\\xe8\\x87\\xaa\\xe5\\xb7\\xb1\\xe5\\x86\\x99\\xe4\\xb8\\xaa\\xe7\\x9f\\xbf\\xe6\\xb1\\xa0,\\xe5\\xae\\x9a\\xe6\\x81\\xaf\\xe7\\x9f\\xbf\\xe6\\xb1\\xa0.sol\":2867:2877  msg.sender */\n      caller\n        /* \"\\xe8\\x87\\xaa\\xe5\\xb7\\xb1\\xe5\\x86\\x99\\xe4\\xb8\\xaa\\xe7\\x9f\\xbf\\xe6\\xb1\\xa0,\\xe5\\xae\\x9a\\xe6\\x81\\xaf\\xe7\\x9f\\xbf\\xe6\\xb1\\xa0.sol\":2879:2899  User_Map[msg.sender] */\n      0x00\n      dup2\n      dup2\n      mstore\n        /* \"\\xe8\\x87\\xaa\\xe5\\xb7\\xb1\\xe5\\x86\\x99\\xe4\\xb8\\xaa\\xe7\\x9f\\xbf\\xe6\\xb1\\xa0,\\xe5\\xae\\x9a\\xe6\\x81\\xaf\\xe7\\x9f\\xbf\\xe6\\xb1\\xa0.sol\":2879:2887  User_Map */\n      0x05\n        /* \"\\xe8\\x87\\xaa\\xe5\\xb7\\xb1\\xe5\\x86\\x99\\xe4\\xb8\\xaa\\xe7\\x9f\\xbf\\xe6\\xb1\\xa0,\\xe5\\xae\\x9a\\xe6\\x81\\xaf\\xe7\\x9f\\xbf\\xe6\\xb1\\xa0.sol\":2879:2899  User_Map[msg.sender] */\n      0x20\n      swap1\n      dup2\n      mstore\n      0x40\n      swap2\n      dup3\n      swap1\n      keccak256\n        /* \"\\xe8\\x87\\xaa\\xe5\\xb7\\xb1\\xe5\\x86\\x99\\xe4\\xb8\\xaa\\xe7\\x9f\\xbf\\xe6\\xb1\\xa0,\\xe5\\xae\\x9a\\xe6\\x81\\xaf\\xe7\\x9f\\xbf\\xe6\\xb1\\xa0.sol\":2879:2911  User_Map[msg.sender].stakeNumber */\n      sload\n        /* \"\\xe8\\x87\\xaa\\xe5\\xb7\\xb1\\xe5\\x86\\x99\\xe4\\xb8\\xaa\\xe7\\x9f\\xbf\\xe6\\xb1\\xa0,\\xe5\\xae\\x9a\\xe6\\x81\\xaf\\xe7\\x9f\\xbf\\xe6\\xb1\\xa0.sol\":2858:2912  transfer(msg.sender, User_Map[msg.sender].stakeNumber) */\n      swap2\n      mload\n        /* \"#utility.yul\":745:770   */\n      swap2\n      dup3\n      mstore\n      0x00\n      dup1\n      mload\n      0x20\n      data_6ee032249450bc73eb21baa464f9befee4ae388930c9f61a58862db0c63f30c1\n      dup4\n      codecopy\n      dup2\n      mload\n      swap2\n      mstore\n        /* \"\\xe8\\x87\\xaa\\xe5\\xb7\\xb1\\xe5\\x86\\x99\\xe4\\xb8\\xaa\\xe7\\x9f\\xbf\\xe6\\xb1\\xa0,\\xe5\\xae\\x9a\\xe6\\x81\\xaf\\xe7\\x9f\\xbf\\xe6\\xb1\\xa0.sol\":2858:2912  transfer(msg.sender, User_Map[msg.sender].stakeNumber) */\n      swap2\n        /* \"#utility.yul\":718:736   */\n      add\n        /* \"\\xe8\\x87\\xaa\\xe5\\xb7\\xb1\\xe5\\x86\\x99\\xe4\\xb8\\xaa\\xe7\\x9f\\xbf\\xe6\\xb1\\xa0,\\xe5\\xae\\x9a\\xe6\\x81\\xaf\\xe7\\x9f\\xbf\\xe6\\xb1\\xa0.sol\":2858:2912  transfer(msg.sender, User_Map[msg.sender].stakeNumber) */\n      mload(0x40)\n      dup1\n      swap2\n      sub\n      swap1\n      log2\n        /* \"\\xe8\\x87\\xaa\\xe5\\xb7\\xb1\\xe5\\x86\\x99\\xe4\\xb8\\xaa\\xe7\\x9f\\xbf\\xe6\\xb1\\xa0,\\xe5\\xae\\x9a\\xe6\\x81\\xaf\\xe7\\x9f\\xbf\\xe6\\xb1\\xa0.sol\":2961:2971  msg.sender */\n      caller\n        /* \"\\xe8\\x87\\xaa\\xe5\\xb7\\xb1\\xe5\\x86\\x99\\xe4\\xb8\\xaa\\xe7\\x9f\\xbf\\xe6\\xb1\\xa0,\\xe5\\xae\\x9a\\xe6\\x81\\xaf\\xe7\\x9f\\xbf\\xe6\\xb1\\xa0.sol\":2952:2972  User_Map[msg.sender] */\n      0x00\n      swap1\n      dup2\n      mstore\n        /* \"\\xe8\\x87\\xaa\\xe5\\xb7\\xb1\\xe5\\x86\\x99\\xe4\\xb8\\xaa\\xe7\\x9f\\xbf\\xe6\\xb1\\xa0,\\xe5\\xae\\x9a\\xe6\\x81\\xaf\\xe7\\x9f\\xbf\\xe6\\xb1\\xa0.sol\":2952:2960  User_Map */\n      0x05\n        /* \"\\xe8\\x87\\xaa\\xe5\\xb7\\xb1\\xe5\\x86\\x99\\xe4\\xb8\\xaa\\xe7\\x9f\\xbf\\xe6\\xb1\\xa0,\\xe5\\xae\\x9a\\xe6\\x81\\xaf\\xe7\\x9f\\xbf\\xe6\\xb1\\xa0.sol\":2952:2972  User_Map[msg.sender] */\n      0x20\n      mstore\n      0x40\n      dup2\n      keccak256\n        /* \"\\xe8\\x87\\xaa\\xe5\\xb7\\xb1\\xe5\\x86\\x99\\xe4\\xb8\\xaa\\xe7\\x9f\\xbf\\xe6\\xb1\\xa0,\\xe5\\xae\\x9a\\xe6\\x81\\xaf\\xe7\\x9f\\xbf\\xe6\\xb1\\xa0.sol\":2952:2984  User_Map[msg.sender].stakeNumber */\n      sload\n        /* \"\\xe8\\x87\\xaa\\xe5\\xb7\\xb1\\xe5\\x86\\x99\\xe4\\xb8\\xaa\\xe7\\x9f\\xbf\\xe6\\xb1\\xa0,\\xe5\\xae\\x9a\\xe6\\x81\\xaf\\xe7\\x9f\\xbf\\xe6\\xb1\\xa0.sol\":2937:2948  stakeSupple */\n      0x03\n        /* \"\\xe8\\x87\\xaa\\xe5\\xb7\\xb1\\xe5\\x86\\x99\\xe4\\xb8\\xaa\\xe7\\x9f\\xbf\\xe6\\xb1\\xa0,\\xe5\\xae\\x9a\\xe6\\x81\\xaf\\xe7\\x9f\\xbf\\xe6\\xb1\\xa0.sol\":2937:2984  stakeSupple -= User_Map[msg.sender].stakeNumber */\n      dup1\n      sload\n        /* \"\\xe8\\x87\\xaa\\xe5\\xb7\\xb1\\xe5\\x86\\x99\\xe4\\xb8\\xaa\\xe7\\x9f\\xbf\\xe6\\xb1\\xa0,\\xe5\\xae\\x9a\\xe6\\x81\\xaf\\xe7\\x9f\\xbf\\xe6\\xb1\\xa0.sol\":2952:2984  User_Map[msg.sender].stakeNumber */\n      swap2\n      swap3\n        /* \"\\xe8\\x87\\xaa\\xe5\\xb7\\xb1\\xe5\\x86\\x99\\xe4\\xb8\\xaa\\xe7\\x9f\\xbf\\xe6\\xb1\\xa0,\\xe5\\xae\\x9a\\xe6\\x81\\xaf\\xe7\\x9f\\xbf\\xe6\\xb1\\xa0.sol\":2937:2948  stakeSupple */\n      swap1\n      swap2\n        /* \"\\xe8\\x87\\xaa\\xe5\\xb7\\xb1\\xe5\\x86\\x99\\xe4\\xb8\\xaa\\xe7\\x9f\\xbf\\xe6\\xb1\\xa0,\\xe5\\xae\\x9a\\xe6\\x81\\xaf\\xe7\\x9f\\xbf\\xe6\\xb1\\xa0.sol\":2937:2984  stakeSupple -= User_Map[msg.sender].stakeNumber */\n      tag_73\n      swap1\n        /* \"\\xe8\\x87\\xaa\\xe5\\xb7\\xb1\\xe5\\x86\\x99\\xe4\\xb8\\xaa\\xe7\\x9f\\xbf\\xe6\\xb1\\xa0,\\xe5\\xae\\x9a\\xe6\\x81\\xaf\\xe7\\x9f\\xbf\\xe6\\xb1\\xa0.sol\":2952:2984  User_Map[msg.sender].stakeNumber */\n      dup5\n      swap1\n        /* \"\\xe8\\x87\\xaa\\xe5\\xb7\\xb1\\xe5\\x86\\x99\\xe4\\xb8\\xaa\\xe7\\x9f\\xbf\\xe6\\xb1\\xa0,\\xe5\\xae\\x9a\\xe6\\x81\\xaf\\xe7\\x9f\\xbf\\xe6\\xb1\\xa0.sol\":2937:2984  stakeSupple -= User_Map[msg.sender].stakeNumber */\n      tag_74\n      jump\t// in\n    tag_73:\n      swap1\n      swap2\n      sstore\n      pop\n      pop\n        /* \"\\xe8\\x87\\xaa\\xe5\\xb7\\xb1\\xe5\\x86\\x99\\xe4\\xb8\\xaa\\xe7\\x9f\\xbf\\xe6\\xb1\\xa0,\\xe5\\xae\\x9a\\xe6\\x81\\xaf\\xe7\\x9f\\xbf\\xe6\\xb1\\xa0.sol\":3004:3014  msg.sender */\n      caller\n        /* \"\\xe8\\x87\\xaa\\xe5\\xb7\\xb1\\xe5\\x86\\x99\\xe4\\xb8\\xaa\\xe7\\x9f\\xbf\\xe6\\xb1\\xa0,\\xe5\\xae\\x9a\\xe6\\x81\\xaf\\xe7\\x9f\\xbf\\xe6\\xb1\\xa0.sol\":3030:3031  0 */\n      0x00\n        /* \"\\xe8\\x87\\xaa\\xe5\\xb7\\xb1\\xe5\\x86\\x99\\xe4\\xb8\\xaa\\xe7\\x9f\\xbf\\xe6\\xb1\\xa0,\\xe5\\xae\\x9a\\xe6\\x81\\xaf\\xe7\\x9f\\xbf\\xe6\\xb1\\xa0.sol\":2995:3015  User_Map[msg.sender] */\n      swap1\n      dup2\n      mstore\n        /* \"\\xe8\\x87\\xaa\\xe5\\xb7\\xb1\\xe5\\x86\\x99\\xe4\\xb8\\xaa\\xe7\\x9f\\xbf\\xe6\\xb1\\xa0,\\xe5\\xae\\x9a\\xe6\\x81\\xaf\\xe7\\x9f\\xbf\\xe6\\xb1\\xa0.sol\":2995:3003  User_Map */\n      0x05\n        /* \"\\xe8\\x87\\xaa\\xe5\\xb7\\xb1\\xe5\\x86\\x99\\xe4\\xb8\\xaa\\xe7\\x9f\\xbf\\xe6\\xb1\\xa0,\\xe5\\xae\\x9a\\xe6\\x81\\xaf\\xe7\\x9f\\xbf\\xe6\\xb1\\xa0.sol\":2995:3015  User_Map[msg.sender] */\n      0x20\n      mstore\n      0x40\n      dup2\n      keccak256\n        /* \"\\xe8\\x87\\xaa\\xe5\\xb7\\xb1\\xe5\\x86\\x99\\xe4\\xb8\\xaa\\xe7\\x9f\\xbf\\xe6\\xb1\\xa0,\\xe5\\xae\\x9a\\xe6\\x81\\xaf\\xe7\\x9f\\xbf\\xe6\\xb1\\xa0.sol\":2995:3031  User_Map[msg.sender].stakeNumber = 0 */\n      sstore\n      pop\n        /* \"\\xe8\\x87\\xaa\\xe5\\xb7\\xb1\\xe5\\x86\\x99\\xe4\\xb8\\xaa\\xe7\\x9f\\xbf\\xe6\\xb1\\xa0,\\xe5\\xae\\x9a\\xe6\\x81\\xaf\\xe7\\x9f\\xbf\\xe6\\xb1\\xa0.sol\":3051:3055  true */\n      0x01\n      swap1\n        /* \"\\xe8\\x87\\xaa\\xe5\\xb7\\xb1\\xe5\\x86\\x99\\xe4\\xb8\\xaa\\xe7\\x9f\\xbf\\xe6\\xb1\\xa0,\\xe5\\xae\\x9a\\xe6\\x81\\xaf\\xe7\\x9f\\xbf\\xe6\\xb1\\xa0.sol\":2712:3063  function withDraw () public returns (bool) {... */\n      jump\t// out\n        /* \"\\xe8\\x87\\xaa\\xe5\\xb7\\xb1\\xe5\\x86\\x99\\xe4\\xb8\\xaa\\xe7\\x9f\\xbf\\xe6\\xb1\\xa0,\\xe5\\xae\\x9a\\xe6\\x81\\xaf\\xe7\\x9f\\xbf\\xe6\\xb1\\xa0.sol\":2062:2704  function Stake(uint _amount) public returns (bool){... */\n    tag_25:\n        /* \"\\xe8\\x87\\xaa\\xe5\\xb7\\xb1\\xe5\\x86\\x99\\xe4\\xb8\\xaa\\xe7\\x9f\\xbf\\xe6\\xb1\\xa0,\\xe5\\xae\\x9a\\xe6\\x81\\xaf\\xe7\\x9f\\xbf\\xe6\\xb1\\xa0.sol\":2132:2142  staketoken */\n      sload(0x01)\n        /* \"\\xe8\\x87\\xaa\\xe5\\xb7\\xb1\\xe5\\x86\\x99\\xe4\\xb8\\xaa\\xe7\\x9f\\xbf\\xe6\\xb1\\xa0,\\xe5\\xae\\x9a\\xe6\\x81\\xaf\\xe7\\x9f\\xbf\\xe6\\xb1\\xa0.sol\":2125:2192  IERC20(staketoken).transferFrom(msg.sender, address(this), _amount) */\n      mload(0x40)\n      shl(0xe0, 0x23b872dd)\n      dup2\n      mstore\n        /* \"\\xe8\\x87\\xaa\\xe5\\xb7\\xb1\\xe5\\x86\\x99\\xe4\\xb8\\xaa\\xe7\\x9f\\xbf\\xe6\\xb1\\xa0,\\xe5\\xae\\x9a\\xe6\\x81\\xaf\\xe7\\x9f\\xbf\\xe6\\xb1\\xa0.sol\":2157:2167  msg.sender */\n      caller\n        /* \"\\xe8\\x87\\xaa\\xe5\\xb7\\xb1\\xe5\\x86\\x99\\xe4\\xb8\\xaa\\xe7\\x9f\\xbf\\xe6\\xb1\\xa0,\\xe5\\xae\\x9a\\xe6\\x81\\xaf\\xe7\\x9f\\xbf\\xe6\\xb1\\xa0.sol\":2125:2192  IERC20(staketoken).transferFrom(msg.sender, address(this), _amount) */\n      0x04\n      dup3\n      add\n        /* \"#utility.yul\":2675:2709   */\n      mstore\n        /* \"\\xe8\\x87\\xaa\\xe5\\xb7\\xb1\\xe5\\x86\\x99\\xe4\\xb8\\xaa\\xe7\\x9f\\xbf\\xe6\\xb1\\xa0,\\xe5\\xae\\x9a\\xe6\\x81\\xaf\\xe7\\x9f\\xbf\\xe6\\xb1\\xa0.sol\":2177:2181  this */\n      address\n        /* \"#utility.yul\":2725:2743   */\n      0x24\n      dup3\n      add\n        /* \"#utility.yul\":2718:2761   */\n      mstore\n        /* \"#utility.yul\":2777:2795   */\n      0x44\n      dup2\n      add\n        /* \"#utility.yul\":2770:2804   */\n      dup4\n      swap1\n      mstore\n        /* \"\\xe8\\x87\\xaa\\xe5\\xb7\\xb1\\xe5\\x86\\x99\\xe4\\xb8\\xaa\\xe7\\x9f\\xbf\\xe6\\xb1\\xa0,\\xe5\\xae\\x9a\\xe6\\x81\\xaf\\xe7\\x9f\\xbf\\xe6\\xb1\\xa0.sol\":2107:2111  bool */\n      0x00\n      swap2\n      sub(shl(0xa0, 0x01), 0x01)\n        /* \"\\xe8\\x87\\xaa\\xe5\\xb7\\xb1\\xe5\\x86\\x99\\xe4\\xb8\\xaa\\xe7\\x9f\\xbf\\xe6\\xb1\\xa0,\\xe5\\xae\\x9a\\xe6\\x81\\xaf\\xe7\\x9f\\xbf\\xe6\\xb1\\xa0.sol\":2132:2142  staketoken */\n      and\n      swap1\n        /* \"\\xe8\\x87\\xaa\\xe5\\xb7\\xb1\\xe5\\x86\\x99\\xe4\\xb8\\xaa\\xe7\\x9f\\xbf\\xe6\\xb1\\xa0,\\xe5\\xae\\x9a\\xe6\\x81\\xaf\\xe7\\x9f\\xbf\\xe6\\xb1\\xa0.sol\":2125:2156  IERC20(staketoken).transferFrom */\n      0x23b872dd\n      swap1\n        /* \"#utility.yul\":2610:2628   */\n      0x64\n      add\n        /* \"\\xe8\\x87\\xaa\\xe5\\xb7\\xb1\\xe5\\x86\\x99\\xe4\\xb8\\xaa\\xe7\\x9f\\xbf\\xe6\\xb1\\xa0,\\xe5\\xae\\x9a\\xe6\\x81\\xaf\\xe7\\x9f\\xbf\\xe6\\xb1\\xa0.sol\":2125:2192  IERC20(staketoken).transferFrom(msg.sender, address(this), _amount) */\n      0x20\n      mload(0x40)\n      dup1\n      dup4\n      sub\n      dup2\n      0x00\n      dup8\n      gas\n      call\n      iszero\n      dup1\n      iszero\n      tag_79\n      jumpi\n      returndatasize\n      0x00\n      dup1\n      returndatacopy\n      revert(0x00, returndatasize)\n    tag_79:\n      pop\n      pop\n      pop\n      pop\n      mload(0x40)\n      returndatasize\n      not(0x1f)\n      0x1f\n      dup3\n      add\n      and\n      dup3\n      add\n      dup1\n      0x40\n      mstore\n      pop\n      dup2\n      add\n      swap1\n      tag_80\n      swap2\n      swap1\n      tag_71\n      jump\t// in\n    tag_80:\n      pop\n        /* \"\\xe8\\x87\\xaa\\xe5\\xb7\\xb1\\xe5\\x86\\x99\\xe4\\xb8\\xaa\\xe7\\x9f\\xbf\\xe6\\xb1\\xa0,\\xe5\\xae\\x9a\\xe6\\x81\\xaf\\xe7\\x9f\\xbf\\xe6\\xb1\\xa0.sol\":2211:2254  Trasfer(msg.sender, address(this), _amount) */\n      mload(0x40)\n        /* \"#utility.yul\":745:770   */\n      dup3\n      dup2\n      mstore\n        /* \"\\xe8\\x87\\xaa\\xe5\\xb7\\xb1\\xe5\\x86\\x99\\xe4\\xb8\\xaa\\xe7\\x9f\\xbf\\xe6\\xb1\\xa0,\\xe5\\xae\\x9a\\xe6\\x81\\xaf\\xe7\\x9f\\xbf\\xe6\\xb1\\xa0.sol\":2239:2243  this */\n      address\n      swap1\n        /* \"\\xe8\\x87\\xaa\\xe5\\xb7\\xb1\\xe5\\x86\\x99\\xe4\\xb8\\xaa\\xe7\\x9f\\xbf\\xe6\\xb1\\xa0,\\xe5\\xae\\x9a\\xe6\\x81\\xaf\\xe7\\x9f\\xbf\\xe6\\xb1\\xa0.sol\":2219:2229  msg.sender */\n      caller\n      swap1\n        /* \"\\xe8\\x87\\xaa\\xe5\\xb7\\xb1\\xe5\\x86\\x99\\xe4\\xb8\\xaa\\xe7\\x9f\\xbf\\xe6\\xb1\\xa0,\\xe5\\xae\\x9a\\xe6\\x81\\xaf\\xe7\\x9f\\xbf\\xe6\\xb1\\xa0.sol\":2211:2254  Trasfer(msg.sender, address(this), _amount) */\n      0x1fd6ebb971d137acf3f01670862b8a96758cfc7e39dccb093e68daf461b0262c\n      swap1\n        /* \"#utility.yul\":733:735   */\n      0x20\n        /* \"#utility.yul\":718:736   */\n      add\n        /* \"\\xe8\\x87\\xaa\\xe5\\xb7\\xb1\\xe5\\x86\\x99\\xe4\\xb8\\xaa\\xe7\\x9f\\xbf\\xe6\\xb1\\xa0,\\xe5\\xae\\x9a\\xe6\\x81\\xaf\\xe7\\x9f\\xbf\\xe6\\xb1\\xa0.sol\":2211:2254  Trasfer(msg.sender, address(this), _amount) */\n      mload(0x40)\n      dup1\n      swap2\n      sub\n      swap1\n      log3\n        /* \"\\xe8\\x87\\xaa\\xe5\\xb7\\xb1\\xe5\\x86\\x99\\xe4\\xb8\\xaa\\xe7\\x9f\\xbf\\xe6\\xb1\\xa0,\\xe5\\xae\\x9a\\xe6\\x81\\xaf\\xe7\\x9f\\xbf\\xe6\\xb1\\xa0.sol\":2405:2410  ratio */\n      0x00\n      dup1\n      sload\n        /* \"\\xe8\\x87\\xaa\\xe5\\xb7\\xb1\\xe5\\x86\\x99\\xe4\\xb8\\xaa\\xe7\\x9f\\xbf\\xe6\\xb1\\xa0,\\xe5\\xae\\x9a\\xe6\\x81\\xaf\\xe7\\x9f\\xbf\\xe6\\xb1\\xa0.sol\":2379:2389  msg.sender */\n      caller\n        /* \"\\xe8\\x87\\xaa\\xe5\\xb7\\xb1\\xe5\\x86\\x99\\xe4\\xb8\\xaa\\xe7\\x9f\\xbf\\xe6\\xb1\\xa0,\\xe5\\xae\\x9a\\xe6\\x81\\xaf\\xe7\\x9f\\xbf\\xe6\\xb1\\xa0.sol\":2370:2390  User_Map[msg.sender] */\n      dup3\n      mstore\n        /* \"\\xe8\\x87\\xaa\\xe5\\xb7\\xb1\\xe5\\x86\\x99\\xe4\\xb8\\xaa\\xe7\\x9f\\xbf\\xe6\\xb1\\xa0,\\xe5\\xae\\x9a\\xe6\\x81\\xaf\\xe7\\x9f\\xbf\\xe6\\xb1\\xa0.sol\":2370:2378  User_Map */\n      0x05\n        /* \"\\xe8\\x87\\xaa\\xe5\\xb7\\xb1\\xe5\\x86\\x99\\xe4\\xb8\\xaa\\xe7\\x9f\\xbf\\xe6\\xb1\\xa0,\\xe5\\xae\\x9a\\xe6\\x81\\xaf\\xe7\\x9f\\xbf\\xe6\\xb1\\xa0.sol\":2370:2390  User_Map[msg.sender] */\n      0x20\n      mstore\n      0x40\n      swap1\n      swap2\n      keccak256\n        /* \"\\xe8\\x87\\xaa\\xe5\\xb7\\xb1\\xe5\\x86\\x99\\xe4\\xb8\\xaa\\xe7\\x9f\\xbf\\xe6\\xb1\\xa0,\\xe5\\xae\\x9a\\xe6\\x81\\xaf\\xe7\\x9f\\xbf\\xe6\\xb1\\xa0.sol\":2370:2402  User_Map[msg.sender].stakeNumber */\n      sload\n        /* \"\\xe8\\x87\\xaa\\xe5\\xb7\\xb1\\xe5\\x86\\x99\\xe4\\xb8\\xaa\\xe7\\x9f\\xbf\\xe6\\xb1\\xa0,\\xe5\\xae\\x9a\\xe6\\x81\\xaf\\xe7\\x9f\\xbf\\xe6\\xb1\\xa0.sol\":2419:2427  31536000 */\n      0x01e13380\n      swap2\n        /* \"\\xe8\\x87\\xaa\\xe5\\xb7\\xb1\\xe5\\x86\\x99\\xe4\\xb8\\xaa\\xe7\\x9f\\xbf\\xe6\\xb1\\xa0,\\xe5\\xae\\x9a\\xe6\\x81\\xaf\\xe7\\x9f\\xbf\\xe6\\xb1\\xa0.sol\":2412:2415  100 */\n      0x64\n      swap2\n        /* \"\\xe8\\x87\\xaa\\xe5\\xb7\\xb1\\xe5\\x86\\x99\\xe4\\xb8\\xaa\\xe7\\x9f\\xbf\\xe6\\xb1\\xa0,\\xe5\\xae\\x9a\\xe6\\x81\\xaf\\xe7\\x9f\\xbf\\xe6\\xb1\\xa0.sol\":2370:2410  User_Map[msg.sender].stakeNumber * ratio */\n      tag_82\n      swap2\n        /* \"\\xe8\\x87\\xaa\\xe5\\xb7\\xb1\\xe5\\x86\\x99\\xe4\\xb8\\xaa\\xe7\\x9f\\xbf\\xe6\\xb1\\xa0,\\xe5\\xae\\x9a\\xe6\\x81\\xaf\\xe7\\x9f\\xbf\\xe6\\xb1\\xa0.sol\":2405:2410  ratio */\n      swap1\n        /* \"\\xe8\\x87\\xaa\\xe5\\xb7\\xb1\\xe5\\x86\\x99\\xe4\\xb8\\xaa\\xe7\\x9f\\xbf\\xe6\\xb1\\xa0,\\xe5\\xae\\x9a\\xe6\\x81\\xaf\\xe7\\x9f\\xbf\\xe6\\xb1\\xa0.sol\":2370:2410  User_Map[msg.sender].stakeNumber * ratio */\n      tag_83\n      jump\t// in\n    tag_82:\n        /* \"\\xe8\\x87\\xaa\\xe5\\xb7\\xb1\\xe5\\x86\\x99\\xe4\\xb8\\xaa\\xe7\\x9f\\xbf\\xe6\\xb1\\xa0,\\xe5\\xae\\x9a\\xe6\\x81\\xaf\\xe7\\x9f\\xbf\\xe6\\xb1\\xa0.sol\":2370:2415  User_Map[msg.sender].stakeNumber * ratio /100 */\n      tag_84\n      swap2\n      swap1\n      tag_85\n      jump\t// in\n    tag_84:\n        /* \"\\xe8\\x87\\xaa\\xe5\\xb7\\xb1\\xe5\\x86\\x99\\xe4\\xb8\\xaa\\xe7\\x9f\\xbf\\xe6\\xb1\\xa0,\\xe5\\xae\\x9a\\xe6\\x81\\xaf\\xe7\\x9f\\xbf\\xe6\\xb1\\xa0.sol\":2369:2427  (User_Map[msg.sender].stakeNumber * ratio /100) / 31536000 */\n      tag_86\n      swap2\n      swap1\n      tag_85\n      jump\t// in\n    tag_86:\n        /* \"\\xe8\\x87\\xaa\\xe5\\xb7\\xb1\\xe5\\x86\\x99\\xe4\\xb8\\xaa\\xe7\\x9f\\xbf\\xe6\\xb1\\xa0,\\xe5\\xae\\x9a\\xe6\\x81\\xaf\\xe7\\x9f\\xbf\\xe6\\xb1\\xa0.sol\":2337:2347  msg.sender */\n      caller\n        /* \"\\xe8\\x87\\xaa\\xe5\\xb7\\xb1\\xe5\\x86\\x99\\xe4\\xb8\\xaa\\xe7\\x9f\\xbf\\xe6\\xb1\\xa0,\\xe5\\xae\\x9a\\xe6\\x81\\xaf\\xe7\\x9f\\xbf\\xe6\\xb1\\xa0.sol\":2328:2348  User_Map[msg.sender] */\n      0x00\n      swap1\n      dup2\n      mstore\n        /* \"\\xe8\\x87\\xaa\\xe5\\xb7\\xb1\\xe5\\x86\\x99\\xe4\\xb8\\xaa\\xe7\\x9f\\xbf\\xe6\\xb1\\xa0,\\xe5\\xae\\x9a\\xe6\\x81\\xaf\\xe7\\x9f\\xbf\\xe6\\xb1\\xa0.sol\":2328:2336  User_Map */\n      0x05\n        /* \"\\xe8\\x87\\xaa\\xe5\\xb7\\xb1\\xe5\\x86\\x99\\xe4\\xb8\\xaa\\xe7\\x9f\\xbf\\xe6\\xb1\\xa0,\\xe5\\xae\\x9a\\xe6\\x81\\xaf\\xe7\\x9f\\xbf\\xe6\\xb1\\xa0.sol\":2328:2348  User_Map[msg.sender] */\n      0x20\n      mstore\n      0x40\n      swap1\n      keccak256\n        /* \"\\xe8\\x87\\xaa\\xe5\\xb7\\xb1\\xe5\\x86\\x99\\xe4\\xb8\\xaa\\xe7\\x9f\\xbf\\xe6\\xb1\\xa0,\\xe5\\xae\\x9a\\xe6\\x81\\xaf\\xe7\\x9f\\xbf\\xe6\\xb1\\xa0.sol\":2328:2364  User_Map[msg.sender].last_Stake_Time */\n      0x01\n      add\n      sload\n        /* \"\\xe8\\x87\\xaa\\xe5\\xb7\\xb1\\xe5\\x86\\x99\\xe4\\xb8\\xaa\\xe7\\x9f\\xbf\\xe6\\xb1\\xa0,\\xe5\\xae\\x9a\\xe6\\x81\\xaf\\xe7\\x9f\\xbf\\xe6\\xb1\\xa0.sol\":2310:2364  block.timestamp - User_Map[msg.sender].last_Stake_Time */\n      tag_87\n      swap1\n        /* \"\\xe8\\x87\\xaa\\xe5\\xb7\\xb1\\xe5\\x86\\x99\\xe4\\xb8\\xaa\\xe7\\x9f\\xbf\\xe6\\xb1\\xa0,\\xe5\\xae\\x9a\\xe6\\x81\\xaf\\xe7\\x9f\\xbf\\xe6\\xb1\\xa0.sol\":2310:2325  block.timestamp */\n      timestamp\n        /* \"\\xe8\\x87\\xaa\\xe5\\xb7\\xb1\\xe5\\x86\\x99\\xe4\\xb8\\xaa\\xe7\\x9f\\xbf\\xe6\\xb1\\xa0,\\xe5\\xae\\x9a\\xe6\\x81\\xaf\\xe7\\x9f\\xbf\\xe6\\xb1\\xa0.sol\":2310:2364  block.timestamp - User_Map[msg.sender].last_Stake_Time */\n      tag_74\n      jump\t// in\n    tag_87:\n        /* \"\\xe8\\x87\\xaa\\xe5\\xb7\\xb1\\xe5\\x86\\x99\\xe4\\xb8\\xaa\\xe7\\x9f\\xbf\\xe6\\xb1\\xa0,\\xe5\\xae\\x9a\\xe6\\x81\\xaf\\xe7\\x9f\\xbf\\xe6\\xb1\\xa0.sol\":2309:2428  (block.timestamp - User_Map[msg.sender].last_Stake_Time) * ((User_Map[msg.sender].stakeNumber * ratio /100) / 31536000) */\n      tag_88\n      swap2\n      swap1\n      tag_83\n      jump\t// in\n    tag_88:\n        /* \"\\xe8\\x87\\xaa\\xe5\\xb7\\xb1\\xe5\\x86\\x99\\xe4\\xb8\\xaa\\xe7\\x9f\\xbf\\xe6\\xb1\\xa0,\\xe5\\xae\\x9a\\xe6\\x81\\xaf\\xe7\\x9f\\xbf\\xe6\\xb1\\xa0.sol\":2276:2286  msg.sender */\n      caller\n        /* \"\\xe8\\x87\\xaa\\xe5\\xb7\\xb1\\xe5\\x86\\x99\\xe4\\xb8\\xaa\\xe7\\x9f\\xbf\\xe6\\xb1\\xa0,\\xe5\\xae\\x9a\\xe6\\x81\\xaf\\xe7\\x9f\\xbf\\xe6\\xb1\\xa0.sol\":2267:2287  User_Map[msg.sender] */\n      0x00\n      swap1\n      dup2\n      mstore\n        /* \"\\xe8\\x87\\xaa\\xe5\\xb7\\xb1\\xe5\\x86\\x99\\xe4\\xb8\\xaa\\xe7\\x9f\\xbf\\xe6\\xb1\\xa0,\\xe5\\xae\\x9a\\xe6\\x81\\xaf\\xe7\\x9f\\xbf\\xe6\\xb1\\xa0.sol\":2267:2275  User_Map */\n      0x05\n        /* \"\\xe8\\x87\\xaa\\xe5\\xb7\\xb1\\xe5\\x86\\x99\\xe4\\xb8\\xaa\\xe7\\x9f\\xbf\\xe6\\xb1\\xa0,\\xe5\\xae\\x9a\\xe6\\x81\\xaf\\xe7\\x9f\\xbf\\xe6\\xb1\\xa0.sol\":2267:2287  User_Map[msg.sender] */\n      0x20\n      mstore\n      0x40\n      dup2\n      keccak256\n        /* \"\\xe8\\x87\\xaa\\xe5\\xb7\\xb1\\xe5\\x86\\x99\\xe4\\xb8\\xaa\\xe7\\x9f\\xbf\\xe6\\xb1\\xa0,\\xe5\\xae\\x9a\\xe6\\x81\\xaf\\xe7\\x9f\\xbf\\xe6\\xb1\\xa0.sol\":2267:2306  User_Map[msg.sender].last_totoken_ratio */\n      0x02\n      dup2\n      add\n        /* \"\\xe8\\x87\\xaa\\xe5\\xb7\\xb1\\xe5\\x86\\x99\\xe4\\xb8\\xaa\\xe7\\x9f\\xbf\\xe6\\xb1\\xa0,\\xe5\\xae\\x9a\\xe6\\x81\\xaf\\xe7\\x9f\\xbf\\xe6\\xb1\\xa0.sol\":2267:2428  User_Map[msg.sender].last_totoken_ratio = (block.timestamp - User_Map[msg.sender].last_Stake_Time) * ((User_Map[msg.sender].stakeNumber * ratio /100) / 31536000) */\n      swap3\n      swap1\n      swap3\n      sstore\n        /* \"\\xe8\\x87\\xaa\\xe5\\xb7\\xb1\\xe5\\x86\\x99\\xe4\\xb8\\xaa\\xe7\\x9f\\xbf\\xe6\\xb1\\xa0,\\xe5\\xae\\x9a\\xe6\\x81\\xaf\\xe7\\x9f\\xbf\\xe6\\xb1\\xa0.sol\":2441:2484  User_Map[msg.sender].stakeNumber += _amount */\n      dup2\n      sload\n        /* \"\\xe8\\x87\\xaa\\xe5\\xb7\\xb1\\xe5\\x86\\x99\\xe4\\xb8\\xaa\\xe7\\x9f\\xbf\\xe6\\xb1\\xa0,\\xe5\\xae\\x9a\\xe6\\x81\\xaf\\xe7\\x9f\\xbf\\xe6\\xb1\\xa0.sol\":2477:2484  _amount */\n      dup5\n      swap3\n        /* \"\\xe8\\x87\\xaa\\xe5\\xb7\\xb1\\xe5\\x86\\x99\\xe4\\xb8\\xaa\\xe7\\x9f\\xbf\\xe6\\xb1\\xa0,\\xe5\\xae\\x9a\\xe6\\x81\\xaf\\xe7\\x9f\\xbf\\xe6\\xb1\\xa0.sol\":2267:2287  User_Map[msg.sender] */\n      swap2\n      swap1\n        /* \"\\xe8\\x87\\xaa\\xe5\\xb7\\xb1\\xe5\\x86\\x99\\xe4\\xb8\\xaa\\xe7\\x9f\\xbf\\xe6\\xb1\\xa0,\\xe5\\xae\\x9a\\xe6\\x81\\xaf\\xe7\\x9f\\xbf\\xe6\\xb1\\xa0.sol\":2441:2484  User_Map[msg.sender].stakeNumber += _amount */\n      tag_89\n      swap1\n        /* \"\\xe8\\x87\\xaa\\xe5\\xb7\\xb1\\xe5\\x86\\x99\\xe4\\xb8\\xaa\\xe7\\x9f\\xbf\\xe6\\xb1\\xa0,\\xe5\\xae\\x9a\\xe6\\x81\\xaf\\xe7\\x9f\\xbf\\xe6\\xb1\\xa0.sol\":2477:2484  _amount */\n      dup5\n      swap1\n        /* \"\\xe8\\x87\\xaa\\xe5\\xb7\\xb1\\xe5\\x86\\x99\\xe4\\xb8\\xaa\\xe7\\x9f\\xbf\\xe6\\xb1\\xa0,\\xe5\\xae\\x9a\\xe6\\x81\\xaf\\xe7\\x9f\\xbf\\xe6\\xb1\\xa0.sol\":2441:2484  User_Map[msg.sender].stakeNumber += _amount */\n      tag_90\n      jump\t// in\n    tag_89:\n      swap1\n      swap2\n      sstore\n      pop\n      pop\n        /* \"\\xe8\\x87\\xaa\\xe5\\xb7\\xb1\\xe5\\x86\\x99\\xe4\\xb8\\xaa\\xe7\\x9f\\xbf\\xe6\\xb1\\xa0,\\xe5\\xae\\x9a\\xe6\\x81\\xaf\\xe7\\x9f\\xbf\\xe6\\xb1\\xa0.sol\":2504:2514  msg.sender */\n      caller\n        /* \"\\xe8\\x87\\xaa\\xe5\\xb7\\xb1\\xe5\\x86\\x99\\xe4\\xb8\\xaa\\xe7\\x9f\\xbf\\xe6\\xb1\\xa0,\\xe5\\xae\\x9a\\xe6\\x81\\xaf\\xe7\\x9f\\xbf\\xe6\\xb1\\xa0.sol\":2495:2515  User_Map[msg.sender] */\n      0x00\n      swap1\n      dup2\n      mstore\n        /* \"\\xe8\\x87\\xaa\\xe5\\xb7\\xb1\\xe5\\x86\\x99\\xe4\\xb8\\xaa\\xe7\\x9f\\xbf\\xe6\\xb1\\xa0,\\xe5\\xae\\x9a\\xe6\\x81\\xaf\\xe7\\x9f\\xbf\\xe6\\xb1\\xa0.sol\":2495:2503  User_Map */\n      0x05\n        /* \"\\xe8\\x87\\xaa\\xe5\\xb7\\xb1\\xe5\\x86\\x99\\xe4\\xb8\\xaa\\xe7\\x9f\\xbf\\xe6\\xb1\\xa0,\\xe5\\xae\\x9a\\xe6\\x81\\xaf\\xe7\\x9f\\xbf\\xe6\\xb1\\xa0.sol\":2495:2515  User_Map[msg.sender] */\n      0x20\n      mstore\n      0x40\n      dup2\n      keccak256\n        /* \"\\xe8\\x87\\xaa\\xe5\\xb7\\xb1\\xe5\\x86\\x99\\xe4\\xb8\\xaa\\xe7\\x9f\\xbf\\xe6\\xb1\\xa0,\\xe5\\xae\\x9a\\xe6\\x81\\xaf\\xe7\\x9f\\xbf\\xe6\\xb1\\xa0.sol\":2534:2549  block.timestamp */\n      timestamp\n        /* \"\\xe8\\x87\\xaa\\xe5\\xb7\\xb1\\xe5\\x86\\x99\\xe4\\xb8\\xaa\\xe7\\x9f\\xbf\\xe6\\xb1\\xa0,\\xe5\\xae\\x9a\\xe6\\x81\\xaf\\xe7\\x9f\\xbf\\xe6\\xb1\\xa0.sol\":2495:2531  User_Map[msg.sender].last_Stake_Time */\n      0x01\n      swap1\n      swap2\n      add\n        /* \"\\xe8\\x87\\xaa\\xe5\\xb7\\xb1\\xe5\\x86\\x99\\xe4\\xb8\\xaa\\xe7\\x9f\\xbf\\xe6\\xb1\\xa0,\\xe5\\xae\\x9a\\xe6\\x81\\xaf\\xe7\\x9f\\xbf\\xe6\\xb1\\xa0.sol\":2495:2549  User_Map[msg.sender].last_Stake_Time = block.timestamp */\n      sstore\n        /* \"\\xe8\\x87\\xaa\\xe5\\xb7\\xb1\\xe5\\x86\\x99\\xe4\\xb8\\xaa\\xe7\\x9f\\xbf\\xe6\\xb1\\xa0,\\xe5\\xae\\x9a\\xe6\\x81\\xaf\\xe7\\x9f\\xbf\\xe6\\xb1\\xa0.sol\":2560:2571  stakeSupple */\n      0x03\n        /* \"\\xe8\\x87\\xaa\\xe5\\xb7\\xb1\\xe5\\x86\\x99\\xe4\\xb8\\xaa\\xe7\\x9f\\xbf\\xe6\\xb1\\xa0,\\xe5\\xae\\x9a\\xe6\\x81\\xaf\\xe7\\x9f\\xbf\\xe6\\xb1\\xa0.sol\":2560:2582  stakeSupple += _amount */\n      dup1\n      sload\n        /* \"\\xe8\\x87\\xaa\\xe5\\xb7\\xb1\\xe5\\x86\\x99\\xe4\\xb8\\xaa\\xe7\\x9f\\xbf\\xe6\\xb1\\xa0,\\xe5\\xae\\x9a\\xe6\\x81\\xaf\\xe7\\x9f\\xbf\\xe6\\xb1\\xa0.sol\":2575:2582  _amount */\n      dup5\n      swap3\n        /* \"\\xe8\\x87\\xaa\\xe5\\xb7\\xb1\\xe5\\x86\\x99\\xe4\\xb8\\xaa\\xe7\\x9f\\xbf\\xe6\\xb1\\xa0,\\xe5\\xae\\x9a\\xe6\\x81\\xaf\\xe7\\x9f\\xbf\\xe6\\xb1\\xa0.sol\":2495:2515  User_Map[msg.sender] */\n      swap1\n        /* \"\\xe8\\x87\\xaa\\xe5\\xb7\\xb1\\xe5\\x86\\x99\\xe4\\xb8\\xaa\\xe7\\x9f\\xbf\\xe6\\xb1\\xa0,\\xe5\\xae\\x9a\\xe6\\x81\\xaf\\xe7\\x9f\\xbf\\xe6\\xb1\\xa0.sol\":2560:2582  stakeSupple += _amount */\n      tag_91\n      swap1\n        /* \"\\xe8\\x87\\xaa\\xe5\\xb7\\xb1\\xe5\\x86\\x99\\xe4\\xb8\\xaa\\xe7\\x9f\\xbf\\xe6\\xb1\\xa0,\\xe5\\xae\\x9a\\xe6\\x81\\xaf\\xe7\\x9f\\xbf\\xe6\\xb1\\xa0.sol\":2575:2582  _amount */\n      dup5\n      swap1\n        /* \"\\xe8\\x87\\xaa\\xe5\\xb7\\xb1\\xe5\\x86\\x99\\xe4\\xb8\\xaa\\xe7\\x9f\\xbf\\xe6\\xb1\\xa0,\\xe5\\xae\\x9a\\xe6\\x81\\xaf\\xe7\\x9f\\xbf\\xe6\\xb1\\xa0.sol\":2560:2582  stakeSupple += _amount */\n      tag_90\n      jump\t// in\n    tag_91:\n      swap1\n      swap2\n      sstore\n      pop\n      pop\n        /* \"\\xe8\\x87\\xaa\\xe5\\xb7\\xb1\\xe5\\x86\\x99\\xe4\\xb8\\xaa\\xe7\\x9f\\xbf\\xe6\\xb1\\xa0,\\xe5\\xae\\x9a\\xe6\\x81\\xaf\\xe7\\x9f\\xbf\\xe6\\xb1\\xa0.sol\":2643:2653  msg.sender */\n      caller\n        /* \"\\xe8\\x87\\xaa\\xe5\\xb7\\xb1\\xe5\\x86\\x99\\xe4\\xb8\\xaa\\xe7\\x9f\\xbf\\xe6\\xb1\\xa0,\\xe5\\xae\\x9a\\xe6\\x81\\xaf\\xe7\\x9f\\xbf\\xe6\\xb1\\xa0.sol\":2634:2654  User_Map[msg.sender] */\n      0x00\n      swap1\n      dup2\n      mstore\n        /* \"\\xe8\\x87\\xaa\\xe5\\xb7\\xb1\\xe5\\x86\\x99\\xe4\\xb8\\xaa\\xe7\\x9f\\xbf\\xe6\\xb1\\xa0,\\xe5\\xae\\x9a\\xe6\\x81\\xaf\\xe7\\x9f\\xbf\\xe6\\xb1\\xa0.sol\":2634:2642  User_Map */\n      0x05\n        /* \"\\xe8\\x87\\xaa\\xe5\\xb7\\xb1\\xe5\\x86\\x99\\xe4\\xb8\\xaa\\xe7\\x9f\\xbf\\xe6\\xb1\\xa0,\\xe5\\xae\\x9a\\xe6\\x81\\xaf\\xe7\\x9f\\xbf\\xe6\\xb1\\xa0.sol\":2634:2654  User_Map[msg.sender] */\n      0x20\n      mstore\n      0x40\n      swap1\n      keccak256\n        /* \"\\xe8\\x87\\xaa\\xe5\\xb7\\xb1\\xe5\\x86\\x99\\xe4\\xb8\\xaa\\xe7\\x9f\\xbf\\xe6\\xb1\\xa0,\\xe5\\xae\\x9a\\xe6\\x81\\xaf\\xe7\\x9f\\xbf\\xe6\\xb1\\xa0.sol\":2634:2670  User_Map[msg.sender].last_Stake_Time */\n      0x01\n      dup1\n      dup3\n      add\n      sload\n        /* \"\\xe8\\x87\\xaa\\xe5\\xb7\\xb1\\xe5\\x86\\x99\\xe4\\xb8\\xaa\\xe7\\x9f\\xbf\\xe6\\xb1\\xa0,\\xe5\\xae\\x9a\\xe6\\x81\\xaf\\xe7\\x9f\\xbf\\xe6\\xb1\\xa0.sol\":2593:2631  User_Map[msg.sender].last_totoken_Time */\n      0x04\n      swap1\n      swap3\n      add\n        /* \"\\xe8\\x87\\xaa\\xe5\\xb7\\xb1\\xe5\\x86\\x99\\xe4\\xb8\\xaa\\xe7\\x9f\\xbf\\xe6\\xb1\\xa0,\\xe5\\xae\\x9a\\xe6\\x81\\xaf\\xe7\\x9f\\xbf\\xe6\\xb1\\xa0.sol\":2593:2670  User_Map[msg.sender].last_totoken_Time = User_Map[msg.sender].last_Stake_Time */\n      swap2\n      swap1\n      swap2\n      sstore\n        /* \"\\xe8\\x87\\xaa\\xe5\\xb7\\xb1\\xe5\\x86\\x99\\xe4\\xb8\\xaa\\xe7\\x9f\\xbf\\xe6\\xb1\\xa0,\\xe5\\xae\\x9a\\xe6\\x81\\xaf\\xe7\\x9f\\xbf\\xe6\\xb1\\xa0.sol\":2634:2670  User_Map[msg.sender].last_Stake_Time */\n      swap3\n        /* \"\\xe8\\x87\\xaa\\xe5\\xb7\\xb1\\xe5\\x86\\x99\\xe4\\xb8\\xaa\\xe7\\x9f\\xbf\\xe6\\xb1\\xa0,\\xe5\\xae\\x9a\\xe6\\x81\\xaf\\xe7\\x9f\\xbf\\xe6\\xb1\\xa0.sol\":2062:2704  function Stake(uint _amount) public returns (bool){... */\n      swap2\n      pop\n      pop\n      jump\t// out\n        /* \"\\xe8\\x87\\xaa\\xe5\\xb7\\xb1\\xe5\\x86\\x99\\xe4\\xb8\\xaa\\xe7\\x9f\\xbf\\xe6\\xb1\\xa0,\\xe5\\xae\\x9a\\xe6\\x81\\xaf\\xe7\\x9f\\xbf\\xe6\\xb1\\xa0.sol\":3071:3762  function harvest() public returns (bool) {... */\n    tag_32:\n        /* \"\\xe8\\x87\\xaa\\xe5\\xb7\\xb1\\xe5\\x86\\x99\\xe4\\xb8\\xaa\\xe7\\x9f\\xbf\\xe6\\xb1\\xa0,\\xe5\\xae\\x9a\\xe6\\x81\\xaf\\xe7\\x9f\\xbf\\xe6\\xb1\\xa0.sol\":3106:3110  bool */\n      0x00\n        /* \"\\xe8\\x87\\xaa\\xe5\\xb7\\xb1\\xe5\\x86\\x99\\xe4\\xb8\\xaa\\xe7\\x9f\\xbf\\xe6\\xb1\\xa0,\\xe5\\xae\\x9a\\xe6\\x81\\xaf\\xe7\\x9f\\xbf\\xe6\\xb1\\xa0.sol\":3296:3301  ratio */\n      dup1\n      sload\n        /* \"\\xe8\\x87\\xaa\\xe5\\xb7\\xb1\\xe5\\x86\\x99\\xe4\\xb8\\xaa\\xe7\\x9f\\xbf\\xe6\\xb1\\xa0,\\xe5\\xae\\x9a\\xe6\\x81\\xaf\\xe7\\x9f\\xbf\\xe6\\xb1\\xa0.sol\":3270:3280  msg.sender */\n      caller\n        /* \"\\xe8\\x87\\xaa\\xe5\\xb7\\xb1\\xe5\\x86\\x99\\xe4\\xb8\\xaa\\xe7\\x9f\\xbf\\xe6\\xb1\\xa0,\\xe5\\xae\\x9a\\xe6\\x81\\xaf\\xe7\\x9f\\xbf\\xe6\\xb1\\xa0.sol\":3261:3281  User_Map[msg.sender] */\n      dup3\n      mstore\n        /* \"\\xe8\\x87\\xaa\\xe5\\xb7\\xb1\\xe5\\x86\\x99\\xe4\\xb8\\xaa\\xe7\\x9f\\xbf\\xe6\\xb1\\xa0,\\xe5\\xae\\x9a\\xe6\\x81\\xaf\\xe7\\x9f\\xbf\\xe6\\xb1\\xa0.sol\":3261:3269  User_Map */\n      0x05\n        /* \"\\xe8\\x87\\xaa\\xe5\\xb7\\xb1\\xe5\\x86\\x99\\xe4\\xb8\\xaa\\xe7\\x9f\\xbf\\xe6\\xb1\\xa0,\\xe5\\xae\\x9a\\xe6\\x81\\xaf\\xe7\\x9f\\xbf\\xe6\\xb1\\xa0.sol\":3261:3281  User_Map[msg.sender] */\n      0x20\n      mstore\n      0x40\n      dup3\n      keccak256\n        /* \"\\xe8\\x87\\xaa\\xe5\\xb7\\xb1\\xe5\\x86\\x99\\xe4\\xb8\\xaa\\xe7\\x9f\\xbf\\xe6\\xb1\\xa0,\\xe5\\xae\\x9a\\xe6\\x81\\xaf\\xe7\\x9f\\xbf\\xe6\\xb1\\xa0.sol\":3261:3293  User_Map[msg.sender].stakeNumber */\n      sload\n        /* \"\\xe8\\x87\\xaa\\xe5\\xb7\\xb1\\xe5\\x86\\x99\\xe4\\xb8\\xaa\\xe7\\x9f\\xbf\\xe6\\xb1\\xa0,\\xe5\\xae\\x9a\\xe6\\x81\\xaf\\xe7\\x9f\\xbf\\xe6\\xb1\\xa0.sol\":3310:3318  31536000 */\n      0x01e13380\n      swap2\n        /* \"\\xe8\\x87\\xaa\\xe5\\xb7\\xb1\\xe5\\x86\\x99\\xe4\\xb8\\xaa\\xe7\\x9f\\xbf\\xe6\\xb1\\xa0,\\xe5\\xae\\x9a\\xe6\\x81\\xaf\\xe7\\x9f\\xbf\\xe6\\xb1\\xa0.sol\":3303:3306  100 */\n      0x64\n      swap2\n        /* \"\\xe8\\x87\\xaa\\xe5\\xb7\\xb1\\xe5\\x86\\x99\\xe4\\xb8\\xaa\\xe7\\x9f\\xbf\\xe6\\xb1\\xa0,\\xe5\\xae\\x9a\\xe6\\x81\\xaf\\xe7\\x9f\\xbf\\xe6\\xb1\\xa0.sol\":3261:3301  User_Map[msg.sender].stakeNumber * ratio */\n      tag_93\n      swap2\n        /* \"\\xe8\\x87\\xaa\\xe5\\xb7\\xb1\\xe5\\x86\\x99\\xe4\\xb8\\xaa\\xe7\\x9f\\xbf\\xe6\\xb1\\xa0,\\xe5\\xae\\x9a\\xe6\\x81\\xaf\\xe7\\x9f\\xbf\\xe6\\xb1\\xa0.sol\":3296:3301  ratio */\n      swap1\n        /* \"\\xe8\\x87\\xaa\\xe5\\xb7\\xb1\\xe5\\x86\\x99\\xe4\\xb8\\xaa\\xe7\\x9f\\xbf\\xe6\\xb1\\xa0,\\xe5\\xae\\x9a\\xe6\\x81\\xaf\\xe7\\x9f\\xbf\\xe6\\xb1\\xa0.sol\":3261:3301  User_Map[msg.sender].stakeNumber * ratio */\n      tag_83\n      jump\t// in\n    tag_93:\n        /* \"\\xe8\\x87\\xaa\\xe5\\xb7\\xb1\\xe5\\x86\\x99\\xe4\\xb8\\xaa\\xe7\\x9f\\xbf\\xe6\\xb1\\xa0,\\xe5\\xae\\x9a\\xe6\\x81\\xaf\\xe7\\x9f\\xbf\\xe6\\xb1\\xa0.sol\":3261:3306  User_Map[msg.sender].stakeNumber * ratio /100 */\n      tag_94\n      swap2\n      swap1\n      tag_85\n      jump\t// in\n    tag_94:\n        /* \"\\xe8\\x87\\xaa\\xe5\\xb7\\xb1\\xe5\\x86\\x99\\xe4\\xb8\\xaa\\xe7\\x9f\\xbf\\xe6\\xb1\\xa0,\\xe5\\xae\\x9a\\xe6\\x81\\xaf\\xe7\\x9f\\xbf\\xe6\\xb1\\xa0.sol\":3260:3318  (User_Map[msg.sender].stakeNumber * ratio /100) / 31536000 */\n      tag_95\n      swap2\n      swap1\n      tag_85\n      jump\t// in\n    tag_95:\n        /* \"\\xe8\\x87\\xaa\\xe5\\xb7\\xb1\\xe5\\x86\\x99\\xe4\\xb8\\xaa\\xe7\\x9f\\xbf\\xe6\\xb1\\xa0,\\xe5\\xae\\x9a\\xe6\\x81\\xaf\\xe7\\x9f\\xbf\\xe6\\xb1\\xa0.sol\":3228:3238  msg.sender */\n      caller\n        /* \"\\xe8\\x87\\xaa\\xe5\\xb7\\xb1\\xe5\\x86\\x99\\xe4\\xb8\\xaa\\xe7\\x9f\\xbf\\xe6\\xb1\\xa0,\\xe5\\xae\\x9a\\xe6\\x81\\xaf\\xe7\\x9f\\xbf\\xe6\\xb1\\xa0.sol\":3219:3239  User_Map[msg.sender] */\n      0x00\n      swap1\n      dup2\n      mstore\n        /* \"\\xe8\\x87\\xaa\\xe5\\xb7\\xb1\\xe5\\x86\\x99\\xe4\\xb8\\xaa\\xe7\\x9f\\xbf\\xe6\\xb1\\xa0,\\xe5\\xae\\x9a\\xe6\\x81\\xaf\\xe7\\x9f\\xbf\\xe6\\xb1\\xa0.sol\":3219:3227  User_Map */\n      0x05\n        /* \"\\xe8\\x87\\xaa\\xe5\\xb7\\xb1\\xe5\\x86\\x99\\xe4\\xb8\\xaa\\xe7\\x9f\\xbf\\xe6\\xb1\\xa0,\\xe5\\xae\\x9a\\xe6\\x81\\xaf\\xe7\\x9f\\xbf\\xe6\\xb1\\xa0.sol\":3219:3239  User_Map[msg.sender] */\n      0x20\n      mstore\n      0x40\n      swap1\n      keccak256\n        /* \"\\xe8\\x87\\xaa\\xe5\\xb7\\xb1\\xe5\\x86\\x99\\xe4\\xb8\\xaa\\xe7\\x9f\\xbf\\xe6\\xb1\\xa0,\\xe5\\xae\\x9a\\xe6\\x81\\xaf\\xe7\\x9f\\xbf\\xe6\\xb1\\xa0.sol\":3219:3255  User_Map[msg.sender].last_Stake_Time */\n      0x01\n      add\n      sload\n        /* \"\\xe8\\x87\\xaa\\xe5\\xb7\\xb1\\xe5\\x86\\x99\\xe4\\xb8\\xaa\\xe7\\x9f\\xbf\\xe6\\xb1\\xa0,\\xe5\\xae\\x9a\\xe6\\x81\\xaf\\xe7\\x9f\\xbf\\xe6\\xb1\\xa0.sol\":3201:3255  block.timestamp - User_Map[msg.sender].last_Stake_Time */\n      tag_96\n      swap1\n        /* \"\\xe8\\x87\\xaa\\xe5\\xb7\\xb1\\xe5\\x86\\x99\\xe4\\xb8\\xaa\\xe7\\x9f\\xbf\\xe6\\xb1\\xa0,\\xe5\\xae\\x9a\\xe6\\x81\\xaf\\xe7\\x9f\\xbf\\xe6\\xb1\\xa0.sol\":3201:3216  block.timestamp */\n      timestamp\n        /* \"\\xe8\\x87\\xaa\\xe5\\xb7\\xb1\\xe5\\x86\\x99\\xe4\\xb8\\xaa\\xe7\\x9f\\xbf\\xe6\\xb1\\xa0,\\xe5\\xae\\x9a\\xe6\\x81\\xaf\\xe7\\x9f\\xbf\\xe6\\xb1\\xa0.sol\":3201:3255  block.timestamp - User_Map[msg.sender].last_Stake_Time */\n      tag_74\n      jump\t// in\n    tag_96:\n        /* \"\\xe8\\x87\\xaa\\xe5\\xb7\\xb1\\xe5\\x86\\x99\\xe4\\xb8\\xaa\\xe7\\x9f\\xbf\\xe6\\xb1\\xa0,\\xe5\\xae\\x9a\\xe6\\x81\\xaf\\xe7\\x9f\\xbf\\xe6\\xb1\\xa0.sol\":3200:3319  (block.timestamp - User_Map[msg.sender].last_Stake_Time) * ((User_Map[msg.sender].stakeNumber * ratio /100) / 31536000) */\n      tag_97\n      swap2\n      swap1\n      tag_83\n      jump\t// in\n    tag_97:\n        /* \"\\xe8\\x87\\xaa\\xe5\\xb7\\xb1\\xe5\\x86\\x99\\xe4\\xb8\\xaa\\xe7\\x9f\\xbf\\xe6\\xb1\\xa0,\\xe5\\xae\\x9a\\xe6\\x81\\xaf\\xe7\\x9f\\xbf\\xe6\\xb1\\xa0.sol\":3167:3177  msg.sender */\n      caller\n        /* \"\\xe8\\x87\\xaa\\xe5\\xb7\\xb1\\xe5\\x86\\x99\\xe4\\xb8\\xaa\\xe7\\x9f\\xbf\\xe6\\xb1\\xa0,\\xe5\\xae\\x9a\\xe6\\x81\\xaf\\xe7\\x9f\\xbf\\xe6\\xb1\\xa0.sol\":3158:3178  User_Map[msg.sender] */\n      0x00\n      swap1\n      dup2\n      mstore\n        /* \"\\xe8\\x87\\xaa\\xe5\\xb7\\xb1\\xe5\\x86\\x99\\xe4\\xb8\\xaa\\xe7\\x9f\\xbf\\xe6\\xb1\\xa0,\\xe5\\xae\\x9a\\xe6\\x81\\xaf\\xe7\\x9f\\xbf\\xe6\\xb1\\xa0.sol\":3158:3166  User_Map */\n      0x05\n        /* \"\\xe8\\x87\\xaa\\xe5\\xb7\\xb1\\xe5\\x86\\x99\\xe4\\xb8\\xaa\\xe7\\x9f\\xbf\\xe6\\xb1\\xa0,\\xe5\\xae\\x9a\\xe6\\x81\\xaf\\xe7\\x9f\\xbf\\xe6\\xb1\\xa0.sol\":3158:3178  User_Map[msg.sender] */\n      0x20\n      mstore\n      0x40\n      swap1\n      keccak256\n        /* \"\\xe8\\x87\\xaa\\xe5\\xb7\\xb1\\xe5\\x86\\x99\\xe4\\xb8\\xaa\\xe7\\x9f\\xbf\\xe6\\xb1\\xa0,\\xe5\\xae\\x9a\\xe6\\x81\\xaf\\xe7\\x9f\\xbf\\xe6\\xb1\\xa0.sol\":3158:3197  User_Map[msg.sender].last_totoken_ratio */\n      0x02\n      add\n      sload\n        /* \"\\xe8\\x87\\xaa\\xe5\\xb7\\xb1\\xe5\\x86\\x99\\xe4\\xb8\\xaa\\xe7\\x9f\\xbf\\xe6\\xb1\\xa0,\\xe5\\xae\\x9a\\xe6\\x81\\xaf\\xe7\\x9f\\xbf\\xe6\\xb1\\xa0.sol\":3158:3319  User_Map[msg.sender].last_totoken_ratio + (block.timestamp - User_Map[msg.sender].last_Stake_Time) * ((User_Map[msg.sender].stakeNumber * ratio /100) / 31536000) */\n      tag_98\n      swap2\n      swap1\n      tag_90\n      jump\t// in\n    tag_98:\n        /* \"\\xe8\\x87\\xaa\\xe5\\xb7\\xb1\\xe5\\x86\\x99\\xe4\\xb8\\xaa\\xe7\\x9f\\xbf\\xe6\\xb1\\xa0,\\xe5\\xae\\x9a\\xe6\\x81\\xaf\\xe7\\x9f\\xbf\\xe6\\xb1\\xa0.sol\":3132:3142  msg.sender */\n      caller\n        /* \"\\xe8\\x87\\xaa\\xe5\\xb7\\xb1\\xe5\\x86\\x99\\xe4\\xb8\\xaa\\xe7\\x9f\\xbf\\xe6\\xb1\\xa0,\\xe5\\xae\\x9a\\xe6\\x81\\xaf\\xe7\\x9f\\xbf\\xe6\\xb1\\xa0.sol\":3123:3143  User_Map[msg.sender] */\n      0x00\n      dup2\n      dup2\n      mstore\n        /* \"\\xe8\\x87\\xaa\\xe5\\xb7\\xb1\\xe5\\x86\\x99\\xe4\\xb8\\xaa\\xe7\\x9f\\xbf\\xe6\\xb1\\xa0,\\xe5\\xae\\x9a\\xe6\\x81\\xaf\\xe7\\x9f\\xbf\\xe6\\xb1\\xa0.sol\":3123:3131  User_Map */\n      0x05\n        /* \"\\xe8\\x87\\xaa\\xe5\\xb7\\xb1\\xe5\\x86\\x99\\xe4\\xb8\\xaa\\xe7\\x9f\\xbf\\xe6\\xb1\\xa0,\\xe5\\xae\\x9a\\xe6\\x81\\xaf\\xe7\\x9f\\xbf\\xe6\\xb1\\xa0.sol\":3123:3143  User_Map[msg.sender] */\n      0x20\n      mstore\n      0x40\n      swap1\n      dup2\n      swap1\n      keccak256\n        /* \"\\xe8\\x87\\xaa\\xe5\\xb7\\xb1\\xe5\\x86\\x99\\xe4\\xb8\\xaa\\xe7\\x9f\\xbf\\xe6\\xb1\\xa0,\\xe5\\xae\\x9a\\xe6\\x81\\xaf\\xe7\\x9f\\xbf\\xe6\\xb1\\xa0.sol\":3123:3155  User_Map[msg.sender].whole_ratio */\n      0x03\n      add\n        /* \"\\xe8\\x87\\xaa\\xe5\\xb7\\xb1\\xe5\\x86\\x99\\xe4\\xb8\\xaa\\xe7\\x9f\\xbf\\xe6\\xb1\\xa0,\\xe5\\xae\\x9a\\xe6\\x81\\xaf\\xe7\\x9f\\xbf\\xe6\\xb1\\xa0.sol\":3123:3319  User_Map[msg.sender].whole_ratio = User_Map[msg.sender].last_totoken_ratio + (block.timestamp - User_Map[msg.sender].last_Stake_Time) * ((User_Map[msg.sender].stakeNumber * ratio /100) / 31536000) */\n      dup4\n      swap1\n      sstore\n        /* \"\\xe8\\x87\\xaa\\xe5\\xb7\\xb1\\xe5\\x86\\x99\\xe4\\xb8\\xaa\\xe7\\x9f\\xbf\\xe6\\xb1\\xa0,\\xe5\\xae\\x9a\\xe6\\x81\\xaf\\xe7\\x9f\\xbf\\xe6\\xb1\\xa0.sol\":3339:3346  totoken */\n      sload(0x02)\n        /* \"\\xe8\\x87\\xaa\\xe5\\xb7\\xb1\\xe5\\x86\\x99\\xe4\\xb8\\xaa\\xe7\\x9f\\xbf\\xe6\\xb1\\xa0,\\xe5\\xae\\x9a\\xe6\\x81\\xaf\\xe7\\x9f\\xbf\\xe6\\xb1\\xa0.sol\":3332:3403  IERC20(totoken).transfer(msg.sender,  User_Map[msg.sender].whole_ratio) */\n      swap1\n      mload\n      shl(0xe0, 0xa9059cbb)\n      dup2\n      mstore\n      0x04\n      dup2\n      add\n        /* \"#utility.yul\":1786:1837   */\n      swap3\n      swap1\n      swap3\n      mstore\n        /* \"#utility.yul\":1853:1871   */\n      0x24\n      dup3\n      add\n        /* \"#utility.yul\":1846:1880   */\n      swap3\n      swap1\n      swap3\n      mstore\n      sub(shl(0xa0, 0x01), 0x01)\n        /* \"\\xe8\\x87\\xaa\\xe5\\xb7\\xb1\\xe5\\x86\\x99\\xe4\\xb8\\xaa\\xe7\\x9f\\xbf\\xe6\\xb1\\xa0,\\xe5\\xae\\x9a\\xe6\\x81\\xaf\\xe7\\x9f\\xbf\\xe6\\xb1\\xa0.sol\":3339:3346  totoken */\n      swap1\n      swap2\n      and\n      swap1\n        /* \"\\xe8\\x87\\xaa\\xe5\\xb7\\xb1\\xe5\\x86\\x99\\xe4\\xb8\\xaa\\xe7\\x9f\\xbf\\xe6\\xb1\\xa0,\\xe5\\xae\\x9a\\xe6\\x81\\xaf\\xe7\\x9f\\xbf\\xe6\\xb1\\xa0.sol\":3332:3356  IERC20(totoken).transfer */\n      0xa9059cbb\n      swap1\n        /* \"#utility.yul\":1759:1777   */\n      0x44\n      add\n        /* \"\\xe8\\x87\\xaa\\xe5\\xb7\\xb1\\xe5\\x86\\x99\\xe4\\xb8\\xaa\\xe7\\x9f\\xbf\\xe6\\xb1\\xa0,\\xe5\\xae\\x9a\\xe6\\x81\\xaf\\xe7\\x9f\\xbf\\xe6\\xb1\\xa0.sol\":3332:3403  IERC20(totoken).transfer(msg.sender,  User_Map[msg.sender].whole_ratio) */\n      0x20\n      mload(0x40)\n      dup1\n      dup4\n      sub\n      dup2\n      0x00\n      dup8\n      gas\n      call\n      iszero\n      dup1\n      iszero\n      tag_101\n      jumpi\n      returndatasize\n      0x00\n      dup1\n      returndatacopy\n      revert(0x00, returndatasize)\n    tag_101:\n      pop\n      pop\n      pop\n      pop\n      mload(0x40)\n      returndatasize\n      not(0x1f)\n      0x1f\n      dup3\n      add\n      and\n      dup3\n      add\n      dup1\n      0x40\n      mstore\n      pop\n      dup2\n      add\n      swap1\n      tag_102\n      swap2\n      swap1\n      tag_71\n      jump\t// in\n    tag_102:\n      pop\n        /* \"\\xe8\\x87\\xaa\\xe5\\xb7\\xb1\\xe5\\x86\\x99\\xe4\\xb8\\xaa\\xe7\\x9f\\xbf\\xe6\\xb1\\xa0,\\xe5\\xae\\x9a\\xe6\\x81\\xaf\\xe7\\x9f\\xbf\\xe6\\xb1\\xa0.sol\":3431:3441  msg.sender */\n      caller\n        /* \"\\xe8\\x87\\xaa\\xe5\\xb7\\xb1\\xe5\\x86\\x99\\xe4\\xb8\\xaa\\xe7\\x9f\\xbf\\xe6\\xb1\\xa0,\\xe5\\xae\\x9a\\xe6\\x81\\xaf\\xe7\\x9f\\xbf\\xe6\\xb1\\xa0.sol\":3443:3463  User_Map[msg.sender] */\n      0x00\n      dup2\n      dup2\n      mstore\n        /* \"\\xe8\\x87\\xaa\\xe5\\xb7\\xb1\\xe5\\x86\\x99\\xe4\\xb8\\xaa\\xe7\\x9f\\xbf\\xe6\\xb1\\xa0,\\xe5\\xae\\x9a\\xe6\\x81\\xaf\\xe7\\x9f\\xbf\\xe6\\xb1\\xa0.sol\":3443:3451  User_Map */\n      0x05\n        /* \"\\xe8\\x87\\xaa\\xe5\\xb7\\xb1\\xe5\\x86\\x99\\xe4\\xb8\\xaa\\xe7\\x9f\\xbf\\xe6\\xb1\\xa0,\\xe5\\xae\\x9a\\xe6\\x81\\xaf\\xe7\\x9f\\xbf\\xe6\\xb1\\xa0.sol\":3443:3463  User_Map[msg.sender] */\n      0x20\n      swap1\n      dup2\n      mstore\n      0x40\n      swap2\n      dup3\n      swap1\n      keccak256\n        /* \"\\xe8\\x87\\xaa\\xe5\\xb7\\xb1\\xe5\\x86\\x99\\xe4\\xb8\\xaa\\xe7\\x9f\\xbf\\xe6\\xb1\\xa0,\\xe5\\xae\\x9a\\xe6\\x81\\xaf\\xe7\\x9f\\xbf\\xe6\\xb1\\xa0.sol\":3443:3475  User_Map[msg.sender].whole_ratio */\n      0x03\n      add\n      sload\n        /* \"\\xe8\\x87\\xaa\\xe5\\xb7\\xb1\\xe5\\x86\\x99\\xe4\\xb8\\xaa\\xe7\\x9f\\xbf\\xe6\\xb1\\xa0,\\xe5\\xae\\x9a\\xe6\\x81\\xaf\\xe7\\x9f\\xbf\\xe6\\xb1\\xa0.sol\":3422:3476  transfer(msg.sender, User_Map[msg.sender].whole_ratio) */\n      swap2\n      mload\n        /* \"#utility.yul\":745:770   */\n      swap2\n      dup3\n      mstore\n      0x00\n      dup1\n      mload\n      0x20\n      data_6ee032249450bc73eb21baa464f9befee4ae388930c9f61a58862db0c63f30c1\n      dup4\n      codecopy\n      dup2\n      mload\n      swap2\n      mstore\n        /* \"\\xe8\\x87\\xaa\\xe5\\xb7\\xb1\\xe5\\x86\\x99\\xe4\\xb8\\xaa\\xe7\\x9f\\xbf\\xe6\\xb1\\xa0,\\xe5\\xae\\x9a\\xe6\\x81\\xaf\\xe7\\x9f\\xbf\\xe6\\xb1\\xa0.sol\":3422:3476  transfer(msg.sender, User_Map[msg.sender].whole_ratio) */\n      swap2\n        /* \"#utility.yul\":718:736   */\n      add\n        /* \"\\xe8\\x87\\xaa\\xe5\\xb7\\xb1\\xe5\\x86\\x99\\xe4\\xb8\\xaa\\xe7\\x9f\\xbf\\xe6\\xb1\\xa0,\\xe5\\xae\\x9a\\xe6\\x81\\xaf\\xe7\\x9f\\xbf\\xe6\\xb1\\xa0.sol\":3422:3476  transfer(msg.sender, User_Map[msg.sender].whole_ratio) */\n      mload(0x40)\n      dup1\n      swap2\n      sub\n      swap1\n      log2\n        /* \"\\xe8\\x87\\xaa\\xe5\\xb7\\xb1\\xe5\\x86\\x99\\xe4\\xb8\\xaa\\xe7\\x9f\\xbf\\xe6\\xb1\\xa0,\\xe5\\xae\\x9a\\xe6\\x81\\xaf\\xe7\\x9f\\xbf\\xe6\\xb1\\xa0.sol\":3536:3546  msg.sender */\n      caller\n        /* \"\\xe8\\x87\\xaa\\xe5\\xb7\\xb1\\xe5\\x86\\x99\\xe4\\xb8\\xaa\\xe7\\x9f\\xbf\\xe6\\xb1\\xa0,\\xe5\\xae\\x9a\\xe6\\x81\\xaf\\xe7\\x9f\\xbf\\xe6\\xb1\\xa0.sol\":3527:3547  User_Map[msg.sender] */\n      0x00\n      swap1\n      dup2\n      mstore\n        /* \"\\xe8\\x87\\xaa\\xe5\\xb7\\xb1\\xe5\\x86\\x99\\xe4\\xb8\\xaa\\xe7\\x9f\\xbf\\xe6\\xb1\\xa0,\\xe5\\xae\\x9a\\xe6\\x81\\xaf\\xe7\\x9f\\xbf\\xe6\\xb1\\xa0.sol\":3527:3535  User_Map */\n      0x05\n        /* \"\\xe8\\x87\\xaa\\xe5\\xb7\\xb1\\xe5\\x86\\x99\\xe4\\xb8\\xaa\\xe7\\x9f\\xbf\\xe6\\xb1\\xa0,\\xe5\\xae\\x9a\\xe6\\x81\\xaf\\xe7\\x9f\\xbf\\xe6\\xb1\\xa0.sol\":3527:3547  User_Map[msg.sender] */\n      0x20\n      dup2\n      swap1\n      mstore\n      0x40\n      dup3\n      keccak256\n        /* \"\\xe8\\x87\\xaa\\xe5\\xb7\\xb1\\xe5\\x86\\x99\\xe4\\xb8\\xaa\\xe7\\x9f\\xbf\\xe6\\xb1\\xa0,\\xe5\\xae\\x9a\\xe6\\x81\\xaf\\xe7\\x9f\\xbf\\xe6\\xb1\\xa0.sol\":3527:3559  User_Map[msg.sender].whole_ratio */\n      0x03\n      dup2\n      add\n      sload\n        /* \"\\xe8\\x87\\xaa\\xe5\\xb7\\xb1\\xe5\\x86\\x99\\xe4\\xb8\\xaa\\xe7\\x9f\\xbf\\xe6\\xb1\\xa0,\\xe5\\xae\\x9a\\xe6\\x81\\xaf\\xe7\\x9f\\xbf\\xe6\\xb1\\xa0.sol\":3489:3522  User_Map[msg.sender].Clima_Number */\n      swap2\n      add\n        /* \"\\xe8\\x87\\xaa\\xe5\\xb7\\xb1\\xe5\\x86\\x99\\xe4\\xb8\\xaa\\xe7\\x9f\\xbf\\xe6\\xb1\\xa0,\\xe5\\xae\\x9a\\xe6\\x81\\xaf\\xe7\\x9f\\xbf\\xe6\\xb1\\xa0.sol\":3489:3559  User_Map[msg.sender].Clima_Number +=  User_Map[msg.sender].whole_ratio */\n      dup1\n      sload\n        /* \"\\xe8\\x87\\xaa\\xe5\\xb7\\xb1\\xe5\\x86\\x99\\xe4\\xb8\\xaa\\xe7\\x9f\\xbf\\xe6\\xb1\\xa0,\\xe5\\xae\\x9a\\xe6\\x81\\xaf\\xe7\\x9f\\xbf\\xe6\\xb1\\xa0.sol\":3527:3559  User_Map[msg.sender].whole_ratio */\n      swap2\n      swap3\n        /* \"\\xe8\\x87\\xaa\\xe5\\xb7\\xb1\\xe5\\x86\\x99\\xe4\\xb8\\xaa\\xe7\\x9f\\xbf\\xe6\\xb1\\xa0,\\xe5\\xae\\x9a\\xe6\\x81\\xaf\\xe7\\x9f\\xbf\\xe6\\xb1\\xa0.sol\":3489:3522  User_Map[msg.sender].Clima_Number */\n      swap1\n      swap2\n        /* \"\\xe8\\x87\\xaa\\xe5\\xb7\\xb1\\xe5\\x86\\x99\\xe4\\xb8\\xaa\\xe7\\x9f\\xbf\\xe6\\xb1\\xa0,\\xe5\\xae\\x9a\\xe6\\x81\\xaf\\xe7\\x9f\\xbf\\xe6\\xb1\\xa0.sol\":3489:3559  User_Map[msg.sender].Clima_Number +=  User_Map[msg.sender].whole_ratio */\n      tag_104\n      swap1\n        /* \"\\xe8\\x87\\xaa\\xe5\\xb7\\xb1\\xe5\\x86\\x99\\xe4\\xb8\\xaa\\xe7\\x9f\\xbf\\xe6\\xb1\\xa0,\\xe5\\xae\\x9a\\xe6\\x81\\xaf\\xe7\\x9f\\xbf\\xe6\\xb1\\xa0.sol\":3527:3559  User_Map[msg.sender].whole_ratio */\n      dup5\n      swap1\n        /* \"\\xe8\\x87\\xaa\\xe5\\xb7\\xb1\\xe5\\x86\\x99\\xe4\\xb8\\xaa\\xe7\\x9f\\xbf\\xe6\\xb1\\xa0,\\xe5\\xae\\x9a\\xe6\\x81\\xaf\\xe7\\x9f\\xbf\\xe6\\xb1\\xa0.sol\":3489:3559  User_Map[msg.sender].Clima_Number +=  User_Map[msg.sender].whole_ratio */\n      tag_90\n      jump\t// in\n    tag_104:\n      swap1\n      swap2\n      sstore\n      pop\n      pop\n        /* \"\\xe8\\x87\\xaa\\xe5\\xb7\\xb1\\xe5\\x86\\x99\\xe4\\xb8\\xaa\\xe7\\x9f\\xbf\\xe6\\xb1\\xa0,\\xe5\\xae\\x9a\\xe6\\x81\\xaf\\xe7\\x9f\\xbf\\xe6\\xb1\\xa0.sol\":3579:3589  msg.sender */\n      caller\n        /* \"\\xe8\\x87\\xaa\\xe5\\xb7\\xb1\\xe5\\x86\\x99\\xe4\\xb8\\xaa\\xe7\\x9f\\xbf\\xe6\\xb1\\xa0,\\xe5\\xae\\x9a\\xe6\\x81\\xaf\\xe7\\x9f\\xbf\\xe6\\xb1\\xa0.sol\":3605:3606  0 */\n      0x00\n        /* \"\\xe8\\x87\\xaa\\xe5\\xb7\\xb1\\xe5\\x86\\x99\\xe4\\xb8\\xaa\\xe7\\x9f\\xbf\\xe6\\xb1\\xa0,\\xe5\\xae\\x9a\\xe6\\x81\\xaf\\xe7\\x9f\\xbf\\xe6\\xb1\\xa0.sol\":3570:3590  User_Map[msg.sender] */\n      swap1\n      dup2\n      mstore\n        /* \"\\xe8\\x87\\xaa\\xe5\\xb7\\xb1\\xe5\\x86\\x99\\xe4\\xb8\\xaa\\xe7\\x9f\\xbf\\xe6\\xb1\\xa0,\\xe5\\xae\\x9a\\xe6\\x81\\xaf\\xe7\\x9f\\xbf\\xe6\\xb1\\xa0.sol\":3570:3578  User_Map */\n      0x05\n        /* \"\\xe8\\x87\\xaa\\xe5\\xb7\\xb1\\xe5\\x86\\x99\\xe4\\xb8\\xaa\\xe7\\x9f\\xbf\\xe6\\xb1\\xa0,\\xe5\\xae\\x9a\\xe6\\x81\\xaf\\xe7\\x9f\\xbf\\xe6\\xb1\\xa0.sol\":3570:3590  User_Map[msg.sender] */\n      0x20\n      mstore\n      0x40\n      dup2\n      keccak256\n        /* \"\\xe8\\x87\\xaa\\xe5\\xb7\\xb1\\xe5\\x86\\x99\\xe4\\xb8\\xaa\\xe7\\x9f\\xbf\\xe6\\xb1\\xa0,\\xe5\\xae\\x9a\\xe6\\x81\\xaf\\xe7\\x9f\\xbf\\xe6\\xb1\\xa0.sol\":3570:3602  User_Map[msg.sender].whole_ratio */\n      0x03\n      dup2\n      add\n        /* \"\\xe8\\x87\\xaa\\xe5\\xb7\\xb1\\xe5\\x86\\x99\\xe4\\xb8\\xaa\\xe7\\x9f\\xbf\\xe6\\xb1\\xa0,\\xe5\\xae\\x9a\\xe6\\x81\\xaf\\xe7\\x9f\\xbf\\xe6\\xb1\\xa0.sol\":3570:3606  User_Map[msg.sender].whole_ratio = 0 */\n      dup3\n      swap1\n      sstore\n        /* \"\\xe8\\x87\\xaa\\xe5\\xb7\\xb1\\xe5\\x86\\x99\\xe4\\xb8\\xaa\\xe7\\x9f\\xbf\\xe6\\xb1\\xa0,\\xe5\\xae\\x9a\\xe6\\x81\\xaf\\xe7\\x9f\\xbf\\xe6\\xb1\\xa0.sol\":3618:3657  User_Map[msg.sender].last_totoken_ratio */\n      0x02\n      dup2\n      add\n        /* \"\\xe8\\x87\\xaa\\xe5\\xb7\\xb1\\xe5\\x86\\x99\\xe4\\xb8\\xaa\\xe7\\x9f\\xbf\\xe6\\xb1\\xa0,\\xe5\\xae\\x9a\\xe6\\x81\\xaf\\xe7\\x9f\\xbf\\xe6\\xb1\\xa0.sol\":3618:3661  User_Map[msg.sender].last_totoken_ratio = 0 */\n      swap2\n      swap1\n      swap2\n      sstore\n        /* \"\\xe8\\x87\\xaa\\xe5\\xb7\\xb1\\xe5\\x86\\x99\\xe4\\xb8\\xaa\\xe7\\x9f\\xbf\\xe6\\xb1\\xa0,\\xe5\\xae\\x9a\\xe6\\x81\\xaf\\xe7\\x9f\\xbf\\xe6\\xb1\\xa0.sol\":3713:3728  block.timestamp */\n      timestamp\n        /* \"\\xe8\\x87\\xaa\\xe5\\xb7\\xb1\\xe5\\x86\\x99\\xe4\\xb8\\xaa\\xe7\\x9f\\xbf\\xe6\\xb1\\xa0,\\xe5\\xae\\x9a\\xe6\\x81\\xaf\\xe7\\x9f\\xbf\\xe6\\xb1\\xa0.sol\":3672:3710  User_Map[msg.sender].last_totoken_Time */\n      0x04\n      swap1\n      swap2\n      add\n        /* \"\\xe8\\x87\\xaa\\xe5\\xb7\\xb1\\xe5\\x86\\x99\\xe4\\xb8\\xaa\\xe7\\x9f\\xbf\\xe6\\xb1\\xa0,\\xe5\\xae\\x9a\\xe6\\x81\\xaf\\xe7\\x9f\\xbf\\xe6\\xb1\\xa0.sol\":3672:3728  User_Map[msg.sender].last_totoken_Time = block.timestamp */\n      sstore\n      pop\n      0x01\n      swap1\n        /* \"\\xe8\\x87\\xaa\\xe5\\xb7\\xb1\\xe5\\x86\\x99\\xe4\\xb8\\xaa\\xe7\\x9f\\xbf\\xe6\\xb1\\xa0,\\xe5\\xae\\x9a\\xe6\\x81\\xaf\\xe7\\x9f\\xbf\\xe6\\xb1\\xa0.sol\":3071:3762  function harvest() public returns (bool) {... */\n      jump\t// out\n        /* \"\\xe8\\x87\\xaa\\xe5\\xb7\\xb1\\xe5\\x86\\x99\\xe4\\xb8\\xaa\\xe7\\x9f\\xbf\\xe6\\xb1\\xa0,\\xe5\\xae\\x9a\\xe6\\x81\\xaf\\xe7\\x9f\\xbf\\xe6\\xb1\\xa0.sol\":4116:4403  function newTotokenRatio() public view returns (uint) {... */\n    tag_35:\n        /* \"\\xe8\\x87\\xaa\\xe5\\xb7\\xb1\\xe5\\x86\\x99\\xe4\\xb8\\xaa\\xe7\\x9f\\xbf\\xe6\\xb1\\xa0,\\xe5\\xae\\x9a\\xe6\\x81\\xaf\\xe7\\x9f\\xbf\\xe6\\xb1\\xa0.sol\":4223:4233  msg.sender */\n      caller\n        /* \"\\xe8\\x87\\xaa\\xe5\\xb7\\xb1\\xe5\\x86\\x99\\xe4\\xb8\\xaa\\xe7\\x9f\\xbf\\xe6\\xb1\\xa0,\\xe5\\xae\\x9a\\xe6\\x81\\xaf\\xe7\\x9f\\xbf\\xe6\\xb1\\xa0.sol\":4164:4168  uint */\n      0x00\n        /* \"\\xe8\\x87\\xaa\\xe5\\xb7\\xb1\\xe5\\x86\\x99\\xe4\\xb8\\xaa\\xe7\\x9f\\xbf\\xe6\\xb1\\xa0,\\xe5\\xae\\x9a\\xe6\\x81\\xaf\\xe7\\x9f\\xbf\\xe6\\xb1\\xa0.sol\":4214:4234  User_Map[msg.sender] */\n      swap1\n      dup2\n      mstore\n        /* \"\\xe8\\x87\\xaa\\xe5\\xb7\\xb1\\xe5\\x86\\x99\\xe4\\xb8\\xaa\\xe7\\x9f\\xbf\\xe6\\xb1\\xa0,\\xe5\\xae\\x9a\\xe6\\x81\\xaf\\xe7\\x9f\\xbf\\xe6\\xb1\\xa0.sol\":4214:4222  User_Map */\n      0x05\n        /* \"\\xe8\\x87\\xaa\\xe5\\xb7\\xb1\\xe5\\x86\\x99\\xe4\\xb8\\xaa\\xe7\\x9f\\xbf\\xe6\\xb1\\xa0,\\xe5\\xae\\x9a\\xe6\\x81\\xaf\\xe7\\x9f\\xbf\\xe6\\xb1\\xa0.sol\":4214:4234  User_Map[msg.sender] */\n      0x20\n      mstore\n      0x40\n      dup2\n      keccak256\n        /* \"\\xe8\\x87\\xaa\\xe5\\xb7\\xb1\\xe5\\x86\\x99\\xe4\\xb8\\xaa\\xe7\\x9f\\xbf\\xe6\\xb1\\xa0,\\xe5\\xae\\x9a\\xe6\\x81\\xaf\\xe7\\x9f\\xbf\\xe6\\xb1\\xa0.sol\":4214:4252  User_Map[msg.sender].last_totoken_Time */\n      0x04\n      add\n      sload\n        /* \"\\xe8\\x87\\xaa\\xe5\\xb7\\xb1\\xe5\\x86\\x99\\xe4\\xb8\\xaa\\xe7\\x9f\\xbf\\xe6\\xb1\\xa0,\\xe5\\xae\\x9a\\xe6\\x81\\xaf\\xe7\\x9f\\xbf\\xe6\\xb1\\xa0.sol\":4164:4168  uint */\n      dup2\n      swap1\n        /* \"\\xe8\\x87\\xaa\\xe5\\xb7\\xb1\\xe5\\x86\\x99\\xe4\\xb8\\xaa\\xe7\\x9f\\xbf\\xe6\\xb1\\xa0,\\xe5\\xae\\x9a\\xe6\\x81\\xaf\\xe7\\x9f\\xbf\\xe6\\xb1\\xa0.sol\":4196:4252  block.timestamp - User_Map[msg.sender].last_totoken_Time */\n      tag_106\n      swap1\n        /* \"\\xe8\\x87\\xaa\\xe5\\xb7\\xb1\\xe5\\x86\\x99\\xe4\\xb8\\xaa\\xe7\\x9f\\xbf\\xe6\\xb1\\xa0,\\xe5\\xae\\x9a\\xe6\\x81\\xaf\\xe7\\x9f\\xbf\\xe6\\xb1\\xa0.sol\":4196:4211  block.timestamp */\n      timestamp\n        /* \"\\xe8\\x87\\xaa\\xe5\\xb7\\xb1\\xe5\\x86\\x99\\xe4\\xb8\\xaa\\xe7\\x9f\\xbf\\xe6\\xb1\\xa0,\\xe5\\xae\\x9a\\xe6\\x81\\xaf\\xe7\\x9f\\xbf\\xe6\\xb1\\xa0.sol\":4196:4252  block.timestamp - User_Map[msg.sender].last_totoken_Time */\n      tag_74\n      jump\t// in\n    tag_106:\n        /* \"\\xe8\\x87\\xaa\\xe5\\xb7\\xb1\\xe5\\x86\\x99\\xe4\\xb8\\xaa\\xe7\\x9f\\xbf\\xe6\\xb1\\xa0,\\xe5\\xae\\x9a\\xe6\\x81\\xaf\\xe7\\x9f\\xbf\\xe6\\xb1\\xa0.sol\":4263:4285  uint newTotokenRatione */\n      0x00\n        /* \"\\xe8\\x87\\xaa\\xe5\\xb7\\xb1\\xe5\\x86\\x99\\xe4\\xb8\\xaa\\xe7\\x9f\\xbf\\xe6\\xb1\\xa0,\\xe5\\xae\\x9a\\xe6\\x81\\xaf\\xe7\\x9f\\xbf\\xe6\\xb1\\xa0.sol\":4335:4340  ratio */\n      dup1\n      sload\n        /* \"\\xe8\\x87\\xaa\\xe5\\xb7\\xb1\\xe5\\x86\\x99\\xe4\\xb8\\xaa\\xe7\\x9f\\xbf\\xe6\\xb1\\xa0,\\xe5\\xae\\x9a\\xe6\\x81\\xaf\\xe7\\x9f\\xbf\\xe6\\xb1\\xa0.sol\":4309:4319  msg.sender */\n      caller\n        /* \"\\xe8\\x87\\xaa\\xe5\\xb7\\xb1\\xe5\\x86\\x99\\xe4\\xb8\\xaa\\xe7\\x9f\\xbf\\xe6\\xb1\\xa0,\\xe5\\xae\\x9a\\xe6\\x81\\xaf\\xe7\\x9f\\xbf\\xe6\\xb1\\xa0.sol\":4300:4320  User_Map[msg.sender] */\n      dup3\n      mstore\n        /* \"\\xe8\\x87\\xaa\\xe5\\xb7\\xb1\\xe5\\x86\\x99\\xe4\\xb8\\xaa\\xe7\\x9f\\xbf\\xe6\\xb1\\xa0,\\xe5\\xae\\x9a\\xe6\\x81\\xaf\\xe7\\x9f\\xbf\\xe6\\xb1\\xa0.sol\":4300:4308  User_Map */\n      0x05\n        /* \"\\xe8\\x87\\xaa\\xe5\\xb7\\xb1\\xe5\\x86\\x99\\xe4\\xb8\\xaa\\xe7\\x9f\\xbf\\xe6\\xb1\\xa0,\\xe5\\xae\\x9a\\xe6\\x81\\xaf\\xe7\\x9f\\xbf\\xe6\\xb1\\xa0.sol\":4300:4320  User_Map[msg.sender] */\n      0x20\n      mstore\n      0x40\n      dup3\n      keccak256\n        /* \"\\xe8\\x87\\xaa\\xe5\\xb7\\xb1\\xe5\\x86\\x99\\xe4\\xb8\\xaa\\xe7\\x9f\\xbf\\xe6\\xb1\\xa0,\\xe5\\xae\\x9a\\xe6\\x81\\xaf\\xe7\\x9f\\xbf\\xe6\\xb1\\xa0.sol\":4300:4332  User_Map[msg.sender].stakeNumber */\n      sload\n        /* \"\\xe8\\x87\\xaa\\xe5\\xb7\\xb1\\xe5\\x86\\x99\\xe4\\xb8\\xaa\\xe7\\x9f\\xbf\\xe6\\xb1\\xa0,\\xe5\\xae\\x9a\\xe6\\x81\\xaf\\xe7\\x9f\\xbf\\xe6\\xb1\\xa0.sol\":4181:4252  uint newtime = block.timestamp - User_Map[msg.sender].last_totoken_Time */\n      swap3\n      swap4\n      pop\n        /* \"\\xe8\\x87\\xaa\\xe5\\xb7\\xb1\\xe5\\x86\\x99\\xe4\\xb8\\xaa\\xe7\\x9f\\xbf\\xe6\\xb1\\xa0,\\xe5\\xae\\x9a\\xe6\\x81\\xaf\\xe7\\x9f\\xbf\\xe6\\xb1\\xa0.sol\":4263:4285  uint newTotokenRatione */\n      swap1\n      swap2\n        /* \"\\xe8\\x87\\xaa\\xe5\\xb7\\xb1\\xe5\\x86\\x99\\xe4\\xb8\\xaa\\xe7\\x9f\\xbf\\xe6\\xb1\\xa0,\\xe5\\xae\\x9a\\xe6\\x81\\xaf\\xe7\\x9f\\xbf\\xe6\\xb1\\xa0.sol\":4349:4357  31536000 */\n      0x01e13380\n      swap2\n        /* \"\\xe8\\x87\\xaa\\xe5\\xb7\\xb1\\xe5\\x86\\x99\\xe4\\xb8\\xaa\\xe7\\x9f\\xbf\\xe6\\xb1\\xa0,\\xe5\\xae\\x9a\\xe6\\x81\\xaf\\xe7\\x9f\\xbf\\xe6\\xb1\\xa0.sol\":4342:4345  100 */\n      0x64\n      swap2\n        /* \"\\xe8\\x87\\xaa\\xe5\\xb7\\xb1\\xe5\\x86\\x99\\xe4\\xb8\\xaa\\xe7\\x9f\\xbf\\xe6\\xb1\\xa0,\\xe5\\xae\\x9a\\xe6\\x81\\xaf\\xe7\\x9f\\xbf\\xe6\\xb1\\xa0.sol\":4300:4340  User_Map[msg.sender].stakeNumber * ratio */\n      tag_107\n      swap2\n        /* \"\\xe8\\x87\\xaa\\xe5\\xb7\\xb1\\xe5\\x86\\x99\\xe4\\xb8\\xaa\\xe7\\x9f\\xbf\\xe6\\xb1\\xa0,\\xe5\\xae\\x9a\\xe6\\x81\\xaf\\xe7\\x9f\\xbf\\xe6\\xb1\\xa0.sol\":4335:4340  ratio */\n      swap1\n        /* \"\\xe8\\x87\\xaa\\xe5\\xb7\\xb1\\xe5\\x86\\x99\\xe4\\xb8\\xaa\\xe7\\x9f\\xbf\\xe6\\xb1\\xa0,\\xe5\\xae\\x9a\\xe6\\x81\\xaf\\xe7\\x9f\\xbf\\xe6\\xb1\\xa0.sol\":4300:4340  User_Map[msg.sender].stakeNumber * ratio */\n      tag_83\n      jump\t// in\n    tag_107:\n        /* \"\\xe8\\x87\\xaa\\xe5\\xb7\\xb1\\xe5\\x86\\x99\\xe4\\xb8\\xaa\\xe7\\x9f\\xbf\\xe6\\xb1\\xa0,\\xe5\\xae\\x9a\\xe6\\x81\\xaf\\xe7\\x9f\\xbf\\xe6\\xb1\\xa0.sol\":4300:4345  User_Map[msg.sender].stakeNumber * ratio /100 */\n      tag_108\n      swap2\n      swap1\n      tag_85\n      jump\t// in\n    tag_108:\n        /* \"\\xe8\\x87\\xaa\\xe5\\xb7\\xb1\\xe5\\x86\\x99\\xe4\\xb8\\xaa\\xe7\\x9f\\xbf\\xe6\\xb1\\xa0,\\xe5\\xae\\x9a\\xe6\\x81\\xaf\\xe7\\x9f\\xbf\\xe6\\xb1\\xa0.sol\":4299:4357  (User_Map[msg.sender].stakeNumber * ratio /100) / 31536000 */\n      tag_109\n      swap2\n      swap1\n      tag_85\n      jump\t// in\n    tag_109:\n        /* \"\\xe8\\x87\\xaa\\xe5\\xb7\\xb1\\xe5\\x86\\x99\\xe4\\xb8\\xaa\\xe7\\x9f\\xbf\\xe6\\xb1\\xa0,\\xe5\\xae\\x9a\\xe6\\x81\\xaf\\xe7\\x9f\\xbf\\xe6\\xb1\\xa0.sol\":4288:4358  newtime * ((User_Map[msg.sender].stakeNumber * ratio /100) / 31536000) */\n      tag_110\n      swap1\n        /* \"\\xe8\\x87\\xaa\\xe5\\xb7\\xb1\\xe5\\x86\\x99\\xe4\\xb8\\xaa\\xe7\\x9f\\xbf\\xe6\\xb1\\xa0,\\xe5\\xae\\x9a\\xe6\\x81\\xaf\\xe7\\x9f\\xbf\\xe6\\xb1\\xa0.sol\":4288:4295  newtime */\n      dup4\n        /* \"\\xe8\\x87\\xaa\\xe5\\xb7\\xb1\\xe5\\x86\\x99\\xe4\\xb8\\xaa\\xe7\\x9f\\xbf\\xe6\\xb1\\xa0,\\xe5\\xae\\x9a\\xe6\\x81\\xaf\\xe7\\x9f\\xbf\\xe6\\xb1\\xa0.sol\":4288:4358  newtime * ((User_Map[msg.sender].stakeNumber * ratio /100) / 31536000) */\n      tag_83\n      jump\t// in\n    tag_110:\n        /* \"\\xe8\\x87\\xaa\\xe5\\xb7\\xb1\\xe5\\x86\\x99\\xe4\\xb8\\xaa\\xe7\\x9f\\xbf\\xe6\\xb1\\xa0,\\xe5\\xae\\x9a\\xe6\\x81\\xaf\\xe7\\x9f\\xbf\\xe6\\xb1\\xa0.sol\":4263:4358  uint newTotokenRatione = newtime * ((User_Map[msg.sender].stakeNumber * ratio /100) / 31536000) */\n      swap4\n        /* \"\\xe8\\x87\\xaa\\xe5\\xb7\\xb1\\xe5\\x86\\x99\\xe4\\xb8\\xaa\\xe7\\x9f\\xbf\\xe6\\xb1\\xa0,\\xe5\\xae\\x9a\\xe6\\x81\\xaf\\xe7\\x9f\\xbf\\xe6\\xb1\\xa0.sol\":4116:4403  function newTotokenRatio() public view returns (uint) {... */\n      swap3\n      pop\n      pop\n      pop\n      jump\t// out\n        /* \"\\xe8\\x87\\xaa\\xe5\\xb7\\xb1\\xe5\\x86\\x99\\xe4\\xb8\\xaa\\xe7\\x9f\\xbf\\xe6\\xb1\\xa0,\\xe5\\xae\\x9a\\xe6\\x81\\xaf\\xe7\\x9f\\xbf\\xe6\\xb1\\xa0.sol\":1962:2054  function setRatio(uint _ratio) external onlyOwner {    ... */\n    tag_55:\n        /* \"\\xe8\\x87\\xaa\\xe5\\xb7\\xb1\\xe5\\x86\\x99\\xe4\\xb8\\xaa\\xe7\\x9f\\xbf\\xe6\\xb1\\xa0,\\xe5\\xae\\x9a\\xe6\\x81\\xaf\\xe7\\x9f\\xbf\\xe6\\xb1\\xa0.sol\":1811:1816  owner */\n      and(sub(shl(0xa0, 0x01), 0x01), sload(0x04))\n        /* \"\\xe8\\x87\\xaa\\xe5\\xb7\\xb1\\xe5\\x86\\x99\\xe4\\xb8\\xaa\\xe7\\x9f\\xbf\\xe6\\xb1\\xa0,\\xe5\\xae\\x9a\\xe6\\x81\\xaf\\xe7\\x9f\\xbf\\xe6\\xb1\\xa0.sol\":1797:1807  msg.sender */\n      caller\n        /* \"\\xe8\\x87\\xaa\\xe5\\xb7\\xb1\\xe5\\x86\\x99\\xe4\\xb8\\xaa\\xe7\\x9f\\xbf\\xe6\\xb1\\xa0,\\xe5\\xae\\x9a\\xe6\\x81\\xaf\\xe7\\x9f\\xbf\\xe6\\xb1\\xa0.sol\":1797:1816  msg.sender == owner */\n      eq\n        /* \"\\xe8\\x87\\xaa\\xe5\\xb7\\xb1\\xe5\\x86\\x99\\xe4\\xb8\\xaa\\xe7\\x9f\\xbf\\xe6\\xb1\\xa0,\\xe5\\xae\\x9a\\xe6\\x81\\xaf\\xe7\\x9f\\xbf\\xe6\\xb1\\xa0.sol\":1789:1831  require(msg.sender == owner , \"not owner\") */\n      tag_113\n      jumpi\n      mload(0x40)\n      shl(0xe5, 0x461bcd)\n      dup2\n      mstore\n        /* \"#utility.yul\":3545:3547   */\n      0x20\n        /* \"\\xe8\\x87\\xaa\\xe5\\xb7\\xb1\\xe5\\x86\\x99\\xe4\\xb8\\xaa\\xe7\\x9f\\xbf\\xe6\\xb1\\xa0,\\xe5\\xae\\x9a\\xe6\\x81\\xaf\\xe7\\x9f\\xbf\\xe6\\xb1\\xa0.sol\":1789:1831  require(msg.sender == owner , \"not owner\") */\n      0x04\n      dup3\n      add\n        /* \"#utility.yul\":3527:3548   */\n      mstore\n        /* \"#utility.yul\":3584:3585   */\n      0x09\n        /* \"#utility.yul\":3564:3582   */\n      0x24\n      dup3\n      add\n        /* \"#utility.yul\":3557:3586   */\n      mstore\n      shl(0xb9, 0x3737ba1037bbb732b9)\n        /* \"#utility.yul\":3602:3620   */\n      0x44\n      dup3\n      add\n        /* \"#utility.yul\":3595:3634   */\n      mstore\n        /* \"#utility.yul\":3651:3669   */\n      0x64\n      add\n        /* \"\\xe8\\x87\\xaa\\xe5\\xb7\\xb1\\xe5\\x86\\x99\\xe4\\xb8\\xaa\\xe7\\x9f\\xbf\\xe6\\xb1\\xa0,\\xe5\\xae\\x9a\\xe6\\x81\\xaf\\xe7\\x9f\\xbf\\xe6\\xb1\\xa0.sol\":1789:1831  require(msg.sender == owner , \"not owner\") */\n      mload(0x40)\n      dup1\n      swap2\n      sub\n      swap1\n      revert\n    tag_113:\n        /* \"\\xe8\\x87\\xaa\\xe5\\xb7\\xb1\\xe5\\x86\\x99\\xe4\\xb8\\xaa\\xe7\\x9f\\xbf\\xe6\\xb1\\xa0,\\xe5\\xae\\x9a\\xe6\\x81\\xaf\\xe7\\x9f\\xbf\\xe6\\xb1\\xa0.sol\":2027:2032  ratio */\n      0x00\n        /* \"\\xe8\\x87\\xaa\\xe5\\xb7\\xb1\\xe5\\x86\\x99\\xe4\\xb8\\xaa\\xe7\\x9f\\xbf\\xe6\\xb1\\xa0,\\xe5\\xae\\x9a\\xe6\\x81\\xaf\\xe7\\x9f\\xbf\\xe6\\xb1\\xa0.sol\":2027:2041  ratio = _ratio */\n      sstore\n        /* \"\\xe8\\x87\\xaa\\xe5\\xb7\\xb1\\xe5\\x86\\x99\\xe4\\xb8\\xaa\\xe7\\x9f\\xbf\\xe6\\xb1\\xa0,\\xe5\\xae\\x9a\\xe6\\x81\\xaf\\xe7\\x9f\\xbf\\xe6\\xb1\\xa0.sol\":1962:2054  function setRatio(uint _ratio) external onlyOwner {    ... */\n      jump\t// out\n        /* \"\\xe8\\x87\\xaa\\xe5\\xb7\\xb1\\xe5\\x86\\x99\\xe4\\xb8\\xaa\\xe7\\x9f\\xbf\\xe6\\xb1\\xa0,\\xe5\\xae\\x9a\\xe6\\x81\\xaf\\xe7\\x9f\\xbf\\xe6\\xb1\\xa0.sol\":4597:5406  function harvestwithDraw() public returns (bool) {... */\n    tag_63:\n        /* \"\\xe8\\x87\\xaa\\xe5\\xb7\\xb1\\xe5\\x86\\x99\\xe4\\xb8\\xaa\\xe7\\x9f\\xbf\\xe6\\xb1\\xa0,\\xe5\\xae\\x9a\\xe6\\x81\\xaf\\xe7\\x9f\\xbf\\xe6\\xb1\\xa0.sol\":4640:4644  bool */\n      0x00\n        /* \"\\xe8\\x87\\xaa\\xe5\\xb7\\xb1\\xe5\\x86\\x99\\xe4\\xb8\\xaa\\xe7\\x9f\\xbf\\xe6\\xb1\\xa0,\\xe5\\xae\\x9a\\xe6\\x81\\xaf\\xe7\\x9f\\xbf\\xe6\\xb1\\xa0.sol\":4830:4835  ratio */\n      dup1\n      sload\n        /* \"\\xe8\\x87\\xaa\\xe5\\xb7\\xb1\\xe5\\x86\\x99\\xe4\\xb8\\xaa\\xe7\\x9f\\xbf\\xe6\\xb1\\xa0,\\xe5\\xae\\x9a\\xe6\\x81\\xaf\\xe7\\x9f\\xbf\\xe6\\xb1\\xa0.sol\":4804:4814  msg.sender */\n      caller\n        /* \"\\xe8\\x87\\xaa\\xe5\\xb7\\xb1\\xe5\\x86\\x99\\xe4\\xb8\\xaa\\xe7\\x9f\\xbf\\xe6\\xb1\\xa0,\\xe5\\xae\\x9a\\xe6\\x81\\xaf\\xe7\\x9f\\xbf\\xe6\\xb1\\xa0.sol\":4795:4815  User_Map[msg.sender] */\n      dup3\n      mstore\n        /* \"\\xe8\\x87\\xaa\\xe5\\xb7\\xb1\\xe5\\x86\\x99\\xe4\\xb8\\xaa\\xe7\\x9f\\xbf\\xe6\\xb1\\xa0,\\xe5\\xae\\x9a\\xe6\\x81\\xaf\\xe7\\x9f\\xbf\\xe6\\xb1\\xa0.sol\":4795:4803  User_Map */\n      0x05\n        /* \"\\xe8\\x87\\xaa\\xe5\\xb7\\xb1\\xe5\\x86\\x99\\xe4\\xb8\\xaa\\xe7\\x9f\\xbf\\xe6\\xb1\\xa0,\\xe5\\xae\\x9a\\xe6\\x81\\xaf\\xe7\\x9f\\xbf\\xe6\\xb1\\xa0.sol\":4795:4815  User_Map[msg.sender] */\n      0x20\n      mstore\n      0x40\n      dup3\n      keccak256\n        /* \"\\xe8\\x87\\xaa\\xe5\\xb7\\xb1\\xe5\\x86\\x99\\xe4\\xb8\\xaa\\xe7\\x9f\\xbf\\xe6\\xb1\\xa0,\\xe5\\xae\\x9a\\xe6\\x81\\xaf\\xe7\\x9f\\xbf\\xe6\\xb1\\xa0.sol\":4795:4827  User_Map[msg.sender].stakeNumber */\n      sload\n        /* \"\\xe8\\x87\\xaa\\xe5\\xb7\\xb1\\xe5\\x86\\x99\\xe4\\xb8\\xaa\\xe7\\x9f\\xbf\\xe6\\xb1\\xa0,\\xe5\\xae\\x9a\\xe6\\x81\\xaf\\xe7\\x9f\\xbf\\xe6\\xb1\\xa0.sol\":4844:4852  31536000 */\n      0x01e13380\n      swap2\n        /* \"\\xe8\\x87\\xaa\\xe5\\xb7\\xb1\\xe5\\x86\\x99\\xe4\\xb8\\xaa\\xe7\\x9f\\xbf\\xe6\\xb1\\xa0,\\xe5\\xae\\x9a\\xe6\\x81\\xaf\\xe7\\x9f\\xbf\\xe6\\xb1\\xa0.sol\":4837:4840  100 */\n      0x64\n      swap2\n        /* \"\\xe8\\x87\\xaa\\xe5\\xb7\\xb1\\xe5\\x86\\x99\\xe4\\xb8\\xaa\\xe7\\x9f\\xbf\\xe6\\xb1\\xa0,\\xe5\\xae\\x9a\\xe6\\x81\\xaf\\xe7\\x9f\\xbf\\xe6\\xb1\\xa0.sol\":4795:4835  User_Map[msg.sender].stakeNumber * ratio */\n      tag_118\n      swap2\n        /* \"\\xe8\\x87\\xaa\\xe5\\xb7\\xb1\\xe5\\x86\\x99\\xe4\\xb8\\xaa\\xe7\\x9f\\xbf\\xe6\\xb1\\xa0,\\xe5\\xae\\x9a\\xe6\\x81\\xaf\\xe7\\x9f\\xbf\\xe6\\xb1\\xa0.sol\":4830:4835  ratio */\n      swap1\n        /* \"\\xe8\\x87\\xaa\\xe5\\xb7\\xb1\\xe5\\x86\\x99\\xe4\\xb8\\xaa\\xe7\\x9f\\xbf\\xe6\\xb1\\xa0,\\xe5\\xae\\x9a\\xe6\\x81\\xaf\\xe7\\x9f\\xbf\\xe6\\xb1\\xa0.sol\":4795:4835  User_Map[msg.sender].stakeNumber * ratio */\n      tag_83\n      jump\t// in\n    tag_118:\n        /* \"\\xe8\\x87\\xaa\\xe5\\xb7\\xb1\\xe5\\x86\\x99\\xe4\\xb8\\xaa\\xe7\\x9f\\xbf\\xe6\\xb1\\xa0,\\xe5\\xae\\x9a\\xe6\\x81\\xaf\\xe7\\x9f\\xbf\\xe6\\xb1\\xa0.sol\":4795:4840  User_Map[msg.sender].stakeNumber * ratio /100 */\n      tag_119\n      swap2\n      swap1\n      tag_85\n      jump\t// in\n    tag_119:\n        /* \"\\xe8\\x87\\xaa\\xe5\\xb7\\xb1\\xe5\\x86\\x99\\xe4\\xb8\\xaa\\xe7\\x9f\\xbf\\xe6\\xb1\\xa0,\\xe5\\xae\\x9a\\xe6\\x81\\xaf\\xe7\\x9f\\xbf\\xe6\\xb1\\xa0.sol\":4794:4852  (User_Map[msg.sender].stakeNumber * ratio /100) / 31536000 */\n      tag_120\n      swap2\n      swap1\n      tag_85\n      jump\t// in\n    tag_120:\n        /* \"\\xe8\\x87\\xaa\\xe5\\xb7\\xb1\\xe5\\x86\\x99\\xe4\\xb8\\xaa\\xe7\\x9f\\xbf\\xe6\\xb1\\xa0,\\xe5\\xae\\x9a\\xe6\\x81\\xaf\\xe7\\x9f\\xbf\\xe6\\xb1\\xa0.sol\":4762:4772  msg.sender */\n      caller\n        /* \"\\xe8\\x87\\xaa\\xe5\\xb7\\xb1\\xe5\\x86\\x99\\xe4\\xb8\\xaa\\xe7\\x9f\\xbf\\xe6\\xb1\\xa0,\\xe5\\xae\\x9a\\xe6\\x81\\xaf\\xe7\\x9f\\xbf\\xe6\\xb1\\xa0.sol\":4753:4773  User_Map[msg.sender] */\n      0x00\n      swap1\n      dup2\n      mstore\n        /* \"\\xe8\\x87\\xaa\\xe5\\xb7\\xb1\\xe5\\x86\\x99\\xe4\\xb8\\xaa\\xe7\\x9f\\xbf\\xe6\\xb1\\xa0,\\xe5\\xae\\x9a\\xe6\\x81\\xaf\\xe7\\x9f\\xbf\\xe6\\xb1\\xa0.sol\":4753:4761  User_Map */\n      0x05\n        /* \"\\xe8\\x87\\xaa\\xe5\\xb7\\xb1\\xe5\\x86\\x99\\xe4\\xb8\\xaa\\xe7\\x9f\\xbf\\xe6\\xb1\\xa0,\\xe5\\xae\\x9a\\xe6\\x81\\xaf\\xe7\\x9f\\xbf\\xe6\\xb1\\xa0.sol\":4753:4773  User_Map[msg.sender] */\n      0x20\n      mstore\n      0x40\n      swap1\n      keccak256\n        /* \"\\xe8\\x87\\xaa\\xe5\\xb7\\xb1\\xe5\\x86\\x99\\xe4\\xb8\\xaa\\xe7\\x9f\\xbf\\xe6\\xb1\\xa0,\\xe5\\xae\\x9a\\xe6\\x81\\xaf\\xe7\\x9f\\xbf\\xe6\\xb1\\xa0.sol\":4753:4789  User_Map[msg.sender].last_Stake_Time */\n      0x01\n      add\n      sload\n        /* \"\\xe8\\x87\\xaa\\xe5\\xb7\\xb1\\xe5\\x86\\x99\\xe4\\xb8\\xaa\\xe7\\x9f\\xbf\\xe6\\xb1\\xa0,\\xe5\\xae\\x9a\\xe6\\x81\\xaf\\xe7\\x9f\\xbf\\xe6\\xb1\\xa0.sol\":4735:4789  block.timestamp - User_Map[msg.sender].last_Stake_Time */\n      tag_121\n      swap1\n        /* \"\\xe8\\x87\\xaa\\xe5\\xb7\\xb1\\xe5\\x86\\x99\\xe4\\xb8\\xaa\\xe7\\x9f\\xbf\\xe6\\xb1\\xa0,\\xe5\\xae\\x9a\\xe6\\x81\\xaf\\xe7\\x9f\\xbf\\xe6\\xb1\\xa0.sol\":4735:4750  block.timestamp */\n      timestamp\n        /* \"\\xe8\\x87\\xaa\\xe5\\xb7\\xb1\\xe5\\x86\\x99\\xe4\\xb8\\xaa\\xe7\\x9f\\xbf\\xe6\\xb1\\xa0,\\xe5\\xae\\x9a\\xe6\\x81\\xaf\\xe7\\x9f\\xbf\\xe6\\xb1\\xa0.sol\":4735:4789  block.timestamp - User_Map[msg.sender].last_Stake_Time */\n      tag_74\n      jump\t// in\n    tag_121:\n        /* \"\\xe8\\x87\\xaa\\xe5\\xb7\\xb1\\xe5\\x86\\x99\\xe4\\xb8\\xaa\\xe7\\x9f\\xbf\\xe6\\xb1\\xa0,\\xe5\\xae\\x9a\\xe6\\x81\\xaf\\xe7\\x9f\\xbf\\xe6\\xb1\\xa0.sol\":4734:4853  (block.timestamp - User_Map[msg.sender].last_Stake_Time) * ((User_Map[msg.sender].stakeNumber * ratio /100) / 31536000) */\n      tag_122\n      swap2\n      swap1\n      tag_83\n      jump\t// in\n    tag_122:\n        /* \"\\xe8\\x87\\xaa\\xe5\\xb7\\xb1\\xe5\\x86\\x99\\xe4\\xb8\\xaa\\xe7\\x9f\\xbf\\xe6\\xb1\\xa0,\\xe5\\xae\\x9a\\xe6\\x81\\xaf\\xe7\\x9f\\xbf\\xe6\\xb1\\xa0.sol\":4701:4711  msg.sender */\n      caller\n        /* \"\\xe8\\x87\\xaa\\xe5\\xb7\\xb1\\xe5\\x86\\x99\\xe4\\xb8\\xaa\\xe7\\x9f\\xbf\\xe6\\xb1\\xa0,\\xe5\\xae\\x9a\\xe6\\x81\\xaf\\xe7\\x9f\\xbf\\xe6\\xb1\\xa0.sol\":4692:4712  User_Map[msg.sender] */\n      0x00\n      swap1\n      dup2\n      mstore\n        /* \"\\xe8\\x87\\xaa\\xe5\\xb7\\xb1\\xe5\\x86\\x99\\xe4\\xb8\\xaa\\xe7\\x9f\\xbf\\xe6\\xb1\\xa0,\\xe5\\xae\\x9a\\xe6\\x81\\xaf\\xe7\\x9f\\xbf\\xe6\\xb1\\xa0.sol\":4692:4700  User_Map */\n      0x05\n        /* \"\\xe8\\x87\\xaa\\xe5\\xb7\\xb1\\xe5\\x86\\x99\\xe4\\xb8\\xaa\\xe7\\x9f\\xbf\\xe6\\xb1\\xa0,\\xe5\\xae\\x9a\\xe6\\x81\\xaf\\xe7\\x9f\\xbf\\xe6\\xb1\\xa0.sol\":4692:4712  User_Map[msg.sender] */\n      0x20\n      mstore\n      0x40\n      swap1\n      keccak256\n        /* \"\\xe8\\x87\\xaa\\xe5\\xb7\\xb1\\xe5\\x86\\x99\\xe4\\xb8\\xaa\\xe7\\x9f\\xbf\\xe6\\xb1\\xa0,\\xe5\\xae\\x9a\\xe6\\x81\\xaf\\xe7\\x9f\\xbf\\xe6\\xb1\\xa0.sol\":4692:4731  User_Map[msg.sender].last_totoken_ratio */\n      0x02\n      add\n      sload\n        /* \"\\xe8\\x87\\xaa\\xe5\\xb7\\xb1\\xe5\\x86\\x99\\xe4\\xb8\\xaa\\xe7\\x9f\\xbf\\xe6\\xb1\\xa0,\\xe5\\xae\\x9a\\xe6\\x81\\xaf\\xe7\\x9f\\xbf\\xe6\\xb1\\xa0.sol\":4692:4853  User_Map[msg.sender].last_totoken_ratio + (block.timestamp - User_Map[msg.sender].last_Stake_Time) * ((User_Map[msg.sender].stakeNumber * ratio /100) / 31536000) */\n      tag_123\n      swap2\n      swap1\n      tag_90\n      jump\t// in\n    tag_123:\n        /* \"\\xe8\\x87\\xaa\\xe5\\xb7\\xb1\\xe5\\x86\\x99\\xe4\\xb8\\xaa\\xe7\\x9f\\xbf\\xe6\\xb1\\xa0,\\xe5\\xae\\x9a\\xe6\\x81\\xaf\\xe7\\x9f\\xbf\\xe6\\xb1\\xa0.sol\":4666:4676  msg.sender */\n      caller\n        /* \"\\xe8\\x87\\xaa\\xe5\\xb7\\xb1\\xe5\\x86\\x99\\xe4\\xb8\\xaa\\xe7\\x9f\\xbf\\xe6\\xb1\\xa0,\\xe5\\xae\\x9a\\xe6\\x81\\xaf\\xe7\\x9f\\xbf\\xe6\\xb1\\xa0.sol\":4657:4677  User_Map[msg.sender] */\n      0x00\n      dup2\n      dup2\n      mstore\n        /* \"\\xe8\\x87\\xaa\\xe5\\xb7\\xb1\\xe5\\x86\\x99\\xe4\\xb8\\xaa\\xe7\\x9f\\xbf\\xe6\\xb1\\xa0,\\xe5\\xae\\x9a\\xe6\\x81\\xaf\\xe7\\x9f\\xbf\\xe6\\xb1\\xa0.sol\":4657:4665  User_Map */\n      0x05\n        /* \"\\xe8\\x87\\xaa\\xe5\\xb7\\xb1\\xe5\\x86\\x99\\xe4\\xb8\\xaa\\xe7\\x9f\\xbf\\xe6\\xb1\\xa0,\\xe5\\xae\\x9a\\xe6\\x81\\xaf\\xe7\\x9f\\xbf\\xe6\\xb1\\xa0.sol\":4657:4677  User_Map[msg.sender] */\n      0x20\n      mstore\n      0x40\n      swap1\n      dup2\n      swap1\n      keccak256\n        /* \"\\xe8\\x87\\xaa\\xe5\\xb7\\xb1\\xe5\\x86\\x99\\xe4\\xb8\\xaa\\xe7\\x9f\\xbf\\xe6\\xb1\\xa0,\\xe5\\xae\\x9a\\xe6\\x81\\xaf\\xe7\\x9f\\xbf\\xe6\\xb1\\xa0.sol\":4657:4689  User_Map[msg.sender].whole_ratio */\n      0x03\n      add\n        /* \"\\xe8\\x87\\xaa\\xe5\\xb7\\xb1\\xe5\\x86\\x99\\xe4\\xb8\\xaa\\xe7\\x9f\\xbf\\xe6\\xb1\\xa0,\\xe5\\xae\\x9a\\xe6\\x81\\xaf\\xe7\\x9f\\xbf\\xe6\\xb1\\xa0.sol\":4657:4853  User_Map[msg.sender].whole_ratio = User_Map[msg.sender].last_totoken_ratio + (block.timestamp - User_Map[msg.sender].last_Stake_Time) * ((User_Map[msg.sender].stakeNumber * ratio /100) / 31536000) */\n      dup4\n      swap1\n      sstore\n        /* \"\\xe8\\x87\\xaa\\xe5\\xb7\\xb1\\xe5\\x86\\x99\\xe4\\xb8\\xaa\\xe7\\x9f\\xbf\\xe6\\xb1\\xa0,\\xe5\\xae\\x9a\\xe6\\x81\\xaf\\xe7\\x9f\\xbf\\xe6\\xb1\\xa0.sol\":4871:4878  totoken */\n      sload(0x02)\n        /* \"\\xe8\\x87\\xaa\\xe5\\xb7\\xb1\\xe5\\x86\\x99\\xe4\\xb8\\xaa\\xe7\\x9f\\xbf\\xe6\\xb1\\xa0,\\xe5\\xae\\x9a\\xe6\\x81\\xaf\\xe7\\x9f\\xbf\\xe6\\xb1\\xa0.sol\":4864:4934  IERC20(totoken).transfer(msg.sender, User_Map[msg.sender].whole_ratio) */\n      swap1\n      mload\n      shl(0xe0, 0xa9059cbb)\n      dup2\n      mstore\n      0x04\n      dup2\n      add\n        /* \"#utility.yul\":1786:1837   */\n      swap3\n      swap1\n      swap3\n      mstore\n        /* \"#utility.yul\":1853:1871   */\n      0x24\n      dup3\n      add\n        /* \"#utility.yul\":1846:1880   */\n      swap3\n      swap1\n      swap3\n      mstore\n      sub(shl(0xa0, 0x01), 0x01)\n        /* \"\\xe8\\x87\\xaa\\xe5\\xb7\\xb1\\xe5\\x86\\x99\\xe4\\xb8\\xaa\\xe7\\x9f\\xbf\\xe6\\xb1\\xa0,\\xe5\\xae\\x9a\\xe6\\x81\\xaf\\xe7\\x9f\\xbf\\xe6\\xb1\\xa0.sol\":4871:4878  totoken */\n      swap1\n      swap2\n      and\n      swap1\n        /* \"\\xe8\\x87\\xaa\\xe5\\xb7\\xb1\\xe5\\x86\\x99\\xe4\\xb8\\xaa\\xe7\\x9f\\xbf\\xe6\\xb1\\xa0,\\xe5\\xae\\x9a\\xe6\\x81\\xaf\\xe7\\x9f\\xbf\\xe6\\xb1\\xa0.sol\":4864:4888  IERC20(totoken).transfer */\n      0xa9059cbb\n      swap1\n        /* \"#utility.yul\":1759:1777   */\n      0x44\n      add\n        /* \"\\xe8\\x87\\xaa\\xe5\\xb7\\xb1\\xe5\\x86\\x99\\xe4\\xb8\\xaa\\xe7\\x9f\\xbf\\xe6\\xb1\\xa0,\\xe5\\xae\\x9a\\xe6\\x81\\xaf\\xe7\\x9f\\xbf\\xe6\\xb1\\xa0.sol\":4864:4934  IERC20(totoken).transfer(msg.sender, User_Map[msg.sender].whole_ratio) */\n      0x20\n      mload(0x40)\n      dup1\n      dup4\n      sub\n      dup2\n      0x00\n      dup8\n      gas\n      call\n      iszero\n      dup1\n      iszero\n      tag_126\n      jumpi\n      returndatasize\n      0x00\n      dup1\n      returndatacopy\n      revert(0x00, returndatasize)\n    tag_126:\n      pop\n      pop\n      pop\n      pop\n      mload(0x40)\n      returndatasize\n      not(0x1f)\n      0x1f\n      dup3\n      add\n      and\n      dup3\n      add\n      dup1\n      0x40\n      mstore\n      pop\n      dup2\n      add\n      swap1\n      tag_127\n      swap2\n      swap1\n      tag_71\n      jump\t// in\n    tag_127:\n      pop\n        /* \"\\xe8\\x87\\xaa\\xe5\\xb7\\xb1\\xe5\\x86\\x99\\xe4\\xb8\\xaa\\xe7\\x9f\\xbf\\xe6\\xb1\\xa0,\\xe5\\xae\\x9a\\xe6\\x81\\xaf\\xe7\\x9f\\xbf\\xe6\\xb1\\xa0.sol\":4962:4972  msg.sender */\n      caller\n        /* \"\\xe8\\x87\\xaa\\xe5\\xb7\\xb1\\xe5\\x86\\x99\\xe4\\xb8\\xaa\\xe7\\x9f\\xbf\\xe6\\xb1\\xa0,\\xe5\\xae\\x9a\\xe6\\x81\\xaf\\xe7\\x9f\\xbf\\xe6\\xb1\\xa0.sol\":4974:4994  User_Map[msg.sender] */\n      0x00\n      dup2\n      dup2\n      mstore\n        /* \"\\xe8\\x87\\xaa\\xe5\\xb7\\xb1\\xe5\\x86\\x99\\xe4\\xb8\\xaa\\xe7\\x9f\\xbf\\xe6\\xb1\\xa0,\\xe5\\xae\\x9a\\xe6\\x81\\xaf\\xe7\\x9f\\xbf\\xe6\\xb1\\xa0.sol\":4974:4982  User_Map */\n      0x05\n        /* \"\\xe8\\x87\\xaa\\xe5\\xb7\\xb1\\xe5\\x86\\x99\\xe4\\xb8\\xaa\\xe7\\x9f\\xbf\\xe6\\xb1\\xa0,\\xe5\\xae\\x9a\\xe6\\x81\\xaf\\xe7\\x9f\\xbf\\xe6\\xb1\\xa0.sol\":4974:4994  User_Map[msg.sender] */\n      0x20\n      swap1\n      dup2\n      mstore\n      0x40\n      swap2\n      dup3\n      swap1\n      keccak256\n        /* \"\\xe8\\x87\\xaa\\xe5\\xb7\\xb1\\xe5\\x86\\x99\\xe4\\xb8\\xaa\\xe7\\x9f\\xbf\\xe6\\xb1\\xa0,\\xe5\\xae\\x9a\\xe6\\x81\\xaf\\xe7\\x9f\\xbf\\xe6\\xb1\\xa0.sol\":4974:5006  User_Map[msg.sender].whole_ratio */\n      0x03\n      add\n      sload\n        /* \"\\xe8\\x87\\xaa\\xe5\\xb7\\xb1\\xe5\\x86\\x99\\xe4\\xb8\\xaa\\xe7\\x9f\\xbf\\xe6\\xb1\\xa0,\\xe5\\xae\\x9a\\xe6\\x81\\xaf\\xe7\\x9f\\xbf\\xe6\\xb1\\xa0.sol\":4953:5007  transfer(msg.sender, User_Map[msg.sender].whole_ratio) */\n      swap2\n      mload\n        /* \"#utility.yul\":745:770   */\n      swap2\n      dup3\n      mstore\n      0x00\n      dup1\n      mload\n      0x20\n      data_6ee032249450bc73eb21baa464f9befee4ae388930c9f61a58862db0c63f30c1\n      dup4\n      codecopy\n      dup2\n      mload\n      swap2\n      mstore\n        /* \"\\xe8\\x87\\xaa\\xe5\\xb7\\xb1\\xe5\\x86\\x99\\xe4\\xb8\\xaa\\xe7\\x9f\\xbf\\xe6\\xb1\\xa0,\\xe5\\xae\\x9a\\xe6\\x81\\xaf\\xe7\\x9f\\xbf\\xe6\\xb1\\xa0.sol\":4953:5007  transfer(msg.sender, User_Map[msg.sender].whole_ratio) */\n      swap2\n        /* \"#utility.yul\":718:736   */\n      add\n        /* \"\\xe8\\x87\\xaa\\xe5\\xb7\\xb1\\xe5\\x86\\x99\\xe4\\xb8\\xaa\\xe7\\x9f\\xbf\\xe6\\xb1\\xa0,\\xe5\\xae\\x9a\\xe6\\x81\\xaf\\xe7\\x9f\\xbf\\xe6\\xb1\\xa0.sol\":4953:5007  transfer(msg.sender, User_Map[msg.sender].whole_ratio) */\n      mload(0x40)\n      dup1\n      swap2\n      sub\n      swap1\n      log2\n        /* \"\\xe8\\x87\\xaa\\xe5\\xb7\\xb1\\xe5\\x86\\x99\\xe4\\xb8\\xaa\\xe7\\x9f\\xbf\\xe6\\xb1\\xa0,\\xe5\\xae\\x9a\\xe6\\x81\\xaf\\xe7\\x9f\\xbf\\xe6\\xb1\\xa0.sol\":5029:5039  msg.sender */\n      caller\n        /* \"\\xe8\\x87\\xaa\\xe5\\xb7\\xb1\\xe5\\x86\\x99\\xe4\\xb8\\xaa\\xe7\\x9f\\xbf\\xe6\\xb1\\xa0,\\xe5\\xae\\x9a\\xe6\\x81\\xaf\\xe7\\x9f\\xbf\\xe6\\xb1\\xa0.sol\":5055:5056  0 */\n      0x00\n        /* \"\\xe8\\x87\\xaa\\xe5\\xb7\\xb1\\xe5\\x86\\x99\\xe4\\xb8\\xaa\\xe7\\x9f\\xbf\\xe6\\xb1\\xa0,\\xe5\\xae\\x9a\\xe6\\x81\\xaf\\xe7\\x9f\\xbf\\xe6\\xb1\\xa0.sol\":5020:5040  User_Map[msg.sender] */\n      dup2\n      dup2\n      mstore\n        /* \"\\xe8\\x87\\xaa\\xe5\\xb7\\xb1\\xe5\\x86\\x99\\xe4\\xb8\\xaa\\xe7\\x9f\\xbf\\xe6\\xb1\\xa0,\\xe5\\xae\\x9a\\xe6\\x81\\xaf\\xe7\\x9f\\xbf\\xe6\\xb1\\xa0.sol\":5020:5028  User_Map */\n      0x05\n        /* \"\\xe8\\x87\\xaa\\xe5\\xb7\\xb1\\xe5\\x86\\x99\\xe4\\xb8\\xaa\\xe7\\x9f\\xbf\\xe6\\xb1\\xa0,\\xe5\\xae\\x9a\\xe6\\x81\\xaf\\xe7\\x9f\\xbf\\xe6\\xb1\\xa0.sol\":5020:5040  User_Map[msg.sender] */\n      0x20\n      mstore\n      0x40\n      dup1\n      dup3\n      keccak256\n        /* \"\\xe8\\x87\\xaa\\xe5\\xb7\\xb1\\xe5\\x86\\x99\\xe4\\xb8\\xaa\\xe7\\x9f\\xbf\\xe6\\xb1\\xa0,\\xe5\\xae\\x9a\\xe6\\x81\\xaf\\xe7\\x9f\\xbf\\xe6\\xb1\\xa0.sol\":5020:5052  User_Map[msg.sender].whole_ratio */\n      0x03\n      dup2\n      add\n        /* \"\\xe8\\x87\\xaa\\xe5\\xb7\\xb1\\xe5\\x86\\x99\\xe4\\xb8\\xaa\\xe7\\x9f\\xbf\\xe6\\xb1\\xa0,\\xe5\\xae\\x9a\\xe6\\x81\\xaf\\xe7\\x9f\\xbf\\xe6\\xb1\\xa0.sol\":5020:5056  User_Map[msg.sender].whole_ratio = 0 */\n      dup4\n      swap1\n      sstore\n        /* \"\\xe8\\x87\\xaa\\xe5\\xb7\\xb1\\xe5\\x86\\x99\\xe4\\xb8\\xaa\\xe7\\x9f\\xbf\\xe6\\xb1\\xa0,\\xe5\\xae\\x9a\\xe6\\x81\\xaf\\xe7\\x9f\\xbf\\xe6\\xb1\\xa0.sol\":5067:5106  User_Map[msg.sender].last_totoken_ratio */\n      0x02\n      dup2\n      add\n        /* \"\\xe8\\x87\\xaa\\xe5\\xb7\\xb1\\xe5\\x86\\x99\\xe4\\xb8\\xaa\\xe7\\x9f\\xbf\\xe6\\xb1\\xa0,\\xe5\\xae\\x9a\\xe6\\x81\\xaf\\xe7\\x9f\\xbf\\xe6\\xb1\\xa0.sol\":5067:5110  User_Map[msg.sender].last_totoken_ratio = 0 */\n      swap3\n      swap1\n      swap3\n      sstore\n      0x01\n        /* \"\\xe8\\x87\\xaa\\xe5\\xb7\\xb1\\xe5\\x86\\x99\\xe4\\xb8\\xaa\\xe7\\x9f\\xbf\\xe6\\xb1\\xa0,\\xe5\\xae\\x9a\\xe6\\x81\\xaf\\xe7\\x9f\\xbf\\xe6\\xb1\\xa0.sol\":5130:5140  staketoken */\n      sload\n        /* \"\\xe8\\x87\\xaa\\xe5\\xb7\\xb1\\xe5\\x86\\x99\\xe4\\xb8\\xaa\\xe7\\x9f\\xbf\\xe6\\xb1\\xa0,\\xe5\\xae\\x9a\\xe6\\x81\\xaf\\xe7\\x9f\\xbf\\xe6\\xb1\\xa0.sol\":5163:5195  User_Map[msg.sender].stakeNumber */\n      swap2\n      sload\n        /* \"\\xe8\\x87\\xaa\\xe5\\xb7\\xb1\\xe5\\x86\\x99\\xe4\\xb8\\xaa\\xe7\\x9f\\xbf\\xe6\\xb1\\xa0,\\xe5\\xae\\x9a\\xe6\\x81\\xaf\\xe7\\x9f\\xbf\\xe6\\xb1\\xa0.sol\":5123:5196  IERC20(staketoken).transfer(msg.sender, User_Map[msg.sender].stakeNumber) */\n      swap1\n      mload\n      shl(0xe0, 0xa9059cbb)\n      dup2\n      mstore\n      0x04\n      dup2\n      add\n        /* \"#utility.yul\":1786:1837   */\n      swap4\n      swap1\n      swap4\n      mstore\n        /* \"#utility.yul\":1853:1871   */\n      0x24\n      dup4\n      add\n        /* \"#utility.yul\":1846:1880   */\n      mstore\n      sub(shl(0xa0, 0x01), 0x01)\n        /* \"\\xe8\\x87\\xaa\\xe5\\xb7\\xb1\\xe5\\x86\\x99\\xe4\\xb8\\xaa\\xe7\\x9f\\xbf\\xe6\\xb1\\xa0,\\xe5\\xae\\x9a\\xe6\\x81\\xaf\\xe7\\x9f\\xbf\\xe6\\xb1\\xa0.sol\":5130:5140  staketoken */\n      and\n      swap1\n        /* \"\\xe8\\x87\\xaa\\xe5\\xb7\\xb1\\xe5\\x86\\x99\\xe4\\xb8\\xaa\\xe7\\x9f\\xbf\\xe6\\xb1\\xa0,\\xe5\\xae\\x9a\\xe6\\x81\\xaf\\xe7\\x9f\\xbf\\xe6\\xb1\\xa0.sol\":5123:5150  IERC20(staketoken).transfer */\n      0xa9059cbb\n      swap1\n        /* \"#utility.yul\":1759:1777   */\n      0x44\n      add\n        /* \"\\xe8\\x87\\xaa\\xe5\\xb7\\xb1\\xe5\\x86\\x99\\xe4\\xb8\\xaa\\xe7\\x9f\\xbf\\xe6\\xb1\\xa0,\\xe5\\xae\\x9a\\xe6\\x81\\xaf\\xe7\\x9f\\xbf\\xe6\\xb1\\xa0.sol\":5123:5196  IERC20(staketoken).transfer(msg.sender, User_Map[msg.sender].stakeNumber) */\n      0x20\n      mload(0x40)\n      dup1\n      dup4\n      sub\n      dup2\n      0x00\n      dup8\n      gas\n      call\n      iszero\n      dup1\n      iszero\n      tag_131\n      jumpi\n      returndatasize\n      0x00\n      dup1\n      returndatacopy\n      revert(0x00, returndatasize)\n    tag_131:\n      pop\n      pop\n      pop\n      pop\n      mload(0x40)\n      returndatasize\n      not(0x1f)\n      0x1f\n      dup3\n      add\n      and\n      dup3\n      add\n      dup1\n      0x40\n      mstore\n      pop\n      dup2\n      add\n      swap1\n      tag_132\n      swap2\n      swap1\n      tag_71\n      jump\t// in\n    tag_132:\n      pop\n        /* \"\\xe8\\x87\\xaa\\xe5\\xb7\\xb1\\xe5\\x86\\x99\\xe4\\xb8\\xaa\\xe7\\x9f\\xbf\\xe6\\xb1\\xa0,\\xe5\\xae\\x9a\\xe6\\x81\\xaf\\xe7\\x9f\\xbf\\xe6\\xb1\\xa0.sol\":5224:5234  msg.sender */\n      caller\n        /* \"\\xe8\\x87\\xaa\\xe5\\xb7\\xb1\\xe5\\x86\\x99\\xe4\\xb8\\xaa\\xe7\\x9f\\xbf\\xe6\\xb1\\xa0,\\xe5\\xae\\x9a\\xe6\\x81\\xaf\\xe7\\x9f\\xbf\\xe6\\xb1\\xa0.sol\":5236:5256  User_Map[msg.sender] */\n      0x00\n      dup2\n      dup2\n      mstore\n        /* \"\\xe8\\x87\\xaa\\xe5\\xb7\\xb1\\xe5\\x86\\x99\\xe4\\xb8\\xaa\\xe7\\x9f\\xbf\\xe6\\xb1\\xa0,\\xe5\\xae\\x9a\\xe6\\x81\\xaf\\xe7\\x9f\\xbf\\xe6\\xb1\\xa0.sol\":5236:5244  User_Map */\n      0x05\n        /* \"\\xe8\\x87\\xaa\\xe5\\xb7\\xb1\\xe5\\x86\\x99\\xe4\\xb8\\xaa\\xe7\\x9f\\xbf\\xe6\\xb1\\xa0,\\xe5\\xae\\x9a\\xe6\\x81\\xaf\\xe7\\x9f\\xbf\\xe6\\xb1\\xa0.sol\":5236:5256  User_Map[msg.sender] */\n      0x20\n      swap1\n      dup2\n      mstore\n      0x40\n      swap2\n      dup3\n      swap1\n      keccak256\n        /* \"\\xe8\\x87\\xaa\\xe5\\xb7\\xb1\\xe5\\x86\\x99\\xe4\\xb8\\xaa\\xe7\\x9f\\xbf\\xe6\\xb1\\xa0,\\xe5\\xae\\x9a\\xe6\\x81\\xaf\\xe7\\x9f\\xbf\\xe6\\xb1\\xa0.sol\":5236:5268  User_Map[msg.sender].stakeNumber */\n      sload\n        /* \"\\xe8\\x87\\xaa\\xe5\\xb7\\xb1\\xe5\\x86\\x99\\xe4\\xb8\\xaa\\xe7\\x9f\\xbf\\xe6\\xb1\\xa0,\\xe5\\xae\\x9a\\xe6\\x81\\xaf\\xe7\\x9f\\xbf\\xe6\\xb1\\xa0.sol\":5215:5269  transfer(msg.sender, User_Map[msg.sender].stakeNumber) */\n      swap2\n      mload\n        /* \"#utility.yul\":745:770   */\n      swap2\n      dup3\n      mstore\n      0x00\n      dup1\n      mload\n      0x20\n      data_6ee032249450bc73eb21baa464f9befee4ae388930c9f61a58862db0c63f30c1\n      dup4\n      codecopy\n      dup2\n      mload\n      swap2\n      mstore\n        /* \"\\xe8\\x87\\xaa\\xe5\\xb7\\xb1\\xe5\\x86\\x99\\xe4\\xb8\\xaa\\xe7\\x9f\\xbf\\xe6\\xb1\\xa0,\\xe5\\xae\\x9a\\xe6\\x81\\xaf\\xe7\\x9f\\xbf\\xe6\\xb1\\xa0.sol\":5215:5269  transfer(msg.sender, User_Map[msg.sender].stakeNumber) */\n      swap2\n        /* \"#utility.yul\":718:736   */\n      add\n        /* \"\\xe8\\x87\\xaa\\xe5\\xb7\\xb1\\xe5\\x86\\x99\\xe4\\xb8\\xaa\\xe7\\x9f\\xbf\\xe6\\xb1\\xa0,\\xe5\\xae\\x9a\\xe6\\x81\\xaf\\xe7\\x9f\\xbf\\xe6\\xb1\\xa0.sol\":5215:5269  transfer(msg.sender, User_Map[msg.sender].stakeNumber) */\n      mload(0x40)\n      dup1\n      swap2\n      sub\n      swap1\n      log2\n        /* \"\\xe8\\x87\\xaa\\xe5\\xb7\\xb1\\xe5\\x86\\x99\\xe4\\xb8\\xaa\\xe7\\x9f\\xbf\\xe6\\xb1\\xa0,\\xe5\\xae\\x9a\\xe6\\x81\\xaf\\xe7\\x9f\\xbf\\xe6\\xb1\\xa0.sol\":5291:5301  msg.sender */\n      caller\n        /* \"\\xe8\\x87\\xaa\\xe5\\xb7\\xb1\\xe5\\x86\\x99\\xe4\\xb8\\xaa\\xe7\\x9f\\xbf\\xe6\\xb1\\xa0,\\xe5\\xae\\x9a\\xe6\\x81\\xaf\\xe7\\x9f\\xbf\\xe6\\xb1\\xa0.sol\":5317:5318  0 */\n      0x00\n        /* \"\\xe8\\x87\\xaa\\xe5\\xb7\\xb1\\xe5\\x86\\x99\\xe4\\xb8\\xaa\\xe7\\x9f\\xbf\\xe6\\xb1\\xa0,\\xe5\\xae\\x9a\\xe6\\x81\\xaf\\xe7\\x9f\\xbf\\xe6\\xb1\\xa0.sol\":5282:5302  User_Map[msg.sender] */\n      swap1\n      dup2\n      mstore\n        /* \"\\xe8\\x87\\xaa\\xe5\\xb7\\xb1\\xe5\\x86\\x99\\xe4\\xb8\\xaa\\xe7\\x9f\\xbf\\xe6\\xb1\\xa0,\\xe5\\xae\\x9a\\xe6\\x81\\xaf\\xe7\\x9f\\xbf\\xe6\\xb1\\xa0.sol\":5282:5290  User_Map */\n      0x05\n        /* \"\\xe8\\x87\\xaa\\xe5\\xb7\\xb1\\xe5\\x86\\x99\\xe4\\xb8\\xaa\\xe7\\x9f\\xbf\\xe6\\xb1\\xa0,\\xe5\\xae\\x9a\\xe6\\x81\\xaf\\xe7\\x9f\\xbf\\xe6\\xb1\\xa0.sol\":5282:5302  User_Map[msg.sender] */\n      0x20\n      mstore\n      0x40\n      dup2\n      keccak256\n        /* \"\\xe8\\x87\\xaa\\xe5\\xb7\\xb1\\xe5\\x86\\x99\\xe4\\xb8\\xaa\\xe7\\x9f\\xbf\\xe6\\xb1\\xa0,\\xe5\\xae\\x9a\\xe6\\x81\\xaf\\xe7\\x9f\\xbf\\xe6\\xb1\\xa0.sol\":5282:5318  User_Map[msg.sender].stakeNumber = 0 */\n      dup2\n      swap1\n      sstore\n        /* \"\\xe8\\x87\\xaa\\xe5\\xb7\\xb1\\xe5\\x86\\x99\\xe4\\xb8\\xaa\\xe7\\x9f\\xbf\\xe6\\xb1\\xa0,\\xe5\\xae\\x9a\\xe6\\x81\\xaf\\xe7\\x9f\\xbf\\xe6\\xb1\\xa0.sol\":5329:5340  stakeSupple */\n      0x03\n        /* \"\\xe8\\x87\\xaa\\xe5\\xb7\\xb1\\xe5\\x86\\x99\\xe4\\xb8\\xaa\\xe7\\x9f\\xbf\\xe6\\xb1\\xa0,\\xe5\\xae\\x9a\\xe6\\x81\\xaf\\xe7\\x9f\\xbf\\xe6\\xb1\\xa0.sol\":5329:5376  stakeSupple -= User_Map[msg.sender].stakeNumber */\n      dup1\n      sload\n        /* \"\\xe8\\x87\\xaa\\xe5\\xb7\\xb1\\xe5\\x86\\x99\\xe4\\xb8\\xaa\\xe7\\x9f\\xbf\\xe6\\xb1\\xa0,\\xe5\\xae\\x9a\\xe6\\x81\\xaf\\xe7\\x9f\\xbf\\xe6\\xb1\\xa0.sol\":5317:5318  0 */\n      dup3\n      swap1\n        /* \"\\xe8\\x87\\xaa\\xe5\\xb7\\xb1\\xe5\\x86\\x99\\xe4\\xb8\\xaa\\xe7\\x9f\\xbf\\xe6\\xb1\\xa0,\\xe5\\xae\\x9a\\xe6\\x81\\xaf\\xe7\\x9f\\xbf\\xe6\\xb1\\xa0.sol\":5329:5376  stakeSupple -= User_Map[msg.sender].stakeNumber */\n      tag_134\n      swap1\n        /* \"\\xe8\\x87\\xaa\\xe5\\xb7\\xb1\\xe5\\x86\\x99\\xe4\\xb8\\xaa\\xe7\\x9f\\xbf\\xe6\\xb1\\xa0,\\xe5\\xae\\x9a\\xe6\\x81\\xaf\\xe7\\x9f\\xbf\\xe6\\xb1\\xa0.sol\":5317:5318  0 */\n      dup3\n      swap1\n        /* \"\\xe8\\x87\\xaa\\xe5\\xb7\\xb1\\xe5\\x86\\x99\\xe4\\xb8\\xaa\\xe7\\x9f\\xbf\\xe6\\xb1\\xa0,\\xe5\\xae\\x9a\\xe6\\x81\\xaf\\xe7\\x9f\\xbf\\xe6\\xb1\\xa0.sol\":5329:5376  stakeSupple -= User_Map[msg.sender].stakeNumber */\n      tag_74\n      jump\t// in\n    tag_134:\n      swap1\n      swap2\n      sstore\n      pop\n        /* \"\\xe8\\x87\\xaa\\xe5\\xb7\\xb1\\xe5\\x86\\x99\\xe4\\xb8\\xaa\\xe7\\x9f\\xbf\\xe6\\xb1\\xa0,\\xe5\\xae\\x9a\\xe6\\x81\\xaf\\xe7\\x9f\\xbf\\xe6\\xb1\\xa0.sol\":5394:5398  true */\n      0x01\n      swap3\n        /* \"\\xe8\\x87\\xaa\\xe5\\xb7\\xb1\\xe5\\x86\\x99\\xe4\\xb8\\xaa\\xe7\\x9f\\xbf\\xe6\\xb1\\xa0,\\xe5\\xae\\x9a\\xe6\\x81\\xaf\\xe7\\x9f\\xbf\\xe6\\xb1\\xa0.sol\":4597:5406  function harvestwithDraw() public returns (bool) {... */\n      swap2\n      pop\n      pop\n      jump\t// out\n        /* \"#utility.yul\":206:386   */\n    tag_24:\n        /* \"#utility.yul\":265:271   */\n      0x00\n        /* \"#utility.yul\":318:320   */\n      0x20\n        /* \"#utility.yul\":306:315   */\n      dup3\n        /* \"#utility.yul\":297:304   */\n      dup5\n        /* \"#utility.yul\":293:316   */\n      sub\n        /* \"#utility.yul\":289:321   */\n      slt\n        /* \"#utility.yul\":286:338   */\n      iszero\n      tag_139\n      jumpi\n        /* \"#utility.yul\":334:335   */\n      0x00\n        /* \"#utility.yul\":331:332   */\n      dup1\n        /* \"#utility.yul\":324:336   */\n      revert\n        /* \"#utility.yul\":286:338   */\n    tag_139:\n      pop\n        /* \"#utility.yul\":357:380   */\n      calldataload\n      swap2\n        /* \"#utility.yul\":206:386   */\n      swap1\n      pop\n      jump\t// out\n        /* \"#utility.yul\":781:1067   */\n    tag_46:\n        /* \"#utility.yul\":840:846   */\n      0x00\n        /* \"#utility.yul\":893:895   */\n      0x20\n        /* \"#utility.yul\":881:890   */\n      dup3\n        /* \"#utility.yul\":872:879   */\n      dup5\n        /* \"#utility.yul\":868:891   */\n      sub\n        /* \"#utility.yul\":864:896   */\n      slt\n        /* \"#utility.yul\":861:913   */\n      iszero\n      tag_143\n      jumpi\n        /* \"#utility.yul\":909:910   */\n      0x00\n        /* \"#utility.yul\":906:907   */\n      dup1\n        /* \"#utility.yul\":899:911   */\n      revert\n        /* \"#utility.yul\":861:913   */\n    tag_143:\n        /* \"#utility.yul\":935:958   */\n      dup2\n      calldataload\n      sub(shl(0xa0, 0x01), 0x01)\n        /* \"#utility.yul\":987:1018   */\n      dup2\n      and\n        /* \"#utility.yul\":977:1019   */\n      dup2\n      eq\n        /* \"#utility.yul\":967:1037   */\n      tag_110\n      jumpi\n        /* \"#utility.yul\":1033:1034   */\n      0x00\n        /* \"#utility.yul\":1030:1031   */\n      dup1\n        /* \"#utility.yul\":1023:1035   */\n      revert\n        /* \"#utility.yul\":1891:2168   */\n    tag_71:\n        /* \"#utility.yul\":1958:1964   */\n      0x00\n        /* \"#utility.yul\":2011:2013   */\n      0x20\n        /* \"#utility.yul\":1999:2008   */\n      dup3\n        /* \"#utility.yul\":1990:1997   */\n      dup5\n        /* \"#utility.yul\":1986:2009   */\n      sub\n        /* \"#utility.yul\":1982:2014   */\n      slt\n        /* \"#utility.yul\":1979:2031   */\n      iszero\n      tag_148\n      jumpi\n        /* \"#utility.yul\":2027:2028   */\n      0x00\n        /* \"#utility.yul\":2024:2025   */\n      dup1\n        /* \"#utility.yul\":2017:2029   */\n      revert\n        /* \"#utility.yul\":1979:2031   */\n    tag_148:\n        /* \"#utility.yul\":2059:2068   */\n      dup2\n        /* \"#utility.yul\":2053:2069   */\n      mload\n        /* \"#utility.yul\":2112:2117   */\n      dup1\n        /* \"#utility.yul\":2105:2118   */\n      iszero\n        /* \"#utility.yul\":2098:2119   */\n      iszero\n        /* \"#utility.yul\":2091:2096   */\n      dup2\n        /* \"#utility.yul\":2088:2120   */\n      eq\n        /* \"#utility.yul\":2078:2138   */\n      tag_110\n      jumpi\n        /* \"#utility.yul\":2134:2135   */\n      0x00\n        /* \"#utility.yul\":2131:2132   */\n      dup1\n        /* \"#utility.yul\":2124:2136   */\n      revert\n        /* \"#utility.yul\":2173:2300   */\n    tag_135:\n        /* \"#utility.yul\":2234:2244   */\n      0x4e487b71\n        /* \"#utility.yul\":2229:2232   */\n      0xe0\n        /* \"#utility.yul\":2225:2245   */\n      shl\n        /* \"#utility.yul\":2222:2223   */\n      0x00\n        /* \"#utility.yul\":2215:2246   */\n      mstore\n        /* \"#utility.yul\":2265:2269   */\n      0x11\n        /* \"#utility.yul\":2262:2263   */\n      0x04\n        /* \"#utility.yul\":2255:2270   */\n      mstore\n        /* \"#utility.yul\":2289:2293   */\n      0x24\n        /* \"#utility.yul\":2286:2287   */\n      0x00\n        /* \"#utility.yul\":2279:2294   */\n      revert\n        /* \"#utility.yul\":2305:2430   */\n    tag_74:\n        /* \"#utility.yul\":2345:2349   */\n      0x00\n        /* \"#utility.yul\":2373:2374   */\n      dup3\n        /* \"#utility.yul\":2370:2371   */\n      dup3\n        /* \"#utility.yul\":2367:2375   */\n      lt\n        /* \"#utility.yul\":2364:2398   */\n      iszero\n      tag_153\n      jumpi\n        /* \"#utility.yul\":2378:2396   */\n      tag_153\n      tag_135\n      jump\t// in\n    tag_153:\n      pop\n        /* \"#utility.yul\":2415:2424   */\n      sub\n      swap1\n        /* \"#utility.yul\":2305:2430   */\n      jump\t// out\n        /* \"#utility.yul\":2815:2983   */\n    tag_83:\n        /* \"#utility.yul\":2855:2862   */\n      0x00\n        /* \"#utility.yul\":2921:2922   */\n      dup2\n        /* \"#utility.yul\":2917:2918   */\n      0x00\n        /* \"#utility.yul\":2913:2919   */\n      not\n        /* \"#utility.yul\":2909:2923   */\n      div\n        /* \"#utility.yul\":2906:2907   */\n      dup4\n        /* \"#utility.yul\":2903:2924   */\n      gt\n        /* \"#utility.yul\":2898:2899   */\n      dup3\n        /* \"#utility.yul\":2891:2900   */\n      iszero\n        /* \"#utility.yul\":2884:2901   */\n      iszero\n        /* \"#utility.yul\":2880:2925   */\n      and\n        /* \"#utility.yul\":2877:2948   */\n      iszero\n      tag_157\n      jumpi\n        /* \"#utility.yul\":2928:2946   */\n      tag_157\n      tag_135\n      jump\t// in\n    tag_157:\n      pop\n        /* \"#utility.yul\":2968:2977   */\n      mul\n      swap1\n        /* \"#utility.yul\":2815:2983   */\n      jump\t// out\n        /* \"#utility.yul\":2988:3205   */\n    tag_85:\n        /* \"#utility.yul\":3028:3029   */\n      0x00\n        /* \"#utility.yul\":3054:3055   */\n      dup3\n        /* \"#utility.yul\":3044:3176   */\n      tag_159\n      jumpi\n        /* \"#utility.yul\":3098:3108   */\n      0x4e487b71\n        /* \"#utility.yul\":3093:3096   */\n      0xe0\n        /* \"#utility.yul\":3089:3109   */\n      shl\n        /* \"#utility.yul\":3086:3087   */\n      0x00\n        /* \"#utility.yul\":3079:3110   */\n      mstore\n        /* \"#utility.yul\":3133:3137   */\n      0x12\n        /* \"#utility.yul\":3130:3131   */\n      0x04\n        /* \"#utility.yul\":3123:3138   */\n      mstore\n        /* \"#utility.yul\":3161:3165   */\n      0x24\n        /* \"#utility.yul\":3158:3159   */\n      0x00\n        /* \"#utility.yul\":3151:3166   */\n      revert\n        /* \"#utility.yul\":3044:3176   */\n    tag_159:\n      pop\n        /* \"#utility.yul\":3190:3199   */\n      div\n      swap1\n        /* \"#utility.yul\":2988:3205   */\n      jump\t// out\n        /* \"#utility.yul\":3210:3338   */\n    tag_90:\n        /* \"#utility.yul\":3250:3253   */\n      0x00\n        /* \"#utility.yul\":3281:3282   */\n      dup3\n        /* \"#utility.yul\":3277:3283   */\n      not\n        /* \"#utility.yul\":3274:3275   */\n      dup3\n        /* \"#utility.yul\":3271:3284   */\n      gt\n        /* \"#utility.yul\":3268:3307   */\n      iszero\n      tag_162\n      jumpi\n        /* \"#utility.yul\":3287:3305   */\n      tag_162\n      tag_135\n      jump\t// in\n    tag_162:\n      pop\n        /* \"#utility.yul\":3323:3332   */\n      add\n      swap1\n        /* \"#utility.yul\":3210:3338   */\n      jump\t// out\n    stop\n    data_6ee032249450bc73eb21baa464f9befee4ae388930c9f61a58862db0c63f30c1 a9059cbb2ab09eb219583f4a59a5d0623ade346d962bcd4e46b11da047c9049b\n\n    auxdata: 0xa26469706673582212200a3cb1cf09f1f76a5707d96cb13549da496ce85ccbe0eb38db58d37bc575e76964736f6c634300080f0033\n}\n",
				"bytecode": {
					"linkReferences": {},
					"object": "608060405234801561001057600080fd5b50604051610c34380380610c3483398101604081905261002f91610177565b600480546001600160a01b031916331790556001600160a01b03821661008f5760405162461bcd60e51b815260206004820152601060248201526f4e4f542c53203058204144445245535360801b60448201526064015b60405180910390fd5b6001600160a01b0381166100d85760405162461bcd60e51b815260206004820152601060248201526f4e4f542c53203058204144445245535360801b6044820152606401610086565b806001600160a01b0316826001600160a01b03161461012a5760405162461bcd60e51b815260206004820152600e60248201526d13915151081859dc99595b595b9d60921b6044820152606401610086565b600180546001600160a01b039384166001600160a01b031991821617909155600280549290931691161790556101aa565b80516001600160a01b038116811461017257600080fd5b919050565b6000806040838503121561018a57600080fd5b6101938361015b565b91506101a16020840161015b565b90509250929050565b610a7b806101b96000396000f3fe608060405234801561001057600080fd5b50600436106100cf5760003560e01c806371ca337d1161008c578063b2237ba311610066578063b2237ba3146101f1578063d942727f14610206578063dab2997b1461020f578063fb5bca7a1461022257600080fd5b806371ca337d146101655780638c93ecff1461016e5780638da5cb5b146101de57600080fd5b80630fdb1c10146100d4578063227a473b146100f15780632c46502d146101045780634641257d1461012f578063529aca49146101375780635e9f44351461014d575b600080fd5b6100dc61022a565b60405190151581526020015b60405180910390f35b6100dc6100ff36600461093b565b61031f565b600254610117906001600160a01b031681565b6040516001600160a01b0390911681526020016100e8565b6100dc6104b1565b61013f61064a565b6040519081526020016100e8565b3360009081526005602052604090206002015461013f565b61013f60005481565b6101b161017c366004610954565b600560208190526000918252604090912080546001820154600283015460038401546004850154949095015492949193909286565b604080519687526020870195909552938501929092526060840152608083015260a082015260c0016100e8565b600454610117906001600160a01b031681565b6102046101ff36600461093b565b6106b7565b005b61013f60035481565b600154610117906001600160a01b031681565b6100dc610706565b6001543360008181526005602052604080822054905163a9059cbb60e01b815260048101939093526024830152916001600160a01b03169063a9059cbb906044016020604051808303816000875af115801561028a573d6000803e3d6000fd5b505050506040513d601f19601f820116820180604052508101906102ae919061097d565b5033600081815260056020908152604091829020549151918252600080516020610a26833981519152910160405180910390a23360009081526005602052604081205460038054919290916103049084906109b5565b90915550503360009081526005602052604081205550600190565b6001546040516323b872dd60e01b8152336004820152306024820152604481018390526000916001600160a01b0316906323b872dd906064016020604051808303816000875af1158015610377573d6000803e3d6000fd5b505050506040513d601f19601f8201168201806040525081019061039b919061097d565b50604051828152309033907f1fd6ebb971d137acf3f01670862b8a96758cfc7e39dccb093e68daf461b0262c9060200160405180910390a36000805433825260056020526040909120546301e13380916064916103f891906109cc565b61040291906109eb565b61040c91906109eb565b3360009081526005602052604090206001015461042990426109b5565b61043391906109cc565b336000908152600560205260408120600281019290925581548492919061045b908490610a0d565b90915550503360009081526005602052604081204260019091015560038054849290610488908490610a0d565b909155505033600090815260056020526040902060018082015460049092019190915592915050565b60008054338252600560205260408220546301e13380916064916104d591906109cc565b6104df91906109eb565b6104e991906109eb565b3360009081526005602052604090206001015461050690426109b5565b61051091906109cc565b3360009081526005602052604090206002015461052d9190610a0d565b3360008181526005602052604090819020600301839055600254905163a9059cbb60e01b8152600481019290925260248201929092526001600160a01b039091169063a9059cbb906044016020604051808303816000875af1158015610597573d6000803e3d6000fd5b505050506040513d601f19601f820116820180604052508101906105bb919061097d565b5033600081815260056020908152604091829020600301549151918252600080516020610a26833981519152910160405180910390a233600090815260056020819052604082206003810154910180549192909161061a908490610a0d565b90915550503360009081526005602052604081206003810182905560028101919091554260049091015550600190565b33600090815260056020526040812060040154819061066990426109b5565b600080543382526005602052604082205492935090916301e133809160649161069291906109cc565b61069c91906109eb565b6106a691906109eb565b6106b090836109cc565b9392505050565b6004546001600160a01b031633146107015760405162461bcd60e51b81526020600482015260096024820152683737ba1037bbb732b960b91b604482015260640160405180910390fd5b600055565b60008054338252600560205260408220546301e133809160649161072a91906109cc565b61073491906109eb565b61073e91906109eb565b3360009081526005602052604090206001015461075b90426109b5565b61076591906109cc565b336000908152600560205260409020600201546107829190610a0d565b3360008181526005602052604090819020600301839055600254905163a9059cbb60e01b8152600481019290925260248201929092526001600160a01b039091169063a9059cbb906044016020604051808303816000875af11580156107ec573d6000803e3d6000fd5b505050506040513d601f19601f82011682018060405250810190610810919061097d565b5033600081815260056020908152604091829020600301549151918252600080516020610a26833981519152910160405180910390a2336000818152600560205260408082206003810183905560028101929092556001549154905163a9059cbb60e01b8152600481019390935260248301526001600160a01b03169063a9059cbb906044016020604051808303816000875af11580156108b5573d6000803e3d6000fd5b505050506040513d601f19601f820116820180604052508101906108d9919061097d565b5033600081815260056020908152604091829020549151918252600080516020610a26833981519152910160405180910390a233600090815260056020526040812081905560038054829061092f9082906109b5565b90915550600192915050565b60006020828403121561094d57600080fd5b5035919050565b60006020828403121561096657600080fd5b81356001600160a01b03811681146106b057600080fd5b60006020828403121561098f57600080fd5b815180151581146106b057600080fd5b634e487b7160e01b600052601160045260246000fd5b6000828210156109c7576109c761099f565b500390565b60008160001904831182151516156109e6576109e661099f565b500290565b600082610a0857634e487b7160e01b600052601260045260246000fd5b500490565b60008219821115610a2057610a2061099f565b50019056fea9059cbb2ab09eb219583f4a59a5d0623ade346d962bcd4e46b11da047c9049ba26469706673582212200a3cb1cf09f1f76a5707d96cb13549da496ce85ccbe0eb38db58d37bc575e76964736f6c634300080f0033",
					"opcodes": "PUSH1 0x80 PUSH1 0x40 MSTORE CALLVALUE DUP1 ISZERO PUSH2 0x10 JUMPI PUSH1 0x0 DUP1 REVERT JUMPDEST POP PUSH1 0x40 MLOAD PUSH2 0xC34 CODESIZE SUB DUP1 PUSH2 0xC34 DUP4 CODECOPY DUP2 ADD PUSH1 0x40 DUP2 SWAP1 MSTORE PUSH2 0x2F SWAP2 PUSH2 0x177 JUMP JUMPDEST PUSH1 0x4 DUP1 SLOAD PUSH1 0x1 PUSH1 0x1 PUSH1 0xA0 SHL SUB NOT AND CALLER OR SWAP1 SSTORE PUSH1 0x1 PUSH1 0x1 PUSH1 0xA0 SHL SUB DUP3 AND PUSH2 0x8F JUMPI PUSH1 0x40 MLOAD PUSH3 0x461BCD PUSH1 0xE5 SHL DUP2 MSTORE PUSH1 0x20 PUSH1 0x4 DUP3 ADD MSTORE PUSH1 0x10 PUSH1 0x24 DUP3 ADD MSTORE PUSH16 0x4E4F542C532030582041444452455353 PUSH1 0x80 SHL PUSH1 0x44 DUP3 ADD MSTORE PUSH1 0x64 ADD JUMPDEST PUSH1 0x40 MLOAD DUP1 SWAP2 SUB SWAP1 REVERT JUMPDEST PUSH1 0x1 PUSH1 0x1 PUSH1 0xA0 SHL SUB DUP2 AND PUSH2 0xD8 JUMPI PUSH1 0x40 MLOAD PUSH3 0x461BCD PUSH1 0xE5 SHL DUP2 MSTORE PUSH1 0x20 PUSH1 0x4 DUP3 ADD MSTORE PUSH1 0x10 PUSH1 0x24 DUP3 ADD MSTORE PUSH16 0x4E4F542C532030582041444452455353 PUSH1 0x80 SHL PUSH1 0x44 DUP3 ADD MSTORE PUSH1 0x64 ADD PUSH2 0x86 JUMP JUMPDEST DUP1 PUSH1 0x1 PUSH1 0x1 PUSH1 0xA0 SHL SUB AND DUP3 PUSH1 0x1 PUSH1 0x1 PUSH1 0xA0 SHL SUB AND EQ PUSH2 0x12A JUMPI PUSH1 0x40 MLOAD PUSH3 0x461BCD PUSH1 0xE5 SHL DUP2 MSTORE PUSH1 0x20 PUSH1 0x4 DUP3 ADD MSTORE PUSH1 0xE PUSH1 0x24 DUP3 ADD MSTORE PUSH14 0x13915151081859DC99595B595B9D PUSH1 0x92 SHL PUSH1 0x44 DUP3 ADD MSTORE PUSH1 0x64 ADD PUSH2 0x86 JUMP JUMPDEST PUSH1 0x1 DUP1 SLOAD PUSH1 0x1 PUSH1 0x1 PUSH1 0xA0 SHL SUB SWAP4 DUP5 AND PUSH1 0x1 PUSH1 0x1 PUSH1 0xA0 SHL SUB NOT SWAP2 DUP3 AND OR SWAP1 SWAP2 SSTORE PUSH1 0x2 DUP1 SLOAD SWAP3 SWAP1 SWAP4 AND SWAP2 AND OR SWAP1 SSTORE PUSH2 0x1AA JUMP JUMPDEST DUP1 MLOAD PUSH1 0x1 PUSH1 0x1 PUSH1 0xA0 SHL SUB DUP2 AND DUP2 EQ PUSH2 0x172 JUMPI PUSH1 0x0 DUP1 REVERT JUMPDEST SWAP2 SWAP1 POP JUMP JUMPDEST PUSH1 0x0 DUP1 PUSH1 0x40 DUP4 DUP6 SUB SLT ISZERO PUSH2 0x18A JUMPI PUSH1 0x0 DUP1 REVERT JUMPDEST PUSH2 0x193 DUP4 PUSH2 0x15B JUMP JUMPDEST SWAP2 POP PUSH2 0x1A1 PUSH1 0x20 DUP5 ADD PUSH2 0x15B JUMP JUMPDEST SWAP1 POP SWAP3 POP SWAP3 SWAP1 POP JUMP JUMPDEST PUSH2 0xA7B DUP1 PUSH2 0x1B9 PUSH1 0x0 CODECOPY PUSH1 0x0 RETURN INVALID PUSH1 0x80 PUSH1 0x40 MSTORE CALLVALUE DUP1 ISZERO PUSH2 0x10 JUMPI PUSH1 0x0 DUP1 REVERT JUMPDEST POP PUSH1 0x4 CALLDATASIZE LT PUSH2 0xCF JUMPI PUSH1 0x0 CALLDATALOAD PUSH1 0xE0 SHR DUP1 PUSH4 0x71CA337D GT PUSH2 0x8C JUMPI DUP1 PUSH4 0xB2237BA3 GT PUSH2 0x66 JUMPI DUP1 PUSH4 0xB2237BA3 EQ PUSH2 0x1F1 JUMPI DUP1 PUSH4 0xD942727F EQ PUSH2 0x206 JUMPI DUP1 PUSH4 0xDAB2997B EQ PUSH2 0x20F JUMPI DUP1 PUSH4 0xFB5BCA7A EQ PUSH2 0x222 JUMPI PUSH1 0x0 DUP1 REVERT JUMPDEST DUP1 PUSH4 0x71CA337D EQ PUSH2 0x165 JUMPI DUP1 PUSH4 0x8C93ECFF EQ PUSH2 0x16E JUMPI DUP1 PUSH4 0x8DA5CB5B EQ PUSH2 0x1DE JUMPI PUSH1 0x0 DUP1 REVERT JUMPDEST DUP1 PUSH4 0xFDB1C10 EQ PUSH2 0xD4 JUMPI DUP1 PUSH4 0x227A473B EQ PUSH2 0xF1 JUMPI DUP1 PUSH4 0x2C46502D EQ PUSH2 0x104 JUMPI DUP1 PUSH4 0x4641257D EQ PUSH2 0x12F JUMPI DUP1 PUSH4 0x529ACA49 EQ PUSH2 0x137 JUMPI DUP1 PUSH4 0x5E9F4435 EQ PUSH2 0x14D JUMPI JUMPDEST PUSH1 0x0 DUP1 REVERT JUMPDEST PUSH2 0xDC PUSH2 0x22A JUMP JUMPDEST PUSH1 0x40 MLOAD SWAP1 ISZERO ISZERO DUP2 MSTORE PUSH1 0x20 ADD JUMPDEST PUSH1 0x40 MLOAD DUP1 SWAP2 SUB SWAP1 RETURN JUMPDEST PUSH2 0xDC PUSH2 0xFF CALLDATASIZE PUSH1 0x4 PUSH2 0x93B JUMP JUMPDEST PUSH2 0x31F JUMP JUMPDEST PUSH1 0x2 SLOAD PUSH2 0x117 SWAP1 PUSH1 0x1 PUSH1 0x1 PUSH1 0xA0 SHL SUB AND DUP2 JUMP JUMPDEST PUSH1 0x40 MLOAD PUSH1 0x1 PUSH1 0x1 PUSH1 0xA0 SHL SUB SWAP1 SWAP2 AND DUP2 MSTORE PUSH1 0x20 ADD PUSH2 0xE8 JUMP JUMPDEST PUSH2 0xDC PUSH2 0x4B1 JUMP JUMPDEST PUSH2 0x13F PUSH2 0x64A JUMP JUMPDEST PUSH1 0x40 MLOAD SWAP1 DUP2 MSTORE PUSH1 0x20 ADD PUSH2 0xE8 JUMP JUMPDEST CALLER PUSH1 0x0 SWAP1 DUP2 MSTORE PUSH1 0x5 PUSH1 0x20 MSTORE PUSH1 0x40 SWAP1 KECCAK256 PUSH1 0x2 ADD SLOAD PUSH2 0x13F JUMP JUMPDEST PUSH2 0x13F PUSH1 0x0 SLOAD DUP2 JUMP JUMPDEST PUSH2 0x1B1 PUSH2 0x17C CALLDATASIZE PUSH1 0x4 PUSH2 0x954 JUMP JUMPDEST PUSH1 0x5 PUSH1 0x20 DUP2 SWAP1 MSTORE PUSH1 0x0 SWAP2 DUP3 MSTORE PUSH1 0x40 SWAP1 SWAP2 KECCAK256 DUP1 SLOAD PUSH1 0x1 DUP3 ADD SLOAD PUSH1 0x2 DUP4 ADD SLOAD PUSH1 0x3 DUP5 ADD SLOAD PUSH1 0x4 DUP6 ADD SLOAD SWAP5 SWAP1 SWAP6 ADD SLOAD SWAP3 SWAP5 SWAP2 SWAP4 SWAP1 SWAP3 DUP7 JUMP JUMPDEST PUSH1 0x40 DUP1 MLOAD SWAP7 DUP8 MSTORE PUSH1 0x20 DUP8 ADD SWAP6 SWAP1 SWAP6 MSTORE SWAP4 DUP6 ADD SWAP3 SWAP1 SWAP3 MSTORE PUSH1 0x60 DUP5 ADD MSTORE PUSH1 0x80 DUP4 ADD MSTORE PUSH1 0xA0 DUP3 ADD MSTORE PUSH1 0xC0 ADD PUSH2 0xE8 JUMP JUMPDEST PUSH1 0x4 SLOAD PUSH2 0x117 SWAP1 PUSH1 0x1 PUSH1 0x1 PUSH1 0xA0 SHL SUB AND DUP2 JUMP JUMPDEST PUSH2 0x204 PUSH2 0x1FF CALLDATASIZE PUSH1 0x4 PUSH2 0x93B JUMP JUMPDEST PUSH2 0x6B7 JUMP JUMPDEST STOP JUMPDEST PUSH2 0x13F PUSH1 0x3 SLOAD DUP2 JUMP JUMPDEST PUSH1 0x1 SLOAD PUSH2 0x117 SWAP1 PUSH1 0x1 PUSH1 0x1 PUSH1 0xA0 SHL SUB AND DUP2 JUMP JUMPDEST PUSH2 0xDC PUSH2 0x706 JUMP JUMPDEST PUSH1 0x1 SLOAD CALLER PUSH1 0x0 DUP2 DUP2 MSTORE PUSH1 0x5 PUSH1 0x20 MSTORE PUSH1 0x40 DUP1 DUP3 KECCAK256 SLOAD SWAP1 MLOAD PUSH4 0xA9059CBB PUSH1 0xE0 SHL DUP2 MSTORE PUSH1 0x4 DUP2 ADD SWAP4 SWAP1 SWAP4 MSTORE PUSH1 0x24 DUP4 ADD MSTORE SWAP2 PUSH1 0x1 PUSH1 0x1 PUSH1 0xA0 SHL SUB AND SWAP1 PUSH4 0xA9059CBB SWAP1 PUSH1 0x44 ADD PUSH1 0x20 PUSH1 0x40 MLOAD DUP1 DUP4 SUB DUP2 PUSH1 0x0 DUP8 GAS CALL ISZERO DUP1 ISZERO PUSH2 0x28A JUMPI RETURNDATASIZE PUSH1 0x0 DUP1 RETURNDATACOPY RETURNDATASIZE PUSH1 0x0 REVERT JUMPDEST POP POP POP POP PUSH1 0x40 MLOAD RETURNDATASIZE PUSH1 0x1F NOT PUSH1 0x1F DUP3 ADD AND DUP3 ADD DUP1 PUSH1 0x40 MSTORE POP DUP2 ADD SWAP1 PUSH2 0x2AE SWAP2 SWAP1 PUSH2 0x97D JUMP JUMPDEST POP CALLER PUSH1 0x0 DUP2 DUP2 MSTORE PUSH1 0x5 PUSH1 0x20 SWAP1 DUP2 MSTORE PUSH1 0x40 SWAP2 DUP3 SWAP1 KECCAK256 SLOAD SWAP2 MLOAD SWAP2 DUP3 MSTORE PUSH1 0x0 DUP1 MLOAD PUSH1 0x20 PUSH2 0xA26 DUP4 CODECOPY DUP2 MLOAD SWAP2 MSTORE SWAP2 ADD PUSH1 0x40 MLOAD DUP1 SWAP2 SUB SWAP1 LOG2 CALLER PUSH1 0x0 SWAP1 DUP2 MSTORE PUSH1 0x5 PUSH1 0x20 MSTORE PUSH1 0x40 DUP2 KECCAK256 SLOAD PUSH1 0x3 DUP1 SLOAD SWAP2 SWAP3 SWAP1 SWAP2 PUSH2 0x304 SWAP1 DUP5 SWAP1 PUSH2 0x9B5 JUMP JUMPDEST SWAP1 SWAP2 SSTORE POP POP CALLER PUSH1 0x0 SWAP1 DUP2 MSTORE PUSH1 0x5 PUSH1 0x20 MSTORE PUSH1 0x40 DUP2 KECCAK256 SSTORE POP PUSH1 0x1 SWAP1 JUMP JUMPDEST PUSH1 0x1 SLOAD PUSH1 0x40 MLOAD PUSH4 0x23B872DD PUSH1 0xE0 SHL DUP2 MSTORE CALLER PUSH1 0x4 DUP3 ADD MSTORE ADDRESS PUSH1 0x24 DUP3 ADD MSTORE PUSH1 0x44 DUP2 ADD DUP4 SWAP1 MSTORE PUSH1 0x0 SWAP2 PUSH1 0x1 PUSH1 0x1 PUSH1 0xA0 SHL SUB AND SWAP1 PUSH4 0x23B872DD SWAP1 PUSH1 0x64 ADD PUSH1 0x20 PUSH1 0x40 MLOAD DUP1 DUP4 SUB DUP2 PUSH1 0x0 DUP8 GAS CALL ISZERO DUP1 ISZERO PUSH2 0x377 JUMPI RETURNDATASIZE PUSH1 0x0 DUP1 RETURNDATACOPY RETURNDATASIZE PUSH1 0x0 REVERT JUMPDEST POP POP POP POP PUSH1 0x40 MLOAD RETURNDATASIZE PUSH1 0x1F NOT PUSH1 0x1F DUP3 ADD AND DUP3 ADD DUP1 PUSH1 0x40 MSTORE POP DUP2 ADD SWAP1 PUSH2 0x39B SWAP2 SWAP1 PUSH2 0x97D JUMP JUMPDEST POP PUSH1 0x40 MLOAD DUP3 DUP2 MSTORE ADDRESS SWAP1 CALLER SWAP1 PUSH32 0x1FD6EBB971D137ACF3F01670862B8A96758CFC7E39DCCB093E68DAF461B0262C SWAP1 PUSH1 0x20 ADD PUSH1 0x40 MLOAD DUP1 SWAP2 SUB SWAP1 LOG3 PUSH1 0x0 DUP1 SLOAD CALLER DUP3 MSTORE PUSH1 0x5 PUSH1 0x20 MSTORE PUSH1 0x40 SWAP1 SWAP2 KECCAK256 SLOAD PUSH4 0x1E13380 SWAP2 PUSH1 0x64 SWAP2 PUSH2 0x3F8 SWAP2 SWAP1 PUSH2 0x9CC JUMP JUMPDEST PUSH2 0x402 SWAP2 SWAP1 PUSH2 0x9EB JUMP JUMPDEST PUSH2 0x40C SWAP2 SWAP1 PUSH2 0x9EB JUMP JUMPDEST CALLER PUSH1 0x0 SWAP1 DUP2 MSTORE PUSH1 0x5 PUSH1 0x20 MSTORE PUSH1 0x40 SWAP1 KECCAK256 PUSH1 0x1 ADD SLOAD PUSH2 0x429 SWAP1 TIMESTAMP PUSH2 0x9B5 JUMP JUMPDEST PUSH2 0x433 SWAP2 SWAP1 PUSH2 0x9CC JUMP JUMPDEST CALLER PUSH1 0x0 SWAP1 DUP2 MSTORE PUSH1 0x5 PUSH1 0x20 MSTORE PUSH1 0x40 DUP2 KECCAK256 PUSH1 0x2 DUP2 ADD SWAP3 SWAP1 SWAP3 SSTORE DUP2 SLOAD DUP5 SWAP3 SWAP2 SWAP1 PUSH2 0x45B SWAP1 DUP5 SWAP1 PUSH2 0xA0D JUMP JUMPDEST SWAP1 SWAP2 SSTORE POP POP CALLER PUSH1 0x0 SWAP1 DUP2 MSTORE PUSH1 0x5 PUSH1 0x20 MSTORE PUSH1 0x40 DUP2 KECCAK256 TIMESTAMP PUSH1 0x1 SWAP1 SWAP2 ADD SSTORE PUSH1 0x3 DUP1 SLOAD DUP5 SWAP3 SWAP1 PUSH2 0x488 SWAP1 DUP5 SWAP1 PUSH2 0xA0D JUMP JUMPDEST SWAP1 SWAP2 SSTORE POP POP CALLER PUSH1 0x0 SWAP1 DUP2 MSTORE PUSH1 0x5 PUSH1 0x20 MSTORE PUSH1 0x40 SWAP1 KECCAK256 PUSH1 0x1 DUP1 DUP3 ADD SLOAD PUSH1 0x4 SWAP1 SWAP3 ADD SWAP2 SWAP1 SWAP2 SSTORE SWAP3 SWAP2 POP POP JUMP JUMPDEST PUSH1 0x0 DUP1 SLOAD CALLER DUP3 MSTORE PUSH1 0x5 PUSH1 0x20 MSTORE PUSH1 0x40 DUP3 KECCAK256 SLOAD PUSH4 0x1E13380 SWAP2 PUSH1 0x64 SWAP2 PUSH2 0x4D5 SWAP2 SWAP1 PUSH2 0x9CC JUMP JUMPDEST PUSH2 0x4DF SWAP2 SWAP1 PUSH2 0x9EB JUMP JUMPDEST PUSH2 0x4E9 SWAP2 SWAP1 PUSH2 0x9EB JUMP JUMPDEST CALLER PUSH1 0x0 SWAP1 DUP2 MSTORE PUSH1 0x5 PUSH1 0x20 MSTORE PUSH1 0x40 SWAP1 KECCAK256 PUSH1 0x1 ADD SLOAD PUSH2 0x506 SWAP1 TIMESTAMP PUSH2 0x9B5 JUMP JUMPDEST PUSH2 0x510 SWAP2 SWAP1 PUSH2 0x9CC JUMP JUMPDEST CALLER PUSH1 0x0 SWAP1 DUP2 MSTORE PUSH1 0x5 PUSH1 0x20 MSTORE PUSH1 0x40 SWAP1 KECCAK256 PUSH1 0x2 ADD SLOAD PUSH2 0x52D SWAP2 SWAP1 PUSH2 0xA0D JUMP JUMPDEST CALLER PUSH1 0x0 DUP2 DUP2 MSTORE PUSH1 0x5 PUSH1 0x20 MSTORE PUSH1 0x40 SWAP1 DUP2 SWAP1 KECCAK256 PUSH1 0x3 ADD DUP4 SWAP1 SSTORE PUSH1 0x2 SLOAD SWAP1 MLOAD PUSH4 0xA9059CBB PUSH1 0xE0 SHL DUP2 MSTORE PUSH1 0x4 DUP2 ADD SWAP3 SWAP1 SWAP3 MSTORE PUSH1 0x24 DUP3 ADD SWAP3 SWAP1 SWAP3 MSTORE PUSH1 0x1 PUSH1 0x1 PUSH1 0xA0 SHL SUB SWAP1 SWAP2 AND SWAP1 PUSH4 0xA9059CBB SWAP1 PUSH1 0x44 ADD PUSH1 0x20 PUSH1 0x40 MLOAD DUP1 DUP4 SUB DUP2 PUSH1 0x0 DUP8 GAS CALL ISZERO DUP1 ISZERO PUSH2 0x597 JUMPI RETURNDATASIZE PUSH1 0x0 DUP1 RETURNDATACOPY RETURNDATASIZE PUSH1 0x0 REVERT JUMPDEST POP POP POP POP PUSH1 0x40 MLOAD RETURNDATASIZE PUSH1 0x1F NOT PUSH1 0x1F DUP3 ADD AND DUP3 ADD DUP1 PUSH1 0x40 MSTORE POP DUP2 ADD SWAP1 PUSH2 0x5BB SWAP2 SWAP1 PUSH2 0x97D JUMP JUMPDEST POP CALLER PUSH1 0x0 DUP2 DUP2 MSTORE PUSH1 0x5 PUSH1 0x20 SWAP1 DUP2 MSTORE PUSH1 0x40 SWAP2 DUP3 SWAP1 KECCAK256 PUSH1 0x3 ADD SLOAD SWAP2 MLOAD SWAP2 DUP3 MSTORE PUSH1 0x0 DUP1 MLOAD PUSH1 0x20 PUSH2 0xA26 DUP4 CODECOPY DUP2 MLOAD SWAP2 MSTORE SWAP2 ADD PUSH1 0x40 MLOAD DUP1 SWAP2 SUB SWAP1 LOG2 CALLER PUSH1 0x0 SWAP1 DUP2 MSTORE PUSH1 0x5 PUSH1 0x20 DUP2 SWAP1 MSTORE PUSH1 0x40 DUP3 KECCAK256 PUSH1 0x3 DUP2 ADD SLOAD SWAP2 ADD DUP1 SLOAD SWAP2 SWAP3 SWAP1 SWAP2 PUSH2 0x61A SWAP1 DUP5 SWAP1 PUSH2 0xA0D JUMP JUMPDEST SWAP1 SWAP2 SSTORE POP POP CALLER PUSH1 0x0 SWAP1 DUP2 MSTORE PUSH1 0x5 PUSH1 0x20 MSTORE PUSH1 0x40 DUP2 KECCAK256 PUSH1 0x3 DUP2 ADD DUP3 SWAP1 SSTORE PUSH1 0x2 DUP2 ADD SWAP2 SWAP1 SWAP2 SSTORE TIMESTAMP PUSH1 0x4 SWAP1 SWAP2 ADD SSTORE POP PUSH1 0x1 SWAP1 JUMP JUMPDEST CALLER PUSH1 0x0 SWAP1 DUP2 MSTORE PUSH1 0x5 PUSH1 0x20 MSTORE PUSH1 0x40 DUP2 KECCAK256 PUSH1 0x4 ADD SLOAD DUP2 SWAP1 PUSH2 0x669 SWAP1 TIMESTAMP PUSH2 0x9B5 JUMP JUMPDEST PUSH1 0x0 DUP1 SLOAD CALLER DUP3 MSTORE PUSH1 0x5 PUSH1 0x20 MSTORE PUSH1 0x40 DUP3 KECCAK256 SLOAD SWAP3 SWAP4 POP SWAP1 SWAP2 PUSH4 0x1E13380 SWAP2 PUSH1 0x64 SWAP2 PUSH2 0x692 SWAP2 SWAP1 PUSH2 0x9CC JUMP JUMPDEST PUSH2 0x69C SWAP2 SWAP1 PUSH2 0x9EB JUMP JUMPDEST PUSH2 0x6A6 SWAP2 SWAP1 PUSH2 0x9EB JUMP JUMPDEST PUSH2 0x6B0 SWAP1 DUP4 PUSH2 0x9CC JUMP JUMPDEST SWAP4 SWAP3 POP POP POP JUMP JUMPDEST PUSH1 0x4 SLOAD PUSH1 0x1 PUSH1 0x1 PUSH1 0xA0 SHL SUB AND CALLER EQ PUSH2 0x701 JUMPI PUSH1 0x40 MLOAD PUSH3 0x461BCD PUSH1 0xE5 SHL DUP2 MSTORE PUSH1 0x20 PUSH1 0x4 DUP3 ADD MSTORE PUSH1 0x9 PUSH1 0x24 DUP3 ADD MSTORE PUSH9 0x3737BA1037BBB732B9 PUSH1 0xB9 SHL PUSH1 0x44 DUP3 ADD MSTORE PUSH1 0x64 ADD PUSH1 0x40 MLOAD DUP1 SWAP2 SUB SWAP1 REVERT JUMPDEST PUSH1 0x0 SSTORE JUMP JUMPDEST PUSH1 0x0 DUP1 SLOAD CALLER DUP3 MSTORE PUSH1 0x5 PUSH1 0x20 MSTORE PUSH1 0x40 DUP3 KECCAK256 SLOAD PUSH4 0x1E13380 SWAP2 PUSH1 0x64 SWAP2 PUSH2 0x72A SWAP2 SWAP1 PUSH2 0x9CC JUMP JUMPDEST PUSH2 0x734 SWAP2 SWAP1 PUSH2 0x9EB JUMP JUMPDEST PUSH2 0x73E SWAP2 SWAP1 PUSH2 0x9EB JUMP JUMPDEST CALLER PUSH1 0x0 SWAP1 DUP2 MSTORE PUSH1 0x5 PUSH1 0x20 MSTORE PUSH1 0x40 SWAP1 KECCAK256 PUSH1 0x1 ADD SLOAD PUSH2 0x75B SWAP1 TIMESTAMP PUSH2 0x9B5 JUMP JUMPDEST PUSH2 0x765 SWAP2 SWAP1 PUSH2 0x9CC JUMP JUMPDEST CALLER PUSH1 0x0 SWAP1 DUP2 MSTORE PUSH1 0x5 PUSH1 0x20 MSTORE PUSH1 0x40 SWAP1 KECCAK256 PUSH1 0x2 ADD SLOAD PUSH2 0x782 SWAP2 SWAP1 PUSH2 0xA0D JUMP JUMPDEST CALLER PUSH1 0x0 DUP2 DUP2 MSTORE PUSH1 0x5 PUSH1 0x20 MSTORE PUSH1 0x40 SWAP1 DUP2 SWAP1 KECCAK256 PUSH1 0x3 ADD DUP4 SWAP1 SSTORE PUSH1 0x2 SLOAD SWAP1 MLOAD PUSH4 0xA9059CBB PUSH1 0xE0 SHL DUP2 MSTORE PUSH1 0x4 DUP2 ADD SWAP3 SWAP1 SWAP3 MSTORE PUSH1 0x24 DUP3 ADD SWAP3 SWAP1 SWAP3 MSTORE PUSH1 0x1 PUSH1 0x1 PUSH1 0xA0 SHL SUB SWAP1 SWAP2 AND SWAP1 PUSH4 0xA9059CBB SWAP1 PUSH1 0x44 ADD PUSH1 0x20 PUSH1 0x40 MLOAD DUP1 DUP4 SUB DUP2 PUSH1 0x0 DUP8 GAS CALL ISZERO DUP1 ISZERO PUSH2 0x7EC JUMPI RETURNDATASIZE PUSH1 0x0 DUP1 RETURNDATACOPY RETURNDATASIZE PUSH1 0x0 REVERT JUMPDEST POP POP POP POP PUSH1 0x40 MLOAD RETURNDATASIZE PUSH1 0x1F NOT PUSH1 0x1F DUP3 ADD AND DUP3 ADD DUP1 PUSH1 0x40 MSTORE POP DUP2 ADD SWAP1 PUSH2 0x810 SWAP2 SWAP1 PUSH2 0x97D JUMP JUMPDEST POP CALLER PUSH1 0x0 DUP2 DUP2 MSTORE PUSH1 0x5 PUSH1 0x20 SWAP1 DUP2 MSTORE PUSH1 0x40 SWAP2 DUP3 SWAP1 KECCAK256 PUSH1 0x3 ADD SLOAD SWAP2 MLOAD SWAP2 DUP3 MSTORE PUSH1 0x0 DUP1 MLOAD PUSH1 0x20 PUSH2 0xA26 DUP4 CODECOPY DUP2 MLOAD SWAP2 MSTORE SWAP2 ADD PUSH1 0x40 MLOAD DUP1 SWAP2 SUB SWAP1 LOG2 CALLER PUSH1 0x0 DUP2 DUP2 MSTORE PUSH1 0x5 PUSH1 0x20 MSTORE PUSH1 0x40 DUP1 DUP3 KECCAK256 PUSH1 0x3 DUP2 ADD DUP4 SWAP1 SSTORE PUSH1 0x2 DUP2 ADD SWAP3 SWAP1 SWAP3 SSTORE PUSH1 0x1 SLOAD SWAP2 SLOAD SWAP1 MLOAD PUSH4 0xA9059CBB PUSH1 0xE0 SHL DUP2 MSTORE PUSH1 0x4 DUP2 ADD SWAP4 SWAP1 SWAP4 MSTORE PUSH1 0x24 DUP4 ADD MSTORE PUSH1 0x1 PUSH1 0x1 PUSH1 0xA0 SHL SUB AND SWAP1 PUSH4 0xA9059CBB SWAP1 PUSH1 0x44 ADD PUSH1 0x20 PUSH1 0x40 MLOAD DUP1 DUP4 SUB DUP2 PUSH1 0x0 DUP8 GAS CALL ISZERO DUP1 ISZERO PUSH2 0x8B5 JUMPI RETURNDATASIZE PUSH1 0x0 DUP1 RETURNDATACOPY RETURNDATASIZE PUSH1 0x0 REVERT JUMPDEST POP POP POP POP PUSH1 0x40 MLOAD RETURNDATASIZE PUSH1 0x1F NOT PUSH1 0x1F DUP3 ADD AND DUP3 ADD DUP1 PUSH1 0x40 MSTORE POP DUP2 ADD SWAP1 PUSH2 0x8D9 SWAP2 SWAP1 PUSH2 0x97D JUMP JUMPDEST POP CALLER PUSH1 0x0 DUP2 DUP2 MSTORE PUSH1 0x5 PUSH1 0x20 SWAP1 DUP2 MSTORE PUSH1 0x40 SWAP2 DUP3 SWAP1 KECCAK256 SLOAD SWAP2 MLOAD SWAP2 DUP3 MSTORE PUSH1 0x0 DUP1 MLOAD PUSH1 0x20 PUSH2 0xA26 DUP4 CODECOPY DUP2 MLOAD SWAP2 MSTORE SWAP2 ADD PUSH1 0x40 MLOAD DUP1 SWAP2 SUB SWAP1 LOG2 CALLER PUSH1 0x0 SWAP1 DUP2 MSTORE PUSH1 0x5 PUSH1 0x20 MSTORE PUSH1 0x40 DUP2 KECCAK256 DUP2 SWAP1 SSTORE PUSH1 0x3 DUP1 SLOAD DUP3 SWAP1 PUSH2 0x92F SWAP1 DUP3 SWAP1 PUSH2 0x9B5 JUMP JUMPDEST SWAP1 SWAP2 SSTORE POP PUSH1 0x1 SWAP3 SWAP2 POP POP JUMP JUMPDEST PUSH1 0x0 PUSH1 0x20 DUP3 DUP5 SUB SLT ISZERO PUSH2 0x94D JUMPI PUSH1 0x0 DUP1 REVERT JUMPDEST POP CALLDATALOAD SWAP2 SWAP1 POP JUMP JUMPDEST PUSH1 0x0 PUSH1 0x20 DUP3 DUP5 SUB SLT ISZERO PUSH2 0x966 JUMPI PUSH1 0x0 DUP1 REVERT JUMPDEST DUP2 CALLDATALOAD PUSH1 0x1 PUSH1 0x1 PUSH1 0xA0 SHL SUB DUP2 AND DUP2 EQ PUSH2 0x6B0 JUMPI PUSH1 0x0 DUP1 REVERT JUMPDEST PUSH1 0x0 PUSH1 0x20 DUP3 DUP5 SUB SLT ISZERO PUSH2 0x98F JUMPI PUSH1 0x0 DUP1 REVERT JUMPDEST DUP2 MLOAD DUP1 ISZERO ISZERO DUP2 EQ PUSH2 0x6B0 JUMPI PUSH1 0x0 DUP1 REVERT JUMPDEST PUSH4 0x4E487B71 PUSH1 0xE0 SHL PUSH1 0x0 MSTORE PUSH1 0x11 PUSH1 0x4 MSTORE PUSH1 0x24 PUSH1 0x0 REVERT JUMPDEST PUSH1 0x0 DUP3 DUP3 LT ISZERO PUSH2 0x9C7 JUMPI PUSH2 0x9C7 PUSH2 0x99F JUMP JUMPDEST POP SUB SWAP1 JUMP JUMPDEST PUSH1 0x0 DUP2 PUSH1 0x0 NOT DIV DUP4 GT DUP3 ISZERO ISZERO AND ISZERO PUSH2 0x9E6 JUMPI PUSH2 0x9E6 PUSH2 0x99F JUMP JUMPDEST POP MUL SWAP1 JUMP JUMPDEST PUSH1 0x0 DUP3 PUSH2 0xA08 JUMPI PUSH4 0x4E487B71 PUSH1 0xE0 SHL PUSH1 0x0 MSTORE PUSH1 0x12 PUSH1 0x4 MSTORE PUSH1 0x24 PUSH1 0x0 REVERT JUMPDEST POP DIV SWAP1 JUMP JUMPDEST PUSH1 0x0 DUP3 NOT DUP3 GT ISZERO PUSH2 0xA20 JUMPI PUSH2 0xA20 PUSH2 0x99F JUMP JUMPDEST POP ADD SWAP1 JUMP INVALID 0xA9 SDIV SWAP13 0xBB 0x2A 0xB0 SWAP15 0xB2 NOT PC EXTCODEHASH 0x4A MSIZE 0xA5 0xD0 PUSH3 0x3ADE34 PUSH14 0x962BCD4E46B11DA047C9049BA264 PUSH10 0x706673582212200A3CB1 0xCF MULMOD CALL 0xF7 PUSH11 0x5707D96CB13549DA496CE8 0x5C 0xCB 0xE0 0xEB CODESIZE 0xDB PC 0xD3 PUSH28 0xC575E76964736F6C634300080F003300000000000000000000000000 "
				},
				"gasEstimates": {
					"creation": {
						"codeDepositCost": "536600",
						"executionCost": "infinite",
						"totalCost": "infinite"
					},
					"external": {
						"Stake(uint256)": "infinite",
						"User_Map(address)": "13203",
						"harvest()": "infinite",
						"harvestwithDraw()": "infinite",
						"lastTotokenRatio()": "2477",
						"newTotokenRatio()": "infinite",
						"owner()": "2404",
						"ratio()": "2318",
						"setRatio(uint256)": "24486",
						"stakeSupple()": "2339",
						"staketoken()": "2403",
						"totoken()": "2382",
						"withDraw()": "infinite"
					}
				},
				"methodIdentifiers": {
					"Stake(uint256)": "227a473b",
					"User_Map(address)": "8c93ecff",
					"harvest()": "4641257d",
					"harvestwithDraw()": "fb5bca7a",
					"lastTotokenRatio()": "5e9f4435",
					"newTotokenRatio()": "529aca49",
					"owner()": "8da5cb5b",
					"ratio()": "71ca337d",
					"setRatio(uint256)": "b2237ba3",
					"stakeSupple()": "d942727f",
					"staketoken()": "dab2997b",
					"totoken()": "2c46502d",
					"withDraw()": "0fdb1c10"
				}
			},
			"storageLayout": {
				"storage": [
					{
						"astId": 70,
						"contract": "自己写个矿池,定息矿池.sol:StakeContract",
						"label": "ratio",
						"offset": 0,
						"slot": "0",
						"type": "t_uint256"
					},
					{
						"astId": 72,
						"contract": "自己写个矿池,定息矿池.sol:StakeContract",
						"label": "staketoken",
						"offset": 0,
						"slot": "1",
						"type": "t_address"
					},
					{
						"astId": 74,
						"contract": "自己写个矿池,定息矿池.sol:StakeContract",
						"label": "totoken",
						"offset": 0,
						"slot": "2",
						"type": "t_address"
					},
					{
						"astId": 76,
						"contract": "自己写个矿池,定息矿池.sol:StakeContract",
						"label": "stakeSupple",
						"offset": 0,
						"slot": "3",
						"type": "t_uint256"
					},
					{
						"astId": 78,
						"contract": "自己写个矿池,定息矿池.sol:StakeContract",
						"label": "owner",
						"offset": 0,
						"slot": "4",
						"type": "t_address"
					},
					{
						"astId": 118,
						"contract": "自己写个矿池,定息矿池.sol:StakeContract",
						"label": "User_Map",
						"offset": 0,
						"slot": "5",
						"type": "t_mapping(t_address,t_struct(User)113_storage)"
					}
				],
				"types": {
					"t_address": {
						"encoding": "inplace",
						"label": "address",
						"numberOfBytes": "20"
					},
					"t_mapping(t_address,t_struct(User)113_storage)": {
						"encoding": "mapping",
						"key": "t_address",
						"label": "mapping(address => struct StakeContract.User)",
						"numberOfBytes": "32",
						"value": "t_struct(User)113_storage"
					},
					"t_struct(User)113_storage": {
						"encoding": "inplace",
						"label": "struct StakeContract.User",
						"members": [
							{
								"astId": 102,
								"contract": "自己写个矿池,定息矿池.sol:StakeContract",
								"label": "stakeNumber",
								"offset": 0,
								"slot": "0",
								"type": "t_uint256"
							},
							{
								"astId": 104,
								"contract": "自己写个矿池,定息矿池.sol:StakeContract",
								"label": "last_Stake_Time",
								"offset": 0,
								"slot": "1",
								"type": "t_uint256"
							},
							{
								"astId": 106,
								"contract": "自己写个矿池,定息矿池.sol:StakeContract",
								"label": "last_totoken_ratio",
								"offset": 0,
								"slot": "2",
								"type": "t_uint256"
							},
							{
								"astId": 108,
								"contract": "自己写个矿池,定息矿池.sol:StakeContract",
								"label": "whole_ratio",
								"offset": 0,
								"slot": "3",
								"type": "t_uint256"
							},
							{
								"astId": 110,
								"contract": "自己写个矿池,定息矿池.sol:StakeContract",
								"label": "last_totoken_Time",
								"offset": 0,
								"slot": "4",
								"type": "t_uint256"
							},
							{
								"astId": 112,
								"contract": "自己写个矿池,定息矿池.sol:StakeContract",
								"label": "Clima_Number",
								"offset": 0,
								"slot": "5",
								"type": "t_uint256"
							}
						],
						"numberOfBytes": "192"
					},
					"t_uint256": {
						"encoding": "inplace",
						"label": "uint256",
						"numberOfBytes": "32"
					}
				}
			},
			"userdoc": {
				"kind": "user",
				"methods": {},
				"version": 1
			}
		}
	}
}