{
	"写个amm合约.sol": {
		"Stopcock": {
			"abi": [
				{
					"inputs": [
						{
							"internalType": "address",
							"name": "_BTCtoken",
							"type": "address"
						},
						{
							"internalType": "address",
							"name": "_ETHtoken",
							"type": "address"
						},
						{
							"internalType": "uint256",
							"name": "_ReceivedBTCTokenNumber",
							"type": "uint256"
						},
						{
							"internalType": "uint256",
							"name": "_ReceivedETHTokenNumber",
							"type": "uint256"
						}
					],
					"stateMutability": "nonpayable",
					"type": "constructor"
				},
				{
					"inputs": [],
					"name": "BTCtoken",
					"outputs": [
						{
							"internalType": "address",
							"name": "",
							"type": "address"
						}
					],
					"stateMutability": "view",
					"type": "function"
				},
				{
					"inputs": [],
					"name": "ETHtoken",
					"outputs": [
						{
							"internalType": "address",
							"name": "",
							"type": "address"
						}
					],
					"stateMutability": "view",
					"type": "function"
				},
				{
					"inputs": [],
					"name": "MaxTokenLimit",
					"outputs": [
						{
							"internalType": "uint256",
							"name": "",
							"type": "uint256"
						}
					],
					"stateMutability": "view",
					"type": "function"
				},
				{
					"inputs": [],
					"name": "ReceivedBTCTokenNumber",
					"outputs": [
						{
							"internalType": "uint256",
							"name": "",
							"type": "uint256"
						}
					],
					"stateMutability": "view",
					"type": "function"
				},
				{
					"inputs": [],
					"name": "ReceivedETHTokenNumber",
					"outputs": [
						{
							"internalType": "uint256",
							"name": "",
							"type": "uint256"
						}
					],
					"stateMutability": "view",
					"type": "function"
				},
				{
					"inputs": [
						{
							"internalType": "address",
							"name": "",
							"type": "address"
						}
					],
					"name": "User_Map",
					"outputs": [
						{
							"internalType": "uint256",
							"name": "claimBTCNumber",
							"type": "uint256"
						},
						{
							"internalType": "uint256",
							"name": "claimETHNumber",
							"type": "uint256"
						}
					],
					"stateMutability": "view",
					"type": "function"
				},
				{
					"inputs": [
						{
							"internalType": "uint256",
							"name": "_claim",
							"type": "uint256"
						}
					],
					"name": "claimBTC",
					"outputs": [
						{
							"internalType": "bool",
							"name": "",
							"type": "bool"
						}
					],
					"stateMutability": "nonpayable",
					"type": "function"
				},
				{
					"inputs": [
						{
							"internalType": "uint256",
							"name": "_claim",
							"type": "uint256"
						}
					],
					"name": "claimETH",
					"outputs": [
						{
							"internalType": "bool",
							"name": "",
							"type": "bool"
						}
					],
					"stateMutability": "nonpayable",
					"type": "function"
				},
				{
					"inputs": [],
					"name": "owner",
					"outputs": [
						{
							"internalType": "address",
							"name": "",
							"type": "address"
						}
					],
					"stateMutability": "view",
					"type": "function"
				},
				{
					"inputs": [
						{
							"internalType": "address",
							"name": "_fromToken",
							"type": "address"
						},
						{
							"internalType": "address",
							"name": "",
							"type": "address"
						},
						{
							"internalType": "uint256",
							"name": "_fromAmount",
							"type": "uint256"
						}
					],
					"name": "trade",
					"outputs": [
						{
							"internalType": "bool",
							"name": "",
							"type": "bool"
						}
					],
					"stateMutability": "nonpayable",
					"type": "function"
				},
				{
					"inputs": [],
					"name": "tradeBTCproportion",
					"outputs": [
						{
							"internalType": "uint256",
							"name": "",
							"type": "uint256"
						}
					],
					"stateMutability": "view",
					"type": "function"
				},
				{
					"inputs": [],
					"name": "tradeETHproportion",
					"outputs": [
						{
							"internalType": "uint256",
							"name": "",
							"type": "uint256"
						}
					],
					"stateMutability": "view",
					"type": "function"
				}
			],
			"devdoc": {
				"kind": "dev",
				"methods": {},
				"version": 1
			},
			"evm": {
				"assembly": "    /* \"\\xe5\\x86\\x99\\xe4\\xb8\\xaaamm\\xe5\\x90\\x88\\xe7\\xba\\xa6.sol\":266:3348  contract Stopcock {... */\n  mstore(0x40, 0x80)\n    /* \"\\xe5\\x86\\x99\\xe4\\xb8\\xaaamm\\xe5\\x90\\x88\\xe7\\xba\\xa6.sol\":708:1076  constructor(address _BTCtoken, address _ETHtoken, uint _ReceivedBTCTokenNumber, uint _ReceivedETHTokenNumber){... */\n  callvalue\n  dup1\n  iszero\n  tag_1\n  jumpi\n  0x00\n  dup1\n  revert\ntag_1:\n  pop\n  mload(0x40)\n  sub(codesize, bytecodeSize)\n  dup1\n  bytecodeSize\n  dup4\n  codecopy\n  dup2\n  add\n  0x40\n  dup2\n  swap1\n  mstore\n  tag_2\n  swap2\n  tag_3\n  jump\t// in\ntag_2:\n    /* \"\\xe5\\x86\\x99\\xe4\\xb8\\xaaamm\\xe5\\x90\\x88\\xe7\\xba\\xa6.sol\":849:858  _ETHtoken */\n  dup3\n  sub(shl(0xa0, 0x01), 0x01)\n    /* \"\\xe5\\x86\\x99\\xe4\\xb8\\xaaamm\\xe5\\x90\\x88\\xe7\\xba\\xa6.sol\":836:858  _BTCtoken != _ETHtoken */\n  and\n    /* \"\\xe5\\x86\\x99\\xe4\\xb8\\xaaamm\\xe5\\x90\\x88\\xe7\\xba\\xa6.sol\":836:845  _BTCtoken */\n  dup5\n  sub(shl(0xa0, 0x01), 0x01)\n    /* \"\\xe5\\x86\\x99\\xe4\\xb8\\xaaamm\\xe5\\x90\\x88\\xe7\\xba\\xa6.sol\":836:858  _BTCtoken != _ETHtoken */\n  and\n  sub\n    /* \"\\xe5\\x86\\x99\\xe4\\xb8\\xaaamm\\xe5\\x90\\x88\\xe7\\xba\\xa6.sol\":828:859  require(_BTCtoken != _ETHtoken) */\n  tag_6\n  jumpi\n  0x00\n  dup1\n  revert\ntag_6:\n    /* \"\\xe5\\x86\\x99\\xe4\\xb8\\xaaamm\\xe5\\x90\\x88\\xe7\\xba\\xa6.sol\":870:875  owner */\n  0x05\n    /* \"\\xe5\\x86\\x99\\xe4\\xb8\\xaaamm\\xe5\\x90\\x88\\xe7\\xba\\xa6.sol\":870:888  owner = msg.sender */\n  dup1\n  sload\n  not(sub(shl(0xa0, 0x01), 0x01))\n  swap1\n  dup2\n  and\n    /* \"\\xe5\\x86\\x99\\xe4\\xb8\\xaaamm\\xe5\\x90\\x88\\xe7\\xba\\xa6.sol\":878:888  msg.sender */\n  caller\n    /* \"\\xe5\\x86\\x99\\xe4\\xb8\\xaaamm\\xe5\\x90\\x88\\xe7\\xba\\xa6.sol\":870:888  owner = msg.sender */\n  or\n  swap1\n  swap2\n  sstore\n    /* \"\\xe5\\x86\\x99\\xe4\\xb8\\xaaamm\\xe5\\x90\\x88\\xe7\\xba\\xa6.sol\":870:875  owner */\n  0x00\n    /* \"\\xe5\\x86\\x99\\xe4\\xb8\\xaaamm\\xe5\\x90\\x88\\xe7\\xba\\xa6.sol\":899:919  BTCtoken = _BTCtoken */\n  dup1\n  sload\n  sub(shl(0xa0, 0x01), 0x01)\n  swap7\n  dup8\n  and\n  swap1\n  dup4\n  and\n  or\n  swap1\n  sstore\n    /* \"\\xe5\\x86\\x99\\xe4\\xb8\\xaaamm\\xe5\\x90\\x88\\xe7\\xba\\xa6.sol\":870:888  owner = msg.sender */\n  0x01\n    /* \"\\xe5\\x86\\x99\\xe4\\xb8\\xaaamm\\xe5\\x90\\x88\\xe7\\xba\\xa6.sol\":930:950  ETHtoken = _ETHtoken */\n  dup1\n  sload\n  swap5\n  swap1\n  swap6\n  and\n  swap4\n  and\n  swap3\n  swap1\n  swap3\n  or\n  swap1\n  swap3\n  sstore\n    /* \"\\xe5\\x86\\x99\\xe4\\xb8\\xaaamm\\xe5\\x90\\x88\\xe7\\xba\\xa6.sol\":961:983  ReceivedBTCTokenNumber */\n  0x02\n    /* \"\\xe5\\x86\\x99\\xe4\\xb8\\xaaamm\\xe5\\x90\\x88\\xe7\\xba\\xa6.sol\":961:1009  ReceivedBTCTokenNumber = _ReceivedBTCTokenNumber */\n  swap2\n  swap1\n  swap2\n  sstore\n  0x03\n    /* \"\\xe5\\x86\\x99\\xe4\\xb8\\xaaamm\\xe5\\x90\\x88\\xe7\\xba\\xa6.sol\":1020:1068  ReceivedETHTokenNumber = _ReceivedETHTokenNumber */\n  sstore\n    /* \"\\xe5\\x86\\x99\\xe4\\xb8\\xaaamm\\xe5\\x90\\x88\\xe7\\xba\\xa6.sol\":266:3348  contract Stopcock {... */\n  jump(tag_9)\n    /* \"#utility.yul\":14:191   */\ntag_8:\n    /* \"#utility.yul\":93:106   */\n  dup1\n  mload\n  sub(shl(0xa0, 0x01), 0x01)\n    /* \"#utility.yul\":135:166   */\n  dup2\n  and\n    /* \"#utility.yul\":125:167   */\n  dup2\n  eq\n    /* \"#utility.yul\":115:185   */\n  tag_11\n  jumpi\n    /* \"#utility.yul\":181:182   */\n  0x00\n    /* \"#utility.yul\":178:179   */\n  dup1\n    /* \"#utility.yul\":171:183   */\n  revert\n    /* \"#utility.yul\":115:185   */\ntag_11:\n    /* \"#utility.yul\":14:191   */\n  swap2\n  swap1\n  pop\n  jump\t// out\n    /* \"#utility.yul\":196:612   */\ntag_3:\n    /* \"#utility.yul\":293:299   */\n  0x00\n    /* \"#utility.yul\":301:307   */\n  dup1\n    /* \"#utility.yul\":309:315   */\n  0x00\n    /* \"#utility.yul\":317:323   */\n  dup1\n    /* \"#utility.yul\":370:373   */\n  0x80\n    /* \"#utility.yul\":358:367   */\n  dup6\n    /* \"#utility.yul\":349:356   */\n  dup8\n    /* \"#utility.yul\":345:368   */\n  sub\n    /* \"#utility.yul\":341:374   */\n  slt\n    /* \"#utility.yul\":338:391   */\n  iszero\n  tag_13\n  jumpi\n    /* \"#utility.yul\":387:388   */\n  0x00\n    /* \"#utility.yul\":384:385   */\n  dup1\n    /* \"#utility.yul\":377:389   */\n  revert\n    /* \"#utility.yul\":338:391   */\ntag_13:\n    /* \"#utility.yul\":410:450   */\n  tag_14\n    /* \"#utility.yul\":440:449   */\n  dup6\n    /* \"#utility.yul\":410:450   */\n  tag_8\n  jump\t// in\ntag_14:\n    /* \"#utility.yul\":400:450   */\n  swap4\n  pop\n    /* \"#utility.yul\":469:518   */\n  tag_15\n    /* \"#utility.yul\":514:516   */\n  0x20\n    /* \"#utility.yul\":503:512   */\n  dup7\n    /* \"#utility.yul\":499:517   */\n  add\n    /* \"#utility.yul\":469:518   */\n  tag_8\n  jump\t// in\ntag_15:\n    /* \"#utility.yul\":558:560   */\n  0x40\n    /* \"#utility.yul\":543:561   */\n  dup7\n  add\n    /* \"#utility.yul\":537:562   */\n  mload\n    /* \"#utility.yul\":602:604   */\n  0x60\n    /* \"#utility.yul\":587:605   */\n  swap1\n  swap7\n  add\n    /* \"#utility.yul\":581:606   */\n  mload\n    /* \"#utility.yul\":196:612   */\n  swap5\n  swap8\n    /* \"#utility.yul\":459:518   */\n  swap1\n  swap7\n  pop\n    /* \"#utility.yul\":196:612   */\n  swap3\n  pop\n  pop\n  pop\n  jump\t// out\ntag_9:\n    /* \"\\xe5\\x86\\x99\\xe4\\xb8\\xaaamm\\xe5\\x90\\x88\\xe7\\xba\\xa6.sol\":266:3348  contract Stopcock {... */\n  dataSize(sub_0)\n  dup1\n  dataOffset(sub_0)\n  0x00\n  codecopy\n  0x00\n  return\nstop\n\nsub_0: assembly {\n        /* \"\\xe5\\x86\\x99\\xe4\\xb8\\xaaamm\\xe5\\x90\\x88\\xe7\\xba\\xa6.sol\":266:3348  contract Stopcock {... */\n      mstore(0x40, 0x80)\n      callvalue\n      dup1\n      iszero\n      tag_1\n      jumpi\n      0x00\n      dup1\n      revert\n    tag_1:\n      pop\n      jumpi(tag_2, lt(calldatasize, 0x04))\n      shr(0xe0, calldataload(0x00))\n      dup1\n      0x8c93ecff\n      gt\n      tag_15\n      jumpi\n      dup1\n      0x8c93ecff\n      eq\n      tag_9\n      jumpi\n      dup1\n      0x8da5cb5b\n      eq\n      tag_10\n      jumpi\n      dup1\n      0x9393357c\n      eq\n      tag_11\n      jumpi\n      dup1\n      0xdd88ea08\n      eq\n      tag_12\n      jumpi\n      dup1\n      0xf733f048\n      eq\n      tag_13\n      jumpi\n      dup1\n      0xfe96973a\n      eq\n      tag_14\n      jumpi\n      0x00\n      dup1\n      revert\n    tag_15:\n      dup1\n      0x069a0382\n      eq\n      tag_3\n      jumpi\n      dup1\n      0x2b843498\n      eq\n      tag_4\n      jumpi\n      dup1\n      0x2bba682a\n      eq\n      tag_5\n      jumpi\n      dup1\n      0x5253baae\n      eq\n      tag_6\n      jumpi\n      dup1\n      0x66e48d24\n      eq\n      tag_7\n      jumpi\n      dup1\n      0x81b7dacb\n      eq\n      tag_8\n      jumpi\n    tag_2:\n      0x00\n      dup1\n      revert\n        /* \"\\xe5\\x86\\x99\\xe4\\xb8\\xaaamm\\xe5\\x90\\x88\\xe7\\xba\\xa6.sol\":394:428  uint public ReceivedETHTokenNumber */\n    tag_3:\n      tag_16\n      sload(0x03)\n      dup2\n      jump\n    tag_16:\n      mload(0x40)\n        /* \"#utility.yul\":160:185   */\n      swap1\n      dup2\n      mstore\n        /* \"#utility.yul\":148:150   */\n      0x20\n        /* \"#utility.yul\":133:151   */\n      add\n        /* \"\\xe5\\x86\\x99\\xe4\\xb8\\xaaamm\\xe5\\x90\\x88\\xe7\\xba\\xa6.sol\":394:428  uint public ReceivedETHTokenNumber */\n    tag_18:\n      mload(0x40)\n      dup1\n      swap2\n      sub\n      swap1\n      return\n        /* \"\\xe5\\x86\\x99\\xe4\\xb8\\xaaamm\\xe5\\x90\\x88\\xe7\\xba\\xa6.sol\":353:387  uint public ReceivedBTCTokenNumber */\n    tag_4:\n      tag_16\n      sload(0x02)\n      dup2\n      jump\n        /* \"\\xe5\\x86\\x99\\xe4\\xb8\\xaaamm\\xe5\\x90\\x88\\xe7\\xba\\xa6.sol\":291:315  address public  BTCtoken */\n    tag_5:\n      sload(0x00)\n      tag_23\n      swap1\n      sub(shl(0xa0, 0x01), 0x01)\n      and\n      dup2\n      jump\n    tag_23:\n      mload(0x40)\n      sub(shl(0xa0, 0x01), 0x01)\n        /* \"#utility.yul\":360:392   */\n      swap1\n      swap2\n      and\n        /* \"#utility.yul\":342:393   */\n      dup2\n      mstore\n        /* \"#utility.yul\":330:332   */\n      0x20\n        /* \"#utility.yul\":315:333   */\n      add\n        /* \"\\xe5\\x86\\x99\\xe4\\xb8\\xaaamm\\xe5\\x90\\x88\\xe7\\xba\\xa6.sol\":291:315  address public  BTCtoken */\n      tag_18\n        /* \"#utility.yul\":196:399   */\n      jump\n        /* \"\\xe5\\x86\\x99\\xe4\\xb8\\xaaamm\\xe5\\x90\\x88\\xe7\\xba\\xa6.sol\":1982:3343  function trade(address _fromToken, address   , uint _fromAmount) public returns (bool) {... */\n    tag_6:\n      tag_27\n      tag_28\n      calldatasize\n      0x04\n      tag_29\n      jump\t// in\n    tag_28:\n      tag_30\n      jump\t// in\n    tag_27:\n      mload(0x40)\n        /* \"#utility.yul\":1080:1094   */\n      swap1\n      iszero\n        /* \"#utility.yul\":1073:1095   */\n      iszero\n        /* \"#utility.yul\":1055:1096   */\n      dup2\n      mstore\n        /* \"#utility.yul\":1043:1045   */\n      0x20\n        /* \"#utility.yul\":1028:1046   */\n      add\n        /* \"\\xe5\\x86\\x99\\xe4\\xb8\\xaaamm\\xe5\\x90\\x88\\xe7\\xba\\xa6.sol\":1982:3343  function trade(address _fromToken, address   , uint _fromAmount) public returns (bool) {... */\n      tag_18\n        /* \"#utility.yul\":915:1102   */\n      jump\n        /* \"\\xe5\\x86\\x99\\xe4\\xb8\\xaaamm\\xe5\\x90\\x88\\xe7\\xba\\xa6.sol\":435:460  uint public MaxTokenLimit */\n    tag_7:\n      tag_16\n      sload(0x04)\n      dup2\n      jump\n        /* \"\\xe5\\x86\\x99\\xe4\\xb8\\xaaamm\\xe5\\x90\\x88\\xe7\\xba\\xa6.sol\":322:346  address public  ETHtoken */\n    tag_8:\n      sload(0x01)\n      tag_23\n      swap1\n      sub(shl(0xa0, 0x01), 0x01)\n      and\n      dup2\n      jump\n        /* \"\\xe5\\x86\\x99\\xe4\\xb8\\xaaamm\\xe5\\x90\\x88\\xe7\\xba\\xa6.sol\":657:697  mapping(address => User) public User_Map */\n    tag_9:\n      tag_39\n      tag_40\n      calldatasize\n      0x04\n      tag_41\n      jump\t// in\n    tag_40:\n      mstore(0x20, 0x08)\n      0x00\n      swap1\n      dup2\n      mstore\n      0x40\n      swap1\n      keccak256\n      dup1\n      sload\n      0x01\n      swap1\n      swap2\n      add\n      sload\n      dup3\n      jump\n    tag_39:\n      0x40\n      dup1\n      mload\n        /* \"#utility.yul\":1472:1497   */\n      swap3\n      dup4\n      mstore\n        /* \"#utility.yul\":1528:1530   */\n      0x20\n        /* \"#utility.yul\":1513:1531   */\n      dup4\n      add\n        /* \"#utility.yul\":1506:1540   */\n      swap2\n      swap1\n      swap2\n      mstore\n        /* \"#utility.yul\":1445:1463   */\n      add\n        /* \"\\xe5\\x86\\x99\\xe4\\xb8\\xaaamm\\xe5\\x90\\x88\\xe7\\xba\\xa6.sol\":657:697  mapping(address => User) public User_Map */\n      tag_18\n        /* \"#utility.yul\":1298:1546   */\n      jump\n        /* \"\\xe5\\x86\\x99\\xe4\\xb8\\xaaamm\\xe5\\x90\\x88\\xe7\\xba\\xa6.sol\":467:487  address public owner */\n    tag_10:\n      sload(0x05)\n      tag_23\n      swap1\n      sub(shl(0xa0, 0x01), 0x01)\n      and\n      dup2\n      jump\n        /* \"\\xe5\\x86\\x99\\xe4\\xb8\\xaaamm\\xe5\\x90\\x88\\xe7\\xba\\xa6.sol\":494:524  uint public tradeETHproportion */\n    tag_11:\n      tag_16\n      sload(0x06)\n      dup2\n      jump\n        /* \"\\xe5\\x86\\x99\\xe4\\xb8\\xaaamm\\xe5\\x90\\x88\\xe7\\xba\\xa6.sol\":531:561  uint public tradeBTCproportion */\n    tag_12:\n      tag_16\n      sload(0x07)\n      dup2\n      jump\n        /* \"\\xe5\\x86\\x99\\xe4\\xb8\\xaaamm\\xe5\\x90\\x88\\xe7\\xba\\xa6.sol\":1086:1526  function claimBTC(uint _claim) public returns (bool) {... */\n    tag_13:\n      tag_27\n      tag_55\n      calldatasize\n      0x04\n      tag_56\n      jump\t// in\n    tag_55:\n      tag_57\n      jump\t// in\n        /* \"\\xe5\\x86\\x99\\xe4\\xb8\\xaaamm\\xe5\\x90\\x88\\xe7\\xba\\xa6.sol\":1534:1974  function claimETH(uint _claim) public returns (bool) {... */\n    tag_14:\n      tag_27\n      tag_60\n      calldatasize\n      0x04\n      tag_56\n      jump\t// in\n    tag_60:\n      tag_61\n      jump\t// in\n        /* \"\\xe5\\x86\\x99\\xe4\\xb8\\xaaamm\\xe5\\x90\\x88\\xe7\\xba\\xa6.sol\":1982:3343  function trade(address _fromToken, address   , uint _fromAmount) public returns (bool) {... */\n    tag_30:\n        /* \"\\xe5\\x86\\x99\\xe4\\xb8\\xaaamm\\xe5\\x90\\x88\\xe7\\xba\\xa6.sol\":2063:2067  bool */\n      0x00\n        /* \"\\xe5\\x86\\x99\\xe4\\xb8\\xaaamm\\xe5\\x90\\x88\\xe7\\xba\\xa6.sol\":2098:2106  BTCtoken */\n      dup1\n      sload\n      sub(shl(0xa0, 0x01), 0x01)\n      swap1\n      dup2\n      and\n        /* \"\\xe5\\x86\\x99\\xe4\\xb8\\xaaamm\\xe5\\x90\\x88\\xe7\\xba\\xa6.sol\":2084:2106  _fromToken == BTCtoken */\n      swap1\n      dup6\n      and\n      sub\n        /* \"\\xe5\\x86\\x99\\xe4\\xb8\\xaaamm\\xe5\\x90\\x88\\xe7\\xba\\xa6.sol\":2080:3314  if (_fromToken == BTCtoken) {... */\n      tag_64\n      jumpi\n        /* \"\\xe5\\x86\\x99\\xe4\\xb8\\xaaamm\\xe5\\x90\\x88\\xe7\\xba\\xa6.sol\":2130:2138  BTCtoken */\n      sload(0x00)\n        /* \"\\xe5\\x86\\x99\\xe4\\xb8\\xaaamm\\xe5\\x90\\x88\\xe7\\xba\\xa6.sol\":2123:2192  IERC20(BTCtoken).transferFrom(msg.sender, address(this), _fromAmount) */\n      mload(0x40)\n      shl(0xe0, 0x23b872dd)\n      dup2\n      mstore\n        /* \"\\xe5\\x86\\x99\\xe4\\xb8\\xaaamm\\xe5\\x90\\x88\\xe7\\xba\\xa6.sol\":2153:2163  msg.sender */\n      caller\n        /* \"\\xe5\\x86\\x99\\xe4\\xb8\\xaaamm\\xe5\\x90\\x88\\xe7\\xba\\xa6.sol\":2123:2192  IERC20(BTCtoken).transferFrom(msg.sender, address(this), _fromAmount) */\n      0x04\n      dup3\n      add\n        /* \"#utility.yul\":1976:2010   */\n      mstore\n        /* \"\\xe5\\x86\\x99\\xe4\\xb8\\xaaamm\\xe5\\x90\\x88\\xe7\\xba\\xa6.sol\":2173:2177  this */\n      address\n        /* \"#utility.yul\":2026:2044   */\n      0x24\n      dup3\n      add\n        /* \"#utility.yul\":2019:2062   */\n      mstore\n        /* \"#utility.yul\":2078:2096   */\n      0x44\n      dup2\n      add\n        /* \"#utility.yul\":2071:2105   */\n      dup5\n      swap1\n      mstore\n      sub(shl(0xa0, 0x01), 0x01)\n        /* \"\\xe5\\x86\\x99\\xe4\\xb8\\xaaamm\\xe5\\x90\\x88\\xe7\\xba\\xa6.sol\":2130:2138  BTCtoken */\n      swap1\n      swap2\n      and\n      swap1\n        /* \"\\xe5\\x86\\x99\\xe4\\xb8\\xaaamm\\xe5\\x90\\x88\\xe7\\xba\\xa6.sol\":2123:2152  IERC20(BTCtoken).transferFrom */\n      0x23b872dd\n      swap1\n        /* \"#utility.yul\":1911:1929   */\n      0x64\n      add\n        /* \"\\xe5\\x86\\x99\\xe4\\xb8\\xaaamm\\xe5\\x90\\x88\\xe7\\xba\\xa6.sol\":2123:2192  IERC20(BTCtoken).transferFrom(msg.sender, address(this), _fromAmount) */\n      0x20\n      mload(0x40)\n      dup1\n      dup4\n      sub\n      dup2\n      0x00\n      dup8\n      gas\n      call\n      iszero\n      dup1\n      iszero\n      tag_68\n      jumpi\n      returndatasize\n      0x00\n      dup1\n      returndatacopy\n      revert(0x00, returndatasize)\n    tag_68:\n      pop\n      pop\n      pop\n      pop\n      mload(0x40)\n      returndatasize\n      not(0x1f)\n      0x1f\n      dup3\n      add\n      and\n      dup3\n      add\n      dup1\n      0x40\n      mstore\n      pop\n      dup2\n      add\n      swap1\n      tag_69\n      swap2\n      swap1\n      tag_70\n      jump\t// in\n    tag_69:\n      pop\n        /* \"\\xe5\\x86\\x99\\xe4\\xb8\\xaaamm\\xe5\\x90\\x88\\xe7\\xba\\xa6.sol\":2233:2244  _fromAmount */\n      dup2\n        /* \"\\xe5\\x86\\x99\\xe4\\xb8\\xaaamm\\xe5\\x90\\x88\\xe7\\xba\\xa6.sol\":2207:2229  ReceivedBTCTokenNumber */\n      0x02\n      0x00\n        /* \"\\xe5\\x86\\x99\\xe4\\xb8\\xaaamm\\xe5\\x90\\x88\\xe7\\xba\\xa6.sol\":2207:2244  ReceivedBTCTokenNumber += _fromAmount */\n      dup3\n      dup3\n      sload\n      tag_71\n      swap2\n      swap1\n      tag_72\n      jump\t// in\n    tag_71:\n      swap1\n      swap2\n      sstore\n      pop\n      pop\n        /* \"\\xe5\\x86\\x99\\xe4\\xb8\\xaaamm\\xe5\\x90\\x88\\xe7\\xba\\xa6.sol\":2517:2539  ReceivedBTCTokenNumber */\n      sload(0x02)\n        /* \"\\xe5\\x86\\x99\\xe4\\xb8\\xaaamm\\xe5\\x90\\x88\\xe7\\xba\\xa6.sol\":2468:2490  ReceivedETHTokenNumber */\n      sload(0x03)\n        /* \"\\xe5\\x86\\x99\\xe4\\xb8\\xaaamm\\xe5\\x90\\x88\\xe7\\xba\\xa6.sol\":2468:2512  ReceivedETHTokenNumber * 1000000000000000000 */\n      tag_73\n      swap1\n        /* \"\\xe5\\x86\\x99\\xe4\\xb8\\xaaamm\\xe5\\x90\\x88\\xe7\\xba\\xa6.sol\":2493:2512  1000000000000000000 */\n      0x0de0b6b3a7640000\n        /* \"\\xe5\\x86\\x99\\xe4\\xb8\\xaaamm\\xe5\\x90\\x88\\xe7\\xba\\xa6.sol\":2468:2512  ReceivedETHTokenNumber * 1000000000000000000 */\n      tag_74\n      jump\t// in\n    tag_73:\n        /* \"\\xe5\\x86\\x99\\xe4\\xb8\\xaaamm\\xe5\\x90\\x88\\xe7\\xba\\xa6.sol\":2467:2539  (ReceivedETHTokenNumber * 1000000000000000000) /  ReceivedBTCTokenNumber */\n      tag_75\n      swap2\n      swap1\n      tag_76\n      jump\t// in\n    tag_75:\n        /* \"\\xe5\\x86\\x99\\xe4\\xb8\\xaaamm\\xe5\\x90\\x88\\xe7\\xba\\xa6.sol\":2445:2463  tradeBTCproportion */\n      0x07\n        /* \"\\xe5\\x86\\x99\\xe4\\xb8\\xaaamm\\xe5\\x90\\x88\\xe7\\xba\\xa6.sol\":2445:2540  tradeBTCproportion = ((ReceivedETHTokenNumber * 1000000000000000000) /  ReceivedBTCTokenNumber) */\n      dup2\n      swap1\n      sstore\n        /* \"\\xe5\\x86\\x99\\xe4\\xb8\\xaaamm\\xe5\\x90\\x88\\xe7\\xba\\xa6.sol\":2555:2579  uint send_ethTokenNumber */\n      0x00\n      swap1\n        /* \"\\xe5\\x86\\x99\\xe4\\xb8\\xaaamm\\xe5\\x90\\x88\\xe7\\xba\\xa6.sol\":2619:2638  1000000000000000000 */\n      0x0de0b6b3a7640000\n      swap1\n        /* \"\\xe5\\x86\\x99\\xe4\\xb8\\xaaamm\\xe5\\x90\\x88\\xe7\\xba\\xa6.sol\":2583:2615  _fromAmount * tradeBTCproportion */\n      tag_77\n      swap1\n        /* \"\\xe5\\x86\\x99\\xe4\\xb8\\xaaamm\\xe5\\x90\\x88\\xe7\\xba\\xa6.sol\":2583:2594  _fromAmount */\n      dup6\n        /* \"\\xe5\\x86\\x99\\xe4\\xb8\\xaaamm\\xe5\\x90\\x88\\xe7\\xba\\xa6.sol\":2583:2615  _fromAmount * tradeBTCproportion */\n      tag_74\n      jump\t// in\n    tag_77:\n        /* \"\\xe5\\x86\\x99\\xe4\\xb8\\xaaamm\\xe5\\x90\\x88\\xe7\\xba\\xa6.sol\":2582:2638  (_fromAmount * tradeBTCproportion) / 1000000000000000000 */\n      tag_78\n      swap2\n      swap1\n      tag_76\n      jump\t// in\n    tag_78:\n        /* \"\\xe5\\x86\\x99\\xe4\\xb8\\xaaamm\\xe5\\x90\\x88\\xe7\\xba\\xa6.sol\":2660:2668  ETHtoken */\n      sload(0x01)\n        /* \"\\xe5\\x86\\x99\\xe4\\xb8\\xaaamm\\xe5\\x90\\x88\\xe7\\xba\\xa6.sol\":2653:2710  IERC20(ETHtoken).transfer(msg.sender,send_ethTokenNumber) */\n      mload(0x40)\n      shl(0xe0, 0xa9059cbb)\n      dup2\n      mstore\n        /* \"\\xe5\\x86\\x99\\xe4\\xb8\\xaaamm\\xe5\\x90\\x88\\xe7\\xba\\xa6.sol\":2679:2689  msg.sender */\n      caller\n        /* \"\\xe5\\x86\\x99\\xe4\\xb8\\xaaamm\\xe5\\x90\\x88\\xe7\\xba\\xa6.sol\":2653:2710  IERC20(ETHtoken).transfer(msg.sender,send_ethTokenNumber) */\n      0x04\n      dup3\n      add\n        /* \"#utility.yul\":3232:3283   */\n      mstore\n        /* \"#utility.yul\":3299:3317   */\n      0x24\n      dup2\n      add\n        /* \"#utility.yul\":3292:3326   */\n      dup4\n      swap1\n      mstore\n        /* \"\\xe5\\x86\\x99\\xe4\\xb8\\xaaamm\\xe5\\x90\\x88\\xe7\\xba\\xa6.sol\":2555:2638  uint send_ethTokenNumber = (_fromAmount * tradeBTCproportion) / 1000000000000000000 */\n      swap2\n      swap3\n      pop\n      sub(shl(0xa0, 0x01), 0x01)\n        /* \"\\xe5\\x86\\x99\\xe4\\xb8\\xaaamm\\xe5\\x90\\x88\\xe7\\xba\\xa6.sol\":2660:2668  ETHtoken */\n      and\n      swap1\n        /* \"\\xe5\\x86\\x99\\xe4\\xb8\\xaaamm\\xe5\\x90\\x88\\xe7\\xba\\xa6.sol\":2653:2678  IERC20(ETHtoken).transfer */\n      0xa9059cbb\n      swap1\n        /* \"#utility.yul\":3205:3223   */\n      0x44\n      add\n        /* \"\\xe5\\x86\\x99\\xe4\\xb8\\xaaamm\\xe5\\x90\\x88\\xe7\\xba\\xa6.sol\":2653:2710  IERC20(ETHtoken).transfer(msg.sender,send_ethTokenNumber) */\n      0x20\n      mload(0x40)\n      dup1\n      dup4\n      sub\n      dup2\n      0x00\n      dup8\n      gas\n      call\n      iszero\n      dup1\n      iszero\n      tag_82\n      jumpi\n      returndatasize\n      0x00\n      dup1\n      returndatacopy\n      revert(0x00, returndatasize)\n    tag_82:\n      pop\n      pop\n      pop\n      pop\n      mload(0x40)\n      returndatasize\n      not(0x1f)\n      0x1f\n      dup3\n      add\n      and\n      dup3\n      add\n      dup1\n      0x40\n      mstore\n      pop\n      dup2\n      add\n      swap1\n      tag_83\n      swap2\n      swap1\n      tag_70\n      jump\t// in\n    tag_83:\n      pop\n        /* \"\\xe5\\x86\\x99\\xe4\\xb8\\xaaamm\\xe5\\x90\\x88\\xe7\\xba\\xa6.sol\":2751:2770  send_ethTokenNumber */\n      dup1\n        /* \"\\xe5\\x86\\x99\\xe4\\xb8\\xaaamm\\xe5\\x90\\x88\\xe7\\xba\\xa6.sol\":2725:2747  ReceivedETHTokenNumber */\n      0x03\n      0x00\n        /* \"\\xe5\\x86\\x99\\xe4\\xb8\\xaaamm\\xe5\\x90\\x88\\xe7\\xba\\xa6.sol\":2725:2770  ReceivedETHTokenNumber -= send_ethTokenNumber */\n      dup3\n      dup3\n      sload\n      tag_84\n      swap2\n      swap1\n      tag_85\n      jump\t// in\n    tag_84:\n      swap1\n      swap2\n      sstore\n      pop\n        /* \"\\xe5\\x86\\x99\\xe4\\xb8\\xaaamm\\xe5\\x90\\x88\\xe7\\xba\\xa6.sol\":2080:3314  if (_fromToken == BTCtoken) {... */\n      tag_87\n      swap2\n      pop\n      pop\n      jump\n    tag_64:\n        /* \"\\xe5\\x86\\x99\\xe4\\xb8\\xaaamm\\xe5\\x90\\x88\\xe7\\xba\\xa6.sol\":2816:2824  ETHtoken */\n      sload(0x01)\n      sub(shl(0xa0, 0x01), 0x01)\n      swap1\n      dup2\n      and\n        /* \"\\xe5\\x86\\x99\\xe4\\xb8\\xaaamm\\xe5\\x90\\x88\\xe7\\xba\\xa6.sol\":2802:2824  _fromToken == ETHtoken */\n      swap1\n      dup6\n      and\n      sub\n        /* \"\\xe5\\x86\\x99\\xe4\\xb8\\xaaamm\\xe5\\x90\\x88\\xe7\\xba\\xa6.sol\":2799:3314  if(_fromToken == ETHtoken) {... */\n      tag_87\n      jumpi\n        /* \"\\xe5\\x86\\x99\\xe4\\xb8\\xaaamm\\xe5\\x90\\x88\\xe7\\xba\\xa6.sol\":2848:2856  ETHtoken */\n      sload(0x01)\n        /* \"\\xe5\\x86\\x99\\xe4\\xb8\\xaaamm\\xe5\\x90\\x88\\xe7\\xba\\xa6.sol\":2841:2910  IERC20(ETHtoken).transferFrom(msg.sender, address(this), _fromAmount) */\n      mload(0x40)\n      shl(0xe0, 0x23b872dd)\n      dup2\n      mstore\n        /* \"\\xe5\\x86\\x99\\xe4\\xb8\\xaaamm\\xe5\\x90\\x88\\xe7\\xba\\xa6.sol\":2871:2881  msg.sender */\n      caller\n        /* \"\\xe5\\x86\\x99\\xe4\\xb8\\xaaamm\\xe5\\x90\\x88\\xe7\\xba\\xa6.sol\":2841:2910  IERC20(ETHtoken).transferFrom(msg.sender, address(this), _fromAmount) */\n      0x04\n      dup3\n      add\n        /* \"#utility.yul\":1976:2010   */\n      mstore\n        /* \"\\xe5\\x86\\x99\\xe4\\xb8\\xaaamm\\xe5\\x90\\x88\\xe7\\xba\\xa6.sol\":2891:2895  this */\n      address\n        /* \"#utility.yul\":2026:2044   */\n      0x24\n      dup3\n      add\n        /* \"#utility.yul\":2019:2062   */\n      mstore\n        /* \"#utility.yul\":2078:2096   */\n      0x44\n      dup2\n      add\n        /* \"#utility.yul\":2071:2105   */\n      dup5\n      swap1\n      mstore\n      sub(shl(0xa0, 0x01), 0x01)\n        /* \"\\xe5\\x86\\x99\\xe4\\xb8\\xaaamm\\xe5\\x90\\x88\\xe7\\xba\\xa6.sol\":2848:2856  ETHtoken */\n      swap1\n      swap2\n      and\n      swap1\n        /* \"\\xe5\\x86\\x99\\xe4\\xb8\\xaaamm\\xe5\\x90\\x88\\xe7\\xba\\xa6.sol\":2841:2870  IERC20(ETHtoken).transferFrom */\n      0x23b872dd\n      swap1\n        /* \"#utility.yul\":1911:1929   */\n      0x64\n      add\n        /* \"\\xe5\\x86\\x99\\xe4\\xb8\\xaaamm\\xe5\\x90\\x88\\xe7\\xba\\xa6.sol\":2841:2910  IERC20(ETHtoken).transferFrom(msg.sender, address(this), _fromAmount) */\n      0x20\n      mload(0x40)\n      dup1\n      dup4\n      sub\n      dup2\n      0x00\n      dup8\n      gas\n      call\n      iszero\n      dup1\n      iszero\n      tag_90\n      jumpi\n      returndatasize\n      0x00\n      dup1\n      returndatacopy\n      revert(0x00, returndatasize)\n    tag_90:\n      pop\n      pop\n      pop\n      pop\n      mload(0x40)\n      returndatasize\n      not(0x1f)\n      0x1f\n      dup3\n      add\n      and\n      dup3\n      add\n      dup1\n      0x40\n      mstore\n      pop\n      dup2\n      add\n      swap1\n      tag_91\n      swap2\n      swap1\n      tag_70\n      jump\t// in\n    tag_91:\n      pop\n        /* \"\\xe5\\x86\\x99\\xe4\\xb8\\xaaamm\\xe5\\x90\\x88\\xe7\\xba\\xa6.sol\":2951:2962  _fromAmount */\n      dup2\n        /* \"\\xe5\\x86\\x99\\xe4\\xb8\\xaaamm\\xe5\\x90\\x88\\xe7\\xba\\xa6.sol\":2925:2947  ReceivedETHTokenNumber */\n      0x03\n      0x00\n        /* \"\\xe5\\x86\\x99\\xe4\\xb8\\xaaamm\\xe5\\x90\\x88\\xe7\\xba\\xa6.sol\":2925:2962  ReceivedETHTokenNumber += _fromAmount */\n      dup3\n      dup3\n      sload\n      tag_92\n      swap2\n      swap1\n      tag_72\n      jump\t// in\n    tag_92:\n      swap1\n      swap2\n      sstore\n      pop\n      pop\n        /* \"\\xe5\\x86\\x99\\xe4\\xb8\\xaaamm\\xe5\\x90\\x88\\xe7\\xba\\xa6.sol\":3049:3071  ReceivedETHTokenNumber */\n      sload(0x03)\n        /* \"\\xe5\\x86\\x99\\xe4\\xb8\\xaaamm\\xe5\\x90\\x88\\xe7\\xba\\xa6.sol\":3000:3022  ReceivedBTCTokenNumber */\n      sload(0x02)\n        /* \"\\xe5\\x86\\x99\\xe4\\xb8\\xaaamm\\xe5\\x90\\x88\\xe7\\xba\\xa6.sol\":3000:3044  ReceivedBTCTokenNumber * 1000000000000000000 */\n      tag_93\n      swap1\n        /* \"\\xe5\\x86\\x99\\xe4\\xb8\\xaaamm\\xe5\\x90\\x88\\xe7\\xba\\xa6.sol\":3025:3044  1000000000000000000 */\n      0x0de0b6b3a7640000\n        /* \"\\xe5\\x86\\x99\\xe4\\xb8\\xaaamm\\xe5\\x90\\x88\\xe7\\xba\\xa6.sol\":3000:3044  ReceivedBTCTokenNumber * 1000000000000000000 */\n      tag_74\n      jump\t// in\n    tag_93:\n        /* \"\\xe5\\x86\\x99\\xe4\\xb8\\xaaamm\\xe5\\x90\\x88\\xe7\\xba\\xa6.sol\":2999:3071  (ReceivedBTCTokenNumber * 1000000000000000000) /  ReceivedETHTokenNumber */\n      tag_94\n      swap2\n      swap1\n      tag_76\n      jump\t// in\n    tag_94:\n        /* \"\\xe5\\x86\\x99\\xe4\\xb8\\xaaamm\\xe5\\x90\\x88\\xe7\\xba\\xa6.sol\":2977:2995  tradeETHproportion */\n      0x06\n        /* \"\\xe5\\x86\\x99\\xe4\\xb8\\xaaamm\\xe5\\x90\\x88\\xe7\\xba\\xa6.sol\":2977:3072  tradeETHproportion = ((ReceivedBTCTokenNumber * 1000000000000000000) /  ReceivedETHTokenNumber) */\n      dup2\n      swap1\n      sstore\n        /* \"\\xe5\\x86\\x99\\xe4\\xb8\\xaaamm\\xe5\\x90\\x88\\xe7\\xba\\xa6.sol\":3087:3111  uint send_btcTokenNumber */\n      0x00\n      swap1\n        /* \"\\xe5\\x86\\x99\\xe4\\xb8\\xaaamm\\xe5\\x90\\x88\\xe7\\xba\\xa6.sol\":3151:3170  1000000000000000000 */\n      0x0de0b6b3a7640000\n      swap1\n        /* \"\\xe5\\x86\\x99\\xe4\\xb8\\xaaamm\\xe5\\x90\\x88\\xe7\\xba\\xa6.sol\":3115:3147  _fromAmount * tradeETHproportion */\n      tag_95\n      swap1\n        /* \"\\xe5\\x86\\x99\\xe4\\xb8\\xaaamm\\xe5\\x90\\x88\\xe7\\xba\\xa6.sol\":3115:3126  _fromAmount */\n      dup6\n        /* \"\\xe5\\x86\\x99\\xe4\\xb8\\xaaamm\\xe5\\x90\\x88\\xe7\\xba\\xa6.sol\":3115:3147  _fromAmount * tradeETHproportion */\n      tag_74\n      jump\t// in\n    tag_95:\n        /* \"\\xe5\\x86\\x99\\xe4\\xb8\\xaaamm\\xe5\\x90\\x88\\xe7\\xba\\xa6.sol\":3114:3170  (_fromAmount * tradeETHproportion) / 1000000000000000000 */\n      tag_96\n      swap2\n      swap1\n      tag_76\n      jump\t// in\n    tag_96:\n        /* \"\\xe5\\x86\\x99\\xe4\\xb8\\xaaamm\\xe5\\x90\\x88\\xe7\\xba\\xa6.sol\":3192:3200  BTCtoken */\n      sload(0x00)\n        /* \"\\xe5\\x86\\x99\\xe4\\xb8\\xaaamm\\xe5\\x90\\x88\\xe7\\xba\\xa6.sol\":3185:3242  IERC20(BTCtoken).transfer(msg.sender,send_btcTokenNumber) */\n      mload(0x40)\n      shl(0xe0, 0xa9059cbb)\n      dup2\n      mstore\n        /* \"\\xe5\\x86\\x99\\xe4\\xb8\\xaaamm\\xe5\\x90\\x88\\xe7\\xba\\xa6.sol\":3211:3221  msg.sender */\n      caller\n        /* \"\\xe5\\x86\\x99\\xe4\\xb8\\xaaamm\\xe5\\x90\\x88\\xe7\\xba\\xa6.sol\":3185:3242  IERC20(BTCtoken).transfer(msg.sender,send_btcTokenNumber) */\n      0x04\n      dup3\n      add\n        /* \"#utility.yul\":3232:3283   */\n      mstore\n        /* \"#utility.yul\":3299:3317   */\n      0x24\n      dup2\n      add\n        /* \"#utility.yul\":3292:3326   */\n      dup4\n      swap1\n      mstore\n        /* \"\\xe5\\x86\\x99\\xe4\\xb8\\xaaamm\\xe5\\x90\\x88\\xe7\\xba\\xa6.sol\":3087:3170  uint send_btcTokenNumber = (_fromAmount * tradeETHproportion) / 1000000000000000000 */\n      swap2\n      swap3\n      pop\n      sub(shl(0xa0, 0x01), 0x01)\n        /* \"\\xe5\\x86\\x99\\xe4\\xb8\\xaaamm\\xe5\\x90\\x88\\xe7\\xba\\xa6.sol\":3192:3200  BTCtoken */\n      and\n      swap1\n        /* \"\\xe5\\x86\\x99\\xe4\\xb8\\xaaamm\\xe5\\x90\\x88\\xe7\\xba\\xa6.sol\":3185:3210  IERC20(BTCtoken).transfer */\n      0xa9059cbb\n      swap1\n        /* \"#utility.yul\":3205:3223   */\n      0x44\n      add\n        /* \"\\xe5\\x86\\x99\\xe4\\xb8\\xaaamm\\xe5\\x90\\x88\\xe7\\xba\\xa6.sol\":3185:3242  IERC20(BTCtoken).transfer(msg.sender,send_btcTokenNumber) */\n      0x20\n      mload(0x40)\n      dup1\n      dup4\n      sub\n      dup2\n      0x00\n      dup8\n      gas\n      call\n      iszero\n      dup1\n      iszero\n      tag_99\n      jumpi\n      returndatasize\n      0x00\n      dup1\n      returndatacopy\n      revert(0x00, returndatasize)\n    tag_99:\n      pop\n      pop\n      pop\n      pop\n      mload(0x40)\n      returndatasize\n      not(0x1f)\n      0x1f\n      dup3\n      add\n      and\n      dup3\n      add\n      dup1\n      0x40\n      mstore\n      pop\n      dup2\n      add\n      swap1\n      tag_100\n      swap2\n      swap1\n      tag_70\n      jump\t// in\n    tag_100:\n      pop\n        /* \"\\xe5\\x86\\x99\\xe4\\xb8\\xaaamm\\xe5\\x90\\x88\\xe7\\xba\\xa6.sol\":3283:3302  send_btcTokenNumber */\n      dup1\n        /* \"\\xe5\\x86\\x99\\xe4\\xb8\\xaaamm\\xe5\\x90\\x88\\xe7\\xba\\xa6.sol\":3257:3279  ReceivedBTCTokenNumber */\n      0x02\n      0x00\n        /* \"\\xe5\\x86\\x99\\xe4\\xb8\\xaaamm\\xe5\\x90\\x88\\xe7\\xba\\xa6.sol\":3257:3302  ReceivedBTCTokenNumber -= send_btcTokenNumber */\n      dup3\n      dup3\n      sload\n      tag_101\n      swap2\n      swap1\n      tag_85\n      jump\t// in\n    tag_101:\n      swap1\n      swap2\n      sstore\n      pop\n      pop\n      pop\n        /* \"\\xe5\\x86\\x99\\xe4\\xb8\\xaaamm\\xe5\\x90\\x88\\xe7\\xba\\xa6.sol\":2799:3314  if(_fromToken == ETHtoken) {... */\n    tag_87:\n      pop\n        /* \"\\xe5\\x86\\x99\\xe4\\xb8\\xaaamm\\xe5\\x90\\x88\\xe7\\xba\\xa6.sol\":3331:3335  true */\n      0x01\n        /* \"\\xe5\\x86\\x99\\xe4\\xb8\\xaaamm\\xe5\\x90\\x88\\xe7\\xba\\xa6.sol\":1982:3343  function trade(address _fromToken, address   , uint _fromAmount) public returns (bool) {... */\n      swap4\n      swap3\n      pop\n      pop\n      pop\n      jump\t// out\n        /* \"\\xe5\\x86\\x99\\xe4\\xb8\\xaaamm\\xe5\\x90\\x88\\xe7\\xba\\xa6.sol\":1086:1526  function claimBTC(uint _claim) public returns (bool) {... */\n    tag_57:\n        /* \"\\xe5\\x86\\x99\\xe4\\xb8\\xaaamm\\xe5\\x90\\x88\\xe7\\xba\\xa6.sol\":1167:1177  msg.sender */\n      caller\n        /* \"\\xe5\\x86\\x99\\xe4\\xb8\\xaaamm\\xe5\\x90\\x88\\xe7\\xba\\xa6.sol\":1133:1137  bool */\n      0x00\n        /* \"\\xe5\\x86\\x99\\xe4\\xb8\\xaaamm\\xe5\\x90\\x88\\xe7\\xba\\xa6.sol\":1158:1178  User_Map[msg.sender] */\n      swap1\n      dup2\n      mstore\n        /* \"\\xe5\\x86\\x99\\xe4\\xb8\\xaaamm\\xe5\\x90\\x88\\xe7\\xba\\xa6.sol\":1158:1166  User_Map */\n      0x08\n        /* \"\\xe5\\x86\\x99\\xe4\\xb8\\xaaamm\\xe5\\x90\\x88\\xe7\\xba\\xa6.sol\":1158:1178  User_Map[msg.sender] */\n      0x20\n      mstore\n      0x40\n      dup2\n      keccak256\n        /* \"\\xe5\\x86\\x99\\xe4\\xb8\\xaaamm\\xe5\\x90\\x88\\xe7\\xba\\xa6.sol\":1158:1193  User_Map[msg.sender].claimBTCNumber */\n      sload\n        /* \"\\xe5\\x86\\x99\\xe4\\xb8\\xaaamm\\xe5\\x90\\x88\\xe7\\xba\\xa6.sol\":1197:1217  10000000000000000000 */\n      0x8ac7230489e80000\n      gt\n        /* \"\\xe5\\x86\\x99\\xe4\\xb8\\xaaamm\\xe5\\x90\\x88\\xe7\\xba\\xa6.sol\":1150:1234  require(User_Map[msg.sender].claimBTCNumber  < 10000000000000000000, \"claim beyond\") */\n      tag_103\n      jumpi\n      mload(0x40)\n      shl(0xe5, 0x461bcd)\n      dup2\n      mstore\n        /* \"#utility.yul\":3669:3671   */\n      0x20\n        /* \"\\xe5\\x86\\x99\\xe4\\xb8\\xaaamm\\xe5\\x90\\x88\\xe7\\xba\\xa6.sol\":1150:1234  require(User_Map[msg.sender].claimBTCNumber  < 10000000000000000000, \"claim beyond\") */\n      0x04\n      dup3\n      add\n        /* \"#utility.yul\":3651:3672   */\n      mstore\n        /* \"#utility.yul\":3708:3710   */\n      0x0c\n        /* \"#utility.yul\":3688:3706   */\n      0x24\n      dup3\n      add\n        /* \"#utility.yul\":3681:3711   */\n      mstore\n      shl(0xa2, 0x18db185a5b4818995e5bdb99)\n        /* \"#utility.yul\":3727:3745   */\n      0x44\n      dup3\n      add\n        /* \"#utility.yul\":3720:3762   */\n      mstore\n        /* \"#utility.yul\":3779:3797   */\n      0x64\n      add\n        /* \"\\xe5\\x86\\x99\\xe4\\xb8\\xaaamm\\xe5\\x90\\x88\\xe7\\xba\\xa6.sol\":1150:1234  require(User_Map[msg.sender].claimBTCNumber  < 10000000000000000000, \"claim beyond\") */\n    tag_104:\n      mload(0x40)\n      dup1\n      swap2\n      sub\n      swap1\n      revert\n    tag_103:\n        /* \"\\xe5\\x86\\x99\\xe4\\xb8\\xaaamm\\xe5\\x90\\x88\\xe7\\xba\\xa6.sol\":1252:1260  BTCtoken */\n      sload(0x00)\n        /* \"\\xe5\\x86\\x99\\xe4\\xb8\\xaaamm\\xe5\\x90\\x88\\xe7\\xba\\xa6.sol\":1245:1289  IERC20(BTCtoken).transfer(msg.sender,_claim) */\n      mload(0x40)\n      shl(0xe0, 0xa9059cbb)\n      dup2\n      mstore\n        /* \"\\xe5\\x86\\x99\\xe4\\xb8\\xaaamm\\xe5\\x90\\x88\\xe7\\xba\\xa6.sol\":1271:1281  msg.sender */\n      caller\n        /* \"\\xe5\\x86\\x99\\xe4\\xb8\\xaaamm\\xe5\\x90\\x88\\xe7\\xba\\xa6.sol\":1245:1289  IERC20(BTCtoken).transfer(msg.sender,_claim) */\n      0x04\n      dup3\n      add\n        /* \"#utility.yul\":3232:3283   */\n      mstore\n        /* \"#utility.yul\":3299:3317   */\n      0x24\n      dup2\n      add\n        /* \"#utility.yul\":3292:3326   */\n      dup5\n      swap1\n      mstore\n      sub(shl(0xa0, 0x01), 0x01)\n        /* \"\\xe5\\x86\\x99\\xe4\\xb8\\xaaamm\\xe5\\x90\\x88\\xe7\\xba\\xa6.sol\":1252:1260  BTCtoken */\n      swap1\n      swap2\n      and\n      swap1\n        /* \"\\xe5\\x86\\x99\\xe4\\xb8\\xaaamm\\xe5\\x90\\x88\\xe7\\xba\\xa6.sol\":1245:1270  IERC20(BTCtoken).transfer */\n      0xa9059cbb\n      swap1\n        /* \"#utility.yul\":3205:3223   */\n      0x44\n      add\n        /* \"\\xe5\\x86\\x99\\xe4\\xb8\\xaaamm\\xe5\\x90\\x88\\xe7\\xba\\xa6.sol\":1245:1289  IERC20(BTCtoken).transfer(msg.sender,_claim) */\n      0x20\n      mload(0x40)\n      dup1\n      dup4\n      sub\n      dup2\n      0x00\n      dup8\n      gas\n      call\n      iszero\n      dup1\n      iszero\n      tag_108\n      jumpi\n      returndatasize\n      0x00\n      dup1\n      returndatacopy\n      revert(0x00, returndatasize)\n    tag_108:\n      pop\n      pop\n      pop\n      pop\n      mload(0x40)\n      returndatasize\n      not(0x1f)\n      0x1f\n      dup3\n      add\n      and\n      dup3\n      add\n      dup1\n      0x40\n      mstore\n      pop\n      dup2\n      add\n      swap1\n      tag_109\n      swap2\n      swap1\n      tag_70\n      jump\t// in\n    tag_109:\n      pop\n        /* \"\\xe5\\x86\\x99\\xe4\\xb8\\xaaamm\\xe5\\x90\\x88\\xe7\\xba\\xa6.sol\":1309:1319  msg.sender */\n      caller\n        /* \"\\xe5\\x86\\x99\\xe4\\xb8\\xaaamm\\xe5\\x90\\x88\\xe7\\xba\\xa6.sol\":1300:1320  User_Map[msg.sender] */\n      0x00\n      swap1\n      dup2\n      mstore\n        /* \"\\xe5\\x86\\x99\\xe4\\xb8\\xaaamm\\xe5\\x90\\x88\\xe7\\xba\\xa6.sol\":1300:1308  User_Map */\n      0x08\n        /* \"\\xe5\\x86\\x99\\xe4\\xb8\\xaaamm\\xe5\\x90\\x88\\xe7\\xba\\xa6.sol\":1300:1320  User_Map[msg.sender] */\n      0x20\n      mstore\n      0x40\n      dup2\n      keccak256\n        /* \"\\xe5\\x86\\x99\\xe4\\xb8\\xaaamm\\xe5\\x90\\x88\\xe7\\xba\\xa6.sol\":1300:1345  User_Map[msg.sender].claimBTCNumber += _claim */\n      dup1\n      sload\n        /* \"\\xe5\\x86\\x99\\xe4\\xb8\\xaaamm\\xe5\\x90\\x88\\xe7\\xba\\xa6.sol\":1339:1345  _claim */\n      dup5\n      swap3\n        /* \"\\xe5\\x86\\x99\\xe4\\xb8\\xaaamm\\xe5\\x90\\x88\\xe7\\xba\\xa6.sol\":1300:1320  User_Map[msg.sender] */\n      swap1\n        /* \"\\xe5\\x86\\x99\\xe4\\xb8\\xaaamm\\xe5\\x90\\x88\\xe7\\xba\\xa6.sol\":1300:1345  User_Map[msg.sender].claimBTCNumber += _claim */\n      tag_110\n      swap1\n        /* \"\\xe5\\x86\\x99\\xe4\\xb8\\xaaamm\\xe5\\x90\\x88\\xe7\\xba\\xa6.sol\":1339:1345  _claim */\n      dup5\n      swap1\n        /* \"\\xe5\\x86\\x99\\xe4\\xb8\\xaaamm\\xe5\\x90\\x88\\xe7\\xba\\xa6.sol\":1300:1345  User_Map[msg.sender].claimBTCNumber += _claim */\n      tag_72\n      jump\t// in\n    tag_110:\n      swap3\n      pop\n      pop\n      dup2\n      swap1\n      sstore\n      pop\n        /* \"\\xe5\\x86\\x99\\xe4\\xb8\\xaaamm\\xe5\\x90\\x88\\xe7\\xba\\xa6.sol\":1382:1388  _claim */\n      dup2\n        /* \"\\xe5\\x86\\x99\\xe4\\xb8\\xaaamm\\xe5\\x90\\x88\\xe7\\xba\\xa6.sol\":1356:1378  ReceivedBTCTokenNumber */\n      0x02\n      0x00\n        /* \"\\xe5\\x86\\x99\\xe4\\xb8\\xaaamm\\xe5\\x90\\x88\\xe7\\xba\\xa6.sol\":1356:1388  ReceivedBTCTokenNumber += _claim */\n      dup3\n      dup3\n      sload\n      tag_111\n      swap2\n      swap1\n      tag_72\n      jump\t// in\n    tag_111:\n      swap1\n      swap2\n      sstore\n      pop\n      pop\n        /* \"\\xe5\\x86\\x99\\xe4\\xb8\\xaaamm\\xe5\\x90\\x88\\xe7\\xba\\xa6.sol\":1470:1492  ReceivedBTCTokenNumber */\n      sload(0x02)\n        /* \"\\xe5\\x86\\x99\\xe4\\xb8\\xaaamm\\xe5\\x90\\x88\\xe7\\xba\\xa6.sol\":1422:1444  ReceivedETHTokenNumber */\n      sload(0x03)\n        /* \"\\xe5\\x86\\x99\\xe4\\xb8\\xaaamm\\xe5\\x90\\x88\\xe7\\xba\\xa6.sol\":1422:1466  ReceivedETHTokenNumber * 1000000000000000000 */\n      tag_112\n      swap1\n        /* \"\\xe5\\x86\\x99\\xe4\\xb8\\xaaamm\\xe5\\x90\\x88\\xe7\\xba\\xa6.sol\":1447:1466  1000000000000000000 */\n      0x0de0b6b3a7640000\n        /* \"\\xe5\\x86\\x99\\xe4\\xb8\\xaaamm\\xe5\\x90\\x88\\xe7\\xba\\xa6.sol\":1422:1466  ReceivedETHTokenNumber * 1000000000000000000 */\n      tag_74\n      jump\t// in\n    tag_112:\n        /* \"\\xe5\\x86\\x99\\xe4\\xb8\\xaaamm\\xe5\\x90\\x88\\xe7\\xba\\xa6.sol\":1421:1492  (ReceivedETHTokenNumber * 1000000000000000000) / ReceivedBTCTokenNumber */\n      tag_113\n      swap2\n      swap1\n      tag_76\n      jump\t// in\n    tag_113:\n        /* \"\\xe5\\x86\\x99\\xe4\\xb8\\xaaamm\\xe5\\x90\\x88\\xe7\\xba\\xa6.sol\":1399:1417  tradeBTCproportion */\n      0x07\n        /* \"\\xe5\\x86\\x99\\xe4\\xb8\\xaaamm\\xe5\\x90\\x88\\xe7\\xba\\xa6.sol\":1399:1493  tradeBTCproportion = ((ReceivedETHTokenNumber * 1000000000000000000) / ReceivedBTCTokenNumber) */\n      sstore\n      pop\n        /* \"\\xe5\\x86\\x99\\xe4\\xb8\\xaaamm\\xe5\\x90\\x88\\xe7\\xba\\xa6.sol\":1513:1517  true */\n      0x01\n      swap2\n        /* \"\\xe5\\x86\\x99\\xe4\\xb8\\xaaamm\\xe5\\x90\\x88\\xe7\\xba\\xa6.sol\":1086:1526  function claimBTC(uint _claim) public returns (bool) {... */\n      swap1\n      pop\n      jump\t// out\n        /* \"\\xe5\\x86\\x99\\xe4\\xb8\\xaaamm\\xe5\\x90\\x88\\xe7\\xba\\xa6.sol\":1534:1974  function claimETH(uint _claim) public returns (bool) {... */\n    tag_61:\n        /* \"\\xe5\\x86\\x99\\xe4\\xb8\\xaaamm\\xe5\\x90\\x88\\xe7\\xba\\xa6.sol\":1615:1625  msg.sender */\n      caller\n        /* \"\\xe5\\x86\\x99\\xe4\\xb8\\xaaamm\\xe5\\x90\\x88\\xe7\\xba\\xa6.sol\":1581:1585  bool */\n      0x00\n        /* \"\\xe5\\x86\\x99\\xe4\\xb8\\xaaamm\\xe5\\x90\\x88\\xe7\\xba\\xa6.sol\":1606:1626  User_Map[msg.sender] */\n      swap1\n      dup2\n      mstore\n        /* \"\\xe5\\x86\\x99\\xe4\\xb8\\xaaamm\\xe5\\x90\\x88\\xe7\\xba\\xa6.sol\":1606:1614  User_Map */\n      0x08\n        /* \"\\xe5\\x86\\x99\\xe4\\xb8\\xaaamm\\xe5\\x90\\x88\\xe7\\xba\\xa6.sol\":1606:1626  User_Map[msg.sender] */\n      0x20\n      mstore\n      0x40\n      dup2\n      keccak256\n        /* \"\\xe5\\x86\\x99\\xe4\\xb8\\xaaamm\\xe5\\x90\\x88\\xe7\\xba\\xa6.sol\":1606:1641  User_Map[msg.sender].claimETHNumber */\n      0x01\n      add\n      sload\n        /* \"\\xe5\\x86\\x99\\xe4\\xb8\\xaaamm\\xe5\\x90\\x88\\xe7\\xba\\xa6.sol\":1646:1666  10000000000000000000 */\n      0x8ac7230489e80000\n      gt\n        /* \"\\xe5\\x86\\x99\\xe4\\xb8\\xaaamm\\xe5\\x90\\x88\\xe7\\xba\\xa6.sol\":1598:1683  require(User_Map[msg.sender].claimETHNumber   < 10000000000000000000, \"claim beyond\") */\n      tag_115\n      jumpi\n      mload(0x40)\n      shl(0xe5, 0x461bcd)\n      dup2\n      mstore\n        /* \"#utility.yul\":3669:3671   */\n      0x20\n        /* \"\\xe5\\x86\\x99\\xe4\\xb8\\xaaamm\\xe5\\x90\\x88\\xe7\\xba\\xa6.sol\":1598:1683  require(User_Map[msg.sender].claimETHNumber   < 10000000000000000000, \"claim beyond\") */\n      0x04\n      dup3\n      add\n        /* \"#utility.yul\":3651:3672   */\n      mstore\n        /* \"#utility.yul\":3708:3710   */\n      0x0c\n        /* \"#utility.yul\":3688:3706   */\n      0x24\n      dup3\n      add\n        /* \"#utility.yul\":3681:3711   */\n      mstore\n      shl(0xa2, 0x18db185a5b4818995e5bdb99)\n        /* \"#utility.yul\":3727:3745   */\n      0x44\n      dup3\n      add\n        /* \"#utility.yul\":3720:3762   */\n      mstore\n        /* \"#utility.yul\":3779:3797   */\n      0x64\n      add\n        /* \"\\xe5\\x86\\x99\\xe4\\xb8\\xaaamm\\xe5\\x90\\x88\\xe7\\xba\\xa6.sol\":1598:1683  require(User_Map[msg.sender].claimETHNumber   < 10000000000000000000, \"claim beyond\") */\n      tag_104\n        /* \"#utility.yul\":3467:3803   */\n      jump\n        /* \"\\xe5\\x86\\x99\\xe4\\xb8\\xaaamm\\xe5\\x90\\x88\\xe7\\xba\\xa6.sol\":1598:1683  require(User_Map[msg.sender].claimETHNumber   < 10000000000000000000, \"claim beyond\") */\n    tag_115:\n        /* \"\\xe5\\x86\\x99\\xe4\\xb8\\xaaamm\\xe5\\x90\\x88\\xe7\\xba\\xa6.sol\":1701:1709  ETHtoken */\n      sload(0x01)\n        /* \"\\xe5\\x86\\x99\\xe4\\xb8\\xaaamm\\xe5\\x90\\x88\\xe7\\xba\\xa6.sol\":1694:1738  IERC20(ETHtoken).transfer(msg.sender,_claim) */\n      mload(0x40)\n      shl(0xe0, 0xa9059cbb)\n      dup2\n      mstore\n        /* \"\\xe5\\x86\\x99\\xe4\\xb8\\xaaamm\\xe5\\x90\\x88\\xe7\\xba\\xa6.sol\":1720:1730  msg.sender */\n      caller\n        /* \"\\xe5\\x86\\x99\\xe4\\xb8\\xaaamm\\xe5\\x90\\x88\\xe7\\xba\\xa6.sol\":1694:1738  IERC20(ETHtoken).transfer(msg.sender,_claim) */\n      0x04\n      dup3\n      add\n        /* \"#utility.yul\":3232:3283   */\n      mstore\n        /* \"#utility.yul\":3299:3317   */\n      0x24\n      dup2\n      add\n        /* \"#utility.yul\":3292:3326   */\n      dup5\n      swap1\n      mstore\n      sub(shl(0xa0, 0x01), 0x01)\n        /* \"\\xe5\\x86\\x99\\xe4\\xb8\\xaaamm\\xe5\\x90\\x88\\xe7\\xba\\xa6.sol\":1701:1709  ETHtoken */\n      swap1\n      swap2\n      and\n      swap1\n        /* \"\\xe5\\x86\\x99\\xe4\\xb8\\xaaamm\\xe5\\x90\\x88\\xe7\\xba\\xa6.sol\":1694:1719  IERC20(ETHtoken).transfer */\n      0xa9059cbb\n      swap1\n        /* \"#utility.yul\":3205:3223   */\n      0x44\n      add\n        /* \"\\xe5\\x86\\x99\\xe4\\xb8\\xaaamm\\xe5\\x90\\x88\\xe7\\xba\\xa6.sol\":1694:1738  IERC20(ETHtoken).transfer(msg.sender,_claim) */\n      0x20\n      mload(0x40)\n      dup1\n      dup4\n      sub\n      dup2\n      0x00\n      dup8\n      gas\n      call\n      iszero\n      dup1\n      iszero\n      tag_119\n      jumpi\n      returndatasize\n      0x00\n      dup1\n      returndatacopy\n      revert(0x00, returndatasize)\n    tag_119:\n      pop\n      pop\n      pop\n      pop\n      mload(0x40)\n      returndatasize\n      not(0x1f)\n      0x1f\n      dup3\n      add\n      and\n      dup3\n      add\n      dup1\n      0x40\n      mstore\n      pop\n      dup2\n      add\n      swap1\n      tag_120\n      swap2\n      swap1\n      tag_70\n      jump\t// in\n    tag_120:\n      pop\n        /* \"\\xe5\\x86\\x99\\xe4\\xb8\\xaaamm\\xe5\\x90\\x88\\xe7\\xba\\xa6.sol\":1758:1768  msg.sender */\n      caller\n        /* \"\\xe5\\x86\\x99\\xe4\\xb8\\xaaamm\\xe5\\x90\\x88\\xe7\\xba\\xa6.sol\":1749:1769  User_Map[msg.sender] */\n      0x00\n      swap1\n      dup2\n      mstore\n        /* \"\\xe5\\x86\\x99\\xe4\\xb8\\xaaamm\\xe5\\x90\\x88\\xe7\\xba\\xa6.sol\":1749:1757  User_Map */\n      0x08\n        /* \"\\xe5\\x86\\x99\\xe4\\xb8\\xaaamm\\xe5\\x90\\x88\\xe7\\xba\\xa6.sol\":1749:1769  User_Map[msg.sender] */\n      0x20\n      mstore\n      0x40\n      dup2\n      keccak256\n        /* \"\\xe5\\x86\\x99\\xe4\\xb8\\xaaamm\\xe5\\x90\\x88\\xe7\\xba\\xa6.sol\":1749:1784  User_Map[msg.sender].claimETHNumber */\n      0x01\n      add\n        /* \"\\xe5\\x86\\x99\\xe4\\xb8\\xaaamm\\xe5\\x90\\x88\\xe7\\xba\\xa6.sol\":1749:1794  User_Map[msg.sender].claimETHNumber += _claim */\n      dup1\n      sload\n        /* \"\\xe5\\x86\\x99\\xe4\\xb8\\xaaamm\\xe5\\x90\\x88\\xe7\\xba\\xa6.sol\":1788:1794  _claim */\n      dup5\n      swap3\n        /* \"\\xe5\\x86\\x99\\xe4\\xb8\\xaaamm\\xe5\\x90\\x88\\xe7\\xba\\xa6.sol\":1749:1769  User_Map[msg.sender] */\n      swap1\n        /* \"\\xe5\\x86\\x99\\xe4\\xb8\\xaaamm\\xe5\\x90\\x88\\xe7\\xba\\xa6.sol\":1749:1794  User_Map[msg.sender].claimETHNumber += _claim */\n      tag_121\n      swap1\n        /* \"\\xe5\\x86\\x99\\xe4\\xb8\\xaaamm\\xe5\\x90\\x88\\xe7\\xba\\xa6.sol\":1788:1794  _claim */\n      dup5\n      swap1\n        /* \"\\xe5\\x86\\x99\\xe4\\xb8\\xaaamm\\xe5\\x90\\x88\\xe7\\xba\\xa6.sol\":1749:1794  User_Map[msg.sender].claimETHNumber += _claim */\n      tag_72\n      jump\t// in\n    tag_121:\n      swap3\n      pop\n      pop\n      dup2\n      swap1\n      sstore\n      pop\n        /* \"\\xe5\\x86\\x99\\xe4\\xb8\\xaaamm\\xe5\\x90\\x88\\xe7\\xba\\xa6.sol\":1831:1837  _claim */\n      dup2\n        /* \"\\xe5\\x86\\x99\\xe4\\xb8\\xaaamm\\xe5\\x90\\x88\\xe7\\xba\\xa6.sol\":1805:1827  ReceivedETHTokenNumber */\n      0x03\n      0x00\n        /* \"\\xe5\\x86\\x99\\xe4\\xb8\\xaaamm\\xe5\\x90\\x88\\xe7\\xba\\xa6.sol\":1805:1837  ReceivedETHTokenNumber += _claim */\n      dup3\n      dup3\n      sload\n      tag_122\n      swap2\n      swap1\n      tag_72\n      jump\t// in\n    tag_122:\n      swap1\n      swap2\n      sstore\n      pop\n      pop\n        /* \"\\xe5\\x86\\x99\\xe4\\xb8\\xaaamm\\xe5\\x90\\x88\\xe7\\xba\\xa6.sol\":1920:1942  ReceivedETHTokenNumber */\n      sload(0x03)\n        /* \"\\xe5\\x86\\x99\\xe4\\xb8\\xaaamm\\xe5\\x90\\x88\\xe7\\xba\\xa6.sol\":1871:1893  ReceivedBTCTokenNumber */\n      sload(0x02)\n        /* \"\\xe5\\x86\\x99\\xe4\\xb8\\xaaamm\\xe5\\x90\\x88\\xe7\\xba\\xa6.sol\":1871:1915  ReceivedBTCTokenNumber * 1000000000000000000 */\n      tag_123\n      swap1\n        /* \"\\xe5\\x86\\x99\\xe4\\xb8\\xaaamm\\xe5\\x90\\x88\\xe7\\xba\\xa6.sol\":1896:1915  1000000000000000000 */\n      0x0de0b6b3a7640000\n        /* \"\\xe5\\x86\\x99\\xe4\\xb8\\xaaamm\\xe5\\x90\\x88\\xe7\\xba\\xa6.sol\":1871:1915  ReceivedBTCTokenNumber * 1000000000000000000 */\n      tag_74\n      jump\t// in\n    tag_123:\n        /* \"\\xe5\\x86\\x99\\xe4\\xb8\\xaaamm\\xe5\\x90\\x88\\xe7\\xba\\xa6.sol\":1870:1942  (ReceivedBTCTokenNumber * 1000000000000000000) /  ReceivedETHTokenNumber */\n      tag_124\n      swap2\n      swap1\n      tag_76\n      jump\t// in\n    tag_124:\n        /* \"\\xe5\\x86\\x99\\xe4\\xb8\\xaaamm\\xe5\\x90\\x88\\xe7\\xba\\xa6.sol\":1848:1866  tradeETHproportion */\n      0x06\n        /* \"\\xe5\\x86\\x99\\xe4\\xb8\\xaaamm\\xe5\\x90\\x88\\xe7\\xba\\xa6.sol\":1848:1943  tradeETHproportion = ((ReceivedBTCTokenNumber * 1000000000000000000) /  ReceivedETHTokenNumber) */\n      sstore\n      pop\n        /* \"\\xe5\\x86\\x99\\xe4\\xb8\\xaaamm\\xe5\\x90\\x88\\xe7\\xba\\xa6.sol\":1961:1965  true */\n      0x01\n      swap2\n        /* \"\\xe5\\x86\\x99\\xe4\\xb8\\xaaamm\\xe5\\x90\\x88\\xe7\\xba\\xa6.sol\":1534:1974  function claimETH(uint _claim) public returns (bool) {... */\n      swap1\n      pop\n      jump\t// out\n        /* \"#utility.yul\":404:577   */\n    tag_125:\n        /* \"#utility.yul\":472:492   */\n      dup1\n      calldataload\n      sub(shl(0xa0, 0x01), 0x01)\n        /* \"#utility.yul\":521:552   */\n      dup2\n      and\n        /* \"#utility.yul\":511:553   */\n      dup2\n      eq\n        /* \"#utility.yul\":501:571   */\n      tag_131\n      jumpi\n        /* \"#utility.yul\":567:568   */\n      0x00\n        /* \"#utility.yul\":564:565   */\n      dup1\n        /* \"#utility.yul\":557:569   */\n      revert\n        /* \"#utility.yul\":501:571   */\n    tag_131:\n        /* \"#utility.yul\":404:577   */\n      swap2\n      swap1\n      pop\n      jump\t// out\n        /* \"#utility.yul\":582:910   */\n    tag_29:\n        /* \"#utility.yul\":659:665   */\n      0x00\n        /* \"#utility.yul\":667:673   */\n      dup1\n        /* \"#utility.yul\":675:681   */\n      0x00\n        /* \"#utility.yul\":728:730   */\n      0x60\n        /* \"#utility.yul\":716:725   */\n      dup5\n        /* \"#utility.yul\":707:714   */\n      dup7\n        /* \"#utility.yul\":703:726   */\n      sub\n        /* \"#utility.yul\":699:731   */\n      slt\n        /* \"#utility.yul\":696:748   */\n      iszero\n      tag_133\n      jumpi\n        /* \"#utility.yul\":744:745   */\n      0x00\n        /* \"#utility.yul\":741:742   */\n      dup1\n        /* \"#utility.yul\":734:746   */\n      revert\n        /* \"#utility.yul\":696:748   */\n    tag_133:\n        /* \"#utility.yul\":767:796   */\n      tag_134\n        /* \"#utility.yul\":786:795   */\n      dup5\n        /* \"#utility.yul\":767:796   */\n      tag_125\n      jump\t// in\n    tag_134:\n        /* \"#utility.yul\":757:796   */\n      swap3\n      pop\n        /* \"#utility.yul\":815:853   */\n      tag_135\n        /* \"#utility.yul\":849:851   */\n      0x20\n        /* \"#utility.yul\":838:847   */\n      dup6\n        /* \"#utility.yul\":834:852   */\n      add\n        /* \"#utility.yul\":815:853   */\n      tag_125\n      jump\t// in\n    tag_135:\n        /* \"#utility.yul\":805:853   */\n      swap2\n      pop\n        /* \"#utility.yul\":900:902   */\n      0x40\n        /* \"#utility.yul\":889:898   */\n      dup5\n        /* \"#utility.yul\":885:903   */\n      add\n        /* \"#utility.yul\":872:904   */\n      calldataload\n        /* \"#utility.yul\":862:904   */\n      swap1\n      pop\n        /* \"#utility.yul\":582:910   */\n      swap3\n      pop\n      swap3\n      pop\n      swap3\n      jump\t// out\n        /* \"#utility.yul\":1107:1293   */\n    tag_41:\n        /* \"#utility.yul\":1166:1172   */\n      0x00\n        /* \"#utility.yul\":1219:1221   */\n      0x20\n        /* \"#utility.yul\":1207:1216   */\n      dup3\n        /* \"#utility.yul\":1198:1205   */\n      dup5\n        /* \"#utility.yul\":1194:1217   */\n      sub\n        /* \"#utility.yul\":1190:1222   */\n      slt\n        /* \"#utility.yul\":1187:1239   */\n      iszero\n      tag_138\n      jumpi\n        /* \"#utility.yul\":1235:1236   */\n      0x00\n        /* \"#utility.yul\":1232:1233   */\n      dup1\n        /* \"#utility.yul\":1225:1237   */\n      revert\n        /* \"#utility.yul\":1187:1239   */\n    tag_138:\n        /* \"#utility.yul\":1258:1287   */\n      tag_139\n        /* \"#utility.yul\":1277:1286   */\n      dup3\n        /* \"#utility.yul\":1258:1287   */\n      tag_125\n      jump\t// in\n    tag_139:\n        /* \"#utility.yul\":1248:1287   */\n      swap4\n        /* \"#utility.yul\":1107:1293   */\n      swap3\n      pop\n      pop\n      pop\n      jump\t// out\n        /* \"#utility.yul\":1551:1731   */\n    tag_56:\n        /* \"#utility.yul\":1610:1616   */\n      0x00\n        /* \"#utility.yul\":1663:1665   */\n      0x20\n        /* \"#utility.yul\":1651:1660   */\n      dup3\n        /* \"#utility.yul\":1642:1649   */\n      dup5\n        /* \"#utility.yul\":1638:1661   */\n      sub\n        /* \"#utility.yul\":1634:1666   */\n      slt\n        /* \"#utility.yul\":1631:1683   */\n      iszero\n      tag_142\n      jumpi\n        /* \"#utility.yul\":1679:1680   */\n      0x00\n        /* \"#utility.yul\":1676:1677   */\n      dup1\n        /* \"#utility.yul\":1669:1681   */\n      revert\n        /* \"#utility.yul\":1631:1683   */\n    tag_142:\n      pop\n        /* \"#utility.yul\":1702:1725   */\n      calldataload\n      swap2\n        /* \"#utility.yul\":1551:1731   */\n      swap1\n      pop\n      jump\t// out\n        /* \"#utility.yul\":2116:2393   */\n    tag_70:\n        /* \"#utility.yul\":2183:2189   */\n      0x00\n        /* \"#utility.yul\":2236:2238   */\n      0x20\n        /* \"#utility.yul\":2224:2233   */\n      dup3\n        /* \"#utility.yul\":2215:2222   */\n      dup5\n        /* \"#utility.yul\":2211:2234   */\n      sub\n        /* \"#utility.yul\":2207:2239   */\n      slt\n        /* \"#utility.yul\":2204:2256   */\n      iszero\n      tag_145\n      jumpi\n        /* \"#utility.yul\":2252:2253   */\n      0x00\n        /* \"#utility.yul\":2249:2250   */\n      dup1\n        /* \"#utility.yul\":2242:2254   */\n      revert\n        /* \"#utility.yul\":2204:2256   */\n    tag_145:\n        /* \"#utility.yul\":2284:2293   */\n      dup2\n        /* \"#utility.yul\":2278:2294   */\n      mload\n        /* \"#utility.yul\":2337:2342   */\n      dup1\n        /* \"#utility.yul\":2330:2343   */\n      iszero\n        /* \"#utility.yul\":2323:2344   */\n      iszero\n        /* \"#utility.yul\":2316:2321   */\n      dup2\n        /* \"#utility.yul\":2313:2345   */\n      eq\n        /* \"#utility.yul\":2303:2363   */\n      tag_139\n      jumpi\n        /* \"#utility.yul\":2359:2360   */\n      0x00\n        /* \"#utility.yul\":2356:2357   */\n      dup1\n        /* \"#utility.yul\":2349:2361   */\n      revert\n        /* \"#utility.yul\":2398:2525   */\n    tag_126:\n        /* \"#utility.yul\":2459:2469   */\n      0x4e487b71\n        /* \"#utility.yul\":2454:2457   */\n      0xe0\n        /* \"#utility.yul\":2450:2470   */\n      shl\n        /* \"#utility.yul\":2447:2448   */\n      0x00\n        /* \"#utility.yul\":2440:2471   */\n      mstore\n        /* \"#utility.yul\":2490:2494   */\n      0x11\n        /* \"#utility.yul\":2487:2488   */\n      0x04\n        /* \"#utility.yul\":2480:2495   */\n      mstore\n        /* \"#utility.yul\":2514:2518   */\n      0x24\n        /* \"#utility.yul\":2511:2512   */\n      0x00\n        /* \"#utility.yul\":2504:2519   */\n      revert\n        /* \"#utility.yul\":2530:2658   */\n    tag_72:\n        /* \"#utility.yul\":2570:2573   */\n      0x00\n        /* \"#utility.yul\":2601:2602   */\n      dup3\n        /* \"#utility.yul\":2597:2603   */\n      not\n        /* \"#utility.yul\":2594:2595   */\n      dup3\n        /* \"#utility.yul\":2591:2604   */\n      gt\n        /* \"#utility.yul\":2588:2627   */\n      iszero\n      tag_150\n      jumpi\n        /* \"#utility.yul\":2607:2625   */\n      tag_150\n      tag_126\n      jump\t// in\n    tag_150:\n      pop\n        /* \"#utility.yul\":2643:2652   */\n      add\n      swap1\n        /* \"#utility.yul\":2530:2658   */\n      jump\t// out\n        /* \"#utility.yul\":2663:2831   */\n    tag_74:\n        /* \"#utility.yul\":2703:2710   */\n      0x00\n        /* \"#utility.yul\":2769:2770   */\n      dup2\n        /* \"#utility.yul\":2765:2766   */\n      0x00\n        /* \"#utility.yul\":2761:2767   */\n      not\n        /* \"#utility.yul\":2757:2771   */\n      div\n        /* \"#utility.yul\":2754:2755   */\n      dup4\n        /* \"#utility.yul\":2751:2772   */\n      gt\n        /* \"#utility.yul\":2746:2747   */\n      dup3\n        /* \"#utility.yul\":2739:2748   */\n      iszero\n        /* \"#utility.yul\":2732:2749   */\n      iszero\n        /* \"#utility.yul\":2728:2773   */\n      and\n        /* \"#utility.yul\":2725:2796   */\n      iszero\n      tag_153\n      jumpi\n        /* \"#utility.yul\":2776:2794   */\n      tag_153\n      tag_126\n      jump\t// in\n    tag_153:\n      pop\n        /* \"#utility.yul\":2816:2825   */\n      mul\n      swap1\n        /* \"#utility.yul\":2663:2831   */\n      jump\t// out\n        /* \"#utility.yul\":2836:3053   */\n    tag_76:\n        /* \"#utility.yul\":2876:2877   */\n      0x00\n        /* \"#utility.yul\":2902:2903   */\n      dup3\n        /* \"#utility.yul\":2892:3024   */\n      tag_155\n      jumpi\n        /* \"#utility.yul\":2946:2956   */\n      0x4e487b71\n        /* \"#utility.yul\":2941:2944   */\n      0xe0\n        /* \"#utility.yul\":2937:2957   */\n      shl\n        /* \"#utility.yul\":2934:2935   */\n      0x00\n        /* \"#utility.yul\":2927:2958   */\n      mstore\n        /* \"#utility.yul\":2981:2985   */\n      0x12\n        /* \"#utility.yul\":2978:2979   */\n      0x04\n        /* \"#utility.yul\":2971:2986   */\n      mstore\n        /* \"#utility.yul\":3009:3013   */\n      0x24\n        /* \"#utility.yul\":3006:3007   */\n      0x00\n        /* \"#utility.yul\":2999:3014   */\n      revert\n        /* \"#utility.yul\":2892:3024   */\n    tag_155:\n      pop\n        /* \"#utility.yul\":3038:3047   */\n      div\n      swap1\n        /* \"#utility.yul\":2836:3053   */\n      jump\t// out\n        /* \"#utility.yul\":3337:3462   */\n    tag_85:\n        /* \"#utility.yul\":3377:3381   */\n      0x00\n        /* \"#utility.yul\":3405:3406   */\n      dup3\n        /* \"#utility.yul\":3402:3403   */\n      dup3\n        /* \"#utility.yul\":3399:3407   */\n      lt\n        /* \"#utility.yul\":3396:3430   */\n      iszero\n      tag_159\n      jumpi\n        /* \"#utility.yul\":3410:3428   */\n      tag_159\n      tag_126\n      jump\t// in\n    tag_159:\n      pop\n        /* \"#utility.yul\":3447:3456   */\n      sub\n      swap1\n        /* \"#utility.yul\":3337:3462   */\n      jump\t// out\n\n    auxdata: 0xa2646970667358221220d2fbdebb3227d93786d8b8adae0f0bcb592ba3b778b03cf14643033d55d9958e64736f6c634300080f0033\n}\n",
				"bytecode": {
					"linkReferences": {},
					"object": "608060405234801561001057600080fd5b506040516109cb3803806109cb83398101604081905261002f916100b2565b826001600160a01b0316846001600160a01b03160361004d57600080fd5b600580546001600160a01b03199081163317909155600080546001600160a01b0396871690831617905560018054949095169316929092179092556002919091556003556100f5565b80516001600160a01b03811681146100ad57600080fd5b919050565b600080600080608085870312156100c857600080fd5b6100d185610096565b93506100df60208601610096565b6040860151606090960151949790965092505050565b6108c7806101046000396000f3fe608060405234801561001057600080fd5b50600436106100b45760003560e01c80638c93ecff116100715780638c93ecff146101485780638da5cb5b146101845780639393357c14610197578063dd88ea08146101a0578063f733f048146101a9578063fe96973a146101bc57600080fd5b8063069a0382146100b95780632b843498146100d55780632bba682a146100de5780635253baae1461010957806366e48d241461012c57806381b7dacb14610135575b600080fd5b6100c260035481565b6040519081526020015b60405180910390f35b6100c260025481565b6000546100f1906001600160a01b031681565b6040516001600160a01b0390911681526020016100cc565b61011c610117366004610772565b6101cf565b60405190151581526020016100cc565b6100c260045481565b6001546100f1906001600160a01b031681565b61016f6101563660046107ae565b6008602052600090815260409020805460019091015482565b604080519283526020830191909152016100cc565b6005546100f1906001600160a01b031681565b6100c260065481565b6100c260075481565b61011c6101b73660046107d0565b6104e1565b61011c6101ca3660046107d0565b61061b565b600080546001600160a01b0390811690851603610356576000546040516323b872dd60e01b8152336004820152306024820152604481018490526001600160a01b03909116906323b872dd906064016020604051808303816000875af115801561023d573d6000803e3d6000fd5b505050506040513d601f19601f8201168201806040525081019061026191906107e9565b5081600260008282546102749190610821565b909155505060025460035461029190670de0b6b3a7640000610839565b61029b9190610858565b6007819055600090670de0b6b3a7640000906102b79085610839565b6102c19190610858565b60015460405163a9059cbb60e01b8152336004820152602481018390529192506001600160a01b03169063a9059cbb906044016020604051808303816000875af1158015610313573d6000803e3d6000fd5b505050506040513d601f19601f8201168201806040525081019061033791906107e9565b50806003600082825461034a919061087a565b909155506104d7915050565b6001546001600160a01b03908116908516036104d7576001546040516323b872dd60e01b8152336004820152306024820152604481018490526001600160a01b03909116906323b872dd906064016020604051808303816000875af11580156103c3573d6000803e3d6000fd5b505050506040513d601f19601f820116820180604052508101906103e791906107e9565b5081600360008282546103fa9190610821565b909155505060035460025461041790670de0b6b3a7640000610839565b6104219190610858565b6006819055600090670de0b6b3a76400009061043d9085610839565b6104479190610858565b60005460405163a9059cbb60e01b8152336004820152602481018390529192506001600160a01b03169063a9059cbb906044016020604051808303816000875af1158015610499573d6000803e3d6000fd5b505050506040513d601f19601f820116820180604052508101906104bd91906107e9565b5080600260008282546104d0919061087a565b9091555050505b5060019392505050565b33600090815260086020526040812054678ac7230489e800001161053b5760405162461bcd60e51b815260206004820152600c60248201526b18db185a5b4818995e5bdb9960a21b60448201526064015b60405180910390fd5b60005460405163a9059cbb60e01b8152336004820152602481018490526001600160a01b039091169063a9059cbb906044016020604051808303816000875af115801561058c573d6000803e3d6000fd5b505050506040513d601f19601f820116820180604052508101906105b091906107e9565b5033600090815260086020526040812080548492906105d0908490610821565b9250508190555081600260008282546105e99190610821565b909155505060025460035461060690670de0b6b3a7640000610839565b6106109190610858565b600755506001919050565b33600090815260086020526040812060010154678ac7230489e80000116106735760405162461bcd60e51b815260206004820152600c60248201526b18db185a5b4818995e5bdb9960a21b6044820152606401610532565b60015460405163a9059cbb60e01b8152336004820152602481018490526001600160a01b039091169063a9059cbb906044016020604051808303816000875af11580156106c4573d6000803e3d6000fd5b505050506040513d601f19601f820116820180604052508101906106e891906107e9565b50336000908152600860205260408120600101805484929061070b908490610821565b9250508190555081600360008282546107249190610821565b909155505060035460025461074190670de0b6b3a7640000610839565b61074b9190610858565b600655506001919050565b80356001600160a01b038116811461076d57600080fd5b919050565b60008060006060848603121561078757600080fd5b61079084610756565b925061079e60208501610756565b9150604084013590509250925092565b6000602082840312156107c057600080fd5b6107c982610756565b9392505050565b6000602082840312156107e257600080fd5b5035919050565b6000602082840312156107fb57600080fd5b815180151581146107c957600080fd5b634e487b7160e01b600052601160045260246000fd5b600082198211156108345761083461080b565b500190565b60008160001904831182151516156108535761085361080b565b500290565b60008261087557634e487b7160e01b600052601260045260246000fd5b500490565b60008282101561088c5761088c61080b565b50039056fea2646970667358221220d2fbdebb3227d93786d8b8adae0f0bcb592ba3b778b03cf14643033d55d9958e64736f6c634300080f0033",
					"opcodes": "PUSH1 0x80 PUSH1 0x40 MSTORE CALLVALUE DUP1 ISZERO PUSH2 0x10 JUMPI PUSH1 0x0 DUP1 REVERT JUMPDEST POP PUSH1 0x40 MLOAD PUSH2 0x9CB CODESIZE SUB DUP1 PUSH2 0x9CB DUP4 CODECOPY DUP2 ADD PUSH1 0x40 DUP2 SWAP1 MSTORE PUSH2 0x2F SWAP2 PUSH2 0xB2 JUMP JUMPDEST DUP3 PUSH1 0x1 PUSH1 0x1 PUSH1 0xA0 SHL SUB AND DUP5 PUSH1 0x1 PUSH1 0x1 PUSH1 0xA0 SHL SUB AND SUB PUSH2 0x4D JUMPI PUSH1 0x0 DUP1 REVERT JUMPDEST PUSH1 0x5 DUP1 SLOAD PUSH1 0x1 PUSH1 0x1 PUSH1 0xA0 SHL SUB NOT SWAP1 DUP2 AND CALLER OR SWAP1 SWAP2 SSTORE PUSH1 0x0 DUP1 SLOAD PUSH1 0x1 PUSH1 0x1 PUSH1 0xA0 SHL SUB SWAP7 DUP8 AND SWAP1 DUP4 AND OR SWAP1 SSTORE PUSH1 0x1 DUP1 SLOAD SWAP5 SWAP1 SWAP6 AND SWAP4 AND SWAP3 SWAP1 SWAP3 OR SWAP1 SWAP3 SSTORE PUSH1 0x2 SWAP2 SWAP1 SWAP2 SSTORE PUSH1 0x3 SSTORE PUSH2 0xF5 JUMP JUMPDEST DUP1 MLOAD PUSH1 0x1 PUSH1 0x1 PUSH1 0xA0 SHL SUB DUP2 AND DUP2 EQ PUSH2 0xAD JUMPI PUSH1 0x0 DUP1 REVERT JUMPDEST SWAP2 SWAP1 POP JUMP JUMPDEST PUSH1 0x0 DUP1 PUSH1 0x0 DUP1 PUSH1 0x80 DUP6 DUP8 SUB SLT ISZERO PUSH2 0xC8 JUMPI PUSH1 0x0 DUP1 REVERT JUMPDEST PUSH2 0xD1 DUP6 PUSH2 0x96 JUMP JUMPDEST SWAP4 POP PUSH2 0xDF PUSH1 0x20 DUP7 ADD PUSH2 0x96 JUMP JUMPDEST PUSH1 0x40 DUP7 ADD MLOAD PUSH1 0x60 SWAP1 SWAP7 ADD MLOAD SWAP5 SWAP8 SWAP1 SWAP7 POP SWAP3 POP POP POP JUMP JUMPDEST PUSH2 0x8C7 DUP1 PUSH2 0x104 PUSH1 0x0 CODECOPY PUSH1 0x0 RETURN INVALID PUSH1 0x80 PUSH1 0x40 MSTORE CALLVALUE DUP1 ISZERO PUSH2 0x10 JUMPI PUSH1 0x0 DUP1 REVERT JUMPDEST POP PUSH1 0x4 CALLDATASIZE LT PUSH2 0xB4 JUMPI PUSH1 0x0 CALLDATALOAD PUSH1 0xE0 SHR DUP1 PUSH4 0x8C93ECFF GT PUSH2 0x71 JUMPI DUP1 PUSH4 0x8C93ECFF EQ PUSH2 0x148 JUMPI DUP1 PUSH4 0x8DA5CB5B EQ PUSH2 0x184 JUMPI DUP1 PUSH4 0x9393357C EQ PUSH2 0x197 JUMPI DUP1 PUSH4 0xDD88EA08 EQ PUSH2 0x1A0 JUMPI DUP1 PUSH4 0xF733F048 EQ PUSH2 0x1A9 JUMPI DUP1 PUSH4 0xFE96973A EQ PUSH2 0x1BC JUMPI PUSH1 0x0 DUP1 REVERT JUMPDEST DUP1 PUSH4 0x69A0382 EQ PUSH2 0xB9 JUMPI DUP1 PUSH4 0x2B843498 EQ PUSH2 0xD5 JUMPI DUP1 PUSH4 0x2BBA682A EQ PUSH2 0xDE JUMPI DUP1 PUSH4 0x5253BAAE EQ PUSH2 0x109 JUMPI DUP1 PUSH4 0x66E48D24 EQ PUSH2 0x12C JUMPI DUP1 PUSH4 0x81B7DACB EQ PUSH2 0x135 JUMPI JUMPDEST PUSH1 0x0 DUP1 REVERT JUMPDEST PUSH2 0xC2 PUSH1 0x3 SLOAD DUP2 JUMP JUMPDEST PUSH1 0x40 MLOAD SWAP1 DUP2 MSTORE PUSH1 0x20 ADD JUMPDEST PUSH1 0x40 MLOAD DUP1 SWAP2 SUB SWAP1 RETURN JUMPDEST PUSH2 0xC2 PUSH1 0x2 SLOAD DUP2 JUMP JUMPDEST PUSH1 0x0 SLOAD PUSH2 0xF1 SWAP1 PUSH1 0x1 PUSH1 0x1 PUSH1 0xA0 SHL SUB AND DUP2 JUMP JUMPDEST PUSH1 0x40 MLOAD PUSH1 0x1 PUSH1 0x1 PUSH1 0xA0 SHL SUB SWAP1 SWAP2 AND DUP2 MSTORE PUSH1 0x20 ADD PUSH2 0xCC JUMP JUMPDEST PUSH2 0x11C PUSH2 0x117 CALLDATASIZE PUSH1 0x4 PUSH2 0x772 JUMP JUMPDEST PUSH2 0x1CF JUMP JUMPDEST PUSH1 0x40 MLOAD SWAP1 ISZERO ISZERO DUP2 MSTORE PUSH1 0x20 ADD PUSH2 0xCC JUMP JUMPDEST PUSH2 0xC2 PUSH1 0x4 SLOAD DUP2 JUMP JUMPDEST PUSH1 0x1 SLOAD PUSH2 0xF1 SWAP1 PUSH1 0x1 PUSH1 0x1 PUSH1 0xA0 SHL SUB AND DUP2 JUMP JUMPDEST PUSH2 0x16F PUSH2 0x156 CALLDATASIZE PUSH1 0x4 PUSH2 0x7AE JUMP JUMPDEST PUSH1 0x8 PUSH1 0x20 MSTORE PUSH1 0x0 SWAP1 DUP2 MSTORE PUSH1 0x40 SWAP1 KECCAK256 DUP1 SLOAD PUSH1 0x1 SWAP1 SWAP2 ADD SLOAD DUP3 JUMP JUMPDEST PUSH1 0x40 DUP1 MLOAD SWAP3 DUP4 MSTORE PUSH1 0x20 DUP4 ADD SWAP2 SWAP1 SWAP2 MSTORE ADD PUSH2 0xCC JUMP JUMPDEST PUSH1 0x5 SLOAD PUSH2 0xF1 SWAP1 PUSH1 0x1 PUSH1 0x1 PUSH1 0xA0 SHL SUB AND DUP2 JUMP JUMPDEST PUSH2 0xC2 PUSH1 0x6 SLOAD DUP2 JUMP JUMPDEST PUSH2 0xC2 PUSH1 0x7 SLOAD DUP2 JUMP JUMPDEST PUSH2 0x11C PUSH2 0x1B7 CALLDATASIZE PUSH1 0x4 PUSH2 0x7D0 JUMP JUMPDEST PUSH2 0x4E1 JUMP JUMPDEST PUSH2 0x11C PUSH2 0x1CA CALLDATASIZE PUSH1 0x4 PUSH2 0x7D0 JUMP JUMPDEST PUSH2 0x61B JUMP JUMPDEST PUSH1 0x0 DUP1 SLOAD PUSH1 0x1 PUSH1 0x1 PUSH1 0xA0 SHL SUB SWAP1 DUP2 AND SWAP1 DUP6 AND SUB PUSH2 0x356 JUMPI PUSH1 0x0 SLOAD PUSH1 0x40 MLOAD PUSH4 0x23B872DD PUSH1 0xE0 SHL DUP2 MSTORE CALLER PUSH1 0x4 DUP3 ADD MSTORE ADDRESS PUSH1 0x24 DUP3 ADD MSTORE PUSH1 0x44 DUP2 ADD DUP5 SWAP1 MSTORE PUSH1 0x1 PUSH1 0x1 PUSH1 0xA0 SHL SUB SWAP1 SWAP2 AND SWAP1 PUSH4 0x23B872DD SWAP1 PUSH1 0x64 ADD PUSH1 0x20 PUSH1 0x40 MLOAD DUP1 DUP4 SUB DUP2 PUSH1 0x0 DUP8 GAS CALL ISZERO DUP1 ISZERO PUSH2 0x23D JUMPI RETURNDATASIZE PUSH1 0x0 DUP1 RETURNDATACOPY RETURNDATASIZE PUSH1 0x0 REVERT JUMPDEST POP POP POP POP PUSH1 0x40 MLOAD RETURNDATASIZE PUSH1 0x1F NOT PUSH1 0x1F DUP3 ADD AND DUP3 ADD DUP1 PUSH1 0x40 MSTORE POP DUP2 ADD SWAP1 PUSH2 0x261 SWAP2 SWAP1 PUSH2 0x7E9 JUMP JUMPDEST POP DUP2 PUSH1 0x2 PUSH1 0x0 DUP3 DUP3 SLOAD PUSH2 0x274 SWAP2 SWAP1 PUSH2 0x821 JUMP JUMPDEST SWAP1 SWAP2 SSTORE POP POP PUSH1 0x2 SLOAD PUSH1 0x3 SLOAD PUSH2 0x291 SWAP1 PUSH8 0xDE0B6B3A7640000 PUSH2 0x839 JUMP JUMPDEST PUSH2 0x29B SWAP2 SWAP1 PUSH2 0x858 JUMP JUMPDEST PUSH1 0x7 DUP2 SWAP1 SSTORE PUSH1 0x0 SWAP1 PUSH8 0xDE0B6B3A7640000 SWAP1 PUSH2 0x2B7 SWAP1 DUP6 PUSH2 0x839 JUMP JUMPDEST PUSH2 0x2C1 SWAP2 SWAP1 PUSH2 0x858 JUMP JUMPDEST PUSH1 0x1 SLOAD PUSH1 0x40 MLOAD PUSH4 0xA9059CBB PUSH1 0xE0 SHL DUP2 MSTORE CALLER PUSH1 0x4 DUP3 ADD MSTORE PUSH1 0x24 DUP2 ADD DUP4 SWAP1 MSTORE SWAP2 SWAP3 POP PUSH1 0x1 PUSH1 0x1 PUSH1 0xA0 SHL SUB AND SWAP1 PUSH4 0xA9059CBB SWAP1 PUSH1 0x44 ADD PUSH1 0x20 PUSH1 0x40 MLOAD DUP1 DUP4 SUB DUP2 PUSH1 0x0 DUP8 GAS CALL ISZERO DUP1 ISZERO PUSH2 0x313 JUMPI RETURNDATASIZE PUSH1 0x0 DUP1 RETURNDATACOPY RETURNDATASIZE PUSH1 0x0 REVERT JUMPDEST POP POP POP POP PUSH1 0x40 MLOAD RETURNDATASIZE PUSH1 0x1F NOT PUSH1 0x1F DUP3 ADD AND DUP3 ADD DUP1 PUSH1 0x40 MSTORE POP DUP2 ADD SWAP1 PUSH2 0x337 SWAP2 SWAP1 PUSH2 0x7E9 JUMP JUMPDEST POP DUP1 PUSH1 0x3 PUSH1 0x0 DUP3 DUP3 SLOAD PUSH2 0x34A SWAP2 SWAP1 PUSH2 0x87A JUMP JUMPDEST SWAP1 SWAP2 SSTORE POP PUSH2 0x4D7 SWAP2 POP POP JUMP JUMPDEST PUSH1 0x1 SLOAD PUSH1 0x1 PUSH1 0x1 PUSH1 0xA0 SHL SUB SWAP1 DUP2 AND SWAP1 DUP6 AND SUB PUSH2 0x4D7 JUMPI PUSH1 0x1 SLOAD PUSH1 0x40 MLOAD PUSH4 0x23B872DD PUSH1 0xE0 SHL DUP2 MSTORE CALLER PUSH1 0x4 DUP3 ADD MSTORE ADDRESS PUSH1 0x24 DUP3 ADD MSTORE PUSH1 0x44 DUP2 ADD DUP5 SWAP1 MSTORE PUSH1 0x1 PUSH1 0x1 PUSH1 0xA0 SHL SUB SWAP1 SWAP2 AND SWAP1 PUSH4 0x23B872DD SWAP1 PUSH1 0x64 ADD PUSH1 0x20 PUSH1 0x40 MLOAD DUP1 DUP4 SUB DUP2 PUSH1 0x0 DUP8 GAS CALL ISZERO DUP1 ISZERO PUSH2 0x3C3 JUMPI RETURNDATASIZE PUSH1 0x0 DUP1 RETURNDATACOPY RETURNDATASIZE PUSH1 0x0 REVERT JUMPDEST POP POP POP POP PUSH1 0x40 MLOAD RETURNDATASIZE PUSH1 0x1F NOT PUSH1 0x1F DUP3 ADD AND DUP3 ADD DUP1 PUSH1 0x40 MSTORE POP DUP2 ADD SWAP1 PUSH2 0x3E7 SWAP2 SWAP1 PUSH2 0x7E9 JUMP JUMPDEST POP DUP2 PUSH1 0x3 PUSH1 0x0 DUP3 DUP3 SLOAD PUSH2 0x3FA SWAP2 SWAP1 PUSH2 0x821 JUMP JUMPDEST SWAP1 SWAP2 SSTORE POP POP PUSH1 0x3 SLOAD PUSH1 0x2 SLOAD PUSH2 0x417 SWAP1 PUSH8 0xDE0B6B3A7640000 PUSH2 0x839 JUMP JUMPDEST PUSH2 0x421 SWAP2 SWAP1 PUSH2 0x858 JUMP JUMPDEST PUSH1 0x6 DUP2 SWAP1 SSTORE PUSH1 0x0 SWAP1 PUSH8 0xDE0B6B3A7640000 SWAP1 PUSH2 0x43D SWAP1 DUP6 PUSH2 0x839 JUMP JUMPDEST PUSH2 0x447 SWAP2 SWAP1 PUSH2 0x858 JUMP JUMPDEST PUSH1 0x0 SLOAD PUSH1 0x40 MLOAD PUSH4 0xA9059CBB PUSH1 0xE0 SHL DUP2 MSTORE CALLER PUSH1 0x4 DUP3 ADD MSTORE PUSH1 0x24 DUP2 ADD DUP4 SWAP1 MSTORE SWAP2 SWAP3 POP PUSH1 0x1 PUSH1 0x1 PUSH1 0xA0 SHL SUB AND SWAP1 PUSH4 0xA9059CBB SWAP1 PUSH1 0x44 ADD PUSH1 0x20 PUSH1 0x40 MLOAD DUP1 DUP4 SUB DUP2 PUSH1 0x0 DUP8 GAS CALL ISZERO DUP1 ISZERO PUSH2 0x499 JUMPI RETURNDATASIZE PUSH1 0x0 DUP1 RETURNDATACOPY RETURNDATASIZE PUSH1 0x0 REVERT JUMPDEST POP POP POP POP PUSH1 0x40 MLOAD RETURNDATASIZE PUSH1 0x1F NOT PUSH1 0x1F DUP3 ADD AND DUP3 ADD DUP1 PUSH1 0x40 MSTORE POP DUP2 ADD SWAP1 PUSH2 0x4BD SWAP2 SWAP1 PUSH2 0x7E9 JUMP JUMPDEST POP DUP1 PUSH1 0x2 PUSH1 0x0 DUP3 DUP3 SLOAD PUSH2 0x4D0 SWAP2 SWAP1 PUSH2 0x87A JUMP JUMPDEST SWAP1 SWAP2 SSTORE POP POP POP JUMPDEST POP PUSH1 0x1 SWAP4 SWAP3 POP POP POP JUMP JUMPDEST CALLER PUSH1 0x0 SWAP1 DUP2 MSTORE PUSH1 0x8 PUSH1 0x20 MSTORE PUSH1 0x40 DUP2 KECCAK256 SLOAD PUSH8 0x8AC7230489E80000 GT PUSH2 0x53B JUMPI PUSH1 0x40 MLOAD PUSH3 0x461BCD PUSH1 0xE5 SHL DUP2 MSTORE PUSH1 0x20 PUSH1 0x4 DUP3 ADD MSTORE PUSH1 0xC PUSH1 0x24 DUP3 ADD MSTORE PUSH12 0x18DB185A5B4818995E5BDB99 PUSH1 0xA2 SHL PUSH1 0x44 DUP3 ADD MSTORE PUSH1 0x64 ADD JUMPDEST PUSH1 0x40 MLOAD DUP1 SWAP2 SUB SWAP1 REVERT JUMPDEST PUSH1 0x0 SLOAD PUSH1 0x40 MLOAD PUSH4 0xA9059CBB PUSH1 0xE0 SHL DUP2 MSTORE CALLER PUSH1 0x4 DUP3 ADD MSTORE PUSH1 0x24 DUP2 ADD DUP5 SWAP1 MSTORE PUSH1 0x1 PUSH1 0x1 PUSH1 0xA0 SHL SUB SWAP1 SWAP2 AND SWAP1 PUSH4 0xA9059CBB SWAP1 PUSH1 0x44 ADD PUSH1 0x20 PUSH1 0x40 MLOAD DUP1 DUP4 SUB DUP2 PUSH1 0x0 DUP8 GAS CALL ISZERO DUP1 ISZERO PUSH2 0x58C JUMPI RETURNDATASIZE PUSH1 0x0 DUP1 RETURNDATACOPY RETURNDATASIZE PUSH1 0x0 REVERT JUMPDEST POP POP POP POP PUSH1 0x40 MLOAD RETURNDATASIZE PUSH1 0x1F NOT PUSH1 0x1F DUP3 ADD AND DUP3 ADD DUP1 PUSH1 0x40 MSTORE POP DUP2 ADD SWAP1 PUSH2 0x5B0 SWAP2 SWAP1 PUSH2 0x7E9 JUMP JUMPDEST POP CALLER PUSH1 0x0 SWAP1 DUP2 MSTORE PUSH1 0x8 PUSH1 0x20 MSTORE PUSH1 0x40 DUP2 KECCAK256 DUP1 SLOAD DUP5 SWAP3 SWAP1 PUSH2 0x5D0 SWAP1 DUP5 SWAP1 PUSH2 0x821 JUMP JUMPDEST SWAP3 POP POP DUP2 SWAP1 SSTORE POP DUP2 PUSH1 0x2 PUSH1 0x0 DUP3 DUP3 SLOAD PUSH2 0x5E9 SWAP2 SWAP1 PUSH2 0x821 JUMP JUMPDEST SWAP1 SWAP2 SSTORE POP POP PUSH1 0x2 SLOAD PUSH1 0x3 SLOAD PUSH2 0x606 SWAP1 PUSH8 0xDE0B6B3A7640000 PUSH2 0x839 JUMP JUMPDEST PUSH2 0x610 SWAP2 SWAP1 PUSH2 0x858 JUMP JUMPDEST PUSH1 0x7 SSTORE POP PUSH1 0x1 SWAP2 SWAP1 POP JUMP JUMPDEST CALLER PUSH1 0x0 SWAP1 DUP2 MSTORE PUSH1 0x8 PUSH1 0x20 MSTORE PUSH1 0x40 DUP2 KECCAK256 PUSH1 0x1 ADD SLOAD PUSH8 0x8AC7230489E80000 GT PUSH2 0x673 JUMPI PUSH1 0x40 MLOAD PUSH3 0x461BCD PUSH1 0xE5 SHL DUP2 MSTORE PUSH1 0x20 PUSH1 0x4 DUP3 ADD MSTORE PUSH1 0xC PUSH1 0x24 DUP3 ADD MSTORE PUSH12 0x18DB185A5B4818995E5BDB99 PUSH1 0xA2 SHL PUSH1 0x44 DUP3 ADD MSTORE PUSH1 0x64 ADD PUSH2 0x532 JUMP JUMPDEST PUSH1 0x1 SLOAD PUSH1 0x40 MLOAD PUSH4 0xA9059CBB PUSH1 0xE0 SHL DUP2 MSTORE CALLER PUSH1 0x4 DUP3 ADD MSTORE PUSH1 0x24 DUP2 ADD DUP5 SWAP1 MSTORE PUSH1 0x1 PUSH1 0x1 PUSH1 0xA0 SHL SUB SWAP1 SWAP2 AND SWAP1 PUSH4 0xA9059CBB SWAP1 PUSH1 0x44 ADD PUSH1 0x20 PUSH1 0x40 MLOAD DUP1 DUP4 SUB DUP2 PUSH1 0x0 DUP8 GAS CALL ISZERO DUP1 ISZERO PUSH2 0x6C4 JUMPI RETURNDATASIZE PUSH1 0x0 DUP1 RETURNDATACOPY RETURNDATASIZE PUSH1 0x0 REVERT JUMPDEST POP POP POP POP PUSH1 0x40 MLOAD RETURNDATASIZE PUSH1 0x1F NOT PUSH1 0x1F DUP3 ADD AND DUP3 ADD DUP1 PUSH1 0x40 MSTORE POP DUP2 ADD SWAP1 PUSH2 0x6E8 SWAP2 SWAP1 PUSH2 0x7E9 JUMP JUMPDEST POP CALLER PUSH1 0x0 SWAP1 DUP2 MSTORE PUSH1 0x8 PUSH1 0x20 MSTORE PUSH1 0x40 DUP2 KECCAK256 PUSH1 0x1 ADD DUP1 SLOAD DUP5 SWAP3 SWAP1 PUSH2 0x70B SWAP1 DUP5 SWAP1 PUSH2 0x821 JUMP JUMPDEST SWAP3 POP POP DUP2 SWAP1 SSTORE POP DUP2 PUSH1 0x3 PUSH1 0x0 DUP3 DUP3 SLOAD PUSH2 0x724 SWAP2 SWAP1 PUSH2 0x821 JUMP JUMPDEST SWAP1 SWAP2 SSTORE POP POP PUSH1 0x3 SLOAD PUSH1 0x2 SLOAD PUSH2 0x741 SWAP1 PUSH8 0xDE0B6B3A7640000 PUSH2 0x839 JUMP JUMPDEST PUSH2 0x74B SWAP2 SWAP1 PUSH2 0x858 JUMP JUMPDEST PUSH1 0x6 SSTORE POP PUSH1 0x1 SWAP2 SWAP1 POP JUMP JUMPDEST DUP1 CALLDATALOAD PUSH1 0x1 PUSH1 0x1 PUSH1 0xA0 SHL SUB DUP2 AND DUP2 EQ PUSH2 0x76D JUMPI PUSH1 0x0 DUP1 REVERT JUMPDEST SWAP2 SWAP1 POP JUMP JUMPDEST PUSH1 0x0 DUP1 PUSH1 0x0 PUSH1 0x60 DUP5 DUP7 SUB SLT ISZERO PUSH2 0x787 JUMPI PUSH1 0x0 DUP1 REVERT JUMPDEST PUSH2 0x790 DUP5 PUSH2 0x756 JUMP JUMPDEST SWAP3 POP PUSH2 0x79E PUSH1 0x20 DUP6 ADD PUSH2 0x756 JUMP JUMPDEST SWAP2 POP PUSH1 0x40 DUP5 ADD CALLDATALOAD SWAP1 POP SWAP3 POP SWAP3 POP SWAP3 JUMP JUMPDEST PUSH1 0x0 PUSH1 0x20 DUP3 DUP5 SUB SLT ISZERO PUSH2 0x7C0 JUMPI PUSH1 0x0 DUP1 REVERT JUMPDEST PUSH2 0x7C9 DUP3 PUSH2 0x756 JUMP JUMPDEST SWAP4 SWAP3 POP POP POP JUMP JUMPDEST PUSH1 0x0 PUSH1 0x20 DUP3 DUP5 SUB SLT ISZERO PUSH2 0x7E2 JUMPI PUSH1 0x0 DUP1 REVERT JUMPDEST POP CALLDATALOAD SWAP2 SWAP1 POP JUMP JUMPDEST PUSH1 0x0 PUSH1 0x20 DUP3 DUP5 SUB SLT ISZERO PUSH2 0x7FB JUMPI PUSH1 0x0 DUP1 REVERT JUMPDEST DUP2 MLOAD DUP1 ISZERO ISZERO DUP2 EQ PUSH2 0x7C9 JUMPI PUSH1 0x0 DUP1 REVERT JUMPDEST PUSH4 0x4E487B71 PUSH1 0xE0 SHL PUSH1 0x0 MSTORE PUSH1 0x11 PUSH1 0x4 MSTORE PUSH1 0x24 PUSH1 0x0 REVERT JUMPDEST PUSH1 0x0 DUP3 NOT DUP3 GT ISZERO PUSH2 0x834 JUMPI PUSH2 0x834 PUSH2 0x80B JUMP JUMPDEST POP ADD SWAP1 JUMP JUMPDEST PUSH1 0x0 DUP2 PUSH1 0x0 NOT DIV DUP4 GT DUP3 ISZERO ISZERO AND ISZERO PUSH2 0x853 JUMPI PUSH2 0x853 PUSH2 0x80B JUMP JUMPDEST POP MUL SWAP1 JUMP JUMPDEST PUSH1 0x0 DUP3 PUSH2 0x875 JUMPI PUSH4 0x4E487B71 PUSH1 0xE0 SHL PUSH1 0x0 MSTORE PUSH1 0x12 PUSH1 0x4 MSTORE PUSH1 0x24 PUSH1 0x0 REVERT JUMPDEST POP DIV SWAP1 JUMP JUMPDEST PUSH1 0x0 DUP3 DUP3 LT ISZERO PUSH2 0x88C JUMPI PUSH2 0x88C PUSH2 0x80B JUMP JUMPDEST POP SUB SWAP1 JUMP INVALID LOG2 PUSH5 0x6970667358 0x22 SLT KECCAK256 0xD2 0xFB 0xDE 0xBB ORIGIN 0x27 0xD9 CALLDATACOPY DUP7 0xD8 0xB8 0xAD 0xAE 0xF SIGNEXTEND 0xCB MSIZE 0x2B LOG3 0xB7 PUSH25 0xB03CF14643033D55D9958E64736F6C634300080F0033000000 "
				},
				"gasEstimates": {
					"creation": {
						"codeDepositCost": "449400",
						"executionCost": "infinite",
						"totalCost": "infinite"
					},
					"external": {
						"BTCtoken()": "2382",
						"ETHtoken()": "2448",
						"MaxTokenLimit()": "2373",
						"ReceivedBTCTokenNumber()": "2307",
						"ReceivedETHTokenNumber()": "2285",
						"User_Map(address)": "4658",
						"claimBTC(uint256)": "infinite",
						"claimETH(uint256)": "infinite",
						"owner()": "2359",
						"trade(address,address,uint256)": "infinite",
						"tradeBTCproportion()": "2350",
						"tradeETHproportion()": "2328"
					}
				},
				"methodIdentifiers": {
					"BTCtoken()": "2bba682a",
					"ETHtoken()": "81b7dacb",
					"MaxTokenLimit()": "66e48d24",
					"ReceivedBTCTokenNumber()": "2b843498",
					"ReceivedETHTokenNumber()": "069a0382",
					"User_Map(address)": "8c93ecff",
					"claimBTC(uint256)": "f733f048",
					"claimETH(uint256)": "fe96973a",
					"owner()": "8da5cb5b",
					"trade(address,address,uint256)": "5253baae",
					"tradeBTCproportion()": "dd88ea08",
					"tradeETHproportion()": "9393357c"
				}
			},
			"storageLayout": {
				"storage": [
					{
						"astId": 24,
						"contract": "写个amm合约.sol:Stopcock",
						"label": "BTCtoken",
						"offset": 0,
						"slot": "0",
						"type": "t_address"
					},
					{
						"astId": 26,
						"contract": "写个amm合约.sol:Stopcock",
						"label": "ETHtoken",
						"offset": 0,
						"slot": "1",
						"type": "t_address"
					},
					{
						"astId": 28,
						"contract": "写个amm合约.sol:Stopcock",
						"label": "ReceivedBTCTokenNumber",
						"offset": 0,
						"slot": "2",
						"type": "t_uint256"
					},
					{
						"astId": 30,
						"contract": "写个amm合约.sol:Stopcock",
						"label": "ReceivedETHTokenNumber",
						"offset": 0,
						"slot": "3",
						"type": "t_uint256"
					},
					{
						"astId": 32,
						"contract": "写个amm合约.sol:Stopcock",
						"label": "MaxTokenLimit",
						"offset": 0,
						"slot": "4",
						"type": "t_uint256"
					},
					{
						"astId": 34,
						"contract": "写个amm合约.sol:Stopcock",
						"label": "owner",
						"offset": 0,
						"slot": "5",
						"type": "t_address"
					},
					{
						"astId": 36,
						"contract": "写个amm合约.sol:Stopcock",
						"label": "tradeETHproportion",
						"offset": 0,
						"slot": "6",
						"type": "t_uint256"
					},
					{
						"astId": 38,
						"contract": "写个amm合约.sol:Stopcock",
						"label": "tradeBTCproportion",
						"offset": 0,
						"slot": "7",
						"type": "t_uint256"
					},
					{
						"astId": 48,
						"contract": "写个amm合约.sol:Stopcock",
						"label": "User_Map",
						"offset": 0,
						"slot": "8",
						"type": "t_mapping(t_address,t_struct(User)43_storage)"
					}
				],
				"types": {
					"t_address": {
						"encoding": "inplace",
						"label": "address",
						"numberOfBytes": "20"
					},
					"t_mapping(t_address,t_struct(User)43_storage)": {
						"encoding": "mapping",
						"key": "t_address",
						"label": "mapping(address => struct Stopcock.User)",
						"numberOfBytes": "32",
						"value": "t_struct(User)43_storage"
					},
					"t_struct(User)43_storage": {
						"encoding": "inplace",
						"label": "struct Stopcock.User",
						"members": [
							{
								"astId": 40,
								"contract": "写个amm合约.sol:Stopcock",
								"label": "claimBTCNumber",
								"offset": 0,
								"slot": "0",
								"type": "t_uint256"
							},
							{
								"astId": 42,
								"contract": "写个amm合约.sol:Stopcock",
								"label": "claimETHNumber",
								"offset": 0,
								"slot": "1",
								"type": "t_uint256"
							}
						],
						"numberOfBytes": "64"
					},
					"t_uint256": {
						"encoding": "inplace",
						"label": "uint256",
						"numberOfBytes": "32"
					}
				}
			},
			"userdoc": {
				"kind": "user",
				"methods": {},
				"version": 1
			}
		}
	}
}