{
	"定息矿池-进阶.sol": {
		"StakeContract": {
			"abi": [
				{
					"inputs": [
						{
							"internalType": "address",
							"name": "_staketoken",
							"type": "address"
						}
					],
					"stateMutability": "nonpayable",
					"type": "constructor"
				},
				{
					"anonymous": false,
					"inputs": [
						{
							"indexed": true,
							"internalType": "address",
							"name": "owner",
							"type": "address"
						},
						{
							"indexed": true,
							"internalType": "address",
							"name": "spender",
							"type": "address"
						},
						{
							"indexed": false,
							"internalType": "uint256",
							"name": "amout",
							"type": "uint256"
						}
					],
					"name": "Approveal",
					"type": "event"
				},
				{
					"anonymous": false,
					"inputs": [
						{
							"indexed": true,
							"internalType": "address",
							"name": "from",
							"type": "address"
						},
						{
							"indexed": true,
							"internalType": "address",
							"name": "to",
							"type": "address"
						},
						{
							"indexed": false,
							"internalType": "uint256",
							"name": "amout",
							"type": "uint256"
						}
					],
					"name": "Trasfer",
					"type": "event"
				},
				{
					"anonymous": false,
					"inputs": [
						{
							"indexed": true,
							"internalType": "address",
							"name": "to",
							"type": "address"
						},
						{
							"indexed": false,
							"internalType": "uint256",
							"name": "amout",
							"type": "uint256"
						}
					],
					"name": "transfer",
					"type": "event"
				},
				{
					"inputs": [
						{
							"internalType": "address",
							"name": "",
							"type": "address"
						}
					],
					"name": "User_Map",
					"outputs": [
						{
							"internalType": "uint256",
							"name": "stakeNumber",
							"type": "uint256"
						},
						{
							"internalType": "uint256",
							"name": "last_Stake_Time",
							"type": "uint256"
						},
						{
							"internalType": "uint256",
							"name": "last_totoken_ratio",
							"type": "uint256"
						},
						{
							"internalType": "uint256",
							"name": "whole_ratio",
							"type": "uint256"
						},
						{
							"internalType": "uint256",
							"name": "last_totoken_Time",
							"type": "uint256"
						}
					],
					"stateMutability": "view",
					"type": "function"
				},
				{
					"inputs": [
						{
							"internalType": "uint256",
							"name": "_amount",
							"type": "uint256"
						}
					],
					"name": "deposit",
					"outputs": [
						{
							"internalType": "bool",
							"name": "",
							"type": "bool"
						}
					],
					"stateMutability": "nonpayable",
					"type": "function"
				},
				{
					"inputs": [],
					"name": "harvestwithDraw",
					"outputs": [
						{
							"internalType": "bool",
							"name": "",
							"type": "bool"
						}
					],
					"stateMutability": "nonpayable",
					"type": "function"
				},
				{
					"inputs": [],
					"name": "owner",
					"outputs": [
						{
							"internalType": "address",
							"name": "",
							"type": "address"
						}
					],
					"stateMutability": "view",
					"type": "function"
				},
				{
					"inputs": [],
					"name": "ratio",
					"outputs": [
						{
							"internalType": "uint256",
							"name": "",
							"type": "uint256"
						}
					],
					"stateMutability": "view",
					"type": "function"
				},
				{
					"inputs": [],
					"name": "rewardtoken",
					"outputs": [
						{
							"internalType": "address",
							"name": "",
							"type": "address"
						}
					],
					"stateMutability": "view",
					"type": "function"
				},
				{
					"inputs": [
						{
							"internalType": "uint256",
							"name": "_ratio",
							"type": "uint256"
						}
					],
					"name": "setratio",
					"outputs": [],
					"stateMutability": "nonpayable",
					"type": "function"
				},
				{
					"inputs": [],
					"name": "staketoken",
					"outputs": [
						{
							"internalType": "address",
							"name": "",
							"type": "address"
						}
					],
					"stateMutability": "view",
					"type": "function"
				},
				{
					"inputs": [],
					"name": "staketotal",
					"outputs": [
						{
							"internalType": "uint256",
							"name": "",
							"type": "uint256"
						}
					],
					"stateMutability": "view",
					"type": "function"
				}
			],
			"devdoc": {
				"kind": "dev",
				"methods": {},
				"version": 1
			},
			"evm": {
				"assembly": "    /* \"\\xe5\\xae\\x9a\\xe6\\x81\\xaf\\xe7\\x9f\\xbf\\xe6\\xb1\\xa0-\\xe8\\xbf\\x9b\\xe9\\x98\\xb6.sol\":169:3866  contract StakeContract {... */\n  mstore(0x40, 0x80)\n    /* \"\\xe5\\xae\\x9a\\xe6\\x81\\xaf\\xe7\\x9f\\xbf\\xe6\\xb1\\xa0-\\xe8\\xbf\\x9b\\xe9\\x98\\xb6.sol\":1123:1329  constructor (address _staketoken) {... */\n  callvalue\n  dup1\n  iszero\n  tag_1\n  jumpi\n  0x00\n  dup1\n  revert\ntag_1:\n  pop\n  mload(0x40)\n  sub(codesize, bytecodeSize)\n  dup1\n  bytecodeSize\n  dup4\n  codecopy\n  dup2\n  add\n  0x40\n  dup2\n  swap1\n  mstore\n  tag_2\n  swap2\n  tag_3\n  jump\t// in\ntag_2:\n    /* \"\\xe5\\xae\\x9a\\xe6\\x81\\xaf\\xe7\\x9f\\xbf\\xe6\\xb1\\xa0-\\xe8\\xbf\\x9b\\xe9\\x98\\xb6.sol\":1168:1173  owner */\n  0x04\n    /* \"\\xe5\\xae\\x9a\\xe6\\x81\\xaf\\xe7\\x9f\\xbf\\xe6\\xb1\\xa0-\\xe8\\xbf\\x9b\\xe9\\x98\\xb6.sol\":1168:1186  owner = msg.sender */\n  dup1\n  sload\n  not(sub(shl(0xa0, 0x01), 0x01))\n  and\n    /* \"\\xe5\\xae\\x9a\\xe6\\x81\\xaf\\xe7\\x9f\\xbf\\xe6\\xb1\\xa0-\\xe8\\xbf\\x9b\\xe9\\x98\\xb6.sol\":1176:1186  msg.sender */\n  caller\n    /* \"\\xe5\\xae\\x9a\\xe6\\x81\\xaf\\xe7\\x9f\\xbf\\xe6\\xb1\\xa0-\\xe8\\xbf\\x9b\\xe9\\x98\\xb6.sol\":1168:1186  owner = msg.sender */\n  or\n  swap1\n  sstore\n  sub(shl(0xa0, 0x01), 0x01)\n    /* \"\\xe5\\xae\\x9a\\xe6\\x81\\xaf\\xe7\\x9f\\xbf\\xe6\\xb1\\xa0-\\xe8\\xbf\\x9b\\xe9\\x98\\xb6.sol\":1205:1230  _staketoken != address(0) */\n  dup2\n  and\n    /* \"\\xe5\\xae\\x9a\\xe6\\x81\\xaf\\xe7\\x9f\\xbf\\xe6\\xb1\\xa0-\\xe8\\xbf\\x9b\\xe9\\x98\\xb6.sol\":1197:1250  require(_staketoken != address(0),\"NOT,S 0X ADDRESS\") */\n  tag_6\n  jumpi\n  mload(0x40)\n  shl(0xe5, 0x461bcd)\n  dup2\n  mstore\n    /* \"#utility.yul\":511:513   */\n  0x20\n    /* \"\\xe5\\xae\\x9a\\xe6\\x81\\xaf\\xe7\\x9f\\xbf\\xe6\\xb1\\xa0-\\xe8\\xbf\\x9b\\xe9\\x98\\xb6.sol\":1197:1250  require(_staketoken != address(0),\"NOT,S 0X ADDRESS\") */\n  0x04\n  dup3\n  add\n    /* \"#utility.yul\":493:514   */\n  mstore\n    /* \"#utility.yul\":550:552   */\n  0x10\n    /* \"#utility.yul\":530:548   */\n  0x24\n  dup3\n  add\n    /* \"#utility.yul\":523:553   */\n  mstore\n  shl(0x80, 0x4e4f542c532030582041444452455353)\n    /* \"#utility.yul\":569:587   */\n  0x44\n  dup3\n  add\n    /* \"#utility.yul\":562:608   */\n  mstore\n    /* \"#utility.yul\":625:643   */\n  0x64\n  add\n    /* \"\\xe5\\xae\\x9a\\xe6\\x81\\xaf\\xe7\\x9f\\xbf\\xe6\\xb1\\xa0-\\xe8\\xbf\\x9b\\xe9\\x98\\xb6.sol\":1197:1250  require(_staketoken != address(0),\"NOT,S 0X ADDRESS\") */\n  mload(0x40)\n  dup1\n  swap2\n  sub\n  swap1\n  revert\ntag_6:\n    /* \"\\xe5\\xae\\x9a\\xe6\\x81\\xaf\\xe7\\x9f\\xbf\\xe6\\xb1\\xa0-\\xe8\\xbf\\x9b\\xe9\\x98\\xb6.sol\":1261:1271  staketoken */\n  0x01\n    /* \"\\xe5\\xae\\x9a\\xe6\\x81\\xaf\\xe7\\x9f\\xbf\\xe6\\xb1\\xa0-\\xe8\\xbf\\x9b\\xe9\\x98\\xb6.sol\":1261:1285  staketoken = _staketoken */\n  dup1\n  sload\n  sub(shl(0xa0, 0x01), 0x01)\n  swap1\n  swap3\n  and\n  not(sub(shl(0xa0, 0x01), 0x01))\n  swap3\n  dup4\n  and\n  dup2\n  or\n  swap1\n  swap2\n  sstore\n    /* \"\\xe5\\xae\\x9a\\xe6\\x81\\xaf\\xe7\\x9f\\xbf\\xe6\\xb1\\xa0-\\xe8\\xbf\\x9b\\xe9\\x98\\xb6.sol\":1296:1307  rewardtoken */\n  0x02\n    /* \"\\xe5\\xae\\x9a\\xe6\\x81\\xaf\\xe7\\x9f\\xbf\\xe6\\xb1\\xa0-\\xe8\\xbf\\x9b\\xe9\\x98\\xb6.sol\":1296:1321  rewardtoken = _staketoken */\n  dup1\n  sload\n  swap1\n  swap3\n  and\n  or\n  swap1\n  sstore\n    /* \"\\xe5\\xae\\x9a\\xe6\\x81\\xaf\\xe7\\x9f\\xbf\\xe6\\xb1\\xa0-\\xe8\\xbf\\x9b\\xe9\\x98\\xb6.sol\":169:3866  contract StakeContract {... */\n  jump(tag_10)\n    /* \"#utility.yul\":14:304   */\ntag_3:\n    /* \"#utility.yul\":84:90   */\n  0x00\n    /* \"#utility.yul\":137:139   */\n  0x20\n    /* \"#utility.yul\":125:134   */\n  dup3\n    /* \"#utility.yul\":116:123   */\n  dup5\n    /* \"#utility.yul\":112:135   */\n  sub\n    /* \"#utility.yul\":108:140   */\n  slt\n    /* \"#utility.yul\":105:157   */\n  iszero\n  tag_12\n  jumpi\n    /* \"#utility.yul\":153:154   */\n  0x00\n    /* \"#utility.yul\":150:151   */\n  dup1\n    /* \"#utility.yul\":143:155   */\n  revert\n    /* \"#utility.yul\":105:157   */\ntag_12:\n    /* \"#utility.yul\":179:195   */\n  dup2\n  mload\n  sub(shl(0xa0, 0x01), 0x01)\n    /* \"#utility.yul\":224:255   */\n  dup2\n  and\n    /* \"#utility.yul\":214:256   */\n  dup2\n  eq\n    /* \"#utility.yul\":204:274   */\n  tag_13\n  jumpi\n    /* \"#utility.yul\":270:271   */\n  0x00\n    /* \"#utility.yul\":267:268   */\n  dup1\n    /* \"#utility.yul\":260:272   */\n  revert\n    /* \"#utility.yul\":204:274   */\ntag_13:\n    /* \"#utility.yul\":293:298   */\n  swap4\n    /* \"#utility.yul\":14:304   */\n  swap3\n  pop\n  pop\n  pop\n  jump\t// out\n    /* \"#utility.yul\":309:649   */\ntag_10:\n    /* \"\\xe5\\xae\\x9a\\xe6\\x81\\xaf\\xe7\\x9f\\xbf\\xe6\\xb1\\xa0-\\xe8\\xbf\\x9b\\xe9\\x98\\xb6.sol\":169:3866  contract StakeContract {... */\n  dataSize(sub_0)\n  dup1\n  dataOffset(sub_0)\n  0x00\n  codecopy\n  0x00\n  return\nstop\n\nsub_0: assembly {\n        /* \"\\xe5\\xae\\x9a\\xe6\\x81\\xaf\\xe7\\x9f\\xbf\\xe6\\xb1\\xa0-\\xe8\\xbf\\x9b\\xe9\\x98\\xb6.sol\":169:3866  contract StakeContract {... */\n      mstore(0x40, 0x80)\n      callvalue\n      dup1\n      iszero\n      tag_1\n      jumpi\n      0x00\n      dup1\n      revert\n    tag_1:\n      pop\n      jumpi(tag_2, lt(calldatasize, 0x04))\n      shr(0xe0, calldataload(0x00))\n      dup1\n      0x8da5cb5b\n      gt\n      tag_12\n      jumpi\n      dup1\n      0x8da5cb5b\n      eq\n      tag_7\n      jumpi\n      dup1\n      0xb6b55f25\n      eq\n      tag_8\n      jumpi\n      dup1\n      0xdab2997b\n      eq\n      tag_9\n      jumpi\n      dup1\n      0xe8221917\n      eq\n      tag_10\n      jumpi\n      dup1\n      0xfb5bca7a\n      eq\n      tag_11\n      jumpi\n      0x00\n      dup1\n      revert\n    tag_12:\n      dup1\n      0x1afaa6e8\n      eq\n      tag_3\n      jumpi\n      dup1\n      0x6dff132e\n      eq\n      tag_4\n      jumpi\n      dup1\n      0x71ca337d\n      eq\n      tag_5\n      jumpi\n      dup1\n      0x8c93ecff\n      eq\n      tag_6\n      jumpi\n    tag_2:\n      0x00\n      dup1\n      revert\n        /* \"\\xe5\\xae\\x9a\\xe6\\x81\\xaf\\xe7\\x9f\\xbf\\xe6\\xb1\\xa0-\\xe8\\xbf\\x9b\\xe9\\x98\\xb6.sol\":1364:1437  function setratio(uint _ratio) external {... */\n    tag_3:\n      tag_13\n      tag_14\n      calldatasize\n      0x04\n      tag_15\n      jump\t// in\n    tag_14:\n        /* \"\\xe5\\xae\\x9a\\xe6\\x81\\xaf\\xe7\\x9f\\xbf\\xe6\\xb1\\xa0-\\xe8\\xbf\\x9b\\xe9\\x98\\xb6.sol\":1415:1420  ratio */\n      0x00\n        /* \"\\xe5\\xae\\x9a\\xe6\\x81\\xaf\\xe7\\x9f\\xbf\\xe6\\xb1\\xa0-\\xe8\\xbf\\x9b\\xe9\\x98\\xb6.sol\":1415:1429  ratio = _ratio */\n      sstore\n        /* \"\\xe5\\xae\\x9a\\xe6\\x81\\xaf\\xe7\\x9f\\xbf\\xe6\\xb1\\xa0-\\xe8\\xbf\\x9b\\xe9\\x98\\xb6.sol\":1364:1437  function setratio(uint _ratio) external {... */\n      jump\n    tag_13:\n      stop\n        /* \"\\xe5\\xae\\x9a\\xe6\\x81\\xaf\\xe7\\x9f\\xbf\\xe6\\xb1\\xa0-\\xe8\\xbf\\x9b\\xe9\\x98\\xb6.sol\":378:404  address public rewardtoken */\n    tag_4:\n      sload(0x02)\n      tag_17\n      swap1\n      sub(shl(0xa0, 0x01), 0x01)\n      and\n      dup2\n      jump\n    tag_17:\n      mload(0x40)\n      sub(shl(0xa0, 0x01), 0x01)\n        /* \"#utility.yul\":363:395   */\n      swap1\n      swap2\n      and\n        /* \"#utility.yul\":345:396   */\n      dup2\n      mstore\n        /* \"#utility.yul\":333:335   */\n      0x20\n        /* \"#utility.yul\":318:336   */\n      add\n        /* \"\\xe5\\xae\\x9a\\xe6\\x81\\xaf\\xe7\\x9f\\xbf\\xe6\\xb1\\xa0-\\xe8\\xbf\\x9b\\xe9\\x98\\xb6.sol\":378:404  address public rewardtoken */\n    tag_19:\n      mload(0x40)\n      dup1\n      swap2\n      sub\n      swap1\n      return\n        /* \"\\xe5\\xae\\x9a\\xe6\\x81\\xaf\\xe7\\x9f\\xbf\\xe6\\xb1\\xa0-\\xe8\\xbf\\x9b\\xe9\\x98\\xb6.sol\":279:296  uint public ratio */\n    tag_5:\n      tag_21\n      sload(0x00)\n      dup2\n      jump\n    tag_21:\n      mload(0x40)\n        /* \"#utility.yul\":553:578   */\n      swap1\n      dup2\n      mstore\n        /* \"#utility.yul\":541:543   */\n      0x20\n        /* \"#utility.yul\":526:544   */\n      add\n        /* \"\\xe5\\xae\\x9a\\xe6\\x81\\xaf\\xe7\\x9f\\xbf\\xe6\\xb1\\xa0-\\xe8\\xbf\\x9b\\xe9\\x98\\xb6.sol\":279:296  uint public ratio */\n      tag_19\n        /* \"#utility.yul\":407:584   */\n      jump\n        /* \"\\xe5\\xae\\x9a\\xe6\\x81\\xaf\\xe7\\x9f\\xbf\\xe6\\xb1\\xa0-\\xe8\\xbf\\x9b\\xe9\\x98\\xb6.sol\":1074:1114  mapping(address => User) public User_Map */\n    tag_6:\n      tag_25\n      tag_26\n      calldatasize\n      0x04\n      tag_27\n      jump\t// in\n    tag_26:\n      mstore(0x20, 0x05)\n      0x00\n      swap1\n      dup2\n      mstore\n      0x40\n      swap1\n      keccak256\n      dup1\n      sload\n      0x01\n      dup3\n      add\n      sload\n      0x02\n      dup4\n      add\n      sload\n      0x03\n      dup5\n      add\n      sload\n      0x04\n      swap1\n      swap5\n      add\n      sload\n      swap3\n      swap4\n      swap2\n      swap3\n      swap1\n      swap2\n      swap1\n      dup6\n      jump\n    tag_25:\n      0x40\n      dup1\n      mload\n        /* \"#utility.yul\":1139:1164   */\n      swap6\n      dup7\n      mstore\n        /* \"#utility.yul\":1195:1197   */\n      0x20\n        /* \"#utility.yul\":1180:1198   */\n      dup7\n      add\n        /* \"#utility.yul\":1173:1207   */\n      swap5\n      swap1\n      swap5\n      mstore\n        /* \"#utility.yul\":1223:1241   */\n      swap3\n      dup5\n      add\n        /* \"#utility.yul\":1216:1250   */\n      swap2\n      swap1\n      swap2\n      mstore\n        /* \"#utility.yul\":1281:1283   */\n      0x60\n        /* \"#utility.yul\":1266:1284   */\n      dup4\n      add\n        /* \"#utility.yul\":1259:1293   */\n      mstore\n        /* \"#utility.yul\":1324:1327   */\n      0x80\n        /* \"#utility.yul\":1309:1328   */\n      dup3\n      add\n        /* \"#utility.yul\":1302:1337   */\n      mstore\n        /* \"#utility.yul\":1126:1129   */\n      0xa0\n        /* \"#utility.yul\":1111:1130   */\n      add\n        /* \"\\xe5\\xae\\x9a\\xe6\\x81\\xaf\\xe7\\x9f\\xbf\\xe6\\xb1\\xa0-\\xe8\\xbf\\x9b\\xe9\\x98\\xb6.sol\":1074:1114  mapping(address => User) public User_Map */\n      tag_19\n        /* \"#utility.yul\":880:1343   */\n      jump\n        /* \"\\xe5\\xae\\x9a\\xe6\\x81\\xaf\\xe7\\x9f\\xbf\\xe6\\xb1\\xa0-\\xe8\\xbf\\x9b\\xe9\\x98\\xb6.sol\":461:481  address public owner */\n    tag_7:\n      sload(0x04)\n      tag_17\n      swap1\n      sub(shl(0xa0, 0x01), 0x01)\n      and\n      dup2\n      jump\n        /* \"\\xe5\\xae\\x9a\\xe6\\x81\\xaf\\xe7\\x9f\\xbf\\xe6\\xb1\\xa0-\\xe8\\xbf\\x9b\\xe9\\x98\\xb6.sol\":1466:2701  function deposit(uint _amount) public returns (bool) {... */\n    tag_8:\n      tag_34\n      tag_35\n      calldatasize\n      0x04\n      tag_15\n      jump\t// in\n    tag_35:\n      tag_36\n      jump\t// in\n    tag_34:\n      mload(0x40)\n        /* \"#utility.yul\":1513:1527   */\n      swap1\n      iszero\n        /* \"#utility.yul\":1506:1528   */\n      iszero\n        /* \"#utility.yul\":1488:1529   */\n      dup2\n      mstore\n        /* \"#utility.yul\":1476:1478   */\n      0x20\n        /* \"#utility.yul\":1461:1479   */\n      add\n        /* \"\\xe5\\xae\\x9a\\xe6\\x81\\xaf\\xe7\\x9f\\xbf\\xe6\\xb1\\xa0-\\xe8\\xbf\\x9b\\xe9\\x98\\xb6.sol\":1466:2701  function deposit(uint _amount) public returns (bool) {... */\n      tag_19\n        /* \"#utility.yul\":1348:1535   */\n      jump\n        /* \"\\xe5\\xae\\x9a\\xe6\\x81\\xaf\\xe7\\x9f\\xbf\\xe6\\xb1\\xa0-\\xe8\\xbf\\x9b\\xe9\\x98\\xb6.sol\":325:350  address public staketoken */\n    tag_9:\n      sload(0x01)\n      tag_17\n      swap1\n      sub(shl(0xa0, 0x01), 0x01)\n      and\n      dup2\n      jump\n        /* \"\\xe5\\xae\\x9a\\xe6\\x81\\xaf\\xe7\\x9f\\xbf\\xe6\\xb1\\xa0-\\xe8\\xbf\\x9b\\xe9\\x98\\xb6.sol\":432:454  uint public staketotal */\n    tag_10:\n      tag_21\n      sload(0x03)\n      dup2\n      jump\n        /* \"\\xe5\\xae\\x9a\\xe6\\x81\\xaf\\xe7\\x9f\\xbf\\xe6\\xb1\\xa0-\\xe8\\xbf\\x9b\\xe9\\x98\\xb6.sol\":2713:3849  function harvestwithDraw() public returns (bool) {... */\n    tag_11:\n      tag_34\n      tag_46\n      jump\t// in\n        /* \"\\xe5\\xae\\x9a\\xe6\\x81\\xaf\\xe7\\x9f\\xbf\\xe6\\xb1\\xa0-\\xe8\\xbf\\x9b\\xe9\\x98\\xb6.sol\":1466:2701  function deposit(uint _amount) public returns (bool) {... */\n    tag_36:\n        /* \"\\xe5\\xae\\x9a\\xe6\\x81\\xaf\\xe7\\x9f\\xbf\\xe6\\xb1\\xa0-\\xe8\\xbf\\x9b\\xe9\\x98\\xb6.sol\":1600:1610  staketoken */\n      sload(0x01)\n        /* \"\\xe5\\xae\\x9a\\xe6\\x81\\xaf\\xe7\\x9f\\xbf\\xe6\\xb1\\xa0-\\xe8\\xbf\\x9b\\xe9\\x98\\xb6.sol\":1593:1633  IERC20(staketoken).balanceOf(msg.sender) */\n      mload(0x40)\n      shl(0xe0, 0x70a08231)\n      dup2\n      mstore\n        /* \"\\xe5\\xae\\x9a\\xe6\\x81\\xaf\\xe7\\x9f\\xbf\\xe6\\xb1\\xa0-\\xe8\\xbf\\x9b\\xe9\\x98\\xb6.sol\":1622:1632  msg.sender */\n      caller\n        /* \"\\xe5\\xae\\x9a\\xe6\\x81\\xaf\\xe7\\x9f\\xbf\\xe6\\xb1\\xa0-\\xe8\\xbf\\x9b\\xe9\\x98\\xb6.sol\":1593:1633  IERC20(staketoken).balanceOf(msg.sender) */\n      0x04\n      dup3\n      add\n        /* \"#utility.yul\":345:396   */\n      mstore\n        /* \"\\xe5\\xae\\x9a\\xe6\\x81\\xaf\\xe7\\x9f\\xbf\\xe6\\xb1\\xa0-\\xe8\\xbf\\x9b\\xe9\\x98\\xb6.sol\":1513:1517  bool */\n      0x00\n      swap2\n        /* \"\\xe5\\xae\\x9a\\xe6\\x81\\xaf\\xe7\\x9f\\xbf\\xe6\\xb1\\xa0-\\xe8\\xbf\\x9b\\xe9\\x98\\xb6.sol\":1636:1643  _amount */\n      dup4\n      swap2\n      sub(shl(0xa0, 0x01), 0x01)\n        /* \"\\xe5\\xae\\x9a\\xe6\\x81\\xaf\\xe7\\x9f\\xbf\\xe6\\xb1\\xa0-\\xe8\\xbf\\x9b\\xe9\\x98\\xb6.sol\":1600:1610  staketoken */\n      swap1\n      swap2\n      and\n      swap1\n        /* \"\\xe5\\xae\\x9a\\xe6\\x81\\xaf\\xe7\\x9f\\xbf\\xe6\\xb1\\xa0-\\xe8\\xbf\\x9b\\xe9\\x98\\xb6.sol\":1593:1621  IERC20(staketoken).balanceOf */\n      0x70a08231\n      swap1\n        /* \"#utility.yul\":318:336   */\n      0x24\n      add\n        /* \"\\xe5\\xae\\x9a\\xe6\\x81\\xaf\\xe7\\x9f\\xbf\\xe6\\xb1\\xa0-\\xe8\\xbf\\x9b\\xe9\\x98\\xb6.sol\":1593:1633  IERC20(staketoken).balanceOf(msg.sender) */\n      0x20\n      mload(0x40)\n      dup1\n      dup4\n      sub\n      dup2\n      dup7\n      gas\n      staticcall\n      iszero\n      dup1\n      iszero\n      tag_52\n      jumpi\n      returndatasize\n      0x00\n      dup1\n      returndatacopy\n      revert(0x00, returndatasize)\n    tag_52:\n      pop\n      pop\n      pop\n      pop\n      mload(0x40)\n      returndatasize\n      not(0x1f)\n      0x1f\n      dup3\n      add\n      and\n      dup3\n      add\n      dup1\n      0x40\n      mstore\n      pop\n      dup2\n      add\n      swap1\n      tag_53\n      swap2\n      swap1\n      tag_54\n      jump\t// in\n    tag_53:\n        /* \"\\xe5\\xae\\x9a\\xe6\\x81\\xaf\\xe7\\x9f\\xbf\\xe6\\xb1\\xa0-\\xe8\\xbf\\x9b\\xe9\\x98\\xb6.sol\":1593:1643  IERC20(staketoken).balanceOf(msg.sender) > _amount */\n      gt\n        /* \"\\xe5\\xae\\x9a\\xe6\\x81\\xaf\\xe7\\x9f\\xbf\\xe6\\xb1\\xa0-\\xe8\\xbf\\x9b\\xe9\\x98\\xb6.sol\":1585:1668  require(IERC20(staketoken).balanceOf(msg.sender) > _amount, \"Balance Insufficient\") */\n      tag_55\n      jumpi\n      mload(0x40)\n      shl(0xe5, 0x461bcd)\n      dup2\n      mstore\n        /* \"#utility.yul\":1931:1933   */\n      0x20\n        /* \"\\xe5\\xae\\x9a\\xe6\\x81\\xaf\\xe7\\x9f\\xbf\\xe6\\xb1\\xa0-\\xe8\\xbf\\x9b\\xe9\\x98\\xb6.sol\":1585:1668  require(IERC20(staketoken).balanceOf(msg.sender) > _amount, \"Balance Insufficient\") */\n      0x04\n      dup3\n      add\n        /* \"#utility.yul\":1913:1934   */\n      mstore\n        /* \"#utility.yul\":1970:1972   */\n      0x14\n        /* \"#utility.yul\":1950:1968   */\n      0x24\n      dup3\n      add\n        /* \"#utility.yul\":1943:1973   */\n      mstore\n      shl(0x62, 0x10985b185b98d948125b9cdd59999a58da595b9d)\n        /* \"#utility.yul\":1989:2007   */\n      0x44\n      dup3\n      add\n        /* \"#utility.yul\":1982:2032   */\n      mstore\n        /* \"#utility.yul\":2049:2067   */\n      0x64\n      add\n        /* \"\\xe5\\xae\\x9a\\xe6\\x81\\xaf\\xe7\\x9f\\xbf\\xe6\\xb1\\xa0-\\xe8\\xbf\\x9b\\xe9\\x98\\xb6.sol\":1585:1668  require(IERC20(staketoken).balanceOf(msg.sender) > _amount, \"Balance Insufficient\") */\n    tag_56:\n      mload(0x40)\n      dup1\n      swap2\n      sub\n      swap1\n      revert\n    tag_55:\n        /* \"\\xe5\\xae\\x9a\\xe6\\x81\\xaf\\xe7\\x9f\\xbf\\xe6\\xb1\\xa0-\\xe8\\xbf\\x9b\\xe9\\x98\\xb6.sol\":1717:1727  staketoken */\n      sload(0x01)\n        /* \"\\xe5\\xae\\x9a\\xe6\\x81\\xaf\\xe7\\x9f\\xbf\\xe6\\xb1\\xa0-\\xe8\\xbf\\x9b\\xe9\\x98\\xb6.sol\":1710:1781  IERC20(staketoken).safeTransferFrom(msg.sender, address(this), _amount) */\n      tag_58\n      swap1\n      sub(shl(0xa0, 0x01), 0x01)\n        /* \"\\xe5\\xae\\x9a\\xe6\\x81\\xaf\\xe7\\x9f\\xbf\\xe6\\xb1\\xa0-\\xe8\\xbf\\x9b\\xe9\\x98\\xb6.sol\":1717:1727  staketoken */\n      and\n        /* \"\\xe5\\xae\\x9a\\xe6\\x81\\xaf\\xe7\\x9f\\xbf\\xe6\\xb1\\xa0-\\xe8\\xbf\\x9b\\xe9\\x98\\xb6.sol\":1746:1756  msg.sender */\n      caller\n        /* \"\\xe5\\xae\\x9a\\xe6\\x81\\xaf\\xe7\\x9f\\xbf\\xe6\\xb1\\xa0-\\xe8\\xbf\\x9b\\xe9\\x98\\xb6.sol\":1766:1770  this */\n      address\n        /* \"\\xe5\\xae\\x9a\\xe6\\x81\\xaf\\xe7\\x9f\\xbf\\xe6\\xb1\\xa0-\\xe8\\xbf\\x9b\\xe9\\x98\\xb6.sol\":1773:1780  _amount */\n      dup6\n        /* \"\\xe5\\xae\\x9a\\xe6\\x81\\xaf\\xe7\\x9f\\xbf\\xe6\\xb1\\xa0-\\xe8\\xbf\\x9b\\xe9\\x98\\xb6.sol\":1710:1745  IERC20(staketoken).safeTransferFrom */\n      tag_59\n        /* \"\\xe5\\xae\\x9a\\xe6\\x81\\xaf\\xe7\\x9f\\xbf\\xe6\\xb1\\xa0-\\xe8\\xbf\\x9b\\xe9\\x98\\xb6.sol\":1710:1781  IERC20(staketoken).safeTransferFrom(msg.sender, address(this), _amount) */\n      jump\t// in\n    tag_58:\n        /* \"\\xe5\\xae\\x9a\\xe6\\x81\\xaf\\xe7\\x9f\\xbf\\xe6\\xb1\\xa0-\\xe8\\xbf\\x9b\\xe9\\x98\\xb6.sol\":1850:1882  uint unClime_Reward_Token_Number */\n      0x00\n        /* \"\\xe5\\xae\\x9a\\xe6\\x81\\xaf\\xe7\\x9f\\xbf\\xe6\\xb1\\xa0-\\xe8\\xbf\\x9b\\xe9\\x98\\xb6.sol\":1997:2002  ratio */\n      dup1\n      sload\n        /* \"\\xe5\\xae\\x9a\\xe6\\x81\\xaf\\xe7\\x9f\\xbf\\xe6\\xb1\\xa0-\\xe8\\xbf\\x9b\\xe9\\x98\\xb6.sol\":1969:1979  msg.sender */\n      caller\n        /* \"\\xe5\\xae\\x9a\\xe6\\x81\\xaf\\xe7\\x9f\\xbf\\xe6\\xb1\\xa0-\\xe8\\xbf\\x9b\\xe9\\x98\\xb6.sol\":1960:1980  User_Map[msg.sender] */\n      dup3\n      mstore\n        /* \"\\xe5\\xae\\x9a\\xe6\\x81\\xaf\\xe7\\x9f\\xbf\\xe6\\xb1\\xa0-\\xe8\\xbf\\x9b\\xe9\\x98\\xb6.sol\":1960:1968  User_Map */\n      0x05\n        /* \"\\xe5\\xae\\x9a\\xe6\\x81\\xaf\\xe7\\x9f\\xbf\\xe6\\xb1\\xa0-\\xe8\\xbf\\x9b\\xe9\\x98\\xb6.sol\":1960:1980  User_Map[msg.sender] */\n      0x20\n      mstore\n      0x40\n      dup3\n      keccak256\n        /* \"\\xe5\\xae\\x9a\\xe6\\x81\\xaf\\xe7\\x9f\\xbf\\xe6\\xb1\\xa0-\\xe8\\xbf\\x9b\\xe9\\x98\\xb6.sol\":1960:1992  User_Map[msg.sender].stakeNumber */\n      sload\n        /* \"\\xe5\\xae\\x9a\\xe6\\x81\\xaf\\xe7\\x9f\\xbf\\xe6\\xb1\\xa0-\\xe8\\xbf\\x9b\\xe9\\x98\\xb6.sol\":1885:2038  (block.timestamp.sub(User_Map[msg.sender].last_Stake_Time))... */\n      tag_60\n      swap2\n        /* \"\\xe5\\xae\\x9a\\xe6\\x81\\xaf\\xe7\\x9f\\xbf\\xe6\\xb1\\xa0-\\xe8\\xbf\\x9b\\xe9\\x98\\xb6.sol\":1959:2037  (User_Map[msg.sender].stakeNumber.mul(ratio).div(100))... */\n      tag_61\n      swap2\n        /* \"\\xe5\\xae\\x9a\\xe6\\x81\\xaf\\xe7\\x9f\\xbf\\xe6\\xb1\\xa0-\\xe8\\xbf\\x9b\\xe9\\x98\\xb6.sol\":2028:2036  31536000 */\n      0x01e13380\n      swap2\n        /* \"\\xe5\\xae\\x9a\\xe6\\x81\\xaf\\xe7\\x9f\\xbf\\xe6\\xb1\\xa0-\\xe8\\xbf\\x9b\\xe9\\x98\\xb6.sol\":1960:2012  User_Map[msg.sender].stakeNumber.mul(ratio).div(100) */\n      tag_63\n      swap2\n        /* \"\\xe5\\xae\\x9a\\xe6\\x81\\xaf\\xe7\\x9f\\xbf\\xe6\\xb1\\xa0-\\xe8\\xbf\\x9b\\xe9\\x98\\xb6.sol\":2008:2011  100 */\n      0x64\n      swap2\n        /* \"\\xe5\\xae\\x9a\\xe6\\x81\\xaf\\xe7\\x9f\\xbf\\xe6\\xb1\\xa0-\\xe8\\xbf\\x9b\\xe9\\x98\\xb6.sol\":1960:2012  User_Map[msg.sender].stakeNumber.mul(ratio).div(100) */\n      dup4\n      swap2\n        /* \"\\xe5\\xae\\x9a\\xe6\\x81\\xaf\\xe7\\x9f\\xbf\\xe6\\xb1\\xa0-\\xe8\\xbf\\x9b\\xe9\\x98\\xb6.sol\":1960:1992  User_Map[msg.sender].stakeNumber */\n      swap1\n        /* \"\\xe5\\xae\\x9a\\xe6\\x81\\xaf\\xe7\\x9f\\xbf\\xe6\\xb1\\xa0-\\xe8\\xbf\\x9b\\xe9\\x98\\xb6.sol\":1960:1996  User_Map[msg.sender].stakeNumber.mul */\n      tag_64\n        /* \"\\xe5\\xae\\x9a\\xe6\\x81\\xaf\\xe7\\x9f\\xbf\\xe6\\xb1\\xa0-\\xe8\\xbf\\x9b\\xe9\\x98\\xb6.sol\":1960:2003  User_Map[msg.sender].stakeNumber.mul(ratio) */\n      jump\t// in\n    tag_63:\n        /* \"\\xe5\\xae\\x9a\\xe6\\x81\\xaf\\xe7\\x9f\\xbf\\xe6\\xb1\\xa0-\\xe8\\xbf\\x9b\\xe9\\x98\\xb6.sol\":1960:2007  User_Map[msg.sender].stakeNumber.mul(ratio).div */\n      swap1\n      tag_65\n        /* \"\\xe5\\xae\\x9a\\xe6\\x81\\xaf\\xe7\\x9f\\xbf\\xe6\\xb1\\xa0-\\xe8\\xbf\\x9b\\xe9\\x98\\xb6.sol\":1960:2012  User_Map[msg.sender].stakeNumber.mul(ratio).div(100) */\n      jump\t// in\n        /* \"\\xe5\\xae\\x9a\\xe6\\x81\\xaf\\xe7\\x9f\\xbf\\xe6\\xb1\\xa0-\\xe8\\xbf\\x9b\\xe9\\x98\\xb6.sol\":1959:2037  (User_Map[msg.sender].stakeNumber.mul(ratio).div(100))... */\n    tag_61:\n        /* \"\\xe5\\xae\\x9a\\xe6\\x81\\xaf\\xe7\\x9f\\xbf\\xe6\\xb1\\xa0-\\xe8\\xbf\\x9b\\xe9\\x98\\xb6.sol\":1915:1925  msg.sender */\n      caller\n        /* \"\\xe5\\xae\\x9a\\xe6\\x81\\xaf\\xe7\\x9f\\xbf\\xe6\\xb1\\xa0-\\xe8\\xbf\\x9b\\xe9\\x98\\xb6.sol\":1906:1926  User_Map[msg.sender] */\n      0x00\n      swap1\n      dup2\n      mstore\n        /* \"\\xe5\\xae\\x9a\\xe6\\x81\\xaf\\xe7\\x9f\\xbf\\xe6\\xb1\\xa0-\\xe8\\xbf\\x9b\\xe9\\x98\\xb6.sol\":1906:1914  User_Map */\n      0x05\n        /* \"\\xe5\\xae\\x9a\\xe6\\x81\\xaf\\xe7\\x9f\\xbf\\xe6\\xb1\\xa0-\\xe8\\xbf\\x9b\\xe9\\x98\\xb6.sol\":1906:1926  User_Map[msg.sender] */\n      0x20\n      mstore\n      0x40\n      swap1\n      keccak256\n        /* \"\\xe5\\xae\\x9a\\xe6\\x81\\xaf\\xe7\\x9f\\xbf\\xe6\\xb1\\xa0-\\xe8\\xbf\\x9b\\xe9\\x98\\xb6.sol\":1906:1942  User_Map[msg.sender].last_Stake_Time */\n      0x01\n      add\n      sload\n        /* \"\\xe5\\xae\\x9a\\xe6\\x81\\xaf\\xe7\\x9f\\xbf\\xe6\\xb1\\xa0-\\xe8\\xbf\\x9b\\xe9\\x98\\xb6.sol\":1886:1943  block.timestamp.sub(User_Map[msg.sender].last_Stake_Time) */\n      tag_66\n      swap1\n        /* \"\\xe5\\xae\\x9a\\xe6\\x81\\xaf\\xe7\\x9f\\xbf\\xe6\\xb1\\xa0-\\xe8\\xbf\\x9b\\xe9\\x98\\xb6.sol\":1886:1901  block.timestamp */\n      timestamp\n      swap1\n        /* \"\\xe5\\xae\\x9a\\xe6\\x81\\xaf\\xe7\\x9f\\xbf\\xe6\\xb1\\xa0-\\xe8\\xbf\\x9b\\xe9\\x98\\xb6.sol\":1886:1905  block.timestamp.sub */\n      tag_67\n        /* \"\\xe5\\xae\\x9a\\xe6\\x81\\xaf\\xe7\\x9f\\xbf\\xe6\\xb1\\xa0-\\xe8\\xbf\\x9b\\xe9\\x98\\xb6.sol\":1886:1943  block.timestamp.sub(User_Map[msg.sender].last_Stake_Time) */\n      jump\t// in\n    tag_66:\n        /* \"\\xe5\\xae\\x9a\\xe6\\x81\\xaf\\xe7\\x9f\\xbf\\xe6\\xb1\\xa0-\\xe8\\xbf\\x9b\\xe9\\x98\\xb6.sol\":1885:1958  (block.timestamp.sub(User_Map[msg.sender].last_Stake_Time))... */\n      swap1\n      tag_64\n        /* \"\\xe5\\xae\\x9a\\xe6\\x81\\xaf\\xe7\\x9f\\xbf\\xe6\\xb1\\xa0-\\xe8\\xbf\\x9b\\xe9\\x98\\xb6.sol\":1885:2038  (block.timestamp.sub(User_Map[msg.sender].last_Stake_Time))... */\n      jump\t// in\n    tag_60:\n        /* \"\\xe5\\xae\\x9a\\xe6\\x81\\xaf\\xe7\\x9f\\xbf\\xe6\\xb1\\xa0-\\xe8\\xbf\\x9b\\xe9\\x98\\xb6.sol\":2128:2138  msg.sender */\n      caller\n        /* \"\\xe5\\xae\\x9a\\xe6\\x81\\xaf\\xe7\\x9f\\xbf\\xe6\\xb1\\xa0-\\xe8\\xbf\\x9b\\xe9\\x98\\xb6.sol\":2119:2139  User_Map[msg.sender] */\n      0x00\n      swap1\n      dup2\n      mstore\n        /* \"\\xe5\\xae\\x9a\\xe6\\x81\\xaf\\xe7\\x9f\\xbf\\xe6\\xb1\\xa0-\\xe8\\xbf\\x9b\\xe9\\x98\\xb6.sol\":2119:2127  User_Map */\n      0x05\n        /* \"\\xe5\\xae\\x9a\\xe6\\x81\\xaf\\xe7\\x9f\\xbf\\xe6\\xb1\\xa0-\\xe8\\xbf\\x9b\\xe9\\x98\\xb6.sol\":2119:2139  User_Map[msg.sender] */\n      0x20\n      mstore\n      0x40\n      dup2\n      keccak256\n        /* \"\\xe5\\xae\\x9a\\xe6\\x81\\xaf\\xe7\\x9f\\xbf\\xe6\\xb1\\xa0-\\xe8\\xbf\\x9b\\xe9\\x98\\xb6.sol\":2119:2158  User_Map[msg.sender].last_totoken_ratio */\n      0x02\n      add\n        /* \"\\xe5\\xae\\x9a\\xe6\\x81\\xaf\\xe7\\x9f\\xbf\\xe6\\xb1\\xa0-\\xe8\\xbf\\x9b\\xe9\\x98\\xb6.sol\":2119:2189  User_Map[msg.sender].last_totoken_ratio += unClime_Reward_Token_Number */\n      dup1\n      sload\n        /* \"\\xe5\\xae\\x9a\\xe6\\x81\\xaf\\xe7\\x9f\\xbf\\xe6\\xb1\\xa0-\\xe8\\xbf\\x9b\\xe9\\x98\\xb6.sol\":1850:2038  uint unClime_Reward_Token_Number = (block.timestamp.sub(User_Map[msg.sender].last_Stake_Time))... */\n      swap3\n      swap4\n      pop\n      dup4\n      swap3\n        /* \"\\xe5\\xae\\x9a\\xe6\\x81\\xaf\\xe7\\x9f\\xbf\\xe6\\xb1\\xa0-\\xe8\\xbf\\x9b\\xe9\\x98\\xb6.sol\":2119:2158  User_Map[msg.sender].last_totoken_ratio */\n      swap1\n      swap2\n        /* \"\\xe5\\xae\\x9a\\xe6\\x81\\xaf\\xe7\\x9f\\xbf\\xe6\\xb1\\xa0-\\xe8\\xbf\\x9b\\xe9\\x98\\xb6.sol\":2119:2139  User_Map[msg.sender] */\n      swap1\n        /* \"\\xe5\\xae\\x9a\\xe6\\x81\\xaf\\xe7\\x9f\\xbf\\xe6\\xb1\\xa0-\\xe8\\xbf\\x9b\\xe9\\x98\\xb6.sol\":2119:2189  User_Map[msg.sender].last_totoken_ratio += unClime_Reward_Token_Number */\n      tag_68\n      swap1\n        /* \"\\xe5\\xae\\x9a\\xe6\\x81\\xaf\\xe7\\x9f\\xbf\\xe6\\xb1\\xa0-\\xe8\\xbf\\x9b\\xe9\\x98\\xb6.sol\":1850:2038  uint unClime_Reward_Token_Number = (block.timestamp.sub(User_Map[msg.sender].last_Stake_Time))... */\n      dup5\n      swap1\n        /* \"\\xe5\\xae\\x9a\\xe6\\x81\\xaf\\xe7\\x9f\\xbf\\xe6\\xb1\\xa0-\\xe8\\xbf\\x9b\\xe9\\x98\\xb6.sol\":2119:2189  User_Map[msg.sender].last_totoken_ratio += unClime_Reward_Token_Number */\n      tag_69\n      jump\t// in\n    tag_68:\n      swap1\n      swap2\n      sstore\n      pop\n      pop\n        /* \"\\xe5\\xae\\x9a\\xe6\\x81\\xaf\\xe7\\x9f\\xbf\\xe6\\xb1\\xa0-\\xe8\\xbf\\x9b\\xe9\\x98\\xb6.sol\":2264:2274  msg.sender */\n      caller\n        /* \"\\xe5\\xae\\x9a\\xe6\\x81\\xaf\\xe7\\x9f\\xbf\\xe6\\xb1\\xa0-\\xe8\\xbf\\x9b\\xe9\\x98\\xb6.sol\":2255:2275  User_Map[msg.sender] */\n      0x00\n      swap1\n      dup2\n      mstore\n        /* \"\\xe5\\xae\\x9a\\xe6\\x81\\xaf\\xe7\\x9f\\xbf\\xe6\\xb1\\xa0-\\xe8\\xbf\\x9b\\xe9\\x98\\xb6.sol\":2255:2263  User_Map */\n      0x05\n        /* \"\\xe5\\xae\\x9a\\xe6\\x81\\xaf\\xe7\\x9f\\xbf\\xe6\\xb1\\xa0-\\xe8\\xbf\\x9b\\xe9\\x98\\xb6.sol\":2255:2275  User_Map[msg.sender] */\n      0x20\n      mstore\n      0x40\n      dup2\n      keccak256\n        /* \"\\xe5\\xae\\x9a\\xe6\\x81\\xaf\\xe7\\x9f\\xbf\\xe6\\xb1\\xa0-\\xe8\\xbf\\x9b\\xe9\\x98\\xb6.sol\":2255:2298  User_Map[msg.sender].stakeNumber += _amount */\n      dup1\n      sload\n        /* \"\\xe5\\xae\\x9a\\xe6\\x81\\xaf\\xe7\\x9f\\xbf\\xe6\\xb1\\xa0-\\xe8\\xbf\\x9b\\xe9\\x98\\xb6.sol\":2291:2298  _amount */\n      dup6\n      swap3\n        /* \"\\xe5\\xae\\x9a\\xe6\\x81\\xaf\\xe7\\x9f\\xbf\\xe6\\xb1\\xa0-\\xe8\\xbf\\x9b\\xe9\\x98\\xb6.sol\":2255:2275  User_Map[msg.sender] */\n      swap1\n        /* \"\\xe5\\xae\\x9a\\xe6\\x81\\xaf\\xe7\\x9f\\xbf\\xe6\\xb1\\xa0-\\xe8\\xbf\\x9b\\xe9\\x98\\xb6.sol\":2255:2298  User_Map[msg.sender].stakeNumber += _amount */\n      tag_70\n      swap1\n        /* \"\\xe5\\xae\\x9a\\xe6\\x81\\xaf\\xe7\\x9f\\xbf\\xe6\\xb1\\xa0-\\xe8\\xbf\\x9b\\xe9\\x98\\xb6.sol\":2291:2298  _amount */\n      dup5\n      swap1\n        /* \"\\xe5\\xae\\x9a\\xe6\\x81\\xaf\\xe7\\x9f\\xbf\\xe6\\xb1\\xa0-\\xe8\\xbf\\x9b\\xe9\\x98\\xb6.sol\":2255:2298  User_Map[msg.sender].stakeNumber += _amount */\n      tag_69\n      jump\t// in\n    tag_70:\n      swap1\n      swap2\n      sstore\n      pop\n      pop\n        /* \"\\xe5\\xae\\x9a\\xe6\\x81\\xaf\\xe7\\x9f\\xbf\\xe6\\xb1\\xa0-\\xe8\\xbf\\x9b\\xe9\\x98\\xb6.sol\":2388:2398  msg.sender */\n      caller\n        /* \"\\xe5\\xae\\x9a\\xe6\\x81\\xaf\\xe7\\x9f\\xbf\\xe6\\xb1\\xa0-\\xe8\\xbf\\x9b\\xe9\\x98\\xb6.sol\":2379:2399  User_Map[msg.sender] */\n      0x00\n      swap1\n      dup2\n      mstore\n        /* \"\\xe5\\xae\\x9a\\xe6\\x81\\xaf\\xe7\\x9f\\xbf\\xe6\\xb1\\xa0-\\xe8\\xbf\\x9b\\xe9\\x98\\xb6.sol\":2379:2387  User_Map */\n      0x05\n        /* \"\\xe5\\xae\\x9a\\xe6\\x81\\xaf\\xe7\\x9f\\xbf\\xe6\\xb1\\xa0-\\xe8\\xbf\\x9b\\xe9\\x98\\xb6.sol\":2379:2399  User_Map[msg.sender] */\n      0x20\n      mstore\n      0x40\n      dup2\n      keccak256\n        /* \"\\xe5\\xae\\x9a\\xe6\\x81\\xaf\\xe7\\x9f\\xbf\\xe6\\xb1\\xa0-\\xe8\\xbf\\x9b\\xe9\\x98\\xb6.sol\":2418:2433  block.timestamp */\n      timestamp\n        /* \"\\xe5\\xae\\x9a\\xe6\\x81\\xaf\\xe7\\x9f\\xbf\\xe6\\xb1\\xa0-\\xe8\\xbf\\x9b\\xe9\\x98\\xb6.sol\":2379:2415  User_Map[msg.sender].last_Stake_Time */\n      0x01\n      swap1\n      swap2\n      add\n        /* \"\\xe5\\xae\\x9a\\xe6\\x81\\xaf\\xe7\\x9f\\xbf\\xe6\\xb1\\xa0-\\xe8\\xbf\\x9b\\xe9\\x98\\xb6.sol\":2379:2433  User_Map[msg.sender].last_Stake_Time = block.timestamp */\n      sstore\n        /* \"\\xe5\\xae\\x9a\\xe6\\x81\\xaf\\xe7\\x9f\\xbf\\xe6\\xb1\\xa0-\\xe8\\xbf\\x9b\\xe9\\x98\\xb6.sol\":2496:2506  staketotal */\n      0x03\n        /* \"\\xe5\\xae\\x9a\\xe6\\x81\\xaf\\xe7\\x9f\\xbf\\xe6\\xb1\\xa0-\\xe8\\xbf\\x9b\\xe9\\x98\\xb6.sol\":2496:2517  staketotal += _amount */\n      dup1\n      sload\n        /* \"\\xe5\\xae\\x9a\\xe6\\x81\\xaf\\xe7\\x9f\\xbf\\xe6\\xb1\\xa0-\\xe8\\xbf\\x9b\\xe9\\x98\\xb6.sol\":2510:2517  _amount */\n      dup6\n      swap3\n        /* \"\\xe5\\xae\\x9a\\xe6\\x81\\xaf\\xe7\\x9f\\xbf\\xe6\\xb1\\xa0-\\xe8\\xbf\\x9b\\xe9\\x98\\xb6.sol\":2379:2399  User_Map[msg.sender] */\n      swap1\n        /* \"\\xe5\\xae\\x9a\\xe6\\x81\\xaf\\xe7\\x9f\\xbf\\xe6\\xb1\\xa0-\\xe8\\xbf\\x9b\\xe9\\x98\\xb6.sol\":2496:2517  staketotal += _amount */\n      tag_71\n      swap1\n        /* \"\\xe5\\xae\\x9a\\xe6\\x81\\xaf\\xe7\\x9f\\xbf\\xe6\\xb1\\xa0-\\xe8\\xbf\\x9b\\xe9\\x98\\xb6.sol\":2510:2517  _amount */\n      dup5\n      swap1\n        /* \"\\xe5\\xae\\x9a\\xe6\\x81\\xaf\\xe7\\x9f\\xbf\\xe6\\xb1\\xa0-\\xe8\\xbf\\x9b\\xe9\\x98\\xb6.sol\":2496:2517  staketotal += _amount */\n      tag_69\n      jump\t// in\n    tag_71:\n      swap1\n      swap2\n      sstore\n      pop\n      pop\n        /* \"\\xe5\\xae\\x9a\\xe6\\x81\\xaf\\xe7\\x9f\\xbf\\xe6\\xb1\\xa0-\\xe8\\xbf\\x9b\\xe9\\x98\\xb6.sol\":2642:2652  msg.sender */\n      caller\n        /* \"\\xe5\\xae\\x9a\\xe6\\x81\\xaf\\xe7\\x9f\\xbf\\xe6\\xb1\\xa0-\\xe8\\xbf\\x9b\\xe9\\x98\\xb6.sol\":2633:2653  User_Map[msg.sender] */\n      0x00\n      swap1\n      dup2\n      mstore\n        /* \"\\xe5\\xae\\x9a\\xe6\\x81\\xaf\\xe7\\x9f\\xbf\\xe6\\xb1\\xa0-\\xe8\\xbf\\x9b\\xe9\\x98\\xb6.sol\":2633:2641  User_Map */\n      0x05\n        /* \"\\xe5\\xae\\x9a\\xe6\\x81\\xaf\\xe7\\x9f\\xbf\\xe6\\xb1\\xa0-\\xe8\\xbf\\x9b\\xe9\\x98\\xb6.sol\":2633:2653  User_Map[msg.sender] */\n      0x20\n      mstore\n      0x40\n      swap1\n      keccak256\n        /* \"\\xe5\\xae\\x9a\\xe6\\x81\\xaf\\xe7\\x9f\\xbf\\xe6\\xb1\\xa0-\\xe8\\xbf\\x9b\\xe9\\x98\\xb6.sol\":2633:2669  User_Map[msg.sender].last_Stake_Time */\n      0x01\n      dup1\n      dup3\n      add\n      sload\n        /* \"\\xe5\\xae\\x9a\\xe6\\x81\\xaf\\xe7\\x9f\\xbf\\xe6\\xb1\\xa0-\\xe8\\xbf\\x9b\\xe9\\x98\\xb6.sol\":2592:2630  User_Map[msg.sender].last_totoken_Time */\n      0x04\n      swap1\n      swap3\n      add\n        /* \"\\xe5\\xae\\x9a\\xe6\\x81\\xaf\\xe7\\x9f\\xbf\\xe6\\xb1\\xa0-\\xe8\\xbf\\x9b\\xe9\\x98\\xb6.sol\":2592:2669  User_Map[msg.sender].last_totoken_Time = User_Map[msg.sender].last_Stake_Time */\n      swap2\n      swap1\n      swap2\n      sstore\n        /* \"\\xe5\\xae\\x9a\\xe6\\x81\\xaf\\xe7\\x9f\\xbf\\xe6\\xb1\\xa0-\\xe8\\xbf\\x9b\\xe9\\x98\\xb6.sol\":2633:2669  User_Map[msg.sender].last_Stake_Time */\n      swap4\n        /* \"\\xe5\\xae\\x9a\\xe6\\x81\\xaf\\xe7\\x9f\\xbf\\xe6\\xb1\\xa0-\\xe8\\xbf\\x9b\\xe9\\x98\\xb6.sol\":1466:2701  function deposit(uint _amount) public returns (bool) {... */\n      swap3\n      pop\n      pop\n      pop\n      jump\t// out\n        /* \"\\xe5\\xae\\x9a\\xe6\\x81\\xaf\\xe7\\x9f\\xbf\\xe6\\xb1\\xa0-\\xe8\\xbf\\x9b\\xe9\\x98\\xb6.sol\":2713:3849  function harvestwithDraw() public returns (bool) {... */\n    tag_46:\n        /* \"\\xe5\\xae\\x9a\\xe6\\x81\\xaf\\xe7\\x9f\\xbf\\xe6\\xb1\\xa0-\\xe8\\xbf\\x9b\\xe9\\x98\\xb6.sol\":2756:2760  bool */\n      0x00\n        /* \"\\xe5\\xae\\x9a\\xe6\\x81\\xaf\\xe7\\x9f\\xbf\\xe6\\xb1\\xa0-\\xe8\\xbf\\x9b\\xe9\\x98\\xb6.sol\":3037:3042  ratio */\n      dup1\n      sload\n        /* \"\\xe5\\xae\\x9a\\xe6\\x81\\xaf\\xe7\\x9f\\xbf\\xe6\\xb1\\xa0-\\xe8\\xbf\\x9b\\xe9\\x98\\xb6.sol\":3008:3018  msg.sender */\n      caller\n        /* \"\\xe5\\xae\\x9a\\xe6\\x81\\xaf\\xe7\\x9f\\xbf\\xe6\\xb1\\xa0-\\xe8\\xbf\\x9b\\xe9\\x98\\xb6.sol\":2999:3019  User_Map[msg.sender] */\n      dup3\n      mstore\n        /* \"\\xe5\\xae\\x9a\\xe6\\x81\\xaf\\xe7\\x9f\\xbf\\xe6\\xb1\\xa0-\\xe8\\xbf\\x9b\\xe9\\x98\\xb6.sol\":2999:3007  User_Map */\n      0x05\n        /* \"\\xe5\\xae\\x9a\\xe6\\x81\\xaf\\xe7\\x9f\\xbf\\xe6\\xb1\\xa0-\\xe8\\xbf\\x9b\\xe9\\x98\\xb6.sol\":2999:3019  User_Map[msg.sender] */\n      0x20\n      mstore\n      0x40\n      dup3\n      keccak256\n        /* \"\\xe5\\xae\\x9a\\xe6\\x81\\xaf\\xe7\\x9f\\xbf\\xe6\\xb1\\xa0-\\xe8\\xbf\\x9b\\xe9\\x98\\xb6.sol\":2999:3031  User_Map[msg.sender].stakeNumber */\n      sload\n        /* \"\\xe5\\xae\\x9a\\xe6\\x81\\xaf\\xe7\\x9f\\xbf\\xe6\\xb1\\xa0-\\xe8\\xbf\\x9b\\xe9\\x98\\xb6.sol\":2866:3068  User_Map[msg.sender].last_totoken_ratio ... */\n      tag_73\n      swap2\n        /* \"\\xe5\\xae\\x9a\\xe6\\x81\\xaf\\xe7\\x9f\\xbf\\xe6\\xb1\\xa0-\\xe8\\xbf\\x9b\\xe9\\x98\\xb6.sol\":2998:3067  (User_Map[msg.sender].stakeNumber .mul(ratio).div(100)).div(31536000) */\n      tag_74\n      swap2\n        /* \"\\xe5\\xae\\x9a\\xe6\\x81\\xaf\\xe7\\x9f\\xbf\\xe6\\xb1\\xa0-\\xe8\\xbf\\x9b\\xe9\\x98\\xb6.sol\":3058:3066  31536000 */\n      0x01e13380\n      swap2\n        /* \"\\xe5\\xae\\x9a\\xe6\\x81\\xaf\\xe7\\x9f\\xbf\\xe6\\xb1\\xa0-\\xe8\\xbf\\x9b\\xe9\\x98\\xb6.sol\":2999:3052  User_Map[msg.sender].stakeNumber .mul(ratio).div(100) */\n      tag_63\n      swap2\n        /* \"\\xe5\\xae\\x9a\\xe6\\x81\\xaf\\xe7\\x9f\\xbf\\xe6\\xb1\\xa0-\\xe8\\xbf\\x9b\\xe9\\x98\\xb6.sol\":3048:3051  100 */\n      0x64\n      swap2\n        /* \"\\xe5\\xae\\x9a\\xe6\\x81\\xaf\\xe7\\x9f\\xbf\\xe6\\xb1\\xa0-\\xe8\\xbf\\x9b\\xe9\\x98\\xb6.sol\":2999:3052  User_Map[msg.sender].stakeNumber .mul(ratio).div(100) */\n      dup4\n      swap2\n        /* \"\\xe5\\xae\\x9a\\xe6\\x81\\xaf\\xe7\\x9f\\xbf\\xe6\\xb1\\xa0-\\xe8\\xbf\\x9b\\xe9\\x98\\xb6.sol\":2999:3031  User_Map[msg.sender].stakeNumber */\n      swap1\n        /* \"\\xe5\\xae\\x9a\\xe6\\x81\\xaf\\xe7\\x9f\\xbf\\xe6\\xb1\\xa0-\\xe8\\xbf\\x9b\\xe9\\x98\\xb6.sol\":2999:3036  User_Map[msg.sender].stakeNumber .mul */\n      tag_64\n        /* \"\\xe5\\xae\\x9a\\xe6\\x81\\xaf\\xe7\\x9f\\xbf\\xe6\\xb1\\xa0-\\xe8\\xbf\\x9b\\xe9\\x98\\xb6.sol\":2999:3043  User_Map[msg.sender].stakeNumber .mul(ratio) */\n      jump\t// in\n        /* \"\\xe5\\xae\\x9a\\xe6\\x81\\xaf\\xe7\\x9f\\xbf\\xe6\\xb1\\xa0-\\xe8\\xbf\\x9b\\xe9\\x98\\xb6.sol\":2998:3067  (User_Map[msg.sender].stakeNumber .mul(ratio).div(100)).div(31536000) */\n    tag_74:\n        /* \"\\xe5\\xae\\x9a\\xe6\\x81\\xaf\\xe7\\x9f\\xbf\\xe6\\xb1\\xa0-\\xe8\\xbf\\x9b\\xe9\\x98\\xb6.sol\":2952:2962  msg.sender */\n      caller\n        /* \"\\xe5\\xae\\x9a\\xe6\\x81\\xaf\\xe7\\x9f\\xbf\\xe6\\xb1\\xa0-\\xe8\\xbf\\x9b\\xe9\\x98\\xb6.sol\":2943:2963  User_Map[msg.sender] */\n      0x00\n      swap1\n      dup2\n      mstore\n        /* \"\\xe5\\xae\\x9a\\xe6\\x81\\xaf\\xe7\\x9f\\xbf\\xe6\\xb1\\xa0-\\xe8\\xbf\\x9b\\xe9\\x98\\xb6.sol\":2943:2951  User_Map */\n      0x05\n        /* \"\\xe5\\xae\\x9a\\xe6\\x81\\xaf\\xe7\\x9f\\xbf\\xe6\\xb1\\xa0-\\xe8\\xbf\\x9b\\xe9\\x98\\xb6.sol\":2943:2963  User_Map[msg.sender] */\n      0x20\n      mstore\n      0x40\n      swap1\n      keccak256\n        /* \"\\xe5\\xae\\x9a\\xe6\\x81\\xaf\\xe7\\x9f\\xbf\\xe6\\xb1\\xa0-\\xe8\\xbf\\x9b\\xe9\\x98\\xb6.sol\":2943:2979  User_Map[msg.sender].last_Stake_Time */\n      0x01\n      add\n      sload\n        /* \"\\xe5\\xae\\x9a\\xe6\\x81\\xaf\\xe7\\x9f\\xbf\\xe6\\xb1\\xa0-\\xe8\\xbf\\x9b\\xe9\\x98\\xb6.sol\":2866:2982  User_Map[msg.sender].last_totoken_ratio ... */\n      tag_66\n      swap1\n        /* \"\\xe5\\xae\\x9a\\xe6\\x81\\xaf\\xe7\\x9f\\xbf\\xe6\\xb1\\xa0-\\xe8\\xbf\\x9b\\xe9\\x98\\xb6.sol\":2923:2980  block.timestamp.sub(User_Map[msg.sender].last_Stake_Time) */\n      tag_78\n      swap1\n        /* \"\\xe5\\xae\\x9a\\xe6\\x81\\xaf\\xe7\\x9f\\xbf\\xe6\\xb1\\xa0-\\xe8\\xbf\\x9b\\xe9\\x98\\xb6.sol\":2923:2938  block.timestamp */\n      timestamp\n      swap1\n        /* \"\\xe5\\xae\\x9a\\xe6\\x81\\xaf\\xe7\\x9f\\xbf\\xe6\\xb1\\xa0-\\xe8\\xbf\\x9b\\xe9\\x98\\xb6.sol\":2923:2942  block.timestamp.sub */\n      tag_67\n        /* \"\\xe5\\xae\\x9a\\xe6\\x81\\xaf\\xe7\\x9f\\xbf\\xe6\\xb1\\xa0-\\xe8\\xbf\\x9b\\xe9\\x98\\xb6.sol\":2923:2980  block.timestamp.sub(User_Map[msg.sender].last_Stake_Time) */\n      jump\t// in\n    tag_78:\n        /* \"\\xe5\\xae\\x9a\\xe6\\x81\\xaf\\xe7\\x9f\\xbf\\xe6\\xb1\\xa0-\\xe8\\xbf\\x9b\\xe9\\x98\\xb6.sol\":2875:2885  msg.sender */\n      caller\n        /* \"\\xe5\\xae\\x9a\\xe6\\x81\\xaf\\xe7\\x9f\\xbf\\xe6\\xb1\\xa0-\\xe8\\xbf\\x9b\\xe9\\x98\\xb6.sol\":2866:2886  User_Map[msg.sender] */\n      0x00\n      swap1\n      dup2\n      mstore\n        /* \"\\xe5\\xae\\x9a\\xe6\\x81\\xaf\\xe7\\x9f\\xbf\\xe6\\xb1\\xa0-\\xe8\\xbf\\x9b\\xe9\\x98\\xb6.sol\":2866:2874  User_Map */\n      0x05\n        /* \"\\xe5\\xae\\x9a\\xe6\\x81\\xaf\\xe7\\x9f\\xbf\\xe6\\xb1\\xa0-\\xe8\\xbf\\x9b\\xe9\\x98\\xb6.sol\":2866:2886  User_Map[msg.sender] */\n      0x20\n      mstore\n      0x40\n      swap1\n      keccak256\n        /* \"\\xe5\\xae\\x9a\\xe6\\x81\\xaf\\xe7\\x9f\\xbf\\xe6\\xb1\\xa0-\\xe8\\xbf\\x9b\\xe9\\x98\\xb6.sol\":2866:2905  User_Map[msg.sender].last_totoken_ratio */\n      0x02\n      add\n      sload\n      swap1\n        /* \"\\xe5\\xae\\x9a\\xe6\\x81\\xaf\\xe7\\x9f\\xbf\\xe6\\xb1\\xa0-\\xe8\\xbf\\x9b\\xe9\\x98\\xb6.sol\":2866:2920  User_Map[msg.sender].last_totoken_ratio ... */\n      tag_79\n        /* \"\\xe5\\xae\\x9a\\xe6\\x81\\xaf\\xe7\\x9f\\xbf\\xe6\\xb1\\xa0-\\xe8\\xbf\\x9b\\xe9\\x98\\xb6.sol\":2866:2982  User_Map[msg.sender].last_totoken_ratio ... */\n      jump\t// in\n        /* \"\\xe5\\xae\\x9a\\xe6\\x81\\xaf\\xe7\\x9f\\xbf\\xe6\\xb1\\xa0-\\xe8\\xbf\\x9b\\xe9\\x98\\xb6.sol\":2866:3068  User_Map[msg.sender].last_totoken_ratio ... */\n    tag_73:\n        /* \"\\xe5\\xae\\x9a\\xe6\\x81\\xaf\\xe7\\x9f\\xbf\\xe6\\xb1\\xa0-\\xe8\\xbf\\x9b\\xe9\\x98\\xb6.sol\":2840:2850  msg.sender */\n      caller\n        /* \"\\xe5\\xae\\x9a\\xe6\\x81\\xaf\\xe7\\x9f\\xbf\\xe6\\xb1\\xa0-\\xe8\\xbf\\x9b\\xe9\\x98\\xb6.sol\":2831:2851  User_Map[msg.sender] */\n      0x00\n      dup2\n      dup2\n      mstore\n        /* \"\\xe5\\xae\\x9a\\xe6\\x81\\xaf\\xe7\\x9f\\xbf\\xe6\\xb1\\xa0-\\xe8\\xbf\\x9b\\xe9\\x98\\xb6.sol\":2831:2839  User_Map */\n      0x05\n        /* \"\\xe5\\xae\\x9a\\xe6\\x81\\xaf\\xe7\\x9f\\xbf\\xe6\\xb1\\xa0-\\xe8\\xbf\\x9b\\xe9\\x98\\xb6.sol\":2831:2851  User_Map[msg.sender] */\n      0x20\n      mstore\n      0x40\n      swap1\n      keccak256\n        /* \"\\xe5\\xae\\x9a\\xe6\\x81\\xaf\\xe7\\x9f\\xbf\\xe6\\xb1\\xa0-\\xe8\\xbf\\x9b\\xe9\\x98\\xb6.sol\":2831:2863  User_Map[msg.sender].whole_ratio */\n      0x03\n      add\n        /* \"\\xe5\\xae\\x9a\\xe6\\x81\\xaf\\xe7\\x9f\\xbf\\xe6\\xb1\\xa0-\\xe8\\xbf\\x9b\\xe9\\x98\\xb6.sol\":2831:3068  User_Map[msg.sender].whole_ratio = User_Map[msg.sender].last_totoken_ratio ... */\n      dup3\n      swap1\n      sstore\n        /* \"\\xe5\\xae\\x9a\\xe6\\x81\\xaf\\xe7\\x9f\\xbf\\xe6\\xb1\\xa0-\\xe8\\xbf\\x9b\\xe9\\x98\\xb6.sol\":3159:3169  staketoken */\n      sload(0x01)\n        /* \"\\xe5\\xae\\x9a\\xe6\\x81\\xaf\\xe7\\x9f\\xbf\\xe6\\xb1\\xa0-\\xe8\\xbf\\x9b\\xe9\\x98\\xb6.sol\":3152:3229  IERC20(staketoken).safeTransfer(msg.sender, User_Map[msg.sender].whole_ratio) */\n      tag_80\n      swap3\n      sub(shl(0xa0, 0x01), 0x01)\n        /* \"\\xe5\\xae\\x9a\\xe6\\x81\\xaf\\xe7\\x9f\\xbf\\xe6\\xb1\\xa0-\\xe8\\xbf\\x9b\\xe9\\x98\\xb6.sol\":3159:3169  staketoken */\n      swap1\n      swap2\n      and\n      swap2\n        /* \"\\xe5\\xae\\x9a\\xe6\\x81\\xaf\\xe7\\x9f\\xbf\\xe6\\xb1\\xa0-\\xe8\\xbf\\x9b\\xe9\\x98\\xb6.sol\":2840:2850  msg.sender */\n      swap1\n        /* \"\\xe5\\xae\\x9a\\xe6\\x81\\xaf\\xe7\\x9f\\xbf\\xe6\\xb1\\xa0-\\xe8\\xbf\\x9b\\xe9\\x98\\xb6.sol\":3152:3183  IERC20(staketoken).safeTransfer */\n      tag_81\n        /* \"\\xe5\\xae\\x9a\\xe6\\x81\\xaf\\xe7\\x9f\\xbf\\xe6\\xb1\\xa0-\\xe8\\xbf\\x9b\\xe9\\x98\\xb6.sol\":3152:3229  IERC20(staketoken).safeTransfer(msg.sender, User_Map[msg.sender].whole_ratio) */\n      jump\t// in\n    tag_80:\n        /* \"\\xe5\\xae\\x9a\\xe6\\x81\\xaf\\xe7\\x9f\\xbf\\xe6\\xb1\\xa0-\\xe8\\xbf\\x9b\\xe9\\x98\\xb6.sol\":3257:3267  msg.sender */\n      caller\n        /* \"\\xe5\\xae\\x9a\\xe6\\x81\\xaf\\xe7\\x9f\\xbf\\xe6\\xb1\\xa0-\\xe8\\xbf\\x9b\\xe9\\x98\\xb6.sol\":3269:3289  User_Map[msg.sender] */\n      0x00\n      dup2\n      dup2\n      mstore\n        /* \"\\xe5\\xae\\x9a\\xe6\\x81\\xaf\\xe7\\x9f\\xbf\\xe6\\xb1\\xa0-\\xe8\\xbf\\x9b\\xe9\\x98\\xb6.sol\":3269:3277  User_Map */\n      0x05\n        /* \"\\xe5\\xae\\x9a\\xe6\\x81\\xaf\\xe7\\x9f\\xbf\\xe6\\xb1\\xa0-\\xe8\\xbf\\x9b\\xe9\\x98\\xb6.sol\":3269:3289  User_Map[msg.sender] */\n      0x20\n      swap1\n      dup2\n      mstore\n      0x40\n      swap2\n      dup3\n      swap1\n      keccak256\n        /* \"\\xe5\\xae\\x9a\\xe6\\x81\\xaf\\xe7\\x9f\\xbf\\xe6\\xb1\\xa0-\\xe8\\xbf\\x9b\\xe9\\x98\\xb6.sol\":3269:3301  User_Map[msg.sender].whole_ratio */\n      0x03\n      add\n      sload\n        /* \"\\xe5\\xae\\x9a\\xe6\\x81\\xaf\\xe7\\x9f\\xbf\\xe6\\xb1\\xa0-\\xe8\\xbf\\x9b\\xe9\\x98\\xb6.sol\":3248:3302  transfer(msg.sender, User_Map[msg.sender].whole_ratio) */\n      swap2\n      mload\n        /* \"#utility.yul\":553:578   */\n      swap2\n      dup3\n      mstore\n        /* \"\\xe5\\xae\\x9a\\xe6\\x81\\xaf\\xe7\\x9f\\xbf\\xe6\\xb1\\xa0-\\xe8\\xbf\\x9b\\xe9\\x98\\xb6.sol\":3248:3302  transfer(msg.sender, User_Map[msg.sender].whole_ratio) */\n      0xa9059cbb2ab09eb219583f4a59a5d0623ade346d962bcd4e46b11da047c9049b\n      swap2\n        /* \"#utility.yul\":526:544   */\n      add\n        /* \"\\xe5\\xae\\x9a\\xe6\\x81\\xaf\\xe7\\x9f\\xbf\\xe6\\xb1\\xa0-\\xe8\\xbf\\x9b\\xe9\\x98\\xb6.sol\":3248:3302  transfer(msg.sender, User_Map[msg.sender].whole_ratio) */\n      mload(0x40)\n      dup1\n      swap2\n      sub\n      swap1\n      log2\n        /* \"\\xe5\\xae\\x9a\\xe6\\x81\\xaf\\xe7\\x9f\\xbf\\xe6\\xb1\\xa0-\\xe8\\xbf\\x9b\\xe9\\x98\\xb6.sol\":3388:3398  msg.sender */\n      caller\n        /* \"\\xe5\\xae\\x9a\\xe6\\x81\\xaf\\xe7\\x9f\\xbf\\xe6\\xb1\\xa0-\\xe8\\xbf\\x9b\\xe9\\x98\\xb6.sol\":3414:3415  0 */\n      0x00\n        /* \"\\xe5\\xae\\x9a\\xe6\\x81\\xaf\\xe7\\x9f\\xbf\\xe6\\xb1\\xa0-\\xe8\\xbf\\x9b\\xe9\\x98\\xb6.sol\":3379:3399  User_Map[msg.sender] */\n      dup2\n      dup2\n      mstore\n        /* \"\\xe5\\xae\\x9a\\xe6\\x81\\xaf\\xe7\\x9f\\xbf\\xe6\\xb1\\xa0-\\xe8\\xbf\\x9b\\xe9\\x98\\xb6.sol\":3379:3387  User_Map */\n      0x05\n        /* \"\\xe5\\xae\\x9a\\xe6\\x81\\xaf\\xe7\\x9f\\xbf\\xe6\\xb1\\xa0-\\xe8\\xbf\\x9b\\xe9\\x98\\xb6.sol\":3379:3399  User_Map[msg.sender] */\n      0x20\n      mstore\n      0x40\n      dup1\n      dup3\n      keccak256\n        /* \"\\xe5\\xae\\x9a\\xe6\\x81\\xaf\\xe7\\x9f\\xbf\\xe6\\xb1\\xa0-\\xe8\\xbf\\x9b\\xe9\\x98\\xb6.sol\":3379:3411  User_Map[msg.sender].whole_ratio */\n      0x03\n      dup2\n      add\n        /* \"\\xe5\\xae\\x9a\\xe6\\x81\\xaf\\xe7\\x9f\\xbf\\xe6\\xb1\\xa0-\\xe8\\xbf\\x9b\\xe9\\x98\\xb6.sol\":3379:3415  User_Map[msg.sender].whole_ratio = 0 */\n      dup4\n      swap1\n      sstore\n        /* \"\\xe5\\xae\\x9a\\xe6\\x81\\xaf\\xe7\\x9f\\xbf\\xe6\\xb1\\xa0-\\xe8\\xbf\\x9b\\xe9\\x98\\xb6.sol\":3501:3540  User_Map[msg.sender].last_totoken_ratio */\n      0x02\n      dup2\n      add\n        /* \"\\xe5\\xae\\x9a\\xe6\\x81\\xaf\\xe7\\x9f\\xbf\\xe6\\xb1\\xa0-\\xe8\\xbf\\x9b\\xe9\\x98\\xb6.sol\":3501:3544  User_Map[msg.sender].last_totoken_ratio = 0 */\n      swap3\n      swap1\n      swap3\n      sstore\n      0x01\n        /* \"\\xe5\\xae\\x9a\\xe6\\x81\\xaf\\xe7\\x9f\\xbf\\xe6\\xb1\\xa0-\\xe8\\xbf\\x9b\\xe9\\x98\\xb6.sol\":3567:3577  staketoken */\n      sload\n        /* \"\\xe5\\xae\\x9a\\xe6\\x81\\xaf\\xe7\\x9f\\xbf\\xe6\\xb1\\xa0-\\xe8\\xbf\\x9b\\xe9\\x98\\xb6.sol\":3600:3632  User_Map[msg.sender].stakeNumber */\n      swap2\n      sload\n        /* \"\\xe5\\xae\\x9a\\xe6\\x81\\xaf\\xe7\\x9f\\xbf\\xe6\\xb1\\xa0-\\xe8\\xbf\\x9b\\xe9\\x98\\xb6.sol\":3560:3633  IERC20(staketoken).transfer(msg.sender, User_Map[msg.sender].stakeNumber) */\n      swap1\n      mload\n      shl(0xe0, 0xa9059cbb)\n      dup2\n      mstore\n      0x04\n      dup2\n      add\n        /* \"#utility.yul\":2517:2568   */\n      swap4\n      swap1\n      swap4\n      mstore\n        /* \"#utility.yul\":2584:2602   */\n      0x24\n      dup4\n      add\n        /* \"#utility.yul\":2577:2611   */\n      mstore\n      sub(shl(0xa0, 0x01), 0x01)\n        /* \"\\xe5\\xae\\x9a\\xe6\\x81\\xaf\\xe7\\x9f\\xbf\\xe6\\xb1\\xa0-\\xe8\\xbf\\x9b\\xe9\\x98\\xb6.sol\":3567:3577  staketoken */\n      and\n      swap1\n        /* \"\\xe5\\xae\\x9a\\xe6\\x81\\xaf\\xe7\\x9f\\xbf\\xe6\\xb1\\xa0-\\xe8\\xbf\\x9b\\xe9\\x98\\xb6.sol\":3560:3587  IERC20(staketoken).transfer */\n      0xa9059cbb\n      swap1\n        /* \"#utility.yul\":2490:2508   */\n      0x44\n      add\n        /* \"\\xe5\\xae\\x9a\\xe6\\x81\\xaf\\xe7\\x9f\\xbf\\xe6\\xb1\\xa0-\\xe8\\xbf\\x9b\\xe9\\x98\\xb6.sol\":3560:3633  IERC20(staketoken).transfer(msg.sender, User_Map[msg.sender].stakeNumber) */\n      0x20\n      mload(0x40)\n      dup1\n      dup4\n      sub\n      dup2\n      0x00\n      dup8\n      gas\n      call\n      iszero\n      dup1\n      iszero\n      tag_86\n      jumpi\n      returndatasize\n      0x00\n      dup1\n      returndatacopy\n      revert(0x00, returndatasize)\n    tag_86:\n      pop\n      pop\n      pop\n      pop\n      mload(0x40)\n      returndatasize\n      not(0x1f)\n      0x1f\n      dup3\n      add\n      and\n      dup3\n      add\n      dup1\n      0x40\n      mstore\n      pop\n      dup2\n      add\n      swap1\n      tag_87\n      swap2\n      swap1\n      tag_88\n      jump\t// in\n    tag_87:\n      pop\n        /* \"\\xe5\\xae\\x9a\\xe6\\x81\\xaf\\xe7\\x9f\\xbf\\xe6\\xb1\\xa0-\\xe8\\xbf\\x9b\\xe9\\x98\\xb6.sol\":3661:3671  msg.sender */\n      caller\n        /* \"\\xe5\\xae\\x9a\\xe6\\x81\\xaf\\xe7\\x9f\\xbf\\xe6\\xb1\\xa0-\\xe8\\xbf\\x9b\\xe9\\x98\\xb6.sol\":3673:3693  User_Map[msg.sender] */\n      0x00\n      dup2\n      dup2\n      mstore\n        /* \"\\xe5\\xae\\x9a\\xe6\\x81\\xaf\\xe7\\x9f\\xbf\\xe6\\xb1\\xa0-\\xe8\\xbf\\x9b\\xe9\\x98\\xb6.sol\":3673:3681  User_Map */\n      0x05\n        /* \"\\xe5\\xae\\x9a\\xe6\\x81\\xaf\\xe7\\x9f\\xbf\\xe6\\xb1\\xa0-\\xe8\\xbf\\x9b\\xe9\\x98\\xb6.sol\":3673:3693  User_Map[msg.sender] */\n      0x20\n      swap1\n      dup2\n      mstore\n      0x40\n      swap2\n      dup3\n      swap1\n      keccak256\n        /* \"\\xe5\\xae\\x9a\\xe6\\x81\\xaf\\xe7\\x9f\\xbf\\xe6\\xb1\\xa0-\\xe8\\xbf\\x9b\\xe9\\x98\\xb6.sol\":3673:3705  User_Map[msg.sender].stakeNumber */\n      sload\n        /* \"\\xe5\\xae\\x9a\\xe6\\x81\\xaf\\xe7\\x9f\\xbf\\xe6\\xb1\\xa0-\\xe8\\xbf\\x9b\\xe9\\x98\\xb6.sol\":3652:3706  transfer(msg.sender, User_Map[msg.sender].stakeNumber) */\n      swap2\n      mload\n        /* \"#utility.yul\":553:578   */\n      swap2\n      dup3\n      mstore\n        /* \"\\xe5\\xae\\x9a\\xe6\\x81\\xaf\\xe7\\x9f\\xbf\\xe6\\xb1\\xa0-\\xe8\\xbf\\x9b\\xe9\\x98\\xb6.sol\":3652:3706  transfer(msg.sender, User_Map[msg.sender].stakeNumber) */\n      0xa9059cbb2ab09eb219583f4a59a5d0623ade346d962bcd4e46b11da047c9049b\n      swap2\n        /* \"#utility.yul\":526:544   */\n      add\n        /* \"\\xe5\\xae\\x9a\\xe6\\x81\\xaf\\xe7\\x9f\\xbf\\xe6\\xb1\\xa0-\\xe8\\xbf\\x9b\\xe9\\x98\\xb6.sol\":3652:3706  transfer(msg.sender, User_Map[msg.sender].stakeNumber) */\n      mload(0x40)\n      dup1\n      swap2\n      sub\n      swap1\n      log2\n        /* \"\\xe5\\xae\\x9a\\xe6\\x81\\xaf\\xe7\\x9f\\xbf\\xe6\\xb1\\xa0-\\xe8\\xbf\\x9b\\xe9\\x98\\xb6.sol\":3740:3750  msg.sender */\n      caller\n        /* \"\\xe5\\xae\\x9a\\xe6\\x81\\xaf\\xe7\\x9f\\xbf\\xe6\\xb1\\xa0-\\xe8\\xbf\\x9b\\xe9\\x98\\xb6.sol\":3731:3751  User_Map[msg.sender] */\n      0x00\n      swap1\n      dup2\n      mstore\n        /* \"\\xe5\\xae\\x9a\\xe6\\x81\\xaf\\xe7\\x9f\\xbf\\xe6\\xb1\\xa0-\\xe8\\xbf\\x9b\\xe9\\x98\\xb6.sol\":3731:3739  User_Map */\n      0x05\n        /* \"\\xe5\\xae\\x9a\\xe6\\x81\\xaf\\xe7\\x9f\\xbf\\xe6\\xb1\\xa0-\\xe8\\xbf\\x9b\\xe9\\x98\\xb6.sol\":3731:3751  User_Map[msg.sender] */\n      0x20\n      mstore\n      0x40\n      dup2\n      keccak256\n        /* \"\\xe5\\xae\\x9a\\xe6\\x81\\xaf\\xe7\\x9f\\xbf\\xe6\\xb1\\xa0-\\xe8\\xbf\\x9b\\xe9\\x98\\xb6.sol\":3731:3763  User_Map[msg.sender].stakeNumber */\n      sload\n        /* \"\\xe5\\xae\\x9a\\xe6\\x81\\xaf\\xe7\\x9f\\xbf\\xe6\\xb1\\xa0-\\xe8\\xbf\\x9b\\xe9\\x98\\xb6.sol\":3717:3727  staketotal */\n      0x03\n        /* \"\\xe5\\xae\\x9a\\xe6\\x81\\xaf\\xe7\\x9f\\xbf\\xe6\\xb1\\xa0-\\xe8\\xbf\\x9b\\xe9\\x98\\xb6.sol\":3717:3763  staketotal -= User_Map[msg.sender].stakeNumber */\n      dup1\n      sload\n        /* \"\\xe5\\xae\\x9a\\xe6\\x81\\xaf\\xe7\\x9f\\xbf\\xe6\\xb1\\xa0-\\xe8\\xbf\\x9b\\xe9\\x98\\xb6.sol\":3731:3763  User_Map[msg.sender].stakeNumber */\n      swap2\n      swap3\n        /* \"\\xe5\\xae\\x9a\\xe6\\x81\\xaf\\xe7\\x9f\\xbf\\xe6\\xb1\\xa0-\\xe8\\xbf\\x9b\\xe9\\x98\\xb6.sol\":3717:3727  staketotal */\n      swap1\n      swap2\n        /* \"\\xe5\\xae\\x9a\\xe6\\x81\\xaf\\xe7\\x9f\\xbf\\xe6\\xb1\\xa0-\\xe8\\xbf\\x9b\\xe9\\x98\\xb6.sol\":3717:3763  staketotal -= User_Map[msg.sender].stakeNumber */\n      tag_90\n      swap1\n        /* \"\\xe5\\xae\\x9a\\xe6\\x81\\xaf\\xe7\\x9f\\xbf\\xe6\\xb1\\xa0-\\xe8\\xbf\\x9b\\xe9\\x98\\xb6.sol\":3731:3763  User_Map[msg.sender].stakeNumber */\n      dup5\n      swap1\n        /* \"\\xe5\\xae\\x9a\\xe6\\x81\\xaf\\xe7\\x9f\\xbf\\xe6\\xb1\\xa0-\\xe8\\xbf\\x9b\\xe9\\x98\\xb6.sol\":3717:3763  staketotal -= User_Map[msg.sender].stakeNumber */\n      tag_91\n      jump\t// in\n    tag_90:\n      swap1\n      swap2\n      sstore\n      pop\n      pop\n        /* \"\\xe5\\xae\\x9a\\xe6\\x81\\xaf\\xe7\\x9f\\xbf\\xe6\\xb1\\xa0-\\xe8\\xbf\\x9b\\xe9\\x98\\xb6.sol\":3783:3793  msg.sender */\n      caller\n        /* \"\\xe5\\xae\\x9a\\xe6\\x81\\xaf\\xe7\\x9f\\xbf\\xe6\\xb1\\xa0-\\xe8\\xbf\\x9b\\xe9\\x98\\xb6.sol\":3809:3810  0 */\n      0x00\n        /* \"\\xe5\\xae\\x9a\\xe6\\x81\\xaf\\xe7\\x9f\\xbf\\xe6\\xb1\\xa0-\\xe8\\xbf\\x9b\\xe9\\x98\\xb6.sol\":3774:3794  User_Map[msg.sender] */\n      swap1\n      dup2\n      mstore\n        /* \"\\xe5\\xae\\x9a\\xe6\\x81\\xaf\\xe7\\x9f\\xbf\\xe6\\xb1\\xa0-\\xe8\\xbf\\x9b\\xe9\\x98\\xb6.sol\":3774:3782  User_Map */\n      0x05\n        /* \"\\xe5\\xae\\x9a\\xe6\\x81\\xaf\\xe7\\x9f\\xbf\\xe6\\xb1\\xa0-\\xe8\\xbf\\x9b\\xe9\\x98\\xb6.sol\":3774:3794  User_Map[msg.sender] */\n      0x20\n      mstore\n      0x40\n      dup2\n      keccak256\n        /* \"\\xe5\\xae\\x9a\\xe6\\x81\\xaf\\xe7\\x9f\\xbf\\xe6\\xb1\\xa0-\\xe8\\xbf\\x9b\\xe9\\x98\\xb6.sol\":3774:3810  User_Map[msg.sender].stakeNumber = 0 */\n      sstore\n      pop\n        /* \"\\xe5\\xae\\x9a\\xe6\\x81\\xaf\\xe7\\x9f\\xbf\\xe6\\xb1\\xa0-\\xe8\\xbf\\x9b\\xe9\\x98\\xb6.sol\":3837:3841  true */\n      0x01\n      swap1\n        /* \"\\xe5\\xae\\x9a\\xe6\\x81\\xaf\\xe7\\x9f\\xbf\\xe6\\xb1\\xa0-\\xe8\\xbf\\x9b\\xe9\\x98\\xb6.sol\":2713:3849  function harvestwithDraw() public returns (bool) {... */\n      jump\t// out\n        /* \"@openzeppelin/contracts/token/ERC20/utils/SafeERC20.sol\":974:1215  function safeTransferFrom(... */\n    tag_59:\n        /* \"@openzeppelin/contracts/token/ERC20/utils/SafeERC20.sol\":1139:1207  abi.encodeWithSelector(token.transferFrom.selector, from, to, value) */\n      mload(0x40)\n      sub(shl(0xa0, 0x01), 0x01)\n        /* \"#utility.yul\":3292:3307   */\n      dup1\n      dup6\n      and\n        /* \"@openzeppelin/contracts/token/ERC20/utils/SafeERC20.sol\":1139:1207  abi.encodeWithSelector(token.transferFrom.selector, from, to, value) */\n      0x24\n      dup4\n      add\n        /* \"#utility.yul\":3274:3308   */\n      mstore\n        /* \"#utility.yul\":3344:3359   */\n      dup4\n      and\n        /* \"#utility.yul\":3324:3342   */\n      0x44\n      dup3\n      add\n        /* \"#utility.yul\":3317:3360   */\n      mstore\n        /* \"#utility.yul\":3376:3394   */\n      0x64\n      dup2\n      add\n        /* \"#utility.yul\":3369:3403   */\n      dup3\n      swap1\n      mstore\n        /* \"@openzeppelin/contracts/token/ERC20/utils/SafeERC20.sol\":1112:1208  _callOptionalReturn(token, abi.encodeWithSelector(token.transferFrom.selector, from, to, value)) */\n      tag_93\n      swap1\n        /* \"@openzeppelin/contracts/token/ERC20/utils/SafeERC20.sol\":1132:1137  token */\n      dup6\n      swap1\n      shl(0xe0, 0x23b872dd)\n        /* \"@openzeppelin/contracts/token/ERC20/utils/SafeERC20.sol\":1162:1189  token.transferFrom.selector */\n      swap1\n        /* \"#utility.yul\":3209:3227   */\n      0x84\n      add\n        /* \"@openzeppelin/contracts/token/ERC20/utils/SafeERC20.sol\":1139:1207  abi.encodeWithSelector(token.transferFrom.selector, from, to, value) */\n    tag_94:\n      0x40\n      dup1\n      mload\n      not(0x1f)\n      dup2\n      dup5\n      sub\n      add\n      dup2\n      mstore\n      swap2\n      swap1\n      mstore\n      0x20\n      dup2\n      add\n      dup1\n      mload\n      sub(shl(0xe0, 0x01), 0x01)\n      and\n      not(sub(shl(0xe0, 0x01), 0x01))\n      swap1\n      swap4\n      and\n      swap3\n      swap1\n      swap3\n      or\n      swap1\n      swap2\n      mstore\n        /* \"@openzeppelin/contracts/token/ERC20/utils/SafeERC20.sol\":1112:1131  _callOptionalReturn */\n      tag_96\n        /* \"@openzeppelin/contracts/token/ERC20/utils/SafeERC20.sol\":1112:1208  _callOptionalReturn(token, abi.encodeWithSelector(token.transferFrom.selector, from, to, value)) */\n      jump\t// in\n    tag_93:\n        /* \"@openzeppelin/contracts/token/ERC20/utils/SafeERC20.sol\":974:1215  function safeTransferFrom(... */\n      pop\n      pop\n      pop\n      pop\n      jump\t// out\n        /* \"safeMath/safemath.sol\":327:455  function mul(uint a, uint b) internal pure returns (uint c) {... */\n    tag_64:\n        /* \"safeMath/safemath.sol\":379:385  uint c */\n      0x00\n        /* \"safeMath/safemath.sol\":402:407  a * b */\n      tag_98\n        /* \"safeMath/safemath.sol\":406:407  b */\n      dup3\n        /* \"safeMath/safemath.sol\":402:403  a */\n      dup5\n        /* \"safeMath/safemath.sol\":402:407  a * b */\n      tag_99\n      jump\t// in\n    tag_98:\n        /* \"safeMath/safemath.sol\":398:407  c = a * b */\n      swap1\n      pop\n        /* \"safeMath/safemath.sol\":426:432  a == 0 */\n      dup3\n      iszero\n      dup1\n        /* \"safeMath/safemath.sol\":426:446  a == 0 || c / a == b */\n      tag_100\n      jumpi\n      pop\n        /* \"safeMath/safemath.sol\":445:446  b */\n      dup2\n        /* \"safeMath/safemath.sol\":436:441  c / a */\n      tag_101\n        /* \"safeMath/safemath.sol\":440:441  a */\n      dup5\n        /* \"safeMath/safemath.sol\":436:437  c */\n      dup4\n        /* \"safeMath/safemath.sol\":436:441  c / a */\n      tag_102\n      jump\t// in\n    tag_101:\n        /* \"safeMath/safemath.sol\":436:446  c / a == b */\n      eq\n        /* \"safeMath/safemath.sol\":426:446  a == 0 || c / a == b */\n    tag_100:\n        /* \"safeMath/safemath.sol\":418:447  require(a == 0 || c / a == b) */\n      tag_103\n      jumpi\n      0x00\n      dup1\n      revert\n    tag_103:\n        /* \"safeMath/safemath.sol\":327:455  function mul(uint a, uint b) internal pure returns (uint c) {... */\n      swap3\n      swap2\n      pop\n      pop\n      jump\t// out\n        /* \"safeMath/safemath.sol\":461:574  function div(uint a, uint b) internal pure returns (uint c) {... */\n    tag_65:\n        /* \"safeMath/safemath.sol\":513:519  uint c */\n      0x00\n        /* \"safeMath/safemath.sol\":544:545  0 */\n      dup1\n        /* \"safeMath/safemath.sol\":540:541  b */\n      dup3\n        /* \"safeMath/safemath.sol\":540:545  b > 0 */\n      gt\n        /* \"safeMath/safemath.sol\":532:546  require(b > 0) */\n      tag_105\n      jumpi\n      0x00\n      dup1\n      revert\n    tag_105:\n        /* \"safeMath/safemath.sol\":561:566  a / b */\n      tag_106\n        /* \"safeMath/safemath.sol\":565:566  b */\n      dup3\n        /* \"safeMath/safemath.sol\":561:562  a */\n      dup5\n        /* \"safeMath/safemath.sol\":561:566  a / b */\n      tag_102\n      jump\t// in\n    tag_106:\n        /* \"safeMath/safemath.sol\":557:566  c = a / b */\n      swap4\n        /* \"safeMath/safemath.sol\":461:574  function div(uint a, uint b) internal pure returns (uint c) {... */\n      swap3\n      pop\n      pop\n      pop\n      jump\t// out\n        /* \"safeMath/safemath.sol\":207:321  function sub(uint a, uint b) internal pure returns (uint c) {... */\n    tag_67:\n        /* \"safeMath/safemath.sol\":259:265  uint c */\n      0x00\n        /* \"safeMath/safemath.sol\":291:292  a */\n      dup3\n        /* \"safeMath/safemath.sol\":286:287  b */\n      dup3\n        /* \"safeMath/safemath.sol\":286:292  b <= a */\n      gt\n      iszero\n        /* \"safeMath/safemath.sol\":278:293  require(b <= a) */\n      tag_108\n      jumpi\n      0x00\n      dup1\n      revert\n    tag_108:\n        /* \"safeMath/safemath.sol\":308:313  a - b */\n      tag_106\n        /* \"safeMath/safemath.sol\":312:313  b */\n      dup3\n        /* \"safeMath/safemath.sol\":308:309  a */\n      dup5\n        /* \"safeMath/safemath.sol\":308:313  a - b */\n      tag_91\n      jump\t// in\n        /* \"safeMath/safemath.sol\":87:201  function add(uint a, uint b) internal pure returns (uint c) {... */\n    tag_79:\n        /* \"safeMath/safemath.sol\":139:145  uint c */\n      0x00\n        /* \"safeMath/safemath.sol\":162:167  a + b */\n      tag_111\n        /* \"safeMath/safemath.sol\":166:167  b */\n      dup3\n        /* \"safeMath/safemath.sol\":162:163  a */\n      dup5\n        /* \"safeMath/safemath.sol\":162:167  a + b */\n      tag_69\n      jump\t// in\n    tag_111:\n        /* \"safeMath/safemath.sol\":158:167  c = a + b */\n      swap1\n      pop\n        /* \"safeMath/safemath.sol\":191:192  a */\n      dup3\n        /* \"safeMath/safemath.sol\":186:187  c */\n      dup2\n        /* \"safeMath/safemath.sol\":186:192  c >= a */\n      lt\n      iszero\n        /* \"safeMath/safemath.sol\":178:193  require(c >= a) */\n      tag_103\n      jumpi\n      0x00\n      dup1\n      revert\n        /* \"@openzeppelin/contracts/token/ERC20/utils/SafeERC20.sol\":763:968  function safeTransfer(... */\n    tag_81:\n        /* \"@openzeppelin/contracts/token/ERC20/utils/SafeERC20.sol\":902:960  abi.encodeWithSelector(token.transfer.selector, to, value) */\n      mload(0x40)\n      sub(shl(0xa0, 0x01), 0x01)\n        /* \"#utility.yul\":2535:2567   */\n      dup4\n      and\n        /* \"@openzeppelin/contracts/token/ERC20/utils/SafeERC20.sol\":902:960  abi.encodeWithSelector(token.transfer.selector, to, value) */\n      0x24\n      dup3\n      add\n        /* \"#utility.yul\":2517:2568   */\n      mstore\n        /* \"#utility.yul\":2584:2602   */\n      0x44\n      dup2\n      add\n        /* \"#utility.yul\":2577:2611   */\n      dup3\n      swap1\n      mstore\n        /* \"@openzeppelin/contracts/token/ERC20/utils/SafeERC20.sol\":875:961  _callOptionalReturn(token, abi.encodeWithSelector(token.transfer.selector, to, value)) */\n      tag_114\n      swap1\n        /* \"@openzeppelin/contracts/token/ERC20/utils/SafeERC20.sol\":895:900  token */\n      dup5\n      swap1\n      shl(0xe0, 0xa9059cbb)\n        /* \"@openzeppelin/contracts/token/ERC20/utils/SafeERC20.sol\":925:948  token.transfer.selector */\n      swap1\n        /* \"#utility.yul\":2490:2508   */\n      0x64\n      add\n        /* \"@openzeppelin/contracts/token/ERC20/utils/SafeERC20.sol\":902:960  abi.encodeWithSelector(token.transfer.selector, to, value) */\n      tag_94\n        /* \"#utility.yul\":2343:2617   */\n      jump\n        /* \"@openzeppelin/contracts/token/ERC20/utils/SafeERC20.sol\":875:961  _callOptionalReturn(token, abi.encodeWithSelector(token.transfer.selector, to, value)) */\n    tag_114:\n        /* \"@openzeppelin/contracts/token/ERC20/utils/SafeERC20.sol\":763:968  function safeTransfer(... */\n      pop\n      pop\n      pop\n      jump\t// out\n        /* \"@openzeppelin/contracts/token/ERC20/utils/SafeERC20.sol\":3747:4453  function _callOptionalReturn(IERC20 token, bytes memory data) private {... */\n    tag_96:\n        /* \"@openzeppelin/contracts/token/ERC20/utils/SafeERC20.sol\":4166:4189  bytes memory returndata */\n      0x00\n        /* \"@openzeppelin/contracts/token/ERC20/utils/SafeERC20.sol\":4192:4261  address(token).functionCall(data, \"SafeERC20: low-level call failed\") */\n      tag_117\n        /* \"@openzeppelin/contracts/token/ERC20/utils/SafeERC20.sol\":4220:4224  data */\n      dup3\n        /* \"@openzeppelin/contracts/token/ERC20/utils/SafeERC20.sol\":4192:4261  address(token).functionCall(data, \"SafeERC20: low-level call failed\") */\n      mload(0x40)\n      dup1\n      0x40\n      add\n      0x40\n      mstore\n      dup1\n      0x20\n      dup2\n      mstore\n      0x20\n      add\n      0x5361666545524332303a206c6f772d6c6576656c2063616c6c206661696c6564\n      dup2\n      mstore\n      pop\n        /* \"@openzeppelin/contracts/token/ERC20/utils/SafeERC20.sol\":4200:4205  token */\n      dup6\n      sub(shl(0xa0, 0x01), 0x01)\n        /* \"@openzeppelin/contracts/token/ERC20/utils/SafeERC20.sol\":4192:4219  address(token).functionCall */\n      and\n      tag_118\n      swap1\n        /* \"@openzeppelin/contracts/token/ERC20/utils/SafeERC20.sol\":4192:4261  address(token).functionCall(data, \"SafeERC20: low-level call failed\") */\n      swap3\n      swap2\n      swap1\n      0xffffffff\n      and\n      jump\t// in\n    tag_117:\n        /* \"@openzeppelin/contracts/token/ERC20/utils/SafeERC20.sol\":4275:4292  returndata.length */\n      dup1\n      mload\n        /* \"@openzeppelin/contracts/token/ERC20/utils/SafeERC20.sol\":4166:4261  bytes memory returndata = address(token).functionCall(data, \"SafeERC20: low-level call failed\") */\n      swap1\n      swap2\n      pop\n        /* \"@openzeppelin/contracts/token/ERC20/utils/SafeERC20.sol\":4275:4296  returndata.length > 0 */\n      iszero\n        /* \"@openzeppelin/contracts/token/ERC20/utils/SafeERC20.sol\":4271:4447  if (returndata.length > 0) {... */\n      tag_114\n      jumpi\n        /* \"@openzeppelin/contracts/token/ERC20/utils/SafeERC20.sol\":4370:4380  returndata */\n      dup1\n        /* \"@openzeppelin/contracts/token/ERC20/utils/SafeERC20.sol\":4359:4389  abi.decode(returndata, (bool)) */\n      dup1\n      0x20\n      add\n      swap1\n      mload\n      dup2\n      add\n      swap1\n      tag_120\n      swap2\n      swap1\n      tag_88\n      jump\t// in\n    tag_120:\n        /* \"@openzeppelin/contracts/token/ERC20/utils/SafeERC20.sol\":4351:4436  require(abi.decode(returndata, (bool)), \"SafeERC20: ERC20 operation did not succeed\") */\n      tag_114\n      jumpi\n      mload(0x40)\n      shl(0xe5, 0x461bcd)\n      dup2\n      mstore\n        /* \"#utility.yul\":4011:4013   */\n      0x20\n        /* \"@openzeppelin/contracts/token/ERC20/utils/SafeERC20.sol\":4351:4436  require(abi.decode(returndata, (bool)), \"SafeERC20: ERC20 operation did not succeed\") */\n      0x04\n      dup3\n      add\n        /* \"#utility.yul\":3993:4014   */\n      mstore\n        /* \"#utility.yul\":4050:4052   */\n      0x2a\n        /* \"#utility.yul\":4030:4048   */\n      0x24\n      dup3\n      add\n        /* \"#utility.yul\":4023:4053   */\n      mstore\n        /* \"#utility.yul\":4089:4123   */\n      0x5361666545524332303a204552433230206f7065726174696f6e20646964206e\n        /* \"#utility.yul\":4069:4087   */\n      0x44\n      dup3\n      add\n        /* \"#utility.yul\":4062:4124   */\n      mstore\n      shl(0xb2, 0x1bdd081cdd58d8d95959)\n        /* \"#utility.yul\":4140:4158   */\n      0x64\n      dup3\n      add\n        /* \"#utility.yul\":4133:4173   */\n      mstore\n        /* \"#utility.yul\":4190:4209   */\n      0x84\n      add\n        /* \"@openzeppelin/contracts/token/ERC20/utils/SafeERC20.sol\":4351:4436  require(abi.decode(returndata, (bool)), \"SafeERC20: ERC20 operation did not succeed\") */\n      tag_56\n        /* \"#utility.yul\":3809:4215   */\n      jump\n        /* \"@openzeppelin/contracts/utils/Address.sol\":3861:4084  function functionCall(... */\n    tag_118:\n        /* \"@openzeppelin/contracts/utils/Address.sol\":3994:4006  bytes memory */\n      0x60\n        /* \"@openzeppelin/contracts/utils/Address.sol\":4025:4077  functionCallWithValue(target, data, 0, errorMessage) */\n      tag_125\n        /* \"@openzeppelin/contracts/utils/Address.sol\":4047:4053  target */\n      dup5\n        /* \"@openzeppelin/contracts/utils/Address.sol\":4055:4059  data */\n      dup5\n        /* \"@openzeppelin/contracts/utils/Address.sol\":4061:4062  0 */\n      0x00\n        /* \"@openzeppelin/contracts/utils/Address.sol\":4064:4076  errorMessage */\n      dup6\n        /* \"@openzeppelin/contracts/utils/Address.sol\":4025:4046  functionCallWithValue */\n      tag_126\n        /* \"@openzeppelin/contracts/utils/Address.sol\":4025:4077  functionCallWithValue(target, data, 0, errorMessage) */\n      jump\t// in\n    tag_125:\n        /* \"@openzeppelin/contracts/utils/Address.sol\":4018:4077  return functionCallWithValue(target, data, 0, errorMessage) */\n      swap5\n        /* \"@openzeppelin/contracts/utils/Address.sol\":3861:4084  function functionCall(... */\n      swap4\n      pop\n      pop\n      pop\n      pop\n      jump\t// out\n        /* \"@openzeppelin/contracts/utils/Address.sol\":4948:5447  function functionCallWithValue(... */\n    tag_126:\n        /* \"@openzeppelin/contracts/utils/Address.sol\":5113:5125  bytes memory */\n      0x60\n        /* \"@openzeppelin/contracts/utils/Address.sol\":5170:5175  value */\n      dup3\n        /* \"@openzeppelin/contracts/utils/Address.sol\":5145:5166  address(this).balance */\n      selfbalance\n        /* \"@openzeppelin/contracts/utils/Address.sol\":5145:5175  address(this).balance >= value */\n      lt\n      iszero\n        /* \"@openzeppelin/contracts/utils/Address.sol\":5137:5218  require(address(this).balance >= value, \"Address: insufficient balance for call\") */\n      tag_128\n      jumpi\n      mload(0x40)\n      shl(0xe5, 0x461bcd)\n      dup2\n      mstore\n        /* \"#utility.yul\":4422:4424   */\n      0x20\n        /* \"@openzeppelin/contracts/utils/Address.sol\":5137:5218  require(address(this).balance >= value, \"Address: insufficient balance for call\") */\n      0x04\n      dup3\n      add\n        /* \"#utility.yul\":4404:4425   */\n      mstore\n        /* \"#utility.yul\":4461:4463   */\n      0x26\n        /* \"#utility.yul\":4441:4459   */\n      0x24\n      dup3\n      add\n        /* \"#utility.yul\":4434:4464   */\n      mstore\n        /* \"#utility.yul\":4500:4534   */\n      0x416464726573733a20696e73756666696369656e742062616c616e636520666f\n        /* \"#utility.yul\":4480:4498   */\n      0x44\n      dup3\n      add\n        /* \"#utility.yul\":4473:4535   */\n      mstore\n      shl(0xd2, 0x1c8818d85b1b)\n        /* \"#utility.yul\":4551:4569   */\n      0x64\n      dup3\n      add\n        /* \"#utility.yul\":4544:4580   */\n      mstore\n        /* \"#utility.yul\":4597:4616   */\n      0x84\n      add\n        /* \"@openzeppelin/contracts/utils/Address.sol\":5137:5218  require(address(this).balance >= value, \"Address: insufficient balance for call\") */\n      tag_56\n        /* \"#utility.yul\":4220:4622   */\n      jump\n        /* \"@openzeppelin/contracts/utils/Address.sol\":5137:5218  require(address(this).balance >= value, \"Address: insufficient balance for call\") */\n    tag_128:\n      sub(shl(0xa0, 0x01), 0x01)\n        /* \"@openzeppelin/contracts/utils/Address.sol\":1465:1484  account.code.length */\n      dup6\n      and\n      extcodesize\n        /* \"@openzeppelin/contracts/utils/Address.sol\":5228:5288  require(isContract(target), \"Address: call to non-contract\") */\n      tag_133\n      jumpi\n      mload(0x40)\n      shl(0xe5, 0x461bcd)\n      dup2\n      mstore\n        /* \"#utility.yul\":4829:4831   */\n      0x20\n        /* \"@openzeppelin/contracts/utils/Address.sol\":5228:5288  require(isContract(target), \"Address: call to non-contract\") */\n      0x04\n      dup3\n      add\n        /* \"#utility.yul\":4811:4832   */\n      mstore\n        /* \"#utility.yul\":4868:4870   */\n      0x1d\n        /* \"#utility.yul\":4848:4866   */\n      0x24\n      dup3\n      add\n        /* \"#utility.yul\":4841:4871   */\n      mstore\n        /* \"#utility.yul\":4907:4938   */\n      0x416464726573733a2063616c6c20746f206e6f6e2d636f6e7472616374000000\n        /* \"#utility.yul\":4887:4905   */\n      0x44\n      dup3\n      add\n        /* \"#utility.yul\":4880:4939   */\n      mstore\n        /* \"#utility.yul\":4956:4974   */\n      0x64\n      add\n        /* \"@openzeppelin/contracts/utils/Address.sol\":5228:5288  require(isContract(target), \"Address: call to non-contract\") */\n      tag_56\n        /* \"#utility.yul\":4627:4980   */\n      jump\n        /* \"@openzeppelin/contracts/utils/Address.sol\":5228:5288  require(isContract(target), \"Address: call to non-contract\") */\n    tag_133:\n        /* \"@openzeppelin/contracts/utils/Address.sol\":5300:5312  bool success */\n      0x00\n        /* \"@openzeppelin/contracts/utils/Address.sol\":5314:5337  bytes memory returndata */\n      dup1\n        /* \"@openzeppelin/contracts/utils/Address.sol\":5341:5347  target */\n      dup7\n      sub(shl(0xa0, 0x01), 0x01)\n        /* \"@openzeppelin/contracts/utils/Address.sol\":5341:5352  target.call */\n      and\n        /* \"@openzeppelin/contracts/utils/Address.sol\":5360:5365  value */\n      dup6\n        /* \"@openzeppelin/contracts/utils/Address.sol\":5367:5371  data */\n      dup8\n        /* \"@openzeppelin/contracts/utils/Address.sol\":5341:5372  target.call{value: value}(data) */\n      mload(0x40)\n      tag_136\n      swap2\n      swap1\n      tag_137\n      jump\t// in\n    tag_136:\n      0x00\n      mload(0x40)\n      dup1\n      dup4\n      sub\n      dup2\n      dup6\n      dup8\n      gas\n      call\n      swap3\n      pop\n      pop\n      pop\n      returndatasize\n      dup1\n      0x00\n      dup2\n      eq\n      tag_140\n      jumpi\n      mload(0x40)\n      swap2\n      pop\n      and(add(returndatasize, 0x3f), not(0x1f))\n      dup3\n      add\n      0x40\n      mstore\n      returndatasize\n      dup3\n      mstore\n      returndatasize\n      0x00\n      0x20\n      dup5\n      add\n      returndatacopy\n      jump(tag_139)\n    tag_140:\n      0x60\n      swap2\n      pop\n    tag_139:\n      pop\n        /* \"@openzeppelin/contracts/utils/Address.sol\":5299:5372  (bool success, bytes memory returndata) = target.call{value: value}(data) */\n      swap2\n      pop\n      swap2\n      pop\n        /* \"@openzeppelin/contracts/utils/Address.sol\":5389:5440  verifyCallResult(success, returndata, errorMessage) */\n      tag_141\n        /* \"@openzeppelin/contracts/utils/Address.sol\":5406:5413  success */\n      dup3\n        /* \"@openzeppelin/contracts/utils/Address.sol\":5415:5425  returndata */\n      dup3\n        /* \"@openzeppelin/contracts/utils/Address.sol\":5427:5439  errorMessage */\n      dup7\n        /* \"@openzeppelin/contracts/utils/Address.sol\":5389:5405  verifyCallResult */\n      tag_142\n        /* \"@openzeppelin/contracts/utils/Address.sol\":5389:5440  verifyCallResult(success, returndata, errorMessage) */\n      jump\t// in\n    tag_141:\n        /* \"@openzeppelin/contracts/utils/Address.sol\":5382:5440  return verifyCallResult(success, returndata, errorMessage) */\n      swap8\n        /* \"@openzeppelin/contracts/utils/Address.sol\":4948:5447  function functionCallWithValue(... */\n      swap7\n      pop\n      pop\n      pop\n      pop\n      pop\n      pop\n      pop\n      jump\t// out\n        /* \"@openzeppelin/contracts/utils/Address.sol\":7561:8303  function verifyCallResult(... */\n    tag_142:\n        /* \"@openzeppelin/contracts/utils/Address.sol\":7707:7719  bytes memory */\n      0x60\n        /* \"@openzeppelin/contracts/utils/Address.sol\":7735:7742  success */\n      dup4\n        /* \"@openzeppelin/contracts/utils/Address.sol\":7731:8297  if (success) {... */\n      iszero\n      tag_145\n      jumpi\n      pop\n        /* \"@openzeppelin/contracts/utils/Address.sol\":7765:7775  returndata */\n      dup2\n        /* \"@openzeppelin/contracts/utils/Address.sol\":7758:7775  return returndata */\n      jump(tag_106)\n        /* \"@openzeppelin/contracts/utils/Address.sol\":7731:8297  if (success) {... */\n    tag_145:\n        /* \"@openzeppelin/contracts/utils/Address.sol\":7876:7893  returndata.length */\n      dup3\n      mload\n        /* \"@openzeppelin/contracts/utils/Address.sol\":7876:7897  returndata.length > 0 */\n      iszero\n        /* \"@openzeppelin/contracts/utils/Address.sol\":7872:8287  if (returndata.length > 0) {... */\n      tag_147\n      jumpi\n        /* \"@openzeppelin/contracts/utils/Address.sol\":8120:8130  returndata */\n      dup3\n        /* \"@openzeppelin/contracts/utils/Address.sol\":8114:8131  mload(returndata) */\n      mload\n        /* \"@openzeppelin/contracts/utils/Address.sol\":8180:8195  returndata_size */\n      dup1\n        /* \"@openzeppelin/contracts/utils/Address.sol\":8167:8177  returndata */\n      dup5\n        /* \"@openzeppelin/contracts/utils/Address.sol\":8163:8165  32 */\n      0x20\n        /* \"@openzeppelin/contracts/utils/Address.sol\":8159:8178  add(32, returndata) */\n      add\n        /* \"@openzeppelin/contracts/utils/Address.sol\":8152:8196  revert(add(32, returndata), returndata_size) */\n      revert\n        /* \"@openzeppelin/contracts/utils/Address.sol\":7872:8287  if (returndata.length > 0) {... */\n    tag_147:\n        /* \"@openzeppelin/contracts/utils/Address.sol\":8259:8271  errorMessage */\n      dup2\n        /* \"@openzeppelin/contracts/utils/Address.sol\":8252:8272  revert(errorMessage) */\n      mload(0x40)\n      shl(0xe5, 0x461bcd)\n      dup2\n      mstore\n      0x04\n      add\n      tag_56\n      swap2\n      swap1\n      tag_150\n      jump\t// in\n        /* \"#utility.yul\":14:194   */\n    tag_15:\n        /* \"#utility.yul\":73:79   */\n      0x00\n        /* \"#utility.yul\":126:128   */\n      0x20\n        /* \"#utility.yul\":114:123   */\n      dup3\n        /* \"#utility.yul\":105:112   */\n      dup5\n        /* \"#utility.yul\":101:124   */\n      sub\n        /* \"#utility.yul\":97:129   */\n      slt\n        /* \"#utility.yul\":94:146   */\n      iszero\n      tag_155\n      jumpi\n        /* \"#utility.yul\":142:143   */\n      0x00\n        /* \"#utility.yul\":139:140   */\n      dup1\n        /* \"#utility.yul\":132:144   */\n      revert\n        /* \"#utility.yul\":94:146   */\n    tag_155:\n      pop\n        /* \"#utility.yul\":165:188   */\n      calldataload\n      swap2\n        /* \"#utility.yul\":14:194   */\n      swap1\n      pop\n      jump\t// out\n        /* \"#utility.yul\":589:875   */\n    tag_27:\n        /* \"#utility.yul\":648:654   */\n      0x00\n        /* \"#utility.yul\":701:703   */\n      0x20\n        /* \"#utility.yul\":689:698   */\n      dup3\n        /* \"#utility.yul\":680:687   */\n      dup5\n        /* \"#utility.yul\":676:699   */\n      sub\n        /* \"#utility.yul\":672:704   */\n      slt\n        /* \"#utility.yul\":669:721   */\n      iszero\n      tag_159\n      jumpi\n        /* \"#utility.yul\":717:718   */\n      0x00\n        /* \"#utility.yul\":714:715   */\n      dup1\n        /* \"#utility.yul\":707:719   */\n      revert\n        /* \"#utility.yul\":669:721   */\n    tag_159:\n        /* \"#utility.yul\":743:766   */\n      dup2\n      calldataload\n      sub(shl(0xa0, 0x01), 0x01)\n        /* \"#utility.yul\":795:826   */\n      dup2\n      and\n        /* \"#utility.yul\":785:827   */\n      dup2\n      eq\n        /* \"#utility.yul\":775:845   */\n      tag_106\n      jumpi\n        /* \"#utility.yul\":841:842   */\n      0x00\n        /* \"#utility.yul\":838:839   */\n      dup1\n        /* \"#utility.yul\":831:843   */\n      revert\n        /* \"#utility.yul\":1540:1724   */\n    tag_54:\n        /* \"#utility.yul\":1610:1616   */\n      0x00\n        /* \"#utility.yul\":1663:1665   */\n      0x20\n        /* \"#utility.yul\":1651:1660   */\n      dup3\n        /* \"#utility.yul\":1642:1649   */\n      dup5\n        /* \"#utility.yul\":1638:1661   */\n      sub\n        /* \"#utility.yul\":1634:1666   */\n      slt\n        /* \"#utility.yul\":1631:1683   */\n      iszero\n      tag_164\n      jumpi\n        /* \"#utility.yul\":1679:1680   */\n      0x00\n        /* \"#utility.yul\":1676:1677   */\n      dup1\n        /* \"#utility.yul\":1669:1681   */\n      revert\n        /* \"#utility.yul\":1631:1683   */\n    tag_164:\n      pop\n        /* \"#utility.yul\":1702:1718   */\n      mload\n      swap2\n        /* \"#utility.yul\":1540:1724   */\n      swap1\n      pop\n      jump\t// out\n        /* \"#utility.yul\":2078:2205   */\n    tag_151:\n        /* \"#utility.yul\":2139:2149   */\n      0x4e487b71\n        /* \"#utility.yul\":2134:2137   */\n      0xe0\n        /* \"#utility.yul\":2130:2150   */\n      shl\n        /* \"#utility.yul\":2127:2128   */\n      0x00\n        /* \"#utility.yul\":2120:2151   */\n      mstore\n        /* \"#utility.yul\":2170:2174   */\n      0x11\n        /* \"#utility.yul\":2167:2168   */\n      0x04\n        /* \"#utility.yul\":2160:2175   */\n      mstore\n        /* \"#utility.yul\":2194:2198   */\n      0x24\n        /* \"#utility.yul\":2191:2192   */\n      0x00\n        /* \"#utility.yul\":2184:2199   */\n      revert\n        /* \"#utility.yul\":2210:2338   */\n    tag_69:\n        /* \"#utility.yul\":2250:2253   */\n      0x00\n        /* \"#utility.yul\":2281:2282   */\n      dup3\n        /* \"#utility.yul\":2277:2283   */\n      not\n        /* \"#utility.yul\":2274:2275   */\n      dup3\n        /* \"#utility.yul\":2271:2284   */\n      gt\n        /* \"#utility.yul\":2268:2307   */\n      iszero\n      tag_169\n      jumpi\n        /* \"#utility.yul\":2287:2305   */\n      tag_169\n      tag_151\n      jump\t// in\n    tag_169:\n      pop\n        /* \"#utility.yul\":2323:2332   */\n      add\n      swap1\n        /* \"#utility.yul\":2210:2338   */\n      jump\t// out\n        /* \"#utility.yul\":2622:2899   */\n    tag_88:\n        /* \"#utility.yul\":2689:2695   */\n      0x00\n        /* \"#utility.yul\":2742:2744   */\n      0x20\n        /* \"#utility.yul\":2730:2739   */\n      dup3\n        /* \"#utility.yul\":2721:2728   */\n      dup5\n        /* \"#utility.yul\":2717:2740   */\n      sub\n        /* \"#utility.yul\":2713:2745   */\n      slt\n        /* \"#utility.yul\":2710:2762   */\n      iszero\n      tag_172\n      jumpi\n        /* \"#utility.yul\":2758:2759   */\n      0x00\n        /* \"#utility.yul\":2755:2756   */\n      dup1\n        /* \"#utility.yul\":2748:2760   */\n      revert\n        /* \"#utility.yul\":2710:2762   */\n    tag_172:\n        /* \"#utility.yul\":2790:2799   */\n      dup2\n        /* \"#utility.yul\":2784:2800   */\n      mload\n        /* \"#utility.yul\":2843:2848   */\n      dup1\n        /* \"#utility.yul\":2836:2849   */\n      iszero\n        /* \"#utility.yul\":2829:2850   */\n      iszero\n        /* \"#utility.yul\":2822:2827   */\n      dup2\n        /* \"#utility.yul\":2819:2851   */\n      eq\n        /* \"#utility.yul\":2809:2869   */\n      tag_106\n      jumpi\n        /* \"#utility.yul\":2865:2866   */\n      0x00\n        /* \"#utility.yul\":2862:2863   */\n      dup1\n        /* \"#utility.yul\":2855:2867   */\n      revert\n        /* \"#utility.yul\":2904:3029   */\n    tag_91:\n        /* \"#utility.yul\":2944:2948   */\n      0x00\n        /* \"#utility.yul\":2972:2973   */\n      dup3\n        /* \"#utility.yul\":2969:2970   */\n      dup3\n        /* \"#utility.yul\":2966:2974   */\n      lt\n        /* \"#utility.yul\":2963:2997   */\n      iszero\n      tag_176\n      jumpi\n        /* \"#utility.yul\":2977:2995   */\n      tag_176\n      tag_151\n      jump\t// in\n    tag_176:\n      pop\n        /* \"#utility.yul\":3014:3023   */\n      sub\n      swap1\n        /* \"#utility.yul\":2904:3029   */\n      jump\t// out\n        /* \"#utility.yul\":3414:3582   */\n    tag_99:\n        /* \"#utility.yul\":3454:3461   */\n      0x00\n        /* \"#utility.yul\":3520:3521   */\n      dup2\n        /* \"#utility.yul\":3516:3517   */\n      0x00\n        /* \"#utility.yul\":3512:3518   */\n      not\n        /* \"#utility.yul\":3508:3522   */\n      div\n        /* \"#utility.yul\":3505:3506   */\n      dup4\n        /* \"#utility.yul\":3502:3523   */\n      gt\n        /* \"#utility.yul\":3497:3498   */\n      dup3\n        /* \"#utility.yul\":3490:3499   */\n      iszero\n        /* \"#utility.yul\":3483:3500   */\n      iszero\n        /* \"#utility.yul\":3479:3524   */\n      and\n        /* \"#utility.yul\":3476:3547   */\n      iszero\n      tag_180\n      jumpi\n        /* \"#utility.yul\":3527:3545   */\n      tag_180\n      tag_151\n      jump\t// in\n    tag_180:\n      pop\n        /* \"#utility.yul\":3567:3576   */\n      mul\n      swap1\n        /* \"#utility.yul\":3414:3582   */\n      jump\t// out\n        /* \"#utility.yul\":3587:3804   */\n    tag_102:\n        /* \"#utility.yul\":3627:3628   */\n      0x00\n        /* \"#utility.yul\":3653:3654   */\n      dup3\n        /* \"#utility.yul\":3643:3775   */\n      tag_182\n      jumpi\n        /* \"#utility.yul\":3697:3707   */\n      0x4e487b71\n        /* \"#utility.yul\":3692:3695   */\n      0xe0\n        /* \"#utility.yul\":3688:3708   */\n      shl\n        /* \"#utility.yul\":3685:3686   */\n      0x00\n        /* \"#utility.yul\":3678:3709   */\n      mstore\n        /* \"#utility.yul\":3732:3736   */\n      0x12\n        /* \"#utility.yul\":3729:3730   */\n      0x04\n        /* \"#utility.yul\":3722:3737   */\n      mstore\n        /* \"#utility.yul\":3760:3764   */\n      0x24\n        /* \"#utility.yul\":3757:3758   */\n      0x00\n        /* \"#utility.yul\":3750:3765   */\n      revert\n        /* \"#utility.yul\":3643:3775   */\n    tag_182:\n      pop\n        /* \"#utility.yul\":3789:3798   */\n      div\n      swap1\n        /* \"#utility.yul\":3587:3804   */\n      jump\t// out\n        /* \"#utility.yul\":4985:5243   */\n    tag_152:\n        /* \"#utility.yul\":5057:5058   */\n      0x00\n        /* \"#utility.yul\":5067:5180   */\n    tag_187:\n        /* \"#utility.yul\":5081:5087   */\n      dup4\n        /* \"#utility.yul\":5078:5079   */\n      dup2\n        /* \"#utility.yul\":5075:5088   */\n      lt\n        /* \"#utility.yul\":5067:5180   */\n      iszero\n      tag_189\n      jumpi\n        /* \"#utility.yul\":5157:5168   */\n      dup2\n      dup2\n      add\n        /* \"#utility.yul\":5151:5169   */\n      mload\n        /* \"#utility.yul\":5138:5149   */\n      dup4\n      dup3\n      add\n        /* \"#utility.yul\":5131:5170   */\n      mstore\n        /* \"#utility.yul\":5103:5105   */\n      0x20\n        /* \"#utility.yul\":5096:5106   */\n      add\n        /* \"#utility.yul\":5067:5180   */\n      jump(tag_187)\n    tag_189:\n        /* \"#utility.yul\":5198:5204   */\n      dup4\n        /* \"#utility.yul\":5195:5196   */\n      dup2\n        /* \"#utility.yul\":5192:5205   */\n      gt\n        /* \"#utility.yul\":5189:5237   */\n      iszero\n      tag_93\n      jumpi\n      pop\n      pop\n        /* \"#utility.yul\":5233:5234   */\n      0x00\n        /* \"#utility.yul\":5215:5231   */\n      swap2\n      add\n        /* \"#utility.yul\":5208:5235   */\n      mstore\n        /* \"#utility.yul\":4985:5243   */\n      jump\t// out\n        /* \"#utility.yul\":5248:5522   */\n    tag_137:\n        /* \"#utility.yul\":5377:5380   */\n      0x00\n        /* \"#utility.yul\":5415:5421   */\n      dup3\n        /* \"#utility.yul\":5409:5422   */\n      mload\n        /* \"#utility.yul\":5431:5484   */\n      tag_192\n        /* \"#utility.yul\":5477:5483   */\n      dup2\n        /* \"#utility.yul\":5472:5475   */\n      dup5\n        /* \"#utility.yul\":5465:5469   */\n      0x20\n        /* \"#utility.yul\":5457:5463   */\n      dup8\n        /* \"#utility.yul\":5453:5470   */\n      add\n        /* \"#utility.yul\":5431:5484   */\n      tag_152\n      jump\t// in\n    tag_192:\n        /* \"#utility.yul\":5500:5516   */\n      swap2\n      swap1\n      swap2\n      add\n      swap3\n        /* \"#utility.yul\":5248:5522   */\n      swap2\n      pop\n      pop\n      jump\t// out\n        /* \"#utility.yul\":5527:5910   */\n    tag_150:\n        /* \"#utility.yul\":5676:5678   */\n      0x20\n        /* \"#utility.yul\":5665:5674   */\n      dup2\n        /* \"#utility.yul\":5658:5679   */\n      mstore\n        /* \"#utility.yul\":5639:5643   */\n      0x00\n        /* \"#utility.yul\":5708:5714   */\n      dup3\n        /* \"#utility.yul\":5702:5715   */\n      mload\n        /* \"#utility.yul\":5751:5757   */\n      dup1\n        /* \"#utility.yul\":5746:5748   */\n      0x20\n        /* \"#utility.yul\":5735:5744   */\n      dup5\n        /* \"#utility.yul\":5731:5749   */\n      add\n        /* \"#utility.yul\":5724:5758   */\n      mstore\n        /* \"#utility.yul\":5767:5833   */\n      tag_194\n        /* \"#utility.yul\":5826:5832   */\n      dup2\n        /* \"#utility.yul\":5821:5823   */\n      0x40\n        /* \"#utility.yul\":5810:5819   */\n      dup6\n        /* \"#utility.yul\":5806:5824   */\n      add\n        /* \"#utility.yul\":5801:5803   */\n      0x20\n        /* \"#utility.yul\":5793:5799   */\n      dup8\n        /* \"#utility.yul\":5789:5804   */\n      add\n        /* \"#utility.yul\":5767:5833   */\n      tag_152\n      jump\t// in\n    tag_194:\n        /* \"#utility.yul\":5894:5896   */\n      0x1f\n        /* \"#utility.yul\":5873:5888   */\n      add\n      not(0x1f)\n        /* \"#utility.yul\":5869:5898   */\n      and\n        /* \"#utility.yul\":5854:5899   */\n      swap2\n      swap1\n      swap2\n      add\n        /* \"#utility.yul\":5901:5903   */\n      0x40\n        /* \"#utility.yul\":5850:5904   */\n      add\n      swap3\n        /* \"#utility.yul\":5527:5910   */\n      swap2\n      pop\n      pop\n      jump\t// out\n\n    auxdata: 0xa26469706673582212200f311fca3ae822dbbd3b4d790325d9c5b71c93353f89c96f5272d57e4792bed764736f6c634300080f0033\n}\n",
				"bytecode": {
					"linkReferences": {},
					"object": "608060405234801561001057600080fd5b50604051610ba1380380610ba183398101604081905261002f916100bd565b600480546001600160a01b031916331790556001600160a01b03811661008e5760405162461bcd60e51b815260206004820152601060248201526f4e4f542c53203058204144445245535360801b604482015260640160405180910390fd5b600180546001600160a01b039092166001600160a01b03199283168117909155600280549092161790556100ed565b6000602082840312156100cf57600080fd5b81516001600160a01b03811681146100e657600080fd5b9392505050565b610aa5806100fc6000396000f3fe608060405234801561001057600080fd5b50600436106100935760003560e01c80638da5cb5b116100665780638da5cb5b14610159578063b6b55f251461016c578063dab2997b1461018f578063e8221917146101a2578063fb5bca7a146101ab57600080fd5b80631afaa6e8146100985780636dff132e146100ad57806371ca337d146100dd5780638c93ecff146100f4575b600080fd5b6100ab6100a63660046108f1565b600055565b005b6002546100c0906001600160a01b031681565b6040516001600160a01b0390911681526020015b60405180910390f35b6100e660005481565b6040519081526020016100d4565b61013161010236600461090a565b600560205260009081526040902080546001820154600283015460038401546004909401549293919290919085565b604080519586526020860194909452928401919091526060830152608082015260a0016100d4565b6004546100c0906001600160a01b031681565b61017f61017a3660046108f1565b6101b3565b60405190151581526020016100d4565b6001546100c0906001600160a01b031681565b6100e660035481565b61017f61037f565b6001546040516370a0823160e01b815233600482015260009183916001600160a01b03909116906370a0823190602401602060405180830381865afa158015610200573d6000803e3d6000fd5b505050506040513d601f19601f820116820180604052508101906102249190610933565b1161026d5760405162461bcd60e51b815260206004820152601460248201527310985b185b98d948125b9cdd59999a58da595b9d60621b60448201526064015b60405180910390fd5b600154610285906001600160a01b0316333085610573565b60008054338252600560205260408220546102dd916102b9916301e13380916102b3916064918391906105e4565b90610616565b336000908152600560205260409020600101546102d7904290610635565b906105e4565b33600090815260056020526040812060020180549293508392909190610304908490610962565b90915550503360009081526005602052604081208054859290610328908490610962565b90915550503360009081526005602052604081204260019091015560038054859290610355908490610962565b90915550503360009081526005602052604090206001808201546004909201919091559392505050565b60008054338252600560205260408220546103e8916103ad916301e13380916102b3916064918391906105e4565b336000908152600560205260409020600101546102d7906103cf904290610635565b336000908152600560205260409020600201549061064e565b336000818152600560205260409020600301829055600154610416926001600160a01b039091169190610669565b336000818152600560209081526040918290206003015491519182527fa9059cbb2ab09eb219583f4a59a5d0623ade346d962bcd4e46b11da047c9049b910160405180910390a2336000818152600560205260408082206003810183905560028101929092556001549154905163a9059cbb60e01b8152600481019390935260248301526001600160a01b03169063a9059cbb906044016020604051808303816000875af11580156104cc573d6000803e3d6000fd5b505050506040513d601f19601f820116820180604052508101906104f0919061097a565b50336000818152600560209081526040918290205491519182527fa9059cbb2ab09eb219583f4a59a5d0623ade346d962bcd4e46b11da047c9049b910160405180910390a233600090815260056020526040812054600380549192909161055890849061099c565b90915550503360009081526005602052604081205550600190565b6040516001600160a01b03808516602483015283166044820152606481018290526105de9085906323b872dd60e01b906084015b60408051601f198184030181529190526020810180516001600160e01b03166001600160e01b03199093169290921790915261069e565b50505050565b60006105f082846109b3565b905082158061060757508161060584836109d2565b145b61061057600080fd5b92915050565b600080821161062457600080fd5b61062e82846109d2565b9392505050565b60008282111561064457600080fd5b61062e828461099c565b600061065a8284610962565b90508281101561061057600080fd5b6040516001600160a01b03831660248201526044810182905261069990849063a9059cbb60e01b906064016105a7565b505050565b60006106f3826040518060400160405280602081526020017f5361666545524332303a206c6f772d6c6576656c2063616c6c206661696c6564815250856001600160a01b03166107709092919063ffffffff16565b8051909150156106995780806020019051810190610711919061097a565b6106995760405162461bcd60e51b815260206004820152602a60248201527f5361666545524332303a204552433230206f7065726174696f6e20646964206e6044820152691bdd081cdd58d8d9595960b21b6064820152608401610264565b606061077f8484600085610787565b949350505050565b6060824710156107e85760405162461bcd60e51b815260206004820152602660248201527f416464726573733a20696e73756666696369656e742062616c616e636520666f6044820152651c8818d85b1b60d21b6064820152608401610264565b6001600160a01b0385163b61083f5760405162461bcd60e51b815260206004820152601d60248201527f416464726573733a2063616c6c20746f206e6f6e2d636f6e74726163740000006044820152606401610264565b600080866001600160a01b0316858760405161085b9190610a20565b60006040518083038185875af1925050503d8060008114610898576040519150601f19603f3d011682016040523d82523d6000602084013e61089d565b606091505b50915091506108ad8282866108b8565b979650505050505050565b606083156108c757508161062e565b8251156108d75782518084602001fd5b8160405162461bcd60e51b81526004016102649190610a3c565b60006020828403121561090357600080fd5b5035919050565b60006020828403121561091c57600080fd5b81356001600160a01b038116811461062e57600080fd5b60006020828403121561094557600080fd5b5051919050565b634e487b7160e01b600052601160045260246000fd5b600082198211156109755761097561094c565b500190565b60006020828403121561098c57600080fd5b8151801515811461062e57600080fd5b6000828210156109ae576109ae61094c565b500390565b60008160001904831182151516156109cd576109cd61094c565b500290565b6000826109ef57634e487b7160e01b600052601260045260246000fd5b500490565b60005b83811015610a0f5781810151838201526020016109f7565b838111156105de5750506000910152565b60008251610a328184602087016109f4565b9190910192915050565b6020815260008251806020840152610a5b8160408501602087016109f4565b601f01601f1916919091016040019291505056fea26469706673582212200f311fca3ae822dbbd3b4d790325d9c5b71c93353f89c96f5272d57e4792bed764736f6c634300080f0033",
					"opcodes": "PUSH1 0x80 PUSH1 0x40 MSTORE CALLVALUE DUP1 ISZERO PUSH2 0x10 JUMPI PUSH1 0x0 DUP1 REVERT JUMPDEST POP PUSH1 0x40 MLOAD PUSH2 0xBA1 CODESIZE SUB DUP1 PUSH2 0xBA1 DUP4 CODECOPY DUP2 ADD PUSH1 0x40 DUP2 SWAP1 MSTORE PUSH2 0x2F SWAP2 PUSH2 0xBD JUMP JUMPDEST PUSH1 0x4 DUP1 SLOAD PUSH1 0x1 PUSH1 0x1 PUSH1 0xA0 SHL SUB NOT AND CALLER OR SWAP1 SSTORE PUSH1 0x1 PUSH1 0x1 PUSH1 0xA0 SHL SUB DUP2 AND PUSH2 0x8E JUMPI PUSH1 0x40 MLOAD PUSH3 0x461BCD PUSH1 0xE5 SHL DUP2 MSTORE PUSH1 0x20 PUSH1 0x4 DUP3 ADD MSTORE PUSH1 0x10 PUSH1 0x24 DUP3 ADD MSTORE PUSH16 0x4E4F542C532030582041444452455353 PUSH1 0x80 SHL PUSH1 0x44 DUP3 ADD MSTORE PUSH1 0x64 ADD PUSH1 0x40 MLOAD DUP1 SWAP2 SUB SWAP1 REVERT JUMPDEST PUSH1 0x1 DUP1 SLOAD PUSH1 0x1 PUSH1 0x1 PUSH1 0xA0 SHL SUB SWAP1 SWAP3 AND PUSH1 0x1 PUSH1 0x1 PUSH1 0xA0 SHL SUB NOT SWAP3 DUP4 AND DUP2 OR SWAP1 SWAP2 SSTORE PUSH1 0x2 DUP1 SLOAD SWAP1 SWAP3 AND OR SWAP1 SSTORE PUSH2 0xED JUMP JUMPDEST PUSH1 0x0 PUSH1 0x20 DUP3 DUP5 SUB SLT ISZERO PUSH2 0xCF JUMPI PUSH1 0x0 DUP1 REVERT JUMPDEST DUP2 MLOAD PUSH1 0x1 PUSH1 0x1 PUSH1 0xA0 SHL SUB DUP2 AND DUP2 EQ PUSH2 0xE6 JUMPI PUSH1 0x0 DUP1 REVERT JUMPDEST SWAP4 SWAP3 POP POP POP JUMP JUMPDEST PUSH2 0xAA5 DUP1 PUSH2 0xFC PUSH1 0x0 CODECOPY PUSH1 0x0 RETURN INVALID PUSH1 0x80 PUSH1 0x40 MSTORE CALLVALUE DUP1 ISZERO PUSH2 0x10 JUMPI PUSH1 0x0 DUP1 REVERT JUMPDEST POP PUSH1 0x4 CALLDATASIZE LT PUSH2 0x93 JUMPI PUSH1 0x0 CALLDATALOAD PUSH1 0xE0 SHR DUP1 PUSH4 0x8DA5CB5B GT PUSH2 0x66 JUMPI DUP1 PUSH4 0x8DA5CB5B EQ PUSH2 0x159 JUMPI DUP1 PUSH4 0xB6B55F25 EQ PUSH2 0x16C JUMPI DUP1 PUSH4 0xDAB2997B EQ PUSH2 0x18F JUMPI DUP1 PUSH4 0xE8221917 EQ PUSH2 0x1A2 JUMPI DUP1 PUSH4 0xFB5BCA7A EQ PUSH2 0x1AB JUMPI PUSH1 0x0 DUP1 REVERT JUMPDEST DUP1 PUSH4 0x1AFAA6E8 EQ PUSH2 0x98 JUMPI DUP1 PUSH4 0x6DFF132E EQ PUSH2 0xAD JUMPI DUP1 PUSH4 0x71CA337D EQ PUSH2 0xDD JUMPI DUP1 PUSH4 0x8C93ECFF EQ PUSH2 0xF4 JUMPI JUMPDEST PUSH1 0x0 DUP1 REVERT JUMPDEST PUSH2 0xAB PUSH2 0xA6 CALLDATASIZE PUSH1 0x4 PUSH2 0x8F1 JUMP JUMPDEST PUSH1 0x0 SSTORE JUMP JUMPDEST STOP JUMPDEST PUSH1 0x2 SLOAD PUSH2 0xC0 SWAP1 PUSH1 0x1 PUSH1 0x1 PUSH1 0xA0 SHL SUB AND DUP2 JUMP JUMPDEST PUSH1 0x40 MLOAD PUSH1 0x1 PUSH1 0x1 PUSH1 0xA0 SHL SUB SWAP1 SWAP2 AND DUP2 MSTORE PUSH1 0x20 ADD JUMPDEST PUSH1 0x40 MLOAD DUP1 SWAP2 SUB SWAP1 RETURN JUMPDEST PUSH2 0xE6 PUSH1 0x0 SLOAD DUP2 JUMP JUMPDEST PUSH1 0x40 MLOAD SWAP1 DUP2 MSTORE PUSH1 0x20 ADD PUSH2 0xD4 JUMP JUMPDEST PUSH2 0x131 PUSH2 0x102 CALLDATASIZE PUSH1 0x4 PUSH2 0x90A JUMP JUMPDEST PUSH1 0x5 PUSH1 0x20 MSTORE PUSH1 0x0 SWAP1 DUP2 MSTORE PUSH1 0x40 SWAP1 KECCAK256 DUP1 SLOAD PUSH1 0x1 DUP3 ADD SLOAD PUSH1 0x2 DUP4 ADD SLOAD PUSH1 0x3 DUP5 ADD SLOAD PUSH1 0x4 SWAP1 SWAP5 ADD SLOAD SWAP3 SWAP4 SWAP2 SWAP3 SWAP1 SWAP2 SWAP1 DUP6 JUMP JUMPDEST PUSH1 0x40 DUP1 MLOAD SWAP6 DUP7 MSTORE PUSH1 0x20 DUP7 ADD SWAP5 SWAP1 SWAP5 MSTORE SWAP3 DUP5 ADD SWAP2 SWAP1 SWAP2 MSTORE PUSH1 0x60 DUP4 ADD MSTORE PUSH1 0x80 DUP3 ADD MSTORE PUSH1 0xA0 ADD PUSH2 0xD4 JUMP JUMPDEST PUSH1 0x4 SLOAD PUSH2 0xC0 SWAP1 PUSH1 0x1 PUSH1 0x1 PUSH1 0xA0 SHL SUB AND DUP2 JUMP JUMPDEST PUSH2 0x17F PUSH2 0x17A CALLDATASIZE PUSH1 0x4 PUSH2 0x8F1 JUMP JUMPDEST PUSH2 0x1B3 JUMP JUMPDEST PUSH1 0x40 MLOAD SWAP1 ISZERO ISZERO DUP2 MSTORE PUSH1 0x20 ADD PUSH2 0xD4 JUMP JUMPDEST PUSH1 0x1 SLOAD PUSH2 0xC0 SWAP1 PUSH1 0x1 PUSH1 0x1 PUSH1 0xA0 SHL SUB AND DUP2 JUMP JUMPDEST PUSH2 0xE6 PUSH1 0x3 SLOAD DUP2 JUMP JUMPDEST PUSH2 0x17F PUSH2 0x37F JUMP JUMPDEST PUSH1 0x1 SLOAD PUSH1 0x40 MLOAD PUSH4 0x70A08231 PUSH1 0xE0 SHL DUP2 MSTORE CALLER PUSH1 0x4 DUP3 ADD MSTORE PUSH1 0x0 SWAP2 DUP4 SWAP2 PUSH1 0x1 PUSH1 0x1 PUSH1 0xA0 SHL SUB SWAP1 SWAP2 AND SWAP1 PUSH4 0x70A08231 SWAP1 PUSH1 0x24 ADD PUSH1 0x20 PUSH1 0x40 MLOAD DUP1 DUP4 SUB DUP2 DUP7 GAS STATICCALL ISZERO DUP1 ISZERO PUSH2 0x200 JUMPI RETURNDATASIZE PUSH1 0x0 DUP1 RETURNDATACOPY RETURNDATASIZE PUSH1 0x0 REVERT JUMPDEST POP POP POP POP PUSH1 0x40 MLOAD RETURNDATASIZE PUSH1 0x1F NOT PUSH1 0x1F DUP3 ADD AND DUP3 ADD DUP1 PUSH1 0x40 MSTORE POP DUP2 ADD SWAP1 PUSH2 0x224 SWAP2 SWAP1 PUSH2 0x933 JUMP JUMPDEST GT PUSH2 0x26D JUMPI PUSH1 0x40 MLOAD PUSH3 0x461BCD PUSH1 0xE5 SHL DUP2 MSTORE PUSH1 0x20 PUSH1 0x4 DUP3 ADD MSTORE PUSH1 0x14 PUSH1 0x24 DUP3 ADD MSTORE PUSH20 0x10985B185B98D948125B9CDD59999A58DA595B9D PUSH1 0x62 SHL PUSH1 0x44 DUP3 ADD MSTORE PUSH1 0x64 ADD JUMPDEST PUSH1 0x40 MLOAD DUP1 SWAP2 SUB SWAP1 REVERT JUMPDEST PUSH1 0x1 SLOAD PUSH2 0x285 SWAP1 PUSH1 0x1 PUSH1 0x1 PUSH1 0xA0 SHL SUB AND CALLER ADDRESS DUP6 PUSH2 0x573 JUMP JUMPDEST PUSH1 0x0 DUP1 SLOAD CALLER DUP3 MSTORE PUSH1 0x5 PUSH1 0x20 MSTORE PUSH1 0x40 DUP3 KECCAK256 SLOAD PUSH2 0x2DD SWAP2 PUSH2 0x2B9 SWAP2 PUSH4 0x1E13380 SWAP2 PUSH2 0x2B3 SWAP2 PUSH1 0x64 SWAP2 DUP4 SWAP2 SWAP1 PUSH2 0x5E4 JUMP JUMPDEST SWAP1 PUSH2 0x616 JUMP JUMPDEST CALLER PUSH1 0x0 SWAP1 DUP2 MSTORE PUSH1 0x5 PUSH1 0x20 MSTORE PUSH1 0x40 SWAP1 KECCAK256 PUSH1 0x1 ADD SLOAD PUSH2 0x2D7 SWAP1 TIMESTAMP SWAP1 PUSH2 0x635 JUMP JUMPDEST SWAP1 PUSH2 0x5E4 JUMP JUMPDEST CALLER PUSH1 0x0 SWAP1 DUP2 MSTORE PUSH1 0x5 PUSH1 0x20 MSTORE PUSH1 0x40 DUP2 KECCAK256 PUSH1 0x2 ADD DUP1 SLOAD SWAP3 SWAP4 POP DUP4 SWAP3 SWAP1 SWAP2 SWAP1 PUSH2 0x304 SWAP1 DUP5 SWAP1 PUSH2 0x962 JUMP JUMPDEST SWAP1 SWAP2 SSTORE POP POP CALLER PUSH1 0x0 SWAP1 DUP2 MSTORE PUSH1 0x5 PUSH1 0x20 MSTORE PUSH1 0x40 DUP2 KECCAK256 DUP1 SLOAD DUP6 SWAP3 SWAP1 PUSH2 0x328 SWAP1 DUP5 SWAP1 PUSH2 0x962 JUMP JUMPDEST SWAP1 SWAP2 SSTORE POP POP CALLER PUSH1 0x0 SWAP1 DUP2 MSTORE PUSH1 0x5 PUSH1 0x20 MSTORE PUSH1 0x40 DUP2 KECCAK256 TIMESTAMP PUSH1 0x1 SWAP1 SWAP2 ADD SSTORE PUSH1 0x3 DUP1 SLOAD DUP6 SWAP3 SWAP1 PUSH2 0x355 SWAP1 DUP5 SWAP1 PUSH2 0x962 JUMP JUMPDEST SWAP1 SWAP2 SSTORE POP POP CALLER PUSH1 0x0 SWAP1 DUP2 MSTORE PUSH1 0x5 PUSH1 0x20 MSTORE PUSH1 0x40 SWAP1 KECCAK256 PUSH1 0x1 DUP1 DUP3 ADD SLOAD PUSH1 0x4 SWAP1 SWAP3 ADD SWAP2 SWAP1 SWAP2 SSTORE SWAP4 SWAP3 POP POP POP JUMP JUMPDEST PUSH1 0x0 DUP1 SLOAD CALLER DUP3 MSTORE PUSH1 0x5 PUSH1 0x20 MSTORE PUSH1 0x40 DUP3 KECCAK256 SLOAD PUSH2 0x3E8 SWAP2 PUSH2 0x3AD SWAP2 PUSH4 0x1E13380 SWAP2 PUSH2 0x2B3 SWAP2 PUSH1 0x64 SWAP2 DUP4 SWAP2 SWAP1 PUSH2 0x5E4 JUMP JUMPDEST CALLER PUSH1 0x0 SWAP1 DUP2 MSTORE PUSH1 0x5 PUSH1 0x20 MSTORE PUSH1 0x40 SWAP1 KECCAK256 PUSH1 0x1 ADD SLOAD PUSH2 0x2D7 SWAP1 PUSH2 0x3CF SWAP1 TIMESTAMP SWAP1 PUSH2 0x635 JUMP JUMPDEST CALLER PUSH1 0x0 SWAP1 DUP2 MSTORE PUSH1 0x5 PUSH1 0x20 MSTORE PUSH1 0x40 SWAP1 KECCAK256 PUSH1 0x2 ADD SLOAD SWAP1 PUSH2 0x64E JUMP JUMPDEST CALLER PUSH1 0x0 DUP2 DUP2 MSTORE PUSH1 0x5 PUSH1 0x20 MSTORE PUSH1 0x40 SWAP1 KECCAK256 PUSH1 0x3 ADD DUP3 SWAP1 SSTORE PUSH1 0x1 SLOAD PUSH2 0x416 SWAP3 PUSH1 0x1 PUSH1 0x1 PUSH1 0xA0 SHL SUB SWAP1 SWAP2 AND SWAP2 SWAP1 PUSH2 0x669 JUMP JUMPDEST CALLER PUSH1 0x0 DUP2 DUP2 MSTORE PUSH1 0x5 PUSH1 0x20 SWAP1 DUP2 MSTORE PUSH1 0x40 SWAP2 DUP3 SWAP1 KECCAK256 PUSH1 0x3 ADD SLOAD SWAP2 MLOAD SWAP2 DUP3 MSTORE PUSH32 0xA9059CBB2AB09EB219583F4A59A5D0623ADE346D962BCD4E46B11DA047C9049B SWAP2 ADD PUSH1 0x40 MLOAD DUP1 SWAP2 SUB SWAP1 LOG2 CALLER PUSH1 0x0 DUP2 DUP2 MSTORE PUSH1 0x5 PUSH1 0x20 MSTORE PUSH1 0x40 DUP1 DUP3 KECCAK256 PUSH1 0x3 DUP2 ADD DUP4 SWAP1 SSTORE PUSH1 0x2 DUP2 ADD SWAP3 SWAP1 SWAP3 SSTORE PUSH1 0x1 SLOAD SWAP2 SLOAD SWAP1 MLOAD PUSH4 0xA9059CBB PUSH1 0xE0 SHL DUP2 MSTORE PUSH1 0x4 DUP2 ADD SWAP4 SWAP1 SWAP4 MSTORE PUSH1 0x24 DUP4 ADD MSTORE PUSH1 0x1 PUSH1 0x1 PUSH1 0xA0 SHL SUB AND SWAP1 PUSH4 0xA9059CBB SWAP1 PUSH1 0x44 ADD PUSH1 0x20 PUSH1 0x40 MLOAD DUP1 DUP4 SUB DUP2 PUSH1 0x0 DUP8 GAS CALL ISZERO DUP1 ISZERO PUSH2 0x4CC JUMPI RETURNDATASIZE PUSH1 0x0 DUP1 RETURNDATACOPY RETURNDATASIZE PUSH1 0x0 REVERT JUMPDEST POP POP POP POP PUSH1 0x40 MLOAD RETURNDATASIZE PUSH1 0x1F NOT PUSH1 0x1F DUP3 ADD AND DUP3 ADD DUP1 PUSH1 0x40 MSTORE POP DUP2 ADD SWAP1 PUSH2 0x4F0 SWAP2 SWAP1 PUSH2 0x97A JUMP JUMPDEST POP CALLER PUSH1 0x0 DUP2 DUP2 MSTORE PUSH1 0x5 PUSH1 0x20 SWAP1 DUP2 MSTORE PUSH1 0x40 SWAP2 DUP3 SWAP1 KECCAK256 SLOAD SWAP2 MLOAD SWAP2 DUP3 MSTORE PUSH32 0xA9059CBB2AB09EB219583F4A59A5D0623ADE346D962BCD4E46B11DA047C9049B SWAP2 ADD PUSH1 0x40 MLOAD DUP1 SWAP2 SUB SWAP1 LOG2 CALLER PUSH1 0x0 SWAP1 DUP2 MSTORE PUSH1 0x5 PUSH1 0x20 MSTORE PUSH1 0x40 DUP2 KECCAK256 SLOAD PUSH1 0x3 DUP1 SLOAD SWAP2 SWAP3 SWAP1 SWAP2 PUSH2 0x558 SWAP1 DUP5 SWAP1 PUSH2 0x99C JUMP JUMPDEST SWAP1 SWAP2 SSTORE POP POP CALLER PUSH1 0x0 SWAP1 DUP2 MSTORE PUSH1 0x5 PUSH1 0x20 MSTORE PUSH1 0x40 DUP2 KECCAK256 SSTORE POP PUSH1 0x1 SWAP1 JUMP JUMPDEST PUSH1 0x40 MLOAD PUSH1 0x1 PUSH1 0x1 PUSH1 0xA0 SHL SUB DUP1 DUP6 AND PUSH1 0x24 DUP4 ADD MSTORE DUP4 AND PUSH1 0x44 DUP3 ADD MSTORE PUSH1 0x64 DUP2 ADD DUP3 SWAP1 MSTORE PUSH2 0x5DE SWAP1 DUP6 SWAP1 PUSH4 0x23B872DD PUSH1 0xE0 SHL SWAP1 PUSH1 0x84 ADD JUMPDEST PUSH1 0x40 DUP1 MLOAD PUSH1 0x1F NOT DUP2 DUP5 SUB ADD DUP2 MSTORE SWAP2 SWAP1 MSTORE PUSH1 0x20 DUP2 ADD DUP1 MLOAD PUSH1 0x1 PUSH1 0x1 PUSH1 0xE0 SHL SUB AND PUSH1 0x1 PUSH1 0x1 PUSH1 0xE0 SHL SUB NOT SWAP1 SWAP4 AND SWAP3 SWAP1 SWAP3 OR SWAP1 SWAP2 MSTORE PUSH2 0x69E JUMP JUMPDEST POP POP POP POP JUMP JUMPDEST PUSH1 0x0 PUSH2 0x5F0 DUP3 DUP5 PUSH2 0x9B3 JUMP JUMPDEST SWAP1 POP DUP3 ISZERO DUP1 PUSH2 0x607 JUMPI POP DUP2 PUSH2 0x605 DUP5 DUP4 PUSH2 0x9D2 JUMP JUMPDEST EQ JUMPDEST PUSH2 0x610 JUMPI PUSH1 0x0 DUP1 REVERT JUMPDEST SWAP3 SWAP2 POP POP JUMP JUMPDEST PUSH1 0x0 DUP1 DUP3 GT PUSH2 0x624 JUMPI PUSH1 0x0 DUP1 REVERT JUMPDEST PUSH2 0x62E DUP3 DUP5 PUSH2 0x9D2 JUMP JUMPDEST SWAP4 SWAP3 POP POP POP JUMP JUMPDEST PUSH1 0x0 DUP3 DUP3 GT ISZERO PUSH2 0x644 JUMPI PUSH1 0x0 DUP1 REVERT JUMPDEST PUSH2 0x62E DUP3 DUP5 PUSH2 0x99C JUMP JUMPDEST PUSH1 0x0 PUSH2 0x65A DUP3 DUP5 PUSH2 0x962 JUMP JUMPDEST SWAP1 POP DUP3 DUP2 LT ISZERO PUSH2 0x610 JUMPI PUSH1 0x0 DUP1 REVERT JUMPDEST PUSH1 0x40 MLOAD PUSH1 0x1 PUSH1 0x1 PUSH1 0xA0 SHL SUB DUP4 AND PUSH1 0x24 DUP3 ADD MSTORE PUSH1 0x44 DUP2 ADD DUP3 SWAP1 MSTORE PUSH2 0x699 SWAP1 DUP5 SWAP1 PUSH4 0xA9059CBB PUSH1 0xE0 SHL SWAP1 PUSH1 0x64 ADD PUSH2 0x5A7 JUMP JUMPDEST POP POP POP JUMP JUMPDEST PUSH1 0x0 PUSH2 0x6F3 DUP3 PUSH1 0x40 MLOAD DUP1 PUSH1 0x40 ADD PUSH1 0x40 MSTORE DUP1 PUSH1 0x20 DUP2 MSTORE PUSH1 0x20 ADD PUSH32 0x5361666545524332303A206C6F772D6C6576656C2063616C6C206661696C6564 DUP2 MSTORE POP DUP6 PUSH1 0x1 PUSH1 0x1 PUSH1 0xA0 SHL SUB AND PUSH2 0x770 SWAP1 SWAP3 SWAP2 SWAP1 PUSH4 0xFFFFFFFF AND JUMP JUMPDEST DUP1 MLOAD SWAP1 SWAP2 POP ISZERO PUSH2 0x699 JUMPI DUP1 DUP1 PUSH1 0x20 ADD SWAP1 MLOAD DUP2 ADD SWAP1 PUSH2 0x711 SWAP2 SWAP1 PUSH2 0x97A JUMP JUMPDEST PUSH2 0x699 JUMPI PUSH1 0x40 MLOAD PUSH3 0x461BCD PUSH1 0xE5 SHL DUP2 MSTORE PUSH1 0x20 PUSH1 0x4 DUP3 ADD MSTORE PUSH1 0x2A PUSH1 0x24 DUP3 ADD MSTORE PUSH32 0x5361666545524332303A204552433230206F7065726174696F6E20646964206E PUSH1 0x44 DUP3 ADD MSTORE PUSH10 0x1BDD081CDD58D8D95959 PUSH1 0xB2 SHL PUSH1 0x64 DUP3 ADD MSTORE PUSH1 0x84 ADD PUSH2 0x264 JUMP JUMPDEST PUSH1 0x60 PUSH2 0x77F DUP5 DUP5 PUSH1 0x0 DUP6 PUSH2 0x787 JUMP JUMPDEST SWAP5 SWAP4 POP POP POP POP JUMP JUMPDEST PUSH1 0x60 DUP3 SELFBALANCE LT ISZERO PUSH2 0x7E8 JUMPI PUSH1 0x40 MLOAD PUSH3 0x461BCD PUSH1 0xE5 SHL DUP2 MSTORE PUSH1 0x20 PUSH1 0x4 DUP3 ADD MSTORE PUSH1 0x26 PUSH1 0x24 DUP3 ADD MSTORE PUSH32 0x416464726573733A20696E73756666696369656E742062616C616E636520666F PUSH1 0x44 DUP3 ADD MSTORE PUSH6 0x1C8818D85B1B PUSH1 0xD2 SHL PUSH1 0x64 DUP3 ADD MSTORE PUSH1 0x84 ADD PUSH2 0x264 JUMP JUMPDEST PUSH1 0x1 PUSH1 0x1 PUSH1 0xA0 SHL SUB DUP6 AND EXTCODESIZE PUSH2 0x83F JUMPI PUSH1 0x40 MLOAD PUSH3 0x461BCD PUSH1 0xE5 SHL DUP2 MSTORE PUSH1 0x20 PUSH1 0x4 DUP3 ADD MSTORE PUSH1 0x1D PUSH1 0x24 DUP3 ADD MSTORE PUSH32 0x416464726573733A2063616C6C20746F206E6F6E2D636F6E7472616374000000 PUSH1 0x44 DUP3 ADD MSTORE PUSH1 0x64 ADD PUSH2 0x264 JUMP JUMPDEST PUSH1 0x0 DUP1 DUP7 PUSH1 0x1 PUSH1 0x1 PUSH1 0xA0 SHL SUB AND DUP6 DUP8 PUSH1 0x40 MLOAD PUSH2 0x85B SWAP2 SWAP1 PUSH2 0xA20 JUMP JUMPDEST PUSH1 0x0 PUSH1 0x40 MLOAD DUP1 DUP4 SUB DUP2 DUP6 DUP8 GAS CALL SWAP3 POP POP POP RETURNDATASIZE DUP1 PUSH1 0x0 DUP2 EQ PUSH2 0x898 JUMPI PUSH1 0x40 MLOAD SWAP2 POP PUSH1 0x1F NOT PUSH1 0x3F RETURNDATASIZE ADD AND DUP3 ADD PUSH1 0x40 MSTORE RETURNDATASIZE DUP3 MSTORE RETURNDATASIZE PUSH1 0x0 PUSH1 0x20 DUP5 ADD RETURNDATACOPY PUSH2 0x89D JUMP JUMPDEST PUSH1 0x60 SWAP2 POP JUMPDEST POP SWAP2 POP SWAP2 POP PUSH2 0x8AD DUP3 DUP3 DUP7 PUSH2 0x8B8 JUMP JUMPDEST SWAP8 SWAP7 POP POP POP POP POP POP POP JUMP JUMPDEST PUSH1 0x60 DUP4 ISZERO PUSH2 0x8C7 JUMPI POP DUP2 PUSH2 0x62E JUMP JUMPDEST DUP3 MLOAD ISZERO PUSH2 0x8D7 JUMPI DUP3 MLOAD DUP1 DUP5 PUSH1 0x20 ADD REVERT JUMPDEST DUP2 PUSH1 0x40 MLOAD PUSH3 0x461BCD PUSH1 0xE5 SHL DUP2 MSTORE PUSH1 0x4 ADD PUSH2 0x264 SWAP2 SWAP1 PUSH2 0xA3C JUMP JUMPDEST PUSH1 0x0 PUSH1 0x20 DUP3 DUP5 SUB SLT ISZERO PUSH2 0x903 JUMPI PUSH1 0x0 DUP1 REVERT JUMPDEST POP CALLDATALOAD SWAP2 SWAP1 POP JUMP JUMPDEST PUSH1 0x0 PUSH1 0x20 DUP3 DUP5 SUB SLT ISZERO PUSH2 0x91C JUMPI PUSH1 0x0 DUP1 REVERT JUMPDEST DUP2 CALLDATALOAD PUSH1 0x1 PUSH1 0x1 PUSH1 0xA0 SHL SUB DUP2 AND DUP2 EQ PUSH2 0x62E JUMPI PUSH1 0x0 DUP1 REVERT JUMPDEST PUSH1 0x0 PUSH1 0x20 DUP3 DUP5 SUB SLT ISZERO PUSH2 0x945 JUMPI PUSH1 0x0 DUP1 REVERT JUMPDEST POP MLOAD SWAP2 SWAP1 POP JUMP JUMPDEST PUSH4 0x4E487B71 PUSH1 0xE0 SHL PUSH1 0x0 MSTORE PUSH1 0x11 PUSH1 0x4 MSTORE PUSH1 0x24 PUSH1 0x0 REVERT JUMPDEST PUSH1 0x0 DUP3 NOT DUP3 GT ISZERO PUSH2 0x975 JUMPI PUSH2 0x975 PUSH2 0x94C JUMP JUMPDEST POP ADD SWAP1 JUMP JUMPDEST PUSH1 0x0 PUSH1 0x20 DUP3 DUP5 SUB SLT ISZERO PUSH2 0x98C JUMPI PUSH1 0x0 DUP1 REVERT JUMPDEST DUP2 MLOAD DUP1 ISZERO ISZERO DUP2 EQ PUSH2 0x62E JUMPI PUSH1 0x0 DUP1 REVERT JUMPDEST PUSH1 0x0 DUP3 DUP3 LT ISZERO PUSH2 0x9AE JUMPI PUSH2 0x9AE PUSH2 0x94C JUMP JUMPDEST POP SUB SWAP1 JUMP JUMPDEST PUSH1 0x0 DUP2 PUSH1 0x0 NOT DIV DUP4 GT DUP3 ISZERO ISZERO AND ISZERO PUSH2 0x9CD JUMPI PUSH2 0x9CD PUSH2 0x94C JUMP JUMPDEST POP MUL SWAP1 JUMP JUMPDEST PUSH1 0x0 DUP3 PUSH2 0x9EF JUMPI PUSH4 0x4E487B71 PUSH1 0xE0 SHL PUSH1 0x0 MSTORE PUSH1 0x12 PUSH1 0x4 MSTORE PUSH1 0x24 PUSH1 0x0 REVERT JUMPDEST POP DIV SWAP1 JUMP JUMPDEST PUSH1 0x0 JUMPDEST DUP4 DUP2 LT ISZERO PUSH2 0xA0F JUMPI DUP2 DUP2 ADD MLOAD DUP4 DUP3 ADD MSTORE PUSH1 0x20 ADD PUSH2 0x9F7 JUMP JUMPDEST DUP4 DUP2 GT ISZERO PUSH2 0x5DE JUMPI POP POP PUSH1 0x0 SWAP2 ADD MSTORE JUMP JUMPDEST PUSH1 0x0 DUP3 MLOAD PUSH2 0xA32 DUP2 DUP5 PUSH1 0x20 DUP8 ADD PUSH2 0x9F4 JUMP JUMPDEST SWAP2 SWAP1 SWAP2 ADD SWAP3 SWAP2 POP POP JUMP JUMPDEST PUSH1 0x20 DUP2 MSTORE PUSH1 0x0 DUP3 MLOAD DUP1 PUSH1 0x20 DUP5 ADD MSTORE PUSH2 0xA5B DUP2 PUSH1 0x40 DUP6 ADD PUSH1 0x20 DUP8 ADD PUSH2 0x9F4 JUMP JUMPDEST PUSH1 0x1F ADD PUSH1 0x1F NOT AND SWAP2 SWAP1 SWAP2 ADD PUSH1 0x40 ADD SWAP3 SWAP2 POP POP JUMP INVALID LOG2 PUSH5 0x6970667358 0x22 SLT KECCAK256 0xF BALANCE 0x1F 0xCA GASPRICE 0xE8 0x22 0xDB 0xBD EXTCODESIZE 0x4D PUSH26 0x325D9C5B71C93353F89C96F5272D57E4792BED764736F6C6343 STOP ADDMOD 0xF STOP CALLER "
				},
				"gasEstimates": {
					"creation": {
						"codeDepositCost": "545000",
						"executionCost": "infinite",
						"totalCost": "infinite"
					},
					"external": {
						"User_Map(address)": "11095",
						"deposit(uint256)": "infinite",
						"harvestwithDraw()": "infinite",
						"owner()": "2326",
						"ratio()": "2340",
						"rewardtoken()": "2349",
						"setratio(uint256)": "22313",
						"staketoken()": "2370",
						"staketotal()": "2361"
					}
				},
				"methodIdentifiers": {
					"User_Map(address)": "8c93ecff",
					"deposit(uint256)": "b6b55f25",
					"harvestwithDraw()": "fb5bca7a",
					"owner()": "8da5cb5b",
					"ratio()": "71ca337d",
					"rewardtoken()": "6dff132e",
					"setratio(uint256)": "1afaa6e8",
					"staketoken()": "dab2997b",
					"staketotal()": "e8221917"
				}
			},
			"storageLayout": {
				"storage": [
					{
						"astId": 822,
						"contract": "定息矿池-进阶.sol:StakeContract",
						"label": "ratio",
						"offset": 0,
						"slot": "0",
						"type": "t_uint256"
					},
					{
						"astId": 824,
						"contract": "定息矿池-进阶.sol:StakeContract",
						"label": "staketoken",
						"offset": 0,
						"slot": "1",
						"type": "t_address"
					},
					{
						"astId": 826,
						"contract": "定息矿池-进阶.sol:StakeContract",
						"label": "rewardtoken",
						"offset": 0,
						"slot": "2",
						"type": "t_address"
					},
					{
						"astId": 828,
						"contract": "定息矿池-进阶.sol:StakeContract",
						"label": "staketotal",
						"offset": 0,
						"slot": "3",
						"type": "t_uint256"
					},
					{
						"astId": 830,
						"contract": "定息矿池-进阶.sol:StakeContract",
						"label": "owner",
						"offset": 0,
						"slot": "4",
						"type": "t_address"
					},
					{
						"astId": 868,
						"contract": "定息矿池-进阶.sol:StakeContract",
						"label": "User_Map",
						"offset": 0,
						"slot": "5",
						"type": "t_mapping(t_address,t_struct(User)841_storage)"
					}
				],
				"types": {
					"t_address": {
						"encoding": "inplace",
						"label": "address",
						"numberOfBytes": "20"
					},
					"t_mapping(t_address,t_struct(User)841_storage)": {
						"encoding": "mapping",
						"key": "t_address",
						"label": "mapping(address => struct StakeContract.User)",
						"numberOfBytes": "32",
						"value": "t_struct(User)841_storage"
					},
					"t_struct(User)841_storage": {
						"encoding": "inplace",
						"label": "struct StakeContract.User",
						"members": [
							{
								"astId": 832,
								"contract": "定息矿池-进阶.sol:StakeContract",
								"label": "stakeNumber",
								"offset": 0,
								"slot": "0",
								"type": "t_uint256"
							},
							{
								"astId": 834,
								"contract": "定息矿池-进阶.sol:StakeContract",
								"label": "last_Stake_Time",
								"offset": 0,
								"slot": "1",
								"type": "t_uint256"
							},
							{
								"astId": 836,
								"contract": "定息矿池-进阶.sol:StakeContract",
								"label": "last_totoken_ratio",
								"offset": 0,
								"slot": "2",
								"type": "t_uint256"
							},
							{
								"astId": 838,
								"contract": "定息矿池-进阶.sol:StakeContract",
								"label": "whole_ratio",
								"offset": 0,
								"slot": "3",
								"type": "t_uint256"
							},
							{
								"astId": 840,
								"contract": "定息矿池-进阶.sol:StakeContract",
								"label": "last_totoken_Time",
								"offset": 0,
								"slot": "4",
								"type": "t_uint256"
							}
						],
						"numberOfBytes": "160"
					},
					"t_uint256": {
						"encoding": "inplace",
						"label": "uint256",
						"numberOfBytes": "32"
					}
				}
			},
			"userdoc": {
				"kind": "user",
				"methods": {},
				"version": 1
			}
		}
	}
}