{
	"solidity函数返回值.sol": {
		"FunctionOutputs": {
			"abi": [
				{
					"inputs": [],
					"name": "assigned",
					"outputs": [
						{
							"internalType": "uint256",
							"name": "x",
							"type": "uint256"
						},
						{
							"internalType": "bool",
							"name": "b",
							"type": "bool"
						}
					],
					"stateMutability": "pure",
					"type": "function"
				},
				{
					"inputs": [],
					"name": "destAss",
					"outputs": [],
					"stateMutability": "pure",
					"type": "function"
				},
				{
					"inputs": [],
					"name": "destAssigned",
					"outputs": [],
					"stateMutability": "pure",
					"type": "function"
				},
				{
					"inputs": [],
					"name": "destAssignedTwo",
					"outputs": [
						{
							"internalType": "uint256",
							"name": "",
							"type": "uint256"
						},
						{
							"internalType": "bool",
							"name": "",
							"type": "bool"
						}
					],
					"stateMutability": "pure",
					"type": "function"
				},
				{
					"inputs": [],
					"name": "returnMany",
					"outputs": [
						{
							"internalType": "uint256",
							"name": "",
							"type": "uint256"
						},
						{
							"internalType": "bool",
							"name": "",
							"type": "bool"
						}
					],
					"stateMutability": "pure",
					"type": "function"
				},
				{
					"inputs": [],
					"name": "returnName",
					"outputs": [
						{
							"internalType": "uint256",
							"name": "x",
							"type": "uint256"
						},
						{
							"internalType": "bool",
							"name": "b",
							"type": "bool"
						}
					],
					"stateMutability": "pure",
					"type": "function"
				}
			],
			"devdoc": {
				"kind": "dev",
				"methods": {},
				"version": 1
			},
			"evm": {
				"assembly": "    /* \"solidity\\xe5\\x87\\xbd\\xe6\\x95\\xb0\\xe8\\xbf\\x94\\xe5\\x9b\\x9e\\xe5\\x80\\xbc.sol\":156:1316  contract FunctionOutputs {... */\n  mstore(0x40, 0x80)\n  callvalue\n  dup1\n  iszero\n  tag_1\n  jumpi\n  0x00\n  dup1\n  revert\ntag_1:\n  pop\n  dataSize(sub_0)\n  dup1\n  dataOffset(sub_0)\n  0x00\n  codecopy\n  0x00\n  return\nstop\n\nsub_0: assembly {\n        /* \"solidity\\xe5\\x87\\xbd\\xe6\\x95\\xb0\\xe8\\xbf\\x94\\xe5\\x9b\\x9e\\xe5\\x80\\xbc.sol\":156:1316  contract FunctionOutputs {... */\n      mstore(0x40, 0x80)\n      callvalue\n      dup1\n      iszero\n      tag_1\n      jumpi\n      0x00\n      dup1\n      revert\n    tag_1:\n      pop\n      jumpi(tag_2, lt(calldatasize, 0x04))\n      shr(0xe0, calldataload(0x00))\n      dup1\n      0x1a998937\n      eq\n      tag_3\n      jumpi\n      dup1\n      0x5ea5cabe\n      eq\n      tag_4\n      jumpi\n      dup1\n      0x86887544\n      eq\n      tag_4\n      jumpi\n      dup1\n      0xadb4d990\n      eq\n      tag_4\n      jumpi\n      dup1\n      0xcd9440e9\n      eq\n      tag_7\n      jumpi\n      dup1\n      0xf4d656ca\n      eq\n      tag_7\n      jumpi\n    tag_2:\n      0x00\n      dup1\n      revert\n        /* \"solidity\\xe5\\x87\\xbd\\xe6\\x95\\xb0\\xe8\\xbf\\x94\\xe5\\x9b\\x9e\\xe5\\x80\\xbc.sol\":875:973  function destAssignedTwo() public pure returns (uint, bool) {... */\n    tag_3:\n        /* \"solidity\\xe5\\x87\\xbd\\xe6\\x95\\xb0\\xe8\\xbf\\x94\\xe5\\x9b\\x9e\\xe5\\x80\\xbc.sol\":465:466  1 */\n      0x01\n      dup1\n        /* \"solidity\\xe5\\x87\\xbd\\xe6\\x95\\xb0\\xe8\\xbf\\x94\\xe5\\x9b\\x9e\\xe5\\x80\\xbc.sol\":875:973  function destAssignedTwo() public pure returns (uint, bool) {... */\n    tag_9:\n      0x40\n      dup1\n      mload\n        /* \"#utility.yul\":182:207   */\n      swap3\n      dup4\n      mstore\n        /* \"#utility.yul\":250:264   */\n      swap1\n      iszero\n        /* \"#utility.yul\":243:265   */\n      iszero\n        /* \"#utility.yul\":238:240   */\n      0x20\n        /* \"#utility.yul\":223:241   */\n      dup4\n      add\n        /* \"#utility.yul\":216:266   */\n      mstore\n        /* \"#utility.yul\":155:173   */\n      add\n        /* \"solidity\\xe5\\x87\\xbd\\xe6\\x95\\xb0\\xe8\\xbf\\x94\\xe5\\x9b\\x9e\\xe5\\x80\\xbc.sol\":875:973  function destAssignedTwo() public pure returns (uint, bool) {... */\n      mload(0x40)\n      dup1\n      swap2\n      sub\n      swap1\n      return\n        /* \"solidity\\xe5\\x87\\xbd\\xe6\\x95\\xb0\\xe8\\xbf\\x94\\xe5\\x9b\\x9e\\xe5\\x80\\xbc.sol\":387:481  function returnName() public pure returns (uint x, bool b) {... */\n    tag_4:\n        /* \"solidity\\xe5\\x87\\xbd\\xe6\\x95\\xb0\\xe8\\xbf\\x94\\xe5\\x9b\\x9e\\xe5\\x80\\xbc.sol\":465:466  1 */\n      0x01\n      dup1\n        /* \"solidity\\xe5\\x87\\xbd\\xe6\\x95\\xb0\\xe8\\xbf\\x94\\xe5\\x9b\\x9e\\xe5\\x80\\xbc.sol\":387:481  function returnName() public pure returns (uint x, bool b) {... */\n      jump(tag_9)\n        /* \"solidity\\xe5\\x87\\xbd\\xe6\\x95\\xb0\\xe8\\xbf\\x94\\xe5\\x9b\\x9e\\xe5\\x80\\xbc.sol\":1034:1110  function destAss() public pure {... */\n    tag_7:\n      stop\n\n    auxdata: 0xa26469706673582212200aa54ea55bb08d339760a2a6cb00fea9fc3d8dd759e92d16d66676d538237f5f64736f6c634300080f0033\n}\n",
				"bytecode": {
					"linkReferences": {},
					"object": "608060405234801561001057600080fd5b5060bb8061001f6000396000f3fe6080604052348015600f57600080fd5b5060043610605a5760003560e01c80631a99893714605f5780635ea5cabe14607c5780638688754414607c578063adb4d99014607c578063cd9440e9146083578063f4d656ca146083575b600080fd5b6001805b6040805192835290151560208301520160405180910390f35b6001806063565b00fea26469706673582212200aa54ea55bb08d339760a2a6cb00fea9fc3d8dd759e92d16d66676d538237f5f64736f6c634300080f0033",
					"opcodes": "PUSH1 0x80 PUSH1 0x40 MSTORE CALLVALUE DUP1 ISZERO PUSH2 0x10 JUMPI PUSH1 0x0 DUP1 REVERT JUMPDEST POP PUSH1 0xBB DUP1 PUSH2 0x1F PUSH1 0x0 CODECOPY PUSH1 0x0 RETURN INVALID PUSH1 0x80 PUSH1 0x40 MSTORE CALLVALUE DUP1 ISZERO PUSH1 0xF JUMPI PUSH1 0x0 DUP1 REVERT JUMPDEST POP PUSH1 0x4 CALLDATASIZE LT PUSH1 0x5A JUMPI PUSH1 0x0 CALLDATALOAD PUSH1 0xE0 SHR DUP1 PUSH4 0x1A998937 EQ PUSH1 0x5F JUMPI DUP1 PUSH4 0x5EA5CABE EQ PUSH1 0x7C JUMPI DUP1 PUSH4 0x86887544 EQ PUSH1 0x7C JUMPI DUP1 PUSH4 0xADB4D990 EQ PUSH1 0x7C JUMPI DUP1 PUSH4 0xCD9440E9 EQ PUSH1 0x83 JUMPI DUP1 PUSH4 0xF4D656CA EQ PUSH1 0x83 JUMPI JUMPDEST PUSH1 0x0 DUP1 REVERT JUMPDEST PUSH1 0x1 DUP1 JUMPDEST PUSH1 0x40 DUP1 MLOAD SWAP3 DUP4 MSTORE SWAP1 ISZERO ISZERO PUSH1 0x20 DUP4 ADD MSTORE ADD PUSH1 0x40 MLOAD DUP1 SWAP2 SUB SWAP1 RETURN JUMPDEST PUSH1 0x1 DUP1 PUSH1 0x63 JUMP JUMPDEST STOP INVALID LOG2 PUSH5 0x6970667358 0x22 SLT KECCAK256 EXP 0xA5 0x4E 0xA5 JUMPDEST 0xB0 DUP14 CALLER SWAP8 PUSH1 0xA2 0xA6 0xCB STOP INVALID 0xA9 0xFC RETURNDATASIZE DUP14 0xD7 MSIZE 0xE9 0x2D AND 0xD6 PUSH7 0x76D538237F5F64 PUSH20 0x6F6C634300080F00330000000000000000000000 "
				},
				"gasEstimates": {
					"creation": {
						"codeDepositCost": "37400",
						"executionCost": "87",
						"totalCost": "37487"
					},
					"external": {
						"assigned()": "251",
						"destAss()": "186",
						"destAssigned()": "208",
						"destAssignedTwo()": "174",
						"returnMany()": "229",
						"returnName()": "207"
					}
				},
				"methodIdentifiers": {
					"assigned()": "adb4d990",
					"destAss()": "cd9440e9",
					"destAssigned()": "f4d656ca",
					"destAssignedTwo()": "1a998937",
					"returnMany()": "86887544",
					"returnName()": "5ea5cabe"
				}
			},
			"storageLayout": {
				"storage": [],
				"types": null
			},
			"userdoc": {
				"kind": "user",
				"methods": {},
				"version": 1
			}
		}
	}
}