{
	"定息矿池-进阶.sol": {
		"StakeContract": {
			"abi": [
				{
					"inputs": [
						{
							"internalType": "address",
							"name": "_staketoken",
							"type": "address"
						},
						{
							"internalType": "address",
							"name": "_totoken",
							"type": "address"
						}
					],
					"stateMutability": "nonpayable",
					"type": "constructor"
				},
				{
					"anonymous": false,
					"inputs": [
						{
							"indexed": true,
							"internalType": "address",
							"name": "owner",
							"type": "address"
						},
						{
							"indexed": true,
							"internalType": "address",
							"name": "spender",
							"type": "address"
						},
						{
							"indexed": false,
							"internalType": "uint256",
							"name": "amout",
							"type": "uint256"
						}
					],
					"name": "Approveal",
					"type": "event"
				},
				{
					"anonymous": false,
					"inputs": [
						{
							"indexed": true,
							"internalType": "address",
							"name": "from",
							"type": "address"
						},
						{
							"indexed": true,
							"internalType": "address",
							"name": "to",
							"type": "address"
						},
						{
							"indexed": false,
							"internalType": "uint256",
							"name": "amout",
							"type": "uint256"
						}
					],
					"name": "Trasfer",
					"type": "event"
				},
				{
					"anonymous": false,
					"inputs": [
						{
							"indexed": true,
							"internalType": "address",
							"name": "to",
							"type": "address"
						},
						{
							"indexed": false,
							"internalType": "uint256",
							"name": "amout",
							"type": "uint256"
						}
					],
					"name": "transfer",
					"type": "event"
				},
				{
					"inputs": [
						{
							"internalType": "address",
							"name": "",
							"type": "address"
						}
					],
					"name": "User_Map",
					"outputs": [
						{
							"internalType": "uint256",
							"name": "stakeNumber",
							"type": "uint256"
						},
						{
							"internalType": "uint256",
							"name": "last_Stake_Time",
							"type": "uint256"
						},
						{
							"internalType": "uint256",
							"name": "last_totoken_ratio",
							"type": "uint256"
						},
						{
							"internalType": "uint256",
							"name": "whole_ratio",
							"type": "uint256"
						},
						{
							"internalType": "uint256",
							"name": "last_totoken_Time",
							"type": "uint256"
						}
					],
					"stateMutability": "view",
					"type": "function"
				},
				{
					"inputs": [
						{
							"internalType": "uint256",
							"name": "_amount",
							"type": "uint256"
						}
					],
					"name": "deposit",
					"outputs": [
						{
							"internalType": "bool",
							"name": "",
							"type": "bool"
						}
					],
					"stateMutability": "nonpayable",
					"type": "function"
				},
				{
					"inputs": [],
					"name": "harvest",
					"outputs": [
						{
							"internalType": "bool",
							"name": "",
							"type": "bool"
						}
					],
					"stateMutability": "nonpayable",
					"type": "function"
				},
				{
					"inputs": [],
					"name": "harvestwithDraw",
					"outputs": [
						{
							"internalType": "bool",
							"name": "",
							"type": "bool"
						}
					],
					"stateMutability": "nonpayable",
					"type": "function"
				},
				{
					"inputs": [],
					"name": "newTotokenRatio",
					"outputs": [
						{
							"internalType": "uint256",
							"name": "",
							"type": "uint256"
						}
					],
					"stateMutability": "view",
					"type": "function"
				},
				{
					"inputs": [],
					"name": "owner",
					"outputs": [
						{
							"internalType": "address",
							"name": "",
							"type": "address"
						}
					],
					"stateMutability": "view",
					"type": "function"
				},
				{
					"inputs": [],
					"name": "ratio",
					"outputs": [
						{
							"internalType": "uint256",
							"name": "",
							"type": "uint256"
						}
					],
					"stateMutability": "view",
					"type": "function"
				},
				{
					"inputs": [],
					"name": "rewardtoken",
					"outputs": [
						{
							"internalType": "address",
							"name": "",
							"type": "address"
						}
					],
					"stateMutability": "view",
					"type": "function"
				},
				{
					"inputs": [
						{
							"internalType": "uint256",
							"name": "_ratio",
							"type": "uint256"
						}
					],
					"name": "setratio",
					"outputs": [],
					"stateMutability": "nonpayable",
					"type": "function"
				},
				{
					"inputs": [],
					"name": "staketoken",
					"outputs": [
						{
							"internalType": "address",
							"name": "",
							"type": "address"
						}
					],
					"stateMutability": "view",
					"type": "function"
				},
				{
					"inputs": [],
					"name": "staketotal",
					"outputs": [
						{
							"internalType": "uint256",
							"name": "",
							"type": "uint256"
						}
					],
					"stateMutability": "view",
					"type": "function"
				},
				{
					"inputs": [],
					"name": "tokennumber",
					"outputs": [
						{
							"internalType": "uint256",
							"name": "",
							"type": "uint256"
						}
					],
					"stateMutability": "view",
					"type": "function"
				}
			],
			"devdoc": {
				"kind": "dev",
				"methods": {},
				"version": 1
			},
			"evm": {
				"assembly": "    /* \"\\xe5\\xae\\x9a\\xe6\\x81\\xaf\\xe7\\x9f\\xbf\\xe6\\xb1\\xa0-\\xe8\\xbf\\x9b\\xe9\\x98\\xb6.sol\":169:6587  contract StakeContract {... */\n  mstore(0x40, 0x80)\n    /* \"\\xe5\\xae\\x9a\\xe6\\x81\\xaf\\xe7\\x9f\\xbf\\xe6\\xb1\\xa0-\\xe8\\xbf\\x9b\\xe9\\x98\\xb6.sol\":1123:1465  constructor (address _staketoken ,address _totoken) {... */\n  callvalue\n  dup1\n  iszero\n  tag_1\n  jumpi\n  0x00\n  dup1\n  revert\ntag_1:\n  pop\n  mload(0x40)\n  sub(codesize, bytecodeSize)\n  dup1\n  bytecodeSize\n  dup4\n  codecopy\n  dup2\n  add\n  0x40\n  dup2\n  swap1\n  mstore\n  tag_2\n  swap2\n  tag_3\n  jump\t// in\ntag_2:\n    /* \"\\xe5\\xae\\x9a\\xe6\\x81\\xaf\\xe7\\x9f\\xbf\\xe6\\xb1\\xa0-\\xe8\\xbf\\x9b\\xe9\\x98\\xb6.sol\":1186:1191  owner */\n  0x04\n    /* \"\\xe5\\xae\\x9a\\xe6\\x81\\xaf\\xe7\\x9f\\xbf\\xe6\\xb1\\xa0-\\xe8\\xbf\\x9b\\xe9\\x98\\xb6.sol\":1186:1204  owner = msg.sender */\n  dup1\n  sload\n  not(sub(shl(0xa0, 0x01), 0x01))\n  and\n    /* \"\\xe5\\xae\\x9a\\xe6\\x81\\xaf\\xe7\\x9f\\xbf\\xe6\\xb1\\xa0-\\xe8\\xbf\\x9b\\xe9\\x98\\xb6.sol\":1194:1204  msg.sender */\n  caller\n    /* \"\\xe5\\xae\\x9a\\xe6\\x81\\xaf\\xe7\\x9f\\xbf\\xe6\\xb1\\xa0-\\xe8\\xbf\\x9b\\xe9\\x98\\xb6.sol\":1186:1204  owner = msg.sender */\n  or\n  swap1\n  sstore\n  sub(shl(0xa0, 0x01), 0x01)\n    /* \"\\xe5\\xae\\x9a\\xe6\\x81\\xaf\\xe7\\x9f\\xbf\\xe6\\xb1\\xa0-\\xe8\\xbf\\x9b\\xe9\\x98\\xb6.sol\":1223:1248  _staketoken != address(0) */\n  dup3\n  and\n    /* \"\\xe5\\xae\\x9a\\xe6\\x81\\xaf\\xe7\\x9f\\xbf\\xe6\\xb1\\xa0-\\xe8\\xbf\\x9b\\xe9\\x98\\xb6.sol\":1215:1268  require(_staketoken != address(0),\"NOT,S 0X ADDRESS\") */\n  tag_6\n  jumpi\n  mload(0x40)\n  shl(0xe5, 0x461bcd)\n  dup2\n  mstore\n    /* \"#utility.yul\":696:698   */\n  0x20\n    /* \"\\xe5\\xae\\x9a\\xe6\\x81\\xaf\\xe7\\x9f\\xbf\\xe6\\xb1\\xa0-\\xe8\\xbf\\x9b\\xe9\\x98\\xb6.sol\":1215:1268  require(_staketoken != address(0),\"NOT,S 0X ADDRESS\") */\n  0x04\n  dup3\n  add\n    /* \"#utility.yul\":678:699   */\n  mstore\n    /* \"#utility.yul\":735:737   */\n  0x10\n    /* \"#utility.yul\":715:733   */\n  0x24\n  dup3\n  add\n    /* \"#utility.yul\":708:738   */\n  mstore\n  shl(0x80, 0x4e4f542c532030582041444452455353)\n    /* \"#utility.yul\":754:772   */\n  0x44\n  dup3\n  add\n    /* \"#utility.yul\":747:793   */\n  mstore\n    /* \"#utility.yul\":810:828   */\n  0x64\n  add\n    /* \"\\xe5\\xae\\x9a\\xe6\\x81\\xaf\\xe7\\x9f\\xbf\\xe6\\xb1\\xa0-\\xe8\\xbf\\x9b\\xe9\\x98\\xb6.sol\":1215:1268  require(_staketoken != address(0),\"NOT,S 0X ADDRESS\") */\ntag_7:\n  mload(0x40)\n  dup1\n  swap2\n  sub\n  swap1\n  revert\ntag_6:\n  sub(shl(0xa0, 0x01), 0x01)\n    /* \"\\xe5\\xae\\x9a\\xe6\\x81\\xaf\\xe7\\x9f\\xbf\\xe6\\xb1\\xa0-\\xe8\\xbf\\x9b\\xe9\\x98\\xb6.sol\":1287:1309  _totoken != address(0) */\n  dup2\n  and\n    /* \"\\xe5\\xae\\x9a\\xe6\\x81\\xaf\\xe7\\x9f\\xbf\\xe6\\xb1\\xa0-\\xe8\\xbf\\x9b\\xe9\\x98\\xb6.sol\":1279:1329  require(_totoken != address(0),\"NOT,S 0X ADDRESS\") */\n  tag_9\n  jumpi\n  mload(0x40)\n  shl(0xe5, 0x461bcd)\n  dup2\n  mstore\n    /* \"#utility.yul\":696:698   */\n  0x20\n    /* \"\\xe5\\xae\\x9a\\xe6\\x81\\xaf\\xe7\\x9f\\xbf\\xe6\\xb1\\xa0-\\xe8\\xbf\\x9b\\xe9\\x98\\xb6.sol\":1279:1329  require(_totoken != address(0),\"NOT,S 0X ADDRESS\") */\n  0x04\n  dup3\n  add\n    /* \"#utility.yul\":678:699   */\n  mstore\n    /* \"#utility.yul\":735:737   */\n  0x10\n    /* \"#utility.yul\":715:733   */\n  0x24\n  dup3\n  add\n    /* \"#utility.yul\":708:738   */\n  mstore\n  shl(0x80, 0x4e4f542c532030582041444452455353)\n    /* \"#utility.yul\":754:772   */\n  0x44\n  dup3\n  add\n    /* \"#utility.yul\":747:793   */\n  mstore\n    /* \"#utility.yul\":810:828   */\n  0x64\n  add\n    /* \"\\xe5\\xae\\x9a\\xe6\\x81\\xaf\\xe7\\x9f\\xbf\\xe6\\xb1\\xa0-\\xe8\\xbf\\x9b\\xe9\\x98\\xb6.sol\":1279:1329  require(_totoken != address(0),\"NOT,S 0X ADDRESS\") */\n  tag_7\n    /* \"#utility.yul\":494:834   */\n  jump\n    /* \"\\xe5\\xae\\x9a\\xe6\\x81\\xaf\\xe7\\x9f\\xbf\\xe6\\xb1\\xa0-\\xe8\\xbf\\x9b\\xe9\\x98\\xb6.sol\":1279:1329  require(_totoken != address(0),\"NOT,S 0X ADDRESS\") */\ntag_9:\n    /* \"\\xe5\\xae\\x9a\\xe6\\x81\\xaf\\xe7\\x9f\\xbf\\xe6\\xb1\\xa0-\\xe8\\xbf\\x9b\\xe9\\x98\\xb6.sol\":1363:1371  _totoken */\n  dup1\n  sub(shl(0xa0, 0x01), 0x01)\n    /* \"\\xe5\\xae\\x9a\\xe6\\x81\\xaf\\xe7\\x9f\\xbf\\xe6\\xb1\\xa0-\\xe8\\xbf\\x9b\\xe9\\x98\\xb6.sol\":1348:1371  _staketoken == _totoken */\n  and\n    /* \"\\xe5\\xae\\x9a\\xe6\\x81\\xaf\\xe7\\x9f\\xbf\\xe6\\xb1\\xa0-\\xe8\\xbf\\x9b\\xe9\\x98\\xb6.sol\":1348:1359  _staketoken */\n  dup3\n  sub(shl(0xa0, 0x01), 0x01)\n    /* \"\\xe5\\xae\\x9a\\xe6\\x81\\xaf\\xe7\\x9f\\xbf\\xe6\\xb1\\xa0-\\xe8\\xbf\\x9b\\xe9\\x98\\xb6.sol\":1348:1371  _staketoken == _totoken */\n  and\n  eq\n    /* \"\\xe5\\xae\\x9a\\xe6\\x81\\xaf\\xe7\\x9f\\xbf\\xe6\\xb1\\xa0-\\xe8\\xbf\\x9b\\xe9\\x98\\xb6.sol\":1340:1389  require(_staketoken == _totoken,\"NEED agreement\") */\n  tag_11\n  jumpi\n  mload(0x40)\n  shl(0xe5, 0x461bcd)\n  dup2\n  mstore\n    /* \"#utility.yul\":1041:1043   */\n  0x20\n    /* \"\\xe5\\xae\\x9a\\xe6\\x81\\xaf\\xe7\\x9f\\xbf\\xe6\\xb1\\xa0-\\xe8\\xbf\\x9b\\xe9\\x98\\xb6.sol\":1340:1389  require(_staketoken == _totoken,\"NEED agreement\") */\n  0x04\n  dup3\n  add\n    /* \"#utility.yul\":1023:1044   */\n  mstore\n    /* \"#utility.yul\":1080:1082   */\n  0x0e\n    /* \"#utility.yul\":1060:1078   */\n  0x24\n  dup3\n  add\n    /* \"#utility.yul\":1053:1083   */\n  mstore\n  shl(0x92, 0x13915151081859dc99595b595b9d)\n    /* \"#utility.yul\":1099:1117   */\n  0x44\n  dup3\n  add\n    /* \"#utility.yul\":1092:1136   */\n  mstore\n    /* \"#utility.yul\":1153:1171   */\n  0x64\n  add\n    /* \"\\xe5\\xae\\x9a\\xe6\\x81\\xaf\\xe7\\x9f\\xbf\\xe6\\xb1\\xa0-\\xe8\\xbf\\x9b\\xe9\\x98\\xb6.sol\":1340:1389  require(_staketoken == _totoken,\"NEED agreement\") */\n  tag_7\n    /* \"#utility.yul\":839:1177   */\n  jump\n    /* \"\\xe5\\xae\\x9a\\xe6\\x81\\xaf\\xe7\\x9f\\xbf\\xe6\\xb1\\xa0-\\xe8\\xbf\\x9b\\xe9\\x98\\xb6.sol\":1340:1389  require(_staketoken == _totoken,\"NEED agreement\") */\ntag_11:\n    /* \"\\xe5\\xae\\x9a\\xe6\\x81\\xaf\\xe7\\x9f\\xbf\\xe6\\xb1\\xa0-\\xe8\\xbf\\x9b\\xe9\\x98\\xb6.sol\":1400:1410  staketoken */\n  0x01\n    /* \"\\xe5\\xae\\x9a\\xe6\\x81\\xaf\\xe7\\x9f\\xbf\\xe6\\xb1\\xa0-\\xe8\\xbf\\x9b\\xe9\\x98\\xb6.sol\":1400:1424  staketoken = _staketoken */\n  dup1\n  sload\n  sub(shl(0xa0, 0x01), 0x01)\n  swap4\n  dup5\n  and\n  not(sub(shl(0xa0, 0x01), 0x01))\n  swap2\n  dup3\n  and\n  or\n  swap1\n  swap2\n  sstore\n    /* \"\\xe5\\xae\\x9a\\xe6\\x81\\xaf\\xe7\\x9f\\xbf\\xe6\\xb1\\xa0-\\xe8\\xbf\\x9b\\xe9\\x98\\xb6.sol\":1435:1446  rewardtoken */\n  0x02\n    /* \"\\xe5\\xae\\x9a\\xe6\\x81\\xaf\\xe7\\x9f\\xbf\\xe6\\xb1\\xa0-\\xe8\\xbf\\x9b\\xe9\\x98\\xb6.sol\":1435:1457  rewardtoken = _totoken */\n  dup1\n  sload\n  swap3\n  swap1\n  swap4\n  and\n  swap2\n  and\n  or\n  swap1\n  sstore\n    /* \"\\xe5\\xae\\x9a\\xe6\\x81\\xaf\\xe7\\x9f\\xbf\\xe6\\xb1\\xa0-\\xe8\\xbf\\x9b\\xe9\\x98\\xb6.sol\":169:6587  contract StakeContract {... */\n  jump(tag_16)\n    /* \"#utility.yul\":14:191   */\ntag_15:\n    /* \"#utility.yul\":93:106   */\n  dup1\n  mload\n  sub(shl(0xa0, 0x01), 0x01)\n    /* \"#utility.yul\":135:166   */\n  dup2\n  and\n    /* \"#utility.yul\":125:167   */\n  dup2\n  eq\n    /* \"#utility.yul\":115:185   */\n  tag_18\n  jumpi\n    /* \"#utility.yul\":181:182   */\n  0x00\n    /* \"#utility.yul\":178:179   */\n  dup1\n    /* \"#utility.yul\":171:183   */\n  revert\n    /* \"#utility.yul\":115:185   */\ntag_18:\n    /* \"#utility.yul\":14:191   */\n  swap2\n  swap1\n  pop\n  jump\t// out\n    /* \"#utility.yul\":196:489   */\ntag_3:\n    /* \"#utility.yul\":275:281   */\n  0x00\n    /* \"#utility.yul\":283:289   */\n  dup1\n    /* \"#utility.yul\":336:338   */\n  0x40\n    /* \"#utility.yul\":324:333   */\n  dup4\n    /* \"#utility.yul\":315:322   */\n  dup6\n    /* \"#utility.yul\":311:334   */\n  sub\n    /* \"#utility.yul\":307:339   */\n  slt\n    /* \"#utility.yul\":304:356   */\n  iszero\n  tag_20\n  jumpi\n    /* \"#utility.yul\":352:353   */\n  0x00\n    /* \"#utility.yul\":349:350   */\n  dup1\n    /* \"#utility.yul\":342:354   */\n  revert\n    /* \"#utility.yul\":304:356   */\ntag_20:\n    /* \"#utility.yul\":375:415   */\n  tag_21\n    /* \"#utility.yul\":405:414   */\n  dup4\n    /* \"#utility.yul\":375:415   */\n  tag_15\n  jump\t// in\ntag_21:\n    /* \"#utility.yul\":365:415   */\n  swap2\n  pop\n    /* \"#utility.yul\":434:483   */\n  tag_22\n    /* \"#utility.yul\":479:481   */\n  0x20\n    /* \"#utility.yul\":468:477   */\n  dup5\n    /* \"#utility.yul\":464:482   */\n  add\n    /* \"#utility.yul\":434:483   */\n  tag_15\n  jump\t// in\ntag_22:\n    /* \"#utility.yul\":424:483   */\n  swap1\n  pop\n    /* \"#utility.yul\":196:489   */\n  swap3\n  pop\n  swap3\n  swap1\n  pop\n  jump\t// out\n    /* \"#utility.yul\":839:1177   */\ntag_16:\n    /* \"\\xe5\\xae\\x9a\\xe6\\x81\\xaf\\xe7\\x9f\\xbf\\xe6\\xb1\\xa0-\\xe8\\xbf\\x9b\\xe9\\x98\\xb6.sol\":169:6587  contract StakeContract {... */\n  dataSize(sub_0)\n  dup1\n  dataOffset(sub_0)\n  0x00\n  codecopy\n  0x00\n  return\nstop\n\nsub_0: assembly {\n        /* \"\\xe5\\xae\\x9a\\xe6\\x81\\xaf\\xe7\\x9f\\xbf\\xe6\\xb1\\xa0-\\xe8\\xbf\\x9b\\xe9\\x98\\xb6.sol\":169:6587  contract StakeContract {... */\n      mstore(0x40, 0x80)\n      callvalue\n      dup1\n      iszero\n      tag_1\n      jumpi\n      0x00\n      dup1\n      revert\n    tag_1:\n      pop\n      jumpi(tag_2, lt(calldatasize, 0x04))\n      shr(0xe0, calldataload(0x00))\n      dup1\n      0x8da5cb5b\n      gt\n      tag_15\n      jumpi\n      dup1\n      0x8da5cb5b\n      eq\n      tag_9\n      jumpi\n      dup1\n      0x9ba7d1ce\n      eq\n      tag_10\n      jumpi\n      dup1\n      0xb6b55f25\n      eq\n      tag_11\n      jumpi\n      dup1\n      0xdab2997b\n      eq\n      tag_12\n      jumpi\n      dup1\n      0xe8221917\n      eq\n      tag_13\n      jumpi\n      dup1\n      0xfb5bca7a\n      eq\n      tag_14\n      jumpi\n      0x00\n      dup1\n      revert\n    tag_15:\n      dup1\n      0x1afaa6e8\n      eq\n      tag_3\n      jumpi\n      dup1\n      0x4641257d\n      eq\n      tag_4\n      jumpi\n      dup1\n      0x529aca49\n      eq\n      tag_5\n      jumpi\n      dup1\n      0x6dff132e\n      eq\n      tag_6\n      jumpi\n      dup1\n      0x71ca337d\n      eq\n      tag_7\n      jumpi\n      dup1\n      0x8c93ecff\n      eq\n      tag_8\n      jumpi\n    tag_2:\n      0x00\n      dup1\n      revert\n        /* \"\\xe5\\xae\\x9a\\xe6\\x81\\xaf\\xe7\\x9f\\xbf\\xe6\\xb1\\xa0-\\xe8\\xbf\\x9b\\xe9\\x98\\xb6.sol\":1500:1573  function setratio(uint _ratio) external {... */\n    tag_3:\n      tag_16\n      tag_17\n      calldatasize\n      0x04\n      tag_18\n      jump\t// in\n    tag_17:\n        /* \"\\xe5\\xae\\x9a\\xe6\\x81\\xaf\\xe7\\x9f\\xbf\\xe6\\xb1\\xa0-\\xe8\\xbf\\x9b\\xe9\\x98\\xb6.sol\":1551:1556  ratio */\n      0x00\n        /* \"\\xe5\\xae\\x9a\\xe6\\x81\\xaf\\xe7\\x9f\\xbf\\xe6\\xb1\\xa0-\\xe8\\xbf\\x9b\\xe9\\x98\\xb6.sol\":1551:1565  ratio = _ratio */\n      sstore\n        /* \"\\xe5\\xae\\x9a\\xe6\\x81\\xaf\\xe7\\x9f\\xbf\\xe6\\xb1\\xa0-\\xe8\\xbf\\x9b\\xe9\\x98\\xb6.sol\":1500:1573  function setratio(uint _ratio) external {... */\n      jump\n    tag_16:\n      stop\n        /* \"\\xe5\\xae\\x9a\\xe6\\x81\\xaf\\xe7\\x9f\\xbf\\xe6\\xb1\\xa0-\\xe8\\xbf\\x9b\\xe9\\x98\\xb6.sol\":4666:5830  function harvest() public returns (bool) {... */\n    tag_4:\n      tag_20\n      tag_21\n      jump\t// in\n    tag_20:\n      mload(0x40)\n        /* \"#utility.yul\":364:378   */\n      swap1\n      iszero\n        /* \"#utility.yul\":357:379   */\n      iszero\n        /* \"#utility.yul\":339:380   */\n      dup2\n      mstore\n        /* \"#utility.yul\":327:329   */\n      0x20\n        /* \"#utility.yul\":312:330   */\n      add\n        /* \"\\xe5\\xae\\x9a\\xe6\\x81\\xaf\\xe7\\x9f\\xbf\\xe6\\xb1\\xa0-\\xe8\\xbf\\x9b\\xe9\\x98\\xb6.sol\":4666:5830  function harvest() public returns (bool) {... */\n    tag_22:\n      mload(0x40)\n      dup1\n      swap2\n      sub\n      swap1\n      return\n        /* \"\\xe5\\xae\\x9a\\xe6\\x81\\xaf\\xe7\\x9f\\xbf\\xe6\\xb1\\xa0-\\xe8\\xbf\\x9b\\xe9\\x98\\xb6.sol\":5877:6358  function newTotokenRatio() public view returns (uint) {... */\n    tag_5:\n      tag_24\n      tag_25\n      jump\t// in\n    tag_24:\n      mload(0x40)\n        /* \"#utility.yul\":537:562   */\n      swap1\n      dup2\n      mstore\n        /* \"#utility.yul\":525:527   */\n      0x20\n        /* \"#utility.yul\":510:528   */\n      add\n        /* \"\\xe5\\xae\\x9a\\xe6\\x81\\xaf\\xe7\\x9f\\xbf\\xe6\\xb1\\xa0-\\xe8\\xbf\\x9b\\xe9\\x98\\xb6.sol\":5877:6358  function newTotokenRatio() public view returns (uint) {... */\n      tag_22\n        /* \"#utility.yul\":391:568   */\n      jump\n        /* \"\\xe5\\xae\\x9a\\xe6\\x81\\xaf\\xe7\\x9f\\xbf\\xe6\\xb1\\xa0-\\xe8\\xbf\\x9b\\xe9\\x98\\xb6.sol\":378:404  address public rewardtoken */\n    tag_6:\n      sload(0x02)\n      tag_28\n      swap1\n      sub(shl(0xa0, 0x01), 0x01)\n      and\n      dup2\n      jump\n    tag_28:\n      mload(0x40)\n      sub(shl(0xa0, 0x01), 0x01)\n        /* \"#utility.yul\":737:769   */\n      swap1\n      swap2\n      and\n        /* \"#utility.yul\":719:770   */\n      dup2\n      mstore\n        /* \"#utility.yul\":707:709   */\n      0x20\n        /* \"#utility.yul\":692:710   */\n      add\n        /* \"\\xe5\\xae\\x9a\\xe6\\x81\\xaf\\xe7\\x9f\\xbf\\xe6\\xb1\\xa0-\\xe8\\xbf\\x9b\\xe9\\x98\\xb6.sol\":378:404  address public rewardtoken */\n      tag_22\n        /* \"#utility.yul\":573:776   */\n      jump\n        /* \"\\xe5\\xae\\x9a\\xe6\\x81\\xaf\\xe7\\x9f\\xbf\\xe6\\xb1\\xa0-\\xe8\\xbf\\x9b\\xe9\\x98\\xb6.sol\":279:296  uint public ratio */\n    tag_7:\n      tag_24\n      sload(0x00)\n      dup2\n      jump\n        /* \"\\xe5\\xae\\x9a\\xe6\\x81\\xaf\\xe7\\x9f\\xbf\\xe6\\xb1\\xa0-\\xe8\\xbf\\x9b\\xe9\\x98\\xb6.sol\":1074:1114  mapping(address => User) public User_Map */\n    tag_8:\n      tag_35\n      tag_36\n      calldatasize\n      0x04\n      tag_37\n      jump\t// in\n    tag_36:\n      mstore(0x20, 0x05)\n      0x00\n      swap1\n      dup2\n      mstore\n      0x40\n      swap1\n      keccak256\n      dup1\n      sload\n      0x01\n      dup3\n      add\n      sload\n      0x02\n      dup4\n      add\n      sload\n      0x03\n      dup5\n      add\n      sload\n      0x04\n      swap1\n      swap5\n      add\n      sload\n      swap3\n      swap4\n      swap2\n      swap3\n      swap1\n      swap2\n      swap1\n      dup6\n      jump\n    tag_35:\n      0x40\n      dup1\n      mload\n        /* \"#utility.yul\":1331:1356   */\n      swap6\n      dup7\n      mstore\n        /* \"#utility.yul\":1387:1389   */\n      0x20\n        /* \"#utility.yul\":1372:1390   */\n      dup7\n      add\n        /* \"#utility.yul\":1365:1399   */\n      swap5\n      swap1\n      swap5\n      mstore\n        /* \"#utility.yul\":1415:1433   */\n      swap3\n      dup5\n      add\n        /* \"#utility.yul\":1408:1442   */\n      swap2\n      swap1\n      swap2\n      mstore\n        /* \"#utility.yul\":1473:1475   */\n      0x60\n        /* \"#utility.yul\":1458:1476   */\n      dup4\n      add\n        /* \"#utility.yul\":1451:1485   */\n      mstore\n        /* \"#utility.yul\":1516:1519   */\n      0x80\n        /* \"#utility.yul\":1501:1520   */\n      dup3\n      add\n        /* \"#utility.yul\":1494:1529   */\n      mstore\n        /* \"#utility.yul\":1318:1321   */\n      0xa0\n        /* \"#utility.yul\":1303:1322   */\n      add\n        /* \"\\xe5\\xae\\x9a\\xe6\\x81\\xaf\\xe7\\x9f\\xbf\\xe6\\xb1\\xa0-\\xe8\\xbf\\x9b\\xe9\\x98\\xb6.sol\":1074:1114  mapping(address => User) public User_Map */\n      tag_22\n        /* \"#utility.yul\":1072:1535   */\n      jump\n        /* \"\\xe5\\xae\\x9a\\xe6\\x81\\xaf\\xe7\\x9f\\xbf\\xe6\\xb1\\xa0-\\xe8\\xbf\\x9b\\xe9\\x98\\xb6.sol\":461:481  address public owner */\n    tag_9:\n      sload(0x04)\n      tag_28\n      swap1\n      sub(shl(0xa0, 0x01), 0x01)\n      and\n      dup2\n      jump\n        /* \"\\xe5\\xae\\x9a\\xe6\\x81\\xaf\\xe7\\x9f\\xbf\\xe6\\xb1\\xa0-\\xe8\\xbf\\x9b\\xe9\\x98\\xb6.sol\":6405:6582  function tokennumber() public view returns (uint) {... */\n    tag_10:\n      tag_24\n      tag_45\n      jump\t// in\n        /* \"\\xe5\\xae\\x9a\\xe6\\x81\\xaf\\xe7\\x9f\\xbf\\xe6\\xb1\\xa0-\\xe8\\xbf\\x9b\\xe9\\x98\\xb6.sol\":1602:2901  function deposit(uint _amount) public returns (bool) {... */\n    tag_11:\n      tag_20\n      tag_48\n      calldatasize\n      0x04\n      tag_18\n      jump\t// in\n    tag_48:\n      tag_49\n      jump\t// in\n        /* \"\\xe5\\xae\\x9a\\xe6\\x81\\xaf\\xe7\\x9f\\xbf\\xe6\\xb1\\xa0-\\xe8\\xbf\\x9b\\xe9\\x98\\xb6.sol\":325:350  address public staketoken */\n    tag_12:\n      sload(0x01)\n      tag_28\n      swap1\n      sub(shl(0xa0, 0x01), 0x01)\n      and\n      dup2\n      jump\n        /* \"\\xe5\\xae\\x9a\\xe6\\x81\\xaf\\xe7\\x9f\\xbf\\xe6\\xb1\\xa0-\\xe8\\xbf\\x9b\\xe9\\x98\\xb6.sol\":432:454  uint public staketotal */\n    tag_13:\n      tag_24\n      sload(0x03)\n      dup2\n      jump\n        /* \"\\xe5\\xae\\x9a\\xe6\\x81\\xaf\\xe7\\x9f\\xbf\\xe6\\xb1\\xa0-\\xe8\\xbf\\x9b\\xe9\\x98\\xb6.sol\":2947:4627  function harvestwithDraw() public returns (bool) {... */\n    tag_14:\n      tag_20\n      tag_58\n      jump\t// in\n        /* \"\\xe5\\xae\\x9a\\xe6\\x81\\xaf\\xe7\\x9f\\xbf\\xe6\\xb1\\xa0-\\xe8\\xbf\\x9b\\xe9\\x98\\xb6.sol\":4666:5830  function harvest() public returns (bool) {... */\n    tag_21:\n        /* \"\\xe5\\xae\\x9a\\xe6\\x81\\xaf\\xe7\\x9f\\xbf\\xe6\\xb1\\xa0-\\xe8\\xbf\\x9b\\xe9\\x98\\xb6.sol\":4701:4705  bool */\n      0x00\n        /* \"\\xe5\\xae\\x9a\\xe6\\x81\\xaf\\xe7\\x9f\\xbf\\xe6\\xb1\\xa0-\\xe8\\xbf\\x9b\\xe9\\x98\\xb6.sol\":4979:4984  ratio */\n      dup1\n      sload\n        /* \"\\xe5\\xae\\x9a\\xe6\\x81\\xaf\\xe7\\x9f\\xbf\\xe6\\xb1\\xa0-\\xe8\\xbf\\x9b\\xe9\\x98\\xb6.sol\":4951:4961  msg.sender */\n      caller\n        /* \"\\xe5\\xae\\x9a\\xe6\\x81\\xaf\\xe7\\x9f\\xbf\\xe6\\xb1\\xa0-\\xe8\\xbf\\x9b\\xe9\\x98\\xb6.sol\":4942:4962  User_Map[msg.sender] */\n      dup3\n      mstore\n        /* \"\\xe5\\xae\\x9a\\xe6\\x81\\xaf\\xe7\\x9f\\xbf\\xe6\\xb1\\xa0-\\xe8\\xbf\\x9b\\xe9\\x98\\xb6.sol\":4942:4950  User_Map */\n      0x05\n        /* \"\\xe5\\xae\\x9a\\xe6\\x81\\xaf\\xe7\\x9f\\xbf\\xe6\\xb1\\xa0-\\xe8\\xbf\\x9b\\xe9\\x98\\xb6.sol\":4942:4962  User_Map[msg.sender] */\n      0x20\n      mstore\n      0x40\n      dup3\n      keccak256\n        /* \"\\xe5\\xae\\x9a\\xe6\\x81\\xaf\\xe7\\x9f\\xbf\\xe6\\xb1\\xa0-\\xe8\\xbf\\x9b\\xe9\\x98\\xb6.sol\":4942:4974  User_Map[msg.sender].stakeNumber */\n      sload\n        /* \"\\xe5\\xae\\x9a\\xe6\\x81\\xaf\\xe7\\x9f\\xbf\\xe6\\xb1\\xa0-\\xe8\\xbf\\x9b\\xe9\\x98\\xb6.sol\":4812:5012  User_Map[msg.sender].last_totoken_ratio... */\n      tag_62\n      swap2\n        /* \"\\xe5\\xae\\x9a\\xe6\\x81\\xaf\\xe7\\x9f\\xbf\\xe6\\xb1\\xa0-\\xe8\\xbf\\x9b\\xe9\\x98\\xb6.sol\":4866:5011  (block.timestamp.sub(User_Map[msg.sender].last_Stake_Time))... */\n      tag_63\n      swap2\n        /* \"\\xe5\\xae\\x9a\\xe6\\x81\\xaf\\xe7\\x9f\\xbf\\xe6\\xb1\\xa0-\\xe8\\xbf\\x9b\\xe9\\x98\\xb6.sol\":4941:5009  (User_Map[msg.sender].stakeNumber.mul(ratio).div(100)).div(31536000) */\n      tag_64\n      swap2\n        /* \"\\xe5\\xae\\x9a\\xe6\\x81\\xaf\\xe7\\x9f\\xbf\\xe6\\xb1\\xa0-\\xe8\\xbf\\x9b\\xe9\\x98\\xb6.sol\":5000:5008  31536000 */\n      0x01e13380\n      swap2\n        /* \"\\xe5\\xae\\x9a\\xe6\\x81\\xaf\\xe7\\x9f\\xbf\\xe6\\xb1\\xa0-\\xe8\\xbf\\x9b\\xe9\\x98\\xb6.sol\":4942:4994  User_Map[msg.sender].stakeNumber.mul(ratio).div(100) */\n      tag_66\n      swap2\n        /* \"\\xe5\\xae\\x9a\\xe6\\x81\\xaf\\xe7\\x9f\\xbf\\xe6\\xb1\\xa0-\\xe8\\xbf\\x9b\\xe9\\x98\\xb6.sol\":4990:4993  100 */\n      0x64\n      swap2\n        /* \"\\xe5\\xae\\x9a\\xe6\\x81\\xaf\\xe7\\x9f\\xbf\\xe6\\xb1\\xa0-\\xe8\\xbf\\x9b\\xe9\\x98\\xb6.sol\":4942:4994  User_Map[msg.sender].stakeNumber.mul(ratio).div(100) */\n      dup4\n      swap2\n        /* \"\\xe5\\xae\\x9a\\xe6\\x81\\xaf\\xe7\\x9f\\xbf\\xe6\\xb1\\xa0-\\xe8\\xbf\\x9b\\xe9\\x98\\xb6.sol\":4942:4978  User_Map[msg.sender].stakeNumber.mul */\n      tag_67\n        /* \"\\xe5\\xae\\x9a\\xe6\\x81\\xaf\\xe7\\x9f\\xbf\\xe6\\xb1\\xa0-\\xe8\\xbf\\x9b\\xe9\\x98\\xb6.sol\":4942:4985  User_Map[msg.sender].stakeNumber.mul(ratio) */\n      jump\t// in\n    tag_66:\n        /* \"\\xe5\\xae\\x9a\\xe6\\x81\\xaf\\xe7\\x9f\\xbf\\xe6\\xb1\\xa0-\\xe8\\xbf\\x9b\\xe9\\x98\\xb6.sol\":4942:4989  User_Map[msg.sender].stakeNumber.mul(ratio).div */\n      swap1\n      tag_68\n        /* \"\\xe5\\xae\\x9a\\xe6\\x81\\xaf\\xe7\\x9f\\xbf\\xe6\\xb1\\xa0-\\xe8\\xbf\\x9b\\xe9\\x98\\xb6.sol\":4942:4994  User_Map[msg.sender].stakeNumber.mul(ratio).div(100) */\n      jump\t// in\n        /* \"\\xe5\\xae\\x9a\\xe6\\x81\\xaf\\xe7\\x9f\\xbf\\xe6\\xb1\\xa0-\\xe8\\xbf\\x9b\\xe9\\x98\\xb6.sol\":4941:5009  (User_Map[msg.sender].stakeNumber.mul(ratio).div(100)).div(31536000) */\n    tag_64:\n        /* \"\\xe5\\xae\\x9a\\xe6\\x81\\xaf\\xe7\\x9f\\xbf\\xe6\\xb1\\xa0-\\xe8\\xbf\\x9b\\xe9\\x98\\xb6.sol\":4896:4906  msg.sender */\n      caller\n        /* \"\\xe5\\xae\\x9a\\xe6\\x81\\xaf\\xe7\\x9f\\xbf\\xe6\\xb1\\xa0-\\xe8\\xbf\\x9b\\xe9\\x98\\xb6.sol\":4887:4907  User_Map[msg.sender] */\n      0x00\n      swap1\n      dup2\n      mstore\n        /* \"\\xe5\\xae\\x9a\\xe6\\x81\\xaf\\xe7\\x9f\\xbf\\xe6\\xb1\\xa0-\\xe8\\xbf\\x9b\\xe9\\x98\\xb6.sol\":4887:4895  User_Map */\n      0x05\n        /* \"\\xe5\\xae\\x9a\\xe6\\x81\\xaf\\xe7\\x9f\\xbf\\xe6\\xb1\\xa0-\\xe8\\xbf\\x9b\\xe9\\x98\\xb6.sol\":4887:4907  User_Map[msg.sender] */\n      0x20\n      mstore\n      0x40\n      swap1\n      keccak256\n        /* \"\\xe5\\xae\\x9a\\xe6\\x81\\xaf\\xe7\\x9f\\xbf\\xe6\\xb1\\xa0-\\xe8\\xbf\\x9b\\xe9\\x98\\xb6.sol\":4887:4923  User_Map[msg.sender].last_Stake_Time */\n      0x01\n      add\n      sload\n        /* \"\\xe5\\xae\\x9a\\xe6\\x81\\xaf\\xe7\\x9f\\xbf\\xe6\\xb1\\xa0-\\xe8\\xbf\\x9b\\xe9\\x98\\xb6.sol\":4867:4924  block.timestamp.sub(User_Map[msg.sender].last_Stake_Time) */\n      tag_69\n      swap1\n        /* \"\\xe5\\xae\\x9a\\xe6\\x81\\xaf\\xe7\\x9f\\xbf\\xe6\\xb1\\xa0-\\xe8\\xbf\\x9b\\xe9\\x98\\xb6.sol\":4867:4882  block.timestamp */\n      timestamp\n      swap1\n        /* \"\\xe5\\xae\\x9a\\xe6\\x81\\xaf\\xe7\\x9f\\xbf\\xe6\\xb1\\xa0-\\xe8\\xbf\\x9b\\xe9\\x98\\xb6.sol\":4867:4886  block.timestamp.sub */\n      tag_70\n        /* \"\\xe5\\xae\\x9a\\xe6\\x81\\xaf\\xe7\\x9f\\xbf\\xe6\\xb1\\xa0-\\xe8\\xbf\\x9b\\xe9\\x98\\xb6.sol\":4867:4924  block.timestamp.sub(User_Map[msg.sender].last_Stake_Time) */\n      jump\t// in\n    tag_69:\n        /* \"\\xe5\\xae\\x9a\\xe6\\x81\\xaf\\xe7\\x9f\\xbf\\xe6\\xb1\\xa0-\\xe8\\xbf\\x9b\\xe9\\x98\\xb6.sol\":4866:4939  (block.timestamp.sub(User_Map[msg.sender].last_Stake_Time))... */\n      swap1\n      tag_67\n        /* \"\\xe5\\xae\\x9a\\xe6\\x81\\xaf\\xe7\\x9f\\xbf\\xe6\\xb1\\xa0-\\xe8\\xbf\\x9b\\xe9\\x98\\xb6.sol\":4866:5011  (block.timestamp.sub(User_Map[msg.sender].last_Stake_Time))... */\n      jump\t// in\n    tag_63:\n        /* \"\\xe5\\xae\\x9a\\xe6\\x81\\xaf\\xe7\\x9f\\xbf\\xe6\\xb1\\xa0-\\xe8\\xbf\\x9b\\xe9\\x98\\xb6.sol\":4821:4831  msg.sender */\n      caller\n        /* \"\\xe5\\xae\\x9a\\xe6\\x81\\xaf\\xe7\\x9f\\xbf\\xe6\\xb1\\xa0-\\xe8\\xbf\\x9b\\xe9\\x98\\xb6.sol\":4812:4832  User_Map[msg.sender] */\n      0x00\n      swap1\n      dup2\n      mstore\n        /* \"\\xe5\\xae\\x9a\\xe6\\x81\\xaf\\xe7\\x9f\\xbf\\xe6\\xb1\\xa0-\\xe8\\xbf\\x9b\\xe9\\x98\\xb6.sol\":4812:4820  User_Map */\n      0x05\n        /* \"\\xe5\\xae\\x9a\\xe6\\x81\\xaf\\xe7\\x9f\\xbf\\xe6\\xb1\\xa0-\\xe8\\xbf\\x9b\\xe9\\x98\\xb6.sol\":4812:4832  User_Map[msg.sender] */\n      0x20\n      mstore\n      0x40\n      swap1\n      keccak256\n        /* \"\\xe5\\xae\\x9a\\xe6\\x81\\xaf\\xe7\\x9f\\xbf\\xe6\\xb1\\xa0-\\xe8\\xbf\\x9b\\xe9\\x98\\xb6.sol\":4812:4851  User_Map[msg.sender].last_totoken_ratio */\n      0x02\n      add\n      sload\n      swap1\n        /* \"\\xe5\\xae\\x9a\\xe6\\x81\\xaf\\xe7\\x9f\\xbf\\xe6\\xb1\\xa0-\\xe8\\xbf\\x9b\\xe9\\x98\\xb6.sol\":4812:4865  User_Map[msg.sender].last_totoken_ratio... */\n      tag_71\n        /* \"\\xe5\\xae\\x9a\\xe6\\x81\\xaf\\xe7\\x9f\\xbf\\xe6\\xb1\\xa0-\\xe8\\xbf\\x9b\\xe9\\x98\\xb6.sol\":4812:5012  User_Map[msg.sender].last_totoken_ratio... */\n      jump\t// in\n    tag_62:\n        /* \"\\xe5\\xae\\x9a\\xe6\\x81\\xaf\\xe7\\x9f\\xbf\\xe6\\xb1\\xa0-\\xe8\\xbf\\x9b\\xe9\\x98\\xb6.sol\":4786:4796  msg.sender */\n      caller\n        /* \"\\xe5\\xae\\x9a\\xe6\\x81\\xaf\\xe7\\x9f\\xbf\\xe6\\xb1\\xa0-\\xe8\\xbf\\x9b\\xe9\\x98\\xb6.sol\":4777:4797  User_Map[msg.sender] */\n      0x00\n      swap1\n      dup2\n      mstore\n        /* \"\\xe5\\xae\\x9a\\xe6\\x81\\xaf\\xe7\\x9f\\xbf\\xe6\\xb1\\xa0-\\xe8\\xbf\\x9b\\xe9\\x98\\xb6.sol\":4777:4785  User_Map */\n      0x05\n        /* \"\\xe5\\xae\\x9a\\xe6\\x81\\xaf\\xe7\\x9f\\xbf\\xe6\\xb1\\xa0-\\xe8\\xbf\\x9b\\xe9\\x98\\xb6.sol\":4777:4797  User_Map[msg.sender] */\n      0x20\n      mstore\n      0x40\n      dup2\n      keccak256\n        /* \"\\xe5\\xae\\x9a\\xe6\\x81\\xaf\\xe7\\x9f\\xbf\\xe6\\xb1\\xa0-\\xe8\\xbf\\x9b\\xe9\\x98\\xb6.sol\":4777:4809  User_Map[msg.sender].whole_ratio */\n      0x03\n      add\n        /* \"\\xe5\\xae\\x9a\\xe6\\x81\\xaf\\xe7\\x9f\\xbf\\xe6\\xb1\\xa0-\\xe8\\xbf\\x9b\\xe9\\x98\\xb6.sol\":4777:5012  User_Map[msg.sender].whole_ratio = User_Map[msg.sender].last_totoken_ratio... */\n      swap2\n      swap1\n      swap2\n      sstore\n        /* \"\\xe5\\xae\\x9a\\xe6\\x81\\xaf\\xe7\\x9f\\xbf\\xe6\\xb1\\xa0-\\xe8\\xbf\\x9b\\xe9\\x98\\xb6.sol\":5035:5048  tokennumber() */\n      tag_72\n        /* \"\\xe5\\xae\\x9a\\xe6\\x81\\xaf\\xe7\\x9f\\xbf\\xe6\\xb1\\xa0-\\xe8\\xbf\\x9b\\xe9\\x98\\xb6.sol\":5035:5046  tokennumber */\n      tag_45\n        /* \"\\xe5\\xae\\x9a\\xe6\\x81\\xaf\\xe7\\x9f\\xbf\\xe6\\xb1\\xa0-\\xe8\\xbf\\x9b\\xe9\\x98\\xb6.sol\":5035:5048  tokennumber() */\n      jump\t// in\n    tag_72:\n        /* \"\\xe5\\xae\\x9a\\xe6\\x81\\xaf\\xe7\\x9f\\xbf\\xe6\\xb1\\xa0-\\xe8\\xbf\\x9b\\xe9\\x98\\xb6.sol\":5081:5091  msg.sender */\n      caller\n        /* \"\\xe5\\xae\\x9a\\xe6\\x81\\xaf\\xe7\\x9f\\xbf\\xe6\\xb1\\xa0-\\xe8\\xbf\\x9b\\xe9\\x98\\xb6.sol\":5072:5092  User_Map[msg.sender] */\n      0x00\n      swap1\n      dup2\n      mstore\n        /* \"\\xe5\\xae\\x9a\\xe6\\x81\\xaf\\xe7\\x9f\\xbf\\xe6\\xb1\\xa0-\\xe8\\xbf\\x9b\\xe9\\x98\\xb6.sol\":5072:5080  User_Map */\n      0x05\n        /* \"\\xe5\\xae\\x9a\\xe6\\x81\\xaf\\xe7\\x9f\\xbf\\xe6\\xb1\\xa0-\\xe8\\xbf\\x9b\\xe9\\x98\\xb6.sol\":5072:5092  User_Map[msg.sender] */\n      0x20\n      mstore\n      0x40\n      swap1\n      keccak256\n        /* \"\\xe5\\xae\\x9a\\xe6\\x81\\xaf\\xe7\\x9f\\xbf\\xe6\\xb1\\xa0-\\xe8\\xbf\\x9b\\xe9\\x98\\xb6.sol\":5072:5104  User_Map[msg.sender].whole_ratio */\n      0x03\n      add\n      sload\n        /* \"\\xe5\\xae\\x9a\\xe6\\x81\\xaf\\xe7\\x9f\\xbf\\xe6\\xb1\\xa0-\\xe8\\xbf\\x9b\\xe9\\x98\\xb6.sol\":5025:5048  uint x =  tokennumber() */\n      swap1\n      swap2\n      pop\n        /* \"\\xe5\\xae\\x9a\\xe6\\x81\\xaf\\xe7\\x9f\\xbf\\xe6\\xb1\\xa0-\\xe8\\xbf\\x9b\\xe9\\x98\\xb6.sol\":5068:5104  x > User_Map[msg.sender].whole_ratio */\n      dup2\n      gt\n        /* \"\\xe5\\xae\\x9a\\xe6\\x81\\xaf\\xe7\\x9f\\xbf\\xe6\\xb1\\xa0-\\xe8\\xbf\\x9b\\xe9\\x98\\xb6.sol\":5059:5132  require (x > User_Map[msg.sender].whole_ratio,\"rewardtoken Insufficient\") */\n      tag_73\n      jumpi\n      mload(0x40)\n      shl(0xe5, 0x461bcd)\n      dup2\n      mstore\n      0x04\n      add\n      tag_74\n      swap1\n      tag_75\n      jump\t// in\n    tag_74:\n      mload(0x40)\n      dup1\n      swap2\n      sub\n      swap1\n      revert\n    tag_73:\n        /* \"\\xe5\\xae\\x9a\\xe6\\x81\\xaf\\xe7\\x9f\\xbf\\xe6\\xb1\\xa0-\\xe8\\xbf\\x9b\\xe9\\x98\\xb6.sol\":5251:5261  msg.sender */\n      caller\n        /* \"\\xe5\\xae\\x9a\\xe6\\x81\\xaf\\xe7\\x9f\\xbf\\xe6\\xb1\\xa0-\\xe8\\xbf\\x9b\\xe9\\x98\\xb6.sol\":5263:5283  User_Map[msg.sender] */\n      0x00\n      dup2\n      dup2\n      mstore\n        /* \"\\xe5\\xae\\x9a\\xe6\\x81\\xaf\\xe7\\x9f\\xbf\\xe6\\xb1\\xa0-\\xe8\\xbf\\x9b\\xe9\\x98\\xb6.sol\":5263:5271  User_Map */\n      0x05\n        /* \"\\xe5\\xae\\x9a\\xe6\\x81\\xaf\\xe7\\x9f\\xbf\\xe6\\xb1\\xa0-\\xe8\\xbf\\x9b\\xe9\\x98\\xb6.sol\":5263:5283  User_Map[msg.sender] */\n      0x20\n      mstore\n      0x40\n      swap1\n      keccak256\n        /* \"\\xe5\\xae\\x9a\\xe6\\x81\\xaf\\xe7\\x9f\\xbf\\xe6\\xb1\\xa0-\\xe8\\xbf\\x9b\\xe9\\x98\\xb6.sol\":5263:5295  User_Map[msg.sender].whole_ratio */\n      0x03\n      add\n      sload\n        /* \"\\xe5\\xae\\x9a\\xe6\\x81\\xaf\\xe7\\x9f\\xbf\\xe6\\xb1\\xa0-\\xe8\\xbf\\x9b\\xe9\\x98\\xb6.sol\":5225:5236  rewardtoken */\n      sload(0x02)\n        /* \"\\xe5\\xae\\x9a\\xe6\\x81\\xaf\\xe7\\x9f\\xbf\\xe6\\xb1\\xa0-\\xe8\\xbf\\x9b\\xe9\\x98\\xb6.sol\":5218:5296  IERC20(rewardtoken).safeTransfer(msg.sender, User_Map[msg.sender].whole_ratio) */\n      tag_76\n      swap3\n      sub(shl(0xa0, 0x01), 0x01)\n        /* \"\\xe5\\xae\\x9a\\xe6\\x81\\xaf\\xe7\\x9f\\xbf\\xe6\\xb1\\xa0-\\xe8\\xbf\\x9b\\xe9\\x98\\xb6.sol\":5225:5236  rewardtoken */\n      swap1\n      swap2\n      and\n      swap2\n        /* \"\\xe5\\xae\\x9a\\xe6\\x81\\xaf\\xe7\\x9f\\xbf\\xe6\\xb1\\xa0-\\xe8\\xbf\\x9b\\xe9\\x98\\xb6.sol\":5218:5250  IERC20(rewardtoken).safeTransfer */\n      tag_77\n        /* \"\\xe5\\xae\\x9a\\xe6\\x81\\xaf\\xe7\\x9f\\xbf\\xe6\\xb1\\xa0-\\xe8\\xbf\\x9b\\xe9\\x98\\xb6.sol\":5218:5296  IERC20(rewardtoken).safeTransfer(msg.sender, User_Map[msg.sender].whole_ratio) */\n      jump\t// in\n    tag_76:\n        /* \"\\xe5\\xae\\x9a\\xe6\\x81\\xaf\\xe7\\x9f\\xbf\\xe6\\xb1\\xa0-\\xe8\\xbf\\x9b\\xe9\\x98\\xb6.sol\":5334:5344  msg.sender */\n      caller\n        /* \"\\xe5\\xae\\x9a\\xe6\\x81\\xaf\\xe7\\x9f\\xbf\\xe6\\xb1\\xa0-\\xe8\\xbf\\x9b\\xe9\\x98\\xb6.sol\":5346:5366  User_Map[msg.sender] */\n      0x00\n      dup2\n      dup2\n      mstore\n        /* \"\\xe5\\xae\\x9a\\xe6\\x81\\xaf\\xe7\\x9f\\xbf\\xe6\\xb1\\xa0-\\xe8\\xbf\\x9b\\xe9\\x98\\xb6.sol\":5346:5354  User_Map */\n      0x05\n        /* \"\\xe5\\xae\\x9a\\xe6\\x81\\xaf\\xe7\\x9f\\xbf\\xe6\\xb1\\xa0-\\xe8\\xbf\\x9b\\xe9\\x98\\xb6.sol\":5346:5366  User_Map[msg.sender] */\n      0x20\n      swap1\n      dup2\n      mstore\n      0x40\n      swap2\n      dup3\n      swap1\n      keccak256\n        /* \"\\xe5\\xae\\x9a\\xe6\\x81\\xaf\\xe7\\x9f\\xbf\\xe6\\xb1\\xa0-\\xe8\\xbf\\x9b\\xe9\\x98\\xb6.sol\":5346:5378  User_Map[msg.sender].whole_ratio */\n      0x03\n      add\n      sload\n        /* \"\\xe5\\xae\\x9a\\xe6\\x81\\xaf\\xe7\\x9f\\xbf\\xe6\\xb1\\xa0-\\xe8\\xbf\\x9b\\xe9\\x98\\xb6.sol\":5325:5379  transfer(msg.sender, User_Map[msg.sender].whole_ratio) */\n      swap2\n      mload\n        /* \"#utility.yul\":537:562   */\n      swap2\n      dup3\n      mstore\n        /* \"\\xe5\\xae\\x9a\\xe6\\x81\\xaf\\xe7\\x9f\\xbf\\xe6\\xb1\\xa0-\\xe8\\xbf\\x9b\\xe9\\x98\\xb6.sol\":5325:5379  transfer(msg.sender, User_Map[msg.sender].whole_ratio) */\n      0xa9059cbb2ab09eb219583f4a59a5d0623ade346d962bcd4e46b11da047c9049b\n      swap2\n        /* \"#utility.yul\":510:528   */\n      add\n        /* \"\\xe5\\xae\\x9a\\xe6\\x81\\xaf\\xe7\\x9f\\xbf\\xe6\\xb1\\xa0-\\xe8\\xbf\\x9b\\xe9\\x98\\xb6.sol\":5325:5379  transfer(msg.sender, User_Map[msg.sender].whole_ratio) */\n      mload(0x40)\n      dup1\n      swap2\n      sub\n      swap1\n      log2\n      pop\n      pop\n        /* \"\\xe5\\xae\\x9a\\xe6\\x81\\xaf\\xe7\\x9f\\xbf\\xe6\\xb1\\xa0-\\xe8\\xbf\\x9b\\xe9\\x98\\xb6.sol\":5465:5475  msg.sender */\n      caller\n        /* \"\\xe5\\xae\\x9a\\xe6\\x81\\xaf\\xe7\\x9f\\xbf\\xe6\\xb1\\xa0-\\xe8\\xbf\\x9b\\xe9\\x98\\xb6.sol\":5491:5492  0 */\n      0x00\n        /* \"\\xe5\\xae\\x9a\\xe6\\x81\\xaf\\xe7\\x9f\\xbf\\xe6\\xb1\\xa0-\\xe8\\xbf\\x9b\\xe9\\x98\\xb6.sol\":5456:5476  User_Map[msg.sender] */\n      swap1\n      dup2\n      mstore\n        /* \"\\xe5\\xae\\x9a\\xe6\\x81\\xaf\\xe7\\x9f\\xbf\\xe6\\xb1\\xa0-\\xe8\\xbf\\x9b\\xe9\\x98\\xb6.sol\":5456:5464  User_Map */\n      0x05\n        /* \"\\xe5\\xae\\x9a\\xe6\\x81\\xaf\\xe7\\x9f\\xbf\\xe6\\xb1\\xa0-\\xe8\\xbf\\x9b\\xe9\\x98\\xb6.sol\":5456:5476  User_Map[msg.sender] */\n      0x20\n      mstore\n      0x40\n      dup2\n      keccak256\n        /* \"\\xe5\\xae\\x9a\\xe6\\x81\\xaf\\xe7\\x9f\\xbf\\xe6\\xb1\\xa0-\\xe8\\xbf\\x9b\\xe9\\x98\\xb6.sol\":5456:5488  User_Map[msg.sender].whole_ratio */\n      0x03\n      dup2\n      add\n        /* \"\\xe5\\xae\\x9a\\xe6\\x81\\xaf\\xe7\\x9f\\xbf\\xe6\\xb1\\xa0-\\xe8\\xbf\\x9b\\xe9\\x98\\xb6.sol\":5456:5492  User_Map[msg.sender].whole_ratio = 0 */\n      dup3\n      swap1\n      sstore\n        /* \"\\xe5\\xae\\x9a\\xe6\\x81\\xaf\\xe7\\x9f\\xbf\\xe6\\xb1\\xa0-\\xe8\\xbf\\x9b\\xe9\\x98\\xb6.sol\":5579:5618  User_Map[msg.sender].last_totoken_ratio */\n      0x02\n      dup2\n      add\n        /* \"\\xe5\\xae\\x9a\\xe6\\x81\\xaf\\xe7\\x9f\\xbf\\xe6\\xb1\\xa0-\\xe8\\xbf\\x9b\\xe9\\x98\\xb6.sol\":5579:5622  User_Map[msg.sender].last_totoken_ratio = 0 */\n      swap2\n      swap1\n      swap2\n      sstore\n        /* \"\\xe5\\xae\\x9a\\xe6\\x81\\xaf\\xe7\\x9f\\xbf\\xe6\\xb1\\xa0-\\xe8\\xbf\\x9b\\xe9\\x98\\xb6.sol\":5781:5796  block.timestamp */\n      timestamp\n        /* \"\\xe5\\xae\\x9a\\xe6\\x81\\xaf\\xe7\\x9f\\xbf\\xe6\\xb1\\xa0-\\xe8\\xbf\\x9b\\xe9\\x98\\xb6.sol\":5740:5778  User_Map[msg.sender].last_totoken_Time */\n      0x04\n      swap1\n      swap2\n      add\n        /* \"\\xe5\\xae\\x9a\\xe6\\x81\\xaf\\xe7\\x9f\\xbf\\xe6\\xb1\\xa0-\\xe8\\xbf\\x9b\\xe9\\x98\\xb6.sol\":5740:5796  User_Map[msg.sender].last_totoken_Time = block.timestamp */\n      sstore\n      0x01\n      swap1\n        /* \"\\xe5\\xae\\x9a\\xe6\\x81\\xaf\\xe7\\x9f\\xbf\\xe6\\xb1\\xa0-\\xe8\\xbf\\x9b\\xe9\\x98\\xb6.sol\":4666:5830  function harvest() public returns (bool) {... */\n      jump\t// out\n        /* \"\\xe5\\xae\\x9a\\xe6\\x81\\xaf\\xe7\\x9f\\xbf\\xe6\\xb1\\xa0-\\xe8\\xbf\\x9b\\xe9\\x98\\xb6.sol\":5877:6358  function newTotokenRatio() public view returns (uint) {... */\n    tag_25:\n        /* \"\\xe5\\xae\\x9a\\xe6\\x81\\xaf\\xe7\\x9f\\xbf\\xe6\\xb1\\xa0-\\xe8\\xbf\\x9b\\xe9\\x98\\xb6.sol\":6054:6064  msg.sender */\n      caller\n        /* \"\\xe5\\xae\\x9a\\xe6\\x81\\xaf\\xe7\\x9f\\xbf\\xe6\\xb1\\xa0-\\xe8\\xbf\\x9b\\xe9\\x98\\xb6.sol\":5925:5929  uint */\n      0x00\n        /* \"\\xe5\\xae\\x9a\\xe6\\x81\\xaf\\xe7\\x9f\\xbf\\xe6\\xb1\\xa0-\\xe8\\xbf\\x9b\\xe9\\x98\\xb6.sol\":6045:6065  User_Map[msg.sender] */\n      swap1\n      dup2\n      mstore\n        /* \"\\xe5\\xae\\x9a\\xe6\\x81\\xaf\\xe7\\x9f\\xbf\\xe6\\xb1\\xa0-\\xe8\\xbf\\x9b\\xe9\\x98\\xb6.sol\":6045:6053  User_Map */\n      0x05\n        /* \"\\xe5\\xae\\x9a\\xe6\\x81\\xaf\\xe7\\x9f\\xbf\\xe6\\xb1\\xa0-\\xe8\\xbf\\x9b\\xe9\\x98\\xb6.sol\":6045:6065  User_Map[msg.sender] */\n      0x20\n      mstore\n      0x40\n      dup2\n      keccak256\n        /* \"\\xe5\\xae\\x9a\\xe6\\x81\\xaf\\xe7\\x9f\\xbf\\xe6\\xb1\\xa0-\\xe8\\xbf\\x9b\\xe9\\x98\\xb6.sol\":6045:6083  User_Map[msg.sender].last_totoken_Time */\n      0x04\n      add\n      sload\n        /* \"\\xe5\\xae\\x9a\\xe6\\x81\\xaf\\xe7\\x9f\\xbf\\xe6\\xb1\\xa0-\\xe8\\xbf\\x9b\\xe9\\x98\\xb6.sol\":5925:5929  uint */\n      dup2\n      swap1\n        /* \"\\xe5\\xae\\x9a\\xe6\\x81\\xaf\\xe7\\x9f\\xbf\\xe6\\xb1\\xa0-\\xe8\\xbf\\x9b\\xe9\\x98\\xb6.sol\":6027:6083  block.timestamp - User_Map[msg.sender].last_totoken_Time */\n      tag_80\n      swap1\n        /* \"\\xe5\\xae\\x9a\\xe6\\x81\\xaf\\xe7\\x9f\\xbf\\xe6\\xb1\\xa0-\\xe8\\xbf\\x9b\\xe9\\x98\\xb6.sol\":6027:6042  block.timestamp */\n      timestamp\n        /* \"\\xe5\\xae\\x9a\\xe6\\x81\\xaf\\xe7\\x9f\\xbf\\xe6\\xb1\\xa0-\\xe8\\xbf\\x9b\\xe9\\x98\\xb6.sol\":6027:6083  block.timestamp - User_Map[msg.sender].last_totoken_Time */\n      tag_81\n      jump\t// in\n    tag_80:\n        /* \"\\xe5\\xae\\x9a\\xe6\\x81\\xaf\\xe7\\x9f\\xbf\\xe6\\xb1\\xa0-\\xe8\\xbf\\x9b\\xe9\\x98\\xb6.sol\":6282:6292  msg.sender */\n      caller\n        /* \"\\xe5\\xae\\x9a\\xe6\\x81\\xaf\\xe7\\x9f\\xbf\\xe6\\xb1\\xa0-\\xe8\\xbf\\x9b\\xe9\\x98\\xb6.sol\":6140:6162  uint newTotokenRatione */\n      0x00\n        /* \"\\xe5\\xae\\x9a\\xe6\\x81\\xaf\\xe7\\x9f\\xbf\\xe6\\xb1\\xa0-\\xe8\\xbf\\x9b\\xe9\\x98\\xb6.sol\":6273:6293  User_Map[msg.sender] */\n      swap1\n      dup2\n      mstore\n        /* \"\\xe5\\xae\\x9a\\xe6\\x81\\xaf\\xe7\\x9f\\xbf\\xe6\\xb1\\xa0-\\xe8\\xbf\\x9b\\xe9\\x98\\xb6.sol\":6273:6281  User_Map */\n      0x05\n        /* \"\\xe5\\xae\\x9a\\xe6\\x81\\xaf\\xe7\\x9f\\xbf\\xe6\\xb1\\xa0-\\xe8\\xbf\\x9b\\xe9\\x98\\xb6.sol\":6273:6293  User_Map[msg.sender] */\n      0x20\n      mstore\n      0x40\n      dup2\n      keccak256\n        /* \"\\xe5\\xae\\x9a\\xe6\\x81\\xaf\\xe7\\x9f\\xbf\\xe6\\xb1\\xa0-\\xe8\\xbf\\x9b\\xe9\\x98\\xb6.sol\":6273:6312  User_Map[msg.sender].last_totoken_ratio */\n      0x02\n      dup2\n      add\n      sload\n        /* \"\\xe5\\xae\\x9a\\xe6\\x81\\xaf\\xe7\\x9f\\xbf\\xe6\\xb1\\xa0-\\xe8\\xbf\\x9b\\xe9\\x98\\xb6.sol\":6226:6231  ratio */\n      dup3\n      sload\n        /* \"\\xe5\\xae\\x9a\\xe6\\x81\\xaf\\xe7\\x9f\\xbf\\xe6\\xb1\\xa0-\\xe8\\xbf\\x9b\\xe9\\x98\\xb6.sol\":6189:6221  User_Map[msg.sender].stakeNumber */\n      swap2\n      sload\n        /* \"\\xe5\\xae\\x9a\\xe6\\x81\\xaf\\xe7\\x9f\\xbf\\xe6\\xb1\\xa0-\\xe8\\xbf\\x9b\\xe9\\x98\\xb6.sol\":6012:6083  uint newtime = block.timestamp - User_Map[msg.sender].last_totoken_Time */\n      swap4\n      swap5\n      pop\n        /* \"\\xe5\\xae\\x9a\\xe6\\x81\\xaf\\xe7\\x9f\\xbf\\xe6\\xb1\\xa0-\\xe8\\xbf\\x9b\\xe9\\x98\\xb6.sol\":6140:6162  uint newTotokenRatione */\n      swap2\n      swap3\n        /* \"\\xe5\\xae\\x9a\\xe6\\x81\\xaf\\xe7\\x9f\\xbf\\xe6\\xb1\\xa0-\\xe8\\xbf\\x9b\\xe9\\x98\\xb6.sol\":6165:6313  newtime... */\n      tag_82\n      swap3\n        /* \"\\xe5\\xae\\x9a\\xe6\\x81\\xaf\\xe7\\x9f\\xbf\\xe6\\xb1\\xa0-\\xe8\\xbf\\x9b\\xe9\\x98\\xb6.sol\":6273:6312  User_Map[msg.sender].last_totoken_ratio */\n      swap2\n        /* \"\\xe5\\xae\\x9a\\xe6\\x81\\xaf\\xe7\\x9f\\xbf\\xe6\\xb1\\xa0-\\xe8\\xbf\\x9b\\xe9\\x98\\xb6.sol\":6165:6258  newtime... */\n      tag_83\n      swap2\n        /* \"\\xe5\\xae\\x9a\\xe6\\x81\\xaf\\xe7\\x9f\\xbf\\xe6\\xb1\\xa0-\\xe8\\xbf\\x9b\\xe9\\x98\\xb6.sol\":6188:6256  (User_Map[msg.sender].stakeNumber.mul(ratio).div(100)).div(31536000) */\n      tag_84\n      swap2\n        /* \"\\xe5\\xae\\x9a\\xe6\\x81\\xaf\\xe7\\x9f\\xbf\\xe6\\xb1\\xa0-\\xe8\\xbf\\x9b\\xe9\\x98\\xb6.sol\":6247:6255  31536000 */\n      0x01e13380\n      swap2\n        /* \"\\xe5\\xae\\x9a\\xe6\\x81\\xaf\\xe7\\x9f\\xbf\\xe6\\xb1\\xa0-\\xe8\\xbf\\x9b\\xe9\\x98\\xb6.sol\":6189:6241  User_Map[msg.sender].stakeNumber.mul(ratio).div(100) */\n      tag_66\n      swap2\n        /* \"\\xe5\\xae\\x9a\\xe6\\x81\\xaf\\xe7\\x9f\\xbf\\xe6\\xb1\\xa0-\\xe8\\xbf\\x9b\\xe9\\x98\\xb6.sol\":6237:6240  100 */\n      0x64\n      swap2\n        /* \"\\xe5\\xae\\x9a\\xe6\\x81\\xaf\\xe7\\x9f\\xbf\\xe6\\xb1\\xa0-\\xe8\\xbf\\x9b\\xe9\\x98\\xb6.sol\":6189:6241  User_Map[msg.sender].stakeNumber.mul(ratio).div(100) */\n      dup4\n      swap2\n        /* \"\\xe5\\xae\\x9a\\xe6\\x81\\xaf\\xe7\\x9f\\xbf\\xe6\\xb1\\xa0-\\xe8\\xbf\\x9b\\xe9\\x98\\xb6.sol\":6189:6225  User_Map[msg.sender].stakeNumber.mul */\n      tag_67\n        /* \"\\xe5\\xae\\x9a\\xe6\\x81\\xaf\\xe7\\x9f\\xbf\\xe6\\xb1\\xa0-\\xe8\\xbf\\x9b\\xe9\\x98\\xb6.sol\":6189:6232  User_Map[msg.sender].stakeNumber.mul(ratio) */\n      jump\t// in\n        /* \"\\xe5\\xae\\x9a\\xe6\\x81\\xaf\\xe7\\x9f\\xbf\\xe6\\xb1\\xa0-\\xe8\\xbf\\x9b\\xe9\\x98\\xb6.sol\":6188:6256  (User_Map[msg.sender].stakeNumber.mul(ratio).div(100)).div(31536000) */\n    tag_84:\n        /* \"\\xe5\\xae\\x9a\\xe6\\x81\\xaf\\xe7\\x9f\\xbf\\xe6\\xb1\\xa0-\\xe8\\xbf\\x9b\\xe9\\x98\\xb6.sol\":6165:6172  newtime */\n      dup6\n      swap1\n        /* \"\\xe5\\xae\\x9a\\xe6\\x81\\xaf\\xe7\\x9f\\xbf\\xe6\\xb1\\xa0-\\xe8\\xbf\\x9b\\xe9\\x98\\xb6.sol\":6165:6186  newtime... */\n      tag_67\n        /* \"\\xe5\\xae\\x9a\\xe6\\x81\\xaf\\xe7\\x9f\\xbf\\xe6\\xb1\\xa0-\\xe8\\xbf\\x9b\\xe9\\x98\\xb6.sol\":6165:6258  newtime... */\n      jump\t// in\n    tag_83:\n        /* \"\\xe5\\xae\\x9a\\xe6\\x81\\xaf\\xe7\\x9f\\xbf\\xe6\\xb1\\xa0-\\xe8\\xbf\\x9b\\xe9\\x98\\xb6.sol\":6165:6272  newtime... */\n      swap1\n      tag_71\n        /* \"\\xe5\\xae\\x9a\\xe6\\x81\\xaf\\xe7\\x9f\\xbf\\xe6\\xb1\\xa0-\\xe8\\xbf\\x9b\\xe9\\x98\\xb6.sol\":6165:6313  newtime... */\n      jump\t// in\n    tag_82:\n        /* \"\\xe5\\xae\\x9a\\xe6\\x81\\xaf\\xe7\\x9f\\xbf\\xe6\\xb1\\xa0-\\xe8\\xbf\\x9b\\xe9\\x98\\xb6.sol\":6140:6313  uint newTotokenRatione = newtime... */\n      swap4\n        /* \"\\xe5\\xae\\x9a\\xe6\\x81\\xaf\\xe7\\x9f\\xbf\\xe6\\xb1\\xa0-\\xe8\\xbf\\x9b\\xe9\\x98\\xb6.sol\":5877:6358  function newTotokenRatio() public view returns (uint) {... */\n      swap3\n      pop\n      pop\n      pop\n      jump\t// out\n        /* \"\\xe5\\xae\\x9a\\xe6\\x81\\xaf\\xe7\\x9f\\xbf\\xe6\\xb1\\xa0-\\xe8\\xbf\\x9b\\xe9\\x98\\xb6.sol\":6405:6582  function tokennumber() public view returns (uint) {... */\n    tag_45:\n        /* \"\\xe5\\xae\\x9a\\xe6\\x81\\xaf\\xe7\\x9f\\xbf\\xe6\\xb1\\xa0-\\xe8\\xbf\\x9b\\xe9\\x98\\xb6.sol\":6500:6511  rewardtoken */\n      sload(0x02)\n        /* \"\\xe5\\xae\\x9a\\xe6\\x81\\xaf\\xe7\\x9f\\xbf\\xe6\\xb1\\xa0-\\xe8\\xbf\\x9b\\xe9\\x98\\xb6.sol\":6493:6537  IERC20(rewardtoken).balanceOf(address(this)) */\n      mload(0x40)\n      shl(0xe0, 0x70a08231)\n      dup2\n      mstore\n        /* \"\\xe5\\xae\\x9a\\xe6\\x81\\xaf\\xe7\\x9f\\xbf\\xe6\\xb1\\xa0-\\xe8\\xbf\\x9b\\xe9\\x98\\xb6.sol\":6531:6535  this */\n      address\n        /* \"\\xe5\\xae\\x9a\\xe6\\x81\\xaf\\xe7\\x9f\\xbf\\xe6\\xb1\\xa0-\\xe8\\xbf\\x9b\\xe9\\x98\\xb6.sol\":6493:6537  IERC20(rewardtoken).balanceOf(address(this)) */\n      0x04\n      dup3\n      add\n        /* \"#utility.yul\":719:770   */\n      mstore\n        /* \"\\xe5\\xae\\x9a\\xe6\\x81\\xaf\\xe7\\x9f\\xbf\\xe6\\xb1\\xa0-\\xe8\\xbf\\x9b\\xe9\\x98\\xb6.sol\":6449:6453  uint */\n      0x00\n      swap2\n      dup3\n      swap2\n      sub(shl(0xa0, 0x01), 0x01)\n        /* \"\\xe5\\xae\\x9a\\xe6\\x81\\xaf\\xe7\\x9f\\xbf\\xe6\\xb1\\xa0-\\xe8\\xbf\\x9b\\xe9\\x98\\xb6.sol\":6500:6511  rewardtoken */\n      swap1\n      swap2\n      and\n      swap1\n        /* \"\\xe5\\xae\\x9a\\xe6\\x81\\xaf\\xe7\\x9f\\xbf\\xe6\\xb1\\xa0-\\xe8\\xbf\\x9b\\xe9\\x98\\xb6.sol\":6493:6522  IERC20(rewardtoken).balanceOf */\n      0x70a08231\n      swap1\n        /* \"#utility.yul\":692:710   */\n      0x24\n      add\n        /* \"\\xe5\\xae\\x9a\\xe6\\x81\\xaf\\xe7\\x9f\\xbf\\xe6\\xb1\\xa0-\\xe8\\xbf\\x9b\\xe9\\x98\\xb6.sol\":6493:6537  IERC20(rewardtoken).balanceOf(address(this)) */\n      0x20\n      mload(0x40)\n      dup1\n      dup4\n      sub\n      dup2\n      dup7\n      gas\n      staticcall\n      iszero\n      dup1\n      iszero\n      tag_90\n      jumpi\n      returndatasize\n      0x00\n      dup1\n      returndatacopy\n      revert(0x00, returndatasize)\n    tag_90:\n      pop\n      pop\n      pop\n      pop\n      mload(0x40)\n      returndatasize\n      not(0x1f)\n      0x1f\n      dup3\n      add\n      and\n      dup3\n      add\n      dup1\n      0x40\n      mstore\n      pop\n      dup2\n      add\n      swap1\n      tag_91\n      swap2\n      swap1\n      tag_92\n      jump\t// in\n    tag_91:\n        /* \"\\xe5\\xae\\x9a\\xe6\\x81\\xaf\\xe7\\x9f\\xbf\\xe6\\xb1\\xa0-\\xe8\\xbf\\x9b\\xe9\\x98\\xb6.sol\":6466:6537  uint _rewardtokennumber =  IERC20(rewardtoken).balanceOf(address(this)) */\n      swap3\n        /* \"\\xe5\\xae\\x9a\\xe6\\x81\\xaf\\xe7\\x9f\\xbf\\xe6\\xb1\\xa0-\\xe8\\xbf\\x9b\\xe9\\x98\\xb6.sol\":6405:6582  function tokennumber() public view returns (uint) {... */\n      swap2\n      pop\n      pop\n      jump\t// out\n        /* \"\\xe5\\xae\\x9a\\xe6\\x81\\xaf\\xe7\\x9f\\xbf\\xe6\\xb1\\xa0-\\xe8\\xbf\\x9b\\xe9\\x98\\xb6.sol\":1602:2901  function deposit(uint _amount) public returns (bool) {... */\n    tag_49:\n        /* \"\\xe5\\xae\\x9a\\xe6\\x81\\xaf\\xe7\\x9f\\xbf\\xe6\\xb1\\xa0-\\xe8\\xbf\\x9b\\xe9\\x98\\xb6.sol\":1736:1746  staketoken */\n      sload(0x01)\n        /* \"\\xe5\\xae\\x9a\\xe6\\x81\\xaf\\xe7\\x9f\\xbf\\xe6\\xb1\\xa0-\\xe8\\xbf\\x9b\\xe9\\x98\\xb6.sol\":1729:1769  IERC20(staketoken).balanceOf(msg.sender) */\n      mload(0x40)\n      shl(0xe0, 0x70a08231)\n      dup2\n      mstore\n        /* \"\\xe5\\xae\\x9a\\xe6\\x81\\xaf\\xe7\\x9f\\xbf\\xe6\\xb1\\xa0-\\xe8\\xbf\\x9b\\xe9\\x98\\xb6.sol\":1758:1768  msg.sender */\n      caller\n        /* \"\\xe5\\xae\\x9a\\xe6\\x81\\xaf\\xe7\\x9f\\xbf\\xe6\\xb1\\xa0-\\xe8\\xbf\\x9b\\xe9\\x98\\xb6.sol\":1729:1769  IERC20(staketoken).balanceOf(msg.sender) */\n      0x04\n      dup3\n      add\n        /* \"#utility.yul\":719:770   */\n      mstore\n        /* \"\\xe5\\xae\\x9a\\xe6\\x81\\xaf\\xe7\\x9f\\xbf\\xe6\\xb1\\xa0-\\xe8\\xbf\\x9b\\xe9\\x98\\xb6.sol\":1649:1653  bool */\n      0x00\n      swap2\n        /* \"\\xe5\\xae\\x9a\\xe6\\x81\\xaf\\xe7\\x9f\\xbf\\xe6\\xb1\\xa0-\\xe8\\xbf\\x9b\\xe9\\x98\\xb6.sol\":1772:1779  _amount */\n      dup4\n      swap2\n      sub(shl(0xa0, 0x01), 0x01)\n        /* \"\\xe5\\xae\\x9a\\xe6\\x81\\xaf\\xe7\\x9f\\xbf\\xe6\\xb1\\xa0-\\xe8\\xbf\\x9b\\xe9\\x98\\xb6.sol\":1736:1746  staketoken */\n      swap1\n      swap2\n      and\n      swap1\n        /* \"\\xe5\\xae\\x9a\\xe6\\x81\\xaf\\xe7\\x9f\\xbf\\xe6\\xb1\\xa0-\\xe8\\xbf\\x9b\\xe9\\x98\\xb6.sol\":1729:1757  IERC20(staketoken).balanceOf */\n      0x70a08231\n      swap1\n        /* \"#utility.yul\":692:710   */\n      0x24\n      add\n        /* \"\\xe5\\xae\\x9a\\xe6\\x81\\xaf\\xe7\\x9f\\xbf\\xe6\\xb1\\xa0-\\xe8\\xbf\\x9b\\xe9\\x98\\xb6.sol\":1729:1769  IERC20(staketoken).balanceOf(msg.sender) */\n      0x20\n      mload(0x40)\n      dup1\n      dup4\n      sub\n      dup2\n      dup7\n      gas\n      staticcall\n      iszero\n      dup1\n      iszero\n      tag_96\n      jumpi\n      returndatasize\n      0x00\n      dup1\n      returndatacopy\n      revert(0x00, returndatasize)\n    tag_96:\n      pop\n      pop\n      pop\n      pop\n      mload(0x40)\n      returndatasize\n      not(0x1f)\n      0x1f\n      dup3\n      add\n      and\n      dup3\n      add\n      dup1\n      0x40\n      mstore\n      pop\n      dup2\n      add\n      swap1\n      tag_97\n      swap2\n      swap1\n      tag_92\n      jump\t// in\n    tag_97:\n        /* \"\\xe5\\xae\\x9a\\xe6\\x81\\xaf\\xe7\\x9f\\xbf\\xe6\\xb1\\xa0-\\xe8\\xbf\\x9b\\xe9\\x98\\xb6.sol\":1729:1779  IERC20(staketoken).balanceOf(msg.sender) > _amount */\n      gt\n        /* \"\\xe5\\xae\\x9a\\xe6\\x81\\xaf\\xe7\\x9f\\xbf\\xe6\\xb1\\xa0-\\xe8\\xbf\\x9b\\xe9\\x98\\xb6.sol\":1721:1804  require(IERC20(staketoken).balanceOf(msg.sender) > _amount, \"Balance Insufficient\") */\n      tag_98\n      jumpi\n      mload(0x40)\n      shl(0xe5, 0x461bcd)\n      dup2\n      mstore\n        /* \"#utility.yul\":2546:2548   */\n      0x20\n        /* \"\\xe5\\xae\\x9a\\xe6\\x81\\xaf\\xe7\\x9f\\xbf\\xe6\\xb1\\xa0-\\xe8\\xbf\\x9b\\xe9\\x98\\xb6.sol\":1721:1804  require(IERC20(staketoken).balanceOf(msg.sender) > _amount, \"Balance Insufficient\") */\n      0x04\n      dup3\n      add\n        /* \"#utility.yul\":2528:2549   */\n      mstore\n        /* \"#utility.yul\":2585:2587   */\n      0x14\n        /* \"#utility.yul\":2565:2583   */\n      0x24\n      dup3\n      add\n        /* \"#utility.yul\":2558:2588   */\n      mstore\n      shl(0x62, 0x10985b185b98d948125b9cdd59999a58da595b9d)\n        /* \"#utility.yul\":2604:2622   */\n      0x44\n      dup3\n      add\n        /* \"#utility.yul\":2597:2647   */\n      mstore\n        /* \"#utility.yul\":2664:2682   */\n      0x64\n      add\n        /* \"\\xe5\\xae\\x9a\\xe6\\x81\\xaf\\xe7\\x9f\\xbf\\xe6\\xb1\\xa0-\\xe8\\xbf\\x9b\\xe9\\x98\\xb6.sol\":1721:1804  require(IERC20(staketoken).balanceOf(msg.sender) > _amount, \"Balance Insufficient\") */\n      tag_74\n        /* \"#utility.yul\":2344:2688   */\n      jump\n        /* \"\\xe5\\xae\\x9a\\xe6\\x81\\xaf\\xe7\\x9f\\xbf\\xe6\\xb1\\xa0-\\xe8\\xbf\\x9b\\xe9\\x98\\xb6.sol\":1721:1804  require(IERC20(staketoken).balanceOf(msg.sender) > _amount, \"Balance Insufficient\") */\n    tag_98:\n        /* \"\\xe5\\xae\\x9a\\xe6\\x81\\xaf\\xe7\\x9f\\xbf\\xe6\\xb1\\xa0-\\xe8\\xbf\\x9b\\xe9\\x98\\xb6.sol\":1853:1863  staketoken */\n      sload(0x01)\n        /* \"\\xe5\\xae\\x9a\\xe6\\x81\\xaf\\xe7\\x9f\\xbf\\xe6\\xb1\\xa0-\\xe8\\xbf\\x9b\\xe9\\x98\\xb6.sol\":1846:1917  IERC20(staketoken).safeTransferFrom(msg.sender, address(this), _amount) */\n      tag_101\n      swap1\n      sub(shl(0xa0, 0x01), 0x01)\n        /* \"\\xe5\\xae\\x9a\\xe6\\x81\\xaf\\xe7\\x9f\\xbf\\xe6\\xb1\\xa0-\\xe8\\xbf\\x9b\\xe9\\x98\\xb6.sol\":1853:1863  staketoken */\n      and\n        /* \"\\xe5\\xae\\x9a\\xe6\\x81\\xaf\\xe7\\x9f\\xbf\\xe6\\xb1\\xa0-\\xe8\\xbf\\x9b\\xe9\\x98\\xb6.sol\":1882:1892  msg.sender */\n      caller\n        /* \"\\xe5\\xae\\x9a\\xe6\\x81\\xaf\\xe7\\x9f\\xbf\\xe6\\xb1\\xa0-\\xe8\\xbf\\x9b\\xe9\\x98\\xb6.sol\":1902:1906  this */\n      address\n        /* \"\\xe5\\xae\\x9a\\xe6\\x81\\xaf\\xe7\\x9f\\xbf\\xe6\\xb1\\xa0-\\xe8\\xbf\\x9b\\xe9\\x98\\xb6.sol\":1909:1916  _amount */\n      dup6\n        /* \"\\xe5\\xae\\x9a\\xe6\\x81\\xaf\\xe7\\x9f\\xbf\\xe6\\xb1\\xa0-\\xe8\\xbf\\x9b\\xe9\\x98\\xb6.sol\":1846:1881  IERC20(staketoken).safeTransferFrom */\n      tag_102\n        /* \"\\xe5\\xae\\x9a\\xe6\\x81\\xaf\\xe7\\x9f\\xbf\\xe6\\xb1\\xa0-\\xe8\\xbf\\x9b\\xe9\\x98\\xb6.sol\":1846:1917  IERC20(staketoken).safeTransferFrom(msg.sender, address(this), _amount) */\n      jump\t// in\n    tag_101:\n        /* \"\\xe5\\xae\\x9a\\xe6\\x81\\xaf\\xe7\\x9f\\xbf\\xe6\\xb1\\xa0-\\xe8\\xbf\\x9b\\xe9\\x98\\xb6.sol\":1986:2018  uint unClime_Reward_Token_Number */\n      0x00\n        /* \"\\xe5\\xae\\x9a\\xe6\\x81\\xaf\\xe7\\x9f\\xbf\\xe6\\xb1\\xa0-\\xe8\\xbf\\x9b\\xe9\\x98\\xb6.sol\":2133:2138  ratio */\n      dup1\n      sload\n        /* \"\\xe5\\xae\\x9a\\xe6\\x81\\xaf\\xe7\\x9f\\xbf\\xe6\\xb1\\xa0-\\xe8\\xbf\\x9b\\xe9\\x98\\xb6.sol\":2105:2115  msg.sender */\n      caller\n        /* \"\\xe5\\xae\\x9a\\xe6\\x81\\xaf\\xe7\\x9f\\xbf\\xe6\\xb1\\xa0-\\xe8\\xbf\\x9b\\xe9\\x98\\xb6.sol\":2096:2116  User_Map[msg.sender] */\n      dup3\n      mstore\n        /* \"\\xe5\\xae\\x9a\\xe6\\x81\\xaf\\xe7\\x9f\\xbf\\xe6\\xb1\\xa0-\\xe8\\xbf\\x9b\\xe9\\x98\\xb6.sol\":2096:2104  User_Map */\n      0x05\n        /* \"\\xe5\\xae\\x9a\\xe6\\x81\\xaf\\xe7\\x9f\\xbf\\xe6\\xb1\\xa0-\\xe8\\xbf\\x9b\\xe9\\x98\\xb6.sol\":2096:2116  User_Map[msg.sender] */\n      0x20\n      mstore\n      0x40\n      dup3\n      keccak256\n        /* \"\\xe5\\xae\\x9a\\xe6\\x81\\xaf\\xe7\\x9f\\xbf\\xe6\\xb1\\xa0-\\xe8\\xbf\\x9b\\xe9\\x98\\xb6.sol\":2096:2128  User_Map[msg.sender].stakeNumber */\n      sload\n        /* \"\\xe5\\xae\\x9a\\xe6\\x81\\xaf\\xe7\\x9f\\xbf\\xe6\\xb1\\xa0-\\xe8\\xbf\\x9b\\xe9\\x98\\xb6.sol\":2021:2174  (block.timestamp.sub(User_Map[msg.sender].last_Stake_Time))... */\n      tag_103\n      swap2\n        /* \"\\xe5\\xae\\x9a\\xe6\\x81\\xaf\\xe7\\x9f\\xbf\\xe6\\xb1\\xa0-\\xe8\\xbf\\x9b\\xe9\\x98\\xb6.sol\":2095:2173  (User_Map[msg.sender].stakeNumber.mul(ratio).div(100))... */\n      tag_64\n      swap2\n        /* \"\\xe5\\xae\\x9a\\xe6\\x81\\xaf\\xe7\\x9f\\xbf\\xe6\\xb1\\xa0-\\xe8\\xbf\\x9b\\xe9\\x98\\xb6.sol\":2164:2172  31536000 */\n      0x01e13380\n      swap2\n        /* \"\\xe5\\xae\\x9a\\xe6\\x81\\xaf\\xe7\\x9f\\xbf\\xe6\\xb1\\xa0-\\xe8\\xbf\\x9b\\xe9\\x98\\xb6.sol\":2096:2148  User_Map[msg.sender].stakeNumber.mul(ratio).div(100) */\n      tag_66\n      swap2\n        /* \"\\xe5\\xae\\x9a\\xe6\\x81\\xaf\\xe7\\x9f\\xbf\\xe6\\xb1\\xa0-\\xe8\\xbf\\x9b\\xe9\\x98\\xb6.sol\":2144:2147  100 */\n      0x64\n      swap2\n        /* \"\\xe5\\xae\\x9a\\xe6\\x81\\xaf\\xe7\\x9f\\xbf\\xe6\\xb1\\xa0-\\xe8\\xbf\\x9b\\xe9\\x98\\xb6.sol\":2096:2148  User_Map[msg.sender].stakeNumber.mul(ratio).div(100) */\n      dup4\n      swap2\n        /* \"\\xe5\\xae\\x9a\\xe6\\x81\\xaf\\xe7\\x9f\\xbf\\xe6\\xb1\\xa0-\\xe8\\xbf\\x9b\\xe9\\x98\\xb6.sol\":2096:2128  User_Map[msg.sender].stakeNumber */\n      swap1\n        /* \"\\xe5\\xae\\x9a\\xe6\\x81\\xaf\\xe7\\x9f\\xbf\\xe6\\xb1\\xa0-\\xe8\\xbf\\x9b\\xe9\\x98\\xb6.sol\":2096:2132  User_Map[msg.sender].stakeNumber.mul */\n      tag_67\n        /* \"\\xe5\\xae\\x9a\\xe6\\x81\\xaf\\xe7\\x9f\\xbf\\xe6\\xb1\\xa0-\\xe8\\xbf\\x9b\\xe9\\x98\\xb6.sol\":2096:2139  User_Map[msg.sender].stakeNumber.mul(ratio) */\n      jump\t// in\n        /* \"\\xe5\\xae\\x9a\\xe6\\x81\\xaf\\xe7\\x9f\\xbf\\xe6\\xb1\\xa0-\\xe8\\xbf\\x9b\\xe9\\x98\\xb6.sol\":2021:2174  (block.timestamp.sub(User_Map[msg.sender].last_Stake_Time))... */\n    tag_103:\n        /* \"\\xe5\\xae\\x9a\\xe6\\x81\\xaf\\xe7\\x9f\\xbf\\xe6\\xb1\\xa0-\\xe8\\xbf\\x9b\\xe9\\x98\\xb6.sol\":2193:2236  Trasfer(msg.sender, address(this), _amount) */\n      mload(0x40)\n        /* \"#utility.yul\":537:562   */\n      dup5\n      dup2\n      mstore\n        /* \"\\xe5\\xae\\x9a\\xe6\\x81\\xaf\\xe7\\x9f\\xbf\\xe6\\xb1\\xa0-\\xe8\\xbf\\x9b\\xe9\\x98\\xb6.sol\":1986:2174  uint unClime_Reward_Token_Number = (block.timestamp.sub(User_Map[msg.sender].last_Stake_Time))... */\n      swap1\n      swap2\n      pop\n        /* \"\\xe5\\xae\\x9a\\xe6\\x81\\xaf\\xe7\\x9f\\xbf\\xe6\\xb1\\xa0-\\xe8\\xbf\\x9b\\xe9\\x98\\xb6.sol\":2221:2225  this */\n      address\n      swap1\n        /* \"\\xe5\\xae\\x9a\\xe6\\x81\\xaf\\xe7\\x9f\\xbf\\xe6\\xb1\\xa0-\\xe8\\xbf\\x9b\\xe9\\x98\\xb6.sol\":2201:2211  msg.sender */\n      caller\n      swap1\n        /* \"\\xe5\\xae\\x9a\\xe6\\x81\\xaf\\xe7\\x9f\\xbf\\xe6\\xb1\\xa0-\\xe8\\xbf\\x9b\\xe9\\x98\\xb6.sol\":2193:2236  Trasfer(msg.sender, address(this), _amount) */\n      0x1fd6ebb971d137acf3f01670862b8a96758cfc7e39dccb093e68daf461b0262c\n      swap1\n        /* \"#utility.yul\":525:527   */\n      0x20\n        /* \"#utility.yul\":510:528   */\n      add\n        /* \"\\xe5\\xae\\x9a\\xe6\\x81\\xaf\\xe7\\x9f\\xbf\\xe6\\xb1\\xa0-\\xe8\\xbf\\x9b\\xe9\\x98\\xb6.sol\":2193:2236  Trasfer(msg.sender, address(this), _amount) */\n      mload(0x40)\n      dup1\n      swap2\n      sub\n      swap1\n      log3\n        /* \"\\xe5\\xae\\x9a\\xe6\\x81\\xaf\\xe7\\x9f\\xbf\\xe6\\xb1\\xa0-\\xe8\\xbf\\x9b\\xe9\\x98\\xb6.sol\":2328:2338  msg.sender */\n      caller\n        /* \"\\xe5\\xae\\x9a\\xe6\\x81\\xaf\\xe7\\x9f\\xbf\\xe6\\xb1\\xa0-\\xe8\\xbf\\x9b\\xe9\\x98\\xb6.sol\":2319:2339  User_Map[msg.sender] */\n      0x00\n      swap1\n      dup2\n      mstore\n        /* \"\\xe5\\xae\\x9a\\xe6\\x81\\xaf\\xe7\\x9f\\xbf\\xe6\\xb1\\xa0-\\xe8\\xbf\\x9b\\xe9\\x98\\xb6.sol\":2319:2327  User_Map */\n      0x05\n        /* \"\\xe5\\xae\\x9a\\xe6\\x81\\xaf\\xe7\\x9f\\xbf\\xe6\\xb1\\xa0-\\xe8\\xbf\\x9b\\xe9\\x98\\xb6.sol\":2319:2339  User_Map[msg.sender] */\n      0x20\n      mstore\n      0x40\n      dup2\n      keccak256\n        /* \"\\xe5\\xae\\x9a\\xe6\\x81\\xaf\\xe7\\x9f\\xbf\\xe6\\xb1\\xa0-\\xe8\\xbf\\x9b\\xe9\\x98\\xb6.sol\":2319:2358  User_Map[msg.sender].last_totoken_ratio */\n      0x02\n      add\n        /* \"\\xe5\\xae\\x9a\\xe6\\x81\\xaf\\xe7\\x9f\\xbf\\xe6\\xb1\\xa0-\\xe8\\xbf\\x9b\\xe9\\x98\\xb6.sol\":2319:2389  User_Map[msg.sender].last_totoken_ratio += unClime_Reward_Token_Number */\n      dup1\n      sload\n        /* \"\\xe5\\xae\\x9a\\xe6\\x81\\xaf\\xe7\\x9f\\xbf\\xe6\\xb1\\xa0-\\xe8\\xbf\\x9b\\xe9\\x98\\xb6.sol\":2362:2389  unClime_Reward_Token_Number */\n      dup4\n      swap3\n        /* \"\\xe5\\xae\\x9a\\xe6\\x81\\xaf\\xe7\\x9f\\xbf\\xe6\\xb1\\xa0-\\xe8\\xbf\\x9b\\xe9\\x98\\xb6.sol\":2319:2339  User_Map[msg.sender] */\n      swap1\n        /* \"\\xe5\\xae\\x9a\\xe6\\x81\\xaf\\xe7\\x9f\\xbf\\xe6\\xb1\\xa0-\\xe8\\xbf\\x9b\\xe9\\x98\\xb6.sol\":2319:2389  User_Map[msg.sender].last_totoken_ratio += unClime_Reward_Token_Number */\n      tag_109\n      swap1\n        /* \"\\xe5\\xae\\x9a\\xe6\\x81\\xaf\\xe7\\x9f\\xbf\\xe6\\xb1\\xa0-\\xe8\\xbf\\x9b\\xe9\\x98\\xb6.sol\":2362:2389  unClime_Reward_Token_Number */\n      dup5\n      swap1\n        /* \"\\xe5\\xae\\x9a\\xe6\\x81\\xaf\\xe7\\x9f\\xbf\\xe6\\xb1\\xa0-\\xe8\\xbf\\x9b\\xe9\\x98\\xb6.sol\":2319:2389  User_Map[msg.sender].last_totoken_ratio += unClime_Reward_Token_Number */\n      tag_110\n      jump\t// in\n    tag_109:\n      swap1\n      swap2\n      sstore\n      pop\n      pop\n        /* \"\\xe5\\xae\\x9a\\xe6\\x81\\xaf\\xe7\\x9f\\xbf\\xe6\\xb1\\xa0-\\xe8\\xbf\\x9b\\xe9\\x98\\xb6.sol\":2464:2474  msg.sender */\n      caller\n        /* \"\\xe5\\xae\\x9a\\xe6\\x81\\xaf\\xe7\\x9f\\xbf\\xe6\\xb1\\xa0-\\xe8\\xbf\\x9b\\xe9\\x98\\xb6.sol\":2455:2475  User_Map[msg.sender] */\n      0x00\n      swap1\n      dup2\n      mstore\n        /* \"\\xe5\\xae\\x9a\\xe6\\x81\\xaf\\xe7\\x9f\\xbf\\xe6\\xb1\\xa0-\\xe8\\xbf\\x9b\\xe9\\x98\\xb6.sol\":2455:2463  User_Map */\n      0x05\n        /* \"\\xe5\\xae\\x9a\\xe6\\x81\\xaf\\xe7\\x9f\\xbf\\xe6\\xb1\\xa0-\\xe8\\xbf\\x9b\\xe9\\x98\\xb6.sol\":2455:2475  User_Map[msg.sender] */\n      0x20\n      mstore\n      0x40\n      dup2\n      keccak256\n        /* \"\\xe5\\xae\\x9a\\xe6\\x81\\xaf\\xe7\\x9f\\xbf\\xe6\\xb1\\xa0-\\xe8\\xbf\\x9b\\xe9\\x98\\xb6.sol\":2455:2498  User_Map[msg.sender].stakeNumber += _amount */\n      dup1\n      sload\n        /* \"\\xe5\\xae\\x9a\\xe6\\x81\\xaf\\xe7\\x9f\\xbf\\xe6\\xb1\\xa0-\\xe8\\xbf\\x9b\\xe9\\x98\\xb6.sol\":2491:2498  _amount */\n      dup6\n      swap3\n        /* \"\\xe5\\xae\\x9a\\xe6\\x81\\xaf\\xe7\\x9f\\xbf\\xe6\\xb1\\xa0-\\xe8\\xbf\\x9b\\xe9\\x98\\xb6.sol\":2455:2475  User_Map[msg.sender] */\n      swap1\n        /* \"\\xe5\\xae\\x9a\\xe6\\x81\\xaf\\xe7\\x9f\\xbf\\xe6\\xb1\\xa0-\\xe8\\xbf\\x9b\\xe9\\x98\\xb6.sol\":2455:2498  User_Map[msg.sender].stakeNumber += _amount */\n      tag_111\n      swap1\n        /* \"\\xe5\\xae\\x9a\\xe6\\x81\\xaf\\xe7\\x9f\\xbf\\xe6\\xb1\\xa0-\\xe8\\xbf\\x9b\\xe9\\x98\\xb6.sol\":2491:2498  _amount */\n      dup5\n      swap1\n        /* \"\\xe5\\xae\\x9a\\xe6\\x81\\xaf\\xe7\\x9f\\xbf\\xe6\\xb1\\xa0-\\xe8\\xbf\\x9b\\xe9\\x98\\xb6.sol\":2455:2498  User_Map[msg.sender].stakeNumber += _amount */\n      tag_110\n      jump\t// in\n    tag_111:\n      swap1\n      swap2\n      sstore\n      pop\n      pop\n        /* \"\\xe5\\xae\\x9a\\xe6\\x81\\xaf\\xe7\\x9f\\xbf\\xe6\\xb1\\xa0-\\xe8\\xbf\\x9b\\xe9\\x98\\xb6.sol\":2588:2598  msg.sender */\n      caller\n        /* \"\\xe5\\xae\\x9a\\xe6\\x81\\xaf\\xe7\\x9f\\xbf\\xe6\\xb1\\xa0-\\xe8\\xbf\\x9b\\xe9\\x98\\xb6.sol\":2579:2599  User_Map[msg.sender] */\n      0x00\n      swap1\n      dup2\n      mstore\n        /* \"\\xe5\\xae\\x9a\\xe6\\x81\\xaf\\xe7\\x9f\\xbf\\xe6\\xb1\\xa0-\\xe8\\xbf\\x9b\\xe9\\x98\\xb6.sol\":2579:2587  User_Map */\n      0x05\n        /* \"\\xe5\\xae\\x9a\\xe6\\x81\\xaf\\xe7\\x9f\\xbf\\xe6\\xb1\\xa0-\\xe8\\xbf\\x9b\\xe9\\x98\\xb6.sol\":2579:2599  User_Map[msg.sender] */\n      0x20\n      mstore\n      0x40\n      dup2\n      keccak256\n        /* \"\\xe5\\xae\\x9a\\xe6\\x81\\xaf\\xe7\\x9f\\xbf\\xe6\\xb1\\xa0-\\xe8\\xbf\\x9b\\xe9\\x98\\xb6.sol\":2618:2633  block.timestamp */\n      timestamp\n        /* \"\\xe5\\xae\\x9a\\xe6\\x81\\xaf\\xe7\\x9f\\xbf\\xe6\\xb1\\xa0-\\xe8\\xbf\\x9b\\xe9\\x98\\xb6.sol\":2579:2615  User_Map[msg.sender].last_Stake_Time */\n      0x01\n      swap1\n      swap2\n      add\n        /* \"\\xe5\\xae\\x9a\\xe6\\x81\\xaf\\xe7\\x9f\\xbf\\xe6\\xb1\\xa0-\\xe8\\xbf\\x9b\\xe9\\x98\\xb6.sol\":2579:2633  User_Map[msg.sender].last_Stake_Time = block.timestamp */\n      sstore\n        /* \"\\xe5\\xae\\x9a\\xe6\\x81\\xaf\\xe7\\x9f\\xbf\\xe6\\xb1\\xa0-\\xe8\\xbf\\x9b\\xe9\\x98\\xb6.sol\":2696:2706  staketotal */\n      0x03\n        /* \"\\xe5\\xae\\x9a\\xe6\\x81\\xaf\\xe7\\x9f\\xbf\\xe6\\xb1\\xa0-\\xe8\\xbf\\x9b\\xe9\\x98\\xb6.sol\":2696:2717  staketotal += _amount */\n      dup1\n      sload\n        /* \"\\xe5\\xae\\x9a\\xe6\\x81\\xaf\\xe7\\x9f\\xbf\\xe6\\xb1\\xa0-\\xe8\\xbf\\x9b\\xe9\\x98\\xb6.sol\":2710:2717  _amount */\n      dup6\n      swap3\n        /* \"\\xe5\\xae\\x9a\\xe6\\x81\\xaf\\xe7\\x9f\\xbf\\xe6\\xb1\\xa0-\\xe8\\xbf\\x9b\\xe9\\x98\\xb6.sol\":2579:2599  User_Map[msg.sender] */\n      swap1\n        /* \"\\xe5\\xae\\x9a\\xe6\\x81\\xaf\\xe7\\x9f\\xbf\\xe6\\xb1\\xa0-\\xe8\\xbf\\x9b\\xe9\\x98\\xb6.sol\":2696:2717  staketotal += _amount */\n      tag_112\n      swap1\n        /* \"\\xe5\\xae\\x9a\\xe6\\x81\\xaf\\xe7\\x9f\\xbf\\xe6\\xb1\\xa0-\\xe8\\xbf\\x9b\\xe9\\x98\\xb6.sol\":2710:2717  _amount */\n      dup5\n      swap1\n        /* \"\\xe5\\xae\\x9a\\xe6\\x81\\xaf\\xe7\\x9f\\xbf\\xe6\\xb1\\xa0-\\xe8\\xbf\\x9b\\xe9\\x98\\xb6.sol\":2696:2717  staketotal += _amount */\n      tag_110\n      jump\t// in\n    tag_112:\n      swap1\n      swap2\n      sstore\n      pop\n      pop\n        /* \"\\xe5\\xae\\x9a\\xe6\\x81\\xaf\\xe7\\x9f\\xbf\\xe6\\xb1\\xa0-\\xe8\\xbf\\x9b\\xe9\\x98\\xb6.sol\":2842:2852  msg.sender */\n      caller\n        /* \"\\xe5\\xae\\x9a\\xe6\\x81\\xaf\\xe7\\x9f\\xbf\\xe6\\xb1\\xa0-\\xe8\\xbf\\x9b\\xe9\\x98\\xb6.sol\":2833:2853  User_Map[msg.sender] */\n      0x00\n      swap1\n      dup2\n      mstore\n        /* \"\\xe5\\xae\\x9a\\xe6\\x81\\xaf\\xe7\\x9f\\xbf\\xe6\\xb1\\xa0-\\xe8\\xbf\\x9b\\xe9\\x98\\xb6.sol\":2833:2841  User_Map */\n      0x05\n        /* \"\\xe5\\xae\\x9a\\xe6\\x81\\xaf\\xe7\\x9f\\xbf\\xe6\\xb1\\xa0-\\xe8\\xbf\\x9b\\xe9\\x98\\xb6.sol\":2833:2853  User_Map[msg.sender] */\n      0x20\n      mstore\n      0x40\n      swap1\n      keccak256\n        /* \"\\xe5\\xae\\x9a\\xe6\\x81\\xaf\\xe7\\x9f\\xbf\\xe6\\xb1\\xa0-\\xe8\\xbf\\x9b\\xe9\\x98\\xb6.sol\":2833:2869  User_Map[msg.sender].last_Stake_Time */\n      0x01\n      dup1\n      dup3\n      add\n      sload\n        /* \"\\xe5\\xae\\x9a\\xe6\\x81\\xaf\\xe7\\x9f\\xbf\\xe6\\xb1\\xa0-\\xe8\\xbf\\x9b\\xe9\\x98\\xb6.sol\":2792:2830  User_Map[msg.sender].last_totoken_Time */\n      0x04\n      swap1\n      swap3\n      add\n        /* \"\\xe5\\xae\\x9a\\xe6\\x81\\xaf\\xe7\\x9f\\xbf\\xe6\\xb1\\xa0-\\xe8\\xbf\\x9b\\xe9\\x98\\xb6.sol\":2792:2869  User_Map[msg.sender].last_totoken_Time = User_Map[msg.sender].last_Stake_Time */\n      swap2\n      swap1\n      swap2\n      sstore\n        /* \"\\xe5\\xae\\x9a\\xe6\\x81\\xaf\\xe7\\x9f\\xbf\\xe6\\xb1\\xa0-\\xe8\\xbf\\x9b\\xe9\\x98\\xb6.sol\":2833:2869  User_Map[msg.sender].last_Stake_Time */\n      swap4\n        /* \"\\xe5\\xae\\x9a\\xe6\\x81\\xaf\\xe7\\x9f\\xbf\\xe6\\xb1\\xa0-\\xe8\\xbf\\x9b\\xe9\\x98\\xb6.sol\":1602:2901  function deposit(uint _amount) public returns (bool) {... */\n      swap3\n      pop\n      pop\n      pop\n      jump\t// out\n        /* \"\\xe5\\xae\\x9a\\xe6\\x81\\xaf\\xe7\\x9f\\xbf\\xe6\\xb1\\xa0-\\xe8\\xbf\\x9b\\xe9\\x98\\xb6.sol\":2947:4627  function harvestwithDraw() public returns (bool) {... */\n    tag_58:\n        /* \"\\xe5\\xae\\x9a\\xe6\\x81\\xaf\\xe7\\x9f\\xbf\\xe6\\xb1\\xa0-\\xe8\\xbf\\x9b\\xe9\\x98\\xb6.sol\":2990:2994  bool */\n      0x00\n        /* \"\\xe5\\xae\\x9a\\xe6\\x81\\xaf\\xe7\\x9f\\xbf\\xe6\\xb1\\xa0-\\xe8\\xbf\\x9b\\xe9\\x98\\xb6.sol\":3267:3272  ratio */\n      dup1\n      sload\n        /* \"\\xe5\\xae\\x9a\\xe6\\x81\\xaf\\xe7\\x9f\\xbf\\xe6\\xb1\\xa0-\\xe8\\xbf\\x9b\\xe9\\x98\\xb6.sol\":3239:3249  msg.sender */\n      caller\n        /* \"\\xe5\\xae\\x9a\\xe6\\x81\\xaf\\xe7\\x9f\\xbf\\xe6\\xb1\\xa0-\\xe8\\xbf\\x9b\\xe9\\x98\\xb6.sol\":3230:3250  User_Map[msg.sender] */\n      dup3\n      mstore\n        /* \"\\xe5\\xae\\x9a\\xe6\\x81\\xaf\\xe7\\x9f\\xbf\\xe6\\xb1\\xa0-\\xe8\\xbf\\x9b\\xe9\\x98\\xb6.sol\":3230:3238  User_Map */\n      0x05\n        /* \"\\xe5\\xae\\x9a\\xe6\\x81\\xaf\\xe7\\x9f\\xbf\\xe6\\xb1\\xa0-\\xe8\\xbf\\x9b\\xe9\\x98\\xb6.sol\":3230:3250  User_Map[msg.sender] */\n      0x20\n      mstore\n      0x40\n      dup3\n      keccak256\n        /* \"\\xe5\\xae\\x9a\\xe6\\x81\\xaf\\xe7\\x9f\\xbf\\xe6\\xb1\\xa0-\\xe8\\xbf\\x9b\\xe9\\x98\\xb6.sol\":3230:3262  User_Map[msg.sender].stakeNumber */\n      sload\n        /* \"\\xe5\\xae\\x9a\\xe6\\x81\\xaf\\xe7\\x9f\\xbf\\xe6\\xb1\\xa0-\\xe8\\xbf\\x9b\\xe9\\x98\\xb6.sol\":3100:3300  User_Map[msg.sender].last_totoken_ratio... */\n      tag_114\n      swap2\n        /* \"\\xe5\\xae\\x9a\\xe6\\x81\\xaf\\xe7\\x9f\\xbf\\xe6\\xb1\\xa0-\\xe8\\xbf\\x9b\\xe9\\x98\\xb6.sol\":3154:3299  (block.timestamp.sub(User_Map[msg.sender].last_Stake_Time))... */\n      tag_63\n      swap2\n        /* \"\\xe5\\xae\\x9a\\xe6\\x81\\xaf\\xe7\\x9f\\xbf\\xe6\\xb1\\xa0-\\xe8\\xbf\\x9b\\xe9\\x98\\xb6.sol\":3229:3297  (User_Map[msg.sender].stakeNumber.mul(ratio).div(100)).div(31536000) */\n      tag_64\n      swap2\n        /* \"\\xe5\\xae\\x9a\\xe6\\x81\\xaf\\xe7\\x9f\\xbf\\xe6\\xb1\\xa0-\\xe8\\xbf\\x9b\\xe9\\x98\\xb6.sol\":3288:3296  31536000 */\n      0x01e13380\n      swap2\n        /* \"\\xe5\\xae\\x9a\\xe6\\x81\\xaf\\xe7\\x9f\\xbf\\xe6\\xb1\\xa0-\\xe8\\xbf\\x9b\\xe9\\x98\\xb6.sol\":3230:3282  User_Map[msg.sender].stakeNumber.mul(ratio).div(100) */\n      tag_66\n      swap2\n        /* \"\\xe5\\xae\\x9a\\xe6\\x81\\xaf\\xe7\\x9f\\xbf\\xe6\\xb1\\xa0-\\xe8\\xbf\\x9b\\xe9\\x98\\xb6.sol\":3278:3281  100 */\n      0x64\n      swap2\n        /* \"\\xe5\\xae\\x9a\\xe6\\x81\\xaf\\xe7\\x9f\\xbf\\xe6\\xb1\\xa0-\\xe8\\xbf\\x9b\\xe9\\x98\\xb6.sol\":3230:3282  User_Map[msg.sender].stakeNumber.mul(ratio).div(100) */\n      dup4\n      swap2\n        /* \"\\xe5\\xae\\x9a\\xe6\\x81\\xaf\\xe7\\x9f\\xbf\\xe6\\xb1\\xa0-\\xe8\\xbf\\x9b\\xe9\\x98\\xb6.sol\":3230:3266  User_Map[msg.sender].stakeNumber.mul */\n      tag_67\n        /* \"\\xe5\\xae\\x9a\\xe6\\x81\\xaf\\xe7\\x9f\\xbf\\xe6\\xb1\\xa0-\\xe8\\xbf\\x9b\\xe9\\x98\\xb6.sol\":3230:3273  User_Map[msg.sender].stakeNumber.mul(ratio) */\n      jump\t// in\n        /* \"\\xe5\\xae\\x9a\\xe6\\x81\\xaf\\xe7\\x9f\\xbf\\xe6\\xb1\\xa0-\\xe8\\xbf\\x9b\\xe9\\x98\\xb6.sol\":3100:3300  User_Map[msg.sender].last_totoken_ratio... */\n    tag_114:\n        /* \"\\xe5\\xae\\x9a\\xe6\\x81\\xaf\\xe7\\x9f\\xbf\\xe6\\xb1\\xa0-\\xe8\\xbf\\x9b\\xe9\\x98\\xb6.sol\":3074:3084  msg.sender */\n      caller\n        /* \"\\xe5\\xae\\x9a\\xe6\\x81\\xaf\\xe7\\x9f\\xbf\\xe6\\xb1\\xa0-\\xe8\\xbf\\x9b\\xe9\\x98\\xb6.sol\":3065:3085  User_Map[msg.sender] */\n      0x00\n      swap1\n      dup2\n      mstore\n        /* \"\\xe5\\xae\\x9a\\xe6\\x81\\xaf\\xe7\\x9f\\xbf\\xe6\\xb1\\xa0-\\xe8\\xbf\\x9b\\xe9\\x98\\xb6.sol\":3065:3073  User_Map */\n      0x05\n        /* \"\\xe5\\xae\\x9a\\xe6\\x81\\xaf\\xe7\\x9f\\xbf\\xe6\\xb1\\xa0-\\xe8\\xbf\\x9b\\xe9\\x98\\xb6.sol\":3065:3085  User_Map[msg.sender] */\n      0x20\n      mstore\n      0x40\n      dup2\n      keccak256\n        /* \"\\xe5\\xae\\x9a\\xe6\\x81\\xaf\\xe7\\x9f\\xbf\\xe6\\xb1\\xa0-\\xe8\\xbf\\x9b\\xe9\\x98\\xb6.sol\":3065:3097  User_Map[msg.sender].whole_ratio */\n      0x03\n      add\n        /* \"\\xe5\\xae\\x9a\\xe6\\x81\\xaf\\xe7\\x9f\\xbf\\xe6\\xb1\\xa0-\\xe8\\xbf\\x9b\\xe9\\x98\\xb6.sol\":3065:3300  User_Map[msg.sender].whole_ratio = User_Map[msg.sender].last_totoken_ratio... */\n      swap2\n      swap1\n      swap2\n      sstore\n        /* \"\\xe5\\xae\\x9a\\xe6\\x81\\xaf\\xe7\\x9f\\xbf\\xe6\\xb1\\xa0-\\xe8\\xbf\\x9b\\xe9\\x98\\xb6.sol\":3419:3432  tokennumber() */\n      tag_120\n        /* \"\\xe5\\xae\\x9a\\xe6\\x81\\xaf\\xe7\\x9f\\xbf\\xe6\\xb1\\xa0-\\xe8\\xbf\\x9b\\xe9\\x98\\xb6.sol\":3419:3430  tokennumber */\n      tag_45\n        /* \"\\xe5\\xae\\x9a\\xe6\\x81\\xaf\\xe7\\x9f\\xbf\\xe6\\xb1\\xa0-\\xe8\\xbf\\x9b\\xe9\\x98\\xb6.sol\":3419:3432  tokennumber() */\n      jump\t// in\n    tag_120:\n        /* \"\\xe5\\xae\\x9a\\xe6\\x81\\xaf\\xe7\\x9f\\xbf\\xe6\\xb1\\xa0-\\xe8\\xbf\\x9b\\xe9\\x98\\xb6.sol\":3465:3475  msg.sender */\n      caller\n        /* \"\\xe5\\xae\\x9a\\xe6\\x81\\xaf\\xe7\\x9f\\xbf\\xe6\\xb1\\xa0-\\xe8\\xbf\\x9b\\xe9\\x98\\xb6.sol\":3456:3476  User_Map[msg.sender] */\n      0x00\n      swap1\n      dup2\n      mstore\n        /* \"\\xe5\\xae\\x9a\\xe6\\x81\\xaf\\xe7\\x9f\\xbf\\xe6\\xb1\\xa0-\\xe8\\xbf\\x9b\\xe9\\x98\\xb6.sol\":3456:3464  User_Map */\n      0x05\n        /* \"\\xe5\\xae\\x9a\\xe6\\x81\\xaf\\xe7\\x9f\\xbf\\xe6\\xb1\\xa0-\\xe8\\xbf\\x9b\\xe9\\x98\\xb6.sol\":3456:3476  User_Map[msg.sender] */\n      0x20\n      mstore\n      0x40\n      swap1\n      keccak256\n        /* \"\\xe5\\xae\\x9a\\xe6\\x81\\xaf\\xe7\\x9f\\xbf\\xe6\\xb1\\xa0-\\xe8\\xbf\\x9b\\xe9\\x98\\xb6.sol\":3456:3488  User_Map[msg.sender].whole_ratio */\n      0x03\n      add\n      sload\n        /* \"\\xe5\\xae\\x9a\\xe6\\x81\\xaf\\xe7\\x9f\\xbf\\xe6\\xb1\\xa0-\\xe8\\xbf\\x9b\\xe9\\x98\\xb6.sol\":3409:3432  uint x =  tokennumber() */\n      swap1\n      swap2\n      pop\n        /* \"\\xe5\\xae\\x9a\\xe6\\x81\\xaf\\xe7\\x9f\\xbf\\xe6\\xb1\\xa0-\\xe8\\xbf\\x9b\\xe9\\x98\\xb6.sol\":3452:3488  x > User_Map[msg.sender].whole_ratio */\n      dup2\n      gt\n        /* \"\\xe5\\xae\\x9a\\xe6\\x81\\xaf\\xe7\\x9f\\xbf\\xe6\\xb1\\xa0-\\xe8\\xbf\\x9b\\xe9\\x98\\xb6.sol\":3443:3516  require (x > User_Map[msg.sender].whole_ratio,\"rewardtoken Insufficient\") */\n      tag_121\n      jumpi\n      mload(0x40)\n      shl(0xe5, 0x461bcd)\n      dup2\n      mstore\n      0x04\n      add\n      tag_74\n      swap1\n      tag_75\n      jump\t// in\n    tag_121:\n        /* \"\\xe5\\xae\\x9a\\xe6\\x81\\xaf\\xe7\\x9f\\xbf\\xe6\\xb1\\xa0-\\xe8\\xbf\\x9b\\xe9\\x98\\xb6.sol\":3633:3643  msg.sender */\n      caller\n        /* \"\\xe5\\xae\\x9a\\xe6\\x81\\xaf\\xe7\\x9f\\xbf\\xe6\\xb1\\xa0-\\xe8\\xbf\\x9b\\xe9\\x98\\xb6.sol\":3645:3665  User_Map[msg.sender] */\n      0x00\n      dup2\n      dup2\n      mstore\n        /* \"\\xe5\\xae\\x9a\\xe6\\x81\\xaf\\xe7\\x9f\\xbf\\xe6\\xb1\\xa0-\\xe8\\xbf\\x9b\\xe9\\x98\\xb6.sol\":3645:3653  User_Map */\n      0x05\n        /* \"\\xe5\\xae\\x9a\\xe6\\x81\\xaf\\xe7\\x9f\\xbf\\xe6\\xb1\\xa0-\\xe8\\xbf\\x9b\\xe9\\x98\\xb6.sol\":3645:3665  User_Map[msg.sender] */\n      0x20\n      mstore\n      0x40\n      swap1\n      keccak256\n        /* \"\\xe5\\xae\\x9a\\xe6\\x81\\xaf\\xe7\\x9f\\xbf\\xe6\\xb1\\xa0-\\xe8\\xbf\\x9b\\xe9\\x98\\xb6.sol\":3645:3677  User_Map[msg.sender].whole_ratio */\n      0x03\n      add\n      sload\n        /* \"\\xe5\\xae\\x9a\\xe6\\x81\\xaf\\xe7\\x9f\\xbf\\xe6\\xb1\\xa0-\\xe8\\xbf\\x9b\\xe9\\x98\\xb6.sol\":3607:3618  rewardtoken */\n      sload(0x02)\n        /* \"\\xe5\\xae\\x9a\\xe6\\x81\\xaf\\xe7\\x9f\\xbf\\xe6\\xb1\\xa0-\\xe8\\xbf\\x9b\\xe9\\x98\\xb6.sol\":3600:3678  IERC20(rewardtoken).safeTransfer(msg.sender, User_Map[msg.sender].whole_ratio) */\n      tag_123\n      swap3\n      sub(shl(0xa0, 0x01), 0x01)\n        /* \"\\xe5\\xae\\x9a\\xe6\\x81\\xaf\\xe7\\x9f\\xbf\\xe6\\xb1\\xa0-\\xe8\\xbf\\x9b\\xe9\\x98\\xb6.sol\":3607:3618  rewardtoken */\n      swap1\n      swap2\n      and\n      swap2\n        /* \"\\xe5\\xae\\x9a\\xe6\\x81\\xaf\\xe7\\x9f\\xbf\\xe6\\xb1\\xa0-\\xe8\\xbf\\x9b\\xe9\\x98\\xb6.sol\":3600:3632  IERC20(rewardtoken).safeTransfer */\n      tag_77\n        /* \"\\xe5\\xae\\x9a\\xe6\\x81\\xaf\\xe7\\x9f\\xbf\\xe6\\xb1\\xa0-\\xe8\\xbf\\x9b\\xe9\\x98\\xb6.sol\":3600:3678  IERC20(rewardtoken).safeTransfer(msg.sender, User_Map[msg.sender].whole_ratio) */\n      jump\t// in\n    tag_123:\n        /* \"\\xe5\\xae\\x9a\\xe6\\x81\\xaf\\xe7\\x9f\\xbf\\xe6\\xb1\\xa0-\\xe8\\xbf\\x9b\\xe9\\x98\\xb6.sol\":3706:3716  msg.sender */\n      caller\n        /* \"\\xe5\\xae\\x9a\\xe6\\x81\\xaf\\xe7\\x9f\\xbf\\xe6\\xb1\\xa0-\\xe8\\xbf\\x9b\\xe9\\x98\\xb6.sol\":3718:3738  User_Map[msg.sender] */\n      0x00\n      dup2\n      dup2\n      mstore\n        /* \"\\xe5\\xae\\x9a\\xe6\\x81\\xaf\\xe7\\x9f\\xbf\\xe6\\xb1\\xa0-\\xe8\\xbf\\x9b\\xe9\\x98\\xb6.sol\":3718:3726  User_Map */\n      0x05\n        /* \"\\xe5\\xae\\x9a\\xe6\\x81\\xaf\\xe7\\x9f\\xbf\\xe6\\xb1\\xa0-\\xe8\\xbf\\x9b\\xe9\\x98\\xb6.sol\":3718:3738  User_Map[msg.sender] */\n      0x20\n      swap1\n      dup2\n      mstore\n      0x40\n      swap2\n      dup3\n      swap1\n      keccak256\n        /* \"\\xe5\\xae\\x9a\\xe6\\x81\\xaf\\xe7\\x9f\\xbf\\xe6\\xb1\\xa0-\\xe8\\xbf\\x9b\\xe9\\x98\\xb6.sol\":3718:3750  User_Map[msg.sender].whole_ratio */\n      0x03\n      add\n      sload\n        /* \"\\xe5\\xae\\x9a\\xe6\\x81\\xaf\\xe7\\x9f\\xbf\\xe6\\xb1\\xa0-\\xe8\\xbf\\x9b\\xe9\\x98\\xb6.sol\":3697:3751  transfer(msg.sender, User_Map[msg.sender].whole_ratio) */\n      swap2\n      mload\n        /* \"#utility.yul\":537:562   */\n      swap2\n      dup3\n      mstore\n        /* \"\\xe5\\xae\\x9a\\xe6\\x81\\xaf\\xe7\\x9f\\xbf\\xe6\\xb1\\xa0-\\xe8\\xbf\\x9b\\xe9\\x98\\xb6.sol\":3697:3751  transfer(msg.sender, User_Map[msg.sender].whole_ratio) */\n      0xa9059cbb2ab09eb219583f4a59a5d0623ade346d962bcd4e46b11da047c9049b\n      swap2\n        /* \"#utility.yul\":510:528   */\n      add\n        /* \"\\xe5\\xae\\x9a\\xe6\\x81\\xaf\\xe7\\x9f\\xbf\\xe6\\xb1\\xa0-\\xe8\\xbf\\x9b\\xe9\\x98\\xb6.sol\":3697:3751  transfer(msg.sender, User_Map[msg.sender].whole_ratio) */\n      mload(0x40)\n      dup1\n      swap2\n      sub\n      swap1\n      log2\n        /* \"\\xe5\\xae\\x9a\\xe6\\x81\\xaf\\xe7\\x9f\\xbf\\xe6\\xb1\\xa0-\\xe8\\xbf\\x9b\\xe9\\x98\\xb6.sol\":3837:3847  msg.sender */\n      caller\n        /* \"\\xe5\\xae\\x9a\\xe6\\x81\\xaf\\xe7\\x9f\\xbf\\xe6\\xb1\\xa0-\\xe8\\xbf\\x9b\\xe9\\x98\\xb6.sol\":3863:3864  0 */\n      0x00\n        /* \"\\xe5\\xae\\x9a\\xe6\\x81\\xaf\\xe7\\x9f\\xbf\\xe6\\xb1\\xa0-\\xe8\\xbf\\x9b\\xe9\\x98\\xb6.sol\":3828:3848  User_Map[msg.sender] */\n      swap1\n      dup2\n      mstore\n        /* \"\\xe5\\xae\\x9a\\xe6\\x81\\xaf\\xe7\\x9f\\xbf\\xe6\\xb1\\xa0-\\xe8\\xbf\\x9b\\xe9\\x98\\xb6.sol\":3828:3836  User_Map */\n      0x05\n        /* \"\\xe5\\xae\\x9a\\xe6\\x81\\xaf\\xe7\\x9f\\xbf\\xe6\\xb1\\xa0-\\xe8\\xbf\\x9b\\xe9\\x98\\xb6.sol\":3828:3848  User_Map[msg.sender] */\n      0x20\n      mstore\n      0x40\n      dup2\n      keccak256\n        /* \"\\xe5\\xae\\x9a\\xe6\\x81\\xaf\\xe7\\x9f\\xbf\\xe6\\xb1\\xa0-\\xe8\\xbf\\x9b\\xe9\\x98\\xb6.sol\":3828:3860  User_Map[msg.sender].whole_ratio */\n      0x03\n      dup2\n      add\n        /* \"\\xe5\\xae\\x9a\\xe6\\x81\\xaf\\xe7\\x9f\\xbf\\xe6\\xb1\\xa0-\\xe8\\xbf\\x9b\\xe9\\x98\\xb6.sol\":3828:3864  User_Map[msg.sender].whole_ratio = 0 */\n      dup3\n      swap1\n      sstore\n        /* \"\\xe5\\xae\\x9a\\xe6\\x81\\xaf\\xe7\\x9f\\xbf\\xe6\\xb1\\xa0-\\xe8\\xbf\\x9b\\xe9\\x98\\xb6.sol\":3950:3989  User_Map[msg.sender].last_totoken_ratio */\n      0x02\n      dup2\n      add\n        /* \"\\xe5\\xae\\x9a\\xe6\\x81\\xaf\\xe7\\x9f\\xbf\\xe6\\xb1\\xa0-\\xe8\\xbf\\x9b\\xe9\\x98\\xb6.sol\":3950:3993  User_Map[msg.sender].last_totoken_ratio = 0 */\n      swap2\n      swap1\n      swap2\n      sstore\n        /* \"\\xe5\\xae\\x9a\\xe6\\x81\\xaf\\xe7\\x9f\\xbf\\xe6\\xb1\\xa0-\\xe8\\xbf\\x9b\\xe9\\x98\\xb6.sol\":4115:4147  User_Map[msg.sender].stakeNumber */\n      sload\n        /* \"\\xe5\\xae\\x9a\\xe6\\x81\\xaf\\xe7\\x9f\\xbf\\xe6\\xb1\\xa0-\\xe8\\xbf\\x9b\\xe9\\x98\\xb6.sol\":4111:4147  x > User_Map[msg.sender].stakeNumber */\n      dup2\n      gt\n        /* \"\\xe5\\xae\\x9a\\xe6\\x81\\xaf\\xe7\\x9f\\xbf\\xe6\\xb1\\xa0-\\xe8\\xbf\\x9b\\xe9\\x98\\xb6.sol\":4102:4175  require (x > User_Map[msg.sender].stakeNumber,\"rewardtoken Insufficient\") */\n      tag_125\n      jumpi\n      mload(0x40)\n      shl(0xe5, 0x461bcd)\n      dup2\n      mstore\n      0x04\n      add\n      tag_74\n      swap1\n      tag_75\n      jump\t// in\n    tag_125:\n        /* \"\\xe5\\xae\\x9a\\xe6\\x81\\xaf\\xe7\\x9f\\xbf\\xe6\\xb1\\xa0-\\xe8\\xbf\\x9b\\xe9\\x98\\xb6.sol\":4273:4283  msg.sender */\n      caller\n        /* \"\\xe5\\xae\\x9a\\xe6\\x81\\xaf\\xe7\\x9f\\xbf\\xe6\\xb1\\xa0-\\xe8\\xbf\\x9b\\xe9\\x98\\xb6.sol\":4285:4305  User_Map[msg.sender] */\n      0x00\n      dup2\n      dup2\n      mstore\n        /* \"\\xe5\\xae\\x9a\\xe6\\x81\\xaf\\xe7\\x9f\\xbf\\xe6\\xb1\\xa0-\\xe8\\xbf\\x9b\\xe9\\x98\\xb6.sol\":4285:4293  User_Map */\n      0x05\n        /* \"\\xe5\\xae\\x9a\\xe6\\x81\\xaf\\xe7\\x9f\\xbf\\xe6\\xb1\\xa0-\\xe8\\xbf\\x9b\\xe9\\x98\\xb6.sol\":4285:4305  User_Map[msg.sender] */\n      0x20\n      mstore\n      0x40\n      swap1\n      keccak256\n        /* \"\\xe5\\xae\\x9a\\xe6\\x81\\xaf\\xe7\\x9f\\xbf\\xe6\\xb1\\xa0-\\xe8\\xbf\\x9b\\xe9\\x98\\xb6.sol\":4285:4317  User_Map[msg.sender].stakeNumber */\n      sload\n        /* \"\\xe5\\xae\\x9a\\xe6\\x81\\xaf\\xe7\\x9f\\xbf\\xe6\\xb1\\xa0-\\xe8\\xbf\\x9b\\xe9\\x98\\xb6.sol\":4248:4258  staketoken */\n      sload(0x01)\n        /* \"\\xe5\\xae\\x9a\\xe6\\x81\\xaf\\xe7\\x9f\\xbf\\xe6\\xb1\\xa0-\\xe8\\xbf\\x9b\\xe9\\x98\\xb6.sol\":4241:4318  IERC20(staketoken).safeTransfer(msg.sender, User_Map[msg.sender].stakeNumber) */\n      tag_127\n      swap3\n      sub(shl(0xa0, 0x01), 0x01)\n        /* \"\\xe5\\xae\\x9a\\xe6\\x81\\xaf\\xe7\\x9f\\xbf\\xe6\\xb1\\xa0-\\xe8\\xbf\\x9b\\xe9\\x98\\xb6.sol\":4248:4258  staketoken */\n      swap1\n      swap2\n      and\n      swap2\n        /* \"\\xe5\\xae\\x9a\\xe6\\x81\\xaf\\xe7\\x9f\\xbf\\xe6\\xb1\\xa0-\\xe8\\xbf\\x9b\\xe9\\x98\\xb6.sol\":4241:4272  IERC20(staketoken).safeTransfer */\n      tag_77\n        /* \"\\xe5\\xae\\x9a\\xe6\\x81\\xaf\\xe7\\x9f\\xbf\\xe6\\xb1\\xa0-\\xe8\\xbf\\x9b\\xe9\\x98\\xb6.sol\":4241:4318  IERC20(staketoken).safeTransfer(msg.sender, User_Map[msg.sender].stakeNumber) */\n      jump\t// in\n    tag_127:\n        /* \"\\xe5\\xae\\x9a\\xe6\\x81\\xaf\\xe7\\x9f\\xbf\\xe6\\xb1\\xa0-\\xe8\\xbf\\x9b\\xe9\\x98\\xb6.sol\":4344:4354  msg.sender */\n      caller\n        /* \"\\xe5\\xae\\x9a\\xe6\\x81\\xaf\\xe7\\x9f\\xbf\\xe6\\xb1\\xa0-\\xe8\\xbf\\x9b\\xe9\\x98\\xb6.sol\":4356:4376  User_Map[msg.sender] */\n      0x00\n      dup2\n      dup2\n      mstore\n        /* \"\\xe5\\xae\\x9a\\xe6\\x81\\xaf\\xe7\\x9f\\xbf\\xe6\\xb1\\xa0-\\xe8\\xbf\\x9b\\xe9\\x98\\xb6.sol\":4356:4364  User_Map */\n      0x05\n        /* \"\\xe5\\xae\\x9a\\xe6\\x81\\xaf\\xe7\\x9f\\xbf\\xe6\\xb1\\xa0-\\xe8\\xbf\\x9b\\xe9\\x98\\xb6.sol\":4356:4376  User_Map[msg.sender] */\n      0x20\n      swap1\n      dup2\n      mstore\n      0x40\n      swap2\n      dup3\n      swap1\n      keccak256\n        /* \"\\xe5\\xae\\x9a\\xe6\\x81\\xaf\\xe7\\x9f\\xbf\\xe6\\xb1\\xa0-\\xe8\\xbf\\x9b\\xe9\\x98\\xb6.sol\":4356:4388  User_Map[msg.sender].stakeNumber */\n      sload\n        /* \"\\xe5\\xae\\x9a\\xe6\\x81\\xaf\\xe7\\x9f\\xbf\\xe6\\xb1\\xa0-\\xe8\\xbf\\x9b\\xe9\\x98\\xb6.sol\":4335:4389  transfer(msg.sender, User_Map[msg.sender].stakeNumber) */\n      swap2\n      mload\n        /* \"#utility.yul\":537:562   */\n      swap2\n      dup3\n      mstore\n        /* \"\\xe5\\xae\\x9a\\xe6\\x81\\xaf\\xe7\\x9f\\xbf\\xe6\\xb1\\xa0-\\xe8\\xbf\\x9b\\xe9\\x98\\xb6.sol\":4335:4389  transfer(msg.sender, User_Map[msg.sender].stakeNumber) */\n      0xa9059cbb2ab09eb219583f4a59a5d0623ade346d962bcd4e46b11da047c9049b\n      swap2\n        /* \"#utility.yul\":510:528   */\n      add\n        /* \"\\xe5\\xae\\x9a\\xe6\\x81\\xaf\\xe7\\x9f\\xbf\\xe6\\xb1\\xa0-\\xe8\\xbf\\x9b\\xe9\\x98\\xb6.sol\":4335:4389  transfer(msg.sender, User_Map[msg.sender].stakeNumber) */\n      mload(0x40)\n      dup1\n      swap2\n      sub\n      swap1\n      log2\n        /* \"\\xe5\\xae\\x9a\\xe6\\x81\\xaf\\xe7\\x9f\\xbf\\xe6\\xb1\\xa0-\\xe8\\xbf\\x9b\\xe9\\x98\\xb6.sol\":4483:4493  msg.sender */\n      caller\n        /* \"\\xe5\\xae\\x9a\\xe6\\x81\\xaf\\xe7\\x9f\\xbf\\xe6\\xb1\\xa0-\\xe8\\xbf\\x9b\\xe9\\x98\\xb6.sol\":4474:4494  User_Map[msg.sender] */\n      0x00\n      swap1\n      dup2\n      mstore\n        /* \"\\xe5\\xae\\x9a\\xe6\\x81\\xaf\\xe7\\x9f\\xbf\\xe6\\xb1\\xa0-\\xe8\\xbf\\x9b\\xe9\\x98\\xb6.sol\":4474:4482  User_Map */\n      0x05\n        /* \"\\xe5\\xae\\x9a\\xe6\\x81\\xaf\\xe7\\x9f\\xbf\\xe6\\xb1\\xa0-\\xe8\\xbf\\x9b\\xe9\\x98\\xb6.sol\":4474:4494  User_Map[msg.sender] */\n      0x20\n      mstore\n      0x40\n      dup2\n      keccak256\n        /* \"\\xe5\\xae\\x9a\\xe6\\x81\\xaf\\xe7\\x9f\\xbf\\xe6\\xb1\\xa0-\\xe8\\xbf\\x9b\\xe9\\x98\\xb6.sol\":4474:4506  User_Map[msg.sender].stakeNumber */\n      sload\n        /* \"\\xe5\\xae\\x9a\\xe6\\x81\\xaf\\xe7\\x9f\\xbf\\xe6\\xb1\\xa0-\\xe8\\xbf\\x9b\\xe9\\x98\\xb6.sol\":4460:4470  staketotal */\n      0x03\n        /* \"\\xe5\\xae\\x9a\\xe6\\x81\\xaf\\xe7\\x9f\\xbf\\xe6\\xb1\\xa0-\\xe8\\xbf\\x9b\\xe9\\x98\\xb6.sol\":4460:4506  staketotal -= User_Map[msg.sender].stakeNumber */\n      dup1\n      sload\n        /* \"\\xe5\\xae\\x9a\\xe6\\x81\\xaf\\xe7\\x9f\\xbf\\xe6\\xb1\\xa0-\\xe8\\xbf\\x9b\\xe9\\x98\\xb6.sol\":4474:4506  User_Map[msg.sender].stakeNumber */\n      swap2\n      swap3\n        /* \"\\xe5\\xae\\x9a\\xe6\\x81\\xaf\\xe7\\x9f\\xbf\\xe6\\xb1\\xa0-\\xe8\\xbf\\x9b\\xe9\\x98\\xb6.sol\":4460:4470  staketotal */\n      swap1\n      swap2\n        /* \"\\xe5\\xae\\x9a\\xe6\\x81\\xaf\\xe7\\x9f\\xbf\\xe6\\xb1\\xa0-\\xe8\\xbf\\x9b\\xe9\\x98\\xb6.sol\":4460:4506  staketotal -= User_Map[msg.sender].stakeNumber */\n      tag_129\n      swap1\n        /* \"\\xe5\\xae\\x9a\\xe6\\x81\\xaf\\xe7\\x9f\\xbf\\xe6\\xb1\\xa0-\\xe8\\xbf\\x9b\\xe9\\x98\\xb6.sol\":4474:4506  User_Map[msg.sender].stakeNumber */\n      dup5\n      swap1\n        /* \"\\xe5\\xae\\x9a\\xe6\\x81\\xaf\\xe7\\x9f\\xbf\\xe6\\xb1\\xa0-\\xe8\\xbf\\x9b\\xe9\\x98\\xb6.sol\":4460:4506  staketotal -= User_Map[msg.sender].stakeNumber */\n      tag_81\n      jump\t// in\n    tag_129:\n      swap1\n      swap2\n      sstore\n      pop\n      pop\n        /* \"\\xe5\\xae\\x9a\\xe6\\x81\\xaf\\xe7\\x9f\\xbf\\xe6\\xb1\\xa0-\\xe8\\xbf\\x9b\\xe9\\x98\\xb6.sol\":4564:4574  msg.sender */\n      caller\n        /* \"\\xe5\\xae\\x9a\\xe6\\x81\\xaf\\xe7\\x9f\\xbf\\xe6\\xb1\\xa0-\\xe8\\xbf\\x9b\\xe9\\x98\\xb6.sol\":4590:4591  0 */\n      0x00\n        /* \"\\xe5\\xae\\x9a\\xe6\\x81\\xaf\\xe7\\x9f\\xbf\\xe6\\xb1\\xa0-\\xe8\\xbf\\x9b\\xe9\\x98\\xb6.sol\":4555:4575  User_Map[msg.sender] */\n      swap1\n      dup2\n      mstore\n        /* \"\\xe5\\xae\\x9a\\xe6\\x81\\xaf\\xe7\\x9f\\xbf\\xe6\\xb1\\xa0-\\xe8\\xbf\\x9b\\xe9\\x98\\xb6.sol\":4555:4563  User_Map */\n      0x05\n        /* \"\\xe5\\xae\\x9a\\xe6\\x81\\xaf\\xe7\\x9f\\xbf\\xe6\\xb1\\xa0-\\xe8\\xbf\\x9b\\xe9\\x98\\xb6.sol\":4555:4575  User_Map[msg.sender] */\n      0x20\n      mstore\n      0x40\n      dup2\n      keccak256\n        /* \"\\xe5\\xae\\x9a\\xe6\\x81\\xaf\\xe7\\x9f\\xbf\\xe6\\xb1\\xa0-\\xe8\\xbf\\x9b\\xe9\\x98\\xb6.sol\":4555:4591  User_Map[msg.sender].stakeNumber = 0 */\n      sstore\n      pop\n        /* \"\\xe5\\xae\\x9a\\xe6\\x81\\xaf\\xe7\\x9f\\xbf\\xe6\\xb1\\xa0-\\xe8\\xbf\\x9b\\xe9\\x98\\xb6.sol\":4615:4619  true */\n      0x01\n      swap2\n        /* \"\\xe5\\xae\\x9a\\xe6\\x81\\xaf\\xe7\\x9f\\xbf\\xe6\\xb1\\xa0-\\xe8\\xbf\\x9b\\xe9\\x98\\xb6.sol\":2947:4627  function harvestwithDraw() public returns (bool) {... */\n      swap1\n      pop\n      jump\t// out\n        /* \"safeMath/safemath.sol\":327:455  function mul(uint a, uint b) internal pure returns (uint c) {... */\n    tag_67:\n        /* \"safeMath/safemath.sol\":379:385  uint c */\n      0x00\n        /* \"safeMath/safemath.sol\":402:407  a * b */\n      tag_131\n        /* \"safeMath/safemath.sol\":406:407  b */\n      dup3\n        /* \"safeMath/safemath.sol\":402:403  a */\n      dup5\n        /* \"safeMath/safemath.sol\":402:407  a * b */\n      tag_132\n      jump\t// in\n    tag_131:\n        /* \"safeMath/safemath.sol\":398:407  c = a * b */\n      swap1\n      pop\n        /* \"safeMath/safemath.sol\":426:432  a == 0 */\n      dup3\n      iszero\n      dup1\n        /* \"safeMath/safemath.sol\":426:446  a == 0 || c / a == b */\n      tag_133\n      jumpi\n      pop\n        /* \"safeMath/safemath.sol\":445:446  b */\n      dup2\n        /* \"safeMath/safemath.sol\":436:441  c / a */\n      tag_134\n        /* \"safeMath/safemath.sol\":440:441  a */\n      dup5\n        /* \"safeMath/safemath.sol\":436:437  c */\n      dup4\n        /* \"safeMath/safemath.sol\":436:441  c / a */\n      tag_135\n      jump\t// in\n    tag_134:\n        /* \"safeMath/safemath.sol\":436:446  c / a == b */\n      eq\n        /* \"safeMath/safemath.sol\":426:446  a == 0 || c / a == b */\n    tag_133:\n        /* \"safeMath/safemath.sol\":418:447  require(a == 0 || c / a == b) */\n      tag_91\n      jumpi\n      0x00\n      dup1\n      revert\n        /* \"safeMath/safemath.sol\":461:574  function div(uint a, uint b) internal pure returns (uint c) {... */\n    tag_68:\n        /* \"safeMath/safemath.sol\":513:519  uint c */\n      0x00\n        /* \"safeMath/safemath.sol\":544:545  0 */\n      dup1\n        /* \"safeMath/safemath.sol\":540:541  b */\n      dup3\n        /* \"safeMath/safemath.sol\":540:545  b > 0 */\n      gt\n        /* \"safeMath/safemath.sol\":532:546  require(b > 0) */\n      tag_138\n      jumpi\n      0x00\n      dup1\n      revert\n    tag_138:\n        /* \"safeMath/safemath.sol\":561:566  a / b */\n      tag_82\n        /* \"safeMath/safemath.sol\":565:566  b */\n      dup3\n        /* \"safeMath/safemath.sol\":561:562  a */\n      dup5\n        /* \"safeMath/safemath.sol\":561:566  a / b */\n      tag_135\n      jump\t// in\n        /* \"safeMath/safemath.sol\":207:321  function sub(uint a, uint b) internal pure returns (uint c) {... */\n    tag_70:\n        /* \"safeMath/safemath.sol\":259:265  uint c */\n      0x00\n        /* \"safeMath/safemath.sol\":291:292  a */\n      dup3\n        /* \"safeMath/safemath.sol\":286:287  b */\n      dup3\n        /* \"safeMath/safemath.sol\":286:292  b <= a */\n      gt\n      iszero\n        /* \"safeMath/safemath.sol\":278:293  require(b <= a) */\n      tag_141\n      jumpi\n      0x00\n      dup1\n      revert\n    tag_141:\n        /* \"safeMath/safemath.sol\":308:313  a - b */\n      tag_82\n        /* \"safeMath/safemath.sol\":312:313  b */\n      dup3\n        /* \"safeMath/safemath.sol\":308:309  a */\n      dup5\n        /* \"safeMath/safemath.sol\":308:313  a - b */\n      tag_81\n      jump\t// in\n        /* \"safeMath/safemath.sol\":87:201  function add(uint a, uint b) internal pure returns (uint c) {... */\n    tag_71:\n        /* \"safeMath/safemath.sol\":139:145  uint c */\n      0x00\n        /* \"safeMath/safemath.sol\":162:167  a + b */\n      tag_144\n        /* \"safeMath/safemath.sol\":166:167  b */\n      dup3\n        /* \"safeMath/safemath.sol\":162:163  a */\n      dup5\n        /* \"safeMath/safemath.sol\":162:167  a + b */\n      tag_110\n      jump\t// in\n    tag_144:\n        /* \"safeMath/safemath.sol\":158:167  c = a + b */\n      swap1\n      pop\n        /* \"safeMath/safemath.sol\":191:192  a */\n      dup3\n        /* \"safeMath/safemath.sol\":186:187  c */\n      dup2\n        /* \"safeMath/safemath.sol\":186:192  c >= a */\n      lt\n      iszero\n        /* \"safeMath/safemath.sol\":178:193  require(c >= a) */\n      tag_91\n      jumpi\n      0x00\n      dup1\n      revert\n        /* \"@openzeppelin/contracts/token/ERC20/utils/SafeERC20.sol\":763:968  function safeTransfer(... */\n    tag_77:\n        /* \"@openzeppelin/contracts/token/ERC20/utils/SafeERC20.sol\":902:960  abi.encodeWithSelector(token.transfer.selector, to, value) */\n      mload(0x40)\n      sub(shl(0xa0, 0x01), 0x01)\n        /* \"#utility.yul\":3413:3445   */\n      dup4\n      and\n        /* \"@openzeppelin/contracts/token/ERC20/utils/SafeERC20.sol\":902:960  abi.encodeWithSelector(token.transfer.selector, to, value) */\n      0x24\n      dup3\n      add\n        /* \"#utility.yul\":3395:3446   */\n      mstore\n        /* \"#utility.yul\":3462:3480   */\n      0x44\n      dup2\n      add\n        /* \"#utility.yul\":3455:3489   */\n      dup3\n      swap1\n      mstore\n        /* \"@openzeppelin/contracts/token/ERC20/utils/SafeERC20.sol\":875:961  _callOptionalReturn(token, abi.encodeWithSelector(token.transfer.selector, to, value)) */\n      tag_147\n      swap1\n        /* \"@openzeppelin/contracts/token/ERC20/utils/SafeERC20.sol\":895:900  token */\n      dup5\n      swap1\n      shl(0xe0, 0xa9059cbb)\n        /* \"@openzeppelin/contracts/token/ERC20/utils/SafeERC20.sol\":925:948  token.transfer.selector */\n      swap1\n        /* \"#utility.yul\":3368:3386   */\n      0x64\n      add\n        /* \"@openzeppelin/contracts/token/ERC20/utils/SafeERC20.sol\":902:960  abi.encodeWithSelector(token.transfer.selector, to, value) */\n    tag_148:\n      0x40\n      dup1\n      mload\n      not(0x1f)\n      dup2\n      dup5\n      sub\n      add\n      dup2\n      mstore\n      swap2\n      swap1\n      mstore\n      0x20\n      dup2\n      add\n      dup1\n      mload\n      sub(shl(0xe0, 0x01), 0x01)\n      and\n      not(sub(shl(0xe0, 0x01), 0x01))\n      swap1\n      swap4\n      and\n      swap3\n      swap1\n      swap3\n      or\n      swap1\n      swap2\n      mstore\n        /* \"@openzeppelin/contracts/token/ERC20/utils/SafeERC20.sol\":875:894  _callOptionalReturn */\n      tag_150\n        /* \"@openzeppelin/contracts/token/ERC20/utils/SafeERC20.sol\":875:961  _callOptionalReturn(token, abi.encodeWithSelector(token.transfer.selector, to, value)) */\n      jump\t// in\n    tag_147:\n        /* \"@openzeppelin/contracts/token/ERC20/utils/SafeERC20.sol\":763:968  function safeTransfer(... */\n      pop\n      pop\n      pop\n      jump\t// out\n        /* \"@openzeppelin/contracts/token/ERC20/utils/SafeERC20.sol\":974:1215  function safeTransferFrom(... */\n    tag_102:\n        /* \"@openzeppelin/contracts/token/ERC20/utils/SafeERC20.sol\":1139:1207  abi.encodeWithSelector(token.transferFrom.selector, from, to, value) */\n      mload(0x40)\n      sub(shl(0xa0, 0x01), 0x01)\n        /* \"#utility.yul\":3758:3773   */\n      dup1\n      dup6\n      and\n        /* \"@openzeppelin/contracts/token/ERC20/utils/SafeERC20.sol\":1139:1207  abi.encodeWithSelector(token.transferFrom.selector, from, to, value) */\n      0x24\n      dup4\n      add\n        /* \"#utility.yul\":3740:3774   */\n      mstore\n        /* \"#utility.yul\":3810:3825   */\n      dup4\n      and\n        /* \"#utility.yul\":3790:3808   */\n      0x44\n      dup3\n      add\n        /* \"#utility.yul\":3783:3826   */\n      mstore\n        /* \"#utility.yul\":3842:3860   */\n      0x64\n      dup2\n      add\n        /* \"#utility.yul\":3835:3869   */\n      dup3\n      swap1\n      mstore\n        /* \"@openzeppelin/contracts/token/ERC20/utils/SafeERC20.sol\":1112:1208  _callOptionalReturn(token, abi.encodeWithSelector(token.transferFrom.selector, from, to, value)) */\n      tag_152\n      swap1\n        /* \"@openzeppelin/contracts/token/ERC20/utils/SafeERC20.sol\":1132:1137  token */\n      dup6\n      swap1\n      shl(0xe0, 0x23b872dd)\n        /* \"@openzeppelin/contracts/token/ERC20/utils/SafeERC20.sol\":1162:1189  token.transferFrom.selector */\n      swap1\n        /* \"#utility.yul\":3675:3693   */\n      0x84\n      add\n        /* \"@openzeppelin/contracts/token/ERC20/utils/SafeERC20.sol\":1139:1207  abi.encodeWithSelector(token.transferFrom.selector, from, to, value) */\n      tag_148\n        /* \"#utility.yul\":3500:3875   */\n      jump\n        /* \"@openzeppelin/contracts/token/ERC20/utils/SafeERC20.sol\":1112:1208  _callOptionalReturn(token, abi.encodeWithSelector(token.transferFrom.selector, from, to, value)) */\n    tag_152:\n        /* \"@openzeppelin/contracts/token/ERC20/utils/SafeERC20.sol\":974:1215  function safeTransferFrom(... */\n      pop\n      pop\n      pop\n      pop\n      jump\t// out\n        /* \"@openzeppelin/contracts/token/ERC20/utils/SafeERC20.sol\":3747:4453  function _callOptionalReturn(IERC20 token, bytes memory data) private {... */\n    tag_150:\n        /* \"@openzeppelin/contracts/token/ERC20/utils/SafeERC20.sol\":4166:4189  bytes memory returndata */\n      0x00\n        /* \"@openzeppelin/contracts/token/ERC20/utils/SafeERC20.sol\":4192:4261  address(token).functionCall(data, \"SafeERC20: low-level call failed\") */\n      tag_156\n        /* \"@openzeppelin/contracts/token/ERC20/utils/SafeERC20.sol\":4220:4224  data */\n      dup3\n        /* \"@openzeppelin/contracts/token/ERC20/utils/SafeERC20.sol\":4192:4261  address(token).functionCall(data, \"SafeERC20: low-level call failed\") */\n      mload(0x40)\n      dup1\n      0x40\n      add\n      0x40\n      mstore\n      dup1\n      0x20\n      dup2\n      mstore\n      0x20\n      add\n      0x5361666545524332303a206c6f772d6c6576656c2063616c6c206661696c6564\n      dup2\n      mstore\n      pop\n        /* \"@openzeppelin/contracts/token/ERC20/utils/SafeERC20.sol\":4200:4205  token */\n      dup6\n      sub(shl(0xa0, 0x01), 0x01)\n        /* \"@openzeppelin/contracts/token/ERC20/utils/SafeERC20.sol\":4192:4219  address(token).functionCall */\n      and\n      tag_157\n      swap1\n        /* \"@openzeppelin/contracts/token/ERC20/utils/SafeERC20.sol\":4192:4261  address(token).functionCall(data, \"SafeERC20: low-level call failed\") */\n      swap3\n      swap2\n      swap1\n      0xffffffff\n      and\n      jump\t// in\n    tag_156:\n        /* \"@openzeppelin/contracts/token/ERC20/utils/SafeERC20.sol\":4275:4292  returndata.length */\n      dup1\n      mload\n        /* \"@openzeppelin/contracts/token/ERC20/utils/SafeERC20.sol\":4166:4261  bytes memory returndata = address(token).functionCall(data, \"SafeERC20: low-level call failed\") */\n      swap1\n      swap2\n      pop\n        /* \"@openzeppelin/contracts/token/ERC20/utils/SafeERC20.sol\":4275:4296  returndata.length > 0 */\n      iszero\n        /* \"@openzeppelin/contracts/token/ERC20/utils/SafeERC20.sol\":4271:4447  if (returndata.length > 0) {... */\n      tag_147\n      jumpi\n        /* \"@openzeppelin/contracts/token/ERC20/utils/SafeERC20.sol\":4370:4380  returndata */\n      dup1\n        /* \"@openzeppelin/contracts/token/ERC20/utils/SafeERC20.sol\":4359:4389  abi.decode(returndata, (bool)) */\n      dup1\n      0x20\n      add\n      swap1\n      mload\n      dup2\n      add\n      swap1\n      tag_159\n      swap2\n      swap1\n      tag_160\n      jump\t// in\n    tag_159:\n        /* \"@openzeppelin/contracts/token/ERC20/utils/SafeERC20.sol\":4351:4436  require(abi.decode(returndata, (bool)), \"SafeERC20: ERC20 operation did not succeed\") */\n      tag_147\n      jumpi\n      mload(0x40)\n      shl(0xe5, 0x461bcd)\n      dup2\n      mstore\n        /* \"#utility.yul\":4364:4366   */\n      0x20\n        /* \"@openzeppelin/contracts/token/ERC20/utils/SafeERC20.sol\":4351:4436  require(abi.decode(returndata, (bool)), \"SafeERC20: ERC20 operation did not succeed\") */\n      0x04\n      dup3\n      add\n        /* \"#utility.yul\":4346:4367   */\n      mstore\n        /* \"#utility.yul\":4403:4405   */\n      0x2a\n        /* \"#utility.yul\":4383:4401   */\n      0x24\n      dup3\n      add\n        /* \"#utility.yul\":4376:4406   */\n      mstore\n        /* \"#utility.yul\":4442:4476   */\n      0x5361666545524332303a204552433230206f7065726174696f6e20646964206e\n        /* \"#utility.yul\":4422:4440   */\n      0x44\n      dup3\n      add\n        /* \"#utility.yul\":4415:4477   */\n      mstore\n      shl(0xb2, 0x1bdd081cdd58d8d95959)\n        /* \"#utility.yul\":4493:4511   */\n      0x64\n      dup3\n      add\n        /* \"#utility.yul\":4486:4526   */\n      mstore\n        /* \"#utility.yul\":4543:4562   */\n      0x84\n      add\n        /* \"@openzeppelin/contracts/token/ERC20/utils/SafeERC20.sol\":4351:4436  require(abi.decode(returndata, (bool)), \"SafeERC20: ERC20 operation did not succeed\") */\n      tag_74\n        /* \"#utility.yul\":4162:4568   */\n      jump\n        /* \"@openzeppelin/contracts/utils/Address.sol\":3861:4084  function functionCall(... */\n    tag_157:\n        /* \"@openzeppelin/contracts/utils/Address.sol\":3994:4006  bytes memory */\n      0x60\n        /* \"@openzeppelin/contracts/utils/Address.sol\":4025:4077  functionCallWithValue(target, data, 0, errorMessage) */\n      tag_165\n        /* \"@openzeppelin/contracts/utils/Address.sol\":4047:4053  target */\n      dup5\n        /* \"@openzeppelin/contracts/utils/Address.sol\":4055:4059  data */\n      dup5\n        /* \"@openzeppelin/contracts/utils/Address.sol\":4061:4062  0 */\n      0x00\n        /* \"@openzeppelin/contracts/utils/Address.sol\":4064:4076  errorMessage */\n      dup6\n        /* \"@openzeppelin/contracts/utils/Address.sol\":4025:4046  functionCallWithValue */\n      tag_166\n        /* \"@openzeppelin/contracts/utils/Address.sol\":4025:4077  functionCallWithValue(target, data, 0, errorMessage) */\n      jump\t// in\n    tag_165:\n        /* \"@openzeppelin/contracts/utils/Address.sol\":4018:4077  return functionCallWithValue(target, data, 0, errorMessage) */\n      swap5\n        /* \"@openzeppelin/contracts/utils/Address.sol\":3861:4084  function functionCall(... */\n      swap4\n      pop\n      pop\n      pop\n      pop\n      jump\t// out\n        /* \"@openzeppelin/contracts/utils/Address.sol\":4948:5447  function functionCallWithValue(... */\n    tag_166:\n        /* \"@openzeppelin/contracts/utils/Address.sol\":5113:5125  bytes memory */\n      0x60\n        /* \"@openzeppelin/contracts/utils/Address.sol\":5170:5175  value */\n      dup3\n        /* \"@openzeppelin/contracts/utils/Address.sol\":5145:5166  address(this).balance */\n      selfbalance\n        /* \"@openzeppelin/contracts/utils/Address.sol\":5145:5175  address(this).balance >= value */\n      lt\n      iszero\n        /* \"@openzeppelin/contracts/utils/Address.sol\":5137:5218  require(address(this).balance >= value, \"Address: insufficient balance for call\") */\n      tag_168\n      jumpi\n      mload(0x40)\n      shl(0xe5, 0x461bcd)\n      dup2\n      mstore\n        /* \"#utility.yul\":4775:4777   */\n      0x20\n        /* \"@openzeppelin/contracts/utils/Address.sol\":5137:5218  require(address(this).balance >= value, \"Address: insufficient balance for call\") */\n      0x04\n      dup3\n      add\n        /* \"#utility.yul\":4757:4778   */\n      mstore\n        /* \"#utility.yul\":4814:4816   */\n      0x26\n        /* \"#utility.yul\":4794:4812   */\n      0x24\n      dup3\n      add\n        /* \"#utility.yul\":4787:4817   */\n      mstore\n        /* \"#utility.yul\":4853:4887   */\n      0x416464726573733a20696e73756666696369656e742062616c616e636520666f\n        /* \"#utility.yul\":4833:4851   */\n      0x44\n      dup3\n      add\n        /* \"#utility.yul\":4826:4888   */\n      mstore\n      shl(0xd2, 0x1c8818d85b1b)\n        /* \"#utility.yul\":4904:4922   */\n      0x64\n      dup3\n      add\n        /* \"#utility.yul\":4897:4933   */\n      mstore\n        /* \"#utility.yul\":4950:4969   */\n      0x84\n      add\n        /* \"@openzeppelin/contracts/utils/Address.sol\":5137:5218  require(address(this).balance >= value, \"Address: insufficient balance for call\") */\n      tag_74\n        /* \"#utility.yul\":4573:4975   */\n      jump\n        /* \"@openzeppelin/contracts/utils/Address.sol\":5137:5218  require(address(this).balance >= value, \"Address: insufficient balance for call\") */\n    tag_168:\n      sub(shl(0xa0, 0x01), 0x01)\n        /* \"@openzeppelin/contracts/utils/Address.sol\":1465:1484  account.code.length */\n      dup6\n      and\n      extcodesize\n        /* \"@openzeppelin/contracts/utils/Address.sol\":5228:5288  require(isContract(target), \"Address: call to non-contract\") */\n      tag_173\n      jumpi\n      mload(0x40)\n      shl(0xe5, 0x461bcd)\n      dup2\n      mstore\n        /* \"#utility.yul\":5182:5184   */\n      0x20\n        /* \"@openzeppelin/contracts/utils/Address.sol\":5228:5288  require(isContract(target), \"Address: call to non-contract\") */\n      0x04\n      dup3\n      add\n        /* \"#utility.yul\":5164:5185   */\n      mstore\n        /* \"#utility.yul\":5221:5223   */\n      0x1d\n        /* \"#utility.yul\":5201:5219   */\n      0x24\n      dup3\n      add\n        /* \"#utility.yul\":5194:5224   */\n      mstore\n        /* \"#utility.yul\":5260:5291   */\n      0x416464726573733a2063616c6c20746f206e6f6e2d636f6e7472616374000000\n        /* \"#utility.yul\":5240:5258   */\n      0x44\n      dup3\n      add\n        /* \"#utility.yul\":5233:5292   */\n      mstore\n        /* \"#utility.yul\":5309:5327   */\n      0x64\n      add\n        /* \"@openzeppelin/contracts/utils/Address.sol\":5228:5288  require(isContract(target), \"Address: call to non-contract\") */\n      tag_74\n        /* \"#utility.yul\":4980:5333   */\n      jump\n        /* \"@openzeppelin/contracts/utils/Address.sol\":5228:5288  require(isContract(target), \"Address: call to non-contract\") */\n    tag_173:\n        /* \"@openzeppelin/contracts/utils/Address.sol\":5300:5312  bool success */\n      0x00\n        /* \"@openzeppelin/contracts/utils/Address.sol\":5314:5337  bytes memory returndata */\n      dup1\n        /* \"@openzeppelin/contracts/utils/Address.sol\":5341:5347  target */\n      dup7\n      sub(shl(0xa0, 0x01), 0x01)\n        /* \"@openzeppelin/contracts/utils/Address.sol\":5341:5352  target.call */\n      and\n        /* \"@openzeppelin/contracts/utils/Address.sol\":5360:5365  value */\n      dup6\n        /* \"@openzeppelin/contracts/utils/Address.sol\":5367:5371  data */\n      dup8\n        /* \"@openzeppelin/contracts/utils/Address.sol\":5341:5372  target.call{value: value}(data) */\n      mload(0x40)\n      tag_176\n      swap2\n      swap1\n      tag_177\n      jump\t// in\n    tag_176:\n      0x00\n      mload(0x40)\n      dup1\n      dup4\n      sub\n      dup2\n      dup6\n      dup8\n      gas\n      call\n      swap3\n      pop\n      pop\n      pop\n      returndatasize\n      dup1\n      0x00\n      dup2\n      eq\n      tag_180\n      jumpi\n      mload(0x40)\n      swap2\n      pop\n      and(add(returndatasize, 0x3f), not(0x1f))\n      dup3\n      add\n      0x40\n      mstore\n      returndatasize\n      dup3\n      mstore\n      returndatasize\n      0x00\n      0x20\n      dup5\n      add\n      returndatacopy\n      jump(tag_179)\n    tag_180:\n      0x60\n      swap2\n      pop\n    tag_179:\n      pop\n        /* \"@openzeppelin/contracts/utils/Address.sol\":5299:5372  (bool success, bytes memory returndata) = target.call{value: value}(data) */\n      swap2\n      pop\n      swap2\n      pop\n        /* \"@openzeppelin/contracts/utils/Address.sol\":5389:5440  verifyCallResult(success, returndata, errorMessage) */\n      tag_181\n        /* \"@openzeppelin/contracts/utils/Address.sol\":5406:5413  success */\n      dup3\n        /* \"@openzeppelin/contracts/utils/Address.sol\":5415:5425  returndata */\n      dup3\n        /* \"@openzeppelin/contracts/utils/Address.sol\":5427:5439  errorMessage */\n      dup7\n        /* \"@openzeppelin/contracts/utils/Address.sol\":5389:5405  verifyCallResult */\n      tag_182\n        /* \"@openzeppelin/contracts/utils/Address.sol\":5389:5440  verifyCallResult(success, returndata, errorMessage) */\n      jump\t// in\n    tag_181:\n        /* \"@openzeppelin/contracts/utils/Address.sol\":5382:5440  return verifyCallResult(success, returndata, errorMessage) */\n      swap8\n        /* \"@openzeppelin/contracts/utils/Address.sol\":4948:5447  function functionCallWithValue(... */\n      swap7\n      pop\n      pop\n      pop\n      pop\n      pop\n      pop\n      pop\n      jump\t// out\n        /* \"@openzeppelin/contracts/utils/Address.sol\":7561:8303  function verifyCallResult(... */\n    tag_182:\n        /* \"@openzeppelin/contracts/utils/Address.sol\":7707:7719  bytes memory */\n      0x60\n        /* \"@openzeppelin/contracts/utils/Address.sol\":7735:7742  success */\n      dup4\n        /* \"@openzeppelin/contracts/utils/Address.sol\":7731:8297  if (success) {... */\n      iszero\n      tag_185\n      jumpi\n      pop\n        /* \"@openzeppelin/contracts/utils/Address.sol\":7765:7775  returndata */\n      dup2\n        /* \"@openzeppelin/contracts/utils/Address.sol\":7758:7775  return returndata */\n      jump(tag_82)\n        /* \"@openzeppelin/contracts/utils/Address.sol\":7731:8297  if (success) {... */\n    tag_185:\n        /* \"@openzeppelin/contracts/utils/Address.sol\":7876:7893  returndata.length */\n      dup3\n      mload\n        /* \"@openzeppelin/contracts/utils/Address.sol\":7876:7897  returndata.length > 0 */\n      iszero\n        /* \"@openzeppelin/contracts/utils/Address.sol\":7872:8287  if (returndata.length > 0) {... */\n      tag_187\n      jumpi\n        /* \"@openzeppelin/contracts/utils/Address.sol\":8120:8130  returndata */\n      dup3\n        /* \"@openzeppelin/contracts/utils/Address.sol\":8114:8131  mload(returndata) */\n      mload\n        /* \"@openzeppelin/contracts/utils/Address.sol\":8180:8195  returndata_size */\n      dup1\n        /* \"@openzeppelin/contracts/utils/Address.sol\":8167:8177  returndata */\n      dup5\n        /* \"@openzeppelin/contracts/utils/Address.sol\":8163:8165  32 */\n      0x20\n        /* \"@openzeppelin/contracts/utils/Address.sol\":8159:8178  add(32, returndata) */\n      add\n        /* \"@openzeppelin/contracts/utils/Address.sol\":8152:8196  revert(add(32, returndata), returndata_size) */\n      revert\n        /* \"@openzeppelin/contracts/utils/Address.sol\":7872:8287  if (returndata.length > 0) {... */\n    tag_187:\n        /* \"@openzeppelin/contracts/utils/Address.sol\":8259:8271  errorMessage */\n      dup2\n        /* \"@openzeppelin/contracts/utils/Address.sol\":8252:8272  revert(errorMessage) */\n      mload(0x40)\n      shl(0xe5, 0x461bcd)\n      dup2\n      mstore\n      0x04\n      add\n      tag_74\n      swap2\n      swap1\n      tag_190\n      jump\t// in\n        /* \"#utility.yul\":14:194   */\n    tag_18:\n        /* \"#utility.yul\":73:79   */\n      0x00\n        /* \"#utility.yul\":126:128   */\n      0x20\n        /* \"#utility.yul\":114:123   */\n      dup3\n        /* \"#utility.yul\":105:112   */\n      dup5\n        /* \"#utility.yul\":101:124   */\n      sub\n        /* \"#utility.yul\":97:129   */\n      slt\n        /* \"#utility.yul\":94:146   */\n      iszero\n      tag_195\n      jumpi\n        /* \"#utility.yul\":142:143   */\n      0x00\n        /* \"#utility.yul\":139:140   */\n      dup1\n        /* \"#utility.yul\":132:144   */\n      revert\n        /* \"#utility.yul\":94:146   */\n    tag_195:\n      pop\n        /* \"#utility.yul\":165:188   */\n      calldataload\n      swap2\n        /* \"#utility.yul\":14:194   */\n      swap1\n      pop\n      jump\t// out\n        /* \"#utility.yul\":781:1067   */\n    tag_37:\n        /* \"#utility.yul\":840:846   */\n      0x00\n        /* \"#utility.yul\":893:895   */\n      0x20\n        /* \"#utility.yul\":881:890   */\n      dup3\n        /* \"#utility.yul\":872:879   */\n      dup5\n        /* \"#utility.yul\":868:891   */\n      sub\n        /* \"#utility.yul\":864:896   */\n      slt\n        /* \"#utility.yul\":861:913   */\n      iszero\n      tag_200\n      jumpi\n        /* \"#utility.yul\":909:910   */\n      0x00\n        /* \"#utility.yul\":906:907   */\n      dup1\n        /* \"#utility.yul\":899:911   */\n      revert\n        /* \"#utility.yul\":861:913   */\n    tag_200:\n        /* \"#utility.yul\":935:958   */\n      dup2\n      calldataload\n      sub(shl(0xa0, 0x01), 0x01)\n        /* \"#utility.yul\":987:1018   */\n      dup2\n      and\n        /* \"#utility.yul\":977:1019   */\n      dup2\n      eq\n        /* \"#utility.yul\":967:1037   */\n      tag_82\n      jumpi\n        /* \"#utility.yul\":1033:1034   */\n      0x00\n        /* \"#utility.yul\":1030:1031   */\n      dup1\n        /* \"#utility.yul\":1023:1035   */\n      revert\n        /* \"#utility.yul\":1540:1888   */\n    tag_75:\n        /* \"#utility.yul\":1742:1744   */\n      0x20\n        /* \"#utility.yul\":1724:1745   */\n      dup1\n      dup3\n      mstore\n        /* \"#utility.yul\":1781:1783   */\n      0x18\n        /* \"#utility.yul\":1761:1779   */\n      swap1\n      dup3\n      add\n        /* \"#utility.yul\":1754:1784   */\n      mstore\n        /* \"#utility.yul\":1820:1846   */\n      0x726577617264746f6b656e20496e73756666696369656e740000000000000000\n        /* \"#utility.yul\":1815:1817   */\n      0x40\n        /* \"#utility.yul\":1800:1818   */\n      dup3\n      add\n        /* \"#utility.yul\":1793:1847   */\n      mstore\n        /* \"#utility.yul\":1879:1881   */\n      0x60\n        /* \"#utility.yul\":1864:1882   */\n      add\n      swap1\n        /* \"#utility.yul\":1540:1888   */\n      jump\t// out\n        /* \"#utility.yul\":1893:2020   */\n    tag_191:\n        /* \"#utility.yul\":1954:1964   */\n      0x4e487b71\n        /* \"#utility.yul\":1949:1952   */\n      0xe0\n        /* \"#utility.yul\":1945:1965   */\n      shl\n        /* \"#utility.yul\":1942:1943   */\n      0x00\n        /* \"#utility.yul\":1935:1966   */\n      mstore\n        /* \"#utility.yul\":1985:1989   */\n      0x11\n        /* \"#utility.yul\":1982:1983   */\n      0x04\n        /* \"#utility.yul\":1975:1990   */\n      mstore\n        /* \"#utility.yul\":2009:2013   */\n      0x24\n        /* \"#utility.yul\":2006:2007   */\n      0x00\n        /* \"#utility.yul\":1999:2014   */\n      revert\n        /* \"#utility.yul\":2025:2150   */\n    tag_81:\n        /* \"#utility.yul\":2065:2069   */\n      0x00\n        /* \"#utility.yul\":2093:2094   */\n      dup3\n        /* \"#utility.yul\":2090:2091   */\n      dup3\n        /* \"#utility.yul\":2087:2095   */\n      lt\n        /* \"#utility.yul\":2084:2118   */\n      iszero\n      tag_207\n      jumpi\n        /* \"#utility.yul\":2098:2116   */\n      tag_207\n      tag_191\n      jump\t// in\n    tag_207:\n      pop\n        /* \"#utility.yul\":2135:2144   */\n      sub\n      swap1\n        /* \"#utility.yul\":2025:2150   */\n      jump\t// out\n        /* \"#utility.yul\":2155:2339   */\n    tag_92:\n        /* \"#utility.yul\":2225:2231   */\n      0x00\n        /* \"#utility.yul\":2278:2280   */\n      0x20\n        /* \"#utility.yul\":2266:2275   */\n      dup3\n        /* \"#utility.yul\":2257:2264   */\n      dup5\n        /* \"#utility.yul\":2253:2276   */\n      sub\n        /* \"#utility.yul\":2249:2281   */\n      slt\n        /* \"#utility.yul\":2246:2298   */\n      iszero\n      tag_209\n      jumpi\n        /* \"#utility.yul\":2294:2295   */\n      0x00\n        /* \"#utility.yul\":2291:2292   */\n      dup1\n        /* \"#utility.yul\":2284:2296   */\n      revert\n        /* \"#utility.yul\":2246:2298   */\n    tag_209:\n      pop\n        /* \"#utility.yul\":2317:2333   */\n      mload\n      swap2\n        /* \"#utility.yul\":2155:2339   */\n      swap1\n      pop\n      jump\t// out\n        /* \"#utility.yul\":2693:2821   */\n    tag_110:\n        /* \"#utility.yul\":2733:2736   */\n      0x00\n        /* \"#utility.yul\":2764:2765   */\n      dup3\n        /* \"#utility.yul\":2760:2766   */\n      not\n        /* \"#utility.yul\":2757:2758   */\n      dup3\n        /* \"#utility.yul\":2754:2767   */\n      gt\n        /* \"#utility.yul\":2751:2790   */\n      iszero\n      tag_213\n      jumpi\n        /* \"#utility.yul\":2770:2788   */\n      tag_213\n      tag_191\n      jump\t// in\n    tag_213:\n      pop\n        /* \"#utility.yul\":2806:2815   */\n      add\n      swap1\n        /* \"#utility.yul\":2693:2821   */\n      jump\t// out\n        /* \"#utility.yul\":2826:2994   */\n    tag_132:\n        /* \"#utility.yul\":2866:2873   */\n      0x00\n        /* \"#utility.yul\":2932:2933   */\n      dup2\n        /* \"#utility.yul\":2928:2929   */\n      0x00\n        /* \"#utility.yul\":2924:2930   */\n      not\n        /* \"#utility.yul\":2920:2934   */\n      div\n        /* \"#utility.yul\":2917:2918   */\n      dup4\n        /* \"#utility.yul\":2914:2935   */\n      gt\n        /* \"#utility.yul\":2909:2910   */\n      dup3\n        /* \"#utility.yul\":2902:2911   */\n      iszero\n        /* \"#utility.yul\":2895:2912   */\n      iszero\n        /* \"#utility.yul\":2891:2936   */\n      and\n        /* \"#utility.yul\":2888:2959   */\n      iszero\n      tag_216\n      jumpi\n        /* \"#utility.yul\":2939:2957   */\n      tag_216\n      tag_191\n      jump\t// in\n    tag_216:\n      pop\n        /* \"#utility.yul\":2979:2988   */\n      mul\n      swap1\n        /* \"#utility.yul\":2826:2994   */\n      jump\t// out\n        /* \"#utility.yul\":2999:3216   */\n    tag_135:\n        /* \"#utility.yul\":3039:3040   */\n      0x00\n        /* \"#utility.yul\":3065:3066   */\n      dup3\n        /* \"#utility.yul\":3055:3187   */\n      tag_218\n      jumpi\n        /* \"#utility.yul\":3109:3119   */\n      0x4e487b71\n        /* \"#utility.yul\":3104:3107   */\n      0xe0\n        /* \"#utility.yul\":3100:3120   */\n      shl\n        /* \"#utility.yul\":3097:3098   */\n      0x00\n        /* \"#utility.yul\":3090:3121   */\n      mstore\n        /* \"#utility.yul\":3144:3148   */\n      0x12\n        /* \"#utility.yul\":3141:3142   */\n      0x04\n        /* \"#utility.yul\":3134:3149   */\n      mstore\n        /* \"#utility.yul\":3172:3176   */\n      0x24\n        /* \"#utility.yul\":3169:3170   */\n      0x00\n        /* \"#utility.yul\":3162:3177   */\n      revert\n        /* \"#utility.yul\":3055:3187   */\n    tag_218:\n      pop\n        /* \"#utility.yul\":3201:3210   */\n      div\n      swap1\n        /* \"#utility.yul\":2999:3216   */\n      jump\t// out\n        /* \"#utility.yul\":3880:4157   */\n    tag_160:\n        /* \"#utility.yul\":3947:3953   */\n      0x00\n        /* \"#utility.yul\":4000:4002   */\n      0x20\n        /* \"#utility.yul\":3988:3997   */\n      dup3\n        /* \"#utility.yul\":3979:3986   */\n      dup5\n        /* \"#utility.yul\":3975:3998   */\n      sub\n        /* \"#utility.yul\":3971:4003   */\n      slt\n        /* \"#utility.yul\":3968:4020   */\n      iszero\n      tag_222\n      jumpi\n        /* \"#utility.yul\":4016:4017   */\n      0x00\n        /* \"#utility.yul\":4013:4014   */\n      dup1\n        /* \"#utility.yul\":4006:4018   */\n      revert\n        /* \"#utility.yul\":3968:4020   */\n    tag_222:\n        /* \"#utility.yul\":4048:4057   */\n      dup2\n        /* \"#utility.yul\":4042:4058   */\n      mload\n        /* \"#utility.yul\":4101:4106   */\n      dup1\n        /* \"#utility.yul\":4094:4107   */\n      iszero\n        /* \"#utility.yul\":4087:4108   */\n      iszero\n        /* \"#utility.yul\":4080:4085   */\n      dup2\n        /* \"#utility.yul\":4077:4109   */\n      eq\n        /* \"#utility.yul\":4067:4127   */\n      tag_82\n      jumpi\n        /* \"#utility.yul\":4123:4124   */\n      0x00\n        /* \"#utility.yul\":4120:4121   */\n      dup1\n        /* \"#utility.yul\":4113:4125   */\n      revert\n        /* \"#utility.yul\":5338:5596   */\n    tag_192:\n        /* \"#utility.yul\":5410:5411   */\n      0x00\n        /* \"#utility.yul\":5420:5533   */\n    tag_228:\n        /* \"#utility.yul\":5434:5440   */\n      dup4\n        /* \"#utility.yul\":5431:5432   */\n      dup2\n        /* \"#utility.yul\":5428:5441   */\n      lt\n        /* \"#utility.yul\":5420:5533   */\n      iszero\n      tag_230\n      jumpi\n        /* \"#utility.yul\":5510:5521   */\n      dup2\n      dup2\n      add\n        /* \"#utility.yul\":5504:5522   */\n      mload\n        /* \"#utility.yul\":5491:5502   */\n      dup4\n      dup3\n      add\n        /* \"#utility.yul\":5484:5523   */\n      mstore\n        /* \"#utility.yul\":5456:5458   */\n      0x20\n        /* \"#utility.yul\":5449:5459   */\n      add\n        /* \"#utility.yul\":5420:5533   */\n      jump(tag_228)\n    tag_230:\n        /* \"#utility.yul\":5551:5557   */\n      dup4\n        /* \"#utility.yul\":5548:5549   */\n      dup2\n        /* \"#utility.yul\":5545:5558   */\n      gt\n        /* \"#utility.yul\":5542:5590   */\n      iszero\n      tag_152\n      jumpi\n      pop\n      pop\n        /* \"#utility.yul\":5586:5587   */\n      0x00\n        /* \"#utility.yul\":5568:5584   */\n      swap2\n      add\n        /* \"#utility.yul\":5561:5588   */\n      mstore\n        /* \"#utility.yul\":5338:5596   */\n      jump\t// out\n        /* \"#utility.yul\":5601:5875   */\n    tag_177:\n        /* \"#utility.yul\":5730:5733   */\n      0x00\n        /* \"#utility.yul\":5768:5774   */\n      dup3\n        /* \"#utility.yul\":5762:5775   */\n      mload\n        /* \"#utility.yul\":5784:5837   */\n      tag_233\n        /* \"#utility.yul\":5830:5836   */\n      dup2\n        /* \"#utility.yul\":5825:5828   */\n      dup5\n        /* \"#utility.yul\":5818:5822   */\n      0x20\n        /* \"#utility.yul\":5810:5816   */\n      dup8\n        /* \"#utility.yul\":5806:5823   */\n      add\n        /* \"#utility.yul\":5784:5837   */\n      tag_192\n      jump\t// in\n    tag_233:\n        /* \"#utility.yul\":5853:5869   */\n      swap2\n      swap1\n      swap2\n      add\n      swap3\n        /* \"#utility.yul\":5601:5875   */\n      swap2\n      pop\n      pop\n      jump\t// out\n        /* \"#utility.yul\":5880:6263   */\n    tag_190:\n        /* \"#utility.yul\":6029:6031   */\n      0x20\n        /* \"#utility.yul\":6018:6027   */\n      dup2\n        /* \"#utility.yul\":6011:6032   */\n      mstore\n        /* \"#utility.yul\":5992:5996   */\n      0x00\n        /* \"#utility.yul\":6061:6067   */\n      dup3\n        /* \"#utility.yul\":6055:6068   */\n      mload\n        /* \"#utility.yul\":6104:6110   */\n      dup1\n        /* \"#utility.yul\":6099:6101   */\n      0x20\n        /* \"#utility.yul\":6088:6097   */\n      dup5\n        /* \"#utility.yul\":6084:6102   */\n      add\n        /* \"#utility.yul\":6077:6111   */\n      mstore\n        /* \"#utility.yul\":6120:6186   */\n      tag_235\n        /* \"#utility.yul\":6179:6185   */\n      dup2\n        /* \"#utility.yul\":6174:6176   */\n      0x40\n        /* \"#utility.yul\":6163:6172   */\n      dup6\n        /* \"#utility.yul\":6159:6177   */\n      add\n        /* \"#utility.yul\":6154:6156   */\n      0x20\n        /* \"#utility.yul\":6146:6152   */\n      dup8\n        /* \"#utility.yul\":6142:6157   */\n      add\n        /* \"#utility.yul\":6120:6186   */\n      tag_192\n      jump\t// in\n    tag_235:\n        /* \"#utility.yul\":6247:6249   */\n      0x1f\n        /* \"#utility.yul\":6226:6241   */\n      add\n      not(0x1f)\n        /* \"#utility.yul\":6222:6251   */\n      and\n        /* \"#utility.yul\":6207:6252   */\n      swap2\n      swap1\n      swap2\n      add\n        /* \"#utility.yul\":6254:6256   */\n      0x40\n        /* \"#utility.yul\":6203:6257   */\n      add\n      swap3\n        /* \"#utility.yul\":5880:6263   */\n      swap2\n      pop\n      pop\n      jump\t// out\n\n    auxdata: 0xa2646970667358221220e2cebf1404ea16169806b95b68b29b27734aba7e0c3a40ef9357f8c6af499f6664736f6c634300080f0033\n}\n",
				"bytecode": {
					"linkReferences": {},
					"object": "608060405234801561001057600080fd5b50604051610f06380380610f0683398101604081905261002f91610177565b600480546001600160a01b031916331790556001600160a01b03821661008f5760405162461bcd60e51b815260206004820152601060248201526f4e4f542c53203058204144445245535360801b60448201526064015b60405180910390fd5b6001600160a01b0381166100d85760405162461bcd60e51b815260206004820152601060248201526f4e4f542c53203058204144445245535360801b6044820152606401610086565b806001600160a01b0316826001600160a01b03161461012a5760405162461bcd60e51b815260206004820152600e60248201526d13915151081859dc99595b595b9d60921b6044820152606401610086565b600180546001600160a01b039384166001600160a01b031991821617909155600280549290931691161790556101aa565b80516001600160a01b038116811461017257600080fd5b919050565b6000806040838503121561018a57600080fd5b6101938361015b565b91506101a16020840161015b565b90509250929050565b610d4d806101b96000396000f3fe608060405234801561001057600080fd5b50600436106100b45760003560e01c80638da5cb5b116100715780638da5cb5b1461019a5780639ba7d1ce146101ad578063b6b55f25146101b5578063dab2997b146101c8578063e8221917146101db578063fb5bca7a146101e457600080fd5b80631afaa6e8146100b95780634641257d146100ce578063529aca49146100eb5780636dff132e1461010157806371ca337d1461012c5780638c93ecff14610135575b600080fd5b6100cc6100c7366004610b62565b600055565b005b6100d66101ec565b60405190151581526020015b60405180910390f35b6100f3610359565b6040519081526020016100e2565b600254610114906001600160a01b031681565b6040516001600160a01b0390911681526020016100e2565b6100f360005481565b610172610143366004610b7b565b600560205260009081526040902080546001820154600283015460038401546004909401549293919290919085565b604080519586526020860194909452928401919091526060830152608082015260a0016100e2565b600454610114906001600160a01b031681565b6100f36103ca565b6100d66101c3366004610b62565b610441565b600154610114906001600160a01b031681565b6100f360035481565b6100d6610613565b60008054338252600560205260408220546102609161024791610223916301e133809161021d9160649183916107f1565b9061081d565b33600090815260056020526040902060010154610241904290610835565b906107f1565b336000908152600560205260409020600201549061084e565b3360009081526005602052604081206003019190915561027e6103ca565b3360009081526005602052604090206003015490915081116102bb5760405162461bcd60e51b81526004016102b290610ba4565b60405180910390fd5b336000818152600560205260409020600301546002546102e6926001600160a01b0390911691610869565b336000818152600560209081526040918290206003015491519182527fa9059cbb2ab09eb219583f4a59a5d0623ade346d962bcd4e46b11da047c9049b910160405180910390a2505033600090815260056020526040812060038101829055600281019190915542600490910155600190565b3360009081526005602052604081206004015481906103789042610bf1565b33600090815260056020526040812060028101548254915493945091926103c392916103bd916103b6916301e133809161021d9160649183916107f1565b85906107f1565b9061084e565b9392505050565b6002546040516370a0823160e01b815230600482015260009182916001600160a01b03909116906370a0823190602401602060405180830381865afa158015610417573d6000803e3d6000fd5b505050506040513d601f19601f8201168201806040525081019061043b9190610c08565b92915050565b6001546040516370a0823160e01b815233600482015260009183916001600160a01b03909116906370a0823190602401602060405180830381865afa15801561048e573d6000803e3d6000fd5b505050506040513d601f19601f820116820180604052508101906104b29190610c08565b116104f65760405162461bcd60e51b815260206004820152601460248201527310985b185b98d948125b9cdd59999a58da595b9d60621b60448201526064016102b2565b60015461050e906001600160a01b03163330856108d1565b600080543382526005602052604082205461053c91610223916301e133809161021d916064918391906107f1565b604051848152909150309033907f1fd6ebb971d137acf3f01670862b8a96758cfc7e39dccb093e68daf461b0262c9060200160405180910390a33360009081526005602052604081206002018054839290610598908490610c21565b909155505033600090815260056020526040812080548592906105bc908490610c21565b909155505033600090815260056020526040812042600190910155600380548592906105e9908490610c21565b90915550503360009081526005602052604090206001808201546004909201919091559392505050565b60008054338252600560205260408220546106449161024791610223916301e133809161021d9160649183916107f1565b336000908152600560205260408120600301919091556106626103ca565b3360009081526005602052604090206003015490915081116106965760405162461bcd60e51b81526004016102b290610ba4565b336000818152600560205260409020600301546002546106c1926001600160a01b0390911691610869565b336000818152600560209081526040918290206003015491519182527fa9059cbb2ab09eb219583f4a59a5d0623ade346d962bcd4e46b11da047c9049b910160405180910390a23360009081526005602052604081206003810182905560028101919091555481116107455760405162461bcd60e51b81526004016102b290610ba4565b3360008181526005602052604090205460015461076d926001600160a01b0390911691610869565b336000818152600560209081526040918290205491519182527fa9059cbb2ab09eb219583f4a59a5d0623ade346d962bcd4e46b11da047c9049b910160405180910390a23360009081526005602052604081205460038054919290916107d4908490610bf1565b909155505033600090815260056020526040812055506001919050565b60006107fd8284610c39565b90508215806108145750816108128483610c58565b145b61043b57600080fd5b600080821161082b57600080fd5b6103c38284610c58565b60008282111561084457600080fd5b6103c38284610bf1565b600061085a8284610c21565b90508281101561043b57600080fd5b6040516001600160a01b0383166024820152604481018290526108cc90849063a9059cbb60e01b906064015b60408051601f198184030181529190526020810180516001600160e01b03166001600160e01b03199093169290921790915261090f565b505050565b6040516001600160a01b03808516602483015283166044820152606481018290526109099085906323b872dd60e01b90608401610895565b50505050565b6000610964826040518060400160405280602081526020017f5361666545524332303a206c6f772d6c6576656c2063616c6c206661696c6564815250856001600160a01b03166109e19092919063ffffffff16565b8051909150156108cc57808060200190518101906109829190610c7a565b6108cc5760405162461bcd60e51b815260206004820152602a60248201527f5361666545524332303a204552433230206f7065726174696f6e20646964206e6044820152691bdd081cdd58d8d9595960b21b60648201526084016102b2565b60606109f084846000856109f8565b949350505050565b606082471015610a595760405162461bcd60e51b815260206004820152602660248201527f416464726573733a20696e73756666696369656e742062616c616e636520666f6044820152651c8818d85b1b60d21b60648201526084016102b2565b6001600160a01b0385163b610ab05760405162461bcd60e51b815260206004820152601d60248201527f416464726573733a2063616c6c20746f206e6f6e2d636f6e747261637400000060448201526064016102b2565b600080866001600160a01b03168587604051610acc9190610cc8565b60006040518083038185875af1925050503d8060008114610b09576040519150601f19603f3d011682016040523d82523d6000602084013e610b0e565b606091505b5091509150610b1e828286610b29565b979650505050505050565b60608315610b385750816103c3565b825115610b485782518084602001fd5b8160405162461bcd60e51b81526004016102b29190610ce4565b600060208284031215610b7457600080fd5b5035919050565b600060208284031215610b8d57600080fd5b81356001600160a01b03811681146103c357600080fd5b60208082526018908201527f726577617264746f6b656e20496e73756666696369656e740000000000000000604082015260600190565b634e487b7160e01b600052601160045260246000fd5b600082821015610c0357610c03610bdb565b500390565b600060208284031215610c1a57600080fd5b5051919050565b60008219821115610c3457610c34610bdb565b500190565b6000816000190483118215151615610c5357610c53610bdb565b500290565b600082610c7557634e487b7160e01b600052601260045260246000fd5b500490565b600060208284031215610c8c57600080fd5b815180151581146103c357600080fd5b60005b83811015610cb7578181015183820152602001610c9f565b838111156109095750506000910152565b60008251610cda818460208701610c9c565b9190910192915050565b6020815260008251806020840152610d03816040850160208701610c9c565b601f01601f1916919091016040019291505056fea2646970667358221220e2cebf1404ea16169806b95b68b29b27734aba7e0c3a40ef9357f8c6af499f6664736f6c634300080f0033",
					"opcodes": "PUSH1 0x80 PUSH1 0x40 MSTORE CALLVALUE DUP1 ISZERO PUSH2 0x10 JUMPI PUSH1 0x0 DUP1 REVERT JUMPDEST POP PUSH1 0x40 MLOAD PUSH2 0xF06 CODESIZE SUB DUP1 PUSH2 0xF06 DUP4 CODECOPY DUP2 ADD PUSH1 0x40 DUP2 SWAP1 MSTORE PUSH2 0x2F SWAP2 PUSH2 0x177 JUMP JUMPDEST PUSH1 0x4 DUP1 SLOAD PUSH1 0x1 PUSH1 0x1 PUSH1 0xA0 SHL SUB NOT AND CALLER OR SWAP1 SSTORE PUSH1 0x1 PUSH1 0x1 PUSH1 0xA0 SHL SUB DUP3 AND PUSH2 0x8F JUMPI PUSH1 0x40 MLOAD PUSH3 0x461BCD PUSH1 0xE5 SHL DUP2 MSTORE PUSH1 0x20 PUSH1 0x4 DUP3 ADD MSTORE PUSH1 0x10 PUSH1 0x24 DUP3 ADD MSTORE PUSH16 0x4E4F542C532030582041444452455353 PUSH1 0x80 SHL PUSH1 0x44 DUP3 ADD MSTORE PUSH1 0x64 ADD JUMPDEST PUSH1 0x40 MLOAD DUP1 SWAP2 SUB SWAP1 REVERT JUMPDEST PUSH1 0x1 PUSH1 0x1 PUSH1 0xA0 SHL SUB DUP2 AND PUSH2 0xD8 JUMPI PUSH1 0x40 MLOAD PUSH3 0x461BCD PUSH1 0xE5 SHL DUP2 MSTORE PUSH1 0x20 PUSH1 0x4 DUP3 ADD MSTORE PUSH1 0x10 PUSH1 0x24 DUP3 ADD MSTORE PUSH16 0x4E4F542C532030582041444452455353 PUSH1 0x80 SHL PUSH1 0x44 DUP3 ADD MSTORE PUSH1 0x64 ADD PUSH2 0x86 JUMP JUMPDEST DUP1 PUSH1 0x1 PUSH1 0x1 PUSH1 0xA0 SHL SUB AND DUP3 PUSH1 0x1 PUSH1 0x1 PUSH1 0xA0 SHL SUB AND EQ PUSH2 0x12A JUMPI PUSH1 0x40 MLOAD PUSH3 0x461BCD PUSH1 0xE5 SHL DUP2 MSTORE PUSH1 0x20 PUSH1 0x4 DUP3 ADD MSTORE PUSH1 0xE PUSH1 0x24 DUP3 ADD MSTORE PUSH14 0x13915151081859DC99595B595B9D PUSH1 0x92 SHL PUSH1 0x44 DUP3 ADD MSTORE PUSH1 0x64 ADD PUSH2 0x86 JUMP JUMPDEST PUSH1 0x1 DUP1 SLOAD PUSH1 0x1 PUSH1 0x1 PUSH1 0xA0 SHL SUB SWAP4 DUP5 AND PUSH1 0x1 PUSH1 0x1 PUSH1 0xA0 SHL SUB NOT SWAP2 DUP3 AND OR SWAP1 SWAP2 SSTORE PUSH1 0x2 DUP1 SLOAD SWAP3 SWAP1 SWAP4 AND SWAP2 AND OR SWAP1 SSTORE PUSH2 0x1AA JUMP JUMPDEST DUP1 MLOAD PUSH1 0x1 PUSH1 0x1 PUSH1 0xA0 SHL SUB DUP2 AND DUP2 EQ PUSH2 0x172 JUMPI PUSH1 0x0 DUP1 REVERT JUMPDEST SWAP2 SWAP1 POP JUMP JUMPDEST PUSH1 0x0 DUP1 PUSH1 0x40 DUP4 DUP6 SUB SLT ISZERO PUSH2 0x18A JUMPI PUSH1 0x0 DUP1 REVERT JUMPDEST PUSH2 0x193 DUP4 PUSH2 0x15B JUMP JUMPDEST SWAP2 POP PUSH2 0x1A1 PUSH1 0x20 DUP5 ADD PUSH2 0x15B JUMP JUMPDEST SWAP1 POP SWAP3 POP SWAP3 SWAP1 POP JUMP JUMPDEST PUSH2 0xD4D DUP1 PUSH2 0x1B9 PUSH1 0x0 CODECOPY PUSH1 0x0 RETURN INVALID PUSH1 0x80 PUSH1 0x40 MSTORE CALLVALUE DUP1 ISZERO PUSH2 0x10 JUMPI PUSH1 0x0 DUP1 REVERT JUMPDEST POP PUSH1 0x4 CALLDATASIZE LT PUSH2 0xB4 JUMPI PUSH1 0x0 CALLDATALOAD PUSH1 0xE0 SHR DUP1 PUSH4 0x8DA5CB5B GT PUSH2 0x71 JUMPI DUP1 PUSH4 0x8DA5CB5B EQ PUSH2 0x19A JUMPI DUP1 PUSH4 0x9BA7D1CE EQ PUSH2 0x1AD JUMPI DUP1 PUSH4 0xB6B55F25 EQ PUSH2 0x1B5 JUMPI DUP1 PUSH4 0xDAB2997B EQ PUSH2 0x1C8 JUMPI DUP1 PUSH4 0xE8221917 EQ PUSH2 0x1DB JUMPI DUP1 PUSH4 0xFB5BCA7A EQ PUSH2 0x1E4 JUMPI PUSH1 0x0 DUP1 REVERT JUMPDEST DUP1 PUSH4 0x1AFAA6E8 EQ PUSH2 0xB9 JUMPI DUP1 PUSH4 0x4641257D EQ PUSH2 0xCE JUMPI DUP1 PUSH4 0x529ACA49 EQ PUSH2 0xEB JUMPI DUP1 PUSH4 0x6DFF132E EQ PUSH2 0x101 JUMPI DUP1 PUSH4 0x71CA337D EQ PUSH2 0x12C JUMPI DUP1 PUSH4 0x8C93ECFF EQ PUSH2 0x135 JUMPI JUMPDEST PUSH1 0x0 DUP1 REVERT JUMPDEST PUSH2 0xCC PUSH2 0xC7 CALLDATASIZE PUSH1 0x4 PUSH2 0xB62 JUMP JUMPDEST PUSH1 0x0 SSTORE JUMP JUMPDEST STOP JUMPDEST PUSH2 0xD6 PUSH2 0x1EC JUMP JUMPDEST PUSH1 0x40 MLOAD SWAP1 ISZERO ISZERO DUP2 MSTORE PUSH1 0x20 ADD JUMPDEST PUSH1 0x40 MLOAD DUP1 SWAP2 SUB SWAP1 RETURN JUMPDEST PUSH2 0xF3 PUSH2 0x359 JUMP JUMPDEST PUSH1 0x40 MLOAD SWAP1 DUP2 MSTORE PUSH1 0x20 ADD PUSH2 0xE2 JUMP JUMPDEST PUSH1 0x2 SLOAD PUSH2 0x114 SWAP1 PUSH1 0x1 PUSH1 0x1 PUSH1 0xA0 SHL SUB AND DUP2 JUMP JUMPDEST PUSH1 0x40 MLOAD PUSH1 0x1 PUSH1 0x1 PUSH1 0xA0 SHL SUB SWAP1 SWAP2 AND DUP2 MSTORE PUSH1 0x20 ADD PUSH2 0xE2 JUMP JUMPDEST PUSH2 0xF3 PUSH1 0x0 SLOAD DUP2 JUMP JUMPDEST PUSH2 0x172 PUSH2 0x143 CALLDATASIZE PUSH1 0x4 PUSH2 0xB7B JUMP JUMPDEST PUSH1 0x5 PUSH1 0x20 MSTORE PUSH1 0x0 SWAP1 DUP2 MSTORE PUSH1 0x40 SWAP1 KECCAK256 DUP1 SLOAD PUSH1 0x1 DUP3 ADD SLOAD PUSH1 0x2 DUP4 ADD SLOAD PUSH1 0x3 DUP5 ADD SLOAD PUSH1 0x4 SWAP1 SWAP5 ADD SLOAD SWAP3 SWAP4 SWAP2 SWAP3 SWAP1 SWAP2 SWAP1 DUP6 JUMP JUMPDEST PUSH1 0x40 DUP1 MLOAD SWAP6 DUP7 MSTORE PUSH1 0x20 DUP7 ADD SWAP5 SWAP1 SWAP5 MSTORE SWAP3 DUP5 ADD SWAP2 SWAP1 SWAP2 MSTORE PUSH1 0x60 DUP4 ADD MSTORE PUSH1 0x80 DUP3 ADD MSTORE PUSH1 0xA0 ADD PUSH2 0xE2 JUMP JUMPDEST PUSH1 0x4 SLOAD PUSH2 0x114 SWAP1 PUSH1 0x1 PUSH1 0x1 PUSH1 0xA0 SHL SUB AND DUP2 JUMP JUMPDEST PUSH2 0xF3 PUSH2 0x3CA JUMP JUMPDEST PUSH2 0xD6 PUSH2 0x1C3 CALLDATASIZE PUSH1 0x4 PUSH2 0xB62 JUMP JUMPDEST PUSH2 0x441 JUMP JUMPDEST PUSH1 0x1 SLOAD PUSH2 0x114 SWAP1 PUSH1 0x1 PUSH1 0x1 PUSH1 0xA0 SHL SUB AND DUP2 JUMP JUMPDEST PUSH2 0xF3 PUSH1 0x3 SLOAD DUP2 JUMP JUMPDEST PUSH2 0xD6 PUSH2 0x613 JUMP JUMPDEST PUSH1 0x0 DUP1 SLOAD CALLER DUP3 MSTORE PUSH1 0x5 PUSH1 0x20 MSTORE PUSH1 0x40 DUP3 KECCAK256 SLOAD PUSH2 0x260 SWAP2 PUSH2 0x247 SWAP2 PUSH2 0x223 SWAP2 PUSH4 0x1E13380 SWAP2 PUSH2 0x21D SWAP2 PUSH1 0x64 SWAP2 DUP4 SWAP2 PUSH2 0x7F1 JUMP JUMPDEST SWAP1 PUSH2 0x81D JUMP JUMPDEST CALLER PUSH1 0x0 SWAP1 DUP2 MSTORE PUSH1 0x5 PUSH1 0x20 MSTORE PUSH1 0x40 SWAP1 KECCAK256 PUSH1 0x1 ADD SLOAD PUSH2 0x241 SWAP1 TIMESTAMP SWAP1 PUSH2 0x835 JUMP JUMPDEST SWAP1 PUSH2 0x7F1 JUMP JUMPDEST CALLER PUSH1 0x0 SWAP1 DUP2 MSTORE PUSH1 0x5 PUSH1 0x20 MSTORE PUSH1 0x40 SWAP1 KECCAK256 PUSH1 0x2 ADD SLOAD SWAP1 PUSH2 0x84E JUMP JUMPDEST CALLER PUSH1 0x0 SWAP1 DUP2 MSTORE PUSH1 0x5 PUSH1 0x20 MSTORE PUSH1 0x40 DUP2 KECCAK256 PUSH1 0x3 ADD SWAP2 SWAP1 SWAP2 SSTORE PUSH2 0x27E PUSH2 0x3CA JUMP JUMPDEST CALLER PUSH1 0x0 SWAP1 DUP2 MSTORE PUSH1 0x5 PUSH1 0x20 MSTORE PUSH1 0x40 SWAP1 KECCAK256 PUSH1 0x3 ADD SLOAD SWAP1 SWAP2 POP DUP2 GT PUSH2 0x2BB JUMPI PUSH1 0x40 MLOAD PUSH3 0x461BCD PUSH1 0xE5 SHL DUP2 MSTORE PUSH1 0x4 ADD PUSH2 0x2B2 SWAP1 PUSH2 0xBA4 JUMP JUMPDEST PUSH1 0x40 MLOAD DUP1 SWAP2 SUB SWAP1 REVERT JUMPDEST CALLER PUSH1 0x0 DUP2 DUP2 MSTORE PUSH1 0x5 PUSH1 0x20 MSTORE PUSH1 0x40 SWAP1 KECCAK256 PUSH1 0x3 ADD SLOAD PUSH1 0x2 SLOAD PUSH2 0x2E6 SWAP3 PUSH1 0x1 PUSH1 0x1 PUSH1 0xA0 SHL SUB SWAP1 SWAP2 AND SWAP2 PUSH2 0x869 JUMP JUMPDEST CALLER PUSH1 0x0 DUP2 DUP2 MSTORE PUSH1 0x5 PUSH1 0x20 SWAP1 DUP2 MSTORE PUSH1 0x40 SWAP2 DUP3 SWAP1 KECCAK256 PUSH1 0x3 ADD SLOAD SWAP2 MLOAD SWAP2 DUP3 MSTORE PUSH32 0xA9059CBB2AB09EB219583F4A59A5D0623ADE346D962BCD4E46B11DA047C9049B SWAP2 ADD PUSH1 0x40 MLOAD DUP1 SWAP2 SUB SWAP1 LOG2 POP POP CALLER PUSH1 0x0 SWAP1 DUP2 MSTORE PUSH1 0x5 PUSH1 0x20 MSTORE PUSH1 0x40 DUP2 KECCAK256 PUSH1 0x3 DUP2 ADD DUP3 SWAP1 SSTORE PUSH1 0x2 DUP2 ADD SWAP2 SWAP1 SWAP2 SSTORE TIMESTAMP PUSH1 0x4 SWAP1 SWAP2 ADD SSTORE PUSH1 0x1 SWAP1 JUMP JUMPDEST CALLER PUSH1 0x0 SWAP1 DUP2 MSTORE PUSH1 0x5 PUSH1 0x20 MSTORE PUSH1 0x40 DUP2 KECCAK256 PUSH1 0x4 ADD SLOAD DUP2 SWAP1 PUSH2 0x378 SWAP1 TIMESTAMP PUSH2 0xBF1 JUMP JUMPDEST CALLER PUSH1 0x0 SWAP1 DUP2 MSTORE PUSH1 0x5 PUSH1 0x20 MSTORE PUSH1 0x40 DUP2 KECCAK256 PUSH1 0x2 DUP2 ADD SLOAD DUP3 SLOAD SWAP2 SLOAD SWAP4 SWAP5 POP SWAP2 SWAP3 PUSH2 0x3C3 SWAP3 SWAP2 PUSH2 0x3BD SWAP2 PUSH2 0x3B6 SWAP2 PUSH4 0x1E13380 SWAP2 PUSH2 0x21D SWAP2 PUSH1 0x64 SWAP2 DUP4 SWAP2 PUSH2 0x7F1 JUMP JUMPDEST DUP6 SWAP1 PUSH2 0x7F1 JUMP JUMPDEST SWAP1 PUSH2 0x84E JUMP JUMPDEST SWAP4 SWAP3 POP POP POP JUMP JUMPDEST PUSH1 0x2 SLOAD PUSH1 0x40 MLOAD PUSH4 0x70A08231 PUSH1 0xE0 SHL DUP2 MSTORE ADDRESS PUSH1 0x4 DUP3 ADD MSTORE PUSH1 0x0 SWAP2 DUP3 SWAP2 PUSH1 0x1 PUSH1 0x1 PUSH1 0xA0 SHL SUB SWAP1 SWAP2 AND SWAP1 PUSH4 0x70A08231 SWAP1 PUSH1 0x24 ADD PUSH1 0x20 PUSH1 0x40 MLOAD DUP1 DUP4 SUB DUP2 DUP7 GAS STATICCALL ISZERO DUP1 ISZERO PUSH2 0x417 JUMPI RETURNDATASIZE PUSH1 0x0 DUP1 RETURNDATACOPY RETURNDATASIZE PUSH1 0x0 REVERT JUMPDEST POP POP POP POP PUSH1 0x40 MLOAD RETURNDATASIZE PUSH1 0x1F NOT PUSH1 0x1F DUP3 ADD AND DUP3 ADD DUP1 PUSH1 0x40 MSTORE POP DUP2 ADD SWAP1 PUSH2 0x43B SWAP2 SWAP1 PUSH2 0xC08 JUMP JUMPDEST SWAP3 SWAP2 POP POP JUMP JUMPDEST PUSH1 0x1 SLOAD PUSH1 0x40 MLOAD PUSH4 0x70A08231 PUSH1 0xE0 SHL DUP2 MSTORE CALLER PUSH1 0x4 DUP3 ADD MSTORE PUSH1 0x0 SWAP2 DUP4 SWAP2 PUSH1 0x1 PUSH1 0x1 PUSH1 0xA0 SHL SUB SWAP1 SWAP2 AND SWAP1 PUSH4 0x70A08231 SWAP1 PUSH1 0x24 ADD PUSH1 0x20 PUSH1 0x40 MLOAD DUP1 DUP4 SUB DUP2 DUP7 GAS STATICCALL ISZERO DUP1 ISZERO PUSH2 0x48E JUMPI RETURNDATASIZE PUSH1 0x0 DUP1 RETURNDATACOPY RETURNDATASIZE PUSH1 0x0 REVERT JUMPDEST POP POP POP POP PUSH1 0x40 MLOAD RETURNDATASIZE PUSH1 0x1F NOT PUSH1 0x1F DUP3 ADD AND DUP3 ADD DUP1 PUSH1 0x40 MSTORE POP DUP2 ADD SWAP1 PUSH2 0x4B2 SWAP2 SWAP1 PUSH2 0xC08 JUMP JUMPDEST GT PUSH2 0x4F6 JUMPI PUSH1 0x40 MLOAD PUSH3 0x461BCD PUSH1 0xE5 SHL DUP2 MSTORE PUSH1 0x20 PUSH1 0x4 DUP3 ADD MSTORE PUSH1 0x14 PUSH1 0x24 DUP3 ADD MSTORE PUSH20 0x10985B185B98D948125B9CDD59999A58DA595B9D PUSH1 0x62 SHL PUSH1 0x44 DUP3 ADD MSTORE PUSH1 0x64 ADD PUSH2 0x2B2 JUMP JUMPDEST PUSH1 0x1 SLOAD PUSH2 0x50E SWAP1 PUSH1 0x1 PUSH1 0x1 PUSH1 0xA0 SHL SUB AND CALLER ADDRESS DUP6 PUSH2 0x8D1 JUMP JUMPDEST PUSH1 0x0 DUP1 SLOAD CALLER DUP3 MSTORE PUSH1 0x5 PUSH1 0x20 MSTORE PUSH1 0x40 DUP3 KECCAK256 SLOAD PUSH2 0x53C SWAP2 PUSH2 0x223 SWAP2 PUSH4 0x1E13380 SWAP2 PUSH2 0x21D SWAP2 PUSH1 0x64 SWAP2 DUP4 SWAP2 SWAP1 PUSH2 0x7F1 JUMP JUMPDEST PUSH1 0x40 MLOAD DUP5 DUP2 MSTORE SWAP1 SWAP2 POP ADDRESS SWAP1 CALLER SWAP1 PUSH32 0x1FD6EBB971D137ACF3F01670862B8A96758CFC7E39DCCB093E68DAF461B0262C SWAP1 PUSH1 0x20 ADD PUSH1 0x40 MLOAD DUP1 SWAP2 SUB SWAP1 LOG3 CALLER PUSH1 0x0 SWAP1 DUP2 MSTORE PUSH1 0x5 PUSH1 0x20 MSTORE PUSH1 0x40 DUP2 KECCAK256 PUSH1 0x2 ADD DUP1 SLOAD DUP4 SWAP3 SWAP1 PUSH2 0x598 SWAP1 DUP5 SWAP1 PUSH2 0xC21 JUMP JUMPDEST SWAP1 SWAP2 SSTORE POP POP CALLER PUSH1 0x0 SWAP1 DUP2 MSTORE PUSH1 0x5 PUSH1 0x20 MSTORE PUSH1 0x40 DUP2 KECCAK256 DUP1 SLOAD DUP6 SWAP3 SWAP1 PUSH2 0x5BC SWAP1 DUP5 SWAP1 PUSH2 0xC21 JUMP JUMPDEST SWAP1 SWAP2 SSTORE POP POP CALLER PUSH1 0x0 SWAP1 DUP2 MSTORE PUSH1 0x5 PUSH1 0x20 MSTORE PUSH1 0x40 DUP2 KECCAK256 TIMESTAMP PUSH1 0x1 SWAP1 SWAP2 ADD SSTORE PUSH1 0x3 DUP1 SLOAD DUP6 SWAP3 SWAP1 PUSH2 0x5E9 SWAP1 DUP5 SWAP1 PUSH2 0xC21 JUMP JUMPDEST SWAP1 SWAP2 SSTORE POP POP CALLER PUSH1 0x0 SWAP1 DUP2 MSTORE PUSH1 0x5 PUSH1 0x20 MSTORE PUSH1 0x40 SWAP1 KECCAK256 PUSH1 0x1 DUP1 DUP3 ADD SLOAD PUSH1 0x4 SWAP1 SWAP3 ADD SWAP2 SWAP1 SWAP2 SSTORE SWAP4 SWAP3 POP POP POP JUMP JUMPDEST PUSH1 0x0 DUP1 SLOAD CALLER DUP3 MSTORE PUSH1 0x5 PUSH1 0x20 MSTORE PUSH1 0x40 DUP3 KECCAK256 SLOAD PUSH2 0x644 SWAP2 PUSH2 0x247 SWAP2 PUSH2 0x223 SWAP2 PUSH4 0x1E13380 SWAP2 PUSH2 0x21D SWAP2 PUSH1 0x64 SWAP2 DUP4 SWAP2 PUSH2 0x7F1 JUMP JUMPDEST CALLER PUSH1 0x0 SWAP1 DUP2 MSTORE PUSH1 0x5 PUSH1 0x20 MSTORE PUSH1 0x40 DUP2 KECCAK256 PUSH1 0x3 ADD SWAP2 SWAP1 SWAP2 SSTORE PUSH2 0x662 PUSH2 0x3CA JUMP JUMPDEST CALLER PUSH1 0x0 SWAP1 DUP2 MSTORE PUSH1 0x5 PUSH1 0x20 MSTORE PUSH1 0x40 SWAP1 KECCAK256 PUSH1 0x3 ADD SLOAD SWAP1 SWAP2 POP DUP2 GT PUSH2 0x696 JUMPI PUSH1 0x40 MLOAD PUSH3 0x461BCD PUSH1 0xE5 SHL DUP2 MSTORE PUSH1 0x4 ADD PUSH2 0x2B2 SWAP1 PUSH2 0xBA4 JUMP JUMPDEST CALLER PUSH1 0x0 DUP2 DUP2 MSTORE PUSH1 0x5 PUSH1 0x20 MSTORE PUSH1 0x40 SWAP1 KECCAK256 PUSH1 0x3 ADD SLOAD PUSH1 0x2 SLOAD PUSH2 0x6C1 SWAP3 PUSH1 0x1 PUSH1 0x1 PUSH1 0xA0 SHL SUB SWAP1 SWAP2 AND SWAP2 PUSH2 0x869 JUMP JUMPDEST CALLER PUSH1 0x0 DUP2 DUP2 MSTORE PUSH1 0x5 PUSH1 0x20 SWAP1 DUP2 MSTORE PUSH1 0x40 SWAP2 DUP3 SWAP1 KECCAK256 PUSH1 0x3 ADD SLOAD SWAP2 MLOAD SWAP2 DUP3 MSTORE PUSH32 0xA9059CBB2AB09EB219583F4A59A5D0623ADE346D962BCD4E46B11DA047C9049B SWAP2 ADD PUSH1 0x40 MLOAD DUP1 SWAP2 SUB SWAP1 LOG2 CALLER PUSH1 0x0 SWAP1 DUP2 MSTORE PUSH1 0x5 PUSH1 0x20 MSTORE PUSH1 0x40 DUP2 KECCAK256 PUSH1 0x3 DUP2 ADD DUP3 SWAP1 SSTORE PUSH1 0x2 DUP2 ADD SWAP2 SWAP1 SWAP2 SSTORE SLOAD DUP2 GT PUSH2 0x745 JUMPI PUSH1 0x40 MLOAD PUSH3 0x461BCD PUSH1 0xE5 SHL DUP2 MSTORE PUSH1 0x4 ADD PUSH2 0x2B2 SWAP1 PUSH2 0xBA4 JUMP JUMPDEST CALLER PUSH1 0x0 DUP2 DUP2 MSTORE PUSH1 0x5 PUSH1 0x20 MSTORE PUSH1 0x40 SWAP1 KECCAK256 SLOAD PUSH1 0x1 SLOAD PUSH2 0x76D SWAP3 PUSH1 0x1 PUSH1 0x1 PUSH1 0xA0 SHL SUB SWAP1 SWAP2 AND SWAP2 PUSH2 0x869 JUMP JUMPDEST CALLER PUSH1 0x0 DUP2 DUP2 MSTORE PUSH1 0x5 PUSH1 0x20 SWAP1 DUP2 MSTORE PUSH1 0x40 SWAP2 DUP3 SWAP1 KECCAK256 SLOAD SWAP2 MLOAD SWAP2 DUP3 MSTORE PUSH32 0xA9059CBB2AB09EB219583F4A59A5D0623ADE346D962BCD4E46B11DA047C9049B SWAP2 ADD PUSH1 0x40 MLOAD DUP1 SWAP2 SUB SWAP1 LOG2 CALLER PUSH1 0x0 SWAP1 DUP2 MSTORE PUSH1 0x5 PUSH1 0x20 MSTORE PUSH1 0x40 DUP2 KECCAK256 SLOAD PUSH1 0x3 DUP1 SLOAD SWAP2 SWAP3 SWAP1 SWAP2 PUSH2 0x7D4 SWAP1 DUP5 SWAP1 PUSH2 0xBF1 JUMP JUMPDEST SWAP1 SWAP2 SSTORE POP POP CALLER PUSH1 0x0 SWAP1 DUP2 MSTORE PUSH1 0x5 PUSH1 0x20 MSTORE PUSH1 0x40 DUP2 KECCAK256 SSTORE POP PUSH1 0x1 SWAP2 SWAP1 POP JUMP JUMPDEST PUSH1 0x0 PUSH2 0x7FD DUP3 DUP5 PUSH2 0xC39 JUMP JUMPDEST SWAP1 POP DUP3 ISZERO DUP1 PUSH2 0x814 JUMPI POP DUP2 PUSH2 0x812 DUP5 DUP4 PUSH2 0xC58 JUMP JUMPDEST EQ JUMPDEST PUSH2 0x43B JUMPI PUSH1 0x0 DUP1 REVERT JUMPDEST PUSH1 0x0 DUP1 DUP3 GT PUSH2 0x82B JUMPI PUSH1 0x0 DUP1 REVERT JUMPDEST PUSH2 0x3C3 DUP3 DUP5 PUSH2 0xC58 JUMP JUMPDEST PUSH1 0x0 DUP3 DUP3 GT ISZERO PUSH2 0x844 JUMPI PUSH1 0x0 DUP1 REVERT JUMPDEST PUSH2 0x3C3 DUP3 DUP5 PUSH2 0xBF1 JUMP JUMPDEST PUSH1 0x0 PUSH2 0x85A DUP3 DUP5 PUSH2 0xC21 JUMP JUMPDEST SWAP1 POP DUP3 DUP2 LT ISZERO PUSH2 0x43B JUMPI PUSH1 0x0 DUP1 REVERT JUMPDEST PUSH1 0x40 MLOAD PUSH1 0x1 PUSH1 0x1 PUSH1 0xA0 SHL SUB DUP4 AND PUSH1 0x24 DUP3 ADD MSTORE PUSH1 0x44 DUP2 ADD DUP3 SWAP1 MSTORE PUSH2 0x8CC SWAP1 DUP5 SWAP1 PUSH4 0xA9059CBB PUSH1 0xE0 SHL SWAP1 PUSH1 0x64 ADD JUMPDEST PUSH1 0x40 DUP1 MLOAD PUSH1 0x1F NOT DUP2 DUP5 SUB ADD DUP2 MSTORE SWAP2 SWAP1 MSTORE PUSH1 0x20 DUP2 ADD DUP1 MLOAD PUSH1 0x1 PUSH1 0x1 PUSH1 0xE0 SHL SUB AND PUSH1 0x1 PUSH1 0x1 PUSH1 0xE0 SHL SUB NOT SWAP1 SWAP4 AND SWAP3 SWAP1 SWAP3 OR SWAP1 SWAP2 MSTORE PUSH2 0x90F JUMP JUMPDEST POP POP POP JUMP JUMPDEST PUSH1 0x40 MLOAD PUSH1 0x1 PUSH1 0x1 PUSH1 0xA0 SHL SUB DUP1 DUP6 AND PUSH1 0x24 DUP4 ADD MSTORE DUP4 AND PUSH1 0x44 DUP3 ADD MSTORE PUSH1 0x64 DUP2 ADD DUP3 SWAP1 MSTORE PUSH2 0x909 SWAP1 DUP6 SWAP1 PUSH4 0x23B872DD PUSH1 0xE0 SHL SWAP1 PUSH1 0x84 ADD PUSH2 0x895 JUMP JUMPDEST POP POP POP POP JUMP JUMPDEST PUSH1 0x0 PUSH2 0x964 DUP3 PUSH1 0x40 MLOAD DUP1 PUSH1 0x40 ADD PUSH1 0x40 MSTORE DUP1 PUSH1 0x20 DUP2 MSTORE PUSH1 0x20 ADD PUSH32 0x5361666545524332303A206C6F772D6C6576656C2063616C6C206661696C6564 DUP2 MSTORE POP DUP6 PUSH1 0x1 PUSH1 0x1 PUSH1 0xA0 SHL SUB AND PUSH2 0x9E1 SWAP1 SWAP3 SWAP2 SWAP1 PUSH4 0xFFFFFFFF AND JUMP JUMPDEST DUP1 MLOAD SWAP1 SWAP2 POP ISZERO PUSH2 0x8CC JUMPI DUP1 DUP1 PUSH1 0x20 ADD SWAP1 MLOAD DUP2 ADD SWAP1 PUSH2 0x982 SWAP2 SWAP1 PUSH2 0xC7A JUMP JUMPDEST PUSH2 0x8CC JUMPI PUSH1 0x40 MLOAD PUSH3 0x461BCD PUSH1 0xE5 SHL DUP2 MSTORE PUSH1 0x20 PUSH1 0x4 DUP3 ADD MSTORE PUSH1 0x2A PUSH1 0x24 DUP3 ADD MSTORE PUSH32 0x5361666545524332303A204552433230206F7065726174696F6E20646964206E PUSH1 0x44 DUP3 ADD MSTORE PUSH10 0x1BDD081CDD58D8D95959 PUSH1 0xB2 SHL PUSH1 0x64 DUP3 ADD MSTORE PUSH1 0x84 ADD PUSH2 0x2B2 JUMP JUMPDEST PUSH1 0x60 PUSH2 0x9F0 DUP5 DUP5 PUSH1 0x0 DUP6 PUSH2 0x9F8 JUMP JUMPDEST SWAP5 SWAP4 POP POP POP POP JUMP JUMPDEST PUSH1 0x60 DUP3 SELFBALANCE LT ISZERO PUSH2 0xA59 JUMPI PUSH1 0x40 MLOAD PUSH3 0x461BCD PUSH1 0xE5 SHL DUP2 MSTORE PUSH1 0x20 PUSH1 0x4 DUP3 ADD MSTORE PUSH1 0x26 PUSH1 0x24 DUP3 ADD MSTORE PUSH32 0x416464726573733A20696E73756666696369656E742062616C616E636520666F PUSH1 0x44 DUP3 ADD MSTORE PUSH6 0x1C8818D85B1B PUSH1 0xD2 SHL PUSH1 0x64 DUP3 ADD MSTORE PUSH1 0x84 ADD PUSH2 0x2B2 JUMP JUMPDEST PUSH1 0x1 PUSH1 0x1 PUSH1 0xA0 SHL SUB DUP6 AND EXTCODESIZE PUSH2 0xAB0 JUMPI PUSH1 0x40 MLOAD PUSH3 0x461BCD PUSH1 0xE5 SHL DUP2 MSTORE PUSH1 0x20 PUSH1 0x4 DUP3 ADD MSTORE PUSH1 0x1D PUSH1 0x24 DUP3 ADD MSTORE PUSH32 0x416464726573733A2063616C6C20746F206E6F6E2D636F6E7472616374000000 PUSH1 0x44 DUP3 ADD MSTORE PUSH1 0x64 ADD PUSH2 0x2B2 JUMP JUMPDEST PUSH1 0x0 DUP1 DUP7 PUSH1 0x1 PUSH1 0x1 PUSH1 0xA0 SHL SUB AND DUP6 DUP8 PUSH1 0x40 MLOAD PUSH2 0xACC SWAP2 SWAP1 PUSH2 0xCC8 JUMP JUMPDEST PUSH1 0x0 PUSH1 0x40 MLOAD DUP1 DUP4 SUB DUP2 DUP6 DUP8 GAS CALL SWAP3 POP POP POP RETURNDATASIZE DUP1 PUSH1 0x0 DUP2 EQ PUSH2 0xB09 JUMPI PUSH1 0x40 MLOAD SWAP2 POP PUSH1 0x1F NOT PUSH1 0x3F RETURNDATASIZE ADD AND DUP3 ADD PUSH1 0x40 MSTORE RETURNDATASIZE DUP3 MSTORE RETURNDATASIZE PUSH1 0x0 PUSH1 0x20 DUP5 ADD RETURNDATACOPY PUSH2 0xB0E JUMP JUMPDEST PUSH1 0x60 SWAP2 POP JUMPDEST POP SWAP2 POP SWAP2 POP PUSH2 0xB1E DUP3 DUP3 DUP7 PUSH2 0xB29 JUMP JUMPDEST SWAP8 SWAP7 POP POP POP POP POP POP POP JUMP JUMPDEST PUSH1 0x60 DUP4 ISZERO PUSH2 0xB38 JUMPI POP DUP2 PUSH2 0x3C3 JUMP JUMPDEST DUP3 MLOAD ISZERO PUSH2 0xB48 JUMPI DUP3 MLOAD DUP1 DUP5 PUSH1 0x20 ADD REVERT JUMPDEST DUP2 PUSH1 0x40 MLOAD PUSH3 0x461BCD PUSH1 0xE5 SHL DUP2 MSTORE PUSH1 0x4 ADD PUSH2 0x2B2 SWAP2 SWAP1 PUSH2 0xCE4 JUMP JUMPDEST PUSH1 0x0 PUSH1 0x20 DUP3 DUP5 SUB SLT ISZERO PUSH2 0xB74 JUMPI PUSH1 0x0 DUP1 REVERT JUMPDEST POP CALLDATALOAD SWAP2 SWAP1 POP JUMP JUMPDEST PUSH1 0x0 PUSH1 0x20 DUP3 DUP5 SUB SLT ISZERO PUSH2 0xB8D JUMPI PUSH1 0x0 DUP1 REVERT JUMPDEST DUP2 CALLDATALOAD PUSH1 0x1 PUSH1 0x1 PUSH1 0xA0 SHL SUB DUP2 AND DUP2 EQ PUSH2 0x3C3 JUMPI PUSH1 0x0 DUP1 REVERT JUMPDEST PUSH1 0x20 DUP1 DUP3 MSTORE PUSH1 0x18 SWAP1 DUP3 ADD MSTORE PUSH32 0x726577617264746F6B656E20496E73756666696369656E740000000000000000 PUSH1 0x40 DUP3 ADD MSTORE PUSH1 0x60 ADD SWAP1 JUMP JUMPDEST PUSH4 0x4E487B71 PUSH1 0xE0 SHL PUSH1 0x0 MSTORE PUSH1 0x11 PUSH1 0x4 MSTORE PUSH1 0x24 PUSH1 0x0 REVERT JUMPDEST PUSH1 0x0 DUP3 DUP3 LT ISZERO PUSH2 0xC03 JUMPI PUSH2 0xC03 PUSH2 0xBDB JUMP JUMPDEST POP SUB SWAP1 JUMP JUMPDEST PUSH1 0x0 PUSH1 0x20 DUP3 DUP5 SUB SLT ISZERO PUSH2 0xC1A JUMPI PUSH1 0x0 DUP1 REVERT JUMPDEST POP MLOAD SWAP2 SWAP1 POP JUMP JUMPDEST PUSH1 0x0 DUP3 NOT DUP3 GT ISZERO PUSH2 0xC34 JUMPI PUSH2 0xC34 PUSH2 0xBDB JUMP JUMPDEST POP ADD SWAP1 JUMP JUMPDEST PUSH1 0x0 DUP2 PUSH1 0x0 NOT DIV DUP4 GT DUP3 ISZERO ISZERO AND ISZERO PUSH2 0xC53 JUMPI PUSH2 0xC53 PUSH2 0xBDB JUMP JUMPDEST POP MUL SWAP1 JUMP JUMPDEST PUSH1 0x0 DUP3 PUSH2 0xC75 JUMPI PUSH4 0x4E487B71 PUSH1 0xE0 SHL PUSH1 0x0 MSTORE PUSH1 0x12 PUSH1 0x4 MSTORE PUSH1 0x24 PUSH1 0x0 REVERT JUMPDEST POP DIV SWAP1 JUMP JUMPDEST PUSH1 0x0 PUSH1 0x20 DUP3 DUP5 SUB SLT ISZERO PUSH2 0xC8C JUMPI PUSH1 0x0 DUP1 REVERT JUMPDEST DUP2 MLOAD DUP1 ISZERO ISZERO DUP2 EQ PUSH2 0x3C3 JUMPI PUSH1 0x0 DUP1 REVERT JUMPDEST PUSH1 0x0 JUMPDEST DUP4 DUP2 LT ISZERO PUSH2 0xCB7 JUMPI DUP2 DUP2 ADD MLOAD DUP4 DUP3 ADD MSTORE PUSH1 0x20 ADD PUSH2 0xC9F JUMP JUMPDEST DUP4 DUP2 GT ISZERO PUSH2 0x909 JUMPI POP POP PUSH1 0x0 SWAP2 ADD MSTORE JUMP JUMPDEST PUSH1 0x0 DUP3 MLOAD PUSH2 0xCDA DUP2 DUP5 PUSH1 0x20 DUP8 ADD PUSH2 0xC9C JUMP JUMPDEST SWAP2 SWAP1 SWAP2 ADD SWAP3 SWAP2 POP POP JUMP JUMPDEST PUSH1 0x20 DUP2 MSTORE PUSH1 0x0 DUP3 MLOAD DUP1 PUSH1 0x20 DUP5 ADD MSTORE PUSH2 0xD03 DUP2 PUSH1 0x40 DUP6 ADD PUSH1 0x20 DUP8 ADD PUSH2 0xC9C JUMP JUMPDEST PUSH1 0x1F ADD PUSH1 0x1F NOT AND SWAP2 SWAP1 SWAP2 ADD PUSH1 0x40 ADD SWAP3 SWAP2 POP POP JUMP INVALID LOG2 PUSH5 0x6970667358 0x22 SLT KECCAK256 0xE2 0xCE 0xBF EQ DIV 0xEA AND AND SWAP9 MOD 0xB9 JUMPDEST PUSH9 0xB29B27734ABA7E0C3A BLOCKHASH 0xEF SWAP4 JUMPI 0xF8 0xC6 0xAF 0x49 SWAP16 PUSH7 0x64736F6C634300 ADDMOD 0xF STOP CALLER "
				},
				"gasEstimates": {
					"creation": {
						"codeDepositCost": "681000",
						"executionCost": "infinite",
						"totalCost": "infinite"
					},
					"external": {
						"User_Map(address)": "11139",
						"deposit(uint256)": "infinite",
						"harvest()": "infinite",
						"harvestwithDraw()": "infinite",
						"newTotokenRatio()": "infinite",
						"owner()": "2337",
						"ratio()": "2384",
						"rewardtoken()": "2404",
						"setratio(uint256)": "22313",
						"staketoken()": "2403",
						"staketotal()": "2383",
						"tokennumber()": "infinite"
					}
				},
				"methodIdentifiers": {
					"User_Map(address)": "8c93ecff",
					"deposit(uint256)": "b6b55f25",
					"harvest()": "4641257d",
					"harvestwithDraw()": "fb5bca7a",
					"newTotokenRatio()": "529aca49",
					"owner()": "8da5cb5b",
					"ratio()": "71ca337d",
					"rewardtoken()": "6dff132e",
					"setratio(uint256)": "1afaa6e8",
					"staketoken()": "dab2997b",
					"staketotal()": "e8221917",
					"tokennumber()": "9ba7d1ce"
				}
			},
			"storageLayout": {
				"storage": [
					{
						"astId": 822,
						"contract": "定息矿池-进阶.sol:StakeContract",
						"label": "ratio",
						"offset": 0,
						"slot": "0",
						"type": "t_uint256"
					},
					{
						"astId": 824,
						"contract": "定息矿池-进阶.sol:StakeContract",
						"label": "staketoken",
						"offset": 0,
						"slot": "1",
						"type": "t_address"
					},
					{
						"astId": 826,
						"contract": "定息矿池-进阶.sol:StakeContract",
						"label": "rewardtoken",
						"offset": 0,
						"slot": "2",
						"type": "t_address"
					},
					{
						"astId": 828,
						"contract": "定息矿池-进阶.sol:StakeContract",
						"label": "staketotal",
						"offset": 0,
						"slot": "3",
						"type": "t_uint256"
					},
					{
						"astId": 830,
						"contract": "定息矿池-进阶.sol:StakeContract",
						"label": "owner",
						"offset": 0,
						"slot": "4",
						"type": "t_address"
					},
					{
						"astId": 868,
						"contract": "定息矿池-进阶.sol:StakeContract",
						"label": "User_Map",
						"offset": 0,
						"slot": "5",
						"type": "t_mapping(t_address,t_struct(User)841_storage)"
					}
				],
				"types": {
					"t_address": {
						"encoding": "inplace",
						"label": "address",
						"numberOfBytes": "20"
					},
					"t_mapping(t_address,t_struct(User)841_storage)": {
						"encoding": "mapping",
						"key": "t_address",
						"label": "mapping(address => struct StakeContract.User)",
						"numberOfBytes": "32",
						"value": "t_struct(User)841_storage"
					},
					"t_struct(User)841_storage": {
						"encoding": "inplace",
						"label": "struct StakeContract.User",
						"members": [
							{
								"astId": 832,
								"contract": "定息矿池-进阶.sol:StakeContract",
								"label": "stakeNumber",
								"offset": 0,
								"slot": "0",
								"type": "t_uint256"
							},
							{
								"astId": 834,
								"contract": "定息矿池-进阶.sol:StakeContract",
								"label": "last_Stake_Time",
								"offset": 0,
								"slot": "1",
								"type": "t_uint256"
							},
							{
								"astId": 836,
								"contract": "定息矿池-进阶.sol:StakeContract",
								"label": "last_totoken_ratio",
								"offset": 0,
								"slot": "2",
								"type": "t_uint256"
							},
							{
								"astId": 838,
								"contract": "定息矿池-进阶.sol:StakeContract",
								"label": "whole_ratio",
								"offset": 0,
								"slot": "3",
								"type": "t_uint256"
							},
							{
								"astId": 840,
								"contract": "定息矿池-进阶.sol:StakeContract",
								"label": "last_totoken_Time",
								"offset": 0,
								"slot": "4",
								"type": "t_uint256"
							}
						],
						"numberOfBytes": "160"
					},
					"t_uint256": {
						"encoding": "inplace",
						"label": "uint256",
						"numberOfBytes": "32"
					}
				}
			},
			"userdoc": {
				"kind": "user",
				"methods": {},
				"version": 1
			}
		}
	}
}