{
	"MF2.sol": {
		"Owned": {
			"abi": [
				{
					"inputs": [],
					"stateMutability": "nonpayable",
					"type": "constructor"
				},
				{
					"anonymous": false,
					"inputs": [
						{
							"indexed": true,
							"internalType": "address",
							"name": "_from",
							"type": "address"
						},
						{
							"indexed": true,
							"internalType": "address",
							"name": "_to",
							"type": "address"
						}
					],
					"name": "OwnershipTransferred",
					"type": "event"
				},
				{
					"inputs": [],
					"name": "acceptOwnership",
					"outputs": [],
					"stateMutability": "nonpayable",
					"type": "function"
				},
				{
					"inputs": [],
					"name": "newOwner",
					"outputs": [
						{
							"internalType": "address",
							"name": "",
							"type": "address"
						}
					],
					"stateMutability": "view",
					"type": "function"
				},
				{
					"inputs": [],
					"name": "owner",
					"outputs": [
						{
							"internalType": "address",
							"name": "",
							"type": "address"
						}
					],
					"stateMutability": "view",
					"type": "function"
				},
				{
					"inputs": [
						{
							"internalType": "address",
							"name": "_newOwner",
							"type": "address"
						}
					],
					"name": "transferOwnership",
					"outputs": [],
					"stateMutability": "nonpayable",
					"type": "function"
				}
			],
			"devdoc": {
				"kind": "dev",
				"methods": {},
				"version": 1
			},
			"evm": {
				"assembly": "    /* \"MF2.sol\":2171:2790  contract Owned {\r... */\n  mstore(0x40, 0x80)\n    /* \"MF2.sol\":2331:2389  constructor() public {\r... */\n  callvalue\n  dup1\n  iszero\n  tag_1\n  jumpi\n  0x00\n  dup1\n  revert\ntag_1:\n  pop\n    /* \"MF2.sol\":2363:2368  owner */\n  0x00\n    /* \"MF2.sol\":2363:2381  owner = msg.sender */\n  dup1\n  sload\n  not(sub(shl(0xa0, 0x01), 0x01))\n  and\n    /* \"MF2.sol\":2371:2381  msg.sender */\n  caller\n    /* \"MF2.sol\":2363:2381  owner = msg.sender */\n  or\n  swap1\n  sstore\n    /* \"MF2.sol\":2171:2790  contract Owned {\r... */\n  dataSize(sub_0)\n  dup1\n  dataOffset(sub_0)\n  0x00\n  codecopy\n  0x00\n  return\nstop\n\nsub_0: assembly {\n        /* \"MF2.sol\":2171:2790  contract Owned {\r... */\n      mstore(0x40, 0x80)\n      callvalue\n      dup1\n      iszero\n      tag_1\n      jumpi\n      0x00\n      dup1\n      revert\n    tag_1:\n      pop\n      jumpi(tag_2, lt(calldatasize, 0x04))\n      shr(0xe0, calldataload(0x00))\n      dup1\n      0x79ba5097\n      eq\n      tag_3\n      jumpi\n      dup1\n      0x8da5cb5b\n      eq\n      tag_4\n      jumpi\n      dup1\n      0xd4ee1d90\n      eq\n      tag_5\n      jumpi\n      dup1\n      0xf2fde38b\n      eq\n      tag_6\n      jumpi\n    tag_2:\n      0x00\n      dup1\n      revert\n        /* \"MF2.sol\":2591:2787  function acceptOwnership() public {\r... */\n    tag_3:\n      tag_7\n      tag_8\n      jump\t// in\n    tag_7:\n      stop\n        /* \"MF2.sol\":2193:2213  address public owner */\n    tag_4:\n      tag_9\n      tag_10\n      jump\t// in\n    tag_9:\n      0x40\n      dup1\n      mload\n      sub(shl(0xa0, 0x01), 0x01)\n      swap1\n      swap3\n      and\n      dup3\n      mstore\n      mload\n      swap1\n      dup2\n      swap1\n      sub\n      0x20\n      add\n      swap1\n      return\n        /* \"MF2.sol\":2220:2243  address public newOwner */\n    tag_5:\n      tag_9\n      tag_12\n      jump\t// in\n        /* \"MF2.sol\":2483:2585  function transferOwnership(address _newOwner) public onlyOwner {\r... */\n    tag_6:\n      tag_7\n      0x04\n      dup1\n      calldatasize\n      sub\n      0x20\n      dup2\n      lt\n      iszero\n      tag_14\n      jumpi\n      0x00\n      dup1\n      revert\n    tag_14:\n      pop\n      calldataload\n      sub(shl(0xa0, 0x01), 0x01)\n      and\n      tag_15\n      jump\t// in\n        /* \"MF2.sol\":2591:2787  function acceptOwnership() public {\r... */\n    tag_8:\n        /* \"MF2.sol\":2658:2666  newOwner */\n      and(sub(shl(0xa0, 0x01), 0x01), sload(0x01))\n        /* \"MF2.sol\":2644:2654  msg.sender */\n      caller\n        /* \"MF2.sol\":2644:2666  msg.sender == newOwner */\n      eq\n        /* \"MF2.sol\":2636:2667  require(msg.sender == newOwner) */\n      tag_17\n      jumpi\n      0x00\n      dup1\n      revert\n    tag_17:\n        /* \"MF2.sol\":2711:2719  newOwner */\n      sload(0x01)\n      0x00\n        /* \"MF2.sol\":2704:2709  owner */\n      dup1\n      sload\n        /* \"MF2.sol\":2683:2720  OwnershipTransferred(owner, newOwner) */\n      mload(0x40)\n      sub(shl(0xa0, 0x01), 0x01)\n        /* \"MF2.sol\":2711:2719  newOwner */\n      swap4\n      dup5\n      and\n      swap4\n        /* \"MF2.sol\":2704:2709  owner */\n      swap1\n      swap2\n      and\n      swap2\n        /* \"MF2.sol\":2683:2720  OwnershipTransferred(owner, newOwner) */\n      0x8be0079c531659141344cd1fd0a4f28419497f9722a3daafe3b4186f6b6457e0\n      swap2\n      log3\n        /* \"MF2.sol\":2739:2747  newOwner */\n      0x01\n      dup1\n      sload\n      0x00\n        /* \"MF2.sol\":2731:2747  owner = newOwner */\n      dup1\n      sload\n      not(sub(shl(0xa0, 0x01), 0x01))\n      swap1\n      dup2\n      and\n      sub(shl(0xa0, 0x01), 0x01)\n        /* \"MF2.sol\":2739:2747  newOwner */\n      dup5\n      and\n        /* \"MF2.sol\":2731:2747  owner = newOwner */\n      or\n      swap1\n      swap2\n      sstore\n        /* \"MF2.sol\":2758:2779  newOwner = address(0) */\n      and\n      swap1\n      sstore\n        /* \"MF2.sol\":2591:2787  function acceptOwnership() public {\r... */\n      jump\t// out\n        /* \"MF2.sol\":2193:2213  address public owner */\n    tag_10:\n      and(sub(shl(0xa0, 0x01), 0x01), sload(0x00))\n      dup2\n      jump\t// out\n        /* \"MF2.sol\":2220:2243  address public newOwner */\n    tag_12:\n      and(sub(shl(0xa0, 0x01), 0x01), sload(0x01))\n      dup2\n      jump\t// out\n        /* \"MF2.sol\":2483:2585  function transferOwnership(address _newOwner) public onlyOwner {\r... */\n    tag_15:\n        /* \"MF2.sol\":2449:2454  owner */\n      and(sub(shl(0xa0, 0x01), 0x01), sload(0x00))\n        /* \"MF2.sol\":2435:2445  msg.sender */\n      caller\n        /* \"MF2.sol\":2435:2454  msg.sender == owner */\n      eq\n        /* \"MF2.sol\":2427:2455  require(msg.sender == owner) */\n      tag_19\n      jumpi\n      0x00\n      dup1\n      revert\n    tag_19:\n        /* \"MF2.sol\":2557:2565  newOwner */\n      0x01\n        /* \"MF2.sol\":2557:2577  newOwner = _newOwner */\n      dup1\n      sload\n      not(sub(shl(0xa0, 0x01), 0x01))\n      and\n      sub(shl(0xa0, 0x01), 0x01)\n      swap3\n      swap1\n      swap3\n      and\n      swap2\n      swap1\n      swap2\n      or\n      swap1\n      sstore\n        /* \"MF2.sol\":2483:2585  function transferOwnership(address _newOwner) public onlyOwner {\r... */\n      jump\t// out\n\n    auxdata: 0xa264697066735822122066060e892821de348604f0e950beaa1d8d85cfd3b5b0903dfea0a842a397c5d664736f6c634300060c0033\n}\n",
				"bytecode": {
					"linkReferences": {},
					"object": "608060405234801561001057600080fd5b50600080546001600160a01b031916331790556101b5806100326000396000f3fe608060405234801561001057600080fd5b506004361061004c5760003560e01c806379ba5097146100515780638da5cb5b1461005b578063d4ee1d901461007f578063f2fde38b14610087575b600080fd5b6100596100ad565b005b610063610128565b604080516001600160a01b039092168252519081900360200190f35b610063610137565b6100596004803603602081101561009d57600080fd5b50356001600160a01b0316610146565b6001546001600160a01b031633146100c457600080fd5b600154600080546040516001600160a01b0393841693909116917f8be0079c531659141344cd1fd0a4f28419497f9722a3daafe3b4186f6b6457e091a360018054600080546001600160a01b03199081166001600160a01b03841617909155169055565b6000546001600160a01b031681565b6001546001600160a01b031681565b6000546001600160a01b0316331461015d57600080fd5b600180546001600160a01b0319166001600160a01b039290921691909117905556fea264697066735822122066060e892821de348604f0e950beaa1d8d85cfd3b5b0903dfea0a842a397c5d664736f6c634300060c0033",
					"opcodes": "PUSH1 0x80 PUSH1 0x40 MSTORE CALLVALUE DUP1 ISZERO PUSH2 0x10 JUMPI PUSH1 0x0 DUP1 REVERT JUMPDEST POP PUSH1 0x0 DUP1 SLOAD PUSH1 0x1 PUSH1 0x1 PUSH1 0xA0 SHL SUB NOT AND CALLER OR SWAP1 SSTORE PUSH2 0x1B5 DUP1 PUSH2 0x32 PUSH1 0x0 CODECOPY PUSH1 0x0 RETURN INVALID PUSH1 0x80 PUSH1 0x40 MSTORE CALLVALUE DUP1 ISZERO PUSH2 0x10 JUMPI PUSH1 0x0 DUP1 REVERT JUMPDEST POP PUSH1 0x4 CALLDATASIZE LT PUSH2 0x4C JUMPI PUSH1 0x0 CALLDATALOAD PUSH1 0xE0 SHR DUP1 PUSH4 0x79BA5097 EQ PUSH2 0x51 JUMPI DUP1 PUSH4 0x8DA5CB5B EQ PUSH2 0x5B JUMPI DUP1 PUSH4 0xD4EE1D90 EQ PUSH2 0x7F JUMPI DUP1 PUSH4 0xF2FDE38B EQ PUSH2 0x87 JUMPI JUMPDEST PUSH1 0x0 DUP1 REVERT JUMPDEST PUSH2 0x59 PUSH2 0xAD JUMP JUMPDEST STOP JUMPDEST PUSH2 0x63 PUSH2 0x128 JUMP JUMPDEST PUSH1 0x40 DUP1 MLOAD PUSH1 0x1 PUSH1 0x1 PUSH1 0xA0 SHL SUB SWAP1 SWAP3 AND DUP3 MSTORE MLOAD SWAP1 DUP2 SWAP1 SUB PUSH1 0x20 ADD SWAP1 RETURN JUMPDEST PUSH2 0x63 PUSH2 0x137 JUMP JUMPDEST PUSH2 0x59 PUSH1 0x4 DUP1 CALLDATASIZE SUB PUSH1 0x20 DUP2 LT ISZERO PUSH2 0x9D JUMPI PUSH1 0x0 DUP1 REVERT JUMPDEST POP CALLDATALOAD PUSH1 0x1 PUSH1 0x1 PUSH1 0xA0 SHL SUB AND PUSH2 0x146 JUMP JUMPDEST PUSH1 0x1 SLOAD PUSH1 0x1 PUSH1 0x1 PUSH1 0xA0 SHL SUB AND CALLER EQ PUSH2 0xC4 JUMPI PUSH1 0x0 DUP1 REVERT JUMPDEST PUSH1 0x1 SLOAD PUSH1 0x0 DUP1 SLOAD PUSH1 0x40 MLOAD PUSH1 0x1 PUSH1 0x1 PUSH1 0xA0 SHL SUB SWAP4 DUP5 AND SWAP4 SWAP1 SWAP2 AND SWAP2 PUSH32 0x8BE0079C531659141344CD1FD0A4F28419497F9722A3DAAFE3B4186F6B6457E0 SWAP2 LOG3 PUSH1 0x1 DUP1 SLOAD PUSH1 0x0 DUP1 SLOAD PUSH1 0x1 PUSH1 0x1 PUSH1 0xA0 SHL SUB NOT SWAP1 DUP2 AND PUSH1 0x1 PUSH1 0x1 PUSH1 0xA0 SHL SUB DUP5 AND OR SWAP1 SWAP2 SSTORE AND SWAP1 SSTORE JUMP JUMPDEST PUSH1 0x0 SLOAD PUSH1 0x1 PUSH1 0x1 PUSH1 0xA0 SHL SUB AND DUP2 JUMP JUMPDEST PUSH1 0x1 SLOAD PUSH1 0x1 PUSH1 0x1 PUSH1 0xA0 SHL SUB AND DUP2 JUMP JUMPDEST PUSH1 0x0 SLOAD PUSH1 0x1 PUSH1 0x1 PUSH1 0xA0 SHL SUB AND CALLER EQ PUSH2 0x15D JUMPI PUSH1 0x0 DUP1 REVERT JUMPDEST PUSH1 0x1 DUP1 SLOAD PUSH1 0x1 PUSH1 0x1 PUSH1 0xA0 SHL SUB NOT AND PUSH1 0x1 PUSH1 0x1 PUSH1 0xA0 SHL SUB SWAP3 SWAP1 SWAP3 AND SWAP2 SWAP1 SWAP2 OR SWAP1 SSTORE JUMP INVALID LOG2 PUSH5 0x6970667358 0x22 SLT KECCAK256 PUSH7 0x60E892821DE34 DUP7 DIV CREATE 0xE9 POP 0xBE 0xAA SAR DUP14 DUP6 0xCF 0xD3 0xB5 0xB0 SWAP1 RETURNDATASIZE INVALID LOG0 0xA8 TIMESTAMP LOG3 SWAP8 0xC5 0xD6 PUSH5 0x736F6C6343 STOP MOD 0xC STOP CALLER "
				},
				"gasEstimates": {
					"creation": {
						"codeDepositCost": "87400",
						"executionCost": "20970",
						"totalCost": "108370"
					},
					"external": {
						"acceptOwnership()": "45797",
						"newOwner()": "1059",
						"owner()": "1037",
						"transferOwnership(address)": "21957"
					}
				},
				"methodIdentifiers": {
					"acceptOwnership()": "79ba5097",
					"newOwner()": "d4ee1d90",
					"owner()": "8da5cb5b",
					"transferOwnership(address)": "f2fde38b"
				}
			},
			"storageLayout": {
				"storage": [
					{
						"astId": 177,
						"contract": "MF2.sol:Owned",
						"label": "owner",
						"offset": 0,
						"slot": "0",
						"type": "t_address"
					},
					{
						"astId": 179,
						"contract": "MF2.sol:Owned",
						"label": "newOwner",
						"offset": 0,
						"slot": "1",
						"type": "t_address"
					}
				],
				"types": {
					"t_address": {
						"encoding": "inplace",
						"label": "address",
						"numberOfBytes": "20"
					}
				}
			},
			"userdoc": {
				"kind": "user",
				"methods": {},
				"version": 1
			}
		}
	}
}