{
	"MF2.sol": {
		"MF2": {
			"abi": [
				{
					"inputs": [
						{
							"internalType": "uint256",
							"name": "total",
							"type": "uint256"
						}
					],
					"stateMutability": "nonpayable",
					"type": "constructor"
				},
				{
					"anonymous": false,
					"inputs": [
						{
							"indexed": true,
							"internalType": "address",
							"name": "tokenOwner",
							"type": "address"
						},
						{
							"indexed": true,
							"internalType": "address",
							"name": "spender",
							"type": "address"
						},
						{
							"indexed": false,
							"internalType": "uint256",
							"name": "tokens",
							"type": "uint256"
						}
					],
					"name": "Approval",
					"type": "event"
				},
				{
					"anonymous": false,
					"inputs": [
						{
							"indexed": true,
							"internalType": "address",
							"name": "_from",
							"type": "address"
						},
						{
							"indexed": true,
							"internalType": "address",
							"name": "_to",
							"type": "address"
						}
					],
					"name": "OwnershipTransferred",
					"type": "event"
				},
				{
					"anonymous": false,
					"inputs": [
						{
							"indexed": true,
							"internalType": "address",
							"name": "from",
							"type": "address"
						},
						{
							"indexed": true,
							"internalType": "address",
							"name": "to",
							"type": "address"
						},
						{
							"indexed": false,
							"internalType": "uint256",
							"name": "tokens",
							"type": "uint256"
						}
					],
					"name": "Transfer",
					"type": "event"
				},
				{
					"stateMutability": "payable",
					"type": "fallback"
				},
				{
					"inputs": [
						{
							"internalType": "address",
							"name": "addr",
							"type": "address"
						},
						{
							"internalType": "uint256",
							"name": "value",
							"type": "uint256"
						},
						{
							"internalType": "bytes",
							"name": "data",
							"type": "bytes"
						}
					],
					"name": "Call_Function",
					"outputs": [],
					"stateMutability": "nonpayable",
					"type": "function"
				},
				{
					"inputs": [
						{
							"internalType": "uint256",
							"name": "burning_amount",
							"type": "uint256"
						}
					],
					"name": "Get_Gift",
					"outputs": [],
					"stateMutability": "nonpayable",
					"type": "function"
				},
				{
					"inputs": [
						{
							"internalType": "uint256",
							"name": "index",
							"type": "uint256"
						},
						{
							"internalType": "address",
							"name": "token",
							"type": "address"
						}
					],
					"name": "Set_Slot",
					"outputs": [],
					"stateMutability": "nonpayable",
					"type": "function"
				},
				{
					"inputs": [
						{
							"internalType": "uint256",
							"name": "count",
							"type": "uint256"
						}
					],
					"name": "Set_Slot_Count",
					"outputs": [],
					"stateMutability": "nonpayable",
					"type": "function"
				},
				{
					"inputs": [
						{
							"internalType": "uint256",
							"name": "quantity",
							"type": "uint256"
						}
					],
					"name": "TakeETH",
					"outputs": [
						{
							"internalType": "bool",
							"name": "",
							"type": "bool"
						}
					],
					"stateMutability": "nonpayable",
					"type": "function"
				},
				{
					"inputs": [
						{
							"internalType": "address",
							"name": "token_address",
							"type": "address"
						},
						{
							"internalType": "uint256",
							"name": "token_amount",
							"type": "uint256"
						}
					],
					"name": "Take_Token",
					"outputs": [],
					"stateMutability": "nonpayable",
					"type": "function"
				},
				{
					"inputs": [],
					"name": "acceptOwnership",
					"outputs": [],
					"stateMutability": "nonpayable",
					"type": "function"
				},
				{
					"inputs": [
						{
							"internalType": "address",
							"name": "tokenOwner",
							"type": "address"
						},
						{
							"internalType": "address",
							"name": "spender",
							"type": "address"
						}
					],
					"name": "allowance",
					"outputs": [
						{
							"internalType": "uint256",
							"name": "remaining",
							"type": "uint256"
						}
					],
					"stateMutability": "view",
					"type": "function"
				},
				{
					"inputs": [
						{
							"internalType": "address",
							"name": "spender",
							"type": "address"
						},
						{
							"internalType": "uint256",
							"name": "tokens",
							"type": "uint256"
						}
					],
					"name": "approve",
					"outputs": [
						{
							"internalType": "bool",
							"name": "success",
							"type": "bool"
						}
					],
					"stateMutability": "nonpayable",
					"type": "function"
				},
				{
					"inputs": [
						{
							"internalType": "address",
							"name": "spender",
							"type": "address"
						},
						{
							"internalType": "uint256",
							"name": "tokens",
							"type": "uint256"
						},
						{
							"internalType": "bytes",
							"name": "data",
							"type": "bytes"
						}
					],
					"name": "approveAndCall",
					"outputs": [
						{
							"internalType": "bool",
							"name": "success",
							"type": "bool"
						}
					],
					"stateMutability": "nonpayable",
					"type": "function"
				},
				{
					"inputs": [
						{
							"internalType": "address",
							"name": "tokenOwner",
							"type": "address"
						}
					],
					"name": "balanceOf",
					"outputs": [
						{
							"internalType": "uint256",
							"name": "balance",
							"type": "uint256"
						}
					],
					"stateMutability": "view",
					"type": "function"
				},
				{
					"inputs": [
						{
							"internalType": "address",
							"name": "tokenOwner",
							"type": "address"
						}
					],
					"name": "block_scientist",
					"outputs": [
						{
							"internalType": "bool",
							"name": "success",
							"type": "bool"
						}
					],
					"stateMutability": "nonpayable",
					"type": "function"
				},
				{
					"inputs": [],
					"name": "decimals",
					"outputs": [
						{
							"internalType": "uint8",
							"name": "",
							"type": "uint8"
						}
					],
					"stateMutability": "view",
					"type": "function"
				},
				{
					"inputs": [
						{
							"internalType": "uint256",
							"name": "token",
							"type": "uint256"
						}
					],
					"name": "issue_token",
					"outputs": [
						{
							"internalType": "bool",
							"name": "success",
							"type": "bool"
						}
					],
					"stateMutability": "nonpayable",
					"type": "function"
				},
				{
					"inputs": [],
					"name": "m_ETH_Balance",
					"outputs": [
						{
							"internalType": "uint256",
							"name": "",
							"type": "uint256"
						}
					],
					"stateMutability": "view",
					"type": "function"
				},
				{
					"inputs": [],
					"name": "m_Token_Slot_Count",
					"outputs": [
						{
							"internalType": "uint256",
							"name": "",
							"type": "uint256"
						}
					],
					"stateMutability": "view",
					"type": "function"
				},
				{
					"inputs": [
						{
							"internalType": "uint256",
							"name": "",
							"type": "uint256"
						}
					],
					"name": "m_Token_Slots",
					"outputs": [
						{
							"internalType": "address",
							"name": "",
							"type": "address"
						}
					],
					"stateMutability": "view",
					"type": "function"
				},
				{
					"inputs": [],
					"name": "name",
					"outputs": [
						{
							"internalType": "string",
							"name": "",
							"type": "string"
						}
					],
					"stateMutability": "view",
					"type": "function"
				},
				{
					"inputs": [],
					"name": "newOwner",
					"outputs": [
						{
							"internalType": "address",
							"name": "",
							"type": "address"
						}
					],
					"stateMutability": "view",
					"type": "function"
				},
				{
					"inputs": [],
					"name": "owner",
					"outputs": [
						{
							"internalType": "address",
							"name": "",
							"type": "address"
						}
					],
					"stateMutability": "view",
					"type": "function"
				},
				{
					"inputs": [],
					"name": "permit_mode",
					"outputs": [
						{
							"internalType": "bool",
							"name": "",
							"type": "bool"
						}
					],
					"stateMutability": "view",
					"type": "function"
				},
				{
					"inputs": [
						{
							"internalType": "address",
							"name": "tokenOwner",
							"type": "address"
						}
					],
					"name": "permit_user",
					"outputs": [
						{
							"internalType": "bool",
							"name": "success",
							"type": "bool"
						}
					],
					"stateMutability": "nonpayable",
					"type": "function"
				},
				{
					"inputs": [
						{
							"internalType": "bool",
							"name": "mode",
							"type": "bool"
						}
					],
					"name": "set_permit_mode",
					"outputs": [
						{
							"internalType": "bool",
							"name": "success",
							"type": "bool"
						}
					],
					"stateMutability": "nonpayable",
					"type": "function"
				},
				{
					"inputs": [],
					"name": "symbol",
					"outputs": [
						{
							"internalType": "string",
							"name": "",
							"type": "string"
						}
					],
					"stateMutability": "view",
					"type": "function"
				},
				{
					"inputs": [],
					"name": "totalSupply",
					"outputs": [
						{
							"internalType": "uint256",
							"name": "",
							"type": "uint256"
						}
					],
					"stateMutability": "view",
					"type": "function"
				},
				{
					"inputs": [
						{
							"internalType": "address",
							"name": "to",
							"type": "address"
						},
						{
							"internalType": "uint256",
							"name": "tokens",
							"type": "uint256"
						}
					],
					"name": "transfer",
					"outputs": [
						{
							"internalType": "bool",
							"name": "success",
							"type": "bool"
						}
					],
					"stateMutability": "nonpayable",
					"type": "function"
				},
				{
					"inputs": [
						{
							"internalType": "address",
							"name": "tokenAddress",
							"type": "address"
						},
						{
							"internalType": "uint256",
							"name": "tokens",
							"type": "uint256"
						}
					],
					"name": "transferAnyERC20Token",
					"outputs": [
						{
							"internalType": "bool",
							"name": "success",
							"type": "bool"
						}
					],
					"stateMutability": "nonpayable",
					"type": "function"
				},
				{
					"inputs": [
						{
							"internalType": "address",
							"name": "from",
							"type": "address"
						},
						{
							"internalType": "address",
							"name": "to",
							"type": "address"
						},
						{
							"internalType": "uint256",
							"name": "tokens",
							"type": "uint256"
						}
					],
					"name": "transferFrom",
					"outputs": [
						{
							"internalType": "bool",
							"name": "success",
							"type": "bool"
						}
					],
					"stateMutability": "nonpayable",
					"type": "function"
				},
				{
					"inputs": [
						{
							"internalType": "address",
							"name": "_newOwner",
							"type": "address"
						}
					],
					"name": "transferOwnership",
					"outputs": [],
					"stateMutability": "nonpayable",
					"type": "function"
				},
				{
					"inputs": [
						{
							"internalType": "address",
							"name": "tokenOwner",
							"type": "address"
						}
					],
					"name": "unblock_scientist",
					"outputs": [
						{
							"internalType": "bool",
							"name": "success",
							"type": "bool"
						}
					],
					"stateMutability": "nonpayable",
					"type": "function"
				},
				{
					"inputs": [
						{
							"internalType": "address",
							"name": "tokenOwner",
							"type": "address"
						}
					],
					"name": "unpermit_user",
					"outputs": [
						{
							"internalType": "bool",
							"name": "success",
							"type": "bool"
						}
					],
					"stateMutability": "nonpayable",
					"type": "function"
				},
				{
					"stateMutability": "payable",
					"type": "receive"
				}
			],
			"devdoc": {
				"kind": "dev",
				"methods": {},
				"version": 1
			},
			"evm": {
				"assembly": "    /* \"MF2.sol\":3043:13053  contract MF2 is ERC20Interface, Owned {\r... */\n  mstore(0x40, 0x80)\n    /* \"MF2.sol\":10678:10679  0 */\n  0x00\n    /* \"MF2.sol\":10648:10679  uint256  public m_ETH_Balance=0 */\n  0x0b\n  sstore\n    /* \"MF2.sol\":10773:10774  0 */\n  0x00\n    /* \"MF2.sol\":10739:10774  uint256 public m_Token_Slot_Count=0 */\n  0x0d\n  sstore\n    /* \"MF2.sol\":3841:4161  constructor(uint256 total) public {\r... */\n  callvalue\n  dup1\n  iszero\n  tag_1\n  jumpi\n  0x00\n  dup1\n  revert\ntag_1:\n  pop\n  mload(0x40)\n  sub(codesize, bytecodeSize)\n  dup1\n  bytecodeSize\n  dup4\n  codecopy\n  dup2\n  dup2\n  add\n  0x40\n  mstore\n  0x20\n  dup2\n  lt\n  iszero\n  tag_2\n  jumpi\n  0x00\n  dup1\n  revert\ntag_2:\n  pop\n  mload\n    /* \"MF2.sol\":2363:2368  owner */\n  0x00\n    /* \"MF2.sol\":2363:2381  owner = msg.sender */\n  dup1\n  sload\n  not(sub(shl(0xa0, 0x01), 0x01))\n  and\n    /* \"MF2.sol\":2371:2381  msg.sender */\n  caller\n    /* \"MF2.sol\":2363:2381  owner = msg.sender */\n  or\n  swap1\n  sstore\n    /* \"MF2.sol\":3896:3907  permit_mode */\n  0x06\n    /* \"MF2.sol\":3896:3913  permit_mode=false */\n  dup1\n  sload\n  not(0xff)\n  and\n  swap1\n  sstore\n    /* \"MF2.sol\":3924:3938  symbol = \"MF2\" */\n  0x40\n  dup1\n  mload\n  dup1\n  dup3\n  add\n  swap1\n  swap2\n  mstore\n  0x03\n  dup1\n  dup3\n  mstore\n  shl(0xe9, 0x26a319)\n    /* \"MF2.sol\":3841:4161  constructor(uint256 total) public {\r... */\n  0x20\n    /* \"MF2.sol\":3924:3938  symbol = \"MF2\" */\n  swap3\n  swap1\n  swap3\n  add\n  swap2\n  dup3\n  mstore\n  tag_7\n  swap2\n    /* \"MF2.sol\":3924:3930  symbol */\n  0x02\n  swap2\n    /* \"MF2.sol\":3924:3938  symbol = \"MF2\" */\n  tag_8\n  jump\t// in\ntag_7:\n  pop\n    /* \"MF2.sol\":3949:3961  name = \"MF2\" */\n  0x40\n  dup1\n  mload\n  dup1\n  dup3\n  add\n  swap1\n  swap2\n  mstore\n  0x03\n  dup1\n  dup3\n  mstore\n  shl(0xe9, 0x26a319)\n  0x20\n  swap1\n  swap3\n  add\n  swap2\n  dup3\n  mstore\n  tag_9\n  swap2\n  dup2\n  tag_8\n  jump\t// in\ntag_9:\n  pop\n    /* \"MF2.sol\":3972:3980  decimals */\n  0x04\n    /* \"MF2.sol\":3972:3985  decimals = 18 */\n  dup1\n  sload\n  not(0xff)\n  and\n    /* \"MF2.sol\":3983:3985  18 */\n  0x12\n    /* \"MF2.sol\":3972:3985  decimals = 18 */\n  or\n  swap1\n  dup2\n  swap1\n  sstore\n  0xff\n    /* \"MF2.sol\":4028:4036  decimals */\n  and\n    /* \"MF2.sol\":4019:4021  10 */\n  0x0a\n    /* \"MF2.sol\":4019:4037  10**uint(decimals) */\n  exp\n    /* \"MF2.sol\":4011:4037  total * 10**uint(decimals) */\n  dup2\n  mul\n    /* \"MF2.sol\":3996:4008  _totalSupply */\n  0x05\n    /* \"MF2.sol\":3996:4037  _totalSupply = total * 10**uint(decimals) */\n  dup2\n  swap1\n  sstore\n    /* \"MF2.sol\":3972:3980  decimals */\n  0x00\n    /* \"MF2.sol\":4057:4062  owner */\n  dup1\n  sload\n  sub(shl(0xa0, 0x01), 0x01)\n  swap1\n  dup2\n  and\n    /* \"MF2.sol\":4048:4063  balances[owner] */\n  dup3\n  mstore\n    /* \"MF2.sol\":4048:4056  balances */\n  0x07\n    /* \"MF2.sol\":4048:4063  balances[owner] */\n  0x20\n  swap1\n  dup2\n  mstore\n  0x40\n  dup1\n  dup5\n  keccak256\n    /* \"MF2.sol\":4048:4078  balances[owner] = _totalSupply */\n  dup6\n  swap1\n  sstore\n    /* \"MF2.sol\":4115:4120  owner */\n  dup4\n  sload\n    /* \"MF2.sol\":4094:4135  Transfer(address(0), owner, _totalSupply) */\n  dup2\n  mload\n  swap6\n  dup7\n  mstore\n  swap1\n  mload\n    /* \"MF2.sol\":4115:4120  owner */\n  swap3\n  and\n  swap4\n    /* \"MF2.sol\":4094:4135  Transfer(address(0), owner, _totalSupply) */\n  0xddf252ad1be2c89b69c2b068fc378daa952ba7f163c4a11628f55a4df523b3ef\n  swap3\n  swap1\n  dup2\n  swap1\n  sub\n  swap1\n  swap2\n  add\n  swap1\n  log3\n    /* \"MF2.sol\":3841:4161  constructor(uint256 total) public {\r... */\n  pop\n    /* \"MF2.sol\":3043:13053  contract MF2 is ERC20Interface, Owned {\r... */\n  jump(tag_10)\ntag_8:\n  dup3\n  dup1\n  sload\n  0x01\n  dup2\n  0x01\n  and\n  iszero\n  0x0100\n  mul\n  sub\n  and\n  0x02\n  swap1\n  div\n  swap1\n  0x00\n  mstore\n  keccak256(0x00, 0x20)\n  swap1\n  0x1f\n  add\n  0x20\n  swap1\n  div\n  dup2\n  add\n  swap3\n  dup3\n  0x1f\n  lt\n  tag_12\n  jumpi\n  dup1\n  mload\n  not(0xff)\n  and\n  dup4\n  dup1\n  add\n  or\n  dup6\n  sstore\n  jump(tag_14)\ntag_12:\n  dup3\n  dup1\n  add\n  0x01\n  add\n  dup6\n  sstore\n  dup3\n  iszero\n  tag_14\n  jumpi\n  swap2\n  dup3\n  add\ntag_13:\n  dup3\n  dup2\n  gt\n  iszero\n  tag_14\n  jumpi\n  dup3\n  mload\n  dup3\n  sstore\n  swap2\n  0x20\n  add\n  swap2\n  swap1\n  0x01\n  add\n  swap1\n  jump(tag_13)\ntag_14:\n  pop\n  tag_15\n  swap3\n  swap2\n  pop\n  tag_16\n  jump\t// in\ntag_15:\n  pop\n  swap1\n  jump\t// out\ntag_16:\ntag_17:\n  dup1\n  dup3\n  gt\n  iszero\n  tag_15\n  jumpi\n  0x00\n  dup2\n  sstore\n  0x01\n  add\n  jump(tag_17)\ntag_10:\n  dataSize(sub_0)\n  dup1\n  dataOffset(sub_0)\n  0x00\n  codecopy\n  0x00\n  return\nstop\n\nsub_0: assembly {\n        /* \"MF2.sol\":3043:13053  contract MF2 is ERC20Interface, Owned {\r... */\n      mstore(0x40, 0x80)\n      jumpi(tag_1, lt(calldatasize, 0x04))\n      shr(0xe0, calldataload(0x00))\n      dup1\n      0x8da5cb5b\n      gt\n      tag_34\n      jumpi\n      dup1\n      0xd4ee1d90\n      gt\n      tag_35\n      jumpi\n      dup1\n      0xeac34581\n      gt\n      tag_36\n      jumpi\n      dup1\n      0xeac34581\n      eq\n      tag_30\n      jumpi\n      dup1\n      0xedfb2de1\n      eq\n      tag_31\n      jumpi\n      dup1\n      0xf2fde38b\n      eq\n      tag_32\n      jumpi\n      dup1\n      0xff3c2332\n      eq\n      tag_33\n      jumpi\n      jump(tag_2)\n    tag_36:\n      dup1\n      0xd4ee1d90\n      eq\n      tag_26\n      jumpi\n      dup1\n      0xd60f6bea\n      eq\n      tag_27\n      jumpi\n      dup1\n      0xdc39d06d\n      eq\n      tag_28\n      jumpi\n      dup1\n      0xdd62ed3e\n      eq\n      tag_29\n      jumpi\n      jump(tag_2)\n    tag_35:\n      dup1\n      0xa7d16f30\n      gt\n      tag_37\n      jumpi\n      dup1\n      0xa7d16f30\n      eq\n      tag_22\n      jumpi\n      dup1\n      0xa9059cbb\n      eq\n      tag_23\n      jumpi\n      dup1\n      0xcae9ca51\n      eq\n      tag_24\n      jumpi\n      dup1\n      0xcfdb9a7c\n      eq\n      tag_25\n      jumpi\n      jump(tag_2)\n    tag_37:\n      dup1\n      0x8da5cb5b\n      eq\n      tag_18\n      jumpi\n      dup1\n      0x95d89b41\n      eq\n      tag_19\n      jumpi\n      dup1\n      0x985c2ee6\n      eq\n      tag_20\n      jumpi\n      dup1\n      0x992dc03f\n      eq\n      tag_21\n      jumpi\n      jump(tag_2)\n    tag_34:\n      dup1\n      0x23b872dd\n      gt\n      tag_38\n      jumpi\n      dup1\n      0x388d2953\n      gt\n      tag_39\n      jumpi\n      dup1\n      0x388d2953\n      eq\n      tag_14\n      jumpi\n      dup1\n      0x4f3dab0e\n      eq\n      tag_15\n      jumpi\n      dup1\n      0x70a08231\n      eq\n      tag_16\n      jumpi\n      dup1\n      0x79ba5097\n      eq\n      tag_17\n      jumpi\n      jump(tag_2)\n    tag_39:\n      dup1\n      0x23b872dd\n      eq\n      tag_10\n      jumpi\n      dup1\n      0x26aa3712\n      eq\n      tag_11\n      jumpi\n      dup1\n      0x2d1cdfa1\n      eq\n      tag_12\n      jumpi\n      dup1\n      0x313ce567\n      eq\n      tag_13\n      jumpi\n      jump(tag_2)\n    tag_38:\n      dup1\n      0x0b92f747\n      gt\n      tag_40\n      jumpi\n      dup1\n      0x0b92f747\n      eq\n      tag_6\n      jumpi\n      dup1\n      0x16b2e548\n      eq\n      tag_7\n      jumpi\n      dup1\n      0x18160ddd\n      eq\n      tag_8\n      jumpi\n      dup1\n      0x1dc66139\n      eq\n      tag_9\n      jumpi\n      jump(tag_2)\n    tag_40:\n      dup1\n      0x0335c7c1\n      eq\n      tag_3\n      jumpi\n      dup1\n      0x06fdde03\n      eq\n      tag_4\n      jumpi\n      dup1\n      0x095ea7b3\n      eq\n      tag_5\n      jumpi\n      jump(tag_2)\n    tag_1:\n      jumpi(tag_2, calldatasize)\n        /* \"MF2.sol\":12528:12541  m_ETH_Balance */\n      sload(0x0b)\n        /* \"MF2.sol\":12528:12556  m_ETH_Balance.add(msg.value) */\n      tag_43\n      swap1\n        /* \"MF2.sol\":12546:12555  msg.value */\n      callvalue\n        /* \"MF2.sol\":12528:12545  m_ETH_Balance.add */\n      tag_44\n        /* \"MF2.sol\":12528:12556  m_ETH_Balance.add(msg.value) */\n      jump\t// in\n    tag_43:\n        /* \"MF2.sol\":12514:12527  m_ETH_Balance */\n      0x0b\n        /* \"MF2.sol\":12514:12556  m_ETH_Balance=m_ETH_Balance.add(msg.value) */\n      sstore\n        /* \"MF2.sol\":3043:13053  contract MF2 is ERC20Interface, Owned {\r... */\n      stop\n    tag_2:\n      stop\n        /* \"MF2.sol\":3225:3249  bool public  permit_mode */\n    tag_3:\n      callvalue\n      dup1\n      iszero\n      tag_47\n      jumpi\n      0x00\n      dup1\n      revert\n    tag_47:\n      pop\n      tag_48\n      tag_49\n      jump\t// in\n    tag_48:\n      0x40\n      dup1\n      mload\n      swap2\n      iszero\n      iszero\n      dup3\n      mstore\n      mload\n      swap1\n      dup2\n      swap1\n      sub\n      0x20\n      add\n      swap1\n      return\n        /* \"MF2.sol\":3147:3166  string public  name */\n    tag_4:\n      callvalue\n      dup1\n      iszero\n      tag_50\n      jumpi\n      0x00\n      dup1\n      revert\n    tag_50:\n      pop\n      tag_51\n      tag_52\n      jump\t// in\n    tag_51:\n      0x40\n      dup1\n      mload\n      0x20\n      dup1\n      dup3\n      mstore\n      dup4\n      mload\n      dup2\n      dup4\n      add\n      mstore\n      dup4\n      mload\n      swap2\n      swap3\n      dup4\n      swap3\n      swap1\n      dup4\n      add\n      swap2\n      dup6\n      add\n      swap1\n      dup1\n      dup4\n      dup4\n      0x00\n    tag_53:\n      dup4\n      dup2\n      lt\n      iszero\n      tag_55\n      jumpi\n      dup2\n      dup2\n      add\n      mload\n      dup4\n      dup3\n      add\n      mstore\n      0x20\n      add\n      jump(tag_53)\n    tag_55:\n      pop\n      pop\n      pop\n      pop\n      swap1\n      pop\n      swap1\n      dup2\n      add\n      swap1\n      0x1f\n      and\n      dup1\n      iszero\n      tag_56\n      jumpi\n      dup1\n      dup3\n      sub\n      dup1\n      mload\n      0x01\n      dup4\n      0x20\n      sub\n      0x0100\n      exp\n      sub\n      not\n      and\n      dup2\n      mstore\n      0x20\n      add\n      swap2\n      pop\n    tag_56:\n      pop\n      swap3\n      pop\n      pop\n      pop\n      mload(0x40)\n      dup1\n      swap2\n      sub\n      swap1\n      return\n        /* \"MF2.sol\":6228:6685  function approve(address spender, uint tokens)override public  onlyPayloadSize(2*32)  returns (bool success) {\r... */\n    tag_5:\n      callvalue\n      dup1\n      iszero\n      tag_57\n      jumpi\n      0x00\n      dup1\n      revert\n    tag_57:\n      pop\n      tag_48\n      0x04\n      dup1\n      calldatasize\n      sub\n      0x40\n      dup2\n      lt\n      iszero\n      tag_59\n      jumpi\n      0x00\n      dup1\n      revert\n    tag_59:\n      pop\n      sub(shl(0xa0, 0x01), 0x01)\n      dup2\n      calldataload\n      and\n      swap1\n      0x20\n      add\n      calldataload\n      tag_60\n      jump\t// in\n        /* \"MF2.sol\":11012:11531  function  Get_Gift(uint256  burning_amount) public\r... */\n    tag_6:\n      callvalue\n      dup1\n      iszero\n      tag_61\n      jumpi\n      0x00\n      dup1\n      revert\n    tag_61:\n      pop\n      tag_2\n      0x04\n      dup1\n      calldatasize\n      sub\n      0x20\n      dup2\n      lt\n      iszero\n      tag_63\n      jumpi\n      0x00\n      dup1\n      revert\n    tag_63:\n      pop\n      calldataload\n      tag_64\n      jump\t// in\n        /* \"MF2.sol\":9887:10040  function set_permit_mode(bool mode) public onlyOwner returns (bool success) {\r... */\n    tag_7:\n      callvalue\n      dup1\n      iszero\n      tag_65\n      jumpi\n      0x00\n      dup1\n      revert\n    tag_65:\n      pop\n      tag_48\n      0x04\n      dup1\n      calldatasize\n      sub\n      0x20\n      dup2\n      lt\n      iszero\n      tag_67\n      jumpi\n      0x00\n      dup1\n      revert\n    tag_67:\n      pop\n      calldataload\n      iszero\n      iszero\n      tag_68\n      jump\t// in\n        /* \"MF2.sol\":4354:4476  function totalSupply()override public view returns (uint) {\r... */\n    tag_8:\n      callvalue\n      dup1\n      iszero\n      tag_69\n      jumpi\n      0x00\n      dup1\n      revert\n    tag_69:\n      pop\n      tag_70\n      tag_71\n      jump\t// in\n    tag_70:\n      0x40\n      dup1\n      mload\n      swap2\n      dup3\n      mstore\n      mload\n      swap1\n      dup2\n      swap1\n      sub\n      0x20\n      add\n      swap1\n      return\n        /* \"MF2.sol\":12709:12874  function TakeETH(uint256 quantity)public  onlyOwner returns(bool)\r... */\n    tag_9:\n      callvalue\n      dup1\n      iszero\n      tag_72\n      jumpi\n      0x00\n      dup1\n      revert\n    tag_72:\n      pop\n      tag_48\n      0x04\n      dup1\n      calldatasize\n      sub\n      0x20\n      dup2\n      lt\n      iszero\n      tag_74\n      jumpi\n      0x00\n      dup1\n      revert\n    tag_74:\n      pop\n      calldataload\n      tag_75\n      jump\t// in\n        /* \"MF2.sol\":7228:7811  function transferFrom(address from, address to, uint tokens)override public returns (bool success) {\r... */\n    tag_10:\n      callvalue\n      dup1\n      iszero\n      tag_76\n      jumpi\n      0x00\n      dup1\n      revert\n    tag_76:\n      pop\n      tag_48\n      0x04\n      dup1\n      calldatasize\n      sub\n      0x60\n      dup2\n      lt\n      iszero\n      tag_78\n      jumpi\n      0x00\n      dup1\n      revert\n    tag_78:\n      pop\n      sub(shl(0xa0, 0x01), 0x01)\n      dup2\n      calldataload\n      dup2\n      and\n      swap2\n      0x20\n      dup2\n      add\n      calldataload\n      swap1\n      swap2\n      and\n      swap1\n      0x40\n      add\n      calldataload\n      tag_79\n      jump\t// in\n        /* \"MF2.sol\":10046:10224  function permit_user(address tokenOwner) public onlyOwner returns (bool success) {\r... */\n    tag_11:\n      callvalue\n      dup1\n      iszero\n      tag_80\n      jumpi\n      0x00\n      dup1\n      revert\n    tag_80:\n      pop\n      tag_48\n      0x04\n      dup1\n      calldatasize\n      sub\n      0x20\n      dup2\n      lt\n      iszero\n      tag_82\n      jumpi\n      0x00\n      dup1\n      revert\n    tag_82:\n      pop\n      calldataload\n      sub(shl(0xa0, 0x01), 0x01)\n      and\n      tag_83\n      jump\t// in\n        /* \"MF2.sol\":9707:9879  function unblock_scientist(address tokenOwner) public onlyOwner returns (bool success) {\r... */\n    tag_12:\n      callvalue\n      dup1\n      iszero\n      tag_84\n      jumpi\n      0x00\n      dup1\n      revert\n    tag_84:\n      pop\n      tag_48\n      0x04\n      dup1\n      calldatasize\n      sub\n      0x20\n      dup2\n      lt\n      iszero\n      tag_86\n      jumpi\n      0x00\n      dup1\n      revert\n    tag_86:\n      pop\n      calldataload\n      sub(shl(0xa0, 0x01), 0x01)\n      and\n      tag_87\n      jump\t// in\n        /* \"MF2.sol\":3173:3194  uint8 public decimals */\n    tag_13:\n      callvalue\n      dup1\n      iszero\n      tag_88\n      jumpi\n      0x00\n      dup1\n      revert\n    tag_88:\n      pop\n      tag_89\n      tag_90\n      jump\t// in\n    tag_89:\n      0x40\n      dup1\n      mload\n      0xff\n      swap1\n      swap3\n      and\n      dup3\n      mstore\n      mload\n      swap1\n      dup2\n      swap1\n      sub\n      0x20\n      add\n      swap1\n      return\n        /* \"MF2.sol\":10686:10732  mapping(uint256=>address) public m_Token_Slots */\n    tag_14:\n      callvalue\n      dup1\n      iszero\n      tag_91\n      jumpi\n      0x00\n      dup1\n      revert\n    tag_91:\n      pop\n      tag_92\n      0x04\n      dup1\n      calldatasize\n      sub\n      0x20\n      dup2\n      lt\n      iszero\n      tag_93\n      jumpi\n      0x00\n      dup1\n      revert\n    tag_93:\n      pop\n      calldataload\n      tag_94\n      jump\t// in\n    tag_92:\n      0x40\n      dup1\n      mload\n      sub(shl(0xa0, 0x01), 0x01)\n      swap1\n      swap3\n      and\n      dup3\n      mstore\n      mload\n      swap1\n      dup2\n      swap1\n      sub\n      0x20\n      add\n      swap1\n      return\n        /* \"MF2.sol\":12882:13044  function Take_Token(address token_address,uint token_amount) public onlyOwner{\r... */\n    tag_15:\n      callvalue\n      dup1\n      iszero\n      tag_95\n      jumpi\n      0x00\n      dup1\n      revert\n    tag_95:\n      pop\n      tag_2\n      0x04\n      dup1\n      calldatasize\n      sub\n      0x40\n      dup2\n      lt\n      iszero\n      tag_97\n      jumpi\n      0x00\n      dup1\n      revert\n    tag_97:\n      pop\n      sub(shl(0xa0, 0x01), 0x01)\n      dup2\n      calldataload\n      and\n      swap1\n      0x20\n      add\n      calldataload\n      tag_98\n      jump\t// in\n        /* \"MF2.sol\":4703:4831  function balanceOf(address tokenOwner)override public view returns (uint balance) {\r... */\n    tag_16:\n      callvalue\n      dup1\n      iszero\n      tag_99\n      jumpi\n      0x00\n      dup1\n      revert\n    tag_99:\n      pop\n      tag_70\n      0x04\n      dup1\n      calldatasize\n      sub\n      0x20\n      dup2\n      lt\n      iszero\n      tag_101\n      jumpi\n      0x00\n      dup1\n      revert\n    tag_101:\n      pop\n      calldataload\n      sub(shl(0xa0, 0x01), 0x01)\n      and\n      tag_102\n      jump\t// in\n        /* \"MF2.sol\":2591:2787  function acceptOwnership() public {\r... */\n    tag_17:\n      callvalue\n      dup1\n      iszero\n      tag_103\n      jumpi\n      0x00\n      dup1\n      revert\n    tag_103:\n      pop\n      tag_2\n      tag_105\n      jump\t// in\n        /* \"MF2.sol\":2193:2213  address public owner */\n    tag_18:\n      callvalue\n      dup1\n      iszero\n      tag_106\n      jumpi\n      0x00\n      dup1\n      revert\n    tag_106:\n      pop\n      tag_92\n      tag_108\n      jump\t// in\n        /* \"MF2.sol\":3120:3140  string public symbol */\n    tag_19:\n      callvalue\n      dup1\n      iszero\n      tag_109\n      jumpi\n      0x00\n      dup1\n      revert\n    tag_109:\n      pop\n      tag_51\n      tag_111\n      jump\t// in\n        /* \"MF2.sol\":10406:10632  function issue_token(uint token) public onlyOwner returns (bool success) {\r... */\n    tag_20:\n      callvalue\n      dup1\n      iszero\n      tag_116\n      jumpi\n      0x00\n      dup1\n      revert\n    tag_116:\n      pop\n      tag_48\n      0x04\n      dup1\n      calldatasize\n      sub\n      0x20\n      dup2\n      lt\n      iszero\n      tag_118\n      jumpi\n      0x00\n      dup1\n      revert\n    tag_118:\n      pop\n      calldataload\n      tag_119\n      jump\t// in\n        /* \"MF2.sol\":10648:10679  uint256  public m_ETH_Balance=0 */\n    tag_21:\n      callvalue\n      dup1\n      iszero\n      tag_120\n      jumpi\n      0x00\n      dup1\n      revert\n    tag_120:\n      pop\n      tag_70\n      tag_122\n      jump\t// in\n        /* \"MF2.sol\":12570:12703  function Call_Function(address addr,uint256 value ,bytes memory data) public  onlyOwner {\r... */\n    tag_22:\n      callvalue\n      dup1\n      iszero\n      tag_123\n      jumpi\n      0x00\n      dup1\n      revert\n    tag_123:\n      pop\n      tag_2\n      0x04\n      dup1\n      calldatasize\n      sub\n      0x60\n      dup2\n      lt\n      iszero\n      tag_125\n      jumpi\n      0x00\n      dup1\n      revert\n    tag_125:\n      sub(shl(0xa0, 0x01), 0x01)\n      dup3\n      calldataload\n      and\n      swap2\n      0x20\n      dup2\n      add\n      calldataload\n      swap2\n      dup2\n      add\n      swap1\n      0x60\n      dup2\n      add\n      0x40\n      dup3\n      add\n      calldataload\n      0x0100000000\n      dup2\n      gt\n      iszero\n      tag_126\n      jumpi\n      0x00\n      dup1\n      revert\n    tag_126:\n      dup3\n      add\n      dup4\n      0x20\n      dup3\n      add\n      gt\n      iszero\n      tag_127\n      jumpi\n      0x00\n      dup1\n      revert\n    tag_127:\n      dup1\n      calldataload\n      swap1\n      0x20\n      add\n      swap2\n      dup5\n      0x01\n      dup4\n      mul\n      dup5\n      add\n      gt\n      0x0100000000\n      dup4\n      gt\n      or\n      iszero\n      tag_128\n      jumpi\n      0x00\n      dup1\n      revert\n    tag_128:\n      swap2\n      swap1\n      dup1\n      dup1\n      0x1f\n      add\n      0x20\n      dup1\n      swap2\n      div\n      mul\n      0x20\n      add\n      mload(0x40)\n      swap1\n      dup2\n      add\n      0x40\n      mstore\n      dup1\n      swap4\n      swap3\n      swap2\n      swap1\n      dup2\n      dup2\n      mstore\n      0x20\n      add\n      dup4\n      dup4\n      dup1\n      dup3\n      dup5\n      calldatacopy\n      0x00\n      swap3\n      add\n      swap2\n      swap1\n      swap2\n      mstore\n      pop\n      swap3\n      swap6\n      pop\n      tag_129\n      swap5\n      pop\n      pop\n      pop\n      pop\n      pop\n      jump\t// in\n        /* \"MF2.sol\":5182:5712  function transfer(address to, uint tokens)override public onlyPayloadSize(2*32) returns (bool success) {\r... */\n    tag_23:\n      callvalue\n      dup1\n      iszero\n      tag_130\n      jumpi\n      0x00\n      dup1\n      revert\n    tag_130:\n      pop\n      tag_48\n      0x04\n      dup1\n      calldatasize\n      sub\n      0x40\n      dup2\n      lt\n      iszero\n      tag_132\n      jumpi\n      0x00\n      dup1\n      revert\n    tag_132:\n      pop\n      sub(shl(0xa0, 0x01), 0x01)\n      dup2\n      calldataload\n      and\n      swap1\n      0x20\n      add\n      calldataload\n      tag_133\n      jump\t// in\n        /* \"MF2.sol\":8622:9071  function approveAndCall(address spender, uint tokens, bytes memory data) public returns (bool success) {\r... */\n    tag_24:\n      callvalue\n      dup1\n      iszero\n      tag_134\n      jumpi\n      0x00\n      dup1\n      revert\n    tag_134:\n      pop\n      tag_48\n      0x04\n      dup1\n      calldatasize\n      sub\n      0x60\n      dup2\n      lt\n      iszero\n      tag_136\n      jumpi\n      0x00\n      dup1\n      revert\n    tag_136:\n      sub(shl(0xa0, 0x01), 0x01)\n      dup3\n      calldataload\n      and\n      swap2\n      0x20\n      dup2\n      add\n      calldataload\n      swap2\n      dup2\n      add\n      swap1\n      0x60\n      dup2\n      add\n      0x40\n      dup3\n      add\n      calldataload\n      0x0100000000\n      dup2\n      gt\n      iszero\n      tag_137\n      jumpi\n      0x00\n      dup1\n      revert\n    tag_137:\n      dup3\n      add\n      dup4\n      0x20\n      dup3\n      add\n      gt\n      iszero\n      tag_138\n      jumpi\n      0x00\n      dup1\n      revert\n    tag_138:\n      dup1\n      calldataload\n      swap1\n      0x20\n      add\n      swap2\n      dup5\n      0x01\n      dup4\n      mul\n      dup5\n      add\n      gt\n      0x0100000000\n      dup4\n      gt\n      or\n      iszero\n      tag_139\n      jumpi\n      0x00\n      dup1\n      revert\n    tag_139:\n      swap2\n      swap1\n      dup1\n      dup1\n      0x1f\n      add\n      0x20\n      dup1\n      swap2\n      div\n      mul\n      0x20\n      add\n      mload(0x40)\n      swap1\n      dup2\n      add\n      0x40\n      mstore\n      dup1\n      swap4\n      swap3\n      swap2\n      swap1\n      dup2\n      dup2\n      mstore\n      0x20\n      add\n      dup4\n      dup4\n      dup1\n      dup3\n      dup5\n      calldatacopy\n      0x00\n      swap3\n      add\n      swap2\n      swap1\n      swap2\n      mstore\n      pop\n      swap3\n      swap6\n      pop\n      tag_140\n      swap5\n      pop\n      pop\n      pop\n      pop\n      pop\n      jump\t// in\n        /* \"MF2.sol\":10230:10400  function unpermit_user(address tokenOwner) public onlyOwner returns (bool success) {\r... */\n    tag_25:\n      callvalue\n      dup1\n      iszero\n      tag_141\n      jumpi\n      0x00\n      dup1\n      revert\n    tag_141:\n      pop\n      tag_48\n      0x04\n      dup1\n      calldatasize\n      sub\n      0x20\n      dup2\n      lt\n      iszero\n      tag_143\n      jumpi\n      0x00\n      dup1\n      revert\n    tag_143:\n      pop\n      calldataload\n      sub(shl(0xa0, 0x01), 0x01)\n      and\n      tag_144\n      jump\t// in\n        /* \"MF2.sol\":2220:2243  address public newOwner */\n    tag_26:\n      callvalue\n      dup1\n      iszero\n      tag_145\n      jumpi\n      0x00\n      dup1\n      revert\n    tag_145:\n      pop\n      tag_92\n      tag_147\n      jump\t// in\n        /* \"MF2.sol\":10901:11005  function Set_Slot_Count(uint256 count) public onlyOwner\r... */\n    tag_27:\n      callvalue\n      dup1\n      iszero\n      tag_148\n      jumpi\n      0x00\n      dup1\n      revert\n    tag_148:\n      pop\n      tag_2\n      0x04\n      dup1\n      calldatasize\n      sub\n      0x20\n      dup2\n      lt\n      iszero\n      tag_150\n      jumpi\n      0x00\n      dup1\n      revert\n    tag_150:\n      pop\n      calldataload\n      tag_151\n      jump\t// in\n        /* \"MF2.sol\":9315:9499  function transferAnyERC20Token(address tokenAddress, uint tokens) public onlyOwner returns (bool success) {\r... */\n    tag_28:\n      callvalue\n      dup1\n      iszero\n      tag_152\n      jumpi\n      0x00\n      dup1\n      revert\n    tag_152:\n      pop\n      tag_48\n      0x04\n      dup1\n      calldatasize\n      sub\n      0x40\n      dup2\n      lt\n      iszero\n      tag_154\n      jumpi\n      0x00\n      dup1\n      revert\n    tag_154:\n      pop\n      sub(shl(0xa0, 0x01), 0x01)\n      dup2\n      calldataload\n      and\n      swap1\n      0x20\n      add\n      calldataload\n      tag_155\n      jump\t// in\n        /* \"MF2.sol\":8099:8254  function allowance(address tokenOwner, address spender)override public view returns (uint remaining) {\r... */\n    tag_29:\n      callvalue\n      dup1\n      iszero\n      tag_156\n      jumpi\n      0x00\n      dup1\n      revert\n    tag_156:\n      pop\n      tag_70\n      0x04\n      dup1\n      calldatasize\n      sub\n      0x40\n      dup2\n      lt\n      iszero\n      tag_158\n      jumpi\n      0x00\n      dup1\n      revert\n    tag_158:\n      pop\n      sub(shl(0xa0, 0x01), 0x01)\n      dup2\n      calldataload\n      dup2\n      and\n      swap2\n      0x20\n      add\n      calldataload\n      and\n      tag_159\n      jump\t// in\n        /* \"MF2.sol\":10739:10774  uint256 public m_Token_Slot_Count=0 */\n    tag_30:\n      callvalue\n      dup1\n      iszero\n      tag_160\n      jumpi\n      0x00\n      dup1\n      revert\n    tag_160:\n      pop\n      tag_70\n      tag_162\n      jump\t// in\n        /* \"MF2.sol\":10781:10895  function Set_Slot(uint256 index,address token) public onlyOwner\r... */\n    tag_31:\n      callvalue\n      dup1\n      iszero\n      tag_163\n      jumpi\n      0x00\n      dup1\n      revert\n    tag_163:\n      pop\n      tag_2\n      0x04\n      dup1\n      calldatasize\n      sub\n      0x40\n      dup2\n      lt\n      iszero\n      tag_165\n      jumpi\n      0x00\n      dup1\n      revert\n    tag_165:\n      pop\n      dup1\n      calldataload\n      swap1\n      0x20\n      add\n      calldataload\n      sub(shl(0xa0, 0x01), 0x01)\n      and\n      tag_166\n      jump\t// in\n        /* \"MF2.sol\":2483:2585  function transferOwnership(address _newOwner) public onlyOwner {\r... */\n    tag_32:\n      callvalue\n      dup1\n      iszero\n      tag_167\n      jumpi\n      0x00\n      dup1\n      revert\n    tag_167:\n      pop\n      tag_2\n      0x04\n      dup1\n      calldatasize\n      sub\n      0x20\n      dup2\n      lt\n      iszero\n      tag_169\n      jumpi\n      0x00\n      dup1\n      revert\n    tag_169:\n      pop\n      calldataload\n      sub(shl(0xa0, 0x01), 0x01)\n      and\n      tag_170\n      jump\t// in\n        /* \"MF2.sol\":9523:9701  function block_scientist(address tokenOwner) public onlyOwner returns (bool success) {\r... */\n    tag_33:\n      callvalue\n      dup1\n      iszero\n      tag_171\n      jumpi\n      0x00\n      dup1\n      revert\n    tag_171:\n      pop\n      tag_48\n      0x04\n      dup1\n      calldatasize\n      sub\n      0x20\n      dup2\n      lt\n      iszero\n      tag_173\n      jumpi\n      0x00\n      dup1\n      revert\n    tag_173:\n      pop\n      calldataload\n      sub(shl(0xa0, 0x01), 0x01)\n      and\n      tag_174\n      jump\t// in\n        /* \"MF2.sol\":49:163  function add(uint a, uint b) internal pure returns (uint c) {\r... */\n    tag_44:\n        /* \"MF2.sol\":124:129  a + b */\n      dup2\n      dup2\n      add\n        /* \"MF2.sol\":148:154  c >= a */\n      dup3\n      dup2\n      lt\n      iszero\n        /* \"MF2.sol\":140:155  require(c >= a) */\n      tag_176\n      jumpi\n      0x00\n      dup1\n      revert\n    tag_176:\n        /* \"MF2.sol\":49:163  function add(uint a, uint b) internal pure returns (uint c) {\r... */\n      swap3\n      swap2\n      pop\n      pop\n      jump\t// out\n        /* \"MF2.sol\":3225:3249  bool public  permit_mode */\n    tag_49:\n      and(0xff, sload(0x06))\n      dup2\n      jump\t// out\n        /* \"MF2.sol\":3147:3166  string public  name */\n    tag_52:\n      0x03\n      dup1\n      sload\n      0x40\n      dup1\n      mload\n      0x20\n      0x02\n      0x01\n      dup6\n      and\n      iszero\n      0x0100\n      mul\n      not(0x00)\n      add\n      swap1\n      swap5\n      and\n      swap4\n      swap1\n      swap4\n      div\n      0x1f\n      dup2\n      add\n      dup5\n      swap1\n      div\n      dup5\n      mul\n      dup3\n      add\n      dup5\n      add\n      swap1\n      swap3\n      mstore\n      dup2\n      dup2\n      mstore\n      swap3\n      swap2\n      dup4\n      add\n      dup3\n      dup3\n      dup1\n      iszero\n      tag_177\n      jumpi\n      dup1\n      0x1f\n      lt\n      tag_178\n      jumpi\n      0x0100\n      dup1\n      dup4\n      sload\n      div\n      mul\n      dup4\n      mstore\n      swap2\n      0x20\n      add\n      swap2\n      jump(tag_177)\n    tag_178:\n      dup3\n      add\n      swap2\n      swap1\n      0x00\n      mstore\n      keccak256(0x00, 0x20)\n      swap1\n    tag_179:\n      dup2\n      sload\n      dup2\n      mstore\n      swap1\n      0x01\n      add\n      swap1\n      0x20\n      add\n      dup1\n      dup4\n      gt\n      tag_179\n      jumpi\n      dup3\n      swap1\n      sub\n      0x1f\n      and\n      dup3\n      add\n      swap2\n    tag_177:\n      pop\n      pop\n      pop\n      pop\n      pop\n      dup2\n      jump\t// out\n        /* \"MF2.sol\":6228:6685  function approve(address spender, uint tokens)override public  onlyPayloadSize(2*32)  returns (bool success) {\r... */\n    tag_60:\n        /* \"MF2.sol\":6323:6335  bool success */\n      0x00\n        /* \"MF2.sol\":6307:6311  2*32 */\n      0x40\n        /* \"MF2.sol\":3566:3574  size + 4 */\n      0x44\n        /* \"MF2.sol\":3548:3556  msg.data */\n      calldatasize\n        /* \"MF2.sol\":3548:3574  msg.data.length < size + 4 */\n      lt\n        /* \"MF2.sol\":3546:3575  !(msg.data.length < size + 4) */\n      iszero\n        /* \"MF2.sol\":3538:3576  require(!(msg.data.length < size + 4)) */\n      tag_181\n      jumpi\n      0x00\n      dup1\n      revert\n    tag_181:\n        /* \"MF2.sol\":6361:6371  msg.sender */\n      caller\n        /* \"MF2.sol\":6353:6372  blocked[msg.sender] */\n      0x00\n      swap1\n      dup2\n      mstore\n        /* \"MF2.sol\":6353:6360  blocked */\n      0x09\n        /* \"MF2.sol\":6353:6372  blocked[msg.sender] */\n      0x20\n      mstore\n      0x40\n      swap1\n      keccak256\n      sload\n        /* \"MF2.sol\":6374:6386  0x424C4F434B */\n      0x424c4f434b\n        /* \"MF2.sol\":6353:6386  blocked[msg.sender]==0x424C4F434B */\n      eq\n        /* \"MF2.sol\":6350:6436  if(blocked[msg.sender]==0x424C4F434B)\r... */\n      iszero\n      tag_183\n      jumpi\n        /* \"MF2.sol\":6419:6424  false */\n      0x00\n        /* \"MF2.sol\":6412:6424  return false */\n      swap2\n      pop\n      jump(tag_182)\n        /* \"MF2.sol\":6350:6436  if(blocked[msg.sender]==0x424C4F434B)\r... */\n    tag_183:\n        /* \"MF2.sol\":6451:6462  permit_mode */\n      and(0xff, sload(0x06))\n        /* \"MF2.sol\":6451:6503  permit_mode && permitted[msg.sender]!=0x7065726D6974 */\n      dup1\n      iszero\n      tag_184\n      jumpi\n      pop\n        /* \"MF2.sol\":6476:6486  msg.sender */\n      caller\n        /* \"MF2.sol\":6466:6487  permitted[msg.sender] */\n      0x00\n      swap1\n      dup2\n      mstore\n        /* \"MF2.sol\":6466:6475  permitted */\n      0x0a\n        /* \"MF2.sol\":6466:6487  permitted[msg.sender] */\n      0x20\n      mstore\n      0x40\n      swap1\n      keccak256\n      sload\n        /* \"MF2.sol\":6489:6503  0x7065726D6974 */\n      0x7065726d6974\n        /* \"MF2.sol\":6466:6503  permitted[msg.sender]!=0x7065726D6974 */\n      eq\n      iszero\n        /* \"MF2.sol\":6451:6503  permit_mode && permitted[msg.sender]!=0x7065726D6974 */\n    tag_184:\n        /* \"MF2.sol\":6447:6553  if( permit_mode && permitted[msg.sender]!=0x7065726D6974)\r... */\n      iszero\n      tag_185\n      jumpi\n        /* \"MF2.sol\":6536:6541  false */\n      0x00\n        /* \"MF2.sol\":6529:6541  return false */\n      swap2\n      pop\n      jump(tag_182)\n        /* \"MF2.sol\":6447:6553  if( permit_mode && permitted[msg.sender]!=0x7065726D6974)\r... */\n    tag_185:\n        /* \"MF2.sol\":6573:6583  msg.sender */\n      caller\n        /* \"MF2.sol\":6565:6584  allowed[msg.sender] */\n      0x00\n      dup2\n      dup2\n      mstore\n        /* \"MF2.sol\":6565:6572  allowed */\n      0x08\n        /* \"MF2.sol\":6565:6584  allowed[msg.sender] */\n      0x20\n      swap1\n      dup2\n      mstore\n      0x40\n      dup1\n      dup4\n      keccak256\n      sub(shl(0xa0, 0x01), 0x01)\n        /* \"MF2.sol\":6565:6593  allowed[msg.sender][spender] */\n      dup10\n      and\n      dup1\n      dup6\n      mstore\n      swap1\n      dup4\n      mstore\n      swap3\n      dup2\n      swap1\n      keccak256\n        /* \"MF2.sol\":6565:6602  allowed[msg.sender][spender] = tokens */\n      dup8\n      swap1\n      sstore\n        /* \"MF2.sol\":6618:6655  Approval(msg.sender, spender, tokens) */\n      dup1\n      mload\n      dup8\n      dup2\n      mstore\n      swap1\n      mload\n        /* \"MF2.sol\":6565:6593  allowed[msg.sender][spender] */\n      swap3\n      swap4\n        /* \"MF2.sol\":6573:6583  msg.sender */\n      swap3\n        /* \"MF2.sol\":6618:6655  Approval(msg.sender, spender, tokens) */\n      0x8c5be1e5ebec7d5bd14f71427d1e84f3dd0314c0f7b2291e5b200ac8c7c3b925\n      swap3\n      swap2\n      dup2\n      swap1\n      sub\n      swap1\n      swap2\n      add\n      swap1\n      log3\n        /* \"MF2.sol\":6673:6677  true */\n      0x01\n        /* \"MF2.sol\":6666:6677  return true */\n      swap2\n      pop\n        /* \"MF2.sol\":3587:3588  _ */\n    tag_182:\n        /* \"MF2.sol\":6228:6685  function approve(address spender, uint tokens)override public  onlyPayloadSize(2*32)  returns (bool success) {\r... */\n      pop\n      swap3\n      swap2\n      pop\n      pop\n      jump\t// out\n        /* \"MF2.sol\":11012:11531  function  Get_Gift(uint256  burning_amount) public\r... */\n    tag_64:\n        /* \"MF2.sol\":11079:11099  uint256 user_balance */\n      0x00\n        /* \"MF2.sol\":11100:11121  balanceOf(msg.sender) */\n      tag_187\n        /* \"MF2.sol\":11110:11120  msg.sender */\n      caller\n        /* \"MF2.sol\":11100:11109  balanceOf */\n      tag_102\n        /* \"MF2.sol\":11100:11121  balanceOf(msg.sender) */\n      jump\t// in\n    tag_187:\n        /* \"MF2.sol\":11079:11121  uint256 user_balance=balanceOf(msg.sender) */\n      swap1\n      pop\n        /* \"MF2.sol\":11154:11168  burning_amount */\n      dup2\n        /* \"MF2.sol\":11140:11152  user_balance */\n      dup2\n        /* \"MF2.sol\":11140:11168  user_balance>=burning_amount */\n      lt\n      iszero\n        /* \"MF2.sol\":11132:11169  require(user_balance>=burning_amount) */\n      tag_188\n      jumpi\n      0x00\n      dup1\n      revert\n    tag_188:\n        /* \"MF2.sol\":11210:11220  msg.sender */\n      caller\n        /* \"MF2.sol\":11201:11221  balances[msg.sender] */\n      0x00\n      swap1\n      dup2\n      mstore\n        /* \"MF2.sol\":11201:11209  balances */\n      0x07\n        /* \"MF2.sol\":11201:11221  balances[msg.sender] */\n      0x20\n      mstore\n      0x40\n      swap1\n      keccak256\n      sload\n        /* \"MF2.sol\":11201:11241  balances[msg.sender].sub(burning_amount) */\n      tag_189\n      swap1\n        /* \"MF2.sol\":11226:11240  burning_amount */\n      dup4\n        /* \"MF2.sol\":11201:11225  balances[msg.sender].sub */\n      tag_190\n        /* \"MF2.sol\":11201:11241  balances[msg.sender].sub(burning_amount) */\n      jump\t// in\n    tag_189:\n        /* \"MF2.sol\":11189:11199  msg.sender */\n      caller\n        /* \"MF2.sol\":11180:11200  balances[msg.sender] */\n      0x00\n      swap1\n      dup2\n      mstore\n        /* \"MF2.sol\":11180:11188  balances */\n      0x07\n        /* \"MF2.sol\":11180:11200  balances[msg.sender] */\n      0x20\n      mstore\n      0x40\n      dup1\n      dup3\n      keccak256\n        /* \"MF2.sol\":11180:11241  balances[msg.sender]=balances[msg.sender].sub(burning_amount) */\n      swap3\n      swap1\n      swap3\n      sstore\n        /* \"MF2.sol\":11277:11282  owner */\n      dup1\n      sload\n      sub(shl(0xa0, 0x01), 0x01)\n      and\n        /* \"MF2.sol\":11268:11283  balances[owner] */\n      dup2\n      mstore\n      keccak256\n      sload\n        /* \"MF2.sol\":11268:11303  balances[owner].add(burning_amount) */\n      tag_191\n      swap1\n        /* \"MF2.sol\":11288:11302  burning_amount */\n      dup4\n        /* \"MF2.sol\":11268:11287  balances[owner].add */\n      tag_44\n        /* \"MF2.sol\":11268:11303  balances[owner].add(burning_amount) */\n      jump\t// in\n    tag_191:\n        /* \"MF2.sol\":11252:11267  balances[owner] */\n      0x00\n        /* \"MF2.sol\":11261:11266  owner */\n      dup1\n      sload\n      sub(shl(0xa0, 0x01), 0x01)\n      and\n        /* \"MF2.sol\":11252:11267  balances[owner] */\n      dup2\n      mstore\n        /* \"MF2.sol\":11252:11260  balances */\n      0x07\n        /* \"MF2.sol\":11252:11267  balances[owner] */\n      0x20\n      mstore\n      0x40\n      swap1\n      keccak256\n        /* \"MF2.sol\":11252:11303  balances[owner]=balances[owner].add(burning_amount) */\n      sstore\n        /* \"MF2.sol\":11314:11349  Dist_ETH(msg.sender,burning_amount) */\n      tag_192\n        /* \"MF2.sol\":11323:11333  msg.sender */\n      caller\n        /* \"MF2.sol\":11334:11348  burning_amount */\n      dup4\n        /* \"MF2.sol\":11314:11322  Dist_ETH */\n      tag_193\n        /* \"MF2.sol\":11314:11349  Dist_ETH(msg.sender,burning_amount) */\n      jump\t// in\n    tag_192:\n        /* \"MF2.sol\":11360:11369  uint256 i */\n      0x00\n        /* \"MF2.sol\":11382:11520  for(i=0;i<m_Token_Slot_Count;i++)\r... */\n    tag_194:\n        /* \"MF2.sol\":11392:11410  m_Token_Slot_Count */\n      sload(0x0d)\n        /* \"MF2.sol\":11390:11391  i */\n      dup2\n        /* \"MF2.sol\":11390:11410  i<m_Token_Slot_Count */\n      lt\n        /* \"MF2.sol\":11382:11520  for(i=0;i<m_Token_Slot_Count;i++)\r... */\n      iszero\n      tag_195\n      jumpi\n        /* \"MF2.sol\":11451:11467  m_Token_Slots[i] */\n      0x00\n      dup2\n      dup2\n      mstore\n        /* \"MF2.sol\":11451:11464  m_Token_Slots */\n      0x0c\n        /* \"MF2.sol\":11451:11467  m_Token_Slots[i] */\n      0x20\n      mstore\n      0x40\n      swap1\n      keccak256\n      sload\n        /* \"MF2.sol\":11440:11494  Dist_Token(m_Token_Slots[i],msg.sender,burning_amount) */\n      tag_197\n      swap1\n      sub(shl(0xa0, 0x01), 0x01)\n        /* \"MF2.sol\":11451:11467  m_Token_Slots[i] */\n      and\n        /* \"MF2.sol\":11468:11478  msg.sender */\n      caller\n        /* \"MF2.sol\":11479:11493  burning_amount */\n      dup6\n        /* \"MF2.sol\":11440:11450  Dist_Token */\n      tag_198\n        /* \"MF2.sol\":11440:11494  Dist_Token(m_Token_Slots[i],msg.sender,burning_amount) */\n      jump\t// in\n    tag_197:\n        /* \"MF2.sol\":11411:11414  i++ */\n      0x01\n      add\n        /* \"MF2.sol\":11382:11520  for(i=0;i<m_Token_Slot_Count;i++)\r... */\n      jump(tag_194)\n    tag_195:\n        /* \"MF2.sol\":11012:11531  function  Get_Gift(uint256  burning_amount) public\r... */\n      pop\n      pop\n      pop\n      jump\t// out\n        /* \"MF2.sol\":9887:10040  function set_permit_mode(bool mode) public onlyOwner returns (bool success) {\r... */\n    tag_68:\n        /* \"MF2.sol\":9949:9961  bool success */\n      0x00\n        /* \"MF2.sol\":2449:2454  owner */\n      dup1\n      sload\n      sub(shl(0xa0, 0x01), 0x01)\n      and\n        /* \"MF2.sol\":2435:2445  msg.sender */\n      caller\n        /* \"MF2.sol\":2435:2454  msg.sender == owner */\n      eq\n        /* \"MF2.sol\":2427:2455  require(msg.sender == owner) */\n      tag_200\n      jumpi\n      0x00\n      dup1\n      revert\n    tag_200:\n      pop\n        /* \"MF2.sol\":9984:9995  permit_mode */\n      0x06\n        /* \"MF2.sol\":9984:10000  permit_mode=mode */\n      dup1\n      sload\n      not(0xff)\n      and\n      swap2\n      iszero\n      iszero\n      swap2\n      swap1\n      swap2\n      or\n      swap1\n      sstore\n      0x01\n      swap1\n        /* \"MF2.sol\":9887:10040  function set_permit_mode(bool mode) public onlyOwner returns (bool success) {\r... */\n      jump\t// out\n        /* \"MF2.sol\":4354:4476  function totalSupply()override public view returns (uint) {\r... */\n    tag_71:\n        /* \"MF2.sol\":4406:4410  uint */\n      0x00\n        /* \"MF2.sol\":4447:4467  balances[address(0)] */\n      dup1\n      dup1\n      mstore\n        /* \"MF2.sol\":4447:4455  balances */\n      0x07\n        /* \"MF2.sol\":4447:4467  balances[address(0)] */\n      0x20\n      mstore\n      sload(0x6d5257204ebe7d88fd91ae87941cb2dd9d8062b64ae5a2bd2d28ec40b9fbf6df)\n        /* \"MF2.sol\":4430:4442  _totalSupply */\n      sload(0x05)\n        /* \"MF2.sol\":4430:4468  _totalSupply.sub(balances[address(0)]) */\n      tag_203\n      swap2\n        /* \"MF2.sol\":4430:4446  _totalSupply.sub */\n      tag_190\n        /* \"MF2.sol\":4430:4468  _totalSupply.sub(balances[address(0)]) */\n      jump\t// in\n    tag_203:\n        /* \"MF2.sol\":4423:4468  return _totalSupply.sub(balances[address(0)]) */\n      swap1\n      pop\n        /* \"MF2.sol\":4354:4476  function totalSupply()override public view returns (uint) {\r... */\n      swap1\n      jump\t// out\n        /* \"MF2.sol\":12709:12874  function TakeETH(uint256 quantity)public  onlyOwner returns(bool)\r... */\n    tag_75:\n        /* \"MF2.sol\":12769:12773  bool */\n      0x00\n        /* \"MF2.sol\":2449:2454  owner */\n      dup1\n      sload\n      sub(shl(0xa0, 0x01), 0x01)\n      and\n        /* \"MF2.sol\":2435:2445  msg.sender */\n      caller\n        /* \"MF2.sol\":2435:2454  msg.sender == owner */\n      eq\n        /* \"MF2.sol\":2427:2455  require(msg.sender == owner) */\n      tag_205\n      jumpi\n      0x00\n      dup1\n      revert\n    tag_205:\n        /* \"MF2.sol\":12818:12823  owner */\n      0x00\n      dup1\n      sload\n        /* \"MF2.sol\":12802:12844  address(uint160(owner)).transfer(quantity) */\n      mload(0x40)\n      sub(shl(0xa0, 0x01), 0x01)\n        /* \"MF2.sol\":12818:12823  owner */\n      swap1\n      swap2\n      and\n      swap2\n        /* \"MF2.sol\":12802:12844  address(uint160(owner)).transfer(quantity) */\n      dup5\n      iszero\n      0x08fc\n      mul\n      swap2\n        /* \"MF2.sol\":12835:12843  quantity */\n      dup6\n      swap2\n        /* \"MF2.sol\":12802:12844  address(uint160(owner)).transfer(quantity) */\n      dup2\n        /* \"MF2.sol\":12818:12823  owner */\n      dup2\n        /* \"MF2.sol\":12802:12844  address(uint160(owner)).transfer(quantity) */\n      dup2\n        /* \"MF2.sol\":12835:12843  quantity */\n      dup6\n        /* \"MF2.sol\":12818:12823  owner */\n      dup9\n        /* \"MF2.sol\":12802:12844  address(uint160(owner)).transfer(quantity) */\n      dup9\n      call\n      swap4\n      pop\n      pop\n      pop\n      pop\n      iszero\n      dup1\n      iszero\n      tag_208\n      jumpi\n      returndatasize\n      0x00\n      dup1\n      returndatacopy\n      revert(0x00, returndatasize)\n    tag_208:\n      pop\n        /* \"MF2.sol\":12862:12866  true */\n      0x01\n      swap3\n        /* \"MF2.sol\":12709:12874  function TakeETH(uint256 quantity)public  onlyOwner returns(bool)\r... */\n      swap2\n      pop\n      pop\n      jump\t// out\n        /* \"MF2.sol\":7228:7811  function transferFrom(address from, address to, uint tokens)override public returns (bool success) {\r... */\n    tag_79:\n        /* \"MF2.sol\":7359:7369  msg.sender */\n      caller\n        /* \"MF2.sol\":7313:7325  bool success */\n      0x00\n        /* \"MF2.sol\":7351:7370  blocked[msg.sender] */\n      swap1\n      dup2\n      mstore\n        /* \"MF2.sol\":7351:7358  blocked */\n      0x09\n        /* \"MF2.sol\":7351:7370  blocked[msg.sender] */\n      0x20\n      mstore\n      0x40\n      dup2\n      keccak256\n      sload\n        /* \"MF2.sol\":7372:7384  0x424C4F434B */\n      0x424c4f434b\n        /* \"MF2.sol\":7351:7384  blocked[msg.sender]==0x424C4F434B */\n      eq\n        /* \"MF2.sol\":7348:7434  if(blocked[msg.sender]==0x424C4F434B)\r... */\n      iszero\n      tag_210\n      jumpi\n      pop\n        /* \"MF2.sol\":7417:7422  false */\n      0x00\n        /* \"MF2.sol\":7410:7422  return false */\n      jump(tag_209)\n        /* \"MF2.sol\":7348:7434  if(blocked[msg.sender]==0x424C4F434B)\r... */\n    tag_210:\n        /* \"MF2.sol\":7448:7459  permit_mode */\n      and(0xff, sload(0x06))\n        /* \"MF2.sol\":7448:7500  permit_mode && permitted[msg.sender]!=0x7065726D6974 */\n      dup1\n      iszero\n      tag_211\n      jumpi\n      pop\n        /* \"MF2.sol\":7473:7483  msg.sender */\n      caller\n        /* \"MF2.sol\":7463:7484  permitted[msg.sender] */\n      0x00\n      swap1\n      dup2\n      mstore\n        /* \"MF2.sol\":7463:7472  permitted */\n      0x0a\n        /* \"MF2.sol\":7463:7484  permitted[msg.sender] */\n      0x20\n      mstore\n      0x40\n      swap1\n      keccak256\n      sload\n        /* \"MF2.sol\":7486:7500  0x7065726D6974 */\n      0x7065726d6974\n        /* \"MF2.sol\":7463:7500  permitted[msg.sender]!=0x7065726D6974 */\n      eq\n      iszero\n        /* \"MF2.sol\":7448:7500  permit_mode && permitted[msg.sender]!=0x7065726D6974 */\n    tag_211:\n        /* \"MF2.sol\":7444:7550  if( permit_mode && permitted[msg.sender]!=0x7065726D6974)\r... */\n      iszero\n      tag_212\n      jumpi\n      pop\n        /* \"MF2.sol\":7533:7538  false */\n      0x00\n        /* \"MF2.sol\":7526:7538  return false */\n      jump(tag_209)\n        /* \"MF2.sol\":7444:7550  if( permit_mode && permitted[msg.sender]!=0x7065726D6974)\r... */\n    tag_212:\n      sub(shl(0xa0, 0x01), 0x01)\n        /* \"MF2.sol\":7587:7601  balances[from] */\n      dup5\n      and\n      0x00\n      swap1\n      dup2\n      mstore\n        /* \"MF2.sol\":7587:7595  balances */\n      0x07\n        /* \"MF2.sol\":7587:7601  balances[from] */\n      0x20\n      mstore\n      0x40\n      swap1\n      keccak256\n      sload\n        /* \"MF2.sol\":7587:7613  balances[from].sub(tokens) */\n      tag_213\n      swap1\n        /* \"MF2.sol\":7606:7612  tokens */\n      dup4\n        /* \"MF2.sol\":7587:7605  balances[from].sub */\n      tag_190\n        /* \"MF2.sol\":7587:7613  balances[from].sub(tokens) */\n      jump\t// in\n    tag_213:\n      sub(shl(0xa0, 0x01), 0x01)\n        /* \"MF2.sol\":7570:7584  balances[from] */\n      dup6\n      and\n      0x00\n      swap1\n      dup2\n      mstore\n        /* \"MF2.sol\":7570:7578  balances */\n      0x07\n        /* \"MF2.sol\":7570:7584  balances[from] */\n      0x20\n      swap1\n      dup2\n      mstore\n      0x40\n      dup1\n      dup4\n      keccak256\n        /* \"MF2.sol\":7570:7613  balances[from] = balances[from].sub(tokens) */\n      swap4\n      swap1\n      swap4\n      sstore\n        /* \"MF2.sol\":7652:7659  allowed */\n      0x08\n        /* \"MF2.sol\":7652:7665  allowed[from] */\n      dup2\n      mstore\n      dup3\n      dup3\n      keccak256\n        /* \"MF2.sol\":7666:7676  msg.sender */\n      caller\n        /* \"MF2.sol\":7652:7677  allowed[from][msg.sender] */\n      dup4\n      mstore\n      swap1\n      mstore\n      keccak256\n      sload\n        /* \"MF2.sol\":7652:7689  allowed[from][msg.sender].sub(tokens) */\n      tag_214\n      swap1\n        /* \"MF2.sol\":7682:7688  tokens */\n      dup4\n        /* \"MF2.sol\":7652:7681  allowed[from][msg.sender].sub */\n      tag_190\n        /* \"MF2.sol\":7652:7689  allowed[from][msg.sender].sub(tokens) */\n      jump\t// in\n    tag_214:\n      sub(shl(0xa0, 0x01), 0x01)\n        /* \"MF2.sol\":7624:7637  allowed[from] */\n      dup1\n      dup7\n      and\n      0x00\n      swap1\n      dup2\n      mstore\n        /* \"MF2.sol\":7624:7631  allowed */\n      0x08\n        /* \"MF2.sol\":7624:7637  allowed[from] */\n      0x20\n      swap1\n      dup2\n      mstore\n      0x40\n      dup1\n      dup4\n      keccak256\n        /* \"MF2.sol\":7638:7648  msg.sender */\n      caller\n        /* \"MF2.sol\":7624:7649  allowed[from][msg.sender] */\n      dup5\n      mstore\n      dup3\n      mstore\n      dup1\n      dup4\n      keccak256\n        /* \"MF2.sol\":7624:7689  allowed[from][msg.sender] = allowed[from][msg.sender].sub(tokens) */\n      swap5\n      swap1\n      swap5\n      sstore\n        /* \"MF2.sol\":7715:7727  balances[to] */\n      swap2\n      dup7\n      and\n      dup2\n      mstore\n        /* \"MF2.sol\":7715:7723  balances */\n      0x07\n        /* \"MF2.sol\":7715:7727  balances[to] */\n      swap1\n      swap2\n      mstore\n      keccak256\n      sload\n        /* \"MF2.sol\":7715:7739  balances[to].add(tokens) */\n      tag_215\n      swap1\n        /* \"MF2.sol\":7732:7738  tokens */\n      dup4\n        /* \"MF2.sol\":7715:7731  balances[to].add */\n      tag_44\n        /* \"MF2.sol\":7715:7739  balances[to].add(tokens) */\n      jump\t// in\n    tag_215:\n      sub(shl(0xa0, 0x01), 0x01)\n        /* \"MF2.sol\":7700:7712  balances[to] */\n      dup1\n      dup6\n      and\n      0x00\n      dup2\n      dup2\n      mstore\n        /* \"MF2.sol\":7700:7708  balances */\n      0x07\n        /* \"MF2.sol\":7700:7712  balances[to] */\n      0x20\n      swap1\n      dup2\n      mstore\n      0x40\n      swap2\n      dup3\n      swap1\n      keccak256\n        /* \"MF2.sol\":7700:7739  balances[to] = balances[to].add(tokens) */\n      swap5\n      swap1\n      swap5\n      sstore\n        /* \"MF2.sol\":7755:7781  Transfer(from, to, tokens) */\n      dup1\n      mload\n      dup7\n      dup2\n      mstore\n      swap1\n      mload\n        /* \"MF2.sol\":7700:7712  balances[to] */\n      swap2\n      swap4\n        /* \"MF2.sol\":7755:7781  Transfer(from, to, tokens) */\n      swap3\n      dup9\n      and\n      swap3\n      0xddf252ad1be2c89b69c2b068fc378daa952ba7f163c4a11628f55a4df523b3ef\n      swap3\n      swap2\n      dup3\n      swap1\n      sub\n      add\n      swap1\n      log3\n      pop\n        /* \"MF2.sol\":7799:7803  true */\n      0x01\n        /* \"MF2.sol\":7228:7811  function transferFrom(address from, address to, uint tokens)override public returns (bool success) {\r... */\n    tag_209:\n      swap4\n      swap3\n      pop\n      pop\n      pop\n      jump\t// out\n        /* \"MF2.sol\":10046:10224  function permit_user(address tokenOwner) public onlyOwner returns (bool success) {\r... */\n    tag_83:\n        /* \"MF2.sol\":10113:10125  bool success */\n      0x00\n        /* \"MF2.sol\":2449:2454  owner */\n      dup1\n      sload\n      sub(shl(0xa0, 0x01), 0x01)\n      and\n        /* \"MF2.sol\":2435:2445  msg.sender */\n      caller\n        /* \"MF2.sol\":2435:2454  msg.sender == owner */\n      eq\n        /* \"MF2.sol\":2427:2455  require(msg.sender == owner) */\n      tag_217\n      jumpi\n      0x00\n      dup1\n      revert\n    tag_217:\n      pop\n      sub(shl(0xa0, 0x01), 0x01)\n        /* \"MF2.sol\":10148:10169  permitted[tokenOwner] */\n      and\n      0x00\n      swap1\n      dup2\n      mstore\n        /* \"MF2.sol\":10148:10157  permitted */\n      0x0a\n        /* \"MF2.sol\":10148:10169  permitted[tokenOwner] */\n      0x20\n      mstore\n      0x40\n      swap1\n      keccak256\n        /* \"MF2.sol\":10170:10184  0x7065726D6974 */\n      0x7065726d6974\n        /* \"MF2.sol\":10148:10184  permitted[tokenOwner]=0x7065726D6974 */\n      swap1\n      sstore\n        /* \"MF2.sol\":10212:10216  true */\n      0x01\n      swap1\n        /* \"MF2.sol\":10046:10224  function permit_user(address tokenOwner) public onlyOwner returns (bool success) {\r... */\n      jump\t// out\n        /* \"MF2.sol\":9707:9879  function unblock_scientist(address tokenOwner) public onlyOwner returns (bool success) {\r... */\n    tag_87:\n        /* \"MF2.sol\":9780:9792  bool success */\n      0x00\n        /* \"MF2.sol\":2449:2454  owner */\n      dup1\n      sload\n      sub(shl(0xa0, 0x01), 0x01)\n      and\n        /* \"MF2.sol\":2435:2445  msg.sender */\n      caller\n        /* \"MF2.sol\":2435:2454  msg.sender == owner */\n      eq\n        /* \"MF2.sol\":2427:2455  require(msg.sender == owner) */\n      tag_220\n      jumpi\n      0x00\n      dup1\n      revert\n    tag_220:\n      pop\n      sub(shl(0xa0, 0x01), 0x01)\n        /* \"MF2.sol\":9815:9834  blocked[tokenOwner] */\n      and\n        /* \"MF2.sol\":9835:9839  0x00 */\n      0x00\n        /* \"MF2.sol\":9815:9834  blocked[tokenOwner] */\n      swap1\n      dup2\n      mstore\n        /* \"MF2.sol\":9815:9822  blocked */\n      0x09\n        /* \"MF2.sol\":9815:9834  blocked[tokenOwner] */\n      0x20\n      mstore\n      0x40\n      dup2\n      keccak256\n        /* \"MF2.sol\":9815:9839  blocked[tokenOwner]=0x00 */\n      sstore\n        /* \"MF2.sol\":9867:9871  true */\n      0x01\n      swap1\n        /* \"MF2.sol\":9707:9879  function unblock_scientist(address tokenOwner) public onlyOwner returns (bool success) {\r... */\n      jump\t// out\n        /* \"MF2.sol\":3173:3194  uint8 public decimals */\n    tag_90:\n      and(0xff, sload(0x04))\n      dup2\n      jump\t// out\n        /* \"MF2.sol\":10686:10732  mapping(uint256=>address) public m_Token_Slots */\n    tag_94:\n      mstore(0x20, 0x0c)\n      0x00\n      swap1\n      dup2\n      mstore\n      0x40\n      swap1\n      keccak256\n      sload\n      sub(shl(0xa0, 0x01), 0x01)\n      and\n      dup2\n      jump\t// out\n        /* \"MF2.sol\":12882:13044  function Take_Token(address token_address,uint token_amount) public onlyOwner{\r... */\n    tag_98:\n        /* \"MF2.sol\":2449:2454  owner */\n      and(sub(shl(0xa0, 0x01), 0x01), sload(0x00))\n        /* \"MF2.sol\":2435:2445  msg.sender */\n      caller\n        /* \"MF2.sol\":2435:2454  msg.sender == owner */\n      eq\n        /* \"MF2.sol\":2427:2455  require(msg.sender == owner) */\n      tag_223\n      jumpi\n      0x00\n      dup1\n      revert\n    tag_223:\n        /* \"MF2.sol\":12973:13036  ERC20Interface(token_address).transfer(msg.sender,token_amount) */\n      0x40\n      dup1\n      mload\n      shl(0xe0, 0xa9059cbb)\n      dup2\n      mstore\n        /* \"MF2.sol\":13012:13022  msg.sender */\n      caller\n        /* \"MF2.sol\":12973:13036  ERC20Interface(token_address).transfer(msg.sender,token_amount) */\n      0x04\n      dup3\n      add\n      mstore\n      0x24\n      dup2\n      add\n      dup4\n      swap1\n      mstore\n      swap1\n      mload\n      sub(shl(0xa0, 0x01), 0x01)\n        /* \"MF2.sol\":12973:13011  ERC20Interface(token_address).transfer */\n      dup5\n      and\n      swap2\n      0xa9059cbb\n      swap2\n        /* \"MF2.sol\":12973:13036  ERC20Interface(token_address).transfer(msg.sender,token_amount) */\n      0x44\n      dup1\n      dup4\n      add\n      swap3\n      0x20\n      swap3\n      swap2\n      swap1\n      dup3\n      swap1\n      sub\n      add\n      dup2\n      0x00\n        /* \"MF2.sol\":12973:13011  ERC20Interface(token_address).transfer */\n      dup8\n        /* \"MF2.sol\":12973:13036  ERC20Interface(token_address).transfer(msg.sender,token_amount) */\n      dup1\n      extcodesize\n      iszero\n      dup1\n      iszero\n      tag_225\n      jumpi\n      0x00\n      dup1\n      revert\n    tag_225:\n      pop\n      gas\n      call\n      iszero\n      dup1\n      iszero\n      tag_227\n      jumpi\n      returndatasize\n      0x00\n      dup1\n      returndatacopy\n      revert(0x00, returndatasize)\n    tag_227:\n      pop\n      pop\n      pop\n      pop\n      mload(0x40)\n      returndatasize\n      0x20\n      dup2\n      lt\n      iszero\n      tag_228\n      jumpi\n      0x00\n      dup1\n      revert\n    tag_228:\n      pop\n      pop\n      pop\n      pop\n        /* \"MF2.sol\":12882:13044  function Take_Token(address token_address,uint token_amount) public onlyOwner{\r... */\n      jump\t// out\n        /* \"MF2.sol\":4703:4831  function balanceOf(address tokenOwner)override public view returns (uint balance) {\r... */\n    tag_102:\n      sub(shl(0xa0, 0x01), 0x01)\n        /* \"MF2.sol\":4803:4823  balances[tokenOwner] */\n      and\n        /* \"MF2.sol\":4771:4783  uint balance */\n      0x00\n        /* \"MF2.sol\":4803:4823  balances[tokenOwner] */\n      swap1\n      dup2\n      mstore\n        /* \"MF2.sol\":4803:4811  balances */\n      0x07\n        /* \"MF2.sol\":4803:4823  balances[tokenOwner] */\n      0x20\n      mstore\n      0x40\n      swap1\n      keccak256\n      sload\n      swap1\n        /* \"MF2.sol\":4703:4831  function balanceOf(address tokenOwner)override public view returns (uint balance) {\r... */\n      jump\t// out\n        /* \"MF2.sol\":2591:2787  function acceptOwnership() public {\r... */\n    tag_105:\n        /* \"MF2.sol\":2658:2666  newOwner */\n      and(sub(shl(0xa0, 0x01), 0x01), sload(0x01))\n        /* \"MF2.sol\":2644:2654  msg.sender */\n      caller\n        /* \"MF2.sol\":2644:2666  msg.sender == newOwner */\n      eq\n        /* \"MF2.sol\":2636:2667  require(msg.sender == newOwner) */\n      tag_231\n      jumpi\n      0x00\n      dup1\n      revert\n    tag_231:\n        /* \"MF2.sol\":2711:2719  newOwner */\n      sload(0x01)\n      0x00\n        /* \"MF2.sol\":2704:2709  owner */\n      dup1\n      sload\n        /* \"MF2.sol\":2683:2720  OwnershipTransferred(owner, newOwner) */\n      mload(0x40)\n      sub(shl(0xa0, 0x01), 0x01)\n        /* \"MF2.sol\":2711:2719  newOwner */\n      swap4\n      dup5\n      and\n      swap4\n        /* \"MF2.sol\":2704:2709  owner */\n      swap1\n      swap2\n      and\n      swap2\n        /* \"MF2.sol\":2683:2720  OwnershipTransferred(owner, newOwner) */\n      0x8be0079c531659141344cd1fd0a4f28419497f9722a3daafe3b4186f6b6457e0\n      swap2\n      log3\n        /* \"MF2.sol\":2739:2747  newOwner */\n      0x01\n      dup1\n      sload\n      0x00\n        /* \"MF2.sol\":2731:2747  owner = newOwner */\n      dup1\n      sload\n      not(sub(shl(0xa0, 0x01), 0x01))\n      swap1\n      dup2\n      and\n      sub(shl(0xa0, 0x01), 0x01)\n        /* \"MF2.sol\":2739:2747  newOwner */\n      dup5\n      and\n        /* \"MF2.sol\":2731:2747  owner = newOwner */\n      or\n      swap1\n      swap2\n      sstore\n        /* \"MF2.sol\":2758:2779  newOwner = address(0) */\n      and\n      swap1\n      sstore\n        /* \"MF2.sol\":2591:2787  function acceptOwnership() public {\r... */\n      jump\t// out\n        /* \"MF2.sol\":2193:2213  address public owner */\n    tag_108:\n      and(sub(shl(0xa0, 0x01), 0x01), sload(0x00))\n      dup2\n      jump\t// out\n        /* \"MF2.sol\":3120:3140  string public symbol */\n    tag_111:\n      0x02\n      dup1\n      sload\n      0x40\n      dup1\n      mload\n      0x20\n      0x01\n      dup5\n      and\n      iszero\n      0x0100\n      mul\n      not(0x00)\n      add\n      swap1\n      swap4\n      and\n      dup5\n      swap1\n      div\n      0x1f\n      dup2\n      add\n      dup5\n      swap1\n      div\n      dup5\n      mul\n      dup3\n      add\n      dup5\n      add\n      swap1\n      swap3\n      mstore\n      dup2\n      dup2\n      mstore\n      swap3\n      swap2\n      dup4\n      add\n      dup3\n      dup3\n      dup1\n      iszero\n      tag_177\n      jumpi\n      dup1\n      0x1f\n      lt\n      tag_178\n      jumpi\n      0x0100\n      dup1\n      dup4\n      sload\n      div\n      mul\n      dup4\n      mstore\n      swap2\n      0x20\n      add\n      swap2\n      jump(tag_177)\n        /* \"MF2.sol\":10406:10632  function issue_token(uint token) public onlyOwner returns (bool success) {\r... */\n    tag_119:\n        /* \"MF2.sol\":10465:10477  bool success */\n      0x00\n        /* \"MF2.sol\":2449:2454  owner */\n      dup1\n      sload\n      sub(shl(0xa0, 0x01), 0x01)\n      and\n        /* \"MF2.sol\":2435:2445  msg.sender */\n      caller\n        /* \"MF2.sol\":2435:2454  msg.sender == owner */\n      eq\n        /* \"MF2.sol\":2427:2455  require(msg.sender == owner) */\n      tag_236\n      jumpi\n      0x00\n      dup1\n      revert\n    tag_236:\n      pop\n        /* \"MF2.sol\":10513:10525  _totalSupply */\n      0x05\n      dup1\n      sload\n        /* \"MF2.sol\":10513:10531  _totalSupply+token */\n      dup3\n      add\n        /* \"MF2.sol\":10500:10531  _totalSupply=_totalSupply+token */\n      swap1\n      sstore\n        /* \"MF2.sol\":10573:10583  msg.sender */\n      caller\n      0x00\n        /* \"MF2.sol\":10564:10584  balances[msg.sender] */\n      swap1\n      dup2\n      mstore\n        /* \"MF2.sol\":10564:10572  balances */\n      0x07\n        /* \"MF2.sol\":10564:10584  balances[msg.sender] */\n      0x20\n      mstore\n      0x40\n      swap1\n      keccak256\n      dup1\n      sload\n        /* \"MF2.sol\":10564:10591  balances[msg.sender] +token */\n      swap1\n      swap2\n      add\n        /* \"MF2.sol\":10542:10591  balances[msg.sender]= balances[msg.sender] +token */\n      swap1\n      sstore\n      0x01\n      swap1\n        /* \"MF2.sol\":10406:10632  function issue_token(uint token) public onlyOwner returns (bool success) {\r... */\n      jump\t// out\n        /* \"MF2.sol\":10648:10679  uint256  public m_ETH_Balance=0 */\n    tag_122:\n      sload(0x0b)\n      dup2\n      jump\t// out\n        /* \"MF2.sol\":12570:12703  function Call_Function(address addr,uint256 value ,bytes memory data) public  onlyOwner {\r... */\n    tag_129:\n        /* \"MF2.sol\":2449:2454  owner */\n      and(sub(shl(0xa0, 0x01), 0x01), sload(0x00))\n        /* \"MF2.sol\":2435:2445  msg.sender */\n      caller\n        /* \"MF2.sol\":2435:2454  msg.sender == owner */\n      eq\n        /* \"MF2.sol\":2427:2455  require(msg.sender == owner) */\n      tag_239\n      jumpi\n      0x00\n      dup1\n      revert\n    tag_239:\n        /* \"MF2.sol\":12667:12671  addr */\n      dup3\n      sub(shl(0xa0, 0x01), 0x01)\n        /* \"MF2.sol\":12667:12676  addr.call */\n      and\n        /* \"MF2.sol\":12683:12688  value */\n      dup3\n        /* \"MF2.sol\":12690:12694  data */\n      dup3\n        /* \"MF2.sol\":12667:12695  addr.call.value(value)(data) */\n      mload(0x40)\n      dup1\n      dup3\n      dup1\n      mload\n      swap1\n      0x20\n      add\n      swap1\n      dup1\n      dup4\n      dup4\n    tag_241:\n      0x20\n      dup4\n      lt\n      tag_243\n      jumpi\n      dup1\n      mload\n      dup3\n      mstore\n      not(0x1f)\n      swap1\n      swap3\n      add\n      swap2\n      0x20\n      swap2\n      dup3\n      add\n      swap2\n      add\n      jump(tag_241)\n    tag_243:\n      0x01\n      dup4\n      0x20\n      sub\n      0x0100\n      exp\n      sub\n      dup1\n      not\n      dup3\n      mload\n      and\n      dup2\n      dup5\n      mload\n      and\n      dup1\n      dup3\n      or\n      dup6\n      mstore\n      pop\n      pop\n      pop\n      pop\n      pop\n      pop\n      swap1\n      pop\n      add\n      swap2\n      pop\n      pop\n      0x00\n      mload(0x40)\n      dup1\n      dup4\n      sub\n      dup2\n      dup6\n      dup8\n      gas\n      call\n      swap3\n      pop\n      pop\n      pop\n      returndatasize\n      dup1\n      0x00\n      dup2\n      eq\n      tag_246\n      jumpi\n      mload(0x40)\n      swap2\n      pop\n      and(add(returndatasize, 0x3f), not(0x1f))\n      dup3\n      add\n      0x40\n      mstore\n      returndatasize\n      dup3\n      mstore\n      returndatasize\n      0x00\n      0x20\n      dup5\n      add\n      returndatacopy\n      jump(tag_245)\n    tag_246:\n      0x60\n      swap2\n      pop\n    tag_245:\n      pop\n      pop\n      pop\n        /* \"MF2.sol\":12570:12703  function Call_Function(address addr,uint256 value ,bytes memory data) public  onlyOwner {\r... */\n      pop\n      pop\n      pop\n      jump\t// out\n        /* \"MF2.sol\":5182:5712  function transfer(address to, uint tokens)override public onlyPayloadSize(2*32) returns (bool success) {\r... */\n    tag_133:\n        /* \"MF2.sol\":5271:5283  bool success */\n      0x00\n        /* \"MF2.sol\":5256:5260  2*32 */\n      0x40\n        /* \"MF2.sol\":3566:3574  size + 4 */\n      0x44\n        /* \"MF2.sol\":3548:3556  msg.data */\n      calldatasize\n        /* \"MF2.sol\":3548:3574  msg.data.length < size + 4 */\n      lt\n        /* \"MF2.sol\":3546:3575  !(msg.data.length < size + 4) */\n      iszero\n        /* \"MF2.sol\":3538:3576  require(!(msg.data.length < size + 4)) */\n      tag_248\n      jumpi\n      0x00\n      dup1\n      revert\n    tag_248:\n        /* \"MF2.sol\":5317:5327  msg.sender */\n      caller\n        /* \"MF2.sol\":5309:5328  blocked[msg.sender] */\n      0x00\n      swap1\n      dup2\n      mstore\n        /* \"MF2.sol\":5309:5316  blocked */\n      0x09\n        /* \"MF2.sol\":5309:5328  blocked[msg.sender] */\n      0x20\n      mstore\n      0x40\n      swap1\n      keccak256\n      sload\n        /* \"MF2.sol\":5330:5342  0x424C4F434B */\n      0x424c4f434b\n        /* \"MF2.sol\":5309:5342  blocked[msg.sender]==0x424C4F434B */\n      eq\n        /* \"MF2.sol\":5306:5392  if(blocked[msg.sender]==0x424C4F434B)\r... */\n      iszero\n      tag_250\n      jumpi\n        /* \"MF2.sol\":5375:5380  false */\n      0x00\n        /* \"MF2.sol\":5368:5380  return false */\n      swap2\n      pop\n      jump(tag_182)\n        /* \"MF2.sol\":5306:5392  if(blocked[msg.sender]==0x424C4F434B)\r... */\n    tag_250:\n        /* \"MF2.sol\":5407:5418  permit_mode */\n      and(0xff, sload(0x06))\n        /* \"MF2.sol\":5407:5459  permit_mode && permitted[msg.sender]!=0x7065726D6974 */\n      dup1\n      iszero\n      tag_251\n      jumpi\n      pop\n        /* \"MF2.sol\":5432:5442  msg.sender */\n      caller\n        /* \"MF2.sol\":5422:5443  permitted[msg.sender] */\n      0x00\n      swap1\n      dup2\n      mstore\n        /* \"MF2.sol\":5422:5431  permitted */\n      0x0a\n        /* \"MF2.sol\":5422:5443  permitted[msg.sender] */\n      0x20\n      mstore\n      0x40\n      swap1\n      keccak256\n      sload\n        /* \"MF2.sol\":5445:5459  0x7065726D6974 */\n      0x7065726d6974\n        /* \"MF2.sol\":5422:5459  permitted[msg.sender]!=0x7065726D6974 */\n      eq\n      iszero\n        /* \"MF2.sol\":5407:5459  permit_mode && permitted[msg.sender]!=0x7065726D6974 */\n    tag_251:\n        /* \"MF2.sol\":5403:5509  if( permit_mode && permitted[msg.sender]!=0x7065726D6974)\r... */\n      iszero\n      tag_252\n      jumpi\n        /* \"MF2.sol\":5492:5497  false */\n      0x00\n        /* \"MF2.sol\":5485:5497  return false */\n      swap2\n      pop\n      jump(tag_182)\n        /* \"MF2.sol\":5403:5509  if( permit_mode && permitted[msg.sender]!=0x7065726D6974)\r... */\n    tag_252:\n        /* \"MF2.sol\":5561:5571  msg.sender */\n      caller\n        /* \"MF2.sol\":5552:5572  balances[msg.sender] */\n      0x00\n      swap1\n      dup2\n      mstore\n        /* \"MF2.sol\":5552:5560  balances */\n      0x07\n        /* \"MF2.sol\":5552:5572  balances[msg.sender] */\n      0x20\n      mstore\n      0x40\n      swap1\n      keccak256\n      sload\n        /* \"MF2.sol\":5552:5584  balances[msg.sender].sub(tokens) */\n      tag_253\n      swap1\n        /* \"MF2.sol\":5577:5583  tokens */\n      dup5\n        /* \"MF2.sol\":5552:5576  balances[msg.sender].sub */\n      tag_190\n        /* \"MF2.sol\":5552:5584  balances[msg.sender].sub(tokens) */\n      jump\t// in\n    tag_253:\n        /* \"MF2.sol\":5538:5548  msg.sender */\n      caller\n        /* \"MF2.sol\":5529:5549  balances[msg.sender] */\n      0x00\n      swap1\n      dup2\n      mstore\n        /* \"MF2.sol\":5529:5537  balances */\n      0x07\n        /* \"MF2.sol\":5529:5549  balances[msg.sender] */\n      0x20\n      mstore\n      0x40\n      dup1\n      dup3\n      keccak256\n        /* \"MF2.sol\":5529:5584  balances[msg.sender] = balances[msg.sender].sub(tokens) */\n      swap3\n      swap1\n      swap3\n      sstore\n      sub(shl(0xa0, 0x01), 0x01)\n        /* \"MF2.sol\":5610:5622  balances[to] */\n      dup7\n      and\n      dup2\n      mstore\n      keccak256\n      sload\n        /* \"MF2.sol\":5610:5634  balances[to].add(tokens) */\n      tag_254\n      swap1\n        /* \"MF2.sol\":5627:5633  tokens */\n      dup5\n        /* \"MF2.sol\":5610:5626  balances[to].add */\n      tag_44\n        /* \"MF2.sol\":5610:5634  balances[to].add(tokens) */\n      jump\t// in\n    tag_254:\n      sub(shl(0xa0, 0x01), 0x01)\n        /* \"MF2.sol\":5595:5607  balances[to] */\n      dup6\n      and\n      0x00\n      dup2\n      dup2\n      mstore\n        /* \"MF2.sol\":5595:5603  balances */\n      0x07\n        /* \"MF2.sol\":5595:5607  balances[to] */\n      0x20\n      swap1\n      dup2\n      mstore\n      0x40\n      swap2\n      dup3\n      swap1\n      keccak256\n        /* \"MF2.sol\":5595:5634  balances[to] = balances[to].add(tokens) */\n      swap4\n      swap1\n      swap4\n      sstore\n        /* \"MF2.sol\":5650:5682  Transfer(msg.sender, to, tokens) */\n      dup1\n      mload\n      dup7\n      dup2\n      mstore\n      swap1\n      mload\n        /* \"MF2.sol\":5595:5607  balances[to] */\n      swap2\n      swap3\n        /* \"MF2.sol\":5659:5669  msg.sender */\n      caller\n      swap3\n        /* \"MF2.sol\":5650:5682  Transfer(msg.sender, to, tokens) */\n      0xddf252ad1be2c89b69c2b068fc378daa952ba7f163c4a11628f55a4df523b3ef\n      swap3\n      dup2\n      swap1\n      sub\n      swap1\n      swap2\n      add\n      swap1\n      log3\n      pop\n        /* \"MF2.sol\":5700:5704  true */\n      0x01\n      swap4\n        /* \"MF2.sol\":5182:5712  function transfer(address to, uint tokens)override public onlyPayloadSize(2*32) returns (bool success) {\r... */\n      swap3\n      pop\n      pop\n      pop\n      jump\t// out\n        /* \"MF2.sol\":8622:9071  function approveAndCall(address spender, uint tokens, bytes memory data) public returns (bool success) {\r... */\n    tag_140:\n        /* \"MF2.sol\":8757:8767  msg.sender */\n      caller\n        /* \"MF2.sol\":8711:8723  bool success */\n      0x00\n        /* \"MF2.sol\":8749:8768  blocked[msg.sender] */\n      swap1\n      dup2\n      mstore\n        /* \"MF2.sol\":8749:8756  blocked */\n      0x09\n        /* \"MF2.sol\":8749:8768  blocked[msg.sender] */\n      0x20\n      mstore\n      0x40\n      dup2\n      keccak256\n      sload\n        /* \"MF2.sol\":8770:8782  0x424C4F434B */\n      0x424c4f434b\n        /* \"MF2.sol\":8749:8782  blocked[msg.sender]==0x424C4F434B */\n      eq\n        /* \"MF2.sol\":8746:8832  if(blocked[msg.sender]==0x424C4F434B)\r... */\n      iszero\n      tag_256\n      jumpi\n      pop\n        /* \"MF2.sol\":8815:8820  false */\n      0x00\n        /* \"MF2.sol\":8808:8820  return false */\n      jump(tag_209)\n        /* \"MF2.sol\":8746:8832  if(blocked[msg.sender]==0x424C4F434B)\r... */\n    tag_256:\n        /* \"MF2.sol\":8860:8870  msg.sender */\n      caller\n        /* \"MF2.sol\":8852:8871  allowed[msg.sender] */\n      0x00\n      dup2\n      dup2\n      mstore\n        /* \"MF2.sol\":8852:8859  allowed */\n      0x08\n        /* \"MF2.sol\":8852:8871  allowed[msg.sender] */\n      0x20\n      swap1\n      dup2\n      mstore\n      0x40\n      dup1\n      dup4\n      keccak256\n      sub(shl(0xa0, 0x01), 0x01)\n        /* \"MF2.sol\":8852:8880  allowed[msg.sender][spender] */\n      dup10\n      and\n      dup1\n      dup6\n      mstore\n      swap1\n      dup4\n      mstore\n      swap3\n      dup2\n      swap1\n      keccak256\n        /* \"MF2.sol\":8852:8889  allowed[msg.sender][spender] = tokens */\n      dup8\n      swap1\n      sstore\n        /* \"MF2.sol\":8905:8942  Approval(msg.sender, spender, tokens) */\n      dup1\n      mload\n      dup8\n      dup2\n      mstore\n      swap1\n      mload\n        /* \"MF2.sol\":8852:8880  allowed[msg.sender][spender] */\n      swap3\n      swap4\n        /* \"MF2.sol\":8860:8870  msg.sender */\n      swap3\n        /* \"MF2.sol\":8905:8942  Approval(msg.sender, spender, tokens) */\n      0x8c5be1e5ebec7d5bd14f71427d1e84f3dd0314c0f7b2291e5b200ac8c7c3b925\n      swap3\n      swap2\n      dup2\n      swap1\n      sub\n      swap1\n      swap2\n      add\n      swap1\n      log3\n        /* \"MF2.sol\":8976:8983  spender */\n      dup4\n      sub(shl(0xa0, 0x01), 0x01)\n        /* \"MF2.sol\":8953:9000  ApproveAndCallFallBack(spender).receiveApproval */\n      and\n      0x8f4ffcb1\n        /* \"MF2.sol\":9001:9011  msg.sender */\n      caller\n        /* \"MF2.sol\":9013:9019  tokens */\n      dup6\n        /* \"MF2.sol\":9029:9033  this */\n      address\n        /* \"MF2.sol\":9036:9040  data */\n      dup7\n        /* \"MF2.sol\":8953:9041  ApproveAndCallFallBack(spender).receiveApproval(msg.sender, tokens, address(this), data) */\n      mload(0x40)\n      dup6\n      0xffffffff\n      and\n      0xe0\n      shl\n      dup2\n      mstore\n      0x04\n      add\n      dup1\n      dup6\n      sub(shl(0xa0, 0x01), 0x01)\n      and\n      dup2\n      mstore\n      0x20\n      add\n      dup5\n      dup2\n      mstore\n      0x20\n      add\n      dup4\n      sub(shl(0xa0, 0x01), 0x01)\n      and\n      dup2\n      mstore\n      0x20\n      add\n      dup1\n      0x20\n      add\n      dup3\n      dup2\n      sub\n      dup3\n      mstore\n      dup4\n      dup2\n      dup2\n      mload\n      dup2\n      mstore\n      0x20\n      add\n      swap2\n      pop\n      dup1\n      mload\n      swap1\n      0x20\n      add\n      swap1\n      dup1\n      dup4\n      dup4\n      0x00\n    tag_257:\n      dup4\n      dup2\n      lt\n      iszero\n      tag_259\n      jumpi\n      dup2\n      dup2\n      add\n      mload\n      dup4\n      dup3\n      add\n      mstore\n      0x20\n      add\n      jump(tag_257)\n    tag_259:\n      pop\n      pop\n      pop\n      pop\n      swap1\n      pop\n      swap1\n      dup2\n      add\n      swap1\n      0x1f\n      and\n      dup1\n      iszero\n      tag_260\n      jumpi\n      dup1\n      dup3\n      sub\n      dup1\n      mload\n      0x01\n      dup4\n      0x20\n      sub\n      0x0100\n      exp\n      sub\n      not\n      and\n      dup2\n      mstore\n      0x20\n      add\n      swap2\n      pop\n    tag_260:\n      pop\n      swap6\n      pop\n      pop\n      pop\n      pop\n      pop\n      pop\n      0x00\n      mload(0x40)\n      dup1\n      dup4\n      sub\n      dup2\n      0x00\n      dup8\n      dup1\n      extcodesize\n      iszero\n      dup1\n      iszero\n      tag_261\n      jumpi\n      0x00\n      dup1\n      revert\n    tag_261:\n      pop\n      gas\n      call\n      iszero\n      dup1\n      iszero\n      tag_263\n      jumpi\n      returndatasize\n      0x00\n      dup1\n      returndatacopy\n      revert(0x00, returndatasize)\n    tag_263:\n      pop\n        /* \"MF2.sol\":9059:9063  true */\n      0x01\n      swap8\n        /* \"MF2.sol\":8622:9071  function approveAndCall(address spender, uint tokens, bytes memory data) public returns (bool success) {\r... */\n      swap7\n      pop\n      pop\n      pop\n      pop\n      pop\n      pop\n      pop\n      jump\t// out\n        /* \"MF2.sol\":10230:10400  function unpermit_user(address tokenOwner) public onlyOwner returns (bool success) {\r... */\n    tag_144:\n        /* \"MF2.sol\":10299:10311  bool success */\n      0x00\n        /* \"MF2.sol\":2449:2454  owner */\n      dup1\n      sload\n      sub(shl(0xa0, 0x01), 0x01)\n      and\n        /* \"MF2.sol\":2435:2445  msg.sender */\n      caller\n        /* \"MF2.sol\":2435:2454  msg.sender == owner */\n      eq\n        /* \"MF2.sol\":2427:2455  require(msg.sender == owner) */\n      tag_265\n      jumpi\n      0x00\n      dup1\n      revert\n    tag_265:\n      pop\n      sub(shl(0xa0, 0x01), 0x01)\n        /* \"MF2.sol\":10334:10355  permitted[tokenOwner] */\n      and\n        /* \"MF2.sol\":10356:10360  0x00 */\n      0x00\n        /* \"MF2.sol\":10334:10355  permitted[tokenOwner] */\n      swap1\n      dup2\n      mstore\n        /* \"MF2.sol\":10334:10343  permitted */\n      0x0a\n        /* \"MF2.sol\":10334:10355  permitted[tokenOwner] */\n      0x20\n      mstore\n      0x40\n      dup2\n      keccak256\n        /* \"MF2.sol\":10334:10360  permitted[tokenOwner]=0x00 */\n      sstore\n        /* \"MF2.sol\":10388:10392  true */\n      0x01\n      swap1\n        /* \"MF2.sol\":10230:10400  function unpermit_user(address tokenOwner) public onlyOwner returns (bool success) {\r... */\n      jump\t// out\n        /* \"MF2.sol\":2220:2243  address public newOwner */\n    tag_147:\n      and(sub(shl(0xa0, 0x01), 0x01), sload(0x01))\n      dup2\n      jump\t// out\n        /* \"MF2.sol\":10901:11005  function Set_Slot_Count(uint256 count) public onlyOwner\r... */\n    tag_151:\n        /* \"MF2.sol\":2449:2454  owner */\n      and(sub(shl(0xa0, 0x01), 0x01), sload(0x00))\n        /* \"MF2.sol\":2435:2445  msg.sender */\n      caller\n        /* \"MF2.sol\":2435:2454  msg.sender == owner */\n      eq\n        /* \"MF2.sol\":2427:2455  require(msg.sender == owner) */\n      tag_268\n      jumpi\n      0x00\n      dup1\n      revert\n    tag_268:\n        /* \"MF2.sol\":10973:10991  m_Token_Slot_Count */\n      0x0d\n        /* \"MF2.sol\":10973:10997  m_Token_Slot_Count=count */\n      sstore\n        /* \"MF2.sol\":10901:11005  function Set_Slot_Count(uint256 count) public onlyOwner\r... */\n      jump\t// out\n        /* \"MF2.sol\":9315:9499  function transferAnyERC20Token(address tokenAddress, uint tokens) public onlyOwner returns (bool success) {\r... */\n    tag_155:\n        /* \"MF2.sol\":9407:9419  bool success */\n      0x00\n        /* \"MF2.sol\":2449:2454  owner */\n      dup1\n      sload\n      sub(shl(0xa0, 0x01), 0x01)\n      and\n        /* \"MF2.sol\":2435:2445  msg.sender */\n      caller\n        /* \"MF2.sol\":2435:2454  msg.sender == owner */\n      eq\n        /* \"MF2.sol\":2427:2455  require(msg.sender == owner) */\n      tag_271\n      jumpi\n      0x00\n      dup1\n      revert\n    tag_271:\n        /* \"MF2.sol\":9477:9482  owner */\n      0x00\n      dup1\n      sload\n        /* \"MF2.sol\":9439:9491  ERC20Interface(tokenAddress).transfer(owner, tokens) */\n      0x40\n      dup1\n      mload\n      shl(0xe0, 0xa9059cbb)\n      dup2\n      mstore\n      sub(shl(0xa0, 0x01), 0x01)\n        /* \"MF2.sol\":9477:9482  owner */\n      swap3\n      dup4\n      and\n        /* \"MF2.sol\":9439:9491  ERC20Interface(tokenAddress).transfer(owner, tokens) */\n      0x04\n      dup3\n      add\n      mstore\n      0x24\n      dup2\n      add\n      dup7\n      swap1\n      mstore\n      swap1\n      mload\n        /* \"MF2.sol\":9439:9476  ERC20Interface(tokenAddress).transfer */\n      swap2\n      dup7\n      and\n      swap3\n      0xa9059cbb\n      swap3\n        /* \"MF2.sol\":9439:9491  ERC20Interface(tokenAddress).transfer(owner, tokens) */\n      0x44\n      dup1\n      dup5\n      add\n      swap4\n      0x20\n      swap4\n      swap1\n      dup4\n      swap1\n      sub\n      swap1\n      swap2\n      add\n      swap1\n      dup3\n      swap1\n        /* \"MF2.sol\":9439:9476  ERC20Interface(tokenAddress).transfer */\n      dup8\n        /* \"MF2.sol\":9439:9491  ERC20Interface(tokenAddress).transfer(owner, tokens) */\n      dup1\n      extcodesize\n      iszero\n      dup1\n      iszero\n      tag_273\n      jumpi\n      0x00\n      dup1\n      revert\n    tag_273:\n      pop\n      gas\n      call\n      iszero\n      dup1\n      iszero\n      tag_275\n      jumpi\n      returndatasize\n      0x00\n      dup1\n      returndatacopy\n      revert(0x00, returndatasize)\n    tag_275:\n      pop\n      pop\n      pop\n      pop\n      mload(0x40)\n      returndatasize\n      0x20\n      dup2\n      lt\n      iszero\n      tag_276\n      jumpi\n      0x00\n      dup1\n      revert\n    tag_276:\n      pop\n      mload\n      swap4\n        /* \"MF2.sol\":9315:9499  function transferAnyERC20Token(address tokenAddress, uint tokens) public onlyOwner returns (bool success) {\r... */\n      swap3\n      pop\n      pop\n      pop\n      jump\t// out\n        /* \"MF2.sol\":8099:8254  function allowance(address tokenOwner, address spender)override public view returns (uint remaining) {\r... */\n    tag_159:\n      sub(shl(0xa0, 0x01), 0x01)\n        /* \"MF2.sol\":8218:8237  allowed[tokenOwner] */\n      swap2\n      dup3\n      and\n        /* \"MF2.sol\":8184:8198  uint remaining */\n      0x00\n        /* \"MF2.sol\":8218:8237  allowed[tokenOwner] */\n      swap1\n      dup2\n      mstore\n        /* \"MF2.sol\":8218:8225  allowed */\n      0x08\n        /* \"MF2.sol\":8218:8237  allowed[tokenOwner] */\n      0x20\n      swap1\n      dup2\n      mstore\n      0x40\n      dup1\n      dup4\n      keccak256\n        /* \"MF2.sol\":8218:8246  allowed[tokenOwner][spender] */\n      swap4\n      swap1\n      swap5\n      and\n      dup3\n      mstore\n      swap2\n      swap1\n      swap2\n      mstore\n      keccak256\n      sload\n      swap1\n        /* \"MF2.sol\":8099:8254  function allowance(address tokenOwner, address spender)override public view returns (uint remaining) {\r... */\n      jump\t// out\n        /* \"MF2.sol\":10739:10774  uint256 public m_Token_Slot_Count=0 */\n    tag_162:\n      sload(0x0d)\n      dup2\n      jump\t// out\n        /* \"MF2.sol\":10781:10895  function Set_Slot(uint256 index,address token) public onlyOwner\r... */\n    tag_166:\n        /* \"MF2.sol\":2449:2454  owner */\n      and(sub(shl(0xa0, 0x01), 0x01), sload(0x00))\n        /* \"MF2.sol\":2435:2445  msg.sender */\n      caller\n        /* \"MF2.sol\":2435:2454  msg.sender == owner */\n      eq\n        /* \"MF2.sol\":2427:2455  require(msg.sender == owner) */\n      tag_279\n      jumpi\n      0x00\n      dup1\n      revert\n    tag_279:\n        /* \"MF2.sol\":10861:10881  m_Token_Slots[index] */\n      0x00\n      swap2\n      dup3\n      mstore\n        /* \"MF2.sol\":10861:10874  m_Token_Slots */\n      0x0c\n        /* \"MF2.sol\":10861:10881  m_Token_Slots[index] */\n      0x20\n      mstore\n      0x40\n      swap1\n      swap2\n      keccak256\n        /* \"MF2.sol\":10861:10887  m_Token_Slots[index]=token */\n      dup1\n      sload\n      not(sub(shl(0xa0, 0x01), 0x01))\n      and\n      sub(shl(0xa0, 0x01), 0x01)\n      swap1\n      swap3\n      and\n      swap2\n      swap1\n      swap2\n      or\n      swap1\n      sstore\n        /* \"MF2.sol\":10781:10895  function Set_Slot(uint256 index,address token) public onlyOwner\r... */\n      jump\t// out\n        /* \"MF2.sol\":2483:2585  function transferOwnership(address _newOwner) public onlyOwner {\r... */\n    tag_170:\n        /* \"MF2.sol\":2449:2454  owner */\n      and(sub(shl(0xa0, 0x01), 0x01), sload(0x00))\n        /* \"MF2.sol\":2435:2445  msg.sender */\n      caller\n        /* \"MF2.sol\":2435:2454  msg.sender == owner */\n      eq\n        /* \"MF2.sol\":2427:2455  require(msg.sender == owner) */\n      tag_282\n      jumpi\n      0x00\n      dup1\n      revert\n    tag_282:\n        /* \"MF2.sol\":2557:2565  newOwner */\n      0x01\n        /* \"MF2.sol\":2557:2577  newOwner = _newOwner */\n      dup1\n      sload\n      not(sub(shl(0xa0, 0x01), 0x01))\n      and\n      sub(shl(0xa0, 0x01), 0x01)\n      swap3\n      swap1\n      swap3\n      and\n      swap2\n      swap1\n      swap2\n      or\n      swap1\n      sstore\n        /* \"MF2.sol\":2483:2585  function transferOwnership(address _newOwner) public onlyOwner {\r... */\n      jump\t// out\n        /* \"MF2.sol\":9523:9701  function block_scientist(address tokenOwner) public onlyOwner returns (bool success) {\r... */\n    tag_174:\n        /* \"MF2.sol\":9594:9606  bool success */\n      0x00\n        /* \"MF2.sol\":2449:2454  owner */\n      dup1\n      sload\n      sub(shl(0xa0, 0x01), 0x01)\n      and\n        /* \"MF2.sol\":2435:2445  msg.sender */\n      caller\n        /* \"MF2.sol\":2435:2454  msg.sender == owner */\n      eq\n        /* \"MF2.sol\":2427:2455  require(msg.sender == owner) */\n      tag_285\n      jumpi\n      0x00\n      dup1\n      revert\n    tag_285:\n      pop\n      sub(shl(0xa0, 0x01), 0x01)\n        /* \"MF2.sol\":9629:9648  blocked[tokenOwner] */\n      and\n      0x00\n      swap1\n      dup2\n      mstore\n        /* \"MF2.sol\":9629:9636  blocked */\n      0x09\n        /* \"MF2.sol\":9629:9648  blocked[tokenOwner] */\n      0x20\n      mstore\n      0x40\n      swap1\n      keccak256\n        /* \"MF2.sol\":9649:9661  0x424C4F434B */\n      0x424c4f434b\n        /* \"MF2.sol\":9629:9661  blocked[tokenOwner]=0x424C4F434B */\n      swap1\n      sstore\n        /* \"MF2.sol\":9689:9693  true */\n      0x01\n      swap1\n        /* \"MF2.sol\":9523:9701  function block_scientist(address tokenOwner) public onlyOwner returns (bool success) {\r... */\n      jump\t// out\n        /* \"MF2.sol\":169:283  function sub(uint a, uint b) internal pure returns (uint c) {\r... */\n    tag_190:\n        /* \"MF2.sol\":221:227  uint c */\n      0x00\n        /* \"MF2.sol\":253:254  a */\n      dup3\n        /* \"MF2.sol\":248:249  b */\n      dup3\n        /* \"MF2.sol\":248:254  b <= a */\n      gt\n      iszero\n        /* \"MF2.sol\":240:255  require(b <= a) */\n      tag_288\n      jumpi\n      0x00\n      dup1\n      revert\n    tag_288:\n      pop\n        /* \"MF2.sol\":270:275  a - b */\n      swap1\n      sub\n      swap1\n        /* \"MF2.sol\":169:283  function sub(uint a, uint b) internal pure returns (uint c) {\r... */\n      jump\t// out\n        /* \"MF2.sol\":12058:12413  function Dist_ETH(address user,uint256  burning_amount) private \r... */\n    tag_193:\n        /* \"MF2.sol\":12141:12160  uint256 totalsupply */\n      0x00\n        /* \"MF2.sol\":12161:12174  totalSupply() */\n      tag_290\n        /* \"MF2.sol\":12161:12172  totalSupply */\n      tag_71\n        /* \"MF2.sol\":12161:12174  totalSupply() */\n      jump\t// in\n    tag_290:\n        /* \"MF2.sol\":12141:12174  uint256 totalsupply=totalSupply() */\n      swap1\n      pop\n        /* \"MF2.sol\":12187:12204  uint256 eth_share */\n      0x00\n        /* \"MF2.sol\":12234:12245  totalsupply */\n      dup2\n        /* \"MF2.sol\":12219:12233  burning_amount */\n      dup4\n        /* \"MF2.sol\":12205:12218  m_ETH_Balance */\n      sload(0x0b)\n        /* \"MF2.sol\":12205:12233  m_ETH_Balance*burning_amount */\n      mul\n        /* \"MF2.sol\":12205:12245  m_ETH_Balance*burning_amount/totalsupply */\n      dup2\n      tag_291\n      jumpi\n      invalid\n    tag_291:\n      div\n        /* \"MF2.sol\":12187:12245  uint256 eth_share=m_ETH_Balance*burning_amount/totalsupply */\n      swap1\n      pop\n        /* \"MF2.sol\":12271:12275  1000 */\n      0x03e8\n        /* \"MF2.sol\":12261:12270  eth_share */\n      dup2\n        /* \"MF2.sol\":12261:12275  eth_share>1000 */\n      gt\n        /* \"MF2.sol\":12258:12404  if(eth_share>1000){\r... */\n      iszero\n      tag_228\n      jumpi\n        /* \"MF2.sol\":12343:12392  ( address )((uint160)(user )).transfer(eth_share) */\n      mload(0x40)\n      not(0x63)\n        /* \"MF2.sol\":12301:12314  eth_share-100 */\n      swap1\n      swap2\n      add\n      swap1\n      sub(shl(0xa0, 0x01), 0x01)\n        /* \"MF2.sol\":12343:12381  ( address )((uint160)(user )).transfer */\n      dup6\n      and\n      swap1\n        /* \"MF2.sol\":12343:12392  ( address )((uint160)(user )).transfer(eth_share) */\n      dup3\n      iszero\n      0x08fc\n      mul\n      swap1\n        /* \"MF2.sol\":12301:12314  eth_share-100 */\n      dup4\n      swap1\n        /* \"MF2.sol\":12343:12392  ( address )((uint160)(user )).transfer(eth_share) */\n      0x00\n      dup2\n      dup2\n      dup2\n        /* \"MF2.sol\":12301:12314  eth_share-100 */\n      dup6\n        /* \"MF2.sol\":12343:12381  ( address )((uint160)(user )).transfer */\n      dup9\n        /* \"MF2.sol\":12343:12392  ( address )((uint160)(user )).transfer(eth_share) */\n      dup9\n      call\n      swap4\n      pop\n      pop\n      pop\n      pop\n      iszero\n      dup1\n      iszero\n      tag_294\n      jumpi\n      returndatasize\n      0x00\n      dup1\n      returndatacopy\n      revert(0x00, returndatasize)\n    tag_294:\n      pop\n        /* \"MF2.sol\":12058:12413  function Dist_ETH(address user,uint256  burning_amount) private \r... */\n      pop\n      pop\n      pop\n      pop\n      jump\t// out\n        /* \"MF2.sol\":11539:12052  function Dist_Token(address token_address,address user,uint256  burning_amount) private \r... */\n    tag_198:\n      sub(shl(0xa0, 0x01), 0x01)\n        /* \"MF2.sol\":11647:11672  token_address==address(0) */\n      dup4\n      and\n        /* \"MF2.sol\":11644:11680  if(token_address==address(0))return; */\n      tag_296\n      jumpi\n        /* \"MF2.sol\":11673:11680  return; */\n      jump(tag_195)\n        /* \"MF2.sol\":11644:11680  if(token_address==address(0))return; */\n    tag_296:\n        /* \"MF2.sol\":11690:11709  uint256 totalsupply */\n      0x00\n        /* \"MF2.sol\":11710:11723  totalSupply() */\n      tag_297\n        /* \"MF2.sol\":11710:11721  totalSupply */\n      tag_71\n        /* \"MF2.sol\":11710:11723  totalSupply() */\n      jump\t// in\n    tag_297:\n        /* \"MF2.sol\":11690:11723  uint256 totalsupply=totalSupply() */\n      swap1\n      pop\n        /* \"MF2.sol\":11734:11755  uint256  tokenbalance */\n      0x00\n        /* \"MF2.sol\":11774:11787  token_address */\n      dup5\n      sub(shl(0xa0, 0x01), 0x01)\n        /* \"MF2.sol\":11757:11798  (ERC20Interface)(token_address).balanceOf */\n      and\n      0x70a08231\n        /* \"MF2.sol\":11807:11811  this */\n      address\n        /* \"MF2.sol\":11757:11813  (ERC20Interface)(token_address).balanceOf(address(this)) */\n      mload(0x40)\n      dup3\n      0xffffffff\n      and\n      0xe0\n      shl\n      dup2\n      mstore\n      0x04\n      add\n      dup1\n      dup3\n      sub(shl(0xa0, 0x01), 0x01)\n      and\n      dup2\n      mstore\n      0x20\n      add\n      swap2\n      pop\n      pop\n      0x20\n      mload(0x40)\n      dup1\n      dup4\n      sub\n      dup2\n      dup7\n      dup1\n      extcodesize\n      iszero\n      dup1\n      iszero\n      tag_298\n      jumpi\n      0x00\n      dup1\n      revert\n    tag_298:\n      pop\n      gas\n      staticcall\n      iszero\n      dup1\n      iszero\n      tag_300\n      jumpi\n      returndatasize\n      0x00\n      dup1\n      returndatacopy\n      revert(0x00, returndatasize)\n    tag_300:\n      pop\n      pop\n      pop\n      pop\n      mload(0x40)\n      returndatasize\n      0x20\n      dup2\n      lt\n      iszero\n      tag_301\n      jumpi\n      0x00\n      dup1\n      revert\n    tag_301:\n      pop\n      mload\n      swap1\n      pop\n        /* \"MF2.sol\":11826:11845  uint256 token_share */\n      0x00\n        /* \"MF2.sol\":11874:11885  totalsupply */\n      dup3\n        /* \"MF2.sol\":11846:11873  tokenbalance*burning_amount */\n      dup5\n      dup4\n      mul\n        /* \"MF2.sol\":11874:11885  totalsupply */\n      dup2\n        /* \"MF2.sol\":11846:11885  tokenbalance*burning_amount/totalsupply */\n      tag_302\n      jumpi\n      invalid\n    tag_302:\n      div\n        /* \"MF2.sol\":11826:11885  uint256 token_share=tokenbalance*burning_amount/totalsupply */\n      swap1\n      pop\n        /* \"MF2.sol\":11911:11915  1000 */\n      0x03e8\n        /* \"MF2.sol\":11899:11910  token_share */\n      dup2\n        /* \"MF2.sol\":11899:11915  token_share>1000 */\n      gt\n        /* \"MF2.sol\":11896:12043  if(token_share>1000){\r... */\n      iszero\n      tag_245\n      jumpi\n        /* \"MF2.sol\":11955:11958  100 */\n      0x64\n        /* \"MF2.sol\":11943:11954  token_share */\n      dup2\n        /* \"MF2.sol\":11943:11958  token_share-100 */\n      sub\n        /* \"MF2.sol\":11931:11958  token_share=token_share-100 */\n      swap1\n      pop\n        /* \"MF2.sol\":11990:12003  token_address */\n      dup6\n      sub(shl(0xa0, 0x01), 0x01)\n        /* \"MF2.sol\":11973:12013  (ERC20Interface)(token_address).transfer */\n      and\n      0xa9059cbb\n        /* \"MF2.sol\":12014:12018  user */\n      dup7\n        /* \"MF2.sol\":12019:12030  token_share */\n      dup4\n        /* \"MF2.sol\":11973:12031  (ERC20Interface)(token_address).transfer(user,token_share) */\n      mload(0x40)\n      dup4\n      0xffffffff\n      and\n      0xe0\n      shl\n      dup2\n      mstore\n      0x04\n      add\n      dup1\n      dup4\n      sub(shl(0xa0, 0x01), 0x01)\n      and\n      dup2\n      mstore\n      0x20\n      add\n      dup3\n      dup2\n      mstore\n      0x20\n      add\n      swap3\n      pop\n      pop\n      pop\n      0x20\n      mload(0x40)\n      dup1\n      dup4\n      sub\n      dup2\n      0x00\n      dup8\n      dup1\n      extcodesize\n      iszero\n      dup1\n      iszero\n      tag_304\n      jumpi\n      0x00\n      dup1\n      revert\n    tag_304:\n      pop\n      gas\n      call\n      iszero\n      dup1\n      iszero\n      tag_306\n      jumpi\n      returndatasize\n      0x00\n      dup1\n      returndatacopy\n      revert(0x00, returndatasize)\n    tag_306:\n      pop\n      pop\n      pop\n      pop\n      mload(0x40)\n      returndatasize\n      0x20\n      dup2\n      lt\n      iszero\n      tag_307\n      jumpi\n      0x00\n      dup1\n      revert\n    tag_307:\n      pop\n      pop\n        /* \"MF2.sol\":11539:12052  function Dist_Token(address token_address,address user,uint256  burning_amount) private \r... */\n      pop\n      pop\n      pop\n      pop\n      pop\n      pop\n      jump\t// out\n\n    auxdata: 0xa26469706673582212208a9c00404f01e2310237cef97c18adc85f296941fbf8bfa2388068a73dbd6cc064736f6c634300060c0033\n}\n",
				"bytecode": {
					"linkReferences": {},
					"object": "60806040526000600b556000600d553480156200001b57600080fd5b50604051620018cb380380620018cb833981810160405260208110156200004157600080fd5b5051600080546001600160a01b031916331790556006805460ff191690556040805180820190915260038082526226a31960e91b6020929092019182526200008c9160029162000132565b506040805180820190915260038082526226a31960e91b6020909201918252620000b7918162000132565b506004805460ff19166012179081905560ff16600a0a81026005819055600080546001600160a01b0390811682526007602090815260408084208590558354815195865290519216937fddf252ad1be2c89b69c2b068fc378daa952ba7f163c4a11628f55a4df523b3ef929081900390910190a350620001ce565b828054600181600116156101000203166002900490600052602060002090601f016020900481019282601f106200017557805160ff1916838001178555620001a5565b82800160010185558215620001a5579182015b82811115620001a557825182559160200191906001019062000188565b50620001b3929150620001b7565b5090565b5b80821115620001b35760008155600101620001b8565b6116ed80620001de6000396000f3fe6080604052600436106101dc5760003560e01c80638da5cb5b11610102578063d4ee1d9011610095578063eac3458111610064578063eac345811461083b578063edfb2de114610850578063f2fde38b14610889578063ff3c2332146108bc576101f3565b8063d4ee1d9014610788578063d60f6bea1461079d578063dc39d06d146107c7578063dd62ed3e14610800576101f3565b8063a7d16f30116100d1578063a7d16f301461058c578063a9059cbb14610654578063cae9ca511461068d578063cfdb9a7c14610755576101f3565b80638da5cb5b1461052357806395d89b4114610538578063985c2ee61461054d578063992dc03f14610577576101f3565b806323b872dd1161017a578063388d295311610149578063388d29531461045c5780634f3dab0e146104a257806370a08231146104db57806379ba50971461050e576101f3565b806323b872dd1461038857806326aa3712146103cb5780632d1cdfa1146103fe578063313ce56714610431576101f3565b80630b92f747116101b65780630b92f747146102e157806316b2e5481461030b57806318160ddd146103375780631dc661391461035e576101f3565b80630335c7c1146101f557806306fdde031461021e578063095ea7b3146102a8576101f3565b366101f357600b546101ee90346108ef565b600b55005b005b34801561020157600080fd5b5061020a610905565b604080519115158252519081900360200190f35b34801561022a57600080fd5b5061023361090e565b6040805160208082528351818301528351919283929083019185019080838360005b8381101561026d578181015183820152602001610255565b50505050905090810190601f16801561029a5780820380516001836020036101000a031916815260200191505b509250505060405180910390f35b3480156102b457600080fd5b5061020a600480360360408110156102cb57600080fd5b506001600160a01b03813516906020013561099c565b3480156102ed57600080fd5b506101f36004803603602081101561030457600080fd5b5035610a72565b34801561031757600080fd5b5061020a6004803603602081101561032e57600080fd5b50351515610b33565b34801561034357600080fd5b5061034c610b62565b60408051918252519081900360200190f35b34801561036a57600080fd5b5061020a6004803603602081101561038157600080fd5b5035610b9f565b34801561039457600080fd5b5061020a600480360360608110156103ab57600080fd5b506001600160a01b03813581169160208101359091169060400135610bf9565b3480156103d757600080fd5b5061020a600480360360208110156103ee57600080fd5b50356001600160a01b0316610d4b565b34801561040a57600080fd5b5061020a6004803603602081101561042157600080fd5b50356001600160a01b0316610d89565b34801561043d57600080fd5b50610446610dbf565b6040805160ff9092168252519081900360200190f35b34801561046857600080fd5b506104866004803603602081101561047f57600080fd5b5035610dc8565b604080516001600160a01b039092168252519081900360200190f35b3480156104ae57600080fd5b506101f3600480360360408110156104c557600080fd5b506001600160a01b038135169060200135610de3565b3480156104e757600080fd5b5061034c600480360360208110156104fe57600080fd5b50356001600160a01b0316610e79565b34801561051a57600080fd5b506101f3610e94565b34801561052f57600080fd5b50610486610f0f565b34801561054457600080fd5b50610233610f1e565b34801561055957600080fd5b5061020a6004803603602081101561057057600080fd5b5035610f76565b34801561058357600080fd5b5061034c610fb2565b34801561059857600080fd5b506101f3600480360360608110156105af57600080fd5b6001600160a01b03823516916020810135918101906060810160408201356401000000008111156105df57600080fd5b8201836020820111156105f157600080fd5b8035906020019184600183028401116401000000008311171561061357600080fd5b91908080601f016020809104026020016040519081016040528093929190818152602001838380828437600092019190915250929550610fb8945050505050565b34801561066057600080fd5b5061020a6004803603604081101561067757600080fd5b506001600160a01b038135169060200135611079565b34801561069957600080fd5b5061020a600480360360608110156106b057600080fd5b6001600160a01b03823516916020810135918101906060810160408201356401000000008111156106e057600080fd5b8201836020820111156106f257600080fd5b8035906020019184600183028401116401000000008311171561071457600080fd5b91908080601f01602080910402602001604051908101604052809392919081815260200183838082843760009201919091525092955061118a945050505050565b34801561076157600080fd5b5061020a6004803603602081101561077857600080fd5b50356001600160a01b0316611300565b34801561079457600080fd5b50610486611336565b3480156107a957600080fd5b506101f3600480360360208110156107c057600080fd5b5035611345565b3480156107d357600080fd5b5061020a600480360360408110156107ea57600080fd5b506001600160a01b038135169060200135611361565b34801561080c57600080fd5b5061034c6004803603604081101561082357600080fd5b506001600160a01b0381358116916020013516611403565b34801561084757600080fd5b5061034c61142e565b34801561085c57600080fd5b506101f36004803603604081101561087357600080fd5b50803590602001356001600160a01b0316611434565b34801561089557600080fd5b506101f3600480360360208110156108ac57600080fd5b50356001600160a01b0316611479565b3480156108c857600080fd5b5061020a600480360360208110156108df57600080fd5b50356001600160a01b03166114b2565b818101828110156108ff57600080fd5b92915050565b60065460ff1681565b6003805460408051602060026001851615610100026000190190941693909304601f810184900484028201840190925281815292918301828280156109945780601f1061096957610100808354040283529160200191610994565b820191906000526020600020905b81548152906001019060200180831161097757829003601f168201915b505050505081565b6000604060443610156109ae57600080fd5b3360009081526009602052604090205464424c4f434b14156109d35760009150610a6b565b60065460ff1680156109fa5750336000908152600a6020526040902054657065726d697414155b15610a085760009150610a6b565b3360008181526008602090815260408083206001600160a01b03891680855290835292819020879055805187815290519293927f8c5be1e5ebec7d5bd14f71427d1e84f3dd0314c0f7b2291e5b200ac8c7c3b925929181900390910190a3600191505b5092915050565b6000610a7d33610e79565b905081811015610a8c57600080fd5b33600090815260076020526040902054610aa690836114ef565b336000908152600760205260408082209290925580546001600160a01b031681522054610ad390836108ef565b600080546001600160a01b0316815260076020526040902055610af63383611504565b60005b600d54811015610b2e576000818152600c6020526040902054610b26906001600160a01b03163385611570565b600101610af9565b505050565b600080546001600160a01b03163314610b4b57600080fd5b506006805460ff1916911515919091179055600190565b600080805260076020527f6d5257204ebe7d88fd91ae87941cb2dd9d8062b64ae5a2bd2d28ec40b9fbf6df54600554610b9a916114ef565b905090565b600080546001600160a01b03163314610bb757600080fd5b600080546040516001600160a01b039091169184156108fc02918591818181858888f19350505050158015610bf0573d6000803e3d6000fd5b50600192915050565b3360009081526009602052604081205464424c4f434b1415610c1d57506000610d44565b60065460ff168015610c445750336000908152600a6020526040902054657065726d697414155b15610c5157506000610d44565b6001600160a01b038416600090815260076020526040902054610c7490836114ef565b6001600160a01b0385166000908152600760209081526040808320939093556008815282822033835290522054610cab90836114ef565b6001600160a01b038086166000908152600860209081526040808320338452825280832094909455918616815260079091522054610ce990836108ef565b6001600160a01b0380851660008181526007602090815260409182902094909455805186815290519193928816927fddf252ad1be2c89b69c2b068fc378daa952ba7f163c4a11628f55a4df523b3ef92918290030190a35060015b9392505050565b600080546001600160a01b03163314610d6357600080fd5b506001600160a01b03166000908152600a60205260409020657065726d69749055600190565b600080546001600160a01b03163314610da157600080fd5b506001600160a01b0316600090815260096020526040812055600190565b60045460ff1681565b600c602052600090815260409020546001600160a01b031681565b6000546001600160a01b03163314610dfa57600080fd5b6040805163a9059cbb60e01b81523360048201526024810183905290516001600160a01b0384169163a9059cbb9160448083019260209291908290030181600087803b158015610e4957600080fd5b505af1158015610e5d573d6000803e3d6000fd5b505050506040513d6020811015610e7357600080fd5b50505050565b6001600160a01b031660009081526007602052604090205490565b6001546001600160a01b03163314610eab57600080fd5b600154600080546040516001600160a01b0393841693909116917f8be0079c531659141344cd1fd0a4f28419497f9722a3daafe3b4186f6b6457e091a360018054600080546001600160a01b03199081166001600160a01b03841617909155169055565b6000546001600160a01b031681565b6002805460408051602060018416156101000260001901909316849004601f810184900484028201840190925281815292918301828280156109945780601f1061096957610100808354040283529160200191610994565b600080546001600160a01b03163314610f8e57600080fd5b50600580548201905533600090815260076020526040902080549091019055600190565b600b5481565b6000546001600160a01b03163314610fcf57600080fd5b826001600160a01b031682826040518082805190602001908083835b6020831061100a5780518252601f199092019160209182019101610feb565b6001836020036101000a03801982511681845116808217855250505050505090500191505060006040518083038185875af1925050503d806000811461106c576040519150601f19603f3d011682016040523d82523d6000602084013e611071565b606091505b505050505050565b60006040604436101561108b57600080fd5b3360009081526009602052604090205464424c4f434b14156110b05760009150610a6b565b60065460ff1680156110d75750336000908152600a6020526040902054657065726d697414155b156110e55760009150610a6b565b336000908152600760205260409020546110ff90846114ef565b33600090815260076020526040808220929092556001600160a01b0386168152205461112b90846108ef565b6001600160a01b0385166000818152600760209081526040918290209390935580518681529051919233927fddf252ad1be2c89b69c2b068fc378daa952ba7f163c4a11628f55a4df523b3ef9281900390910190a35060019392505050565b3360009081526009602052604081205464424c4f434b14156111ae57506000610d44565b3360008181526008602090815260408083206001600160a01b03891680855290835292819020879055805187815290519293927f8c5be1e5ebec7d5bd14f71427d1e84f3dd0314c0f7b2291e5b200ac8c7c3b925929181900390910190a3836001600160a01b0316638f4ffcb1338530866040518563ffffffff1660e01b815260040180856001600160a01b03168152602001848152602001836001600160a01b0316815260200180602001828103825283818151815260200191508051906020019080838360005b8381101561128f578181015183820152602001611277565b50505050905090810190601f1680156112bc5780820380516001836020036101000a031916815260200191505b5095505050505050600060405180830381600087803b1580156112de57600080fd5b505af11580156112f2573d6000803e3d6000fd5b506001979650505050505050565b600080546001600160a01b0316331461131857600080fd5b506001600160a01b03166000908152600a6020526040812055600190565b6001546001600160a01b031681565b6000546001600160a01b0316331461135c57600080fd5b600d55565b600080546001600160a01b0316331461137957600080fd5b600080546040805163a9059cbb60e01b81526001600160a01b0392831660048201526024810186905290519186169263a9059cbb926044808401936020939083900390910190829087803b1580156113d057600080fd5b505af11580156113e4573d6000803e3d6000fd5b505050506040513d60208110156113fa57600080fd5b50519392505050565b6001600160a01b03918216600090815260086020908152604080832093909416825291909152205490565b600d5481565b6000546001600160a01b0316331461144b57600080fd5b6000918252600c602052604090912080546001600160a01b0319166001600160a01b03909216919091179055565b6000546001600160a01b0316331461149057600080fd5b600180546001600160a01b0319166001600160a01b0392909216919091179055565b600080546001600160a01b031633146114ca57600080fd5b506001600160a01b0316600090815260096020526040902064424c4f434b9055600190565b6000828211156114fe57600080fd5b50900390565b600061150e610b62565b905060008183600b54028161151f57fe5b0490506103e8811115610e7357604051606319909101906001600160a01b0385169082156108fc029083906000818181858888f19350505050158015611569573d6000803e3d6000fd5b5050505050565b6001600160a01b03831661158357610b2e565b600061158d610b62565b90506000846001600160a01b03166370a08231306040518263ffffffff1660e01b815260040180826001600160a01b0316815260200191505060206040518083038186803b1580156115de57600080fd5b505afa1580156115f2573d6000803e3d6000fd5b505050506040513d602081101561160857600080fd5b505190506000828483028161161957fe5b0490506103e881111561107157606481039050856001600160a01b031663a9059cbb86836040518363ffffffff1660e01b815260040180836001600160a01b0316815260200182815260200192505050602060405180830381600087803b15801561168357600080fd5b505af1158015611697573d6000803e3d6000fd5b505050506040513d60208110156116ad57600080fd5b505050505050505056fea26469706673582212208a9c00404f01e2310237cef97c18adc85f296941fbf8bfa2388068a73dbd6cc064736f6c634300060c0033",
					"opcodes": "PUSH1 0x80 PUSH1 0x40 MSTORE PUSH1 0x0 PUSH1 0xB SSTORE PUSH1 0x0 PUSH1 0xD SSTORE CALLVALUE DUP1 ISZERO PUSH3 0x1B JUMPI PUSH1 0x0 DUP1 REVERT JUMPDEST POP PUSH1 0x40 MLOAD PUSH3 0x18CB CODESIZE SUB DUP1 PUSH3 0x18CB DUP4 CODECOPY DUP2 DUP2 ADD PUSH1 0x40 MSTORE PUSH1 0x20 DUP2 LT ISZERO PUSH3 0x41 JUMPI PUSH1 0x0 DUP1 REVERT JUMPDEST POP MLOAD PUSH1 0x0 DUP1 SLOAD PUSH1 0x1 PUSH1 0x1 PUSH1 0xA0 SHL SUB NOT AND CALLER OR SWAP1 SSTORE PUSH1 0x6 DUP1 SLOAD PUSH1 0xFF NOT AND SWAP1 SSTORE PUSH1 0x40 DUP1 MLOAD DUP1 DUP3 ADD SWAP1 SWAP2 MSTORE PUSH1 0x3 DUP1 DUP3 MSTORE PUSH3 0x26A319 PUSH1 0xE9 SHL PUSH1 0x20 SWAP3 SWAP1 SWAP3 ADD SWAP2 DUP3 MSTORE PUSH3 0x8C SWAP2 PUSH1 0x2 SWAP2 PUSH3 0x132 JUMP JUMPDEST POP PUSH1 0x40 DUP1 MLOAD DUP1 DUP3 ADD SWAP1 SWAP2 MSTORE PUSH1 0x3 DUP1 DUP3 MSTORE PUSH3 0x26A319 PUSH1 0xE9 SHL PUSH1 0x20 SWAP1 SWAP3 ADD SWAP2 DUP3 MSTORE PUSH3 0xB7 SWAP2 DUP2 PUSH3 0x132 JUMP JUMPDEST POP PUSH1 0x4 DUP1 SLOAD PUSH1 0xFF NOT AND PUSH1 0x12 OR SWAP1 DUP2 SWAP1 SSTORE PUSH1 0xFF AND PUSH1 0xA EXP DUP2 MUL PUSH1 0x5 DUP2 SWAP1 SSTORE PUSH1 0x0 DUP1 SLOAD PUSH1 0x1 PUSH1 0x1 PUSH1 0xA0 SHL SUB SWAP1 DUP2 AND DUP3 MSTORE PUSH1 0x7 PUSH1 0x20 SWAP1 DUP2 MSTORE PUSH1 0x40 DUP1 DUP5 KECCAK256 DUP6 SWAP1 SSTORE DUP4 SLOAD DUP2 MLOAD SWAP6 DUP7 MSTORE SWAP1 MLOAD SWAP3 AND SWAP4 PUSH32 0xDDF252AD1BE2C89B69C2B068FC378DAA952BA7F163C4A11628F55A4DF523B3EF SWAP3 SWAP1 DUP2 SWAP1 SUB SWAP1 SWAP2 ADD SWAP1 LOG3 POP PUSH3 0x1CE JUMP JUMPDEST DUP3 DUP1 SLOAD PUSH1 0x1 DUP2 PUSH1 0x1 AND ISZERO PUSH2 0x100 MUL SUB AND PUSH1 0x2 SWAP1 DIV SWAP1 PUSH1 0x0 MSTORE PUSH1 0x20 PUSH1 0x0 KECCAK256 SWAP1 PUSH1 0x1F ADD PUSH1 0x20 SWAP1 DIV DUP2 ADD SWAP3 DUP3 PUSH1 0x1F LT PUSH3 0x175 JUMPI DUP1 MLOAD PUSH1 0xFF NOT AND DUP4 DUP1 ADD OR DUP6 SSTORE PUSH3 0x1A5 JUMP JUMPDEST DUP3 DUP1 ADD PUSH1 0x1 ADD DUP6 SSTORE DUP3 ISZERO PUSH3 0x1A5 JUMPI SWAP2 DUP3 ADD JUMPDEST DUP3 DUP2 GT ISZERO PUSH3 0x1A5 JUMPI DUP3 MLOAD DUP3 SSTORE SWAP2 PUSH1 0x20 ADD SWAP2 SWAP1 PUSH1 0x1 ADD SWAP1 PUSH3 0x188 JUMP JUMPDEST POP PUSH3 0x1B3 SWAP3 SWAP2 POP PUSH3 0x1B7 JUMP JUMPDEST POP SWAP1 JUMP JUMPDEST JUMPDEST DUP1 DUP3 GT ISZERO PUSH3 0x1B3 JUMPI PUSH1 0x0 DUP2 SSTORE PUSH1 0x1 ADD PUSH3 0x1B8 JUMP JUMPDEST PUSH2 0x16ED DUP1 PUSH3 0x1DE PUSH1 0x0 CODECOPY PUSH1 0x0 RETURN INVALID PUSH1 0x80 PUSH1 0x40 MSTORE PUSH1 0x4 CALLDATASIZE LT PUSH2 0x1DC JUMPI PUSH1 0x0 CALLDATALOAD PUSH1 0xE0 SHR DUP1 PUSH4 0x8DA5CB5B GT PUSH2 0x102 JUMPI DUP1 PUSH4 0xD4EE1D90 GT PUSH2 0x95 JUMPI DUP1 PUSH4 0xEAC34581 GT PUSH2 0x64 JUMPI DUP1 PUSH4 0xEAC34581 EQ PUSH2 0x83B JUMPI DUP1 PUSH4 0xEDFB2DE1 EQ PUSH2 0x850 JUMPI DUP1 PUSH4 0xF2FDE38B EQ PUSH2 0x889 JUMPI DUP1 PUSH4 0xFF3C2332 EQ PUSH2 0x8BC JUMPI PUSH2 0x1F3 JUMP JUMPDEST DUP1 PUSH4 0xD4EE1D90 EQ PUSH2 0x788 JUMPI DUP1 PUSH4 0xD60F6BEA EQ PUSH2 0x79D JUMPI DUP1 PUSH4 0xDC39D06D EQ PUSH2 0x7C7 JUMPI DUP1 PUSH4 0xDD62ED3E EQ PUSH2 0x800 JUMPI PUSH2 0x1F3 JUMP JUMPDEST DUP1 PUSH4 0xA7D16F30 GT PUSH2 0xD1 JUMPI DUP1 PUSH4 0xA7D16F30 EQ PUSH2 0x58C JUMPI DUP1 PUSH4 0xA9059CBB EQ PUSH2 0x654 JUMPI DUP1 PUSH4 0xCAE9CA51 EQ PUSH2 0x68D JUMPI DUP1 PUSH4 0xCFDB9A7C EQ PUSH2 0x755 JUMPI PUSH2 0x1F3 JUMP JUMPDEST DUP1 PUSH4 0x8DA5CB5B EQ PUSH2 0x523 JUMPI DUP1 PUSH4 0x95D89B41 EQ PUSH2 0x538 JUMPI DUP1 PUSH4 0x985C2EE6 EQ PUSH2 0x54D JUMPI DUP1 PUSH4 0x992DC03F EQ PUSH2 0x577 JUMPI PUSH2 0x1F3 JUMP JUMPDEST DUP1 PUSH4 0x23B872DD GT PUSH2 0x17A JUMPI DUP1 PUSH4 0x388D2953 GT PUSH2 0x149 JUMPI DUP1 PUSH4 0x388D2953 EQ PUSH2 0x45C JUMPI DUP1 PUSH4 0x4F3DAB0E EQ PUSH2 0x4A2 JUMPI DUP1 PUSH4 0x70A08231 EQ PUSH2 0x4DB JUMPI DUP1 PUSH4 0x79BA5097 EQ PUSH2 0x50E JUMPI PUSH2 0x1F3 JUMP JUMPDEST DUP1 PUSH4 0x23B872DD EQ PUSH2 0x388 JUMPI DUP1 PUSH4 0x26AA3712 EQ PUSH2 0x3CB JUMPI DUP1 PUSH4 0x2D1CDFA1 EQ PUSH2 0x3FE JUMPI DUP1 PUSH4 0x313CE567 EQ PUSH2 0x431 JUMPI PUSH2 0x1F3 JUMP JUMPDEST DUP1 PUSH4 0xB92F747 GT PUSH2 0x1B6 JUMPI DUP1 PUSH4 0xB92F747 EQ PUSH2 0x2E1 JUMPI DUP1 PUSH4 0x16B2E548 EQ PUSH2 0x30B JUMPI DUP1 PUSH4 0x18160DDD EQ PUSH2 0x337 JUMPI DUP1 PUSH4 0x1DC66139 EQ PUSH2 0x35E JUMPI PUSH2 0x1F3 JUMP JUMPDEST DUP1 PUSH4 0x335C7C1 EQ PUSH2 0x1F5 JUMPI DUP1 PUSH4 0x6FDDE03 EQ PUSH2 0x21E JUMPI DUP1 PUSH4 0x95EA7B3 EQ PUSH2 0x2A8 JUMPI PUSH2 0x1F3 JUMP JUMPDEST CALLDATASIZE PUSH2 0x1F3 JUMPI PUSH1 0xB SLOAD PUSH2 0x1EE SWAP1 CALLVALUE PUSH2 0x8EF JUMP JUMPDEST PUSH1 0xB SSTORE STOP JUMPDEST STOP JUMPDEST CALLVALUE DUP1 ISZERO PUSH2 0x201 JUMPI PUSH1 0x0 DUP1 REVERT JUMPDEST POP PUSH2 0x20A PUSH2 0x905 JUMP JUMPDEST PUSH1 0x40 DUP1 MLOAD SWAP2 ISZERO ISZERO DUP3 MSTORE MLOAD SWAP1 DUP2 SWAP1 SUB PUSH1 0x20 ADD SWAP1 RETURN JUMPDEST CALLVALUE DUP1 ISZERO PUSH2 0x22A JUMPI PUSH1 0x0 DUP1 REVERT JUMPDEST POP PUSH2 0x233 PUSH2 0x90E JUMP JUMPDEST PUSH1 0x40 DUP1 MLOAD PUSH1 0x20 DUP1 DUP3 MSTORE DUP4 MLOAD DUP2 DUP4 ADD MSTORE DUP4 MLOAD SWAP2 SWAP3 DUP4 SWAP3 SWAP1 DUP4 ADD SWAP2 DUP6 ADD SWAP1 DUP1 DUP4 DUP4 PUSH1 0x0 JUMPDEST DUP4 DUP2 LT ISZERO PUSH2 0x26D JUMPI DUP2 DUP2 ADD MLOAD DUP4 DUP3 ADD MSTORE PUSH1 0x20 ADD PUSH2 0x255 JUMP JUMPDEST POP POP POP POP SWAP1 POP SWAP1 DUP2 ADD SWAP1 PUSH1 0x1F AND DUP1 ISZERO PUSH2 0x29A JUMPI DUP1 DUP3 SUB DUP1 MLOAD PUSH1 0x1 DUP4 PUSH1 0x20 SUB PUSH2 0x100 EXP SUB NOT AND DUP2 MSTORE PUSH1 0x20 ADD SWAP2 POP JUMPDEST POP SWAP3 POP POP POP PUSH1 0x40 MLOAD DUP1 SWAP2 SUB SWAP1 RETURN JUMPDEST CALLVALUE DUP1 ISZERO PUSH2 0x2B4 JUMPI PUSH1 0x0 DUP1 REVERT JUMPDEST POP PUSH2 0x20A PUSH1 0x4 DUP1 CALLDATASIZE SUB PUSH1 0x40 DUP2 LT ISZERO PUSH2 0x2CB JUMPI PUSH1 0x0 DUP1 REVERT JUMPDEST POP PUSH1 0x1 PUSH1 0x1 PUSH1 0xA0 SHL SUB DUP2 CALLDATALOAD AND SWAP1 PUSH1 0x20 ADD CALLDATALOAD PUSH2 0x99C JUMP JUMPDEST CALLVALUE DUP1 ISZERO PUSH2 0x2ED JUMPI PUSH1 0x0 DUP1 REVERT JUMPDEST POP PUSH2 0x1F3 PUSH1 0x4 DUP1 CALLDATASIZE SUB PUSH1 0x20 DUP2 LT ISZERO PUSH2 0x304 JUMPI PUSH1 0x0 DUP1 REVERT JUMPDEST POP CALLDATALOAD PUSH2 0xA72 JUMP JUMPDEST CALLVALUE DUP1 ISZERO PUSH2 0x317 JUMPI PUSH1 0x0 DUP1 REVERT JUMPDEST POP PUSH2 0x20A PUSH1 0x4 DUP1 CALLDATASIZE SUB PUSH1 0x20 DUP2 LT ISZERO PUSH2 0x32E JUMPI PUSH1 0x0 DUP1 REVERT JUMPDEST POP CALLDATALOAD ISZERO ISZERO PUSH2 0xB33 JUMP JUMPDEST CALLVALUE DUP1 ISZERO PUSH2 0x343 JUMPI PUSH1 0x0 DUP1 REVERT JUMPDEST POP PUSH2 0x34C PUSH2 0xB62 JUMP JUMPDEST PUSH1 0x40 DUP1 MLOAD SWAP2 DUP3 MSTORE MLOAD SWAP1 DUP2 SWAP1 SUB PUSH1 0x20 ADD SWAP1 RETURN JUMPDEST CALLVALUE DUP1 ISZERO PUSH2 0x36A JUMPI PUSH1 0x0 DUP1 REVERT JUMPDEST POP PUSH2 0x20A PUSH1 0x4 DUP1 CALLDATASIZE SUB PUSH1 0x20 DUP2 LT ISZERO PUSH2 0x381 JUMPI PUSH1 0x0 DUP1 REVERT JUMPDEST POP CALLDATALOAD PUSH2 0xB9F JUMP JUMPDEST CALLVALUE DUP1 ISZERO PUSH2 0x394 JUMPI PUSH1 0x0 DUP1 REVERT JUMPDEST POP PUSH2 0x20A PUSH1 0x4 DUP1 CALLDATASIZE SUB PUSH1 0x60 DUP2 LT ISZERO PUSH2 0x3AB JUMPI PUSH1 0x0 DUP1 REVERT JUMPDEST POP PUSH1 0x1 PUSH1 0x1 PUSH1 0xA0 SHL SUB DUP2 CALLDATALOAD DUP2 AND SWAP2 PUSH1 0x20 DUP2 ADD CALLDATALOAD SWAP1 SWAP2 AND SWAP1 PUSH1 0x40 ADD CALLDATALOAD PUSH2 0xBF9 JUMP JUMPDEST CALLVALUE DUP1 ISZERO PUSH2 0x3D7 JUMPI PUSH1 0x0 DUP1 REVERT JUMPDEST POP PUSH2 0x20A PUSH1 0x4 DUP1 CALLDATASIZE SUB PUSH1 0x20 DUP2 LT ISZERO PUSH2 0x3EE JUMPI PUSH1 0x0 DUP1 REVERT JUMPDEST POP CALLDATALOAD PUSH1 0x1 PUSH1 0x1 PUSH1 0xA0 SHL SUB AND PUSH2 0xD4B JUMP JUMPDEST CALLVALUE DUP1 ISZERO PUSH2 0x40A JUMPI PUSH1 0x0 DUP1 REVERT JUMPDEST POP PUSH2 0x20A PUSH1 0x4 DUP1 CALLDATASIZE SUB PUSH1 0x20 DUP2 LT ISZERO PUSH2 0x421 JUMPI PUSH1 0x0 DUP1 REVERT JUMPDEST POP CALLDATALOAD PUSH1 0x1 PUSH1 0x1 PUSH1 0xA0 SHL SUB AND PUSH2 0xD89 JUMP JUMPDEST CALLVALUE DUP1 ISZERO PUSH2 0x43D JUMPI PUSH1 0x0 DUP1 REVERT JUMPDEST POP PUSH2 0x446 PUSH2 0xDBF JUMP JUMPDEST PUSH1 0x40 DUP1 MLOAD PUSH1 0xFF SWAP1 SWAP3 AND DUP3 MSTORE MLOAD SWAP1 DUP2 SWAP1 SUB PUSH1 0x20 ADD SWAP1 RETURN JUMPDEST CALLVALUE DUP1 ISZERO PUSH2 0x468 JUMPI PUSH1 0x0 DUP1 REVERT JUMPDEST POP PUSH2 0x486 PUSH1 0x4 DUP1 CALLDATASIZE SUB PUSH1 0x20 DUP2 LT ISZERO PUSH2 0x47F JUMPI PUSH1 0x0 DUP1 REVERT JUMPDEST POP CALLDATALOAD PUSH2 0xDC8 JUMP JUMPDEST PUSH1 0x40 DUP1 MLOAD PUSH1 0x1 PUSH1 0x1 PUSH1 0xA0 SHL SUB SWAP1 SWAP3 AND DUP3 MSTORE MLOAD SWAP1 DUP2 SWAP1 SUB PUSH1 0x20 ADD SWAP1 RETURN JUMPDEST CALLVALUE DUP1 ISZERO PUSH2 0x4AE JUMPI PUSH1 0x0 DUP1 REVERT JUMPDEST POP PUSH2 0x1F3 PUSH1 0x4 DUP1 CALLDATASIZE SUB PUSH1 0x40 DUP2 LT ISZERO PUSH2 0x4C5 JUMPI PUSH1 0x0 DUP1 REVERT JUMPDEST POP PUSH1 0x1 PUSH1 0x1 PUSH1 0xA0 SHL SUB DUP2 CALLDATALOAD AND SWAP1 PUSH1 0x20 ADD CALLDATALOAD PUSH2 0xDE3 JUMP JUMPDEST CALLVALUE DUP1 ISZERO PUSH2 0x4E7 JUMPI PUSH1 0x0 DUP1 REVERT JUMPDEST POP PUSH2 0x34C PUSH1 0x4 DUP1 CALLDATASIZE SUB PUSH1 0x20 DUP2 LT ISZERO PUSH2 0x4FE JUMPI PUSH1 0x0 DUP1 REVERT JUMPDEST POP CALLDATALOAD PUSH1 0x1 PUSH1 0x1 PUSH1 0xA0 SHL SUB AND PUSH2 0xE79 JUMP JUMPDEST CALLVALUE DUP1 ISZERO PUSH2 0x51A JUMPI PUSH1 0x0 DUP1 REVERT JUMPDEST POP PUSH2 0x1F3 PUSH2 0xE94 JUMP JUMPDEST CALLVALUE DUP1 ISZERO PUSH2 0x52F JUMPI PUSH1 0x0 DUP1 REVERT JUMPDEST POP PUSH2 0x486 PUSH2 0xF0F JUMP JUMPDEST CALLVALUE DUP1 ISZERO PUSH2 0x544 JUMPI PUSH1 0x0 DUP1 REVERT JUMPDEST POP PUSH2 0x233 PUSH2 0xF1E JUMP JUMPDEST CALLVALUE DUP1 ISZERO PUSH2 0x559 JUMPI PUSH1 0x0 DUP1 REVERT JUMPDEST POP PUSH2 0x20A PUSH1 0x4 DUP1 CALLDATASIZE SUB PUSH1 0x20 DUP2 LT ISZERO PUSH2 0x570 JUMPI PUSH1 0x0 DUP1 REVERT JUMPDEST POP CALLDATALOAD PUSH2 0xF76 JUMP JUMPDEST CALLVALUE DUP1 ISZERO PUSH2 0x583 JUMPI PUSH1 0x0 DUP1 REVERT JUMPDEST POP PUSH2 0x34C PUSH2 0xFB2 JUMP JUMPDEST CALLVALUE DUP1 ISZERO PUSH2 0x598 JUMPI PUSH1 0x0 DUP1 REVERT JUMPDEST POP PUSH2 0x1F3 PUSH1 0x4 DUP1 CALLDATASIZE SUB PUSH1 0x60 DUP2 LT ISZERO PUSH2 0x5AF JUMPI PUSH1 0x0 DUP1 REVERT JUMPDEST PUSH1 0x1 PUSH1 0x1 PUSH1 0xA0 SHL SUB DUP3 CALLDATALOAD AND SWAP2 PUSH1 0x20 DUP2 ADD CALLDATALOAD SWAP2 DUP2 ADD SWAP1 PUSH1 0x60 DUP2 ADD PUSH1 0x40 DUP3 ADD CALLDATALOAD PUSH5 0x100000000 DUP2 GT ISZERO PUSH2 0x5DF JUMPI PUSH1 0x0 DUP1 REVERT JUMPDEST DUP3 ADD DUP4 PUSH1 0x20 DUP3 ADD GT ISZERO PUSH2 0x5F1 JUMPI PUSH1 0x0 DUP1 REVERT JUMPDEST DUP1 CALLDATALOAD SWAP1 PUSH1 0x20 ADD SWAP2 DUP5 PUSH1 0x1 DUP4 MUL DUP5 ADD GT PUSH5 0x100000000 DUP4 GT OR ISZERO PUSH2 0x613 JUMPI PUSH1 0x0 DUP1 REVERT JUMPDEST SWAP2 SWAP1 DUP1 DUP1 PUSH1 0x1F ADD PUSH1 0x20 DUP1 SWAP2 DIV MUL PUSH1 0x20 ADD PUSH1 0x40 MLOAD SWAP1 DUP2 ADD PUSH1 0x40 MSTORE DUP1 SWAP4 SWAP3 SWAP2 SWAP1 DUP2 DUP2 MSTORE PUSH1 0x20 ADD DUP4 DUP4 DUP1 DUP3 DUP5 CALLDATACOPY PUSH1 0x0 SWAP3 ADD SWAP2 SWAP1 SWAP2 MSTORE POP SWAP3 SWAP6 POP PUSH2 0xFB8 SWAP5 POP POP POP POP POP JUMP JUMPDEST CALLVALUE DUP1 ISZERO PUSH2 0x660 JUMPI PUSH1 0x0 DUP1 REVERT JUMPDEST POP PUSH2 0x20A PUSH1 0x4 DUP1 CALLDATASIZE SUB PUSH1 0x40 DUP2 LT ISZERO PUSH2 0x677 JUMPI PUSH1 0x0 DUP1 REVERT JUMPDEST POP PUSH1 0x1 PUSH1 0x1 PUSH1 0xA0 SHL SUB DUP2 CALLDATALOAD AND SWAP1 PUSH1 0x20 ADD CALLDATALOAD PUSH2 0x1079 JUMP JUMPDEST CALLVALUE DUP1 ISZERO PUSH2 0x699 JUMPI PUSH1 0x0 DUP1 REVERT JUMPDEST POP PUSH2 0x20A PUSH1 0x4 DUP1 CALLDATASIZE SUB PUSH1 0x60 DUP2 LT ISZERO PUSH2 0x6B0 JUMPI PUSH1 0x0 DUP1 REVERT JUMPDEST PUSH1 0x1 PUSH1 0x1 PUSH1 0xA0 SHL SUB DUP3 CALLDATALOAD AND SWAP2 PUSH1 0x20 DUP2 ADD CALLDATALOAD SWAP2 DUP2 ADD SWAP1 PUSH1 0x60 DUP2 ADD PUSH1 0x40 DUP3 ADD CALLDATALOAD PUSH5 0x100000000 DUP2 GT ISZERO PUSH2 0x6E0 JUMPI PUSH1 0x0 DUP1 REVERT JUMPDEST DUP3 ADD DUP4 PUSH1 0x20 DUP3 ADD GT ISZERO PUSH2 0x6F2 JUMPI PUSH1 0x0 DUP1 REVERT JUMPDEST DUP1 CALLDATALOAD SWAP1 PUSH1 0x20 ADD SWAP2 DUP5 PUSH1 0x1 DUP4 MUL DUP5 ADD GT PUSH5 0x100000000 DUP4 GT OR ISZERO PUSH2 0x714 JUMPI PUSH1 0x0 DUP1 REVERT JUMPDEST SWAP2 SWAP1 DUP1 DUP1 PUSH1 0x1F ADD PUSH1 0x20 DUP1 SWAP2 DIV MUL PUSH1 0x20 ADD PUSH1 0x40 MLOAD SWAP1 DUP2 ADD PUSH1 0x40 MSTORE DUP1 SWAP4 SWAP3 SWAP2 SWAP1 DUP2 DUP2 MSTORE PUSH1 0x20 ADD DUP4 DUP4 DUP1 DUP3 DUP5 CALLDATACOPY PUSH1 0x0 SWAP3 ADD SWAP2 SWAP1 SWAP2 MSTORE POP SWAP3 SWAP6 POP PUSH2 0x118A SWAP5 POP POP POP POP POP JUMP JUMPDEST CALLVALUE DUP1 ISZERO PUSH2 0x761 JUMPI PUSH1 0x0 DUP1 REVERT JUMPDEST POP PUSH2 0x20A PUSH1 0x4 DUP1 CALLDATASIZE SUB PUSH1 0x20 DUP2 LT ISZERO PUSH2 0x778 JUMPI PUSH1 0x0 DUP1 REVERT JUMPDEST POP CALLDATALOAD PUSH1 0x1 PUSH1 0x1 PUSH1 0xA0 SHL SUB AND PUSH2 0x1300 JUMP JUMPDEST CALLVALUE DUP1 ISZERO PUSH2 0x794 JUMPI PUSH1 0x0 DUP1 REVERT JUMPDEST POP PUSH2 0x486 PUSH2 0x1336 JUMP JUMPDEST CALLVALUE DUP1 ISZERO PUSH2 0x7A9 JUMPI PUSH1 0x0 DUP1 REVERT JUMPDEST POP PUSH2 0x1F3 PUSH1 0x4 DUP1 CALLDATASIZE SUB PUSH1 0x20 DUP2 LT ISZERO PUSH2 0x7C0 JUMPI PUSH1 0x0 DUP1 REVERT JUMPDEST POP CALLDATALOAD PUSH2 0x1345 JUMP JUMPDEST CALLVALUE DUP1 ISZERO PUSH2 0x7D3 JUMPI PUSH1 0x0 DUP1 REVERT JUMPDEST POP PUSH2 0x20A PUSH1 0x4 DUP1 CALLDATASIZE SUB PUSH1 0x40 DUP2 LT ISZERO PUSH2 0x7EA JUMPI PUSH1 0x0 DUP1 REVERT JUMPDEST POP PUSH1 0x1 PUSH1 0x1 PUSH1 0xA0 SHL SUB DUP2 CALLDATALOAD AND SWAP1 PUSH1 0x20 ADD CALLDATALOAD PUSH2 0x1361 JUMP JUMPDEST CALLVALUE DUP1 ISZERO PUSH2 0x80C JUMPI PUSH1 0x0 DUP1 REVERT JUMPDEST POP PUSH2 0x34C PUSH1 0x4 DUP1 CALLDATASIZE SUB PUSH1 0x40 DUP2 LT ISZERO PUSH2 0x823 JUMPI PUSH1 0x0 DUP1 REVERT JUMPDEST POP PUSH1 0x1 PUSH1 0x1 PUSH1 0xA0 SHL SUB DUP2 CALLDATALOAD DUP2 AND SWAP2 PUSH1 0x20 ADD CALLDATALOAD AND PUSH2 0x1403 JUMP JUMPDEST CALLVALUE DUP1 ISZERO PUSH2 0x847 JUMPI PUSH1 0x0 DUP1 REVERT JUMPDEST POP PUSH2 0x34C PUSH2 0x142E JUMP JUMPDEST CALLVALUE DUP1 ISZERO PUSH2 0x85C JUMPI PUSH1 0x0 DUP1 REVERT JUMPDEST POP PUSH2 0x1F3 PUSH1 0x4 DUP1 CALLDATASIZE SUB PUSH1 0x40 DUP2 LT ISZERO PUSH2 0x873 JUMPI PUSH1 0x0 DUP1 REVERT JUMPDEST POP DUP1 CALLDATALOAD SWAP1 PUSH1 0x20 ADD CALLDATALOAD PUSH1 0x1 PUSH1 0x1 PUSH1 0xA0 SHL SUB AND PUSH2 0x1434 JUMP JUMPDEST CALLVALUE DUP1 ISZERO PUSH2 0x895 JUMPI PUSH1 0x0 DUP1 REVERT JUMPDEST POP PUSH2 0x1F3 PUSH1 0x4 DUP1 CALLDATASIZE SUB PUSH1 0x20 DUP2 LT ISZERO PUSH2 0x8AC JUMPI PUSH1 0x0 DUP1 REVERT JUMPDEST POP CALLDATALOAD PUSH1 0x1 PUSH1 0x1 PUSH1 0xA0 SHL SUB AND PUSH2 0x1479 JUMP JUMPDEST CALLVALUE DUP1 ISZERO PUSH2 0x8C8 JUMPI PUSH1 0x0 DUP1 REVERT JUMPDEST POP PUSH2 0x20A PUSH1 0x4 DUP1 CALLDATASIZE SUB PUSH1 0x20 DUP2 LT ISZERO PUSH2 0x8DF JUMPI PUSH1 0x0 DUP1 REVERT JUMPDEST POP CALLDATALOAD PUSH1 0x1 PUSH1 0x1 PUSH1 0xA0 SHL SUB AND PUSH2 0x14B2 JUMP JUMPDEST DUP2 DUP2 ADD DUP3 DUP2 LT ISZERO PUSH2 0x8FF JUMPI PUSH1 0x0 DUP1 REVERT JUMPDEST SWAP3 SWAP2 POP POP JUMP JUMPDEST PUSH1 0x6 SLOAD PUSH1 0xFF AND DUP2 JUMP JUMPDEST PUSH1 0x3 DUP1 SLOAD PUSH1 0x40 DUP1 MLOAD PUSH1 0x20 PUSH1 0x2 PUSH1 0x1 DUP6 AND ISZERO PUSH2 0x100 MUL PUSH1 0x0 NOT ADD SWAP1 SWAP5 AND SWAP4 SWAP1 SWAP4 DIV PUSH1 0x1F DUP2 ADD DUP5 SWAP1 DIV DUP5 MUL DUP3 ADD DUP5 ADD SWAP1 SWAP3 MSTORE DUP2 DUP2 MSTORE SWAP3 SWAP2 DUP4 ADD DUP3 DUP3 DUP1 ISZERO PUSH2 0x994 JUMPI DUP1 PUSH1 0x1F LT PUSH2 0x969 JUMPI PUSH2 0x100 DUP1 DUP4 SLOAD DIV MUL DUP4 MSTORE SWAP2 PUSH1 0x20 ADD SWAP2 PUSH2 0x994 JUMP JUMPDEST DUP3 ADD SWAP2 SWAP1 PUSH1 0x0 MSTORE PUSH1 0x20 PUSH1 0x0 KECCAK256 SWAP1 JUMPDEST DUP2 SLOAD DUP2 MSTORE SWAP1 PUSH1 0x1 ADD SWAP1 PUSH1 0x20 ADD DUP1 DUP4 GT PUSH2 0x977 JUMPI DUP3 SWAP1 SUB PUSH1 0x1F AND DUP3 ADD SWAP2 JUMPDEST POP POP POP POP POP DUP2 JUMP JUMPDEST PUSH1 0x0 PUSH1 0x40 PUSH1 0x44 CALLDATASIZE LT ISZERO PUSH2 0x9AE JUMPI PUSH1 0x0 DUP1 REVERT JUMPDEST CALLER PUSH1 0x0 SWAP1 DUP2 MSTORE PUSH1 0x9 PUSH1 0x20 MSTORE PUSH1 0x40 SWAP1 KECCAK256 SLOAD PUSH5 0x424C4F434B EQ ISZERO PUSH2 0x9D3 JUMPI PUSH1 0x0 SWAP2 POP PUSH2 0xA6B JUMP JUMPDEST PUSH1 0x6 SLOAD PUSH1 0xFF AND DUP1 ISZERO PUSH2 0x9FA JUMPI POP CALLER PUSH1 0x0 SWAP1 DUP2 MSTORE PUSH1 0xA PUSH1 0x20 MSTORE PUSH1 0x40 SWAP1 KECCAK256 SLOAD PUSH6 0x7065726D6974 EQ ISZERO JUMPDEST ISZERO PUSH2 0xA08 JUMPI PUSH1 0x0 SWAP2 POP PUSH2 0xA6B JUMP JUMPDEST CALLER PUSH1 0x0 DUP2 DUP2 MSTORE PUSH1 0x8 PUSH1 0x20 SWAP1 DUP2 MSTORE PUSH1 0x40 DUP1 DUP4 KECCAK256 PUSH1 0x1 PUSH1 0x1 PUSH1 0xA0 SHL SUB DUP10 AND DUP1 DUP6 MSTORE SWAP1 DUP4 MSTORE SWAP3 DUP2 SWAP1 KECCAK256 DUP8 SWAP1 SSTORE DUP1 MLOAD DUP8 DUP2 MSTORE SWAP1 MLOAD SWAP3 SWAP4 SWAP3 PUSH32 0x8C5BE1E5EBEC7D5BD14F71427D1E84F3DD0314C0F7B2291E5B200AC8C7C3B925 SWAP3 SWAP2 DUP2 SWAP1 SUB SWAP1 SWAP2 ADD SWAP1 LOG3 PUSH1 0x1 SWAP2 POP JUMPDEST POP SWAP3 SWAP2 POP POP JUMP JUMPDEST PUSH1 0x0 PUSH2 0xA7D CALLER PUSH2 0xE79 JUMP JUMPDEST SWAP1 POP DUP2 DUP2 LT ISZERO PUSH2 0xA8C JUMPI PUSH1 0x0 DUP1 REVERT JUMPDEST CALLER PUSH1 0x0 SWAP1 DUP2 MSTORE PUSH1 0x7 PUSH1 0x20 MSTORE PUSH1 0x40 SWAP1 KECCAK256 SLOAD PUSH2 0xAA6 SWAP1 DUP4 PUSH2 0x14EF JUMP JUMPDEST CALLER PUSH1 0x0 SWAP1 DUP2 MSTORE PUSH1 0x7 PUSH1 0x20 MSTORE PUSH1 0x40 DUP1 DUP3 KECCAK256 SWAP3 SWAP1 SWAP3 SSTORE DUP1 SLOAD PUSH1 0x1 PUSH1 0x1 PUSH1 0xA0 SHL SUB AND DUP2 MSTORE KECCAK256 SLOAD PUSH2 0xAD3 SWAP1 DUP4 PUSH2 0x8EF JUMP JUMPDEST PUSH1 0x0 DUP1 SLOAD PUSH1 0x1 PUSH1 0x1 PUSH1 0xA0 SHL SUB AND DUP2 MSTORE PUSH1 0x7 PUSH1 0x20 MSTORE PUSH1 0x40 SWAP1 KECCAK256 SSTORE PUSH2 0xAF6 CALLER DUP4 PUSH2 0x1504 JUMP JUMPDEST PUSH1 0x0 JUMPDEST PUSH1 0xD SLOAD DUP2 LT ISZERO PUSH2 0xB2E JUMPI PUSH1 0x0 DUP2 DUP2 MSTORE PUSH1 0xC PUSH1 0x20 MSTORE PUSH1 0x40 SWAP1 KECCAK256 SLOAD PUSH2 0xB26 SWAP1 PUSH1 0x1 PUSH1 0x1 PUSH1 0xA0 SHL SUB AND CALLER DUP6 PUSH2 0x1570 JUMP JUMPDEST PUSH1 0x1 ADD PUSH2 0xAF9 JUMP JUMPDEST POP POP POP JUMP JUMPDEST PUSH1 0x0 DUP1 SLOAD PUSH1 0x1 PUSH1 0x1 PUSH1 0xA0 SHL SUB AND CALLER EQ PUSH2 0xB4B JUMPI PUSH1 0x0 DUP1 REVERT JUMPDEST POP PUSH1 0x6 DUP1 SLOAD PUSH1 0xFF NOT AND SWAP2 ISZERO ISZERO SWAP2 SWAP1 SWAP2 OR SWAP1 SSTORE PUSH1 0x1 SWAP1 JUMP JUMPDEST PUSH1 0x0 DUP1 DUP1 MSTORE PUSH1 0x7 PUSH1 0x20 MSTORE PUSH32 0x6D5257204EBE7D88FD91AE87941CB2DD9D8062B64AE5A2BD2D28EC40B9FBF6DF SLOAD PUSH1 0x5 SLOAD PUSH2 0xB9A SWAP2 PUSH2 0x14EF JUMP JUMPDEST SWAP1 POP SWAP1 JUMP JUMPDEST PUSH1 0x0 DUP1 SLOAD PUSH1 0x1 PUSH1 0x1 PUSH1 0xA0 SHL SUB AND CALLER EQ PUSH2 0xBB7 JUMPI PUSH1 0x0 DUP1 REVERT JUMPDEST PUSH1 0x0 DUP1 SLOAD PUSH1 0x40 MLOAD PUSH1 0x1 PUSH1 0x1 PUSH1 0xA0 SHL SUB SWAP1 SWAP2 AND SWAP2 DUP5 ISZERO PUSH2 0x8FC MUL SWAP2 DUP6 SWAP2 DUP2 DUP2 DUP2 DUP6 DUP9 DUP9 CALL SWAP4 POP POP POP POP ISZERO DUP1 ISZERO PUSH2 0xBF0 JUMPI RETURNDATASIZE PUSH1 0x0 DUP1 RETURNDATACOPY RETURNDATASIZE PUSH1 0x0 REVERT JUMPDEST POP PUSH1 0x1 SWAP3 SWAP2 POP POP JUMP JUMPDEST CALLER PUSH1 0x0 SWAP1 DUP2 MSTORE PUSH1 0x9 PUSH1 0x20 MSTORE PUSH1 0x40 DUP2 KECCAK256 SLOAD PUSH5 0x424C4F434B EQ ISZERO PUSH2 0xC1D JUMPI POP PUSH1 0x0 PUSH2 0xD44 JUMP JUMPDEST PUSH1 0x6 SLOAD PUSH1 0xFF AND DUP1 ISZERO PUSH2 0xC44 JUMPI POP CALLER PUSH1 0x0 SWAP1 DUP2 MSTORE PUSH1 0xA PUSH1 0x20 MSTORE PUSH1 0x40 SWAP1 KECCAK256 SLOAD PUSH6 0x7065726D6974 EQ ISZERO JUMPDEST ISZERO PUSH2 0xC51 JUMPI POP PUSH1 0x0 PUSH2 0xD44 JUMP JUMPDEST PUSH1 0x1 PUSH1 0x1 PUSH1 0xA0 SHL SUB DUP5 AND PUSH1 0x0 SWAP1 DUP2 MSTORE PUSH1 0x7 PUSH1 0x20 MSTORE PUSH1 0x40 SWAP1 KECCAK256 SLOAD PUSH2 0xC74 SWAP1 DUP4 PUSH2 0x14EF JUMP JUMPDEST PUSH1 0x1 PUSH1 0x1 PUSH1 0xA0 SHL SUB DUP6 AND PUSH1 0x0 SWAP1 DUP2 MSTORE PUSH1 0x7 PUSH1 0x20 SWAP1 DUP2 MSTORE PUSH1 0x40 DUP1 DUP4 KECCAK256 SWAP4 SWAP1 SWAP4 SSTORE PUSH1 0x8 DUP2 MSTORE DUP3 DUP3 KECCAK256 CALLER DUP4 MSTORE SWAP1 MSTORE KECCAK256 SLOAD PUSH2 0xCAB SWAP1 DUP4 PUSH2 0x14EF JUMP JUMPDEST PUSH1 0x1 PUSH1 0x1 PUSH1 0xA0 SHL SUB DUP1 DUP7 AND PUSH1 0x0 SWAP1 DUP2 MSTORE PUSH1 0x8 PUSH1 0x20 SWAP1 DUP2 MSTORE PUSH1 0x40 DUP1 DUP4 KECCAK256 CALLER DUP5 MSTORE DUP3 MSTORE DUP1 DUP4 KECCAK256 SWAP5 SWAP1 SWAP5 SSTORE SWAP2 DUP7 AND DUP2 MSTORE PUSH1 0x7 SWAP1 SWAP2 MSTORE KECCAK256 SLOAD PUSH2 0xCE9 SWAP1 DUP4 PUSH2 0x8EF JUMP JUMPDEST PUSH1 0x1 PUSH1 0x1 PUSH1 0xA0 SHL SUB DUP1 DUP6 AND PUSH1 0x0 DUP2 DUP2 MSTORE PUSH1 0x7 PUSH1 0x20 SWAP1 DUP2 MSTORE PUSH1 0x40 SWAP2 DUP3 SWAP1 KECCAK256 SWAP5 SWAP1 SWAP5 SSTORE DUP1 MLOAD DUP7 DUP2 MSTORE SWAP1 MLOAD SWAP2 SWAP4 SWAP3 DUP9 AND SWAP3 PUSH32 0xDDF252AD1BE2C89B69C2B068FC378DAA952BA7F163C4A11628F55A4DF523B3EF SWAP3 SWAP2 DUP3 SWAP1 SUB ADD SWAP1 LOG3 POP PUSH1 0x1 JUMPDEST SWAP4 SWAP3 POP POP POP JUMP JUMPDEST PUSH1 0x0 DUP1 SLOAD PUSH1 0x1 PUSH1 0x1 PUSH1 0xA0 SHL SUB AND CALLER EQ PUSH2 0xD63 JUMPI PUSH1 0x0 DUP1 REVERT JUMPDEST POP PUSH1 0x1 PUSH1 0x1 PUSH1 0xA0 SHL SUB AND PUSH1 0x0 SWAP1 DUP2 MSTORE PUSH1 0xA PUSH1 0x20 MSTORE PUSH1 0x40 SWAP1 KECCAK256 PUSH6 0x7065726D6974 SWAP1 SSTORE PUSH1 0x1 SWAP1 JUMP JUMPDEST PUSH1 0x0 DUP1 SLOAD PUSH1 0x1 PUSH1 0x1 PUSH1 0xA0 SHL SUB AND CALLER EQ PUSH2 0xDA1 JUMPI PUSH1 0x0 DUP1 REVERT JUMPDEST POP PUSH1 0x1 PUSH1 0x1 PUSH1 0xA0 SHL SUB AND PUSH1 0x0 SWAP1 DUP2 MSTORE PUSH1 0x9 PUSH1 0x20 MSTORE PUSH1 0x40 DUP2 KECCAK256 SSTORE PUSH1 0x1 SWAP1 JUMP JUMPDEST PUSH1 0x4 SLOAD PUSH1 0xFF AND DUP2 JUMP JUMPDEST PUSH1 0xC PUSH1 0x20 MSTORE PUSH1 0x0 SWAP1 DUP2 MSTORE PUSH1 0x40 SWAP1 KECCAK256 SLOAD PUSH1 0x1 PUSH1 0x1 PUSH1 0xA0 SHL SUB AND DUP2 JUMP JUMPDEST PUSH1 0x0 SLOAD PUSH1 0x1 PUSH1 0x1 PUSH1 0xA0 SHL SUB AND CALLER EQ PUSH2 0xDFA JUMPI PUSH1 0x0 DUP1 REVERT JUMPDEST PUSH1 0x40 DUP1 MLOAD PUSH4 0xA9059CBB PUSH1 0xE0 SHL DUP2 MSTORE CALLER PUSH1 0x4 DUP3 ADD MSTORE PUSH1 0x24 DUP2 ADD DUP4 SWAP1 MSTORE SWAP1 MLOAD PUSH1 0x1 PUSH1 0x1 PUSH1 0xA0 SHL SUB DUP5 AND SWAP2 PUSH4 0xA9059CBB SWAP2 PUSH1 0x44 DUP1 DUP4 ADD SWAP3 PUSH1 0x20 SWAP3 SWAP2 SWAP1 DUP3 SWAP1 SUB ADD DUP2 PUSH1 0x0 DUP8 DUP1 EXTCODESIZE ISZERO DUP1 ISZERO PUSH2 0xE49 JUMPI PUSH1 0x0 DUP1 REVERT JUMPDEST POP GAS CALL ISZERO DUP1 ISZERO PUSH2 0xE5D JUMPI RETURNDATASIZE PUSH1 0x0 DUP1 RETURNDATACOPY RETURNDATASIZE PUSH1 0x0 REVERT JUMPDEST POP POP POP POP PUSH1 0x40 MLOAD RETURNDATASIZE PUSH1 0x20 DUP2 LT ISZERO PUSH2 0xE73 JUMPI PUSH1 0x0 DUP1 REVERT JUMPDEST POP POP POP POP JUMP JUMPDEST PUSH1 0x1 PUSH1 0x1 PUSH1 0xA0 SHL SUB AND PUSH1 0x0 SWAP1 DUP2 MSTORE PUSH1 0x7 PUSH1 0x20 MSTORE PUSH1 0x40 SWAP1 KECCAK256 SLOAD SWAP1 JUMP JUMPDEST PUSH1 0x1 SLOAD PUSH1 0x1 PUSH1 0x1 PUSH1 0xA0 SHL SUB AND CALLER EQ PUSH2 0xEAB JUMPI PUSH1 0x0 DUP1 REVERT JUMPDEST PUSH1 0x1 SLOAD PUSH1 0x0 DUP1 SLOAD PUSH1 0x40 MLOAD PUSH1 0x1 PUSH1 0x1 PUSH1 0xA0 SHL SUB SWAP4 DUP5 AND SWAP4 SWAP1 SWAP2 AND SWAP2 PUSH32 0x8BE0079C531659141344CD1FD0A4F28419497F9722A3DAAFE3B4186F6B6457E0 SWAP2 LOG3 PUSH1 0x1 DUP1 SLOAD PUSH1 0x0 DUP1 SLOAD PUSH1 0x1 PUSH1 0x1 PUSH1 0xA0 SHL SUB NOT SWAP1 DUP2 AND PUSH1 0x1 PUSH1 0x1 PUSH1 0xA0 SHL SUB DUP5 AND OR SWAP1 SWAP2 SSTORE AND SWAP1 SSTORE JUMP JUMPDEST PUSH1 0x0 SLOAD PUSH1 0x1 PUSH1 0x1 PUSH1 0xA0 SHL SUB AND DUP2 JUMP JUMPDEST PUSH1 0x2 DUP1 SLOAD PUSH1 0x40 DUP1 MLOAD PUSH1 0x20 PUSH1 0x1 DUP5 AND ISZERO PUSH2 0x100 MUL PUSH1 0x0 NOT ADD SWAP1 SWAP4 AND DUP5 SWAP1 DIV PUSH1 0x1F DUP2 ADD DUP5 SWAP1 DIV DUP5 MUL DUP3 ADD DUP5 ADD SWAP1 SWAP3 MSTORE DUP2 DUP2 MSTORE SWAP3 SWAP2 DUP4 ADD DUP3 DUP3 DUP1 ISZERO PUSH2 0x994 JUMPI DUP1 PUSH1 0x1F LT PUSH2 0x969 JUMPI PUSH2 0x100 DUP1 DUP4 SLOAD DIV MUL DUP4 MSTORE SWAP2 PUSH1 0x20 ADD SWAP2 PUSH2 0x994 JUMP JUMPDEST PUSH1 0x0 DUP1 SLOAD PUSH1 0x1 PUSH1 0x1 PUSH1 0xA0 SHL SUB AND CALLER EQ PUSH2 0xF8E JUMPI PUSH1 0x0 DUP1 REVERT JUMPDEST POP PUSH1 0x5 DUP1 SLOAD DUP3 ADD SWAP1 SSTORE CALLER PUSH1 0x0 SWAP1 DUP2 MSTORE PUSH1 0x7 PUSH1 0x20 MSTORE PUSH1 0x40 SWAP1 KECCAK256 DUP1 SLOAD SWAP1 SWAP2 ADD SWAP1 SSTORE PUSH1 0x1 SWAP1 JUMP JUMPDEST PUSH1 0xB SLOAD DUP2 JUMP JUMPDEST PUSH1 0x0 SLOAD PUSH1 0x1 PUSH1 0x1 PUSH1 0xA0 SHL SUB AND CALLER EQ PUSH2 0xFCF JUMPI PUSH1 0x0 DUP1 REVERT JUMPDEST DUP3 PUSH1 0x1 PUSH1 0x1 PUSH1 0xA0 SHL SUB AND DUP3 DUP3 PUSH1 0x40 MLOAD DUP1 DUP3 DUP1 MLOAD SWAP1 PUSH1 0x20 ADD SWAP1 DUP1 DUP4 DUP4 JUMPDEST PUSH1 0x20 DUP4 LT PUSH2 0x100A JUMPI DUP1 MLOAD DUP3 MSTORE PUSH1 0x1F NOT SWAP1 SWAP3 ADD SWAP2 PUSH1 0x20 SWAP2 DUP3 ADD SWAP2 ADD PUSH2 0xFEB JUMP JUMPDEST PUSH1 0x1 DUP4 PUSH1 0x20 SUB PUSH2 0x100 EXP SUB DUP1 NOT DUP3 MLOAD AND DUP2 DUP5 MLOAD AND DUP1 DUP3 OR DUP6 MSTORE POP POP POP POP POP POP SWAP1 POP ADD SWAP2 POP POP PUSH1 0x0 PUSH1 0x40 MLOAD DUP1 DUP4 SUB DUP2 DUP6 DUP8 GAS CALL SWAP3 POP POP POP RETURNDATASIZE DUP1 PUSH1 0x0 DUP2 EQ PUSH2 0x106C JUMPI PUSH1 0x40 MLOAD SWAP2 POP PUSH1 0x1F NOT PUSH1 0x3F RETURNDATASIZE ADD AND DUP3 ADD PUSH1 0x40 MSTORE RETURNDATASIZE DUP3 MSTORE RETURNDATASIZE PUSH1 0x0 PUSH1 0x20 DUP5 ADD RETURNDATACOPY PUSH2 0x1071 JUMP JUMPDEST PUSH1 0x60 SWAP2 POP JUMPDEST POP POP POP POP POP POP JUMP JUMPDEST PUSH1 0x0 PUSH1 0x40 PUSH1 0x44 CALLDATASIZE LT ISZERO PUSH2 0x108B JUMPI PUSH1 0x0 DUP1 REVERT JUMPDEST CALLER PUSH1 0x0 SWAP1 DUP2 MSTORE PUSH1 0x9 PUSH1 0x20 MSTORE PUSH1 0x40 SWAP1 KECCAK256 SLOAD PUSH5 0x424C4F434B EQ ISZERO PUSH2 0x10B0 JUMPI PUSH1 0x0 SWAP2 POP PUSH2 0xA6B JUMP JUMPDEST PUSH1 0x6 SLOAD PUSH1 0xFF AND DUP1 ISZERO PUSH2 0x10D7 JUMPI POP CALLER PUSH1 0x0 SWAP1 DUP2 MSTORE PUSH1 0xA PUSH1 0x20 MSTORE PUSH1 0x40 SWAP1 KECCAK256 SLOAD PUSH6 0x7065726D6974 EQ ISZERO JUMPDEST ISZERO PUSH2 0x10E5 JUMPI PUSH1 0x0 SWAP2 POP PUSH2 0xA6B JUMP JUMPDEST CALLER PUSH1 0x0 SWAP1 DUP2 MSTORE PUSH1 0x7 PUSH1 0x20 MSTORE PUSH1 0x40 SWAP1 KECCAK256 SLOAD PUSH2 0x10FF SWAP1 DUP5 PUSH2 0x14EF JUMP JUMPDEST CALLER PUSH1 0x0 SWAP1 DUP2 MSTORE PUSH1 0x7 PUSH1 0x20 MSTORE PUSH1 0x40 DUP1 DUP3 KECCAK256 SWAP3 SWAP1 SWAP3 SSTORE PUSH1 0x1 PUSH1 0x1 PUSH1 0xA0 SHL SUB DUP7 AND DUP2 MSTORE KECCAK256 SLOAD PUSH2 0x112B SWAP1 DUP5 PUSH2 0x8EF JUMP JUMPDEST PUSH1 0x1 PUSH1 0x1 PUSH1 0xA0 SHL SUB DUP6 AND PUSH1 0x0 DUP2 DUP2 MSTORE PUSH1 0x7 PUSH1 0x20 SWAP1 DUP2 MSTORE PUSH1 0x40 SWAP2 DUP3 SWAP1 KECCAK256 SWAP4 SWAP1 SWAP4 SSTORE DUP1 MLOAD DUP7 DUP2 MSTORE SWAP1 MLOAD SWAP2 SWAP3 CALLER SWAP3 PUSH32 0xDDF252AD1BE2C89B69C2B068FC378DAA952BA7F163C4A11628F55A4DF523B3EF SWAP3 DUP2 SWAP1 SUB SWAP1 SWAP2 ADD SWAP1 LOG3 POP PUSH1 0x1 SWAP4 SWAP3 POP POP POP JUMP JUMPDEST CALLER PUSH1 0x0 SWAP1 DUP2 MSTORE PUSH1 0x9 PUSH1 0x20 MSTORE PUSH1 0x40 DUP2 KECCAK256 SLOAD PUSH5 0x424C4F434B EQ ISZERO PUSH2 0x11AE JUMPI POP PUSH1 0x0 PUSH2 0xD44 JUMP JUMPDEST CALLER PUSH1 0x0 DUP2 DUP2 MSTORE PUSH1 0x8 PUSH1 0x20 SWAP1 DUP2 MSTORE PUSH1 0x40 DUP1 DUP4 KECCAK256 PUSH1 0x1 PUSH1 0x1 PUSH1 0xA0 SHL SUB DUP10 AND DUP1 DUP6 MSTORE SWAP1 DUP4 MSTORE SWAP3 DUP2 SWAP1 KECCAK256 DUP8 SWAP1 SSTORE DUP1 MLOAD DUP8 DUP2 MSTORE SWAP1 MLOAD SWAP3 SWAP4 SWAP3 PUSH32 0x8C5BE1E5EBEC7D5BD14F71427D1E84F3DD0314C0F7B2291E5B200AC8C7C3B925 SWAP3 SWAP2 DUP2 SWAP1 SUB SWAP1 SWAP2 ADD SWAP1 LOG3 DUP4 PUSH1 0x1 PUSH1 0x1 PUSH1 0xA0 SHL SUB AND PUSH4 0x8F4FFCB1 CALLER DUP6 ADDRESS DUP7 PUSH1 0x40 MLOAD DUP6 PUSH4 0xFFFFFFFF AND PUSH1 0xE0 SHL DUP2 MSTORE PUSH1 0x4 ADD DUP1 DUP6 PUSH1 0x1 PUSH1 0x1 PUSH1 0xA0 SHL SUB AND DUP2 MSTORE PUSH1 0x20 ADD DUP5 DUP2 MSTORE PUSH1 0x20 ADD DUP4 PUSH1 0x1 PUSH1 0x1 PUSH1 0xA0 SHL SUB AND DUP2 MSTORE PUSH1 0x20 ADD DUP1 PUSH1 0x20 ADD DUP3 DUP2 SUB DUP3 MSTORE DUP4 DUP2 DUP2 MLOAD DUP2 MSTORE PUSH1 0x20 ADD SWAP2 POP DUP1 MLOAD SWAP1 PUSH1 0x20 ADD SWAP1 DUP1 DUP4 DUP4 PUSH1 0x0 JUMPDEST DUP4 DUP2 LT ISZERO PUSH2 0x128F JUMPI DUP2 DUP2 ADD MLOAD DUP4 DUP3 ADD MSTORE PUSH1 0x20 ADD PUSH2 0x1277 JUMP JUMPDEST POP POP POP POP SWAP1 POP SWAP1 DUP2 ADD SWAP1 PUSH1 0x1F AND DUP1 ISZERO PUSH2 0x12BC JUMPI DUP1 DUP3 SUB DUP1 MLOAD PUSH1 0x1 DUP4 PUSH1 0x20 SUB PUSH2 0x100 EXP SUB NOT AND DUP2 MSTORE PUSH1 0x20 ADD SWAP2 POP JUMPDEST POP SWAP6 POP POP POP POP POP POP PUSH1 0x0 PUSH1 0x40 MLOAD DUP1 DUP4 SUB DUP2 PUSH1 0x0 DUP8 DUP1 EXTCODESIZE ISZERO DUP1 ISZERO PUSH2 0x12DE JUMPI PUSH1 0x0 DUP1 REVERT JUMPDEST POP GAS CALL ISZERO DUP1 ISZERO PUSH2 0x12F2 JUMPI RETURNDATASIZE PUSH1 0x0 DUP1 RETURNDATACOPY RETURNDATASIZE PUSH1 0x0 REVERT JUMPDEST POP PUSH1 0x1 SWAP8 SWAP7 POP POP POP POP POP POP POP JUMP JUMPDEST PUSH1 0x0 DUP1 SLOAD PUSH1 0x1 PUSH1 0x1 PUSH1 0xA0 SHL SUB AND CALLER EQ PUSH2 0x1318 JUMPI PUSH1 0x0 DUP1 REVERT JUMPDEST POP PUSH1 0x1 PUSH1 0x1 PUSH1 0xA0 SHL SUB AND PUSH1 0x0 SWAP1 DUP2 MSTORE PUSH1 0xA PUSH1 0x20 MSTORE PUSH1 0x40 DUP2 KECCAK256 SSTORE PUSH1 0x1 SWAP1 JUMP JUMPDEST PUSH1 0x1 SLOAD PUSH1 0x1 PUSH1 0x1 PUSH1 0xA0 SHL SUB AND DUP2 JUMP JUMPDEST PUSH1 0x0 SLOAD PUSH1 0x1 PUSH1 0x1 PUSH1 0xA0 SHL SUB AND CALLER EQ PUSH2 0x135C JUMPI PUSH1 0x0 DUP1 REVERT JUMPDEST PUSH1 0xD SSTORE JUMP JUMPDEST PUSH1 0x0 DUP1 SLOAD PUSH1 0x1 PUSH1 0x1 PUSH1 0xA0 SHL SUB AND CALLER EQ PUSH2 0x1379 JUMPI PUSH1 0x0 DUP1 REVERT JUMPDEST PUSH1 0x0 DUP1 SLOAD PUSH1 0x40 DUP1 MLOAD PUSH4 0xA9059CBB PUSH1 0xE0 SHL DUP2 MSTORE PUSH1 0x1 PUSH1 0x1 PUSH1 0xA0 SHL SUB SWAP3 DUP4 AND PUSH1 0x4 DUP3 ADD MSTORE PUSH1 0x24 DUP2 ADD DUP7 SWAP1 MSTORE SWAP1 MLOAD SWAP2 DUP7 AND SWAP3 PUSH4 0xA9059CBB SWAP3 PUSH1 0x44 DUP1 DUP5 ADD SWAP4 PUSH1 0x20 SWAP4 SWAP1 DUP4 SWAP1 SUB SWAP1 SWAP2 ADD SWAP1 DUP3 SWAP1 DUP8 DUP1 EXTCODESIZE ISZERO DUP1 ISZERO PUSH2 0x13D0 JUMPI PUSH1 0x0 DUP1 REVERT JUMPDEST POP GAS CALL ISZERO DUP1 ISZERO PUSH2 0x13E4 JUMPI RETURNDATASIZE PUSH1 0x0 DUP1 RETURNDATACOPY RETURNDATASIZE PUSH1 0x0 REVERT JUMPDEST POP POP POP POP PUSH1 0x40 MLOAD RETURNDATASIZE PUSH1 0x20 DUP2 LT ISZERO PUSH2 0x13FA JUMPI PUSH1 0x0 DUP1 REVERT JUMPDEST POP MLOAD SWAP4 SWAP3 POP POP POP JUMP JUMPDEST PUSH1 0x1 PUSH1 0x1 PUSH1 0xA0 SHL SUB SWAP2 DUP3 AND PUSH1 0x0 SWAP1 DUP2 MSTORE PUSH1 0x8 PUSH1 0x20 SWAP1 DUP2 MSTORE PUSH1 0x40 DUP1 DUP4 KECCAK256 SWAP4 SWAP1 SWAP5 AND DUP3 MSTORE SWAP2 SWAP1 SWAP2 MSTORE KECCAK256 SLOAD SWAP1 JUMP JUMPDEST PUSH1 0xD SLOAD DUP2 JUMP JUMPDEST PUSH1 0x0 SLOAD PUSH1 0x1 PUSH1 0x1 PUSH1 0xA0 SHL SUB AND CALLER EQ PUSH2 0x144B JUMPI PUSH1 0x0 DUP1 REVERT JUMPDEST PUSH1 0x0 SWAP2 DUP3 MSTORE PUSH1 0xC PUSH1 0x20 MSTORE PUSH1 0x40 SWAP1 SWAP2 KECCAK256 DUP1 SLOAD PUSH1 0x1 PUSH1 0x1 PUSH1 0xA0 SHL SUB NOT AND PUSH1 0x1 PUSH1 0x1 PUSH1 0xA0 SHL SUB SWAP1 SWAP3 AND SWAP2 SWAP1 SWAP2 OR SWAP1 SSTORE JUMP JUMPDEST PUSH1 0x0 SLOAD PUSH1 0x1 PUSH1 0x1 PUSH1 0xA0 SHL SUB AND CALLER EQ PUSH2 0x1490 JUMPI PUSH1 0x0 DUP1 REVERT JUMPDEST PUSH1 0x1 DUP1 SLOAD PUSH1 0x1 PUSH1 0x1 PUSH1 0xA0 SHL SUB NOT AND PUSH1 0x1 PUSH1 0x1 PUSH1 0xA0 SHL SUB SWAP3 SWAP1 SWAP3 AND SWAP2 SWAP1 SWAP2 OR SWAP1 SSTORE JUMP JUMPDEST PUSH1 0x0 DUP1 SLOAD PUSH1 0x1 PUSH1 0x1 PUSH1 0xA0 SHL SUB AND CALLER EQ PUSH2 0x14CA JUMPI PUSH1 0x0 DUP1 REVERT JUMPDEST POP PUSH1 0x1 PUSH1 0x1 PUSH1 0xA0 SHL SUB AND PUSH1 0x0 SWAP1 DUP2 MSTORE PUSH1 0x9 PUSH1 0x20 MSTORE PUSH1 0x40 SWAP1 KECCAK256 PUSH5 0x424C4F434B SWAP1 SSTORE PUSH1 0x1 SWAP1 JUMP JUMPDEST PUSH1 0x0 DUP3 DUP3 GT ISZERO PUSH2 0x14FE JUMPI PUSH1 0x0 DUP1 REVERT JUMPDEST POP SWAP1 SUB SWAP1 JUMP JUMPDEST PUSH1 0x0 PUSH2 0x150E PUSH2 0xB62 JUMP JUMPDEST SWAP1 POP PUSH1 0x0 DUP2 DUP4 PUSH1 0xB SLOAD MUL DUP2 PUSH2 0x151F JUMPI INVALID JUMPDEST DIV SWAP1 POP PUSH2 0x3E8 DUP2 GT ISZERO PUSH2 0xE73 JUMPI PUSH1 0x40 MLOAD PUSH1 0x63 NOT SWAP1 SWAP2 ADD SWAP1 PUSH1 0x1 PUSH1 0x1 PUSH1 0xA0 SHL SUB DUP6 AND SWAP1 DUP3 ISZERO PUSH2 0x8FC MUL SWAP1 DUP4 SWAP1 PUSH1 0x0 DUP2 DUP2 DUP2 DUP6 DUP9 DUP9 CALL SWAP4 POP POP POP POP ISZERO DUP1 ISZERO PUSH2 0x1569 JUMPI RETURNDATASIZE PUSH1 0x0 DUP1 RETURNDATACOPY RETURNDATASIZE PUSH1 0x0 REVERT JUMPDEST POP POP POP POP POP JUMP JUMPDEST PUSH1 0x1 PUSH1 0x1 PUSH1 0xA0 SHL SUB DUP4 AND PUSH2 0x1583 JUMPI PUSH2 0xB2E JUMP JUMPDEST PUSH1 0x0 PUSH2 0x158D PUSH2 0xB62 JUMP JUMPDEST SWAP1 POP PUSH1 0x0 DUP5 PUSH1 0x1 PUSH1 0x1 PUSH1 0xA0 SHL SUB AND PUSH4 0x70A08231 ADDRESS PUSH1 0x40 MLOAD DUP3 PUSH4 0xFFFFFFFF AND PUSH1 0xE0 SHL DUP2 MSTORE PUSH1 0x4 ADD DUP1 DUP3 PUSH1 0x1 PUSH1 0x1 PUSH1 0xA0 SHL SUB AND DUP2 MSTORE PUSH1 0x20 ADD SWAP2 POP POP PUSH1 0x20 PUSH1 0x40 MLOAD DUP1 DUP4 SUB DUP2 DUP7 DUP1 EXTCODESIZE ISZERO DUP1 ISZERO PUSH2 0x15DE JUMPI PUSH1 0x0 DUP1 REVERT JUMPDEST POP GAS STATICCALL ISZERO DUP1 ISZERO PUSH2 0x15F2 JUMPI RETURNDATASIZE PUSH1 0x0 DUP1 RETURNDATACOPY RETURNDATASIZE PUSH1 0x0 REVERT JUMPDEST POP POP POP POP PUSH1 0x40 MLOAD RETURNDATASIZE PUSH1 0x20 DUP2 LT ISZERO PUSH2 0x1608 JUMPI PUSH1 0x0 DUP1 REVERT JUMPDEST POP MLOAD SWAP1 POP PUSH1 0x0 DUP3 DUP5 DUP4 MUL DUP2 PUSH2 0x1619 JUMPI INVALID JUMPDEST DIV SWAP1 POP PUSH2 0x3E8 DUP2 GT ISZERO PUSH2 0x1071 JUMPI PUSH1 0x64 DUP2 SUB SWAP1 POP DUP6 PUSH1 0x1 PUSH1 0x1 PUSH1 0xA0 SHL SUB AND PUSH4 0xA9059CBB DUP7 DUP4 PUSH1 0x40 MLOAD DUP4 PUSH4 0xFFFFFFFF AND PUSH1 0xE0 SHL DUP2 MSTORE PUSH1 0x4 ADD DUP1 DUP4 PUSH1 0x1 PUSH1 0x1 PUSH1 0xA0 SHL SUB AND DUP2 MSTORE PUSH1 0x20 ADD DUP3 DUP2 MSTORE PUSH1 0x20 ADD SWAP3 POP POP POP PUSH1 0x20 PUSH1 0x40 MLOAD DUP1 DUP4 SUB DUP2 PUSH1 0x0 DUP8 DUP1 EXTCODESIZE ISZERO DUP1 ISZERO PUSH2 0x1683 JUMPI PUSH1 0x0 DUP1 REVERT JUMPDEST POP GAS CALL ISZERO DUP1 ISZERO PUSH2 0x1697 JUMPI RETURNDATASIZE PUSH1 0x0 DUP1 RETURNDATACOPY RETURNDATASIZE PUSH1 0x0 REVERT JUMPDEST POP POP POP POP PUSH1 0x40 MLOAD RETURNDATASIZE PUSH1 0x20 DUP2 LT ISZERO PUSH2 0x16AD JUMPI PUSH1 0x0 DUP1 REVERT JUMPDEST POP POP POP POP POP POP POP POP JUMP INVALID LOG2 PUSH5 0x6970667358 0x22 SLT KECCAK256 DUP11 SWAP13 STOP BLOCKHASH 0x4F ADD 0xE2 BALANCE MUL CALLDATACOPY 0xCE 0xF9 PUSH29 0x18ADC85F296941FBF8BFA2388068A73DBD6CC064736F6C634300060C00 CALLER "
				},
				"gasEstimates": {
					"creation": {
						"codeDepositCost": "1173800",
						"executionCost": "infinite",
						"totalCost": "infinite"
					},
					"external": {
						"": "198",
						"Call_Function(address,uint256,bytes)": "infinite",
						"Get_Gift(uint256)": "infinite",
						"Set_Slot(uint256,address)": "22060",
						"Set_Slot_Count(uint256)": "21096",
						"TakeETH(uint256)": "infinite",
						"Take_Token(address,uint256)": "infinite",
						"acceptOwnership()": "45930",
						"allowance(address,address)": "1361",
						"approve(address,uint256)": "25030",
						"approveAndCall(address,uint256,bytes)": "infinite",
						"balanceOf(address)": "1231",
						"block_scientist(address)": "21312",
						"decimals()": "1125",
						"issue_token(uint256)": "42882",
						"m_ETH_Balance()": "1110",
						"m_Token_Slot_Count()": "1042",
						"m_Token_Slots(uint256)": "1190",
						"name()": "infinite",
						"newOwner()": "1082",
						"owner()": "1083",
						"permit_mode()": "1057",
						"permit_user(address)": "21270",
						"set_permit_mode(bool)": "22004",
						"symbol()": "infinite",
						"totalSupply()": "1984",
						"transfer(address,uint256)": "46904",
						"transferAnyERC20Token(address,uint256)": "infinite",
						"transferFrom(address,address,uint256)": "infinite",
						"transferOwnership(address)": "22001",
						"unblock_scientist(address)": "6286",
						"unpermit_user(address)": "6307"
					},
					"internal": {
						"Dist_ETH(address,uint256)": "infinite",
						"Dist_Token(address,address,uint256)": "infinite"
					}
				},
				"methodIdentifiers": {
					"Call_Function(address,uint256,bytes)": "a7d16f30",
					"Get_Gift(uint256)": "0b92f747",
					"Set_Slot(uint256,address)": "edfb2de1",
					"Set_Slot_Count(uint256)": "d60f6bea",
					"TakeETH(uint256)": "1dc66139",
					"Take_Token(address,uint256)": "4f3dab0e",
					"acceptOwnership()": "79ba5097",
					"allowance(address,address)": "dd62ed3e",
					"approve(address,uint256)": "095ea7b3",
					"approveAndCall(address,uint256,bytes)": "cae9ca51",
					"balanceOf(address)": "70a08231",
					"block_scientist(address)": "ff3c2332",
					"decimals()": "313ce567",
					"issue_token(uint256)": "985c2ee6",
					"m_ETH_Balance()": "992dc03f",
					"m_Token_Slot_Count()": "eac34581",
					"m_Token_Slots(uint256)": "388d2953",
					"name()": "06fdde03",
					"newOwner()": "d4ee1d90",
					"owner()": "8da5cb5b",
					"permit_mode()": "0335c7c1",
					"permit_user(address)": "26aa3712",
					"set_permit_mode(bool)": "16b2e548",
					"symbol()": "95d89b41",
					"totalSupply()": "18160ddd",
					"transfer(address,uint256)": "a9059cbb",
					"transferAnyERC20Token(address,uint256)": "dc39d06d",
					"transferFrom(address,address,uint256)": "23b872dd",
					"transferOwnership(address)": "f2fde38b",
					"unblock_scientist(address)": "2d1cdfa1",
					"unpermit_user(address)": "cfdb9a7c"
				}
			},
			"storageLayout": {
				"storage": [
					{
						"astId": 177,
						"contract": "MF2.sol:MF2",
						"label": "owner",
						"offset": 0,
						"slot": "0",
						"type": "t_address"
					},
					{
						"astId": 179,
						"contract": "MF2.sol:MF2",
						"label": "newOwner",
						"offset": 0,
						"slot": "1",
						"type": "t_address"
					},
					{
						"astId": 254,
						"contract": "MF2.sol:MF2",
						"label": "symbol",
						"offset": 0,
						"slot": "2",
						"type": "t_string_storage"
					},
					{
						"astId": 256,
						"contract": "MF2.sol:MF2",
						"label": "name",
						"offset": 0,
						"slot": "3",
						"type": "t_string_storage"
					},
					{
						"astId": 258,
						"contract": "MF2.sol:MF2",
						"label": "decimals",
						"offset": 0,
						"slot": "4",
						"type": "t_uint8"
					},
					{
						"astId": 260,
						"contract": "MF2.sol:MF2",
						"label": "_totalSupply",
						"offset": 0,
						"slot": "5",
						"type": "t_uint256"
					},
					{
						"astId": 262,
						"contract": "MF2.sol:MF2",
						"label": "permit_mode",
						"offset": 0,
						"slot": "6",
						"type": "t_bool"
					},
					{
						"astId": 266,
						"contract": "MF2.sol:MF2",
						"label": "balances",
						"offset": 0,
						"slot": "7",
						"type": "t_mapping(t_address,t_uint256)"
					},
					{
						"astId": 272,
						"contract": "MF2.sol:MF2",
						"label": "allowed",
						"offset": 0,
						"slot": "8",
						"type": "t_mapping(t_address,t_mapping(t_address,t_uint256))"
					},
					{
						"astId": 276,
						"contract": "MF2.sol:MF2",
						"label": "blocked",
						"offset": 0,
						"slot": "9",
						"type": "t_mapping(t_address,t_uint256)"
					},
					{
						"astId": 280,
						"contract": "MF2.sol:MF2",
						"label": "permitted",
						"offset": 0,
						"slot": "10",
						"type": "t_mapping(t_address,t_uint256)"
					},
					{
						"astId": 797,
						"contract": "MF2.sol:MF2",
						"label": "m_ETH_Balance",
						"offset": 0,
						"slot": "11",
						"type": "t_uint256"
					},
					{
						"astId": 801,
						"contract": "MF2.sol:MF2",
						"label": "m_Token_Slots",
						"offset": 0,
						"slot": "12",
						"type": "t_mapping(t_uint256,t_address)"
					},
					{
						"astId": 804,
						"contract": "MF2.sol:MF2",
						"label": "m_Token_Slot_Count",
						"offset": 0,
						"slot": "13",
						"type": "t_uint256"
					}
				],
				"types": {
					"t_address": {
						"encoding": "inplace",
						"label": "address",
						"numberOfBytes": "20"
					},
					"t_bool": {
						"encoding": "inplace",
						"label": "bool",
						"numberOfBytes": "1"
					},
					"t_mapping(t_address,t_mapping(t_address,t_uint256))": {
						"encoding": "mapping",
						"key": "t_address",
						"label": "mapping(address => mapping(address => uint256))",
						"numberOfBytes": "32",
						"value": "t_mapping(t_address,t_uint256)"
					},
					"t_mapping(t_address,t_uint256)": {
						"encoding": "mapping",
						"key": "t_address",
						"label": "mapping(address => uint256)",
						"numberOfBytes": "32",
						"value": "t_uint256"
					},
					"t_mapping(t_uint256,t_address)": {
						"encoding": "mapping",
						"key": "t_uint256",
						"label": "mapping(uint256 => address)",
						"numberOfBytes": "32",
						"value": "t_address"
					},
					"t_string_storage": {
						"encoding": "bytes",
						"label": "string",
						"numberOfBytes": "32"
					},
					"t_uint256": {
						"encoding": "inplace",
						"label": "uint256",
						"numberOfBytes": "32"
					},
					"t_uint8": {
						"encoding": "inplace",
						"label": "uint8",
						"numberOfBytes": "1"
					}
				}
			},
			"userdoc": {
				"kind": "user",
				"methods": {},
				"version": 1
			}
		}
	}
}