{
	"自己写个矿池,定息矿池.sol": {
		"StakeContract": {
			"abi": [
				{
					"inputs": [
						{
							"internalType": "address",
							"name": "_staketoken",
							"type": "address"
						},
						{
							"internalType": "address",
							"name": "_totoken",
							"type": "address"
						}
					],
					"stateMutability": "nonpayable",
					"type": "constructor"
				},
				{
					"anonymous": false,
					"inputs": [
						{
							"indexed": true,
							"internalType": "address",
							"name": "owner",
							"type": "address"
						},
						{
							"indexed": true,
							"internalType": "address",
							"name": "spender",
							"type": "address"
						},
						{
							"indexed": false,
							"internalType": "uint256",
							"name": "amout",
							"type": "uint256"
						}
					],
					"name": "Approveal",
					"type": "event"
				},
				{
					"anonymous": false,
					"inputs": [
						{
							"indexed": true,
							"internalType": "address",
							"name": "from",
							"type": "address"
						},
						{
							"indexed": true,
							"internalType": "address",
							"name": "to",
							"type": "address"
						},
						{
							"indexed": false,
							"internalType": "uint256",
							"name": "amout",
							"type": "uint256"
						}
					],
					"name": "Trasfer",
					"type": "event"
				},
				{
					"anonymous": false,
					"inputs": [
						{
							"indexed": true,
							"internalType": "address",
							"name": "to",
							"type": "address"
						},
						{
							"indexed": false,
							"internalType": "uint256",
							"name": "amout",
							"type": "uint256"
						}
					],
					"name": "transfer",
					"type": "event"
				},
				{
					"inputs": [
						{
							"internalType": "uint256",
							"name": "_amount",
							"type": "uint256"
						}
					],
					"name": "Stake",
					"outputs": [
						{
							"internalType": "bool",
							"name": "",
							"type": "bool"
						}
					],
					"stateMutability": "nonpayable",
					"type": "function"
				},
				{
					"inputs": [
						{
							"internalType": "address",
							"name": "",
							"type": "address"
						}
					],
					"name": "User_Map",
					"outputs": [
						{
							"internalType": "uint256",
							"name": "stakeNumber",
							"type": "uint256"
						},
						{
							"internalType": "uint256",
							"name": "last_Stake_Time",
							"type": "uint256"
						},
						{
							"internalType": "uint256",
							"name": "last_totoken_ratio",
							"type": "uint256"
						},
						{
							"internalType": "uint256",
							"name": "whole_ratio",
							"type": "uint256"
						},
						{
							"internalType": "uint256",
							"name": "last_totoken_Time",
							"type": "uint256"
						},
						{
							"internalType": "uint256",
							"name": "Clima_Number",
							"type": "uint256"
						}
					],
					"stateMutability": "view",
					"type": "function"
				},
				{
					"inputs": [],
					"name": "harvestwithDraw",
					"outputs": [
						{
							"internalType": "bool",
							"name": "",
							"type": "bool"
						}
					],
					"stateMutability": "nonpayable",
					"type": "function"
				},
				{
					"inputs": [],
					"name": "lastTotokenRatio",
					"outputs": [
						{
							"internalType": "uint256",
							"name": "",
							"type": "uint256"
						}
					],
					"stateMutability": "view",
					"type": "function"
				},
				{
					"inputs": [],
					"name": "newTotokenRatio",
					"outputs": [
						{
							"internalType": "uint256",
							"name": "",
							"type": "uint256"
						}
					],
					"stateMutability": "view",
					"type": "function"
				},
				{
					"inputs": [],
					"name": "owner",
					"outputs": [
						{
							"internalType": "address",
							"name": "",
							"type": "address"
						}
					],
					"stateMutability": "view",
					"type": "function"
				},
				{
					"inputs": [],
					"name": "ratio",
					"outputs": [
						{
							"internalType": "uint256",
							"name": "",
							"type": "uint256"
						}
					],
					"stateMutability": "view",
					"type": "function"
				},
				{
					"inputs": [
						{
							"internalType": "uint256",
							"name": "_ratio",
							"type": "uint256"
						}
					],
					"name": "setRatio",
					"outputs": [],
					"stateMutability": "nonpayable",
					"type": "function"
				},
				{
					"inputs": [],
					"name": "stakeSupple",
					"outputs": [
						{
							"internalType": "uint256",
							"name": "",
							"type": "uint256"
						}
					],
					"stateMutability": "view",
					"type": "function"
				},
				{
					"inputs": [],
					"name": "staketoken",
					"outputs": [
						{
							"internalType": "address",
							"name": "",
							"type": "address"
						}
					],
					"stateMutability": "view",
					"type": "function"
				},
				{
					"inputs": [],
					"name": "totoken",
					"outputs": [
						{
							"internalType": "address",
							"name": "",
							"type": "address"
						}
					],
					"stateMutability": "view",
					"type": "function"
				}
			],
			"devdoc": {
				"kind": "dev",
				"methods": {},
				"version": 1
			},
			"evm": {
				"assembly": "    /* \"\\xe8\\x87\\xaa\\xe5\\xb7\\xb1\\xe5\\x86\\x99\\xe4\\xb8\\xaa\\xe7\\x9f\\xbf\\xe6\\xb1\\xa0,\\xe5\\xae\\x9a\\xe6\\x81\\xaf\\xe7\\x9f\\xbf\\xe6\\xb1\\xa0.sol\":732:5461  contract StakeContract {... */\n  mstore(0x40, 0x80)\n    /* \"\\xe8\\x87\\xaa\\xe5\\xb7\\xb1\\xe5\\x86\\x99\\xe4\\xb8\\xaa\\xe7\\x9f\\xbf\\xe6\\xb1\\xa0,\\xe5\\xae\\x9a\\xe6\\x81\\xaf\\xe7\\x9f\\xbf\\xe6\\xb1\\xa0.sol\":1411:1749  constructor (address _staketoken, address _totoken) {... */\n  callvalue\n  dup1\n  iszero\n  tag_1\n  jumpi\n  0x00\n  dup1\n  revert\ntag_1:\n  pop\n  mload(0x40)\n  sub(codesize, bytecodeSize)\n  dup1\n  bytecodeSize\n  dup4\n  codecopy\n  dup2\n  add\n  0x40\n  dup2\n  swap1\n  mstore\n  tag_2\n  swap2\n  tag_3\n  jump\t// in\ntag_2:\n    /* \"\\xe8\\x87\\xaa\\xe5\\xb7\\xb1\\xe5\\x86\\x99\\xe4\\xb8\\xaa\\xe7\\x9f\\xbf\\xe6\\xb1\\xa0,\\xe5\\xae\\x9a\\xe6\\x81\\xaf\\xe7\\x9f\\xbf\\xe6\\xb1\\xa0.sol\":1474:1479  owner */\n  0x04\n    /* \"\\xe8\\x87\\xaa\\xe5\\xb7\\xb1\\xe5\\x86\\x99\\xe4\\xb8\\xaa\\xe7\\x9f\\xbf\\xe6\\xb1\\xa0,\\xe5\\xae\\x9a\\xe6\\x81\\xaf\\xe7\\x9f\\xbf\\xe6\\xb1\\xa0.sol\":1474:1492  owner = msg.sender */\n  dup1\n  sload\n  not(sub(shl(0xa0, 0x01), 0x01))\n  and\n    /* \"\\xe8\\x87\\xaa\\xe5\\xb7\\xb1\\xe5\\x86\\x99\\xe4\\xb8\\xaa\\xe7\\x9f\\xbf\\xe6\\xb1\\xa0,\\xe5\\xae\\x9a\\xe6\\x81\\xaf\\xe7\\x9f\\xbf\\xe6\\xb1\\xa0.sol\":1482:1492  msg.sender */\n  caller\n    /* \"\\xe8\\x87\\xaa\\xe5\\xb7\\xb1\\xe5\\x86\\x99\\xe4\\xb8\\xaa\\xe7\\x9f\\xbf\\xe6\\xb1\\xa0,\\xe5\\xae\\x9a\\xe6\\x81\\xaf\\xe7\\x9f\\xbf\\xe6\\xb1\\xa0.sol\":1474:1492  owner = msg.sender */\n  or\n  swap1\n  sstore\n  sub(shl(0xa0, 0x01), 0x01)\n    /* \"\\xe8\\x87\\xaa\\xe5\\xb7\\xb1\\xe5\\x86\\x99\\xe4\\xb8\\xaa\\xe7\\x9f\\xbf\\xe6\\xb1\\xa0,\\xe5\\xae\\x9a\\xe6\\x81\\xaf\\xe7\\x9f\\xbf\\xe6\\xb1\\xa0.sol\":1511:1536  _staketoken != address(0) */\n  dup3\n  and\n    /* \"\\xe8\\x87\\xaa\\xe5\\xb7\\xb1\\xe5\\x86\\x99\\xe4\\xb8\\xaa\\xe7\\x9f\\xbf\\xe6\\xb1\\xa0,\\xe5\\xae\\x9a\\xe6\\x81\\xaf\\xe7\\x9f\\xbf\\xe6\\xb1\\xa0.sol\":1503:1556  require(_staketoken != address(0),\"NOT,S 0X ADDRESS\") */\n  tag_6\n  jumpi\n  mload(0x40)\n  shl(0xe5, 0x461bcd)\n  dup2\n  mstore\n    /* \"#utility.yul\":696:698   */\n  0x20\n    /* \"\\xe8\\x87\\xaa\\xe5\\xb7\\xb1\\xe5\\x86\\x99\\xe4\\xb8\\xaa\\xe7\\x9f\\xbf\\xe6\\xb1\\xa0,\\xe5\\xae\\x9a\\xe6\\x81\\xaf\\xe7\\x9f\\xbf\\xe6\\xb1\\xa0.sol\":1503:1556  require(_staketoken != address(0),\"NOT,S 0X ADDRESS\") */\n  0x04\n  dup3\n  add\n    /* \"#utility.yul\":678:699   */\n  mstore\n    /* \"#utility.yul\":735:737   */\n  0x10\n    /* \"#utility.yul\":715:733   */\n  0x24\n  dup3\n  add\n    /* \"#utility.yul\":708:738   */\n  mstore\n  shl(0x80, 0x4e4f542c532030582041444452455353)\n    /* \"#utility.yul\":754:772   */\n  0x44\n  dup3\n  add\n    /* \"#utility.yul\":747:793   */\n  mstore\n    /* \"#utility.yul\":810:828   */\n  0x64\n  add\n    /* \"\\xe8\\x87\\xaa\\xe5\\xb7\\xb1\\xe5\\x86\\x99\\xe4\\xb8\\xaa\\xe7\\x9f\\xbf\\xe6\\xb1\\xa0,\\xe5\\xae\\x9a\\xe6\\x81\\xaf\\xe7\\x9f\\xbf\\xe6\\xb1\\xa0.sol\":1503:1556  require(_staketoken != address(0),\"NOT,S 0X ADDRESS\") */\ntag_7:\n  mload(0x40)\n  dup1\n  swap2\n  sub\n  swap1\n  revert\ntag_6:\n  sub(shl(0xa0, 0x01), 0x01)\n    /* \"\\xe8\\x87\\xaa\\xe5\\xb7\\xb1\\xe5\\x86\\x99\\xe4\\xb8\\xaa\\xe7\\x9f\\xbf\\xe6\\xb1\\xa0,\\xe5\\xae\\x9a\\xe6\\x81\\xaf\\xe7\\x9f\\xbf\\xe6\\xb1\\xa0.sol\":1575:1597  _totoken != address(0) */\n  dup2\n  and\n    /* \"\\xe8\\x87\\xaa\\xe5\\xb7\\xb1\\xe5\\x86\\x99\\xe4\\xb8\\xaa\\xe7\\x9f\\xbf\\xe6\\xb1\\xa0,\\xe5\\xae\\x9a\\xe6\\x81\\xaf\\xe7\\x9f\\xbf\\xe6\\xb1\\xa0.sol\":1567:1617  require(_totoken != address(0),\"NOT,S 0X ADDRESS\") */\n  tag_9\n  jumpi\n  mload(0x40)\n  shl(0xe5, 0x461bcd)\n  dup2\n  mstore\n    /* \"#utility.yul\":696:698   */\n  0x20\n    /* \"\\xe8\\x87\\xaa\\xe5\\xb7\\xb1\\xe5\\x86\\x99\\xe4\\xb8\\xaa\\xe7\\x9f\\xbf\\xe6\\xb1\\xa0,\\xe5\\xae\\x9a\\xe6\\x81\\xaf\\xe7\\x9f\\xbf\\xe6\\xb1\\xa0.sol\":1567:1617  require(_totoken != address(0),\"NOT,S 0X ADDRESS\") */\n  0x04\n  dup3\n  add\n    /* \"#utility.yul\":678:699   */\n  mstore\n    /* \"#utility.yul\":735:737   */\n  0x10\n    /* \"#utility.yul\":715:733   */\n  0x24\n  dup3\n  add\n    /* \"#utility.yul\":708:738   */\n  mstore\n  shl(0x80, 0x4e4f542c532030582041444452455353)\n    /* \"#utility.yul\":754:772   */\n  0x44\n  dup3\n  add\n    /* \"#utility.yul\":747:793   */\n  mstore\n    /* \"#utility.yul\":810:828   */\n  0x64\n  add\n    /* \"\\xe8\\x87\\xaa\\xe5\\xb7\\xb1\\xe5\\x86\\x99\\xe4\\xb8\\xaa\\xe7\\x9f\\xbf\\xe6\\xb1\\xa0,\\xe5\\xae\\x9a\\xe6\\x81\\xaf\\xe7\\x9f\\xbf\\xe6\\xb1\\xa0.sol\":1567:1617  require(_totoken != address(0),\"NOT,S 0X ADDRESS\") */\n  tag_7\n    /* \"#utility.yul\":494:834   */\n  jump\n    /* \"\\xe8\\x87\\xaa\\xe5\\xb7\\xb1\\xe5\\x86\\x99\\xe4\\xb8\\xaa\\xe7\\x9f\\xbf\\xe6\\xb1\\xa0,\\xe5\\xae\\x9a\\xe6\\x81\\xaf\\xe7\\x9f\\xbf\\xe6\\xb1\\xa0.sol\":1567:1617  require(_totoken != address(0),\"NOT,S 0X ADDRESS\") */\ntag_9:\n    /* \"\\xe8\\x87\\xaa\\xe5\\xb7\\xb1\\xe5\\x86\\x99\\xe4\\xb8\\xaa\\xe7\\x9f\\xbf\\xe6\\xb1\\xa0,\\xe5\\xae\\x9a\\xe6\\x81\\xaf\\xe7\\x9f\\xbf\\xe6\\xb1\\xa0.sol\":1651:1659  _totoken */\n  dup1\n  sub(shl(0xa0, 0x01), 0x01)\n    /* \"\\xe8\\x87\\xaa\\xe5\\xb7\\xb1\\xe5\\x86\\x99\\xe4\\xb8\\xaa\\xe7\\x9f\\xbf\\xe6\\xb1\\xa0,\\xe5\\xae\\x9a\\xe6\\x81\\xaf\\xe7\\x9f\\xbf\\xe6\\xb1\\xa0.sol\":1636:1659  _staketoken == _totoken */\n  and\n    /* \"\\xe8\\x87\\xaa\\xe5\\xb7\\xb1\\xe5\\x86\\x99\\xe4\\xb8\\xaa\\xe7\\x9f\\xbf\\xe6\\xb1\\xa0,\\xe5\\xae\\x9a\\xe6\\x81\\xaf\\xe7\\x9f\\xbf\\xe6\\xb1\\xa0.sol\":1636:1647  _staketoken */\n  dup3\n  sub(shl(0xa0, 0x01), 0x01)\n    /* \"\\xe8\\x87\\xaa\\xe5\\xb7\\xb1\\xe5\\x86\\x99\\xe4\\xb8\\xaa\\xe7\\x9f\\xbf\\xe6\\xb1\\xa0,\\xe5\\xae\\x9a\\xe6\\x81\\xaf\\xe7\\x9f\\xbf\\xe6\\xb1\\xa0.sol\":1636:1659  _staketoken == _totoken */\n  and\n  eq\n    /* \"\\xe8\\x87\\xaa\\xe5\\xb7\\xb1\\xe5\\x86\\x99\\xe4\\xb8\\xaa\\xe7\\x9f\\xbf\\xe6\\xb1\\xa0,\\xe5\\xae\\x9a\\xe6\\x81\\xaf\\xe7\\x9f\\xbf\\xe6\\xb1\\xa0.sol\":1628:1677  require(_staketoken == _totoken,\"NEED agreement\") */\n  tag_11\n  jumpi\n  mload(0x40)\n  shl(0xe5, 0x461bcd)\n  dup2\n  mstore\n    /* \"#utility.yul\":1041:1043   */\n  0x20\n    /* \"\\xe8\\x87\\xaa\\xe5\\xb7\\xb1\\xe5\\x86\\x99\\xe4\\xb8\\xaa\\xe7\\x9f\\xbf\\xe6\\xb1\\xa0,\\xe5\\xae\\x9a\\xe6\\x81\\xaf\\xe7\\x9f\\xbf\\xe6\\xb1\\xa0.sol\":1628:1677  require(_staketoken == _totoken,\"NEED agreement\") */\n  0x04\n  dup3\n  add\n    /* \"#utility.yul\":1023:1044   */\n  mstore\n    /* \"#utility.yul\":1080:1082   */\n  0x0e\n    /* \"#utility.yul\":1060:1078   */\n  0x24\n  dup3\n  add\n    /* \"#utility.yul\":1053:1083   */\n  mstore\n  shl(0x92, 0x13915151081859dc99595b595b9d)\n    /* \"#utility.yul\":1099:1117   */\n  0x44\n  dup3\n  add\n    /* \"#utility.yul\":1092:1136   */\n  mstore\n    /* \"#utility.yul\":1153:1171   */\n  0x64\n  add\n    /* \"\\xe8\\x87\\xaa\\xe5\\xb7\\xb1\\xe5\\x86\\x99\\xe4\\xb8\\xaa\\xe7\\x9f\\xbf\\xe6\\xb1\\xa0,\\xe5\\xae\\x9a\\xe6\\x81\\xaf\\xe7\\x9f\\xbf\\xe6\\xb1\\xa0.sol\":1628:1677  require(_staketoken == _totoken,\"NEED agreement\") */\n  tag_7\n    /* \"#utility.yul\":839:1177   */\n  jump\n    /* \"\\xe8\\x87\\xaa\\xe5\\xb7\\xb1\\xe5\\x86\\x99\\xe4\\xb8\\xaa\\xe7\\x9f\\xbf\\xe6\\xb1\\xa0,\\xe5\\xae\\x9a\\xe6\\x81\\xaf\\xe7\\x9f\\xbf\\xe6\\xb1\\xa0.sol\":1628:1677  require(_staketoken == _totoken,\"NEED agreement\") */\ntag_11:\n    /* \"\\xe8\\x87\\xaa\\xe5\\xb7\\xb1\\xe5\\x86\\x99\\xe4\\xb8\\xaa\\xe7\\x9f\\xbf\\xe6\\xb1\\xa0,\\xe5\\xae\\x9a\\xe6\\x81\\xaf\\xe7\\x9f\\xbf\\xe6\\xb1\\xa0.sol\":1688:1698  staketoken */\n  0x01\n    /* \"\\xe8\\x87\\xaa\\xe5\\xb7\\xb1\\xe5\\x86\\x99\\xe4\\xb8\\xaa\\xe7\\x9f\\xbf\\xe6\\xb1\\xa0,\\xe5\\xae\\x9a\\xe6\\x81\\xaf\\xe7\\x9f\\xbf\\xe6\\xb1\\xa0.sol\":1688:1712  staketoken = _staketoken */\n  dup1\n  sload\n  sub(shl(0xa0, 0x01), 0x01)\n  swap4\n  dup5\n  and\n  not(sub(shl(0xa0, 0x01), 0x01))\n  swap2\n  dup3\n  and\n  or\n  swap1\n  swap2\n  sstore\n    /* \"\\xe8\\x87\\xaa\\xe5\\xb7\\xb1\\xe5\\x86\\x99\\xe4\\xb8\\xaa\\xe7\\x9f\\xbf\\xe6\\xb1\\xa0,\\xe5\\xae\\x9a\\xe6\\x81\\xaf\\xe7\\x9f\\xbf\\xe6\\xb1\\xa0.sol\":1723:1730  totoken */\n  0x02\n    /* \"\\xe8\\x87\\xaa\\xe5\\xb7\\xb1\\xe5\\x86\\x99\\xe4\\xb8\\xaa\\xe7\\x9f\\xbf\\xe6\\xb1\\xa0,\\xe5\\xae\\x9a\\xe6\\x81\\xaf\\xe7\\x9f\\xbf\\xe6\\xb1\\xa0.sol\":1723:1741  totoken = _totoken */\n  dup1\n  sload\n  swap3\n  swap1\n  swap4\n  and\n  swap2\n  and\n  or\n  swap1\n  sstore\n    /* \"\\xe8\\x87\\xaa\\xe5\\xb7\\xb1\\xe5\\x86\\x99\\xe4\\xb8\\xaa\\xe7\\x9f\\xbf\\xe6\\xb1\\xa0,\\xe5\\xae\\x9a\\xe6\\x81\\xaf\\xe7\\x9f\\xbf\\xe6\\xb1\\xa0.sol\":732:5461  contract StakeContract {... */\n  jump(tag_16)\n    /* \"#utility.yul\":14:191   */\ntag_15:\n    /* \"#utility.yul\":93:106   */\n  dup1\n  mload\n  sub(shl(0xa0, 0x01), 0x01)\n    /* \"#utility.yul\":135:166   */\n  dup2\n  and\n    /* \"#utility.yul\":125:167   */\n  dup2\n  eq\n    /* \"#utility.yul\":115:185   */\n  tag_18\n  jumpi\n    /* \"#utility.yul\":181:182   */\n  0x00\n    /* \"#utility.yul\":178:179   */\n  dup1\n    /* \"#utility.yul\":171:183   */\n  revert\n    /* \"#utility.yul\":115:185   */\ntag_18:\n    /* \"#utility.yul\":14:191   */\n  swap2\n  swap1\n  pop\n  jump\t// out\n    /* \"#utility.yul\":196:489   */\ntag_3:\n    /* \"#utility.yul\":275:281   */\n  0x00\n    /* \"#utility.yul\":283:289   */\n  dup1\n    /* \"#utility.yul\":336:338   */\n  0x40\n    /* \"#utility.yul\":324:333   */\n  dup4\n    /* \"#utility.yul\":315:322   */\n  dup6\n    /* \"#utility.yul\":311:334   */\n  sub\n    /* \"#utility.yul\":307:339   */\n  slt\n    /* \"#utility.yul\":304:356   */\n  iszero\n  tag_20\n  jumpi\n    /* \"#utility.yul\":352:353   */\n  0x00\n    /* \"#utility.yul\":349:350   */\n  dup1\n    /* \"#utility.yul\":342:354   */\n  revert\n    /* \"#utility.yul\":304:356   */\ntag_20:\n    /* \"#utility.yul\":375:415   */\n  tag_21\n    /* \"#utility.yul\":405:414   */\n  dup4\n    /* \"#utility.yul\":375:415   */\n  tag_15\n  jump\t// in\ntag_21:\n    /* \"#utility.yul\":365:415   */\n  swap2\n  pop\n    /* \"#utility.yul\":434:483   */\n  tag_22\n    /* \"#utility.yul\":479:481   */\n  0x20\n    /* \"#utility.yul\":468:477   */\n  dup5\n    /* \"#utility.yul\":464:482   */\n  add\n    /* \"#utility.yul\":434:483   */\n  tag_15\n  jump\t// in\ntag_22:\n    /* \"#utility.yul\":424:483   */\n  swap1\n  pop\n    /* \"#utility.yul\":196:489   */\n  swap3\n  pop\n  swap3\n  swap1\n  pop\n  jump\t// out\n    /* \"#utility.yul\":839:1177   */\ntag_16:\n    /* \"\\xe8\\x87\\xaa\\xe5\\xb7\\xb1\\xe5\\x86\\x99\\xe4\\xb8\\xaa\\xe7\\x9f\\xbf\\xe6\\xb1\\xa0,\\xe5\\xae\\x9a\\xe6\\x81\\xaf\\xe7\\x9f\\xbf\\xe6\\xb1\\xa0.sol\":732:5461  contract StakeContract {... */\n  dataSize(sub_0)\n  dup1\n  dataOffset(sub_0)\n  0x00\n  codecopy\n  0x00\n  return\nstop\n\nsub_0: assembly {\n        /* \"\\xe8\\x87\\xaa\\xe5\\xb7\\xb1\\xe5\\x86\\x99\\xe4\\xb8\\xaa\\xe7\\x9f\\xbf\\xe6\\xb1\\xa0,\\xe5\\xae\\x9a\\xe6\\x81\\xaf\\xe7\\x9f\\xbf\\xe6\\xb1\\xa0.sol\":732:5461  contract StakeContract {... */\n      mstore(0x40, 0x80)\n      callvalue\n      dup1\n      iszero\n      tag_1\n      jumpi\n      0x00\n      dup1\n      revert\n    tag_1:\n      pop\n      jumpi(tag_2, lt(calldatasize, 0x04))\n      shr(0xe0, calldataload(0x00))\n      dup1\n      0x8c93ecff\n      gt\n      tag_14\n      jumpi\n      dup1\n      0x8c93ecff\n      eq\n      tag_8\n      jumpi\n      dup1\n      0x8da5cb5b\n      eq\n      tag_9\n      jumpi\n      dup1\n      0xb2237ba3\n      eq\n      tag_10\n      jumpi\n      dup1\n      0xd942727f\n      eq\n      tag_11\n      jumpi\n      dup1\n      0xdab2997b\n      eq\n      tag_12\n      jumpi\n      dup1\n      0xfb5bca7a\n      eq\n      tag_13\n      jumpi\n      0x00\n      dup1\n      revert\n    tag_14:\n      dup1\n      0x227a473b\n      eq\n      tag_3\n      jumpi\n      dup1\n      0x2c46502d\n      eq\n      tag_4\n      jumpi\n      dup1\n      0x529aca49\n      eq\n      tag_5\n      jumpi\n      dup1\n      0x5e9f4435\n      eq\n      tag_6\n      jumpi\n      dup1\n      0x71ca337d\n      eq\n      tag_7\n      jumpi\n    tag_2:\n      0x00\n      dup1\n      revert\n        /* \"\\xe8\\x87\\xaa\\xe5\\xb7\\xb1\\xe5\\x86\\x99\\xe4\\xb8\\xaa\\xe7\\x9f\\xbf\\xe6\\xb1\\xa0,\\xe5\\xae\\x9a\\xe6\\x81\\xaf\\xe7\\x9f\\xbf\\xe6\\xb1\\xa0.sol\":2062:2704  function Stake(uint _amount) public returns (bool){... */\n    tag_3:\n      tag_15\n      tag_16\n      calldatasize\n      0x04\n      tag_17\n      jump\t// in\n    tag_16:\n      tag_18\n      jump\t// in\n    tag_15:\n      mload(0x40)\n        /* \"#utility.yul\":364:378   */\n      swap1\n      iszero\n        /* \"#utility.yul\":357:379   */\n      iszero\n        /* \"#utility.yul\":339:380   */\n      dup2\n      mstore\n        /* \"#utility.yul\":327:329   */\n      0x20\n        /* \"#utility.yul\":312:330   */\n      add\n        /* \"\\xe8\\x87\\xaa\\xe5\\xb7\\xb1\\xe5\\x86\\x99\\xe4\\xb8\\xaa\\xe7\\x9f\\xbf\\xe6\\xb1\\xa0,\\xe5\\xae\\x9a\\xe6\\x81\\xaf\\xe7\\x9f\\xbf\\xe6\\xb1\\xa0.sol\":2062:2704  function Stake(uint _amount) public returns (bool){... */\n    tag_19:\n      mload(0x40)\n      dup1\n      swap2\n      sub\n      swap1\n      return\n        /* \"\\xe8\\x87\\xaa\\xe5\\xb7\\xb1\\xe5\\x86\\x99\\xe4\\xb8\\xaa\\xe7\\x9f\\xbf\\xe6\\xb1\\xa0,\\xe5\\xae\\x9a\\xe6\\x81\\xaf\\xe7\\x9f\\xbf\\xe6\\xb1\\xa0.sol\":849:871  address public totoken */\n    tag_4:\n      sload(0x02)\n      tag_21\n      swap1\n      sub(shl(0xa0, 0x01), 0x01)\n      and\n      dup2\n      jump\n    tag_21:\n      mload(0x40)\n      sub(shl(0xa0, 0x01), 0x01)\n        /* \"#utility.yul\":555:587   */\n      swap1\n      swap2\n      and\n        /* \"#utility.yul\":537:588   */\n      dup2\n      mstore\n        /* \"#utility.yul\":525:527   */\n      0x20\n        /* \"#utility.yul\":510:528   */\n      add\n        /* \"\\xe8\\x87\\xaa\\xe5\\xb7\\xb1\\xe5\\x86\\x99\\xe4\\xb8\\xaa\\xe7\\x9f\\xbf\\xe6\\xb1\\xa0,\\xe5\\xae\\x9a\\xe6\\x81\\xaf\\xe7\\x9f\\xbf\\xe6\\xb1\\xa0.sol\":849:871  address public totoken */\n      tag_19\n        /* \"#utility.yul\":391:594   */\n      jump\n        /* \"\\xe8\\x87\\xaa\\xe5\\xb7\\xb1\\xe5\\x86\\x99\\xe4\\xb8\\xaa\\xe7\\x9f\\xbf\\xe6\\xb1\\xa0,\\xe5\\xae\\x9a\\xe6\\x81\\xaf\\xe7\\x9f\\xbf\\xe6\\xb1\\xa0.sol\":4168:4455  function newTotokenRatio() public view returns (uint) {... */\n    tag_5:\n      tag_25\n      tag_26\n      jump\t// in\n    tag_25:\n      mload(0x40)\n        /* \"#utility.yul\":745:770   */\n      swap1\n      dup2\n      mstore\n        /* \"#utility.yul\":733:735   */\n      0x20\n        /* \"#utility.yul\":718:736   */\n      add\n        /* \"\\xe8\\x87\\xaa\\xe5\\xb7\\xb1\\xe5\\x86\\x99\\xe4\\xb8\\xaa\\xe7\\x9f\\xbf\\xe6\\xb1\\xa0,\\xe5\\xae\\x9a\\xe6\\x81\\xaf\\xe7\\x9f\\xbf\\xe6\\xb1\\xa0.sol\":4168:4455  function newTotokenRatio() public view returns (uint) {... */\n      tag_19\n        /* \"#utility.yul\":599:776   */\n      jump\n        /* \"\\xe8\\x87\\xaa\\xe5\\xb7\\xb1\\xe5\\x86\\x99\\xe4\\xb8\\xaa\\xe7\\x9f\\xbf\\xe6\\xb1\\xa0,\\xe5\\xae\\x9a\\xe6\\x81\\xaf\\xe7\\x9f\\xbf\\xe6\\xb1\\xa0.sol\":4463:4634  function lastTotokenRatio()public view returns(uint) {... */\n    tag_6:\n        /* \"\\xe8\\x87\\xaa\\xe5\\xb7\\xb1\\xe5\\x86\\x99\\xe4\\xb8\\xaa\\xe7\\x9f\\xbf\\xe6\\xb1\\xa0,\\xe5\\xae\\x9a\\xe6\\x81\\xaf\\xe7\\x9f\\xbf\\xe6\\xb1\\xa0.sol\":4561:4571  msg.sender */\n      caller\n        /* \"\\xe8\\x87\\xaa\\xe5\\xb7\\xb1\\xe5\\x86\\x99\\xe4\\xb8\\xaa\\xe7\\x9f\\xbf\\xe6\\xb1\\xa0,\\xe5\\xae\\x9a\\xe6\\x81\\xaf\\xe7\\x9f\\xbf\\xe6\\xb1\\xa0.sol\":4510:4514  uint */\n      0x00\n        /* \"\\xe8\\x87\\xaa\\xe5\\xb7\\xb1\\xe5\\x86\\x99\\xe4\\xb8\\xaa\\xe7\\x9f\\xbf\\xe6\\xb1\\xa0,\\xe5\\xae\\x9a\\xe6\\x81\\xaf\\xe7\\x9f\\xbf\\xe6\\xb1\\xa0.sol\":4552:4572  User_Map[msg.sender] */\n      swap1\n      dup2\n      mstore\n        /* \"\\xe8\\x87\\xaa\\xe5\\xb7\\xb1\\xe5\\x86\\x99\\xe4\\xb8\\xaa\\xe7\\x9f\\xbf\\xe6\\xb1\\xa0,\\xe5\\xae\\x9a\\xe6\\x81\\xaf\\xe7\\x9f\\xbf\\xe6\\xb1\\xa0.sol\":4552:4560  User_Map */\n      0x05\n        /* \"\\xe8\\x87\\xaa\\xe5\\xb7\\xb1\\xe5\\x86\\x99\\xe4\\xb8\\xaa\\xe7\\x9f\\xbf\\xe6\\xb1\\xa0,\\xe5\\xae\\x9a\\xe6\\x81\\xaf\\xe7\\x9f\\xbf\\xe6\\xb1\\xa0.sol\":4552:4572  User_Map[msg.sender] */\n      0x20\n      mstore\n      0x40\n      swap1\n      keccak256\n        /* \"\\xe8\\x87\\xaa\\xe5\\xb7\\xb1\\xe5\\x86\\x99\\xe4\\xb8\\xaa\\xe7\\x9f\\xbf\\xe6\\xb1\\xa0,\\xe5\\xae\\x9a\\xe6\\x81\\xaf\\xe7\\x9f\\xbf\\xe6\\xb1\\xa0.sol\":4552:4591  User_Map[msg.sender].last_totoken_ratio */\n      0x02\n      add\n      sload\n        /* \"\\xe8\\x87\\xaa\\xe5\\xb7\\xb1\\xe5\\x86\\x99\\xe4\\xb8\\xaa\\xe7\\x9f\\xbf\\xe6\\xb1\\xa0,\\xe5\\xae\\x9a\\xe6\\x81\\xaf\\xe7\\x9f\\xbf\\xe6\\xb1\\xa0.sol\":4463:4634  function lastTotokenRatio()public view returns(uint) {... */\n      jump(tag_25)\n        /* \"\\xe8\\x87\\xaa\\xe5\\xb7\\xb1\\xe5\\x86\\x99\\xe4\\xb8\\xaa\\xe7\\x9f\\xbf\\xe6\\xb1\\xa0,\\xe5\\xae\\x9a\\xe6\\x81\\xaf\\xe7\\x9f\\xbf\\xe6\\xb1\\xa0.sol\":793:810  uint public ratio */\n    tag_7:\n      tag_25\n      sload(0x00)\n      dup2\n      jump\n        /* \"\\xe8\\x87\\xaa\\xe5\\xb7\\xb1\\xe5\\x86\\x99\\xe4\\xb8\\xaa\\xe7\\x9f\\xbf\\xe6\\xb1\\xa0,\\xe5\\xae\\x9a\\xe6\\x81\\xaf\\xe7\\x9f\\xbf\\xe6\\xb1\\xa0.sol\":1362:1402  mapping(address => User) public User_Map */\n    tag_8:\n      tag_35\n      tag_36\n      calldatasize\n      0x04\n      tag_37\n      jump\t// in\n    tag_36:\n      0x05\n      0x20\n      dup2\n      swap1\n      mstore\n      0x00\n      swap2\n      dup3\n      mstore\n      0x40\n      swap1\n      swap2\n      keccak256\n      dup1\n      sload\n      0x01\n      dup3\n      add\n      sload\n      0x02\n      dup4\n      add\n      sload\n      0x03\n      dup5\n      add\n      sload\n      0x04\n      dup6\n      add\n      sload\n      swap5\n      swap1\n      swap6\n      add\n      sload\n      swap3\n      swap5\n      swap2\n      swap4\n      swap1\n      swap3\n      dup7\n      jump\n    tag_35:\n      0x40\n      dup1\n      mload\n        /* \"#utility.yul\":1359:1384   */\n      swap7\n      dup8\n      mstore\n        /* \"#utility.yul\":1415:1417   */\n      0x20\n        /* \"#utility.yul\":1400:1418   */\n      dup8\n      add\n        /* \"#utility.yul\":1393:1427   */\n      swap6\n      swap1\n      swap6\n      mstore\n        /* \"#utility.yul\":1443:1461   */\n      swap4\n      dup6\n      add\n        /* \"#utility.yul\":1436:1470   */\n      swap3\n      swap1\n      swap3\n      mstore\n        /* \"#utility.yul\":1501:1503   */\n      0x60\n        /* \"#utility.yul\":1486:1504   */\n      dup5\n      add\n        /* \"#utility.yul\":1479:1513   */\n      mstore\n        /* \"#utility.yul\":1544:1547   */\n      0x80\n        /* \"#utility.yul\":1529:1548   */\n      dup4\n      add\n        /* \"#utility.yul\":1522:1557   */\n      mstore\n        /* \"#utility.yul\":1588:1591   */\n      0xa0\n        /* \"#utility.yul\":1573:1592   */\n      dup3\n      add\n        /* \"#utility.yul\":1566:1601   */\n      mstore\n        /* \"#utility.yul\":1346:1349   */\n      0xc0\n        /* \"#utility.yul\":1331:1350   */\n      add\n        /* \"\\xe8\\x87\\xaa\\xe5\\xb7\\xb1\\xe5\\x86\\x99\\xe4\\xb8\\xaa\\xe7\\x9f\\xbf\\xe6\\xb1\\xa0,\\xe5\\xae\\x9a\\xe6\\x81\\xaf\\xe7\\x9f\\xbf\\xe6\\xb1\\xa0.sol\":1362:1402  mapping(address => User) public User_Map */\n      tag_19\n        /* \"#utility.yul\":1072:1607   */\n      jump\n        /* \"\\xe8\\x87\\xaa\\xe5\\xb7\\xb1\\xe5\\x86\\x99\\xe4\\xb8\\xaa\\xe7\\x9f\\xbf\\xe6\\xb1\\xa0,\\xe5\\xae\\x9a\\xe6\\x81\\xaf\\xe7\\x9f\\xbf\\xe6\\xb1\\xa0.sol\":908:928  address public owner */\n    tag_9:\n      sload(0x04)\n      tag_21\n      swap1\n      sub(shl(0xa0, 0x01), 0x01)\n      and\n      dup2\n      jump\n        /* \"\\xe8\\x87\\xaa\\xe5\\xb7\\xb1\\xe5\\x86\\x99\\xe4\\xb8\\xaa\\xe7\\x9f\\xbf\\xe6\\xb1\\xa0,\\xe5\\xae\\x9a\\xe6\\x81\\xaf\\xe7\\x9f\\xbf\\xe6\\xb1\\xa0.sol\":1962:2054  function setRatio(uint _ratio) external onlyOwner {    ... */\n    tag_10:\n      tag_44\n      tag_45\n      calldatasize\n      0x04\n      tag_17\n      jump\t// in\n    tag_45:\n      tag_46\n      jump\t// in\n    tag_44:\n      stop\n        /* \"\\xe8\\x87\\xaa\\xe5\\xb7\\xb1\\xe5\\x86\\x99\\xe4\\xb8\\xaa\\xe7\\x9f\\xbf\\xe6\\xb1\\xa0,\\xe5\\xae\\x9a\\xe6\\x81\\xaf\\xe7\\x9f\\xbf\\xe6\\xb1\\xa0.sol\":878:901  uint public stakeSupple */\n    tag_11:\n      tag_25\n      sload(0x03)\n      dup2\n      jump\n        /* \"\\xe8\\x87\\xaa\\xe5\\xb7\\xb1\\xe5\\x86\\x99\\xe4\\xb8\\xaa\\xe7\\x9f\\xbf\\xe6\\xb1\\xa0,\\xe5\\xae\\x9a\\xe6\\x81\\xaf\\xe7\\x9f\\xbf\\xe6\\xb1\\xa0.sol\":817:842  address public staketoken */\n    tag_12:\n      sload(0x01)\n      tag_21\n      swap1\n      sub(shl(0xa0, 0x01), 0x01)\n      and\n      dup2\n      jump\n        /* \"\\xe8\\x87\\xaa\\xe5\\xb7\\xb1\\xe5\\x86\\x99\\xe4\\xb8\\xaa\\xe7\\x9f\\xbf\\xe6\\xb1\\xa0,\\xe5\\xae\\x9a\\xe6\\x81\\xaf\\xe7\\x9f\\xbf\\xe6\\xb1\\xa0.sol\":4649:5458  function harvestwithDraw() public returns (bool) {... */\n    tag_13:\n      tag_15\n      tag_54\n      jump\t// in\n        /* \"\\xe8\\x87\\xaa\\xe5\\xb7\\xb1\\xe5\\x86\\x99\\xe4\\xb8\\xaa\\xe7\\x9f\\xbf\\xe6\\xb1\\xa0,\\xe5\\xae\\x9a\\xe6\\x81\\xaf\\xe7\\x9f\\xbf\\xe6\\xb1\\xa0.sol\":2062:2704  function Stake(uint _amount) public returns (bool){... */\n    tag_18:\n        /* \"\\xe8\\x87\\xaa\\xe5\\xb7\\xb1\\xe5\\x86\\x99\\xe4\\xb8\\xaa\\xe7\\x9f\\xbf\\xe6\\xb1\\xa0,\\xe5\\xae\\x9a\\xe6\\x81\\xaf\\xe7\\x9f\\xbf\\xe6\\xb1\\xa0.sol\":2132:2142  staketoken */\n      sload(0x01)\n        /* \"\\xe8\\x87\\xaa\\xe5\\xb7\\xb1\\xe5\\x86\\x99\\xe4\\xb8\\xaa\\xe7\\x9f\\xbf\\xe6\\xb1\\xa0,\\xe5\\xae\\x9a\\xe6\\x81\\xaf\\xe7\\x9f\\xbf\\xe6\\xb1\\xa0.sol\":2125:2192  IERC20(staketoken).transferFrom(msg.sender, address(this), _amount) */\n      mload(0x40)\n      shl(0xe0, 0x23b872dd)\n      dup2\n      mstore\n        /* \"\\xe8\\x87\\xaa\\xe5\\xb7\\xb1\\xe5\\x86\\x99\\xe4\\xb8\\xaa\\xe7\\x9f\\xbf\\xe6\\xb1\\xa0,\\xe5\\xae\\x9a\\xe6\\x81\\xaf\\xe7\\x9f\\xbf\\xe6\\xb1\\xa0.sol\":2157:2167  msg.sender */\n      caller\n        /* \"\\xe8\\x87\\xaa\\xe5\\xb7\\xb1\\xe5\\x86\\x99\\xe4\\xb8\\xaa\\xe7\\x9f\\xbf\\xe6\\xb1\\xa0,\\xe5\\xae\\x9a\\xe6\\x81\\xaf\\xe7\\x9f\\xbf\\xe6\\xb1\\xa0.sol\":2125:2192  IERC20(staketoken).transferFrom(msg.sender, address(this), _amount) */\n      0x04\n      dup3\n      add\n        /* \"#utility.yul\":1852:1886   */\n      mstore\n        /* \"\\xe8\\x87\\xaa\\xe5\\xb7\\xb1\\xe5\\x86\\x99\\xe4\\xb8\\xaa\\xe7\\x9f\\xbf\\xe6\\xb1\\xa0,\\xe5\\xae\\x9a\\xe6\\x81\\xaf\\xe7\\x9f\\xbf\\xe6\\xb1\\xa0.sol\":2177:2181  this */\n      address\n        /* \"#utility.yul\":1902:1920   */\n      0x24\n      dup3\n      add\n        /* \"#utility.yul\":1895:1938   */\n      mstore\n        /* \"#utility.yul\":1954:1972   */\n      0x44\n      dup2\n      add\n        /* \"#utility.yul\":1947:1981   */\n      dup4\n      swap1\n      mstore\n        /* \"\\xe8\\x87\\xaa\\xe5\\xb7\\xb1\\xe5\\x86\\x99\\xe4\\xb8\\xaa\\xe7\\x9f\\xbf\\xe6\\xb1\\xa0,\\xe5\\xae\\x9a\\xe6\\x81\\xaf\\xe7\\x9f\\xbf\\xe6\\xb1\\xa0.sol\":2107:2111  bool */\n      0x00\n      swap2\n      sub(shl(0xa0, 0x01), 0x01)\n        /* \"\\xe8\\x87\\xaa\\xe5\\xb7\\xb1\\xe5\\x86\\x99\\xe4\\xb8\\xaa\\xe7\\x9f\\xbf\\xe6\\xb1\\xa0,\\xe5\\xae\\x9a\\xe6\\x81\\xaf\\xe7\\x9f\\xbf\\xe6\\xb1\\xa0.sol\":2132:2142  staketoken */\n      and\n      swap1\n        /* \"\\xe8\\x87\\xaa\\xe5\\xb7\\xb1\\xe5\\x86\\x99\\xe4\\xb8\\xaa\\xe7\\x9f\\xbf\\xe6\\xb1\\xa0,\\xe5\\xae\\x9a\\xe6\\x81\\xaf\\xe7\\x9f\\xbf\\xe6\\xb1\\xa0.sol\":2125:2156  IERC20(staketoken).transferFrom */\n      0x23b872dd\n      swap1\n        /* \"#utility.yul\":1787:1805   */\n      0x64\n      add\n        /* \"\\xe8\\x87\\xaa\\xe5\\xb7\\xb1\\xe5\\x86\\x99\\xe4\\xb8\\xaa\\xe7\\x9f\\xbf\\xe6\\xb1\\xa0,\\xe5\\xae\\x9a\\xe6\\x81\\xaf\\xe7\\x9f\\xbf\\xe6\\xb1\\xa0.sol\":2125:2192  IERC20(staketoken).transferFrom(msg.sender, address(this), _amount) */\n      0x20\n      mload(0x40)\n      dup1\n      dup4\n      sub\n      dup2\n      0x00\n      dup8\n      gas\n      call\n      iszero\n      dup1\n      iszero\n      tag_60\n      jumpi\n      returndatasize\n      0x00\n      dup1\n      returndatacopy\n      revert(0x00, returndatasize)\n    tag_60:\n      pop\n      pop\n      pop\n      pop\n      mload(0x40)\n      returndatasize\n      not(0x1f)\n      0x1f\n      dup3\n      add\n      and\n      dup3\n      add\n      dup1\n      0x40\n      mstore\n      pop\n      dup2\n      add\n      swap1\n      tag_61\n      swap2\n      swap1\n      tag_62\n      jump\t// in\n    tag_61:\n      pop\n        /* \"\\xe8\\x87\\xaa\\xe5\\xb7\\xb1\\xe5\\x86\\x99\\xe4\\xb8\\xaa\\xe7\\x9f\\xbf\\xe6\\xb1\\xa0,\\xe5\\xae\\x9a\\xe6\\x81\\xaf\\xe7\\x9f\\xbf\\xe6\\xb1\\xa0.sol\":2211:2254  Trasfer(msg.sender, address(this), _amount) */\n      mload(0x40)\n        /* \"#utility.yul\":745:770   */\n      dup3\n      dup2\n      mstore\n        /* \"\\xe8\\x87\\xaa\\xe5\\xb7\\xb1\\xe5\\x86\\x99\\xe4\\xb8\\xaa\\xe7\\x9f\\xbf\\xe6\\xb1\\xa0,\\xe5\\xae\\x9a\\xe6\\x81\\xaf\\xe7\\x9f\\xbf\\xe6\\xb1\\xa0.sol\":2239:2243  this */\n      address\n      swap1\n        /* \"\\xe8\\x87\\xaa\\xe5\\xb7\\xb1\\xe5\\x86\\x99\\xe4\\xb8\\xaa\\xe7\\x9f\\xbf\\xe6\\xb1\\xa0,\\xe5\\xae\\x9a\\xe6\\x81\\xaf\\xe7\\x9f\\xbf\\xe6\\xb1\\xa0.sol\":2219:2229  msg.sender */\n      caller\n      swap1\n        /* \"\\xe8\\x87\\xaa\\xe5\\xb7\\xb1\\xe5\\x86\\x99\\xe4\\xb8\\xaa\\xe7\\x9f\\xbf\\xe6\\xb1\\xa0,\\xe5\\xae\\x9a\\xe6\\x81\\xaf\\xe7\\x9f\\xbf\\xe6\\xb1\\xa0.sol\":2211:2254  Trasfer(msg.sender, address(this), _amount) */\n      0x1fd6ebb971d137acf3f01670862b8a96758cfc7e39dccb093e68daf461b0262c\n      swap1\n        /* \"#utility.yul\":733:735   */\n      0x20\n        /* \"#utility.yul\":718:736   */\n      add\n        /* \"\\xe8\\x87\\xaa\\xe5\\xb7\\xb1\\xe5\\x86\\x99\\xe4\\xb8\\xaa\\xe7\\x9f\\xbf\\xe6\\xb1\\xa0,\\xe5\\xae\\x9a\\xe6\\x81\\xaf\\xe7\\x9f\\xbf\\xe6\\xb1\\xa0.sol\":2211:2254  Trasfer(msg.sender, address(this), _amount) */\n      mload(0x40)\n      dup1\n      swap2\n      sub\n      swap1\n      log3\n        /* \"\\xe8\\x87\\xaa\\xe5\\xb7\\xb1\\xe5\\x86\\x99\\xe4\\xb8\\xaa\\xe7\\x9f\\xbf\\xe6\\xb1\\xa0,\\xe5\\xae\\x9a\\xe6\\x81\\xaf\\xe7\\x9f\\xbf\\xe6\\xb1\\xa0.sol\":2405:2410  ratio */\n      0x00\n      dup1\n      sload\n        /* \"\\xe8\\x87\\xaa\\xe5\\xb7\\xb1\\xe5\\x86\\x99\\xe4\\xb8\\xaa\\xe7\\x9f\\xbf\\xe6\\xb1\\xa0,\\xe5\\xae\\x9a\\xe6\\x81\\xaf\\xe7\\x9f\\xbf\\xe6\\xb1\\xa0.sol\":2379:2389  msg.sender */\n      caller\n        /* \"\\xe8\\x87\\xaa\\xe5\\xb7\\xb1\\xe5\\x86\\x99\\xe4\\xb8\\xaa\\xe7\\x9f\\xbf\\xe6\\xb1\\xa0,\\xe5\\xae\\x9a\\xe6\\x81\\xaf\\xe7\\x9f\\xbf\\xe6\\xb1\\xa0.sol\":2370:2390  User_Map[msg.sender] */\n      dup3\n      mstore\n        /* \"\\xe8\\x87\\xaa\\xe5\\xb7\\xb1\\xe5\\x86\\x99\\xe4\\xb8\\xaa\\xe7\\x9f\\xbf\\xe6\\xb1\\xa0,\\xe5\\xae\\x9a\\xe6\\x81\\xaf\\xe7\\x9f\\xbf\\xe6\\xb1\\xa0.sol\":2370:2378  User_Map */\n      0x05\n        /* \"\\xe8\\x87\\xaa\\xe5\\xb7\\xb1\\xe5\\x86\\x99\\xe4\\xb8\\xaa\\xe7\\x9f\\xbf\\xe6\\xb1\\xa0,\\xe5\\xae\\x9a\\xe6\\x81\\xaf\\xe7\\x9f\\xbf\\xe6\\xb1\\xa0.sol\":2370:2390  User_Map[msg.sender] */\n      0x20\n      mstore\n      0x40\n      swap1\n      swap2\n      keccak256\n        /* \"\\xe8\\x87\\xaa\\xe5\\xb7\\xb1\\xe5\\x86\\x99\\xe4\\xb8\\xaa\\xe7\\x9f\\xbf\\xe6\\xb1\\xa0,\\xe5\\xae\\x9a\\xe6\\x81\\xaf\\xe7\\x9f\\xbf\\xe6\\xb1\\xa0.sol\":2370:2402  User_Map[msg.sender].stakeNumber */\n      sload\n        /* \"\\xe8\\x87\\xaa\\xe5\\xb7\\xb1\\xe5\\x86\\x99\\xe4\\xb8\\xaa\\xe7\\x9f\\xbf\\xe6\\xb1\\xa0,\\xe5\\xae\\x9a\\xe6\\x81\\xaf\\xe7\\x9f\\xbf\\xe6\\xb1\\xa0.sol\":2419:2427  31536000 */\n      0x01e13380\n      swap2\n        /* \"\\xe8\\x87\\xaa\\xe5\\xb7\\xb1\\xe5\\x86\\x99\\xe4\\xb8\\xaa\\xe7\\x9f\\xbf\\xe6\\xb1\\xa0,\\xe5\\xae\\x9a\\xe6\\x81\\xaf\\xe7\\x9f\\xbf\\xe6\\xb1\\xa0.sol\":2412:2415  100 */\n      0x64\n      swap2\n        /* \"\\xe8\\x87\\xaa\\xe5\\xb7\\xb1\\xe5\\x86\\x99\\xe4\\xb8\\xaa\\xe7\\x9f\\xbf\\xe6\\xb1\\xa0,\\xe5\\xae\\x9a\\xe6\\x81\\xaf\\xe7\\x9f\\xbf\\xe6\\xb1\\xa0.sol\":2370:2410  User_Map[msg.sender].stakeNumber * ratio */\n      tag_64\n      swap2\n        /* \"\\xe8\\x87\\xaa\\xe5\\xb7\\xb1\\xe5\\x86\\x99\\xe4\\xb8\\xaa\\xe7\\x9f\\xbf\\xe6\\xb1\\xa0,\\xe5\\xae\\x9a\\xe6\\x81\\xaf\\xe7\\x9f\\xbf\\xe6\\xb1\\xa0.sol\":2405:2410  ratio */\n      swap1\n        /* \"\\xe8\\x87\\xaa\\xe5\\xb7\\xb1\\xe5\\x86\\x99\\xe4\\xb8\\xaa\\xe7\\x9f\\xbf\\xe6\\xb1\\xa0,\\xe5\\xae\\x9a\\xe6\\x81\\xaf\\xe7\\x9f\\xbf\\xe6\\xb1\\xa0.sol\":2370:2410  User_Map[msg.sender].stakeNumber * ratio */\n      tag_65\n      jump\t// in\n    tag_64:\n        /* \"\\xe8\\x87\\xaa\\xe5\\xb7\\xb1\\xe5\\x86\\x99\\xe4\\xb8\\xaa\\xe7\\x9f\\xbf\\xe6\\xb1\\xa0,\\xe5\\xae\\x9a\\xe6\\x81\\xaf\\xe7\\x9f\\xbf\\xe6\\xb1\\xa0.sol\":2370:2415  User_Map[msg.sender].stakeNumber * ratio /100 */\n      tag_66\n      swap2\n      swap1\n      tag_67\n      jump\t// in\n    tag_66:\n        /* \"\\xe8\\x87\\xaa\\xe5\\xb7\\xb1\\xe5\\x86\\x99\\xe4\\xb8\\xaa\\xe7\\x9f\\xbf\\xe6\\xb1\\xa0,\\xe5\\xae\\x9a\\xe6\\x81\\xaf\\xe7\\x9f\\xbf\\xe6\\xb1\\xa0.sol\":2369:2427  (User_Map[msg.sender].stakeNumber * ratio /100) / 31536000 */\n      tag_68\n      swap2\n      swap1\n      tag_67\n      jump\t// in\n    tag_68:\n        /* \"\\xe8\\x87\\xaa\\xe5\\xb7\\xb1\\xe5\\x86\\x99\\xe4\\xb8\\xaa\\xe7\\x9f\\xbf\\xe6\\xb1\\xa0,\\xe5\\xae\\x9a\\xe6\\x81\\xaf\\xe7\\x9f\\xbf\\xe6\\xb1\\xa0.sol\":2337:2347  msg.sender */\n      caller\n        /* \"\\xe8\\x87\\xaa\\xe5\\xb7\\xb1\\xe5\\x86\\x99\\xe4\\xb8\\xaa\\xe7\\x9f\\xbf\\xe6\\xb1\\xa0,\\xe5\\xae\\x9a\\xe6\\x81\\xaf\\xe7\\x9f\\xbf\\xe6\\xb1\\xa0.sol\":2328:2348  User_Map[msg.sender] */\n      0x00\n      swap1\n      dup2\n      mstore\n        /* \"\\xe8\\x87\\xaa\\xe5\\xb7\\xb1\\xe5\\x86\\x99\\xe4\\xb8\\xaa\\xe7\\x9f\\xbf\\xe6\\xb1\\xa0,\\xe5\\xae\\x9a\\xe6\\x81\\xaf\\xe7\\x9f\\xbf\\xe6\\xb1\\xa0.sol\":2328:2336  User_Map */\n      0x05\n        /* \"\\xe8\\x87\\xaa\\xe5\\xb7\\xb1\\xe5\\x86\\x99\\xe4\\xb8\\xaa\\xe7\\x9f\\xbf\\xe6\\xb1\\xa0,\\xe5\\xae\\x9a\\xe6\\x81\\xaf\\xe7\\x9f\\xbf\\xe6\\xb1\\xa0.sol\":2328:2348  User_Map[msg.sender] */\n      0x20\n      mstore\n      0x40\n      swap1\n      keccak256\n        /* \"\\xe8\\x87\\xaa\\xe5\\xb7\\xb1\\xe5\\x86\\x99\\xe4\\xb8\\xaa\\xe7\\x9f\\xbf\\xe6\\xb1\\xa0,\\xe5\\xae\\x9a\\xe6\\x81\\xaf\\xe7\\x9f\\xbf\\xe6\\xb1\\xa0.sol\":2328:2364  User_Map[msg.sender].last_Stake_Time */\n      0x01\n      add\n      sload\n        /* \"\\xe8\\x87\\xaa\\xe5\\xb7\\xb1\\xe5\\x86\\x99\\xe4\\xb8\\xaa\\xe7\\x9f\\xbf\\xe6\\xb1\\xa0,\\xe5\\xae\\x9a\\xe6\\x81\\xaf\\xe7\\x9f\\xbf\\xe6\\xb1\\xa0.sol\":2310:2364  block.timestamp - User_Map[msg.sender].last_Stake_Time */\n      tag_69\n      swap1\n        /* \"\\xe8\\x87\\xaa\\xe5\\xb7\\xb1\\xe5\\x86\\x99\\xe4\\xb8\\xaa\\xe7\\x9f\\xbf\\xe6\\xb1\\xa0,\\xe5\\xae\\x9a\\xe6\\x81\\xaf\\xe7\\x9f\\xbf\\xe6\\xb1\\xa0.sol\":2310:2325  block.timestamp */\n      timestamp\n        /* \"\\xe8\\x87\\xaa\\xe5\\xb7\\xb1\\xe5\\x86\\x99\\xe4\\xb8\\xaa\\xe7\\x9f\\xbf\\xe6\\xb1\\xa0,\\xe5\\xae\\x9a\\xe6\\x81\\xaf\\xe7\\x9f\\xbf\\xe6\\xb1\\xa0.sol\":2310:2364  block.timestamp - User_Map[msg.sender].last_Stake_Time */\n      tag_70\n      jump\t// in\n    tag_69:\n        /* \"\\xe8\\x87\\xaa\\xe5\\xb7\\xb1\\xe5\\x86\\x99\\xe4\\xb8\\xaa\\xe7\\x9f\\xbf\\xe6\\xb1\\xa0,\\xe5\\xae\\x9a\\xe6\\x81\\xaf\\xe7\\x9f\\xbf\\xe6\\xb1\\xa0.sol\":2309:2428  (block.timestamp - User_Map[msg.sender].last_Stake_Time) * ((User_Map[msg.sender].stakeNumber * ratio /100) / 31536000) */\n      tag_71\n      swap2\n      swap1\n      tag_65\n      jump\t// in\n    tag_71:\n        /* \"\\xe8\\x87\\xaa\\xe5\\xb7\\xb1\\xe5\\x86\\x99\\xe4\\xb8\\xaa\\xe7\\x9f\\xbf\\xe6\\xb1\\xa0,\\xe5\\xae\\x9a\\xe6\\x81\\xaf\\xe7\\x9f\\xbf\\xe6\\xb1\\xa0.sol\":2276:2286  msg.sender */\n      caller\n        /* \"\\xe8\\x87\\xaa\\xe5\\xb7\\xb1\\xe5\\x86\\x99\\xe4\\xb8\\xaa\\xe7\\x9f\\xbf\\xe6\\xb1\\xa0,\\xe5\\xae\\x9a\\xe6\\x81\\xaf\\xe7\\x9f\\xbf\\xe6\\xb1\\xa0.sol\":2267:2287  User_Map[msg.sender] */\n      0x00\n      swap1\n      dup2\n      mstore\n        /* \"\\xe8\\x87\\xaa\\xe5\\xb7\\xb1\\xe5\\x86\\x99\\xe4\\xb8\\xaa\\xe7\\x9f\\xbf\\xe6\\xb1\\xa0,\\xe5\\xae\\x9a\\xe6\\x81\\xaf\\xe7\\x9f\\xbf\\xe6\\xb1\\xa0.sol\":2267:2275  User_Map */\n      0x05\n        /* \"\\xe8\\x87\\xaa\\xe5\\xb7\\xb1\\xe5\\x86\\x99\\xe4\\xb8\\xaa\\xe7\\x9f\\xbf\\xe6\\xb1\\xa0,\\xe5\\xae\\x9a\\xe6\\x81\\xaf\\xe7\\x9f\\xbf\\xe6\\xb1\\xa0.sol\":2267:2287  User_Map[msg.sender] */\n      0x20\n      mstore\n      0x40\n      dup2\n      keccak256\n        /* \"\\xe8\\x87\\xaa\\xe5\\xb7\\xb1\\xe5\\x86\\x99\\xe4\\xb8\\xaa\\xe7\\x9f\\xbf\\xe6\\xb1\\xa0,\\xe5\\xae\\x9a\\xe6\\x81\\xaf\\xe7\\x9f\\xbf\\xe6\\xb1\\xa0.sol\":2267:2306  User_Map[msg.sender].last_totoken_ratio */\n      0x02\n      dup2\n      add\n        /* \"\\xe8\\x87\\xaa\\xe5\\xb7\\xb1\\xe5\\x86\\x99\\xe4\\xb8\\xaa\\xe7\\x9f\\xbf\\xe6\\xb1\\xa0,\\xe5\\xae\\x9a\\xe6\\x81\\xaf\\xe7\\x9f\\xbf\\xe6\\xb1\\xa0.sol\":2267:2428  User_Map[msg.sender].last_totoken_ratio = (block.timestamp - User_Map[msg.sender].last_Stake_Time) * ((User_Map[msg.sender].stakeNumber * ratio /100) / 31536000) */\n      swap3\n      swap1\n      swap3\n      sstore\n        /* \"\\xe8\\x87\\xaa\\xe5\\xb7\\xb1\\xe5\\x86\\x99\\xe4\\xb8\\xaa\\xe7\\x9f\\xbf\\xe6\\xb1\\xa0,\\xe5\\xae\\x9a\\xe6\\x81\\xaf\\xe7\\x9f\\xbf\\xe6\\xb1\\xa0.sol\":2441:2484  User_Map[msg.sender].stakeNumber += _amount */\n      dup2\n      sload\n        /* \"\\xe8\\x87\\xaa\\xe5\\xb7\\xb1\\xe5\\x86\\x99\\xe4\\xb8\\xaa\\xe7\\x9f\\xbf\\xe6\\xb1\\xa0,\\xe5\\xae\\x9a\\xe6\\x81\\xaf\\xe7\\x9f\\xbf\\xe6\\xb1\\xa0.sol\":2477:2484  _amount */\n      dup5\n      swap3\n        /* \"\\xe8\\x87\\xaa\\xe5\\xb7\\xb1\\xe5\\x86\\x99\\xe4\\xb8\\xaa\\xe7\\x9f\\xbf\\xe6\\xb1\\xa0,\\xe5\\xae\\x9a\\xe6\\x81\\xaf\\xe7\\x9f\\xbf\\xe6\\xb1\\xa0.sol\":2267:2287  User_Map[msg.sender] */\n      swap2\n      swap1\n        /* \"\\xe8\\x87\\xaa\\xe5\\xb7\\xb1\\xe5\\x86\\x99\\xe4\\xb8\\xaa\\xe7\\x9f\\xbf\\xe6\\xb1\\xa0,\\xe5\\xae\\x9a\\xe6\\x81\\xaf\\xe7\\x9f\\xbf\\xe6\\xb1\\xa0.sol\":2441:2484  User_Map[msg.sender].stakeNumber += _amount */\n      tag_72\n      swap1\n        /* \"\\xe8\\x87\\xaa\\xe5\\xb7\\xb1\\xe5\\x86\\x99\\xe4\\xb8\\xaa\\xe7\\x9f\\xbf\\xe6\\xb1\\xa0,\\xe5\\xae\\x9a\\xe6\\x81\\xaf\\xe7\\x9f\\xbf\\xe6\\xb1\\xa0.sol\":2477:2484  _amount */\n      dup5\n      swap1\n        /* \"\\xe8\\x87\\xaa\\xe5\\xb7\\xb1\\xe5\\x86\\x99\\xe4\\xb8\\xaa\\xe7\\x9f\\xbf\\xe6\\xb1\\xa0,\\xe5\\xae\\x9a\\xe6\\x81\\xaf\\xe7\\x9f\\xbf\\xe6\\xb1\\xa0.sol\":2441:2484  User_Map[msg.sender].stakeNumber += _amount */\n      tag_73\n      jump\t// in\n    tag_72:\n      swap1\n      swap2\n      sstore\n      pop\n      pop\n        /* \"\\xe8\\x87\\xaa\\xe5\\xb7\\xb1\\xe5\\x86\\x99\\xe4\\xb8\\xaa\\xe7\\x9f\\xbf\\xe6\\xb1\\xa0,\\xe5\\xae\\x9a\\xe6\\x81\\xaf\\xe7\\x9f\\xbf\\xe6\\xb1\\xa0.sol\":2504:2514  msg.sender */\n      caller\n        /* \"\\xe8\\x87\\xaa\\xe5\\xb7\\xb1\\xe5\\x86\\x99\\xe4\\xb8\\xaa\\xe7\\x9f\\xbf\\xe6\\xb1\\xa0,\\xe5\\xae\\x9a\\xe6\\x81\\xaf\\xe7\\x9f\\xbf\\xe6\\xb1\\xa0.sol\":2495:2515  User_Map[msg.sender] */\n      0x00\n      swap1\n      dup2\n      mstore\n        /* \"\\xe8\\x87\\xaa\\xe5\\xb7\\xb1\\xe5\\x86\\x99\\xe4\\xb8\\xaa\\xe7\\x9f\\xbf\\xe6\\xb1\\xa0,\\xe5\\xae\\x9a\\xe6\\x81\\xaf\\xe7\\x9f\\xbf\\xe6\\xb1\\xa0.sol\":2495:2503  User_Map */\n      0x05\n        /* \"\\xe8\\x87\\xaa\\xe5\\xb7\\xb1\\xe5\\x86\\x99\\xe4\\xb8\\xaa\\xe7\\x9f\\xbf\\xe6\\xb1\\xa0,\\xe5\\xae\\x9a\\xe6\\x81\\xaf\\xe7\\x9f\\xbf\\xe6\\xb1\\xa0.sol\":2495:2515  User_Map[msg.sender] */\n      0x20\n      mstore\n      0x40\n      dup2\n      keccak256\n        /* \"\\xe8\\x87\\xaa\\xe5\\xb7\\xb1\\xe5\\x86\\x99\\xe4\\xb8\\xaa\\xe7\\x9f\\xbf\\xe6\\xb1\\xa0,\\xe5\\xae\\x9a\\xe6\\x81\\xaf\\xe7\\x9f\\xbf\\xe6\\xb1\\xa0.sol\":2534:2549  block.timestamp */\n      timestamp\n        /* \"\\xe8\\x87\\xaa\\xe5\\xb7\\xb1\\xe5\\x86\\x99\\xe4\\xb8\\xaa\\xe7\\x9f\\xbf\\xe6\\xb1\\xa0,\\xe5\\xae\\x9a\\xe6\\x81\\xaf\\xe7\\x9f\\xbf\\xe6\\xb1\\xa0.sol\":2495:2531  User_Map[msg.sender].last_Stake_Time */\n      0x01\n      swap1\n      swap2\n      add\n        /* \"\\xe8\\x87\\xaa\\xe5\\xb7\\xb1\\xe5\\x86\\x99\\xe4\\xb8\\xaa\\xe7\\x9f\\xbf\\xe6\\xb1\\xa0,\\xe5\\xae\\x9a\\xe6\\x81\\xaf\\xe7\\x9f\\xbf\\xe6\\xb1\\xa0.sol\":2495:2549  User_Map[msg.sender].last_Stake_Time = block.timestamp */\n      sstore\n        /* \"\\xe8\\x87\\xaa\\xe5\\xb7\\xb1\\xe5\\x86\\x99\\xe4\\xb8\\xaa\\xe7\\x9f\\xbf\\xe6\\xb1\\xa0,\\xe5\\xae\\x9a\\xe6\\x81\\xaf\\xe7\\x9f\\xbf\\xe6\\xb1\\xa0.sol\":2560:2571  stakeSupple */\n      0x03\n        /* \"\\xe8\\x87\\xaa\\xe5\\xb7\\xb1\\xe5\\x86\\x99\\xe4\\xb8\\xaa\\xe7\\x9f\\xbf\\xe6\\xb1\\xa0,\\xe5\\xae\\x9a\\xe6\\x81\\xaf\\xe7\\x9f\\xbf\\xe6\\xb1\\xa0.sol\":2560:2582  stakeSupple += _amount */\n      dup1\n      sload\n        /* \"\\xe8\\x87\\xaa\\xe5\\xb7\\xb1\\xe5\\x86\\x99\\xe4\\xb8\\xaa\\xe7\\x9f\\xbf\\xe6\\xb1\\xa0,\\xe5\\xae\\x9a\\xe6\\x81\\xaf\\xe7\\x9f\\xbf\\xe6\\xb1\\xa0.sol\":2575:2582  _amount */\n      dup5\n      swap3\n        /* \"\\xe8\\x87\\xaa\\xe5\\xb7\\xb1\\xe5\\x86\\x99\\xe4\\xb8\\xaa\\xe7\\x9f\\xbf\\xe6\\xb1\\xa0,\\xe5\\xae\\x9a\\xe6\\x81\\xaf\\xe7\\x9f\\xbf\\xe6\\xb1\\xa0.sol\":2495:2515  User_Map[msg.sender] */\n      swap1\n        /* \"\\xe8\\x87\\xaa\\xe5\\xb7\\xb1\\xe5\\x86\\x99\\xe4\\xb8\\xaa\\xe7\\x9f\\xbf\\xe6\\xb1\\xa0,\\xe5\\xae\\x9a\\xe6\\x81\\xaf\\xe7\\x9f\\xbf\\xe6\\xb1\\xa0.sol\":2560:2582  stakeSupple += _amount */\n      tag_74\n      swap1\n        /* \"\\xe8\\x87\\xaa\\xe5\\xb7\\xb1\\xe5\\x86\\x99\\xe4\\xb8\\xaa\\xe7\\x9f\\xbf\\xe6\\xb1\\xa0,\\xe5\\xae\\x9a\\xe6\\x81\\xaf\\xe7\\x9f\\xbf\\xe6\\xb1\\xa0.sol\":2575:2582  _amount */\n      dup5\n      swap1\n        /* \"\\xe8\\x87\\xaa\\xe5\\xb7\\xb1\\xe5\\x86\\x99\\xe4\\xb8\\xaa\\xe7\\x9f\\xbf\\xe6\\xb1\\xa0,\\xe5\\xae\\x9a\\xe6\\x81\\xaf\\xe7\\x9f\\xbf\\xe6\\xb1\\xa0.sol\":2560:2582  stakeSupple += _amount */\n      tag_73\n      jump\t// in\n    tag_74:\n      swap1\n      swap2\n      sstore\n      pop\n      pop\n        /* \"\\xe8\\x87\\xaa\\xe5\\xb7\\xb1\\xe5\\x86\\x99\\xe4\\xb8\\xaa\\xe7\\x9f\\xbf\\xe6\\xb1\\xa0,\\xe5\\xae\\x9a\\xe6\\x81\\xaf\\xe7\\x9f\\xbf\\xe6\\xb1\\xa0.sol\":2643:2653  msg.sender */\n      caller\n        /* \"\\xe8\\x87\\xaa\\xe5\\xb7\\xb1\\xe5\\x86\\x99\\xe4\\xb8\\xaa\\xe7\\x9f\\xbf\\xe6\\xb1\\xa0,\\xe5\\xae\\x9a\\xe6\\x81\\xaf\\xe7\\x9f\\xbf\\xe6\\xb1\\xa0.sol\":2634:2654  User_Map[msg.sender] */\n      0x00\n      swap1\n      dup2\n      mstore\n        /* \"\\xe8\\x87\\xaa\\xe5\\xb7\\xb1\\xe5\\x86\\x99\\xe4\\xb8\\xaa\\xe7\\x9f\\xbf\\xe6\\xb1\\xa0,\\xe5\\xae\\x9a\\xe6\\x81\\xaf\\xe7\\x9f\\xbf\\xe6\\xb1\\xa0.sol\":2634:2642  User_Map */\n      0x05\n        /* \"\\xe8\\x87\\xaa\\xe5\\xb7\\xb1\\xe5\\x86\\x99\\xe4\\xb8\\xaa\\xe7\\x9f\\xbf\\xe6\\xb1\\xa0,\\xe5\\xae\\x9a\\xe6\\x81\\xaf\\xe7\\x9f\\xbf\\xe6\\xb1\\xa0.sol\":2634:2654  User_Map[msg.sender] */\n      0x20\n      mstore\n      0x40\n      swap1\n      keccak256\n        /* \"\\xe8\\x87\\xaa\\xe5\\xb7\\xb1\\xe5\\x86\\x99\\xe4\\xb8\\xaa\\xe7\\x9f\\xbf\\xe6\\xb1\\xa0,\\xe5\\xae\\x9a\\xe6\\x81\\xaf\\xe7\\x9f\\xbf\\xe6\\xb1\\xa0.sol\":2634:2670  User_Map[msg.sender].last_Stake_Time */\n      0x01\n      dup1\n      dup3\n      add\n      sload\n        /* \"\\xe8\\x87\\xaa\\xe5\\xb7\\xb1\\xe5\\x86\\x99\\xe4\\xb8\\xaa\\xe7\\x9f\\xbf\\xe6\\xb1\\xa0,\\xe5\\xae\\x9a\\xe6\\x81\\xaf\\xe7\\x9f\\xbf\\xe6\\xb1\\xa0.sol\":2593:2631  User_Map[msg.sender].last_totoken_Time */\n      0x04\n      swap1\n      swap3\n      add\n        /* \"\\xe8\\x87\\xaa\\xe5\\xb7\\xb1\\xe5\\x86\\x99\\xe4\\xb8\\xaa\\xe7\\x9f\\xbf\\xe6\\xb1\\xa0,\\xe5\\xae\\x9a\\xe6\\x81\\xaf\\xe7\\x9f\\xbf\\xe6\\xb1\\xa0.sol\":2593:2670  User_Map[msg.sender].last_totoken_Time = User_Map[msg.sender].last_Stake_Time */\n      swap2\n      swap1\n      swap2\n      sstore\n        /* \"\\xe8\\x87\\xaa\\xe5\\xb7\\xb1\\xe5\\x86\\x99\\xe4\\xb8\\xaa\\xe7\\x9f\\xbf\\xe6\\xb1\\xa0,\\xe5\\xae\\x9a\\xe6\\x81\\xaf\\xe7\\x9f\\xbf\\xe6\\xb1\\xa0.sol\":2634:2670  User_Map[msg.sender].last_Stake_Time */\n      swap3\n        /* \"\\xe8\\x87\\xaa\\xe5\\xb7\\xb1\\xe5\\x86\\x99\\xe4\\xb8\\xaa\\xe7\\x9f\\xbf\\xe6\\xb1\\xa0,\\xe5\\xae\\x9a\\xe6\\x81\\xaf\\xe7\\x9f\\xbf\\xe6\\xb1\\xa0.sol\":2062:2704  function Stake(uint _amount) public returns (bool){... */\n      swap2\n      pop\n      pop\n      jump\t// out\n        /* \"\\xe8\\x87\\xaa\\xe5\\xb7\\xb1\\xe5\\x86\\x99\\xe4\\xb8\\xaa\\xe7\\x9f\\xbf\\xe6\\xb1\\xa0,\\xe5\\xae\\x9a\\xe6\\x81\\xaf\\xe7\\x9f\\xbf\\xe6\\xb1\\xa0.sol\":4168:4455  function newTotokenRatio() public view returns (uint) {... */\n    tag_26:\n        /* \"\\xe8\\x87\\xaa\\xe5\\xb7\\xb1\\xe5\\x86\\x99\\xe4\\xb8\\xaa\\xe7\\x9f\\xbf\\xe6\\xb1\\xa0,\\xe5\\xae\\x9a\\xe6\\x81\\xaf\\xe7\\x9f\\xbf\\xe6\\xb1\\xa0.sol\":4275:4285  msg.sender */\n      caller\n        /* \"\\xe8\\x87\\xaa\\xe5\\xb7\\xb1\\xe5\\x86\\x99\\xe4\\xb8\\xaa\\xe7\\x9f\\xbf\\xe6\\xb1\\xa0,\\xe5\\xae\\x9a\\xe6\\x81\\xaf\\xe7\\x9f\\xbf\\xe6\\xb1\\xa0.sol\":4216:4220  uint */\n      0x00\n        /* \"\\xe8\\x87\\xaa\\xe5\\xb7\\xb1\\xe5\\x86\\x99\\xe4\\xb8\\xaa\\xe7\\x9f\\xbf\\xe6\\xb1\\xa0,\\xe5\\xae\\x9a\\xe6\\x81\\xaf\\xe7\\x9f\\xbf\\xe6\\xb1\\xa0.sol\":4266:4286  User_Map[msg.sender] */\n      swap1\n      dup2\n      mstore\n        /* \"\\xe8\\x87\\xaa\\xe5\\xb7\\xb1\\xe5\\x86\\x99\\xe4\\xb8\\xaa\\xe7\\x9f\\xbf\\xe6\\xb1\\xa0,\\xe5\\xae\\x9a\\xe6\\x81\\xaf\\xe7\\x9f\\xbf\\xe6\\xb1\\xa0.sol\":4266:4274  User_Map */\n      0x05\n        /* \"\\xe8\\x87\\xaa\\xe5\\xb7\\xb1\\xe5\\x86\\x99\\xe4\\xb8\\xaa\\xe7\\x9f\\xbf\\xe6\\xb1\\xa0,\\xe5\\xae\\x9a\\xe6\\x81\\xaf\\xe7\\x9f\\xbf\\xe6\\xb1\\xa0.sol\":4266:4286  User_Map[msg.sender] */\n      0x20\n      mstore\n      0x40\n      dup2\n      keccak256\n        /* \"\\xe8\\x87\\xaa\\xe5\\xb7\\xb1\\xe5\\x86\\x99\\xe4\\xb8\\xaa\\xe7\\x9f\\xbf\\xe6\\xb1\\xa0,\\xe5\\xae\\x9a\\xe6\\x81\\xaf\\xe7\\x9f\\xbf\\xe6\\xb1\\xa0.sol\":4266:4304  User_Map[msg.sender].last_totoken_Time */\n      0x04\n      add\n      sload\n        /* \"\\xe8\\x87\\xaa\\xe5\\xb7\\xb1\\xe5\\x86\\x99\\xe4\\xb8\\xaa\\xe7\\x9f\\xbf\\xe6\\xb1\\xa0,\\xe5\\xae\\x9a\\xe6\\x81\\xaf\\xe7\\x9f\\xbf\\xe6\\xb1\\xa0.sol\":4216:4220  uint */\n      dup2\n      swap1\n        /* \"\\xe8\\x87\\xaa\\xe5\\xb7\\xb1\\xe5\\x86\\x99\\xe4\\xb8\\xaa\\xe7\\x9f\\xbf\\xe6\\xb1\\xa0,\\xe5\\xae\\x9a\\xe6\\x81\\xaf\\xe7\\x9f\\xbf\\xe6\\xb1\\xa0.sol\":4248:4304  block.timestamp - User_Map[msg.sender].last_totoken_Time */\n      tag_76\n      swap1\n        /* \"\\xe8\\x87\\xaa\\xe5\\xb7\\xb1\\xe5\\x86\\x99\\xe4\\xb8\\xaa\\xe7\\x9f\\xbf\\xe6\\xb1\\xa0,\\xe5\\xae\\x9a\\xe6\\x81\\xaf\\xe7\\x9f\\xbf\\xe6\\xb1\\xa0.sol\":4248:4263  block.timestamp */\n      timestamp\n        /* \"\\xe8\\x87\\xaa\\xe5\\xb7\\xb1\\xe5\\x86\\x99\\xe4\\xb8\\xaa\\xe7\\x9f\\xbf\\xe6\\xb1\\xa0,\\xe5\\xae\\x9a\\xe6\\x81\\xaf\\xe7\\x9f\\xbf\\xe6\\xb1\\xa0.sol\":4248:4304  block.timestamp - User_Map[msg.sender].last_totoken_Time */\n      tag_70\n      jump\t// in\n    tag_76:\n        /* \"\\xe8\\x87\\xaa\\xe5\\xb7\\xb1\\xe5\\x86\\x99\\xe4\\xb8\\xaa\\xe7\\x9f\\xbf\\xe6\\xb1\\xa0,\\xe5\\xae\\x9a\\xe6\\x81\\xaf\\xe7\\x9f\\xbf\\xe6\\xb1\\xa0.sol\":4315:4337  uint newTotokenRatione */\n      0x00\n        /* \"\\xe8\\x87\\xaa\\xe5\\xb7\\xb1\\xe5\\x86\\x99\\xe4\\xb8\\xaa\\xe7\\x9f\\xbf\\xe6\\xb1\\xa0,\\xe5\\xae\\x9a\\xe6\\x81\\xaf\\xe7\\x9f\\xbf\\xe6\\xb1\\xa0.sol\":4387:4392  ratio */\n      dup1\n      sload\n        /* \"\\xe8\\x87\\xaa\\xe5\\xb7\\xb1\\xe5\\x86\\x99\\xe4\\xb8\\xaa\\xe7\\x9f\\xbf\\xe6\\xb1\\xa0,\\xe5\\xae\\x9a\\xe6\\x81\\xaf\\xe7\\x9f\\xbf\\xe6\\xb1\\xa0.sol\":4361:4371  msg.sender */\n      caller\n        /* \"\\xe8\\x87\\xaa\\xe5\\xb7\\xb1\\xe5\\x86\\x99\\xe4\\xb8\\xaa\\xe7\\x9f\\xbf\\xe6\\xb1\\xa0,\\xe5\\xae\\x9a\\xe6\\x81\\xaf\\xe7\\x9f\\xbf\\xe6\\xb1\\xa0.sol\":4352:4372  User_Map[msg.sender] */\n      dup3\n      mstore\n        /* \"\\xe8\\x87\\xaa\\xe5\\xb7\\xb1\\xe5\\x86\\x99\\xe4\\xb8\\xaa\\xe7\\x9f\\xbf\\xe6\\xb1\\xa0,\\xe5\\xae\\x9a\\xe6\\x81\\xaf\\xe7\\x9f\\xbf\\xe6\\xb1\\xa0.sol\":4352:4360  User_Map */\n      0x05\n        /* \"\\xe8\\x87\\xaa\\xe5\\xb7\\xb1\\xe5\\x86\\x99\\xe4\\xb8\\xaa\\xe7\\x9f\\xbf\\xe6\\xb1\\xa0,\\xe5\\xae\\x9a\\xe6\\x81\\xaf\\xe7\\x9f\\xbf\\xe6\\xb1\\xa0.sol\":4352:4372  User_Map[msg.sender] */\n      0x20\n      mstore\n      0x40\n      dup3\n      keccak256\n        /* \"\\xe8\\x87\\xaa\\xe5\\xb7\\xb1\\xe5\\x86\\x99\\xe4\\xb8\\xaa\\xe7\\x9f\\xbf\\xe6\\xb1\\xa0,\\xe5\\xae\\x9a\\xe6\\x81\\xaf\\xe7\\x9f\\xbf\\xe6\\xb1\\xa0.sol\":4352:4384  User_Map[msg.sender].stakeNumber */\n      sload\n        /* \"\\xe8\\x87\\xaa\\xe5\\xb7\\xb1\\xe5\\x86\\x99\\xe4\\xb8\\xaa\\xe7\\x9f\\xbf\\xe6\\xb1\\xa0,\\xe5\\xae\\x9a\\xe6\\x81\\xaf\\xe7\\x9f\\xbf\\xe6\\xb1\\xa0.sol\":4233:4304  uint newtime = block.timestamp - User_Map[msg.sender].last_totoken_Time */\n      swap3\n      swap4\n      pop\n        /* \"\\xe8\\x87\\xaa\\xe5\\xb7\\xb1\\xe5\\x86\\x99\\xe4\\xb8\\xaa\\xe7\\x9f\\xbf\\xe6\\xb1\\xa0,\\xe5\\xae\\x9a\\xe6\\x81\\xaf\\xe7\\x9f\\xbf\\xe6\\xb1\\xa0.sol\":4315:4337  uint newTotokenRatione */\n      swap1\n      swap2\n        /* \"\\xe8\\x87\\xaa\\xe5\\xb7\\xb1\\xe5\\x86\\x99\\xe4\\xb8\\xaa\\xe7\\x9f\\xbf\\xe6\\xb1\\xa0,\\xe5\\xae\\x9a\\xe6\\x81\\xaf\\xe7\\x9f\\xbf\\xe6\\xb1\\xa0.sol\":4401:4409  31536000 */\n      0x01e13380\n      swap2\n        /* \"\\xe8\\x87\\xaa\\xe5\\xb7\\xb1\\xe5\\x86\\x99\\xe4\\xb8\\xaa\\xe7\\x9f\\xbf\\xe6\\xb1\\xa0,\\xe5\\xae\\x9a\\xe6\\x81\\xaf\\xe7\\x9f\\xbf\\xe6\\xb1\\xa0.sol\":4394:4397  100 */\n      0x64\n      swap2\n        /* \"\\xe8\\x87\\xaa\\xe5\\xb7\\xb1\\xe5\\x86\\x99\\xe4\\xb8\\xaa\\xe7\\x9f\\xbf\\xe6\\xb1\\xa0,\\xe5\\xae\\x9a\\xe6\\x81\\xaf\\xe7\\x9f\\xbf\\xe6\\xb1\\xa0.sol\":4352:4392  User_Map[msg.sender].stakeNumber * ratio */\n      tag_77\n      swap2\n        /* \"\\xe8\\x87\\xaa\\xe5\\xb7\\xb1\\xe5\\x86\\x99\\xe4\\xb8\\xaa\\xe7\\x9f\\xbf\\xe6\\xb1\\xa0,\\xe5\\xae\\x9a\\xe6\\x81\\xaf\\xe7\\x9f\\xbf\\xe6\\xb1\\xa0.sol\":4387:4392  ratio */\n      swap1\n        /* \"\\xe8\\x87\\xaa\\xe5\\xb7\\xb1\\xe5\\x86\\x99\\xe4\\xb8\\xaa\\xe7\\x9f\\xbf\\xe6\\xb1\\xa0,\\xe5\\xae\\x9a\\xe6\\x81\\xaf\\xe7\\x9f\\xbf\\xe6\\xb1\\xa0.sol\":4352:4392  User_Map[msg.sender].stakeNumber * ratio */\n      tag_65\n      jump\t// in\n    tag_77:\n        /* \"\\xe8\\x87\\xaa\\xe5\\xb7\\xb1\\xe5\\x86\\x99\\xe4\\xb8\\xaa\\xe7\\x9f\\xbf\\xe6\\xb1\\xa0,\\xe5\\xae\\x9a\\xe6\\x81\\xaf\\xe7\\x9f\\xbf\\xe6\\xb1\\xa0.sol\":4352:4397  User_Map[msg.sender].stakeNumber * ratio /100 */\n      tag_78\n      swap2\n      swap1\n      tag_67\n      jump\t// in\n    tag_78:\n        /* \"\\xe8\\x87\\xaa\\xe5\\xb7\\xb1\\xe5\\x86\\x99\\xe4\\xb8\\xaa\\xe7\\x9f\\xbf\\xe6\\xb1\\xa0,\\xe5\\xae\\x9a\\xe6\\x81\\xaf\\xe7\\x9f\\xbf\\xe6\\xb1\\xa0.sol\":4351:4409  (User_Map[msg.sender].stakeNumber * ratio /100) / 31536000 */\n      tag_79\n      swap2\n      swap1\n      tag_67\n      jump\t// in\n    tag_79:\n        /* \"\\xe8\\x87\\xaa\\xe5\\xb7\\xb1\\xe5\\x86\\x99\\xe4\\xb8\\xaa\\xe7\\x9f\\xbf\\xe6\\xb1\\xa0,\\xe5\\xae\\x9a\\xe6\\x81\\xaf\\xe7\\x9f\\xbf\\xe6\\xb1\\xa0.sol\":4340:4410  newtime * ((User_Map[msg.sender].stakeNumber * ratio /100) / 31536000) */\n      tag_80\n      swap1\n        /* \"\\xe8\\x87\\xaa\\xe5\\xb7\\xb1\\xe5\\x86\\x99\\xe4\\xb8\\xaa\\xe7\\x9f\\xbf\\xe6\\xb1\\xa0,\\xe5\\xae\\x9a\\xe6\\x81\\xaf\\xe7\\x9f\\xbf\\xe6\\xb1\\xa0.sol\":4340:4347  newtime */\n      dup4\n        /* \"\\xe8\\x87\\xaa\\xe5\\xb7\\xb1\\xe5\\x86\\x99\\xe4\\xb8\\xaa\\xe7\\x9f\\xbf\\xe6\\xb1\\xa0,\\xe5\\xae\\x9a\\xe6\\x81\\xaf\\xe7\\x9f\\xbf\\xe6\\xb1\\xa0.sol\":4340:4410  newtime * ((User_Map[msg.sender].stakeNumber * ratio /100) / 31536000) */\n      tag_65\n      jump\t// in\n    tag_80:\n        /* \"\\xe8\\x87\\xaa\\xe5\\xb7\\xb1\\xe5\\x86\\x99\\xe4\\xb8\\xaa\\xe7\\x9f\\xbf\\xe6\\xb1\\xa0,\\xe5\\xae\\x9a\\xe6\\x81\\xaf\\xe7\\x9f\\xbf\\xe6\\xb1\\xa0.sol\":4315:4410  uint newTotokenRatione = newtime * ((User_Map[msg.sender].stakeNumber * ratio /100) / 31536000) */\n      swap4\n        /* \"\\xe8\\x87\\xaa\\xe5\\xb7\\xb1\\xe5\\x86\\x99\\xe4\\xb8\\xaa\\xe7\\x9f\\xbf\\xe6\\xb1\\xa0,\\xe5\\xae\\x9a\\xe6\\x81\\xaf\\xe7\\x9f\\xbf\\xe6\\xb1\\xa0.sol\":4168:4455  function newTotokenRatio() public view returns (uint) {... */\n      swap3\n      pop\n      pop\n      pop\n      jump\t// out\n        /* \"\\xe8\\x87\\xaa\\xe5\\xb7\\xb1\\xe5\\x86\\x99\\xe4\\xb8\\xaa\\xe7\\x9f\\xbf\\xe6\\xb1\\xa0,\\xe5\\xae\\x9a\\xe6\\x81\\xaf\\xe7\\x9f\\xbf\\xe6\\xb1\\xa0.sol\":1962:2054  function setRatio(uint _ratio) external onlyOwner {    ... */\n    tag_46:\n        /* \"\\xe8\\x87\\xaa\\xe5\\xb7\\xb1\\xe5\\x86\\x99\\xe4\\xb8\\xaa\\xe7\\x9f\\xbf\\xe6\\xb1\\xa0,\\xe5\\xae\\x9a\\xe6\\x81\\xaf\\xe7\\x9f\\xbf\\xe6\\xb1\\xa0.sol\":1811:1816  owner */\n      and(sub(shl(0xa0, 0x01), 0x01), sload(0x04))\n        /* \"\\xe8\\x87\\xaa\\xe5\\xb7\\xb1\\xe5\\x86\\x99\\xe4\\xb8\\xaa\\xe7\\x9f\\xbf\\xe6\\xb1\\xa0,\\xe5\\xae\\x9a\\xe6\\x81\\xaf\\xe7\\x9f\\xbf\\xe6\\xb1\\xa0.sol\":1797:1807  msg.sender */\n      caller\n        /* \"\\xe8\\x87\\xaa\\xe5\\xb7\\xb1\\xe5\\x86\\x99\\xe4\\xb8\\xaa\\xe7\\x9f\\xbf\\xe6\\xb1\\xa0,\\xe5\\xae\\x9a\\xe6\\x81\\xaf\\xe7\\x9f\\xbf\\xe6\\xb1\\xa0.sol\":1797:1816  msg.sender == owner */\n      eq\n        /* \"\\xe8\\x87\\xaa\\xe5\\xb7\\xb1\\xe5\\x86\\x99\\xe4\\xb8\\xaa\\xe7\\x9f\\xbf\\xe6\\xb1\\xa0,\\xe5\\xae\\x9a\\xe6\\x81\\xaf\\xe7\\x9f\\xbf\\xe6\\xb1\\xa0.sol\":1789:1831  require(msg.sender == owner , \"not owner\") */\n      tag_83\n      jumpi\n      mload(0x40)\n      shl(0xe5, 0x461bcd)\n      dup2\n      mstore\n        /* \"#utility.yul\":3266:3268   */\n      0x20\n        /* \"\\xe8\\x87\\xaa\\xe5\\xb7\\xb1\\xe5\\x86\\x99\\xe4\\xb8\\xaa\\xe7\\x9f\\xbf\\xe6\\xb1\\xa0,\\xe5\\xae\\x9a\\xe6\\x81\\xaf\\xe7\\x9f\\xbf\\xe6\\xb1\\xa0.sol\":1789:1831  require(msg.sender == owner , \"not owner\") */\n      0x04\n      dup3\n      add\n        /* \"#utility.yul\":3248:3269   */\n      mstore\n        /* \"#utility.yul\":3305:3306   */\n      0x09\n        /* \"#utility.yul\":3285:3303   */\n      0x24\n      dup3\n      add\n        /* \"#utility.yul\":3278:3307   */\n      mstore\n      shl(0xb9, 0x3737ba1037bbb732b9)\n        /* \"#utility.yul\":3323:3341   */\n      0x44\n      dup3\n      add\n        /* \"#utility.yul\":3316:3355   */\n      mstore\n        /* \"#utility.yul\":3372:3390   */\n      0x64\n      add\n        /* \"\\xe8\\x87\\xaa\\xe5\\xb7\\xb1\\xe5\\x86\\x99\\xe4\\xb8\\xaa\\xe7\\x9f\\xbf\\xe6\\xb1\\xa0,\\xe5\\xae\\x9a\\xe6\\x81\\xaf\\xe7\\x9f\\xbf\\xe6\\xb1\\xa0.sol\":1789:1831  require(msg.sender == owner , \"not owner\") */\n      mload(0x40)\n      dup1\n      swap2\n      sub\n      swap1\n      revert\n    tag_83:\n        /* \"\\xe8\\x87\\xaa\\xe5\\xb7\\xb1\\xe5\\x86\\x99\\xe4\\xb8\\xaa\\xe7\\x9f\\xbf\\xe6\\xb1\\xa0,\\xe5\\xae\\x9a\\xe6\\x81\\xaf\\xe7\\x9f\\xbf\\xe6\\xb1\\xa0.sol\":2027:2032  ratio */\n      0x00\n        /* \"\\xe8\\x87\\xaa\\xe5\\xb7\\xb1\\xe5\\x86\\x99\\xe4\\xb8\\xaa\\xe7\\x9f\\xbf\\xe6\\xb1\\xa0,\\xe5\\xae\\x9a\\xe6\\x81\\xaf\\xe7\\x9f\\xbf\\xe6\\xb1\\xa0.sol\":2027:2041  ratio = _ratio */\n      sstore\n        /* \"\\xe8\\x87\\xaa\\xe5\\xb7\\xb1\\xe5\\x86\\x99\\xe4\\xb8\\xaa\\xe7\\x9f\\xbf\\xe6\\xb1\\xa0,\\xe5\\xae\\x9a\\xe6\\x81\\xaf\\xe7\\x9f\\xbf\\xe6\\xb1\\xa0.sol\":1962:2054  function setRatio(uint _ratio) external onlyOwner {    ... */\n      jump\t// out\n        /* \"\\xe8\\x87\\xaa\\xe5\\xb7\\xb1\\xe5\\x86\\x99\\xe4\\xb8\\xaa\\xe7\\x9f\\xbf\\xe6\\xb1\\xa0,\\xe5\\xae\\x9a\\xe6\\x81\\xaf\\xe7\\x9f\\xbf\\xe6\\xb1\\xa0.sol\":4649:5458  function harvestwithDraw() public returns (bool) {... */\n    tag_54:\n        /* \"\\xe8\\x87\\xaa\\xe5\\xb7\\xb1\\xe5\\x86\\x99\\xe4\\xb8\\xaa\\xe7\\x9f\\xbf\\xe6\\xb1\\xa0,\\xe5\\xae\\x9a\\xe6\\x81\\xaf\\xe7\\x9f\\xbf\\xe6\\xb1\\xa0.sol\":4692:4696  bool */\n      0x00\n        /* \"\\xe8\\x87\\xaa\\xe5\\xb7\\xb1\\xe5\\x86\\x99\\xe4\\xb8\\xaa\\xe7\\x9f\\xbf\\xe6\\xb1\\xa0,\\xe5\\xae\\x9a\\xe6\\x81\\xaf\\xe7\\x9f\\xbf\\xe6\\xb1\\xa0.sol\":4882:4887  ratio */\n      dup1\n      sload\n        /* \"\\xe8\\x87\\xaa\\xe5\\xb7\\xb1\\xe5\\x86\\x99\\xe4\\xb8\\xaa\\xe7\\x9f\\xbf\\xe6\\xb1\\xa0,\\xe5\\xae\\x9a\\xe6\\x81\\xaf\\xe7\\x9f\\xbf\\xe6\\xb1\\xa0.sol\":4856:4866  msg.sender */\n      caller\n        /* \"\\xe8\\x87\\xaa\\xe5\\xb7\\xb1\\xe5\\x86\\x99\\xe4\\xb8\\xaa\\xe7\\x9f\\xbf\\xe6\\xb1\\xa0,\\xe5\\xae\\x9a\\xe6\\x81\\xaf\\xe7\\x9f\\xbf\\xe6\\xb1\\xa0.sol\":4847:4867  User_Map[msg.sender] */\n      dup3\n      mstore\n        /* \"\\xe8\\x87\\xaa\\xe5\\xb7\\xb1\\xe5\\x86\\x99\\xe4\\xb8\\xaa\\xe7\\x9f\\xbf\\xe6\\xb1\\xa0,\\xe5\\xae\\x9a\\xe6\\x81\\xaf\\xe7\\x9f\\xbf\\xe6\\xb1\\xa0.sol\":4847:4855  User_Map */\n      0x05\n        /* \"\\xe8\\x87\\xaa\\xe5\\xb7\\xb1\\xe5\\x86\\x99\\xe4\\xb8\\xaa\\xe7\\x9f\\xbf\\xe6\\xb1\\xa0,\\xe5\\xae\\x9a\\xe6\\x81\\xaf\\xe7\\x9f\\xbf\\xe6\\xb1\\xa0.sol\":4847:4867  User_Map[msg.sender] */\n      0x20\n      mstore\n      0x40\n      dup3\n      keccak256\n        /* \"\\xe8\\x87\\xaa\\xe5\\xb7\\xb1\\xe5\\x86\\x99\\xe4\\xb8\\xaa\\xe7\\x9f\\xbf\\xe6\\xb1\\xa0,\\xe5\\xae\\x9a\\xe6\\x81\\xaf\\xe7\\x9f\\xbf\\xe6\\xb1\\xa0.sol\":4847:4879  User_Map[msg.sender].stakeNumber */\n      sload\n        /* \"\\xe8\\x87\\xaa\\xe5\\xb7\\xb1\\xe5\\x86\\x99\\xe4\\xb8\\xaa\\xe7\\x9f\\xbf\\xe6\\xb1\\xa0,\\xe5\\xae\\x9a\\xe6\\x81\\xaf\\xe7\\x9f\\xbf\\xe6\\xb1\\xa0.sol\":4896:4904  31536000 */\n      0x01e13380\n      swap2\n        /* \"\\xe8\\x87\\xaa\\xe5\\xb7\\xb1\\xe5\\x86\\x99\\xe4\\xb8\\xaa\\xe7\\x9f\\xbf\\xe6\\xb1\\xa0,\\xe5\\xae\\x9a\\xe6\\x81\\xaf\\xe7\\x9f\\xbf\\xe6\\xb1\\xa0.sol\":4889:4892  100 */\n      0x64\n      swap2\n        /* \"\\xe8\\x87\\xaa\\xe5\\xb7\\xb1\\xe5\\x86\\x99\\xe4\\xb8\\xaa\\xe7\\x9f\\xbf\\xe6\\xb1\\xa0,\\xe5\\xae\\x9a\\xe6\\x81\\xaf\\xe7\\x9f\\xbf\\xe6\\xb1\\xa0.sol\":4847:4887  User_Map[msg.sender].stakeNumber * ratio */\n      tag_88\n      swap2\n        /* \"\\xe8\\x87\\xaa\\xe5\\xb7\\xb1\\xe5\\x86\\x99\\xe4\\xb8\\xaa\\xe7\\x9f\\xbf\\xe6\\xb1\\xa0,\\xe5\\xae\\x9a\\xe6\\x81\\xaf\\xe7\\x9f\\xbf\\xe6\\xb1\\xa0.sol\":4882:4887  ratio */\n      swap1\n        /* \"\\xe8\\x87\\xaa\\xe5\\xb7\\xb1\\xe5\\x86\\x99\\xe4\\xb8\\xaa\\xe7\\x9f\\xbf\\xe6\\xb1\\xa0,\\xe5\\xae\\x9a\\xe6\\x81\\xaf\\xe7\\x9f\\xbf\\xe6\\xb1\\xa0.sol\":4847:4887  User_Map[msg.sender].stakeNumber * ratio */\n      tag_65\n      jump\t// in\n    tag_88:\n        /* \"\\xe8\\x87\\xaa\\xe5\\xb7\\xb1\\xe5\\x86\\x99\\xe4\\xb8\\xaa\\xe7\\x9f\\xbf\\xe6\\xb1\\xa0,\\xe5\\xae\\x9a\\xe6\\x81\\xaf\\xe7\\x9f\\xbf\\xe6\\xb1\\xa0.sol\":4847:4892  User_Map[msg.sender].stakeNumber * ratio /100 */\n      tag_89\n      swap2\n      swap1\n      tag_67\n      jump\t// in\n    tag_89:\n        /* \"\\xe8\\x87\\xaa\\xe5\\xb7\\xb1\\xe5\\x86\\x99\\xe4\\xb8\\xaa\\xe7\\x9f\\xbf\\xe6\\xb1\\xa0,\\xe5\\xae\\x9a\\xe6\\x81\\xaf\\xe7\\x9f\\xbf\\xe6\\xb1\\xa0.sol\":4846:4904  (User_Map[msg.sender].stakeNumber * ratio /100) / 31536000 */\n      tag_90\n      swap2\n      swap1\n      tag_67\n      jump\t// in\n    tag_90:\n        /* \"\\xe8\\x87\\xaa\\xe5\\xb7\\xb1\\xe5\\x86\\x99\\xe4\\xb8\\xaa\\xe7\\x9f\\xbf\\xe6\\xb1\\xa0,\\xe5\\xae\\x9a\\xe6\\x81\\xaf\\xe7\\x9f\\xbf\\xe6\\xb1\\xa0.sol\":4814:4824  msg.sender */\n      caller\n        /* \"\\xe8\\x87\\xaa\\xe5\\xb7\\xb1\\xe5\\x86\\x99\\xe4\\xb8\\xaa\\xe7\\x9f\\xbf\\xe6\\xb1\\xa0,\\xe5\\xae\\x9a\\xe6\\x81\\xaf\\xe7\\x9f\\xbf\\xe6\\xb1\\xa0.sol\":4805:4825  User_Map[msg.sender] */\n      0x00\n      swap1\n      dup2\n      mstore\n        /* \"\\xe8\\x87\\xaa\\xe5\\xb7\\xb1\\xe5\\x86\\x99\\xe4\\xb8\\xaa\\xe7\\x9f\\xbf\\xe6\\xb1\\xa0,\\xe5\\xae\\x9a\\xe6\\x81\\xaf\\xe7\\x9f\\xbf\\xe6\\xb1\\xa0.sol\":4805:4813  User_Map */\n      0x05\n        /* \"\\xe8\\x87\\xaa\\xe5\\xb7\\xb1\\xe5\\x86\\x99\\xe4\\xb8\\xaa\\xe7\\x9f\\xbf\\xe6\\xb1\\xa0,\\xe5\\xae\\x9a\\xe6\\x81\\xaf\\xe7\\x9f\\xbf\\xe6\\xb1\\xa0.sol\":4805:4825  User_Map[msg.sender] */\n      0x20\n      mstore\n      0x40\n      swap1\n      keccak256\n        /* \"\\xe8\\x87\\xaa\\xe5\\xb7\\xb1\\xe5\\x86\\x99\\xe4\\xb8\\xaa\\xe7\\x9f\\xbf\\xe6\\xb1\\xa0,\\xe5\\xae\\x9a\\xe6\\x81\\xaf\\xe7\\x9f\\xbf\\xe6\\xb1\\xa0.sol\":4805:4841  User_Map[msg.sender].last_Stake_Time */\n      0x01\n      add\n      sload\n        /* \"\\xe8\\x87\\xaa\\xe5\\xb7\\xb1\\xe5\\x86\\x99\\xe4\\xb8\\xaa\\xe7\\x9f\\xbf\\xe6\\xb1\\xa0,\\xe5\\xae\\x9a\\xe6\\x81\\xaf\\xe7\\x9f\\xbf\\xe6\\xb1\\xa0.sol\":4787:4841  block.timestamp - User_Map[msg.sender].last_Stake_Time */\n      tag_91\n      swap1\n        /* \"\\xe8\\x87\\xaa\\xe5\\xb7\\xb1\\xe5\\x86\\x99\\xe4\\xb8\\xaa\\xe7\\x9f\\xbf\\xe6\\xb1\\xa0,\\xe5\\xae\\x9a\\xe6\\x81\\xaf\\xe7\\x9f\\xbf\\xe6\\xb1\\xa0.sol\":4787:4802  block.timestamp */\n      timestamp\n        /* \"\\xe8\\x87\\xaa\\xe5\\xb7\\xb1\\xe5\\x86\\x99\\xe4\\xb8\\xaa\\xe7\\x9f\\xbf\\xe6\\xb1\\xa0,\\xe5\\xae\\x9a\\xe6\\x81\\xaf\\xe7\\x9f\\xbf\\xe6\\xb1\\xa0.sol\":4787:4841  block.timestamp - User_Map[msg.sender].last_Stake_Time */\n      tag_70\n      jump\t// in\n    tag_91:\n        /* \"\\xe8\\x87\\xaa\\xe5\\xb7\\xb1\\xe5\\x86\\x99\\xe4\\xb8\\xaa\\xe7\\x9f\\xbf\\xe6\\xb1\\xa0,\\xe5\\xae\\x9a\\xe6\\x81\\xaf\\xe7\\x9f\\xbf\\xe6\\xb1\\xa0.sol\":4786:4905  (block.timestamp - User_Map[msg.sender].last_Stake_Time) * ((User_Map[msg.sender].stakeNumber * ratio /100) / 31536000) */\n      tag_92\n      swap2\n      swap1\n      tag_65\n      jump\t// in\n    tag_92:\n        /* \"\\xe8\\x87\\xaa\\xe5\\xb7\\xb1\\xe5\\x86\\x99\\xe4\\xb8\\xaa\\xe7\\x9f\\xbf\\xe6\\xb1\\xa0,\\xe5\\xae\\x9a\\xe6\\x81\\xaf\\xe7\\x9f\\xbf\\xe6\\xb1\\xa0.sol\":4753:4763  msg.sender */\n      caller\n        /* \"\\xe8\\x87\\xaa\\xe5\\xb7\\xb1\\xe5\\x86\\x99\\xe4\\xb8\\xaa\\xe7\\x9f\\xbf\\xe6\\xb1\\xa0,\\xe5\\xae\\x9a\\xe6\\x81\\xaf\\xe7\\x9f\\xbf\\xe6\\xb1\\xa0.sol\":4744:4764  User_Map[msg.sender] */\n      0x00\n      swap1\n      dup2\n      mstore\n        /* \"\\xe8\\x87\\xaa\\xe5\\xb7\\xb1\\xe5\\x86\\x99\\xe4\\xb8\\xaa\\xe7\\x9f\\xbf\\xe6\\xb1\\xa0,\\xe5\\xae\\x9a\\xe6\\x81\\xaf\\xe7\\x9f\\xbf\\xe6\\xb1\\xa0.sol\":4744:4752  User_Map */\n      0x05\n        /* \"\\xe8\\x87\\xaa\\xe5\\xb7\\xb1\\xe5\\x86\\x99\\xe4\\xb8\\xaa\\xe7\\x9f\\xbf\\xe6\\xb1\\xa0,\\xe5\\xae\\x9a\\xe6\\x81\\xaf\\xe7\\x9f\\xbf\\xe6\\xb1\\xa0.sol\":4744:4764  User_Map[msg.sender] */\n      0x20\n      mstore\n      0x40\n      swap1\n      keccak256\n        /* \"\\xe8\\x87\\xaa\\xe5\\xb7\\xb1\\xe5\\x86\\x99\\xe4\\xb8\\xaa\\xe7\\x9f\\xbf\\xe6\\xb1\\xa0,\\xe5\\xae\\x9a\\xe6\\x81\\xaf\\xe7\\x9f\\xbf\\xe6\\xb1\\xa0.sol\":4744:4783  User_Map[msg.sender].last_totoken_ratio */\n      0x02\n      add\n      sload\n        /* \"\\xe8\\x87\\xaa\\xe5\\xb7\\xb1\\xe5\\x86\\x99\\xe4\\xb8\\xaa\\xe7\\x9f\\xbf\\xe6\\xb1\\xa0,\\xe5\\xae\\x9a\\xe6\\x81\\xaf\\xe7\\x9f\\xbf\\xe6\\xb1\\xa0.sol\":4744:4905  User_Map[msg.sender].last_totoken_ratio + (block.timestamp - User_Map[msg.sender].last_Stake_Time) * ((User_Map[msg.sender].stakeNumber * ratio /100) / 31536000) */\n      tag_93\n      swap2\n      swap1\n      tag_73\n      jump\t// in\n    tag_93:\n        /* \"\\xe8\\x87\\xaa\\xe5\\xb7\\xb1\\xe5\\x86\\x99\\xe4\\xb8\\xaa\\xe7\\x9f\\xbf\\xe6\\xb1\\xa0,\\xe5\\xae\\x9a\\xe6\\x81\\xaf\\xe7\\x9f\\xbf\\xe6\\xb1\\xa0.sol\":4718:4728  msg.sender */\n      caller\n        /* \"\\xe8\\x87\\xaa\\xe5\\xb7\\xb1\\xe5\\x86\\x99\\xe4\\xb8\\xaa\\xe7\\x9f\\xbf\\xe6\\xb1\\xa0,\\xe5\\xae\\x9a\\xe6\\x81\\xaf\\xe7\\x9f\\xbf\\xe6\\xb1\\xa0.sol\":4709:4729  User_Map[msg.sender] */\n      0x00\n      dup2\n      dup2\n      mstore\n        /* \"\\xe8\\x87\\xaa\\xe5\\xb7\\xb1\\xe5\\x86\\x99\\xe4\\xb8\\xaa\\xe7\\x9f\\xbf\\xe6\\xb1\\xa0,\\xe5\\xae\\x9a\\xe6\\x81\\xaf\\xe7\\x9f\\xbf\\xe6\\xb1\\xa0.sol\":4709:4717  User_Map */\n      0x05\n        /* \"\\xe8\\x87\\xaa\\xe5\\xb7\\xb1\\xe5\\x86\\x99\\xe4\\xb8\\xaa\\xe7\\x9f\\xbf\\xe6\\xb1\\xa0,\\xe5\\xae\\x9a\\xe6\\x81\\xaf\\xe7\\x9f\\xbf\\xe6\\xb1\\xa0.sol\":4709:4729  User_Map[msg.sender] */\n      0x20\n      mstore\n      0x40\n      swap1\n      dup2\n      swap1\n      keccak256\n        /* \"\\xe8\\x87\\xaa\\xe5\\xb7\\xb1\\xe5\\x86\\x99\\xe4\\xb8\\xaa\\xe7\\x9f\\xbf\\xe6\\xb1\\xa0,\\xe5\\xae\\x9a\\xe6\\x81\\xaf\\xe7\\x9f\\xbf\\xe6\\xb1\\xa0.sol\":4709:4741  User_Map[msg.sender].whole_ratio */\n      0x03\n      add\n        /* \"\\xe8\\x87\\xaa\\xe5\\xb7\\xb1\\xe5\\x86\\x99\\xe4\\xb8\\xaa\\xe7\\x9f\\xbf\\xe6\\xb1\\xa0,\\xe5\\xae\\x9a\\xe6\\x81\\xaf\\xe7\\x9f\\xbf\\xe6\\xb1\\xa0.sol\":4709:4905  User_Map[msg.sender].whole_ratio = User_Map[msg.sender].last_totoken_ratio + (block.timestamp - User_Map[msg.sender].last_Stake_Time) * ((User_Map[msg.sender].stakeNumber * ratio /100) / 31536000) */\n      dup4\n      swap1\n      sstore\n        /* \"\\xe8\\x87\\xaa\\xe5\\xb7\\xb1\\xe5\\x86\\x99\\xe4\\xb8\\xaa\\xe7\\x9f\\xbf\\xe6\\xb1\\xa0,\\xe5\\xae\\x9a\\xe6\\x81\\xaf\\xe7\\x9f\\xbf\\xe6\\xb1\\xa0.sol\":4923:4930  totoken */\n      sload(0x02)\n        /* \"\\xe8\\x87\\xaa\\xe5\\xb7\\xb1\\xe5\\x86\\x99\\xe4\\xb8\\xaa\\xe7\\x9f\\xbf\\xe6\\xb1\\xa0,\\xe5\\xae\\x9a\\xe6\\x81\\xaf\\xe7\\x9f\\xbf\\xe6\\xb1\\xa0.sol\":4916:4986  IERC20(totoken).transfer(msg.sender, User_Map[msg.sender].whole_ratio) */\n      swap1\n      mload\n      shl(0xe0, 0xa9059cbb)\n      dup2\n      mstore\n      0x04\n      dup2\n      add\n        /* \"#utility.yul\":3575:3626   */\n      swap3\n      swap1\n      swap3\n      mstore\n        /* \"#utility.yul\":3642:3660   */\n      0x24\n      dup3\n      add\n        /* \"#utility.yul\":3635:3669   */\n      swap3\n      swap1\n      swap3\n      mstore\n      sub(shl(0xa0, 0x01), 0x01)\n        /* \"\\xe8\\x87\\xaa\\xe5\\xb7\\xb1\\xe5\\x86\\x99\\xe4\\xb8\\xaa\\xe7\\x9f\\xbf\\xe6\\xb1\\xa0,\\xe5\\xae\\x9a\\xe6\\x81\\xaf\\xe7\\x9f\\xbf\\xe6\\xb1\\xa0.sol\":4923:4930  totoken */\n      swap1\n      swap2\n      and\n      swap1\n        /* \"\\xe8\\x87\\xaa\\xe5\\xb7\\xb1\\xe5\\x86\\x99\\xe4\\xb8\\xaa\\xe7\\x9f\\xbf\\xe6\\xb1\\xa0,\\xe5\\xae\\x9a\\xe6\\x81\\xaf\\xe7\\x9f\\xbf\\xe6\\xb1\\xa0.sol\":4916:4940  IERC20(totoken).transfer */\n      0xa9059cbb\n      swap1\n        /* \"#utility.yul\":3548:3566   */\n      0x44\n      add\n        /* \"\\xe8\\x87\\xaa\\xe5\\xb7\\xb1\\xe5\\x86\\x99\\xe4\\xb8\\xaa\\xe7\\x9f\\xbf\\xe6\\xb1\\xa0,\\xe5\\xae\\x9a\\xe6\\x81\\xaf\\xe7\\x9f\\xbf\\xe6\\xb1\\xa0.sol\":4916:4986  IERC20(totoken).transfer(msg.sender, User_Map[msg.sender].whole_ratio) */\n      0x20\n      mload(0x40)\n      dup1\n      dup4\n      sub\n      dup2\n      0x00\n      dup8\n      gas\n      call\n      iszero\n      dup1\n      iszero\n      tag_97\n      jumpi\n      returndatasize\n      0x00\n      dup1\n      returndatacopy\n      revert(0x00, returndatasize)\n    tag_97:\n      pop\n      pop\n      pop\n      pop\n      mload(0x40)\n      returndatasize\n      not(0x1f)\n      0x1f\n      dup3\n      add\n      and\n      dup3\n      add\n      dup1\n      0x40\n      mstore\n      pop\n      dup2\n      add\n      swap1\n      tag_98\n      swap2\n      swap1\n      tag_62\n      jump\t// in\n    tag_98:\n      pop\n        /* \"\\xe8\\x87\\xaa\\xe5\\xb7\\xb1\\xe5\\x86\\x99\\xe4\\xb8\\xaa\\xe7\\x9f\\xbf\\xe6\\xb1\\xa0,\\xe5\\xae\\x9a\\xe6\\x81\\xaf\\xe7\\x9f\\xbf\\xe6\\xb1\\xa0.sol\":5014:5024  msg.sender */\n      caller\n        /* \"\\xe8\\x87\\xaa\\xe5\\xb7\\xb1\\xe5\\x86\\x99\\xe4\\xb8\\xaa\\xe7\\x9f\\xbf\\xe6\\xb1\\xa0,\\xe5\\xae\\x9a\\xe6\\x81\\xaf\\xe7\\x9f\\xbf\\xe6\\xb1\\xa0.sol\":5026:5046  User_Map[msg.sender] */\n      0x00\n      dup2\n      dup2\n      mstore\n        /* \"\\xe8\\x87\\xaa\\xe5\\xb7\\xb1\\xe5\\x86\\x99\\xe4\\xb8\\xaa\\xe7\\x9f\\xbf\\xe6\\xb1\\xa0,\\xe5\\xae\\x9a\\xe6\\x81\\xaf\\xe7\\x9f\\xbf\\xe6\\xb1\\xa0.sol\":5026:5034  User_Map */\n      0x05\n        /* \"\\xe8\\x87\\xaa\\xe5\\xb7\\xb1\\xe5\\x86\\x99\\xe4\\xb8\\xaa\\xe7\\x9f\\xbf\\xe6\\xb1\\xa0,\\xe5\\xae\\x9a\\xe6\\x81\\xaf\\xe7\\x9f\\xbf\\xe6\\xb1\\xa0.sol\":5026:5046  User_Map[msg.sender] */\n      0x20\n      swap1\n      dup2\n      mstore\n      0x40\n      swap2\n      dup3\n      swap1\n      keccak256\n        /* \"\\xe8\\x87\\xaa\\xe5\\xb7\\xb1\\xe5\\x86\\x99\\xe4\\xb8\\xaa\\xe7\\x9f\\xbf\\xe6\\xb1\\xa0,\\xe5\\xae\\x9a\\xe6\\x81\\xaf\\xe7\\x9f\\xbf\\xe6\\xb1\\xa0.sol\":5026:5058  User_Map[msg.sender].whole_ratio */\n      0x03\n      add\n      sload\n        /* \"\\xe8\\x87\\xaa\\xe5\\xb7\\xb1\\xe5\\x86\\x99\\xe4\\xb8\\xaa\\xe7\\x9f\\xbf\\xe6\\xb1\\xa0,\\xe5\\xae\\x9a\\xe6\\x81\\xaf\\xe7\\x9f\\xbf\\xe6\\xb1\\xa0.sol\":5005:5059  transfer(msg.sender, User_Map[msg.sender].whole_ratio) */\n      swap2\n      mload\n        /* \"#utility.yul\":745:770   */\n      swap2\n      dup3\n      mstore\n        /* \"\\xe8\\x87\\xaa\\xe5\\xb7\\xb1\\xe5\\x86\\x99\\xe4\\xb8\\xaa\\xe7\\x9f\\xbf\\xe6\\xb1\\xa0,\\xe5\\xae\\x9a\\xe6\\x81\\xaf\\xe7\\x9f\\xbf\\xe6\\xb1\\xa0.sol\":5005:5059  transfer(msg.sender, User_Map[msg.sender].whole_ratio) */\n      0xa9059cbb2ab09eb219583f4a59a5d0623ade346d962bcd4e46b11da047c9049b\n      swap2\n        /* \"#utility.yul\":718:736   */\n      add\n        /* \"\\xe8\\x87\\xaa\\xe5\\xb7\\xb1\\xe5\\x86\\x99\\xe4\\xb8\\xaa\\xe7\\x9f\\xbf\\xe6\\xb1\\xa0,\\xe5\\xae\\x9a\\xe6\\x81\\xaf\\xe7\\x9f\\xbf\\xe6\\xb1\\xa0.sol\":5005:5059  transfer(msg.sender, User_Map[msg.sender].whole_ratio) */\n      mload(0x40)\n      dup1\n      swap2\n      sub\n      swap1\n      log2\n        /* \"\\xe8\\x87\\xaa\\xe5\\xb7\\xb1\\xe5\\x86\\x99\\xe4\\xb8\\xaa\\xe7\\x9f\\xbf\\xe6\\xb1\\xa0,\\xe5\\xae\\x9a\\xe6\\x81\\xaf\\xe7\\x9f\\xbf\\xe6\\xb1\\xa0.sol\":5081:5091  msg.sender */\n      caller\n        /* \"\\xe8\\x87\\xaa\\xe5\\xb7\\xb1\\xe5\\x86\\x99\\xe4\\xb8\\xaa\\xe7\\x9f\\xbf\\xe6\\xb1\\xa0,\\xe5\\xae\\x9a\\xe6\\x81\\xaf\\xe7\\x9f\\xbf\\xe6\\xb1\\xa0.sol\":5107:5108  0 */\n      0x00\n        /* \"\\xe8\\x87\\xaa\\xe5\\xb7\\xb1\\xe5\\x86\\x99\\xe4\\xb8\\xaa\\xe7\\x9f\\xbf\\xe6\\xb1\\xa0,\\xe5\\xae\\x9a\\xe6\\x81\\xaf\\xe7\\x9f\\xbf\\xe6\\xb1\\xa0.sol\":5072:5092  User_Map[msg.sender] */\n      dup2\n      dup2\n      mstore\n        /* \"\\xe8\\x87\\xaa\\xe5\\xb7\\xb1\\xe5\\x86\\x99\\xe4\\xb8\\xaa\\xe7\\x9f\\xbf\\xe6\\xb1\\xa0,\\xe5\\xae\\x9a\\xe6\\x81\\xaf\\xe7\\x9f\\xbf\\xe6\\xb1\\xa0.sol\":5072:5080  User_Map */\n      0x05\n        /* \"\\xe8\\x87\\xaa\\xe5\\xb7\\xb1\\xe5\\x86\\x99\\xe4\\xb8\\xaa\\xe7\\x9f\\xbf\\xe6\\xb1\\xa0,\\xe5\\xae\\x9a\\xe6\\x81\\xaf\\xe7\\x9f\\xbf\\xe6\\xb1\\xa0.sol\":5072:5092  User_Map[msg.sender] */\n      0x20\n      mstore\n      0x40\n      dup1\n      dup3\n      keccak256\n        /* \"\\xe8\\x87\\xaa\\xe5\\xb7\\xb1\\xe5\\x86\\x99\\xe4\\xb8\\xaa\\xe7\\x9f\\xbf\\xe6\\xb1\\xa0,\\xe5\\xae\\x9a\\xe6\\x81\\xaf\\xe7\\x9f\\xbf\\xe6\\xb1\\xa0.sol\":5072:5104  User_Map[msg.sender].whole_ratio */\n      0x03\n      dup2\n      add\n        /* \"\\xe8\\x87\\xaa\\xe5\\xb7\\xb1\\xe5\\x86\\x99\\xe4\\xb8\\xaa\\xe7\\x9f\\xbf\\xe6\\xb1\\xa0,\\xe5\\xae\\x9a\\xe6\\x81\\xaf\\xe7\\x9f\\xbf\\xe6\\xb1\\xa0.sol\":5072:5108  User_Map[msg.sender].whole_ratio = 0 */\n      dup4\n      swap1\n      sstore\n        /* \"\\xe8\\x87\\xaa\\xe5\\xb7\\xb1\\xe5\\x86\\x99\\xe4\\xb8\\xaa\\xe7\\x9f\\xbf\\xe6\\xb1\\xa0,\\xe5\\xae\\x9a\\xe6\\x81\\xaf\\xe7\\x9f\\xbf\\xe6\\xb1\\xa0.sol\":5119:5158  User_Map[msg.sender].last_totoken_ratio */\n      0x02\n      dup2\n      add\n        /* \"\\xe8\\x87\\xaa\\xe5\\xb7\\xb1\\xe5\\x86\\x99\\xe4\\xb8\\xaa\\xe7\\x9f\\xbf\\xe6\\xb1\\xa0,\\xe5\\xae\\x9a\\xe6\\x81\\xaf\\xe7\\x9f\\xbf\\xe6\\xb1\\xa0.sol\":5119:5162  User_Map[msg.sender].last_totoken_ratio = 0 */\n      swap3\n      swap1\n      swap3\n      sstore\n      0x01\n        /* \"\\xe8\\x87\\xaa\\xe5\\xb7\\xb1\\xe5\\x86\\x99\\xe4\\xb8\\xaa\\xe7\\x9f\\xbf\\xe6\\xb1\\xa0,\\xe5\\xae\\x9a\\xe6\\x81\\xaf\\xe7\\x9f\\xbf\\xe6\\xb1\\xa0.sol\":5182:5192  staketoken */\n      sload\n        /* \"\\xe8\\x87\\xaa\\xe5\\xb7\\xb1\\xe5\\x86\\x99\\xe4\\xb8\\xaa\\xe7\\x9f\\xbf\\xe6\\xb1\\xa0,\\xe5\\xae\\x9a\\xe6\\x81\\xaf\\xe7\\x9f\\xbf\\xe6\\xb1\\xa0.sol\":5215:5247  User_Map[msg.sender].stakeNumber */\n      swap2\n      sload\n        /* \"\\xe8\\x87\\xaa\\xe5\\xb7\\xb1\\xe5\\x86\\x99\\xe4\\xb8\\xaa\\xe7\\x9f\\xbf\\xe6\\xb1\\xa0,\\xe5\\xae\\x9a\\xe6\\x81\\xaf\\xe7\\x9f\\xbf\\xe6\\xb1\\xa0.sol\":5175:5248  IERC20(staketoken).transfer(msg.sender, User_Map[msg.sender].stakeNumber) */\n      swap1\n      mload\n      shl(0xe0, 0xa9059cbb)\n      dup2\n      mstore\n      0x04\n      dup2\n      add\n        /* \"#utility.yul\":3575:3626   */\n      swap4\n      swap1\n      swap4\n      mstore\n        /* \"#utility.yul\":3642:3660   */\n      0x24\n      dup4\n      add\n        /* \"#utility.yul\":3635:3669   */\n      mstore\n      sub(shl(0xa0, 0x01), 0x01)\n        /* \"\\xe8\\x87\\xaa\\xe5\\xb7\\xb1\\xe5\\x86\\x99\\xe4\\xb8\\xaa\\xe7\\x9f\\xbf\\xe6\\xb1\\xa0,\\xe5\\xae\\x9a\\xe6\\x81\\xaf\\xe7\\x9f\\xbf\\xe6\\xb1\\xa0.sol\":5182:5192  staketoken */\n      and\n      swap1\n        /* \"\\xe8\\x87\\xaa\\xe5\\xb7\\xb1\\xe5\\x86\\x99\\xe4\\xb8\\xaa\\xe7\\x9f\\xbf\\xe6\\xb1\\xa0,\\xe5\\xae\\x9a\\xe6\\x81\\xaf\\xe7\\x9f\\xbf\\xe6\\xb1\\xa0.sol\":5175:5202  IERC20(staketoken).transfer */\n      0xa9059cbb\n      swap1\n        /* \"#utility.yul\":3548:3566   */\n      0x44\n      add\n        /* \"\\xe8\\x87\\xaa\\xe5\\xb7\\xb1\\xe5\\x86\\x99\\xe4\\xb8\\xaa\\xe7\\x9f\\xbf\\xe6\\xb1\\xa0,\\xe5\\xae\\x9a\\xe6\\x81\\xaf\\xe7\\x9f\\xbf\\xe6\\xb1\\xa0.sol\":5175:5248  IERC20(staketoken).transfer(msg.sender, User_Map[msg.sender].stakeNumber) */\n      0x20\n      mload(0x40)\n      dup1\n      dup4\n      sub\n      dup2\n      0x00\n      dup8\n      gas\n      call\n      iszero\n      dup1\n      iszero\n      tag_102\n      jumpi\n      returndatasize\n      0x00\n      dup1\n      returndatacopy\n      revert(0x00, returndatasize)\n    tag_102:\n      pop\n      pop\n      pop\n      pop\n      mload(0x40)\n      returndatasize\n      not(0x1f)\n      0x1f\n      dup3\n      add\n      and\n      dup3\n      add\n      dup1\n      0x40\n      mstore\n      pop\n      dup2\n      add\n      swap1\n      tag_103\n      swap2\n      swap1\n      tag_62\n      jump\t// in\n    tag_103:\n      pop\n        /* \"\\xe8\\x87\\xaa\\xe5\\xb7\\xb1\\xe5\\x86\\x99\\xe4\\xb8\\xaa\\xe7\\x9f\\xbf\\xe6\\xb1\\xa0,\\xe5\\xae\\x9a\\xe6\\x81\\xaf\\xe7\\x9f\\xbf\\xe6\\xb1\\xa0.sol\":5276:5286  msg.sender */\n      caller\n        /* \"\\xe8\\x87\\xaa\\xe5\\xb7\\xb1\\xe5\\x86\\x99\\xe4\\xb8\\xaa\\xe7\\x9f\\xbf\\xe6\\xb1\\xa0,\\xe5\\xae\\x9a\\xe6\\x81\\xaf\\xe7\\x9f\\xbf\\xe6\\xb1\\xa0.sol\":5288:5308  User_Map[msg.sender] */\n      0x00\n      dup2\n      dup2\n      mstore\n        /* \"\\xe8\\x87\\xaa\\xe5\\xb7\\xb1\\xe5\\x86\\x99\\xe4\\xb8\\xaa\\xe7\\x9f\\xbf\\xe6\\xb1\\xa0,\\xe5\\xae\\x9a\\xe6\\x81\\xaf\\xe7\\x9f\\xbf\\xe6\\xb1\\xa0.sol\":5288:5296  User_Map */\n      0x05\n        /* \"\\xe8\\x87\\xaa\\xe5\\xb7\\xb1\\xe5\\x86\\x99\\xe4\\xb8\\xaa\\xe7\\x9f\\xbf\\xe6\\xb1\\xa0,\\xe5\\xae\\x9a\\xe6\\x81\\xaf\\xe7\\x9f\\xbf\\xe6\\xb1\\xa0.sol\":5288:5308  User_Map[msg.sender] */\n      0x20\n      swap1\n      dup2\n      mstore\n      0x40\n      swap2\n      dup3\n      swap1\n      keccak256\n        /* \"\\xe8\\x87\\xaa\\xe5\\xb7\\xb1\\xe5\\x86\\x99\\xe4\\xb8\\xaa\\xe7\\x9f\\xbf\\xe6\\xb1\\xa0,\\xe5\\xae\\x9a\\xe6\\x81\\xaf\\xe7\\x9f\\xbf\\xe6\\xb1\\xa0.sol\":5288:5320  User_Map[msg.sender].stakeNumber */\n      sload\n        /* \"\\xe8\\x87\\xaa\\xe5\\xb7\\xb1\\xe5\\x86\\x99\\xe4\\xb8\\xaa\\xe7\\x9f\\xbf\\xe6\\xb1\\xa0,\\xe5\\xae\\x9a\\xe6\\x81\\xaf\\xe7\\x9f\\xbf\\xe6\\xb1\\xa0.sol\":5267:5321  transfer(msg.sender, User_Map[msg.sender].stakeNumber) */\n      swap2\n      mload\n        /* \"#utility.yul\":745:770   */\n      swap2\n      dup3\n      mstore\n        /* \"\\xe8\\x87\\xaa\\xe5\\xb7\\xb1\\xe5\\x86\\x99\\xe4\\xb8\\xaa\\xe7\\x9f\\xbf\\xe6\\xb1\\xa0,\\xe5\\xae\\x9a\\xe6\\x81\\xaf\\xe7\\x9f\\xbf\\xe6\\xb1\\xa0.sol\":5267:5321  transfer(msg.sender, User_Map[msg.sender].stakeNumber) */\n      0xa9059cbb2ab09eb219583f4a59a5d0623ade346d962bcd4e46b11da047c9049b\n      swap2\n        /* \"#utility.yul\":718:736   */\n      add\n        /* \"\\xe8\\x87\\xaa\\xe5\\xb7\\xb1\\xe5\\x86\\x99\\xe4\\xb8\\xaa\\xe7\\x9f\\xbf\\xe6\\xb1\\xa0,\\xe5\\xae\\x9a\\xe6\\x81\\xaf\\xe7\\x9f\\xbf\\xe6\\xb1\\xa0.sol\":5267:5321  transfer(msg.sender, User_Map[msg.sender].stakeNumber) */\n      mload(0x40)\n      dup1\n      swap2\n      sub\n      swap1\n      log2\n        /* \"\\xe8\\x87\\xaa\\xe5\\xb7\\xb1\\xe5\\x86\\x99\\xe4\\xb8\\xaa\\xe7\\x9f\\xbf\\xe6\\xb1\\xa0,\\xe5\\xae\\x9a\\xe6\\x81\\xaf\\xe7\\x9f\\xbf\\xe6\\xb1\\xa0.sol\":5343:5353  msg.sender */\n      caller\n        /* \"\\xe8\\x87\\xaa\\xe5\\xb7\\xb1\\xe5\\x86\\x99\\xe4\\xb8\\xaa\\xe7\\x9f\\xbf\\xe6\\xb1\\xa0,\\xe5\\xae\\x9a\\xe6\\x81\\xaf\\xe7\\x9f\\xbf\\xe6\\xb1\\xa0.sol\":5369:5370  0 */\n      0x00\n        /* \"\\xe8\\x87\\xaa\\xe5\\xb7\\xb1\\xe5\\x86\\x99\\xe4\\xb8\\xaa\\xe7\\x9f\\xbf\\xe6\\xb1\\xa0,\\xe5\\xae\\x9a\\xe6\\x81\\xaf\\xe7\\x9f\\xbf\\xe6\\xb1\\xa0.sol\":5334:5354  User_Map[msg.sender] */\n      swap1\n      dup2\n      mstore\n        /* \"\\xe8\\x87\\xaa\\xe5\\xb7\\xb1\\xe5\\x86\\x99\\xe4\\xb8\\xaa\\xe7\\x9f\\xbf\\xe6\\xb1\\xa0,\\xe5\\xae\\x9a\\xe6\\x81\\xaf\\xe7\\x9f\\xbf\\xe6\\xb1\\xa0.sol\":5334:5342  User_Map */\n      0x05\n        /* \"\\xe8\\x87\\xaa\\xe5\\xb7\\xb1\\xe5\\x86\\x99\\xe4\\xb8\\xaa\\xe7\\x9f\\xbf\\xe6\\xb1\\xa0,\\xe5\\xae\\x9a\\xe6\\x81\\xaf\\xe7\\x9f\\xbf\\xe6\\xb1\\xa0.sol\":5334:5354  User_Map[msg.sender] */\n      0x20\n      mstore\n      0x40\n      dup2\n      keccak256\n        /* \"\\xe8\\x87\\xaa\\xe5\\xb7\\xb1\\xe5\\x86\\x99\\xe4\\xb8\\xaa\\xe7\\x9f\\xbf\\xe6\\xb1\\xa0,\\xe5\\xae\\x9a\\xe6\\x81\\xaf\\xe7\\x9f\\xbf\\xe6\\xb1\\xa0.sol\":5334:5370  User_Map[msg.sender].stakeNumber = 0 */\n      dup2\n      swap1\n      sstore\n        /* \"\\xe8\\x87\\xaa\\xe5\\xb7\\xb1\\xe5\\x86\\x99\\xe4\\xb8\\xaa\\xe7\\x9f\\xbf\\xe6\\xb1\\xa0,\\xe5\\xae\\x9a\\xe6\\x81\\xaf\\xe7\\x9f\\xbf\\xe6\\xb1\\xa0.sol\":5381:5392  stakeSupple */\n      0x03\n        /* \"\\xe8\\x87\\xaa\\xe5\\xb7\\xb1\\xe5\\x86\\x99\\xe4\\xb8\\xaa\\xe7\\x9f\\xbf\\xe6\\xb1\\xa0,\\xe5\\xae\\x9a\\xe6\\x81\\xaf\\xe7\\x9f\\xbf\\xe6\\xb1\\xa0.sol\":5381:5428  stakeSupple -= User_Map[msg.sender].stakeNumber */\n      dup1\n      sload\n        /* \"\\xe8\\x87\\xaa\\xe5\\xb7\\xb1\\xe5\\x86\\x99\\xe4\\xb8\\xaa\\xe7\\x9f\\xbf\\xe6\\xb1\\xa0,\\xe5\\xae\\x9a\\xe6\\x81\\xaf\\xe7\\x9f\\xbf\\xe6\\xb1\\xa0.sol\":5369:5370  0 */\n      dup3\n      swap1\n        /* \"\\xe8\\x87\\xaa\\xe5\\xb7\\xb1\\xe5\\x86\\x99\\xe4\\xb8\\xaa\\xe7\\x9f\\xbf\\xe6\\xb1\\xa0,\\xe5\\xae\\x9a\\xe6\\x81\\xaf\\xe7\\x9f\\xbf\\xe6\\xb1\\xa0.sol\":5381:5428  stakeSupple -= User_Map[msg.sender].stakeNumber */\n      tag_105\n      swap1\n        /* \"\\xe8\\x87\\xaa\\xe5\\xb7\\xb1\\xe5\\x86\\x99\\xe4\\xb8\\xaa\\xe7\\x9f\\xbf\\xe6\\xb1\\xa0,\\xe5\\xae\\x9a\\xe6\\x81\\xaf\\xe7\\x9f\\xbf\\xe6\\xb1\\xa0.sol\":5369:5370  0 */\n      dup3\n      swap1\n        /* \"\\xe8\\x87\\xaa\\xe5\\xb7\\xb1\\xe5\\x86\\x99\\xe4\\xb8\\xaa\\xe7\\x9f\\xbf\\xe6\\xb1\\xa0,\\xe5\\xae\\x9a\\xe6\\x81\\xaf\\xe7\\x9f\\xbf\\xe6\\xb1\\xa0.sol\":5381:5428  stakeSupple -= User_Map[msg.sender].stakeNumber */\n      tag_70\n      jump\t// in\n    tag_105:\n      swap1\n      swap2\n      sstore\n      pop\n        /* \"\\xe8\\x87\\xaa\\xe5\\xb7\\xb1\\xe5\\x86\\x99\\xe4\\xb8\\xaa\\xe7\\x9f\\xbf\\xe6\\xb1\\xa0,\\xe5\\xae\\x9a\\xe6\\x81\\xaf\\xe7\\x9f\\xbf\\xe6\\xb1\\xa0.sol\":5446:5450  true */\n      0x01\n      swap3\n        /* \"\\xe8\\x87\\xaa\\xe5\\xb7\\xb1\\xe5\\x86\\x99\\xe4\\xb8\\xaa\\xe7\\x9f\\xbf\\xe6\\xb1\\xa0,\\xe5\\xae\\x9a\\xe6\\x81\\xaf\\xe7\\x9f\\xbf\\xe6\\xb1\\xa0.sol\":4649:5458  function harvestwithDraw() public returns (bool) {... */\n      swap2\n      pop\n      pop\n      jump\t// out\n        /* \"#utility.yul\":14:194   */\n    tag_17:\n        /* \"#utility.yul\":73:79   */\n      0x00\n        /* \"#utility.yul\":126:128   */\n      0x20\n        /* \"#utility.yul\":114:123   */\n      dup3\n        /* \"#utility.yul\":105:112   */\n      dup5\n        /* \"#utility.yul\":101:124   */\n      sub\n        /* \"#utility.yul\":97:129   */\n      slt\n        /* \"#utility.yul\":94:146   */\n      iszero\n      tag_109\n      jumpi\n        /* \"#utility.yul\":142:143   */\n      0x00\n        /* \"#utility.yul\":139:140   */\n      dup1\n        /* \"#utility.yul\":132:144   */\n      revert\n        /* \"#utility.yul\":94:146   */\n    tag_109:\n      pop\n        /* \"#utility.yul\":165:188   */\n      calldataload\n      swap2\n        /* \"#utility.yul\":14:194   */\n      swap1\n      pop\n      jump\t// out\n        /* \"#utility.yul\":781:1067   */\n    tag_37:\n        /* \"#utility.yul\":840:846   */\n      0x00\n        /* \"#utility.yul\":893:895   */\n      0x20\n        /* \"#utility.yul\":881:890   */\n      dup3\n        /* \"#utility.yul\":872:879   */\n      dup5\n        /* \"#utility.yul\":868:891   */\n      sub\n        /* \"#utility.yul\":864:896   */\n      slt\n        /* \"#utility.yul\":861:913   */\n      iszero\n      tag_114\n      jumpi\n        /* \"#utility.yul\":909:910   */\n      0x00\n        /* \"#utility.yul\":906:907   */\n      dup1\n        /* \"#utility.yul\":899:911   */\n      revert\n        /* \"#utility.yul\":861:913   */\n    tag_114:\n        /* \"#utility.yul\":935:958   */\n      dup2\n      calldataload\n      sub(shl(0xa0, 0x01), 0x01)\n        /* \"#utility.yul\":987:1018   */\n      dup2\n      and\n        /* \"#utility.yul\":977:1019   */\n      dup2\n      eq\n        /* \"#utility.yul\":967:1037   */\n      tag_80\n      jumpi\n        /* \"#utility.yul\":1033:1034   */\n      0x00\n        /* \"#utility.yul\":1030:1031   */\n      dup1\n        /* \"#utility.yul\":1023:1035   */\n      revert\n        /* \"#utility.yul\":1992:2269   */\n    tag_62:\n        /* \"#utility.yul\":2059:2065   */\n      0x00\n        /* \"#utility.yul\":2112:2114   */\n      0x20\n        /* \"#utility.yul\":2100:2109   */\n      dup3\n        /* \"#utility.yul\":2091:2098   */\n      dup5\n        /* \"#utility.yul\":2087:2110   */\n      sub\n        /* \"#utility.yul\":2083:2115   */\n      slt\n        /* \"#utility.yul\":2080:2132   */\n      iszero\n      tag_119\n      jumpi\n        /* \"#utility.yul\":2128:2129   */\n      0x00\n        /* \"#utility.yul\":2125:2126   */\n      dup1\n        /* \"#utility.yul\":2118:2130   */\n      revert\n        /* \"#utility.yul\":2080:2132   */\n    tag_119:\n        /* \"#utility.yul\":2160:2169   */\n      dup2\n        /* \"#utility.yul\":2154:2170   */\n      mload\n        /* \"#utility.yul\":2213:2218   */\n      dup1\n        /* \"#utility.yul\":2206:2219   */\n      iszero\n        /* \"#utility.yul\":2199:2220   */\n      iszero\n        /* \"#utility.yul\":2192:2197   */\n      dup2\n        /* \"#utility.yul\":2189:2221   */\n      eq\n        /* \"#utility.yul\":2179:2239   */\n      tag_80\n      jumpi\n        /* \"#utility.yul\":2235:2236   */\n      0x00\n        /* \"#utility.yul\":2232:2233   */\n      dup1\n        /* \"#utility.yul\":2225:2237   */\n      revert\n        /* \"#utility.yul\":2274:2401   */\n    tag_106:\n        /* \"#utility.yul\":2335:2345   */\n      0x4e487b71\n        /* \"#utility.yul\":2330:2333   */\n      0xe0\n        /* \"#utility.yul\":2326:2346   */\n      shl\n        /* \"#utility.yul\":2323:2324   */\n      0x00\n        /* \"#utility.yul\":2316:2347   */\n      mstore\n        /* \"#utility.yul\":2366:2370   */\n      0x11\n        /* \"#utility.yul\":2363:2364   */\n      0x04\n        /* \"#utility.yul\":2356:2371   */\n      mstore\n        /* \"#utility.yul\":2390:2394   */\n      0x24\n        /* \"#utility.yul\":2387:2388   */\n      0x00\n        /* \"#utility.yul\":2380:2395   */\n      revert\n        /* \"#utility.yul\":2406:2574   */\n    tag_65:\n        /* \"#utility.yul\":2446:2453   */\n      0x00\n        /* \"#utility.yul\":2512:2513   */\n      dup2\n        /* \"#utility.yul\":2508:2509   */\n      0x00\n        /* \"#utility.yul\":2504:2510   */\n      not\n        /* \"#utility.yul\":2500:2514   */\n      div\n        /* \"#utility.yul\":2497:2498   */\n      dup4\n        /* \"#utility.yul\":2494:2515   */\n      gt\n        /* \"#utility.yul\":2489:2490   */\n      dup3\n        /* \"#utility.yul\":2482:2491   */\n      iszero\n        /* \"#utility.yul\":2475:2492   */\n      iszero\n        /* \"#utility.yul\":2471:2516   */\n      and\n        /* \"#utility.yul\":2468:2539   */\n      iszero\n      tag_124\n      jumpi\n        /* \"#utility.yul\":2519:2537   */\n      tag_124\n      tag_106\n      jump\t// in\n    tag_124:\n      pop\n        /* \"#utility.yul\":2559:2568   */\n      mul\n      swap1\n        /* \"#utility.yul\":2406:2574   */\n      jump\t// out\n        /* \"#utility.yul\":2579:2796   */\n    tag_67:\n        /* \"#utility.yul\":2619:2620   */\n      0x00\n        /* \"#utility.yul\":2645:2646   */\n      dup3\n        /* \"#utility.yul\":2635:2767   */\n      tag_126\n      jumpi\n        /* \"#utility.yul\":2689:2699   */\n      0x4e487b71\n        /* \"#utility.yul\":2684:2687   */\n      0xe0\n        /* \"#utility.yul\":2680:2700   */\n      shl\n        /* \"#utility.yul\":2677:2678   */\n      0x00\n        /* \"#utility.yul\":2670:2701   */\n      mstore\n        /* \"#utility.yul\":2724:2728   */\n      0x12\n        /* \"#utility.yul\":2721:2722   */\n      0x04\n        /* \"#utility.yul\":2714:2729   */\n      mstore\n        /* \"#utility.yul\":2752:2756   */\n      0x24\n        /* \"#utility.yul\":2749:2750   */\n      0x00\n        /* \"#utility.yul\":2742:2757   */\n      revert\n        /* \"#utility.yul\":2635:2767   */\n    tag_126:\n      pop\n        /* \"#utility.yul\":2781:2790   */\n      div\n      swap1\n        /* \"#utility.yul\":2579:2796   */\n      jump\t// out\n        /* \"#utility.yul\":2801:2926   */\n    tag_70:\n        /* \"#utility.yul\":2841:2845   */\n      0x00\n        /* \"#utility.yul\":2869:2870   */\n      dup3\n        /* \"#utility.yul\":2866:2867   */\n      dup3\n        /* \"#utility.yul\":2863:2871   */\n      lt\n        /* \"#utility.yul\":2860:2894   */\n      iszero\n      tag_129\n      jumpi\n        /* \"#utility.yul\":2874:2892   */\n      tag_129\n      tag_106\n      jump\t// in\n    tag_129:\n      pop\n        /* \"#utility.yul\":2911:2920   */\n      sub\n      swap1\n        /* \"#utility.yul\":2801:2926   */\n      jump\t// out\n        /* \"#utility.yul\":2931:3059   */\n    tag_73:\n        /* \"#utility.yul\":2971:2974   */\n      0x00\n        /* \"#utility.yul\":3002:3003   */\n      dup3\n        /* \"#utility.yul\":2998:3004   */\n      not\n        /* \"#utility.yul\":2995:2996   */\n      dup3\n        /* \"#utility.yul\":2992:3005   */\n      gt\n        /* \"#utility.yul\":2989:3028   */\n      iszero\n      tag_132\n      jumpi\n        /* \"#utility.yul\":3008:3026   */\n      tag_132\n      tag_106\n      jump\t// in\n    tag_132:\n      pop\n        /* \"#utility.yul\":3044:3053   */\n      add\n      swap1\n        /* \"#utility.yul\":2931:3059   */\n      jump\t// out\n\n    auxdata: 0xa2646970667358221220ae1eb5a403806e11bad57f982c0da340f37a6ab17f9d2718aefe0e8e435b31d264736f6c634300080f0033\n}\n",
				"bytecode": {
					"linkReferences": {},
					"object": "608060405234801561001057600080fd5b5060405161097438038061097483398101604081905261002f91610177565b600480546001600160a01b031916331790556001600160a01b03821661008f5760405162461bcd60e51b815260206004820152601060248201526f4e4f542c53203058204144445245535360801b60448201526064015b60405180910390fd5b6001600160a01b0381166100d85760405162461bcd60e51b815260206004820152601060248201526f4e4f542c53203058204144445245535360801b6044820152606401610086565b806001600160a01b0316826001600160a01b03161461012a5760405162461bcd60e51b815260206004820152600e60248201526d13915151081859dc99595b595b9d60921b6044820152606401610086565b600180546001600160a01b039384166001600160a01b031991821617909155600280549290931691161790556101aa565b80516001600160a01b038116811461017257600080fd5b919050565b6000806040838503121561018a57600080fd5b6101938361015b565b91506101a16020840161015b565b90509250929050565b6107bb806101b96000396000f3fe608060405234801561001057600080fd5b50600436106100a95760003560e01c80638c93ecff116100715780638c93ecff146101385780638da5cb5b146101a8578063b2237ba3146101bb578063d942727f146101d0578063dab2997b146101d9578063fb5bca7a146101ec57600080fd5b8063227a473b146100ae5780632c46502d146100d6578063529aca49146101015780635e9f44351461011757806371ca337d1461012f575b600080fd5b6100c16100bc36600461069b565b6101f4565b60405190151581526020015b60405180910390f35b6002546100e9906001600160a01b031681565b6040516001600160a01b0390911681526020016100cd565b610109610386565b6040519081526020016100cd565b33600090815260056020526040902060020154610109565b61010960005481565b61017b6101463660046106b4565b600560208190526000918252604090912080546001820154600283015460038401546004850154949095015492949193909286565b604080519687526020870195909552938501929092526060840152608083015260a082015260c0016100cd565b6004546100e9906001600160a01b031681565b6101ce6101c936600461069b565b6103f3565b005b61010960035481565b6001546100e9906001600160a01b031681565b6100c1610442565b6001546040516323b872dd60e01b8152336004820152306024820152604481018390526000916001600160a01b0316906323b872dd906064016020604051808303816000875af115801561024c573d6000803e3d6000fd5b505050506040513d601f19601f8201168201806040525081019061027091906106dd565b50604051828152309033907f1fd6ebb971d137acf3f01670862b8a96758cfc7e39dccb093e68daf461b0262c9060200160405180910390a36000805433825260056020526040909120546301e13380916064916102cd9190610715565b6102d79190610734565b6102e19190610734565b336000908152600560205260409020600101546102fe9042610756565b6103089190610715565b336000908152600560205260408120600281019290925581548492919061033090849061076d565b9091555050336000908152600560205260408120426001909101556003805484929061035d90849061076d565b909155505033600090815260056020526040902060018082015460049092019190915592915050565b3360009081526005602052604081206004015481906103a59042610756565b600080543382526005602052604082205492935090916301e13380916064916103ce9190610715565b6103d89190610734565b6103e29190610734565b6103ec9083610715565b9392505050565b6004546001600160a01b0316331461043d5760405162461bcd60e51b81526020600482015260096024820152683737ba1037bbb732b960b91b604482015260640160405180910390fd5b600055565b60008054338252600560205260408220546301e13380916064916104669190610715565b6104709190610734565b61047a9190610734565b336000908152600560205260409020600101546104979042610756565b6104a19190610715565b336000908152600560205260409020600201546104be919061076d565b3360008181526005602052604090819020600301839055600254905163a9059cbb60e01b8152600481019290925260248201929092526001600160a01b039091169063a9059cbb906044016020604051808303816000875af1158015610528573d6000803e3d6000fd5b505050506040513d601f19601f8201168201806040525081019061054c91906106dd565b50336000818152600560209081526040918290206003015491519182527fa9059cbb2ab09eb219583f4a59a5d0623ade346d962bcd4e46b11da047c9049b910160405180910390a2336000818152600560205260408082206003810183905560028101929092556001549154905163a9059cbb60e01b8152600481019390935260248301526001600160a01b03169063a9059cbb906044016020604051808303816000875af1158015610603573d6000803e3d6000fd5b505050506040513d601f19601f8201168201806040525081019061062791906106dd565b50336000818152600560209081526040918290205491519182527fa9059cbb2ab09eb219583f4a59a5d0623ade346d962bcd4e46b11da047c9049b910160405180910390a233600090815260056020526040812081905560038054829061068f908290610756565b90915550600192915050565b6000602082840312156106ad57600080fd5b5035919050565b6000602082840312156106c657600080fd5b81356001600160a01b03811681146103ec57600080fd5b6000602082840312156106ef57600080fd5b815180151581146103ec57600080fd5b634e487b7160e01b600052601160045260246000fd5b600081600019048311821515161561072f5761072f6106ff565b500290565b60008261075157634e487b7160e01b600052601260045260246000fd5b500490565b600082821015610768576107686106ff565b500390565b60008219821115610780576107806106ff565b50019056fea2646970667358221220ae1eb5a403806e11bad57f982c0da340f37a6ab17f9d2718aefe0e8e435b31d264736f6c634300080f0033",
					"opcodes": "PUSH1 0x80 PUSH1 0x40 MSTORE CALLVALUE DUP1 ISZERO PUSH2 0x10 JUMPI PUSH1 0x0 DUP1 REVERT JUMPDEST POP PUSH1 0x40 MLOAD PUSH2 0x974 CODESIZE SUB DUP1 PUSH2 0x974 DUP4 CODECOPY DUP2 ADD PUSH1 0x40 DUP2 SWAP1 MSTORE PUSH2 0x2F SWAP2 PUSH2 0x177 JUMP JUMPDEST PUSH1 0x4 DUP1 SLOAD PUSH1 0x1 PUSH1 0x1 PUSH1 0xA0 SHL SUB NOT AND CALLER OR SWAP1 SSTORE PUSH1 0x1 PUSH1 0x1 PUSH1 0xA0 SHL SUB DUP3 AND PUSH2 0x8F JUMPI PUSH1 0x40 MLOAD PUSH3 0x461BCD PUSH1 0xE5 SHL DUP2 MSTORE PUSH1 0x20 PUSH1 0x4 DUP3 ADD MSTORE PUSH1 0x10 PUSH1 0x24 DUP3 ADD MSTORE PUSH16 0x4E4F542C532030582041444452455353 PUSH1 0x80 SHL PUSH1 0x44 DUP3 ADD MSTORE PUSH1 0x64 ADD JUMPDEST PUSH1 0x40 MLOAD DUP1 SWAP2 SUB SWAP1 REVERT JUMPDEST PUSH1 0x1 PUSH1 0x1 PUSH1 0xA0 SHL SUB DUP2 AND PUSH2 0xD8 JUMPI PUSH1 0x40 MLOAD PUSH3 0x461BCD PUSH1 0xE5 SHL DUP2 MSTORE PUSH1 0x20 PUSH1 0x4 DUP3 ADD MSTORE PUSH1 0x10 PUSH1 0x24 DUP3 ADD MSTORE PUSH16 0x4E4F542C532030582041444452455353 PUSH1 0x80 SHL PUSH1 0x44 DUP3 ADD MSTORE PUSH1 0x64 ADD PUSH2 0x86 JUMP JUMPDEST DUP1 PUSH1 0x1 PUSH1 0x1 PUSH1 0xA0 SHL SUB AND DUP3 PUSH1 0x1 PUSH1 0x1 PUSH1 0xA0 SHL SUB AND EQ PUSH2 0x12A JUMPI PUSH1 0x40 MLOAD PUSH3 0x461BCD PUSH1 0xE5 SHL DUP2 MSTORE PUSH1 0x20 PUSH1 0x4 DUP3 ADD MSTORE PUSH1 0xE PUSH1 0x24 DUP3 ADD MSTORE PUSH14 0x13915151081859DC99595B595B9D PUSH1 0x92 SHL PUSH1 0x44 DUP3 ADD MSTORE PUSH1 0x64 ADD PUSH2 0x86 JUMP JUMPDEST PUSH1 0x1 DUP1 SLOAD PUSH1 0x1 PUSH1 0x1 PUSH1 0xA0 SHL SUB SWAP4 DUP5 AND PUSH1 0x1 PUSH1 0x1 PUSH1 0xA0 SHL SUB NOT SWAP2 DUP3 AND OR SWAP1 SWAP2 SSTORE PUSH1 0x2 DUP1 SLOAD SWAP3 SWAP1 SWAP4 AND SWAP2 AND OR SWAP1 SSTORE PUSH2 0x1AA JUMP JUMPDEST DUP1 MLOAD PUSH1 0x1 PUSH1 0x1 PUSH1 0xA0 SHL SUB DUP2 AND DUP2 EQ PUSH2 0x172 JUMPI PUSH1 0x0 DUP1 REVERT JUMPDEST SWAP2 SWAP1 POP JUMP JUMPDEST PUSH1 0x0 DUP1 PUSH1 0x40 DUP4 DUP6 SUB SLT ISZERO PUSH2 0x18A JUMPI PUSH1 0x0 DUP1 REVERT JUMPDEST PUSH2 0x193 DUP4 PUSH2 0x15B JUMP JUMPDEST SWAP2 POP PUSH2 0x1A1 PUSH1 0x20 DUP5 ADD PUSH2 0x15B JUMP JUMPDEST SWAP1 POP SWAP3 POP SWAP3 SWAP1 POP JUMP JUMPDEST PUSH2 0x7BB DUP1 PUSH2 0x1B9 PUSH1 0x0 CODECOPY PUSH1 0x0 RETURN INVALID PUSH1 0x80 PUSH1 0x40 MSTORE CALLVALUE DUP1 ISZERO PUSH2 0x10 JUMPI PUSH1 0x0 DUP1 REVERT JUMPDEST POP PUSH1 0x4 CALLDATASIZE LT PUSH2 0xA9 JUMPI PUSH1 0x0 CALLDATALOAD PUSH1 0xE0 SHR DUP1 PUSH4 0x8C93ECFF GT PUSH2 0x71 JUMPI DUP1 PUSH4 0x8C93ECFF EQ PUSH2 0x138 JUMPI DUP1 PUSH4 0x8DA5CB5B EQ PUSH2 0x1A8 JUMPI DUP1 PUSH4 0xB2237BA3 EQ PUSH2 0x1BB JUMPI DUP1 PUSH4 0xD942727F EQ PUSH2 0x1D0 JUMPI DUP1 PUSH4 0xDAB2997B EQ PUSH2 0x1D9 JUMPI DUP1 PUSH4 0xFB5BCA7A EQ PUSH2 0x1EC JUMPI PUSH1 0x0 DUP1 REVERT JUMPDEST DUP1 PUSH4 0x227A473B EQ PUSH2 0xAE JUMPI DUP1 PUSH4 0x2C46502D EQ PUSH2 0xD6 JUMPI DUP1 PUSH4 0x529ACA49 EQ PUSH2 0x101 JUMPI DUP1 PUSH4 0x5E9F4435 EQ PUSH2 0x117 JUMPI DUP1 PUSH4 0x71CA337D EQ PUSH2 0x12F JUMPI JUMPDEST PUSH1 0x0 DUP1 REVERT JUMPDEST PUSH2 0xC1 PUSH2 0xBC CALLDATASIZE PUSH1 0x4 PUSH2 0x69B JUMP JUMPDEST PUSH2 0x1F4 JUMP JUMPDEST PUSH1 0x40 MLOAD SWAP1 ISZERO ISZERO DUP2 MSTORE PUSH1 0x20 ADD JUMPDEST PUSH1 0x40 MLOAD DUP1 SWAP2 SUB SWAP1 RETURN JUMPDEST PUSH1 0x2 SLOAD PUSH2 0xE9 SWAP1 PUSH1 0x1 PUSH1 0x1 PUSH1 0xA0 SHL SUB AND DUP2 JUMP JUMPDEST PUSH1 0x40 MLOAD PUSH1 0x1 PUSH1 0x1 PUSH1 0xA0 SHL SUB SWAP1 SWAP2 AND DUP2 MSTORE PUSH1 0x20 ADD PUSH2 0xCD JUMP JUMPDEST PUSH2 0x109 PUSH2 0x386 JUMP JUMPDEST PUSH1 0x40 MLOAD SWAP1 DUP2 MSTORE PUSH1 0x20 ADD PUSH2 0xCD JUMP JUMPDEST CALLER PUSH1 0x0 SWAP1 DUP2 MSTORE PUSH1 0x5 PUSH1 0x20 MSTORE PUSH1 0x40 SWAP1 KECCAK256 PUSH1 0x2 ADD SLOAD PUSH2 0x109 JUMP JUMPDEST PUSH2 0x109 PUSH1 0x0 SLOAD DUP2 JUMP JUMPDEST PUSH2 0x17B PUSH2 0x146 CALLDATASIZE PUSH1 0x4 PUSH2 0x6B4 JUMP JUMPDEST PUSH1 0x5 PUSH1 0x20 DUP2 SWAP1 MSTORE PUSH1 0x0 SWAP2 DUP3 MSTORE PUSH1 0x40 SWAP1 SWAP2 KECCAK256 DUP1 SLOAD PUSH1 0x1 DUP3 ADD SLOAD PUSH1 0x2 DUP4 ADD SLOAD PUSH1 0x3 DUP5 ADD SLOAD PUSH1 0x4 DUP6 ADD SLOAD SWAP5 SWAP1 SWAP6 ADD SLOAD SWAP3 SWAP5 SWAP2 SWAP4 SWAP1 SWAP3 DUP7 JUMP JUMPDEST PUSH1 0x40 DUP1 MLOAD SWAP7 DUP8 MSTORE PUSH1 0x20 DUP8 ADD SWAP6 SWAP1 SWAP6 MSTORE SWAP4 DUP6 ADD SWAP3 SWAP1 SWAP3 MSTORE PUSH1 0x60 DUP5 ADD MSTORE PUSH1 0x80 DUP4 ADD MSTORE PUSH1 0xA0 DUP3 ADD MSTORE PUSH1 0xC0 ADD PUSH2 0xCD JUMP JUMPDEST PUSH1 0x4 SLOAD PUSH2 0xE9 SWAP1 PUSH1 0x1 PUSH1 0x1 PUSH1 0xA0 SHL SUB AND DUP2 JUMP JUMPDEST PUSH2 0x1CE PUSH2 0x1C9 CALLDATASIZE PUSH1 0x4 PUSH2 0x69B JUMP JUMPDEST PUSH2 0x3F3 JUMP JUMPDEST STOP JUMPDEST PUSH2 0x109 PUSH1 0x3 SLOAD DUP2 JUMP JUMPDEST PUSH1 0x1 SLOAD PUSH2 0xE9 SWAP1 PUSH1 0x1 PUSH1 0x1 PUSH1 0xA0 SHL SUB AND DUP2 JUMP JUMPDEST PUSH2 0xC1 PUSH2 0x442 JUMP JUMPDEST PUSH1 0x1 SLOAD PUSH1 0x40 MLOAD PUSH4 0x23B872DD PUSH1 0xE0 SHL DUP2 MSTORE CALLER PUSH1 0x4 DUP3 ADD MSTORE ADDRESS PUSH1 0x24 DUP3 ADD MSTORE PUSH1 0x44 DUP2 ADD DUP4 SWAP1 MSTORE PUSH1 0x0 SWAP2 PUSH1 0x1 PUSH1 0x1 PUSH1 0xA0 SHL SUB AND SWAP1 PUSH4 0x23B872DD SWAP1 PUSH1 0x64 ADD PUSH1 0x20 PUSH1 0x40 MLOAD DUP1 DUP4 SUB DUP2 PUSH1 0x0 DUP8 GAS CALL ISZERO DUP1 ISZERO PUSH2 0x24C JUMPI RETURNDATASIZE PUSH1 0x0 DUP1 RETURNDATACOPY RETURNDATASIZE PUSH1 0x0 REVERT JUMPDEST POP POP POP POP PUSH1 0x40 MLOAD RETURNDATASIZE PUSH1 0x1F NOT PUSH1 0x1F DUP3 ADD AND DUP3 ADD DUP1 PUSH1 0x40 MSTORE POP DUP2 ADD SWAP1 PUSH2 0x270 SWAP2 SWAP1 PUSH2 0x6DD JUMP JUMPDEST POP PUSH1 0x40 MLOAD DUP3 DUP2 MSTORE ADDRESS SWAP1 CALLER SWAP1 PUSH32 0x1FD6EBB971D137ACF3F01670862B8A96758CFC7E39DCCB093E68DAF461B0262C SWAP1 PUSH1 0x20 ADD PUSH1 0x40 MLOAD DUP1 SWAP2 SUB SWAP1 LOG3 PUSH1 0x0 DUP1 SLOAD CALLER DUP3 MSTORE PUSH1 0x5 PUSH1 0x20 MSTORE PUSH1 0x40 SWAP1 SWAP2 KECCAK256 SLOAD PUSH4 0x1E13380 SWAP2 PUSH1 0x64 SWAP2 PUSH2 0x2CD SWAP2 SWAP1 PUSH2 0x715 JUMP JUMPDEST PUSH2 0x2D7 SWAP2 SWAP1 PUSH2 0x734 JUMP JUMPDEST PUSH2 0x2E1 SWAP2 SWAP1 PUSH2 0x734 JUMP JUMPDEST CALLER PUSH1 0x0 SWAP1 DUP2 MSTORE PUSH1 0x5 PUSH1 0x20 MSTORE PUSH1 0x40 SWAP1 KECCAK256 PUSH1 0x1 ADD SLOAD PUSH2 0x2FE SWAP1 TIMESTAMP PUSH2 0x756 JUMP JUMPDEST PUSH2 0x308 SWAP2 SWAP1 PUSH2 0x715 JUMP JUMPDEST CALLER PUSH1 0x0 SWAP1 DUP2 MSTORE PUSH1 0x5 PUSH1 0x20 MSTORE PUSH1 0x40 DUP2 KECCAK256 PUSH1 0x2 DUP2 ADD SWAP3 SWAP1 SWAP3 SSTORE DUP2 SLOAD DUP5 SWAP3 SWAP2 SWAP1 PUSH2 0x330 SWAP1 DUP5 SWAP1 PUSH2 0x76D JUMP JUMPDEST SWAP1 SWAP2 SSTORE POP POP CALLER PUSH1 0x0 SWAP1 DUP2 MSTORE PUSH1 0x5 PUSH1 0x20 MSTORE PUSH1 0x40 DUP2 KECCAK256 TIMESTAMP PUSH1 0x1 SWAP1 SWAP2 ADD SSTORE PUSH1 0x3 DUP1 SLOAD DUP5 SWAP3 SWAP1 PUSH2 0x35D SWAP1 DUP5 SWAP1 PUSH2 0x76D JUMP JUMPDEST SWAP1 SWAP2 SSTORE POP POP CALLER PUSH1 0x0 SWAP1 DUP2 MSTORE PUSH1 0x5 PUSH1 0x20 MSTORE PUSH1 0x40 SWAP1 KECCAK256 PUSH1 0x1 DUP1 DUP3 ADD SLOAD PUSH1 0x4 SWAP1 SWAP3 ADD SWAP2 SWAP1 SWAP2 SSTORE SWAP3 SWAP2 POP POP JUMP JUMPDEST CALLER PUSH1 0x0 SWAP1 DUP2 MSTORE PUSH1 0x5 PUSH1 0x20 MSTORE PUSH1 0x40 DUP2 KECCAK256 PUSH1 0x4 ADD SLOAD DUP2 SWAP1 PUSH2 0x3A5 SWAP1 TIMESTAMP PUSH2 0x756 JUMP JUMPDEST PUSH1 0x0 DUP1 SLOAD CALLER DUP3 MSTORE PUSH1 0x5 PUSH1 0x20 MSTORE PUSH1 0x40 DUP3 KECCAK256 SLOAD SWAP3 SWAP4 POP SWAP1 SWAP2 PUSH4 0x1E13380 SWAP2 PUSH1 0x64 SWAP2 PUSH2 0x3CE SWAP2 SWAP1 PUSH2 0x715 JUMP JUMPDEST PUSH2 0x3D8 SWAP2 SWAP1 PUSH2 0x734 JUMP JUMPDEST PUSH2 0x3E2 SWAP2 SWAP1 PUSH2 0x734 JUMP JUMPDEST PUSH2 0x3EC SWAP1 DUP4 PUSH2 0x715 JUMP JUMPDEST SWAP4 SWAP3 POP POP POP JUMP JUMPDEST PUSH1 0x4 SLOAD PUSH1 0x1 PUSH1 0x1 PUSH1 0xA0 SHL SUB AND CALLER EQ PUSH2 0x43D JUMPI PUSH1 0x40 MLOAD PUSH3 0x461BCD PUSH1 0xE5 SHL DUP2 MSTORE PUSH1 0x20 PUSH1 0x4 DUP3 ADD MSTORE PUSH1 0x9 PUSH1 0x24 DUP3 ADD MSTORE PUSH9 0x3737BA1037BBB732B9 PUSH1 0xB9 SHL PUSH1 0x44 DUP3 ADD MSTORE PUSH1 0x64 ADD PUSH1 0x40 MLOAD DUP1 SWAP2 SUB SWAP1 REVERT JUMPDEST PUSH1 0x0 SSTORE JUMP JUMPDEST PUSH1 0x0 DUP1 SLOAD CALLER DUP3 MSTORE PUSH1 0x5 PUSH1 0x20 MSTORE PUSH1 0x40 DUP3 KECCAK256 SLOAD PUSH4 0x1E13380 SWAP2 PUSH1 0x64 SWAP2 PUSH2 0x466 SWAP2 SWAP1 PUSH2 0x715 JUMP JUMPDEST PUSH2 0x470 SWAP2 SWAP1 PUSH2 0x734 JUMP JUMPDEST PUSH2 0x47A SWAP2 SWAP1 PUSH2 0x734 JUMP JUMPDEST CALLER PUSH1 0x0 SWAP1 DUP2 MSTORE PUSH1 0x5 PUSH1 0x20 MSTORE PUSH1 0x40 SWAP1 KECCAK256 PUSH1 0x1 ADD SLOAD PUSH2 0x497 SWAP1 TIMESTAMP PUSH2 0x756 JUMP JUMPDEST PUSH2 0x4A1 SWAP2 SWAP1 PUSH2 0x715 JUMP JUMPDEST CALLER PUSH1 0x0 SWAP1 DUP2 MSTORE PUSH1 0x5 PUSH1 0x20 MSTORE PUSH1 0x40 SWAP1 KECCAK256 PUSH1 0x2 ADD SLOAD PUSH2 0x4BE SWAP2 SWAP1 PUSH2 0x76D JUMP JUMPDEST CALLER PUSH1 0x0 DUP2 DUP2 MSTORE PUSH1 0x5 PUSH1 0x20 MSTORE PUSH1 0x40 SWAP1 DUP2 SWAP1 KECCAK256 PUSH1 0x3 ADD DUP4 SWAP1 SSTORE PUSH1 0x2 SLOAD SWAP1 MLOAD PUSH4 0xA9059CBB PUSH1 0xE0 SHL DUP2 MSTORE PUSH1 0x4 DUP2 ADD SWAP3 SWAP1 SWAP3 MSTORE PUSH1 0x24 DUP3 ADD SWAP3 SWAP1 SWAP3 MSTORE PUSH1 0x1 PUSH1 0x1 PUSH1 0xA0 SHL SUB SWAP1 SWAP2 AND SWAP1 PUSH4 0xA9059CBB SWAP1 PUSH1 0x44 ADD PUSH1 0x20 PUSH1 0x40 MLOAD DUP1 DUP4 SUB DUP2 PUSH1 0x0 DUP8 GAS CALL ISZERO DUP1 ISZERO PUSH2 0x528 JUMPI RETURNDATASIZE PUSH1 0x0 DUP1 RETURNDATACOPY RETURNDATASIZE PUSH1 0x0 REVERT JUMPDEST POP POP POP POP PUSH1 0x40 MLOAD RETURNDATASIZE PUSH1 0x1F NOT PUSH1 0x1F DUP3 ADD AND DUP3 ADD DUP1 PUSH1 0x40 MSTORE POP DUP2 ADD SWAP1 PUSH2 0x54C SWAP2 SWAP1 PUSH2 0x6DD JUMP JUMPDEST POP CALLER PUSH1 0x0 DUP2 DUP2 MSTORE PUSH1 0x5 PUSH1 0x20 SWAP1 DUP2 MSTORE PUSH1 0x40 SWAP2 DUP3 SWAP1 KECCAK256 PUSH1 0x3 ADD SLOAD SWAP2 MLOAD SWAP2 DUP3 MSTORE PUSH32 0xA9059CBB2AB09EB219583F4A59A5D0623ADE346D962BCD4E46B11DA047C9049B SWAP2 ADD PUSH1 0x40 MLOAD DUP1 SWAP2 SUB SWAP1 LOG2 CALLER PUSH1 0x0 DUP2 DUP2 MSTORE PUSH1 0x5 PUSH1 0x20 MSTORE PUSH1 0x40 DUP1 DUP3 KECCAK256 PUSH1 0x3 DUP2 ADD DUP4 SWAP1 SSTORE PUSH1 0x2 DUP2 ADD SWAP3 SWAP1 SWAP3 SSTORE PUSH1 0x1 SLOAD SWAP2 SLOAD SWAP1 MLOAD PUSH4 0xA9059CBB PUSH1 0xE0 SHL DUP2 MSTORE PUSH1 0x4 DUP2 ADD SWAP4 SWAP1 SWAP4 MSTORE PUSH1 0x24 DUP4 ADD MSTORE PUSH1 0x1 PUSH1 0x1 PUSH1 0xA0 SHL SUB AND SWAP1 PUSH4 0xA9059CBB SWAP1 PUSH1 0x44 ADD PUSH1 0x20 PUSH1 0x40 MLOAD DUP1 DUP4 SUB DUP2 PUSH1 0x0 DUP8 GAS CALL ISZERO DUP1 ISZERO PUSH2 0x603 JUMPI RETURNDATASIZE PUSH1 0x0 DUP1 RETURNDATACOPY RETURNDATASIZE PUSH1 0x0 REVERT JUMPDEST POP POP POP POP PUSH1 0x40 MLOAD RETURNDATASIZE PUSH1 0x1F NOT PUSH1 0x1F DUP3 ADD AND DUP3 ADD DUP1 PUSH1 0x40 MSTORE POP DUP2 ADD SWAP1 PUSH2 0x627 SWAP2 SWAP1 PUSH2 0x6DD JUMP JUMPDEST POP CALLER PUSH1 0x0 DUP2 DUP2 MSTORE PUSH1 0x5 PUSH1 0x20 SWAP1 DUP2 MSTORE PUSH1 0x40 SWAP2 DUP3 SWAP1 KECCAK256 SLOAD SWAP2 MLOAD SWAP2 DUP3 MSTORE PUSH32 0xA9059CBB2AB09EB219583F4A59A5D0623ADE346D962BCD4E46B11DA047C9049B SWAP2 ADD PUSH1 0x40 MLOAD DUP1 SWAP2 SUB SWAP1 LOG2 CALLER PUSH1 0x0 SWAP1 DUP2 MSTORE PUSH1 0x5 PUSH1 0x20 MSTORE PUSH1 0x40 DUP2 KECCAK256 DUP2 SWAP1 SSTORE PUSH1 0x3 DUP1 SLOAD DUP3 SWAP1 PUSH2 0x68F SWAP1 DUP3 SWAP1 PUSH2 0x756 JUMP JUMPDEST SWAP1 SWAP2 SSTORE POP PUSH1 0x1 SWAP3 SWAP2 POP POP JUMP JUMPDEST PUSH1 0x0 PUSH1 0x20 DUP3 DUP5 SUB SLT ISZERO PUSH2 0x6AD JUMPI PUSH1 0x0 DUP1 REVERT JUMPDEST POP CALLDATALOAD SWAP2 SWAP1 POP JUMP JUMPDEST PUSH1 0x0 PUSH1 0x20 DUP3 DUP5 SUB SLT ISZERO PUSH2 0x6C6 JUMPI PUSH1 0x0 DUP1 REVERT JUMPDEST DUP2 CALLDATALOAD PUSH1 0x1 PUSH1 0x1 PUSH1 0xA0 SHL SUB DUP2 AND DUP2 EQ PUSH2 0x3EC JUMPI PUSH1 0x0 DUP1 REVERT JUMPDEST PUSH1 0x0 PUSH1 0x20 DUP3 DUP5 SUB SLT ISZERO PUSH2 0x6EF JUMPI PUSH1 0x0 DUP1 REVERT JUMPDEST DUP2 MLOAD DUP1 ISZERO ISZERO DUP2 EQ PUSH2 0x3EC JUMPI PUSH1 0x0 DUP1 REVERT JUMPDEST PUSH4 0x4E487B71 PUSH1 0xE0 SHL PUSH1 0x0 MSTORE PUSH1 0x11 PUSH1 0x4 MSTORE PUSH1 0x24 PUSH1 0x0 REVERT JUMPDEST PUSH1 0x0 DUP2 PUSH1 0x0 NOT DIV DUP4 GT DUP3 ISZERO ISZERO AND ISZERO PUSH2 0x72F JUMPI PUSH2 0x72F PUSH2 0x6FF JUMP JUMPDEST POP MUL SWAP1 JUMP JUMPDEST PUSH1 0x0 DUP3 PUSH2 0x751 JUMPI PUSH4 0x4E487B71 PUSH1 0xE0 SHL PUSH1 0x0 MSTORE PUSH1 0x12 PUSH1 0x4 MSTORE PUSH1 0x24 PUSH1 0x0 REVERT JUMPDEST POP DIV SWAP1 JUMP JUMPDEST PUSH1 0x0 DUP3 DUP3 LT ISZERO PUSH2 0x768 JUMPI PUSH2 0x768 PUSH2 0x6FF JUMP JUMPDEST POP SUB SWAP1 JUMP JUMPDEST PUSH1 0x0 DUP3 NOT DUP3 GT ISZERO PUSH2 0x780 JUMPI PUSH2 0x780 PUSH2 0x6FF JUMP JUMPDEST POP ADD SWAP1 JUMP INVALID LOG2 PUSH5 0x6970667358 0x22 SLT KECCAK256 0xAE 0x1E 0xB5 LOG4 SUB DUP1 PUSH15 0x11BAD57F982C0DA340F37A6AB17F9D 0x27 XOR 0xAE INVALID 0xE DUP15 NUMBER JUMPDEST BALANCE 0xD2 PUSH5 0x736F6C6343 STOP ADDMOD 0xF STOP CALLER "
				},
				"gasEstimates": {
					"creation": {
						"codeDepositCost": "395800",
						"executionCost": "infinite",
						"totalCost": "infinite"
					},
					"external": {
						"Stake(uint256)": "infinite",
						"User_Map(address)": "13158",
						"harvestwithDraw()": "infinite",
						"lastTotokenRatio()": "2433",
						"newTotokenRatio()": "infinite",
						"owner()": "2359",
						"ratio()": "2384",
						"setRatio(uint256)": "24508",
						"stakeSupple()": "2361",
						"staketoken()": "2425",
						"totoken()": "2360"
					}
				},
				"methodIdentifiers": {
					"Stake(uint256)": "227a473b",
					"User_Map(address)": "8c93ecff",
					"harvestwithDraw()": "fb5bca7a",
					"lastTotokenRatio()": "5e9f4435",
					"newTotokenRatio()": "529aca49",
					"owner()": "8da5cb5b",
					"ratio()": "71ca337d",
					"setRatio(uint256)": "b2237ba3",
					"stakeSupple()": "d942727f",
					"staketoken()": "dab2997b",
					"totoken()": "2c46502d"
				}
			},
			"storageLayout": {
				"storage": [
					{
						"astId": 70,
						"contract": "自己写个矿池,定息矿池.sol:StakeContract",
						"label": "ratio",
						"offset": 0,
						"slot": "0",
						"type": "t_uint256"
					},
					{
						"astId": 72,
						"contract": "自己写个矿池,定息矿池.sol:StakeContract",
						"label": "staketoken",
						"offset": 0,
						"slot": "1",
						"type": "t_address"
					},
					{
						"astId": 74,
						"contract": "自己写个矿池,定息矿池.sol:StakeContract",
						"label": "totoken",
						"offset": 0,
						"slot": "2",
						"type": "t_address"
					},
					{
						"astId": 76,
						"contract": "自己写个矿池,定息矿池.sol:StakeContract",
						"label": "stakeSupple",
						"offset": 0,
						"slot": "3",
						"type": "t_uint256"
					},
					{
						"astId": 78,
						"contract": "自己写个矿池,定息矿池.sol:StakeContract",
						"label": "owner",
						"offset": 0,
						"slot": "4",
						"type": "t_address"
					},
					{
						"astId": 118,
						"contract": "自己写个矿池,定息矿池.sol:StakeContract",
						"label": "User_Map",
						"offset": 0,
						"slot": "5",
						"type": "t_mapping(t_address,t_struct(User)113_storage)"
					}
				],
				"types": {
					"t_address": {
						"encoding": "inplace",
						"label": "address",
						"numberOfBytes": "20"
					},
					"t_mapping(t_address,t_struct(User)113_storage)": {
						"encoding": "mapping",
						"key": "t_address",
						"label": "mapping(address => struct StakeContract.User)",
						"numberOfBytes": "32",
						"value": "t_struct(User)113_storage"
					},
					"t_struct(User)113_storage": {
						"encoding": "inplace",
						"label": "struct StakeContract.User",
						"members": [
							{
								"astId": 102,
								"contract": "自己写个矿池,定息矿池.sol:StakeContract",
								"label": "stakeNumber",
								"offset": 0,
								"slot": "0",
								"type": "t_uint256"
							},
							{
								"astId": 104,
								"contract": "自己写个矿池,定息矿池.sol:StakeContract",
								"label": "last_Stake_Time",
								"offset": 0,
								"slot": "1",
								"type": "t_uint256"
							},
							{
								"astId": 106,
								"contract": "自己写个矿池,定息矿池.sol:StakeContract",
								"label": "last_totoken_ratio",
								"offset": 0,
								"slot": "2",
								"type": "t_uint256"
							},
							{
								"astId": 108,
								"contract": "自己写个矿池,定息矿池.sol:StakeContract",
								"label": "whole_ratio",
								"offset": 0,
								"slot": "3",
								"type": "t_uint256"
							},
							{
								"astId": 110,
								"contract": "自己写个矿池,定息矿池.sol:StakeContract",
								"label": "last_totoken_Time",
								"offset": 0,
								"slot": "4",
								"type": "t_uint256"
							},
							{
								"astId": 112,
								"contract": "自己写个矿池,定息矿池.sol:StakeContract",
								"label": "Clima_Number",
								"offset": 0,
								"slot": "5",
								"type": "t_uint256"
							}
						],
						"numberOfBytes": "192"
					},
					"t_uint256": {
						"encoding": "inplace",
						"label": "uint256",
						"numberOfBytes": "32"
					}
				}
			},
			"userdoc": {
				"kind": "user",
				"methods": {},
				"version": 1
			}
		}
	}
}