{
	"自己写个矿池,定息矿池.sol": {
		"StakeContract": {
			"abi": [
				{
					"inputs": [
						{
							"internalType": "address",
							"name": "_staketoken",
							"type": "address"
						},
						{
							"internalType": "address",
							"name": "_totoken",
							"type": "address"
						}
					],
					"stateMutability": "nonpayable",
					"type": "constructor"
				},
				{
					"anonymous": false,
					"inputs": [
						{
							"indexed": true,
							"internalType": "address",
							"name": "owner",
							"type": "address"
						},
						{
							"indexed": true,
							"internalType": "address",
							"name": "spender",
							"type": "address"
						},
						{
							"indexed": false,
							"internalType": "uint256",
							"name": "amout",
							"type": "uint256"
						}
					],
					"name": "Approveal",
					"type": "event"
				},
				{
					"anonymous": false,
					"inputs": [
						{
							"indexed": true,
							"internalType": "address",
							"name": "from",
							"type": "address"
						},
						{
							"indexed": true,
							"internalType": "address",
							"name": "to",
							"type": "address"
						},
						{
							"indexed": false,
							"internalType": "uint256",
							"name": "amout",
							"type": "uint256"
						}
					],
					"name": "Trasfer",
					"type": "event"
				},
				{
					"anonymous": false,
					"inputs": [
						{
							"indexed": true,
							"internalType": "address",
							"name": "to",
							"type": "address"
						},
						{
							"indexed": false,
							"internalType": "uint256",
							"name": "amout",
							"type": "uint256"
						}
					],
					"name": "transfer",
					"type": "event"
				},
				{
					"inputs": [
						{
							"internalType": "uint256",
							"name": "_amount",
							"type": "uint256"
						}
					],
					"name": "Stake",
					"outputs": [
						{
							"internalType": "bool",
							"name": "",
							"type": "bool"
						}
					],
					"stateMutability": "nonpayable",
					"type": "function"
				},
				{
					"inputs": [
						{
							"internalType": "address",
							"name": "",
							"type": "address"
						}
					],
					"name": "User_Map",
					"outputs": [
						{
							"internalType": "uint256",
							"name": "stakeNumber",
							"type": "uint256"
						},
						{
							"internalType": "uint256",
							"name": "last_Stake_Time",
							"type": "uint256"
						},
						{
							"internalType": "uint256",
							"name": "last_totoken_ratio",
							"type": "uint256"
						},
						{
							"internalType": "uint256",
							"name": "whole_ratio",
							"type": "uint256"
						},
						{
							"internalType": "uint256",
							"name": "last_totoken_Time",
							"type": "uint256"
						},
						{
							"internalType": "uint256",
							"name": "last_ratio_Number",
							"type": "uint256"
						}
					],
					"stateMutability": "view",
					"type": "function"
				},
				{
					"inputs": [],
					"name": "harvest",
					"outputs": [
						{
							"internalType": "bool",
							"name": "",
							"type": "bool"
						}
					],
					"stateMutability": "nonpayable",
					"type": "function"
				},
				{
					"inputs": [],
					"name": "lastTotokenRatio",
					"outputs": [
						{
							"internalType": "uint256",
							"name": "",
							"type": "uint256"
						}
					],
					"stateMutability": "view",
					"type": "function"
				},
				{
					"inputs": [],
					"name": "newTotokenRatio",
					"outputs": [
						{
							"internalType": "uint256",
							"name": "",
							"type": "uint256"
						}
					],
					"stateMutability": "view",
					"type": "function"
				},
				{
					"inputs": [],
					"name": "owner",
					"outputs": [
						{
							"internalType": "address",
							"name": "",
							"type": "address"
						}
					],
					"stateMutability": "view",
					"type": "function"
				},
				{
					"inputs": [],
					"name": "ratio",
					"outputs": [
						{
							"internalType": "uint256",
							"name": "",
							"type": "uint256"
						}
					],
					"stateMutability": "view",
					"type": "function"
				},
				{
					"inputs": [
						{
							"internalType": "uint256",
							"name": "_ratio",
							"type": "uint256"
						}
					],
					"name": "setRatio",
					"outputs": [],
					"stateMutability": "nonpayable",
					"type": "function"
				},
				{
					"inputs": [],
					"name": "stakeSupple",
					"outputs": [
						{
							"internalType": "uint256",
							"name": "",
							"type": "uint256"
						}
					],
					"stateMutability": "view",
					"type": "function"
				},
				{
					"inputs": [],
					"name": "staketoken",
					"outputs": [
						{
							"internalType": "address",
							"name": "",
							"type": "address"
						}
					],
					"stateMutability": "view",
					"type": "function"
				},
				{
					"inputs": [],
					"name": "totoken",
					"outputs": [
						{
							"internalType": "address",
							"name": "",
							"type": "address"
						}
					],
					"stateMutability": "view",
					"type": "function"
				},
				{
					"inputs": [],
					"name": "withDraw",
					"outputs": [
						{
							"internalType": "bool",
							"name": "",
							"type": "bool"
						}
					],
					"stateMutability": "nonpayable",
					"type": "function"
				}
			],
			"devdoc": {
				"kind": "dev",
				"methods": {},
				"version": 1
			},
			"evm": {
				"assembly": "    /* \"\\xe8\\x87\\xaa\\xe5\\xb7\\xb1\\xe5\\x86\\x99\\xe4\\xb8\\xaa\\xe7\\x9f\\xbf\\xe6\\xb1\\xa0,\\xe5\\xae\\x9a\\xe6\\x81\\xaf\\xe7\\x9f\\xbf\\xe6\\xb1\\xa0.sol\":732:5465  contract StakeContract {... */\n  mstore(0x40, 0x80)\n    /* \"\\xe8\\x87\\xaa\\xe5\\xb7\\xb1\\xe5\\x86\\x99\\xe4\\xb8\\xaa\\xe7\\x9f\\xbf\\xe6\\xb1\\xa0,\\xe5\\xae\\x9a\\xe6\\x81\\xaf\\xe7\\x9f\\xbf\\xe6\\xb1\\xa0.sol\":1416:1754  constructor (address _staketoken, address _totoken) {... */\n  callvalue\n  dup1\n  iszero\n  tag_1\n  jumpi\n  0x00\n  dup1\n  revert\ntag_1:\n  pop\n  mload(0x40)\n  sub(codesize, bytecodeSize)\n  dup1\n  bytecodeSize\n  dup4\n  codecopy\n  dup2\n  add\n  0x40\n  dup2\n  swap1\n  mstore\n  tag_2\n  swap2\n  tag_3\n  jump\t// in\ntag_2:\n    /* \"\\xe8\\x87\\xaa\\xe5\\xb7\\xb1\\xe5\\x86\\x99\\xe4\\xb8\\xaa\\xe7\\x9f\\xbf\\xe6\\xb1\\xa0,\\xe5\\xae\\x9a\\xe6\\x81\\xaf\\xe7\\x9f\\xbf\\xe6\\xb1\\xa0.sol\":1479:1484  owner */\n  0x04\n    /* \"\\xe8\\x87\\xaa\\xe5\\xb7\\xb1\\xe5\\x86\\x99\\xe4\\xb8\\xaa\\xe7\\x9f\\xbf\\xe6\\xb1\\xa0,\\xe5\\xae\\x9a\\xe6\\x81\\xaf\\xe7\\x9f\\xbf\\xe6\\xb1\\xa0.sol\":1479:1497  owner = msg.sender */\n  dup1\n  sload\n  not(sub(shl(0xa0, 0x01), 0x01))\n  and\n    /* \"\\xe8\\x87\\xaa\\xe5\\xb7\\xb1\\xe5\\x86\\x99\\xe4\\xb8\\xaa\\xe7\\x9f\\xbf\\xe6\\xb1\\xa0,\\xe5\\xae\\x9a\\xe6\\x81\\xaf\\xe7\\x9f\\xbf\\xe6\\xb1\\xa0.sol\":1487:1497  msg.sender */\n  caller\n    /* \"\\xe8\\x87\\xaa\\xe5\\xb7\\xb1\\xe5\\x86\\x99\\xe4\\xb8\\xaa\\xe7\\x9f\\xbf\\xe6\\xb1\\xa0,\\xe5\\xae\\x9a\\xe6\\x81\\xaf\\xe7\\x9f\\xbf\\xe6\\xb1\\xa0.sol\":1479:1497  owner = msg.sender */\n  or\n  swap1\n  sstore\n  sub(shl(0xa0, 0x01), 0x01)\n    /* \"\\xe8\\x87\\xaa\\xe5\\xb7\\xb1\\xe5\\x86\\x99\\xe4\\xb8\\xaa\\xe7\\x9f\\xbf\\xe6\\xb1\\xa0,\\xe5\\xae\\x9a\\xe6\\x81\\xaf\\xe7\\x9f\\xbf\\xe6\\xb1\\xa0.sol\":1516:1541  _staketoken != address(0) */\n  dup3\n  and\n    /* \"\\xe8\\x87\\xaa\\xe5\\xb7\\xb1\\xe5\\x86\\x99\\xe4\\xb8\\xaa\\xe7\\x9f\\xbf\\xe6\\xb1\\xa0,\\xe5\\xae\\x9a\\xe6\\x81\\xaf\\xe7\\x9f\\xbf\\xe6\\xb1\\xa0.sol\":1508:1561  require(_staketoken != address(0),\"NOT,S 0X ADDRESS\") */\n  tag_6\n  jumpi\n  mload(0x40)\n  shl(0xe5, 0x461bcd)\n  dup2\n  mstore\n    /* \"#utility.yul\":696:698   */\n  0x20\n    /* \"\\xe8\\x87\\xaa\\xe5\\xb7\\xb1\\xe5\\x86\\x99\\xe4\\xb8\\xaa\\xe7\\x9f\\xbf\\xe6\\xb1\\xa0,\\xe5\\xae\\x9a\\xe6\\x81\\xaf\\xe7\\x9f\\xbf\\xe6\\xb1\\xa0.sol\":1508:1561  require(_staketoken != address(0),\"NOT,S 0X ADDRESS\") */\n  0x04\n  dup3\n  add\n    /* \"#utility.yul\":678:699   */\n  mstore\n    /* \"#utility.yul\":735:737   */\n  0x10\n    /* \"#utility.yul\":715:733   */\n  0x24\n  dup3\n  add\n    /* \"#utility.yul\":708:738   */\n  mstore\n  shl(0x80, 0x4e4f542c532030582041444452455353)\n    /* \"#utility.yul\":754:772   */\n  0x44\n  dup3\n  add\n    /* \"#utility.yul\":747:793   */\n  mstore\n    /* \"#utility.yul\":810:828   */\n  0x64\n  add\n    /* \"\\xe8\\x87\\xaa\\xe5\\xb7\\xb1\\xe5\\x86\\x99\\xe4\\xb8\\xaa\\xe7\\x9f\\xbf\\xe6\\xb1\\xa0,\\xe5\\xae\\x9a\\xe6\\x81\\xaf\\xe7\\x9f\\xbf\\xe6\\xb1\\xa0.sol\":1508:1561  require(_staketoken != address(0),\"NOT,S 0X ADDRESS\") */\ntag_7:\n  mload(0x40)\n  dup1\n  swap2\n  sub\n  swap1\n  revert\ntag_6:\n  sub(shl(0xa0, 0x01), 0x01)\n    /* \"\\xe8\\x87\\xaa\\xe5\\xb7\\xb1\\xe5\\x86\\x99\\xe4\\xb8\\xaa\\xe7\\x9f\\xbf\\xe6\\xb1\\xa0,\\xe5\\xae\\x9a\\xe6\\x81\\xaf\\xe7\\x9f\\xbf\\xe6\\xb1\\xa0.sol\":1580:1602  _totoken != address(0) */\n  dup2\n  and\n    /* \"\\xe8\\x87\\xaa\\xe5\\xb7\\xb1\\xe5\\x86\\x99\\xe4\\xb8\\xaa\\xe7\\x9f\\xbf\\xe6\\xb1\\xa0,\\xe5\\xae\\x9a\\xe6\\x81\\xaf\\xe7\\x9f\\xbf\\xe6\\xb1\\xa0.sol\":1572:1622  require(_totoken != address(0),\"NOT,S 0X ADDRESS\") */\n  tag_9\n  jumpi\n  mload(0x40)\n  shl(0xe5, 0x461bcd)\n  dup2\n  mstore\n    /* \"#utility.yul\":696:698   */\n  0x20\n    /* \"\\xe8\\x87\\xaa\\xe5\\xb7\\xb1\\xe5\\x86\\x99\\xe4\\xb8\\xaa\\xe7\\x9f\\xbf\\xe6\\xb1\\xa0,\\xe5\\xae\\x9a\\xe6\\x81\\xaf\\xe7\\x9f\\xbf\\xe6\\xb1\\xa0.sol\":1572:1622  require(_totoken != address(0),\"NOT,S 0X ADDRESS\") */\n  0x04\n  dup3\n  add\n    /* \"#utility.yul\":678:699   */\n  mstore\n    /* \"#utility.yul\":735:737   */\n  0x10\n    /* \"#utility.yul\":715:733   */\n  0x24\n  dup3\n  add\n    /* \"#utility.yul\":708:738   */\n  mstore\n  shl(0x80, 0x4e4f542c532030582041444452455353)\n    /* \"#utility.yul\":754:772   */\n  0x44\n  dup3\n  add\n    /* \"#utility.yul\":747:793   */\n  mstore\n    /* \"#utility.yul\":810:828   */\n  0x64\n  add\n    /* \"\\xe8\\x87\\xaa\\xe5\\xb7\\xb1\\xe5\\x86\\x99\\xe4\\xb8\\xaa\\xe7\\x9f\\xbf\\xe6\\xb1\\xa0,\\xe5\\xae\\x9a\\xe6\\x81\\xaf\\xe7\\x9f\\xbf\\xe6\\xb1\\xa0.sol\":1572:1622  require(_totoken != address(0),\"NOT,S 0X ADDRESS\") */\n  tag_7\n    /* \"#utility.yul\":494:834   */\n  jump\n    /* \"\\xe8\\x87\\xaa\\xe5\\xb7\\xb1\\xe5\\x86\\x99\\xe4\\xb8\\xaa\\xe7\\x9f\\xbf\\xe6\\xb1\\xa0,\\xe5\\xae\\x9a\\xe6\\x81\\xaf\\xe7\\x9f\\xbf\\xe6\\xb1\\xa0.sol\":1572:1622  require(_totoken != address(0),\"NOT,S 0X ADDRESS\") */\ntag_9:\n    /* \"\\xe8\\x87\\xaa\\xe5\\xb7\\xb1\\xe5\\x86\\x99\\xe4\\xb8\\xaa\\xe7\\x9f\\xbf\\xe6\\xb1\\xa0,\\xe5\\xae\\x9a\\xe6\\x81\\xaf\\xe7\\x9f\\xbf\\xe6\\xb1\\xa0.sol\":1656:1664  _totoken */\n  dup1\n  sub(shl(0xa0, 0x01), 0x01)\n    /* \"\\xe8\\x87\\xaa\\xe5\\xb7\\xb1\\xe5\\x86\\x99\\xe4\\xb8\\xaa\\xe7\\x9f\\xbf\\xe6\\xb1\\xa0,\\xe5\\xae\\x9a\\xe6\\x81\\xaf\\xe7\\x9f\\xbf\\xe6\\xb1\\xa0.sol\":1641:1664  _staketoken == _totoken */\n  and\n    /* \"\\xe8\\x87\\xaa\\xe5\\xb7\\xb1\\xe5\\x86\\x99\\xe4\\xb8\\xaa\\xe7\\x9f\\xbf\\xe6\\xb1\\xa0,\\xe5\\xae\\x9a\\xe6\\x81\\xaf\\xe7\\x9f\\xbf\\xe6\\xb1\\xa0.sol\":1641:1652  _staketoken */\n  dup3\n  sub(shl(0xa0, 0x01), 0x01)\n    /* \"\\xe8\\x87\\xaa\\xe5\\xb7\\xb1\\xe5\\x86\\x99\\xe4\\xb8\\xaa\\xe7\\x9f\\xbf\\xe6\\xb1\\xa0,\\xe5\\xae\\x9a\\xe6\\x81\\xaf\\xe7\\x9f\\xbf\\xe6\\xb1\\xa0.sol\":1641:1664  _staketoken == _totoken */\n  and\n  eq\n    /* \"\\xe8\\x87\\xaa\\xe5\\xb7\\xb1\\xe5\\x86\\x99\\xe4\\xb8\\xaa\\xe7\\x9f\\xbf\\xe6\\xb1\\xa0,\\xe5\\xae\\x9a\\xe6\\x81\\xaf\\xe7\\x9f\\xbf\\xe6\\xb1\\xa0.sol\":1633:1682  require(_staketoken == _totoken,\"NEED agreement\") */\n  tag_11\n  jumpi\n  mload(0x40)\n  shl(0xe5, 0x461bcd)\n  dup2\n  mstore\n    /* \"#utility.yul\":1041:1043   */\n  0x20\n    /* \"\\xe8\\x87\\xaa\\xe5\\xb7\\xb1\\xe5\\x86\\x99\\xe4\\xb8\\xaa\\xe7\\x9f\\xbf\\xe6\\xb1\\xa0,\\xe5\\xae\\x9a\\xe6\\x81\\xaf\\xe7\\x9f\\xbf\\xe6\\xb1\\xa0.sol\":1633:1682  require(_staketoken == _totoken,\"NEED agreement\") */\n  0x04\n  dup3\n  add\n    /* \"#utility.yul\":1023:1044   */\n  mstore\n    /* \"#utility.yul\":1080:1082   */\n  0x0e\n    /* \"#utility.yul\":1060:1078   */\n  0x24\n  dup3\n  add\n    /* \"#utility.yul\":1053:1083   */\n  mstore\n  shl(0x92, 0x13915151081859dc99595b595b9d)\n    /* \"#utility.yul\":1099:1117   */\n  0x44\n  dup3\n  add\n    /* \"#utility.yul\":1092:1136   */\n  mstore\n    /* \"#utility.yul\":1153:1171   */\n  0x64\n  add\n    /* \"\\xe8\\x87\\xaa\\xe5\\xb7\\xb1\\xe5\\x86\\x99\\xe4\\xb8\\xaa\\xe7\\x9f\\xbf\\xe6\\xb1\\xa0,\\xe5\\xae\\x9a\\xe6\\x81\\xaf\\xe7\\x9f\\xbf\\xe6\\xb1\\xa0.sol\":1633:1682  require(_staketoken == _totoken,\"NEED agreement\") */\n  tag_7\n    /* \"#utility.yul\":839:1177   */\n  jump\n    /* \"\\xe8\\x87\\xaa\\xe5\\xb7\\xb1\\xe5\\x86\\x99\\xe4\\xb8\\xaa\\xe7\\x9f\\xbf\\xe6\\xb1\\xa0,\\xe5\\xae\\x9a\\xe6\\x81\\xaf\\xe7\\x9f\\xbf\\xe6\\xb1\\xa0.sol\":1633:1682  require(_staketoken == _totoken,\"NEED agreement\") */\ntag_11:\n    /* \"\\xe8\\x87\\xaa\\xe5\\xb7\\xb1\\xe5\\x86\\x99\\xe4\\xb8\\xaa\\xe7\\x9f\\xbf\\xe6\\xb1\\xa0,\\xe5\\xae\\x9a\\xe6\\x81\\xaf\\xe7\\x9f\\xbf\\xe6\\xb1\\xa0.sol\":1693:1703  staketoken */\n  0x01\n    /* \"\\xe8\\x87\\xaa\\xe5\\xb7\\xb1\\xe5\\x86\\x99\\xe4\\xb8\\xaa\\xe7\\x9f\\xbf\\xe6\\xb1\\xa0,\\xe5\\xae\\x9a\\xe6\\x81\\xaf\\xe7\\x9f\\xbf\\xe6\\xb1\\xa0.sol\":1693:1717  staketoken = _staketoken */\n  dup1\n  sload\n  sub(shl(0xa0, 0x01), 0x01)\n  swap4\n  dup5\n  and\n  not(sub(shl(0xa0, 0x01), 0x01))\n  swap2\n  dup3\n  and\n  or\n  swap1\n  swap2\n  sstore\n    /* \"\\xe8\\x87\\xaa\\xe5\\xb7\\xb1\\xe5\\x86\\x99\\xe4\\xb8\\xaa\\xe7\\x9f\\xbf\\xe6\\xb1\\xa0,\\xe5\\xae\\x9a\\xe6\\x81\\xaf\\xe7\\x9f\\xbf\\xe6\\xb1\\xa0.sol\":1728:1735  totoken */\n  0x02\n    /* \"\\xe8\\x87\\xaa\\xe5\\xb7\\xb1\\xe5\\x86\\x99\\xe4\\xb8\\xaa\\xe7\\x9f\\xbf\\xe6\\xb1\\xa0,\\xe5\\xae\\x9a\\xe6\\x81\\xaf\\xe7\\x9f\\xbf\\xe6\\xb1\\xa0.sol\":1728:1746  totoken = _totoken */\n  dup1\n  sload\n  swap3\n  swap1\n  swap4\n  and\n  swap2\n  and\n  or\n  swap1\n  sstore\n    /* \"\\xe8\\x87\\xaa\\xe5\\xb7\\xb1\\xe5\\x86\\x99\\xe4\\xb8\\xaa\\xe7\\x9f\\xbf\\xe6\\xb1\\xa0,\\xe5\\xae\\x9a\\xe6\\x81\\xaf\\xe7\\x9f\\xbf\\xe6\\xb1\\xa0.sol\":732:5465  contract StakeContract {... */\n  jump(tag_16)\n    /* \"#utility.yul\":14:191   */\ntag_15:\n    /* \"#utility.yul\":93:106   */\n  dup1\n  mload\n  sub(shl(0xa0, 0x01), 0x01)\n    /* \"#utility.yul\":135:166   */\n  dup2\n  and\n    /* \"#utility.yul\":125:167   */\n  dup2\n  eq\n    /* \"#utility.yul\":115:185   */\n  tag_18\n  jumpi\n    /* \"#utility.yul\":181:182   */\n  0x00\n    /* \"#utility.yul\":178:179   */\n  dup1\n    /* \"#utility.yul\":171:183   */\n  revert\n    /* \"#utility.yul\":115:185   */\ntag_18:\n    /* \"#utility.yul\":14:191   */\n  swap2\n  swap1\n  pop\n  jump\t// out\n    /* \"#utility.yul\":196:489   */\ntag_3:\n    /* \"#utility.yul\":275:281   */\n  0x00\n    /* \"#utility.yul\":283:289   */\n  dup1\n    /* \"#utility.yul\":336:338   */\n  0x40\n    /* \"#utility.yul\":324:333   */\n  dup4\n    /* \"#utility.yul\":315:322   */\n  dup6\n    /* \"#utility.yul\":311:334   */\n  sub\n    /* \"#utility.yul\":307:339   */\n  slt\n    /* \"#utility.yul\":304:356   */\n  iszero\n  tag_20\n  jumpi\n    /* \"#utility.yul\":352:353   */\n  0x00\n    /* \"#utility.yul\":349:350   */\n  dup1\n    /* \"#utility.yul\":342:354   */\n  revert\n    /* \"#utility.yul\":304:356   */\ntag_20:\n    /* \"#utility.yul\":375:415   */\n  tag_21\n    /* \"#utility.yul\":405:414   */\n  dup4\n    /* \"#utility.yul\":375:415   */\n  tag_15\n  jump\t// in\ntag_21:\n    /* \"#utility.yul\":365:415   */\n  swap2\n  pop\n    /* \"#utility.yul\":434:483   */\n  tag_22\n    /* \"#utility.yul\":479:481   */\n  0x20\n    /* \"#utility.yul\":468:477   */\n  dup5\n    /* \"#utility.yul\":464:482   */\n  add\n    /* \"#utility.yul\":434:483   */\n  tag_15\n  jump\t// in\ntag_22:\n    /* \"#utility.yul\":424:483   */\n  swap1\n  pop\n    /* \"#utility.yul\":196:489   */\n  swap3\n  pop\n  swap3\n  swap1\n  pop\n  jump\t// out\n    /* \"#utility.yul\":839:1177   */\ntag_16:\n    /* \"\\xe8\\x87\\xaa\\xe5\\xb7\\xb1\\xe5\\x86\\x99\\xe4\\xb8\\xaa\\xe7\\x9f\\xbf\\xe6\\xb1\\xa0,\\xe5\\xae\\x9a\\xe6\\x81\\xaf\\xe7\\x9f\\xbf\\xe6\\xb1\\xa0.sol\":732:5465  contract StakeContract {... */\n  dataSize(sub_0)\n  dup1\n  dataOffset(sub_0)\n  0x00\n  codecopy\n  0x00\n  return\nstop\n\nsub_0: assembly {\n        /* \"\\xe8\\x87\\xaa\\xe5\\xb7\\xb1\\xe5\\x86\\x99\\xe4\\xb8\\xaa\\xe7\\x9f\\xbf\\xe6\\xb1\\xa0,\\xe5\\xae\\x9a\\xe6\\x81\\xaf\\xe7\\x9f\\xbf\\xe6\\xb1\\xa0.sol\":732:5465  contract StakeContract {... */\n      mstore(0x40, 0x80)\n      callvalue\n      dup1\n      iszero\n      tag_1\n      jumpi\n      0x00\n      dup1\n      revert\n    tag_1:\n      pop\n      jumpi(tag_2, lt(calldatasize, 0x04))\n      shr(0xe0, calldataload(0x00))\n      dup1\n      0x71ca337d\n      gt\n      tag_15\n      jumpi\n      dup1\n      0x71ca337d\n      eq\n      tag_9\n      jumpi\n      dup1\n      0x8c93ecff\n      eq\n      tag_10\n      jumpi\n      dup1\n      0x8da5cb5b\n      eq\n      tag_11\n      jumpi\n      dup1\n      0xb2237ba3\n      eq\n      tag_12\n      jumpi\n      dup1\n      0xd942727f\n      eq\n      tag_13\n      jumpi\n      dup1\n      0xdab2997b\n      eq\n      tag_14\n      jumpi\n      0x00\n      dup1\n      revert\n    tag_15:\n      dup1\n      0x0fdb1c10\n      eq\n      tag_3\n      jumpi\n      dup1\n      0x227a473b\n      eq\n      tag_4\n      jumpi\n      dup1\n      0x2c46502d\n      eq\n      tag_5\n      jumpi\n      dup1\n      0x4641257d\n      eq\n      tag_6\n      jumpi\n      dup1\n      0x529aca49\n      eq\n      tag_7\n      jumpi\n      dup1\n      0x5e9f4435\n      eq\n      tag_8\n      jumpi\n    tag_2:\n      0x00\n      dup1\n      revert\n        /* \"\\xe8\\x87\\xaa\\xe5\\xb7\\xb1\\xe5\\x86\\x99\\xe4\\xb8\\xaa\\xe7\\x9f\\xbf\\xe6\\xb1\\xa0,\\xe5\\xae\\x9a\\xe6\\x81\\xaf\\xe7\\x9f\\xbf\\xe6\\xb1\\xa0.sol\":2717:3068  function withDraw () public returns (bool) {... */\n    tag_3:\n      tag_16\n      tag_17\n      jump\t// in\n    tag_16:\n      mload(0x40)\n        /* \"#utility.yul\":179:193   */\n      swap1\n      iszero\n        /* \"#utility.yul\":172:194   */\n      iszero\n        /* \"#utility.yul\":154:195   */\n      dup2\n      mstore\n        /* \"#utility.yul\":142:144   */\n      0x20\n        /* \"#utility.yul\":127:145   */\n      add\n        /* \"\\xe8\\x87\\xaa\\xe5\\xb7\\xb1\\xe5\\x86\\x99\\xe4\\xb8\\xaa\\xe7\\x9f\\xbf\\xe6\\xb1\\xa0,\\xe5\\xae\\x9a\\xe6\\x81\\xaf\\xe7\\x9f\\xbf\\xe6\\xb1\\xa0.sol\":2717:3068  function withDraw () public returns (bool) {... */\n    tag_18:\n      mload(0x40)\n      dup1\n      swap2\n      sub\n      swap1\n      return\n        /* \"\\xe8\\x87\\xaa\\xe5\\xb7\\xb1\\xe5\\x86\\x99\\xe4\\xb8\\xaa\\xe7\\x9f\\xbf\\xe6\\xb1\\xa0,\\xe5\\xae\\x9a\\xe6\\x81\\xaf\\xe7\\x9f\\xbf\\xe6\\xb1\\xa0.sol\":2067:2709  function Stake(uint _amount) public returns (bool){... */\n    tag_4:\n      tag_16\n      tag_21\n      calldatasize\n      0x04\n      tag_22\n      jump\t// in\n    tag_21:\n      tag_23\n      jump\t// in\n        /* \"\\xe8\\x87\\xaa\\xe5\\xb7\\xb1\\xe5\\x86\\x99\\xe4\\xb8\\xaa\\xe7\\x9f\\xbf\\xe6\\xb1\\xa0,\\xe5\\xae\\x9a\\xe6\\x81\\xaf\\xe7\\x9f\\xbf\\xe6\\xb1\\xa0.sol\":849:871  address public totoken */\n    tag_5:\n      sload(0x02)\n      tag_25\n      swap1\n      sub(shl(0xa0, 0x01), 0x01)\n      and\n      dup2\n      jump\n    tag_25:\n      mload(0x40)\n      sub(shl(0xa0, 0x01), 0x01)\n        /* \"#utility.yul\":555:587   */\n      swap1\n      swap2\n      and\n        /* \"#utility.yul\":537:588   */\n      dup2\n      mstore\n        /* \"#utility.yul\":525:527   */\n      0x20\n        /* \"#utility.yul\":510:528   */\n      add\n        /* \"\\xe8\\x87\\xaa\\xe5\\xb7\\xb1\\xe5\\x86\\x99\\xe4\\xb8\\xaa\\xe7\\x9f\\xbf\\xe6\\xb1\\xa0,\\xe5\\xae\\x9a\\xe6\\x81\\xaf\\xe7\\x9f\\xbf\\xe6\\xb1\\xa0.sol\":849:871  address public totoken */\n      tag_18\n        /* \"#utility.yul\":391:594   */\n      jump\n        /* \"\\xe8\\x87\\xaa\\xe5\\xb7\\xb1\\xe5\\x86\\x99\\xe4\\xb8\\xaa\\xe7\\x9f\\xbf\\xe6\\xb1\\xa0,\\xe5\\xae\\x9a\\xe6\\x81\\xaf\\xe7\\x9f\\xbf\\xe6\\xb1\\xa0.sol\":3076:3782  function harvest() public returns (bool) {... */\n    tag_6:\n      tag_16\n      tag_30\n      jump\t// in\n        /* \"\\xe8\\x87\\xaa\\xe5\\xb7\\xb1\\xe5\\x86\\x99\\xe4\\xb8\\xaa\\xe7\\x9f\\xbf\\xe6\\xb1\\xa0,\\xe5\\xae\\x9a\\xe6\\x81\\xaf\\xe7\\x9f\\xbf\\xe6\\xb1\\xa0.sol\":4136:4423  function newTotokenRatio() public view returns (uint) {... */\n    tag_7:\n      tag_32\n      tag_33\n      jump\t// in\n    tag_32:\n      mload(0x40)\n        /* \"#utility.yul\":745:770   */\n      swap1\n      dup2\n      mstore\n        /* \"#utility.yul\":733:735   */\n      0x20\n        /* \"#utility.yul\":718:736   */\n      add\n        /* \"\\xe8\\x87\\xaa\\xe5\\xb7\\xb1\\xe5\\x86\\x99\\xe4\\xb8\\xaa\\xe7\\x9f\\xbf\\xe6\\xb1\\xa0,\\xe5\\xae\\x9a\\xe6\\x81\\xaf\\xe7\\x9f\\xbf\\xe6\\xb1\\xa0.sol\":4136:4423  function newTotokenRatio() public view returns (uint) {... */\n      tag_18\n        /* \"#utility.yul\":599:776   */\n      jump\n        /* \"\\xe8\\x87\\xaa\\xe5\\xb7\\xb1\\xe5\\x86\\x99\\xe4\\xb8\\xaa\\xe7\\x9f\\xbf\\xe6\\xb1\\xa0,\\xe5\\xae\\x9a\\xe6\\x81\\xaf\\xe7\\x9f\\xbf\\xe6\\xb1\\xa0.sol\":4431:4602  function lastTotokenRatio()public view returns(uint) {... */\n    tag_8:\n        /* \"\\xe8\\x87\\xaa\\xe5\\xb7\\xb1\\xe5\\x86\\x99\\xe4\\xb8\\xaa\\xe7\\x9f\\xbf\\xe6\\xb1\\xa0,\\xe5\\xae\\x9a\\xe6\\x81\\xaf\\xe7\\x9f\\xbf\\xe6\\xb1\\xa0.sol\":4529:4539  msg.sender */\n      caller\n        /* \"\\xe8\\x87\\xaa\\xe5\\xb7\\xb1\\xe5\\x86\\x99\\xe4\\xb8\\xaa\\xe7\\x9f\\xbf\\xe6\\xb1\\xa0,\\xe5\\xae\\x9a\\xe6\\x81\\xaf\\xe7\\x9f\\xbf\\xe6\\xb1\\xa0.sol\":4478:4482  uint */\n      0x00\n        /* \"\\xe8\\x87\\xaa\\xe5\\xb7\\xb1\\xe5\\x86\\x99\\xe4\\xb8\\xaa\\xe7\\x9f\\xbf\\xe6\\xb1\\xa0,\\xe5\\xae\\x9a\\xe6\\x81\\xaf\\xe7\\x9f\\xbf\\xe6\\xb1\\xa0.sol\":4520:4540  User_Map[msg.sender] */\n      swap1\n      dup2\n      mstore\n        /* \"\\xe8\\x87\\xaa\\xe5\\xb7\\xb1\\xe5\\x86\\x99\\xe4\\xb8\\xaa\\xe7\\x9f\\xbf\\xe6\\xb1\\xa0,\\xe5\\xae\\x9a\\xe6\\x81\\xaf\\xe7\\x9f\\xbf\\xe6\\xb1\\xa0.sol\":4520:4528  User_Map */\n      0x05\n        /* \"\\xe8\\x87\\xaa\\xe5\\xb7\\xb1\\xe5\\x86\\x99\\xe4\\xb8\\xaa\\xe7\\x9f\\xbf\\xe6\\xb1\\xa0,\\xe5\\xae\\x9a\\xe6\\x81\\xaf\\xe7\\x9f\\xbf\\xe6\\xb1\\xa0.sol\":4520:4540  User_Map[msg.sender] */\n      0x20\n      mstore\n      0x40\n      swap1\n      keccak256\n        /* \"\\xe8\\x87\\xaa\\xe5\\xb7\\xb1\\xe5\\x86\\x99\\xe4\\xb8\\xaa\\xe7\\x9f\\xbf\\xe6\\xb1\\xa0,\\xe5\\xae\\x9a\\xe6\\x81\\xaf\\xe7\\x9f\\xbf\\xe6\\xb1\\xa0.sol\":4520:4559  User_Map[msg.sender].last_totoken_ratio */\n      0x02\n      add\n      sload\n        /* \"\\xe8\\x87\\xaa\\xe5\\xb7\\xb1\\xe5\\x86\\x99\\xe4\\xb8\\xaa\\xe7\\x9f\\xbf\\xe6\\xb1\\xa0,\\xe5\\xae\\x9a\\xe6\\x81\\xaf\\xe7\\x9f\\xbf\\xe6\\xb1\\xa0.sol\":4431:4602  function lastTotokenRatio()public view returns(uint) {... */\n      jump(tag_32)\n        /* \"\\xe8\\x87\\xaa\\xe5\\xb7\\xb1\\xe5\\x86\\x99\\xe4\\xb8\\xaa\\xe7\\x9f\\xbf\\xe6\\xb1\\xa0,\\xe5\\xae\\x9a\\xe6\\x81\\xaf\\xe7\\x9f\\xbf\\xe6\\xb1\\xa0.sol\":793:810  uint public ratio */\n    tag_9:\n      tag_32\n      sload(0x00)\n      dup2\n      jump\n        /* \"\\xe8\\x87\\xaa\\xe5\\xb7\\xb1\\xe5\\x86\\x99\\xe4\\xb8\\xaa\\xe7\\x9f\\xbf\\xe6\\xb1\\xa0,\\xe5\\xae\\x9a\\xe6\\x81\\xaf\\xe7\\x9f\\xbf\\xe6\\xb1\\xa0.sol\":1367:1407  mapping(address => User) public User_Map */\n    tag_10:\n      tag_42\n      tag_43\n      calldatasize\n      0x04\n      tag_44\n      jump\t// in\n    tag_43:\n      0x05\n      0x20\n      dup2\n      swap1\n      mstore\n      0x00\n      swap2\n      dup3\n      mstore\n      0x40\n      swap1\n      swap2\n      keccak256\n      dup1\n      sload\n      0x01\n      dup3\n      add\n      sload\n      0x02\n      dup4\n      add\n      sload\n      0x03\n      dup5\n      add\n      sload\n      0x04\n      dup6\n      add\n      sload\n      swap5\n      swap1\n      swap6\n      add\n      sload\n      swap3\n      swap5\n      swap2\n      swap4\n      swap1\n      swap3\n      dup7\n      jump\n    tag_42:\n      0x40\n      dup1\n      mload\n        /* \"#utility.yul\":1359:1384   */\n      swap7\n      dup8\n      mstore\n        /* \"#utility.yul\":1415:1417   */\n      0x20\n        /* \"#utility.yul\":1400:1418   */\n      dup8\n      add\n        /* \"#utility.yul\":1393:1427   */\n      swap6\n      swap1\n      swap6\n      mstore\n        /* \"#utility.yul\":1443:1461   */\n      swap4\n      dup6\n      add\n        /* \"#utility.yul\":1436:1470   */\n      swap3\n      swap1\n      swap3\n      mstore\n        /* \"#utility.yul\":1501:1503   */\n      0x60\n        /* \"#utility.yul\":1486:1504   */\n      dup5\n      add\n        /* \"#utility.yul\":1479:1513   */\n      mstore\n        /* \"#utility.yul\":1544:1547   */\n      0x80\n        /* \"#utility.yul\":1529:1548   */\n      dup4\n      add\n        /* \"#utility.yul\":1522:1557   */\n      mstore\n        /* \"#utility.yul\":1588:1591   */\n      0xa0\n        /* \"#utility.yul\":1573:1592   */\n      dup3\n      add\n        /* \"#utility.yul\":1566:1601   */\n      mstore\n        /* \"#utility.yul\":1346:1349   */\n      0xc0\n        /* \"#utility.yul\":1331:1350   */\n      add\n        /* \"\\xe8\\x87\\xaa\\xe5\\xb7\\xb1\\xe5\\x86\\x99\\xe4\\xb8\\xaa\\xe7\\x9f\\xbf\\xe6\\xb1\\xa0,\\xe5\\xae\\x9a\\xe6\\x81\\xaf\\xe7\\x9f\\xbf\\xe6\\xb1\\xa0.sol\":1367:1407  mapping(address => User) public User_Map */\n      tag_18\n        /* \"#utility.yul\":1072:1607   */\n      jump\n        /* \"\\xe8\\x87\\xaa\\xe5\\xb7\\xb1\\xe5\\x86\\x99\\xe4\\xb8\\xaa\\xe7\\x9f\\xbf\\xe6\\xb1\\xa0,\\xe5\\xae\\x9a\\xe6\\x81\\xaf\\xe7\\x9f\\xbf\\xe6\\xb1\\xa0.sol\":908:928  address public owner */\n    tag_11:\n      sload(0x04)\n      tag_25\n      swap1\n      sub(shl(0xa0, 0x01), 0x01)\n      and\n      dup2\n      jump\n        /* \"\\xe8\\x87\\xaa\\xe5\\xb7\\xb1\\xe5\\x86\\x99\\xe4\\xb8\\xaa\\xe7\\x9f\\xbf\\xe6\\xb1\\xa0,\\xe5\\xae\\x9a\\xe6\\x81\\xaf\\xe7\\x9f\\xbf\\xe6\\xb1\\xa0.sol\":1967:2059  function setRatio(uint _ratio) external onlyOwner {    ... */\n    tag_12:\n      tag_51\n      tag_52\n      calldatasize\n      0x04\n      tag_22\n      jump\t// in\n    tag_52:\n      tag_53\n      jump\t// in\n    tag_51:\n      stop\n        /* \"\\xe8\\x87\\xaa\\xe5\\xb7\\xb1\\xe5\\x86\\x99\\xe4\\xb8\\xaa\\xe7\\x9f\\xbf\\xe6\\xb1\\xa0,\\xe5\\xae\\x9a\\xe6\\x81\\xaf\\xe7\\x9f\\xbf\\xe6\\xb1\\xa0.sol\":878:901  uint public stakeSupple */\n    tag_13:\n      tag_32\n      sload(0x03)\n      dup2\n      jump\n        /* \"\\xe8\\x87\\xaa\\xe5\\xb7\\xb1\\xe5\\x86\\x99\\xe4\\xb8\\xaa\\xe7\\x9f\\xbf\\xe6\\xb1\\xa0,\\xe5\\xae\\x9a\\xe6\\x81\\xaf\\xe7\\x9f\\xbf\\xe6\\xb1\\xa0.sol\":817:842  address public staketoken */\n    tag_14:\n      sload(0x01)\n      tag_25\n      swap1\n      sub(shl(0xa0, 0x01), 0x01)\n      and\n      dup2\n      jump\n        /* \"\\xe8\\x87\\xaa\\xe5\\xb7\\xb1\\xe5\\x86\\x99\\xe4\\xb8\\xaa\\xe7\\x9f\\xbf\\xe6\\xb1\\xa0,\\xe5\\xae\\x9a\\xe6\\x81\\xaf\\xe7\\x9f\\xbf\\xe6\\xb1\\xa0.sol\":2717:3068  function withDraw () public returns (bool) {... */\n    tag_17:\n        /* \"\\xe8\\x87\\xaa\\xe5\\xb7\\xb1\\xe5\\x86\\x99\\xe4\\xb8\\xaa\\xe7\\x9f\\xbf\\xe6\\xb1\\xa0,\\xe5\\xae\\x9a\\xe6\\x81\\xaf\\xe7\\x9f\\xbf\\xe6\\xb1\\xa0.sol\":2778:2788  staketoken */\n      sload(0x01)\n        /* \"\\xe8\\x87\\xaa\\xe5\\xb7\\xb1\\xe5\\x86\\x99\\xe4\\xb8\\xaa\\xe7\\x9f\\xbf\\xe6\\xb1\\xa0,\\xe5\\xae\\x9a\\xe6\\x81\\xaf\\xe7\\x9f\\xbf\\xe6\\xb1\\xa0.sol\":2799:2809  msg.sender */\n      caller\n        /* \"\\xe8\\x87\\xaa\\xe5\\xb7\\xb1\\xe5\\x86\\x99\\xe4\\xb8\\xaa\\xe7\\x9f\\xbf\\xe6\\xb1\\xa0,\\xe5\\xae\\x9a\\xe6\\x81\\xaf\\xe7\\x9f\\xbf\\xe6\\xb1\\xa0.sol\":2754:2758  bool */\n      0x00\n        /* \"\\xe8\\x87\\xaa\\xe5\\xb7\\xb1\\xe5\\x86\\x99\\xe4\\xb8\\xaa\\xe7\\x9f\\xbf\\xe6\\xb1\\xa0,\\xe5\\xae\\x9a\\xe6\\x81\\xaf\\xe7\\x9f\\xbf\\xe6\\xb1\\xa0.sol\":2811:2831  User_Map[msg.sender] */\n      dup2\n      dup2\n      mstore\n        /* \"\\xe8\\x87\\xaa\\xe5\\xb7\\xb1\\xe5\\x86\\x99\\xe4\\xb8\\xaa\\xe7\\x9f\\xbf\\xe6\\xb1\\xa0,\\xe5\\xae\\x9a\\xe6\\x81\\xaf\\xe7\\x9f\\xbf\\xe6\\xb1\\xa0.sol\":2811:2819  User_Map */\n      0x05\n        /* \"\\xe8\\x87\\xaa\\xe5\\xb7\\xb1\\xe5\\x86\\x99\\xe4\\xb8\\xaa\\xe7\\x9f\\xbf\\xe6\\xb1\\xa0,\\xe5\\xae\\x9a\\xe6\\x81\\xaf\\xe7\\x9f\\xbf\\xe6\\xb1\\xa0.sol\":2811:2831  User_Map[msg.sender] */\n      0x20\n      mstore\n      0x40\n      dup1\n      dup3\n      keccak256\n        /* \"\\xe8\\x87\\xaa\\xe5\\xb7\\xb1\\xe5\\x86\\x99\\xe4\\xb8\\xaa\\xe7\\x9f\\xbf\\xe6\\xb1\\xa0,\\xe5\\xae\\x9a\\xe6\\x81\\xaf\\xe7\\x9f\\xbf\\xe6\\xb1\\xa0.sol\":2811:2843  User_Map[msg.sender].stakeNumber */\n      sload\n        /* \"\\xe8\\x87\\xaa\\xe5\\xb7\\xb1\\xe5\\x86\\x99\\xe4\\xb8\\xaa\\xe7\\x9f\\xbf\\xe6\\xb1\\xa0,\\xe5\\xae\\x9a\\xe6\\x81\\xaf\\xe7\\x9f\\xbf\\xe6\\xb1\\xa0.sol\":2771:2844  IERC20(staketoken).transfer(msg.sender, User_Map[msg.sender].stakeNumber) */\n      swap1\n      mload\n      shl(0xe0, 0xa9059cbb)\n      dup2\n      mstore\n      0x04\n      dup2\n      add\n        /* \"#utility.yul\":1786:1837   */\n      swap4\n      swap1\n      swap4\n      mstore\n        /* \"#utility.yul\":1853:1871   */\n      0x24\n      dup4\n      add\n        /* \"#utility.yul\":1846:1880   */\n      mstore\n        /* \"\\xe8\\x87\\xaa\\xe5\\xb7\\xb1\\xe5\\x86\\x99\\xe4\\xb8\\xaa\\xe7\\x9f\\xbf\\xe6\\xb1\\xa0,\\xe5\\xae\\x9a\\xe6\\x81\\xaf\\xe7\\x9f\\xbf\\xe6\\xb1\\xa0.sol\":2754:2758  bool */\n      swap2\n      sub(shl(0xa0, 0x01), 0x01)\n        /* \"\\xe8\\x87\\xaa\\xe5\\xb7\\xb1\\xe5\\x86\\x99\\xe4\\xb8\\xaa\\xe7\\x9f\\xbf\\xe6\\xb1\\xa0,\\xe5\\xae\\x9a\\xe6\\x81\\xaf\\xe7\\x9f\\xbf\\xe6\\xb1\\xa0.sol\":2778:2788  staketoken */\n      and\n      swap1\n        /* \"\\xe8\\x87\\xaa\\xe5\\xb7\\xb1\\xe5\\x86\\x99\\xe4\\xb8\\xaa\\xe7\\x9f\\xbf\\xe6\\xb1\\xa0,\\xe5\\xae\\x9a\\xe6\\x81\\xaf\\xe7\\x9f\\xbf\\xe6\\xb1\\xa0.sol\":2771:2798  IERC20(staketoken).transfer */\n      0xa9059cbb\n      swap1\n        /* \"#utility.yul\":1759:1777   */\n      0x44\n      add\n        /* \"\\xe8\\x87\\xaa\\xe5\\xb7\\xb1\\xe5\\x86\\x99\\xe4\\xb8\\xaa\\xe7\\x9f\\xbf\\xe6\\xb1\\xa0,\\xe5\\xae\\x9a\\xe6\\x81\\xaf\\xe7\\x9f\\xbf\\xe6\\xb1\\xa0.sol\":2771:2844  IERC20(staketoken).transfer(msg.sender, User_Map[msg.sender].stakeNumber) */\n      0x20\n      mload(0x40)\n      dup1\n      dup4\n      sub\n      dup2\n      0x00\n      dup8\n      gas\n      call\n      iszero\n      dup1\n      iszero\n      tag_64\n      jumpi\n      returndatasize\n      0x00\n      dup1\n      returndatacopy\n      revert(0x00, returndatasize)\n    tag_64:\n      pop\n      pop\n      pop\n      pop\n      mload(0x40)\n      returndatasize\n      not(0x1f)\n      0x1f\n      dup3\n      add\n      and\n      dup3\n      add\n      dup1\n      0x40\n      mstore\n      pop\n      dup2\n      add\n      swap1\n      tag_65\n      swap2\n      swap1\n      tag_66\n      jump\t// in\n    tag_65:\n      pop\n        /* \"\\xe8\\x87\\xaa\\xe5\\xb7\\xb1\\xe5\\x86\\x99\\xe4\\xb8\\xaa\\xe7\\x9f\\xbf\\xe6\\xb1\\xa0,\\xe5\\xae\\x9a\\xe6\\x81\\xaf\\xe7\\x9f\\xbf\\xe6\\xb1\\xa0.sol\":2872:2882  msg.sender */\n      caller\n        /* \"\\xe8\\x87\\xaa\\xe5\\xb7\\xb1\\xe5\\x86\\x99\\xe4\\xb8\\xaa\\xe7\\x9f\\xbf\\xe6\\xb1\\xa0,\\xe5\\xae\\x9a\\xe6\\x81\\xaf\\xe7\\x9f\\xbf\\xe6\\xb1\\xa0.sol\":2884:2904  User_Map[msg.sender] */\n      0x00\n      dup2\n      dup2\n      mstore\n        /* \"\\xe8\\x87\\xaa\\xe5\\xb7\\xb1\\xe5\\x86\\x99\\xe4\\xb8\\xaa\\xe7\\x9f\\xbf\\xe6\\xb1\\xa0,\\xe5\\xae\\x9a\\xe6\\x81\\xaf\\xe7\\x9f\\xbf\\xe6\\xb1\\xa0.sol\":2884:2892  User_Map */\n      0x05\n        /* \"\\xe8\\x87\\xaa\\xe5\\xb7\\xb1\\xe5\\x86\\x99\\xe4\\xb8\\xaa\\xe7\\x9f\\xbf\\xe6\\xb1\\xa0,\\xe5\\xae\\x9a\\xe6\\x81\\xaf\\xe7\\x9f\\xbf\\xe6\\xb1\\xa0.sol\":2884:2904  User_Map[msg.sender] */\n      0x20\n      swap1\n      dup2\n      mstore\n      0x40\n      swap2\n      dup3\n      swap1\n      keccak256\n        /* \"\\xe8\\x87\\xaa\\xe5\\xb7\\xb1\\xe5\\x86\\x99\\xe4\\xb8\\xaa\\xe7\\x9f\\xbf\\xe6\\xb1\\xa0,\\xe5\\xae\\x9a\\xe6\\x81\\xaf\\xe7\\x9f\\xbf\\xe6\\xb1\\xa0.sol\":2884:2916  User_Map[msg.sender].stakeNumber */\n      sload\n        /* \"\\xe8\\x87\\xaa\\xe5\\xb7\\xb1\\xe5\\x86\\x99\\xe4\\xb8\\xaa\\xe7\\x9f\\xbf\\xe6\\xb1\\xa0,\\xe5\\xae\\x9a\\xe6\\x81\\xaf\\xe7\\x9f\\xbf\\xe6\\xb1\\xa0.sol\":2863:2917  transfer(msg.sender, User_Map[msg.sender].stakeNumber) */\n      swap2\n      mload\n        /* \"#utility.yul\":745:770   */\n      swap2\n      dup3\n      mstore\n        /* \"\\xe8\\x87\\xaa\\xe5\\xb7\\xb1\\xe5\\x86\\x99\\xe4\\xb8\\xaa\\xe7\\x9f\\xbf\\xe6\\xb1\\xa0,\\xe5\\xae\\x9a\\xe6\\x81\\xaf\\xe7\\x9f\\xbf\\xe6\\xb1\\xa0.sol\":2863:2917  transfer(msg.sender, User_Map[msg.sender].stakeNumber) */\n      0xa9059cbb2ab09eb219583f4a59a5d0623ade346d962bcd4e46b11da047c9049b\n      swap2\n        /* \"#utility.yul\":718:736   */\n      add\n        /* \"\\xe8\\x87\\xaa\\xe5\\xb7\\xb1\\xe5\\x86\\x99\\xe4\\xb8\\xaa\\xe7\\x9f\\xbf\\xe6\\xb1\\xa0,\\xe5\\xae\\x9a\\xe6\\x81\\xaf\\xe7\\x9f\\xbf\\xe6\\xb1\\xa0.sol\":2863:2917  transfer(msg.sender, User_Map[msg.sender].stakeNumber) */\n      mload(0x40)\n      dup1\n      swap2\n      sub\n      swap1\n      log2\n        /* \"\\xe8\\x87\\xaa\\xe5\\xb7\\xb1\\xe5\\x86\\x99\\xe4\\xb8\\xaa\\xe7\\x9f\\xbf\\xe6\\xb1\\xa0,\\xe5\\xae\\x9a\\xe6\\x81\\xaf\\xe7\\x9f\\xbf\\xe6\\xb1\\xa0.sol\":2966:2976  msg.sender */\n      caller\n        /* \"\\xe8\\x87\\xaa\\xe5\\xb7\\xb1\\xe5\\x86\\x99\\xe4\\xb8\\xaa\\xe7\\x9f\\xbf\\xe6\\xb1\\xa0,\\xe5\\xae\\x9a\\xe6\\x81\\xaf\\xe7\\x9f\\xbf\\xe6\\xb1\\xa0.sol\":2957:2977  User_Map[msg.sender] */\n      0x00\n      swap1\n      dup2\n      mstore\n        /* \"\\xe8\\x87\\xaa\\xe5\\xb7\\xb1\\xe5\\x86\\x99\\xe4\\xb8\\xaa\\xe7\\x9f\\xbf\\xe6\\xb1\\xa0,\\xe5\\xae\\x9a\\xe6\\x81\\xaf\\xe7\\x9f\\xbf\\xe6\\xb1\\xa0.sol\":2957:2965  User_Map */\n      0x05\n        /* \"\\xe8\\x87\\xaa\\xe5\\xb7\\xb1\\xe5\\x86\\x99\\xe4\\xb8\\xaa\\xe7\\x9f\\xbf\\xe6\\xb1\\xa0,\\xe5\\xae\\x9a\\xe6\\x81\\xaf\\xe7\\x9f\\xbf\\xe6\\xb1\\xa0.sol\":2957:2977  User_Map[msg.sender] */\n      0x20\n      mstore\n      0x40\n      dup2\n      keccak256\n        /* \"\\xe8\\x87\\xaa\\xe5\\xb7\\xb1\\xe5\\x86\\x99\\xe4\\xb8\\xaa\\xe7\\x9f\\xbf\\xe6\\xb1\\xa0,\\xe5\\xae\\x9a\\xe6\\x81\\xaf\\xe7\\x9f\\xbf\\xe6\\xb1\\xa0.sol\":2957:2989  User_Map[msg.sender].stakeNumber */\n      sload\n        /* \"\\xe8\\x87\\xaa\\xe5\\xb7\\xb1\\xe5\\x86\\x99\\xe4\\xb8\\xaa\\xe7\\x9f\\xbf\\xe6\\xb1\\xa0,\\xe5\\xae\\x9a\\xe6\\x81\\xaf\\xe7\\x9f\\xbf\\xe6\\xb1\\xa0.sol\":2942:2953  stakeSupple */\n      0x03\n        /* \"\\xe8\\x87\\xaa\\xe5\\xb7\\xb1\\xe5\\x86\\x99\\xe4\\xb8\\xaa\\xe7\\x9f\\xbf\\xe6\\xb1\\xa0,\\xe5\\xae\\x9a\\xe6\\x81\\xaf\\xe7\\x9f\\xbf\\xe6\\xb1\\xa0.sol\":2942:2989  stakeSupple -= User_Map[msg.sender].stakeNumber */\n      dup1\n      sload\n        /* \"\\xe8\\x87\\xaa\\xe5\\xb7\\xb1\\xe5\\x86\\x99\\xe4\\xb8\\xaa\\xe7\\x9f\\xbf\\xe6\\xb1\\xa0,\\xe5\\xae\\x9a\\xe6\\x81\\xaf\\xe7\\x9f\\xbf\\xe6\\xb1\\xa0.sol\":2957:2989  User_Map[msg.sender].stakeNumber */\n      swap2\n      swap3\n        /* \"\\xe8\\x87\\xaa\\xe5\\xb7\\xb1\\xe5\\x86\\x99\\xe4\\xb8\\xaa\\xe7\\x9f\\xbf\\xe6\\xb1\\xa0,\\xe5\\xae\\x9a\\xe6\\x81\\xaf\\xe7\\x9f\\xbf\\xe6\\xb1\\xa0.sol\":2942:2953  stakeSupple */\n      swap1\n      swap2\n        /* \"\\xe8\\x87\\xaa\\xe5\\xb7\\xb1\\xe5\\x86\\x99\\xe4\\xb8\\xaa\\xe7\\x9f\\xbf\\xe6\\xb1\\xa0,\\xe5\\xae\\x9a\\xe6\\x81\\xaf\\xe7\\x9f\\xbf\\xe6\\xb1\\xa0.sol\":2942:2989  stakeSupple -= User_Map[msg.sender].stakeNumber */\n      tag_68\n      swap1\n        /* \"\\xe8\\x87\\xaa\\xe5\\xb7\\xb1\\xe5\\x86\\x99\\xe4\\xb8\\xaa\\xe7\\x9f\\xbf\\xe6\\xb1\\xa0,\\xe5\\xae\\x9a\\xe6\\x81\\xaf\\xe7\\x9f\\xbf\\xe6\\xb1\\xa0.sol\":2957:2989  User_Map[msg.sender].stakeNumber */\n      dup5\n      swap1\n        /* \"\\xe8\\x87\\xaa\\xe5\\xb7\\xb1\\xe5\\x86\\x99\\xe4\\xb8\\xaa\\xe7\\x9f\\xbf\\xe6\\xb1\\xa0,\\xe5\\xae\\x9a\\xe6\\x81\\xaf\\xe7\\x9f\\xbf\\xe6\\xb1\\xa0.sol\":2942:2989  stakeSupple -= User_Map[msg.sender].stakeNumber */\n      tag_69\n      jump\t// in\n    tag_68:\n      swap1\n      swap2\n      sstore\n      pop\n      pop\n        /* \"\\xe8\\x87\\xaa\\xe5\\xb7\\xb1\\xe5\\x86\\x99\\xe4\\xb8\\xaa\\xe7\\x9f\\xbf\\xe6\\xb1\\xa0,\\xe5\\xae\\x9a\\xe6\\x81\\xaf\\xe7\\x9f\\xbf\\xe6\\xb1\\xa0.sol\":3009:3019  msg.sender */\n      caller\n        /* \"\\xe8\\x87\\xaa\\xe5\\xb7\\xb1\\xe5\\x86\\x99\\xe4\\xb8\\xaa\\xe7\\x9f\\xbf\\xe6\\xb1\\xa0,\\xe5\\xae\\x9a\\xe6\\x81\\xaf\\xe7\\x9f\\xbf\\xe6\\xb1\\xa0.sol\":3035:3036  0 */\n      0x00\n        /* \"\\xe8\\x87\\xaa\\xe5\\xb7\\xb1\\xe5\\x86\\x99\\xe4\\xb8\\xaa\\xe7\\x9f\\xbf\\xe6\\xb1\\xa0,\\xe5\\xae\\x9a\\xe6\\x81\\xaf\\xe7\\x9f\\xbf\\xe6\\xb1\\xa0.sol\":3000:3020  User_Map[msg.sender] */\n      swap1\n      dup2\n      mstore\n        /* \"\\xe8\\x87\\xaa\\xe5\\xb7\\xb1\\xe5\\x86\\x99\\xe4\\xb8\\xaa\\xe7\\x9f\\xbf\\xe6\\xb1\\xa0,\\xe5\\xae\\x9a\\xe6\\x81\\xaf\\xe7\\x9f\\xbf\\xe6\\xb1\\xa0.sol\":3000:3008  User_Map */\n      0x05\n        /* \"\\xe8\\x87\\xaa\\xe5\\xb7\\xb1\\xe5\\x86\\x99\\xe4\\xb8\\xaa\\xe7\\x9f\\xbf\\xe6\\xb1\\xa0,\\xe5\\xae\\x9a\\xe6\\x81\\xaf\\xe7\\x9f\\xbf\\xe6\\xb1\\xa0.sol\":3000:3020  User_Map[msg.sender] */\n      0x20\n      mstore\n      0x40\n      dup2\n      keccak256\n        /* \"\\xe8\\x87\\xaa\\xe5\\xb7\\xb1\\xe5\\x86\\x99\\xe4\\xb8\\xaa\\xe7\\x9f\\xbf\\xe6\\xb1\\xa0,\\xe5\\xae\\x9a\\xe6\\x81\\xaf\\xe7\\x9f\\xbf\\xe6\\xb1\\xa0.sol\":3000:3036  User_Map[msg.sender].stakeNumber = 0 */\n      sstore\n      pop\n        /* \"\\xe8\\x87\\xaa\\xe5\\xb7\\xb1\\xe5\\x86\\x99\\xe4\\xb8\\xaa\\xe7\\x9f\\xbf\\xe6\\xb1\\xa0,\\xe5\\xae\\x9a\\xe6\\x81\\xaf\\xe7\\x9f\\xbf\\xe6\\xb1\\xa0.sol\":3056:3060  true */\n      0x01\n      swap1\n        /* \"\\xe8\\x87\\xaa\\xe5\\xb7\\xb1\\xe5\\x86\\x99\\xe4\\xb8\\xaa\\xe7\\x9f\\xbf\\xe6\\xb1\\xa0,\\xe5\\xae\\x9a\\xe6\\x81\\xaf\\xe7\\x9f\\xbf\\xe6\\xb1\\xa0.sol\":2717:3068  function withDraw () public returns (bool) {... */\n      jump\t// out\n        /* \"\\xe8\\x87\\xaa\\xe5\\xb7\\xb1\\xe5\\x86\\x99\\xe4\\xb8\\xaa\\xe7\\x9f\\xbf\\xe6\\xb1\\xa0,\\xe5\\xae\\x9a\\xe6\\x81\\xaf\\xe7\\x9f\\xbf\\xe6\\xb1\\xa0.sol\":2067:2709  function Stake(uint _amount) public returns (bool){... */\n    tag_23:\n        /* \"\\xe8\\x87\\xaa\\xe5\\xb7\\xb1\\xe5\\x86\\x99\\xe4\\xb8\\xaa\\xe7\\x9f\\xbf\\xe6\\xb1\\xa0,\\xe5\\xae\\x9a\\xe6\\x81\\xaf\\xe7\\x9f\\xbf\\xe6\\xb1\\xa0.sol\":2137:2147  staketoken */\n      sload(0x01)\n        /* \"\\xe8\\x87\\xaa\\xe5\\xb7\\xb1\\xe5\\x86\\x99\\xe4\\xb8\\xaa\\xe7\\x9f\\xbf\\xe6\\xb1\\xa0,\\xe5\\xae\\x9a\\xe6\\x81\\xaf\\xe7\\x9f\\xbf\\xe6\\xb1\\xa0.sol\":2130:2197  IERC20(staketoken).transferFrom(msg.sender, address(this), _amount) */\n      mload(0x40)\n      shl(0xe0, 0x23b872dd)\n      dup2\n      mstore\n        /* \"\\xe8\\x87\\xaa\\xe5\\xb7\\xb1\\xe5\\x86\\x99\\xe4\\xb8\\xaa\\xe7\\x9f\\xbf\\xe6\\xb1\\xa0,\\xe5\\xae\\x9a\\xe6\\x81\\xaf\\xe7\\x9f\\xbf\\xe6\\xb1\\xa0.sol\":2162:2172  msg.sender */\n      caller\n        /* \"\\xe8\\x87\\xaa\\xe5\\xb7\\xb1\\xe5\\x86\\x99\\xe4\\xb8\\xaa\\xe7\\x9f\\xbf\\xe6\\xb1\\xa0,\\xe5\\xae\\x9a\\xe6\\x81\\xaf\\xe7\\x9f\\xbf\\xe6\\xb1\\xa0.sol\":2130:2197  IERC20(staketoken).transferFrom(msg.sender, address(this), _amount) */\n      0x04\n      dup3\n      add\n        /* \"#utility.yul\":2675:2709   */\n      mstore\n        /* \"\\xe8\\x87\\xaa\\xe5\\xb7\\xb1\\xe5\\x86\\x99\\xe4\\xb8\\xaa\\xe7\\x9f\\xbf\\xe6\\xb1\\xa0,\\xe5\\xae\\x9a\\xe6\\x81\\xaf\\xe7\\x9f\\xbf\\xe6\\xb1\\xa0.sol\":2182:2186  this */\n      address\n        /* \"#utility.yul\":2725:2743   */\n      0x24\n      dup3\n      add\n        /* \"#utility.yul\":2718:2761   */\n      mstore\n        /* \"#utility.yul\":2777:2795   */\n      0x44\n      dup2\n      add\n        /* \"#utility.yul\":2770:2804   */\n      dup4\n      swap1\n      mstore\n        /* \"\\xe8\\x87\\xaa\\xe5\\xb7\\xb1\\xe5\\x86\\x99\\xe4\\xb8\\xaa\\xe7\\x9f\\xbf\\xe6\\xb1\\xa0,\\xe5\\xae\\x9a\\xe6\\x81\\xaf\\xe7\\x9f\\xbf\\xe6\\xb1\\xa0.sol\":2112:2116  bool */\n      0x00\n      swap2\n      sub(shl(0xa0, 0x01), 0x01)\n        /* \"\\xe8\\x87\\xaa\\xe5\\xb7\\xb1\\xe5\\x86\\x99\\xe4\\xb8\\xaa\\xe7\\x9f\\xbf\\xe6\\xb1\\xa0,\\xe5\\xae\\x9a\\xe6\\x81\\xaf\\xe7\\x9f\\xbf\\xe6\\xb1\\xa0.sol\":2137:2147  staketoken */\n      and\n      swap1\n        /* \"\\xe8\\x87\\xaa\\xe5\\xb7\\xb1\\xe5\\x86\\x99\\xe4\\xb8\\xaa\\xe7\\x9f\\xbf\\xe6\\xb1\\xa0,\\xe5\\xae\\x9a\\xe6\\x81\\xaf\\xe7\\x9f\\xbf\\xe6\\xb1\\xa0.sol\":2130:2161  IERC20(staketoken).transferFrom */\n      0x23b872dd\n      swap1\n        /* \"#utility.yul\":2610:2628   */\n      0x64\n      add\n        /* \"\\xe8\\x87\\xaa\\xe5\\xb7\\xb1\\xe5\\x86\\x99\\xe4\\xb8\\xaa\\xe7\\x9f\\xbf\\xe6\\xb1\\xa0,\\xe5\\xae\\x9a\\xe6\\x81\\xaf\\xe7\\x9f\\xbf\\xe6\\xb1\\xa0.sol\":2130:2197  IERC20(staketoken).transferFrom(msg.sender, address(this), _amount) */\n      0x20\n      mload(0x40)\n      dup1\n      dup4\n      sub\n      dup2\n      0x00\n      dup8\n      gas\n      call\n      iszero\n      dup1\n      iszero\n      tag_74\n      jumpi\n      returndatasize\n      0x00\n      dup1\n      returndatacopy\n      revert(0x00, returndatasize)\n    tag_74:\n      pop\n      pop\n      pop\n      pop\n      mload(0x40)\n      returndatasize\n      not(0x1f)\n      0x1f\n      dup3\n      add\n      and\n      dup3\n      add\n      dup1\n      0x40\n      mstore\n      pop\n      dup2\n      add\n      swap1\n      tag_75\n      swap2\n      swap1\n      tag_66\n      jump\t// in\n    tag_75:\n      pop\n        /* \"\\xe8\\x87\\xaa\\xe5\\xb7\\xb1\\xe5\\x86\\x99\\xe4\\xb8\\xaa\\xe7\\x9f\\xbf\\xe6\\xb1\\xa0,\\xe5\\xae\\x9a\\xe6\\x81\\xaf\\xe7\\x9f\\xbf\\xe6\\xb1\\xa0.sol\":2216:2259  Trasfer(msg.sender, address(this), _amount) */\n      mload(0x40)\n        /* \"#utility.yul\":745:770   */\n      dup3\n      dup2\n      mstore\n        /* \"\\xe8\\x87\\xaa\\xe5\\xb7\\xb1\\xe5\\x86\\x99\\xe4\\xb8\\xaa\\xe7\\x9f\\xbf\\xe6\\xb1\\xa0,\\xe5\\xae\\x9a\\xe6\\x81\\xaf\\xe7\\x9f\\xbf\\xe6\\xb1\\xa0.sol\":2244:2248  this */\n      address\n      swap1\n        /* \"\\xe8\\x87\\xaa\\xe5\\xb7\\xb1\\xe5\\x86\\x99\\xe4\\xb8\\xaa\\xe7\\x9f\\xbf\\xe6\\xb1\\xa0,\\xe5\\xae\\x9a\\xe6\\x81\\xaf\\xe7\\x9f\\xbf\\xe6\\xb1\\xa0.sol\":2224:2234  msg.sender */\n      caller\n      swap1\n        /* \"\\xe8\\x87\\xaa\\xe5\\xb7\\xb1\\xe5\\x86\\x99\\xe4\\xb8\\xaa\\xe7\\x9f\\xbf\\xe6\\xb1\\xa0,\\xe5\\xae\\x9a\\xe6\\x81\\xaf\\xe7\\x9f\\xbf\\xe6\\xb1\\xa0.sol\":2216:2259  Trasfer(msg.sender, address(this), _amount) */\n      0x1fd6ebb971d137acf3f01670862b8a96758cfc7e39dccb093e68daf461b0262c\n      swap1\n        /* \"#utility.yul\":733:735   */\n      0x20\n        /* \"#utility.yul\":718:736   */\n      add\n        /* \"\\xe8\\x87\\xaa\\xe5\\xb7\\xb1\\xe5\\x86\\x99\\xe4\\xb8\\xaa\\xe7\\x9f\\xbf\\xe6\\xb1\\xa0,\\xe5\\xae\\x9a\\xe6\\x81\\xaf\\xe7\\x9f\\xbf\\xe6\\xb1\\xa0.sol\":2216:2259  Trasfer(msg.sender, address(this), _amount) */\n      mload(0x40)\n      dup1\n      swap2\n      sub\n      swap1\n      log3\n        /* \"\\xe8\\x87\\xaa\\xe5\\xb7\\xb1\\xe5\\x86\\x99\\xe4\\xb8\\xaa\\xe7\\x9f\\xbf\\xe6\\xb1\\xa0,\\xe5\\xae\\x9a\\xe6\\x81\\xaf\\xe7\\x9f\\xbf\\xe6\\xb1\\xa0.sol\":2410:2415  ratio */\n      0x00\n      dup1\n      sload\n        /* \"\\xe8\\x87\\xaa\\xe5\\xb7\\xb1\\xe5\\x86\\x99\\xe4\\xb8\\xaa\\xe7\\x9f\\xbf\\xe6\\xb1\\xa0,\\xe5\\xae\\x9a\\xe6\\x81\\xaf\\xe7\\x9f\\xbf\\xe6\\xb1\\xa0.sol\":2384:2394  msg.sender */\n      caller\n        /* \"\\xe8\\x87\\xaa\\xe5\\xb7\\xb1\\xe5\\x86\\x99\\xe4\\xb8\\xaa\\xe7\\x9f\\xbf\\xe6\\xb1\\xa0,\\xe5\\xae\\x9a\\xe6\\x81\\xaf\\xe7\\x9f\\xbf\\xe6\\xb1\\xa0.sol\":2375:2395  User_Map[msg.sender] */\n      dup3\n      mstore\n        /* \"\\xe8\\x87\\xaa\\xe5\\xb7\\xb1\\xe5\\x86\\x99\\xe4\\xb8\\xaa\\xe7\\x9f\\xbf\\xe6\\xb1\\xa0,\\xe5\\xae\\x9a\\xe6\\x81\\xaf\\xe7\\x9f\\xbf\\xe6\\xb1\\xa0.sol\":2375:2383  User_Map */\n      0x05\n        /* \"\\xe8\\x87\\xaa\\xe5\\xb7\\xb1\\xe5\\x86\\x99\\xe4\\xb8\\xaa\\xe7\\x9f\\xbf\\xe6\\xb1\\xa0,\\xe5\\xae\\x9a\\xe6\\x81\\xaf\\xe7\\x9f\\xbf\\xe6\\xb1\\xa0.sol\":2375:2395  User_Map[msg.sender] */\n      0x20\n      mstore\n      0x40\n      swap1\n      swap2\n      keccak256\n        /* \"\\xe8\\x87\\xaa\\xe5\\xb7\\xb1\\xe5\\x86\\x99\\xe4\\xb8\\xaa\\xe7\\x9f\\xbf\\xe6\\xb1\\xa0,\\xe5\\xae\\x9a\\xe6\\x81\\xaf\\xe7\\x9f\\xbf\\xe6\\xb1\\xa0.sol\":2375:2407  User_Map[msg.sender].stakeNumber */\n      sload\n        /* \"\\xe8\\x87\\xaa\\xe5\\xb7\\xb1\\xe5\\x86\\x99\\xe4\\xb8\\xaa\\xe7\\x9f\\xbf\\xe6\\xb1\\xa0,\\xe5\\xae\\x9a\\xe6\\x81\\xaf\\xe7\\x9f\\xbf\\xe6\\xb1\\xa0.sol\":2424:2432  31536000 */\n      0x01e13380\n      swap2\n        /* \"\\xe8\\x87\\xaa\\xe5\\xb7\\xb1\\xe5\\x86\\x99\\xe4\\xb8\\xaa\\xe7\\x9f\\xbf\\xe6\\xb1\\xa0,\\xe5\\xae\\x9a\\xe6\\x81\\xaf\\xe7\\x9f\\xbf\\xe6\\xb1\\xa0.sol\":2417:2420  100 */\n      0x64\n      swap2\n        /* \"\\xe8\\x87\\xaa\\xe5\\xb7\\xb1\\xe5\\x86\\x99\\xe4\\xb8\\xaa\\xe7\\x9f\\xbf\\xe6\\xb1\\xa0,\\xe5\\xae\\x9a\\xe6\\x81\\xaf\\xe7\\x9f\\xbf\\xe6\\xb1\\xa0.sol\":2375:2415  User_Map[msg.sender].stakeNumber * ratio */\n      tag_77\n      swap2\n        /* \"\\xe8\\x87\\xaa\\xe5\\xb7\\xb1\\xe5\\x86\\x99\\xe4\\xb8\\xaa\\xe7\\x9f\\xbf\\xe6\\xb1\\xa0,\\xe5\\xae\\x9a\\xe6\\x81\\xaf\\xe7\\x9f\\xbf\\xe6\\xb1\\xa0.sol\":2410:2415  ratio */\n      swap1\n        /* \"\\xe8\\x87\\xaa\\xe5\\xb7\\xb1\\xe5\\x86\\x99\\xe4\\xb8\\xaa\\xe7\\x9f\\xbf\\xe6\\xb1\\xa0,\\xe5\\xae\\x9a\\xe6\\x81\\xaf\\xe7\\x9f\\xbf\\xe6\\xb1\\xa0.sol\":2375:2415  User_Map[msg.sender].stakeNumber * ratio */\n      tag_78\n      jump\t// in\n    tag_77:\n        /* \"\\xe8\\x87\\xaa\\xe5\\xb7\\xb1\\xe5\\x86\\x99\\xe4\\xb8\\xaa\\xe7\\x9f\\xbf\\xe6\\xb1\\xa0,\\xe5\\xae\\x9a\\xe6\\x81\\xaf\\xe7\\x9f\\xbf\\xe6\\xb1\\xa0.sol\":2375:2420  User_Map[msg.sender].stakeNumber * ratio /100 */\n      tag_79\n      swap2\n      swap1\n      tag_80\n      jump\t// in\n    tag_79:\n        /* \"\\xe8\\x87\\xaa\\xe5\\xb7\\xb1\\xe5\\x86\\x99\\xe4\\xb8\\xaa\\xe7\\x9f\\xbf\\xe6\\xb1\\xa0,\\xe5\\xae\\x9a\\xe6\\x81\\xaf\\xe7\\x9f\\xbf\\xe6\\xb1\\xa0.sol\":2374:2432  (User_Map[msg.sender].stakeNumber * ratio /100) / 31536000 */\n      tag_81\n      swap2\n      swap1\n      tag_80\n      jump\t// in\n    tag_81:\n        /* \"\\xe8\\x87\\xaa\\xe5\\xb7\\xb1\\xe5\\x86\\x99\\xe4\\xb8\\xaa\\xe7\\x9f\\xbf\\xe6\\xb1\\xa0,\\xe5\\xae\\x9a\\xe6\\x81\\xaf\\xe7\\x9f\\xbf\\xe6\\xb1\\xa0.sol\":2342:2352  msg.sender */\n      caller\n        /* \"\\xe8\\x87\\xaa\\xe5\\xb7\\xb1\\xe5\\x86\\x99\\xe4\\xb8\\xaa\\xe7\\x9f\\xbf\\xe6\\xb1\\xa0,\\xe5\\xae\\x9a\\xe6\\x81\\xaf\\xe7\\x9f\\xbf\\xe6\\xb1\\xa0.sol\":2333:2353  User_Map[msg.sender] */\n      0x00\n      swap1\n      dup2\n      mstore\n        /* \"\\xe8\\x87\\xaa\\xe5\\xb7\\xb1\\xe5\\x86\\x99\\xe4\\xb8\\xaa\\xe7\\x9f\\xbf\\xe6\\xb1\\xa0,\\xe5\\xae\\x9a\\xe6\\x81\\xaf\\xe7\\x9f\\xbf\\xe6\\xb1\\xa0.sol\":2333:2341  User_Map */\n      0x05\n        /* \"\\xe8\\x87\\xaa\\xe5\\xb7\\xb1\\xe5\\x86\\x99\\xe4\\xb8\\xaa\\xe7\\x9f\\xbf\\xe6\\xb1\\xa0,\\xe5\\xae\\x9a\\xe6\\x81\\xaf\\xe7\\x9f\\xbf\\xe6\\xb1\\xa0.sol\":2333:2353  User_Map[msg.sender] */\n      0x20\n      mstore\n      0x40\n      swap1\n      keccak256\n        /* \"\\xe8\\x87\\xaa\\xe5\\xb7\\xb1\\xe5\\x86\\x99\\xe4\\xb8\\xaa\\xe7\\x9f\\xbf\\xe6\\xb1\\xa0,\\xe5\\xae\\x9a\\xe6\\x81\\xaf\\xe7\\x9f\\xbf\\xe6\\xb1\\xa0.sol\":2333:2369  User_Map[msg.sender].last_Stake_Time */\n      0x01\n      add\n      sload\n        /* \"\\xe8\\x87\\xaa\\xe5\\xb7\\xb1\\xe5\\x86\\x99\\xe4\\xb8\\xaa\\xe7\\x9f\\xbf\\xe6\\xb1\\xa0,\\xe5\\xae\\x9a\\xe6\\x81\\xaf\\xe7\\x9f\\xbf\\xe6\\xb1\\xa0.sol\":2315:2369  block.timestamp - User_Map[msg.sender].last_Stake_Time */\n      tag_82\n      swap1\n        /* \"\\xe8\\x87\\xaa\\xe5\\xb7\\xb1\\xe5\\x86\\x99\\xe4\\xb8\\xaa\\xe7\\x9f\\xbf\\xe6\\xb1\\xa0,\\xe5\\xae\\x9a\\xe6\\x81\\xaf\\xe7\\x9f\\xbf\\xe6\\xb1\\xa0.sol\":2315:2330  block.timestamp */\n      timestamp\n        /* \"\\xe8\\x87\\xaa\\xe5\\xb7\\xb1\\xe5\\x86\\x99\\xe4\\xb8\\xaa\\xe7\\x9f\\xbf\\xe6\\xb1\\xa0,\\xe5\\xae\\x9a\\xe6\\x81\\xaf\\xe7\\x9f\\xbf\\xe6\\xb1\\xa0.sol\":2315:2369  block.timestamp - User_Map[msg.sender].last_Stake_Time */\n      tag_69\n      jump\t// in\n    tag_82:\n        /* \"\\xe8\\x87\\xaa\\xe5\\xb7\\xb1\\xe5\\x86\\x99\\xe4\\xb8\\xaa\\xe7\\x9f\\xbf\\xe6\\xb1\\xa0,\\xe5\\xae\\x9a\\xe6\\x81\\xaf\\xe7\\x9f\\xbf\\xe6\\xb1\\xa0.sol\":2314:2433  (block.timestamp - User_Map[msg.sender].last_Stake_Time) * ((User_Map[msg.sender].stakeNumber * ratio /100) / 31536000) */\n      tag_83\n      swap2\n      swap1\n      tag_78\n      jump\t// in\n    tag_83:\n        /* \"\\xe8\\x87\\xaa\\xe5\\xb7\\xb1\\xe5\\x86\\x99\\xe4\\xb8\\xaa\\xe7\\x9f\\xbf\\xe6\\xb1\\xa0,\\xe5\\xae\\x9a\\xe6\\x81\\xaf\\xe7\\x9f\\xbf\\xe6\\xb1\\xa0.sol\":2281:2291  msg.sender */\n      caller\n        /* \"\\xe8\\x87\\xaa\\xe5\\xb7\\xb1\\xe5\\x86\\x99\\xe4\\xb8\\xaa\\xe7\\x9f\\xbf\\xe6\\xb1\\xa0,\\xe5\\xae\\x9a\\xe6\\x81\\xaf\\xe7\\x9f\\xbf\\xe6\\xb1\\xa0.sol\":2272:2292  User_Map[msg.sender] */\n      0x00\n      swap1\n      dup2\n      mstore\n        /* \"\\xe8\\x87\\xaa\\xe5\\xb7\\xb1\\xe5\\x86\\x99\\xe4\\xb8\\xaa\\xe7\\x9f\\xbf\\xe6\\xb1\\xa0,\\xe5\\xae\\x9a\\xe6\\x81\\xaf\\xe7\\x9f\\xbf\\xe6\\xb1\\xa0.sol\":2272:2280  User_Map */\n      0x05\n        /* \"\\xe8\\x87\\xaa\\xe5\\xb7\\xb1\\xe5\\x86\\x99\\xe4\\xb8\\xaa\\xe7\\x9f\\xbf\\xe6\\xb1\\xa0,\\xe5\\xae\\x9a\\xe6\\x81\\xaf\\xe7\\x9f\\xbf\\xe6\\xb1\\xa0.sol\":2272:2292  User_Map[msg.sender] */\n      0x20\n      mstore\n      0x40\n      dup2\n      keccak256\n        /* \"\\xe8\\x87\\xaa\\xe5\\xb7\\xb1\\xe5\\x86\\x99\\xe4\\xb8\\xaa\\xe7\\x9f\\xbf\\xe6\\xb1\\xa0,\\xe5\\xae\\x9a\\xe6\\x81\\xaf\\xe7\\x9f\\xbf\\xe6\\xb1\\xa0.sol\":2272:2311  User_Map[msg.sender].last_totoken_ratio */\n      0x02\n      dup2\n      add\n        /* \"\\xe8\\x87\\xaa\\xe5\\xb7\\xb1\\xe5\\x86\\x99\\xe4\\xb8\\xaa\\xe7\\x9f\\xbf\\xe6\\xb1\\xa0,\\xe5\\xae\\x9a\\xe6\\x81\\xaf\\xe7\\x9f\\xbf\\xe6\\xb1\\xa0.sol\":2272:2433  User_Map[msg.sender].last_totoken_ratio = (block.timestamp - User_Map[msg.sender].last_Stake_Time) * ((User_Map[msg.sender].stakeNumber * ratio /100) / 31536000) */\n      swap3\n      swap1\n      swap3\n      sstore\n        /* \"\\xe8\\x87\\xaa\\xe5\\xb7\\xb1\\xe5\\x86\\x99\\xe4\\xb8\\xaa\\xe7\\x9f\\xbf\\xe6\\xb1\\xa0,\\xe5\\xae\\x9a\\xe6\\x81\\xaf\\xe7\\x9f\\xbf\\xe6\\xb1\\xa0.sol\":2446:2489  User_Map[msg.sender].stakeNumber += _amount */\n      dup2\n      sload\n        /* \"\\xe8\\x87\\xaa\\xe5\\xb7\\xb1\\xe5\\x86\\x99\\xe4\\xb8\\xaa\\xe7\\x9f\\xbf\\xe6\\xb1\\xa0,\\xe5\\xae\\x9a\\xe6\\x81\\xaf\\xe7\\x9f\\xbf\\xe6\\xb1\\xa0.sol\":2482:2489  _amount */\n      dup5\n      swap3\n        /* \"\\xe8\\x87\\xaa\\xe5\\xb7\\xb1\\xe5\\x86\\x99\\xe4\\xb8\\xaa\\xe7\\x9f\\xbf\\xe6\\xb1\\xa0,\\xe5\\xae\\x9a\\xe6\\x81\\xaf\\xe7\\x9f\\xbf\\xe6\\xb1\\xa0.sol\":2272:2292  User_Map[msg.sender] */\n      swap2\n      swap1\n        /* \"\\xe8\\x87\\xaa\\xe5\\xb7\\xb1\\xe5\\x86\\x99\\xe4\\xb8\\xaa\\xe7\\x9f\\xbf\\xe6\\xb1\\xa0,\\xe5\\xae\\x9a\\xe6\\x81\\xaf\\xe7\\x9f\\xbf\\xe6\\xb1\\xa0.sol\":2446:2489  User_Map[msg.sender].stakeNumber += _amount */\n      tag_84\n      swap1\n        /* \"\\xe8\\x87\\xaa\\xe5\\xb7\\xb1\\xe5\\x86\\x99\\xe4\\xb8\\xaa\\xe7\\x9f\\xbf\\xe6\\xb1\\xa0,\\xe5\\xae\\x9a\\xe6\\x81\\xaf\\xe7\\x9f\\xbf\\xe6\\xb1\\xa0.sol\":2482:2489  _amount */\n      dup5\n      swap1\n        /* \"\\xe8\\x87\\xaa\\xe5\\xb7\\xb1\\xe5\\x86\\x99\\xe4\\xb8\\xaa\\xe7\\x9f\\xbf\\xe6\\xb1\\xa0,\\xe5\\xae\\x9a\\xe6\\x81\\xaf\\xe7\\x9f\\xbf\\xe6\\xb1\\xa0.sol\":2446:2489  User_Map[msg.sender].stakeNumber += _amount */\n      tag_85\n      jump\t// in\n    tag_84:\n      swap1\n      swap2\n      sstore\n      pop\n      pop\n        /* \"\\xe8\\x87\\xaa\\xe5\\xb7\\xb1\\xe5\\x86\\x99\\xe4\\xb8\\xaa\\xe7\\x9f\\xbf\\xe6\\xb1\\xa0,\\xe5\\xae\\x9a\\xe6\\x81\\xaf\\xe7\\x9f\\xbf\\xe6\\xb1\\xa0.sol\":2509:2519  msg.sender */\n      caller\n        /* \"\\xe8\\x87\\xaa\\xe5\\xb7\\xb1\\xe5\\x86\\x99\\xe4\\xb8\\xaa\\xe7\\x9f\\xbf\\xe6\\xb1\\xa0,\\xe5\\xae\\x9a\\xe6\\x81\\xaf\\xe7\\x9f\\xbf\\xe6\\xb1\\xa0.sol\":2500:2520  User_Map[msg.sender] */\n      0x00\n      swap1\n      dup2\n      mstore\n        /* \"\\xe8\\x87\\xaa\\xe5\\xb7\\xb1\\xe5\\x86\\x99\\xe4\\xb8\\xaa\\xe7\\x9f\\xbf\\xe6\\xb1\\xa0,\\xe5\\xae\\x9a\\xe6\\x81\\xaf\\xe7\\x9f\\xbf\\xe6\\xb1\\xa0.sol\":2500:2508  User_Map */\n      0x05\n        /* \"\\xe8\\x87\\xaa\\xe5\\xb7\\xb1\\xe5\\x86\\x99\\xe4\\xb8\\xaa\\xe7\\x9f\\xbf\\xe6\\xb1\\xa0,\\xe5\\xae\\x9a\\xe6\\x81\\xaf\\xe7\\x9f\\xbf\\xe6\\xb1\\xa0.sol\":2500:2520  User_Map[msg.sender] */\n      0x20\n      mstore\n      0x40\n      dup2\n      keccak256\n        /* \"\\xe8\\x87\\xaa\\xe5\\xb7\\xb1\\xe5\\x86\\x99\\xe4\\xb8\\xaa\\xe7\\x9f\\xbf\\xe6\\xb1\\xa0,\\xe5\\xae\\x9a\\xe6\\x81\\xaf\\xe7\\x9f\\xbf\\xe6\\xb1\\xa0.sol\":2539:2554  block.timestamp */\n      timestamp\n        /* \"\\xe8\\x87\\xaa\\xe5\\xb7\\xb1\\xe5\\x86\\x99\\xe4\\xb8\\xaa\\xe7\\x9f\\xbf\\xe6\\xb1\\xa0,\\xe5\\xae\\x9a\\xe6\\x81\\xaf\\xe7\\x9f\\xbf\\xe6\\xb1\\xa0.sol\":2500:2536  User_Map[msg.sender].last_Stake_Time */\n      0x01\n      swap1\n      swap2\n      add\n        /* \"\\xe8\\x87\\xaa\\xe5\\xb7\\xb1\\xe5\\x86\\x99\\xe4\\xb8\\xaa\\xe7\\x9f\\xbf\\xe6\\xb1\\xa0,\\xe5\\xae\\x9a\\xe6\\x81\\xaf\\xe7\\x9f\\xbf\\xe6\\xb1\\xa0.sol\":2500:2554  User_Map[msg.sender].last_Stake_Time = block.timestamp */\n      sstore\n        /* \"\\xe8\\x87\\xaa\\xe5\\xb7\\xb1\\xe5\\x86\\x99\\xe4\\xb8\\xaa\\xe7\\x9f\\xbf\\xe6\\xb1\\xa0,\\xe5\\xae\\x9a\\xe6\\x81\\xaf\\xe7\\x9f\\xbf\\xe6\\xb1\\xa0.sol\":2565:2576  stakeSupple */\n      0x03\n        /* \"\\xe8\\x87\\xaa\\xe5\\xb7\\xb1\\xe5\\x86\\x99\\xe4\\xb8\\xaa\\xe7\\x9f\\xbf\\xe6\\xb1\\xa0,\\xe5\\xae\\x9a\\xe6\\x81\\xaf\\xe7\\x9f\\xbf\\xe6\\xb1\\xa0.sol\":2565:2587  stakeSupple += _amount */\n      dup1\n      sload\n        /* \"\\xe8\\x87\\xaa\\xe5\\xb7\\xb1\\xe5\\x86\\x99\\xe4\\xb8\\xaa\\xe7\\x9f\\xbf\\xe6\\xb1\\xa0,\\xe5\\xae\\x9a\\xe6\\x81\\xaf\\xe7\\x9f\\xbf\\xe6\\xb1\\xa0.sol\":2580:2587  _amount */\n      dup5\n      swap3\n        /* \"\\xe8\\x87\\xaa\\xe5\\xb7\\xb1\\xe5\\x86\\x99\\xe4\\xb8\\xaa\\xe7\\x9f\\xbf\\xe6\\xb1\\xa0,\\xe5\\xae\\x9a\\xe6\\x81\\xaf\\xe7\\x9f\\xbf\\xe6\\xb1\\xa0.sol\":2500:2520  User_Map[msg.sender] */\n      swap1\n        /* \"\\xe8\\x87\\xaa\\xe5\\xb7\\xb1\\xe5\\x86\\x99\\xe4\\xb8\\xaa\\xe7\\x9f\\xbf\\xe6\\xb1\\xa0,\\xe5\\xae\\x9a\\xe6\\x81\\xaf\\xe7\\x9f\\xbf\\xe6\\xb1\\xa0.sol\":2565:2587  stakeSupple += _amount */\n      tag_86\n      swap1\n        /* \"\\xe8\\x87\\xaa\\xe5\\xb7\\xb1\\xe5\\x86\\x99\\xe4\\xb8\\xaa\\xe7\\x9f\\xbf\\xe6\\xb1\\xa0,\\xe5\\xae\\x9a\\xe6\\x81\\xaf\\xe7\\x9f\\xbf\\xe6\\xb1\\xa0.sol\":2580:2587  _amount */\n      dup5\n      swap1\n        /* \"\\xe8\\x87\\xaa\\xe5\\xb7\\xb1\\xe5\\x86\\x99\\xe4\\xb8\\xaa\\xe7\\x9f\\xbf\\xe6\\xb1\\xa0,\\xe5\\xae\\x9a\\xe6\\x81\\xaf\\xe7\\x9f\\xbf\\xe6\\xb1\\xa0.sol\":2565:2587  stakeSupple += _amount */\n      tag_85\n      jump\t// in\n    tag_86:\n      swap1\n      swap2\n      sstore\n      pop\n      pop\n        /* \"\\xe8\\x87\\xaa\\xe5\\xb7\\xb1\\xe5\\x86\\x99\\xe4\\xb8\\xaa\\xe7\\x9f\\xbf\\xe6\\xb1\\xa0,\\xe5\\xae\\x9a\\xe6\\x81\\xaf\\xe7\\x9f\\xbf\\xe6\\xb1\\xa0.sol\":2648:2658  msg.sender */\n      caller\n        /* \"\\xe8\\x87\\xaa\\xe5\\xb7\\xb1\\xe5\\x86\\x99\\xe4\\xb8\\xaa\\xe7\\x9f\\xbf\\xe6\\xb1\\xa0,\\xe5\\xae\\x9a\\xe6\\x81\\xaf\\xe7\\x9f\\xbf\\xe6\\xb1\\xa0.sol\":2639:2659  User_Map[msg.sender] */\n      0x00\n      swap1\n      dup2\n      mstore\n        /* \"\\xe8\\x87\\xaa\\xe5\\xb7\\xb1\\xe5\\x86\\x99\\xe4\\xb8\\xaa\\xe7\\x9f\\xbf\\xe6\\xb1\\xa0,\\xe5\\xae\\x9a\\xe6\\x81\\xaf\\xe7\\x9f\\xbf\\xe6\\xb1\\xa0.sol\":2639:2647  User_Map */\n      0x05\n        /* \"\\xe8\\x87\\xaa\\xe5\\xb7\\xb1\\xe5\\x86\\x99\\xe4\\xb8\\xaa\\xe7\\x9f\\xbf\\xe6\\xb1\\xa0,\\xe5\\xae\\x9a\\xe6\\x81\\xaf\\xe7\\x9f\\xbf\\xe6\\xb1\\xa0.sol\":2639:2659  User_Map[msg.sender] */\n      0x20\n      mstore\n      0x40\n      swap1\n      keccak256\n        /* \"\\xe8\\x87\\xaa\\xe5\\xb7\\xb1\\xe5\\x86\\x99\\xe4\\xb8\\xaa\\xe7\\x9f\\xbf\\xe6\\xb1\\xa0,\\xe5\\xae\\x9a\\xe6\\x81\\xaf\\xe7\\x9f\\xbf\\xe6\\xb1\\xa0.sol\":2639:2675  User_Map[msg.sender].last_Stake_Time */\n      0x01\n      dup1\n      dup3\n      add\n      sload\n        /* \"\\xe8\\x87\\xaa\\xe5\\xb7\\xb1\\xe5\\x86\\x99\\xe4\\xb8\\xaa\\xe7\\x9f\\xbf\\xe6\\xb1\\xa0,\\xe5\\xae\\x9a\\xe6\\x81\\xaf\\xe7\\x9f\\xbf\\xe6\\xb1\\xa0.sol\":2598:2636  User_Map[msg.sender].last_totoken_Time */\n      0x04\n      swap1\n      swap3\n      add\n        /* \"\\xe8\\x87\\xaa\\xe5\\xb7\\xb1\\xe5\\x86\\x99\\xe4\\xb8\\xaa\\xe7\\x9f\\xbf\\xe6\\xb1\\xa0,\\xe5\\xae\\x9a\\xe6\\x81\\xaf\\xe7\\x9f\\xbf\\xe6\\xb1\\xa0.sol\":2598:2675  User_Map[msg.sender].last_totoken_Time = User_Map[msg.sender].last_Stake_Time */\n      swap2\n      swap1\n      swap2\n      sstore\n        /* \"\\xe8\\x87\\xaa\\xe5\\xb7\\xb1\\xe5\\x86\\x99\\xe4\\xb8\\xaa\\xe7\\x9f\\xbf\\xe6\\xb1\\xa0,\\xe5\\xae\\x9a\\xe6\\x81\\xaf\\xe7\\x9f\\xbf\\xe6\\xb1\\xa0.sol\":2639:2675  User_Map[msg.sender].last_Stake_Time */\n      swap3\n        /* \"\\xe8\\x87\\xaa\\xe5\\xb7\\xb1\\xe5\\x86\\x99\\xe4\\xb8\\xaa\\xe7\\x9f\\xbf\\xe6\\xb1\\xa0,\\xe5\\xae\\x9a\\xe6\\x81\\xaf\\xe7\\x9f\\xbf\\xe6\\xb1\\xa0.sol\":2067:2709  function Stake(uint _amount) public returns (bool){... */\n      swap2\n      pop\n      pop\n      jump\t// out\n        /* \"\\xe8\\x87\\xaa\\xe5\\xb7\\xb1\\xe5\\x86\\x99\\xe4\\xb8\\xaa\\xe7\\x9f\\xbf\\xe6\\xb1\\xa0,\\xe5\\xae\\x9a\\xe6\\x81\\xaf\\xe7\\x9f\\xbf\\xe6\\xb1\\xa0.sol\":3076:3782  function harvest() public returns (bool) {... */\n    tag_30:\n        /* \"\\xe8\\x87\\xaa\\xe5\\xb7\\xb1\\xe5\\x86\\x99\\xe4\\xb8\\xaa\\xe7\\x9f\\xbf\\xe6\\xb1\\xa0,\\xe5\\xae\\x9a\\xe6\\x81\\xaf\\xe7\\x9f\\xbf\\xe6\\xb1\\xa0.sol\":3111:3115  bool */\n      0x00\n        /* \"\\xe8\\x87\\xaa\\xe5\\xb7\\xb1\\xe5\\x86\\x99\\xe4\\xb8\\xaa\\xe7\\x9f\\xbf\\xe6\\xb1\\xa0,\\xe5\\xae\\x9a\\xe6\\x81\\xaf\\xe7\\x9f\\xbf\\xe6\\xb1\\xa0.sol\":3310:3315  ratio */\n      dup1\n      sload\n        /* \"\\xe8\\x87\\xaa\\xe5\\xb7\\xb1\\xe5\\x86\\x99\\xe4\\xb8\\xaa\\xe7\\x9f\\xbf\\xe6\\xb1\\xa0,\\xe5\\xae\\x9a\\xe6\\x81\\xaf\\xe7\\x9f\\xbf\\xe6\\xb1\\xa0.sol\":3284:3294  msg.sender */\n      caller\n        /* \"\\xe8\\x87\\xaa\\xe5\\xb7\\xb1\\xe5\\x86\\x99\\xe4\\xb8\\xaa\\xe7\\x9f\\xbf\\xe6\\xb1\\xa0,\\xe5\\xae\\x9a\\xe6\\x81\\xaf\\xe7\\x9f\\xbf\\xe6\\xb1\\xa0.sol\":3275:3295  User_Map[msg.sender] */\n      dup3\n      mstore\n        /* \"\\xe8\\x87\\xaa\\xe5\\xb7\\xb1\\xe5\\x86\\x99\\xe4\\xb8\\xaa\\xe7\\x9f\\xbf\\xe6\\xb1\\xa0,\\xe5\\xae\\x9a\\xe6\\x81\\xaf\\xe7\\x9f\\xbf\\xe6\\xb1\\xa0.sol\":3275:3283  User_Map */\n      0x05\n        /* \"\\xe8\\x87\\xaa\\xe5\\xb7\\xb1\\xe5\\x86\\x99\\xe4\\xb8\\xaa\\xe7\\x9f\\xbf\\xe6\\xb1\\xa0,\\xe5\\xae\\x9a\\xe6\\x81\\xaf\\xe7\\x9f\\xbf\\xe6\\xb1\\xa0.sol\":3275:3295  User_Map[msg.sender] */\n      0x20\n      mstore\n      0x40\n      dup3\n      keccak256\n        /* \"\\xe8\\x87\\xaa\\xe5\\xb7\\xb1\\xe5\\x86\\x99\\xe4\\xb8\\xaa\\xe7\\x9f\\xbf\\xe6\\xb1\\xa0,\\xe5\\xae\\x9a\\xe6\\x81\\xaf\\xe7\\x9f\\xbf\\xe6\\xb1\\xa0.sol\":3275:3307  User_Map[msg.sender].stakeNumber */\n      sload\n        /* \"\\xe8\\x87\\xaa\\xe5\\xb7\\xb1\\xe5\\x86\\x99\\xe4\\xb8\\xaa\\xe7\\x9f\\xbf\\xe6\\xb1\\xa0,\\xe5\\xae\\x9a\\xe6\\x81\\xaf\\xe7\\x9f\\xbf\\xe6\\xb1\\xa0.sol\":3324:3332  31536000 */\n      0x01e13380\n      swap2\n        /* \"\\xe8\\x87\\xaa\\xe5\\xb7\\xb1\\xe5\\x86\\x99\\xe4\\xb8\\xaa\\xe7\\x9f\\xbf\\xe6\\xb1\\xa0,\\xe5\\xae\\x9a\\xe6\\x81\\xaf\\xe7\\x9f\\xbf\\xe6\\xb1\\xa0.sol\":3317:3320  100 */\n      0x64\n      swap2\n        /* \"\\xe8\\x87\\xaa\\xe5\\xb7\\xb1\\xe5\\x86\\x99\\xe4\\xb8\\xaa\\xe7\\x9f\\xbf\\xe6\\xb1\\xa0,\\xe5\\xae\\x9a\\xe6\\x81\\xaf\\xe7\\x9f\\xbf\\xe6\\xb1\\xa0.sol\":3275:3315  User_Map[msg.sender].stakeNumber * ratio */\n      tag_88\n      swap2\n        /* \"\\xe8\\x87\\xaa\\xe5\\xb7\\xb1\\xe5\\x86\\x99\\xe4\\xb8\\xaa\\xe7\\x9f\\xbf\\xe6\\xb1\\xa0,\\xe5\\xae\\x9a\\xe6\\x81\\xaf\\xe7\\x9f\\xbf\\xe6\\xb1\\xa0.sol\":3310:3315  ratio */\n      swap1\n        /* \"\\xe8\\x87\\xaa\\xe5\\xb7\\xb1\\xe5\\x86\\x99\\xe4\\xb8\\xaa\\xe7\\x9f\\xbf\\xe6\\xb1\\xa0,\\xe5\\xae\\x9a\\xe6\\x81\\xaf\\xe7\\x9f\\xbf\\xe6\\xb1\\xa0.sol\":3275:3315  User_Map[msg.sender].stakeNumber * ratio */\n      tag_78\n      jump\t// in\n    tag_88:\n        /* \"\\xe8\\x87\\xaa\\xe5\\xb7\\xb1\\xe5\\x86\\x99\\xe4\\xb8\\xaa\\xe7\\x9f\\xbf\\xe6\\xb1\\xa0,\\xe5\\xae\\x9a\\xe6\\x81\\xaf\\xe7\\x9f\\xbf\\xe6\\xb1\\xa0.sol\":3275:3320  User_Map[msg.sender].stakeNumber * ratio /100 */\n      tag_89\n      swap2\n      swap1\n      tag_80\n      jump\t// in\n    tag_89:\n        /* \"\\xe8\\x87\\xaa\\xe5\\xb7\\xb1\\xe5\\x86\\x99\\xe4\\xb8\\xaa\\xe7\\x9f\\xbf\\xe6\\xb1\\xa0,\\xe5\\xae\\x9a\\xe6\\x81\\xaf\\xe7\\x9f\\xbf\\xe6\\xb1\\xa0.sol\":3274:3332  (User_Map[msg.sender].stakeNumber * ratio /100) / 31536000 */\n      tag_90\n      swap2\n      swap1\n      tag_80\n      jump\t// in\n    tag_90:\n        /* \"\\xe8\\x87\\xaa\\xe5\\xb7\\xb1\\xe5\\x86\\x99\\xe4\\xb8\\xaa\\xe7\\x9f\\xbf\\xe6\\xb1\\xa0,\\xe5\\xae\\x9a\\xe6\\x81\\xaf\\xe7\\x9f\\xbf\\xe6\\xb1\\xa0.sol\":3242:3252  msg.sender */\n      caller\n        /* \"\\xe8\\x87\\xaa\\xe5\\xb7\\xb1\\xe5\\x86\\x99\\xe4\\xb8\\xaa\\xe7\\x9f\\xbf\\xe6\\xb1\\xa0,\\xe5\\xae\\x9a\\xe6\\x81\\xaf\\xe7\\x9f\\xbf\\xe6\\xb1\\xa0.sol\":3233:3253  User_Map[msg.sender] */\n      0x00\n      swap1\n      dup2\n      mstore\n        /* \"\\xe8\\x87\\xaa\\xe5\\xb7\\xb1\\xe5\\x86\\x99\\xe4\\xb8\\xaa\\xe7\\x9f\\xbf\\xe6\\xb1\\xa0,\\xe5\\xae\\x9a\\xe6\\x81\\xaf\\xe7\\x9f\\xbf\\xe6\\xb1\\xa0.sol\":3233:3241  User_Map */\n      0x05\n        /* \"\\xe8\\x87\\xaa\\xe5\\xb7\\xb1\\xe5\\x86\\x99\\xe4\\xb8\\xaa\\xe7\\x9f\\xbf\\xe6\\xb1\\xa0,\\xe5\\xae\\x9a\\xe6\\x81\\xaf\\xe7\\x9f\\xbf\\xe6\\xb1\\xa0.sol\":3233:3253  User_Map[msg.sender] */\n      0x20\n      mstore\n      0x40\n      swap1\n      keccak256\n        /* \"\\xe8\\x87\\xaa\\xe5\\xb7\\xb1\\xe5\\x86\\x99\\xe4\\xb8\\xaa\\xe7\\x9f\\xbf\\xe6\\xb1\\xa0,\\xe5\\xae\\x9a\\xe6\\x81\\xaf\\xe7\\x9f\\xbf\\xe6\\xb1\\xa0.sol\":3233:3269  User_Map[msg.sender].last_Stake_Time */\n      0x01\n      add\n      sload\n        /* \"\\xe8\\x87\\xaa\\xe5\\xb7\\xb1\\xe5\\x86\\x99\\xe4\\xb8\\xaa\\xe7\\x9f\\xbf\\xe6\\xb1\\xa0,\\xe5\\xae\\x9a\\xe6\\x81\\xaf\\xe7\\x9f\\xbf\\xe6\\xb1\\xa0.sol\":3215:3269  block.timestamp - User_Map[msg.sender].last_Stake_Time */\n      tag_91\n      swap1\n        /* \"\\xe8\\x87\\xaa\\xe5\\xb7\\xb1\\xe5\\x86\\x99\\xe4\\xb8\\xaa\\xe7\\x9f\\xbf\\xe6\\xb1\\xa0,\\xe5\\xae\\x9a\\xe6\\x81\\xaf\\xe7\\x9f\\xbf\\xe6\\xb1\\xa0.sol\":3215:3230  block.timestamp */\n      timestamp\n        /* \"\\xe8\\x87\\xaa\\xe5\\xb7\\xb1\\xe5\\x86\\x99\\xe4\\xb8\\xaa\\xe7\\x9f\\xbf\\xe6\\xb1\\xa0,\\xe5\\xae\\x9a\\xe6\\x81\\xaf\\xe7\\x9f\\xbf\\xe6\\xb1\\xa0.sol\":3215:3269  block.timestamp - User_Map[msg.sender].last_Stake_Time */\n      tag_69\n      jump\t// in\n    tag_91:\n        /* \"\\xe8\\x87\\xaa\\xe5\\xb7\\xb1\\xe5\\x86\\x99\\xe4\\xb8\\xaa\\xe7\\x9f\\xbf\\xe6\\xb1\\xa0,\\xe5\\xae\\x9a\\xe6\\x81\\xaf\\xe7\\x9f\\xbf\\xe6\\xb1\\xa0.sol\":3214:3333  (block.timestamp - User_Map[msg.sender].last_Stake_Time) * ((User_Map[msg.sender].stakeNumber * ratio /100) / 31536000) */\n      tag_92\n      swap2\n      swap1\n      tag_78\n      jump\t// in\n    tag_92:\n        /* \"\\xe8\\x87\\xaa\\xe5\\xb7\\xb1\\xe5\\x86\\x99\\xe4\\xb8\\xaa\\xe7\\x9f\\xbf\\xe6\\xb1\\xa0,\\xe5\\xae\\x9a\\xe6\\x81\\xaf\\xe7\\x9f\\xbf\\xe6\\xb1\\xa0.sol\":3181:3191  msg.sender */\n      caller\n        /* \"\\xe8\\x87\\xaa\\xe5\\xb7\\xb1\\xe5\\x86\\x99\\xe4\\xb8\\xaa\\xe7\\x9f\\xbf\\xe6\\xb1\\xa0,\\xe5\\xae\\x9a\\xe6\\x81\\xaf\\xe7\\x9f\\xbf\\xe6\\xb1\\xa0.sol\":3172:3192  User_Map[msg.sender] */\n      0x00\n      swap1\n      dup2\n      mstore\n        /* \"\\xe8\\x87\\xaa\\xe5\\xb7\\xb1\\xe5\\x86\\x99\\xe4\\xb8\\xaa\\xe7\\x9f\\xbf\\xe6\\xb1\\xa0,\\xe5\\xae\\x9a\\xe6\\x81\\xaf\\xe7\\x9f\\xbf\\xe6\\xb1\\xa0.sol\":3172:3180  User_Map */\n      0x05\n        /* \"\\xe8\\x87\\xaa\\xe5\\xb7\\xb1\\xe5\\x86\\x99\\xe4\\xb8\\xaa\\xe7\\x9f\\xbf\\xe6\\xb1\\xa0,\\xe5\\xae\\x9a\\xe6\\x81\\xaf\\xe7\\x9f\\xbf\\xe6\\xb1\\xa0.sol\":3172:3192  User_Map[msg.sender] */\n      0x20\n      mstore\n      0x40\n      swap1\n      keccak256\n        /* \"\\xe8\\x87\\xaa\\xe5\\xb7\\xb1\\xe5\\x86\\x99\\xe4\\xb8\\xaa\\xe7\\x9f\\xbf\\xe6\\xb1\\xa0,\\xe5\\xae\\x9a\\xe6\\x81\\xaf\\xe7\\x9f\\xbf\\xe6\\xb1\\xa0.sol\":3172:3211  User_Map[msg.sender].last_totoken_ratio */\n      0x02\n      add\n      sload\n        /* \"\\xe8\\x87\\xaa\\xe5\\xb7\\xb1\\xe5\\x86\\x99\\xe4\\xb8\\xaa\\xe7\\x9f\\xbf\\xe6\\xb1\\xa0,\\xe5\\xae\\x9a\\xe6\\x81\\xaf\\xe7\\x9f\\xbf\\xe6\\xb1\\xa0.sol\":3172:3333  User_Map[msg.sender].last_totoken_ratio + (block.timestamp - User_Map[msg.sender].last_Stake_Time) * ((User_Map[msg.sender].stakeNumber * ratio /100) / 31536000) */\n      tag_93\n      swap2\n      swap1\n      tag_85\n      jump\t// in\n    tag_93:\n        /* \"\\xe8\\x87\\xaa\\xe5\\xb7\\xb1\\xe5\\x86\\x99\\xe4\\xb8\\xaa\\xe7\\x9f\\xbf\\xe6\\xb1\\xa0,\\xe5\\xae\\x9a\\xe6\\x81\\xaf\\xe7\\x9f\\xbf\\xe6\\xb1\\xa0.sol\":3139:3149  msg.sender */\n      caller\n        /* \"\\xe8\\x87\\xaa\\xe5\\xb7\\xb1\\xe5\\x86\\x99\\xe4\\xb8\\xaa\\xe7\\x9f\\xbf\\xe6\\xb1\\xa0,\\xe5\\xae\\x9a\\xe6\\x81\\xaf\\xe7\\x9f\\xbf\\xe6\\xb1\\xa0.sol\":3130:3150  User_Map[msg.sender] */\n      0x00\n      dup2\n      dup2\n      mstore\n        /* \"\\xe8\\x87\\xaa\\xe5\\xb7\\xb1\\xe5\\x86\\x99\\xe4\\xb8\\xaa\\xe7\\x9f\\xbf\\xe6\\xb1\\xa0,\\xe5\\xae\\x9a\\xe6\\x81\\xaf\\xe7\\x9f\\xbf\\xe6\\xb1\\xa0.sol\":3130:3138  User_Map */\n      0x05\n        /* \"\\xe8\\x87\\xaa\\xe5\\xb7\\xb1\\xe5\\x86\\x99\\xe4\\xb8\\xaa\\xe7\\x9f\\xbf\\xe6\\xb1\\xa0,\\xe5\\xae\\x9a\\xe6\\x81\\xaf\\xe7\\x9f\\xbf\\xe6\\xb1\\xa0.sol\":3130:3150  User_Map[msg.sender] */\n      0x20\n      dup2\n      swap1\n      mstore\n      0x40\n      swap2\n      dup3\n      swap1\n      keccak256\n        /* \"\\xe8\\x87\\xaa\\xe5\\xb7\\xb1\\xe5\\x86\\x99\\xe4\\xb8\\xaa\\xe7\\x9f\\xbf\\xe6\\xb1\\xa0,\\xe5\\xae\\x9a\\xe6\\x81\\xaf\\xe7\\x9f\\xbf\\xe6\\xb1\\xa0.sol\":3130:3168  User_Map[msg.sender].last_ratio_Number */\n      swap1\n      dup2\n      add\n        /* \"\\xe8\\x87\\xaa\\xe5\\xb7\\xb1\\xe5\\x86\\x99\\xe4\\xb8\\xaa\\xe7\\x9f\\xbf\\xe6\\xb1\\xa0,\\xe5\\xae\\x9a\\xe6\\x81\\xaf\\xe7\\x9f\\xbf\\xe6\\xb1\\xa0.sol\":3130:3333  User_Map[msg.sender].last_ratio_Number  = User_Map[msg.sender].last_totoken_ratio + (block.timestamp - User_Map[msg.sender].last_Stake_Time) * ((User_Map[msg.sender].stakeNumber * ratio /100) / 31536000) */\n      dup5\n      swap1\n      sstore\n        /* \"\\xe8\\x87\\xaa\\xe5\\xb7\\xb1\\xe5\\x86\\x99\\xe4\\xb8\\xaa\\xe7\\x9f\\xbf\\xe6\\xb1\\xa0,\\xe5\\xae\\x9a\\xe6\\x81\\xaf\\xe7\\x9f\\xbf\\xe6\\xb1\\xa0.sol\":3352:3384  User_Map[msg.sender].whole_ratio */\n      0x03\n      add\n        /* \"\\xe8\\x87\\xaa\\xe5\\xb7\\xb1\\xe5\\x86\\x99\\xe4\\xb8\\xaa\\xe7\\x9f\\xbf\\xe6\\xb1\\xa0,\\xe5\\xae\\x9a\\xe6\\x81\\xaf\\xe7\\x9f\\xbf\\xe6\\xb1\\xa0.sol\":3352:3426  User_Map[msg.sender].whole_ratio  = User_Map[msg.sender].last_ratio_Number */\n      dup4\n      swap1\n      sstore\n      0x02\n        /* \"\\xe8\\x87\\xaa\\xe5\\xb7\\xb1\\xe5\\x86\\x99\\xe4\\xb8\\xaa\\xe7\\x9f\\xbf\\xe6\\xb1\\xa0,\\xe5\\xae\\x9a\\xe6\\x81\\xaf\\xe7\\x9f\\xbf\\xe6\\xb1\\xa0.sol\":3444:3451  totoken */\n      sload\n        /* \"\\xe8\\x87\\xaa\\xe5\\xb7\\xb1\\xe5\\x86\\x99\\xe4\\xb8\\xaa\\xe7\\x9f\\xbf\\xe6\\xb1\\xa0,\\xe5\\xae\\x9a\\xe6\\x81\\xaf\\xe7\\x9f\\xbf\\xe6\\xb1\\xa0.sol\":3437:3508  IERC20(totoken).transfer(msg.sender,  User_Map[msg.sender].whole_ratio) */\n      swap1\n      mload\n      shl(0xe0, 0xa9059cbb)\n      dup2\n      mstore\n      0x04\n      dup2\n      add\n        /* \"#utility.yul\":1786:1837   */\n      swap3\n      swap1\n      swap3\n      mstore\n        /* \"#utility.yul\":1853:1871   */\n      0x24\n      dup3\n      add\n        /* \"#utility.yul\":1846:1880   */\n      swap3\n      swap1\n      swap3\n      mstore\n      sub(shl(0xa0, 0x01), 0x01)\n        /* \"\\xe8\\x87\\xaa\\xe5\\xb7\\xb1\\xe5\\x86\\x99\\xe4\\xb8\\xaa\\xe7\\x9f\\xbf\\xe6\\xb1\\xa0,\\xe5\\xae\\x9a\\xe6\\x81\\xaf\\xe7\\x9f\\xbf\\xe6\\xb1\\xa0.sol\":3444:3451  totoken */\n      swap1\n      swap2\n      and\n      swap1\n        /* \"\\xe8\\x87\\xaa\\xe5\\xb7\\xb1\\xe5\\x86\\x99\\xe4\\xb8\\xaa\\xe7\\x9f\\xbf\\xe6\\xb1\\xa0,\\xe5\\xae\\x9a\\xe6\\x81\\xaf\\xe7\\x9f\\xbf\\xe6\\xb1\\xa0.sol\":3437:3461  IERC20(totoken).transfer */\n      0xa9059cbb\n      swap1\n        /* \"#utility.yul\":1759:1777   */\n      0x44\n      add\n        /* \"\\xe8\\x87\\xaa\\xe5\\xb7\\xb1\\xe5\\x86\\x99\\xe4\\xb8\\xaa\\xe7\\x9f\\xbf\\xe6\\xb1\\xa0,\\xe5\\xae\\x9a\\xe6\\x81\\xaf\\xe7\\x9f\\xbf\\xe6\\xb1\\xa0.sol\":3437:3508  IERC20(totoken).transfer(msg.sender,  User_Map[msg.sender].whole_ratio) */\n      0x20\n      mload(0x40)\n      dup1\n      dup4\n      sub\n      dup2\n      0x00\n      dup8\n      gas\n      call\n      iszero\n      dup1\n      iszero\n      tag_96\n      jumpi\n      returndatasize\n      0x00\n      dup1\n      returndatacopy\n      revert(0x00, returndatasize)\n    tag_96:\n      pop\n      pop\n      pop\n      pop\n      mload(0x40)\n      returndatasize\n      not(0x1f)\n      0x1f\n      dup3\n      add\n      and\n      dup3\n      add\n      dup1\n      0x40\n      mstore\n      pop\n      dup2\n      add\n      swap1\n      tag_97\n      swap2\n      swap1\n      tag_66\n      jump\t// in\n    tag_97:\n      pop\n        /* \"\\xe8\\x87\\xaa\\xe5\\xb7\\xb1\\xe5\\x86\\x99\\xe4\\xb8\\xaa\\xe7\\x9f\\xbf\\xe6\\xb1\\xa0,\\xe5\\xae\\x9a\\xe6\\x81\\xaf\\xe7\\x9f\\xbf\\xe6\\xb1\\xa0.sol\":3536:3546  msg.sender */\n      caller\n        /* \"\\xe8\\x87\\xaa\\xe5\\xb7\\xb1\\xe5\\x86\\x99\\xe4\\xb8\\xaa\\xe7\\x9f\\xbf\\xe6\\xb1\\xa0,\\xe5\\xae\\x9a\\xe6\\x81\\xaf\\xe7\\x9f\\xbf\\xe6\\xb1\\xa0.sol\":3548:3568  User_Map[msg.sender] */\n      0x00\n      dup2\n      dup2\n      mstore\n        /* \"\\xe8\\x87\\xaa\\xe5\\xb7\\xb1\\xe5\\x86\\x99\\xe4\\xb8\\xaa\\xe7\\x9f\\xbf\\xe6\\xb1\\xa0,\\xe5\\xae\\x9a\\xe6\\x81\\xaf\\xe7\\x9f\\xbf\\xe6\\xb1\\xa0.sol\":3548:3556  User_Map */\n      0x05\n        /* \"\\xe8\\x87\\xaa\\xe5\\xb7\\xb1\\xe5\\x86\\x99\\xe4\\xb8\\xaa\\xe7\\x9f\\xbf\\xe6\\xb1\\xa0,\\xe5\\xae\\x9a\\xe6\\x81\\xaf\\xe7\\x9f\\xbf\\xe6\\xb1\\xa0.sol\":3548:3568  User_Map[msg.sender] */\n      0x20\n      swap1\n      dup2\n      mstore\n      0x40\n      swap2\n      dup3\n      swap1\n      keccak256\n        /* \"\\xe8\\x87\\xaa\\xe5\\xb7\\xb1\\xe5\\x86\\x99\\xe4\\xb8\\xaa\\xe7\\x9f\\xbf\\xe6\\xb1\\xa0,\\xe5\\xae\\x9a\\xe6\\x81\\xaf\\xe7\\x9f\\xbf\\xe6\\xb1\\xa0.sol\":3548:3580  User_Map[msg.sender].whole_ratio */\n      0x03\n      add\n      sload\n        /* \"\\xe8\\x87\\xaa\\xe5\\xb7\\xb1\\xe5\\x86\\x99\\xe4\\xb8\\xaa\\xe7\\x9f\\xbf\\xe6\\xb1\\xa0,\\xe5\\xae\\x9a\\xe6\\x81\\xaf\\xe7\\x9f\\xbf\\xe6\\xb1\\xa0.sol\":3527:3581  transfer(msg.sender, User_Map[msg.sender].whole_ratio) */\n      swap2\n      mload\n        /* \"#utility.yul\":745:770   */\n      swap2\n      dup3\n      mstore\n        /* \"\\xe8\\x87\\xaa\\xe5\\xb7\\xb1\\xe5\\x86\\x99\\xe4\\xb8\\xaa\\xe7\\x9f\\xbf\\xe6\\xb1\\xa0,\\xe5\\xae\\x9a\\xe6\\x81\\xaf\\xe7\\x9f\\xbf\\xe6\\xb1\\xa0.sol\":3527:3581  transfer(msg.sender, User_Map[msg.sender].whole_ratio) */\n      0xa9059cbb2ab09eb219583f4a59a5d0623ade346d962bcd4e46b11da047c9049b\n      swap2\n        /* \"#utility.yul\":718:736   */\n      add\n        /* \"\\xe8\\x87\\xaa\\xe5\\xb7\\xb1\\xe5\\x86\\x99\\xe4\\xb8\\xaa\\xe7\\x9f\\xbf\\xe6\\xb1\\xa0,\\xe5\\xae\\x9a\\xe6\\x81\\xaf\\xe7\\x9f\\xbf\\xe6\\xb1\\xa0.sol\":3527:3581  transfer(msg.sender, User_Map[msg.sender].whole_ratio) */\n      mload(0x40)\n      dup1\n      swap2\n      sub\n      swap1\n      log2\n      pop\n        /* \"\\xe8\\x87\\xaa\\xe5\\xb7\\xb1\\xe5\\x86\\x99\\xe4\\xb8\\xaa\\xe7\\x9f\\xbf\\xe6\\xb1\\xa0,\\xe5\\xae\\x9a\\xe6\\x81\\xaf\\xe7\\x9f\\xbf\\xe6\\xb1\\xa0.sol\":3603:3613  msg.sender */\n      caller\n        /* \"\\xe8\\x87\\xaa\\xe5\\xb7\\xb1\\xe5\\x86\\x99\\xe4\\xb8\\xaa\\xe7\\x9f\\xbf\\xe6\\xb1\\xa0,\\xe5\\xae\\x9a\\xe6\\x81\\xaf\\xe7\\x9f\\xbf\\xe6\\xb1\\xa0.sol\":3629:3630  0 */\n      0x00\n        /* \"\\xe8\\x87\\xaa\\xe5\\xb7\\xb1\\xe5\\x86\\x99\\xe4\\xb8\\xaa\\xe7\\x9f\\xbf\\xe6\\xb1\\xa0,\\xe5\\xae\\x9a\\xe6\\x81\\xaf\\xe7\\x9f\\xbf\\xe6\\xb1\\xa0.sol\":3594:3614  User_Map[msg.sender] */\n      swap1\n      dup2\n      mstore\n        /* \"\\xe8\\x87\\xaa\\xe5\\xb7\\xb1\\xe5\\x86\\x99\\xe4\\xb8\\xaa\\xe7\\x9f\\xbf\\xe6\\xb1\\xa0,\\xe5\\xae\\x9a\\xe6\\x81\\xaf\\xe7\\x9f\\xbf\\xe6\\xb1\\xa0.sol\":3594:3602  User_Map */\n      0x05\n        /* \"\\xe8\\x87\\xaa\\xe5\\xb7\\xb1\\xe5\\x86\\x99\\xe4\\xb8\\xaa\\xe7\\x9f\\xbf\\xe6\\xb1\\xa0,\\xe5\\xae\\x9a\\xe6\\x81\\xaf\\xe7\\x9f\\xbf\\xe6\\xb1\\xa0.sol\":3594:3614  User_Map[msg.sender] */\n      0x20\n      mstore\n      0x40\n      dup2\n      keccak256\n        /* \"\\xe8\\x87\\xaa\\xe5\\xb7\\xb1\\xe5\\x86\\x99\\xe4\\xb8\\xaa\\xe7\\x9f\\xbf\\xe6\\xb1\\xa0,\\xe5\\xae\\x9a\\xe6\\x81\\xaf\\xe7\\x9f\\xbf\\xe6\\xb1\\xa0.sol\":3594:3626  User_Map[msg.sender].whole_ratio */\n      0x03\n      dup2\n      add\n        /* \"\\xe8\\x87\\xaa\\xe5\\xb7\\xb1\\xe5\\x86\\x99\\xe4\\xb8\\xaa\\xe7\\x9f\\xbf\\xe6\\xb1\\xa0,\\xe5\\xae\\x9a\\xe6\\x81\\xaf\\xe7\\x9f\\xbf\\xe6\\xb1\\xa0.sol\":3594:3630  User_Map[msg.sender].whole_ratio = 0 */\n      dup3\n      swap1\n      sstore\n        /* \"\\xe8\\x87\\xaa\\xe5\\xb7\\xb1\\xe5\\x86\\x99\\xe4\\xb8\\xaa\\xe7\\x9f\\xbf\\xe6\\xb1\\xa0,\\xe5\\xae\\x9a\\xe6\\x81\\xaf\\xe7\\x9f\\xbf\\xe6\\xb1\\xa0.sol\":3642:3681  User_Map[msg.sender].last_totoken_ratio */\n      0x02\n      dup2\n      add\n        /* \"\\xe8\\x87\\xaa\\xe5\\xb7\\xb1\\xe5\\x86\\x99\\xe4\\xb8\\xaa\\xe7\\x9f\\xbf\\xe6\\xb1\\xa0,\\xe5\\xae\\x9a\\xe6\\x81\\xaf\\xe7\\x9f\\xbf\\xe6\\xb1\\xa0.sol\":3642:3685  User_Map[msg.sender].last_totoken_ratio = 0 */\n      swap2\n      swap1\n      swap2\n      sstore\n        /* \"\\xe8\\x87\\xaa\\xe5\\xb7\\xb1\\xe5\\x86\\x99\\xe4\\xb8\\xaa\\xe7\\x9f\\xbf\\xe6\\xb1\\xa0,\\xe5\\xae\\x9a\\xe6\\x81\\xaf\\xe7\\x9f\\xbf\\xe6\\xb1\\xa0.sol\":3737:3752  block.timestamp */\n      timestamp\n        /* \"\\xe8\\x87\\xaa\\xe5\\xb7\\xb1\\xe5\\x86\\x99\\xe4\\xb8\\xaa\\xe7\\x9f\\xbf\\xe6\\xb1\\xa0,\\xe5\\xae\\x9a\\xe6\\x81\\xaf\\xe7\\x9f\\xbf\\xe6\\xb1\\xa0.sol\":3696:3734  User_Map[msg.sender].last_totoken_Time */\n      0x04\n      swap1\n      swap2\n      add\n        /* \"\\xe8\\x87\\xaa\\xe5\\xb7\\xb1\\xe5\\x86\\x99\\xe4\\xb8\\xaa\\xe7\\x9f\\xbf\\xe6\\xb1\\xa0,\\xe5\\xae\\x9a\\xe6\\x81\\xaf\\xe7\\x9f\\xbf\\xe6\\xb1\\xa0.sol\":3696:3752  User_Map[msg.sender].last_totoken_Time = block.timestamp */\n      sstore\n      0x01\n      swap1\n        /* \"\\xe8\\x87\\xaa\\xe5\\xb7\\xb1\\xe5\\x86\\x99\\xe4\\xb8\\xaa\\xe7\\x9f\\xbf\\xe6\\xb1\\xa0,\\xe5\\xae\\x9a\\xe6\\x81\\xaf\\xe7\\x9f\\xbf\\xe6\\xb1\\xa0.sol\":3076:3782  function harvest() public returns (bool) {... */\n      jump\t// out\n        /* \"\\xe8\\x87\\xaa\\xe5\\xb7\\xb1\\xe5\\x86\\x99\\xe4\\xb8\\xaa\\xe7\\x9f\\xbf\\xe6\\xb1\\xa0,\\xe5\\xae\\x9a\\xe6\\x81\\xaf\\xe7\\x9f\\xbf\\xe6\\xb1\\xa0.sol\":4136:4423  function newTotokenRatio() public view returns (uint) {... */\n    tag_33:\n        /* \"\\xe8\\x87\\xaa\\xe5\\xb7\\xb1\\xe5\\x86\\x99\\xe4\\xb8\\xaa\\xe7\\x9f\\xbf\\xe6\\xb1\\xa0,\\xe5\\xae\\x9a\\xe6\\x81\\xaf\\xe7\\x9f\\xbf\\xe6\\xb1\\xa0.sol\":4243:4253  msg.sender */\n      caller\n        /* \"\\xe8\\x87\\xaa\\xe5\\xb7\\xb1\\xe5\\x86\\x99\\xe4\\xb8\\xaa\\xe7\\x9f\\xbf\\xe6\\xb1\\xa0,\\xe5\\xae\\x9a\\xe6\\x81\\xaf\\xe7\\x9f\\xbf\\xe6\\xb1\\xa0.sol\":4184:4188  uint */\n      0x00\n        /* \"\\xe8\\x87\\xaa\\xe5\\xb7\\xb1\\xe5\\x86\\x99\\xe4\\xb8\\xaa\\xe7\\x9f\\xbf\\xe6\\xb1\\xa0,\\xe5\\xae\\x9a\\xe6\\x81\\xaf\\xe7\\x9f\\xbf\\xe6\\xb1\\xa0.sol\":4234:4254  User_Map[msg.sender] */\n      swap1\n      dup2\n      mstore\n        /* \"\\xe8\\x87\\xaa\\xe5\\xb7\\xb1\\xe5\\x86\\x99\\xe4\\xb8\\xaa\\xe7\\x9f\\xbf\\xe6\\xb1\\xa0,\\xe5\\xae\\x9a\\xe6\\x81\\xaf\\xe7\\x9f\\xbf\\xe6\\xb1\\xa0.sol\":4234:4242  User_Map */\n      0x05\n        /* \"\\xe8\\x87\\xaa\\xe5\\xb7\\xb1\\xe5\\x86\\x99\\xe4\\xb8\\xaa\\xe7\\x9f\\xbf\\xe6\\xb1\\xa0,\\xe5\\xae\\x9a\\xe6\\x81\\xaf\\xe7\\x9f\\xbf\\xe6\\xb1\\xa0.sol\":4234:4254  User_Map[msg.sender] */\n      0x20\n      mstore\n      0x40\n      dup2\n      keccak256\n        /* \"\\xe8\\x87\\xaa\\xe5\\xb7\\xb1\\xe5\\x86\\x99\\xe4\\xb8\\xaa\\xe7\\x9f\\xbf\\xe6\\xb1\\xa0,\\xe5\\xae\\x9a\\xe6\\x81\\xaf\\xe7\\x9f\\xbf\\xe6\\xb1\\xa0.sol\":4234:4272  User_Map[msg.sender].last_totoken_Time */\n      0x04\n      add\n      sload\n        /* \"\\xe8\\x87\\xaa\\xe5\\xb7\\xb1\\xe5\\x86\\x99\\xe4\\xb8\\xaa\\xe7\\x9f\\xbf\\xe6\\xb1\\xa0,\\xe5\\xae\\x9a\\xe6\\x81\\xaf\\xe7\\x9f\\xbf\\xe6\\xb1\\xa0.sol\":4184:4188  uint */\n      dup2\n      swap1\n        /* \"\\xe8\\x87\\xaa\\xe5\\xb7\\xb1\\xe5\\x86\\x99\\xe4\\xb8\\xaa\\xe7\\x9f\\xbf\\xe6\\xb1\\xa0,\\xe5\\xae\\x9a\\xe6\\x81\\xaf\\xe7\\x9f\\xbf\\xe6\\xb1\\xa0.sol\":4216:4272  block.timestamp - User_Map[msg.sender].last_totoken_Time */\n      tag_100\n      swap1\n        /* \"\\xe8\\x87\\xaa\\xe5\\xb7\\xb1\\xe5\\x86\\x99\\xe4\\xb8\\xaa\\xe7\\x9f\\xbf\\xe6\\xb1\\xa0,\\xe5\\xae\\x9a\\xe6\\x81\\xaf\\xe7\\x9f\\xbf\\xe6\\xb1\\xa0.sol\":4216:4231  block.timestamp */\n      timestamp\n        /* \"\\xe8\\x87\\xaa\\xe5\\xb7\\xb1\\xe5\\x86\\x99\\xe4\\xb8\\xaa\\xe7\\x9f\\xbf\\xe6\\xb1\\xa0,\\xe5\\xae\\x9a\\xe6\\x81\\xaf\\xe7\\x9f\\xbf\\xe6\\xb1\\xa0.sol\":4216:4272  block.timestamp - User_Map[msg.sender].last_totoken_Time */\n      tag_69\n      jump\t// in\n    tag_100:\n        /* \"\\xe8\\x87\\xaa\\xe5\\xb7\\xb1\\xe5\\x86\\x99\\xe4\\xb8\\xaa\\xe7\\x9f\\xbf\\xe6\\xb1\\xa0,\\xe5\\xae\\x9a\\xe6\\x81\\xaf\\xe7\\x9f\\xbf\\xe6\\xb1\\xa0.sol\":4283:4305  uint newTotokenRatione */\n      0x00\n        /* \"\\xe8\\x87\\xaa\\xe5\\xb7\\xb1\\xe5\\x86\\x99\\xe4\\xb8\\xaa\\xe7\\x9f\\xbf\\xe6\\xb1\\xa0,\\xe5\\xae\\x9a\\xe6\\x81\\xaf\\xe7\\x9f\\xbf\\xe6\\xb1\\xa0.sol\":4355:4360  ratio */\n      dup1\n      sload\n        /* \"\\xe8\\x87\\xaa\\xe5\\xb7\\xb1\\xe5\\x86\\x99\\xe4\\xb8\\xaa\\xe7\\x9f\\xbf\\xe6\\xb1\\xa0,\\xe5\\xae\\x9a\\xe6\\x81\\xaf\\xe7\\x9f\\xbf\\xe6\\xb1\\xa0.sol\":4329:4339  msg.sender */\n      caller\n        /* \"\\xe8\\x87\\xaa\\xe5\\xb7\\xb1\\xe5\\x86\\x99\\xe4\\xb8\\xaa\\xe7\\x9f\\xbf\\xe6\\xb1\\xa0,\\xe5\\xae\\x9a\\xe6\\x81\\xaf\\xe7\\x9f\\xbf\\xe6\\xb1\\xa0.sol\":4320:4340  User_Map[msg.sender] */\n      dup3\n      mstore\n        /* \"\\xe8\\x87\\xaa\\xe5\\xb7\\xb1\\xe5\\x86\\x99\\xe4\\xb8\\xaa\\xe7\\x9f\\xbf\\xe6\\xb1\\xa0,\\xe5\\xae\\x9a\\xe6\\x81\\xaf\\xe7\\x9f\\xbf\\xe6\\xb1\\xa0.sol\":4320:4328  User_Map */\n      0x05\n        /* \"\\xe8\\x87\\xaa\\xe5\\xb7\\xb1\\xe5\\x86\\x99\\xe4\\xb8\\xaa\\xe7\\x9f\\xbf\\xe6\\xb1\\xa0,\\xe5\\xae\\x9a\\xe6\\x81\\xaf\\xe7\\x9f\\xbf\\xe6\\xb1\\xa0.sol\":4320:4340  User_Map[msg.sender] */\n      0x20\n      mstore\n      0x40\n      dup3\n      keccak256\n        /* \"\\xe8\\x87\\xaa\\xe5\\xb7\\xb1\\xe5\\x86\\x99\\xe4\\xb8\\xaa\\xe7\\x9f\\xbf\\xe6\\xb1\\xa0,\\xe5\\xae\\x9a\\xe6\\x81\\xaf\\xe7\\x9f\\xbf\\xe6\\xb1\\xa0.sol\":4320:4352  User_Map[msg.sender].stakeNumber */\n      sload\n        /* \"\\xe8\\x87\\xaa\\xe5\\xb7\\xb1\\xe5\\x86\\x99\\xe4\\xb8\\xaa\\xe7\\x9f\\xbf\\xe6\\xb1\\xa0,\\xe5\\xae\\x9a\\xe6\\x81\\xaf\\xe7\\x9f\\xbf\\xe6\\xb1\\xa0.sol\":4201:4272  uint newtime = block.timestamp - User_Map[msg.sender].last_totoken_Time */\n      swap3\n      swap4\n      pop\n        /* \"\\xe8\\x87\\xaa\\xe5\\xb7\\xb1\\xe5\\x86\\x99\\xe4\\xb8\\xaa\\xe7\\x9f\\xbf\\xe6\\xb1\\xa0,\\xe5\\xae\\x9a\\xe6\\x81\\xaf\\xe7\\x9f\\xbf\\xe6\\xb1\\xa0.sol\":4283:4305  uint newTotokenRatione */\n      swap1\n      swap2\n        /* \"\\xe8\\x87\\xaa\\xe5\\xb7\\xb1\\xe5\\x86\\x99\\xe4\\xb8\\xaa\\xe7\\x9f\\xbf\\xe6\\xb1\\xa0,\\xe5\\xae\\x9a\\xe6\\x81\\xaf\\xe7\\x9f\\xbf\\xe6\\xb1\\xa0.sol\":4369:4377  31536000 */\n      0x01e13380\n      swap2\n        /* \"\\xe8\\x87\\xaa\\xe5\\xb7\\xb1\\xe5\\x86\\x99\\xe4\\xb8\\xaa\\xe7\\x9f\\xbf\\xe6\\xb1\\xa0,\\xe5\\xae\\x9a\\xe6\\x81\\xaf\\xe7\\x9f\\xbf\\xe6\\xb1\\xa0.sol\":4362:4365  100 */\n      0x64\n      swap2\n        /* \"\\xe8\\x87\\xaa\\xe5\\xb7\\xb1\\xe5\\x86\\x99\\xe4\\xb8\\xaa\\xe7\\x9f\\xbf\\xe6\\xb1\\xa0,\\xe5\\xae\\x9a\\xe6\\x81\\xaf\\xe7\\x9f\\xbf\\xe6\\xb1\\xa0.sol\":4320:4360  User_Map[msg.sender].stakeNumber * ratio */\n      tag_101\n      swap2\n        /* \"\\xe8\\x87\\xaa\\xe5\\xb7\\xb1\\xe5\\x86\\x99\\xe4\\xb8\\xaa\\xe7\\x9f\\xbf\\xe6\\xb1\\xa0,\\xe5\\xae\\x9a\\xe6\\x81\\xaf\\xe7\\x9f\\xbf\\xe6\\xb1\\xa0.sol\":4355:4360  ratio */\n      swap1\n        /* \"\\xe8\\x87\\xaa\\xe5\\xb7\\xb1\\xe5\\x86\\x99\\xe4\\xb8\\xaa\\xe7\\x9f\\xbf\\xe6\\xb1\\xa0,\\xe5\\xae\\x9a\\xe6\\x81\\xaf\\xe7\\x9f\\xbf\\xe6\\xb1\\xa0.sol\":4320:4360  User_Map[msg.sender].stakeNumber * ratio */\n      tag_78\n      jump\t// in\n    tag_101:\n        /* \"\\xe8\\x87\\xaa\\xe5\\xb7\\xb1\\xe5\\x86\\x99\\xe4\\xb8\\xaa\\xe7\\x9f\\xbf\\xe6\\xb1\\xa0,\\xe5\\xae\\x9a\\xe6\\x81\\xaf\\xe7\\x9f\\xbf\\xe6\\xb1\\xa0.sol\":4320:4365  User_Map[msg.sender].stakeNumber * ratio /100 */\n      tag_102\n      swap2\n      swap1\n      tag_80\n      jump\t// in\n    tag_102:\n        /* \"\\xe8\\x87\\xaa\\xe5\\xb7\\xb1\\xe5\\x86\\x99\\xe4\\xb8\\xaa\\xe7\\x9f\\xbf\\xe6\\xb1\\xa0,\\xe5\\xae\\x9a\\xe6\\x81\\xaf\\xe7\\x9f\\xbf\\xe6\\xb1\\xa0.sol\":4319:4377  (User_Map[msg.sender].stakeNumber * ratio /100) / 31536000 */\n      tag_103\n      swap2\n      swap1\n      tag_80\n      jump\t// in\n    tag_103:\n        /* \"\\xe8\\x87\\xaa\\xe5\\xb7\\xb1\\xe5\\x86\\x99\\xe4\\xb8\\xaa\\xe7\\x9f\\xbf\\xe6\\xb1\\xa0,\\xe5\\xae\\x9a\\xe6\\x81\\xaf\\xe7\\x9f\\xbf\\xe6\\xb1\\xa0.sol\":4308:4378  newtime * ((User_Map[msg.sender].stakeNumber * ratio /100) / 31536000) */\n      tag_104\n      swap1\n        /* \"\\xe8\\x87\\xaa\\xe5\\xb7\\xb1\\xe5\\x86\\x99\\xe4\\xb8\\xaa\\xe7\\x9f\\xbf\\xe6\\xb1\\xa0,\\xe5\\xae\\x9a\\xe6\\x81\\xaf\\xe7\\x9f\\xbf\\xe6\\xb1\\xa0.sol\":4308:4315  newtime */\n      dup4\n        /* \"\\xe8\\x87\\xaa\\xe5\\xb7\\xb1\\xe5\\x86\\x99\\xe4\\xb8\\xaa\\xe7\\x9f\\xbf\\xe6\\xb1\\xa0,\\xe5\\xae\\x9a\\xe6\\x81\\xaf\\xe7\\x9f\\xbf\\xe6\\xb1\\xa0.sol\":4308:4378  newtime * ((User_Map[msg.sender].stakeNumber * ratio /100) / 31536000) */\n      tag_78\n      jump\t// in\n    tag_104:\n        /* \"\\xe8\\x87\\xaa\\xe5\\xb7\\xb1\\xe5\\x86\\x99\\xe4\\xb8\\xaa\\xe7\\x9f\\xbf\\xe6\\xb1\\xa0,\\xe5\\xae\\x9a\\xe6\\x81\\xaf\\xe7\\x9f\\xbf\\xe6\\xb1\\xa0.sol\":4283:4378  uint newTotokenRatione = newtime * ((User_Map[msg.sender].stakeNumber * ratio /100) / 31536000) */\n      swap4\n        /* \"\\xe8\\x87\\xaa\\xe5\\xb7\\xb1\\xe5\\x86\\x99\\xe4\\xb8\\xaa\\xe7\\x9f\\xbf\\xe6\\xb1\\xa0,\\xe5\\xae\\x9a\\xe6\\x81\\xaf\\xe7\\x9f\\xbf\\xe6\\xb1\\xa0.sol\":4136:4423  function newTotokenRatio() public view returns (uint) {... */\n      swap3\n      pop\n      pop\n      pop\n      jump\t// out\n        /* \"\\xe8\\x87\\xaa\\xe5\\xb7\\xb1\\xe5\\x86\\x99\\xe4\\xb8\\xaa\\xe7\\x9f\\xbf\\xe6\\xb1\\xa0,\\xe5\\xae\\x9a\\xe6\\x81\\xaf\\xe7\\x9f\\xbf\\xe6\\xb1\\xa0.sol\":1967:2059  function setRatio(uint _ratio) external onlyOwner {    ... */\n    tag_53:\n        /* \"\\xe8\\x87\\xaa\\xe5\\xb7\\xb1\\xe5\\x86\\x99\\xe4\\xb8\\xaa\\xe7\\x9f\\xbf\\xe6\\xb1\\xa0,\\xe5\\xae\\x9a\\xe6\\x81\\xaf\\xe7\\x9f\\xbf\\xe6\\xb1\\xa0.sol\":1816:1821  owner */\n      and(sub(shl(0xa0, 0x01), 0x01), sload(0x04))\n        /* \"\\xe8\\x87\\xaa\\xe5\\xb7\\xb1\\xe5\\x86\\x99\\xe4\\xb8\\xaa\\xe7\\x9f\\xbf\\xe6\\xb1\\xa0,\\xe5\\xae\\x9a\\xe6\\x81\\xaf\\xe7\\x9f\\xbf\\xe6\\xb1\\xa0.sol\":1802:1812  msg.sender */\n      caller\n        /* \"\\xe8\\x87\\xaa\\xe5\\xb7\\xb1\\xe5\\x86\\x99\\xe4\\xb8\\xaa\\xe7\\x9f\\xbf\\xe6\\xb1\\xa0,\\xe5\\xae\\x9a\\xe6\\x81\\xaf\\xe7\\x9f\\xbf\\xe6\\xb1\\xa0.sol\":1802:1821  msg.sender == owner */\n      eq\n        /* \"\\xe8\\x87\\xaa\\xe5\\xb7\\xb1\\xe5\\x86\\x99\\xe4\\xb8\\xaa\\xe7\\x9f\\xbf\\xe6\\xb1\\xa0,\\xe5\\xae\\x9a\\xe6\\x81\\xaf\\xe7\\x9f\\xbf\\xe6\\xb1\\xa0.sol\":1794:1836  require(msg.sender == owner , \"not owner\") */\n      tag_107\n      jumpi\n      mload(0x40)\n      shl(0xe5, 0x461bcd)\n      dup2\n      mstore\n        /* \"#utility.yul\":3545:3547   */\n      0x20\n        /* \"\\xe8\\x87\\xaa\\xe5\\xb7\\xb1\\xe5\\x86\\x99\\xe4\\xb8\\xaa\\xe7\\x9f\\xbf\\xe6\\xb1\\xa0,\\xe5\\xae\\x9a\\xe6\\x81\\xaf\\xe7\\x9f\\xbf\\xe6\\xb1\\xa0.sol\":1794:1836  require(msg.sender == owner , \"not owner\") */\n      0x04\n      dup3\n      add\n        /* \"#utility.yul\":3527:3548   */\n      mstore\n        /* \"#utility.yul\":3584:3585   */\n      0x09\n        /* \"#utility.yul\":3564:3582   */\n      0x24\n      dup3\n      add\n        /* \"#utility.yul\":3557:3586   */\n      mstore\n      shl(0xb9, 0x3737ba1037bbb732b9)\n        /* \"#utility.yul\":3602:3620   */\n      0x44\n      dup3\n      add\n        /* \"#utility.yul\":3595:3634   */\n      mstore\n        /* \"#utility.yul\":3651:3669   */\n      0x64\n      add\n        /* \"\\xe8\\x87\\xaa\\xe5\\xb7\\xb1\\xe5\\x86\\x99\\xe4\\xb8\\xaa\\xe7\\x9f\\xbf\\xe6\\xb1\\xa0,\\xe5\\xae\\x9a\\xe6\\x81\\xaf\\xe7\\x9f\\xbf\\xe6\\xb1\\xa0.sol\":1794:1836  require(msg.sender == owner , \"not owner\") */\n      mload(0x40)\n      dup1\n      swap2\n      sub\n      swap1\n      revert\n    tag_107:\n        /* \"\\xe8\\x87\\xaa\\xe5\\xb7\\xb1\\xe5\\x86\\x99\\xe4\\xb8\\xaa\\xe7\\x9f\\xbf\\xe6\\xb1\\xa0,\\xe5\\xae\\x9a\\xe6\\x81\\xaf\\xe7\\x9f\\xbf\\xe6\\xb1\\xa0.sol\":2032:2037  ratio */\n      0x00\n        /* \"\\xe8\\x87\\xaa\\xe5\\xb7\\xb1\\xe5\\x86\\x99\\xe4\\xb8\\xaa\\xe7\\x9f\\xbf\\xe6\\xb1\\xa0,\\xe5\\xae\\x9a\\xe6\\x81\\xaf\\xe7\\x9f\\xbf\\xe6\\xb1\\xa0.sol\":2032:2046  ratio = _ratio */\n      sstore\n        /* \"\\xe8\\x87\\xaa\\xe5\\xb7\\xb1\\xe5\\x86\\x99\\xe4\\xb8\\xaa\\xe7\\x9f\\xbf\\xe6\\xb1\\xa0,\\xe5\\xae\\x9a\\xe6\\x81\\xaf\\xe7\\x9f\\xbf\\xe6\\xb1\\xa0.sol\":1967:2059  function setRatio(uint _ratio) external onlyOwner {    ... */\n      jump\t// out\n        /* \"#utility.yul\":206:386   */\n    tag_22:\n        /* \"#utility.yul\":265:271   */\n      0x00\n        /* \"#utility.yul\":318:320   */\n      0x20\n        /* \"#utility.yul\":306:315   */\n      dup3\n        /* \"#utility.yul\":297:304   */\n      dup5\n        /* \"#utility.yul\":293:316   */\n      sub\n        /* \"#utility.yul\":289:321   */\n      slt\n        /* \"#utility.yul\":286:338   */\n      iszero\n      tag_115\n      jumpi\n        /* \"#utility.yul\":334:335   */\n      0x00\n        /* \"#utility.yul\":331:332   */\n      dup1\n        /* \"#utility.yul\":324:336   */\n      revert\n        /* \"#utility.yul\":286:338   */\n    tag_115:\n      pop\n        /* \"#utility.yul\":357:380   */\n      calldataload\n      swap2\n        /* \"#utility.yul\":206:386   */\n      swap1\n      pop\n      jump\t// out\n        /* \"#utility.yul\":781:1067   */\n    tag_44:\n        /* \"#utility.yul\":840:846   */\n      0x00\n        /* \"#utility.yul\":893:895   */\n      0x20\n        /* \"#utility.yul\":881:890   */\n      dup3\n        /* \"#utility.yul\":872:879   */\n      dup5\n        /* \"#utility.yul\":868:891   */\n      sub\n        /* \"#utility.yul\":864:896   */\n      slt\n        /* \"#utility.yul\":861:913   */\n      iszero\n      tag_119\n      jumpi\n        /* \"#utility.yul\":909:910   */\n      0x00\n        /* \"#utility.yul\":906:907   */\n      dup1\n        /* \"#utility.yul\":899:911   */\n      revert\n        /* \"#utility.yul\":861:913   */\n    tag_119:\n        /* \"#utility.yul\":935:958   */\n      dup2\n      calldataload\n      sub(shl(0xa0, 0x01), 0x01)\n        /* \"#utility.yul\":987:1018   */\n      dup2\n      and\n        /* \"#utility.yul\":977:1019   */\n      dup2\n      eq\n        /* \"#utility.yul\":967:1037   */\n      tag_104\n      jumpi\n        /* \"#utility.yul\":1033:1034   */\n      0x00\n        /* \"#utility.yul\":1030:1031   */\n      dup1\n        /* \"#utility.yul\":1023:1035   */\n      revert\n        /* \"#utility.yul\":1891:2168   */\n    tag_66:\n        /* \"#utility.yul\":1958:1964   */\n      0x00\n        /* \"#utility.yul\":2011:2013   */\n      0x20\n        /* \"#utility.yul\":1999:2008   */\n      dup3\n        /* \"#utility.yul\":1990:1997   */\n      dup5\n        /* \"#utility.yul\":1986:2009   */\n      sub\n        /* \"#utility.yul\":1982:2014   */\n      slt\n        /* \"#utility.yul\":1979:2031   */\n      iszero\n      tag_124\n      jumpi\n        /* \"#utility.yul\":2027:2028   */\n      0x00\n        /* \"#utility.yul\":2024:2025   */\n      dup1\n        /* \"#utility.yul\":2017:2029   */\n      revert\n        /* \"#utility.yul\":1979:2031   */\n    tag_124:\n        /* \"#utility.yul\":2059:2068   */\n      dup2\n        /* \"#utility.yul\":2053:2069   */\n      mload\n        /* \"#utility.yul\":2112:2117   */\n      dup1\n        /* \"#utility.yul\":2105:2118   */\n      iszero\n        /* \"#utility.yul\":2098:2119   */\n      iszero\n        /* \"#utility.yul\":2091:2096   */\n      dup2\n        /* \"#utility.yul\":2088:2120   */\n      eq\n        /* \"#utility.yul\":2078:2138   */\n      tag_104\n      jumpi\n        /* \"#utility.yul\":2134:2135   */\n      0x00\n        /* \"#utility.yul\":2131:2132   */\n      dup1\n        /* \"#utility.yul\":2124:2136   */\n      revert\n        /* \"#utility.yul\":2173:2300   */\n    tag_111:\n        /* \"#utility.yul\":2234:2244   */\n      0x4e487b71\n        /* \"#utility.yul\":2229:2232   */\n      0xe0\n        /* \"#utility.yul\":2225:2245   */\n      shl\n        /* \"#utility.yul\":2222:2223   */\n      0x00\n        /* \"#utility.yul\":2215:2246   */\n      mstore\n        /* \"#utility.yul\":2265:2269   */\n      0x11\n        /* \"#utility.yul\":2262:2263   */\n      0x04\n        /* \"#utility.yul\":2255:2270   */\n      mstore\n        /* \"#utility.yul\":2289:2293   */\n      0x24\n        /* \"#utility.yul\":2286:2287   */\n      0x00\n        /* \"#utility.yul\":2279:2294   */\n      revert\n        /* \"#utility.yul\":2305:2430   */\n    tag_69:\n        /* \"#utility.yul\":2345:2349   */\n      0x00\n        /* \"#utility.yul\":2373:2374   */\n      dup3\n        /* \"#utility.yul\":2370:2371   */\n      dup3\n        /* \"#utility.yul\":2367:2375   */\n      lt\n        /* \"#utility.yul\":2364:2398   */\n      iszero\n      tag_129\n      jumpi\n        /* \"#utility.yul\":2378:2396   */\n      tag_129\n      tag_111\n      jump\t// in\n    tag_129:\n      pop\n        /* \"#utility.yul\":2415:2424   */\n      sub\n      swap1\n        /* \"#utility.yul\":2305:2430   */\n      jump\t// out\n        /* \"#utility.yul\":2815:2983   */\n    tag_78:\n        /* \"#utility.yul\":2855:2862   */\n      0x00\n        /* \"#utility.yul\":2921:2922   */\n      dup2\n        /* \"#utility.yul\":2917:2918   */\n      0x00\n        /* \"#utility.yul\":2913:2919   */\n      not\n        /* \"#utility.yul\":2909:2923   */\n      div\n        /* \"#utility.yul\":2906:2907   */\n      dup4\n        /* \"#utility.yul\":2903:2924   */\n      gt\n        /* \"#utility.yul\":2898:2899   */\n      dup3\n        /* \"#utility.yul\":2891:2900   */\n      iszero\n        /* \"#utility.yul\":2884:2901   */\n      iszero\n        /* \"#utility.yul\":2880:2925   */\n      and\n        /* \"#utility.yul\":2877:2948   */\n      iszero\n      tag_133\n      jumpi\n        /* \"#utility.yul\":2928:2946   */\n      tag_133\n      tag_111\n      jump\t// in\n    tag_133:\n      pop\n        /* \"#utility.yul\":2968:2977   */\n      mul\n      swap1\n        /* \"#utility.yul\":2815:2983   */\n      jump\t// out\n        /* \"#utility.yul\":2988:3205   */\n    tag_80:\n        /* \"#utility.yul\":3028:3029   */\n      0x00\n        /* \"#utility.yul\":3054:3055   */\n      dup3\n        /* \"#utility.yul\":3044:3176   */\n      tag_135\n      jumpi\n        /* \"#utility.yul\":3098:3108   */\n      0x4e487b71\n        /* \"#utility.yul\":3093:3096   */\n      0xe0\n        /* \"#utility.yul\":3089:3109   */\n      shl\n        /* \"#utility.yul\":3086:3087   */\n      0x00\n        /* \"#utility.yul\":3079:3110   */\n      mstore\n        /* \"#utility.yul\":3133:3137   */\n      0x12\n        /* \"#utility.yul\":3130:3131   */\n      0x04\n        /* \"#utility.yul\":3123:3138   */\n      mstore\n        /* \"#utility.yul\":3161:3165   */\n      0x24\n        /* \"#utility.yul\":3158:3159   */\n      0x00\n        /* \"#utility.yul\":3151:3166   */\n      revert\n        /* \"#utility.yul\":3044:3176   */\n    tag_135:\n      pop\n        /* \"#utility.yul\":3190:3199   */\n      div\n      swap1\n        /* \"#utility.yul\":2988:3205   */\n      jump\t// out\n        /* \"#utility.yul\":3210:3338   */\n    tag_85:\n        /* \"#utility.yul\":3250:3253   */\n      0x00\n        /* \"#utility.yul\":3281:3282   */\n      dup3\n        /* \"#utility.yul\":3277:3283   */\n      not\n        /* \"#utility.yul\":3274:3275   */\n      dup3\n        /* \"#utility.yul\":3271:3284   */\n      gt\n        /* \"#utility.yul\":3268:3307   */\n      iszero\n      tag_138\n      jumpi\n        /* \"#utility.yul\":3287:3305   */\n      tag_138\n      tag_111\n      jump\t// in\n    tag_138:\n      pop\n        /* \"#utility.yul\":3323:3332   */\n      add\n      swap1\n        /* \"#utility.yul\":3210:3338   */\n      jump\t// out\n\n    auxdata: 0xa2646970667358221220c93b199a8bcee88aa6a08009dd06927b4a70967469918a71619045b382140f5564736f6c634300080f0033\n}\n",
				"bytecode": {
					"linkReferences": {},
					"object": "608060405234801561001057600080fd5b506040516109ba3803806109ba83398101604081905261002f91610177565b600480546001600160a01b031916331790556001600160a01b03821661008f5760405162461bcd60e51b815260206004820152601060248201526f4e4f542c53203058204144445245535360801b60448201526064015b60405180910390fd5b6001600160a01b0381166100d85760405162461bcd60e51b815260206004820152601060248201526f4e4f542c53203058204144445245535360801b6044820152606401610086565b806001600160a01b0316826001600160a01b03161461012a5760405162461bcd60e51b815260206004820152600e60248201526d13915151081859dc99595b595b9d60921b6044820152606401610086565b600180546001600160a01b039384166001600160a01b031991821617909155600280549290931691161790556101aa565b80516001600160a01b038116811461017257600080fd5b919050565b6000806040838503121561018a57600080fd5b6101938361015b565b91506101a16020840161015b565b90509250929050565b610801806101b96000396000f3fe608060405234801561001057600080fd5b50600436106100b45760003560e01c806371ca337d1161007157806371ca337d1461014a5780638c93ecff146101535780638da5cb5b146101c3578063b2237ba3146101d6578063d942727f146101eb578063dab2997b146101f457600080fd5b80630fdb1c10146100b9578063227a473b146100d65780632c46502d146100e95780634641257d14610114578063529aca491461011c5780635e9f443514610132575b600080fd5b6100c1610207565b60405190151581526020015b60405180910390f35b6100c16100e43660046106e1565b61030e565b6002546100fc906001600160a01b031681565b6040516001600160a01b0390911681526020016100cd565b6100c16104a0565b610124610625565b6040519081526020016100cd565b33600090815260056020526040902060020154610124565b61012460005481565b6101966101613660046106fa565b600560208190526000918252604090912080546001820154600283015460038401546004850154949095015492949193909286565b604080519687526020870195909552938501929092526060840152608083015260a082015260c0016100cd565b6004546100fc906001600160a01b031681565b6101e96101e43660046106e1565b610692565b005b61012460035481565b6001546100fc906001600160a01b031681565b6001543360008181526005602052604080822054905163a9059cbb60e01b815260048101939093526024830152916001600160a01b03169063a9059cbb906044016020604051808303816000875af1158015610267573d6000803e3d6000fd5b505050506040513d601f19601f8201168201806040525081019061028b9190610723565b50336000818152600560209081526040918290205491519182527fa9059cbb2ab09eb219583f4a59a5d0623ade346d962bcd4e46b11da047c9049b910160405180910390a23360009081526005602052604081205460038054919290916102f390849061075b565b90915550503360009081526005602052604081205550600190565b6001546040516323b872dd60e01b8152336004820152306024820152604481018390526000916001600160a01b0316906323b872dd906064016020604051808303816000875af1158015610366573d6000803e3d6000fd5b505050506040513d601f19601f8201168201806040525081019061038a9190610723565b50604051828152309033907f1fd6ebb971d137acf3f01670862b8a96758cfc7e39dccb093e68daf461b0262c9060200160405180910390a36000805433825260056020526040909120546301e13380916064916103e79190610772565b6103f19190610791565b6103fb9190610791565b33600090815260056020526040902060010154610418904261075b565b6104229190610772565b336000908152600560205260408120600281019290925581548492919061044a9084906107b3565b909155505033600090815260056020526040812042600190910155600380548492906104779084906107b3565b909155505033600090815260056020526040902060018082015460049092019190915592915050565b60008054338252600560205260408220546301e13380916064916104c49190610772565b6104ce9190610791565b6104d89190610791565b336000908152600560205260409020600101546104f5904261075b565b6104ff9190610772565b3360009081526005602052604090206002015461051c91906107b3565b33600081815260056020819052604091829020908101849055600301839055600254905163a9059cbb60e01b8152600481019290925260248201929092526001600160a01b039091169063a9059cbb906044016020604051808303816000875af115801561058e573d6000803e3d6000fd5b505050506040513d601f19601f820116820180604052508101906105b29190610723565b50336000818152600560209081526040918290206003015491519182527fa9059cbb2ab09eb219583f4a59a5d0623ade346d962bcd4e46b11da047c9049b910160405180910390a25033600090815260056020526040812060038101829055600281019190915542600490910155600190565b336000908152600560205260408120600401548190610644904261075b565b600080543382526005602052604082205492935090916301e133809160649161066d9190610772565b6106779190610791565b6106819190610791565b61068b9083610772565b9392505050565b6004546001600160a01b031633146106dc5760405162461bcd60e51b81526020600482015260096024820152683737ba1037bbb732b960b91b604482015260640160405180910390fd5b600055565b6000602082840312156106f357600080fd5b5035919050565b60006020828403121561070c57600080fd5b81356001600160a01b038116811461068b57600080fd5b60006020828403121561073557600080fd5b8151801515811461068b57600080fd5b634e487b7160e01b600052601160045260246000fd5b60008282101561076d5761076d610745565b500390565b600081600019048311821515161561078c5761078c610745565b500290565b6000826107ae57634e487b7160e01b600052601260045260246000fd5b500490565b600082198211156107c6576107c6610745565b50019056fea2646970667358221220c93b199a8bcee88aa6a08009dd06927b4a70967469918a71619045b382140f5564736f6c634300080f0033",
					"opcodes": "PUSH1 0x80 PUSH1 0x40 MSTORE CALLVALUE DUP1 ISZERO PUSH2 0x10 JUMPI PUSH1 0x0 DUP1 REVERT JUMPDEST POP PUSH1 0x40 MLOAD PUSH2 0x9BA CODESIZE SUB DUP1 PUSH2 0x9BA DUP4 CODECOPY DUP2 ADD PUSH1 0x40 DUP2 SWAP1 MSTORE PUSH2 0x2F SWAP2 PUSH2 0x177 JUMP JUMPDEST PUSH1 0x4 DUP1 SLOAD PUSH1 0x1 PUSH1 0x1 PUSH1 0xA0 SHL SUB NOT AND CALLER OR SWAP1 SSTORE PUSH1 0x1 PUSH1 0x1 PUSH1 0xA0 SHL SUB DUP3 AND PUSH2 0x8F JUMPI PUSH1 0x40 MLOAD PUSH3 0x461BCD PUSH1 0xE5 SHL DUP2 MSTORE PUSH1 0x20 PUSH1 0x4 DUP3 ADD MSTORE PUSH1 0x10 PUSH1 0x24 DUP3 ADD MSTORE PUSH16 0x4E4F542C532030582041444452455353 PUSH1 0x80 SHL PUSH1 0x44 DUP3 ADD MSTORE PUSH1 0x64 ADD JUMPDEST PUSH1 0x40 MLOAD DUP1 SWAP2 SUB SWAP1 REVERT JUMPDEST PUSH1 0x1 PUSH1 0x1 PUSH1 0xA0 SHL SUB DUP2 AND PUSH2 0xD8 JUMPI PUSH1 0x40 MLOAD PUSH3 0x461BCD PUSH1 0xE5 SHL DUP2 MSTORE PUSH1 0x20 PUSH1 0x4 DUP3 ADD MSTORE PUSH1 0x10 PUSH1 0x24 DUP3 ADD MSTORE PUSH16 0x4E4F542C532030582041444452455353 PUSH1 0x80 SHL PUSH1 0x44 DUP3 ADD MSTORE PUSH1 0x64 ADD PUSH2 0x86 JUMP JUMPDEST DUP1 PUSH1 0x1 PUSH1 0x1 PUSH1 0xA0 SHL SUB AND DUP3 PUSH1 0x1 PUSH1 0x1 PUSH1 0xA0 SHL SUB AND EQ PUSH2 0x12A JUMPI PUSH1 0x40 MLOAD PUSH3 0x461BCD PUSH1 0xE5 SHL DUP2 MSTORE PUSH1 0x20 PUSH1 0x4 DUP3 ADD MSTORE PUSH1 0xE PUSH1 0x24 DUP3 ADD MSTORE PUSH14 0x13915151081859DC99595B595B9D PUSH1 0x92 SHL PUSH1 0x44 DUP3 ADD MSTORE PUSH1 0x64 ADD PUSH2 0x86 JUMP JUMPDEST PUSH1 0x1 DUP1 SLOAD PUSH1 0x1 PUSH1 0x1 PUSH1 0xA0 SHL SUB SWAP4 DUP5 AND PUSH1 0x1 PUSH1 0x1 PUSH1 0xA0 SHL SUB NOT SWAP2 DUP3 AND OR SWAP1 SWAP2 SSTORE PUSH1 0x2 DUP1 SLOAD SWAP3 SWAP1 SWAP4 AND SWAP2 AND OR SWAP1 SSTORE PUSH2 0x1AA JUMP JUMPDEST DUP1 MLOAD PUSH1 0x1 PUSH1 0x1 PUSH1 0xA0 SHL SUB DUP2 AND DUP2 EQ PUSH2 0x172 JUMPI PUSH1 0x0 DUP1 REVERT JUMPDEST SWAP2 SWAP1 POP JUMP JUMPDEST PUSH1 0x0 DUP1 PUSH1 0x40 DUP4 DUP6 SUB SLT ISZERO PUSH2 0x18A JUMPI PUSH1 0x0 DUP1 REVERT JUMPDEST PUSH2 0x193 DUP4 PUSH2 0x15B JUMP JUMPDEST SWAP2 POP PUSH2 0x1A1 PUSH1 0x20 DUP5 ADD PUSH2 0x15B JUMP JUMPDEST SWAP1 POP SWAP3 POP SWAP3 SWAP1 POP JUMP JUMPDEST PUSH2 0x801 DUP1 PUSH2 0x1B9 PUSH1 0x0 CODECOPY PUSH1 0x0 RETURN INVALID PUSH1 0x80 PUSH1 0x40 MSTORE CALLVALUE DUP1 ISZERO PUSH2 0x10 JUMPI PUSH1 0x0 DUP1 REVERT JUMPDEST POP PUSH1 0x4 CALLDATASIZE LT PUSH2 0xB4 JUMPI PUSH1 0x0 CALLDATALOAD PUSH1 0xE0 SHR DUP1 PUSH4 0x71CA337D GT PUSH2 0x71 JUMPI DUP1 PUSH4 0x71CA337D EQ PUSH2 0x14A JUMPI DUP1 PUSH4 0x8C93ECFF EQ PUSH2 0x153 JUMPI DUP1 PUSH4 0x8DA5CB5B EQ PUSH2 0x1C3 JUMPI DUP1 PUSH4 0xB2237BA3 EQ PUSH2 0x1D6 JUMPI DUP1 PUSH4 0xD942727F EQ PUSH2 0x1EB JUMPI DUP1 PUSH4 0xDAB2997B EQ PUSH2 0x1F4 JUMPI PUSH1 0x0 DUP1 REVERT JUMPDEST DUP1 PUSH4 0xFDB1C10 EQ PUSH2 0xB9 JUMPI DUP1 PUSH4 0x227A473B EQ PUSH2 0xD6 JUMPI DUP1 PUSH4 0x2C46502D EQ PUSH2 0xE9 JUMPI DUP1 PUSH4 0x4641257D EQ PUSH2 0x114 JUMPI DUP1 PUSH4 0x529ACA49 EQ PUSH2 0x11C JUMPI DUP1 PUSH4 0x5E9F4435 EQ PUSH2 0x132 JUMPI JUMPDEST PUSH1 0x0 DUP1 REVERT JUMPDEST PUSH2 0xC1 PUSH2 0x207 JUMP JUMPDEST PUSH1 0x40 MLOAD SWAP1 ISZERO ISZERO DUP2 MSTORE PUSH1 0x20 ADD JUMPDEST PUSH1 0x40 MLOAD DUP1 SWAP2 SUB SWAP1 RETURN JUMPDEST PUSH2 0xC1 PUSH2 0xE4 CALLDATASIZE PUSH1 0x4 PUSH2 0x6E1 JUMP JUMPDEST PUSH2 0x30E JUMP JUMPDEST PUSH1 0x2 SLOAD PUSH2 0xFC SWAP1 PUSH1 0x1 PUSH1 0x1 PUSH1 0xA0 SHL SUB AND DUP2 JUMP JUMPDEST PUSH1 0x40 MLOAD PUSH1 0x1 PUSH1 0x1 PUSH1 0xA0 SHL SUB SWAP1 SWAP2 AND DUP2 MSTORE PUSH1 0x20 ADD PUSH2 0xCD JUMP JUMPDEST PUSH2 0xC1 PUSH2 0x4A0 JUMP JUMPDEST PUSH2 0x124 PUSH2 0x625 JUMP JUMPDEST PUSH1 0x40 MLOAD SWAP1 DUP2 MSTORE PUSH1 0x20 ADD PUSH2 0xCD JUMP JUMPDEST CALLER PUSH1 0x0 SWAP1 DUP2 MSTORE PUSH1 0x5 PUSH1 0x20 MSTORE PUSH1 0x40 SWAP1 KECCAK256 PUSH1 0x2 ADD SLOAD PUSH2 0x124 JUMP JUMPDEST PUSH2 0x124 PUSH1 0x0 SLOAD DUP2 JUMP JUMPDEST PUSH2 0x196 PUSH2 0x161 CALLDATASIZE PUSH1 0x4 PUSH2 0x6FA JUMP JUMPDEST PUSH1 0x5 PUSH1 0x20 DUP2 SWAP1 MSTORE PUSH1 0x0 SWAP2 DUP3 MSTORE PUSH1 0x40 SWAP1 SWAP2 KECCAK256 DUP1 SLOAD PUSH1 0x1 DUP3 ADD SLOAD PUSH1 0x2 DUP4 ADD SLOAD PUSH1 0x3 DUP5 ADD SLOAD PUSH1 0x4 DUP6 ADD SLOAD SWAP5 SWAP1 SWAP6 ADD SLOAD SWAP3 SWAP5 SWAP2 SWAP4 SWAP1 SWAP3 DUP7 JUMP JUMPDEST PUSH1 0x40 DUP1 MLOAD SWAP7 DUP8 MSTORE PUSH1 0x20 DUP8 ADD SWAP6 SWAP1 SWAP6 MSTORE SWAP4 DUP6 ADD SWAP3 SWAP1 SWAP3 MSTORE PUSH1 0x60 DUP5 ADD MSTORE PUSH1 0x80 DUP4 ADD MSTORE PUSH1 0xA0 DUP3 ADD MSTORE PUSH1 0xC0 ADD PUSH2 0xCD JUMP JUMPDEST PUSH1 0x4 SLOAD PUSH2 0xFC SWAP1 PUSH1 0x1 PUSH1 0x1 PUSH1 0xA0 SHL SUB AND DUP2 JUMP JUMPDEST PUSH2 0x1E9 PUSH2 0x1E4 CALLDATASIZE PUSH1 0x4 PUSH2 0x6E1 JUMP JUMPDEST PUSH2 0x692 JUMP JUMPDEST STOP JUMPDEST PUSH2 0x124 PUSH1 0x3 SLOAD DUP2 JUMP JUMPDEST PUSH1 0x1 SLOAD PUSH2 0xFC SWAP1 PUSH1 0x1 PUSH1 0x1 PUSH1 0xA0 SHL SUB AND DUP2 JUMP JUMPDEST PUSH1 0x1 SLOAD CALLER PUSH1 0x0 DUP2 DUP2 MSTORE PUSH1 0x5 PUSH1 0x20 MSTORE PUSH1 0x40 DUP1 DUP3 KECCAK256 SLOAD SWAP1 MLOAD PUSH4 0xA9059CBB PUSH1 0xE0 SHL DUP2 MSTORE PUSH1 0x4 DUP2 ADD SWAP4 SWAP1 SWAP4 MSTORE PUSH1 0x24 DUP4 ADD MSTORE SWAP2 PUSH1 0x1 PUSH1 0x1 PUSH1 0xA0 SHL SUB AND SWAP1 PUSH4 0xA9059CBB SWAP1 PUSH1 0x44 ADD PUSH1 0x20 PUSH1 0x40 MLOAD DUP1 DUP4 SUB DUP2 PUSH1 0x0 DUP8 GAS CALL ISZERO DUP1 ISZERO PUSH2 0x267 JUMPI RETURNDATASIZE PUSH1 0x0 DUP1 RETURNDATACOPY RETURNDATASIZE PUSH1 0x0 REVERT JUMPDEST POP POP POP POP PUSH1 0x40 MLOAD RETURNDATASIZE PUSH1 0x1F NOT PUSH1 0x1F DUP3 ADD AND DUP3 ADD DUP1 PUSH1 0x40 MSTORE POP DUP2 ADD SWAP1 PUSH2 0x28B SWAP2 SWAP1 PUSH2 0x723 JUMP JUMPDEST POP CALLER PUSH1 0x0 DUP2 DUP2 MSTORE PUSH1 0x5 PUSH1 0x20 SWAP1 DUP2 MSTORE PUSH1 0x40 SWAP2 DUP3 SWAP1 KECCAK256 SLOAD SWAP2 MLOAD SWAP2 DUP3 MSTORE PUSH32 0xA9059CBB2AB09EB219583F4A59A5D0623ADE346D962BCD4E46B11DA047C9049B SWAP2 ADD PUSH1 0x40 MLOAD DUP1 SWAP2 SUB SWAP1 LOG2 CALLER PUSH1 0x0 SWAP1 DUP2 MSTORE PUSH1 0x5 PUSH1 0x20 MSTORE PUSH1 0x40 DUP2 KECCAK256 SLOAD PUSH1 0x3 DUP1 SLOAD SWAP2 SWAP3 SWAP1 SWAP2 PUSH2 0x2F3 SWAP1 DUP5 SWAP1 PUSH2 0x75B JUMP JUMPDEST SWAP1 SWAP2 SSTORE POP POP CALLER PUSH1 0x0 SWAP1 DUP2 MSTORE PUSH1 0x5 PUSH1 0x20 MSTORE PUSH1 0x40 DUP2 KECCAK256 SSTORE POP PUSH1 0x1 SWAP1 JUMP JUMPDEST PUSH1 0x1 SLOAD PUSH1 0x40 MLOAD PUSH4 0x23B872DD PUSH1 0xE0 SHL DUP2 MSTORE CALLER PUSH1 0x4 DUP3 ADD MSTORE ADDRESS PUSH1 0x24 DUP3 ADD MSTORE PUSH1 0x44 DUP2 ADD DUP4 SWAP1 MSTORE PUSH1 0x0 SWAP2 PUSH1 0x1 PUSH1 0x1 PUSH1 0xA0 SHL SUB AND SWAP1 PUSH4 0x23B872DD SWAP1 PUSH1 0x64 ADD PUSH1 0x20 PUSH1 0x40 MLOAD DUP1 DUP4 SUB DUP2 PUSH1 0x0 DUP8 GAS CALL ISZERO DUP1 ISZERO PUSH2 0x366 JUMPI RETURNDATASIZE PUSH1 0x0 DUP1 RETURNDATACOPY RETURNDATASIZE PUSH1 0x0 REVERT JUMPDEST POP POP POP POP PUSH1 0x40 MLOAD RETURNDATASIZE PUSH1 0x1F NOT PUSH1 0x1F DUP3 ADD AND DUP3 ADD DUP1 PUSH1 0x40 MSTORE POP DUP2 ADD SWAP1 PUSH2 0x38A SWAP2 SWAP1 PUSH2 0x723 JUMP JUMPDEST POP PUSH1 0x40 MLOAD DUP3 DUP2 MSTORE ADDRESS SWAP1 CALLER SWAP1 PUSH32 0x1FD6EBB971D137ACF3F01670862B8A96758CFC7E39DCCB093E68DAF461B0262C SWAP1 PUSH1 0x20 ADD PUSH1 0x40 MLOAD DUP1 SWAP2 SUB SWAP1 LOG3 PUSH1 0x0 DUP1 SLOAD CALLER DUP3 MSTORE PUSH1 0x5 PUSH1 0x20 MSTORE PUSH1 0x40 SWAP1 SWAP2 KECCAK256 SLOAD PUSH4 0x1E13380 SWAP2 PUSH1 0x64 SWAP2 PUSH2 0x3E7 SWAP2 SWAP1 PUSH2 0x772 JUMP JUMPDEST PUSH2 0x3F1 SWAP2 SWAP1 PUSH2 0x791 JUMP JUMPDEST PUSH2 0x3FB SWAP2 SWAP1 PUSH2 0x791 JUMP JUMPDEST CALLER PUSH1 0x0 SWAP1 DUP2 MSTORE PUSH1 0x5 PUSH1 0x20 MSTORE PUSH1 0x40 SWAP1 KECCAK256 PUSH1 0x1 ADD SLOAD PUSH2 0x418 SWAP1 TIMESTAMP PUSH2 0x75B JUMP JUMPDEST PUSH2 0x422 SWAP2 SWAP1 PUSH2 0x772 JUMP JUMPDEST CALLER PUSH1 0x0 SWAP1 DUP2 MSTORE PUSH1 0x5 PUSH1 0x20 MSTORE PUSH1 0x40 DUP2 KECCAK256 PUSH1 0x2 DUP2 ADD SWAP3 SWAP1 SWAP3 SSTORE DUP2 SLOAD DUP5 SWAP3 SWAP2 SWAP1 PUSH2 0x44A SWAP1 DUP5 SWAP1 PUSH2 0x7B3 JUMP JUMPDEST SWAP1 SWAP2 SSTORE POP POP CALLER PUSH1 0x0 SWAP1 DUP2 MSTORE PUSH1 0x5 PUSH1 0x20 MSTORE PUSH1 0x40 DUP2 KECCAK256 TIMESTAMP PUSH1 0x1 SWAP1 SWAP2 ADD SSTORE PUSH1 0x3 DUP1 SLOAD DUP5 SWAP3 SWAP1 PUSH2 0x477 SWAP1 DUP5 SWAP1 PUSH2 0x7B3 JUMP JUMPDEST SWAP1 SWAP2 SSTORE POP POP CALLER PUSH1 0x0 SWAP1 DUP2 MSTORE PUSH1 0x5 PUSH1 0x20 MSTORE PUSH1 0x40 SWAP1 KECCAK256 PUSH1 0x1 DUP1 DUP3 ADD SLOAD PUSH1 0x4 SWAP1 SWAP3 ADD SWAP2 SWAP1 SWAP2 SSTORE SWAP3 SWAP2 POP POP JUMP JUMPDEST PUSH1 0x0 DUP1 SLOAD CALLER DUP3 MSTORE PUSH1 0x5 PUSH1 0x20 MSTORE PUSH1 0x40 DUP3 KECCAK256 SLOAD PUSH4 0x1E13380 SWAP2 PUSH1 0x64 SWAP2 PUSH2 0x4C4 SWAP2 SWAP1 PUSH2 0x772 JUMP JUMPDEST PUSH2 0x4CE SWAP2 SWAP1 PUSH2 0x791 JUMP JUMPDEST PUSH2 0x4D8 SWAP2 SWAP1 PUSH2 0x791 JUMP JUMPDEST CALLER PUSH1 0x0 SWAP1 DUP2 MSTORE PUSH1 0x5 PUSH1 0x20 MSTORE PUSH1 0x40 SWAP1 KECCAK256 PUSH1 0x1 ADD SLOAD PUSH2 0x4F5 SWAP1 TIMESTAMP PUSH2 0x75B JUMP JUMPDEST PUSH2 0x4FF SWAP2 SWAP1 PUSH2 0x772 JUMP JUMPDEST CALLER PUSH1 0x0 SWAP1 DUP2 MSTORE PUSH1 0x5 PUSH1 0x20 MSTORE PUSH1 0x40 SWAP1 KECCAK256 PUSH1 0x2 ADD SLOAD PUSH2 0x51C SWAP2 SWAP1 PUSH2 0x7B3 JUMP JUMPDEST CALLER PUSH1 0x0 DUP2 DUP2 MSTORE PUSH1 0x5 PUSH1 0x20 DUP2 SWAP1 MSTORE PUSH1 0x40 SWAP2 DUP3 SWAP1 KECCAK256 SWAP1 DUP2 ADD DUP5 SWAP1 SSTORE PUSH1 0x3 ADD DUP4 SWAP1 SSTORE PUSH1 0x2 SLOAD SWAP1 MLOAD PUSH4 0xA9059CBB PUSH1 0xE0 SHL DUP2 MSTORE PUSH1 0x4 DUP2 ADD SWAP3 SWAP1 SWAP3 MSTORE PUSH1 0x24 DUP3 ADD SWAP3 SWAP1 SWAP3 MSTORE PUSH1 0x1 PUSH1 0x1 PUSH1 0xA0 SHL SUB SWAP1 SWAP2 AND SWAP1 PUSH4 0xA9059CBB SWAP1 PUSH1 0x44 ADD PUSH1 0x20 PUSH1 0x40 MLOAD DUP1 DUP4 SUB DUP2 PUSH1 0x0 DUP8 GAS CALL ISZERO DUP1 ISZERO PUSH2 0x58E JUMPI RETURNDATASIZE PUSH1 0x0 DUP1 RETURNDATACOPY RETURNDATASIZE PUSH1 0x0 REVERT JUMPDEST POP POP POP POP PUSH1 0x40 MLOAD RETURNDATASIZE PUSH1 0x1F NOT PUSH1 0x1F DUP3 ADD AND DUP3 ADD DUP1 PUSH1 0x40 MSTORE POP DUP2 ADD SWAP1 PUSH2 0x5B2 SWAP2 SWAP1 PUSH2 0x723 JUMP JUMPDEST POP CALLER PUSH1 0x0 DUP2 DUP2 MSTORE PUSH1 0x5 PUSH1 0x20 SWAP1 DUP2 MSTORE PUSH1 0x40 SWAP2 DUP3 SWAP1 KECCAK256 PUSH1 0x3 ADD SLOAD SWAP2 MLOAD SWAP2 DUP3 MSTORE PUSH32 0xA9059CBB2AB09EB219583F4A59A5D0623ADE346D962BCD4E46B11DA047C9049B SWAP2 ADD PUSH1 0x40 MLOAD DUP1 SWAP2 SUB SWAP1 LOG2 POP CALLER PUSH1 0x0 SWAP1 DUP2 MSTORE PUSH1 0x5 PUSH1 0x20 MSTORE PUSH1 0x40 DUP2 KECCAK256 PUSH1 0x3 DUP2 ADD DUP3 SWAP1 SSTORE PUSH1 0x2 DUP2 ADD SWAP2 SWAP1 SWAP2 SSTORE TIMESTAMP PUSH1 0x4 SWAP1 SWAP2 ADD SSTORE PUSH1 0x1 SWAP1 JUMP JUMPDEST CALLER PUSH1 0x0 SWAP1 DUP2 MSTORE PUSH1 0x5 PUSH1 0x20 MSTORE PUSH1 0x40 DUP2 KECCAK256 PUSH1 0x4 ADD SLOAD DUP2 SWAP1 PUSH2 0x644 SWAP1 TIMESTAMP PUSH2 0x75B JUMP JUMPDEST PUSH1 0x0 DUP1 SLOAD CALLER DUP3 MSTORE PUSH1 0x5 PUSH1 0x20 MSTORE PUSH1 0x40 DUP3 KECCAK256 SLOAD SWAP3 SWAP4 POP SWAP1 SWAP2 PUSH4 0x1E13380 SWAP2 PUSH1 0x64 SWAP2 PUSH2 0x66D SWAP2 SWAP1 PUSH2 0x772 JUMP JUMPDEST PUSH2 0x677 SWAP2 SWAP1 PUSH2 0x791 JUMP JUMPDEST PUSH2 0x681 SWAP2 SWAP1 PUSH2 0x791 JUMP JUMPDEST PUSH2 0x68B SWAP1 DUP4 PUSH2 0x772 JUMP JUMPDEST SWAP4 SWAP3 POP POP POP JUMP JUMPDEST PUSH1 0x4 SLOAD PUSH1 0x1 PUSH1 0x1 PUSH1 0xA0 SHL SUB AND CALLER EQ PUSH2 0x6DC JUMPI PUSH1 0x40 MLOAD PUSH3 0x461BCD PUSH1 0xE5 SHL DUP2 MSTORE PUSH1 0x20 PUSH1 0x4 DUP3 ADD MSTORE PUSH1 0x9 PUSH1 0x24 DUP3 ADD MSTORE PUSH9 0x3737BA1037BBB732B9 PUSH1 0xB9 SHL PUSH1 0x44 DUP3 ADD MSTORE PUSH1 0x64 ADD PUSH1 0x40 MLOAD DUP1 SWAP2 SUB SWAP1 REVERT JUMPDEST PUSH1 0x0 SSTORE JUMP JUMPDEST PUSH1 0x0 PUSH1 0x20 DUP3 DUP5 SUB SLT ISZERO PUSH2 0x6F3 JUMPI PUSH1 0x0 DUP1 REVERT JUMPDEST POP CALLDATALOAD SWAP2 SWAP1 POP JUMP JUMPDEST PUSH1 0x0 PUSH1 0x20 DUP3 DUP5 SUB SLT ISZERO PUSH2 0x70C JUMPI PUSH1 0x0 DUP1 REVERT JUMPDEST DUP2 CALLDATALOAD PUSH1 0x1 PUSH1 0x1 PUSH1 0xA0 SHL SUB DUP2 AND DUP2 EQ PUSH2 0x68B JUMPI PUSH1 0x0 DUP1 REVERT JUMPDEST PUSH1 0x0 PUSH1 0x20 DUP3 DUP5 SUB SLT ISZERO PUSH2 0x735 JUMPI PUSH1 0x0 DUP1 REVERT JUMPDEST DUP2 MLOAD DUP1 ISZERO ISZERO DUP2 EQ PUSH2 0x68B JUMPI PUSH1 0x0 DUP1 REVERT JUMPDEST PUSH4 0x4E487B71 PUSH1 0xE0 SHL PUSH1 0x0 MSTORE PUSH1 0x11 PUSH1 0x4 MSTORE PUSH1 0x24 PUSH1 0x0 REVERT JUMPDEST PUSH1 0x0 DUP3 DUP3 LT ISZERO PUSH2 0x76D JUMPI PUSH2 0x76D PUSH2 0x745 JUMP JUMPDEST POP SUB SWAP1 JUMP JUMPDEST PUSH1 0x0 DUP2 PUSH1 0x0 NOT DIV DUP4 GT DUP3 ISZERO ISZERO AND ISZERO PUSH2 0x78C JUMPI PUSH2 0x78C PUSH2 0x745 JUMP JUMPDEST POP MUL SWAP1 JUMP JUMPDEST PUSH1 0x0 DUP3 PUSH2 0x7AE JUMPI PUSH4 0x4E487B71 PUSH1 0xE0 SHL PUSH1 0x0 MSTORE PUSH1 0x12 PUSH1 0x4 MSTORE PUSH1 0x24 PUSH1 0x0 REVERT JUMPDEST POP DIV SWAP1 JUMP JUMPDEST PUSH1 0x0 DUP3 NOT DUP3 GT ISZERO PUSH2 0x7C6 JUMPI PUSH2 0x7C6 PUSH2 0x745 JUMP JUMPDEST POP ADD SWAP1 JUMP INVALID LOG2 PUSH5 0x6970667358 0x22 SLT KECCAK256 0xC9 EXTCODESIZE NOT SWAP11 DUP12 0xCE 0xE8 DUP11 0xA6 LOG0 DUP1 MULMOD 0xDD MOD SWAP3 PUSH28 0x4A70967469918A71619045B382140F5564736F6C634300080F003300 "
				},
				"gasEstimates": {
					"creation": {
						"codeDepositCost": "409800",
						"executionCost": "infinite",
						"totalCost": "infinite"
					},
					"external": {
						"Stake(uint256)": "infinite",
						"User_Map(address)": "13180",
						"harvest()": "infinite",
						"lastTotokenRatio()": "2477",
						"newTotokenRatio()": "infinite",
						"owner()": "2381",
						"ratio()": "2295",
						"setRatio(uint256)": "24530",
						"stakeSupple()": "2383",
						"staketoken()": "2447",
						"totoken()": "2382",
						"withDraw()": "infinite"
					}
				},
				"methodIdentifiers": {
					"Stake(uint256)": "227a473b",
					"User_Map(address)": "8c93ecff",
					"harvest()": "4641257d",
					"lastTotokenRatio()": "5e9f4435",
					"newTotokenRatio()": "529aca49",
					"owner()": "8da5cb5b",
					"ratio()": "71ca337d",
					"setRatio(uint256)": "b2237ba3",
					"stakeSupple()": "d942727f",
					"staketoken()": "dab2997b",
					"totoken()": "2c46502d",
					"withDraw()": "0fdb1c10"
				}
			},
			"storageLayout": {
				"storage": [
					{
						"astId": 70,
						"contract": "自己写个矿池,定息矿池.sol:StakeContract",
						"label": "ratio",
						"offset": 0,
						"slot": "0",
						"type": "t_uint256"
					},
					{
						"astId": 72,
						"contract": "自己写个矿池,定息矿池.sol:StakeContract",
						"label": "staketoken",
						"offset": 0,
						"slot": "1",
						"type": "t_address"
					},
					{
						"astId": 74,
						"contract": "自己写个矿池,定息矿池.sol:StakeContract",
						"label": "totoken",
						"offset": 0,
						"slot": "2",
						"type": "t_address"
					},
					{
						"astId": 76,
						"contract": "自己写个矿池,定息矿池.sol:StakeContract",
						"label": "stakeSupple",
						"offset": 0,
						"slot": "3",
						"type": "t_uint256"
					},
					{
						"astId": 78,
						"contract": "自己写个矿池,定息矿池.sol:StakeContract",
						"label": "owner",
						"offset": 0,
						"slot": "4",
						"type": "t_address"
					},
					{
						"astId": 118,
						"contract": "自己写个矿池,定息矿池.sol:StakeContract",
						"label": "User_Map",
						"offset": 0,
						"slot": "5",
						"type": "t_mapping(t_address,t_struct(User)113_storage)"
					}
				],
				"types": {
					"t_address": {
						"encoding": "inplace",
						"label": "address",
						"numberOfBytes": "20"
					},
					"t_mapping(t_address,t_struct(User)113_storage)": {
						"encoding": "mapping",
						"key": "t_address",
						"label": "mapping(address => struct StakeContract.User)",
						"numberOfBytes": "32",
						"value": "t_struct(User)113_storage"
					},
					"t_struct(User)113_storage": {
						"encoding": "inplace",
						"label": "struct StakeContract.User",
						"members": [
							{
								"astId": 102,
								"contract": "自己写个矿池,定息矿池.sol:StakeContract",
								"label": "stakeNumber",
								"offset": 0,
								"slot": "0",
								"type": "t_uint256"
							},
							{
								"astId": 104,
								"contract": "自己写个矿池,定息矿池.sol:StakeContract",
								"label": "last_Stake_Time",
								"offset": 0,
								"slot": "1",
								"type": "t_uint256"
							},
							{
								"astId": 106,
								"contract": "自己写个矿池,定息矿池.sol:StakeContract",
								"label": "last_totoken_ratio",
								"offset": 0,
								"slot": "2",
								"type": "t_uint256"
							},
							{
								"astId": 108,
								"contract": "自己写个矿池,定息矿池.sol:StakeContract",
								"label": "whole_ratio",
								"offset": 0,
								"slot": "3",
								"type": "t_uint256"
							},
							{
								"astId": 110,
								"contract": "自己写个矿池,定息矿池.sol:StakeContract",
								"label": "last_totoken_Time",
								"offset": 0,
								"slot": "4",
								"type": "t_uint256"
							},
							{
								"astId": 112,
								"contract": "自己写个矿池,定息矿池.sol:StakeContract",
								"label": "last_ratio_Number",
								"offset": 0,
								"slot": "5",
								"type": "t_uint256"
							}
						],
						"numberOfBytes": "192"
					},
					"t_uint256": {
						"encoding": "inplace",
						"label": "uint256",
						"numberOfBytes": "32"
					}
				}
			},
			"userdoc": {
				"kind": "user",
				"methods": {},
				"version": 1
			}
		}
	}
}