{
	"solidity结构控制.sol": {
		"IfElse": {
			"abi": [
				{
					"inputs": [
						{
							"internalType": "uint256",
							"name": "x",
							"type": "uint256"
						}
					],
					"name": "example",
					"outputs": [
						{
							"internalType": "uint256",
							"name": "",
							"type": "uint256"
						}
					],
					"stateMutability": "pure",
					"type": "function"
				},
				{
					"inputs": [
						{
							"internalType": "uint256",
							"name": "x",
							"type": "uint256"
						}
					],
					"name": "ternary",
					"outputs": [
						{
							"internalType": "uint256",
							"name": "",
							"type": "uint256"
						}
					],
					"stateMutability": "pure",
					"type": "function"
				}
			],
			"devdoc": {
				"kind": "dev",
				"methods": {},
				"version": 1
			},
			"evm": {
				"assembly": "    /* \"solidity\\xe7\\xbb\\x93\\xe6\\x9e\\x84\\xe6\\x8e\\xa7\\xe5\\x88\\xb6.sol\":154:593  contract IfElse {... */\n  mstore(0x40, 0x80)\n  callvalue\n  dup1\n  iszero\n  tag_1\n  jumpi\n  0x00\n  dup1\n  revert\ntag_1:\n  pop\n  dataSize(sub_0)\n  dup1\n  dataOffset(sub_0)\n  0x00\n  codecopy\n  0x00\n  return\nstop\n\nsub_0: assembly {\n        /* \"solidity\\xe7\\xbb\\x93\\xe6\\x9e\\x84\\xe6\\x8e\\xa7\\xe5\\x88\\xb6.sol\":154:593  contract IfElse {... */\n      mstore(0x40, 0x80)\n      callvalue\n      dup1\n      iszero\n      tag_1\n      jumpi\n      0x00\n      dup1\n      revert\n    tag_1:\n      pop\n      jumpi(tag_2, lt(calldatasize, 0x04))\n      shr(0xe0, calldataload(0x00))\n      dup1\n      0x477e4a02\n      eq\n      tag_3\n      jumpi\n      dup1\n      0x55278c5b\n      eq\n      tag_4\n      jumpi\n    tag_2:\n      0x00\n      dup1\n      revert\n        /* \"solidity\\xe7\\xbb\\x93\\xe6\\x9e\\x84\\xe6\\x8e\\xa7\\xe5\\x88\\xb6.sol\":177:389  function example(uint x) external pure returns (uint) {... */\n    tag_3:\n      tag_5\n      tag_6\n      calldatasize\n      0x04\n      tag_7\n      jump\t// in\n    tag_6:\n      tag_8\n      jump\t// in\n    tag_5:\n      mload(0x40)\n        /* \"#utility.yul\":345:370   */\n      swap1\n      dup2\n      mstore\n        /* \"#utility.yul\":333:335   */\n      0x20\n        /* \"#utility.yul\":318:336   */\n      add\n        /* \"solidity\\xe7\\xbb\\x93\\xe6\\x9e\\x84\\xe6\\x8e\\xa7\\xe5\\x88\\xb6.sol\":177:389  function example(uint x) external pure returns (uint) {... */\n      mload(0x40)\n      dup1\n      swap2\n      sub\n      swap1\n      return\n        /* \"solidity\\xe7\\xbb\\x93\\xe6\\x9e\\x84\\xe6\\x8e\\xa7\\xe5\\x88\\xb6.sol\":442:590  function ternary(uint x) external pure returns (uint) {... */\n    tag_4:\n      tag_5\n      tag_12\n      calldatasize\n      0x04\n      tag_7\n      jump\t// in\n    tag_12:\n      tag_13\n      jump\t// in\n        /* \"solidity\\xe7\\xbb\\x93\\xe6\\x9e\\x84\\xe6\\x8e\\xa7\\xe5\\x88\\xb6.sol\":177:389  function example(uint x) external pure returns (uint) {... */\n    tag_8:\n        /* \"solidity\\xe7\\xbb\\x93\\xe6\\x9e\\x84\\xe6\\x8e\\xa7\\xe5\\x88\\xb6.sol\":225:229  uint */\n      0x00\n        /* \"solidity\\xe7\\xbb\\x93\\xe6\\x9e\\x84\\xe6\\x8e\\xa7\\xe5\\x88\\xb6.sol\":250:252  10 */\n      0x0a\n        /* \"solidity\\xe7\\xbb\\x93\\xe6\\x9e\\x84\\xe6\\x8e\\xa7\\xe5\\x88\\xb6.sol\":246:247  x */\n      dup3\n        /* \"solidity\\xe7\\xbb\\x93\\xe6\\x9e\\x84\\xe6\\x8e\\xa7\\xe5\\x88\\xb6.sol\":246:252  x < 10 */\n      lt\n        /* \"solidity\\xe7\\xbb\\x93\\xe6\\x9e\\x84\\xe6\\x8e\\xa7\\xe5\\x88\\xb6.sol\":242:382  if (x < 10) {... */\n      iszero\n      tag_16\n      jumpi\n      pop\n        /* \"solidity\\xe7\\xbb\\x93\\xe6\\x9e\\x84\\xe6\\x8e\\xa7\\xe5\\x88\\xb6.sol\":276:277  1 */\n      0x01\n      swap2\n        /* \"solidity\\xe7\\xbb\\x93\\xe6\\x9e\\x84\\xe6\\x8e\\xa7\\xe5\\x88\\xb6.sol\":177:389  function example(uint x) external pure returns (uint) {... */\n      swap1\n      pop\n      jump\t// out\n        /* \"solidity\\xe7\\xbb\\x93\\xe6\\x9e\\x84\\xe6\\x8e\\xa7\\xe5\\x88\\xb6.sol\":242:382  if (x < 10) {... */\n    tag_16:\n        /* \"solidity\\xe7\\xbb\\x93\\xe6\\x9e\\x84\\xe6\\x8e\\xa7\\xe5\\x88\\xb6.sol\":303:305  20 */\n      0x14\n        /* \"solidity\\xe7\\xbb\\x93\\xe6\\x9e\\x84\\xe6\\x8e\\xa7\\xe5\\x88\\xb6.sol\":299:300  x */\n      dup3\n        /* \"solidity\\xe7\\xbb\\x93\\xe6\\x9e\\x84\\xe6\\x8e\\xa7\\xe5\\x88\\xb6.sol\":299:305  x < 20 */\n      lt\n        /* \"solidity\\xe7\\xbb\\x93\\xe6\\x9e\\x84\\xe6\\x8e\\xa7\\xe5\\x88\\xb6.sol\":295:382  if (x < 20) {... */\n      iszero\n      tag_18\n      jumpi\n      pop\n        /* \"solidity\\xe7\\xbb\\x93\\xe6\\x9e\\x84\\xe6\\x8e\\xa7\\xe5\\x88\\xb6.sol\":329:330  2 */\n      0x02\n      swap2\n        /* \"solidity\\xe7\\xbb\\x93\\xe6\\x9e\\x84\\xe6\\x8e\\xa7\\xe5\\x88\\xb6.sol\":177:389  function example(uint x) external pure returns (uint) {... */\n      swap1\n      pop\n      jump\t// out\n        /* \"solidity\\xe7\\xbb\\x93\\xe6\\x9e\\x84\\xe6\\x8e\\xa7\\xe5\\x88\\xb6.sol\":295:382  if (x < 20) {... */\n    tag_18:\n      pop\n        /* \"solidity\\xe7\\xbb\\x93\\xe6\\x9e\\x84\\xe6\\x8e\\xa7\\xe5\\x88\\xb6.sol\":369:370  3 */\n      0x03\n      swap2\n        /* \"solidity\\xe7\\xbb\\x93\\xe6\\x9e\\x84\\xe6\\x8e\\xa7\\xe5\\x88\\xb6.sol\":177:389  function example(uint x) external pure returns (uint) {... */\n      swap1\n      pop\n      jump\t// out\n        /* \"solidity\\xe7\\xbb\\x93\\xe6\\x9e\\x84\\xe6\\x8e\\xa7\\xe5\\x88\\xb6.sol\":442:590  function ternary(uint x) external pure returns (uint) {... */\n    tag_13:\n        /* \"solidity\\xe7\\xbb\\x93\\xe6\\x9e\\x84\\xe6\\x8e\\xa7\\xe5\\x88\\xb6.sol\":490:494  uint */\n      0x00\n        /* \"solidity\\xe7\\xbb\\x93\\xe6\\x9e\\x84\\xe6\\x8e\\xa7\\xe5\\x88\\xb6.sol\":572:574  10 */\n      0x0a\n        /* \"solidity\\xe7\\xbb\\x93\\xe6\\x9e\\x84\\xe6\\x8e\\xa7\\xe5\\x88\\xb6.sol\":568:569  x */\n      dup3\n        /* \"solidity\\xe7\\xbb\\x93\\xe6\\x9e\\x84\\xe6\\x8e\\xa7\\xe5\\x88\\xb6.sol\":568:574  x < 10 */\n      lt\n        /* \"solidity\\xe7\\xbb\\x93\\xe6\\x9e\\x84\\xe6\\x8e\\xa7\\xe5\\x88\\xb6.sol\":568:582  x < 10 ? 1 : 2 */\n      tag_21\n      jumpi\n        /* \"solidity\\xe7\\xbb\\x93\\xe6\\x9e\\x84\\xe6\\x8e\\xa7\\xe5\\x88\\xb6.sol\":581:582  2 */\n      0x02\n        /* \"solidity\\xe7\\xbb\\x93\\xe6\\x9e\\x84\\xe6\\x8e\\xa7\\xe5\\x88\\xb6.sol\":568:582  x < 10 ? 1 : 2 */\n      jump(tag_22)\n    tag_21:\n        /* \"solidity\\xe7\\xbb\\x93\\xe6\\x9e\\x84\\xe6\\x8e\\xa7\\xe5\\x88\\xb6.sol\":577:578  1 */\n      0x01\n        /* \"solidity\\xe7\\xbb\\x93\\xe6\\x9e\\x84\\xe6\\x8e\\xa7\\xe5\\x88\\xb6.sol\":568:582  x < 10 ? 1 : 2 */\n    tag_22:\n        /* \"solidity\\xe7\\xbb\\x93\\xe6\\x9e\\x84\\xe6\\x8e\\xa7\\xe5\\x88\\xb6.sol\":561:582  return x < 10 ? 1 : 2 */\n      0xff\n      and\n      swap3\n        /* \"solidity\\xe7\\xbb\\x93\\xe6\\x9e\\x84\\xe6\\x8e\\xa7\\xe5\\x88\\xb6.sol\":442:590  function ternary(uint x) external pure returns (uint) {... */\n      swap2\n      pop\n      pop\n      jump\t// out\n        /* \"#utility.yul\":14:194   */\n    tag_7:\n        /* \"#utility.yul\":73:79   */\n      0x00\n        /* \"#utility.yul\":126:128   */\n      0x20\n        /* \"#utility.yul\":114:123   */\n      dup3\n        /* \"#utility.yul\":105:112   */\n      dup5\n        /* \"#utility.yul\":101:124   */\n      sub\n        /* \"#utility.yul\":97:129   */\n      slt\n        /* \"#utility.yul\":94:146   */\n      iszero\n      tag_25\n      jumpi\n        /* \"#utility.yul\":142:143   */\n      0x00\n        /* \"#utility.yul\":139:140   */\n      dup1\n        /* \"#utility.yul\":132:144   */\n      revert\n        /* \"#utility.yul\":94:146   */\n    tag_25:\n      pop\n        /* \"#utility.yul\":165:188   */\n      calldataload\n      swap2\n        /* \"#utility.yul\":14:194   */\n      swap1\n      pop\n      jump\t// out\n\n    auxdata: 0xa2646970667358221220ef155273f70d5b953390784284046f85136c88421dfecb806fadc4ceb0b5cb7864736f6c634300080f0033\n}\n",
				"bytecode": {
					"linkReferences": {},
					"object": "608060405234801561001057600080fd5b5060fa8061001f6000396000f3fe6080604052348015600f57600080fd5b506004361060325760003560e01c8063477e4a0214603757806355278c5b146058575b600080fd5b6046604236600460ac565b6067565b60405190815260200160405180910390f35b6046606336600460ac565b6091565b6000600a821015607957506001919050565b6014821015608957506002919050565b506003919050565b6000600a821060a057600260a3565b60015b60ff1692915050565b60006020828403121560bd57600080fd5b503591905056fea2646970667358221220ef155273f70d5b953390784284046f85136c88421dfecb806fadc4ceb0b5cb7864736f6c634300080f0033",
					"opcodes": "PUSH1 0x80 PUSH1 0x40 MSTORE CALLVALUE DUP1 ISZERO PUSH2 0x10 JUMPI PUSH1 0x0 DUP1 REVERT JUMPDEST POP PUSH1 0xFA DUP1 PUSH2 0x1F PUSH1 0x0 CODECOPY PUSH1 0x0 RETURN INVALID PUSH1 0x80 PUSH1 0x40 MSTORE CALLVALUE DUP1 ISZERO PUSH1 0xF JUMPI PUSH1 0x0 DUP1 REVERT JUMPDEST POP PUSH1 0x4 CALLDATASIZE LT PUSH1 0x32 JUMPI PUSH1 0x0 CALLDATALOAD PUSH1 0xE0 SHR DUP1 PUSH4 0x477E4A02 EQ PUSH1 0x37 JUMPI DUP1 PUSH4 0x55278C5B EQ PUSH1 0x58 JUMPI JUMPDEST PUSH1 0x0 DUP1 REVERT JUMPDEST PUSH1 0x46 PUSH1 0x42 CALLDATASIZE PUSH1 0x4 PUSH1 0xAC JUMP JUMPDEST PUSH1 0x67 JUMP JUMPDEST PUSH1 0x40 MLOAD SWAP1 DUP2 MSTORE PUSH1 0x20 ADD PUSH1 0x40 MLOAD DUP1 SWAP2 SUB SWAP1 RETURN JUMPDEST PUSH1 0x46 PUSH1 0x63 CALLDATASIZE PUSH1 0x4 PUSH1 0xAC JUMP JUMPDEST PUSH1 0x91 JUMP JUMPDEST PUSH1 0x0 PUSH1 0xA DUP3 LT ISZERO PUSH1 0x79 JUMPI POP PUSH1 0x1 SWAP2 SWAP1 POP JUMP JUMPDEST PUSH1 0x14 DUP3 LT ISZERO PUSH1 0x89 JUMPI POP PUSH1 0x2 SWAP2 SWAP1 POP JUMP JUMPDEST POP PUSH1 0x3 SWAP2 SWAP1 POP JUMP JUMPDEST PUSH1 0x0 PUSH1 0xA DUP3 LT PUSH1 0xA0 JUMPI PUSH1 0x2 PUSH1 0xA3 JUMP JUMPDEST PUSH1 0x1 JUMPDEST PUSH1 0xFF AND SWAP3 SWAP2 POP POP JUMP JUMPDEST PUSH1 0x0 PUSH1 0x20 DUP3 DUP5 SUB SLT ISZERO PUSH1 0xBD JUMPI PUSH1 0x0 DUP1 REVERT JUMPDEST POP CALLDATALOAD SWAP2 SWAP1 POP JUMP INVALID LOG2 PUSH5 0x6970667358 0x22 SLT KECCAK256 0xEF ISZERO MSTORE PUSH20 0xF70D5B953390784284046F85136C88421DFECB80 PUSH16 0xADC4CEB0B5CB7864736F6C634300080F STOP CALLER "
				},
				"gasEstimates": {
					"creation": {
						"codeDepositCost": "50000",
						"executionCost": "99",
						"totalCost": "50099"
					},
					"external": {
						"example(uint256)": "312",
						"ternary(uint256)": "322"
					}
				},
				"methodIdentifiers": {
					"example(uint256)": "477e4a02",
					"ternary(uint256)": "55278c5b"
				}
			},
			"storageLayout": {
				"storage": [],
				"types": null
			},
			"userdoc": {
				"kind": "user",
				"methods": {},
				"version": 1
			}
		}
	}
}