{
	"调用其他合约.sol": {
		"CallTestContract": {
			"abi": [
				{
					"inputs": [
						{
							"internalType": "address",
							"name": "_test",
							"type": "address"
						}
					],
					"name": "getXtwo",
					"outputs": [
						{
							"internalType": "uint256",
							"name": "x",
							"type": "uint256"
						}
					],
					"stateMutability": "view",
					"type": "function"
				},
				{
					"inputs": [
						{
							"internalType": "contract TestContract",
							"name": "_test",
							"type": "address"
						},
						{
							"internalType": "uint256",
							"name": "_x",
							"type": "uint256"
						}
					],
					"name": "setXandReceiveEtherOne",
					"outputs": [],
					"stateMutability": "payable",
					"type": "function"
				},
				{
					"inputs": [
						{
							"internalType": "address",
							"name": "_test",
							"type": "address"
						}
					],
					"name": "setXandValueone",
					"outputs": [
						{
							"internalType": "uint256",
							"name": "",
							"type": "uint256"
						},
						{
							"internalType": "uint256",
							"name": "",
							"type": "uint256"
						}
					],
					"stateMutability": "view",
					"type": "function"
				},
				{
					"inputs": [
						{
							"internalType": "contract TestContract",
							"name": "_test",
							"type": "address"
						},
						{
							"internalType": "uint256",
							"name": "_x",
							"type": "uint256"
						}
					],
					"name": "setXtwo",
					"outputs": [],
					"stateMutability": "nonpayable",
					"type": "function"
				}
			],
			"devdoc": {
				"kind": "dev",
				"methods": {},
				"version": 1
			},
			"evm": {
				"assembly": "    /* \"\\xe8\\xb0\\x83\\xe7\\x94\\xa8\\xe5\\x85\\xb6\\xe4\\xbb\\x96\\xe5\\x90\\x88\\xe7\\xba\\xa6.sol\":66:1833  contract CallTestContract  {... */\n  mstore(0x40, 0x80)\n  callvalue\n  dup1\n  iszero\n  tag_1\n  jumpi\n  0x00\n  dup1\n  revert\ntag_1:\n  pop\n  dataSize(sub_0)\n  dup1\n  dataOffset(sub_0)\n  0x00\n  codecopy\n  0x00\n  return\nstop\n\nsub_0: assembly {\n        /* \"\\xe8\\xb0\\x83\\xe7\\x94\\xa8\\xe5\\x85\\xb6\\xe4\\xbb\\x96\\xe5\\x90\\x88\\xe7\\xba\\xa6.sol\":66:1833  contract CallTestContract  {... */\n      mstore(0x40, 0x80)\n      jumpi(tag_1, lt(calldatasize, 0x04))\n      shr(0xe0, calldataload(0x00))\n      dup1\n      0x5483af61\n      eq\n      tag_2\n      jumpi\n      dup1\n      0x705e0c74\n      eq\n      tag_3\n      jumpi\n      dup1\n      0x805b220c\n      eq\n      tag_4\n      jumpi\n      dup1\n      0xf3d98daa\n      eq\n      tag_5\n      jumpi\n    tag_1:\n      0x00\n      dup1\n      revert\n        /* \"\\xe8\\xb0\\x83\\xe7\\x94\\xa8\\xe5\\x85\\xb6\\xe4\\xbb\\x96\\xe5\\x90\\x88\\xe7\\xba\\xa6.sol\":1217:1473  function setXandReceiveEtherOne(TestContract _test, uint _x) external payable {... */\n    tag_2:\n      tag_6\n      tag_7\n      calldatasize\n      0x04\n      tag_8\n      jump\t// in\n    tag_7:\n      tag_9\n      jump\t// in\n    tag_6:\n      stop\n        /* \"\\xe8\\xb0\\x83\\xe7\\x94\\xa8\\xe5\\x85\\xb6\\xe4\\xbb\\x96\\xe5\\x90\\x88\\xe7\\xba\\xa6.sol\":977:1209  function getXtwo(address _test) external view returns (uint x) {... */\n    tag_3:\n      callvalue\n      dup1\n      iszero\n      tag_10\n      jumpi\n      0x00\n      dup1\n      revert\n    tag_10:\n      pop\n      tag_11\n      tag_12\n      calldatasize\n      0x04\n      tag_13\n      jump\t// in\n    tag_12:\n      tag_14\n      jump\t// in\n    tag_11:\n      mload(0x40)\n        /* \"#utility.yul\":930:955   */\n      swap1\n      dup2\n      mstore\n        /* \"#utility.yul\":918:920   */\n      0x20\n        /* \"#utility.yul\":903:921   */\n      add\n        /* \"\\xe8\\xb0\\x83\\xe7\\x94\\xa8\\xe5\\x85\\xb6\\xe4\\xbb\\x96\\xe5\\x90\\x88\\xe7\\xba\\xa6.sol\":977:1209  function getXtwo(address _test) external view returns (uint x) {... */\n    tag_15:\n      mload(0x40)\n      dup1\n      swap2\n      sub\n      swap1\n      return\n        /* \"\\xe8\\xb0\\x83\\xe7\\x94\\xa8\\xe5\\x85\\xb6\\xe4\\xbb\\x96\\xe5\\x90\\x88\\xe7\\xba\\xa6.sol\":1481:1830  function setXandValueone(address _test) external view returns (uint ,uint) {... */\n    tag_4:\n      callvalue\n      dup1\n      iszero\n      tag_17\n      jumpi\n      0x00\n      dup1\n      revert\n    tag_17:\n      pop\n      tag_18\n      tag_19\n      calldatasize\n      0x04\n      tag_13\n      jump\t// in\n    tag_19:\n      tag_20\n      jump\t// in\n    tag_18:\n      0x40\n      dup1\n      mload\n        /* \"#utility.yul\":1140:1165   */\n      swap3\n      dup4\n      mstore\n        /* \"#utility.yul\":1196:1198   */\n      0x20\n        /* \"#utility.yul\":1181:1199   */\n      dup4\n      add\n        /* \"#utility.yul\":1174:1208   */\n      swap2\n      swap1\n      swap2\n      mstore\n        /* \"#utility.yul\":1113:1131   */\n      add\n        /* \"\\xe8\\xb0\\x83\\xe7\\x94\\xa8\\xe5\\x85\\xb6\\xe4\\xbb\\x96\\xe5\\x90\\x88\\xe7\\xba\\xa6.sol\":1481:1830  function setXandValueone(address _test) external view returns (uint ,uint) {... */\n      tag_15\n        /* \"#utility.yul\":966:1214   */\n      jump\n        /* \"\\xe8\\xb0\\x83\\xe7\\x94\\xa8\\xe5\\x85\\xb6\\xe4\\xbb\\x96\\xe5\\x90\\x88\\xe7\\xba\\xa6.sol\":470:558  function setXtwo(TestContract _test, uint _x) external {... */\n    tag_5:\n      callvalue\n      dup1\n      iszero\n      tag_23\n      jumpi\n      0x00\n      dup1\n      revert\n    tag_23:\n      pop\n      tag_6\n      tag_25\n      calldatasize\n      0x04\n      tag_8\n      jump\t// in\n    tag_25:\n      tag_26\n      jump\t// in\n        /* \"\\xe8\\xb0\\x83\\xe7\\x94\\xa8\\xe5\\x85\\xb6\\xe4\\xbb\\x96\\xe5\\x90\\x88\\xe7\\xba\\xa6.sol\":1217:1473  function setXandReceiveEtherOne(TestContract _test, uint _x) external payable {... */\n    tag_9:\n        /* \"\\xe8\\xb0\\x83\\xe7\\x94\\xa8\\xe5\\x85\\xb6\\xe4\\xbb\\x96\\xe5\\x90\\x88\\xe7\\xba\\xa6.sol\":1418:1465  _test.setXandReceiveEther{value: msg.value}(_x) */\n      mload(0x40)\n      shl(0xe0, 0x02f42be9)\n      dup2\n      mstore\n      0x04\n      dup2\n      add\n        /* \"#utility.yul\":930:955   */\n      dup3\n      swap1\n      mstore\n      sub(shl(0xa0, 0x01), 0x01)\n        /* \"\\xe8\\xb0\\x83\\xe7\\x94\\xa8\\xe5\\x85\\xb6\\xe4\\xbb\\x96\\xe5\\x90\\x88\\xe7\\xba\\xa6.sol\":1418:1443  _test.setXandReceiveEther */\n      dup4\n      and\n      swap1\n      0x02f42be9\n      swap1\n        /* \"\\xe8\\xb0\\x83\\xe7\\x94\\xa8\\xe5\\x85\\xb6\\xe4\\xbb\\x96\\xe5\\x90\\x88\\xe7\\xba\\xa6.sol\":1451:1460  msg.value */\n      callvalue\n      swap1\n        /* \"#utility.yul\":903:921   */\n      0x24\n      add\n        /* \"\\xe8\\xb0\\x83\\xe7\\x94\\xa8\\xe5\\x85\\xb6\\xe4\\xbb\\x96\\xe5\\x90\\x88\\xe7\\xba\\xa6.sol\":1418:1465  _test.setXandReceiveEther{value: msg.value}(_x) */\n      0x00\n      mload(0x40)\n      dup1\n      dup4\n      sub\n      dup2\n      dup6\n      dup9\n      dup1\n      extcodesize\n      iszero\n      dup1\n      iszero\n      tag_29\n      jumpi\n      0x00\n      dup1\n      revert\n    tag_29:\n      pop\n      gas\n      call\n      iszero\n      dup1\n      iszero\n      tag_31\n      jumpi\n      returndatasize\n      0x00\n      dup1\n      returndatacopy\n      revert(0x00, returndatasize)\n    tag_31:\n      pop\n      pop\n      pop\n      pop\n      pop\n        /* \"\\xe8\\xb0\\x83\\xe7\\x94\\xa8\\xe5\\x85\\xb6\\xe4\\xbb\\x96\\xe5\\x90\\x88\\xe7\\xba\\xa6.sol\":1217:1473  function setXandReceiveEtherOne(TestContract _test, uint _x) external payable {... */\n      pop\n      pop\n      jump\t// out\n        /* \"\\xe8\\xb0\\x83\\xe7\\x94\\xa8\\xe5\\x85\\xb6\\xe4\\xbb\\x96\\xe5\\x90\\x88\\xe7\\xba\\xa6.sol\":977:1209  function getXtwo(address _test) external view returns (uint x) {... */\n    tag_14:\n        /* \"\\xe8\\xb0\\x83\\xe7\\x94\\xa8\\xe5\\x85\\xb6\\xe4\\xbb\\x96\\xe5\\x90\\x88\\xe7\\xba\\xa6.sol\":1032:1038  uint x */\n      0x00\n        /* \"\\xe8\\xb0\\x83\\xe7\\x94\\xa8\\xe5\\x85\\xb6\\xe4\\xbb\\x96\\xe5\\x90\\x88\\xe7\\xba\\xa6.sol\":1188:1193  _test */\n      dup2\n      sub(shl(0xa0, 0x01), 0x01)\n        /* \"\\xe8\\xb0\\x83\\xe7\\x94\\xa8\\xe5\\x85\\xb6\\xe4\\xbb\\x96\\xe5\\x90\\x88\\xe7\\xba\\xa6.sol\":1175:1199  TestContract(_test).getX */\n      and\n      0x5197c7aa\n        /* \"\\xe8\\xb0\\x83\\xe7\\x94\\xa8\\xe5\\x85\\xb6\\xe4\\xbb\\x96\\xe5\\x90\\x88\\xe7\\xba\\xa6.sol\":1175:1201  TestContract(_test).getX() */\n      mload(0x40)\n      dup2\n      0xffffffff\n      and\n      0xe0\n      shl\n      dup2\n      mstore\n      0x04\n      add\n      0x20\n      mload(0x40)\n      dup1\n      dup4\n      sub\n      dup2\n      dup7\n      gas\n      staticcall\n      iszero\n      dup1\n      iszero\n      tag_34\n      jumpi\n      returndatasize\n      0x00\n      dup1\n      returndatacopy\n      revert(0x00, returndatasize)\n    tag_34:\n      pop\n      pop\n      pop\n      pop\n      mload(0x40)\n      returndatasize\n      not(0x1f)\n      0x1f\n      dup3\n      add\n      and\n      dup3\n      add\n      dup1\n      0x40\n      mstore\n      pop\n      dup2\n      add\n      swap1\n      tag_35\n      swap2\n      swap1\n      tag_36\n      jump\t// in\n    tag_35:\n        /* \"\\xe8\\xb0\\x83\\xe7\\x94\\xa8\\xe5\\x85\\xb6\\xe4\\xbb\\x96\\xe5\\x90\\x88\\xe7\\xba\\xa6.sol\":1171:1201  x = TestContract(_test).getX() */\n      swap3\n        /* \"\\xe8\\xb0\\x83\\xe7\\x94\\xa8\\xe5\\x85\\xb6\\xe4\\xbb\\x96\\xe5\\x90\\x88\\xe7\\xba\\xa6.sol\":977:1209  function getXtwo(address _test) external view returns (uint x) {... */\n      swap2\n      pop\n      pop\n      jump\t// out\n        /* \"\\xe8\\xb0\\x83\\xe7\\x94\\xa8\\xe5\\x85\\xb6\\xe4\\xbb\\x96\\xe5\\x90\\x88\\xe7\\xba\\xa6.sol\":1481:1830  function setXandValueone(address _test) external view returns (uint ,uint) {... */\n    tag_20:\n        /* \"\\xe8\\xb0\\x83\\xe7\\x94\\xa8\\xe5\\x85\\xb6\\xe4\\xbb\\x96\\xe5\\x90\\x88\\xe7\\xba\\xa6.sol\":1544:1548  uint */\n      0x00\n        /* \"\\xe8\\xb0\\x83\\xe7\\x94\\xa8\\xe5\\x85\\xb6\\xe4\\xbb\\x96\\xe5\\x90\\x88\\xe7\\xba\\xa6.sol\":1550:1554  uint */\n      dup1\n        /* \"\\xe8\\xb0\\x83\\xe7\\x94\\xa8\\xe5\\x85\\xb6\\xe4\\xbb\\x96\\xe5\\x90\\x88\\xe7\\xba\\xa6.sol\":1738:1744  uint x */\n      0x00\n        /* \"\\xe8\\xb0\\x83\\xe7\\x94\\xa8\\xe5\\x85\\xb6\\xe4\\xbb\\x96\\xe5\\x90\\x88\\xe7\\xba\\xa6.sol\":1746:1756  uint value */\n      dup1\n        /* \"\\xe8\\xb0\\x83\\xe7\\x94\\xa8\\xe5\\x85\\xb6\\xe4\\xbb\\x96\\xe5\\x90\\x88\\xe7\\xba\\xa6.sol\":1773:1778  _test */\n      dup5\n      sub(shl(0xa0, 0x01), 0x01)\n        /* \"\\xe8\\xb0\\x83\\xe7\\x94\\xa8\\xe5\\x85\\xb6\\xe4\\xbb\\x96\\xe5\\x90\\x88\\xe7\\xba\\xa6.sol\":1760:1792  TestContract(_test).setXandValue */\n      and\n      0x637d4246\n        /* \"\\xe8\\xb0\\x83\\xe7\\x94\\xa8\\xe5\\x85\\xb6\\xe4\\xbb\\x96\\xe5\\x90\\x88\\xe7\\xba\\xa6.sol\":1760:1794  TestContract(_test).setXandValue() */\n      mload(0x40)\n      dup2\n      0xffffffff\n      and\n      0xe0\n      shl\n      dup2\n      mstore\n      0x04\n      add\n      0x40\n      dup1\n      mload\n      dup1\n      dup4\n      sub\n      dup2\n      dup7\n      gas\n      staticcall\n      iszero\n      dup1\n      iszero\n      tag_39\n      jumpi\n      returndatasize\n      0x00\n      dup1\n      returndatacopy\n      revert(0x00, returndatasize)\n    tag_39:\n      pop\n      pop\n      pop\n      pop\n      mload(0x40)\n      returndatasize\n      not(0x1f)\n      0x1f\n      dup3\n      add\n      and\n      dup3\n      add\n      dup1\n      0x40\n      mstore\n      pop\n      dup2\n      add\n      swap1\n      tag_40\n      swap2\n      swap1\n      tag_41\n      jump\t// in\n    tag_40:\n        /* \"\\xe8\\xb0\\x83\\xe7\\x94\\xa8\\xe5\\x85\\xb6\\xe4\\xbb\\x96\\xe5\\x90\\x88\\xe7\\xba\\xa6.sol\":1737:1794  (uint x, uint value) = TestContract(_test).setXandValue() */\n      swap1\n      swap7\n      swap1\n      swap6\n      pop\n        /* \"\\xe8\\xb0\\x83\\xe7\\x94\\xa8\\xe5\\x85\\xb6\\xe4\\xbb\\x96\\xe5\\x90\\x88\\xe7\\xba\\xa6.sol\":1481:1830  function setXandValueone(address _test) external view returns (uint ,uint) {... */\n      swap4\n      pop\n      pop\n      pop\n      pop\n      jump\t// out\n        /* \"\\xe8\\xb0\\x83\\xe7\\x94\\xa8\\xe5\\x85\\xb6\\xe4\\xbb\\x96\\xe5\\x90\\x88\\xe7\\xba\\xa6.sol\":470:558  function setXtwo(TestContract _test, uint _x) external {... */\n    tag_26:\n        /* \"\\xe8\\xb0\\x83\\xe7\\x94\\xa8\\xe5\\x85\\xb6\\xe4\\xbb\\x96\\xe5\\x90\\x88\\xe7\\xba\\xa6.sol\":536:550  _test.setX(_x) */\n      mload(0x40)\n      shl(0xe1, 0x200c6cd5)\n      dup2\n      mstore\n      0x04\n      dup2\n      add\n        /* \"#utility.yul\":930:955   */\n      dup3\n      swap1\n      mstore\n      sub(shl(0xa0, 0x01), 0x01)\n        /* \"\\xe8\\xb0\\x83\\xe7\\x94\\xa8\\xe5\\x85\\xb6\\xe4\\xbb\\x96\\xe5\\x90\\x88\\xe7\\xba\\xa6.sol\":536:546  _test.setX */\n      dup4\n      and\n      swap1\n      0x4018d9aa\n      swap1\n        /* \"#utility.yul\":903:921   */\n      0x24\n      add\n        /* \"\\xe8\\xb0\\x83\\xe7\\x94\\xa8\\xe5\\x85\\xb6\\xe4\\xbb\\x96\\xe5\\x90\\x88\\xe7\\xba\\xa6.sol\":536:550  _test.setX(_x) */\n      0x00\n      mload(0x40)\n      dup1\n      dup4\n      sub\n      dup2\n      0x00\n      dup8\n      dup1\n      extcodesize\n      iszero\n      dup1\n      iszero\n      tag_44\n      jumpi\n      0x00\n      dup1\n      revert\n    tag_44:\n      pop\n      gas\n      call\n      iszero\n      dup1\n      iszero\n      tag_46\n      jumpi\n      returndatasize\n      0x00\n      dup1\n      returndatacopy\n      revert(0x00, returndatasize)\n    tag_46:\n      pop\n      pop\n      pop\n      pop\n        /* \"\\xe8\\xb0\\x83\\xe7\\x94\\xa8\\xe5\\x85\\xb6\\xe4\\xbb\\x96\\xe5\\x90\\x88\\xe7\\xba\\xa6.sol\":470:558  function setXtwo(TestContract _test, uint _x) external {... */\n      pop\n      pop\n      jump\t// out\n        /* \"#utility.yul\":14:159   */\n    tag_47:\n      sub(shl(0xa0, 0x01), 0x01)\n        /* \"#utility.yul\":103:134   */\n      dup2\n      and\n        /* \"#utility.yul\":93:135   */\n      dup2\n      eq\n        /* \"#utility.yul\":83:153   */\n      tag_50\n      jumpi\n        /* \"#utility.yul\":149:150   */\n      0x00\n        /* \"#utility.yul\":146:147   */\n      dup1\n        /* \"#utility.yul\":139:151   */\n      revert\n        /* \"#utility.yul\":83:153   */\n    tag_50:\n        /* \"#utility.yul\":14:159   */\n      pop\n      jump\t// out\n        /* \"#utility.yul\":164:513   */\n    tag_8:\n        /* \"#utility.yul\":252:258   */\n      0x00\n        /* \"#utility.yul\":260:266   */\n      dup1\n        /* \"#utility.yul\":313:315   */\n      0x40\n        /* \"#utility.yul\":301:310   */\n      dup4\n        /* \"#utility.yul\":292:299   */\n      dup6\n        /* \"#utility.yul\":288:311   */\n      sub\n        /* \"#utility.yul\":284:316   */\n      slt\n        /* \"#utility.yul\":281:333   */\n      iszero\n      tag_52\n      jumpi\n        /* \"#utility.yul\":329:330   */\n      0x00\n        /* \"#utility.yul\":326:327   */\n      dup1\n        /* \"#utility.yul\":319:331   */\n      revert\n        /* \"#utility.yul\":281:333   */\n    tag_52:\n        /* \"#utility.yul\":368:377   */\n      dup3\n        /* \"#utility.yul\":355:378   */\n      calldataload\n        /* \"#utility.yul\":387:432   */\n      tag_53\n        /* \"#utility.yul\":426:431   */\n      dup2\n        /* \"#utility.yul\":387:432   */\n      tag_47\n      jump\t// in\n    tag_53:\n        /* \"#utility.yul\":451:456   */\n      swap5\n        /* \"#utility.yul\":503:505   */\n      0x20\n        /* \"#utility.yul\":488:506   */\n      swap4\n      swap1\n      swap4\n      add\n        /* \"#utility.yul\":475:507   */\n      calldataload\n      swap4\n      pop\n      pop\n      pop\n        /* \"#utility.yul\":164:513   */\n      jump\t// out\n        /* \"#utility.yul\":518:779   */\n    tag_13:\n        /* \"#utility.yul\":577:583   */\n      0x00\n        /* \"#utility.yul\":630:632   */\n      0x20\n        /* \"#utility.yul\":618:627   */\n      dup3\n        /* \"#utility.yul\":609:616   */\n      dup5\n        /* \"#utility.yul\":605:628   */\n      sub\n        /* \"#utility.yul\":601:633   */\n      slt\n        /* \"#utility.yul\":598:650   */\n      iszero\n      tag_55\n      jumpi\n        /* \"#utility.yul\":646:647   */\n      0x00\n        /* \"#utility.yul\":643:644   */\n      dup1\n        /* \"#utility.yul\":636:648   */\n      revert\n        /* \"#utility.yul\":598:650   */\n    tag_55:\n        /* \"#utility.yul\":685:694   */\n      dup2\n        /* \"#utility.yul\":672:695   */\n      calldataload\n        /* \"#utility.yul\":704:749   */\n      tag_56\n        /* \"#utility.yul\":743:748   */\n      dup2\n        /* \"#utility.yul\":704:749   */\n      tag_47\n      jump\t// in\n    tag_56:\n        /* \"#utility.yul\":768:773   */\n      swap4\n        /* \"#utility.yul\":518:779   */\n      swap3\n      pop\n      pop\n      pop\n      jump\t// out\n        /* \"#utility.yul\":1219:1403   */\n    tag_36:\n        /* \"#utility.yul\":1289:1295   */\n      0x00\n        /* \"#utility.yul\":1342:1344   */\n      0x20\n        /* \"#utility.yul\":1330:1339   */\n      dup3\n        /* \"#utility.yul\":1321:1328   */\n      dup5\n        /* \"#utility.yul\":1317:1340   */\n      sub\n        /* \"#utility.yul\":1313:1345   */\n      slt\n        /* \"#utility.yul\":1310:1362   */\n      iszero\n      tag_60\n      jumpi\n        /* \"#utility.yul\":1358:1359   */\n      0x00\n        /* \"#utility.yul\":1355:1356   */\n      dup1\n        /* \"#utility.yul\":1348:1360   */\n      revert\n        /* \"#utility.yul\":1310:1362   */\n    tag_60:\n      pop\n        /* \"#utility.yul\":1381:1397   */\n      mload\n      swap2\n        /* \"#utility.yul\":1219:1403   */\n      swap1\n      pop\n      jump\t// out\n        /* \"#utility.yul\":1408:1653   */\n    tag_41:\n        /* \"#utility.yul\":1487:1493   */\n      0x00\n        /* \"#utility.yul\":1495:1501   */\n      dup1\n        /* \"#utility.yul\":1548:1550   */\n      0x40\n        /* \"#utility.yul\":1536:1545   */\n      dup4\n        /* \"#utility.yul\":1527:1534   */\n      dup6\n        /* \"#utility.yul\":1523:1546   */\n      sub\n        /* \"#utility.yul\":1519:1551   */\n      slt\n        /* \"#utility.yul\":1516:1568   */\n      iszero\n      tag_62\n      jumpi\n        /* \"#utility.yul\":1564:1565   */\n      0x00\n        /* \"#utility.yul\":1561:1562   */\n      dup1\n        /* \"#utility.yul\":1554:1566   */\n      revert\n        /* \"#utility.yul\":1516:1568   */\n    tag_62:\n      pop\n      pop\n        /* \"#utility.yul\":1587:1603   */\n      dup1\n      mload\n        /* \"#utility.yul\":1643:1645   */\n      0x20\n        /* \"#utility.yul\":1628:1646   */\n      swap1\n      swap2\n      add\n        /* \"#utility.yul\":1622:1647   */\n      mload\n        /* \"#utility.yul\":1587:1603   */\n      swap1\n      swap3\n        /* \"#utility.yul\":1622:1647   */\n      swap1\n      swap2\n      pop\n        /* \"#utility.yul\":1408:1653   */\n      jump\t// out\n\n    auxdata: 0xa26469706673582212208658e235ffbc55a39d6796feffbb3a0faee2e3a38565142ff26af9315583062e64736f6c634300080f0033\n}\n",
				"bytecode": {
					"linkReferences": {},
					"object": "608060405234801561001057600080fd5b50610357806100206000396000f3fe60806040526004361061003f5760003560e01c80635483af6114610044578063705e0c7414610059578063805b220c1461008c578063f3d98daa146100c1575b600080fd5b610057610052366004610294565b6100e1565b005b34801561006557600080fd5b506100796100743660046102c0565b610141565b6040519081526020015b60405180910390f35b34801561009857600080fd5b506100ac6100a73660046102c0565b6101ab565b60408051928352602083019190915201610083565b3480156100cd57600080fd5b506100576100dc366004610294565b61021e565b6040516302f42be960e01b8152600481018290526001600160a01b038316906302f42be99034906024016000604051808303818588803b15801561012457600080fd5b505af1158015610138573d6000803e3d6000fd5b50505050505050565b6000816001600160a01b0316635197c7aa6040518163ffffffff1660e01b8152600401602060405180830381865afa158015610181573d6000803e3d6000fd5b505050506040513d601f19601f820116820180604052508101906101a591906102e4565b92915050565b600080600080846001600160a01b031663637d42466040518163ffffffff1660e01b81526004016040805180830381865afa1580156101ee573d6000803e3d6000fd5b505050506040513d601f19601f8201168201806040525081019061021291906102fd565b90969095509350505050565b60405163200c6cd560e11b8152600481018290526001600160a01b03831690634018d9aa90602401600060405180830381600087803b15801561026057600080fd5b505af1158015610274573d6000803e3d6000fd5b505050505050565b6001600160a01b038116811461029157600080fd5b50565b600080604083850312156102a757600080fd5b82356102b28161027c565b946020939093013593505050565b6000602082840312156102d257600080fd5b81356102dd8161027c565b9392505050565b6000602082840312156102f657600080fd5b5051919050565b6000806040838503121561031057600080fd5b50508051602090910151909290915056fea26469706673582212208658e235ffbc55a39d6796feffbb3a0faee2e3a38565142ff26af9315583062e64736f6c634300080f0033",
					"opcodes": "PUSH1 0x80 PUSH1 0x40 MSTORE CALLVALUE DUP1 ISZERO PUSH2 0x10 JUMPI PUSH1 0x0 DUP1 REVERT JUMPDEST POP PUSH2 0x357 DUP1 PUSH2 0x20 PUSH1 0x0 CODECOPY PUSH1 0x0 RETURN INVALID PUSH1 0x80 PUSH1 0x40 MSTORE PUSH1 0x4 CALLDATASIZE LT PUSH2 0x3F JUMPI PUSH1 0x0 CALLDATALOAD PUSH1 0xE0 SHR DUP1 PUSH4 0x5483AF61 EQ PUSH2 0x44 JUMPI DUP1 PUSH4 0x705E0C74 EQ PUSH2 0x59 JUMPI DUP1 PUSH4 0x805B220C EQ PUSH2 0x8C JUMPI DUP1 PUSH4 0xF3D98DAA EQ PUSH2 0xC1 JUMPI JUMPDEST PUSH1 0x0 DUP1 REVERT JUMPDEST PUSH2 0x57 PUSH2 0x52 CALLDATASIZE PUSH1 0x4 PUSH2 0x294 JUMP JUMPDEST PUSH2 0xE1 JUMP JUMPDEST STOP JUMPDEST CALLVALUE DUP1 ISZERO PUSH2 0x65 JUMPI PUSH1 0x0 DUP1 REVERT JUMPDEST POP PUSH2 0x79 PUSH2 0x74 CALLDATASIZE PUSH1 0x4 PUSH2 0x2C0 JUMP JUMPDEST PUSH2 0x141 JUMP JUMPDEST PUSH1 0x40 MLOAD SWAP1 DUP2 MSTORE PUSH1 0x20 ADD JUMPDEST PUSH1 0x40 MLOAD DUP1 SWAP2 SUB SWAP1 RETURN JUMPDEST CALLVALUE DUP1 ISZERO PUSH2 0x98 JUMPI PUSH1 0x0 DUP1 REVERT JUMPDEST POP PUSH2 0xAC PUSH2 0xA7 CALLDATASIZE PUSH1 0x4 PUSH2 0x2C0 JUMP JUMPDEST PUSH2 0x1AB JUMP JUMPDEST PUSH1 0x40 DUP1 MLOAD SWAP3 DUP4 MSTORE PUSH1 0x20 DUP4 ADD SWAP2 SWAP1 SWAP2 MSTORE ADD PUSH2 0x83 JUMP JUMPDEST CALLVALUE DUP1 ISZERO PUSH2 0xCD JUMPI PUSH1 0x0 DUP1 REVERT JUMPDEST POP PUSH2 0x57 PUSH2 0xDC CALLDATASIZE PUSH1 0x4 PUSH2 0x294 JUMP JUMPDEST PUSH2 0x21E JUMP JUMPDEST PUSH1 0x40 MLOAD PUSH4 0x2F42BE9 PUSH1 0xE0 SHL DUP2 MSTORE PUSH1 0x4 DUP2 ADD DUP3 SWAP1 MSTORE PUSH1 0x1 PUSH1 0x1 PUSH1 0xA0 SHL SUB DUP4 AND SWAP1 PUSH4 0x2F42BE9 SWAP1 CALLVALUE SWAP1 PUSH1 0x24 ADD PUSH1 0x0 PUSH1 0x40 MLOAD DUP1 DUP4 SUB DUP2 DUP6 DUP9 DUP1 EXTCODESIZE ISZERO DUP1 ISZERO PUSH2 0x124 JUMPI PUSH1 0x0 DUP1 REVERT JUMPDEST POP GAS CALL ISZERO DUP1 ISZERO PUSH2 0x138 JUMPI RETURNDATASIZE PUSH1 0x0 DUP1 RETURNDATACOPY RETURNDATASIZE PUSH1 0x0 REVERT JUMPDEST POP POP POP POP POP POP POP JUMP JUMPDEST PUSH1 0x0 DUP2 PUSH1 0x1 PUSH1 0x1 PUSH1 0xA0 SHL SUB AND PUSH4 0x5197C7AA PUSH1 0x40 MLOAD DUP2 PUSH4 0xFFFFFFFF AND PUSH1 0xE0 SHL DUP2 MSTORE PUSH1 0x4 ADD PUSH1 0x20 PUSH1 0x40 MLOAD DUP1 DUP4 SUB DUP2 DUP7 GAS STATICCALL ISZERO DUP1 ISZERO PUSH2 0x181 JUMPI RETURNDATASIZE PUSH1 0x0 DUP1 RETURNDATACOPY RETURNDATASIZE PUSH1 0x0 REVERT JUMPDEST POP POP POP POP PUSH1 0x40 MLOAD RETURNDATASIZE PUSH1 0x1F NOT PUSH1 0x1F DUP3 ADD AND DUP3 ADD DUP1 PUSH1 0x40 MSTORE POP DUP2 ADD SWAP1 PUSH2 0x1A5 SWAP2 SWAP1 PUSH2 0x2E4 JUMP JUMPDEST SWAP3 SWAP2 POP POP JUMP JUMPDEST PUSH1 0x0 DUP1 PUSH1 0x0 DUP1 DUP5 PUSH1 0x1 PUSH1 0x1 PUSH1 0xA0 SHL SUB AND PUSH4 0x637D4246 PUSH1 0x40 MLOAD DUP2 PUSH4 0xFFFFFFFF AND PUSH1 0xE0 SHL DUP2 MSTORE PUSH1 0x4 ADD PUSH1 0x40 DUP1 MLOAD DUP1 DUP4 SUB DUP2 DUP7 GAS STATICCALL ISZERO DUP1 ISZERO PUSH2 0x1EE JUMPI RETURNDATASIZE PUSH1 0x0 DUP1 RETURNDATACOPY RETURNDATASIZE PUSH1 0x0 REVERT JUMPDEST POP POP POP POP PUSH1 0x40 MLOAD RETURNDATASIZE PUSH1 0x1F NOT PUSH1 0x1F DUP3 ADD AND DUP3 ADD DUP1 PUSH1 0x40 MSTORE POP DUP2 ADD SWAP1 PUSH2 0x212 SWAP2 SWAP1 PUSH2 0x2FD JUMP JUMPDEST SWAP1 SWAP7 SWAP1 SWAP6 POP SWAP4 POP POP POP POP JUMP JUMPDEST PUSH1 0x40 MLOAD PUSH4 0x200C6CD5 PUSH1 0xE1 SHL DUP2 MSTORE PUSH1 0x4 DUP2 ADD DUP3 SWAP1 MSTORE PUSH1 0x1 PUSH1 0x1 PUSH1 0xA0 SHL SUB DUP4 AND SWAP1 PUSH4 0x4018D9AA SWAP1 PUSH1 0x24 ADD PUSH1 0x0 PUSH1 0x40 MLOAD DUP1 DUP4 SUB DUP2 PUSH1 0x0 DUP8 DUP1 EXTCODESIZE ISZERO DUP1 ISZERO PUSH2 0x260 JUMPI PUSH1 0x0 DUP1 REVERT JUMPDEST POP GAS CALL ISZERO DUP1 ISZERO PUSH2 0x274 JUMPI RETURNDATASIZE PUSH1 0x0 DUP1 RETURNDATACOPY RETURNDATASIZE PUSH1 0x0 REVERT JUMPDEST POP POP POP POP POP POP JUMP JUMPDEST PUSH1 0x1 PUSH1 0x1 PUSH1 0xA0 SHL SUB DUP2 AND DUP2 EQ PUSH2 0x291 JUMPI PUSH1 0x0 DUP1 REVERT JUMPDEST POP JUMP JUMPDEST PUSH1 0x0 DUP1 PUSH1 0x40 DUP4 DUP6 SUB SLT ISZERO PUSH2 0x2A7 JUMPI PUSH1 0x0 DUP1 REVERT JUMPDEST DUP3 CALLDATALOAD PUSH2 0x2B2 DUP2 PUSH2 0x27C JUMP JUMPDEST SWAP5 PUSH1 0x20 SWAP4 SWAP1 SWAP4 ADD CALLDATALOAD SWAP4 POP POP POP JUMP JUMPDEST PUSH1 0x0 PUSH1 0x20 DUP3 DUP5 SUB SLT ISZERO PUSH2 0x2D2 JUMPI PUSH1 0x0 DUP1 REVERT JUMPDEST DUP2 CALLDATALOAD PUSH2 0x2DD DUP2 PUSH2 0x27C JUMP JUMPDEST SWAP4 SWAP3 POP POP POP JUMP JUMPDEST PUSH1 0x0 PUSH1 0x20 DUP3 DUP5 SUB SLT ISZERO PUSH2 0x2F6 JUMPI PUSH1 0x0 DUP1 REVERT JUMPDEST POP MLOAD SWAP2 SWAP1 POP JUMP JUMPDEST PUSH1 0x0 DUP1 PUSH1 0x40 DUP4 DUP6 SUB SLT ISZERO PUSH2 0x310 JUMPI PUSH1 0x0 DUP1 REVERT JUMPDEST POP POP DUP1 MLOAD PUSH1 0x20 SWAP1 SWAP2 ADD MLOAD SWAP1 SWAP3 SWAP1 SWAP2 POP JUMP INVALID LOG2 PUSH5 0x6970667358 0x22 SLT KECCAK256 DUP7 PC 0xE2 CALLDATALOAD SELFDESTRUCT 0xBC SSTORE LOG3 SWAP14 PUSH8 0x96FEFFBB3A0FAEE2 0xE3 LOG3 DUP6 PUSH6 0x142FF26AF931 SSTORE DUP4 MOD 0x2E PUSH5 0x736F6C6343 STOP ADDMOD 0xF STOP CALLER "
				},
				"gasEstimates": {
					"creation": {
						"codeDepositCost": "171000",
						"executionCost": "214",
						"totalCost": "171214"
					},
					"external": {
						"getXtwo(address)": "infinite",
						"setXandReceiveEtherOne(address,uint256)": "infinite",
						"setXandValueone(address)": "infinite",
						"setXtwo(address,uint256)": "infinite"
					}
				},
				"methodIdentifiers": {
					"getXtwo(address)": "705e0c74",
					"setXandReceiveEtherOne(address,uint256)": "5483af61",
					"setXandValueone(address)": "805b220c",
					"setXtwo(address,uint256)": "f3d98daa"
				}
			},
			"storageLayout": {
				"storage": [],
				"types": null
			},
			"userdoc": {
				"kind": "user",
				"methods": {},
				"version": 1
			}
		}
	}
}