{
	"定息矿池-进阶.sol": {
		"StakeContract": {
			"abi": [
				{
					"inputs": [
						{
							"internalType": "address",
							"name": "_staketoken",
							"type": "address"
						}
					],
					"stateMutability": "nonpayable",
					"type": "constructor"
				},
				{
					"inputs": [
						{
							"internalType": "address",
							"name": "",
							"type": "address"
						}
					],
					"name": "User_Map",
					"outputs": [
						{
							"internalType": "uint256",
							"name": "stakeNumber",
							"type": "uint256"
						},
						{
							"internalType": "uint256",
							"name": "last_Stake_Time",
							"type": "uint256"
						},
						{
							"internalType": "uint256",
							"name": "last_totoken_ratio",
							"type": "uint256"
						},
						{
							"internalType": "uint256",
							"name": "whole_ratio",
							"type": "uint256"
						},
						{
							"internalType": "uint256",
							"name": "last_totoken_Time",
							"type": "uint256"
						}
					],
					"stateMutability": "view",
					"type": "function"
				},
				{
					"inputs": [
						{
							"internalType": "uint256",
							"name": "_amount",
							"type": "uint256"
						}
					],
					"name": "deposit",
					"outputs": [
						{
							"internalType": "bool",
							"name": "",
							"type": "bool"
						}
					],
					"stateMutability": "nonpayable",
					"type": "function"
				},
				{
					"inputs": [],
					"name": "owner",
					"outputs": [
						{
							"internalType": "address",
							"name": "",
							"type": "address"
						}
					],
					"stateMutability": "view",
					"type": "function"
				},
				{
					"inputs": [],
					"name": "ratio",
					"outputs": [
						{
							"internalType": "uint256",
							"name": "",
							"type": "uint256"
						}
					],
					"stateMutability": "view",
					"type": "function"
				},
				{
					"inputs": [],
					"name": "rewardtoken",
					"outputs": [
						{
							"internalType": "address",
							"name": "",
							"type": "address"
						}
					],
					"stateMutability": "view",
					"type": "function"
				},
				{
					"inputs": [
						{
							"internalType": "uint256",
							"name": "_ratio",
							"type": "uint256"
						}
					],
					"name": "setratio",
					"outputs": [],
					"stateMutability": "nonpayable",
					"type": "function"
				},
				{
					"inputs": [],
					"name": "staketoken",
					"outputs": [
						{
							"internalType": "address",
							"name": "",
							"type": "address"
						}
					],
					"stateMutability": "view",
					"type": "function"
				},
				{
					"inputs": [],
					"name": "staketotal",
					"outputs": [
						{
							"internalType": "uint256",
							"name": "",
							"type": "uint256"
						}
					],
					"stateMutability": "view",
					"type": "function"
				}
			],
			"devdoc": {
				"kind": "dev",
				"methods": {},
				"version": 1
			},
			"evm": {
				"assembly": "    /* \"\\xe5\\xae\\x9a\\xe6\\x81\\xaf\\xe7\\x9f\\xbf\\xe6\\xb1\\xa0-\\xe8\\xbf\\x9b\\xe9\\x98\\xb6.sol\":169:2346  contract StakeContract {... */\n  mstore(0x40, 0x80)\n    /* \"\\xe5\\xae\\x9a\\xe6\\x81\\xaf\\xe7\\x9f\\xbf\\xe6\\xb1\\xa0-\\xe8\\xbf\\x9b\\xe9\\x98\\xb6.sol\":912:1118  constructor (address _staketoken) {... */\n  callvalue\n  dup1\n  iszero\n  tag_1\n  jumpi\n  0x00\n  dup1\n  revert\ntag_1:\n  pop\n  mload(0x40)\n  sub(codesize, bytecodeSize)\n  dup1\n  bytecodeSize\n  dup4\n  codecopy\n  dup2\n  add\n  0x40\n  dup2\n  swap1\n  mstore\n  tag_2\n  swap2\n  tag_3\n  jump\t// in\ntag_2:\n    /* \"\\xe5\\xae\\x9a\\xe6\\x81\\xaf\\xe7\\x9f\\xbf\\xe6\\xb1\\xa0-\\xe8\\xbf\\x9b\\xe9\\x98\\xb6.sol\":957:962  owner */\n  0x04\n    /* \"\\xe5\\xae\\x9a\\xe6\\x81\\xaf\\xe7\\x9f\\xbf\\xe6\\xb1\\xa0-\\xe8\\xbf\\x9b\\xe9\\x98\\xb6.sol\":957:975  owner = msg.sender */\n  dup1\n  sload\n  not(sub(shl(0xa0, 0x01), 0x01))\n  and\n    /* \"\\xe5\\xae\\x9a\\xe6\\x81\\xaf\\xe7\\x9f\\xbf\\xe6\\xb1\\xa0-\\xe8\\xbf\\x9b\\xe9\\x98\\xb6.sol\":965:975  msg.sender */\n  caller\n    /* \"\\xe5\\xae\\x9a\\xe6\\x81\\xaf\\xe7\\x9f\\xbf\\xe6\\xb1\\xa0-\\xe8\\xbf\\x9b\\xe9\\x98\\xb6.sol\":957:975  owner = msg.sender */\n  or\n  swap1\n  sstore\n  sub(shl(0xa0, 0x01), 0x01)\n    /* \"\\xe5\\xae\\x9a\\xe6\\x81\\xaf\\xe7\\x9f\\xbf\\xe6\\xb1\\xa0-\\xe8\\xbf\\x9b\\xe9\\x98\\xb6.sol\":994:1019  _staketoken != address(0) */\n  dup2\n  and\n    /* \"\\xe5\\xae\\x9a\\xe6\\x81\\xaf\\xe7\\x9f\\xbf\\xe6\\xb1\\xa0-\\xe8\\xbf\\x9b\\xe9\\x98\\xb6.sol\":986:1039  require(_staketoken != address(0),\"NOT,S 0X ADDRESS\") */\n  tag_6\n  jumpi\n  mload(0x40)\n  shl(0xe5, 0x461bcd)\n  dup2\n  mstore\n    /* \"#utility.yul\":511:513   */\n  0x20\n    /* \"\\xe5\\xae\\x9a\\xe6\\x81\\xaf\\xe7\\x9f\\xbf\\xe6\\xb1\\xa0-\\xe8\\xbf\\x9b\\xe9\\x98\\xb6.sol\":986:1039  require(_staketoken != address(0),\"NOT,S 0X ADDRESS\") */\n  0x04\n  dup3\n  add\n    /* \"#utility.yul\":493:514   */\n  mstore\n    /* \"#utility.yul\":550:552   */\n  0x10\n    /* \"#utility.yul\":530:548   */\n  0x24\n  dup3\n  add\n    /* \"#utility.yul\":523:553   */\n  mstore\n  shl(0x80, 0x4e4f542c532030582041444452455353)\n    /* \"#utility.yul\":569:587   */\n  0x44\n  dup3\n  add\n    /* \"#utility.yul\":562:608   */\n  mstore\n    /* \"#utility.yul\":625:643   */\n  0x64\n  add\n    /* \"\\xe5\\xae\\x9a\\xe6\\x81\\xaf\\xe7\\x9f\\xbf\\xe6\\xb1\\xa0-\\xe8\\xbf\\x9b\\xe9\\x98\\xb6.sol\":986:1039  require(_staketoken != address(0),\"NOT,S 0X ADDRESS\") */\n  mload(0x40)\n  dup1\n  swap2\n  sub\n  swap1\n  revert\ntag_6:\n    /* \"\\xe5\\xae\\x9a\\xe6\\x81\\xaf\\xe7\\x9f\\xbf\\xe6\\xb1\\xa0-\\xe8\\xbf\\x9b\\xe9\\x98\\xb6.sol\":1050:1060  staketoken */\n  0x01\n    /* \"\\xe5\\xae\\x9a\\xe6\\x81\\xaf\\xe7\\x9f\\xbf\\xe6\\xb1\\xa0-\\xe8\\xbf\\x9b\\xe9\\x98\\xb6.sol\":1050:1074  staketoken = _staketoken */\n  dup1\n  sload\n  sub(shl(0xa0, 0x01), 0x01)\n  swap1\n  swap3\n  and\n  not(sub(shl(0xa0, 0x01), 0x01))\n  swap3\n  dup4\n  and\n  dup2\n  or\n  swap1\n  swap2\n  sstore\n    /* \"\\xe5\\xae\\x9a\\xe6\\x81\\xaf\\xe7\\x9f\\xbf\\xe6\\xb1\\xa0-\\xe8\\xbf\\x9b\\xe9\\x98\\xb6.sol\":1085:1096  rewardtoken */\n  0x02\n    /* \"\\xe5\\xae\\x9a\\xe6\\x81\\xaf\\xe7\\x9f\\xbf\\xe6\\xb1\\xa0-\\xe8\\xbf\\x9b\\xe9\\x98\\xb6.sol\":1085:1110  rewardtoken = _staketoken */\n  dup1\n  sload\n  swap1\n  swap3\n  and\n  or\n  swap1\n  sstore\n    /* \"\\xe5\\xae\\x9a\\xe6\\x81\\xaf\\xe7\\x9f\\xbf\\xe6\\xb1\\xa0-\\xe8\\xbf\\x9b\\xe9\\x98\\xb6.sol\":169:2346  contract StakeContract {... */\n  jump(tag_10)\n    /* \"#utility.yul\":14:304   */\ntag_3:\n    /* \"#utility.yul\":84:90   */\n  0x00\n    /* \"#utility.yul\":137:139   */\n  0x20\n    /* \"#utility.yul\":125:134   */\n  dup3\n    /* \"#utility.yul\":116:123   */\n  dup5\n    /* \"#utility.yul\":112:135   */\n  sub\n    /* \"#utility.yul\":108:140   */\n  slt\n    /* \"#utility.yul\":105:157   */\n  iszero\n  tag_12\n  jumpi\n    /* \"#utility.yul\":153:154   */\n  0x00\n    /* \"#utility.yul\":150:151   */\n  dup1\n    /* \"#utility.yul\":143:155   */\n  revert\n    /* \"#utility.yul\":105:157   */\ntag_12:\n    /* \"#utility.yul\":179:195   */\n  dup2\n  mload\n  sub(shl(0xa0, 0x01), 0x01)\n    /* \"#utility.yul\":224:255   */\n  dup2\n  and\n    /* \"#utility.yul\":214:256   */\n  dup2\n  eq\n    /* \"#utility.yul\":204:274   */\n  tag_13\n  jumpi\n    /* \"#utility.yul\":270:271   */\n  0x00\n    /* \"#utility.yul\":267:268   */\n  dup1\n    /* \"#utility.yul\":260:272   */\n  revert\n    /* \"#utility.yul\":204:274   */\ntag_13:\n    /* \"#utility.yul\":293:298   */\n  swap4\n    /* \"#utility.yul\":14:304   */\n  swap3\n  pop\n  pop\n  pop\n  jump\t// out\n    /* \"#utility.yul\":309:649   */\ntag_10:\n    /* \"\\xe5\\xae\\x9a\\xe6\\x81\\xaf\\xe7\\x9f\\xbf\\xe6\\xb1\\xa0-\\xe8\\xbf\\x9b\\xe9\\x98\\xb6.sol\":169:2346  contract StakeContract {... */\n  dataSize(sub_0)\n  dup1\n  dataOffset(sub_0)\n  0x00\n  codecopy\n  0x00\n  return\nstop\n\nsub_0: assembly {\n        /* \"\\xe5\\xae\\x9a\\xe6\\x81\\xaf\\xe7\\x9f\\xbf\\xe6\\xb1\\xa0-\\xe8\\xbf\\x9b\\xe9\\x98\\xb6.sol\":169:2346  contract StakeContract {... */\n      mstore(0x40, 0x80)\n      callvalue\n      dup1\n      iszero\n      tag_1\n      jumpi\n      0x00\n      dup1\n      revert\n    tag_1:\n      pop\n      jumpi(tag_2, lt(calldatasize, 0x04))\n      shr(0xe0, calldataload(0x00))\n      dup1\n      0x8da5cb5b\n      gt\n      tag_11\n      jumpi\n      dup1\n      0x8da5cb5b\n      eq\n      tag_7\n      jumpi\n      dup1\n      0xb6b55f25\n      eq\n      tag_8\n      jumpi\n      dup1\n      0xdab2997b\n      eq\n      tag_9\n      jumpi\n      dup1\n      0xe8221917\n      eq\n      tag_10\n      jumpi\n      0x00\n      dup1\n      revert\n    tag_11:\n      dup1\n      0x1afaa6e8\n      eq\n      tag_3\n      jumpi\n      dup1\n      0x6dff132e\n      eq\n      tag_4\n      jumpi\n      dup1\n      0x71ca337d\n      eq\n      tag_5\n      jumpi\n      dup1\n      0x8c93ecff\n      eq\n      tag_6\n      jumpi\n    tag_2:\n      0x00\n      dup1\n      revert\n        /* \"\\xe5\\xae\\x9a\\xe6\\x81\\xaf\\xe7\\x9f\\xbf\\xe6\\xb1\\xa0-\\xe8\\xbf\\x9b\\xe9\\x98\\xb6.sol\":1153:1226  function setratio(uint _ratio) external {... */\n    tag_3:\n      tag_12\n      tag_13\n      calldatasize\n      0x04\n      tag_14\n      jump\t// in\n    tag_13:\n        /* \"\\xe5\\xae\\x9a\\xe6\\x81\\xaf\\xe7\\x9f\\xbf\\xe6\\xb1\\xa0-\\xe8\\xbf\\x9b\\xe9\\x98\\xb6.sol\":1204:1209  ratio */\n      0x00\n        /* \"\\xe5\\xae\\x9a\\xe6\\x81\\xaf\\xe7\\x9f\\xbf\\xe6\\xb1\\xa0-\\xe8\\xbf\\x9b\\xe9\\x98\\xb6.sol\":1204:1218  ratio = _ratio */\n      sstore\n        /* \"\\xe5\\xae\\x9a\\xe6\\x81\\xaf\\xe7\\x9f\\xbf\\xe6\\xb1\\xa0-\\xe8\\xbf\\x9b\\xe9\\x98\\xb6.sol\":1153:1226  function setratio(uint _ratio) external {... */\n      jump\n    tag_12:\n      stop\n        /* \"\\xe5\\xae\\x9a\\xe6\\x81\\xaf\\xe7\\x9f\\xbf\\xe6\\xb1\\xa0-\\xe8\\xbf\\x9b\\xe9\\x98\\xb6.sol\":378:404  address public rewardtoken */\n    tag_4:\n      sload(0x02)\n      tag_16\n      swap1\n      sub(shl(0xa0, 0x01), 0x01)\n      and\n      dup2\n      jump\n    tag_16:\n      mload(0x40)\n      sub(shl(0xa0, 0x01), 0x01)\n        /* \"#utility.yul\":363:395   */\n      swap1\n      swap2\n      and\n        /* \"#utility.yul\":345:396   */\n      dup2\n      mstore\n        /* \"#utility.yul\":333:335   */\n      0x20\n        /* \"#utility.yul\":318:336   */\n      add\n        /* \"\\xe5\\xae\\x9a\\xe6\\x81\\xaf\\xe7\\x9f\\xbf\\xe6\\xb1\\xa0-\\xe8\\xbf\\x9b\\xe9\\x98\\xb6.sol\":378:404  address public rewardtoken */\n    tag_18:\n      mload(0x40)\n      dup1\n      swap2\n      sub\n      swap1\n      return\n        /* \"\\xe5\\xae\\x9a\\xe6\\x81\\xaf\\xe7\\x9f\\xbf\\xe6\\xb1\\xa0-\\xe8\\xbf\\x9b\\xe9\\x98\\xb6.sol\":279:296  uint public ratio */\n    tag_5:\n      tag_20\n      sload(0x00)\n      dup2\n      jump\n    tag_20:\n      mload(0x40)\n        /* \"#utility.yul\":553:578   */\n      swap1\n      dup2\n      mstore\n        /* \"#utility.yul\":541:543   */\n      0x20\n        /* \"#utility.yul\":526:544   */\n      add\n        /* \"\\xe5\\xae\\x9a\\xe6\\x81\\xaf\\xe7\\x9f\\xbf\\xe6\\xb1\\xa0-\\xe8\\xbf\\x9b\\xe9\\x98\\xb6.sol\":279:296  uint public ratio */\n      tag_18\n        /* \"#utility.yul\":407:584   */\n      jump\n        /* \"\\xe5\\xae\\x9a\\xe6\\x81\\xaf\\xe7\\x9f\\xbf\\xe6\\xb1\\xa0-\\xe8\\xbf\\x9b\\xe9\\x98\\xb6.sol\":863:903  mapping(address => User) public User_Map */\n    tag_6:\n      tag_24\n      tag_25\n      calldatasize\n      0x04\n      tag_26\n      jump\t// in\n    tag_25:\n      mstore(0x20, 0x05)\n      0x00\n      swap1\n      dup2\n      mstore\n      0x40\n      swap1\n      keccak256\n      dup1\n      sload\n      0x01\n      dup3\n      add\n      sload\n      0x02\n      dup4\n      add\n      sload\n      0x03\n      dup5\n      add\n      sload\n      0x04\n      swap1\n      swap5\n      add\n      sload\n      swap3\n      swap4\n      swap2\n      swap3\n      swap1\n      swap2\n      swap1\n      dup6\n      jump\n    tag_24:\n      0x40\n      dup1\n      mload\n        /* \"#utility.yul\":1139:1164   */\n      swap6\n      dup7\n      mstore\n        /* \"#utility.yul\":1195:1197   */\n      0x20\n        /* \"#utility.yul\":1180:1198   */\n      dup7\n      add\n        /* \"#utility.yul\":1173:1207   */\n      swap5\n      swap1\n      swap5\n      mstore\n        /* \"#utility.yul\":1223:1241   */\n      swap3\n      dup5\n      add\n        /* \"#utility.yul\":1216:1250   */\n      swap2\n      swap1\n      swap2\n      mstore\n        /* \"#utility.yul\":1281:1283   */\n      0x60\n        /* \"#utility.yul\":1266:1284   */\n      dup4\n      add\n        /* \"#utility.yul\":1259:1293   */\n      mstore\n        /* \"#utility.yul\":1324:1327   */\n      0x80\n        /* \"#utility.yul\":1309:1328   */\n      dup3\n      add\n        /* \"#utility.yul\":1302:1337   */\n      mstore\n        /* \"#utility.yul\":1126:1129   */\n      0xa0\n        /* \"#utility.yul\":1111:1130   */\n      add\n        /* \"\\xe5\\xae\\x9a\\xe6\\x81\\xaf\\xe7\\x9f\\xbf\\xe6\\xb1\\xa0-\\xe8\\xbf\\x9b\\xe9\\x98\\xb6.sol\":863:903  mapping(address => User) public User_Map */\n      tag_18\n        /* \"#utility.yul\":880:1343   */\n      jump\n        /* \"\\xe5\\xae\\x9a\\xe6\\x81\\xaf\\xe7\\x9f\\xbf\\xe6\\xb1\\xa0-\\xe8\\xbf\\x9b\\xe9\\x98\\xb6.sol\":461:481  address public owner */\n    tag_7:\n      sload(0x04)\n      tag_16\n      swap1\n      sub(shl(0xa0, 0x01), 0x01)\n      and\n      dup2\n      jump\n        /* \"\\xe5\\xae\\x9a\\xe6\\x81\\xaf\\xe7\\x9f\\xbf\\xe6\\xb1\\xa0-\\xe8\\xbf\\x9b\\xe9\\x98\\xb6.sol\":1255:2333  function deposit(uint _amount) public returns (bool) {... */\n    tag_8:\n      tag_33\n      tag_34\n      calldatasize\n      0x04\n      tag_14\n      jump\t// in\n    tag_34:\n      tag_35\n      jump\t// in\n    tag_33:\n      mload(0x40)\n        /* \"#utility.yul\":1513:1527   */\n      swap1\n      iszero\n        /* \"#utility.yul\":1506:1528   */\n      iszero\n        /* \"#utility.yul\":1488:1529   */\n      dup2\n      mstore\n        /* \"#utility.yul\":1476:1478   */\n      0x20\n        /* \"#utility.yul\":1461:1479   */\n      add\n        /* \"\\xe5\\xae\\x9a\\xe6\\x81\\xaf\\xe7\\x9f\\xbf\\xe6\\xb1\\xa0-\\xe8\\xbf\\x9b\\xe9\\x98\\xb6.sol\":1255:2333  function deposit(uint _amount) public returns (bool) {... */\n      tag_18\n        /* \"#utility.yul\":1348:1535   */\n      jump\n        /* \"\\xe5\\xae\\x9a\\xe6\\x81\\xaf\\xe7\\x9f\\xbf\\xe6\\xb1\\xa0-\\xe8\\xbf\\x9b\\xe9\\x98\\xb6.sol\":325:350  address public staketoken */\n    tag_9:\n      sload(0x01)\n      tag_16\n      swap1\n      sub(shl(0xa0, 0x01), 0x01)\n      and\n      dup2\n      jump\n        /* \"\\xe5\\xae\\x9a\\xe6\\x81\\xaf\\xe7\\x9f\\xbf\\xe6\\xb1\\xa0-\\xe8\\xbf\\x9b\\xe9\\x98\\xb6.sol\":432:454  uint public staketotal */\n    tag_10:\n      tag_20\n      sload(0x03)\n      dup2\n      jump\n        /* \"\\xe5\\xae\\x9a\\xe6\\x81\\xaf\\xe7\\x9f\\xbf\\xe6\\xb1\\xa0-\\xe8\\xbf\\x9b\\xe9\\x98\\xb6.sol\":1255:2333  function deposit(uint _amount) public returns (bool) {... */\n    tag_35:\n        /* \"\\xe5\\xae\\x9a\\xe6\\x81\\xaf\\xe7\\x9f\\xbf\\xe6\\xb1\\xa0-\\xe8\\xbf\\x9b\\xe9\\x98\\xb6.sol\":1389:1399  staketoken */\n      sload(0x01)\n        /* \"\\xe5\\xae\\x9a\\xe6\\x81\\xaf\\xe7\\x9f\\xbf\\xe6\\xb1\\xa0-\\xe8\\xbf\\x9b\\xe9\\x98\\xb6.sol\":1382:1422  IERC20(staketoken).balanceOf(msg.sender) */\n      mload(0x40)\n      shl(0xe0, 0x70a08231)\n      dup2\n      mstore\n        /* \"\\xe5\\xae\\x9a\\xe6\\x81\\xaf\\xe7\\x9f\\xbf\\xe6\\xb1\\xa0-\\xe8\\xbf\\x9b\\xe9\\x98\\xb6.sol\":1411:1421  msg.sender */\n      caller\n        /* \"\\xe5\\xae\\x9a\\xe6\\x81\\xaf\\xe7\\x9f\\xbf\\xe6\\xb1\\xa0-\\xe8\\xbf\\x9b\\xe9\\x98\\xb6.sol\":1382:1422  IERC20(staketoken).balanceOf(msg.sender) */\n      0x04\n      dup3\n      add\n        /* \"#utility.yul\":345:396   */\n      mstore\n        /* \"\\xe5\\xae\\x9a\\xe6\\x81\\xaf\\xe7\\x9f\\xbf\\xe6\\xb1\\xa0-\\xe8\\xbf\\x9b\\xe9\\x98\\xb6.sol\":1302:1306  bool */\n      0x00\n      swap2\n        /* \"\\xe5\\xae\\x9a\\xe6\\x81\\xaf\\xe7\\x9f\\xbf\\xe6\\xb1\\xa0-\\xe8\\xbf\\x9b\\xe9\\x98\\xb6.sol\":1425:1432  _amount */\n      dup4\n      swap2\n      sub(shl(0xa0, 0x01), 0x01)\n        /* \"\\xe5\\xae\\x9a\\xe6\\x81\\xaf\\xe7\\x9f\\xbf\\xe6\\xb1\\xa0-\\xe8\\xbf\\x9b\\xe9\\x98\\xb6.sol\":1389:1399  staketoken */\n      swap1\n      swap2\n      and\n      swap1\n        /* \"\\xe5\\xae\\x9a\\xe6\\x81\\xaf\\xe7\\x9f\\xbf\\xe6\\xb1\\xa0-\\xe8\\xbf\\x9b\\xe9\\x98\\xb6.sol\":1382:1410  IERC20(staketoken).balanceOf */\n      0x70a08231\n      swap1\n        /* \"#utility.yul\":318:336   */\n      0x24\n      add\n        /* \"\\xe5\\xae\\x9a\\xe6\\x81\\xaf\\xe7\\x9f\\xbf\\xe6\\xb1\\xa0-\\xe8\\xbf\\x9b\\xe9\\x98\\xb6.sol\":1382:1422  IERC20(staketoken).balanceOf(msg.sender) */\n      0x20\n      mload(0x40)\n      dup1\n      dup4\n      sub\n      dup2\n      dup7\n      gas\n      staticcall\n      iszero\n      dup1\n      iszero\n      tag_48\n      jumpi\n      returndatasize\n      0x00\n      dup1\n      returndatacopy\n      revert(0x00, returndatasize)\n    tag_48:\n      pop\n      pop\n      pop\n      pop\n      mload(0x40)\n      returndatasize\n      not(0x1f)\n      0x1f\n      dup3\n      add\n      and\n      dup3\n      add\n      dup1\n      0x40\n      mstore\n      pop\n      dup2\n      add\n      swap1\n      tag_49\n      swap2\n      swap1\n      tag_50\n      jump\t// in\n    tag_49:\n        /* \"\\xe5\\xae\\x9a\\xe6\\x81\\xaf\\xe7\\x9f\\xbf\\xe6\\xb1\\xa0-\\xe8\\xbf\\x9b\\xe9\\x98\\xb6.sol\":1382:1432  IERC20(staketoken).balanceOf(msg.sender) > _amount */\n      gt\n        /* \"\\xe5\\xae\\x9a\\xe6\\x81\\xaf\\xe7\\x9f\\xbf\\xe6\\xb1\\xa0-\\xe8\\xbf\\x9b\\xe9\\x98\\xb6.sol\":1374:1457  require(IERC20(staketoken).balanceOf(msg.sender) > _amount, \"Balance Insufficient\") */\n      tag_51\n      jumpi\n      mload(0x40)\n      shl(0xe5, 0x461bcd)\n      dup2\n      mstore\n        /* \"#utility.yul\":1931:1933   */\n      0x20\n        /* \"\\xe5\\xae\\x9a\\xe6\\x81\\xaf\\xe7\\x9f\\xbf\\xe6\\xb1\\xa0-\\xe8\\xbf\\x9b\\xe9\\x98\\xb6.sol\":1374:1457  require(IERC20(staketoken).balanceOf(msg.sender) > _amount, \"Balance Insufficient\") */\n      0x04\n      dup3\n      add\n        /* \"#utility.yul\":1913:1934   */\n      mstore\n        /* \"#utility.yul\":1970:1972   */\n      0x14\n        /* \"#utility.yul\":1950:1968   */\n      0x24\n      dup3\n      add\n        /* \"#utility.yul\":1943:1973   */\n      mstore\n      shl(0x62, 0x10985b185b98d948125b9cdd59999a58da595b9d)\n        /* \"#utility.yul\":1989:2007   */\n      0x44\n      dup3\n      add\n        /* \"#utility.yul\":1982:2032   */\n      mstore\n        /* \"#utility.yul\":2049:2067   */\n      0x64\n      add\n        /* \"\\xe5\\xae\\x9a\\xe6\\x81\\xaf\\xe7\\x9f\\xbf\\xe6\\xb1\\xa0-\\xe8\\xbf\\x9b\\xe9\\x98\\xb6.sol\":1374:1457  require(IERC20(staketoken).balanceOf(msg.sender) > _amount, \"Balance Insufficient\") */\n    tag_52:\n      mload(0x40)\n      dup1\n      swap2\n      sub\n      swap1\n      revert\n    tag_51:\n        /* \"\\xe5\\xae\\x9a\\xe6\\x81\\xaf\\xe7\\x9f\\xbf\\xe6\\xb1\\xa0-\\xe8\\xbf\\x9b\\xe9\\x98\\xb6.sol\":1506:1516  staketoken */\n      sload(0x01)\n        /* \"\\xe5\\xae\\x9a\\xe6\\x81\\xaf\\xe7\\x9f\\xbf\\xe6\\xb1\\xa0-\\xe8\\xbf\\x9b\\xe9\\x98\\xb6.sol\":1499:1570  IERC20(staketoken).safeTransferFrom(msg.sender, address(this), _amount) */\n      tag_54\n      swap1\n      sub(shl(0xa0, 0x01), 0x01)\n        /* \"\\xe5\\xae\\x9a\\xe6\\x81\\xaf\\xe7\\x9f\\xbf\\xe6\\xb1\\xa0-\\xe8\\xbf\\x9b\\xe9\\x98\\xb6.sol\":1506:1516  staketoken */\n      and\n        /* \"\\xe5\\xae\\x9a\\xe6\\x81\\xaf\\xe7\\x9f\\xbf\\xe6\\xb1\\xa0-\\xe8\\xbf\\x9b\\xe9\\x98\\xb6.sol\":1535:1545  msg.sender */\n      caller\n        /* \"\\xe5\\xae\\x9a\\xe6\\x81\\xaf\\xe7\\x9f\\xbf\\xe6\\xb1\\xa0-\\xe8\\xbf\\x9b\\xe9\\x98\\xb6.sol\":1555:1559  this */\n      address\n        /* \"\\xe5\\xae\\x9a\\xe6\\x81\\xaf\\xe7\\x9f\\xbf\\xe6\\xb1\\xa0-\\xe8\\xbf\\x9b\\xe9\\x98\\xb6.sol\":1562:1569  _amount */\n      dup6\n        /* \"\\xe5\\xae\\x9a\\xe6\\x81\\xaf\\xe7\\x9f\\xbf\\xe6\\xb1\\xa0-\\xe8\\xbf\\x9b\\xe9\\x98\\xb6.sol\":1499:1534  IERC20(staketoken).safeTransferFrom */\n      tag_55\n        /* \"\\xe5\\xae\\x9a\\xe6\\x81\\xaf\\xe7\\x9f\\xbf\\xe6\\xb1\\xa0-\\xe8\\xbf\\x9b\\xe9\\x98\\xb6.sol\":1499:1570  IERC20(staketoken).safeTransferFrom(msg.sender, address(this), _amount) */\n      jump\t// in\n    tag_54:\n        /* \"\\xe5\\xae\\x9a\\xe6\\x81\\xaf\\xe7\\x9f\\xbf\\xe6\\xb1\\xa0-\\xe8\\xbf\\x9b\\xe9\\x98\\xb6.sol\":1639:1671  uint unClime_Reward_Token_Number */\n      0x00\n        /* \"\\xe5\\xae\\x9a\\xe6\\x81\\xaf\\xe7\\x9f\\xbf\\xe6\\xb1\\xa0-\\xe8\\xbf\\x9b\\xe9\\x98\\xb6.sol\":1786:1791  ratio */\n      dup1\n      sload\n        /* \"\\xe5\\xae\\x9a\\xe6\\x81\\xaf\\xe7\\x9f\\xbf\\xe6\\xb1\\xa0-\\xe8\\xbf\\x9b\\xe9\\x98\\xb6.sol\":1758:1768  msg.sender */\n      caller\n        /* \"\\xe5\\xae\\x9a\\xe6\\x81\\xaf\\xe7\\x9f\\xbf\\xe6\\xb1\\xa0-\\xe8\\xbf\\x9b\\xe9\\x98\\xb6.sol\":1749:1769  User_Map[msg.sender] */\n      dup3\n      mstore\n        /* \"\\xe5\\xae\\x9a\\xe6\\x81\\xaf\\xe7\\x9f\\xbf\\xe6\\xb1\\xa0-\\xe8\\xbf\\x9b\\xe9\\x98\\xb6.sol\":1749:1757  User_Map */\n      0x05\n        /* \"\\xe5\\xae\\x9a\\xe6\\x81\\xaf\\xe7\\x9f\\xbf\\xe6\\xb1\\xa0-\\xe8\\xbf\\x9b\\xe9\\x98\\xb6.sol\":1749:1769  User_Map[msg.sender] */\n      0x20\n      mstore\n      0x40\n      dup3\n      keccak256\n        /* \"\\xe5\\xae\\x9a\\xe6\\x81\\xaf\\xe7\\x9f\\xbf\\xe6\\xb1\\xa0-\\xe8\\xbf\\x9b\\xe9\\x98\\xb6.sol\":1749:1781  User_Map[msg.sender].stakeNumber */\n      sload\n        /* \"\\xe5\\xae\\x9a\\xe6\\x81\\xaf\\xe7\\x9f\\xbf\\xe6\\xb1\\xa0-\\xe8\\xbf\\x9b\\xe9\\x98\\xb6.sol\":1674:1827  (block.timestamp.sub(User_Map[msg.sender].last_Stake_Time))... */\n      tag_56\n      swap2\n        /* \"\\xe5\\xae\\x9a\\xe6\\x81\\xaf\\xe7\\x9f\\xbf\\xe6\\xb1\\xa0-\\xe8\\xbf\\x9b\\xe9\\x98\\xb6.sol\":1748:1826  (User_Map[msg.sender].stakeNumber.mul(ratio).div(100))... */\n      tag_57\n      swap2\n        /* \"\\xe5\\xae\\x9a\\xe6\\x81\\xaf\\xe7\\x9f\\xbf\\xe6\\xb1\\xa0-\\xe8\\xbf\\x9b\\xe9\\x98\\xb6.sol\":1817:1825  31536000 */\n      0x01e13380\n      swap2\n        /* \"\\xe5\\xae\\x9a\\xe6\\x81\\xaf\\xe7\\x9f\\xbf\\xe6\\xb1\\xa0-\\xe8\\xbf\\x9b\\xe9\\x98\\xb6.sol\":1749:1801  User_Map[msg.sender].stakeNumber.mul(ratio).div(100) */\n      tag_59\n      swap2\n        /* \"\\xe5\\xae\\x9a\\xe6\\x81\\xaf\\xe7\\x9f\\xbf\\xe6\\xb1\\xa0-\\xe8\\xbf\\x9b\\xe9\\x98\\xb6.sol\":1797:1800  100 */\n      0x64\n      swap2\n        /* \"\\xe5\\xae\\x9a\\xe6\\x81\\xaf\\xe7\\x9f\\xbf\\xe6\\xb1\\xa0-\\xe8\\xbf\\x9b\\xe9\\x98\\xb6.sol\":1749:1801  User_Map[msg.sender].stakeNumber.mul(ratio).div(100) */\n      dup4\n      swap2\n        /* \"\\xe5\\xae\\x9a\\xe6\\x81\\xaf\\xe7\\x9f\\xbf\\xe6\\xb1\\xa0-\\xe8\\xbf\\x9b\\xe9\\x98\\xb6.sol\":1749:1781  User_Map[msg.sender].stakeNumber */\n      swap1\n        /* \"\\xe5\\xae\\x9a\\xe6\\x81\\xaf\\xe7\\x9f\\xbf\\xe6\\xb1\\xa0-\\xe8\\xbf\\x9b\\xe9\\x98\\xb6.sol\":1749:1785  User_Map[msg.sender].stakeNumber.mul */\n      tag_60\n        /* \"\\xe5\\xae\\x9a\\xe6\\x81\\xaf\\xe7\\x9f\\xbf\\xe6\\xb1\\xa0-\\xe8\\xbf\\x9b\\xe9\\x98\\xb6.sol\":1749:1792  User_Map[msg.sender].stakeNumber.mul(ratio) */\n      jump\t// in\n    tag_59:\n        /* \"\\xe5\\xae\\x9a\\xe6\\x81\\xaf\\xe7\\x9f\\xbf\\xe6\\xb1\\xa0-\\xe8\\xbf\\x9b\\xe9\\x98\\xb6.sol\":1749:1796  User_Map[msg.sender].stakeNumber.mul(ratio).div */\n      swap1\n      tag_61\n        /* \"\\xe5\\xae\\x9a\\xe6\\x81\\xaf\\xe7\\x9f\\xbf\\xe6\\xb1\\xa0-\\xe8\\xbf\\x9b\\xe9\\x98\\xb6.sol\":1749:1801  User_Map[msg.sender].stakeNumber.mul(ratio).div(100) */\n      jump\t// in\n        /* \"\\xe5\\xae\\x9a\\xe6\\x81\\xaf\\xe7\\x9f\\xbf\\xe6\\xb1\\xa0-\\xe8\\xbf\\x9b\\xe9\\x98\\xb6.sol\":1748:1826  (User_Map[msg.sender].stakeNumber.mul(ratio).div(100))... */\n    tag_57:\n        /* \"\\xe5\\xae\\x9a\\xe6\\x81\\xaf\\xe7\\x9f\\xbf\\xe6\\xb1\\xa0-\\xe8\\xbf\\x9b\\xe9\\x98\\xb6.sol\":1704:1714  msg.sender */\n      caller\n        /* \"\\xe5\\xae\\x9a\\xe6\\x81\\xaf\\xe7\\x9f\\xbf\\xe6\\xb1\\xa0-\\xe8\\xbf\\x9b\\xe9\\x98\\xb6.sol\":1695:1715  User_Map[msg.sender] */\n      0x00\n      swap1\n      dup2\n      mstore\n        /* \"\\xe5\\xae\\x9a\\xe6\\x81\\xaf\\xe7\\x9f\\xbf\\xe6\\xb1\\xa0-\\xe8\\xbf\\x9b\\xe9\\x98\\xb6.sol\":1695:1703  User_Map */\n      0x05\n        /* \"\\xe5\\xae\\x9a\\xe6\\x81\\xaf\\xe7\\x9f\\xbf\\xe6\\xb1\\xa0-\\xe8\\xbf\\x9b\\xe9\\x98\\xb6.sol\":1695:1715  User_Map[msg.sender] */\n      0x20\n      mstore\n      0x40\n      swap1\n      keccak256\n        /* \"\\xe5\\xae\\x9a\\xe6\\x81\\xaf\\xe7\\x9f\\xbf\\xe6\\xb1\\xa0-\\xe8\\xbf\\x9b\\xe9\\x98\\xb6.sol\":1695:1731  User_Map[msg.sender].last_Stake_Time */\n      0x01\n      add\n      sload\n        /* \"\\xe5\\xae\\x9a\\xe6\\x81\\xaf\\xe7\\x9f\\xbf\\xe6\\xb1\\xa0-\\xe8\\xbf\\x9b\\xe9\\x98\\xb6.sol\":1675:1732  block.timestamp.sub(User_Map[msg.sender].last_Stake_Time) */\n      tag_62\n      swap1\n        /* \"\\xe5\\xae\\x9a\\xe6\\x81\\xaf\\xe7\\x9f\\xbf\\xe6\\xb1\\xa0-\\xe8\\xbf\\x9b\\xe9\\x98\\xb6.sol\":1675:1690  block.timestamp */\n      timestamp\n      swap1\n        /* \"\\xe5\\xae\\x9a\\xe6\\x81\\xaf\\xe7\\x9f\\xbf\\xe6\\xb1\\xa0-\\xe8\\xbf\\x9b\\xe9\\x98\\xb6.sol\":1675:1694  block.timestamp.sub */\n      tag_63\n        /* \"\\xe5\\xae\\x9a\\xe6\\x81\\xaf\\xe7\\x9f\\xbf\\xe6\\xb1\\xa0-\\xe8\\xbf\\x9b\\xe9\\x98\\xb6.sol\":1675:1732  block.timestamp.sub(User_Map[msg.sender].last_Stake_Time) */\n      jump\t// in\n    tag_62:\n        /* \"\\xe5\\xae\\x9a\\xe6\\x81\\xaf\\xe7\\x9f\\xbf\\xe6\\xb1\\xa0-\\xe8\\xbf\\x9b\\xe9\\x98\\xb6.sol\":1674:1747  (block.timestamp.sub(User_Map[msg.sender].last_Stake_Time))... */\n      swap1\n      tag_60\n        /* \"\\xe5\\xae\\x9a\\xe6\\x81\\xaf\\xe7\\x9f\\xbf\\xe6\\xb1\\xa0-\\xe8\\xbf\\x9b\\xe9\\x98\\xb6.sol\":1674:1827  (block.timestamp.sub(User_Map[msg.sender].last_Stake_Time))... */\n      jump\t// in\n    tag_56:\n        /* \"\\xe5\\xae\\x9a\\xe6\\x81\\xaf\\xe7\\x9f\\xbf\\xe6\\xb1\\xa0-\\xe8\\xbf\\x9b\\xe9\\x98\\xb6.sol\":1917:1927  msg.sender */\n      caller\n        /* \"\\xe5\\xae\\x9a\\xe6\\x81\\xaf\\xe7\\x9f\\xbf\\xe6\\xb1\\xa0-\\xe8\\xbf\\x9b\\xe9\\x98\\xb6.sol\":1908:1928  User_Map[msg.sender] */\n      0x00\n      swap1\n      dup2\n      mstore\n        /* \"\\xe5\\xae\\x9a\\xe6\\x81\\xaf\\xe7\\x9f\\xbf\\xe6\\xb1\\xa0-\\xe8\\xbf\\x9b\\xe9\\x98\\xb6.sol\":1908:1916  User_Map */\n      0x05\n        /* \"\\xe5\\xae\\x9a\\xe6\\x81\\xaf\\xe7\\x9f\\xbf\\xe6\\xb1\\xa0-\\xe8\\xbf\\x9b\\xe9\\x98\\xb6.sol\":1908:1928  User_Map[msg.sender] */\n      0x20\n      mstore\n      0x40\n      dup2\n      keccak256\n        /* \"\\xe5\\xae\\x9a\\xe6\\x81\\xaf\\xe7\\x9f\\xbf\\xe6\\xb1\\xa0-\\xe8\\xbf\\x9b\\xe9\\x98\\xb6.sol\":1908:1947  User_Map[msg.sender].last_totoken_ratio */\n      0x02\n      add\n        /* \"\\xe5\\xae\\x9a\\xe6\\x81\\xaf\\xe7\\x9f\\xbf\\xe6\\xb1\\xa0-\\xe8\\xbf\\x9b\\xe9\\x98\\xb6.sol\":1908:1978  User_Map[msg.sender].last_totoken_ratio += unClime_Reward_Token_Number */\n      dup1\n      sload\n        /* \"\\xe5\\xae\\x9a\\xe6\\x81\\xaf\\xe7\\x9f\\xbf\\xe6\\xb1\\xa0-\\xe8\\xbf\\x9b\\xe9\\x98\\xb6.sol\":1639:1827  uint unClime_Reward_Token_Number = (block.timestamp.sub(User_Map[msg.sender].last_Stake_Time))... */\n      swap3\n      swap4\n      pop\n      dup4\n      swap3\n        /* \"\\xe5\\xae\\x9a\\xe6\\x81\\xaf\\xe7\\x9f\\xbf\\xe6\\xb1\\xa0-\\xe8\\xbf\\x9b\\xe9\\x98\\xb6.sol\":1908:1947  User_Map[msg.sender].last_totoken_ratio */\n      swap1\n      swap2\n        /* \"\\xe5\\xae\\x9a\\xe6\\x81\\xaf\\xe7\\x9f\\xbf\\xe6\\xb1\\xa0-\\xe8\\xbf\\x9b\\xe9\\x98\\xb6.sol\":1908:1928  User_Map[msg.sender] */\n      swap1\n        /* \"\\xe5\\xae\\x9a\\xe6\\x81\\xaf\\xe7\\x9f\\xbf\\xe6\\xb1\\xa0-\\xe8\\xbf\\x9b\\xe9\\x98\\xb6.sol\":1908:1978  User_Map[msg.sender].last_totoken_ratio += unClime_Reward_Token_Number */\n      tag_64\n      swap1\n        /* \"\\xe5\\xae\\x9a\\xe6\\x81\\xaf\\xe7\\x9f\\xbf\\xe6\\xb1\\xa0-\\xe8\\xbf\\x9b\\xe9\\x98\\xb6.sol\":1639:1827  uint unClime_Reward_Token_Number = (block.timestamp.sub(User_Map[msg.sender].last_Stake_Time))... */\n      dup5\n      swap1\n        /* \"\\xe5\\xae\\x9a\\xe6\\x81\\xaf\\xe7\\x9f\\xbf\\xe6\\xb1\\xa0-\\xe8\\xbf\\x9b\\xe9\\x98\\xb6.sol\":1908:1978  User_Map[msg.sender].last_totoken_ratio += unClime_Reward_Token_Number */\n      tag_65\n      jump\t// in\n    tag_64:\n      swap1\n      swap2\n      sstore\n      pop\n      pop\n        /* \"\\xe5\\xae\\x9a\\xe6\\x81\\xaf\\xe7\\x9f\\xbf\\xe6\\xb1\\xa0-\\xe8\\xbf\\x9b\\xe9\\x98\\xb6.sol\":2053:2063  msg.sender */\n      caller\n        /* \"\\xe5\\xae\\x9a\\xe6\\x81\\xaf\\xe7\\x9f\\xbf\\xe6\\xb1\\xa0-\\xe8\\xbf\\x9b\\xe9\\x98\\xb6.sol\":2044:2064  User_Map[msg.sender] */\n      0x00\n      swap1\n      dup2\n      mstore\n        /* \"\\xe5\\xae\\x9a\\xe6\\x81\\xaf\\xe7\\x9f\\xbf\\xe6\\xb1\\xa0-\\xe8\\xbf\\x9b\\xe9\\x98\\xb6.sol\":2044:2052  User_Map */\n      0x05\n        /* \"\\xe5\\xae\\x9a\\xe6\\x81\\xaf\\xe7\\x9f\\xbf\\xe6\\xb1\\xa0-\\xe8\\xbf\\x9b\\xe9\\x98\\xb6.sol\":2044:2064  User_Map[msg.sender] */\n      0x20\n      mstore\n      0x40\n      dup2\n      keccak256\n        /* \"\\xe5\\xae\\x9a\\xe6\\x81\\xaf\\xe7\\x9f\\xbf\\xe6\\xb1\\xa0-\\xe8\\xbf\\x9b\\xe9\\x98\\xb6.sol\":2044:2087  User_Map[msg.sender].stakeNumber += _amount */\n      dup1\n      sload\n        /* \"\\xe5\\xae\\x9a\\xe6\\x81\\xaf\\xe7\\x9f\\xbf\\xe6\\xb1\\xa0-\\xe8\\xbf\\x9b\\xe9\\x98\\xb6.sol\":2080:2087  _amount */\n      dup6\n      swap3\n        /* \"\\xe5\\xae\\x9a\\xe6\\x81\\xaf\\xe7\\x9f\\xbf\\xe6\\xb1\\xa0-\\xe8\\xbf\\x9b\\xe9\\x98\\xb6.sol\":2044:2064  User_Map[msg.sender] */\n      swap1\n        /* \"\\xe5\\xae\\x9a\\xe6\\x81\\xaf\\xe7\\x9f\\xbf\\xe6\\xb1\\xa0-\\xe8\\xbf\\x9b\\xe9\\x98\\xb6.sol\":2044:2087  User_Map[msg.sender].stakeNumber += _amount */\n      tag_66\n      swap1\n        /* \"\\xe5\\xae\\x9a\\xe6\\x81\\xaf\\xe7\\x9f\\xbf\\xe6\\xb1\\xa0-\\xe8\\xbf\\x9b\\xe9\\x98\\xb6.sol\":2080:2087  _amount */\n      dup5\n      swap1\n        /* \"\\xe5\\xae\\x9a\\xe6\\x81\\xaf\\xe7\\x9f\\xbf\\xe6\\xb1\\xa0-\\xe8\\xbf\\x9b\\xe9\\x98\\xb6.sol\":2044:2087  User_Map[msg.sender].stakeNumber += _amount */\n      tag_65\n      jump\t// in\n    tag_66:\n      swap1\n      swap2\n      sstore\n      pop\n      pop\n        /* \"\\xe5\\xae\\x9a\\xe6\\x81\\xaf\\xe7\\x9f\\xbf\\xe6\\xb1\\xa0-\\xe8\\xbf\\x9b\\xe9\\x98\\xb6.sol\":2136:2146  msg.sender */\n      caller\n        /* \"\\xe5\\xae\\x9a\\xe6\\x81\\xaf\\xe7\\x9f\\xbf\\xe6\\xb1\\xa0-\\xe8\\xbf\\x9b\\xe9\\x98\\xb6.sol\":2127:2147  User_Map[msg.sender] */\n      0x00\n      swap1\n      dup2\n      mstore\n        /* \"\\xe5\\xae\\x9a\\xe6\\x81\\xaf\\xe7\\x9f\\xbf\\xe6\\xb1\\xa0-\\xe8\\xbf\\x9b\\xe9\\x98\\xb6.sol\":2127:2135  User_Map */\n      0x05\n        /* \"\\xe5\\xae\\x9a\\xe6\\x81\\xaf\\xe7\\x9f\\xbf\\xe6\\xb1\\xa0-\\xe8\\xbf\\x9b\\xe9\\x98\\xb6.sol\":2127:2147  User_Map[msg.sender] */\n      0x20\n      mstore\n      0x40\n      dup2\n      keccak256\n        /* \"\\xe5\\xae\\x9a\\xe6\\x81\\xaf\\xe7\\x9f\\xbf\\xe6\\xb1\\xa0-\\xe8\\xbf\\x9b\\xe9\\x98\\xb6.sol\":2166:2181  block.timestamp */\n      timestamp\n        /* \"\\xe5\\xae\\x9a\\xe6\\x81\\xaf\\xe7\\x9f\\xbf\\xe6\\xb1\\xa0-\\xe8\\xbf\\x9b\\xe9\\x98\\xb6.sol\":2127:2163  User_Map[msg.sender].last_Stake_Time */\n      0x01\n      swap1\n      swap2\n      add\n        /* \"\\xe5\\xae\\x9a\\xe6\\x81\\xaf\\xe7\\x9f\\xbf\\xe6\\xb1\\xa0-\\xe8\\xbf\\x9b\\xe9\\x98\\xb6.sol\":2127:2181  User_Map[msg.sender].last_Stake_Time = block.timestamp */\n      sstore\n        /* \"\\xe5\\xae\\x9a\\xe6\\x81\\xaf\\xe7\\x9f\\xbf\\xe6\\xb1\\xa0-\\xe8\\xbf\\x9b\\xe9\\x98\\xb6.sol\":2192:2202  staketotal */\n      0x03\n        /* \"\\xe5\\xae\\x9a\\xe6\\x81\\xaf\\xe7\\x9f\\xbf\\xe6\\xb1\\xa0-\\xe8\\xbf\\x9b\\xe9\\x98\\xb6.sol\":2192:2213  staketotal += _amount */\n      dup1\n      sload\n        /* \"\\xe5\\xae\\x9a\\xe6\\x81\\xaf\\xe7\\x9f\\xbf\\xe6\\xb1\\xa0-\\xe8\\xbf\\x9b\\xe9\\x98\\xb6.sol\":2206:2213  _amount */\n      dup6\n      swap3\n        /* \"\\xe5\\xae\\x9a\\xe6\\x81\\xaf\\xe7\\x9f\\xbf\\xe6\\xb1\\xa0-\\xe8\\xbf\\x9b\\xe9\\x98\\xb6.sol\":2127:2147  User_Map[msg.sender] */\n      swap1\n        /* \"\\xe5\\xae\\x9a\\xe6\\x81\\xaf\\xe7\\x9f\\xbf\\xe6\\xb1\\xa0-\\xe8\\xbf\\x9b\\xe9\\x98\\xb6.sol\":2192:2213  staketotal += _amount */\n      tag_67\n      swap1\n        /* \"\\xe5\\xae\\x9a\\xe6\\x81\\xaf\\xe7\\x9f\\xbf\\xe6\\xb1\\xa0-\\xe8\\xbf\\x9b\\xe9\\x98\\xb6.sol\":2206:2213  _amount */\n      dup5\n      swap1\n        /* \"\\xe5\\xae\\x9a\\xe6\\x81\\xaf\\xe7\\x9f\\xbf\\xe6\\xb1\\xa0-\\xe8\\xbf\\x9b\\xe9\\x98\\xb6.sol\":2192:2213  staketotal += _amount */\n      tag_65\n      jump\t// in\n    tag_67:\n      swap1\n      swap2\n      sstore\n      pop\n      pop\n        /* \"\\xe5\\xae\\x9a\\xe6\\x81\\xaf\\xe7\\x9f\\xbf\\xe6\\xb1\\xa0-\\xe8\\xbf\\x9b\\xe9\\x98\\xb6.sol\":2274:2284  msg.sender */\n      caller\n        /* \"\\xe5\\xae\\x9a\\xe6\\x81\\xaf\\xe7\\x9f\\xbf\\xe6\\xb1\\xa0-\\xe8\\xbf\\x9b\\xe9\\x98\\xb6.sol\":2265:2285  User_Map[msg.sender] */\n      0x00\n      swap1\n      dup2\n      mstore\n        /* \"\\xe5\\xae\\x9a\\xe6\\x81\\xaf\\xe7\\x9f\\xbf\\xe6\\xb1\\xa0-\\xe8\\xbf\\x9b\\xe9\\x98\\xb6.sol\":2265:2273  User_Map */\n      0x05\n        /* \"\\xe5\\xae\\x9a\\xe6\\x81\\xaf\\xe7\\x9f\\xbf\\xe6\\xb1\\xa0-\\xe8\\xbf\\x9b\\xe9\\x98\\xb6.sol\":2265:2285  User_Map[msg.sender] */\n      0x20\n      mstore\n      0x40\n      swap1\n      keccak256\n        /* \"\\xe5\\xae\\x9a\\xe6\\x81\\xaf\\xe7\\x9f\\xbf\\xe6\\xb1\\xa0-\\xe8\\xbf\\x9b\\xe9\\x98\\xb6.sol\":2265:2301  User_Map[msg.sender].last_Stake_Time */\n      0x01\n      dup1\n      dup3\n      add\n      sload\n        /* \"\\xe5\\xae\\x9a\\xe6\\x81\\xaf\\xe7\\x9f\\xbf\\xe6\\xb1\\xa0-\\xe8\\xbf\\x9b\\xe9\\x98\\xb6.sol\":2224:2262  User_Map[msg.sender].last_totoken_Time */\n      0x04\n      swap1\n      swap3\n      add\n        /* \"\\xe5\\xae\\x9a\\xe6\\x81\\xaf\\xe7\\x9f\\xbf\\xe6\\xb1\\xa0-\\xe8\\xbf\\x9b\\xe9\\x98\\xb6.sol\":2224:2301  User_Map[msg.sender].last_totoken_Time = User_Map[msg.sender].last_Stake_Time */\n      swap2\n      swap1\n      swap2\n      sstore\n        /* \"\\xe5\\xae\\x9a\\xe6\\x81\\xaf\\xe7\\x9f\\xbf\\xe6\\xb1\\xa0-\\xe8\\xbf\\x9b\\xe9\\x98\\xb6.sol\":2265:2301  User_Map[msg.sender].last_Stake_Time */\n      swap4\n        /* \"\\xe5\\xae\\x9a\\xe6\\x81\\xaf\\xe7\\x9f\\xbf\\xe6\\xb1\\xa0-\\xe8\\xbf\\x9b\\xe9\\x98\\xb6.sol\":1255:2333  function deposit(uint _amount) public returns (bool) {... */\n      swap3\n      pop\n      pop\n      pop\n      jump\t// out\n        /* \"@openzeppelin/contracts/token/ERC20/utils/SafeERC20.sol\":974:1215  function safeTransferFrom(... */\n    tag_55:\n        /* \"@openzeppelin/contracts/token/ERC20/utils/SafeERC20.sol\":1139:1207  abi.encodeWithSelector(token.transferFrom.selector, from, to, value) */\n      0x40\n      dup1\n      mload\n      sub(shl(0xa0, 0x01), 0x01)\n        /* \"#utility.yul\":2601:2616   */\n      dup6\n      dup2\n      and\n        /* \"@openzeppelin/contracts/token/ERC20/utils/SafeERC20.sol\":1139:1207  abi.encodeWithSelector(token.transferFrom.selector, from, to, value) */\n      0x24\n      dup4\n      add\n        /* \"#utility.yul\":2583:2617   */\n      mstore\n        /* \"#utility.yul\":2653:2668   */\n      dup5\n      and\n        /* \"#utility.yul\":2633:2651   */\n      0x44\n      dup3\n      add\n        /* \"#utility.yul\":2626:2669   */\n      mstore\n        /* \"#utility.yul\":2685:2703   */\n      0x64\n      dup1\n      dup3\n      add\n        /* \"#utility.yul\":2678:2712   */\n      dup5\n      swap1\n      mstore\n        /* \"@openzeppelin/contracts/token/ERC20/utils/SafeERC20.sol\":1139:1207  abi.encodeWithSelector(token.transferFrom.selector, from, to, value) */\n      dup3\n      mload\n      dup1\n      dup4\n      sub\n      swap1\n      swap2\n      add\n      dup2\n      mstore\n        /* \"#utility.yul\":2518:2536   */\n      0x84\n      swap1\n      swap2\n      add\n        /* \"@openzeppelin/contracts/token/ERC20/utils/SafeERC20.sol\":1139:1207  abi.encodeWithSelector(token.transferFrom.selector, from, to, value) */\n      swap1\n      swap2\n      mstore\n      0x20\n      dup2\n      add\n      dup1\n      mload\n      sub(shl(0xe0, 0x01), 0x01)\n      and\n      shl(0xe0, 0x23b872dd)\n      or\n      swap1\n      mstore\n        /* \"@openzeppelin/contracts/token/ERC20/utils/SafeERC20.sol\":1112:1208  _callOptionalReturn(token, abi.encodeWithSelector(token.transferFrom.selector, from, to, value)) */\n      tag_69\n      swap1\n        /* \"@openzeppelin/contracts/token/ERC20/utils/SafeERC20.sol\":1132:1137  token */\n      dup6\n      swap1\n        /* \"@openzeppelin/contracts/token/ERC20/utils/SafeERC20.sol\":1112:1131  _callOptionalReturn */\n      tag_72\n        /* \"@openzeppelin/contracts/token/ERC20/utils/SafeERC20.sol\":1112:1208  _callOptionalReturn(token, abi.encodeWithSelector(token.transferFrom.selector, from, to, value)) */\n      jump\t// in\n    tag_69:\n        /* \"@openzeppelin/contracts/token/ERC20/utils/SafeERC20.sol\":974:1215  function safeTransferFrom(... */\n      pop\n      pop\n      pop\n      pop\n      jump\t// out\n        /* \"safeMath/safemath.sol\":327:455  function mul(uint a, uint b) internal pure returns (uint c) {... */\n    tag_60:\n        /* \"safeMath/safemath.sol\":379:385  uint c */\n      0x00\n        /* \"safeMath/safemath.sol\":402:407  a * b */\n      tag_74\n        /* \"safeMath/safemath.sol\":406:407  b */\n      dup3\n        /* \"safeMath/safemath.sol\":402:403  a */\n      dup5\n        /* \"safeMath/safemath.sol\":402:407  a * b */\n      tag_75\n      jump\t// in\n    tag_74:\n        /* \"safeMath/safemath.sol\":398:407  c = a * b */\n      swap1\n      pop\n        /* \"safeMath/safemath.sol\":426:432  a == 0 */\n      dup3\n      iszero\n      dup1\n        /* \"safeMath/safemath.sol\":426:446  a == 0 || c / a == b */\n      tag_76\n      jumpi\n      pop\n        /* \"safeMath/safemath.sol\":445:446  b */\n      dup2\n        /* \"safeMath/safemath.sol\":436:441  c / a */\n      tag_77\n        /* \"safeMath/safemath.sol\":440:441  a */\n      dup5\n        /* \"safeMath/safemath.sol\":436:437  c */\n      dup4\n        /* \"safeMath/safemath.sol\":436:441  c / a */\n      tag_78\n      jump\t// in\n    tag_77:\n        /* \"safeMath/safemath.sol\":436:446  c / a == b */\n      eq\n        /* \"safeMath/safemath.sol\":426:446  a == 0 || c / a == b */\n    tag_76:\n        /* \"safeMath/safemath.sol\":418:447  require(a == 0 || c / a == b) */\n      tag_79\n      jumpi\n      0x00\n      dup1\n      revert\n    tag_79:\n        /* \"safeMath/safemath.sol\":327:455  function mul(uint a, uint b) internal pure returns (uint c) {... */\n      swap3\n      swap2\n      pop\n      pop\n      jump\t// out\n        /* \"safeMath/safemath.sol\":461:574  function div(uint a, uint b) internal pure returns (uint c) {... */\n    tag_61:\n        /* \"safeMath/safemath.sol\":513:519  uint c */\n      0x00\n        /* \"safeMath/safemath.sol\":544:545  0 */\n      dup1\n        /* \"safeMath/safemath.sol\":540:541  b */\n      dup3\n        /* \"safeMath/safemath.sol\":540:545  b > 0 */\n      gt\n        /* \"safeMath/safemath.sol\":532:546  require(b > 0) */\n      tag_81\n      jumpi\n      0x00\n      dup1\n      revert\n    tag_81:\n        /* \"safeMath/safemath.sol\":561:566  a / b */\n      tag_82\n        /* \"safeMath/safemath.sol\":565:566  b */\n      dup3\n        /* \"safeMath/safemath.sol\":561:562  a */\n      dup5\n        /* \"safeMath/safemath.sol\":561:566  a / b */\n      tag_78\n      jump\t// in\n    tag_82:\n        /* \"safeMath/safemath.sol\":557:566  c = a / b */\n      swap4\n        /* \"safeMath/safemath.sol\":461:574  function div(uint a, uint b) internal pure returns (uint c) {... */\n      swap3\n      pop\n      pop\n      pop\n      jump\t// out\n        /* \"safeMath/safemath.sol\":207:321  function sub(uint a, uint b) internal pure returns (uint c) {... */\n    tag_63:\n        /* \"safeMath/safemath.sol\":259:265  uint c */\n      0x00\n        /* \"safeMath/safemath.sol\":291:292  a */\n      dup3\n        /* \"safeMath/safemath.sol\":286:287  b */\n      dup3\n        /* \"safeMath/safemath.sol\":286:292  b <= a */\n      gt\n      iszero\n        /* \"safeMath/safemath.sol\":278:293  require(b <= a) */\n      tag_84\n      jumpi\n      0x00\n      dup1\n      revert\n    tag_84:\n        /* \"safeMath/safemath.sol\":308:313  a - b */\n      tag_82\n        /* \"safeMath/safemath.sol\":312:313  b */\n      dup3\n        /* \"safeMath/safemath.sol\":308:309  a */\n      dup5\n        /* \"safeMath/safemath.sol\":308:313  a - b */\n      tag_86\n      jump\t// in\n        /* \"@openzeppelin/contracts/token/ERC20/utils/SafeERC20.sol\":3747:4453  function _callOptionalReturn(IERC20 token, bytes memory data) private {... */\n    tag_72:\n        /* \"@openzeppelin/contracts/token/ERC20/utils/SafeERC20.sol\":4166:4189  bytes memory returndata */\n      0x00\n        /* \"@openzeppelin/contracts/token/ERC20/utils/SafeERC20.sol\":4192:4261  address(token).functionCall(data, \"SafeERC20: low-level call failed\") */\n      tag_88\n        /* \"@openzeppelin/contracts/token/ERC20/utils/SafeERC20.sol\":4220:4224  data */\n      dup3\n        /* \"@openzeppelin/contracts/token/ERC20/utils/SafeERC20.sol\":4192:4261  address(token).functionCall(data, \"SafeERC20: low-level call failed\") */\n      mload(0x40)\n      dup1\n      0x40\n      add\n      0x40\n      mstore\n      dup1\n      0x20\n      dup2\n      mstore\n      0x20\n      add\n      0x5361666545524332303a206c6f772d6c6576656c2063616c6c206661696c6564\n      dup2\n      mstore\n      pop\n        /* \"@openzeppelin/contracts/token/ERC20/utils/SafeERC20.sol\":4200:4205  token */\n      dup6\n      sub(shl(0xa0, 0x01), 0x01)\n        /* \"@openzeppelin/contracts/token/ERC20/utils/SafeERC20.sol\":4192:4219  address(token).functionCall */\n      and\n      tag_89\n      swap1\n        /* \"@openzeppelin/contracts/token/ERC20/utils/SafeERC20.sol\":4192:4261  address(token).functionCall(data, \"SafeERC20: low-level call failed\") */\n      swap3\n      swap2\n      swap1\n      0xffffffff\n      and\n      jump\t// in\n    tag_88:\n        /* \"@openzeppelin/contracts/token/ERC20/utils/SafeERC20.sol\":4275:4292  returndata.length */\n      dup1\n      mload\n        /* \"@openzeppelin/contracts/token/ERC20/utils/SafeERC20.sol\":4166:4261  bytes memory returndata = address(token).functionCall(data, \"SafeERC20: low-level call failed\") */\n      swap1\n      swap2\n      pop\n        /* \"@openzeppelin/contracts/token/ERC20/utils/SafeERC20.sol\":4275:4296  returndata.length > 0 */\n      iszero\n        /* \"@openzeppelin/contracts/token/ERC20/utils/SafeERC20.sol\":4271:4447  if (returndata.length > 0) {... */\n      tag_93\n      jumpi\n        /* \"@openzeppelin/contracts/token/ERC20/utils/SafeERC20.sol\":4370:4380  returndata */\n      dup1\n        /* \"@openzeppelin/contracts/token/ERC20/utils/SafeERC20.sol\":4359:4389  abi.decode(returndata, (bool)) */\n      dup1\n      0x20\n      add\n      swap1\n      mload\n      dup2\n      add\n      swap1\n      tag_91\n      swap2\n      swap1\n      tag_92\n      jump\t// in\n    tag_91:\n        /* \"@openzeppelin/contracts/token/ERC20/utils/SafeERC20.sol\":4351:4436  require(abi.decode(returndata, (bool)), \"SafeERC20: ERC20 operation did not succeed\") */\n      tag_93\n      jumpi\n      mload(0x40)\n      shl(0xe5, 0x461bcd)\n      dup2\n      mstore\n        /* \"#utility.yul\":3732:3734   */\n      0x20\n        /* \"@openzeppelin/contracts/token/ERC20/utils/SafeERC20.sol\":4351:4436  require(abi.decode(returndata, (bool)), \"SafeERC20: ERC20 operation did not succeed\") */\n      0x04\n      dup3\n      add\n        /* \"#utility.yul\":3714:3735   */\n      mstore\n        /* \"#utility.yul\":3771:3773   */\n      0x2a\n        /* \"#utility.yul\":3751:3769   */\n      0x24\n      dup3\n      add\n        /* \"#utility.yul\":3744:3774   */\n      mstore\n        /* \"#utility.yul\":3810:3844   */\n      0x5361666545524332303a204552433230206f7065726174696f6e20646964206e\n        /* \"#utility.yul\":3790:3808   */\n      0x44\n      dup3\n      add\n        /* \"#utility.yul\":3783:3845   */\n      mstore\n      shl(0xb2, 0x1bdd081cdd58d8d95959)\n        /* \"#utility.yul\":3861:3879   */\n      0x64\n      dup3\n      add\n        /* \"#utility.yul\":3854:3894   */\n      mstore\n        /* \"#utility.yul\":3911:3930   */\n      0x84\n      add\n        /* \"@openzeppelin/contracts/token/ERC20/utils/SafeERC20.sol\":4351:4436  require(abi.decode(returndata, (bool)), \"SafeERC20: ERC20 operation did not succeed\") */\n      tag_52\n        /* \"#utility.yul\":3530:3936   */\n      jump\n        /* \"@openzeppelin/contracts/token/ERC20/utils/SafeERC20.sol\":4351:4436  require(abi.decode(returndata, (bool)), \"SafeERC20: ERC20 operation did not succeed\") */\n    tag_93:\n        /* \"@openzeppelin/contracts/token/ERC20/utils/SafeERC20.sol\":3817:4453  {... */\n      pop\n        /* \"@openzeppelin/contracts/token/ERC20/utils/SafeERC20.sol\":3747:4453  function _callOptionalReturn(IERC20 token, bytes memory data) private {... */\n      pop\n      pop\n      jump\t// out\n        /* \"@openzeppelin/contracts/utils/Address.sol\":3861:4084  function functionCall(... */\n    tag_89:\n        /* \"@openzeppelin/contracts/utils/Address.sol\":3994:4006  bytes memory */\n      0x60\n        /* \"@openzeppelin/contracts/utils/Address.sol\":4025:4077  functionCallWithValue(target, data, 0, errorMessage) */\n      tag_97\n        /* \"@openzeppelin/contracts/utils/Address.sol\":4047:4053  target */\n      dup5\n        /* \"@openzeppelin/contracts/utils/Address.sol\":4055:4059  data */\n      dup5\n        /* \"@openzeppelin/contracts/utils/Address.sol\":4061:4062  0 */\n      0x00\n        /* \"@openzeppelin/contracts/utils/Address.sol\":4064:4076  errorMessage */\n      dup6\n        /* \"@openzeppelin/contracts/utils/Address.sol\":4025:4046  functionCallWithValue */\n      tag_98\n        /* \"@openzeppelin/contracts/utils/Address.sol\":4025:4077  functionCallWithValue(target, data, 0, errorMessage) */\n      jump\t// in\n    tag_97:\n        /* \"@openzeppelin/contracts/utils/Address.sol\":4018:4077  return functionCallWithValue(target, data, 0, errorMessage) */\n      swap5\n        /* \"@openzeppelin/contracts/utils/Address.sol\":3861:4084  function functionCall(... */\n      swap4\n      pop\n      pop\n      pop\n      pop\n      jump\t// out\n        /* \"@openzeppelin/contracts/utils/Address.sol\":4948:5447  function functionCallWithValue(... */\n    tag_98:\n        /* \"@openzeppelin/contracts/utils/Address.sol\":5113:5125  bytes memory */\n      0x60\n        /* \"@openzeppelin/contracts/utils/Address.sol\":5170:5175  value */\n      dup3\n        /* \"@openzeppelin/contracts/utils/Address.sol\":5145:5166  address(this).balance */\n      selfbalance\n        /* \"@openzeppelin/contracts/utils/Address.sol\":5145:5175  address(this).balance >= value */\n      lt\n      iszero\n        /* \"@openzeppelin/contracts/utils/Address.sol\":5137:5218  require(address(this).balance >= value, \"Address: insufficient balance for call\") */\n      tag_100\n      jumpi\n      mload(0x40)\n      shl(0xe5, 0x461bcd)\n      dup2\n      mstore\n        /* \"#utility.yul\":4143:4145   */\n      0x20\n        /* \"@openzeppelin/contracts/utils/Address.sol\":5137:5218  require(address(this).balance >= value, \"Address: insufficient balance for call\") */\n      0x04\n      dup3\n      add\n        /* \"#utility.yul\":4125:4146   */\n      mstore\n        /* \"#utility.yul\":4182:4184   */\n      0x26\n        /* \"#utility.yul\":4162:4180   */\n      0x24\n      dup3\n      add\n        /* \"#utility.yul\":4155:4185   */\n      mstore\n        /* \"#utility.yul\":4221:4255   */\n      0x416464726573733a20696e73756666696369656e742062616c616e636520666f\n        /* \"#utility.yul\":4201:4219   */\n      0x44\n      dup3\n      add\n        /* \"#utility.yul\":4194:4256   */\n      mstore\n      shl(0xd2, 0x1c8818d85b1b)\n        /* \"#utility.yul\":4272:4290   */\n      0x64\n      dup3\n      add\n        /* \"#utility.yul\":4265:4301   */\n      mstore\n        /* \"#utility.yul\":4318:4337   */\n      0x84\n      add\n        /* \"@openzeppelin/contracts/utils/Address.sol\":5137:5218  require(address(this).balance >= value, \"Address: insufficient balance for call\") */\n      tag_52\n        /* \"#utility.yul\":3941:4343   */\n      jump\n        /* \"@openzeppelin/contracts/utils/Address.sol\":5137:5218  require(address(this).balance >= value, \"Address: insufficient balance for call\") */\n    tag_100:\n      sub(shl(0xa0, 0x01), 0x01)\n        /* \"@openzeppelin/contracts/utils/Address.sol\":1465:1484  account.code.length */\n      dup6\n      and\n      extcodesize\n        /* \"@openzeppelin/contracts/utils/Address.sol\":5228:5288  require(isContract(target), \"Address: call to non-contract\") */\n      tag_105\n      jumpi\n      mload(0x40)\n      shl(0xe5, 0x461bcd)\n      dup2\n      mstore\n        /* \"#utility.yul\":4550:4552   */\n      0x20\n        /* \"@openzeppelin/contracts/utils/Address.sol\":5228:5288  require(isContract(target), \"Address: call to non-contract\") */\n      0x04\n      dup3\n      add\n        /* \"#utility.yul\":4532:4553   */\n      mstore\n        /* \"#utility.yul\":4589:4591   */\n      0x1d\n        /* \"#utility.yul\":4569:4587   */\n      0x24\n      dup3\n      add\n        /* \"#utility.yul\":4562:4592   */\n      mstore\n        /* \"#utility.yul\":4628:4659   */\n      0x416464726573733a2063616c6c20746f206e6f6e2d636f6e7472616374000000\n        /* \"#utility.yul\":4608:4626   */\n      0x44\n      dup3\n      add\n        /* \"#utility.yul\":4601:4660   */\n      mstore\n        /* \"#utility.yul\":4677:4695   */\n      0x64\n      add\n        /* \"@openzeppelin/contracts/utils/Address.sol\":5228:5288  require(isContract(target), \"Address: call to non-contract\") */\n      tag_52\n        /* \"#utility.yul\":4348:4701   */\n      jump\n        /* \"@openzeppelin/contracts/utils/Address.sol\":5228:5288  require(isContract(target), \"Address: call to non-contract\") */\n    tag_105:\n        /* \"@openzeppelin/contracts/utils/Address.sol\":5300:5312  bool success */\n      0x00\n        /* \"@openzeppelin/contracts/utils/Address.sol\":5314:5337  bytes memory returndata */\n      dup1\n        /* \"@openzeppelin/contracts/utils/Address.sol\":5341:5347  target */\n      dup7\n      sub(shl(0xa0, 0x01), 0x01)\n        /* \"@openzeppelin/contracts/utils/Address.sol\":5341:5352  target.call */\n      and\n        /* \"@openzeppelin/contracts/utils/Address.sol\":5360:5365  value */\n      dup6\n        /* \"@openzeppelin/contracts/utils/Address.sol\":5367:5371  data */\n      dup8\n        /* \"@openzeppelin/contracts/utils/Address.sol\":5341:5372  target.call{value: value}(data) */\n      mload(0x40)\n      tag_108\n      swap2\n      swap1\n      tag_109\n      jump\t// in\n    tag_108:\n      0x00\n      mload(0x40)\n      dup1\n      dup4\n      sub\n      dup2\n      dup6\n      dup8\n      gas\n      call\n      swap3\n      pop\n      pop\n      pop\n      returndatasize\n      dup1\n      0x00\n      dup2\n      eq\n      tag_112\n      jumpi\n      mload(0x40)\n      swap2\n      pop\n      and(add(returndatasize, 0x3f), not(0x1f))\n      dup3\n      add\n      0x40\n      mstore\n      returndatasize\n      dup3\n      mstore\n      returndatasize\n      0x00\n      0x20\n      dup5\n      add\n      returndatacopy\n      jump(tag_111)\n    tag_112:\n      0x60\n      swap2\n      pop\n    tag_111:\n      pop\n        /* \"@openzeppelin/contracts/utils/Address.sol\":5299:5372  (bool success, bytes memory returndata) = target.call{value: value}(data) */\n      swap2\n      pop\n      swap2\n      pop\n        /* \"@openzeppelin/contracts/utils/Address.sol\":5389:5440  verifyCallResult(success, returndata, errorMessage) */\n      tag_113\n        /* \"@openzeppelin/contracts/utils/Address.sol\":5406:5413  success */\n      dup3\n        /* \"@openzeppelin/contracts/utils/Address.sol\":5415:5425  returndata */\n      dup3\n        /* \"@openzeppelin/contracts/utils/Address.sol\":5427:5439  errorMessage */\n      dup7\n        /* \"@openzeppelin/contracts/utils/Address.sol\":5389:5405  verifyCallResult */\n      tag_114\n        /* \"@openzeppelin/contracts/utils/Address.sol\":5389:5440  verifyCallResult(success, returndata, errorMessage) */\n      jump\t// in\n    tag_113:\n        /* \"@openzeppelin/contracts/utils/Address.sol\":5382:5440  return verifyCallResult(success, returndata, errorMessage) */\n      swap8\n        /* \"@openzeppelin/contracts/utils/Address.sol\":4948:5447  function functionCallWithValue(... */\n      swap7\n      pop\n      pop\n      pop\n      pop\n      pop\n      pop\n      pop\n      jump\t// out\n        /* \"@openzeppelin/contracts/utils/Address.sol\":7561:8303  function verifyCallResult(... */\n    tag_114:\n        /* \"@openzeppelin/contracts/utils/Address.sol\":7707:7719  bytes memory */\n      0x60\n        /* \"@openzeppelin/contracts/utils/Address.sol\":7735:7742  success */\n      dup4\n        /* \"@openzeppelin/contracts/utils/Address.sol\":7731:8297  if (success) {... */\n      iszero\n      tag_117\n      jumpi\n      pop\n        /* \"@openzeppelin/contracts/utils/Address.sol\":7765:7775  returndata */\n      dup2\n        /* \"@openzeppelin/contracts/utils/Address.sol\":7758:7775  return returndata */\n      jump(tag_82)\n        /* \"@openzeppelin/contracts/utils/Address.sol\":7731:8297  if (success) {... */\n    tag_117:\n        /* \"@openzeppelin/contracts/utils/Address.sol\":7876:7893  returndata.length */\n      dup3\n      mload\n        /* \"@openzeppelin/contracts/utils/Address.sol\":7876:7897  returndata.length > 0 */\n      iszero\n        /* \"@openzeppelin/contracts/utils/Address.sol\":7872:8287  if (returndata.length > 0) {... */\n      tag_119\n      jumpi\n        /* \"@openzeppelin/contracts/utils/Address.sol\":8120:8130  returndata */\n      dup3\n        /* \"@openzeppelin/contracts/utils/Address.sol\":8114:8131  mload(returndata) */\n      mload\n        /* \"@openzeppelin/contracts/utils/Address.sol\":8180:8195  returndata_size */\n      dup1\n        /* \"@openzeppelin/contracts/utils/Address.sol\":8167:8177  returndata */\n      dup5\n        /* \"@openzeppelin/contracts/utils/Address.sol\":8163:8165  32 */\n      0x20\n        /* \"@openzeppelin/contracts/utils/Address.sol\":8159:8178  add(32, returndata) */\n      add\n        /* \"@openzeppelin/contracts/utils/Address.sol\":8152:8196  revert(add(32, returndata), returndata_size) */\n      revert\n        /* \"@openzeppelin/contracts/utils/Address.sol\":7872:8287  if (returndata.length > 0) {... */\n    tag_119:\n        /* \"@openzeppelin/contracts/utils/Address.sol\":8259:8271  errorMessage */\n      dup2\n        /* \"@openzeppelin/contracts/utils/Address.sol\":8252:8272  revert(errorMessage) */\n      mload(0x40)\n      shl(0xe5, 0x461bcd)\n      dup2\n      mstore\n      0x04\n      add\n      tag_52\n      swap2\n      swap1\n      tag_122\n      jump\t// in\n        /* \"#utility.yul\":14:194   */\n    tag_14:\n        /* \"#utility.yul\":73:79   */\n      0x00\n        /* \"#utility.yul\":126:128   */\n      0x20\n        /* \"#utility.yul\":114:123   */\n      dup3\n        /* \"#utility.yul\":105:112   */\n      dup5\n        /* \"#utility.yul\":101:124   */\n      sub\n        /* \"#utility.yul\":97:129   */\n      slt\n        /* \"#utility.yul\":94:146   */\n      iszero\n      tag_127\n      jumpi\n        /* \"#utility.yul\":142:143   */\n      0x00\n        /* \"#utility.yul\":139:140   */\n      dup1\n        /* \"#utility.yul\":132:144   */\n      revert\n        /* \"#utility.yul\":94:146   */\n    tag_127:\n      pop\n        /* \"#utility.yul\":165:188   */\n      calldataload\n      swap2\n        /* \"#utility.yul\":14:194   */\n      swap1\n      pop\n      jump\t// out\n        /* \"#utility.yul\":589:875   */\n    tag_26:\n        /* \"#utility.yul\":648:654   */\n      0x00\n        /* \"#utility.yul\":701:703   */\n      0x20\n        /* \"#utility.yul\":689:698   */\n      dup3\n        /* \"#utility.yul\":680:687   */\n      dup5\n        /* \"#utility.yul\":676:699   */\n      sub\n        /* \"#utility.yul\":672:704   */\n      slt\n        /* \"#utility.yul\":669:721   */\n      iszero\n      tag_131\n      jumpi\n        /* \"#utility.yul\":717:718   */\n      0x00\n        /* \"#utility.yul\":714:715   */\n      dup1\n        /* \"#utility.yul\":707:719   */\n      revert\n        /* \"#utility.yul\":669:721   */\n    tag_131:\n        /* \"#utility.yul\":743:766   */\n      dup2\n      calldataload\n      sub(shl(0xa0, 0x01), 0x01)\n        /* \"#utility.yul\":795:826   */\n      dup2\n      and\n        /* \"#utility.yul\":785:827   */\n      dup2\n      eq\n        /* \"#utility.yul\":775:845   */\n      tag_82\n      jumpi\n        /* \"#utility.yul\":841:842   */\n      0x00\n        /* \"#utility.yul\":838:839   */\n      dup1\n        /* \"#utility.yul\":831:843   */\n      revert\n        /* \"#utility.yul\":1540:1724   */\n    tag_50:\n        /* \"#utility.yul\":1610:1616   */\n      0x00\n        /* \"#utility.yul\":1663:1665   */\n      0x20\n        /* \"#utility.yul\":1651:1660   */\n      dup3\n        /* \"#utility.yul\":1642:1649   */\n      dup5\n        /* \"#utility.yul\":1638:1661   */\n      sub\n        /* \"#utility.yul\":1634:1666   */\n      slt\n        /* \"#utility.yul\":1631:1683   */\n      iszero\n      tag_136\n      jumpi\n        /* \"#utility.yul\":1679:1680   */\n      0x00\n        /* \"#utility.yul\":1676:1677   */\n      dup1\n        /* \"#utility.yul\":1669:1681   */\n      revert\n        /* \"#utility.yul\":1631:1683   */\n    tag_136:\n      pop\n        /* \"#utility.yul\":1702:1718   */\n      mload\n      swap2\n        /* \"#utility.yul\":1540:1724   */\n      swap1\n      pop\n      jump\t// out\n        /* \"#utility.yul\":2078:2205   */\n    tag_123:\n        /* \"#utility.yul\":2139:2149   */\n      0x4e487b71\n        /* \"#utility.yul\":2134:2137   */\n      0xe0\n        /* \"#utility.yul\":2130:2150   */\n      shl\n        /* \"#utility.yul\":2127:2128   */\n      0x00\n        /* \"#utility.yul\":2120:2151   */\n      mstore\n        /* \"#utility.yul\":2170:2174   */\n      0x11\n        /* \"#utility.yul\":2167:2168   */\n      0x04\n        /* \"#utility.yul\":2160:2175   */\n      mstore\n        /* \"#utility.yul\":2194:2198   */\n      0x24\n        /* \"#utility.yul\":2191:2192   */\n      0x00\n        /* \"#utility.yul\":2184:2199   */\n      revert\n        /* \"#utility.yul\":2210:2338   */\n    tag_65:\n        /* \"#utility.yul\":2250:2253   */\n      0x00\n        /* \"#utility.yul\":2281:2282   */\n      dup3\n        /* \"#utility.yul\":2277:2283   */\n      not\n        /* \"#utility.yul\":2274:2275   */\n      dup3\n        /* \"#utility.yul\":2271:2284   */\n      gt\n        /* \"#utility.yul\":2268:2307   */\n      iszero\n      tag_141\n      jumpi\n        /* \"#utility.yul\":2287:2305   */\n      tag_141\n      tag_123\n      jump\t// in\n    tag_141:\n      pop\n        /* \"#utility.yul\":2323:2332   */\n      add\n      swap1\n        /* \"#utility.yul\":2210:2338   */\n      jump\t// out\n        /* \"#utility.yul\":2723:2891   */\n    tag_75:\n        /* \"#utility.yul\":2763:2770   */\n      0x00\n        /* \"#utility.yul\":2829:2830   */\n      dup2\n        /* \"#utility.yul\":2825:2826   */\n      0x00\n        /* \"#utility.yul\":2821:2827   */\n      not\n        /* \"#utility.yul\":2817:2831   */\n      div\n        /* \"#utility.yul\":2814:2815   */\n      dup4\n        /* \"#utility.yul\":2811:2832   */\n      gt\n        /* \"#utility.yul\":2806:2807   */\n      dup3\n        /* \"#utility.yul\":2799:2808   */\n      iszero\n        /* \"#utility.yul\":2792:2809   */\n      iszero\n        /* \"#utility.yul\":2788:2833   */\n      and\n        /* \"#utility.yul\":2785:2856   */\n      iszero\n      tag_145\n      jumpi\n        /* \"#utility.yul\":2836:2854   */\n      tag_145\n      tag_123\n      jump\t// in\n    tag_145:\n      pop\n        /* \"#utility.yul\":2876:2885   */\n      mul\n      swap1\n        /* \"#utility.yul\":2723:2891   */\n      jump\t// out\n        /* \"#utility.yul\":2896:3113   */\n    tag_78:\n        /* \"#utility.yul\":2936:2937   */\n      0x00\n        /* \"#utility.yul\":2962:2963   */\n      dup3\n        /* \"#utility.yul\":2952:3084   */\n      tag_147\n      jumpi\n        /* \"#utility.yul\":3006:3016   */\n      0x4e487b71\n        /* \"#utility.yul\":3001:3004   */\n      0xe0\n        /* \"#utility.yul\":2997:3017   */\n      shl\n        /* \"#utility.yul\":2994:2995   */\n      0x00\n        /* \"#utility.yul\":2987:3018   */\n      mstore\n        /* \"#utility.yul\":3041:3045   */\n      0x12\n        /* \"#utility.yul\":3038:3039   */\n      0x04\n        /* \"#utility.yul\":3031:3046   */\n      mstore\n        /* \"#utility.yul\":3069:3073   */\n      0x24\n        /* \"#utility.yul\":3066:3067   */\n      0x00\n        /* \"#utility.yul\":3059:3074   */\n      revert\n        /* \"#utility.yul\":2952:3084   */\n    tag_147:\n      pop\n        /* \"#utility.yul\":3098:3107   */\n      div\n      swap1\n        /* \"#utility.yul\":2896:3113   */\n      jump\t// out\n        /* \"#utility.yul\":3118:3243   */\n    tag_86:\n        /* \"#utility.yul\":3158:3162   */\n      0x00\n        /* \"#utility.yul\":3186:3187   */\n      dup3\n        /* \"#utility.yul\":3183:3184   */\n      dup3\n        /* \"#utility.yul\":3180:3188   */\n      lt\n        /* \"#utility.yul\":3177:3211   */\n      iszero\n      tag_150\n      jumpi\n        /* \"#utility.yul\":3191:3209   */\n      tag_150\n      tag_123\n      jump\t// in\n    tag_150:\n      pop\n        /* \"#utility.yul\":3228:3237   */\n      sub\n      swap1\n        /* \"#utility.yul\":3118:3243   */\n      jump\t// out\n        /* \"#utility.yul\":3248:3525   */\n    tag_92:\n        /* \"#utility.yul\":3315:3321   */\n      0x00\n        /* \"#utility.yul\":3368:3370   */\n      0x20\n        /* \"#utility.yul\":3356:3365   */\n      dup3\n        /* \"#utility.yul\":3347:3354   */\n      dup5\n        /* \"#utility.yul\":3343:3366   */\n      sub\n        /* \"#utility.yul\":3339:3371   */\n      slt\n        /* \"#utility.yul\":3336:3388   */\n      iszero\n      tag_152\n      jumpi\n        /* \"#utility.yul\":3384:3385   */\n      0x00\n        /* \"#utility.yul\":3381:3382   */\n      dup1\n        /* \"#utility.yul\":3374:3386   */\n      revert\n        /* \"#utility.yul\":3336:3388   */\n    tag_152:\n        /* \"#utility.yul\":3416:3425   */\n      dup2\n        /* \"#utility.yul\":3410:3426   */\n      mload\n        /* \"#utility.yul\":3469:3474   */\n      dup1\n        /* \"#utility.yul\":3462:3475   */\n      iszero\n        /* \"#utility.yul\":3455:3476   */\n      iszero\n        /* \"#utility.yul\":3448:3453   */\n      dup2\n        /* \"#utility.yul\":3445:3477   */\n      eq\n        /* \"#utility.yul\":3435:3495   */\n      tag_82\n      jumpi\n        /* \"#utility.yul\":3491:3492   */\n      0x00\n        /* \"#utility.yul\":3488:3489   */\n      dup1\n        /* \"#utility.yul\":3481:3493   */\n      revert\n        /* \"#utility.yul\":4706:4964   */\n    tag_124:\n        /* \"#utility.yul\":4778:4779   */\n      0x00\n        /* \"#utility.yul\":4788:4901   */\n    tag_158:\n        /* \"#utility.yul\":4802:4808   */\n      dup4\n        /* \"#utility.yul\":4799:4800   */\n      dup2\n        /* \"#utility.yul\":4796:4809   */\n      lt\n        /* \"#utility.yul\":4788:4901   */\n      iszero\n      tag_160\n      jumpi\n        /* \"#utility.yul\":4878:4889   */\n      dup2\n      dup2\n      add\n        /* \"#utility.yul\":4872:4890   */\n      mload\n        /* \"#utility.yul\":4859:4870   */\n      dup4\n      dup3\n      add\n        /* \"#utility.yul\":4852:4891   */\n      mstore\n        /* \"#utility.yul\":4824:4826   */\n      0x20\n        /* \"#utility.yul\":4817:4827   */\n      add\n        /* \"#utility.yul\":4788:4901   */\n      jump(tag_158)\n    tag_160:\n        /* \"#utility.yul\":4919:4925   */\n      dup4\n        /* \"#utility.yul\":4916:4917   */\n      dup2\n        /* \"#utility.yul\":4913:4926   */\n      gt\n        /* \"#utility.yul\":4910:4958   */\n      iszero\n      tag_69\n      jumpi\n      pop\n      pop\n        /* \"#utility.yul\":4954:4955   */\n      0x00\n        /* \"#utility.yul\":4936:4952   */\n      swap2\n      add\n        /* \"#utility.yul\":4929:4956   */\n      mstore\n        /* \"#utility.yul\":4706:4964   */\n      jump\t// out\n        /* \"#utility.yul\":4969:5243   */\n    tag_109:\n        /* \"#utility.yul\":5098:5101   */\n      0x00\n        /* \"#utility.yul\":5136:5142   */\n      dup3\n        /* \"#utility.yul\":5130:5143   */\n      mload\n        /* \"#utility.yul\":5152:5205   */\n      tag_163\n        /* \"#utility.yul\":5198:5204   */\n      dup2\n        /* \"#utility.yul\":5193:5196   */\n      dup5\n        /* \"#utility.yul\":5186:5190   */\n      0x20\n        /* \"#utility.yul\":5178:5184   */\n      dup8\n        /* \"#utility.yul\":5174:5191   */\n      add\n        /* \"#utility.yul\":5152:5205   */\n      tag_124\n      jump\t// in\n    tag_163:\n        /* \"#utility.yul\":5221:5237   */\n      swap2\n      swap1\n      swap2\n      add\n      swap3\n        /* \"#utility.yul\":4969:5243   */\n      swap2\n      pop\n      pop\n      jump\t// out\n        /* \"#utility.yul\":5248:5631   */\n    tag_122:\n        /* \"#utility.yul\":5397:5399   */\n      0x20\n        /* \"#utility.yul\":5386:5395   */\n      dup2\n        /* \"#utility.yul\":5379:5400   */\n      mstore\n        /* \"#utility.yul\":5360:5364   */\n      0x00\n        /* \"#utility.yul\":5429:5435   */\n      dup3\n        /* \"#utility.yul\":5423:5436   */\n      mload\n        /* \"#utility.yul\":5472:5478   */\n      dup1\n        /* \"#utility.yul\":5467:5469   */\n      0x20\n        /* \"#utility.yul\":5456:5465   */\n      dup5\n        /* \"#utility.yul\":5452:5470   */\n      add\n        /* \"#utility.yul\":5445:5479   */\n      mstore\n        /* \"#utility.yul\":5488:5554   */\n      tag_165\n        /* \"#utility.yul\":5547:5553   */\n      dup2\n        /* \"#utility.yul\":5542:5544   */\n      0x40\n        /* \"#utility.yul\":5531:5540   */\n      dup6\n        /* \"#utility.yul\":5527:5545   */\n      add\n        /* \"#utility.yul\":5522:5524   */\n      0x20\n        /* \"#utility.yul\":5514:5520   */\n      dup8\n        /* \"#utility.yul\":5510:5525   */\n      add\n        /* \"#utility.yul\":5488:5554   */\n      tag_124\n      jump\t// in\n    tag_165:\n        /* \"#utility.yul\":5615:5617   */\n      0x1f\n        /* \"#utility.yul\":5594:5609   */\n      add\n      not(0x1f)\n        /* \"#utility.yul\":5590:5619   */\n      and\n        /* \"#utility.yul\":5575:5620   */\n      swap2\n      swap1\n      swap2\n      add\n        /* \"#utility.yul\":5622:5624   */\n      0x40\n        /* \"#utility.yul\":5571:5625   */\n      add\n      swap3\n        /* \"#utility.yul\":5248:5631   */\n      swap2\n      pop\n      pop\n      jump\t// out\n\n    auxdata: 0xa26469706673582212205fc8e71edca599d1e018d1fafe9778d9f2d5b2e7eebe6ce19bf2ce3a5495861964736f6c634300080f0033\n}\n",
				"bytecode": {
					"linkReferences": {},
					"object": "608060405234801561001057600080fd5b5060405161093e38038061093e83398101604081905261002f916100bd565b600480546001600160a01b031916331790556001600160a01b03811661008e5760405162461bcd60e51b815260206004820152601060248201526f4e4f542c53203058204144445245535360801b604482015260640160405180910390fd5b600180546001600160a01b039092166001600160a01b03199283168117909155600280549092161790556100ed565b6000602082840312156100cf57600080fd5b81516001600160a01b03811681146100e657600080fd5b9392505050565b610842806100fc6000396000f3fe608060405234801561001057600080fd5b50600436106100885760003560e01c80638da5cb5b1161005b5780638da5cb5b1461014e578063b6b55f2514610161578063dab2997b14610184578063e82219171461019757600080fd5b80631afaa6e81461008d5780636dff132e146100a257806371ca337d146100d25780638c93ecff146100e9575b600080fd5b6100a061009b36600461068e565b600055565b005b6002546100b5906001600160a01b031681565b6040516001600160a01b0390911681526020015b60405180910390f35b6100db60005481565b6040519081526020016100c9565b6101266100f73660046106a7565b600560205260009081526040902080546001820154600283015460038401546004909401549293919290919085565b604080519586526020860194909452928401919091526060830152608082015260a0016100c9565b6004546100b5906001600160a01b031681565b61017461016f36600461068e565b6101a0565b60405190151581526020016100c9565b6001546100b5906001600160a01b031681565b6100db60035481565b6001546040516370a0823160e01b815233600482015260009183916001600160a01b03909116906370a0823190602401602060405180830381865afa1580156101ed573d6000803e3d6000fd5b505050506040513d601f19601f8201168201806040525081019061021191906106d0565b1161025a5760405162461bcd60e51b815260206004820152601460248201527310985b185b98d948125b9cdd59999a58da595b9d60621b60448201526064015b60405180910390fd5b600154610272906001600160a01b031633308561036c565b60008054338252600560205260408220546102ca916102a6916301e13380916102a0916064918391906103cc565b906103fe565b336000908152600560205260409020600101546102c490429061041d565b906103cc565b336000908152600560205260408120600201805492935083929091906102f19084906106ff565b909155505033600090815260056020526040812080548592906103159084906106ff565b909155505033600090815260056020526040812042600190910155600380548592906103429084906106ff565b90915550503360009081526005602052604090206001808201546004909201919091559392505050565b604080516001600160a01b0385811660248301528416604482015260648082018490528251808303909101815260849091019091526020810180516001600160e01b03166323b872dd60e01b1790526103c6908590610436565b50505050565b60006103d88284610717565b90508215806103ef5750816103ed8483610736565b145b6103f857600080fd5b92915050565b600080821161040c57600080fd5b6104168284610736565b9392505050565b60008282111561042c57600080fd5b6104168284610758565b600061048b826040518060400160405280602081526020017f5361666545524332303a206c6f772d6c6576656c2063616c6c206661696c6564815250856001600160a01b031661050d9092919063ffffffff16565b80519091501561050857808060200190518101906104a9919061076f565b6105085760405162461bcd60e51b815260206004820152602a60248201527f5361666545524332303a204552433230206f7065726174696f6e20646964206e6044820152691bdd081cdd58d8d9595960b21b6064820152608401610251565b505050565b606061051c8484600085610524565b949350505050565b6060824710156105855760405162461bcd60e51b815260206004820152602660248201527f416464726573733a20696e73756666696369656e742062616c616e636520666f6044820152651c8818d85b1b60d21b6064820152608401610251565b6001600160a01b0385163b6105dc5760405162461bcd60e51b815260206004820152601d60248201527f416464726573733a2063616c6c20746f206e6f6e2d636f6e74726163740000006044820152606401610251565b600080866001600160a01b031685876040516105f891906107bd565b60006040518083038185875af1925050503d8060008114610635576040519150601f19603f3d011682016040523d82523d6000602084013e61063a565b606091505b509150915061064a828286610655565b979650505050505050565b60608315610664575081610416565b8251156106745782518084602001fd5b8160405162461bcd60e51b815260040161025191906107d9565b6000602082840312156106a057600080fd5b5035919050565b6000602082840312156106b957600080fd5b81356001600160a01b038116811461041657600080fd5b6000602082840312156106e257600080fd5b5051919050565b634e487b7160e01b600052601160045260246000fd5b60008219821115610712576107126106e9565b500190565b6000816000190483118215151615610731576107316106e9565b500290565b60008261075357634e487b7160e01b600052601260045260246000fd5b500490565b60008282101561076a5761076a6106e9565b500390565b60006020828403121561078157600080fd5b8151801515811461041657600080fd5b60005b838110156107ac578181015183820152602001610794565b838111156103c65750506000910152565b600082516107cf818460208701610791565b9190910192915050565b60208152600082518060208401526107f8816040850160208701610791565b601f01601f1916919091016040019291505056fea26469706673582212205fc8e71edca599d1e018d1fafe9778d9f2d5b2e7eebe6ce19bf2ce3a5495861964736f6c634300080f0033",
					"opcodes": "PUSH1 0x80 PUSH1 0x40 MSTORE CALLVALUE DUP1 ISZERO PUSH2 0x10 JUMPI PUSH1 0x0 DUP1 REVERT JUMPDEST POP PUSH1 0x40 MLOAD PUSH2 0x93E CODESIZE SUB DUP1 PUSH2 0x93E DUP4 CODECOPY DUP2 ADD PUSH1 0x40 DUP2 SWAP1 MSTORE PUSH2 0x2F SWAP2 PUSH2 0xBD JUMP JUMPDEST PUSH1 0x4 DUP1 SLOAD PUSH1 0x1 PUSH1 0x1 PUSH1 0xA0 SHL SUB NOT AND CALLER OR SWAP1 SSTORE PUSH1 0x1 PUSH1 0x1 PUSH1 0xA0 SHL SUB DUP2 AND PUSH2 0x8E JUMPI PUSH1 0x40 MLOAD PUSH3 0x461BCD PUSH1 0xE5 SHL DUP2 MSTORE PUSH1 0x20 PUSH1 0x4 DUP3 ADD MSTORE PUSH1 0x10 PUSH1 0x24 DUP3 ADD MSTORE PUSH16 0x4E4F542C532030582041444452455353 PUSH1 0x80 SHL PUSH1 0x44 DUP3 ADD MSTORE PUSH1 0x64 ADD PUSH1 0x40 MLOAD DUP1 SWAP2 SUB SWAP1 REVERT JUMPDEST PUSH1 0x1 DUP1 SLOAD PUSH1 0x1 PUSH1 0x1 PUSH1 0xA0 SHL SUB SWAP1 SWAP3 AND PUSH1 0x1 PUSH1 0x1 PUSH1 0xA0 SHL SUB NOT SWAP3 DUP4 AND DUP2 OR SWAP1 SWAP2 SSTORE PUSH1 0x2 DUP1 SLOAD SWAP1 SWAP3 AND OR SWAP1 SSTORE PUSH2 0xED JUMP JUMPDEST PUSH1 0x0 PUSH1 0x20 DUP3 DUP5 SUB SLT ISZERO PUSH2 0xCF JUMPI PUSH1 0x0 DUP1 REVERT JUMPDEST DUP2 MLOAD PUSH1 0x1 PUSH1 0x1 PUSH1 0xA0 SHL SUB DUP2 AND DUP2 EQ PUSH2 0xE6 JUMPI PUSH1 0x0 DUP1 REVERT JUMPDEST SWAP4 SWAP3 POP POP POP JUMP JUMPDEST PUSH2 0x842 DUP1 PUSH2 0xFC PUSH1 0x0 CODECOPY PUSH1 0x0 RETURN INVALID PUSH1 0x80 PUSH1 0x40 MSTORE CALLVALUE DUP1 ISZERO PUSH2 0x10 JUMPI PUSH1 0x0 DUP1 REVERT JUMPDEST POP PUSH1 0x4 CALLDATASIZE LT PUSH2 0x88 JUMPI PUSH1 0x0 CALLDATALOAD PUSH1 0xE0 SHR DUP1 PUSH4 0x8DA5CB5B GT PUSH2 0x5B JUMPI DUP1 PUSH4 0x8DA5CB5B EQ PUSH2 0x14E JUMPI DUP1 PUSH4 0xB6B55F25 EQ PUSH2 0x161 JUMPI DUP1 PUSH4 0xDAB2997B EQ PUSH2 0x184 JUMPI DUP1 PUSH4 0xE8221917 EQ PUSH2 0x197 JUMPI PUSH1 0x0 DUP1 REVERT JUMPDEST DUP1 PUSH4 0x1AFAA6E8 EQ PUSH2 0x8D JUMPI DUP1 PUSH4 0x6DFF132E EQ PUSH2 0xA2 JUMPI DUP1 PUSH4 0x71CA337D EQ PUSH2 0xD2 JUMPI DUP1 PUSH4 0x8C93ECFF EQ PUSH2 0xE9 JUMPI JUMPDEST PUSH1 0x0 DUP1 REVERT JUMPDEST PUSH2 0xA0 PUSH2 0x9B CALLDATASIZE PUSH1 0x4 PUSH2 0x68E JUMP JUMPDEST PUSH1 0x0 SSTORE JUMP JUMPDEST STOP JUMPDEST PUSH1 0x2 SLOAD PUSH2 0xB5 SWAP1 PUSH1 0x1 PUSH1 0x1 PUSH1 0xA0 SHL SUB AND DUP2 JUMP JUMPDEST PUSH1 0x40 MLOAD PUSH1 0x1 PUSH1 0x1 PUSH1 0xA0 SHL SUB SWAP1 SWAP2 AND DUP2 MSTORE PUSH1 0x20 ADD JUMPDEST PUSH1 0x40 MLOAD DUP1 SWAP2 SUB SWAP1 RETURN JUMPDEST PUSH2 0xDB PUSH1 0x0 SLOAD DUP2 JUMP JUMPDEST PUSH1 0x40 MLOAD SWAP1 DUP2 MSTORE PUSH1 0x20 ADD PUSH2 0xC9 JUMP JUMPDEST PUSH2 0x126 PUSH2 0xF7 CALLDATASIZE PUSH1 0x4 PUSH2 0x6A7 JUMP JUMPDEST PUSH1 0x5 PUSH1 0x20 MSTORE PUSH1 0x0 SWAP1 DUP2 MSTORE PUSH1 0x40 SWAP1 KECCAK256 DUP1 SLOAD PUSH1 0x1 DUP3 ADD SLOAD PUSH1 0x2 DUP4 ADD SLOAD PUSH1 0x3 DUP5 ADD SLOAD PUSH1 0x4 SWAP1 SWAP5 ADD SLOAD SWAP3 SWAP4 SWAP2 SWAP3 SWAP1 SWAP2 SWAP1 DUP6 JUMP JUMPDEST PUSH1 0x40 DUP1 MLOAD SWAP6 DUP7 MSTORE PUSH1 0x20 DUP7 ADD SWAP5 SWAP1 SWAP5 MSTORE SWAP3 DUP5 ADD SWAP2 SWAP1 SWAP2 MSTORE PUSH1 0x60 DUP4 ADD MSTORE PUSH1 0x80 DUP3 ADD MSTORE PUSH1 0xA0 ADD PUSH2 0xC9 JUMP JUMPDEST PUSH1 0x4 SLOAD PUSH2 0xB5 SWAP1 PUSH1 0x1 PUSH1 0x1 PUSH1 0xA0 SHL SUB AND DUP2 JUMP JUMPDEST PUSH2 0x174 PUSH2 0x16F CALLDATASIZE PUSH1 0x4 PUSH2 0x68E JUMP JUMPDEST PUSH2 0x1A0 JUMP JUMPDEST PUSH1 0x40 MLOAD SWAP1 ISZERO ISZERO DUP2 MSTORE PUSH1 0x20 ADD PUSH2 0xC9 JUMP JUMPDEST PUSH1 0x1 SLOAD PUSH2 0xB5 SWAP1 PUSH1 0x1 PUSH1 0x1 PUSH1 0xA0 SHL SUB AND DUP2 JUMP JUMPDEST PUSH2 0xDB PUSH1 0x3 SLOAD DUP2 JUMP JUMPDEST PUSH1 0x1 SLOAD PUSH1 0x40 MLOAD PUSH4 0x70A08231 PUSH1 0xE0 SHL DUP2 MSTORE CALLER PUSH1 0x4 DUP3 ADD MSTORE PUSH1 0x0 SWAP2 DUP4 SWAP2 PUSH1 0x1 PUSH1 0x1 PUSH1 0xA0 SHL SUB SWAP1 SWAP2 AND SWAP1 PUSH4 0x70A08231 SWAP1 PUSH1 0x24 ADD PUSH1 0x20 PUSH1 0x40 MLOAD DUP1 DUP4 SUB DUP2 DUP7 GAS STATICCALL ISZERO DUP1 ISZERO PUSH2 0x1ED JUMPI RETURNDATASIZE PUSH1 0x0 DUP1 RETURNDATACOPY RETURNDATASIZE PUSH1 0x0 REVERT JUMPDEST POP POP POP POP PUSH1 0x40 MLOAD RETURNDATASIZE PUSH1 0x1F NOT PUSH1 0x1F DUP3 ADD AND DUP3 ADD DUP1 PUSH1 0x40 MSTORE POP DUP2 ADD SWAP1 PUSH2 0x211 SWAP2 SWAP1 PUSH2 0x6D0 JUMP JUMPDEST GT PUSH2 0x25A JUMPI PUSH1 0x40 MLOAD PUSH3 0x461BCD PUSH1 0xE5 SHL DUP2 MSTORE PUSH1 0x20 PUSH1 0x4 DUP3 ADD MSTORE PUSH1 0x14 PUSH1 0x24 DUP3 ADD MSTORE PUSH20 0x10985B185B98D948125B9CDD59999A58DA595B9D PUSH1 0x62 SHL PUSH1 0x44 DUP3 ADD MSTORE PUSH1 0x64 ADD JUMPDEST PUSH1 0x40 MLOAD DUP1 SWAP2 SUB SWAP1 REVERT JUMPDEST PUSH1 0x1 SLOAD PUSH2 0x272 SWAP1 PUSH1 0x1 PUSH1 0x1 PUSH1 0xA0 SHL SUB AND CALLER ADDRESS DUP6 PUSH2 0x36C JUMP JUMPDEST PUSH1 0x0 DUP1 SLOAD CALLER DUP3 MSTORE PUSH1 0x5 PUSH1 0x20 MSTORE PUSH1 0x40 DUP3 KECCAK256 SLOAD PUSH2 0x2CA SWAP2 PUSH2 0x2A6 SWAP2 PUSH4 0x1E13380 SWAP2 PUSH2 0x2A0 SWAP2 PUSH1 0x64 SWAP2 DUP4 SWAP2 SWAP1 PUSH2 0x3CC JUMP JUMPDEST SWAP1 PUSH2 0x3FE JUMP JUMPDEST CALLER PUSH1 0x0 SWAP1 DUP2 MSTORE PUSH1 0x5 PUSH1 0x20 MSTORE PUSH1 0x40 SWAP1 KECCAK256 PUSH1 0x1 ADD SLOAD PUSH2 0x2C4 SWAP1 TIMESTAMP SWAP1 PUSH2 0x41D JUMP JUMPDEST SWAP1 PUSH2 0x3CC JUMP JUMPDEST CALLER PUSH1 0x0 SWAP1 DUP2 MSTORE PUSH1 0x5 PUSH1 0x20 MSTORE PUSH1 0x40 DUP2 KECCAK256 PUSH1 0x2 ADD DUP1 SLOAD SWAP3 SWAP4 POP DUP4 SWAP3 SWAP1 SWAP2 SWAP1 PUSH2 0x2F1 SWAP1 DUP5 SWAP1 PUSH2 0x6FF JUMP JUMPDEST SWAP1 SWAP2 SSTORE POP POP CALLER PUSH1 0x0 SWAP1 DUP2 MSTORE PUSH1 0x5 PUSH1 0x20 MSTORE PUSH1 0x40 DUP2 KECCAK256 DUP1 SLOAD DUP6 SWAP3 SWAP1 PUSH2 0x315 SWAP1 DUP5 SWAP1 PUSH2 0x6FF JUMP JUMPDEST SWAP1 SWAP2 SSTORE POP POP CALLER PUSH1 0x0 SWAP1 DUP2 MSTORE PUSH1 0x5 PUSH1 0x20 MSTORE PUSH1 0x40 DUP2 KECCAK256 TIMESTAMP PUSH1 0x1 SWAP1 SWAP2 ADD SSTORE PUSH1 0x3 DUP1 SLOAD DUP6 SWAP3 SWAP1 PUSH2 0x342 SWAP1 DUP5 SWAP1 PUSH2 0x6FF JUMP JUMPDEST SWAP1 SWAP2 SSTORE POP POP CALLER PUSH1 0x0 SWAP1 DUP2 MSTORE PUSH1 0x5 PUSH1 0x20 MSTORE PUSH1 0x40 SWAP1 KECCAK256 PUSH1 0x1 DUP1 DUP3 ADD SLOAD PUSH1 0x4 SWAP1 SWAP3 ADD SWAP2 SWAP1 SWAP2 SSTORE SWAP4 SWAP3 POP POP POP JUMP JUMPDEST PUSH1 0x40 DUP1 MLOAD PUSH1 0x1 PUSH1 0x1 PUSH1 0xA0 SHL SUB DUP6 DUP2 AND PUSH1 0x24 DUP4 ADD MSTORE DUP5 AND PUSH1 0x44 DUP3 ADD MSTORE PUSH1 0x64 DUP1 DUP3 ADD DUP5 SWAP1 MSTORE DUP3 MLOAD DUP1 DUP4 SUB SWAP1 SWAP2 ADD DUP2 MSTORE PUSH1 0x84 SWAP1 SWAP2 ADD SWAP1 SWAP2 MSTORE PUSH1 0x20 DUP2 ADD DUP1 MLOAD PUSH1 0x1 PUSH1 0x1 PUSH1 0xE0 SHL SUB AND PUSH4 0x23B872DD PUSH1 0xE0 SHL OR SWAP1 MSTORE PUSH2 0x3C6 SWAP1 DUP6 SWAP1 PUSH2 0x436 JUMP JUMPDEST POP POP POP POP JUMP JUMPDEST PUSH1 0x0 PUSH2 0x3D8 DUP3 DUP5 PUSH2 0x717 JUMP JUMPDEST SWAP1 POP DUP3 ISZERO DUP1 PUSH2 0x3EF JUMPI POP DUP2 PUSH2 0x3ED DUP5 DUP4 PUSH2 0x736 JUMP JUMPDEST EQ JUMPDEST PUSH2 0x3F8 JUMPI PUSH1 0x0 DUP1 REVERT JUMPDEST SWAP3 SWAP2 POP POP JUMP JUMPDEST PUSH1 0x0 DUP1 DUP3 GT PUSH2 0x40C JUMPI PUSH1 0x0 DUP1 REVERT JUMPDEST PUSH2 0x416 DUP3 DUP5 PUSH2 0x736 JUMP JUMPDEST SWAP4 SWAP3 POP POP POP JUMP JUMPDEST PUSH1 0x0 DUP3 DUP3 GT ISZERO PUSH2 0x42C JUMPI PUSH1 0x0 DUP1 REVERT JUMPDEST PUSH2 0x416 DUP3 DUP5 PUSH2 0x758 JUMP JUMPDEST PUSH1 0x0 PUSH2 0x48B DUP3 PUSH1 0x40 MLOAD DUP1 PUSH1 0x40 ADD PUSH1 0x40 MSTORE DUP1 PUSH1 0x20 DUP2 MSTORE PUSH1 0x20 ADD PUSH32 0x5361666545524332303A206C6F772D6C6576656C2063616C6C206661696C6564 DUP2 MSTORE POP DUP6 PUSH1 0x1 PUSH1 0x1 PUSH1 0xA0 SHL SUB AND PUSH2 0x50D SWAP1 SWAP3 SWAP2 SWAP1 PUSH4 0xFFFFFFFF AND JUMP JUMPDEST DUP1 MLOAD SWAP1 SWAP2 POP ISZERO PUSH2 0x508 JUMPI DUP1 DUP1 PUSH1 0x20 ADD SWAP1 MLOAD DUP2 ADD SWAP1 PUSH2 0x4A9 SWAP2 SWAP1 PUSH2 0x76F JUMP JUMPDEST PUSH2 0x508 JUMPI PUSH1 0x40 MLOAD PUSH3 0x461BCD PUSH1 0xE5 SHL DUP2 MSTORE PUSH1 0x20 PUSH1 0x4 DUP3 ADD MSTORE PUSH1 0x2A PUSH1 0x24 DUP3 ADD MSTORE PUSH32 0x5361666545524332303A204552433230206F7065726174696F6E20646964206E PUSH1 0x44 DUP3 ADD MSTORE PUSH10 0x1BDD081CDD58D8D95959 PUSH1 0xB2 SHL PUSH1 0x64 DUP3 ADD MSTORE PUSH1 0x84 ADD PUSH2 0x251 JUMP JUMPDEST POP POP POP JUMP JUMPDEST PUSH1 0x60 PUSH2 0x51C DUP5 DUP5 PUSH1 0x0 DUP6 PUSH2 0x524 JUMP JUMPDEST SWAP5 SWAP4 POP POP POP POP JUMP JUMPDEST PUSH1 0x60 DUP3 SELFBALANCE LT ISZERO PUSH2 0x585 JUMPI PUSH1 0x40 MLOAD PUSH3 0x461BCD PUSH1 0xE5 SHL DUP2 MSTORE PUSH1 0x20 PUSH1 0x4 DUP3 ADD MSTORE PUSH1 0x26 PUSH1 0x24 DUP3 ADD MSTORE PUSH32 0x416464726573733A20696E73756666696369656E742062616C616E636520666F PUSH1 0x44 DUP3 ADD MSTORE PUSH6 0x1C8818D85B1B PUSH1 0xD2 SHL PUSH1 0x64 DUP3 ADD MSTORE PUSH1 0x84 ADD PUSH2 0x251 JUMP JUMPDEST PUSH1 0x1 PUSH1 0x1 PUSH1 0xA0 SHL SUB DUP6 AND EXTCODESIZE PUSH2 0x5DC JUMPI PUSH1 0x40 MLOAD PUSH3 0x461BCD PUSH1 0xE5 SHL DUP2 MSTORE PUSH1 0x20 PUSH1 0x4 DUP3 ADD MSTORE PUSH1 0x1D PUSH1 0x24 DUP3 ADD MSTORE PUSH32 0x416464726573733A2063616C6C20746F206E6F6E2D636F6E7472616374000000 PUSH1 0x44 DUP3 ADD MSTORE PUSH1 0x64 ADD PUSH2 0x251 JUMP JUMPDEST PUSH1 0x0 DUP1 DUP7 PUSH1 0x1 PUSH1 0x1 PUSH1 0xA0 SHL SUB AND DUP6 DUP8 PUSH1 0x40 MLOAD PUSH2 0x5F8 SWAP2 SWAP1 PUSH2 0x7BD JUMP JUMPDEST PUSH1 0x0 PUSH1 0x40 MLOAD DUP1 DUP4 SUB DUP2 DUP6 DUP8 GAS CALL SWAP3 POP POP POP RETURNDATASIZE DUP1 PUSH1 0x0 DUP2 EQ PUSH2 0x635 JUMPI PUSH1 0x40 MLOAD SWAP2 POP PUSH1 0x1F NOT PUSH1 0x3F RETURNDATASIZE ADD AND DUP3 ADD PUSH1 0x40 MSTORE RETURNDATASIZE DUP3 MSTORE RETURNDATASIZE PUSH1 0x0 PUSH1 0x20 DUP5 ADD RETURNDATACOPY PUSH2 0x63A JUMP JUMPDEST PUSH1 0x60 SWAP2 POP JUMPDEST POP SWAP2 POP SWAP2 POP PUSH2 0x64A DUP3 DUP3 DUP7 PUSH2 0x655 JUMP JUMPDEST SWAP8 SWAP7 POP POP POP POP POP POP POP JUMP JUMPDEST PUSH1 0x60 DUP4 ISZERO PUSH2 0x664 JUMPI POP DUP2 PUSH2 0x416 JUMP JUMPDEST DUP3 MLOAD ISZERO PUSH2 0x674 JUMPI DUP3 MLOAD DUP1 DUP5 PUSH1 0x20 ADD REVERT JUMPDEST DUP2 PUSH1 0x40 MLOAD PUSH3 0x461BCD PUSH1 0xE5 SHL DUP2 MSTORE PUSH1 0x4 ADD PUSH2 0x251 SWAP2 SWAP1 PUSH2 0x7D9 JUMP JUMPDEST PUSH1 0x0 PUSH1 0x20 DUP3 DUP5 SUB SLT ISZERO PUSH2 0x6A0 JUMPI PUSH1 0x0 DUP1 REVERT JUMPDEST POP CALLDATALOAD SWAP2 SWAP1 POP JUMP JUMPDEST PUSH1 0x0 PUSH1 0x20 DUP3 DUP5 SUB SLT ISZERO PUSH2 0x6B9 JUMPI PUSH1 0x0 DUP1 REVERT JUMPDEST DUP2 CALLDATALOAD PUSH1 0x1 PUSH1 0x1 PUSH1 0xA0 SHL SUB DUP2 AND DUP2 EQ PUSH2 0x416 JUMPI PUSH1 0x0 DUP1 REVERT JUMPDEST PUSH1 0x0 PUSH1 0x20 DUP3 DUP5 SUB SLT ISZERO PUSH2 0x6E2 JUMPI PUSH1 0x0 DUP1 REVERT JUMPDEST POP MLOAD SWAP2 SWAP1 POP JUMP JUMPDEST PUSH4 0x4E487B71 PUSH1 0xE0 SHL PUSH1 0x0 MSTORE PUSH1 0x11 PUSH1 0x4 MSTORE PUSH1 0x24 PUSH1 0x0 REVERT JUMPDEST PUSH1 0x0 DUP3 NOT DUP3 GT ISZERO PUSH2 0x712 JUMPI PUSH2 0x712 PUSH2 0x6E9 JUMP JUMPDEST POP ADD SWAP1 JUMP JUMPDEST PUSH1 0x0 DUP2 PUSH1 0x0 NOT DIV DUP4 GT DUP3 ISZERO ISZERO AND ISZERO PUSH2 0x731 JUMPI PUSH2 0x731 PUSH2 0x6E9 JUMP JUMPDEST POP MUL SWAP1 JUMP JUMPDEST PUSH1 0x0 DUP3 PUSH2 0x753 JUMPI PUSH4 0x4E487B71 PUSH1 0xE0 SHL PUSH1 0x0 MSTORE PUSH1 0x12 PUSH1 0x4 MSTORE PUSH1 0x24 PUSH1 0x0 REVERT JUMPDEST POP DIV SWAP1 JUMP JUMPDEST PUSH1 0x0 DUP3 DUP3 LT ISZERO PUSH2 0x76A JUMPI PUSH2 0x76A PUSH2 0x6E9 JUMP JUMPDEST POP SUB SWAP1 JUMP JUMPDEST PUSH1 0x0 PUSH1 0x20 DUP3 DUP5 SUB SLT ISZERO PUSH2 0x781 JUMPI PUSH1 0x0 DUP1 REVERT JUMPDEST DUP2 MLOAD DUP1 ISZERO ISZERO DUP2 EQ PUSH2 0x416 JUMPI PUSH1 0x0 DUP1 REVERT JUMPDEST PUSH1 0x0 JUMPDEST DUP4 DUP2 LT ISZERO PUSH2 0x7AC JUMPI DUP2 DUP2 ADD MLOAD DUP4 DUP3 ADD MSTORE PUSH1 0x20 ADD PUSH2 0x794 JUMP JUMPDEST DUP4 DUP2 GT ISZERO PUSH2 0x3C6 JUMPI POP POP PUSH1 0x0 SWAP2 ADD MSTORE JUMP JUMPDEST PUSH1 0x0 DUP3 MLOAD PUSH2 0x7CF DUP2 DUP5 PUSH1 0x20 DUP8 ADD PUSH2 0x791 JUMP JUMPDEST SWAP2 SWAP1 SWAP2 ADD SWAP3 SWAP2 POP POP JUMP JUMPDEST PUSH1 0x20 DUP2 MSTORE PUSH1 0x0 DUP3 MLOAD DUP1 PUSH1 0x20 DUP5 ADD MSTORE PUSH2 0x7F8 DUP2 PUSH1 0x40 DUP6 ADD PUSH1 0x20 DUP8 ADD PUSH2 0x791 JUMP JUMPDEST PUSH1 0x1F ADD PUSH1 0x1F NOT AND SWAP2 SWAP1 SWAP2 ADD PUSH1 0x40 ADD SWAP3 SWAP2 POP POP JUMP INVALID LOG2 PUSH5 0x6970667358 0x22 SLT KECCAK256 0x5F 0xC8 0xE7 0x1E 0xDC 0xA5 SWAP10 0xD1 0xE0 XOR 0xD1 STATICCALL INVALID SWAP8 PUSH25 0xD9F2D5B2E7EEBE6CE19BF2CE3A5495861964736F6C63430008 0xF STOP CALLER "
				},
				"gasEstimates": {
					"creation": {
						"codeDepositCost": "422800",
						"executionCost": "infinite",
						"totalCost": "infinite"
					},
					"external": {
						"User_Map(address)": "11095",
						"deposit(uint256)": "infinite",
						"owner()": "2326",
						"ratio()": "2340",
						"rewardtoken()": "2349",
						"setratio(uint256)": "22313",
						"staketoken()": "2370",
						"staketotal()": "2361"
					}
				},
				"methodIdentifiers": {
					"User_Map(address)": "8c93ecff",
					"deposit(uint256)": "b6b55f25",
					"owner()": "8da5cb5b",
					"ratio()": "71ca337d",
					"rewardtoken()": "6dff132e",
					"setratio(uint256)": "1afaa6e8",
					"staketoken()": "dab2997b",
					"staketotal()": "e8221917"
				}
			},
			"storageLayout": {
				"storage": [
					{
						"astId": 822,
						"contract": "定息矿池-进阶.sol:StakeContract",
						"label": "ratio",
						"offset": 0,
						"slot": "0",
						"type": "t_uint256"
					},
					{
						"astId": 824,
						"contract": "定息矿池-进阶.sol:StakeContract",
						"label": "staketoken",
						"offset": 0,
						"slot": "1",
						"type": "t_address"
					},
					{
						"astId": 826,
						"contract": "定息矿池-进阶.sol:StakeContract",
						"label": "rewardtoken",
						"offset": 0,
						"slot": "2",
						"type": "t_address"
					},
					{
						"astId": 828,
						"contract": "定息矿池-进阶.sol:StakeContract",
						"label": "staketotal",
						"offset": 0,
						"slot": "3",
						"type": "t_uint256"
					},
					{
						"astId": 830,
						"contract": "定息矿池-进阶.sol:StakeContract",
						"label": "owner",
						"offset": 0,
						"slot": "4",
						"type": "t_address"
					},
					{
						"astId": 846,
						"contract": "定息矿池-进阶.sol:StakeContract",
						"label": "User_Map",
						"offset": 0,
						"slot": "5",
						"type": "t_mapping(t_address,t_struct(User)841_storage)"
					}
				],
				"types": {
					"t_address": {
						"encoding": "inplace",
						"label": "address",
						"numberOfBytes": "20"
					},
					"t_mapping(t_address,t_struct(User)841_storage)": {
						"encoding": "mapping",
						"key": "t_address",
						"label": "mapping(address => struct StakeContract.User)",
						"numberOfBytes": "32",
						"value": "t_struct(User)841_storage"
					},
					"t_struct(User)841_storage": {
						"encoding": "inplace",
						"label": "struct StakeContract.User",
						"members": [
							{
								"astId": 832,
								"contract": "定息矿池-进阶.sol:StakeContract",
								"label": "stakeNumber",
								"offset": 0,
								"slot": "0",
								"type": "t_uint256"
							},
							{
								"astId": 834,
								"contract": "定息矿池-进阶.sol:StakeContract",
								"label": "last_Stake_Time",
								"offset": 0,
								"slot": "1",
								"type": "t_uint256"
							},
							{
								"astId": 836,
								"contract": "定息矿池-进阶.sol:StakeContract",
								"label": "last_totoken_ratio",
								"offset": 0,
								"slot": "2",
								"type": "t_uint256"
							},
							{
								"astId": 838,
								"contract": "定息矿池-进阶.sol:StakeContract",
								"label": "whole_ratio",
								"offset": 0,
								"slot": "3",
								"type": "t_uint256"
							},
							{
								"astId": 840,
								"contract": "定息矿池-进阶.sol:StakeContract",
								"label": "last_totoken_Time",
								"offset": 0,
								"slot": "4",
								"type": "t_uint256"
							}
						],
						"numberOfBytes": "160"
					},
					"t_uint256": {
						"encoding": "inplace",
						"label": "uint256",
						"numberOfBytes": "32"
					}
				}
			},
			"userdoc": {
				"kind": "user",
				"methods": {},
				"version": 1
			}
		}
	}
}