{
	"data": {
		"bytecode": {
			"linkReferences": {
				"remix_accounts.sol": {
					"TestsAccounts": [
						{
							"length": 20,
							"start": 1069
						}
					]
				},
				"remix_tests.sol": {
					"Assert": [
						{
							"length": 20,
							"start": 287
						},
						{
							"length": 20,
							"start": 472
						},
						{
							"length": 20,
							"start": 657
						},
						{
							"length": 20,
							"start": 849
						},
						{
							"length": 20,
							"start": 983
						},
						{
							"length": 20,
							"start": 1042
						},
						{
							"length": 20,
							"start": 1418
						}
					]
				}
			},
			"object": "608060405234801561001057600080fd5b506105d9806100206000396000f3fe60806040526004361061004a5760003560e01c8063011e64921461004f57806312d487ea1461006657806336c006561461008f5780637fea0d4b146100a45780639074416d146100b9575b600080fd5b34801561005b57600080fd5b506100646100c1565b005b34801561007257600080fd5b5061007b6102d8565b604080519115158252519081900360200190f35b34801561009b57600080fd5b506100646102dd565b3480156100b057600080fd5b5061006461036a565b6100646103f0565b604080516339df137f60e01b81526001600482015260248101829052600e60448201526d73686f756c64206265207472756560901b6064820152905173__$acbfb1c35000d78352310b16a054a6b106$__916339df137f916084808301926020929190829003018186803b15801561013857600080fd5b505af415801561014c573d6000803e3d6000fd5b505050506040513d602081101561016257600080fd5b50506040805163a079f1a360e01b8152600260048201526001602482015260606044820152601d60648201527f322073686f756c642062652067726561746572207468616e20746f20310000006084820152905173__$acbfb1c35000d78352310b16a054a6b106$__9163a079f1a39160a4808301926020929190829003018186803b1580156101f157600080fd5b505af4158015610205573d6000803e3d6000fd5b505050506040513d602081101561021b57600080fd5b50506040805163575444a960e11b8152600260048201526003602482015260606044820152601c60648201527f322073686f756c64206265206c6573736572207468616e20746f2033000000006084820152905173__$acbfb1c35000d78352310b16a054a6b106$__9163aea889529160a4808301926020929190829003018186803b1580156102aa57600080fd5b505af41580156102be573d6000803e3d6000fd5b505050506040513d60208110156102d457600080fd5b5050565b600190565b60408051632b080af160e11b8152600160048201819052602482015260606044820152601a60648201527f312073686f756c64206e6f7420626520657175616c20746f20310000000000006084820152905173__$acbfb1c35000d78352310b16a054a6b106$__9163561015e29160a4808301926020929190829003018186803b1580156102aa57600080fd5b6040805163055e6bcb60e51b81526001600482018190526024820152606060448201526016606482015275312073686f756c6420626520657175616c20746f203160501b6084820152905173__$acbfb1c35000d78352310b16a054a6b106$__9163abcd79609160a4808301926020929190829003018186803b1580156102aa57600080fd5b73__$acbfb1c35000d78352310b16a054a6b106$__63bfba5dd63373__$1068a87eb54ed04c4e435de35b2ebf536f$__63ce88b14560016040518263ffffffff1660e01b81526004018082815260200191505060206040518083038186803b15801561045b57600080fd5b505af415801561046f573d6000803e3d6000fd5b505050506040513d602081101561048557600080fd5b5051604080516001600160e01b031960e086901b1681526001600160a01b03938416600482015292909116602483015260606044830152600e60648301526d24b73b30b634b21039b2b73232b960911b60848301525160a4808301926020929190829003018186803b1580156104fa57600080fd5b505af415801561050e573d6000803e3d6000fd5b505050506040513d602081101561052457600080fd5b50506040805163055e6bcb60e51b815234600482015260646024820181905260606044830152600d908201526c496e76616c69642076616c756560981b6084820152905173__$acbfb1c35000d78352310b16a054a6b106$__9163abcd79609160a4808301926020929190829003018186803b1580156102aa57600080fdfea2646970667358221220289c40256df8b7bfadd824c049a3ad9c08909771b765d8b1733f3acd0c414ff564736f6c634300060c0033",
			"opcodes": "PUSH1 0x80 PUSH1 0x40 MSTORE CALLVALUE DUP1 ISZERO PUSH2 0x10 JUMPI PUSH1 0x0 DUP1 REVERT JUMPDEST POP PUSH2 0x5D9 DUP1 PUSH2 0x20 PUSH1 0x0 CODECOPY PUSH1 0x0 RETURN INVALID PUSH1 0x80 PUSH1 0x40 MSTORE PUSH1 0x4 CALLDATASIZE LT PUSH2 0x4A JUMPI PUSH1 0x0 CALLDATALOAD PUSH1 0xE0 SHR DUP1 PUSH4 0x11E6492 EQ PUSH2 0x4F JUMPI DUP1 PUSH4 0x12D487EA EQ PUSH2 0x66 JUMPI DUP1 PUSH4 0x36C00656 EQ PUSH2 0x8F JUMPI DUP1 PUSH4 0x7FEA0D4B EQ PUSH2 0xA4 JUMPI DUP1 PUSH4 0x9074416D EQ PUSH2 0xB9 JUMPI JUMPDEST PUSH1 0x0 DUP1 REVERT JUMPDEST CALLVALUE DUP1 ISZERO PUSH2 0x5B JUMPI PUSH1 0x0 DUP1 REVERT JUMPDEST POP PUSH2 0x64 PUSH2 0xC1 JUMP JUMPDEST STOP JUMPDEST CALLVALUE DUP1 ISZERO PUSH2 0x72 JUMPI PUSH1 0x0 DUP1 REVERT JUMPDEST POP PUSH2 0x7B PUSH2 0x2D8 JUMP JUMPDEST PUSH1 0x40 DUP1 MLOAD SWAP2 ISZERO ISZERO DUP3 MSTORE MLOAD SWAP1 DUP2 SWAP1 SUB PUSH1 0x20 ADD SWAP1 RETURN JUMPDEST CALLVALUE DUP1 ISZERO PUSH2 0x9B JUMPI PUSH1 0x0 DUP1 REVERT JUMPDEST POP PUSH2 0x64 PUSH2 0x2DD JUMP JUMPDEST CALLVALUE DUP1 ISZERO PUSH2 0xB0 JUMPI PUSH1 0x0 DUP1 REVERT JUMPDEST POP PUSH2 0x64 PUSH2 0x36A JUMP JUMPDEST PUSH2 0x64 PUSH2 0x3F0 JUMP JUMPDEST PUSH1 0x40 DUP1 MLOAD PUSH4 0x39DF137F PUSH1 0xE0 SHL DUP2 MSTORE PUSH1 0x1 PUSH1 0x4 DUP3 ADD MSTORE PUSH1 0x24 DUP2 ADD DUP3 SWAP1 MSTORE PUSH1 0xE PUSH1 0x44 DUP3 ADD MSTORE PUSH14 0x73686F756C642062652074727565 PUSH1 0x90 SHL PUSH1 0x64 DUP3 ADD MSTORE SWAP1 MLOAD PUSH20 0x0 SWAP2 PUSH4 0x39DF137F SWAP2 PUSH1 0x84 DUP1 DUP4 ADD SWAP3 PUSH1 0x20 SWAP3 SWAP2 SWAP1 DUP3 SWAP1 SUB ADD DUP2 DUP7 DUP1 EXTCODESIZE ISZERO DUP1 ISZERO PUSH2 0x138 JUMPI PUSH1 0x0 DUP1 REVERT JUMPDEST POP GAS DELEGATECALL ISZERO DUP1 ISZERO PUSH2 0x14C JUMPI RETURNDATASIZE PUSH1 0x0 DUP1 RETURNDATACOPY RETURNDATASIZE PUSH1 0x0 REVERT JUMPDEST POP POP POP POP PUSH1 0x40 MLOAD RETURNDATASIZE PUSH1 0x20 DUP2 LT ISZERO PUSH2 0x162 JUMPI PUSH1 0x0 DUP1 REVERT JUMPDEST POP POP PUSH1 0x40 DUP1 MLOAD PUSH4 0xA079F1A3 PUSH1 0xE0 SHL DUP2 MSTORE PUSH1 0x2 PUSH1 0x4 DUP3 ADD MSTORE PUSH1 0x1 PUSH1 0x24 DUP3 ADD MSTORE PUSH1 0x60 PUSH1 0x44 DUP3 ADD MSTORE PUSH1 0x1D PUSH1 0x64 DUP3 ADD MSTORE PUSH32 0x322073686F756C642062652067726561746572207468616E20746F2031000000 PUSH1 0x84 DUP3 ADD MSTORE SWAP1 MLOAD PUSH20 0x0 SWAP2 PUSH4 0xA079F1A3 SWAP2 PUSH1 0xA4 DUP1 DUP4 ADD SWAP3 PUSH1 0x20 SWAP3 SWAP2 SWAP1 DUP3 SWAP1 SUB ADD DUP2 DUP7 DUP1 EXTCODESIZE ISZERO DUP1 ISZERO PUSH2 0x1F1 JUMPI PUSH1 0x0 DUP1 REVERT JUMPDEST POP GAS DELEGATECALL ISZERO DUP1 ISZERO PUSH2 0x205 JUMPI RETURNDATASIZE PUSH1 0x0 DUP1 RETURNDATACOPY RETURNDATASIZE PUSH1 0x0 REVERT JUMPDEST POP POP POP POP PUSH1 0x40 MLOAD RETURNDATASIZE PUSH1 0x20 DUP2 LT ISZERO PUSH2 0x21B JUMPI PUSH1 0x0 DUP1 REVERT JUMPDEST POP POP PUSH1 0x40 DUP1 MLOAD PUSH4 0x575444A9 PUSH1 0xE1 SHL DUP2 MSTORE PUSH1 0x2 PUSH1 0x4 DUP3 ADD MSTORE PUSH1 0x3 PUSH1 0x24 DUP3 ADD MSTORE PUSH1 0x60 PUSH1 0x44 DUP3 ADD MSTORE PUSH1 0x1C PUSH1 0x64 DUP3 ADD MSTORE PUSH32 0x322073686F756C64206265206C6573736572207468616E20746F203300000000 PUSH1 0x84 DUP3 ADD MSTORE SWAP1 MLOAD PUSH20 0x0 SWAP2 PUSH4 0xAEA88952 SWAP2 PUSH1 0xA4 DUP1 DUP4 ADD SWAP3 PUSH1 0x20 SWAP3 SWAP2 SWAP1 DUP3 SWAP1 SUB ADD DUP2 DUP7 DUP1 EXTCODESIZE ISZERO DUP1 ISZERO PUSH2 0x2AA JUMPI PUSH1 0x0 DUP1 REVERT JUMPDEST POP GAS DELEGATECALL ISZERO DUP1 ISZERO PUSH2 0x2BE JUMPI RETURNDATASIZE PUSH1 0x0 DUP1 RETURNDATACOPY RETURNDATASIZE PUSH1 0x0 REVERT JUMPDEST POP POP POP POP PUSH1 0x40 MLOAD RETURNDATASIZE PUSH1 0x20 DUP2 LT ISZERO PUSH2 0x2D4 JUMPI PUSH1 0x0 DUP1 REVERT JUMPDEST POP POP JUMP JUMPDEST PUSH1 0x1 SWAP1 JUMP JUMPDEST PUSH1 0x40 DUP1 MLOAD PUSH4 0x2B080AF1 PUSH1 0xE1 SHL DUP2 MSTORE PUSH1 0x1 PUSH1 0x4 DUP3 ADD DUP2 SWAP1 MSTORE PUSH1 0x24 DUP3 ADD MSTORE PUSH1 0x60 PUSH1 0x44 DUP3 ADD MSTORE PUSH1 0x1A PUSH1 0x64 DUP3 ADD MSTORE PUSH32 0x312073686F756C64206E6F7420626520657175616C20746F2031000000000000 PUSH1 0x84 DUP3 ADD MSTORE SWAP1 MLOAD PUSH20 0x0 SWAP2 PUSH4 0x561015E2 SWAP2 PUSH1 0xA4 DUP1 DUP4 ADD SWAP3 PUSH1 0x20 SWAP3 SWAP2 SWAP1 DUP3 SWAP1 SUB ADD DUP2 DUP7 DUP1 EXTCODESIZE ISZERO DUP1 ISZERO PUSH2 0x2AA JUMPI PUSH1 0x0 DUP1 REVERT JUMPDEST PUSH1 0x40 DUP1 MLOAD PUSH4 0x55E6BCB PUSH1 0xE5 SHL DUP2 MSTORE PUSH1 0x1 PUSH1 0x4 DUP3 ADD DUP2 SWAP1 MSTORE PUSH1 0x24 DUP3 ADD MSTORE PUSH1 0x60 PUSH1 0x44 DUP3 ADD MSTORE PUSH1 0x16 PUSH1 0x64 DUP3 ADD MSTORE PUSH22 0x312073686F756C6420626520657175616C20746F2031 PUSH1 0x50 SHL PUSH1 0x84 DUP3 ADD MSTORE SWAP1 MLOAD PUSH20 0x0 SWAP2 PUSH4 0xABCD7960 SWAP2 PUSH1 0xA4 DUP1 DUP4 ADD SWAP3 PUSH1 0x20 SWAP3 SWAP2 SWAP1 DUP3 SWAP1 SUB ADD DUP2 DUP7 DUP1 EXTCODESIZE ISZERO DUP1 ISZERO PUSH2 0x2AA JUMPI PUSH1 0x0 DUP1 REVERT JUMPDEST PUSH20 0x0 PUSH4 0xBFBA5DD6 CALLER PUSH20 0x0 PUSH4 0xCE88B145 PUSH1 0x1 PUSH1 0x40 MLOAD DUP3 PUSH4 0xFFFFFFFF AND PUSH1 0xE0 SHL DUP2 MSTORE PUSH1 0x4 ADD DUP1 DUP3 DUP2 MSTORE PUSH1 0x20 ADD SWAP2 POP POP PUSH1 0x20 PUSH1 0x40 MLOAD DUP1 DUP4 SUB DUP2 DUP7 DUP1 EXTCODESIZE ISZERO DUP1 ISZERO PUSH2 0x45B JUMPI PUSH1 0x0 DUP1 REVERT JUMPDEST POP GAS DELEGATECALL ISZERO DUP1 ISZERO PUSH2 0x46F JUMPI RETURNDATASIZE PUSH1 0x0 DUP1 RETURNDATACOPY RETURNDATASIZE PUSH1 0x0 REVERT JUMPDEST POP POP POP POP PUSH1 0x40 MLOAD RETURNDATASIZE PUSH1 0x20 DUP2 LT ISZERO PUSH2 0x485 JUMPI PUSH1 0x0 DUP1 REVERT JUMPDEST POP MLOAD PUSH1 0x40 DUP1 MLOAD PUSH1 0x1 PUSH1 0x1 PUSH1 0xE0 SHL SUB NOT PUSH1 0xE0 DUP7 SWAP1 SHL AND DUP2 MSTORE PUSH1 0x1 PUSH1 0x1 PUSH1 0xA0 SHL SUB SWAP4 DUP5 AND PUSH1 0x4 DUP3 ADD MSTORE SWAP3 SWAP1 SWAP2 AND PUSH1 0x24 DUP4 ADD MSTORE PUSH1 0x60 PUSH1 0x44 DUP4 ADD MSTORE PUSH1 0xE PUSH1 0x64 DUP4 ADD MSTORE PUSH14 0x24B73B30B634B21039B2B73232B9 PUSH1 0x91 SHL PUSH1 0x84 DUP4 ADD MSTORE MLOAD PUSH1 0xA4 DUP1 DUP4 ADD SWAP3 PUSH1 0x20 SWAP3 SWAP2 SWAP1 DUP3 SWAP1 SUB ADD DUP2 DUP7 DUP1 EXTCODESIZE ISZERO DUP1 ISZERO PUSH2 0x4FA JUMPI PUSH1 0x0 DUP1 REVERT JUMPDEST POP GAS DELEGATECALL ISZERO DUP1 ISZERO PUSH2 0x50E JUMPI RETURNDATASIZE PUSH1 0x0 DUP1 RETURNDATACOPY RETURNDATASIZE PUSH1 0x0 REVERT JUMPDEST POP POP POP POP PUSH1 0x40 MLOAD RETURNDATASIZE PUSH1 0x20 DUP2 LT ISZERO PUSH2 0x524 JUMPI PUSH1 0x0 DUP1 REVERT JUMPDEST POP POP PUSH1 0x40 DUP1 MLOAD PUSH4 0x55E6BCB PUSH1 0xE5 SHL DUP2 MSTORE CALLVALUE PUSH1 0x4 DUP3 ADD MSTORE PUSH1 0x64 PUSH1 0x24 DUP3 ADD DUP2 SWAP1 MSTORE PUSH1 0x60 PUSH1 0x44 DUP4 ADD MSTORE PUSH1 0xD SWAP1 DUP3 ADD MSTORE PUSH13 0x496E76616C69642076616C7565 PUSH1 0x98 SHL PUSH1 0x84 DUP3 ADD MSTORE SWAP1 MLOAD PUSH20 0x0 SWAP2 PUSH4 0xABCD7960 SWAP2 PUSH1 0xA4 DUP1 DUP4 ADD SWAP3 PUSH1 0x20 SWAP3 SWAP2 SWAP1 DUP3 SWAP1 SUB ADD DUP2 DUP7 DUP1 EXTCODESIZE ISZERO DUP1 ISZERO PUSH2 0x2AA JUMPI PUSH1 0x0 DUP1 REVERT INVALID LOG2 PUSH5 0x6970667358 0x22 SLT KECCAK256 0x28 SWAP13 BLOCKHASH 0x25 PUSH14 0xF8B7BFADD824C049A3AD9C089097 PUSH18 0xB765D8B1733F3ACD0C414FF564736F6C6343 STOP MOD 0xC STOP CALLER "
		},
		"gasEstimates": {
			"creation": {
				"codeDepositCost": "299400",
				"executionCost": "337",
				"totalCost": "299737"
			},
			"external": {
				"beforeAll()": "infinite",
				"checkFailure()": "infinite",
				"checkSenderAndValue()": "infinite",
				"checkSuccess()": "infinite",
				"checkSuccess2()": "204"
			}
		},
		"methodIdentifiers": {
			"beforeAll()": "7fea0d4b",
			"checkFailure()": "36c00656",
			"checkSenderAndValue()": "9074416d",
			"checkSuccess()": "011e6492",
			"checkSuccess2()": "12d487ea"
		}
	},
	"abi": [
		{
			"inputs": [],
			"name": "beforeAll",
			"outputs": [],
			"stateMutability": "nonpayable",
			"type": "function"
		},
		{
			"inputs": [],
			"name": "checkFailure",
			"outputs": [],
			"stateMutability": "nonpayable",
			"type": "function"
		},
		{
			"inputs": [],
			"name": "checkSenderAndValue",
			"outputs": [],
			"stateMutability": "payable",
			"type": "function"
		},
		{
			"inputs": [],
			"name": "checkSuccess",
			"outputs": [],
			"stateMutability": "nonpayable",
			"type": "function"
		},
		{
			"inputs": [],
			"name": "checkSuccess2",
			"outputs": [
				{
					"internalType": "bool",
					"name": "",
					"type": "bool"
				}
			],
			"stateMutability": "pure",
			"type": "function"
		}
	]
}