{
	"写项目基础/写uni算法矿池.sol": {
		"StakeContract": {
			"abi": [
				{
					"anonymous": false,
					"inputs": [
						{
							"indexed": true,
							"internalType": "address",
							"name": "owner",
							"type": "address"
						},
						{
							"indexed": true,
							"internalType": "address",
							"name": "spender",
							"type": "address"
						},
						{
							"indexed": false,
							"internalType": "uint256",
							"name": "amout",
							"type": "uint256"
						}
					],
					"name": "Approveal",
					"type": "event"
				},
				{
					"anonymous": false,
					"inputs": [
						{
							"indexed": true,
							"internalType": "address",
							"name": "from",
							"type": "address"
						},
						{
							"indexed": true,
							"internalType": "address",
							"name": "to",
							"type": "address"
						},
						{
							"indexed": false,
							"internalType": "uint256",
							"name": "amout",
							"type": "uint256"
						}
					],
					"name": "Trasfer",
					"type": "event"
				},
				{
					"anonymous": false,
					"inputs": [
						{
							"indexed": true,
							"internalType": "address",
							"name": "to",
							"type": "address"
						},
						{
							"indexed": false,
							"internalType": "uint256",
							"name": "amout",
							"type": "uint256"
						}
					],
					"name": "transfer",
					"type": "event"
				},
				{
					"inputs": [],
					"name": "max_a_token_reward",
					"outputs": [
						{
							"internalType": "uint256",
							"name": "",
							"type": "uint256"
						}
					],
					"stateMutability": "view",
					"type": "function"
				},
				{
					"inputs": [],
					"name": "owner",
					"outputs": [
						{
							"internalType": "address",
							"name": "",
							"type": "address"
						}
					],
					"stateMutability": "view",
					"type": "function"
				},
				{
					"inputs": [],
					"name": "ratio",
					"outputs": [
						{
							"internalType": "uint256",
							"name": "",
							"type": "uint256"
						}
					],
					"stateMutability": "view",
					"type": "function"
				},
				{
					"inputs": [],
					"name": "stakeSupple",
					"outputs": [
						{
							"internalType": "uint256",
							"name": "",
							"type": "uint256"
						}
					],
					"stateMutability": "view",
					"type": "function"
				},
				{
					"inputs": [],
					"name": "staketoken",
					"outputs": [
						{
							"internalType": "address",
							"name": "",
							"type": "address"
						}
					],
					"stateMutability": "view",
					"type": "function"
				},
				{
					"inputs": [],
					"name": "totoken",
					"outputs": [
						{
							"internalType": "address",
							"name": "",
							"type": "address"
						}
					],
					"stateMutability": "view",
					"type": "function"
				}
			],
			"devdoc": {
				"kind": "dev",
				"methods": {},
				"version": 1
			},
			"evm": {
				"assembly": "    /* \"\\xe5\\x86\\x99\\xe9\\xa1\\xb9\\xe7\\x9b\\xae\\xe5\\x9f\\xba\\xe7\\xa1\\x80/\\xe5\\x86\\x99uni\\xe7\\xae\\x97\\xe6\\xb3\\x95\\xe7\\x9f\\xbf\\xe6\\xb1\\xa0.sol\":694:1323  contract StakeContract {... */\n  mstore(0x40, 0x80)\n  callvalue\n  dup1\n  iszero\n  tag_1\n  jumpi\n  0x00\n  dup1\n  revert\ntag_1:\n  pop\n  dataSize(sub_0)\n  dup1\n  dataOffset(sub_0)\n  0x00\n  codecopy\n  0x00\n  return\nstop\n\nsub_0: assembly {\n        /* \"\\xe5\\x86\\x99\\xe9\\xa1\\xb9\\xe7\\x9b\\xae\\xe5\\x9f\\xba\\xe7\\xa1\\x80/\\xe5\\x86\\x99uni\\xe7\\xae\\x97\\xe6\\xb3\\x95\\xe7\\x9f\\xbf\\xe6\\xb1\\xa0.sol\":694:1323  contract StakeContract {... */\n      mstore(0x40, 0x80)\n      callvalue\n      dup1\n      iszero\n      tag_1\n      jumpi\n      0x00\n      dup1\n      revert\n    tag_1:\n      pop\n      jumpi(tag_2, lt(calldatasize, 0x04))\n      shr(0xe0, calldataload(0x00))\n      dup1\n      0x2c46502d\n      eq\n      tag_3\n      jumpi\n      dup1\n      0x71ca337d\n      eq\n      tag_4\n      jumpi\n      dup1\n      0x8da5cb5b\n      eq\n      tag_5\n      jumpi\n      dup1\n      0xa6643c90\n      eq\n      tag_6\n      jumpi\n      dup1\n      0xd942727f\n      eq\n      tag_7\n      jumpi\n      dup1\n      0xdab2997b\n      eq\n      tag_8\n      jumpi\n    tag_2:\n      0x00\n      dup1\n      revert\n        /* \"\\xe5\\x86\\x99\\xe9\\xa1\\xb9\\xe7\\x9b\\xae\\xe5\\x9f\\xba\\xe7\\xa1\\x80/\\xe5\\x86\\x99uni\\xe7\\xae\\x97\\xe6\\xb3\\x95\\xe7\\x9f\\xbf\\xe6\\xb1\\xa0.sol\":811:833  address public totoken */\n    tag_3:\n      sload(0x02)\n      tag_9\n      swap1\n      sub(shl(0xa0, 0x01), 0x01)\n      and\n      dup2\n      jump\n    tag_9:\n      mload(0x40)\n      sub(shl(0xa0, 0x01), 0x01)\n        /* \"#utility.yul\":178:210   */\n      swap1\n      swap2\n      and\n        /* \"#utility.yul\":160:211   */\n      dup2\n      mstore\n        /* \"#utility.yul\":148:150   */\n      0x20\n        /* \"#utility.yul\":133:151   */\n      add\n        /* \"\\xe5\\x86\\x99\\xe9\\xa1\\xb9\\xe7\\x9b\\xae\\xe5\\x9f\\xba\\xe7\\xa1\\x80/\\xe5\\x86\\x99uni\\xe7\\xae\\x97\\xe6\\xb3\\x95\\xe7\\x9f\\xbf\\xe6\\xb1\\xa0.sol\":811:833  address public totoken */\n    tag_11:\n      mload(0x40)\n      dup1\n      swap2\n      sub\n      swap1\n      return\n        /* \"\\xe5\\x86\\x99\\xe9\\xa1\\xb9\\xe7\\x9b\\xae\\xe5\\x9f\\xba\\xe7\\xa1\\x80/\\xe5\\x86\\x99uni\\xe7\\xae\\x97\\xe6\\xb3\\x95\\xe7\\x9f\\xbf\\xe6\\xb1\\xa0.sol\":755:772  uint public ratio */\n    tag_4:\n      tag_13\n      sload(0x00)\n      dup2\n      jump\n    tag_13:\n      mload(0x40)\n        /* \"#utility.yul\":368:393   */\n      swap1\n      dup2\n      mstore\n        /* \"#utility.yul\":356:358   */\n      0x20\n        /* \"#utility.yul\":341:359   */\n      add\n        /* \"\\xe5\\x86\\x99\\xe9\\xa1\\xb9\\xe7\\x9b\\xae\\xe5\\x9f\\xba\\xe7\\xa1\\x80/\\xe5\\x86\\x99uni\\xe7\\xae\\x97\\xe6\\xb3\\x95\\xe7\\x9f\\xbf\\xe6\\xb1\\xa0.sol\":755:772  uint public ratio */\n      tag_11\n        /* \"#utility.yul\":222:399   */\n      jump\n        /* \"\\xe5\\x86\\x99\\xe9\\xa1\\xb9\\xe7\\x9b\\xae\\xe5\\x9f\\xba\\xe7\\xa1\\x80/\\xe5\\x86\\x99uni\\xe7\\xae\\x97\\xe6\\xb3\\x95\\xe7\\x9f\\xbf\\xe6\\xb1\\xa0.sol\":870:890  address public owner */\n    tag_5:\n      sload(0x04)\n      tag_9\n      swap1\n      sub(shl(0xa0, 0x01), 0x01)\n      and\n      dup2\n      jump\n        /* \"\\xe5\\x86\\x99\\xe9\\xa1\\xb9\\xe7\\x9b\\xae\\xe5\\x9f\\xba\\xe7\\xa1\\x80/\\xe5\\x86\\x99uni\\xe7\\xae\\x97\\xe6\\xb3\\x95\\xe7\\x9f\\xbf\\xe6\\xb1\\xa0.sol\":915:945  uint public max_a_token_reward */\n    tag_6:\n      tag_13\n      sload(0x05)\n      dup2\n      jump\n        /* \"\\xe5\\x86\\x99\\xe9\\xa1\\xb9\\xe7\\x9b\\xae\\xe5\\x9f\\xba\\xe7\\xa1\\x80/\\xe5\\x86\\x99uni\\xe7\\xae\\x97\\xe6\\xb3\\x95\\xe7\\x9f\\xbf\\xe6\\xb1\\xa0.sol\":840:863  uint public stakeSupple */\n    tag_7:\n      tag_13\n      sload(0x03)\n      dup2\n      jump\n        /* \"\\xe5\\x86\\x99\\xe9\\xa1\\xb9\\xe7\\x9b\\xae\\xe5\\x9f\\xba\\xe7\\xa1\\x80/\\xe5\\x86\\x99uni\\xe7\\xae\\x97\\xe6\\xb3\\x95\\xe7\\x9f\\xbf\\xe6\\xb1\\xa0.sol\":779:804  address public staketoken */\n    tag_8:\n      sload(0x01)\n      tag_9\n      swap1\n      sub(shl(0xa0, 0x01), 0x01)\n      and\n      dup2\n      jump\n\n    auxdata: 0xa26469706673582212207122bdbc5cacf627b39a96ba442b9a0830eeda8e2040c51263d3c634a2fbd82864736f6c634300080f0033\n}\n",
				"bytecode": {
					"linkReferences": {},
					"object": "608060405234801561001057600080fd5b5061010d806100206000396000f3fe6080604052348015600f57600080fd5b5060043610605a5760003560e01c80632c46502d14605f57806371ca337d14608e5780638da5cb5b1460a3578063a6643c901460b5578063d942727f1460bd578063dab2997b1460c5575b600080fd5b6002546071906001600160a01b031681565b6040516001600160a01b0390911681526020015b60405180910390f35b609660005481565b6040519081526020016085565b6004546071906001600160a01b031681565b609660055481565b609660035481565b6001546071906001600160a01b03168156fea26469706673582212207122bdbc5cacf627b39a96ba442b9a0830eeda8e2040c51263d3c634a2fbd82864736f6c634300080f0033",
					"opcodes": "PUSH1 0x80 PUSH1 0x40 MSTORE CALLVALUE DUP1 ISZERO PUSH2 0x10 JUMPI PUSH1 0x0 DUP1 REVERT JUMPDEST POP PUSH2 0x10D DUP1 PUSH2 0x20 PUSH1 0x0 CODECOPY PUSH1 0x0 RETURN INVALID PUSH1 0x80 PUSH1 0x40 MSTORE CALLVALUE DUP1 ISZERO PUSH1 0xF JUMPI PUSH1 0x0 DUP1 REVERT JUMPDEST POP PUSH1 0x4 CALLDATASIZE LT PUSH1 0x5A JUMPI PUSH1 0x0 CALLDATALOAD PUSH1 0xE0 SHR DUP1 PUSH4 0x2C46502D EQ PUSH1 0x5F JUMPI DUP1 PUSH4 0x71CA337D EQ PUSH1 0x8E JUMPI DUP1 PUSH4 0x8DA5CB5B EQ PUSH1 0xA3 JUMPI DUP1 PUSH4 0xA6643C90 EQ PUSH1 0xB5 JUMPI DUP1 PUSH4 0xD942727F EQ PUSH1 0xBD JUMPI DUP1 PUSH4 0xDAB2997B EQ PUSH1 0xC5 JUMPI JUMPDEST PUSH1 0x0 DUP1 REVERT JUMPDEST PUSH1 0x2 SLOAD PUSH1 0x71 SWAP1 PUSH1 0x1 PUSH1 0x1 PUSH1 0xA0 SHL SUB AND DUP2 JUMP JUMPDEST PUSH1 0x40 MLOAD PUSH1 0x1 PUSH1 0x1 PUSH1 0xA0 SHL SUB SWAP1 SWAP2 AND DUP2 MSTORE PUSH1 0x20 ADD JUMPDEST PUSH1 0x40 MLOAD DUP1 SWAP2 SUB SWAP1 RETURN JUMPDEST PUSH1 0x96 PUSH1 0x0 SLOAD DUP2 JUMP JUMPDEST PUSH1 0x40 MLOAD SWAP1 DUP2 MSTORE PUSH1 0x20 ADD PUSH1 0x85 JUMP JUMPDEST PUSH1 0x4 SLOAD PUSH1 0x71 SWAP1 PUSH1 0x1 PUSH1 0x1 PUSH1 0xA0 SHL SUB AND DUP2 JUMP JUMPDEST PUSH1 0x96 PUSH1 0x5 SLOAD DUP2 JUMP JUMPDEST PUSH1 0x96 PUSH1 0x3 SLOAD DUP2 JUMP JUMPDEST PUSH1 0x1 SLOAD PUSH1 0x71 SWAP1 PUSH1 0x1 PUSH1 0x1 PUSH1 0xA0 SHL SUB AND DUP2 JUMP INVALID LOG2 PUSH5 0x6970667358 0x22 SLT KECCAK256 PUSH18 0x22BDBC5CACF627B39A96BA442B9A0830EEDA DUP15 KECCAK256 BLOCKHASH 0xC5 SLT PUSH4 0xD3C634A2 0xFB 0xD8 0x28 PUSH5 0x736F6C6343 STOP ADDMOD 0xF STOP CALLER "
				},
				"gasEstimates": {
					"creation": {
						"codeDepositCost": "53800",
						"executionCost": "105",
						"totalCost": "53905"
					},
					"external": {
						"max_a_token_reward()": "2339",
						"owner()": "2348",
						"ratio()": "2295",
						"stakeSupple()": "2361",
						"staketoken()": "2414",
						"totoken()": "2304"
					}
				},
				"methodIdentifiers": {
					"max_a_token_reward()": "a6643c90",
					"owner()": "8da5cb5b",
					"ratio()": "71ca337d",
					"stakeSupple()": "d942727f",
					"staketoken()": "dab2997b",
					"totoken()": "2c46502d"
				}
			},
			"storageLayout": {
				"storage": [
					{
						"astId": 70,
						"contract": "写项目基础/写uni算法矿池.sol:StakeContract",
						"label": "ratio",
						"offset": 0,
						"slot": "0",
						"type": "t_uint256"
					},
					{
						"astId": 72,
						"contract": "写项目基础/写uni算法矿池.sol:StakeContract",
						"label": "staketoken",
						"offset": 0,
						"slot": "1",
						"type": "t_address"
					},
					{
						"astId": 74,
						"contract": "写项目基础/写uni算法矿池.sol:StakeContract",
						"label": "totoken",
						"offset": 0,
						"slot": "2",
						"type": "t_address"
					},
					{
						"astId": 76,
						"contract": "写项目基础/写uni算法矿池.sol:StakeContract",
						"label": "stakeSupple",
						"offset": 0,
						"slot": "3",
						"type": "t_uint256"
					},
					{
						"astId": 78,
						"contract": "写项目基础/写uni算法矿池.sol:StakeContract",
						"label": "owner",
						"offset": 0,
						"slot": "4",
						"type": "t_address"
					},
					{
						"astId": 80,
						"contract": "写项目基础/写uni算法矿池.sol:StakeContract",
						"label": "max_a_token_reward",
						"offset": 0,
						"slot": "5",
						"type": "t_uint256"
					}
				],
				"types": {
					"t_address": {
						"encoding": "inplace",
						"label": "address",
						"numberOfBytes": "20"
					},
					"t_uint256": {
						"encoding": "inplace",
						"label": "uint256",
						"numberOfBytes": "32"
					}
				}
			},
			"userdoc": {
				"kind": "user",
				"methods": {},
				"version": 1
			}
		}
	}
}