{
	"写项目基础/写个蓝图计划.sol": {
		"BluePlan": {
			"abi": [
				{
					"inputs": [
						{
							"internalType": "uint256",
							"name": "_interest",
							"type": "uint256"
						},
						{
							"internalType": "address",
							"name": "_rewardToken",
							"type": "address"
						}
					],
					"stateMutability": "nonpayable",
					"type": "constructor"
				},
				{
					"inputs": [],
					"name": "GetRewardUser",
					"outputs": [
						{
							"internalType": "address[]",
							"name": "",
							"type": "address[]"
						}
					],
					"stateMutability": "view",
					"type": "function"
				},
				{
					"inputs": [
						{
							"internalType": "address[]",
							"name": "_rewarduser",
							"type": "address[]"
						}
					],
					"name": "SetReward",
					"outputs": [
						{
							"internalType": "bool",
							"name": "",
							"type": "bool"
						}
					],
					"stateMutability": "nonpayable",
					"type": "function"
				},
				{
					"inputs": [],
					"name": "SetUserReward",
					"outputs": [
						{
							"internalType": "bool",
							"name": "",
							"type": "bool"
						}
					],
					"stateMutability": "nonpayable",
					"type": "function"
				},
				{
					"inputs": [
						{
							"internalType": "address",
							"name": "",
							"type": "address"
						}
					],
					"name": "User_Map",
					"outputs": [
						{
							"internalType": "uint256",
							"name": "userReward",
							"type": "uint256"
						},
						{
							"internalType": "bool",
							"name": "userState",
							"type": "bool"
						},
						{
							"internalType": "uint256",
							"name": "userRewardStartTime",
							"type": "uint256"
						}
					],
					"stateMutability": "view",
					"type": "function"
				},
				{
					"inputs": [],
					"name": "interest",
					"outputs": [
						{
							"internalType": "uint256",
							"name": "",
							"type": "uint256"
						}
					],
					"stateMutability": "view",
					"type": "function"
				},
				{
					"inputs": [],
					"name": "owner",
					"outputs": [
						{
							"internalType": "address",
							"name": "",
							"type": "address"
						}
					],
					"stateMutability": "view",
					"type": "function"
				},
				{
					"inputs": [],
					"name": "rewardToken",
					"outputs": [
						{
							"internalType": "address",
							"name": "",
							"type": "address"
						}
					],
					"stateMutability": "view",
					"type": "function"
				},
				{
					"inputs": [
						{
							"internalType": "uint256",
							"name": "",
							"type": "uint256"
						}
					],
					"name": "rewarduser",
					"outputs": [
						{
							"internalType": "address",
							"name": "",
							"type": "address"
						}
					],
					"stateMutability": "view",
					"type": "function"
				}
			],
			"devdoc": {
				"kind": "dev",
				"methods": {},
				"version": 1
			},
			"evm": {
				"assembly": "    /* \"\\xe5\\x86\\x99\\xe9\\xa1\\xb9\\xe7\\x9b\\xae\\xe5\\x9f\\xba\\xe7\\xa1\\x80/\\xe5\\x86\\x99\\xe4\\xb8\\xaa\\xe8\\x93\\x9d\\xe5\\x9b\\xbe\\xe8\\xae\\xa1\\xe5\\x88\\x92.sol\":67:1230  contract BluePlan {... */\n  mstore(0x40, 0x80)\n    /* \"\\xe5\\x86\\x99\\xe9\\xa1\\xb9\\xe7\\x9b\\xae\\xe5\\x9f\\xba\\xe7\\xa1\\x80/\\xe5\\x86\\x99\\xe4\\xb8\\xaa\\xe8\\x93\\x9d\\xe5\\x9b\\xbe\\xe8\\xae\\xa1\\xe5\\x88\\x92.sol\":410:566  constructor (uint _interest, address _rewardToken) {... */\n  callvalue\n  dup1\n  iszero\n  tag_1\n  jumpi\n  0x00\n  dup1\n  revert\ntag_1:\n  pop\n  mload(0x40)\n  sub(codesize, bytecodeSize)\n  dup1\n  bytecodeSize\n  dup4\n  codecopy\n  dup2\n  add\n  0x40\n  dup2\n  swap1\n  mstore\n  tag_2\n  swap2\n  tag_3\n  jump\t// in\ntag_2:\n    /* \"\\xe5\\x86\\x99\\xe9\\xa1\\xb9\\xe7\\x9b\\xae\\xe5\\x9f\\xba\\xe7\\xa1\\x80/\\xe5\\x86\\x99\\xe4\\xb8\\xaa\\xe8\\x93\\x9d\\xe5\\x9b\\xbe\\xe8\\xae\\xa1\\xe5\\x88\\x92.sol\":472:480  interest */\n  0x00\n    /* \"\\xe5\\x86\\x99\\xe9\\xa1\\xb9\\xe7\\x9b\\xae\\xe5\\x9f\\xba\\xe7\\xa1\\x80/\\xe5\\x86\\x99\\xe4\\xb8\\xaa\\xe8\\x93\\x9d\\xe5\\x9b\\xbe\\xe8\\xae\\xa1\\xe5\\x88\\x92.sol\":472:492  interest = _interest */\n  swap2\n  swap1\n  swap2\n  sstore\n    /* \"\\xe5\\x86\\x99\\xe9\\xa1\\xb9\\xe7\\x9b\\xae\\xe5\\x9f\\xba\\xe7\\xa1\\x80/\\xe5\\x86\\x99\\xe4\\xb8\\xaa\\xe8\\x93\\x9d\\xe5\\x9b\\xbe\\xe8\\xae\\xa1\\xe5\\x88\\x92.sol\":503:514  rewardToken */\n  0x01\n    /* \"\\xe5\\x86\\x99\\xe9\\xa1\\xb9\\xe7\\x9b\\xae\\xe5\\x9f\\xba\\xe7\\xa1\\x80/\\xe5\\x86\\x99\\xe4\\xb8\\xaa\\xe8\\x93\\x9d\\xe5\\x9b\\xbe\\xe8\\xae\\xa1\\xe5\\x88\\x92.sol\":503:529  rewardToken = _rewardToken */\n  dup1\n  sload\n  sub(shl(0xa0, 0x01), 0x01)\n  swap1\n  swap3\n  and\n  not(sub(shl(0xa0, 0x01), 0x01))\n  swap3\n  dup4\n  and\n  or\n  swap1\n  sstore\n    /* \"\\xe5\\x86\\x99\\xe9\\xa1\\xb9\\xe7\\x9b\\xae\\xe5\\x9f\\xba\\xe7\\xa1\\x80/\\xe5\\x86\\x99\\xe4\\xb8\\xaa\\xe8\\x93\\x9d\\xe5\\x9b\\xbe\\xe8\\xae\\xa1\\xe5\\x88\\x92.sol\":540:545  owner */\n  0x02\n    /* \"\\xe5\\x86\\x99\\xe9\\xa1\\xb9\\xe7\\x9b\\xae\\xe5\\x9f\\xba\\xe7\\xa1\\x80/\\xe5\\x86\\x99\\xe4\\xb8\\xaa\\xe8\\x93\\x9d\\xe5\\x9b\\xbe\\xe8\\xae\\xa1\\xe5\\x88\\x92.sol\":540:558  owner = msg.sender */\n  dup1\n  sload\n  swap1\n  swap2\n  and\n    /* \"\\xe5\\x86\\x99\\xe9\\xa1\\xb9\\xe7\\x9b\\xae\\xe5\\x9f\\xba\\xe7\\xa1\\x80/\\xe5\\x86\\x99\\xe4\\xb8\\xaa\\xe8\\x93\\x9d\\xe5\\x9b\\xbe\\xe8\\xae\\xa1\\xe5\\x88\\x92.sol\":548:558  msg.sender */\n  caller\n    /* \"\\xe5\\x86\\x99\\xe9\\xa1\\xb9\\xe7\\x9b\\xae\\xe5\\x9f\\xba\\xe7\\xa1\\x80/\\xe5\\x86\\x99\\xe4\\xb8\\xaa\\xe8\\x93\\x9d\\xe5\\x9b\\xbe\\xe8\\xae\\xa1\\xe5\\x88\\x92.sol\":540:558  owner = msg.sender */\n  or\n  swap1\n  sstore\n    /* \"\\xe5\\x86\\x99\\xe9\\xa1\\xb9\\xe7\\x9b\\xae\\xe5\\x9f\\xba\\xe7\\xa1\\x80/\\xe5\\x86\\x99\\xe4\\xb8\\xaa\\xe8\\x93\\x9d\\xe5\\x9b\\xbe\\xe8\\xae\\xa1\\xe5\\x88\\x92.sol\":67:1230  contract BluePlan {... */\n  jump(tag_7)\n    /* \"#utility.yul\":14:365   */\ntag_3:\n    /* \"#utility.yul\":93:99   */\n  0x00\n    /* \"#utility.yul\":101:107   */\n  dup1\n    /* \"#utility.yul\":154:156   */\n  0x40\n    /* \"#utility.yul\":142:151   */\n  dup4\n    /* \"#utility.yul\":133:140   */\n  dup6\n    /* \"#utility.yul\":129:152   */\n  sub\n    /* \"#utility.yul\":125:157   */\n  slt\n    /* \"#utility.yul\":122:174   */\n  iszero\n  tag_9\n  jumpi\n    /* \"#utility.yul\":170:171   */\n  0x00\n    /* \"#utility.yul\":167:168   */\n  dup1\n    /* \"#utility.yul\":160:172   */\n  revert\n    /* \"#utility.yul\":122:174   */\ntag_9:\n    /* \"#utility.yul\":193:209   */\n  dup3\n  mload\n    /* \"#utility.yul\":252:254   */\n  0x20\n    /* \"#utility.yul\":237:255   */\n  dup5\n  add\n    /* \"#utility.yul\":231:256   */\n  mload\n    /* \"#utility.yul\":193:209   */\n  swap1\n  swap3\n  pop\n  sub(shl(0xa0, 0x01), 0x01)\n    /* \"#utility.yul\":285:316   */\n  dup2\n  and\n    /* \"#utility.yul\":275:317   */\n  dup2\n  eq\n    /* \"#utility.yul\":265:335   */\n  tag_10\n  jumpi\n    /* \"#utility.yul\":331:332   */\n  0x00\n    /* \"#utility.yul\":328:329   */\n  dup1\n    /* \"#utility.yul\":321:333   */\n  revert\n    /* \"#utility.yul\":265:335   */\ntag_10:\n    /* \"#utility.yul\":354:359   */\n  dup1\n    /* \"#utility.yul\":344:359   */\n  swap2\n  pop\n  pop\n    /* \"#utility.yul\":14:365   */\n  swap3\n  pop\n  swap3\n  swap1\n  pop\n  jump\t// out\ntag_7:\n    /* \"\\xe5\\x86\\x99\\xe9\\xa1\\xb9\\xe7\\x9b\\xae\\xe5\\x9f\\xba\\xe7\\xa1\\x80/\\xe5\\x86\\x99\\xe4\\xb8\\xaa\\xe8\\x93\\x9d\\xe5\\x9b\\xbe\\xe8\\xae\\xa1\\xe5\\x88\\x92.sol\":67:1230  contract BluePlan {... */\n  dataSize(sub_0)\n  dup1\n  dataOffset(sub_0)\n  0x00\n  codecopy\n  0x00\n  return\nstop\n\nsub_0: assembly {\n        /* \"\\xe5\\x86\\x99\\xe9\\xa1\\xb9\\xe7\\x9b\\xae\\xe5\\x9f\\xba\\xe7\\xa1\\x80/\\xe5\\x86\\x99\\xe4\\xb8\\xaa\\xe8\\x93\\x9d\\xe5\\x9b\\xbe\\xe8\\xae\\xa1\\xe5\\x88\\x92.sol\":67:1230  contract BluePlan {... */\n      mstore(0x40, 0x80)\n      callvalue\n      dup1\n      iszero\n      tag_1\n      jumpi\n      0x00\n      dup1\n      revert\n    tag_1:\n      pop\n      jumpi(tag_2, lt(calldatasize, 0x04))\n      shr(0xe0, calldataload(0x00))\n      dup1\n      0x8da5cb5b\n      gt\n      tag_11\n      jumpi\n      dup1\n      0x8da5cb5b\n      eq\n      tag_7\n      jumpi\n      dup1\n      0xc392f766\n      eq\n      tag_8\n      jumpi\n      dup1\n      0xf41185b8\n      eq\n      tag_9\n      jumpi\n      dup1\n      0xf7c618c1\n      eq\n      tag_10\n      jumpi\n      0x00\n      dup1\n      revert\n    tag_11:\n      dup1\n      0x16c3f92c\n      eq\n      tag_3\n      jumpi\n      dup1\n      0x3b7d10c1\n      eq\n      tag_4\n      jumpi\n      dup1\n      0x5a42b7a0\n      eq\n      tag_5\n      jumpi\n      dup1\n      0x8c93ecff\n      eq\n      tag_6\n      jumpi\n    tag_2:\n      0x00\n      dup1\n      revert\n        /* \"\\xe5\\x86\\x99\\xe9\\xa1\\xb9\\xe7\\x9b\\xae\\xe5\\x9f\\xba\\xe7\\xa1\\x80/\\xe5\\x86\\x99\\xe4\\xb8\\xaa\\xe8\\x93\\x9d\\xe5\\x9b\\xbe\\xe8\\xae\\xa1\\xe5\\x88\\x92.sol\":208:235  address[] public rewarduser */\n    tag_3:\n      tag_12\n      tag_13\n      calldatasize\n      0x04\n      tag_14\n      jump\t// in\n    tag_13:\n      tag_15\n      jump\t// in\n    tag_12:\n      mload(0x40)\n      sub(shl(0xa0, 0x01), 0x01)\n        /* \"#utility.yul\":363:395   */\n      swap1\n      swap2\n      and\n        /* \"#utility.yul\":345:396   */\n      dup2\n      mstore\n        /* \"#utility.yul\":333:335   */\n      0x20\n        /* \"#utility.yul\":318:336   */\n      add\n        /* \"\\xe5\\x86\\x99\\xe9\\xa1\\xb9\\xe7\\x9b\\xae\\xe5\\x9f\\xba\\xe7\\xa1\\x80/\\xe5\\x86\\x99\\xe4\\xb8\\xaa\\xe8\\x93\\x9d\\xe5\\x9b\\xbe\\xe8\\xae\\xa1\\xe5\\x88\\x92.sol\":208:235  address[] public rewarduser */\n    tag_16:\n      mload(0x40)\n      dup1\n      swap2\n      sub\n      swap1\n      return\n        /* \"\\xe5\\x86\\x99\\xe9\\xa1\\xb9\\xe7\\x9b\\xae\\xe5\\x9f\\xba\\xe7\\xa1\\x80/\\xe5\\x86\\x99\\xe4\\xb8\\xaa\\xe8\\x93\\x9d\\xe5\\x9b\\xbe\\xe8\\xae\\xa1\\xe5\\x88\\x92.sol\":1022:1219  function SetUserReward() public returns (bool) {... */\n    tag_4:\n      tag_18\n      tag_19\n      jump\t// in\n    tag_18:\n      mload(0x40)\n        /* \"#utility.yul\":572:586   */\n      swap1\n      iszero\n        /* \"#utility.yul\":565:587   */\n      iszero\n        /* \"#utility.yul\":547:588   */\n      dup2\n      mstore\n        /* \"#utility.yul\":535:537   */\n      0x20\n        /* \"#utility.yul\":520:538   */\n      add\n        /* \"\\xe5\\x86\\x99\\xe9\\xa1\\xb9\\xe7\\x9b\\xae\\xe5\\x9f\\xba\\xe7\\xa1\\x80/\\xe5\\x86\\x99\\xe4\\xb8\\xaa\\xe8\\x93\\x9d\\xe5\\x9b\\xbe\\xe8\\xae\\xa1\\xe5\\x88\\x92.sol\":1022:1219  function SetUserReward() public returns (bool) {... */\n      tag_16\n        /* \"#utility.yul\":407:594   */\n      jump\n        /* \"\\xe5\\x86\\x99\\xe9\\xa1\\xb9\\xe7\\x9b\\xae\\xe5\\x9f\\xba\\xe7\\xa1\\x80/\\xe5\\x86\\x99\\xe4\\xb8\\xaa\\xe8\\x93\\x9d\\xe5\\x9b\\xbe\\xe8\\xae\\xa1\\xe5\\x88\\x92.sol\":914:1014  function GetRewardUser() public view returns (address[] memory) {... */\n    tag_5:\n      tag_22\n      tag_23\n      jump\t// in\n    tag_22:\n      mload(0x40)\n      tag_16\n      swap2\n      swap1\n      tag_25\n      jump\t// in\n        /* \"\\xe5\\x86\\x99\\xe9\\xa1\\xb9\\xe7\\x9b\\xae\\xe5\\x9f\\xba\\xe7\\xa1\\x80/\\xe5\\x86\\x99\\xe4\\xb8\\xaa\\xe8\\x93\\x9d\\xe5\\x9b\\xbe\\xe8\\xae\\xa1\\xe5\\x88\\x92.sol\":361:401  mapping(address => User) public User_Map */\n    tag_6:\n      tag_26\n      tag_27\n      calldatasize\n      0x04\n      tag_28\n      jump\t// in\n    tag_27:\n      mstore(0x20, 0x04)\n      0x00\n      swap1\n      dup2\n      mstore\n      0x40\n      swap1\n      keccak256\n      dup1\n      sload\n      0x01\n      dup3\n      add\n      sload\n      0x02\n      swap1\n      swap3\n      add\n      sload\n      swap1\n      swap2\n      0xff\n      and\n      swap1\n      dup4\n      jump\n    tag_26:\n      0x40\n      dup1\n      mload\n        /* \"#utility.yul\":1827:1852   */\n      swap4\n      dup5\n      mstore\n        /* \"#utility.yul\":1895:1909   */\n      swap2\n      iszero\n        /* \"#utility.yul\":1888:1910   */\n      iszero\n        /* \"#utility.yul\":1883:1885   */\n      0x20\n        /* \"#utility.yul\":1868:1886   */\n      dup5\n      add\n        /* \"#utility.yul\":1861:1911   */\n      mstore\n        /* \"#utility.yul\":1927:1945   */\n      swap1\n      dup3\n      add\n        /* \"#utility.yul\":1920:1954   */\n      mstore\n        /* \"#utility.yul\":1815:1817   */\n      0x60\n        /* \"#utility.yul\":1800:1818   */\n      add\n        /* \"\\xe5\\x86\\x99\\xe9\\xa1\\xb9\\xe7\\x9b\\xae\\xe5\\x9f\\xba\\xe7\\xa1\\x80/\\xe5\\x86\\x99\\xe4\\xb8\\xaa\\xe8\\x93\\x9d\\xe5\\x9b\\xbe\\xe8\\xae\\xa1\\xe5\\x88\\x92.sol\":361:401  mapping(address => User) public User_Map */\n      tag_16\n        /* \"#utility.yul\":1631:1960   */\n      jump\n        /* \"\\xe5\\x86\\x99\\xe9\\xa1\\xb9\\xe7\\x9b\\xae\\xe5\\x9f\\xba\\xe7\\xa1\\x80/\\xe5\\x86\\x99\\xe4\\xb8\\xaa\\xe8\\x93\\x9d\\xe5\\x9b\\xbe\\xe8\\xae\\xa1\\xe5\\x88\\x92.sol\":181:201  address public owner */\n    tag_7:\n      sload(0x02)\n      tag_12\n      swap1\n      sub(shl(0xa0, 0x01), 0x01)\n      and\n      dup2\n      jump\n        /* \"\\xe5\\x86\\x99\\xe9\\xa1\\xb9\\xe7\\x9b\\xae\\xe5\\x9f\\xba\\xe7\\xa1\\x80/\\xe5\\x86\\x99\\xe4\\xb8\\xaa\\xe8\\x93\\x9d\\xe5\\x9b\\xbe\\xe8\\xae\\xa1\\xe5\\x88\\x92.sol\":121:141  uint public interest */\n    tag_8:\n      tag_35\n      sload(0x00)\n      dup2\n      jump\n    tag_35:\n      mload(0x40)\n        /* \"#utility.yul\":2111:2136   */\n      swap1\n      dup2\n      mstore\n        /* \"#utility.yul\":2099:2101   */\n      0x20\n        /* \"#utility.yul\":2084:2102   */\n      add\n        /* \"\\xe5\\x86\\x99\\xe9\\xa1\\xb9\\xe7\\x9b\\xae\\xe5\\x9f\\xba\\xe7\\xa1\\x80/\\xe5\\x86\\x99\\xe4\\xb8\\xaa\\xe8\\x93\\x9d\\xe5\\x9b\\xbe\\xe8\\xae\\xa1\\xe5\\x88\\x92.sol\":121:141  uint public interest */\n      tag_16\n        /* \"#utility.yul\":1965:2142   */\n      jump\n        /* \"\\xe5\\x86\\x99\\xe9\\xa1\\xb9\\xe7\\x9b\\xae\\xe5\\x9f\\xba\\xe7\\xa1\\x80/\\xe5\\x86\\x99\\xe4\\xb8\\xaa\\xe8\\x93\\x9d\\xe5\\x9b\\xbe\\xe8\\xae\\xa1\\xe5\\x88\\x92.sol\":574:906  function SetReward(address[] memory _rewarduser) public returns (bool) {... */\n    tag_9:\n      tag_18\n      tag_40\n      calldatasize\n      0x04\n      tag_41\n      jump\t// in\n    tag_40:\n      tag_42\n      jump\t// in\n        /* \"\\xe5\\x86\\x99\\xe9\\xa1\\xb9\\xe7\\x9b\\xae\\xe5\\x9f\\xba\\xe7\\xa1\\x80/\\xe5\\x86\\x99\\xe4\\xb8\\xaa\\xe8\\x93\\x9d\\xe5\\x9b\\xbe\\xe8\\xae\\xa1\\xe5\\x88\\x92.sol\":148:174  address public rewardToken */\n    tag_10:\n      sload(0x01)\n      tag_12\n      swap1\n      sub(shl(0xa0, 0x01), 0x01)\n      and\n      dup2\n      jump\n        /* \"\\xe5\\x86\\x99\\xe9\\xa1\\xb9\\xe7\\x9b\\xae\\xe5\\x9f\\xba\\xe7\\xa1\\x80/\\xe5\\x86\\x99\\xe4\\xb8\\xaa\\xe8\\x93\\x9d\\xe5\\x9b\\xbe\\xe8\\xae\\xa1\\xe5\\x88\\x92.sol\":208:235  address[] public rewarduser */\n    tag_15:\n      0x03\n      dup2\n      dup2\n      sload\n      dup2\n      lt\n      tag_47\n      jumpi\n      0x00\n      dup1\n      revert\n    tag_47:\n      0x00\n      swap2\n      dup3\n      mstore\n      0x20\n      swap1\n      swap2\n      keccak256\n      add\n      sload\n      sub(shl(0xa0, 0x01), 0x01)\n      and\n      swap1\n      pop\n      dup2\n      jump\t// out\n        /* \"\\xe5\\x86\\x99\\xe9\\xa1\\xb9\\xe7\\x9b\\xae\\xe5\\x9f\\xba\\xe7\\xa1\\x80/\\xe5\\x86\\x99\\xe4\\xb8\\xaa\\xe8\\x93\\x9d\\xe5\\x9b\\xbe\\xe8\\xae\\xa1\\xe5\\x88\\x92.sol\":1022:1219  function SetUserReward() public returns (bool) {... */\n    tag_19:\n        /* \"\\xe5\\x86\\x99\\xe9\\xa1\\xb9\\xe7\\x9b\\xae\\xe5\\x9f\\xba\\xe7\\xa1\\x80/\\xe5\\x86\\x99\\xe4\\xb8\\xaa\\xe8\\x93\\x9d\\xe5\\x9b\\xbe\\xe8\\xae\\xa1\\xe5\\x88\\x92.sol\":1063:1067  bool */\n      0x00\n        /* \"\\xe5\\x86\\x99\\xe9\\xa1\\xb9\\xe7\\x9b\\xae\\xe5\\x9f\\xba\\xe7\\xa1\\x80/\\xe5\\x86\\x99\\xe4\\xb8\\xaa\\xe8\\x93\\x9d\\xe5\\x9b\\xbe\\xe8\\xae\\xa1\\xe5\\x88\\x92.sol\":1176:1184  interest */\n      dup1\n      sload\n        /* \"\\xe5\\x86\\x99\\xe9\\xa1\\xb9\\xe7\\x9b\\xae\\xe5\\x9f\\xba\\xe7\\xa1\\x80/\\xe5\\x86\\x99\\xe4\\xb8\\xaa\\xe8\\x93\\x9d\\xe5\\x9b\\xbe\\xe8\\xae\\xa1\\xe5\\x88\\x92.sol\":1142:1152  msg.sender */\n      caller\n        /* \"\\xe5\\x86\\x99\\xe9\\xa1\\xb9\\xe7\\x9b\\xae\\xe5\\x9f\\xba\\xe7\\xa1\\x80/\\xe5\\x86\\x99\\xe4\\xb8\\xaa\\xe8\\x93\\x9d\\xe5\\x9b\\xbe\\xe8\\xae\\xa1\\xe5\\x88\\x92.sol\":1133:1153  User_Map[msg.sender] */\n      dup3\n      mstore\n        /* \"\\xe5\\x86\\x99\\xe9\\xa1\\xb9\\xe7\\x9b\\xae\\xe5\\x9f\\xba\\xe7\\xa1\\x80/\\xe5\\x86\\x99\\xe4\\xb8\\xaa\\xe8\\x93\\x9d\\xe5\\x9b\\xbe\\xe8\\xae\\xa1\\xe5\\x88\\x92.sol\":1133:1141  User_Map */\n      0x04\n        /* \"\\xe5\\x86\\x99\\xe9\\xa1\\xb9\\xe7\\x9b\\xae\\xe5\\x9f\\xba\\xe7\\xa1\\x80/\\xe5\\x86\\x99\\xe4\\xb8\\xaa\\xe8\\x93\\x9d\\xe5\\x9b\\xbe\\xe8\\xae\\xa1\\xe5\\x88\\x92.sol\":1133:1153  User_Map[msg.sender] */\n      0x20\n      mstore\n      0x40\n      dup3\n      keccak256\n        /* \"\\xe5\\x86\\x99\\xe9\\xa1\\xb9\\xe7\\x9b\\xae\\xe5\\x9f\\xba\\xe7\\xa1\\x80/\\xe5\\x86\\x99\\xe4\\xb8\\xaa\\xe8\\x93\\x9d\\xe5\\x9b\\xbe\\xe8\\xae\\xa1\\xe5\\x88\\x92.sol\":1133:1173  User_Map[msg.sender].userRewardStartTime */\n      0x02\n      add\n      sload\n        /* \"\\xe5\\x86\\x99\\xe9\\xa1\\xb9\\xe7\\x9b\\xae\\xe5\\x9f\\xba\\xe7\\xa1\\x80/\\xe5\\x86\\x99\\xe4\\xb8\\xaa\\xe8\\x93\\x9d\\xe5\\x9b\\xbe\\xe8\\xae\\xa1\\xe5\\x88\\x92.sol\":1115:1173  block.timestamp - User_Map[msg.sender].userRewardStartTime */\n      tag_50\n      swap1\n        /* \"\\xe5\\x86\\x99\\xe9\\xa1\\xb9\\xe7\\x9b\\xae\\xe5\\x9f\\xba\\xe7\\xa1\\x80/\\xe5\\x86\\x99\\xe4\\xb8\\xaa\\xe8\\x93\\x9d\\xe5\\x9b\\xbe\\xe8\\xae\\xa1\\xe5\\x88\\x92.sol\":1115:1130  block.timestamp */\n      timestamp\n        /* \"\\xe5\\x86\\x99\\xe9\\xa1\\xb9\\xe7\\x9b\\xae\\xe5\\x9f\\xba\\xe7\\xa1\\x80/\\xe5\\x86\\x99\\xe4\\xb8\\xaa\\xe8\\x93\\x9d\\xe5\\x9b\\xbe\\xe8\\xae\\xa1\\xe5\\x88\\x92.sol\":1115:1173  block.timestamp - User_Map[msg.sender].userRewardStartTime */\n      tag_51\n      jump\t// in\n    tag_50:\n        /* \"\\xe5\\x86\\x99\\xe9\\xa1\\xb9\\xe7\\x9b\\xae\\xe5\\x9f\\xba\\xe7\\xa1\\x80/\\xe5\\x86\\x99\\xe4\\xb8\\xaa\\xe8\\x93\\x9d\\xe5\\x9b\\xbe\\xe8\\xae\\xa1\\xe5\\x88\\x92.sol\":1114:1184  (block.timestamp - User_Map[msg.sender].userRewardStartTime)* interest */\n      tag_52\n      swap2\n      swap1\n      tag_53\n      jump\t// in\n    tag_52:\n        /* \"\\xe5\\x86\\x99\\xe9\\xa1\\xb9\\xe7\\x9b\\xae\\xe5\\x9f\\xba\\xe7\\xa1\\x80/\\xe5\\x86\\x99\\xe4\\xb8\\xaa\\xe8\\x93\\x9d\\xe5\\x9b\\xbe\\xe8\\xae\\xa1\\xe5\\x88\\x92.sol\":1089:1099  msg.sender */\n      caller\n        /* \"\\xe5\\x86\\x99\\xe9\\xa1\\xb9\\xe7\\x9b\\xae\\xe5\\x9f\\xba\\xe7\\xa1\\x80/\\xe5\\x86\\x99\\xe4\\xb8\\xaa\\xe8\\x93\\x9d\\xe5\\x9b\\xbe\\xe8\\xae\\xa1\\xe5\\x88\\x92.sol\":1080:1100  User_Map[msg.sender] */\n      0x00\n      swap1\n      dup2\n      mstore\n        /* \"\\xe5\\x86\\x99\\xe9\\xa1\\xb9\\xe7\\x9b\\xae\\xe5\\x9f\\xba\\xe7\\xa1\\x80/\\xe5\\x86\\x99\\xe4\\xb8\\xaa\\xe8\\x93\\x9d\\xe5\\x9b\\xbe\\xe8\\xae\\xa1\\xe5\\x88\\x92.sol\":1080:1088  User_Map */\n      0x04\n        /* \"\\xe5\\x86\\x99\\xe9\\xa1\\xb9\\xe7\\x9b\\xae\\xe5\\x9f\\xba\\xe7\\xa1\\x80/\\xe5\\x86\\x99\\xe4\\xb8\\xaa\\xe8\\x93\\x9d\\xe5\\x9b\\xbe\\xe8\\xae\\xa1\\xe5\\x88\\x92.sol\":1080:1100  User_Map[msg.sender] */\n      0x20\n      mstore\n      0x40\n      swap1\n      keccak256\n        /* \"\\xe5\\x86\\x99\\xe9\\xa1\\xb9\\xe7\\x9b\\xae\\xe5\\x9f\\xba\\xe7\\xa1\\x80/\\xe5\\x86\\x99\\xe4\\xb8\\xaa\\xe8\\x93\\x9d\\xe5\\x9b\\xbe\\xe8\\xae\\xa1\\xe5\\x88\\x92.sol\":1080:1184  User_Map[msg.sender].userReward = (block.timestamp - User_Map[msg.sender].userRewardStartTime)* interest */\n      sstore\n      pop\n        /* \"\\xe5\\x86\\x99\\xe9\\xa1\\xb9\\xe7\\x9b\\xae\\xe5\\x9f\\xba\\xe7\\xa1\\x80/\\xe5\\x86\\x99\\xe4\\xb8\\xaa\\xe8\\x93\\x9d\\xe5\\x9b\\xbe\\xe8\\xae\\xa1\\xe5\\x88\\x92.sol\":1204:1208  true */\n      0x01\n      swap1\n        /* \"\\xe5\\x86\\x99\\xe9\\xa1\\xb9\\xe7\\x9b\\xae\\xe5\\x9f\\xba\\xe7\\xa1\\x80/\\xe5\\x86\\x99\\xe4\\xb8\\xaa\\xe8\\x93\\x9d\\xe5\\x9b\\xbe\\xe8\\xae\\xa1\\xe5\\x88\\x92.sol\":1022:1219  function SetUserReward() public returns (bool) {... */\n      jump\t// out\n        /* \"\\xe5\\x86\\x99\\xe9\\xa1\\xb9\\xe7\\x9b\\xae\\xe5\\x9f\\xba\\xe7\\xa1\\x80/\\xe5\\x86\\x99\\xe4\\xb8\\xaa\\xe8\\x93\\x9d\\xe5\\x9b\\xbe\\xe8\\xae\\xa1\\xe5\\x88\\x92.sol\":914:1014  function GetRewardUser() public view returns (address[] memory) {... */\n    tag_23:\n        /* \"\\xe5\\x86\\x99\\xe9\\xa1\\xb9\\xe7\\x9b\\xae\\xe5\\x9f\\xba\\xe7\\xa1\\x80/\\xe5\\x86\\x99\\xe4\\xb8\\xaa\\xe8\\x93\\x9d\\xe5\\x9b\\xbe\\xe8\\xae\\xa1\\xe5\\x88\\x92.sol\":960:976  address[] memory */\n      0x60\n        /* \"\\xe5\\x86\\x99\\xe9\\xa1\\xb9\\xe7\\x9b\\xae\\xe5\\x9f\\xba\\xe7\\xa1\\x80/\\xe5\\x86\\x99\\xe4\\xb8\\xaa\\xe8\\x93\\x9d\\xe5\\x9b\\xbe\\xe8\\xae\\xa1\\xe5\\x88\\x92.sol\":996:1006  rewarduser */\n      0x03\n        /* \"\\xe5\\x86\\x99\\xe9\\xa1\\xb9\\xe7\\x9b\\xae\\xe5\\x9f\\xba\\xe7\\xa1\\x80/\\xe5\\x86\\x99\\xe4\\xb8\\xaa\\xe8\\x93\\x9d\\xe5\\x9b\\xbe\\xe8\\xae\\xa1\\xe5\\x88\\x92.sol\":989:1006  return rewarduser */\n      dup1\n      sload\n      dup1\n      0x20\n      mul\n      0x20\n      add\n      mload(0x40)\n      swap1\n      dup2\n      add\n      0x40\n      mstore\n      dup1\n      swap3\n      swap2\n      swap1\n      dup2\n      dup2\n      mstore\n      0x20\n      add\n      dup3\n      dup1\n      sload\n      dup1\n      iszero\n      tag_55\n      jumpi\n      0x20\n      mul\n      dup3\n      add\n      swap2\n      swap1\n      0x00\n      mstore\n      keccak256(0x00, 0x20)\n      swap1\n    tag_56:\n      dup2\n      sload\n      sub(shl(0xa0, 0x01), 0x01)\n      and\n      dup2\n      mstore\n      0x01\n      swap1\n      swap2\n      add\n      swap1\n      0x20\n      add\n      dup1\n      dup4\n      gt\n      tag_56\n      jumpi\n    tag_55:\n      pop\n      pop\n      pop\n      pop\n      pop\n      swap1\n      pop\n        /* \"\\xe5\\x86\\x99\\xe9\\xa1\\xb9\\xe7\\x9b\\xae\\xe5\\x9f\\xba\\xe7\\xa1\\x80/\\xe5\\x86\\x99\\xe4\\xb8\\xaa\\xe8\\x93\\x9d\\xe5\\x9b\\xbe\\xe8\\xae\\xa1\\xe5\\x88\\x92.sol\":914:1014  function GetRewardUser() public view returns (address[] memory) {... */\n      swap1\n      jump\t// out\n        /* \"\\xe5\\x86\\x99\\xe9\\xa1\\xb9\\xe7\\x9b\\xae\\xe5\\x9f\\xba\\xe7\\xa1\\x80/\\xe5\\x86\\x99\\xe4\\xb8\\xaa\\xe8\\x93\\x9d\\xe5\\x9b\\xbe\\xe8\\xae\\xa1\\xe5\\x88\\x92.sol\":574:906  function SetReward(address[] memory _rewarduser) public returns (bool) {... */\n    tag_42:\n        /* \"\\xe5\\x86\\x99\\xe9\\xa1\\xb9\\xe7\\x9b\\xae\\xe5\\x9f\\xba\\xe7\\xa1\\x80/\\xe5\\x86\\x99\\xe4\\xb8\\xaa\\xe8\\x93\\x9d\\xe5\\x9b\\xbe\\xe8\\xae\\xa1\\xe5\\x88\\x92.sol\":656:680  rewarduser = _rewarduser */\n      dup1\n      mload\n        /* \"\\xe5\\x86\\x99\\xe9\\xa1\\xb9\\xe7\\x9b\\xae\\xe5\\x9f\\xba\\xe7\\xa1\\x80/\\xe5\\x86\\x99\\xe4\\xb8\\xaa\\xe8\\x93\\x9d\\xe5\\x9b\\xbe\\xe8\\xae\\xa1\\xe5\\x88\\x92.sol\":639:643  bool */\n      0x00\n      swap1\n        /* \"\\xe5\\x86\\x99\\xe9\\xa1\\xb9\\xe7\\x9b\\xae\\xe5\\x9f\\xba\\xe7\\xa1\\x80/\\xe5\\x86\\x99\\xe4\\xb8\\xaa\\xe8\\x93\\x9d\\xe5\\x9b\\xbe\\xe8\\xae\\xa1\\xe5\\x88\\x92.sol\":656:680  rewarduser = _rewarduser */\n      tag_58\n      swap1\n        /* \"\\xe5\\x86\\x99\\xe9\\xa1\\xb9\\xe7\\x9b\\xae\\xe5\\x9f\\xba\\xe7\\xa1\\x80/\\xe5\\x86\\x99\\xe4\\xb8\\xaa\\xe8\\x93\\x9d\\xe5\\x9b\\xbe\\xe8\\xae\\xa1\\xe5\\x88\\x92.sol\":656:666  rewarduser */\n      0x03\n      swap1\n        /* \"\\xe5\\x86\\x99\\xe9\\xa1\\xb9\\xe7\\x9b\\xae\\xe5\\x9f\\xba\\xe7\\xa1\\x80/\\xe5\\x86\\x99\\xe4\\xb8\\xaa\\xe8\\x93\\x9d\\xe5\\x9b\\xbe\\xe8\\xae\\xa1\\xe5\\x88\\x92.sol\":656:680  rewarduser = _rewarduser */\n      0x20\n      dup6\n      add\n      swap1\n      tag_59\n      jump\t// in\n    tag_58:\n      pop\n        /* \"\\xe5\\x86\\x99\\xe9\\xa1\\xb9\\xe7\\x9b\\xae\\xe5\\x9f\\xba\\xe7\\xa1\\x80/\\xe5\\x86\\x99\\xe4\\xb8\\xaa\\xe8\\x93\\x9d\\xe5\\x9b\\xbe\\xe8\\xae\\xa1\\xe5\\x88\\x92.sol\":696:702  uint i */\n      0x00\n        /* \"\\xe5\\x86\\x99\\xe9\\xa1\\xb9\\xe7\\x9b\\xae\\xe5\\x9f\\xba\\xe7\\xa1\\x80/\\xe5\\x86\\x99\\xe4\\xb8\\xaa\\xe8\\x93\\x9d\\xe5\\x9b\\xbe\\xe8\\xae\\xa1\\xe5\\x88\\x92.sol\":691:876  for (uint i; i < rewarduser.length; i++){... */\n    tag_60:\n        /* \"\\xe5\\x86\\x99\\xe9\\xa1\\xb9\\xe7\\x9b\\xae\\xe5\\x9f\\xba\\xe7\\xa1\\x80/\\xe5\\x86\\x99\\xe4\\xb8\\xaa\\xe8\\x93\\x9d\\xe5\\x9b\\xbe\\xe8\\xae\\xa1\\xe5\\x88\\x92.sol\":708:718  rewarduser */\n      0x03\n        /* \"\\xe5\\x86\\x99\\xe9\\xa1\\xb9\\xe7\\x9b\\xae\\xe5\\x9f\\xba\\xe7\\xa1\\x80/\\xe5\\x86\\x99\\xe4\\xb8\\xaa\\xe8\\x93\\x9d\\xe5\\x9b\\xbe\\xe8\\xae\\xa1\\xe5\\x88\\x92.sol\":708:725  rewarduser.length */\n      sload\n        /* \"\\xe5\\x86\\x99\\xe9\\xa1\\xb9\\xe7\\x9b\\xae\\xe5\\x9f\\xba\\xe7\\xa1\\x80/\\xe5\\x86\\x99\\xe4\\xb8\\xaa\\xe8\\x93\\x9d\\xe5\\x9b\\xbe\\xe8\\xae\\xa1\\xe5\\x88\\x92.sol\":704:725  i < rewarduser.length */\n      dup2\n      lt\n        /* \"\\xe5\\x86\\x99\\xe9\\xa1\\xb9\\xe7\\x9b\\xae\\xe5\\x9f\\xba\\xe7\\xa1\\x80/\\xe5\\x86\\x99\\xe4\\xb8\\xaa\\xe8\\x93\\x9d\\xe5\\x9b\\xbe\\xe8\\xae\\xa1\\xe5\\x88\\x92.sol\":691:876  for (uint i; i < rewarduser.length; i++){... */\n      iszero\n      tag_61\n      jumpi\n        /* \"\\xe5\\x86\\x99\\xe9\\xa1\\xb9\\xe7\\x9b\\xae\\xe5\\x9f\\xba\\xe7\\xa1\\x80/\\xe5\\x86\\x99\\xe4\\xb8\\xaa\\xe8\\x93\\x9d\\xe5\\x9b\\xbe\\xe8\\xae\\xa1\\xe5\\x88\\x92.sol\":783:787  true */\n      0x01\n        /* \"\\xe5\\x86\\x99\\xe9\\xa1\\xb9\\xe7\\x9b\\xae\\xe5\\x9f\\xba\\xe7\\xa1\\x80/\\xe5\\x86\\x99\\xe4\\xb8\\xaa\\xe8\\x93\\x9d\\xe5\\x9b\\xbe\\xe8\\xae\\xa1\\xe5\\x88\\x92.sol\":746:754  User_Map */\n      0x04\n        /* \"\\xe5\\x86\\x99\\xe9\\xa1\\xb9\\xe7\\x9b\\xae\\xe5\\x9f\\xba\\xe7\\xa1\\x80/\\xe5\\x86\\x99\\xe4\\xb8\\xaa\\xe8\\x93\\x9d\\xe5\\x9b\\xbe\\xe8\\xae\\xa1\\xe5\\x88\\x92.sol\":746:770  User_Map[_rewarduser[i]] */\n      0x00\n        /* \"\\xe5\\x86\\x99\\xe9\\xa1\\xb9\\xe7\\x9b\\xae\\xe5\\x9f\\xba\\xe7\\xa1\\x80/\\xe5\\x86\\x99\\xe4\\xb8\\xaa\\xe8\\x93\\x9d\\xe5\\x9b\\xbe\\xe8\\xae\\xa1\\xe5\\x88\\x92.sol\":755:766  _rewarduser */\n      dup6\n        /* \"\\xe5\\x86\\x99\\xe9\\xa1\\xb9\\xe7\\x9b\\xae\\xe5\\x9f\\xba\\xe7\\xa1\\x80/\\xe5\\x86\\x99\\xe4\\xb8\\xaa\\xe8\\x93\\x9d\\xe5\\x9b\\xbe\\xe8\\xae\\xa1\\xe5\\x88\\x92.sol\":767:768  i */\n      dup5\n        /* \"\\xe5\\x86\\x99\\xe9\\xa1\\xb9\\xe7\\x9b\\xae\\xe5\\x9f\\xba\\xe7\\xa1\\x80/\\xe5\\x86\\x99\\xe4\\xb8\\xaa\\xe8\\x93\\x9d\\xe5\\x9b\\xbe\\xe8\\xae\\xa1\\xe5\\x88\\x92.sol\":755:769  _rewarduser[i] */\n      dup2\n      mload\n      dup2\n      lt\n      tag_64\n      jumpi\n      tag_64\n      tag_65\n      jump\t// in\n    tag_64:\n      0x20\n      mul\n      0x20\n      add\n      add\n      mload\n      sub(shl(0xa0, 0x01), 0x01)\n        /* \"\\xe5\\x86\\x99\\xe9\\xa1\\xb9\\xe7\\x9b\\xae\\xe5\\x9f\\xba\\xe7\\xa1\\x80/\\xe5\\x86\\x99\\xe4\\xb8\\xaa\\xe8\\x93\\x9d\\xe5\\x9b\\xbe\\xe8\\xae\\xa1\\xe5\\x88\\x92.sol\":746:770  User_Map[_rewarduser[i]] */\n      and\n      sub(shl(0xa0, 0x01), 0x01)\n      and\n      dup2\n      mstore\n      0x20\n      add\n      swap1\n      dup2\n      mstore\n      0x20\n      add\n      0x00\n      keccak256\n        /* \"\\xe5\\x86\\x99\\xe9\\xa1\\xb9\\xe7\\x9b\\xae\\xe5\\x9f\\xba\\xe7\\xa1\\x80/\\xe5\\x86\\x99\\xe4\\xb8\\xaa\\xe8\\x93\\x9d\\xe5\\x9b\\xbe\\xe8\\xae\\xa1\\xe5\\x88\\x92.sol\":746:780  User_Map[_rewarduser[i]].userState */\n      0x01\n      add\n      0x00\n        /* \"\\xe5\\x86\\x99\\xe9\\xa1\\xb9\\xe7\\x9b\\xae\\xe5\\x9f\\xba\\xe7\\xa1\\x80/\\xe5\\x86\\x99\\xe4\\xb8\\xaa\\xe8\\x93\\x9d\\xe5\\x9b\\xbe\\xe8\\xae\\xa1\\xe5\\x88\\x92.sol\":746:787  User_Map[_rewarduser[i]].userState = true */\n      0x0100\n      exp\n      dup2\n      sload\n      dup2\n      0xff\n      mul\n      not\n      and\n      swap1\n      dup4\n      iszero\n      iszero\n      mul\n      or\n      swap1\n      sstore\n      pop\n        /* \"\\xe5\\x86\\x99\\xe9\\xa1\\xb9\\xe7\\x9b\\xae\\xe5\\x9f\\xba\\xe7\\xa1\\x80/\\xe5\\x86\\x99\\xe4\\xb8\\xaa\\xe8\\x93\\x9d\\xe5\\x9b\\xbe\\xe8\\xae\\xa1\\xe5\\x88\\x92.sol\":849:864  block.timestamp */\n      timestamp\n        /* \"\\xe5\\x86\\x99\\xe9\\xa1\\xb9\\xe7\\x9b\\xae\\xe5\\x9f\\xba\\xe7\\xa1\\x80/\\xe5\\x86\\x99\\xe4\\xb8\\xaa\\xe8\\x93\\x9d\\xe5\\x9b\\xbe\\xe8\\xae\\xa1\\xe5\\x88\\x92.sol\":802:810  User_Map */\n      0x04\n        /* \"\\xe5\\x86\\x99\\xe9\\xa1\\xb9\\xe7\\x9b\\xae\\xe5\\x9f\\xba\\xe7\\xa1\\x80/\\xe5\\x86\\x99\\xe4\\xb8\\xaa\\xe8\\x93\\x9d\\xe5\\x9b\\xbe\\xe8\\xae\\xa1\\xe5\\x88\\x92.sol\":802:826  User_Map[_rewarduser[i]] */\n      0x00\n        /* \"\\xe5\\x86\\x99\\xe9\\xa1\\xb9\\xe7\\x9b\\xae\\xe5\\x9f\\xba\\xe7\\xa1\\x80/\\xe5\\x86\\x99\\xe4\\xb8\\xaa\\xe8\\x93\\x9d\\xe5\\x9b\\xbe\\xe8\\xae\\xa1\\xe5\\x88\\x92.sol\":811:822  _rewarduser */\n      dup6\n        /* \"\\xe5\\x86\\x99\\xe9\\xa1\\xb9\\xe7\\x9b\\xae\\xe5\\x9f\\xba\\xe7\\xa1\\x80/\\xe5\\x86\\x99\\xe4\\xb8\\xaa\\xe8\\x93\\x9d\\xe5\\x9b\\xbe\\xe8\\xae\\xa1\\xe5\\x88\\x92.sol\":823:824  i */\n      dup5\n        /* \"\\xe5\\x86\\x99\\xe9\\xa1\\xb9\\xe7\\x9b\\xae\\xe5\\x9f\\xba\\xe7\\xa1\\x80/\\xe5\\x86\\x99\\xe4\\xb8\\xaa\\xe8\\x93\\x9d\\xe5\\x9b\\xbe\\xe8\\xae\\xa1\\xe5\\x88\\x92.sol\":811:825  _rewarduser[i] */\n      dup2\n      mload\n      dup2\n      lt\n      tag_67\n      jumpi\n      tag_67\n      tag_65\n      jump\t// in\n    tag_67:\n      0x20\n      mul\n      0x20\n      add\n      add\n      mload\n      sub(shl(0xa0, 0x01), 0x01)\n        /* \"\\xe5\\x86\\x99\\xe9\\xa1\\xb9\\xe7\\x9b\\xae\\xe5\\x9f\\xba\\xe7\\xa1\\x80/\\xe5\\x86\\x99\\xe4\\xb8\\xaa\\xe8\\x93\\x9d\\xe5\\x9b\\xbe\\xe8\\xae\\xa1\\xe5\\x88\\x92.sol\":802:826  User_Map[_rewarduser[i]] */\n      and\n      sub(shl(0xa0, 0x01), 0x01)\n      and\n      dup2\n      mstore\n      0x20\n      add\n      swap1\n      dup2\n      mstore\n      0x20\n      add\n      0x00\n      keccak256\n        /* \"\\xe5\\x86\\x99\\xe9\\xa1\\xb9\\xe7\\x9b\\xae\\xe5\\x9f\\xba\\xe7\\xa1\\x80/\\xe5\\x86\\x99\\xe4\\xb8\\xaa\\xe8\\x93\\x9d\\xe5\\x9b\\xbe\\xe8\\xae\\xa1\\xe5\\x88\\x92.sol\":802:846  User_Map[_rewarduser[i]].userRewardStartTime */\n      0x02\n      add\n        /* \"\\xe5\\x86\\x99\\xe9\\xa1\\xb9\\xe7\\x9b\\xae\\xe5\\x9f\\xba\\xe7\\xa1\\x80/\\xe5\\x86\\x99\\xe4\\xb8\\xaa\\xe8\\x93\\x9d\\xe5\\x9b\\xbe\\xe8\\xae\\xa1\\xe5\\x88\\x92.sol\":802:864  User_Map[_rewarduser[i]].userRewardStartTime = block.timestamp */\n      dup2\n      swap1\n      sstore\n      pop\n        /* \"\\xe5\\x86\\x99\\xe9\\xa1\\xb9\\xe7\\x9b\\xae\\xe5\\x9f\\xba\\xe7\\xa1\\x80/\\xe5\\x86\\x99\\xe4\\xb8\\xaa\\xe8\\x93\\x9d\\xe5\\x9b\\xbe\\xe8\\xae\\xa1\\xe5\\x88\\x92.sol\":727:730  i++ */\n      dup1\n      dup1\n      tag_68\n      swap1\n      tag_69\n      jump\t// in\n    tag_68:\n      swap2\n      pop\n      pop\n        /* \"\\xe5\\x86\\x99\\xe9\\xa1\\xb9\\xe7\\x9b\\xae\\xe5\\x9f\\xba\\xe7\\xa1\\x80/\\xe5\\x86\\x99\\xe4\\xb8\\xaa\\xe8\\x93\\x9d\\xe5\\x9b\\xbe\\xe8\\xae\\xa1\\xe5\\x88\\x92.sol\":691:876  for (uint i; i < rewarduser.length; i++){... */\n      jump(tag_60)\n    tag_61:\n      pop\n        /* \"\\xe5\\x86\\x99\\xe9\\xa1\\xb9\\xe7\\x9b\\xae\\xe5\\x9f\\xba\\xe7\\xa1\\x80/\\xe5\\x86\\x99\\xe4\\xb8\\xaa\\xe8\\x93\\x9d\\xe5\\x9b\\xbe\\xe8\\xae\\xa1\\xe5\\x88\\x92.sol\":893:897  true */\n      0x01\n      swap3\n        /* \"\\xe5\\x86\\x99\\xe9\\xa1\\xb9\\xe7\\x9b\\xae\\xe5\\x9f\\xba\\xe7\\xa1\\x80/\\xe5\\x86\\x99\\xe4\\xb8\\xaa\\xe8\\x93\\x9d\\xe5\\x9b\\xbe\\xe8\\xae\\xa1\\xe5\\x88\\x92.sol\":574:906  function SetReward(address[] memory _rewarduser) public returns (bool) {... */\n      swap2\n      pop\n      pop\n      jump\t// out\n    tag_59:\n      dup3\n      dup1\n      sload\n      dup3\n      dup3\n      sstore\n      swap1\n      0x00\n      mstore\n      keccak256(0x00, 0x20)\n      swap1\n      dup2\n      add\n      swap3\n      dup3\n      iszero\n      tag_72\n      jumpi\n      swap2\n      0x20\n      mul\n      dup3\n      add\n    tag_71:\n      dup3\n      dup2\n      gt\n      iszero\n      tag_72\n      jumpi\n      dup3\n      mload\n      dup3\n      sload\n      not(sub(shl(0xa0, 0x01), 0x01))\n      and\n      sub(shl(0xa0, 0x01), 0x01)\n      swap1\n      swap2\n      and\n      or\n      dup3\n      sstore\n      0x20\n      swap1\n      swap3\n      add\n      swap2\n      0x01\n      swap1\n      swap2\n      add\n      swap1\n      jump(tag_71)\n    tag_72:\n      pop\n      tag_73\n      swap3\n      swap2\n      pop\n      tag_74\n      jump\t// in\n    tag_73:\n      pop\n      swap1\n      jump\t// out\n    tag_74:\n    tag_75:\n      dup1\n      dup3\n      gt\n      iszero\n      tag_73\n      jumpi\n      0x00\n      dup2\n      sstore\n      0x01\n      add\n      jump(tag_75)\n        /* \"#utility.yul\":14:194   */\n    tag_14:\n        /* \"#utility.yul\":73:79   */\n      0x00\n        /* \"#utility.yul\":126:128   */\n      0x20\n        /* \"#utility.yul\":114:123   */\n      dup3\n        /* \"#utility.yul\":105:112   */\n      dup5\n        /* \"#utility.yul\":101:124   */\n      sub\n        /* \"#utility.yul\":97:129   */\n      slt\n        /* \"#utility.yul\":94:146   */\n      iszero\n      tag_82\n      jumpi\n        /* \"#utility.yul\":142:143   */\n      0x00\n        /* \"#utility.yul\":139:140   */\n      dup1\n        /* \"#utility.yul\":132:144   */\n      revert\n        /* \"#utility.yul\":94:146   */\n    tag_82:\n      pop\n        /* \"#utility.yul\":165:188   */\n      calldataload\n      swap2\n        /* \"#utility.yul\":14:194   */\n      swap1\n      pop\n      jump\t// out\n        /* \"#utility.yul\":599:1257   */\n    tag_25:\n        /* \"#utility.yul\":770:772   */\n      0x20\n        /* \"#utility.yul\":822:843   */\n      dup1\n      dup3\n      mstore\n        /* \"#utility.yul\":892:905   */\n      dup3\n      mload\n        /* \"#utility.yul\":795:813   */\n      dup3\n      dup3\n      add\n        /* \"#utility.yul\":914:936   */\n      dup2\n      swap1\n      mstore\n        /* \"#utility.yul\":741:745   */\n      0x00\n      swap2\n        /* \"#utility.yul\":770:772   */\n      swap1\n        /* \"#utility.yul\":993:1008   */\n      dup5\n      dup3\n      add\n      swap1\n        /* \"#utility.yul\":967:969   */\n      0x40\n        /* \"#utility.yul\":952:970   */\n      dup6\n      add\n      swap1\n        /* \"#utility.yul\":741:745   */\n      dup5\n        /* \"#utility.yul\":1036:1231   */\n    tag_86:\n        /* \"#utility.yul\":1050:1056   */\n      dup2\n        /* \"#utility.yul\":1047:1048   */\n      dup2\n        /* \"#utility.yul\":1044:1057   */\n      lt\n        /* \"#utility.yul\":1036:1231   */\n      iszero\n      tag_88\n      jumpi\n        /* \"#utility.yul\":1115:1128   */\n      dup4\n      mload\n      sub(shl(0xa0, 0x01), 0x01)\n        /* \"#utility.yul\":1111:1150   */\n      and\n        /* \"#utility.yul\":1099:1151   */\n      dup4\n      mstore\n        /* \"#utility.yul\":1206:1221   */\n      swap3\n      dup5\n      add\n      swap3\n        /* \"#utility.yul\":1171:1183   */\n      swap2\n      dup5\n      add\n      swap2\n        /* \"#utility.yul\":1147:1148   */\n      0x01\n        /* \"#utility.yul\":1065:1074   */\n      add\n        /* \"#utility.yul\":1036:1231   */\n      jump(tag_86)\n    tag_88:\n      pop\n        /* \"#utility.yul\":1248:1251   */\n      swap1\n      swap7\n        /* \"#utility.yul\":599:1257   */\n      swap6\n      pop\n      pop\n      pop\n      pop\n      pop\n      pop\n      jump\t// out\n        /* \"#utility.yul\":1262:1435   */\n    tag_77:\n        /* \"#utility.yul\":1330:1350   */\n      dup1\n      calldataload\n      sub(shl(0xa0, 0x01), 0x01)\n        /* \"#utility.yul\":1379:1410   */\n      dup2\n      and\n        /* \"#utility.yul\":1369:1411   */\n      dup2\n      eq\n        /* \"#utility.yul\":1359:1429   */\n      tag_90\n      jumpi\n        /* \"#utility.yul\":1425:1426   */\n      0x00\n        /* \"#utility.yul\":1422:1423   */\n      dup1\n        /* \"#utility.yul\":1415:1427   */\n      revert\n        /* \"#utility.yul\":1359:1429   */\n    tag_90:\n        /* \"#utility.yul\":1262:1435   */\n      swap2\n      swap1\n      pop\n      jump\t// out\n        /* \"#utility.yul\":1440:1626   */\n    tag_28:\n        /* \"#utility.yul\":1499:1505   */\n      0x00\n        /* \"#utility.yul\":1552:1554   */\n      0x20\n        /* \"#utility.yul\":1540:1549   */\n      dup3\n        /* \"#utility.yul\":1531:1538   */\n      dup5\n        /* \"#utility.yul\":1527:1550   */\n      sub\n        /* \"#utility.yul\":1523:1555   */\n      slt\n        /* \"#utility.yul\":1520:1572   */\n      iszero\n      tag_92\n      jumpi\n        /* \"#utility.yul\":1568:1569   */\n      0x00\n        /* \"#utility.yul\":1565:1566   */\n      dup1\n        /* \"#utility.yul\":1558:1570   */\n      revert\n        /* \"#utility.yul\":1520:1572   */\n    tag_92:\n        /* \"#utility.yul\":1591:1620   */\n      tag_93\n        /* \"#utility.yul\":1610:1619   */\n      dup3\n        /* \"#utility.yul\":1591:1620   */\n      tag_77\n      jump\t// in\n    tag_93:\n        /* \"#utility.yul\":1581:1620   */\n      swap4\n        /* \"#utility.yul\":1440:1626   */\n      swap3\n      pop\n      pop\n      pop\n      jump\t// out\n        /* \"#utility.yul\":2147:2274   */\n    tag_78:\n        /* \"#utility.yul\":2208:2218   */\n      0x4e487b71\n        /* \"#utility.yul\":2203:2206   */\n      0xe0\n        /* \"#utility.yul\":2199:2219   */\n      shl\n        /* \"#utility.yul\":2196:2197   */\n      0x00\n        /* \"#utility.yul\":2189:2220   */\n      mstore\n        /* \"#utility.yul\":2239:2243   */\n      0x41\n        /* \"#utility.yul\":2236:2237   */\n      0x04\n        /* \"#utility.yul\":2229:2244   */\n      mstore\n        /* \"#utility.yul\":2263:2267   */\n      0x24\n        /* \"#utility.yul\":2260:2261   */\n      0x00\n        /* \"#utility.yul\":2253:2268   */\n      revert\n        /* \"#utility.yul\":2279:3400   */\n    tag_41:\n        /* \"#utility.yul\":2363:2369   */\n      0x00\n        /* \"#utility.yul\":2394:2396   */\n      0x20\n        /* \"#utility.yul\":2437:2439   */\n      dup1\n        /* \"#utility.yul\":2425:2434   */\n      dup4\n        /* \"#utility.yul\":2416:2423   */\n      dup6\n        /* \"#utility.yul\":2412:2435   */\n      sub\n        /* \"#utility.yul\":2408:2440   */\n      slt\n        /* \"#utility.yul\":2405:2457   */\n      iszero\n      tag_98\n      jumpi\n        /* \"#utility.yul\":2453:2454   */\n      0x00\n        /* \"#utility.yul\":2450:2451   */\n      dup1\n        /* \"#utility.yul\":2443:2455   */\n      revert\n        /* \"#utility.yul\":2405:2457   */\n    tag_98:\n        /* \"#utility.yul\":2493:2502   */\n      dup3\n        /* \"#utility.yul\":2480:2503   */\n      calldataload\n        /* \"#utility.yul\":2522:2540   */\n      0xffffffffffffffff\n        /* \"#utility.yul\":2563:2565   */\n      dup1\n        /* \"#utility.yul\":2555:2561   */\n      dup3\n        /* \"#utility.yul\":2552:2566   */\n      gt\n        /* \"#utility.yul\":2549:2583   */\n      iszero\n      tag_99\n      jumpi\n        /* \"#utility.yul\":2579:2580   */\n      0x00\n        /* \"#utility.yul\":2576:2577   */\n      dup1\n        /* \"#utility.yul\":2569:2581   */\n      revert\n        /* \"#utility.yul\":2549:2583   */\n    tag_99:\n        /* \"#utility.yul\":2617:2623   */\n      dup2\n        /* \"#utility.yul\":2606:2615   */\n      dup6\n        /* \"#utility.yul\":2602:2624   */\n      add\n        /* \"#utility.yul\":2592:2624   */\n      swap2\n      pop\n        /* \"#utility.yul\":2662:2669   */\n      dup6\n        /* \"#utility.yul\":2655:2659   */\n      0x1f\n        /* \"#utility.yul\":2651:2653   */\n      dup4\n        /* \"#utility.yul\":2647:2660   */\n      add\n        /* \"#utility.yul\":2643:2670   */\n      slt\n        /* \"#utility.yul\":2633:2688   */\n      tag_100\n      jumpi\n        /* \"#utility.yul\":2684:2685   */\n      0x00\n        /* \"#utility.yul\":2681:2682   */\n      dup1\n        /* \"#utility.yul\":2674:2686   */\n      revert\n        /* \"#utility.yul\":2633:2688   */\n    tag_100:\n        /* \"#utility.yul\":2720:2722   */\n      dup2\n        /* \"#utility.yul\":2707:2723   */\n      calldataload\n        /* \"#utility.yul\":2742:2744   */\n      dup2\n        /* \"#utility.yul\":2738:2740   */\n      dup2\n        /* \"#utility.yul\":2735:2745   */\n      gt\n        /* \"#utility.yul\":2732:2768   */\n      iszero\n      tag_102\n      jumpi\n        /* \"#utility.yul\":2748:2766   */\n      tag_102\n      tag_78\n      jump\t// in\n    tag_102:\n        /* \"#utility.yul\":2794:2796   */\n      dup1\n        /* \"#utility.yul\":2791:2792   */\n      0x05\n        /* \"#utility.yul\":2787:2797   */\n      shl\n        /* \"#utility.yul\":2826:2828   */\n      0x40\n        /* \"#utility.yul\":2820:2829   */\n      mload\n        /* \"#utility.yul\":2889:2891   */\n      0x1f\n        /* \"#utility.yul\":2885:2892   */\n      not\n        /* \"#utility.yul\":2880:2882   */\n      0x3f\n        /* \"#utility.yul\":2876:2878   */\n      dup4\n        /* \"#utility.yul\":2872:2883   */\n      add\n        /* \"#utility.yul\":2868:2893   */\n      and\n        /* \"#utility.yul\":2860:2866   */\n      dup2\n        /* \"#utility.yul\":2856:2894   */\n      add\n        /* \"#utility.yul\":2944:2950   */\n      dup2\n        /* \"#utility.yul\":2932:2942   */\n      dup2\n        /* \"#utility.yul\":2929:2951   */\n      lt\n        /* \"#utility.yul\":2924:2926   */\n      dup6\n        /* \"#utility.yul\":2912:2922   */\n      dup3\n        /* \"#utility.yul\":2909:2927   */\n      gt\n        /* \"#utility.yul\":2906:2952   */\n      or\n        /* \"#utility.yul\":2903:2975   */\n      iszero\n      tag_104\n      jumpi\n        /* \"#utility.yul\":2955:2973   */\n      tag_104\n      tag_78\n      jump\t// in\n    tag_104:\n        /* \"#utility.yul\":2991:2993   */\n      0x40\n        /* \"#utility.yul\":2984:3006   */\n      mstore\n        /* \"#utility.yul\":3041:3059   */\n      swap2\n      dup3\n      mstore\n        /* \"#utility.yul\":3075:3090   */\n      dup5\n      dup3\n      add\n      swap3\n      pop\n        /* \"#utility.yul\":3117:3128   */\n      dup4\n      dup2\n      add\n        /* \"#utility.yul\":3113:3133   */\n      dup6\n      add\n      swap2\n        /* \"#utility.yul\":3145:3164   */\n      dup9\n      dup4\n      gt\n        /* \"#utility.yul\":3142:3181   */\n      iszero\n      tag_105\n      jumpi\n        /* \"#utility.yul\":3177:3178   */\n      0x00\n        /* \"#utility.yul\":3174:3175   */\n      dup1\n        /* \"#utility.yul\":3167:3179   */\n      revert\n        /* \"#utility.yul\":3142:3181   */\n    tag_105:\n        /* \"#utility.yul\":3201:3212   */\n      swap4\n      dup6\n      add\n      swap4\n        /* \"#utility.yul\":3221:3369   */\n    tag_106:\n        /* \"#utility.yul\":3237:3243   */\n      dup3\n        /* \"#utility.yul\":3232:3235   */\n      dup6\n        /* \"#utility.yul\":3229:3244   */\n      lt\n        /* \"#utility.yul\":3221:3369   */\n      iszero\n      tag_108\n      jumpi\n        /* \"#utility.yul\":3303:3326   */\n      tag_109\n        /* \"#utility.yul\":3322:3325   */\n      dup6\n        /* \"#utility.yul\":3303:3326   */\n      tag_77\n      jump\t// in\n    tag_109:\n        /* \"#utility.yul\":3291:3327   */\n      dup5\n      mstore\n        /* \"#utility.yul\":3254:3266   */\n      swap4\n      dup6\n      add\n      swap4\n        /* \"#utility.yul\":3347:3359   */\n      swap3\n      dup6\n      add\n      swap3\n        /* \"#utility.yul\":3221:3369   */\n      jump(tag_106)\n    tag_108:\n        /* \"#utility.yul\":3388:3394   */\n      swap9\n        /* \"#utility.yul\":2279:3400   */\n      swap8\n      pop\n      pop\n      pop\n      pop\n      pop\n      pop\n      pop\n      pop\n      jump\t// out\n        /* \"#utility.yul\":3405:3532   */\n    tag_79:\n        /* \"#utility.yul\":3466:3476   */\n      0x4e487b71\n        /* \"#utility.yul\":3461:3464   */\n      0xe0\n        /* \"#utility.yul\":3457:3477   */\n      shl\n        /* \"#utility.yul\":3454:3455   */\n      0x00\n        /* \"#utility.yul\":3447:3478   */\n      mstore\n        /* \"#utility.yul\":3497:3501   */\n      0x11\n        /* \"#utility.yul\":3494:3495   */\n      0x04\n        /* \"#utility.yul\":3487:3502   */\n      mstore\n        /* \"#utility.yul\":3521:3525   */\n      0x24\n        /* \"#utility.yul\":3518:3519   */\n      0x00\n        /* \"#utility.yul\":3511:3526   */\n      revert\n        /* \"#utility.yul\":3537:3662   */\n    tag_51:\n        /* \"#utility.yul\":3577:3581   */\n      0x00\n        /* \"#utility.yul\":3605:3606   */\n      dup3\n        /* \"#utility.yul\":3602:3603   */\n      dup3\n        /* \"#utility.yul\":3599:3607   */\n      lt\n        /* \"#utility.yul\":3596:3630   */\n      iszero\n      tag_113\n      jumpi\n        /* \"#utility.yul\":3610:3628   */\n      tag_113\n      tag_79\n      jump\t// in\n    tag_113:\n      pop\n        /* \"#utility.yul\":3647:3656   */\n      sub\n      swap1\n        /* \"#utility.yul\":3537:3662   */\n      jump\t// out\n        /* \"#utility.yul\":3667:3835   */\n    tag_53:\n        /* \"#utility.yul\":3707:3714   */\n      0x00\n        /* \"#utility.yul\":3773:3774   */\n      dup2\n        /* \"#utility.yul\":3769:3770   */\n      0x00\n        /* \"#utility.yul\":3765:3771   */\n      not\n        /* \"#utility.yul\":3761:3775   */\n      div\n        /* \"#utility.yul\":3758:3759   */\n      dup4\n        /* \"#utility.yul\":3755:3776   */\n      gt\n        /* \"#utility.yul\":3750:3751   */\n      dup3\n        /* \"#utility.yul\":3743:3752   */\n      iszero\n        /* \"#utility.yul\":3736:3753   */\n      iszero\n        /* \"#utility.yul\":3732:3777   */\n      and\n        /* \"#utility.yul\":3729:3800   */\n      iszero\n      tag_116\n      jumpi\n        /* \"#utility.yul\":3780:3798   */\n      tag_116\n      tag_79\n      jump\t// in\n    tag_116:\n      pop\n        /* \"#utility.yul\":3820:3829   */\n      mul\n      swap1\n        /* \"#utility.yul\":3667:3835   */\n      jump\t// out\n        /* \"#utility.yul\":3840:3967   */\n    tag_65:\n        /* \"#utility.yul\":3901:3911   */\n      0x4e487b71\n        /* \"#utility.yul\":3896:3899   */\n      0xe0\n        /* \"#utility.yul\":3892:3912   */\n      shl\n        /* \"#utility.yul\":3889:3890   */\n      0x00\n        /* \"#utility.yul\":3882:3913   */\n      mstore\n        /* \"#utility.yul\":3932:3936   */\n      0x32\n        /* \"#utility.yul\":3929:3930   */\n      0x04\n        /* \"#utility.yul\":3922:3937   */\n      mstore\n        /* \"#utility.yul\":3956:3960   */\n      0x24\n        /* \"#utility.yul\":3953:3954   */\n      0x00\n        /* \"#utility.yul\":3946:3961   */\n      revert\n        /* \"#utility.yul\":3972:4107   */\n    tag_69:\n        /* \"#utility.yul\":4011:4014   */\n      0x00\n        /* \"#utility.yul\":4032:4049   */\n      0x01\n      dup3\n      add\n        /* \"#utility.yul\":4029:4072   */\n      tag_120\n      jumpi\n        /* \"#utility.yul\":4052:4070   */\n      tag_120\n      tag_79\n      jump\t// in\n    tag_120:\n      pop\n        /* \"#utility.yul\":4099:4100   */\n      0x01\n        /* \"#utility.yul\":4088:4101   */\n      add\n      swap1\n        /* \"#utility.yul\":3972:4107   */\n      jump\t// out\n\n    auxdata: 0xa264697066735822122051a5e9f885fc634ee04fa130f0488f52fbf43761ca737fdd643a2098e3ee4a8464736f6c634300080f0033\n}\n",
				"bytecode": {
					"linkReferences": {},
					"object": "608060405234801561001057600080fd5b5060405161068a38038061068a83398101604081905261002f91610063565b600091909155600180546001600160a01b039092166001600160a01b031992831617905560028054909116331790556100a0565b6000806040838503121561007657600080fd5b825160208401519092506001600160a01b038116811461009557600080fd5b809150509250929050565b6105db806100af6000396000f3fe608060405234801561001057600080fd5b50600436106100885760003560e01c80638da5cb5b1161005b5780638da5cb5b14610137578063c392f7661461014a578063f41185b814610161578063f7c618c11461017457600080fd5b806316c3f92c1461008d5780633b7d10c1146100bd5780635a42b7a0146100d55780638c93ecff146100ea575b600080fd5b6100a061009b3660046103ab565b610187565b6040516001600160a01b0390911681526020015b60405180910390f35b6100c56101b1565b60405190151581526020016100b4565b6100dd6101ef565b6040516100b491906103c4565b61011c6100f836600461042d565b600460205260009081526040902080546001820154600290920154909160ff169083565b604080519384529115156020840152908201526060016100b4565b6002546100a0906001600160a01b031681565b61015360005481565b6040519081526020016100b4565b6100c561016f366004610465565b610251565b6001546100a0906001600160a01b031681565b6003818154811061019757600080fd5b6000918252602090912001546001600160a01b0316905081565b60008054338252600460205260408220600201546101cf9042610540565b6101d99190610557565b3360009081526004602052604090205550600190565b6060600380548060200260200160405190810160405280929190818152602001828054801561024757602002820191906000526020600020905b81546001600160a01b03168152600190910190602001808311610229575b5050505050905090565b8051600090610267906003906020850190610331565b5060005b6003548110156103285760016004600085848151811061028d5761028d610576565b60200260200101516001600160a01b03166001600160a01b0316815260200190815260200160002060010160006101000a81548160ff02191690831515021790555042600460008584815181106102e6576102e6610576565b60200260200101516001600160a01b03166001600160a01b031681526020019081526020016000206002018190555080806103209061058c565b91505061026b565b50600192915050565b828054828255906000526020600020908101928215610386579160200282015b8281111561038657825182546001600160a01b0319166001600160a01b03909116178255602090920191600190910190610351565b50610392929150610396565b5090565b5b808211156103925760008155600101610397565b6000602082840312156103bd57600080fd5b5035919050565b6020808252825182820181905260009190848201906040850190845b818110156104055783516001600160a01b0316835292840192918401916001016103e0565b50909695505050505050565b80356001600160a01b038116811461042857600080fd5b919050565b60006020828403121561043f57600080fd5b61044882610411565b9392505050565b634e487b7160e01b600052604160045260246000fd5b6000602080838503121561047857600080fd5b823567ffffffffffffffff8082111561049057600080fd5b818501915085601f8301126104a457600080fd5b8135818111156104b6576104b661044f565b8060051b604051601f19603f830116810181811085821117156104db576104db61044f565b6040529182528482019250838101850191888311156104f957600080fd5b938501935b8285101561051e5761050f85610411565b845293850193928501926104fe565b98975050505050505050565b634e487b7160e01b600052601160045260246000fd5b6000828210156105525761055261052a565b500390565b60008160001904831182151516156105715761057161052a565b500290565b634e487b7160e01b600052603260045260246000fd5b60006001820161059e5761059e61052a565b506001019056fea264697066735822122051a5e9f885fc634ee04fa130f0488f52fbf43761ca737fdd643a2098e3ee4a8464736f6c634300080f0033",
					"opcodes": "PUSH1 0x80 PUSH1 0x40 MSTORE CALLVALUE DUP1 ISZERO PUSH2 0x10 JUMPI PUSH1 0x0 DUP1 REVERT JUMPDEST POP PUSH1 0x40 MLOAD PUSH2 0x68A CODESIZE SUB DUP1 PUSH2 0x68A DUP4 CODECOPY DUP2 ADD PUSH1 0x40 DUP2 SWAP1 MSTORE PUSH2 0x2F SWAP2 PUSH2 0x63 JUMP JUMPDEST PUSH1 0x0 SWAP2 SWAP1 SWAP2 SSTORE PUSH1 0x1 DUP1 SLOAD PUSH1 0x1 PUSH1 0x1 PUSH1 0xA0 SHL SUB SWAP1 SWAP3 AND PUSH1 0x1 PUSH1 0x1 PUSH1 0xA0 SHL SUB NOT SWAP3 DUP4 AND OR SWAP1 SSTORE PUSH1 0x2 DUP1 SLOAD SWAP1 SWAP2 AND CALLER OR SWAP1 SSTORE PUSH2 0xA0 JUMP JUMPDEST PUSH1 0x0 DUP1 PUSH1 0x40 DUP4 DUP6 SUB SLT ISZERO PUSH2 0x76 JUMPI PUSH1 0x0 DUP1 REVERT JUMPDEST DUP3 MLOAD PUSH1 0x20 DUP5 ADD MLOAD SWAP1 SWAP3 POP PUSH1 0x1 PUSH1 0x1 PUSH1 0xA0 SHL SUB DUP2 AND DUP2 EQ PUSH2 0x95 JUMPI PUSH1 0x0 DUP1 REVERT JUMPDEST DUP1 SWAP2 POP POP SWAP3 POP SWAP3 SWAP1 POP JUMP JUMPDEST PUSH2 0x5DB DUP1 PUSH2 0xAF PUSH1 0x0 CODECOPY PUSH1 0x0 RETURN INVALID PUSH1 0x80 PUSH1 0x40 MSTORE CALLVALUE DUP1 ISZERO PUSH2 0x10 JUMPI PUSH1 0x0 DUP1 REVERT JUMPDEST POP PUSH1 0x4 CALLDATASIZE LT PUSH2 0x88 JUMPI PUSH1 0x0 CALLDATALOAD PUSH1 0xE0 SHR DUP1 PUSH4 0x8DA5CB5B GT PUSH2 0x5B JUMPI DUP1 PUSH4 0x8DA5CB5B EQ PUSH2 0x137 JUMPI DUP1 PUSH4 0xC392F766 EQ PUSH2 0x14A JUMPI DUP1 PUSH4 0xF41185B8 EQ PUSH2 0x161 JUMPI DUP1 PUSH4 0xF7C618C1 EQ PUSH2 0x174 JUMPI PUSH1 0x0 DUP1 REVERT JUMPDEST DUP1 PUSH4 0x16C3F92C EQ PUSH2 0x8D JUMPI DUP1 PUSH4 0x3B7D10C1 EQ PUSH2 0xBD JUMPI DUP1 PUSH4 0x5A42B7A0 EQ PUSH2 0xD5 JUMPI DUP1 PUSH4 0x8C93ECFF EQ PUSH2 0xEA JUMPI JUMPDEST PUSH1 0x0 DUP1 REVERT JUMPDEST PUSH2 0xA0 PUSH2 0x9B CALLDATASIZE PUSH1 0x4 PUSH2 0x3AB JUMP JUMPDEST PUSH2 0x187 JUMP JUMPDEST PUSH1 0x40 MLOAD PUSH1 0x1 PUSH1 0x1 PUSH1 0xA0 SHL SUB SWAP1 SWAP2 AND DUP2 MSTORE PUSH1 0x20 ADD JUMPDEST PUSH1 0x40 MLOAD DUP1 SWAP2 SUB SWAP1 RETURN JUMPDEST PUSH2 0xC5 PUSH2 0x1B1 JUMP JUMPDEST PUSH1 0x40 MLOAD SWAP1 ISZERO ISZERO DUP2 MSTORE PUSH1 0x20 ADD PUSH2 0xB4 JUMP JUMPDEST PUSH2 0xDD PUSH2 0x1EF JUMP JUMPDEST PUSH1 0x40 MLOAD PUSH2 0xB4 SWAP2 SWAP1 PUSH2 0x3C4 JUMP JUMPDEST PUSH2 0x11C PUSH2 0xF8 CALLDATASIZE PUSH1 0x4 PUSH2 0x42D JUMP JUMPDEST PUSH1 0x4 PUSH1 0x20 MSTORE PUSH1 0x0 SWAP1 DUP2 MSTORE PUSH1 0x40 SWAP1 KECCAK256 DUP1 SLOAD PUSH1 0x1 DUP3 ADD SLOAD PUSH1 0x2 SWAP1 SWAP3 ADD SLOAD SWAP1 SWAP2 PUSH1 0xFF AND SWAP1 DUP4 JUMP JUMPDEST PUSH1 0x40 DUP1 MLOAD SWAP4 DUP5 MSTORE SWAP2 ISZERO ISZERO PUSH1 0x20 DUP5 ADD MSTORE SWAP1 DUP3 ADD MSTORE PUSH1 0x60 ADD PUSH2 0xB4 JUMP JUMPDEST PUSH1 0x2 SLOAD PUSH2 0xA0 SWAP1 PUSH1 0x1 PUSH1 0x1 PUSH1 0xA0 SHL SUB AND DUP2 JUMP JUMPDEST PUSH2 0x153 PUSH1 0x0 SLOAD DUP2 JUMP JUMPDEST PUSH1 0x40 MLOAD SWAP1 DUP2 MSTORE PUSH1 0x20 ADD PUSH2 0xB4 JUMP JUMPDEST PUSH2 0xC5 PUSH2 0x16F CALLDATASIZE PUSH1 0x4 PUSH2 0x465 JUMP JUMPDEST PUSH2 0x251 JUMP JUMPDEST PUSH1 0x1 SLOAD PUSH2 0xA0 SWAP1 PUSH1 0x1 PUSH1 0x1 PUSH1 0xA0 SHL SUB AND DUP2 JUMP JUMPDEST PUSH1 0x3 DUP2 DUP2 SLOAD DUP2 LT PUSH2 0x197 JUMPI PUSH1 0x0 DUP1 REVERT JUMPDEST PUSH1 0x0 SWAP2 DUP3 MSTORE PUSH1 0x20 SWAP1 SWAP2 KECCAK256 ADD SLOAD PUSH1 0x1 PUSH1 0x1 PUSH1 0xA0 SHL SUB AND SWAP1 POP DUP2 JUMP JUMPDEST PUSH1 0x0 DUP1 SLOAD CALLER DUP3 MSTORE PUSH1 0x4 PUSH1 0x20 MSTORE PUSH1 0x40 DUP3 KECCAK256 PUSH1 0x2 ADD SLOAD PUSH2 0x1CF SWAP1 TIMESTAMP PUSH2 0x540 JUMP JUMPDEST PUSH2 0x1D9 SWAP2 SWAP1 PUSH2 0x557 JUMP JUMPDEST CALLER PUSH1 0x0 SWAP1 DUP2 MSTORE PUSH1 0x4 PUSH1 0x20 MSTORE PUSH1 0x40 SWAP1 KECCAK256 SSTORE POP PUSH1 0x1 SWAP1 JUMP JUMPDEST PUSH1 0x60 PUSH1 0x3 DUP1 SLOAD DUP1 PUSH1 0x20 MUL PUSH1 0x20 ADD PUSH1 0x40 MLOAD SWAP1 DUP2 ADD PUSH1 0x40 MSTORE DUP1 SWAP3 SWAP2 SWAP1 DUP2 DUP2 MSTORE PUSH1 0x20 ADD DUP3 DUP1 SLOAD DUP1 ISZERO PUSH2 0x247 JUMPI PUSH1 0x20 MUL DUP3 ADD SWAP2 SWAP1 PUSH1 0x0 MSTORE PUSH1 0x20 PUSH1 0x0 KECCAK256 SWAP1 JUMPDEST DUP2 SLOAD PUSH1 0x1 PUSH1 0x1 PUSH1 0xA0 SHL SUB AND DUP2 MSTORE PUSH1 0x1 SWAP1 SWAP2 ADD SWAP1 PUSH1 0x20 ADD DUP1 DUP4 GT PUSH2 0x229 JUMPI JUMPDEST POP POP POP POP POP SWAP1 POP SWAP1 JUMP JUMPDEST DUP1 MLOAD PUSH1 0x0 SWAP1 PUSH2 0x267 SWAP1 PUSH1 0x3 SWAP1 PUSH1 0x20 DUP6 ADD SWAP1 PUSH2 0x331 JUMP JUMPDEST POP PUSH1 0x0 JUMPDEST PUSH1 0x3 SLOAD DUP2 LT ISZERO PUSH2 0x328 JUMPI PUSH1 0x1 PUSH1 0x4 PUSH1 0x0 DUP6 DUP5 DUP2 MLOAD DUP2 LT PUSH2 0x28D JUMPI PUSH2 0x28D PUSH2 0x576 JUMP JUMPDEST PUSH1 0x20 MUL PUSH1 0x20 ADD ADD MLOAD PUSH1 0x1 PUSH1 0x1 PUSH1 0xA0 SHL SUB AND PUSH1 0x1 PUSH1 0x1 PUSH1 0xA0 SHL SUB AND DUP2 MSTORE PUSH1 0x20 ADD SWAP1 DUP2 MSTORE PUSH1 0x20 ADD PUSH1 0x0 KECCAK256 PUSH1 0x1 ADD PUSH1 0x0 PUSH2 0x100 EXP DUP2 SLOAD DUP2 PUSH1 0xFF MUL NOT AND SWAP1 DUP4 ISZERO ISZERO MUL OR SWAP1 SSTORE POP TIMESTAMP PUSH1 0x4 PUSH1 0x0 DUP6 DUP5 DUP2 MLOAD DUP2 LT PUSH2 0x2E6 JUMPI PUSH2 0x2E6 PUSH2 0x576 JUMP JUMPDEST PUSH1 0x20 MUL PUSH1 0x20 ADD ADD MLOAD PUSH1 0x1 PUSH1 0x1 PUSH1 0xA0 SHL SUB AND PUSH1 0x1 PUSH1 0x1 PUSH1 0xA0 SHL SUB AND DUP2 MSTORE PUSH1 0x20 ADD SWAP1 DUP2 MSTORE PUSH1 0x20 ADD PUSH1 0x0 KECCAK256 PUSH1 0x2 ADD DUP2 SWAP1 SSTORE POP DUP1 DUP1 PUSH2 0x320 SWAP1 PUSH2 0x58C JUMP JUMPDEST SWAP2 POP POP PUSH2 0x26B JUMP JUMPDEST POP PUSH1 0x1 SWAP3 SWAP2 POP POP JUMP JUMPDEST DUP3 DUP1 SLOAD DUP3 DUP3 SSTORE SWAP1 PUSH1 0x0 MSTORE PUSH1 0x20 PUSH1 0x0 KECCAK256 SWAP1 DUP2 ADD SWAP3 DUP3 ISZERO PUSH2 0x386 JUMPI SWAP2 PUSH1 0x20 MUL DUP3 ADD JUMPDEST DUP3 DUP2 GT ISZERO PUSH2 0x386 JUMPI DUP3 MLOAD DUP3 SLOAD PUSH1 0x1 PUSH1 0x1 PUSH1 0xA0 SHL SUB NOT AND PUSH1 0x1 PUSH1 0x1 PUSH1 0xA0 SHL SUB SWAP1 SWAP2 AND OR DUP3 SSTORE PUSH1 0x20 SWAP1 SWAP3 ADD SWAP2 PUSH1 0x1 SWAP1 SWAP2 ADD SWAP1 PUSH2 0x351 JUMP JUMPDEST POP PUSH2 0x392 SWAP3 SWAP2 POP PUSH2 0x396 JUMP JUMPDEST POP SWAP1 JUMP JUMPDEST JUMPDEST DUP1 DUP3 GT ISZERO PUSH2 0x392 JUMPI PUSH1 0x0 DUP2 SSTORE PUSH1 0x1 ADD PUSH2 0x397 JUMP JUMPDEST PUSH1 0x0 PUSH1 0x20 DUP3 DUP5 SUB SLT ISZERO PUSH2 0x3BD JUMPI PUSH1 0x0 DUP1 REVERT JUMPDEST POP CALLDATALOAD SWAP2 SWAP1 POP JUMP JUMPDEST PUSH1 0x20 DUP1 DUP3 MSTORE DUP3 MLOAD DUP3 DUP3 ADD DUP2 SWAP1 MSTORE PUSH1 0x0 SWAP2 SWAP1 DUP5 DUP3 ADD SWAP1 PUSH1 0x40 DUP6 ADD SWAP1 DUP5 JUMPDEST DUP2 DUP2 LT ISZERO PUSH2 0x405 JUMPI DUP4 MLOAD PUSH1 0x1 PUSH1 0x1 PUSH1 0xA0 SHL SUB AND DUP4 MSTORE SWAP3 DUP5 ADD SWAP3 SWAP2 DUP5 ADD SWAP2 PUSH1 0x1 ADD PUSH2 0x3E0 JUMP JUMPDEST POP SWAP1 SWAP7 SWAP6 POP POP POP POP POP POP JUMP JUMPDEST DUP1 CALLDATALOAD PUSH1 0x1 PUSH1 0x1 PUSH1 0xA0 SHL SUB DUP2 AND DUP2 EQ PUSH2 0x428 JUMPI PUSH1 0x0 DUP1 REVERT JUMPDEST SWAP2 SWAP1 POP JUMP JUMPDEST PUSH1 0x0 PUSH1 0x20 DUP3 DUP5 SUB SLT ISZERO PUSH2 0x43F JUMPI PUSH1 0x0 DUP1 REVERT JUMPDEST PUSH2 0x448 DUP3 PUSH2 0x411 JUMP JUMPDEST SWAP4 SWAP3 POP POP POP JUMP JUMPDEST PUSH4 0x4E487B71 PUSH1 0xE0 SHL PUSH1 0x0 MSTORE PUSH1 0x41 PUSH1 0x4 MSTORE PUSH1 0x24 PUSH1 0x0 REVERT JUMPDEST PUSH1 0x0 PUSH1 0x20 DUP1 DUP4 DUP6 SUB SLT ISZERO PUSH2 0x478 JUMPI PUSH1 0x0 DUP1 REVERT JUMPDEST DUP3 CALLDATALOAD PUSH8 0xFFFFFFFFFFFFFFFF DUP1 DUP3 GT ISZERO PUSH2 0x490 JUMPI PUSH1 0x0 DUP1 REVERT JUMPDEST DUP2 DUP6 ADD SWAP2 POP DUP6 PUSH1 0x1F DUP4 ADD SLT PUSH2 0x4A4 JUMPI PUSH1 0x0 DUP1 REVERT JUMPDEST DUP2 CALLDATALOAD DUP2 DUP2 GT ISZERO PUSH2 0x4B6 JUMPI PUSH2 0x4B6 PUSH2 0x44F JUMP JUMPDEST DUP1 PUSH1 0x5 SHL PUSH1 0x40 MLOAD PUSH1 0x1F NOT PUSH1 0x3F DUP4 ADD AND DUP2 ADD DUP2 DUP2 LT DUP6 DUP3 GT OR ISZERO PUSH2 0x4DB JUMPI PUSH2 0x4DB PUSH2 0x44F JUMP JUMPDEST PUSH1 0x40 MSTORE SWAP2 DUP3 MSTORE DUP5 DUP3 ADD SWAP3 POP DUP4 DUP2 ADD DUP6 ADD SWAP2 DUP9 DUP4 GT ISZERO PUSH2 0x4F9 JUMPI PUSH1 0x0 DUP1 REVERT JUMPDEST SWAP4 DUP6 ADD SWAP4 JUMPDEST DUP3 DUP6 LT ISZERO PUSH2 0x51E JUMPI PUSH2 0x50F DUP6 PUSH2 0x411 JUMP JUMPDEST DUP5 MSTORE SWAP4 DUP6 ADD SWAP4 SWAP3 DUP6 ADD SWAP3 PUSH2 0x4FE JUMP JUMPDEST SWAP9 SWAP8 POP POP POP POP POP POP POP POP JUMP JUMPDEST PUSH4 0x4E487B71 PUSH1 0xE0 SHL PUSH1 0x0 MSTORE PUSH1 0x11 PUSH1 0x4 MSTORE PUSH1 0x24 PUSH1 0x0 REVERT JUMPDEST PUSH1 0x0 DUP3 DUP3 LT ISZERO PUSH2 0x552 JUMPI PUSH2 0x552 PUSH2 0x52A JUMP JUMPDEST POP SUB SWAP1 JUMP JUMPDEST PUSH1 0x0 DUP2 PUSH1 0x0 NOT DIV DUP4 GT DUP3 ISZERO ISZERO AND ISZERO PUSH2 0x571 JUMPI PUSH2 0x571 PUSH2 0x52A JUMP JUMPDEST POP MUL SWAP1 JUMP JUMPDEST PUSH4 0x4E487B71 PUSH1 0xE0 SHL PUSH1 0x0 MSTORE PUSH1 0x32 PUSH1 0x4 MSTORE PUSH1 0x24 PUSH1 0x0 REVERT JUMPDEST PUSH1 0x0 PUSH1 0x1 DUP3 ADD PUSH2 0x59E JUMPI PUSH2 0x59E PUSH2 0x52A JUMP JUMPDEST POP PUSH1 0x1 ADD SWAP1 JUMP INVALID LOG2 PUSH5 0x6970667358 0x22 SLT KECCAK256 MLOAD 0xA5 0xE9 0xF8 DUP6 0xFC PUSH4 0x4EE04FA1 ADDRESS CREATE BASEFEE DUP16 MSTORE 0xFB DELEGATECALL CALLDATACOPY PUSH2 0xCA73 PUSH32 0xDD643A2098E3EE4A8464736F6C634300080F0033000000000000000000000000 "
				},
				"gasEstimates": {
					"creation": {
						"codeDepositCost": "299800",
						"executionCost": "infinite",
						"totalCost": "infinite"
					},
					"external": {
						"GetRewardUser()": "infinite",
						"SetReward(address[])": "infinite",
						"SetUserReward()": "26844",
						"User_Map(address)": "6867",
						"interest()": "2317",
						"owner()": "2326",
						"rewardToken()": "2392",
						"rewarduser(uint256)": "4604"
					}
				},
				"methodIdentifiers": {
					"GetRewardUser()": "5a42b7a0",
					"SetReward(address[])": "f41185b8",
					"SetUserReward()": "3b7d10c1",
					"User_Map(address)": "8c93ecff",
					"interest()": "c392f766",
					"owner()": "8da5cb5b",
					"rewardToken()": "f7c618c1",
					"rewarduser(uint256)": "16c3f92c"
				}
			},
			"storageLayout": {
				"storage": [
					{
						"astId": 3,
						"contract": "写项目基础/写个蓝图计划.sol:BluePlan",
						"label": "interest",
						"offset": 0,
						"slot": "0",
						"type": "t_uint256"
					},
					{
						"astId": 5,
						"contract": "写项目基础/写个蓝图计划.sol:BluePlan",
						"label": "rewardToken",
						"offset": 0,
						"slot": "1",
						"type": "t_address"
					},
					{
						"astId": 7,
						"contract": "写项目基础/写个蓝图计划.sol:BluePlan",
						"label": "owner",
						"offset": 0,
						"slot": "2",
						"type": "t_address"
					},
					{
						"astId": 10,
						"contract": "写项目基础/写个蓝图计划.sol:BluePlan",
						"label": "rewarduser",
						"offset": 0,
						"slot": "3",
						"type": "t_array(t_address)dyn_storage"
					},
					{
						"astId": 22,
						"contract": "写项目基础/写个蓝图计划.sol:BluePlan",
						"label": "User_Map",
						"offset": 0,
						"slot": "4",
						"type": "t_mapping(t_address,t_struct(User)17_storage)"
					}
				],
				"types": {
					"t_address": {
						"encoding": "inplace",
						"label": "address",
						"numberOfBytes": "20"
					},
					"t_array(t_address)dyn_storage": {
						"base": "t_address",
						"encoding": "dynamic_array",
						"label": "address[]",
						"numberOfBytes": "32"
					},
					"t_bool": {
						"encoding": "inplace",
						"label": "bool",
						"numberOfBytes": "1"
					},
					"t_mapping(t_address,t_struct(User)17_storage)": {
						"encoding": "mapping",
						"key": "t_address",
						"label": "mapping(address => struct BluePlan.User)",
						"numberOfBytes": "32",
						"value": "t_struct(User)17_storage"
					},
					"t_struct(User)17_storage": {
						"encoding": "inplace",
						"label": "struct BluePlan.User",
						"members": [
							{
								"astId": 12,
								"contract": "写项目基础/写个蓝图计划.sol:BluePlan",
								"label": "userReward",
								"offset": 0,
								"slot": "0",
								"type": "t_uint256"
							},
							{
								"astId": 14,
								"contract": "写项目基础/写个蓝图计划.sol:BluePlan",
								"label": "userState",
								"offset": 0,
								"slot": "1",
								"type": "t_bool"
							},
							{
								"astId": 16,
								"contract": "写项目基础/写个蓝图计划.sol:BluePlan",
								"label": "userRewardStartTime",
								"offset": 0,
								"slot": "2",
								"type": "t_uint256"
							}
						],
						"numberOfBytes": "96"
					},
					"t_uint256": {
						"encoding": "inplace",
						"label": "uint256",
						"numberOfBytes": "32"
					}
				}
			},
			"userdoc": {
				"kind": "user",
				"methods": {},
				"version": 1
			}
		}
	}
}