{
	"写项目基础/空投合约.sol": {
		"Airdrop": {
			"abi": [
				{
					"inputs": [
						{
							"internalType": "address",
							"name": "_token",
							"type": "address"
						}
					],
					"stateMutability": "nonpayable",
					"type": "constructor"
				},
				{
					"inputs": [],
					"name": "AirdropToken",
					"outputs": [
						{
							"internalType": "address",
							"name": "",
							"type": "address"
						}
					],
					"stateMutability": "view",
					"type": "function"
				},
				{
					"inputs": [],
					"name": "_getSendTokenNumber",
					"outputs": [
						{
							"internalType": "uint256",
							"name": "",
							"type": "uint256"
						}
					],
					"stateMutability": "view",
					"type": "function"
				},
				{
					"inputs": [],
					"name": "getSendTokenNumber",
					"outputs": [
						{
							"internalType": "uint256",
							"name": "",
							"type": "uint256"
						}
					],
					"stateMutability": "nonpayable",
					"type": "function"
				},
				{
					"inputs": [],
					"name": "owner",
					"outputs": [
						{
							"internalType": "address",
							"name": "",
							"type": "address"
						}
					],
					"stateMutability": "view",
					"type": "function"
				},
				{
					"inputs": [
						{
							"internalType": "address[]",
							"name": "_userAddress",
							"type": "address[]"
						},
						{
							"internalType": "uint256[]",
							"name": "_sendTokenNumber",
							"type": "uint256[]"
						}
					],
					"name": "sendAirdrop",
					"outputs": [
						{
							"internalType": "uint256",
							"name": "",
							"type": "uint256"
						}
					],
					"stateMutability": "nonpayable",
					"type": "function"
				}
			],
			"devdoc": {
				"kind": "dev",
				"methods": {},
				"version": 1
			},
			"evm": {
				"assembly": "    /* \"\\xe5\\x86\\x99\\xe9\\xa1\\xb9\\xe7\\x9b\\xae\\xe5\\x9f\\xba\\xe7\\xa1\\x80/\\xe7\\xa9\\xba\\xe6\\x8a\\x95\\xe5\\x90\\x88\\xe7\\xba\\xa6.sol\":352:1575  contract Airdrop {... */\n  mstore(0x40, 0x80)\n    /* \"\\xe5\\x86\\x99\\xe9\\xa1\\xb9\\xe7\\x9b\\xae\\xe5\\x9f\\xba\\xe7\\xa1\\x80/\\xe7\\xa9\\xba\\xe6\\x8a\\x95\\xe5\\x90\\x88\\xe7\\xba\\xa6.sol\":477:633  constructor (address _token) {... */\n  callvalue\n  dup1\n  iszero\n  tag_1\n  jumpi\n  0x00\n  dup1\n  revert\ntag_1:\n  pop\n  mload(0x40)\n  sub(codesize, bytecodeSize)\n  dup1\n  bytecodeSize\n  dup4\n  codecopy\n  dup2\n  add\n  0x40\n  dup2\n  swap1\n  mstore\n  tag_2\n  swap2\n  tag_3\n  jump\t// in\ntag_2:\n  sub(shl(0xa0, 0x01), 0x01)\n    /* \"\\xe5\\x86\\x99\\xe9\\xa1\\xb9\\xe7\\x9b\\xae\\xe5\\x9f\\xba\\xe7\\xa1\\x80/\\xe7\\xa9\\xba\\xe6\\x8a\\x95\\xe5\\x90\\x88\\xe7\\xba\\xa6.sol\":525:545  _token != address(0) */\n  dup2\n  and\n    /* \"\\xe5\\x86\\x99\\xe9\\xa1\\xb9\\xe7\\x9b\\xae\\xe5\\x9f\\xba\\xe7\\xa1\\x80/\\xe7\\xa9\\xba\\xe6\\x8a\\x95\\xe5\\x90\\x88\\xe7\\xba\\xa6.sol\":517:564  require(_token != address(0),\"NOT,S 0xADDRESS\") */\n  tag_6\n  jumpi\n  mload(0x40)\n  shl(0xe5, 0x461bcd)\n  dup2\n  mstore\n    /* \"#utility.yul\":511:513   */\n  0x20\n    /* \"\\xe5\\x86\\x99\\xe9\\xa1\\xb9\\xe7\\x9b\\xae\\xe5\\x9f\\xba\\xe7\\xa1\\x80/\\xe7\\xa9\\xba\\xe6\\x8a\\x95\\xe5\\x90\\x88\\xe7\\xba\\xa6.sol\":517:564  require(_token != address(0),\"NOT,S 0xADDRESS\") */\n  0x04\n  dup3\n  add\n    /* \"#utility.yul\":493:514   */\n  mstore\n    /* \"#utility.yul\":550:552   */\n  0x0f\n    /* \"#utility.yul\":530:548   */\n  0x24\n  dup3\n  add\n    /* \"#utility.yul\":523:553   */\n  mstore\n  shl(0x88, 0x4e4f542c5320307841444452455353)\n    /* \"#utility.yul\":569:587   */\n  0x44\n  dup3\n  add\n    /* \"#utility.yul\":562:607   */\n  mstore\n    /* \"#utility.yul\":624:642   */\n  0x64\n  add\n    /* \"\\xe5\\x86\\x99\\xe9\\xa1\\xb9\\xe7\\x9b\\xae\\xe5\\x9f\\xba\\xe7\\xa1\\x80/\\xe7\\xa9\\xba\\xe6\\x8a\\x95\\xe5\\x90\\x88\\xe7\\xba\\xa6.sol\":517:564  require(_token != address(0),\"NOT,S 0xADDRESS\") */\n  mload(0x40)\n  dup1\n  swap2\n  sub\n  swap1\n  revert\ntag_6:\n    /* \"\\xe5\\x86\\x99\\xe9\\xa1\\xb9\\xe7\\x9b\\xae\\xe5\\x9f\\xba\\xe7\\xa1\\x80/\\xe7\\xa9\\xba\\xe6\\x8a\\x95\\xe5\\x90\\x88\\xe7\\xba\\xa6.sol\":575:587  AirdropToken */\n  0x00\n    /* \"\\xe5\\x86\\x99\\xe9\\xa1\\xb9\\xe7\\x9b\\xae\\xe5\\x9f\\xba\\xe7\\xa1\\x80/\\xe7\\xa9\\xba\\xe6\\x8a\\x95\\xe5\\x90\\x88\\xe7\\xba\\xa6.sol\":575:596  AirdropToken = _token */\n  dup1\n  sload\n  sub(shl(0xa0, 0x01), 0x01)\n  swap1\n  swap3\n  and\n  not(sub(shl(0xa0, 0x01), 0x01))\n  swap3\n  dup4\n  and\n  or\n  swap1\n  sstore\n  0x01\n    /* \"\\xe5\\x86\\x99\\xe9\\xa1\\xb9\\xe7\\x9b\\xae\\xe5\\x9f\\xba\\xe7\\xa1\\x80/\\xe7\\xa9\\xba\\xe6\\x8a\\x95\\xe5\\x90\\x88\\xe7\\xba\\xa6.sol\":607:625  owner = msg.sender */\n  dup1\n  sload\n  swap1\n  swap2\n  and\n    /* \"\\xe5\\x86\\x99\\xe9\\xa1\\xb9\\xe7\\x9b\\xae\\xe5\\x9f\\xba\\xe7\\xa1\\x80/\\xe7\\xa9\\xba\\xe6\\x8a\\x95\\xe5\\x90\\x88\\xe7\\xba\\xa6.sol\":615:625  msg.sender */\n  caller\n    /* \"\\xe5\\x86\\x99\\xe9\\xa1\\xb9\\xe7\\x9b\\xae\\xe5\\x9f\\xba\\xe7\\xa1\\x80/\\xe7\\xa9\\xba\\xe6\\x8a\\x95\\xe5\\x90\\x88\\xe7\\xba\\xa6.sol\":607:625  owner = msg.sender */\n  or\n  swap1\n  sstore\n    /* \"\\xe5\\x86\\x99\\xe9\\xa1\\xb9\\xe7\\x9b\\xae\\xe5\\x9f\\xba\\xe7\\xa1\\x80/\\xe7\\xa9\\xba\\xe6\\x8a\\x95\\xe5\\x90\\x88\\xe7\\xba\\xa6.sol\":352:1575  contract Airdrop {... */\n  jump(tag_10)\n    /* \"#utility.yul\":14:304   */\ntag_3:\n    /* \"#utility.yul\":84:90   */\n  0x00\n    /* \"#utility.yul\":137:139   */\n  0x20\n    /* \"#utility.yul\":125:134   */\n  dup3\n    /* \"#utility.yul\":116:123   */\n  dup5\n    /* \"#utility.yul\":112:135   */\n  sub\n    /* \"#utility.yul\":108:140   */\n  slt\n    /* \"#utility.yul\":105:157   */\n  iszero\n  tag_12\n  jumpi\n    /* \"#utility.yul\":153:154   */\n  0x00\n    /* \"#utility.yul\":150:151   */\n  dup1\n    /* \"#utility.yul\":143:155   */\n  revert\n    /* \"#utility.yul\":105:157   */\ntag_12:\n    /* \"#utility.yul\":179:195   */\n  dup2\n  mload\n  sub(shl(0xa0, 0x01), 0x01)\n    /* \"#utility.yul\":224:255   */\n  dup2\n  and\n    /* \"#utility.yul\":214:256   */\n  dup2\n  eq\n    /* \"#utility.yul\":204:274   */\n  tag_13\n  jumpi\n    /* \"#utility.yul\":270:271   */\n  0x00\n    /* \"#utility.yul\":267:268   */\n  dup1\n    /* \"#utility.yul\":260:272   */\n  revert\n    /* \"#utility.yul\":204:274   */\ntag_13:\n    /* \"#utility.yul\":293:298   */\n  swap4\n    /* \"#utility.yul\":14:304   */\n  swap3\n  pop\n  pop\n  pop\n  jump\t// out\n    /* \"#utility.yul\":309:648   */\ntag_10:\n    /* \"\\xe5\\x86\\x99\\xe9\\xa1\\xb9\\xe7\\x9b\\xae\\xe5\\x9f\\xba\\xe7\\xa1\\x80/\\xe7\\xa9\\xba\\xe6\\x8a\\x95\\xe5\\x90\\x88\\xe7\\xba\\xa6.sol\":352:1575  contract Airdrop {... */\n  dataSize(sub_0)\n  dup1\n  dataOffset(sub_0)\n  0x00\n  codecopy\n  0x00\n  return\nstop\n\nsub_0: assembly {\n        /* \"\\xe5\\x86\\x99\\xe9\\xa1\\xb9\\xe7\\x9b\\xae\\xe5\\x9f\\xba\\xe7\\xa1\\x80/\\xe7\\xa9\\xba\\xe6\\x8a\\x95\\xe5\\x90\\x88\\xe7\\xba\\xa6.sol\":352:1575  contract Airdrop {... */\n      mstore(0x40, 0x80)\n      callvalue\n      dup1\n      iszero\n      tag_1\n      jumpi\n      0x00\n      dup1\n      revert\n    tag_1:\n      pop\n      jumpi(tag_2, lt(calldatasize, 0x04))\n      shr(0xe0, calldataload(0x00))\n      dup1\n      0x1753d61c\n      eq\n      tag_3\n      jumpi\n      dup1\n      0x50ae6925\n      eq\n      tag_4\n      jumpi\n      dup1\n      0x707cab37\n      eq\n      tag_5\n      jumpi\n      dup1\n      0x8da5cb5b\n      eq\n      tag_6\n      jumpi\n      dup1\n      0xa6ceb1f3\n      eq\n      tag_7\n      jumpi\n    tag_2:\n      0x00\n      dup1\n      revert\n        /* \"\\xe5\\x86\\x99\\xe9\\xa1\\xb9\\xe7\\x9b\\xae\\xe5\\x9f\\xba\\xe7\\xa1\\x80/\\xe7\\xa9\\xba\\xe6\\x8a\\x95\\xe5\\x90\\x88\\xe7\\xba\\xa6.sol\":376:403  address public AirdropToken */\n    tag_3:\n      sload(0x00)\n      tag_8\n      swap1\n      sub(shl(0xa0, 0x01), 0x01)\n      and\n      dup2\n      jump\n    tag_8:\n      mload(0x40)\n      sub(shl(0xa0, 0x01), 0x01)\n        /* \"#utility.yul\":178:210   */\n      swap1\n      swap2\n      and\n        /* \"#utility.yul\":160:211   */\n      dup2\n      mstore\n        /* \"#utility.yul\":148:150   */\n      0x20\n        /* \"#utility.yul\":133:151   */\n      add\n        /* \"\\xe5\\x86\\x99\\xe9\\xa1\\xb9\\xe7\\x9b\\xae\\xe5\\x9f\\xba\\xe7\\xa1\\x80/\\xe7\\xa9\\xba\\xe6\\x8a\\x95\\xe5\\x90\\x88\\xe7\\xba\\xa6.sol\":376:403  address public AirdropToken */\n    tag_10:\n      mload(0x40)\n      dup1\n      swap2\n      sub\n      swap1\n      return\n        /* \"\\xe5\\x86\\x99\\xe9\\xa1\\xb9\\xe7\\x9b\\xae\\xe5\\x9f\\xba\\xe7\\xa1\\x80/\\xe7\\xa9\\xba\\xe6\\x8a\\x95\\xe5\\x90\\x88\\xe7\\xba\\xa6.sol\":437:468  uint public _getSendTokenNumber */\n    tag_4:\n      tag_12\n      sload(0x02)\n      dup2\n      jump\n    tag_12:\n      mload(0x40)\n        /* \"#utility.yul\":368:393   */\n      swap1\n      dup2\n      mstore\n        /* \"#utility.yul\":356:358   */\n      0x20\n        /* \"#utility.yul\":341:359   */\n      add\n        /* \"\\xe5\\x86\\x99\\xe9\\xa1\\xb9\\xe7\\x9b\\xae\\xe5\\x9f\\xba\\xe7\\xa1\\x80/\\xe7\\xa9\\xba\\xe6\\x8a\\x95\\xe5\\x90\\x88\\xe7\\xba\\xa6.sol\":437:468  uint public _getSendTokenNumber */\n      tag_10\n        /* \"#utility.yul\":222:399   */\n      jump\n        /* \"\\xe5\\x86\\x99\\xe9\\xa1\\xb9\\xe7\\x9b\\xae\\xe5\\x9f\\xba\\xe7\\xa1\\x80/\\xe7\\xa9\\xba\\xe6\\x8a\\x95\\xe5\\x90\\x88\\xe7\\xba\\xa6.sol\":1396:1572  function getSendTokenNumber() public returns (uint) {... */\n    tag_5:\n      tag_12\n      tag_17\n      jump\t// in\n        /* \"\\xe5\\x86\\x99\\xe9\\xa1\\xb9\\xe7\\x9b\\xae\\xe5\\x9f\\xba\\xe7\\xa1\\x80/\\xe7\\xa9\\xba\\xe6\\x8a\\x95\\xe5\\x90\\x88\\xe7\\xba\\xa6.sol\":410:430  address public owner */\n    tag_6:\n      sload(0x01)\n      tag_8\n      swap1\n      sub(shl(0xa0, 0x01), 0x01)\n      and\n      dup2\n      jump\n        /* \"\\xe5\\x86\\x99\\xe9\\xa1\\xb9\\xe7\\x9b\\xae\\xe5\\x9f\\xba\\xe7\\xa1\\x80/\\xe7\\xa9\\xba\\xe6\\x8a\\x95\\xe5\\x90\\x88\\xe7\\xba\\xa6.sol\":746:1388  function sendAirdrop(address[] calldata _userAddress, uint[] calldata _sendTokenNumber) external onlyOwner returns(uint) {... */\n    tag_7:\n      tag_12\n      tag_23\n      calldatasize\n      0x04\n      tag_24\n      jump\t// in\n    tag_23:\n      tag_25\n      jump\t// in\n        /* \"\\xe5\\x86\\x99\\xe9\\xa1\\xb9\\xe7\\x9b\\xae\\xe5\\x9f\\xba\\xe7\\xa1\\x80/\\xe7\\xa9\\xba\\xe6\\x8a\\x95\\xe5\\x90\\x88\\xe7\\xba\\xa6.sol\":1396:1572  function getSendTokenNumber() public returns (uint) {... */\n    tag_17:\n        /* \"\\xe5\\x86\\x99\\xe9\\xa1\\xb9\\xe7\\x9b\\xae\\xe5\\x9f\\xba\\xe7\\xa1\\x80/\\xe7\\xa9\\xba\\xe6\\x8a\\x95\\xe5\\x90\\x88\\xe7\\xba\\xa6.sol\":1442:1446  uint */\n      0x00\n        /* \"\\xe5\\x86\\x99\\xe9\\xa1\\xb9\\xe7\\x9b\\xae\\xe5\\x9f\\xba\\xe7\\xa1\\x80/\\xe7\\xa9\\xba\\xe6\\x8a\\x95\\xe5\\x90\\x88\\xe7\\xba\\xa6.sol\":1488:1500  AirdropToken */\n      dup1\n      sload\n        /* \"\\xe5\\x86\\x99\\xe9\\xa1\\xb9\\xe7\\x9b\\xae\\xe5\\x9f\\xba\\xe7\\xa1\\x80/\\xe7\\xa9\\xba\\xe6\\x8a\\x95\\xe5\\x90\\x88\\xe7\\xba\\xa6.sol\":1481:1526  IERC20(AirdropToken).balanceOf(address(this)) */\n      mload(0x40)\n      shl(0xe0, 0x70a08231)\n      dup2\n      mstore\n        /* \"\\xe5\\x86\\x99\\xe9\\xa1\\xb9\\xe7\\x9b\\xae\\xe5\\x9f\\xba\\xe7\\xa1\\x80/\\xe7\\xa9\\xba\\xe6\\x8a\\x95\\xe5\\x90\\x88\\xe7\\xba\\xa6.sol\":1520:1524  this */\n      address\n        /* \"\\xe5\\x86\\x99\\xe9\\xa1\\xb9\\xe7\\x9b\\xae\\xe5\\x9f\\xba\\xe7\\xa1\\x80/\\xe7\\xa9\\xba\\xe6\\x8a\\x95\\xe5\\x90\\x88\\xe7\\xba\\xa6.sol\":1481:1526  IERC20(AirdropToken).balanceOf(address(this)) */\n      0x04\n      dup3\n      add\n        /* \"#utility.yul\":160:211   */\n      mstore\n      sub(shl(0xa0, 0x01), 0x01)\n        /* \"\\xe5\\x86\\x99\\xe9\\xa1\\xb9\\xe7\\x9b\\xae\\xe5\\x9f\\xba\\xe7\\xa1\\x80/\\xe7\\xa9\\xba\\xe6\\x8a\\x95\\xe5\\x90\\x88\\xe7\\xba\\xa6.sol\":1488:1500  AirdropToken */\n      swap1\n      swap2\n      and\n      swap1\n        /* \"\\xe5\\x86\\x99\\xe9\\xa1\\xb9\\xe7\\x9b\\xae\\xe5\\x9f\\xba\\xe7\\xa1\\x80/\\xe7\\xa9\\xba\\xe6\\x8a\\x95\\xe5\\x90\\x88\\xe7\\xba\\xa6.sol\":1481:1511  IERC20(AirdropToken).balanceOf */\n      0x70a08231\n      swap1\n        /* \"#utility.yul\":133:151   */\n      0x24\n      add\n        /* \"\\xe5\\x86\\x99\\xe9\\xa1\\xb9\\xe7\\x9b\\xae\\xe5\\x9f\\xba\\xe7\\xa1\\x80/\\xe7\\xa9\\xba\\xe6\\x8a\\x95\\xe5\\x90\\x88\\xe7\\xba\\xa6.sol\":1481:1526  IERC20(AirdropToken).balanceOf(address(this)) */\n      0x20\n      mload(0x40)\n      dup1\n      dup4\n      sub\n      dup2\n      dup7\n      gas\n      staticcall\n      iszero\n      dup1\n      iszero\n      tag_30\n      jumpi\n      returndatasize\n      0x00\n      dup1\n      returndatacopy\n      revert(0x00, returndatasize)\n    tag_30:\n      pop\n      pop\n      pop\n      pop\n      mload(0x40)\n      returndatasize\n      not(0x1f)\n      0x1f\n      dup3\n      add\n      and\n      dup3\n      add\n      dup1\n      0x40\n      mstore\n      pop\n      dup2\n      add\n      swap1\n      tag_31\n      swap2\n      swap1\n      tag_32\n      jump\t// in\n    tag_31:\n        /* \"\\xe5\\x86\\x99\\xe9\\xa1\\xb9\\xe7\\x9b\\xae\\xe5\\x9f\\xba\\xe7\\xa1\\x80/\\xe7\\xa9\\xba\\xe6\\x8a\\x95\\xe5\\x90\\x88\\xe7\\xba\\xa6.sol\":1459:1478  _getSendTokenNumber */\n      0x02\n        /* \"\\xe5\\x86\\x99\\xe9\\xa1\\xb9\\xe7\\x9b\\xae\\xe5\\x9f\\xba\\xe7\\xa1\\x80/\\xe7\\xa9\\xba\\xe6\\x8a\\x95\\xe5\\x90\\x88\\xe7\\xba\\xa6.sol\":1459:1526  _getSendTokenNumber = IERC20(AirdropToken).balanceOf(address(this)) */\n      dup2\n      swap1\n      sstore\n      swap2\n        /* \"\\xe5\\x86\\x99\\xe9\\xa1\\xb9\\xe7\\x9b\\xae\\xe5\\x9f\\xba\\xe7\\xa1\\x80/\\xe7\\xa9\\xba\\xe6\\x8a\\x95\\xe5\\x90\\x88\\xe7\\xba\\xa6.sol\":1396:1572  function getSendTokenNumber() public returns (uint) {... */\n      swap1\n      pop\n      jump\t// out\n        /* \"\\xe5\\x86\\x99\\xe9\\xa1\\xb9\\xe7\\x9b\\xae\\xe5\\x9f\\xba\\xe7\\xa1\\x80/\\xe7\\xa9\\xba\\xe6\\x8a\\x95\\xe5\\x90\\x88\\xe7\\xba\\xa6.sol\":746:1388  function sendAirdrop(address[] calldata _userAddress, uint[] calldata _sendTokenNumber) external onlyOwner returns(uint) {... */\n    tag_25:\n        /* \"\\xe5\\x86\\x99\\xe9\\xa1\\xb9\\xe7\\x9b\\xae\\xe5\\x9f\\xba\\xe7\\xa1\\x80/\\xe7\\xa9\\xba\\xe6\\x8a\\x95\\xe5\\x90\\x88\\xe7\\xba\\xa6.sol\":682:687  owner */\n      sload(0x01)\n        /* \"\\xe5\\x86\\x99\\xe9\\xa1\\xb9\\xe7\\x9b\\xae\\xe5\\x9f\\xba\\xe7\\xa1\\x80/\\xe7\\xa9\\xba\\xe6\\x8a\\x95\\xe5\\x90\\x88\\xe7\\xba\\xa6.sol\":861:865  uint */\n      0x00\n      swap1\n      sub(shl(0xa0, 0x01), 0x01)\n        /* \"\\xe5\\x86\\x99\\xe9\\xa1\\xb9\\xe7\\x9b\\xae\\xe5\\x9f\\xba\\xe7\\xa1\\x80/\\xe7\\xa9\\xba\\xe6\\x8a\\x95\\xe5\\x90\\x88\\xe7\\xba\\xa6.sol\":682:687  owner */\n      and\n        /* \"\\xe5\\x86\\x99\\xe9\\xa1\\xb9\\xe7\\x9b\\xae\\xe5\\x9f\\xba\\xe7\\xa1\\x80/\\xe7\\xa9\\xba\\xe6\\x8a\\x95\\xe5\\x90\\x88\\xe7\\xba\\xa6.sol\":691:701  msg.sender */\n      caller\n        /* \"\\xe5\\x86\\x99\\xe9\\xa1\\xb9\\xe7\\x9b\\xae\\xe5\\x9f\\xba\\xe7\\xa1\\x80/\\xe7\\xa9\\xba\\xe6\\x8a\\x95\\xe5\\x90\\x88\\xe7\\xba\\xa6.sol\":682:701  owner == msg.sender */\n      eq\n        /* \"\\xe5\\x86\\x99\\xe9\\xa1\\xb9\\xe7\\x9b\\xae\\xe5\\x9f\\xba\\xe7\\xa1\\x80/\\xe7\\xa9\\xba\\xe6\\x8a\\x95\\xe5\\x90\\x88\\xe7\\xba\\xa6.sol\":673:716  require (owner == msg.sender,\"NOT,S owner\") */\n      tag_34\n      jumpi\n      mload(0x40)\n      shl(0xe5, 0x461bcd)\n      dup2\n      mstore\n        /* \"#utility.yul\":1945:1947   */\n      0x20\n        /* \"\\xe5\\x86\\x99\\xe9\\xa1\\xb9\\xe7\\x9b\\xae\\xe5\\x9f\\xba\\xe7\\xa1\\x80/\\xe7\\xa9\\xba\\xe6\\x8a\\x95\\xe5\\x90\\x88\\xe7\\xba\\xa6.sol\":673:716  require (owner == msg.sender,\"NOT,S owner\") */\n      0x04\n      dup3\n      add\n        /* \"#utility.yul\":1927:1948   */\n      mstore\n        /* \"#utility.yul\":1984:1986   */\n      0x0b\n        /* \"#utility.yul\":1964:1982   */\n      0x24\n      dup3\n      add\n        /* \"#utility.yul\":1957:1987   */\n      mstore\n      shl(0xa9, 0x2727aa16299037bbb732b9)\n        /* \"#utility.yul\":2003:2021   */\n      0x44\n      dup3\n      add\n        /* \"#utility.yul\":1996:2037   */\n      mstore\n        /* \"#utility.yul\":2054:2072   */\n      0x64\n      add\n        /* \"\\xe5\\x86\\x99\\xe9\\xa1\\xb9\\xe7\\x9b\\xae\\xe5\\x9f\\xba\\xe7\\xa1\\x80/\\xe7\\xa9\\xba\\xe6\\x8a\\x95\\xe5\\x90\\x88\\xe7\\xba\\xa6.sol\":673:716  require (owner == msg.sender,\"NOT,S owner\") */\n    tag_35:\n      mload(0x40)\n      dup1\n      swap2\n      sub\n      swap1\n      revert\n    tag_34:\n        /* \"\\xe5\\x86\\x99\\xe9\\xa1\\xb9\\xe7\\x9b\\xae\\xe5\\x9f\\xba\\xe7\\xa1\\x80/\\xe7\\xa9\\xba\\xe6\\x8a\\x95\\xe5\\x90\\x88\\xe7\\xba\\xa6.sol\":886:932  _userAddress.length == _sendTokenNumber.length */\n      dup4\n      dup3\n      eq\n        /* \"\\xe5\\x86\\x99\\xe9\\xa1\\xb9\\xe7\\x9b\\xae\\xe5\\x9f\\xba\\xe7\\xa1\\x80/\\xe7\\xa9\\xba\\xe6\\x8a\\x95\\xe5\\x90\\x88\\xe7\\xba\\xa6.sol\":878:952  require(_userAddress.length == _sendTokenNumber.length, \"NOT,S LENGTH ==\") */\n      tag_38\n      jumpi\n      mload(0x40)\n      shl(0xe5, 0x461bcd)\n      dup2\n      mstore\n        /* \"#utility.yul\":2285:2287   */\n      0x20\n        /* \"\\xe5\\x86\\x99\\xe9\\xa1\\xb9\\xe7\\x9b\\xae\\xe5\\x9f\\xba\\xe7\\xa1\\x80/\\xe7\\xa9\\xba\\xe6\\x8a\\x95\\xe5\\x90\\x88\\xe7\\xba\\xa6.sol\":878:952  require(_userAddress.length == _sendTokenNumber.length, \"NOT,S LENGTH ==\") */\n      0x04\n      dup3\n      add\n        /* \"#utility.yul\":2267:2288   */\n      mstore\n        /* \"#utility.yul\":2324:2326   */\n      0x0f\n        /* \"#utility.yul\":2304:2322   */\n      0x24\n      dup3\n      add\n        /* \"#utility.yul\":2297:2327   */\n      mstore\n      shl(0x88, 0x4e4f542c53204c454e475448203d3d)\n        /* \"#utility.yul\":2343:2361   */\n      0x44\n      dup3\n      add\n        /* \"#utility.yul\":2336:2381   */\n      mstore\n        /* \"#utility.yul\":2398:2416   */\n      0x64\n      add\n        /* \"\\xe5\\x86\\x99\\xe9\\xa1\\xb9\\xe7\\x9b\\xae\\xe5\\x9f\\xba\\xe7\\xa1\\x80/\\xe7\\xa9\\xba\\xe6\\x8a\\x95\\xe5\\x90\\x88\\xe7\\xba\\xa6.sol\":878:952  require(_userAddress.length == _sendTokenNumber.length, \"NOT,S LENGTH ==\") */\n      tag_35\n        /* \"#utility.yul\":2083:2422   */\n      jump\n        /* \"\\xe5\\x86\\x99\\xe9\\xa1\\xb9\\xe7\\x9b\\xae\\xe5\\x9f\\xba\\xe7\\xa1\\x80/\\xe7\\xa9\\xba\\xe6\\x8a\\x95\\xe5\\x90\\x88\\xe7\\xba\\xa6.sol\":878:952  require(_userAddress.length == _sendTokenNumber.length, \"NOT,S LENGTH ==\") */\n    tag_38:\n        /* \"\\xe5\\x86\\x99\\xe9\\xa1\\xb9\\xe7\\x9b\\xae\\xe5\\x9f\\xba\\xe7\\xa1\\x80/\\xe7\\xa9\\xba\\xe6\\x8a\\x95\\xe5\\x90\\x88\\xe7\\xba\\xa6.sol\":963:969  uint a */\n      0x00\n        /* \"\\xe5\\x86\\x99\\xe9\\xa1\\xb9\\xe7\\x9b\\xae\\xe5\\x9f\\xba\\xe7\\xa1\\x80/\\xe7\\xa9\\xba\\xe6\\x8a\\x95\\xe5\\x90\\x88\\xe7\\xba\\xa6.sol\":991:997  uint t */\n      dup1\n        /* \"\\xe5\\x86\\x99\\xe9\\xa1\\xb9\\xe7\\x9b\\xae\\xe5\\x9f\\xba\\xe7\\xa1\\x80/\\xe7\\xa9\\xba\\xe6\\x8a\\x95\\xe5\\x90\\x88\\xe7\\xba\\xa6.sol\":986:1098  for (uint t; t < _sendTokenNumber.length; t++) {... */\n    tag_41:\n        /* \"\\xe5\\x86\\x99\\xe9\\xa1\\xb9\\xe7\\x9b\\xae\\xe5\\x9f\\xba\\xe7\\xa1\\x80/\\xe7\\xa9\\xba\\xe6\\x8a\\x95\\xe5\\x90\\x88\\xe7\\xba\\xa6.sol\":999:1026  t < _sendTokenNumber.length */\n      dup4\n      dup2\n      lt\n        /* \"\\xe5\\x86\\x99\\xe9\\xa1\\xb9\\xe7\\x9b\\xae\\xe5\\x9f\\xba\\xe7\\xa1\\x80/\\xe7\\xa9\\xba\\xe6\\x8a\\x95\\xe5\\x90\\x88\\xe7\\xba\\xa6.sol\":986:1098  for (uint t; t < _sendTokenNumber.length; t++) {... */\n      iszero\n      tag_42\n      jumpi\n        /* \"\\xe5\\x86\\x99\\xe9\\xa1\\xb9\\xe7\\x9b\\xae\\xe5\\x9f\\xba\\xe7\\xa1\\x80/\\xe7\\xa9\\xba\\xe6\\x8a\\x95\\xe5\\x90\\x88\\xe7\\xba\\xa6.sol\":1053:1069  _sendTokenNumber */\n      dup5\n      dup5\n        /* \"\\xe5\\x86\\x99\\xe9\\xa1\\xb9\\xe7\\x9b\\xae\\xe5\\x9f\\xba\\xe7\\xa1\\x80/\\xe7\\xa9\\xba\\xe6\\x8a\\x95\\xe5\\x90\\x88\\xe7\\xba\\xa6.sol\":1070:1071  t */\n      dup3\n        /* \"\\xe5\\x86\\x99\\xe9\\xa1\\xb9\\xe7\\x9b\\xae\\xe5\\x9f\\xba\\xe7\\xa1\\x80/\\xe7\\xa9\\xba\\xe6\\x8a\\x95\\xe5\\x90\\x88\\xe7\\xba\\xa6.sol\":1053:1072  _sendTokenNumber[t] */\n      dup2\n      dup2\n      lt\n      tag_45\n      jumpi\n      tag_45\n      tag_46\n      jump\t// in\n    tag_45:\n      swap1\n      pop\n      0x20\n      mul\n      add\n      calldataload\n        /* \"\\xe5\\x86\\x99\\xe9\\xa1\\xb9\\xe7\\x9b\\xae\\xe5\\x9f\\xba\\xe7\\xa1\\x80/\\xe7\\xa9\\xba\\xe6\\x8a\\x95\\xe5\\x90\\x88\\xe7\\xba\\xa6.sol\":1048:1072  a += _sendTokenNumber[t] */\n      dup3\n      tag_47\n      swap2\n      swap1\n      tag_48\n      jump\t// in\n    tag_47:\n      swap2\n      pop\n        /* \"\\xe5\\x86\\x99\\xe9\\xa1\\xb9\\xe7\\x9b\\xae\\xe5\\x9f\\xba\\xe7\\xa1\\x80/\\xe7\\xa9\\xba\\xe6\\x8a\\x95\\xe5\\x90\\x88\\xe7\\xba\\xa6.sol\":1028:1031  t++ */\n      dup1\n      tag_49\n      dup2\n      tag_50\n      jump\t// in\n    tag_49:\n      swap2\n      pop\n      pop\n        /* \"\\xe5\\x86\\x99\\xe9\\xa1\\xb9\\xe7\\x9b\\xae\\xe5\\x9f\\xba\\xe7\\xa1\\x80/\\xe7\\xa9\\xba\\xe6\\x8a\\x95\\xe5\\x90\\x88\\xe7\\xba\\xa6.sol\":986:1098  for (uint t; t < _sendTokenNumber.length; t++) {... */\n      jump(tag_41)\n    tag_42:\n      pop\n        /* \"\\xe5\\x86\\x99\\xe9\\xa1\\xb9\\xe7\\x9b\\xae\\xe5\\x9f\\xba\\xe7\\xa1\\x80/\\xe7\\xa9\\xba\\xe6\\x8a\\x95\\xe5\\x90\\x88\\xe7\\xba\\xa6.sol\":1122:1141  _getSendTokenNumber */\n      sload(0x02)\n        /* \"\\xe5\\x86\\x99\\xe9\\xa1\\xb9\\xe7\\x9b\\xae\\xe5\\x9f\\xba\\xe7\\xa1\\x80/\\xe7\\xa9\\xba\\xe6\\x8a\\x95\\xe5\\x90\\x88\\xe7\\xba\\xa6.sol\":1118:1119  a */\n      dup2\n        /* \"\\xe5\\x86\\x99\\xe9\\xa1\\xb9\\xe7\\x9b\\xae\\xe5\\x9f\\xba\\xe7\\xa1\\x80/\\xe7\\xa9\\xba\\xe6\\x8a\\x95\\xe5\\x90\\x88\\xe7\\xba\\xa6.sol\":1118:1141  a > _getSendTokenNumber */\n      gt\n        /* \"\\xe5\\x86\\x99\\xe9\\xa1\\xb9\\xe7\\x9b\\xae\\xe5\\x9f\\xba\\xe7\\xa1\\x80/\\xe7\\xa9\\xba\\xe6\\x8a\\x95\\xe5\\x90\\x88\\xe7\\xba\\xa6.sol\":1110:1164  require(a > _getSendTokenNumber, \"token insufficient\") */\n      tag_51\n      jumpi\n      mload(0x40)\n      shl(0xe5, 0x461bcd)\n      dup2\n      mstore\n        /* \"#utility.yul\":3166:3168   */\n      0x20\n        /* \"\\xe5\\x86\\x99\\xe9\\xa1\\xb9\\xe7\\x9b\\xae\\xe5\\x9f\\xba\\xe7\\xa1\\x80/\\xe7\\xa9\\xba\\xe6\\x8a\\x95\\xe5\\x90\\x88\\xe7\\xba\\xa6.sol\":1110:1164  require(a > _getSendTokenNumber, \"token insufficient\") */\n      0x04\n      dup3\n      add\n        /* \"#utility.yul\":3148:3169   */\n      mstore\n        /* \"#utility.yul\":3205:3207   */\n      0x12\n        /* \"#utility.yul\":3185:3203   */\n      0x24\n      dup3\n      add\n        /* \"#utility.yul\":3178:3208   */\n      mstore\n      shl(0x72, 0x1d1bdad95b881a5b9cdd59999a58da595b9d)\n        /* \"#utility.yul\":3224:3242   */\n      0x44\n      dup3\n      add\n        /* \"#utility.yul\":3217:3265   */\n      mstore\n        /* \"#utility.yul\":3282:3300   */\n      0x64\n      add\n        /* \"\\xe5\\x86\\x99\\xe9\\xa1\\xb9\\xe7\\x9b\\xae\\xe5\\x9f\\xba\\xe7\\xa1\\x80/\\xe7\\xa9\\xba\\xe6\\x8a\\x95\\xe5\\x90\\x88\\xe7\\xba\\xa6.sol\":1110:1164  require(a > _getSendTokenNumber, \"token insufficient\") */\n      tag_35\n        /* \"#utility.yul\":2964:3306   */\n      jump\n        /* \"\\xe5\\x86\\x99\\xe9\\xa1\\xb9\\xe7\\x9b\\xae\\xe5\\x9f\\xba\\xe7\\xa1\\x80/\\xe7\\xa9\\xba\\xe6\\x8a\\x95\\xe5\\x90\\x88\\xe7\\xba\\xa6.sol\":1110:1164  require(a > _getSendTokenNumber, \"token insufficient\") */\n    tag_51:\n        /* \"\\xe5\\x86\\x99\\xe9\\xa1\\xb9\\xe7\\x9b\\xae\\xe5\\x9f\\xba\\xe7\\xa1\\x80/\\xe7\\xa9\\xba\\xe6\\x8a\\x95\\xe5\\x90\\x88\\xe7\\xba\\xa6.sol\":1182:1188  uint i */\n      0x00\n        /* \"\\xe5\\x86\\x99\\xe9\\xa1\\xb9\\xe7\\x9b\\xae\\xe5\\x9f\\xba\\xe7\\xa1\\x80/\\xe7\\xa9\\xba\\xe6\\x8a\\x95\\xe5\\x90\\x88\\xe7\\xba\\xa6.sol\":1177:1332  for (uint i; i < _userAddress.length; i++) {... */\n    tag_54:\n        /* \"\\xe5\\x86\\x99\\xe9\\xa1\\xb9\\xe7\\x9b\\xae\\xe5\\x9f\\xba\\xe7\\xa1\\x80/\\xe7\\xa9\\xba\\xe6\\x8a\\x95\\xe5\\x90\\x88\\xe7\\xba\\xa6.sol\":1190:1213  i < _userAddress.length */\n      dup6\n      dup2\n      lt\n        /* \"\\xe5\\x86\\x99\\xe9\\xa1\\xb9\\xe7\\x9b\\xae\\xe5\\x9f\\xba\\xe7\\xa1\\x80/\\xe7\\xa9\\xba\\xe6\\x8a\\x95\\xe5\\x90\\x88\\xe7\\xba\\xa6.sol\":1177:1332  for (uint i; i < _userAddress.length; i++) {... */\n      iszero\n      tag_55\n      jumpi\n        /* \"\\xe5\\x86\\x99\\xe9\\xa1\\xb9\\xe7\\x9b\\xae\\xe5\\x9f\\xba\\xe7\\xa1\\x80/\\xe7\\xa9\\xba\\xe6\\x8a\\x95\\xe5\\x90\\x88\\xe7\\xba\\xa6.sol\":1242:1254  AirdropToken */\n      and(sub(shl(0xa0, 0x01), 0x01), sload(0x00))\n        /* \"\\xe5\\x86\\x99\\xe9\\xa1\\xb9\\xe7\\x9b\\xae\\xe5\\x9f\\xba\\xe7\\xa1\\x80/\\xe7\\xa9\\xba\\xe6\\x8a\\x95\\xe5\\x90\\x88\\xe7\\xba\\xa6.sol\":1235:1268  IERC20(AirdropToken).transferFrom */\n      0x23b872dd\n        /* \"\\xe5\\x86\\x99\\xe9\\xa1\\xb9\\xe7\\x9b\\xae\\xe5\\x9f\\xba\\xe7\\xa1\\x80/\\xe7\\xa9\\xba\\xe6\\x8a\\x95\\xe5\\x90\\x88\\xe7\\xba\\xa6.sol\":1269:1279  msg.sender */\n      caller\n        /* \"\\xe5\\x86\\x99\\xe9\\xa1\\xb9\\xe7\\x9b\\xae\\xe5\\x9f\\xba\\xe7\\xa1\\x80/\\xe7\\xa9\\xba\\xe6\\x8a\\x95\\xe5\\x90\\x88\\xe7\\xba\\xa6.sol\":1281:1293  _userAddress */\n      dup10\n      dup10\n        /* \"\\xe5\\x86\\x99\\xe9\\xa1\\xb9\\xe7\\x9b\\xae\\xe5\\x9f\\xba\\xe7\\xa1\\x80/\\xe7\\xa9\\xba\\xe6\\x8a\\x95\\xe5\\x90\\x88\\xe7\\xba\\xa6.sol\":1294:1295  i */\n      dup6\n        /* \"\\xe5\\x86\\x99\\xe9\\xa1\\xb9\\xe7\\x9b\\xae\\xe5\\x9f\\xba\\xe7\\xa1\\x80/\\xe7\\xa9\\xba\\xe6\\x8a\\x95\\xe5\\x90\\x88\\xe7\\xba\\xa6.sol\":1281:1296  _userAddress[i] */\n      dup2\n      dup2\n      lt\n      tag_58\n      jumpi\n      tag_58\n      tag_46\n      jump\t// in\n    tag_58:\n      swap1\n      pop\n      0x20\n      mul\n      add\n      0x20\n      dup2\n      add\n      swap1\n      tag_59\n      swap2\n      swap1\n      tag_60\n      jump\t// in\n    tag_59:\n        /* \"\\xe5\\x86\\x99\\xe9\\xa1\\xb9\\xe7\\x9b\\xae\\xe5\\x9f\\xba\\xe7\\xa1\\x80/\\xe7\\xa9\\xba\\xe6\\x8a\\x95\\xe5\\x90\\x88\\xe7\\xba\\xa6.sol\":1297:1313  _sendTokenNumber */\n      dup9\n      dup9\n        /* \"\\xe5\\x86\\x99\\xe9\\xa1\\xb9\\xe7\\x9b\\xae\\xe5\\x9f\\xba\\xe7\\xa1\\x80/\\xe7\\xa9\\xba\\xe6\\x8a\\x95\\xe5\\x90\\x88\\xe7\\xba\\xa6.sol\":1314:1315  i */\n      dup7\n        /* \"\\xe5\\x86\\x99\\xe9\\xa1\\xb9\\xe7\\x9b\\xae\\xe5\\x9f\\xba\\xe7\\xa1\\x80/\\xe7\\xa9\\xba\\xe6\\x8a\\x95\\xe5\\x90\\x88\\xe7\\xba\\xa6.sol\":1297:1316  _sendTokenNumber[i] */\n      dup2\n      dup2\n      lt\n      tag_62\n      jumpi\n      tag_62\n      tag_46\n      jump\t// in\n    tag_62:\n        /* \"\\xe5\\x86\\x99\\xe9\\xa1\\xb9\\xe7\\x9b\\xae\\xe5\\x9f\\xba\\xe7\\xa1\\x80/\\xe7\\xa9\\xba\\xe6\\x8a\\x95\\xe5\\x90\\x88\\xe7\\xba\\xa6.sol\":1235:1317  IERC20(AirdropToken).transferFrom(msg.sender, _userAddress[i],_sendTokenNumber[i]) */\n      mload(0x40)\n      not(sub(shl(0xe0, 0x01), 0x01))\n      0xe0\n      dup9\n      swap1\n      shl\n      and\n      dup2\n      mstore\n      sub(shl(0xa0, 0x01), 0x01)\n        /* \"#utility.yul\":3860:3875   */\n      swap6\n      dup7\n      and\n        /* \"\\xe5\\x86\\x99\\xe9\\xa1\\xb9\\xe7\\x9b\\xae\\xe5\\x9f\\xba\\xe7\\xa1\\x80/\\xe7\\xa9\\xba\\xe6\\x8a\\x95\\xe5\\x90\\x88\\xe7\\xba\\xa6.sol\":1235:1317  IERC20(AirdropToken).transferFrom(msg.sender, _userAddress[i],_sendTokenNumber[i]) */\n      0x04\n      dup3\n      add\n        /* \"#utility.yul\":3842:3876   */\n      mstore\n        /* \"#utility.yul\":3912:3927   */\n      swap5\n      swap1\n      swap4\n      and\n        /* \"#utility.yul\":3892:3910   */\n      0x24\n      dup6\n      add\n        /* \"#utility.yul\":3885:3928   */\n      mstore\n      pop\n        /* \"\\xe5\\x86\\x99\\xe9\\xa1\\xb9\\xe7\\x9b\\xae\\xe5\\x9f\\xba\\xe7\\xa1\\x80/\\xe7\\xa9\\xba\\xe6\\x8a\\x95\\xe5\\x90\\x88\\xe7\\xba\\xa6.sol\":1297:1316  _sendTokenNumber[i] */\n      0x20\n      swap1\n      swap2\n      mul\n      add\n      calldataload\n        /* \"#utility.yul\":3944:3962   */\n      0x44\n      dup3\n      add\n        /* \"#utility.yul\":3937:3971   */\n      mstore\n        /* \"#utility.yul\":3777:3795   */\n      0x64\n      add\n        /* \"\\xe5\\x86\\x99\\xe9\\xa1\\xb9\\xe7\\x9b\\xae\\xe5\\x9f\\xba\\xe7\\xa1\\x80/\\xe7\\xa9\\xba\\xe6\\x8a\\x95\\xe5\\x90\\x88\\xe7\\xba\\xa6.sol\":1235:1317  IERC20(AirdropToken).transferFrom(msg.sender, _userAddress[i],_sendTokenNumber[i]) */\n      0x20\n      mload(0x40)\n      dup1\n      dup4\n      sub\n      dup2\n      0x00\n      dup8\n      gas\n      call\n      iszero\n      dup1\n      iszero\n      tag_66\n      jumpi\n      returndatasize\n      0x00\n      dup1\n      returndatacopy\n      revert(0x00, returndatasize)\n    tag_66:\n      pop\n      pop\n      pop\n      pop\n      mload(0x40)\n      returndatasize\n      not(0x1f)\n      0x1f\n      dup3\n      add\n      and\n      dup3\n      add\n      dup1\n      0x40\n      mstore\n      pop\n      dup2\n      add\n      swap1\n      tag_67\n      swap2\n      swap1\n      tag_68\n      jump\t// in\n    tag_67:\n      pop\n        /* \"\\xe5\\x86\\x99\\xe9\\xa1\\xb9\\xe7\\x9b\\xae\\xe5\\x9f\\xba\\xe7\\xa1\\x80/\\xe7\\xa9\\xba\\xe6\\x8a\\x95\\xe5\\x90\\x88\\xe7\\xba\\xa6.sol\":1215:1218  i++ */\n      dup1\n      tag_69\n      dup2\n      tag_50\n      jump\t// in\n    tag_69:\n      swap2\n      pop\n      pop\n        /* \"\\xe5\\x86\\x99\\xe9\\xa1\\xb9\\xe7\\x9b\\xae\\xe5\\x9f\\xba\\xe7\\xa1\\x80/\\xe7\\xa9\\xba\\xe6\\x8a\\x95\\xe5\\x90\\x88\\xe7\\xba\\xa6.sol\":1177:1332  for (uint i; i < _userAddress.length; i++) {... */\n      jump(tag_54)\n    tag_55:\n      pop\n        /* \"\\xe5\\x86\\x99\\xe9\\xa1\\xb9\\xe7\\x9b\\xae\\xe5\\x9f\\xba\\xe7\\xa1\\x80/\\xe7\\xa9\\xba\\xe6\\x8a\\x95\\xe5\\x90\\x88\\xe7\\xba\\xa6.sol\":1349:1350  a */\n      dup1\n        /* \"\\xe5\\x86\\x99\\xe9\\xa1\\xb9\\xe7\\x9b\\xae\\xe5\\x9f\\xba\\xe7\\xa1\\x80/\\xe7\\xa9\\xba\\xe6\\x8a\\x95\\xe5\\x90\\x88\\xe7\\xba\\xa6.sol\":1354:1355  3 */\n      0x03\n        /* \"\\xe5\\x86\\x99\\xe9\\xa1\\xb9\\xe7\\x9b\\xae\\xe5\\x9f\\xba\\xe7\\xa1\\x80/\\xe7\\xa9\\xba\\xe6\\x8a\\x95\\xe5\\x90\\x88\\xe7\\xba\\xa6.sol\":1349:1355  a == 3 */\n      eq\n        /* \"\\xe5\\x86\\x99\\xe9\\xa1\\xb9\\xe7\\x9b\\xae\\xe5\\x9f\\xba\\xe7\\xa1\\x80/\\xe7\\xa9\\xba\\xe6\\x8a\\x95\\xe5\\x90\\x88\\xe7\\xba\\xa6.sol\":1342:1356  assert(a == 3) */\n      tag_71\n      jumpi\n      tag_71\n      tag_72\n      jump\t// in\n    tag_71:\n        /* \"\\xe5\\x86\\x99\\xe9\\xa1\\xb9\\xe7\\x9b\\xae\\xe5\\x9f\\xba\\xe7\\xa1\\x80/\\xe7\\xa9\\xba\\xe6\\x8a\\x95\\xe5\\x90\\x88\\xe7\\xba\\xa6.sol\":1374:1375  a */\n      swap6\n        /* \"\\xe5\\x86\\x99\\xe9\\xa1\\xb9\\xe7\\x9b\\xae\\xe5\\x9f\\xba\\xe7\\xa1\\x80/\\xe7\\xa9\\xba\\xe6\\x8a\\x95\\xe5\\x90\\x88\\xe7\\xba\\xa6.sol\":746:1388  function sendAirdrop(address[] calldata _userAddress, uint[] calldata _sendTokenNumber) external onlyOwner returns(uint) {... */\n      swap5\n      pop\n      pop\n      pop\n      pop\n      pop\n      jump\t// out\n        /* \"#utility.yul\":404:771   */\n    tag_73:\n        /* \"#utility.yul\":467:475   */\n      0x00\n        /* \"#utility.yul\":477:483   */\n      dup1\n        /* \"#utility.yul\":531:534   */\n      dup4\n        /* \"#utility.yul\":524:528   */\n      0x1f\n        /* \"#utility.yul\":516:522   */\n      dup5\n        /* \"#utility.yul\":512:529   */\n      add\n        /* \"#utility.yul\":508:535   */\n      slt\n        /* \"#utility.yul\":498:553   */\n      tag_79\n      jumpi\n        /* \"#utility.yul\":549:550   */\n      0x00\n        /* \"#utility.yul\":546:547   */\n      dup1\n        /* \"#utility.yul\":539:551   */\n      revert\n        /* \"#utility.yul\":498:553   */\n    tag_79:\n      pop\n        /* \"#utility.yul\":572:592   */\n      dup2\n      calldataload\n        /* \"#utility.yul\":615:633   */\n      0xffffffffffffffff\n        /* \"#utility.yul\":604:634   */\n      dup2\n      gt\n        /* \"#utility.yul\":601:651   */\n      iszero\n      tag_80\n      jumpi\n        /* \"#utility.yul\":647:648   */\n      0x00\n        /* \"#utility.yul\":644:645   */\n      dup1\n        /* \"#utility.yul\":637:649   */\n      revert\n        /* \"#utility.yul\":601:651   */\n    tag_80:\n        /* \"#utility.yul\":684:688   */\n      0x20\n        /* \"#utility.yul\":676:682   */\n      dup4\n        /* \"#utility.yul\":672:689   */\n      add\n        /* \"#utility.yul\":660:689   */\n      swap2\n      pop\n        /* \"#utility.yul\":744:747   */\n      dup4\n        /* \"#utility.yul\":737:741   */\n      0x20\n        /* \"#utility.yul\":727:733   */\n      dup3\n        /* \"#utility.yul\":724:725   */\n      0x05\n        /* \"#utility.yul\":720:734   */\n      shl\n        /* \"#utility.yul\":712:718   */\n      dup6\n        /* \"#utility.yul\":708:735   */\n      add\n        /* \"#utility.yul\":704:742   */\n      add\n        /* \"#utility.yul\":701:748   */\n      gt\n        /* \"#utility.yul\":698:765   */\n      iszero\n      tag_81\n      jumpi\n        /* \"#utility.yul\":761:762   */\n      0x00\n        /* \"#utility.yul\":758:759   */\n      dup1\n        /* \"#utility.yul\":751:763   */\n      revert\n        /* \"#utility.yul\":698:765   */\n    tag_81:\n        /* \"#utility.yul\":404:771   */\n      swap3\n      pop\n      swap3\n      swap1\n      pop\n      jump\t// out\n        /* \"#utility.yul\":776:1549   */\n    tag_24:\n        /* \"#utility.yul\":898:904   */\n      0x00\n        /* \"#utility.yul\":906:912   */\n      dup1\n        /* \"#utility.yul\":914:920   */\n      0x00\n        /* \"#utility.yul\":922:928   */\n      dup1\n        /* \"#utility.yul\":975:977   */\n      0x40\n        /* \"#utility.yul\":963:972   */\n      dup6\n        /* \"#utility.yul\":954:961   */\n      dup8\n        /* \"#utility.yul\":950:973   */\n      sub\n        /* \"#utility.yul\":946:978   */\n      slt\n        /* \"#utility.yul\":943:995   */\n      iszero\n      tag_83\n      jumpi\n        /* \"#utility.yul\":991:992   */\n      0x00\n        /* \"#utility.yul\":988:989   */\n      dup1\n        /* \"#utility.yul\":981:993   */\n      revert\n        /* \"#utility.yul\":943:995   */\n    tag_83:\n        /* \"#utility.yul\":1031:1040   */\n      dup5\n        /* \"#utility.yul\":1018:1041   */\n      calldataload\n        /* \"#utility.yul\":1060:1078   */\n      0xffffffffffffffff\n        /* \"#utility.yul\":1101:1103   */\n      dup1\n        /* \"#utility.yul\":1093:1099   */\n      dup3\n        /* \"#utility.yul\":1090:1104   */\n      gt\n        /* \"#utility.yul\":1087:1121   */\n      iszero\n      tag_84\n      jumpi\n        /* \"#utility.yul\":1117:1118   */\n      0x00\n        /* \"#utility.yul\":1114:1115   */\n      dup1\n        /* \"#utility.yul\":1107:1119   */\n      revert\n        /* \"#utility.yul\":1087:1121   */\n    tag_84:\n        /* \"#utility.yul\":1156:1226   */\n      tag_85\n        /* \"#utility.yul\":1218:1225   */\n      dup9\n        /* \"#utility.yul\":1209:1215   */\n      dup4\n        /* \"#utility.yul\":1198:1207   */\n      dup10\n        /* \"#utility.yul\":1194:1216   */\n      add\n        /* \"#utility.yul\":1156:1226   */\n      tag_73\n      jump\t// in\n    tag_85:\n        /* \"#utility.yul\":1245:1253   */\n      swap1\n      swap7\n      pop\n        /* \"#utility.yul\":1130:1226   */\n      swap5\n      pop\n        /* \"#utility.yul\":1333:1335   */\n      0x20\n        /* \"#utility.yul\":1318:1336   */\n      dup8\n      add\n        /* \"#utility.yul\":1305:1337   */\n      calldataload\n      swap2\n      pop\n        /* \"#utility.yul\":1349:1365   */\n      dup1\n      dup3\n      gt\n        /* \"#utility.yul\":1346:1382   */\n      iszero\n      tag_86\n      jumpi\n        /* \"#utility.yul\":1378:1379   */\n      0x00\n        /* \"#utility.yul\":1375:1376   */\n      dup1\n        /* \"#utility.yul\":1368:1380   */\n      revert\n        /* \"#utility.yul\":1346:1382   */\n    tag_86:\n      pop\n        /* \"#utility.yul\":1417:1489   */\n      tag_87\n        /* \"#utility.yul\":1481:1488   */\n      dup8\n        /* \"#utility.yul\":1470:1478   */\n      dup3\n        /* \"#utility.yul\":1459:1468   */\n      dup9\n        /* \"#utility.yul\":1455:1479   */\n      add\n        /* \"#utility.yul\":1417:1489   */\n      tag_73\n      jump\t// in\n    tag_87:\n        /* \"#utility.yul\":776:1549   */\n      swap6\n      swap9\n      swap5\n      swap8\n      pop\n        /* \"#utility.yul\":1508:1516   */\n      swap6\n      pop\n      pop\n      pop\n      pop\n        /* \"#utility.yul\":776:1549   */\n      jump\t// out\n        /* \"#utility.yul\":1554:1738   */\n    tag_32:\n        /* \"#utility.yul\":1624:1630   */\n      0x00\n        /* \"#utility.yul\":1677:1679   */\n      0x20\n        /* \"#utility.yul\":1665:1674   */\n      dup3\n        /* \"#utility.yul\":1656:1663   */\n      dup5\n        /* \"#utility.yul\":1652:1675   */\n      sub\n        /* \"#utility.yul\":1648:1680   */\n      slt\n        /* \"#utility.yul\":1645:1697   */\n      iszero\n      tag_89\n      jumpi\n        /* \"#utility.yul\":1693:1694   */\n      0x00\n        /* \"#utility.yul\":1690:1691   */\n      dup1\n        /* \"#utility.yul\":1683:1695   */\n      revert\n        /* \"#utility.yul\":1645:1697   */\n    tag_89:\n      pop\n        /* \"#utility.yul\":1716:1732   */\n      mload\n      swap2\n        /* \"#utility.yul\":1554:1738   */\n      swap1\n      pop\n      jump\t// out\n        /* \"#utility.yul\":2427:2554   */\n    tag_46:\n        /* \"#utility.yul\":2488:2498   */\n      0x4e487b71\n        /* \"#utility.yul\":2483:2486   */\n      0xe0\n        /* \"#utility.yul\":2479:2499   */\n      shl\n        /* \"#utility.yul\":2476:2477   */\n      0x00\n        /* \"#utility.yul\":2469:2500   */\n      mstore\n        /* \"#utility.yul\":2519:2523   */\n      0x32\n        /* \"#utility.yul\":2516:2517   */\n      0x04\n        /* \"#utility.yul\":2509:2524   */\n      mstore\n        /* \"#utility.yul\":2543:2547   */\n      0x24\n        /* \"#utility.yul\":2540:2541   */\n      0x00\n        /* \"#utility.yul\":2533:2548   */\n      revert\n        /* \"#utility.yul\":2559:2686   */\n    tag_74:\n        /* \"#utility.yul\":2620:2630   */\n      0x4e487b71\n        /* \"#utility.yul\":2615:2618   */\n      0xe0\n        /* \"#utility.yul\":2611:2631   */\n      shl\n        /* \"#utility.yul\":2608:2609   */\n      0x00\n        /* \"#utility.yul\":2601:2632   */\n      mstore\n        /* \"#utility.yul\":2651:2655   */\n      0x11\n        /* \"#utility.yul\":2648:2649   */\n      0x04\n        /* \"#utility.yul\":2641:2656   */\n      mstore\n        /* \"#utility.yul\":2675:2679   */\n      0x24\n        /* \"#utility.yul\":2672:2673   */\n      0x00\n        /* \"#utility.yul\":2665:2680   */\n      revert\n        /* \"#utility.yul\":2691:2819   */\n    tag_48:\n        /* \"#utility.yul\":2731:2734   */\n      0x00\n        /* \"#utility.yul\":2762:2763   */\n      dup3\n        /* \"#utility.yul\":2758:2764   */\n      not\n        /* \"#utility.yul\":2755:2756   */\n      dup3\n        /* \"#utility.yul\":2752:2765   */\n      gt\n        /* \"#utility.yul\":2749:2788   */\n      iszero\n      tag_96\n      jumpi\n        /* \"#utility.yul\":2768:2786   */\n      tag_96\n      tag_74\n      jump\t// in\n    tag_96:\n      pop\n        /* \"#utility.yul\":2804:2813   */\n      add\n      swap1\n        /* \"#utility.yul\":2691:2819   */\n      jump\t// out\n        /* \"#utility.yul\":2824:2959   */\n    tag_50:\n        /* \"#utility.yul\":2863:2866   */\n      0x00\n        /* \"#utility.yul\":2884:2901   */\n      0x01\n      dup3\n      add\n        /* \"#utility.yul\":2881:2924   */\n      tag_99\n      jumpi\n        /* \"#utility.yul\":2904:2922   */\n      tag_99\n      tag_74\n      jump\t// in\n    tag_99:\n      pop\n        /* \"#utility.yul\":2951:2952   */\n      0x01\n        /* \"#utility.yul\":2940:2953   */\n      add\n      swap1\n        /* \"#utility.yul\":2824:2959   */\n      jump\t// out\n        /* \"#utility.yul\":3311:3597   */\n    tag_60:\n        /* \"#utility.yul\":3370:3376   */\n      0x00\n        /* \"#utility.yul\":3423:3425   */\n      0x20\n        /* \"#utility.yul\":3411:3420   */\n      dup3\n        /* \"#utility.yul\":3402:3409   */\n      dup5\n        /* \"#utility.yul\":3398:3421   */\n      sub\n        /* \"#utility.yul\":3394:3426   */\n      slt\n        /* \"#utility.yul\":3391:3443   */\n      iszero\n      tag_102\n      jumpi\n        /* \"#utility.yul\":3439:3440   */\n      0x00\n        /* \"#utility.yul\":3436:3437   */\n      dup1\n        /* \"#utility.yul\":3429:3441   */\n      revert\n        /* \"#utility.yul\":3391:3443   */\n    tag_102:\n        /* \"#utility.yul\":3465:3488   */\n      dup2\n      calldataload\n      sub(shl(0xa0, 0x01), 0x01)\n        /* \"#utility.yul\":3517:3548   */\n      dup2\n      and\n        /* \"#utility.yul\":3507:3549   */\n      dup2\n      eq\n        /* \"#utility.yul\":3497:3567   */\n      tag_103\n      jumpi\n        /* \"#utility.yul\":3563:3564   */\n      0x00\n        /* \"#utility.yul\":3560:3561   */\n      dup1\n        /* \"#utility.yul\":3553:3565   */\n      revert\n        /* \"#utility.yul\":3497:3567   */\n    tag_103:\n        /* \"#utility.yul\":3586:3591   */\n      swap4\n        /* \"#utility.yul\":3311:3597   */\n      swap3\n      pop\n      pop\n      pop\n      jump\t// out\n        /* \"#utility.yul\":3982:4259   */\n    tag_68:\n        /* \"#utility.yul\":4049:4055   */\n      0x00\n        /* \"#utility.yul\":4102:4104   */\n      0x20\n        /* \"#utility.yul\":4090:4099   */\n      dup3\n        /* \"#utility.yul\":4081:4088   */\n      dup5\n        /* \"#utility.yul\":4077:4100   */\n      sub\n        /* \"#utility.yul\":4073:4105   */\n      slt\n        /* \"#utility.yul\":4070:4122   */\n      iszero\n      tag_106\n      jumpi\n        /* \"#utility.yul\":4118:4119   */\n      0x00\n        /* \"#utility.yul\":4115:4116   */\n      dup1\n        /* \"#utility.yul\":4108:4120   */\n      revert\n        /* \"#utility.yul\":4070:4122   */\n    tag_106:\n        /* \"#utility.yul\":4150:4159   */\n      dup2\n        /* \"#utility.yul\":4144:4160   */\n      mload\n        /* \"#utility.yul\":4203:4208   */\n      dup1\n        /* \"#utility.yul\":4196:4209   */\n      iszero\n        /* \"#utility.yul\":4189:4210   */\n      iszero\n        /* \"#utility.yul\":4182:4187   */\n      dup2\n        /* \"#utility.yul\":4179:4211   */\n      eq\n        /* \"#utility.yul\":4169:4229   */\n      tag_103\n      jumpi\n        /* \"#utility.yul\":4225:4226   */\n      0x00\n        /* \"#utility.yul\":4222:4223   */\n      dup1\n        /* \"#utility.yul\":4215:4227   */\n      revert\n        /* \"#utility.yul\":4264:4391   */\n    tag_72:\n        /* \"#utility.yul\":4325:4335   */\n      0x4e487b71\n        /* \"#utility.yul\":4320:4323   */\n      0xe0\n        /* \"#utility.yul\":4316:4336   */\n      shl\n        /* \"#utility.yul\":4313:4314   */\n      0x00\n        /* \"#utility.yul\":4306:4337   */\n      mstore\n        /* \"#utility.yul\":4356:4360   */\n      0x01\n        /* \"#utility.yul\":4353:4354   */\n      0x04\n        /* \"#utility.yul\":4346:4361   */\n      mstore\n        /* \"#utility.yul\":4380:4384   */\n      0x24\n        /* \"#utility.yul\":4377:4378   */\n      0x00\n        /* \"#utility.yul\":4370:4385   */\n      revert\n\n    auxdata: 0xa26469706673582212203d2487c3b6f0716f5d7c08dac389d8a7e9377406b9479b07d5152d65487e8ec664736f6c634300080f0033\n}\n",
				"bytecode": {
					"linkReferences": {},
					"object": "608060405234801561001057600080fd5b5060405161061b38038061061b83398101604081905261002f916100a9565b6001600160a01b03811661007b5760405162461bcd60e51b815260206004820152600f60248201526e4e4f542c532030784144445245535360881b604482015260640160405180910390fd5b600080546001600160a01b039092166001600160a01b031992831617905560018054909116331790556100d9565b6000602082840312156100bb57600080fd5b81516001600160a01b03811681146100d257600080fd5b9392505050565b610533806100e86000396000f3fe608060405234801561001057600080fd5b50600436106100575760003560e01c80631753d61c1461005c57806350ae69251461008c578063707cab37146100a35780638da5cb5b146100ab578063a6ceb1f3146100be575b600080fd5b60005461006f906001600160a01b031681565b6040516001600160a01b0390911681526020015b60405180910390f35b61009560025481565b604051908152602001610083565b6100956100d1565b60015461006f906001600160a01b031681565b6100956100cc3660046103b3565b610148565b600080546040516370a0823160e01b81523060048201526001600160a01b03909116906370a0823190602401602060405180830381865afa15801561011a573d6000803e3d6000fd5b505050506040513d601f19601f8201168201806040525081019061013e919061041f565b6002819055919050565b6001546000906001600160a01b031633146101985760405162461bcd60e51b815260206004820152600b60248201526a2727aa16299037bbb732b960a91b60448201526064015b60405180910390fd5b8382146101d95760405162461bcd60e51b815260206004820152600f60248201526e4e4f542c53204c454e475448203d3d60881b604482015260640161018f565b6000805b8381101561021d578484828181106101f7576101f7610438565b90506020020135826102099190610464565b9150806102158161047c565b9150506101dd565b5060025481116102645760405162461bcd60e51b81526020600482015260126024820152711d1bdad95b881a5b9cdd59999a58da595b9d60721b604482015260640161018f565b60005b8581101561034d576000546001600160a01b03166323b872dd3389898581811061029357610293610438565b90506020020160208101906102a89190610495565b8888868181106102ba576102ba610438565b6040516001600160e01b031960e088901b1681526001600160a01b039586166004820152949093166024850152506020909102013560448201526064016020604051808303816000875af1158015610316573d6000803e3d6000fd5b505050506040513d601f19601f8201168201806040525081019061033a91906104c5565b50806103458161047c565b915050610267565b508060031461035e5761035e6104e7565b95945050505050565b60008083601f84011261037957600080fd5b50813567ffffffffffffffff81111561039157600080fd5b6020830191508360208260051b85010111156103ac57600080fd5b9250929050565b600080600080604085870312156103c957600080fd5b843567ffffffffffffffff808211156103e157600080fd5b6103ed88838901610367565b9096509450602087013591508082111561040657600080fd5b5061041387828801610367565b95989497509550505050565b60006020828403121561043157600080fd5b5051919050565b634e487b7160e01b600052603260045260246000fd5b634e487b7160e01b600052601160045260246000fd5b600082198211156104775761047761044e565b500190565b60006001820161048e5761048e61044e565b5060010190565b6000602082840312156104a757600080fd5b81356001600160a01b03811681146104be57600080fd5b9392505050565b6000602082840312156104d757600080fd5b815180151581146104be57600080fd5b634e487b7160e01b600052600160045260246000fdfea26469706673582212203d2487c3b6f0716f5d7c08dac389d8a7e9377406b9479b07d5152d65487e8ec664736f6c634300080f0033",
					"opcodes": "PUSH1 0x80 PUSH1 0x40 MSTORE CALLVALUE DUP1 ISZERO PUSH2 0x10 JUMPI PUSH1 0x0 DUP1 REVERT JUMPDEST POP PUSH1 0x40 MLOAD PUSH2 0x61B CODESIZE SUB DUP1 PUSH2 0x61B DUP4 CODECOPY DUP2 ADD PUSH1 0x40 DUP2 SWAP1 MSTORE PUSH2 0x2F SWAP2 PUSH2 0xA9 JUMP JUMPDEST PUSH1 0x1 PUSH1 0x1 PUSH1 0xA0 SHL SUB DUP2 AND PUSH2 0x7B JUMPI PUSH1 0x40 MLOAD PUSH3 0x461BCD PUSH1 0xE5 SHL DUP2 MSTORE PUSH1 0x20 PUSH1 0x4 DUP3 ADD MSTORE PUSH1 0xF PUSH1 0x24 DUP3 ADD MSTORE PUSH15 0x4E4F542C5320307841444452455353 PUSH1 0x88 SHL PUSH1 0x44 DUP3 ADD MSTORE PUSH1 0x64 ADD PUSH1 0x40 MLOAD DUP1 SWAP2 SUB SWAP1 REVERT JUMPDEST PUSH1 0x0 DUP1 SLOAD PUSH1 0x1 PUSH1 0x1 PUSH1 0xA0 SHL SUB SWAP1 SWAP3 AND PUSH1 0x1 PUSH1 0x1 PUSH1 0xA0 SHL SUB NOT SWAP3 DUP4 AND OR SWAP1 SSTORE PUSH1 0x1 DUP1 SLOAD SWAP1 SWAP2 AND CALLER OR SWAP1 SSTORE PUSH2 0xD9 JUMP JUMPDEST PUSH1 0x0 PUSH1 0x20 DUP3 DUP5 SUB SLT ISZERO PUSH2 0xBB JUMPI PUSH1 0x0 DUP1 REVERT JUMPDEST DUP2 MLOAD PUSH1 0x1 PUSH1 0x1 PUSH1 0xA0 SHL SUB DUP2 AND DUP2 EQ PUSH2 0xD2 JUMPI PUSH1 0x0 DUP1 REVERT JUMPDEST SWAP4 SWAP3 POP POP POP JUMP JUMPDEST PUSH2 0x533 DUP1 PUSH2 0xE8 PUSH1 0x0 CODECOPY PUSH1 0x0 RETURN INVALID PUSH1 0x80 PUSH1 0x40 MSTORE CALLVALUE DUP1 ISZERO PUSH2 0x10 JUMPI PUSH1 0x0 DUP1 REVERT JUMPDEST POP PUSH1 0x4 CALLDATASIZE LT PUSH2 0x57 JUMPI PUSH1 0x0 CALLDATALOAD PUSH1 0xE0 SHR DUP1 PUSH4 0x1753D61C EQ PUSH2 0x5C JUMPI DUP1 PUSH4 0x50AE6925 EQ PUSH2 0x8C JUMPI DUP1 PUSH4 0x707CAB37 EQ PUSH2 0xA3 JUMPI DUP1 PUSH4 0x8DA5CB5B EQ PUSH2 0xAB JUMPI DUP1 PUSH4 0xA6CEB1F3 EQ PUSH2 0xBE JUMPI JUMPDEST PUSH1 0x0 DUP1 REVERT JUMPDEST PUSH1 0x0 SLOAD PUSH2 0x6F SWAP1 PUSH1 0x1 PUSH1 0x1 PUSH1 0xA0 SHL SUB AND DUP2 JUMP JUMPDEST PUSH1 0x40 MLOAD PUSH1 0x1 PUSH1 0x1 PUSH1 0xA0 SHL SUB SWAP1 SWAP2 AND DUP2 MSTORE PUSH1 0x20 ADD JUMPDEST PUSH1 0x40 MLOAD DUP1 SWAP2 SUB SWAP1 RETURN JUMPDEST PUSH2 0x95 PUSH1 0x2 SLOAD DUP2 JUMP JUMPDEST PUSH1 0x40 MLOAD SWAP1 DUP2 MSTORE PUSH1 0x20 ADD PUSH2 0x83 JUMP JUMPDEST PUSH2 0x95 PUSH2 0xD1 JUMP JUMPDEST PUSH1 0x1 SLOAD PUSH2 0x6F SWAP1 PUSH1 0x1 PUSH1 0x1 PUSH1 0xA0 SHL SUB AND DUP2 JUMP JUMPDEST PUSH2 0x95 PUSH2 0xCC CALLDATASIZE PUSH1 0x4 PUSH2 0x3B3 JUMP JUMPDEST PUSH2 0x148 JUMP JUMPDEST PUSH1 0x0 DUP1 SLOAD PUSH1 0x40 MLOAD PUSH4 0x70A08231 PUSH1 0xE0 SHL DUP2 MSTORE ADDRESS PUSH1 0x4 DUP3 ADD MSTORE PUSH1 0x1 PUSH1 0x1 PUSH1 0xA0 SHL SUB SWAP1 SWAP2 AND SWAP1 PUSH4 0x70A08231 SWAP1 PUSH1 0x24 ADD PUSH1 0x20 PUSH1 0x40 MLOAD DUP1 DUP4 SUB DUP2 DUP7 GAS STATICCALL ISZERO DUP1 ISZERO PUSH2 0x11A JUMPI RETURNDATASIZE PUSH1 0x0 DUP1 RETURNDATACOPY RETURNDATASIZE PUSH1 0x0 REVERT JUMPDEST POP POP POP POP PUSH1 0x40 MLOAD RETURNDATASIZE PUSH1 0x1F NOT PUSH1 0x1F DUP3 ADD AND DUP3 ADD DUP1 PUSH1 0x40 MSTORE POP DUP2 ADD SWAP1 PUSH2 0x13E SWAP2 SWAP1 PUSH2 0x41F JUMP JUMPDEST PUSH1 0x2 DUP2 SWAP1 SSTORE SWAP2 SWAP1 POP JUMP JUMPDEST PUSH1 0x1 SLOAD PUSH1 0x0 SWAP1 PUSH1 0x1 PUSH1 0x1 PUSH1 0xA0 SHL SUB AND CALLER EQ PUSH2 0x198 JUMPI PUSH1 0x40 MLOAD PUSH3 0x461BCD PUSH1 0xE5 SHL DUP2 MSTORE PUSH1 0x20 PUSH1 0x4 DUP3 ADD MSTORE PUSH1 0xB PUSH1 0x24 DUP3 ADD MSTORE PUSH11 0x2727AA16299037BBB732B9 PUSH1 0xA9 SHL PUSH1 0x44 DUP3 ADD MSTORE PUSH1 0x64 ADD JUMPDEST PUSH1 0x40 MLOAD DUP1 SWAP2 SUB SWAP1 REVERT JUMPDEST DUP4 DUP3 EQ PUSH2 0x1D9 JUMPI PUSH1 0x40 MLOAD PUSH3 0x461BCD PUSH1 0xE5 SHL DUP2 MSTORE PUSH1 0x20 PUSH1 0x4 DUP3 ADD MSTORE PUSH1 0xF PUSH1 0x24 DUP3 ADD MSTORE PUSH15 0x4E4F542C53204C454E475448203D3D PUSH1 0x88 SHL PUSH1 0x44 DUP3 ADD MSTORE PUSH1 0x64 ADD PUSH2 0x18F JUMP JUMPDEST PUSH1 0x0 DUP1 JUMPDEST DUP4 DUP2 LT ISZERO PUSH2 0x21D JUMPI DUP5 DUP5 DUP3 DUP2 DUP2 LT PUSH2 0x1F7 JUMPI PUSH2 0x1F7 PUSH2 0x438 JUMP JUMPDEST SWAP1 POP PUSH1 0x20 MUL ADD CALLDATALOAD DUP3 PUSH2 0x209 SWAP2 SWAP1 PUSH2 0x464 JUMP JUMPDEST SWAP2 POP DUP1 PUSH2 0x215 DUP2 PUSH2 0x47C JUMP JUMPDEST SWAP2 POP POP PUSH2 0x1DD JUMP JUMPDEST POP PUSH1 0x2 SLOAD DUP2 GT PUSH2 0x264 JUMPI PUSH1 0x40 MLOAD PUSH3 0x461BCD PUSH1 0xE5 SHL DUP2 MSTORE PUSH1 0x20 PUSH1 0x4 DUP3 ADD MSTORE PUSH1 0x12 PUSH1 0x24 DUP3 ADD MSTORE PUSH18 0x1D1BDAD95B881A5B9CDD59999A58DA595B9D PUSH1 0x72 SHL PUSH1 0x44 DUP3 ADD MSTORE PUSH1 0x64 ADD PUSH2 0x18F JUMP JUMPDEST PUSH1 0x0 JUMPDEST DUP6 DUP2 LT ISZERO PUSH2 0x34D JUMPI PUSH1 0x0 SLOAD PUSH1 0x1 PUSH1 0x1 PUSH1 0xA0 SHL SUB AND PUSH4 0x23B872DD CALLER DUP10 DUP10 DUP6 DUP2 DUP2 LT PUSH2 0x293 JUMPI PUSH2 0x293 PUSH2 0x438 JUMP JUMPDEST SWAP1 POP PUSH1 0x20 MUL ADD PUSH1 0x20 DUP2 ADD SWAP1 PUSH2 0x2A8 SWAP2 SWAP1 PUSH2 0x495 JUMP JUMPDEST DUP9 DUP9 DUP7 DUP2 DUP2 LT PUSH2 0x2BA JUMPI PUSH2 0x2BA PUSH2 0x438 JUMP JUMPDEST PUSH1 0x40 MLOAD PUSH1 0x1 PUSH1 0x1 PUSH1 0xE0 SHL SUB NOT PUSH1 0xE0 DUP9 SWAP1 SHL AND DUP2 MSTORE PUSH1 0x1 PUSH1 0x1 PUSH1 0xA0 SHL SUB SWAP6 DUP7 AND PUSH1 0x4 DUP3 ADD MSTORE SWAP5 SWAP1 SWAP4 AND PUSH1 0x24 DUP6 ADD MSTORE POP PUSH1 0x20 SWAP1 SWAP2 MUL ADD CALLDATALOAD PUSH1 0x44 DUP3 ADD MSTORE PUSH1 0x64 ADD PUSH1 0x20 PUSH1 0x40 MLOAD DUP1 DUP4 SUB DUP2 PUSH1 0x0 DUP8 GAS CALL ISZERO DUP1 ISZERO PUSH2 0x316 JUMPI RETURNDATASIZE PUSH1 0x0 DUP1 RETURNDATACOPY RETURNDATASIZE PUSH1 0x0 REVERT JUMPDEST POP POP POP POP PUSH1 0x40 MLOAD RETURNDATASIZE PUSH1 0x1F NOT PUSH1 0x1F DUP3 ADD AND DUP3 ADD DUP1 PUSH1 0x40 MSTORE POP DUP2 ADD SWAP1 PUSH2 0x33A SWAP2 SWAP1 PUSH2 0x4C5 JUMP JUMPDEST POP DUP1 PUSH2 0x345 DUP2 PUSH2 0x47C JUMP JUMPDEST SWAP2 POP POP PUSH2 0x267 JUMP JUMPDEST POP DUP1 PUSH1 0x3 EQ PUSH2 0x35E JUMPI PUSH2 0x35E PUSH2 0x4E7 JUMP JUMPDEST SWAP6 SWAP5 POP POP POP POP POP JUMP JUMPDEST PUSH1 0x0 DUP1 DUP4 PUSH1 0x1F DUP5 ADD SLT PUSH2 0x379 JUMPI PUSH1 0x0 DUP1 REVERT JUMPDEST POP DUP2 CALLDATALOAD PUSH8 0xFFFFFFFFFFFFFFFF DUP2 GT ISZERO PUSH2 0x391 JUMPI PUSH1 0x0 DUP1 REVERT JUMPDEST PUSH1 0x20 DUP4 ADD SWAP2 POP DUP4 PUSH1 0x20 DUP3 PUSH1 0x5 SHL DUP6 ADD ADD GT ISZERO PUSH2 0x3AC JUMPI PUSH1 0x0 DUP1 REVERT JUMPDEST SWAP3 POP SWAP3 SWAP1 POP JUMP JUMPDEST PUSH1 0x0 DUP1 PUSH1 0x0 DUP1 PUSH1 0x40 DUP6 DUP8 SUB SLT ISZERO PUSH2 0x3C9 JUMPI PUSH1 0x0 DUP1 REVERT JUMPDEST DUP5 CALLDATALOAD PUSH8 0xFFFFFFFFFFFFFFFF DUP1 DUP3 GT ISZERO PUSH2 0x3E1 JUMPI PUSH1 0x0 DUP1 REVERT JUMPDEST PUSH2 0x3ED DUP9 DUP4 DUP10 ADD PUSH2 0x367 JUMP JUMPDEST SWAP1 SWAP7 POP SWAP5 POP PUSH1 0x20 DUP8 ADD CALLDATALOAD SWAP2 POP DUP1 DUP3 GT ISZERO PUSH2 0x406 JUMPI PUSH1 0x0 DUP1 REVERT JUMPDEST POP PUSH2 0x413 DUP8 DUP3 DUP9 ADD PUSH2 0x367 JUMP JUMPDEST SWAP6 SWAP9 SWAP5 SWAP8 POP SWAP6 POP POP POP POP JUMP JUMPDEST PUSH1 0x0 PUSH1 0x20 DUP3 DUP5 SUB SLT ISZERO PUSH2 0x431 JUMPI PUSH1 0x0 DUP1 REVERT JUMPDEST POP MLOAD SWAP2 SWAP1 POP JUMP JUMPDEST PUSH4 0x4E487B71 PUSH1 0xE0 SHL PUSH1 0x0 MSTORE PUSH1 0x32 PUSH1 0x4 MSTORE PUSH1 0x24 PUSH1 0x0 REVERT JUMPDEST PUSH4 0x4E487B71 PUSH1 0xE0 SHL PUSH1 0x0 MSTORE PUSH1 0x11 PUSH1 0x4 MSTORE PUSH1 0x24 PUSH1 0x0 REVERT JUMPDEST PUSH1 0x0 DUP3 NOT DUP3 GT ISZERO PUSH2 0x477 JUMPI PUSH2 0x477 PUSH2 0x44E JUMP JUMPDEST POP ADD SWAP1 JUMP JUMPDEST PUSH1 0x0 PUSH1 0x1 DUP3 ADD PUSH2 0x48E JUMPI PUSH2 0x48E PUSH2 0x44E JUMP JUMPDEST POP PUSH1 0x1 ADD SWAP1 JUMP JUMPDEST PUSH1 0x0 PUSH1 0x20 DUP3 DUP5 SUB SLT ISZERO PUSH2 0x4A7 JUMPI PUSH1 0x0 DUP1 REVERT JUMPDEST DUP2 CALLDATALOAD PUSH1 0x1 PUSH1 0x1 PUSH1 0xA0 SHL SUB DUP2 AND DUP2 EQ PUSH2 0x4BE JUMPI PUSH1 0x0 DUP1 REVERT JUMPDEST SWAP4 SWAP3 POP POP POP JUMP JUMPDEST PUSH1 0x0 PUSH1 0x20 DUP3 DUP5 SUB SLT ISZERO PUSH2 0x4D7 JUMPI PUSH1 0x0 DUP1 REVERT JUMPDEST DUP2 MLOAD DUP1 ISZERO ISZERO DUP2 EQ PUSH2 0x4BE JUMPI PUSH1 0x0 DUP1 REVERT JUMPDEST PUSH4 0x4E487B71 PUSH1 0xE0 SHL PUSH1 0x0 MSTORE PUSH1 0x1 PUSH1 0x4 MSTORE PUSH1 0x24 PUSH1 0x0 REVERT INVALID LOG2 PUSH5 0x6970667358 0x22 SLT KECCAK256 RETURNDATASIZE 0x24 DUP8 0xC3 0xB6 CREATE PUSH18 0x6F5D7C08DAC389D8A7E9377406B9479B07D5 ISZERO 0x2D PUSH6 0x487E8EC66473 PUSH16 0x6C634300080F00330000000000000000 "
				},
				"gasEstimates": {
					"creation": {
						"codeDepositCost": "266200",
						"executionCost": "infinite",
						"totalCost": "infinite"
					},
					"external": {
						"AirdropToken()": "2304",
						"_getSendTokenNumber()": "2295",
						"getSendTokenNumber()": "infinite",
						"owner()": "2370",
						"sendAirdrop(address[],uint256[])": "infinite"
					}
				},
				"methodIdentifiers": {
					"AirdropToken()": "1753d61c",
					"_getSendTokenNumber()": "50ae6925",
					"getSendTokenNumber()": "707cab37",
					"owner()": "8da5cb5b",
					"sendAirdrop(address[],uint256[])": "a6ceb1f3"
				}
			},
			"storageLayout": {
				"storage": [
					{
						"astId": 31,
						"contract": "写项目基础/空投合约.sol:Airdrop",
						"label": "AirdropToken",
						"offset": 0,
						"slot": "0",
						"type": "t_address"
					},
					{
						"astId": 33,
						"contract": "写项目基础/空投合约.sol:Airdrop",
						"label": "owner",
						"offset": 0,
						"slot": "1",
						"type": "t_address"
					},
					{
						"astId": 35,
						"contract": "写项目基础/空投合约.sol:Airdrop",
						"label": "_getSendTokenNumber",
						"offset": 0,
						"slot": "2",
						"type": "t_uint256"
					}
				],
				"types": {
					"t_address": {
						"encoding": "inplace",
						"label": "address",
						"numberOfBytes": "20"
					},
					"t_uint256": {
						"encoding": "inplace",
						"label": "uint256",
						"numberOfBytes": "32"
					}
				}
			},
			"userdoc": {
				"kind": "user",
				"methods": {},
				"version": 1
			}
		}
	}
}