{
	"学习基础/写个蓝图计划.sol": {
		"BluePlan": {
			"abi": [
				{
					"inputs": [],
					"name": "interest",
					"outputs": [
						{
							"internalType": "uint256",
							"name": "",
							"type": "uint256"
						}
					],
					"stateMutability": "view",
					"type": "function"
				}
			],
			"devdoc": {
				"kind": "dev",
				"methods": {},
				"version": 1
			},
			"evm": {
				"assembly": "    /* \"\\xe5\\xad\\xa6\\xe4\\xb9\\xa0\\xe5\\x9f\\xba\\xe7\\xa1\\x80/\\xe5\\x86\\x99\\xe4\\xb8\\xaa\\xe8\\x93\\x9d\\xe5\\x9b\\xbe\\xe8\\xae\\xa1\\xe5\\x88\\x92.sol\":67:130  contract BluePlan {... */\n  mstore(0x40, 0x80)\n  callvalue\n  dup1\n  iszero\n  tag_1\n  jumpi\n  0x00\n  dup1\n  revert\ntag_1:\n  pop\n  dataSize(sub_0)\n  dup1\n  dataOffset(sub_0)\n  0x00\n  codecopy\n  0x00\n  return\nstop\n\nsub_0: assembly {\n        /* \"\\xe5\\xad\\xa6\\xe4\\xb9\\xa0\\xe5\\x9f\\xba\\xe7\\xa1\\x80/\\xe5\\x86\\x99\\xe4\\xb8\\xaa\\xe8\\x93\\x9d\\xe5\\x9b\\xbe\\xe8\\xae\\xa1\\xe5\\x88\\x92.sol\":67:130  contract BluePlan {... */\n      mstore(0x40, 0x80)\n      callvalue\n      dup1\n      iszero\n      tag_1\n      jumpi\n      0x00\n      dup1\n      revert\n    tag_1:\n      pop\n      jumpi(tag_2, lt(calldatasize, 0x04))\n      shr(0xe0, calldataload(0x00))\n      dup1\n      0xc392f766\n      eq\n      tag_3\n      jumpi\n    tag_2:\n      0x00\n      dup1\n      revert\n        /* \"\\xe5\\xad\\xa6\\xe4\\xb9\\xa0\\xe5\\x9f\\xba\\xe7\\xa1\\x80/\\xe5\\x86\\x99\\xe4\\xb8\\xaa\\xe8\\x93\\x9d\\xe5\\x9b\\xbe\\xe8\\xae\\xa1\\xe5\\x88\\x92.sol\":98:118  uint public interest */\n    tag_3:\n      tag_4\n      sload(0x00)\n      dup2\n      jump\n    tag_4:\n      mload(0x40)\n        /* \"#utility.yul\":160:185   */\n      swap1\n      dup2\n      mstore\n        /* \"#utility.yul\":148:150   */\n      0x20\n        /* \"#utility.yul\":133:151   */\n      add\n        /* \"\\xe5\\xad\\xa6\\xe4\\xb9\\xa0\\xe5\\x9f\\xba\\xe7\\xa1\\x80/\\xe5\\x86\\x99\\xe4\\xb8\\xaa\\xe8\\x93\\x9d\\xe5\\x9b\\xbe\\xe8\\xae\\xa1\\xe5\\x88\\x92.sol\":98:118  uint public interest */\n      mload(0x40)\n      dup1\n      swap2\n      sub\n      swap1\n      return\n\n    auxdata: 0xa264697066735822122024d4a5a37e8451144739a2f45c0f7c1931ca7903dce34d0f78cb4f552196cbd264736f6c634300080f0033\n}\n",
				"bytecode": {
					"linkReferences": {},
					"object": "6080604052348015600f57600080fd5b50607d8061001e6000396000f3fe6080604052348015600f57600080fd5b506004361060285760003560e01c8063c392f76614602d575b600080fd5b603560005481565b60405190815260200160405180910390f3fea264697066735822122024d4a5a37e8451144739a2f45c0f7c1931ca7903dce34d0f78cb4f552196cbd264736f6c634300080f0033",
					"opcodes": "PUSH1 0x80 PUSH1 0x40 MSTORE CALLVALUE DUP1 ISZERO PUSH1 0xF JUMPI PUSH1 0x0 DUP1 REVERT JUMPDEST POP PUSH1 0x7D DUP1 PUSH2 0x1E PUSH1 0x0 CODECOPY PUSH1 0x0 RETURN INVALID PUSH1 0x80 PUSH1 0x40 MSTORE CALLVALUE DUP1 ISZERO PUSH1 0xF JUMPI PUSH1 0x0 DUP1 REVERT JUMPDEST POP PUSH1 0x4 CALLDATASIZE LT PUSH1 0x28 JUMPI PUSH1 0x0 CALLDATALOAD PUSH1 0xE0 SHR DUP1 PUSH4 0xC392F766 EQ PUSH1 0x2D JUMPI JUMPDEST PUSH1 0x0 DUP1 REVERT JUMPDEST PUSH1 0x35 PUSH1 0x0 SLOAD DUP2 JUMP JUMPDEST PUSH1 0x40 MLOAD SWAP1 DUP2 MSTORE PUSH1 0x20 ADD PUSH1 0x40 MLOAD DUP1 SWAP2 SUB SWAP1 RETURN INVALID LOG2 PUSH5 0x6970667358 0x22 SLT KECCAK256 0x24 0xD4 0xA5 LOG3 PUSH31 0x8451144739A2F45C0F7C1931CA7903DCE34D0F78CB4F552196CBD264736F6C PUSH4 0x4300080F STOP CALLER "
				},
				"gasEstimates": {
					"creation": {
						"codeDepositCost": "25000",
						"executionCost": "75",
						"totalCost": "25075"
					},
					"external": {
						"interest()": "2261"
					}
				},
				"methodIdentifiers": {
					"interest()": "c392f766"
				}
			},
			"storageLayout": {
				"storage": [
					{
						"astId": 3,
						"contract": "学习基础/写个蓝图计划.sol:BluePlan",
						"label": "interest",
						"offset": 0,
						"slot": "0",
						"type": "t_uint256"
					}
				],
				"types": {
					"t_uint256": {
						"encoding": "inplace",
						"label": "uint256",
						"numberOfBytes": "32"
					}
				}
			},
			"userdoc": {
				"kind": "user",
				"methods": {},
				"version": 1
			}
		}
	}
}