{
	"学习基础/写个蓝图计划.sol": {
		"BluePlan": {
			"abi": [
				{
					"inputs": [
						{
							"internalType": "uint256",
							"name": "_interest",
							"type": "uint256"
						},
						{
							"internalType": "address",
							"name": "_rewardToken",
							"type": "address"
						}
					],
					"stateMutability": "nonpayable",
					"type": "constructor"
				},
				{
					"inputs": [
						{
							"internalType": "address[]",
							"name": "_rewarduser",
							"type": "address[]"
						}
					],
					"name": "SetReward",
					"outputs": [],
					"stateMutability": "nonpayable",
					"type": "function"
				},
				{
					"inputs": [
						{
							"internalType": "address",
							"name": "",
							"type": "address"
						}
					],
					"name": "User_Map",
					"outputs": [
						{
							"internalType": "uint256",
							"name": "userReward",
							"type": "uint256"
						},
						{
							"internalType": "bool",
							"name": "userstate",
							"type": "bool"
						}
					],
					"stateMutability": "view",
					"type": "function"
				},
				{
					"inputs": [],
					"name": "interest",
					"outputs": [
						{
							"internalType": "uint256",
							"name": "",
							"type": "uint256"
						}
					],
					"stateMutability": "view",
					"type": "function"
				},
				{
					"inputs": [],
					"name": "owner",
					"outputs": [
						{
							"internalType": "address",
							"name": "",
							"type": "address"
						}
					],
					"stateMutability": "view",
					"type": "function"
				},
				{
					"inputs": [],
					"name": "rewardToken",
					"outputs": [
						{
							"internalType": "address",
							"name": "",
							"type": "address"
						}
					],
					"stateMutability": "view",
					"type": "function"
				}
			],
			"devdoc": {
				"kind": "dev",
				"methods": {},
				"version": 1
			},
			"evm": {
				"assembly": "    /* \"\\xe5\\xad\\xa6\\xe4\\xb9\\xa0\\xe5\\x9f\\xba\\xe7\\xa1\\x80/\\xe5\\x86\\x99\\xe4\\xb8\\xaa\\xe8\\x93\\x9d\\xe5\\x9b\\xbe\\xe8\\xae\\xa1\\xe5\\x88\\x92.sol\":67:592  contract BluePlan {... */\n  mstore(0x40, 0x80)\n    /* \"\\xe5\\xad\\xa6\\xe4\\xb9\\xa0\\xe5\\x9f\\xba\\xe7\\xa1\\x80/\\xe5\\x86\\x99\\xe4\\xb8\\xaa\\xe8\\x93\\x9d\\xe5\\x9b\\xbe\\xe8\\xae\\xa1\\xe5\\x88\\x92.sol\":341:497  constructor (uint _interest, address _rewardToken) {... */\n  callvalue\n  dup1\n  iszero\n  tag_1\n  jumpi\n  0x00\n  dup1\n  revert\ntag_1:\n  pop\n  mload(0x40)\n  sub(codesize, bytecodeSize)\n  dup1\n  bytecodeSize\n  dup4\n  codecopy\n  dup2\n  add\n  0x40\n  dup2\n  swap1\n  mstore\n  tag_2\n  swap2\n  tag_3\n  jump\t// in\ntag_2:\n    /* \"\\xe5\\xad\\xa6\\xe4\\xb9\\xa0\\xe5\\x9f\\xba\\xe7\\xa1\\x80/\\xe5\\x86\\x99\\xe4\\xb8\\xaa\\xe8\\x93\\x9d\\xe5\\x9b\\xbe\\xe8\\xae\\xa1\\xe5\\x88\\x92.sol\":403:411  interest */\n  0x00\n    /* \"\\xe5\\xad\\xa6\\xe4\\xb9\\xa0\\xe5\\x9f\\xba\\xe7\\xa1\\x80/\\xe5\\x86\\x99\\xe4\\xb8\\xaa\\xe8\\x93\\x9d\\xe5\\x9b\\xbe\\xe8\\xae\\xa1\\xe5\\x88\\x92.sol\":403:423  interest = _interest */\n  swap2\n  swap1\n  swap2\n  sstore\n    /* \"\\xe5\\xad\\xa6\\xe4\\xb9\\xa0\\xe5\\x9f\\xba\\xe7\\xa1\\x80/\\xe5\\x86\\x99\\xe4\\xb8\\xaa\\xe8\\x93\\x9d\\xe5\\x9b\\xbe\\xe8\\xae\\xa1\\xe5\\x88\\x92.sol\":434:445  rewardToken */\n  0x01\n    /* \"\\xe5\\xad\\xa6\\xe4\\xb9\\xa0\\xe5\\x9f\\xba\\xe7\\xa1\\x80/\\xe5\\x86\\x99\\xe4\\xb8\\xaa\\xe8\\x93\\x9d\\xe5\\x9b\\xbe\\xe8\\xae\\xa1\\xe5\\x88\\x92.sol\":434:460  rewardToken = _rewardToken */\n  dup1\n  sload\n  sub(shl(0xa0, 0x01), 0x01)\n  swap1\n  swap3\n  and\n  not(sub(shl(0xa0, 0x01), 0x01))\n  swap3\n  dup4\n  and\n  or\n  swap1\n  sstore\n    /* \"\\xe5\\xad\\xa6\\xe4\\xb9\\xa0\\xe5\\x9f\\xba\\xe7\\xa1\\x80/\\xe5\\x86\\x99\\xe4\\xb8\\xaa\\xe8\\x93\\x9d\\xe5\\x9b\\xbe\\xe8\\xae\\xa1\\xe5\\x88\\x92.sol\":471:476  owner */\n  0x02\n    /* \"\\xe5\\xad\\xa6\\xe4\\xb9\\xa0\\xe5\\x9f\\xba\\xe7\\xa1\\x80/\\xe5\\x86\\x99\\xe4\\xb8\\xaa\\xe8\\x93\\x9d\\xe5\\x9b\\xbe\\xe8\\xae\\xa1\\xe5\\x88\\x92.sol\":471:489  owner = msg.sender */\n  dup1\n  sload\n  swap1\n  swap2\n  and\n    /* \"\\xe5\\xad\\xa6\\xe4\\xb9\\xa0\\xe5\\x9f\\xba\\xe7\\xa1\\x80/\\xe5\\x86\\x99\\xe4\\xb8\\xaa\\xe8\\x93\\x9d\\xe5\\x9b\\xbe\\xe8\\xae\\xa1\\xe5\\x88\\x92.sol\":479:489  msg.sender */\n  caller\n    /* \"\\xe5\\xad\\xa6\\xe4\\xb9\\xa0\\xe5\\x9f\\xba\\xe7\\xa1\\x80/\\xe5\\x86\\x99\\xe4\\xb8\\xaa\\xe8\\x93\\x9d\\xe5\\x9b\\xbe\\xe8\\xae\\xa1\\xe5\\x88\\x92.sol\":471:489  owner = msg.sender */\n  or\n  swap1\n  sstore\n    /* \"\\xe5\\xad\\xa6\\xe4\\xb9\\xa0\\xe5\\x9f\\xba\\xe7\\xa1\\x80/\\xe5\\x86\\x99\\xe4\\xb8\\xaa\\xe8\\x93\\x9d\\xe5\\x9b\\xbe\\xe8\\xae\\xa1\\xe5\\x88\\x92.sol\":67:592  contract BluePlan {... */\n  jump(tag_7)\n    /* \"#utility.yul\":14:365   */\ntag_3:\n    /* \"#utility.yul\":93:99   */\n  0x00\n    /* \"#utility.yul\":101:107   */\n  dup1\n    /* \"#utility.yul\":154:156   */\n  0x40\n    /* \"#utility.yul\":142:151   */\n  dup4\n    /* \"#utility.yul\":133:140   */\n  dup6\n    /* \"#utility.yul\":129:152   */\n  sub\n    /* \"#utility.yul\":125:157   */\n  slt\n    /* \"#utility.yul\":122:174   */\n  iszero\n  tag_9\n  jumpi\n    /* \"#utility.yul\":170:171   */\n  0x00\n    /* \"#utility.yul\":167:168   */\n  dup1\n    /* \"#utility.yul\":160:172   */\n  revert\n    /* \"#utility.yul\":122:174   */\ntag_9:\n    /* \"#utility.yul\":193:209   */\n  dup3\n  mload\n    /* \"#utility.yul\":252:254   */\n  0x20\n    /* \"#utility.yul\":237:255   */\n  dup5\n  add\n    /* \"#utility.yul\":231:256   */\n  mload\n    /* \"#utility.yul\":193:209   */\n  swap1\n  swap3\n  pop\n  sub(shl(0xa0, 0x01), 0x01)\n    /* \"#utility.yul\":285:316   */\n  dup2\n  and\n    /* \"#utility.yul\":275:317   */\n  dup2\n  eq\n    /* \"#utility.yul\":265:335   */\n  tag_10\n  jumpi\n    /* \"#utility.yul\":331:332   */\n  0x00\n    /* \"#utility.yul\":328:329   */\n  dup1\n    /* \"#utility.yul\":321:333   */\n  revert\n    /* \"#utility.yul\":265:335   */\ntag_10:\n    /* \"#utility.yul\":354:359   */\n  dup1\n    /* \"#utility.yul\":344:359   */\n  swap2\n  pop\n  pop\n    /* \"#utility.yul\":14:365   */\n  swap3\n  pop\n  swap3\n  swap1\n  pop\n  jump\t// out\ntag_7:\n    /* \"\\xe5\\xad\\xa6\\xe4\\xb9\\xa0\\xe5\\x9f\\xba\\xe7\\xa1\\x80/\\xe5\\x86\\x99\\xe4\\xb8\\xaa\\xe8\\x93\\x9d\\xe5\\x9b\\xbe\\xe8\\xae\\xa1\\xe5\\x88\\x92.sol\":67:592  contract BluePlan {... */\n  dataSize(sub_0)\n  dup1\n  dataOffset(sub_0)\n  0x00\n  codecopy\n  0x00\n  return\nstop\n\nsub_0: assembly {\n        /* \"\\xe5\\xad\\xa6\\xe4\\xb9\\xa0\\xe5\\x9f\\xba\\xe7\\xa1\\x80/\\xe5\\x86\\x99\\xe4\\xb8\\xaa\\xe8\\x93\\x9d\\xe5\\x9b\\xbe\\xe8\\xae\\xa1\\xe5\\x88\\x92.sol\":67:592  contract BluePlan {... */\n      mstore(0x40, 0x80)\n      callvalue\n      dup1\n      iszero\n      tag_1\n      jumpi\n      0x00\n      dup1\n      revert\n    tag_1:\n      pop\n      jumpi(tag_2, lt(calldatasize, 0x04))\n      shr(0xe0, calldataload(0x00))\n      dup1\n      0x8c93ecff\n      eq\n      tag_3\n      jumpi\n      dup1\n      0x8da5cb5b\n      eq\n      tag_4\n      jumpi\n      dup1\n      0xc392f766\n      eq\n      tag_5\n      jumpi\n      dup1\n      0xf41185b8\n      eq\n      tag_6\n      jumpi\n      dup1\n      0xf7c618c1\n      eq\n      tag_7\n      jumpi\n    tag_2:\n      0x00\n      dup1\n      revert\n        /* \"\\xe5\\xad\\xa6\\xe4\\xb9\\xa0\\xe5\\x9f\\xba\\xe7\\xa1\\x80/\\xe5\\x86\\x99\\xe4\\xb8\\xaa\\xe8\\x93\\x9d\\xe5\\x9b\\xbe\\xe8\\xae\\xa1\\xe5\\x88\\x92.sol\":292:332  mapping(address => User) public User_Map */\n    tag_3:\n      tag_8\n      tag_9\n      calldatasize\n      0x04\n      tag_10\n      jump\t// in\n    tag_9:\n      mstore(0x20, 0x03)\n      0x00\n      swap1\n      dup2\n      mstore\n      0x40\n      swap1\n      keccak256\n      dup1\n      sload\n      0x01\n      swap1\n      swap2\n      add\n      sload\n      0xff\n      and\n      dup3\n      jump\n    tag_8:\n      0x40\n      dup1\n      mload\n        /* \"#utility.yul\":551:576   */\n      swap3\n      dup4\n      mstore\n        /* \"#utility.yul\":619:633   */\n      swap1\n      iszero\n        /* \"#utility.yul\":612:634   */\n      iszero\n        /* \"#utility.yul\":607:609   */\n      0x20\n        /* \"#utility.yul\":592:610   */\n      dup4\n      add\n        /* \"#utility.yul\":585:635   */\n      mstore\n        /* \"#utility.yul\":524:542   */\n      add\n        /* \"\\xe5\\xad\\xa6\\xe4\\xb9\\xa0\\xe5\\x9f\\xba\\xe7\\xa1\\x80/\\xe5\\x86\\x99\\xe4\\xb8\\xaa\\xe8\\x93\\x9d\\xe5\\x9b\\xbe\\xe8\\xae\\xa1\\xe5\\x88\\x92.sol\":292:332  mapping(address => User) public User_Map */\n    tag_12:\n      mload(0x40)\n      dup1\n      swap2\n      sub\n      swap1\n      return\n        /* \"\\xe5\\xad\\xa6\\xe4\\xb9\\xa0\\xe5\\x9f\\xba\\xe7\\xa1\\x80/\\xe5\\x86\\x99\\xe4\\xb8\\xaa\\xe8\\x93\\x9d\\xe5\\x9b\\xbe\\xe8\\xae\\xa1\\xe5\\x88\\x92.sol\":181:201  address public owner */\n    tag_4:\n      sload(0x02)\n      tag_14\n      swap1\n      sub(shl(0xa0, 0x01), 0x01)\n      and\n      dup2\n      jump\n    tag_14:\n      mload(0x40)\n      sub(shl(0xa0, 0x01), 0x01)\n        /* \"#utility.yul\":810:842   */\n      swap1\n      swap2\n      and\n        /* \"#utility.yul\":792:843   */\n      dup2\n      mstore\n        /* \"#utility.yul\":780:782   */\n      0x20\n        /* \"#utility.yul\":765:783   */\n      add\n        /* \"\\xe5\\xad\\xa6\\xe4\\xb9\\xa0\\xe5\\x9f\\xba\\xe7\\xa1\\x80/\\xe5\\x86\\x99\\xe4\\xb8\\xaa\\xe8\\x93\\x9d\\xe5\\x9b\\xbe\\xe8\\xae\\xa1\\xe5\\x88\\x92.sol\":181:201  address public owner */\n      tag_12\n        /* \"#utility.yul\":646:849   */\n      jump\n        /* \"\\xe5\\xad\\xa6\\xe4\\xb9\\xa0\\xe5\\x9f\\xba\\xe7\\xa1\\x80/\\xe5\\x86\\x99\\xe4\\xb8\\xaa\\xe8\\x93\\x9d\\xe5\\x9b\\xbe\\xe8\\xae\\xa1\\xe5\\x88\\x92.sol\":121:141  uint public interest */\n    tag_5:\n      tag_18\n      sload(0x00)\n      dup2\n      jump\n    tag_18:\n      mload(0x40)\n        /* \"#utility.yul\":1000:1025   */\n      swap1\n      dup2\n      mstore\n        /* \"#utility.yul\":988:990   */\n      0x20\n        /* \"#utility.yul\":973:991   */\n      add\n        /* \"\\xe5\\xad\\xa6\\xe4\\xb9\\xa0\\xe5\\x9f\\xba\\xe7\\xa1\\x80/\\xe5\\x86\\x99\\xe4\\xb8\\xaa\\xe8\\x93\\x9d\\xe5\\x9b\\xbe\\xe8\\xae\\xa1\\xe5\\x88\\x92.sol\":121:141  uint public interest */\n      tag_12\n        /* \"#utility.yul\":854:1031   */\n      jump\n        /* \"\\xe5\\xad\\xa6\\xe4\\xb9\\xa0\\xe5\\x9f\\xba\\xe7\\xa1\\x80/\\xe5\\x86\\x99\\xe4\\xb8\\xaa\\xe8\\x93\\x9d\\xe5\\x9b\\xbe\\xe8\\xae\\xa1\\xe5\\x88\\x92.sol\":505:581  function SetReward(address[] memory _rewarduser) public {... */\n    tag_6:\n      tag_22\n      tag_23\n      calldatasize\n      0x04\n      tag_24\n      jump\t// in\n    tag_23:\n      pop\n      jump\n    tag_22:\n      stop\n        /* \"\\xe5\\xad\\xa6\\xe4\\xb9\\xa0\\xe5\\x9f\\xba\\xe7\\xa1\\x80/\\xe5\\x86\\x99\\xe4\\xb8\\xaa\\xe8\\x93\\x9d\\xe5\\x9b\\xbe\\xe8\\xae\\xa1\\xe5\\x88\\x92.sol\":148:174  address public rewardToken */\n    tag_7:\n      sload(0x01)\n      tag_14\n      swap1\n      sub(shl(0xa0, 0x01), 0x01)\n      and\n      dup2\n      jump\n        /* \"#utility.yul\":14:187   */\n    tag_30:\n        /* \"#utility.yul\":82:102   */\n      dup1\n      calldataload\n      sub(shl(0xa0, 0x01), 0x01)\n        /* \"#utility.yul\":131:162   */\n      dup2\n      and\n        /* \"#utility.yul\":121:163   */\n      dup2\n      eq\n        /* \"#utility.yul\":111:181   */\n      tag_34\n      jumpi\n        /* \"#utility.yul\":177:178   */\n      0x00\n        /* \"#utility.yul\":174:175   */\n      dup1\n        /* \"#utility.yul\":167:179   */\n      revert\n        /* \"#utility.yul\":111:181   */\n    tag_34:\n        /* \"#utility.yul\":14:187   */\n      swap2\n      swap1\n      pop\n      jump\t// out\n        /* \"#utility.yul\":192:378   */\n    tag_10:\n        /* \"#utility.yul\":251:257   */\n      0x00\n        /* \"#utility.yul\":304:306   */\n      0x20\n        /* \"#utility.yul\":292:301   */\n      dup3\n        /* \"#utility.yul\":283:290   */\n      dup5\n        /* \"#utility.yul\":279:302   */\n      sub\n        /* \"#utility.yul\":275:307   */\n      slt\n        /* \"#utility.yul\":272:324   */\n      iszero\n      tag_36\n      jumpi\n        /* \"#utility.yul\":320:321   */\n      0x00\n        /* \"#utility.yul\":317:318   */\n      dup1\n        /* \"#utility.yul\":310:322   */\n      revert\n        /* \"#utility.yul\":272:324   */\n    tag_36:\n        /* \"#utility.yul\":343:372   */\n      tag_37\n        /* \"#utility.yul\":362:371   */\n      dup3\n        /* \"#utility.yul\":343:372   */\n      tag_30\n      jump\t// in\n    tag_37:\n        /* \"#utility.yul\":333:372   */\n      swap4\n        /* \"#utility.yul\":192:378   */\n      swap3\n      pop\n      pop\n      pop\n      jump\t// out\n        /* \"#utility.yul\":1036:1163   */\n    tag_31:\n        /* \"#utility.yul\":1097:1107   */\n      0x4e487b71\n        /* \"#utility.yul\":1092:1095   */\n      0xe0\n        /* \"#utility.yul\":1088:1108   */\n      shl\n        /* \"#utility.yul\":1085:1086   */\n      0x00\n        /* \"#utility.yul\":1078:1109   */\n      mstore\n        /* \"#utility.yul\":1128:1132   */\n      0x41\n        /* \"#utility.yul\":1125:1126   */\n      0x04\n        /* \"#utility.yul\":1118:1133   */\n      mstore\n        /* \"#utility.yul\":1152:1156   */\n      0x24\n        /* \"#utility.yul\":1149:1150   */\n      0x00\n        /* \"#utility.yul\":1142:1157   */\n      revert\n        /* \"#utility.yul\":1168:2289   */\n    tag_24:\n        /* \"#utility.yul\":1252:1258   */\n      0x00\n        /* \"#utility.yul\":1283:1285   */\n      0x20\n        /* \"#utility.yul\":1326:1328   */\n      dup1\n        /* \"#utility.yul\":1314:1323   */\n      dup4\n        /* \"#utility.yul\":1305:1312   */\n      dup6\n        /* \"#utility.yul\":1301:1324   */\n      sub\n        /* \"#utility.yul\":1297:1329   */\n      slt\n        /* \"#utility.yul\":1294:1346   */\n      iszero\n      tag_43\n      jumpi\n        /* \"#utility.yul\":1342:1343   */\n      0x00\n        /* \"#utility.yul\":1339:1340   */\n      dup1\n        /* \"#utility.yul\":1332:1344   */\n      revert\n        /* \"#utility.yul\":1294:1346   */\n    tag_43:\n        /* \"#utility.yul\":1382:1391   */\n      dup3\n        /* \"#utility.yul\":1369:1392   */\n      calldataload\n        /* \"#utility.yul\":1411:1429   */\n      0xffffffffffffffff\n        /* \"#utility.yul\":1452:1454   */\n      dup1\n        /* \"#utility.yul\":1444:1450   */\n      dup3\n        /* \"#utility.yul\":1441:1455   */\n      gt\n        /* \"#utility.yul\":1438:1472   */\n      iszero\n      tag_44\n      jumpi\n        /* \"#utility.yul\":1468:1469   */\n      0x00\n        /* \"#utility.yul\":1465:1466   */\n      dup1\n        /* \"#utility.yul\":1458:1470   */\n      revert\n        /* \"#utility.yul\":1438:1472   */\n    tag_44:\n        /* \"#utility.yul\":1506:1512   */\n      dup2\n        /* \"#utility.yul\":1495:1504   */\n      dup6\n        /* \"#utility.yul\":1491:1513   */\n      add\n        /* \"#utility.yul\":1481:1513   */\n      swap2\n      pop\n        /* \"#utility.yul\":1551:1558   */\n      dup6\n        /* \"#utility.yul\":1544:1548   */\n      0x1f\n        /* \"#utility.yul\":1540:1542   */\n      dup4\n        /* \"#utility.yul\":1536:1549   */\n      add\n        /* \"#utility.yul\":1532:1559   */\n      slt\n        /* \"#utility.yul\":1522:1577   */\n      tag_45\n      jumpi\n        /* \"#utility.yul\":1573:1574   */\n      0x00\n        /* \"#utility.yul\":1570:1571   */\n      dup1\n        /* \"#utility.yul\":1563:1575   */\n      revert\n        /* \"#utility.yul\":1522:1577   */\n    tag_45:\n        /* \"#utility.yul\":1609:1611   */\n      dup2\n        /* \"#utility.yul\":1596:1612   */\n      calldataload\n        /* \"#utility.yul\":1631:1633   */\n      dup2\n        /* \"#utility.yul\":1627:1629   */\n      dup2\n        /* \"#utility.yul\":1624:1634   */\n      gt\n        /* \"#utility.yul\":1621:1657   */\n      iszero\n      tag_47\n      jumpi\n        /* \"#utility.yul\":1637:1655   */\n      tag_47\n      tag_31\n      jump\t// in\n    tag_47:\n        /* \"#utility.yul\":1683:1685   */\n      dup1\n        /* \"#utility.yul\":1680:1681   */\n      0x05\n        /* \"#utility.yul\":1676:1686   */\n      shl\n        /* \"#utility.yul\":1715:1717   */\n      0x40\n        /* \"#utility.yul\":1709:1718   */\n      mload\n        /* \"#utility.yul\":1778:1780   */\n      0x1f\n        /* \"#utility.yul\":1774:1781   */\n      not\n        /* \"#utility.yul\":1769:1771   */\n      0x3f\n        /* \"#utility.yul\":1765:1767   */\n      dup4\n        /* \"#utility.yul\":1761:1772   */\n      add\n        /* \"#utility.yul\":1757:1782   */\n      and\n        /* \"#utility.yul\":1749:1755   */\n      dup2\n        /* \"#utility.yul\":1745:1783   */\n      add\n        /* \"#utility.yul\":1833:1839   */\n      dup2\n        /* \"#utility.yul\":1821:1831   */\n      dup2\n        /* \"#utility.yul\":1818:1840   */\n      lt\n        /* \"#utility.yul\":1813:1815   */\n      dup6\n        /* \"#utility.yul\":1801:1811   */\n      dup3\n        /* \"#utility.yul\":1798:1816   */\n      gt\n        /* \"#utility.yul\":1795:1841   */\n      or\n        /* \"#utility.yul\":1792:1864   */\n      iszero\n      tag_49\n      jumpi\n        /* \"#utility.yul\":1844:1862   */\n      tag_49\n      tag_31\n      jump\t// in\n    tag_49:\n        /* \"#utility.yul\":1880:1882   */\n      0x40\n        /* \"#utility.yul\":1873:1895   */\n      mstore\n        /* \"#utility.yul\":1930:1948   */\n      swap2\n      dup3\n      mstore\n        /* \"#utility.yul\":1964:1979   */\n      dup5\n      dup3\n      add\n      swap3\n      pop\n        /* \"#utility.yul\":2006:2017   */\n      dup4\n      dup2\n      add\n        /* \"#utility.yul\":2002:2022   */\n      dup6\n      add\n      swap2\n        /* \"#utility.yul\":2034:2053   */\n      dup9\n      dup4\n      gt\n        /* \"#utility.yul\":2031:2070   */\n      iszero\n      tag_50\n      jumpi\n        /* \"#utility.yul\":2066:2067   */\n      0x00\n        /* \"#utility.yul\":2063:2064   */\n      dup1\n        /* \"#utility.yul\":2056:2068   */\n      revert\n        /* \"#utility.yul\":2031:2070   */\n    tag_50:\n        /* \"#utility.yul\":2090:2101   */\n      swap4\n      dup6\n      add\n      swap4\n        /* \"#utility.yul\":2110:2258   */\n    tag_51:\n        /* \"#utility.yul\":2126:2132   */\n      dup3\n        /* \"#utility.yul\":2121:2124   */\n      dup6\n        /* \"#utility.yul\":2118:2133   */\n      lt\n        /* \"#utility.yul\":2110:2258   */\n      iszero\n      tag_53\n      jumpi\n        /* \"#utility.yul\":2192:2215   */\n      tag_54\n        /* \"#utility.yul\":2211:2214   */\n      dup6\n        /* \"#utility.yul\":2192:2215   */\n      tag_30\n      jump\t// in\n    tag_54:\n        /* \"#utility.yul\":2180:2216   */\n      dup5\n      mstore\n        /* \"#utility.yul\":2143:2155   */\n      swap4\n      dup6\n      add\n      swap4\n        /* \"#utility.yul\":2236:2248   */\n      swap3\n      dup6\n      add\n      swap3\n        /* \"#utility.yul\":2110:2258   */\n      jump(tag_51)\n    tag_53:\n        /* \"#utility.yul\":2277:2283   */\n      swap9\n        /* \"#utility.yul\":1168:2289   */\n      swap8\n      pop\n      pop\n      pop\n      pop\n      pop\n      pop\n      pop\n      pop\n      jump\t// out\n\n    auxdata: 0xa264697066735822122090135f947706d17478e25aa580a5ab5c3bb63d9e8433623add0a903f7a424da964736f6c634300080f0033\n}\n",
				"bytecode": {
					"linkReferences": {},
					"object": "608060405234801561001057600080fd5b5060405161030638038061030683398101604081905261002f91610063565b600091909155600180546001600160a01b039092166001600160a01b031992831617905560028054909116331790556100a0565b6000806040838503121561007657600080fd5b825160208401519092506001600160a01b038116811461009557600080fd5b809150509250929050565b610257806100af6000396000f3fe608060405234801561001057600080fd5b50600436106100575760003560e01c80638c93ecff1461005c5780638da5cb5b146100a0578063c392f766146100cb578063f41185b8146100e2578063f7c618c1146100f5575b600080fd5b61008661006a366004610124565b6003602052600090815260409020805460019091015460ff1682565b604080519283529015156020830152015b60405180910390f35b6002546100b3906001600160a01b031681565b6040516001600160a01b039091168152602001610097565b6100d460005481565b604051908152602001610097565b6100f36100f036600461015c565b50565b005b6001546100b3906001600160a01b031681565b80356001600160a01b038116811461011f57600080fd5b919050565b60006020828403121561013657600080fd5b61013f82610108565b9392505050565b634e487b7160e01b600052604160045260246000fd5b6000602080838503121561016f57600080fd5b823567ffffffffffffffff8082111561018757600080fd5b818501915085601f83011261019b57600080fd5b8135818111156101ad576101ad610146565b8060051b604051601f19603f830116810181811085821117156101d2576101d2610146565b6040529182528482019250838101850191888311156101f057600080fd5b938501935b828510156102155761020685610108565b845293850193928501926101f5565b9897505050505050505056fea264697066735822122090135f947706d17478e25aa580a5ab5c3bb63d9e8433623add0a903f7a424da964736f6c634300080f0033",
					"opcodes": "PUSH1 0x80 PUSH1 0x40 MSTORE CALLVALUE DUP1 ISZERO PUSH2 0x10 JUMPI PUSH1 0x0 DUP1 REVERT JUMPDEST POP PUSH1 0x40 MLOAD PUSH2 0x306 CODESIZE SUB DUP1 PUSH2 0x306 DUP4 CODECOPY DUP2 ADD PUSH1 0x40 DUP2 SWAP1 MSTORE PUSH2 0x2F SWAP2 PUSH2 0x63 JUMP JUMPDEST PUSH1 0x0 SWAP2 SWAP1 SWAP2 SSTORE PUSH1 0x1 DUP1 SLOAD PUSH1 0x1 PUSH1 0x1 PUSH1 0xA0 SHL SUB SWAP1 SWAP3 AND PUSH1 0x1 PUSH1 0x1 PUSH1 0xA0 SHL SUB NOT SWAP3 DUP4 AND OR SWAP1 SSTORE PUSH1 0x2 DUP1 SLOAD SWAP1 SWAP2 AND CALLER OR SWAP1 SSTORE PUSH2 0xA0 JUMP JUMPDEST PUSH1 0x0 DUP1 PUSH1 0x40 DUP4 DUP6 SUB SLT ISZERO PUSH2 0x76 JUMPI PUSH1 0x0 DUP1 REVERT JUMPDEST DUP3 MLOAD PUSH1 0x20 DUP5 ADD MLOAD SWAP1 SWAP3 POP PUSH1 0x1 PUSH1 0x1 PUSH1 0xA0 SHL SUB DUP2 AND DUP2 EQ PUSH2 0x95 JUMPI PUSH1 0x0 DUP1 REVERT JUMPDEST DUP1 SWAP2 POP POP SWAP3 POP SWAP3 SWAP1 POP JUMP JUMPDEST PUSH2 0x257 DUP1 PUSH2 0xAF PUSH1 0x0 CODECOPY PUSH1 0x0 RETURN INVALID PUSH1 0x80 PUSH1 0x40 MSTORE CALLVALUE DUP1 ISZERO PUSH2 0x10 JUMPI PUSH1 0x0 DUP1 REVERT JUMPDEST POP PUSH1 0x4 CALLDATASIZE LT PUSH2 0x57 JUMPI PUSH1 0x0 CALLDATALOAD PUSH1 0xE0 SHR DUP1 PUSH4 0x8C93ECFF EQ PUSH2 0x5C JUMPI DUP1 PUSH4 0x8DA5CB5B EQ PUSH2 0xA0 JUMPI DUP1 PUSH4 0xC392F766 EQ PUSH2 0xCB JUMPI DUP1 PUSH4 0xF41185B8 EQ PUSH2 0xE2 JUMPI DUP1 PUSH4 0xF7C618C1 EQ PUSH2 0xF5 JUMPI JUMPDEST PUSH1 0x0 DUP1 REVERT JUMPDEST PUSH2 0x86 PUSH2 0x6A CALLDATASIZE PUSH1 0x4 PUSH2 0x124 JUMP JUMPDEST PUSH1 0x3 PUSH1 0x20 MSTORE PUSH1 0x0 SWAP1 DUP2 MSTORE PUSH1 0x40 SWAP1 KECCAK256 DUP1 SLOAD PUSH1 0x1 SWAP1 SWAP2 ADD SLOAD PUSH1 0xFF AND DUP3 JUMP JUMPDEST PUSH1 0x40 DUP1 MLOAD SWAP3 DUP4 MSTORE SWAP1 ISZERO ISZERO PUSH1 0x20 DUP4 ADD MSTORE ADD JUMPDEST PUSH1 0x40 MLOAD DUP1 SWAP2 SUB SWAP1 RETURN JUMPDEST PUSH1 0x2 SLOAD PUSH2 0xB3 SWAP1 PUSH1 0x1 PUSH1 0x1 PUSH1 0xA0 SHL SUB AND DUP2 JUMP JUMPDEST PUSH1 0x40 MLOAD PUSH1 0x1 PUSH1 0x1 PUSH1 0xA0 SHL SUB SWAP1 SWAP2 AND DUP2 MSTORE PUSH1 0x20 ADD PUSH2 0x97 JUMP JUMPDEST PUSH2 0xD4 PUSH1 0x0 SLOAD DUP2 JUMP JUMPDEST PUSH1 0x40 MLOAD SWAP1 DUP2 MSTORE PUSH1 0x20 ADD PUSH2 0x97 JUMP JUMPDEST PUSH2 0xF3 PUSH2 0xF0 CALLDATASIZE PUSH1 0x4 PUSH2 0x15C JUMP JUMPDEST POP JUMP JUMPDEST STOP JUMPDEST PUSH1 0x1 SLOAD PUSH2 0xB3 SWAP1 PUSH1 0x1 PUSH1 0x1 PUSH1 0xA0 SHL SUB AND DUP2 JUMP JUMPDEST DUP1 CALLDATALOAD PUSH1 0x1 PUSH1 0x1 PUSH1 0xA0 SHL SUB DUP2 AND DUP2 EQ PUSH2 0x11F JUMPI PUSH1 0x0 DUP1 REVERT JUMPDEST SWAP2 SWAP1 POP JUMP JUMPDEST PUSH1 0x0 PUSH1 0x20 DUP3 DUP5 SUB SLT ISZERO PUSH2 0x136 JUMPI PUSH1 0x0 DUP1 REVERT JUMPDEST PUSH2 0x13F DUP3 PUSH2 0x108 JUMP JUMPDEST SWAP4 SWAP3 POP POP POP JUMP JUMPDEST PUSH4 0x4E487B71 PUSH1 0xE0 SHL PUSH1 0x0 MSTORE PUSH1 0x41 PUSH1 0x4 MSTORE PUSH1 0x24 PUSH1 0x0 REVERT JUMPDEST PUSH1 0x0 PUSH1 0x20 DUP1 DUP4 DUP6 SUB SLT ISZERO PUSH2 0x16F JUMPI PUSH1 0x0 DUP1 REVERT JUMPDEST DUP3 CALLDATALOAD PUSH8 0xFFFFFFFFFFFFFFFF DUP1 DUP3 GT ISZERO PUSH2 0x187 JUMPI PUSH1 0x0 DUP1 REVERT JUMPDEST DUP2 DUP6 ADD SWAP2 POP DUP6 PUSH1 0x1F DUP4 ADD SLT PUSH2 0x19B JUMPI PUSH1 0x0 DUP1 REVERT JUMPDEST DUP2 CALLDATALOAD DUP2 DUP2 GT ISZERO PUSH2 0x1AD JUMPI PUSH2 0x1AD PUSH2 0x146 JUMP JUMPDEST DUP1 PUSH1 0x5 SHL PUSH1 0x40 MLOAD PUSH1 0x1F NOT PUSH1 0x3F DUP4 ADD AND DUP2 ADD DUP2 DUP2 LT DUP6 DUP3 GT OR ISZERO PUSH2 0x1D2 JUMPI PUSH2 0x1D2 PUSH2 0x146 JUMP JUMPDEST PUSH1 0x40 MSTORE SWAP2 DUP3 MSTORE DUP5 DUP3 ADD SWAP3 POP DUP4 DUP2 ADD DUP6 ADD SWAP2 DUP9 DUP4 GT ISZERO PUSH2 0x1F0 JUMPI PUSH1 0x0 DUP1 REVERT JUMPDEST SWAP4 DUP6 ADD SWAP4 JUMPDEST DUP3 DUP6 LT ISZERO PUSH2 0x215 JUMPI PUSH2 0x206 DUP6 PUSH2 0x108 JUMP JUMPDEST DUP5 MSTORE SWAP4 DUP6 ADD SWAP4 SWAP3 DUP6 ADD SWAP3 PUSH2 0x1F5 JUMP JUMPDEST SWAP9 SWAP8 POP POP POP POP POP POP POP POP JUMP INVALID LOG2 PUSH5 0x6970667358 0x22 SLT KECCAK256 SWAP1 SGT 0x5F SWAP5 PUSH24 0x6D17478E25AA580A5AB5C3BB63D9E8433623ADD0A903F7A TIMESTAMP 0x4D 0xA9 PUSH5 0x736F6C6343 STOP ADDMOD 0xF STOP CALLER "
				},
				"gasEstimates": {
					"creation": {
						"codeDepositCost": "119800",
						"executionCost": "infinite",
						"totalCost": "infinite"
					},
					"external": {
						"SetReward(address[])": "infinite",
						"User_Map(address)": "4631",
						"interest()": "2317",
						"owner()": "2337",
						"rewardToken()": "2403"
					}
				},
				"methodIdentifiers": {
					"SetReward(address[])": "f41185b8",
					"User_Map(address)": "8c93ecff",
					"interest()": "c392f766",
					"owner()": "8da5cb5b",
					"rewardToken()": "f7c618c1"
				}
			},
			"storageLayout": {
				"storage": [
					{
						"astId": 3,
						"contract": "学习基础/写个蓝图计划.sol:BluePlan",
						"label": "interest",
						"offset": 0,
						"slot": "0",
						"type": "t_uint256"
					},
					{
						"astId": 5,
						"contract": "学习基础/写个蓝图计划.sol:BluePlan",
						"label": "rewardToken",
						"offset": 0,
						"slot": "1",
						"type": "t_address"
					},
					{
						"astId": 7,
						"contract": "学习基础/写个蓝图计划.sol:BluePlan",
						"label": "owner",
						"offset": 0,
						"slot": "2",
						"type": "t_address"
					},
					{
						"astId": 17,
						"contract": "学习基础/写个蓝图计划.sol:BluePlan",
						"label": "User_Map",
						"offset": 0,
						"slot": "3",
						"type": "t_mapping(t_address,t_struct(User)12_storage)"
					}
				],
				"types": {
					"t_address": {
						"encoding": "inplace",
						"label": "address",
						"numberOfBytes": "20"
					},
					"t_bool": {
						"encoding": "inplace",
						"label": "bool",
						"numberOfBytes": "1"
					},
					"t_mapping(t_address,t_struct(User)12_storage)": {
						"encoding": "mapping",
						"key": "t_address",
						"label": "mapping(address => struct BluePlan.User)",
						"numberOfBytes": "32",
						"value": "t_struct(User)12_storage"
					},
					"t_struct(User)12_storage": {
						"encoding": "inplace",
						"label": "struct BluePlan.User",
						"members": [
							{
								"astId": 9,
								"contract": "学习基础/写个蓝图计划.sol:BluePlan",
								"label": "userReward",
								"offset": 0,
								"slot": "0",
								"type": "t_uint256"
							},
							{
								"astId": 11,
								"contract": "学习基础/写个蓝图计划.sol:BluePlan",
								"label": "userstate",
								"offset": 0,
								"slot": "1",
								"type": "t_bool"
							}
						],
						"numberOfBytes": "64"
					},
					"t_uint256": {
						"encoding": "inplace",
						"label": "uint256",
						"numberOfBytes": "32"
					}
				}
			},
			"userdoc": {
				"kind": "user",
				"methods": {},
				"version": 1
			}
		}
	}
}