{
	"写项目基础/写个蓝图计划.sol": {
		"BluePlan": {
			"abi": [
				{
					"inputs": [
						{
							"internalType": "uint256",
							"name": "_interest",
							"type": "uint256"
						},
						{
							"internalType": "address",
							"name": "_rewardToken",
							"type": "address"
						}
					],
					"stateMutability": "nonpayable",
					"type": "constructor"
				},
				{
					"inputs": [],
					"name": "GetRewardUser",
					"outputs": [
						{
							"internalType": "address[]",
							"name": "",
							"type": "address[]"
						}
					],
					"stateMutability": "view",
					"type": "function"
				},
				{
					"inputs": [
						{
							"internalType": "address[]",
							"name": "_rewarduser",
							"type": "address[]"
						}
					],
					"name": "SetReward",
					"outputs": [
						{
							"internalType": "bool",
							"name": "",
							"type": "bool"
						}
					],
					"stateMutability": "nonpayable",
					"type": "function"
				},
				{
					"inputs": [],
					"name": "UserReward",
					"outputs": [
						{
							"internalType": "bool",
							"name": "",
							"type": "bool"
						}
					],
					"stateMutability": "nonpayable",
					"type": "function"
				},
				{
					"inputs": [
						{
							"internalType": "address",
							"name": "",
							"type": "address"
						}
					],
					"name": "User_Map",
					"outputs": [
						{
							"internalType": "uint256",
							"name": "userReward",
							"type": "uint256"
						},
						{
							"internalType": "bool",
							"name": "userState",
							"type": "bool"
						},
						{
							"internalType": "uint256",
							"name": "userStart",
							"type": "uint256"
						}
					],
					"stateMutability": "view",
					"type": "function"
				},
				{
					"inputs": [],
					"name": "interest",
					"outputs": [
						{
							"internalType": "uint256",
							"name": "",
							"type": "uint256"
						}
					],
					"stateMutability": "view",
					"type": "function"
				},
				{
					"inputs": [],
					"name": "owner",
					"outputs": [
						{
							"internalType": "address",
							"name": "",
							"type": "address"
						}
					],
					"stateMutability": "view",
					"type": "function"
				},
				{
					"inputs": [],
					"name": "rewardToken",
					"outputs": [
						{
							"internalType": "address",
							"name": "",
							"type": "address"
						}
					],
					"stateMutability": "view",
					"type": "function"
				},
				{
					"inputs": [
						{
							"internalType": "uint256",
							"name": "",
							"type": "uint256"
						}
					],
					"name": "rewarduser",
					"outputs": [
						{
							"internalType": "address",
							"name": "",
							"type": "address"
						}
					],
					"stateMutability": "view",
					"type": "function"
				}
			],
			"devdoc": {
				"kind": "dev",
				"methods": {},
				"version": 1
			},
			"evm": {
				"assembly": "    /* \"\\xe5\\x86\\x99\\xe9\\xa1\\xb9\\xe7\\x9b\\xae\\xe5\\x9f\\xba\\xe7\\xa1\\x80/\\xe5\\x86\\x99\\xe4\\xb8\\xaa\\xe8\\x93\\x9d\\xe5\\x9b\\xbe\\xe8\\xae\\xa1\\xe5\\x88\\x92.sol\":67:1027  contract BluePlan {... */\n  mstore(0x40, 0x80)\n    /* \"\\xe5\\x86\\x99\\xe9\\xa1\\xb9\\xe7\\x9b\\xae\\xe5\\x9f\\xba\\xe7\\xa1\\x80/\\xe5\\x86\\x99\\xe4\\xb8\\xaa\\xe8\\x93\\x9d\\xe5\\x9b\\xbe\\xe8\\xae\\xa1\\xe5\\x88\\x92.sol\":400:556  constructor (uint _interest, address _rewardToken) {... */\n  callvalue\n  dup1\n  iszero\n  tag_1\n  jumpi\n  0x00\n  dup1\n  revert\ntag_1:\n  pop\n  mload(0x40)\n  sub(codesize, bytecodeSize)\n  dup1\n  bytecodeSize\n  dup4\n  codecopy\n  dup2\n  add\n  0x40\n  dup2\n  swap1\n  mstore\n  tag_2\n  swap2\n  tag_3\n  jump\t// in\ntag_2:\n    /* \"\\xe5\\x86\\x99\\xe9\\xa1\\xb9\\xe7\\x9b\\xae\\xe5\\x9f\\xba\\xe7\\xa1\\x80/\\xe5\\x86\\x99\\xe4\\xb8\\xaa\\xe8\\x93\\x9d\\xe5\\x9b\\xbe\\xe8\\xae\\xa1\\xe5\\x88\\x92.sol\":462:470  interest */\n  0x00\n    /* \"\\xe5\\x86\\x99\\xe9\\xa1\\xb9\\xe7\\x9b\\xae\\xe5\\x9f\\xba\\xe7\\xa1\\x80/\\xe5\\x86\\x99\\xe4\\xb8\\xaa\\xe8\\x93\\x9d\\xe5\\x9b\\xbe\\xe8\\xae\\xa1\\xe5\\x88\\x92.sol\":462:482  interest = _interest */\n  swap2\n  swap1\n  swap2\n  sstore\n    /* \"\\xe5\\x86\\x99\\xe9\\xa1\\xb9\\xe7\\x9b\\xae\\xe5\\x9f\\xba\\xe7\\xa1\\x80/\\xe5\\x86\\x99\\xe4\\xb8\\xaa\\xe8\\x93\\x9d\\xe5\\x9b\\xbe\\xe8\\xae\\xa1\\xe5\\x88\\x92.sol\":493:504  rewardToken */\n  0x01\n    /* \"\\xe5\\x86\\x99\\xe9\\xa1\\xb9\\xe7\\x9b\\xae\\xe5\\x9f\\xba\\xe7\\xa1\\x80/\\xe5\\x86\\x99\\xe4\\xb8\\xaa\\xe8\\x93\\x9d\\xe5\\x9b\\xbe\\xe8\\xae\\xa1\\xe5\\x88\\x92.sol\":493:519  rewardToken = _rewardToken */\n  dup1\n  sload\n  sub(shl(0xa0, 0x01), 0x01)\n  swap1\n  swap3\n  and\n  not(sub(shl(0xa0, 0x01), 0x01))\n  swap3\n  dup4\n  and\n  or\n  swap1\n  sstore\n    /* \"\\xe5\\x86\\x99\\xe9\\xa1\\xb9\\xe7\\x9b\\xae\\xe5\\x9f\\xba\\xe7\\xa1\\x80/\\xe5\\x86\\x99\\xe4\\xb8\\xaa\\xe8\\x93\\x9d\\xe5\\x9b\\xbe\\xe8\\xae\\xa1\\xe5\\x88\\x92.sol\":530:535  owner */\n  0x02\n    /* \"\\xe5\\x86\\x99\\xe9\\xa1\\xb9\\xe7\\x9b\\xae\\xe5\\x9f\\xba\\xe7\\xa1\\x80/\\xe5\\x86\\x99\\xe4\\xb8\\xaa\\xe8\\x93\\x9d\\xe5\\x9b\\xbe\\xe8\\xae\\xa1\\xe5\\x88\\x92.sol\":530:548  owner = msg.sender */\n  dup1\n  sload\n  swap1\n  swap2\n  and\n    /* \"\\xe5\\x86\\x99\\xe9\\xa1\\xb9\\xe7\\x9b\\xae\\xe5\\x9f\\xba\\xe7\\xa1\\x80/\\xe5\\x86\\x99\\xe4\\xb8\\xaa\\xe8\\x93\\x9d\\xe5\\x9b\\xbe\\xe8\\xae\\xa1\\xe5\\x88\\x92.sol\":538:548  msg.sender */\n  caller\n    /* \"\\xe5\\x86\\x99\\xe9\\xa1\\xb9\\xe7\\x9b\\xae\\xe5\\x9f\\xba\\xe7\\xa1\\x80/\\xe5\\x86\\x99\\xe4\\xb8\\xaa\\xe8\\x93\\x9d\\xe5\\x9b\\xbe\\xe8\\xae\\xa1\\xe5\\x88\\x92.sol\":530:548  owner = msg.sender */\n  or\n  swap1\n  sstore\n    /* \"\\xe5\\x86\\x99\\xe9\\xa1\\xb9\\xe7\\x9b\\xae\\xe5\\x9f\\xba\\xe7\\xa1\\x80/\\xe5\\x86\\x99\\xe4\\xb8\\xaa\\xe8\\x93\\x9d\\xe5\\x9b\\xbe\\xe8\\xae\\xa1\\xe5\\x88\\x92.sol\":67:1027  contract BluePlan {... */\n  jump(tag_7)\n    /* \"#utility.yul\":14:365   */\ntag_3:\n    /* \"#utility.yul\":93:99   */\n  0x00\n    /* \"#utility.yul\":101:107   */\n  dup1\n    /* \"#utility.yul\":154:156   */\n  0x40\n    /* \"#utility.yul\":142:151   */\n  dup4\n    /* \"#utility.yul\":133:140   */\n  dup6\n    /* \"#utility.yul\":129:152   */\n  sub\n    /* \"#utility.yul\":125:157   */\n  slt\n    /* \"#utility.yul\":122:174   */\n  iszero\n  tag_9\n  jumpi\n    /* \"#utility.yul\":170:171   */\n  0x00\n    /* \"#utility.yul\":167:168   */\n  dup1\n    /* \"#utility.yul\":160:172   */\n  revert\n    /* \"#utility.yul\":122:174   */\ntag_9:\n    /* \"#utility.yul\":193:209   */\n  dup3\n  mload\n    /* \"#utility.yul\":252:254   */\n  0x20\n    /* \"#utility.yul\":237:255   */\n  dup5\n  add\n    /* \"#utility.yul\":231:256   */\n  mload\n    /* \"#utility.yul\":193:209   */\n  swap1\n  swap3\n  pop\n  sub(shl(0xa0, 0x01), 0x01)\n    /* \"#utility.yul\":285:316   */\n  dup2\n  and\n    /* \"#utility.yul\":275:317   */\n  dup2\n  eq\n    /* \"#utility.yul\":265:335   */\n  tag_10\n  jumpi\n    /* \"#utility.yul\":331:332   */\n  0x00\n    /* \"#utility.yul\":328:329   */\n  dup1\n    /* \"#utility.yul\":321:333   */\n  revert\n    /* \"#utility.yul\":265:335   */\ntag_10:\n    /* \"#utility.yul\":354:359   */\n  dup1\n    /* \"#utility.yul\":344:359   */\n  swap2\n  pop\n  pop\n    /* \"#utility.yul\":14:365   */\n  swap3\n  pop\n  swap3\n  swap1\n  pop\n  jump\t// out\ntag_7:\n    /* \"\\xe5\\x86\\x99\\xe9\\xa1\\xb9\\xe7\\x9b\\xae\\xe5\\x9f\\xba\\xe7\\xa1\\x80/\\xe5\\x86\\x99\\xe4\\xb8\\xaa\\xe8\\x93\\x9d\\xe5\\x9b\\xbe\\xe8\\xae\\xa1\\xe5\\x88\\x92.sol\":67:1027  contract BluePlan {... */\n  dataSize(sub_0)\n  dup1\n  dataOffset(sub_0)\n  0x00\n  codecopy\n  0x00\n  return\nstop\n\nsub_0: assembly {\n        /* \"\\xe5\\x86\\x99\\xe9\\xa1\\xb9\\xe7\\x9b\\xae\\xe5\\x9f\\xba\\xe7\\xa1\\x80/\\xe5\\x86\\x99\\xe4\\xb8\\xaa\\xe8\\x93\\x9d\\xe5\\x9b\\xbe\\xe8\\xae\\xa1\\xe5\\x88\\x92.sol\":67:1027  contract BluePlan {... */\n      mstore(0x40, 0x80)\n      callvalue\n      dup1\n      iszero\n      tag_1\n      jumpi\n      0x00\n      dup1\n      revert\n    tag_1:\n      pop\n      jumpi(tag_2, lt(calldatasize, 0x04))\n      shr(0xe0, calldataload(0x00))\n      dup1\n      0x8da5cb5b\n      gt\n      tag_11\n      jumpi\n      dup1\n      0x8da5cb5b\n      eq\n      tag_7\n      jumpi\n      dup1\n      0xc392f766\n      eq\n      tag_8\n      jumpi\n      dup1\n      0xf41185b8\n      eq\n      tag_9\n      jumpi\n      dup1\n      0xf7c618c1\n      eq\n      tag_10\n      jumpi\n      0x00\n      dup1\n      revert\n    tag_11:\n      dup1\n      0x16c3f92c\n      eq\n      tag_3\n      jumpi\n      dup1\n      0x5a42b7a0\n      eq\n      tag_4\n      jumpi\n      dup1\n      0x7b1d591d\n      eq\n      tag_5\n      jumpi\n      dup1\n      0x8c93ecff\n      eq\n      tag_6\n      jumpi\n    tag_2:\n      0x00\n      dup1\n      revert\n        /* \"\\xe5\\x86\\x99\\xe9\\xa1\\xb9\\xe7\\x9b\\xae\\xe5\\x9f\\xba\\xe7\\xa1\\x80/\\xe5\\x86\\x99\\xe4\\xb8\\xaa\\xe8\\x93\\x9d\\xe5\\x9b\\xbe\\xe8\\xae\\xa1\\xe5\\x88\\x92.sol\":208:235  address[] public rewarduser */\n    tag_3:\n      tag_12\n      tag_13\n      calldatasize\n      0x04\n      tag_14\n      jump\t// in\n    tag_13:\n      tag_15\n      jump\t// in\n    tag_12:\n      mload(0x40)\n      sub(shl(0xa0, 0x01), 0x01)\n        /* \"#utility.yul\":363:395   */\n      swap1\n      swap2\n      and\n        /* \"#utility.yul\":345:396   */\n      dup2\n      mstore\n        /* \"#utility.yul\":333:335   */\n      0x20\n        /* \"#utility.yul\":318:336   */\n      add\n        /* \"\\xe5\\x86\\x99\\xe9\\xa1\\xb9\\xe7\\x9b\\xae\\xe5\\x9f\\xba\\xe7\\xa1\\x80/\\xe5\\x86\\x99\\xe4\\xb8\\xaa\\xe8\\x93\\x9d\\xe5\\x9b\\xbe\\xe8\\xae\\xa1\\xe5\\x88\\x92.sol\":208:235  address[] public rewarduser */\n    tag_16:\n      mload(0x40)\n      dup1\n      swap2\n      sub\n      swap1\n      return\n        /* \"\\xe5\\x86\\x99\\xe9\\xa1\\xb9\\xe7\\x9b\\xae\\xe5\\x9f\\xba\\xe7\\xa1\\x80/\\xe5\\x86\\x99\\xe4\\xb8\\xaa\\xe8\\x93\\x9d\\xe5\\x9b\\xbe\\xe8\\xae\\xa1\\xe5\\x88\\x92.sol\":827:927  function GetRewardUser() public view returns (address[] memory) {... */\n    tag_4:\n      tag_18\n      tag_19\n      jump\t// in\n    tag_18:\n      mload(0x40)\n      tag_16\n      swap2\n      swap1\n      tag_21\n      jump\t// in\n        /* \"\\xe5\\x86\\x99\\xe9\\xa1\\xb9\\xe7\\x9b\\xae\\xe5\\x9f\\xba\\xe7\\xa1\\x80/\\xe5\\x86\\x99\\xe4\\xb8\\xaa\\xe8\\x93\\x9d\\xe5\\x9b\\xbe\\xe8\\xae\\xa1\\xe5\\x88\\x92.sol\":935:1016  function UserReward() public returns (bool) {... */\n    tag_5:\n        /* \"\\xe5\\x86\\x99\\xe9\\xa1\\xb9\\xe7\\x9b\\xae\\xe5\\x9f\\xba\\xe7\\xa1\\x80/\\xe5\\x86\\x99\\xe4\\xb8\\xaa\\xe8\\x93\\x9d\\xe5\\x9b\\xbe\\xe8\\xae\\xa1\\xe5\\x88\\x92.sol\":1001:1005  true */\n      0x01\n        /* \"\\xe5\\x86\\x99\\xe9\\xa1\\xb9\\xe7\\x9b\\xae\\xe5\\x9f\\xba\\xe7\\xa1\\x80/\\xe5\\x86\\x99\\xe4\\xb8\\xaa\\xe8\\x93\\x9d\\xe5\\x9b\\xbe\\xe8\\xae\\xa1\\xe5\\x88\\x92.sol\":935:1016  function UserReward() public returns (bool) {... */\n    tag_22:\n      mload(0x40)\n        /* \"#utility.yul\":1235:1249   */\n      swap1\n      iszero\n        /* \"#utility.yul\":1228:1250   */\n      iszero\n        /* \"#utility.yul\":1210:1251   */\n      dup2\n      mstore\n        /* \"#utility.yul\":1198:1200   */\n      0x20\n        /* \"#utility.yul\":1183:1201   */\n      add\n        /* \"\\xe5\\x86\\x99\\xe9\\xa1\\xb9\\xe7\\x9b\\xae\\xe5\\x9f\\xba\\xe7\\xa1\\x80/\\xe5\\x86\\x99\\xe4\\xb8\\xaa\\xe8\\x93\\x9d\\xe5\\x9b\\xbe\\xe8\\xae\\xa1\\xe5\\x88\\x92.sol\":935:1016  function UserReward() public returns (bool) {... */\n      tag_16\n        /* \"#utility.yul\":1070:1257   */\n      jump\n        /* \"\\xe5\\x86\\x99\\xe9\\xa1\\xb9\\xe7\\x9b\\xae\\xe5\\x9f\\xba\\xe7\\xa1\\x80/\\xe5\\x86\\x99\\xe4\\xb8\\xaa\\xe8\\x93\\x9d\\xe5\\x9b\\xbe\\xe8\\xae\\xa1\\xe5\\x88\\x92.sol\":351:391  mapping(address => User) public User_Map */\n    tag_6:\n      tag_26\n      tag_27\n      calldatasize\n      0x04\n      tag_28\n      jump\t// in\n    tag_27:\n      mstore(0x20, 0x04)\n      0x00\n      swap1\n      dup2\n      mstore\n      0x40\n      swap1\n      keccak256\n      dup1\n      sload\n      0x01\n      dup3\n      add\n      sload\n      0x02\n      swap1\n      swap3\n      add\n      sload\n      swap1\n      swap2\n      0xff\n      and\n      swap1\n      dup4\n      jump\n    tag_26:\n      0x40\n      dup1\n      mload\n        /* \"#utility.yul\":1827:1852   */\n      swap4\n      dup5\n      mstore\n        /* \"#utility.yul\":1895:1909   */\n      swap2\n      iszero\n        /* \"#utility.yul\":1888:1910   */\n      iszero\n        /* \"#utility.yul\":1883:1885   */\n      0x20\n        /* \"#utility.yul\":1868:1886   */\n      dup5\n      add\n        /* \"#utility.yul\":1861:1911   */\n      mstore\n        /* \"#utility.yul\":1927:1945   */\n      swap1\n      dup3\n      add\n        /* \"#utility.yul\":1920:1954   */\n      mstore\n        /* \"#utility.yul\":1815:1817   */\n      0x60\n        /* \"#utility.yul\":1800:1818   */\n      add\n        /* \"\\xe5\\x86\\x99\\xe9\\xa1\\xb9\\xe7\\x9b\\xae\\xe5\\x9f\\xba\\xe7\\xa1\\x80/\\xe5\\x86\\x99\\xe4\\xb8\\xaa\\xe8\\x93\\x9d\\xe5\\x9b\\xbe\\xe8\\xae\\xa1\\xe5\\x88\\x92.sol\":351:391  mapping(address => User) public User_Map */\n      tag_16\n        /* \"#utility.yul\":1631:1960   */\n      jump\n        /* \"\\xe5\\x86\\x99\\xe9\\xa1\\xb9\\xe7\\x9b\\xae\\xe5\\x9f\\xba\\xe7\\xa1\\x80/\\xe5\\x86\\x99\\xe4\\xb8\\xaa\\xe8\\x93\\x9d\\xe5\\x9b\\xbe\\xe8\\xae\\xa1\\xe5\\x88\\x92.sol\":181:201  address public owner */\n    tag_7:\n      sload(0x02)\n      tag_12\n      swap1\n      sub(shl(0xa0, 0x01), 0x01)\n      and\n      dup2\n      jump\n        /* \"\\xe5\\x86\\x99\\xe9\\xa1\\xb9\\xe7\\x9b\\xae\\xe5\\x9f\\xba\\xe7\\xa1\\x80/\\xe5\\x86\\x99\\xe4\\xb8\\xaa\\xe8\\x93\\x9d\\xe5\\x9b\\xbe\\xe8\\xae\\xa1\\xe5\\x88\\x92.sol\":121:141  uint public interest */\n    tag_8:\n      tag_35\n      sload(0x00)\n      dup2\n      jump\n    tag_35:\n      mload(0x40)\n        /* \"#utility.yul\":2111:2136   */\n      swap1\n      dup2\n      mstore\n        /* \"#utility.yul\":2099:2101   */\n      0x20\n        /* \"#utility.yul\":2084:2102   */\n      add\n        /* \"\\xe5\\x86\\x99\\xe9\\xa1\\xb9\\xe7\\x9b\\xae\\xe5\\x9f\\xba\\xe7\\xa1\\x80/\\xe5\\x86\\x99\\xe4\\xb8\\xaa\\xe8\\x93\\x9d\\xe5\\x9b\\xbe\\xe8\\xae\\xa1\\xe5\\x88\\x92.sol\":121:141  uint public interest */\n      tag_16\n        /* \"#utility.yul\":1965:2142   */\n      jump\n        /* \"\\xe5\\x86\\x99\\xe9\\xa1\\xb9\\xe7\\x9b\\xae\\xe5\\x9f\\xba\\xe7\\xa1\\x80/\\xe5\\x86\\x99\\xe4\\xb8\\xaa\\xe8\\x93\\x9d\\xe5\\x9b\\xbe\\xe8\\xae\\xa1\\xe5\\x88\\x92.sol\":564:819  function SetReward(address[] memory _rewarduser) public returns (bool) {... */\n    tag_9:\n      tag_22\n      tag_40\n      calldatasize\n      0x04\n      tag_41\n      jump\t// in\n    tag_40:\n      tag_42\n      jump\t// in\n        /* \"\\xe5\\x86\\x99\\xe9\\xa1\\xb9\\xe7\\x9b\\xae\\xe5\\x9f\\xba\\xe7\\xa1\\x80/\\xe5\\x86\\x99\\xe4\\xb8\\xaa\\xe8\\x93\\x9d\\xe5\\x9b\\xbe\\xe8\\xae\\xa1\\xe5\\x88\\x92.sol\":148:174  address public rewardToken */\n    tag_10:\n      sload(0x01)\n      tag_12\n      swap1\n      sub(shl(0xa0, 0x01), 0x01)\n      and\n      dup2\n      jump\n        /* \"\\xe5\\x86\\x99\\xe9\\xa1\\xb9\\xe7\\x9b\\xae\\xe5\\x9f\\xba\\xe7\\xa1\\x80/\\xe5\\x86\\x99\\xe4\\xb8\\xaa\\xe8\\x93\\x9d\\xe5\\x9b\\xbe\\xe8\\xae\\xa1\\xe5\\x88\\x92.sol\":208:235  address[] public rewarduser */\n    tag_15:\n      0x03\n      dup2\n      dup2\n      sload\n      dup2\n      lt\n      tag_47\n      jumpi\n      0x00\n      dup1\n      revert\n    tag_47:\n      0x00\n      swap2\n      dup3\n      mstore\n      0x20\n      swap1\n      swap2\n      keccak256\n      add\n      sload\n      sub(shl(0xa0, 0x01), 0x01)\n      and\n      swap1\n      pop\n      dup2\n      jump\t// out\n        /* \"\\xe5\\x86\\x99\\xe9\\xa1\\xb9\\xe7\\x9b\\xae\\xe5\\x9f\\xba\\xe7\\xa1\\x80/\\xe5\\x86\\x99\\xe4\\xb8\\xaa\\xe8\\x93\\x9d\\xe5\\x9b\\xbe\\xe8\\xae\\xa1\\xe5\\x88\\x92.sol\":827:927  function GetRewardUser() public view returns (address[] memory) {... */\n    tag_19:\n        /* \"\\xe5\\x86\\x99\\xe9\\xa1\\xb9\\xe7\\x9b\\xae\\xe5\\x9f\\xba\\xe7\\xa1\\x80/\\xe5\\x86\\x99\\xe4\\xb8\\xaa\\xe8\\x93\\x9d\\xe5\\x9b\\xbe\\xe8\\xae\\xa1\\xe5\\x88\\x92.sol\":873:889  address[] memory */\n      0x60\n        /* \"\\xe5\\x86\\x99\\xe9\\xa1\\xb9\\xe7\\x9b\\xae\\xe5\\x9f\\xba\\xe7\\xa1\\x80/\\xe5\\x86\\x99\\xe4\\xb8\\xaa\\xe8\\x93\\x9d\\xe5\\x9b\\xbe\\xe8\\xae\\xa1\\xe5\\x88\\x92.sol\":909:919  rewarduser */\n      0x03\n        /* \"\\xe5\\x86\\x99\\xe9\\xa1\\xb9\\xe7\\x9b\\xae\\xe5\\x9f\\xba\\xe7\\xa1\\x80/\\xe5\\x86\\x99\\xe4\\xb8\\xaa\\xe8\\x93\\x9d\\xe5\\x9b\\xbe\\xe8\\xae\\xa1\\xe5\\x88\\x92.sol\":902:919  return rewarduser */\n      dup1\n      sload\n      dup1\n      0x20\n      mul\n      0x20\n      add\n      mload(0x40)\n      swap1\n      dup2\n      add\n      0x40\n      mstore\n      dup1\n      swap3\n      swap2\n      swap1\n      dup2\n      dup2\n      mstore\n      0x20\n      add\n      dup3\n      dup1\n      sload\n      dup1\n      iszero\n      tag_50\n      jumpi\n      0x20\n      mul\n      dup3\n      add\n      swap2\n      swap1\n      0x00\n      mstore\n      keccak256(0x00, 0x20)\n      swap1\n    tag_51:\n      dup2\n      sload\n      sub(shl(0xa0, 0x01), 0x01)\n      and\n      dup2\n      mstore\n      0x01\n      swap1\n      swap2\n      add\n      swap1\n      0x20\n      add\n      dup1\n      dup4\n      gt\n      tag_51\n      jumpi\n    tag_50:\n      pop\n      pop\n      pop\n      pop\n      pop\n      swap1\n      pop\n        /* \"\\xe5\\x86\\x99\\xe9\\xa1\\xb9\\xe7\\x9b\\xae\\xe5\\x9f\\xba\\xe7\\xa1\\x80/\\xe5\\x86\\x99\\xe4\\xb8\\xaa\\xe8\\x93\\x9d\\xe5\\x9b\\xbe\\xe8\\xae\\xa1\\xe5\\x88\\x92.sol\":827:927  function GetRewardUser() public view returns (address[] memory) {... */\n      swap1\n      jump\t// out\n        /* \"\\xe5\\x86\\x99\\xe9\\xa1\\xb9\\xe7\\x9b\\xae\\xe5\\x9f\\xba\\xe7\\xa1\\x80/\\xe5\\x86\\x99\\xe4\\xb8\\xaa\\xe8\\x93\\x9d\\xe5\\x9b\\xbe\\xe8\\xae\\xa1\\xe5\\x88\\x92.sol\":564:819  function SetReward(address[] memory _rewarduser) public returns (bool) {... */\n    tag_42:\n        /* \"\\xe5\\x86\\x99\\xe9\\xa1\\xb9\\xe7\\x9b\\xae\\xe5\\x9f\\xba\\xe7\\xa1\\x80/\\xe5\\x86\\x99\\xe4\\xb8\\xaa\\xe8\\x93\\x9d\\xe5\\x9b\\xbe\\xe8\\xae\\xa1\\xe5\\x88\\x92.sol\":646:670  rewarduser = _rewarduser */\n      dup1\n      mload\n        /* \"\\xe5\\x86\\x99\\xe9\\xa1\\xb9\\xe7\\x9b\\xae\\xe5\\x9f\\xba\\xe7\\xa1\\x80/\\xe5\\x86\\x99\\xe4\\xb8\\xaa\\xe8\\x93\\x9d\\xe5\\x9b\\xbe\\xe8\\xae\\xa1\\xe5\\x88\\x92.sol\":629:633  bool */\n      0x00\n      swap1\n        /* \"\\xe5\\x86\\x99\\xe9\\xa1\\xb9\\xe7\\x9b\\xae\\xe5\\x9f\\xba\\xe7\\xa1\\x80/\\xe5\\x86\\x99\\xe4\\xb8\\xaa\\xe8\\x93\\x9d\\xe5\\x9b\\xbe\\xe8\\xae\\xa1\\xe5\\x88\\x92.sol\":646:670  rewarduser = _rewarduser */\n      tag_54\n      swap1\n        /* \"\\xe5\\x86\\x99\\xe9\\xa1\\xb9\\xe7\\x9b\\xae\\xe5\\x9f\\xba\\xe7\\xa1\\x80/\\xe5\\x86\\x99\\xe4\\xb8\\xaa\\xe8\\x93\\x9d\\xe5\\x9b\\xbe\\xe8\\xae\\xa1\\xe5\\x88\\x92.sol\":646:656  rewarduser */\n      0x03\n      swap1\n        /* \"\\xe5\\x86\\x99\\xe9\\xa1\\xb9\\xe7\\x9b\\xae\\xe5\\x9f\\xba\\xe7\\xa1\\x80/\\xe5\\x86\\x99\\xe4\\xb8\\xaa\\xe8\\x93\\x9d\\xe5\\x9b\\xbe\\xe8\\xae\\xa1\\xe5\\x88\\x92.sol\":646:670  rewarduser = _rewarduser */\n      0x20\n      dup6\n      add\n      swap1\n      tag_55\n      jump\t// in\n    tag_54:\n      pop\n        /* \"\\xe5\\x86\\x99\\xe9\\xa1\\xb9\\xe7\\x9b\\xae\\xe5\\x9f\\xba\\xe7\\xa1\\x80/\\xe5\\x86\\x99\\xe4\\xb8\\xaa\\xe8\\x93\\x9d\\xe5\\x9b\\xbe\\xe8\\xae\\xa1\\xe5\\x88\\x92.sol\":686:692  uint i */\n      0x00\n        /* \"\\xe5\\x86\\x99\\xe9\\xa1\\xb9\\xe7\\x9b\\xae\\xe5\\x9f\\xba\\xe7\\xa1\\x80/\\xe5\\x86\\x99\\xe4\\xb8\\xaa\\xe8\\x93\\x9d\\xe5\\x9b\\xbe\\xe8\\xae\\xa1\\xe5\\x88\\x92.sol\":681:789  for (uint i; i < rewarduser.length; i++){... */\n    tag_56:\n        /* \"\\xe5\\x86\\x99\\xe9\\xa1\\xb9\\xe7\\x9b\\xae\\xe5\\x9f\\xba\\xe7\\xa1\\x80/\\xe5\\x86\\x99\\xe4\\xb8\\xaa\\xe8\\x93\\x9d\\xe5\\x9b\\xbe\\xe8\\xae\\xa1\\xe5\\x88\\x92.sol\":698:708  rewarduser */\n      0x03\n        /* \"\\xe5\\x86\\x99\\xe9\\xa1\\xb9\\xe7\\x9b\\xae\\xe5\\x9f\\xba\\xe7\\xa1\\x80/\\xe5\\x86\\x99\\xe4\\xb8\\xaa\\xe8\\x93\\x9d\\xe5\\x9b\\xbe\\xe8\\xae\\xa1\\xe5\\x88\\x92.sol\":698:715  rewarduser.length */\n      sload\n        /* \"\\xe5\\x86\\x99\\xe9\\xa1\\xb9\\xe7\\x9b\\xae\\xe5\\x9f\\xba\\xe7\\xa1\\x80/\\xe5\\x86\\x99\\xe4\\xb8\\xaa\\xe8\\x93\\x9d\\xe5\\x9b\\xbe\\xe8\\xae\\xa1\\xe5\\x88\\x92.sol\":694:715  i < rewarduser.length */\n      dup2\n      lt\n        /* \"\\xe5\\x86\\x99\\xe9\\xa1\\xb9\\xe7\\x9b\\xae\\xe5\\x9f\\xba\\xe7\\xa1\\x80/\\xe5\\x86\\x99\\xe4\\xb8\\xaa\\xe8\\x93\\x9d\\xe5\\x9b\\xbe\\xe8\\xae\\xa1\\xe5\\x88\\x92.sol\":681:789  for (uint i; i < rewarduser.length; i++){... */\n      iszero\n      tag_57\n      jumpi\n        /* \"\\xe5\\x86\\x99\\xe9\\xa1\\xb9\\xe7\\x9b\\xae\\xe5\\x9f\\xba\\xe7\\xa1\\x80/\\xe5\\x86\\x99\\xe4\\xb8\\xaa\\xe8\\x93\\x9d\\xe5\\x9b\\xbe\\xe8\\xae\\xa1\\xe5\\x88\\x92.sol\":773:777  true */\n      0x01\n        /* \"\\xe5\\x86\\x99\\xe9\\xa1\\xb9\\xe7\\x9b\\xae\\xe5\\x9f\\xba\\xe7\\xa1\\x80/\\xe5\\x86\\x99\\xe4\\xb8\\xaa\\xe8\\x93\\x9d\\xe5\\x9b\\xbe\\xe8\\xae\\xa1\\xe5\\x88\\x92.sol\":736:744  User_Map */\n      0x04\n        /* \"\\xe5\\x86\\x99\\xe9\\xa1\\xb9\\xe7\\x9b\\xae\\xe5\\x9f\\xba\\xe7\\xa1\\x80/\\xe5\\x86\\x99\\xe4\\xb8\\xaa\\xe8\\x93\\x9d\\xe5\\x9b\\xbe\\xe8\\xae\\xa1\\xe5\\x88\\x92.sol\":736:760  User_Map[_rewarduser[i]] */\n      0x00\n        /* \"\\xe5\\x86\\x99\\xe9\\xa1\\xb9\\xe7\\x9b\\xae\\xe5\\x9f\\xba\\xe7\\xa1\\x80/\\xe5\\x86\\x99\\xe4\\xb8\\xaa\\xe8\\x93\\x9d\\xe5\\x9b\\xbe\\xe8\\xae\\xa1\\xe5\\x88\\x92.sol\":745:756  _rewarduser */\n      dup6\n        /* \"\\xe5\\x86\\x99\\xe9\\xa1\\xb9\\xe7\\x9b\\xae\\xe5\\x9f\\xba\\xe7\\xa1\\x80/\\xe5\\x86\\x99\\xe4\\xb8\\xaa\\xe8\\x93\\x9d\\xe5\\x9b\\xbe\\xe8\\xae\\xa1\\xe5\\x88\\x92.sol\":757:758  i */\n      dup5\n        /* \"\\xe5\\x86\\x99\\xe9\\xa1\\xb9\\xe7\\x9b\\xae\\xe5\\x9f\\xba\\xe7\\xa1\\x80/\\xe5\\x86\\x99\\xe4\\xb8\\xaa\\xe8\\x93\\x9d\\xe5\\x9b\\xbe\\xe8\\xae\\xa1\\xe5\\x88\\x92.sol\":745:759  _rewarduser[i] */\n      dup2\n      mload\n      dup2\n      lt\n      tag_60\n      jumpi\n      tag_60\n      tag_61\n      jump\t// in\n    tag_60:\n      0x20\n      swap1\n      dup2\n      mul\n      swap2\n      swap1\n      swap2\n      add\n      dup2\n      add\n      mload\n      sub(shl(0xa0, 0x01), 0x01)\n        /* \"\\xe5\\x86\\x99\\xe9\\xa1\\xb9\\xe7\\x9b\\xae\\xe5\\x9f\\xba\\xe7\\xa1\\x80/\\xe5\\x86\\x99\\xe4\\xb8\\xaa\\xe8\\x93\\x9d\\xe5\\x9b\\xbe\\xe8\\xae\\xa1\\xe5\\x88\\x92.sol\":736:760  User_Map[_rewarduser[i]] */\n      and\n      dup3\n      mstore\n      dup2\n      add\n      swap2\n      swap1\n      swap2\n      mstore\n      0x40\n      add\n      0x00\n      keccak256\n        /* \"\\xe5\\x86\\x99\\xe9\\xa1\\xb9\\xe7\\x9b\\xae\\xe5\\x9f\\xba\\xe7\\xa1\\x80/\\xe5\\x86\\x99\\xe4\\xb8\\xaa\\xe8\\x93\\x9d\\xe5\\x9b\\xbe\\xe8\\xae\\xa1\\xe5\\x88\\x92.sol\":736:770  User_Map[_rewarduser[i]].userState */\n      0x01\n      add\n        /* \"\\xe5\\x86\\x99\\xe9\\xa1\\xb9\\xe7\\x9b\\xae\\xe5\\x9f\\xba\\xe7\\xa1\\x80/\\xe5\\x86\\x99\\xe4\\xb8\\xaa\\xe8\\x93\\x9d\\xe5\\x9b\\xbe\\xe8\\xae\\xa1\\xe5\\x88\\x92.sol\":736:777  User_Map[_rewarduser[i]].userState = true */\n      dup1\n      sload\n      not(0xff)\n      and\n      swap2\n      iszero\n      iszero\n      swap2\n      swap1\n      swap2\n      or\n      swap1\n      sstore\n        /* \"\\xe5\\x86\\x99\\xe9\\xa1\\xb9\\xe7\\x9b\\xae\\xe5\\x9f\\xba\\xe7\\xa1\\x80/\\xe5\\x86\\x99\\xe4\\xb8\\xaa\\xe8\\x93\\x9d\\xe5\\x9b\\xbe\\xe8\\xae\\xa1\\xe5\\x88\\x92.sol\":717:720  i++ */\n      dup1\n      tag_62\n      dup2\n      tag_63\n      jump\t// in\n    tag_62:\n      swap2\n      pop\n      pop\n        /* \"\\xe5\\x86\\x99\\xe9\\xa1\\xb9\\xe7\\x9b\\xae\\xe5\\x9f\\xba\\xe7\\xa1\\x80/\\xe5\\x86\\x99\\xe4\\xb8\\xaa\\xe8\\x93\\x9d\\xe5\\x9b\\xbe\\xe8\\xae\\xa1\\xe5\\x88\\x92.sol\":681:789  for (uint i; i < rewarduser.length; i++){... */\n      jump(tag_56)\n    tag_57:\n      pop\n        /* \"\\xe5\\x86\\x99\\xe9\\xa1\\xb9\\xe7\\x9b\\xae\\xe5\\x9f\\xba\\xe7\\xa1\\x80/\\xe5\\x86\\x99\\xe4\\xb8\\xaa\\xe8\\x93\\x9d\\xe5\\x9b\\xbe\\xe8\\xae\\xa1\\xe5\\x88\\x92.sol\":806:810  true */\n      0x01\n      swap3\n        /* \"\\xe5\\x86\\x99\\xe9\\xa1\\xb9\\xe7\\x9b\\xae\\xe5\\x9f\\xba\\xe7\\xa1\\x80/\\xe5\\x86\\x99\\xe4\\xb8\\xaa\\xe8\\x93\\x9d\\xe5\\x9b\\xbe\\xe8\\xae\\xa1\\xe5\\x88\\x92.sol\":564:819  function SetReward(address[] memory _rewarduser) public returns (bool) {... */\n      swap2\n      pop\n      pop\n      jump\t// out\n    tag_55:\n      dup3\n      dup1\n      sload\n      dup3\n      dup3\n      sstore\n      swap1\n      0x00\n      mstore\n      keccak256(0x00, 0x20)\n      swap1\n      dup2\n      add\n      swap3\n      dup3\n      iszero\n      tag_66\n      jumpi\n      swap2\n      0x20\n      mul\n      dup3\n      add\n    tag_65:\n      dup3\n      dup2\n      gt\n      iszero\n      tag_66\n      jumpi\n      dup3\n      mload\n      dup3\n      sload\n      not(sub(shl(0xa0, 0x01), 0x01))\n      and\n      sub(shl(0xa0, 0x01), 0x01)\n      swap1\n      swap2\n      and\n      or\n      dup3\n      sstore\n      0x20\n      swap1\n      swap3\n      add\n      swap2\n      0x01\n      swap1\n      swap2\n      add\n      swap1\n      jump(tag_65)\n    tag_66:\n      pop\n      tag_67\n      swap3\n      swap2\n      pop\n      tag_68\n      jump\t// in\n    tag_67:\n      pop\n      swap1\n      jump\t// out\n    tag_68:\n    tag_69:\n      dup1\n      dup3\n      gt\n      iszero\n      tag_67\n      jumpi\n      0x00\n      dup2\n      sstore\n      0x01\n      add\n      jump(tag_69)\n        /* \"#utility.yul\":14:194   */\n    tag_14:\n        /* \"#utility.yul\":73:79   */\n      0x00\n        /* \"#utility.yul\":126:128   */\n      0x20\n        /* \"#utility.yul\":114:123   */\n      dup3\n        /* \"#utility.yul\":105:112   */\n      dup5\n        /* \"#utility.yul\":101:124   */\n      sub\n        /* \"#utility.yul\":97:129   */\n      slt\n        /* \"#utility.yul\":94:146   */\n      iszero\n      tag_75\n      jumpi\n        /* \"#utility.yul\":142:143   */\n      0x00\n        /* \"#utility.yul\":139:140   */\n      dup1\n        /* \"#utility.yul\":132:144   */\n      revert\n        /* \"#utility.yul\":94:146   */\n    tag_75:\n      pop\n        /* \"#utility.yul\":165:188   */\n      calldataload\n      swap2\n        /* \"#utility.yul\":14:194   */\n      swap1\n      pop\n      jump\t// out\n        /* \"#utility.yul\":407:1065   */\n    tag_21:\n        /* \"#utility.yul\":578:580   */\n      0x20\n        /* \"#utility.yul\":630:651   */\n      dup1\n      dup3\n      mstore\n        /* \"#utility.yul\":700:713   */\n      dup3\n      mload\n        /* \"#utility.yul\":603:621   */\n      dup3\n      dup3\n      add\n        /* \"#utility.yul\":722:744   */\n      dup2\n      swap1\n      mstore\n        /* \"#utility.yul\":549:553   */\n      0x00\n      swap2\n        /* \"#utility.yul\":578:580   */\n      swap1\n        /* \"#utility.yul\":801:816   */\n      dup5\n      dup3\n      add\n      swap1\n        /* \"#utility.yul\":775:777   */\n      0x40\n        /* \"#utility.yul\":760:778   */\n      dup6\n      add\n      swap1\n        /* \"#utility.yul\":549:553   */\n      dup5\n        /* \"#utility.yul\":844:1039   */\n    tag_78:\n        /* \"#utility.yul\":858:864   */\n      dup2\n        /* \"#utility.yul\":855:856   */\n      dup2\n        /* \"#utility.yul\":852:865   */\n      lt\n        /* \"#utility.yul\":844:1039   */\n      iszero\n      tag_80\n      jumpi\n        /* \"#utility.yul\":923:936   */\n      dup4\n      mload\n      sub(shl(0xa0, 0x01), 0x01)\n        /* \"#utility.yul\":919:958   */\n      and\n        /* \"#utility.yul\":907:959   */\n      dup4\n      mstore\n        /* \"#utility.yul\":1014:1029   */\n      swap3\n      dup5\n      add\n      swap3\n        /* \"#utility.yul\":979:991   */\n      swap2\n      dup5\n      add\n      swap2\n        /* \"#utility.yul\":955:956   */\n      0x01\n        /* \"#utility.yul\":873:882   */\n      add\n        /* \"#utility.yul\":844:1039   */\n      jump(tag_78)\n    tag_80:\n      pop\n        /* \"#utility.yul\":1056:1059   */\n      swap1\n      swap7\n        /* \"#utility.yul\":407:1065   */\n      swap6\n      pop\n      pop\n      pop\n      pop\n      pop\n      pop\n      jump\t// out\n        /* \"#utility.yul\":1262:1435   */\n    tag_71:\n        /* \"#utility.yul\":1330:1350   */\n      dup1\n      calldataload\n      sub(shl(0xa0, 0x01), 0x01)\n        /* \"#utility.yul\":1379:1410   */\n      dup2\n      and\n        /* \"#utility.yul\":1369:1411   */\n      dup2\n      eq\n        /* \"#utility.yul\":1359:1429   */\n      tag_83\n      jumpi\n        /* \"#utility.yul\":1425:1426   */\n      0x00\n        /* \"#utility.yul\":1422:1423   */\n      dup1\n        /* \"#utility.yul\":1415:1427   */\n      revert\n        /* \"#utility.yul\":1359:1429   */\n    tag_83:\n        /* \"#utility.yul\":1262:1435   */\n      swap2\n      swap1\n      pop\n      jump\t// out\n        /* \"#utility.yul\":1440:1626   */\n    tag_28:\n        /* \"#utility.yul\":1499:1505   */\n      0x00\n        /* \"#utility.yul\":1552:1554   */\n      0x20\n        /* \"#utility.yul\":1540:1549   */\n      dup3\n        /* \"#utility.yul\":1531:1538   */\n      dup5\n        /* \"#utility.yul\":1527:1550   */\n      sub\n        /* \"#utility.yul\":1523:1555   */\n      slt\n        /* \"#utility.yul\":1520:1572   */\n      iszero\n      tag_85\n      jumpi\n        /* \"#utility.yul\":1568:1569   */\n      0x00\n        /* \"#utility.yul\":1565:1566   */\n      dup1\n        /* \"#utility.yul\":1558:1570   */\n      revert\n        /* \"#utility.yul\":1520:1572   */\n    tag_85:\n        /* \"#utility.yul\":1591:1620   */\n      tag_86\n        /* \"#utility.yul\":1610:1619   */\n      dup3\n        /* \"#utility.yul\":1591:1620   */\n      tag_71\n      jump\t// in\n    tag_86:\n        /* \"#utility.yul\":1581:1620   */\n      swap4\n        /* \"#utility.yul\":1440:1626   */\n      swap3\n      pop\n      pop\n      pop\n      jump\t// out\n        /* \"#utility.yul\":2147:2274   */\n    tag_72:\n        /* \"#utility.yul\":2208:2218   */\n      0x4e487b71\n        /* \"#utility.yul\":2203:2206   */\n      0xe0\n        /* \"#utility.yul\":2199:2219   */\n      shl\n        /* \"#utility.yul\":2196:2197   */\n      0x00\n        /* \"#utility.yul\":2189:2220   */\n      mstore\n        /* \"#utility.yul\":2239:2243   */\n      0x41\n        /* \"#utility.yul\":2236:2237   */\n      0x04\n        /* \"#utility.yul\":2229:2244   */\n      mstore\n        /* \"#utility.yul\":2263:2267   */\n      0x24\n        /* \"#utility.yul\":2260:2261   */\n      0x00\n        /* \"#utility.yul\":2253:2268   */\n      revert\n        /* \"#utility.yul\":2279:3400   */\n    tag_41:\n        /* \"#utility.yul\":2363:2369   */\n      0x00\n        /* \"#utility.yul\":2394:2396   */\n      0x20\n        /* \"#utility.yul\":2437:2439   */\n      dup1\n        /* \"#utility.yul\":2425:2434   */\n      dup4\n        /* \"#utility.yul\":2416:2423   */\n      dup6\n        /* \"#utility.yul\":2412:2435   */\n      sub\n        /* \"#utility.yul\":2408:2440   */\n      slt\n        /* \"#utility.yul\":2405:2457   */\n      iszero\n      tag_91\n      jumpi\n        /* \"#utility.yul\":2453:2454   */\n      0x00\n        /* \"#utility.yul\":2450:2451   */\n      dup1\n        /* \"#utility.yul\":2443:2455   */\n      revert\n        /* \"#utility.yul\":2405:2457   */\n    tag_91:\n        /* \"#utility.yul\":2493:2502   */\n      dup3\n        /* \"#utility.yul\":2480:2503   */\n      calldataload\n        /* \"#utility.yul\":2522:2540   */\n      0xffffffffffffffff\n        /* \"#utility.yul\":2563:2565   */\n      dup1\n        /* \"#utility.yul\":2555:2561   */\n      dup3\n        /* \"#utility.yul\":2552:2566   */\n      gt\n        /* \"#utility.yul\":2549:2583   */\n      iszero\n      tag_92\n      jumpi\n        /* \"#utility.yul\":2579:2580   */\n      0x00\n        /* \"#utility.yul\":2576:2577   */\n      dup1\n        /* \"#utility.yul\":2569:2581   */\n      revert\n        /* \"#utility.yul\":2549:2583   */\n    tag_92:\n        /* \"#utility.yul\":2617:2623   */\n      dup2\n        /* \"#utility.yul\":2606:2615   */\n      dup6\n        /* \"#utility.yul\":2602:2624   */\n      add\n        /* \"#utility.yul\":2592:2624   */\n      swap2\n      pop\n        /* \"#utility.yul\":2662:2669   */\n      dup6\n        /* \"#utility.yul\":2655:2659   */\n      0x1f\n        /* \"#utility.yul\":2651:2653   */\n      dup4\n        /* \"#utility.yul\":2647:2660   */\n      add\n        /* \"#utility.yul\":2643:2670   */\n      slt\n        /* \"#utility.yul\":2633:2688   */\n      tag_93\n      jumpi\n        /* \"#utility.yul\":2684:2685   */\n      0x00\n        /* \"#utility.yul\":2681:2682   */\n      dup1\n        /* \"#utility.yul\":2674:2686   */\n      revert\n        /* \"#utility.yul\":2633:2688   */\n    tag_93:\n        /* \"#utility.yul\":2720:2722   */\n      dup2\n        /* \"#utility.yul\":2707:2723   */\n      calldataload\n        /* \"#utility.yul\":2742:2744   */\n      dup2\n        /* \"#utility.yul\":2738:2740   */\n      dup2\n        /* \"#utility.yul\":2735:2745   */\n      gt\n        /* \"#utility.yul\":2732:2768   */\n      iszero\n      tag_95\n      jumpi\n        /* \"#utility.yul\":2748:2766   */\n      tag_95\n      tag_72\n      jump\t// in\n    tag_95:\n        /* \"#utility.yul\":2794:2796   */\n      dup1\n        /* \"#utility.yul\":2791:2792   */\n      0x05\n        /* \"#utility.yul\":2787:2797   */\n      shl\n        /* \"#utility.yul\":2826:2828   */\n      0x40\n        /* \"#utility.yul\":2820:2829   */\n      mload\n        /* \"#utility.yul\":2889:2891   */\n      0x1f\n        /* \"#utility.yul\":2885:2892   */\n      not\n        /* \"#utility.yul\":2880:2882   */\n      0x3f\n        /* \"#utility.yul\":2876:2878   */\n      dup4\n        /* \"#utility.yul\":2872:2883   */\n      add\n        /* \"#utility.yul\":2868:2893   */\n      and\n        /* \"#utility.yul\":2860:2866   */\n      dup2\n        /* \"#utility.yul\":2856:2894   */\n      add\n        /* \"#utility.yul\":2944:2950   */\n      dup2\n        /* \"#utility.yul\":2932:2942   */\n      dup2\n        /* \"#utility.yul\":2929:2951   */\n      lt\n        /* \"#utility.yul\":2924:2926   */\n      dup6\n        /* \"#utility.yul\":2912:2922   */\n      dup3\n        /* \"#utility.yul\":2909:2927   */\n      gt\n        /* \"#utility.yul\":2906:2952   */\n      or\n        /* \"#utility.yul\":2903:2975   */\n      iszero\n      tag_97\n      jumpi\n        /* \"#utility.yul\":2955:2973   */\n      tag_97\n      tag_72\n      jump\t// in\n    tag_97:\n        /* \"#utility.yul\":2991:2993   */\n      0x40\n        /* \"#utility.yul\":2984:3006   */\n      mstore\n        /* \"#utility.yul\":3041:3059   */\n      swap2\n      dup3\n      mstore\n        /* \"#utility.yul\":3075:3090   */\n      dup5\n      dup3\n      add\n      swap3\n      pop\n        /* \"#utility.yul\":3117:3128   */\n      dup4\n      dup2\n      add\n        /* \"#utility.yul\":3113:3133   */\n      dup6\n      add\n      swap2\n        /* \"#utility.yul\":3145:3164   */\n      dup9\n      dup4\n      gt\n        /* \"#utility.yul\":3142:3181   */\n      iszero\n      tag_98\n      jumpi\n        /* \"#utility.yul\":3177:3178   */\n      0x00\n        /* \"#utility.yul\":3174:3175   */\n      dup1\n        /* \"#utility.yul\":3167:3179   */\n      revert\n        /* \"#utility.yul\":3142:3181   */\n    tag_98:\n        /* \"#utility.yul\":3201:3212   */\n      swap4\n      dup6\n      add\n      swap4\n        /* \"#utility.yul\":3221:3369   */\n    tag_99:\n        /* \"#utility.yul\":3237:3243   */\n      dup3\n        /* \"#utility.yul\":3232:3235   */\n      dup6\n        /* \"#utility.yul\":3229:3244   */\n      lt\n        /* \"#utility.yul\":3221:3369   */\n      iszero\n      tag_101\n      jumpi\n        /* \"#utility.yul\":3303:3326   */\n      tag_102\n        /* \"#utility.yul\":3322:3325   */\n      dup6\n        /* \"#utility.yul\":3303:3326   */\n      tag_71\n      jump\t// in\n    tag_102:\n        /* \"#utility.yul\":3291:3327   */\n      dup5\n      mstore\n        /* \"#utility.yul\":3254:3266   */\n      swap4\n      dup6\n      add\n      swap4\n        /* \"#utility.yul\":3347:3359   */\n      swap3\n      dup6\n      add\n      swap3\n        /* \"#utility.yul\":3221:3369   */\n      jump(tag_99)\n    tag_101:\n        /* \"#utility.yul\":3388:3394   */\n      swap9\n        /* \"#utility.yul\":2279:3400   */\n      swap8\n      pop\n      pop\n      pop\n      pop\n      pop\n      pop\n      pop\n      pop\n      jump\t// out\n        /* \"#utility.yul\":3405:3532   */\n    tag_61:\n        /* \"#utility.yul\":3466:3476   */\n      0x4e487b71\n        /* \"#utility.yul\":3461:3464   */\n      0xe0\n        /* \"#utility.yul\":3457:3477   */\n      shl\n        /* \"#utility.yul\":3454:3455   */\n      0x00\n        /* \"#utility.yul\":3447:3478   */\n      mstore\n        /* \"#utility.yul\":3497:3501   */\n      0x32\n        /* \"#utility.yul\":3494:3495   */\n      0x04\n        /* \"#utility.yul\":3487:3502   */\n      mstore\n        /* \"#utility.yul\":3521:3525   */\n      0x24\n        /* \"#utility.yul\":3518:3519   */\n      0x00\n        /* \"#utility.yul\":3511:3526   */\n      revert\n        /* \"#utility.yul\":3537:3769   */\n    tag_63:\n        /* \"#utility.yul\":3576:3579   */\n      0x00\n        /* \"#utility.yul\":3597:3614   */\n      0x01\n      dup3\n      add\n        /* \"#utility.yul\":3594:3734   */\n      tag_105\n      jumpi\n        /* \"#utility.yul\":3656:3666   */\n      0x4e487b71\n        /* \"#utility.yul\":3651:3654   */\n      0xe0\n        /* \"#utility.yul\":3647:3667   */\n      shl\n        /* \"#utility.yul\":3644:3645   */\n      0x00\n        /* \"#utility.yul\":3637:3668   */\n      mstore\n        /* \"#utility.yul\":3691:3695   */\n      0x11\n        /* \"#utility.yul\":3688:3689   */\n      0x04\n        /* \"#utility.yul\":3681:3696   */\n      mstore\n        /* \"#utility.yul\":3719:3723   */\n      0x24\n        /* \"#utility.yul\":3716:3717   */\n      0x00\n        /* \"#utility.yul\":3709:3724   */\n      revert\n        /* \"#utility.yul\":3594:3734   */\n    tag_105:\n      pop\n        /* \"#utility.yul\":3761:3762   */\n      0x01\n        /* \"#utility.yul\":3750:3763   */\n      add\n      swap1\n        /* \"#utility.yul\":3537:3769   */\n      jump\t// out\n\n    auxdata: 0xa26469706673582212205146224b565d4d87cfe53fea40b1d5c1055a306912736874d37e06cb1f23b3ce64736f6c634300080f0033\n}\n",
				"bytecode": {
					"linkReferences": {},
					"object": "608060405234801561001057600080fd5b506040516105b53803806105b583398101604081905261002f91610063565b600091909155600180546001600160a01b039092166001600160a01b031992831617905560028054909116331790556100a0565b6000806040838503121561007657600080fd5b825160208401519092506001600160a01b038116811461009557600080fd5b809150509250929050565b610506806100af6000396000f3fe608060405234801561001057600080fd5b50600436106100885760003560e01c80638da5cb5b1161005b5780638da5cb5b14610132578063c392f76614610145578063f41185b81461015c578063f7c618c11461016f57600080fd5b806316c3f92c1461008d5780635a42b7a0146100bd5780637b1d591d146100d25780638c93ecff146100e5575b600080fd5b6100a061009b366004610314565b610182565b6040516001600160a01b0390911681526020015b60405180910390f35b6100c56101ac565b6040516100b4919061032d565b60015b60405190151581526020016100b4565b6101176100f3366004610396565b600460205260009081526040902080546001820154600290920154909160ff169083565b604080519384529115156020840152908201526060016100b4565b6002546100a0906001600160a01b031681565b61014e60005481565b6040519081526020016100b4565b6100d561016a3660046103ce565b61020e565b6001546100a0906001600160a01b031681565b6003818154811061019257600080fd5b6000918252602090912001546001600160a01b0316905081565b6060600380548060200260200160405190810160405280929190818152602001828054801561020457602002820191906000526020600020905b81546001600160a01b031681526001909101906020018083116101e6575b5050505050905090565b805160009061022490600390602085019061029a565b5060005b6003548110156102915760016004600085848151811061024a5761024a610493565b6020908102919091018101516001600160a01b03168252810191909152604001600020600101805460ff191691151591909117905580610289816104a9565b915050610228565b50600192915050565b8280548282559060005260206000209081019282156102ef579160200282015b828111156102ef57825182546001600160a01b0319166001600160a01b039091161782556020909201916001909101906102ba565b506102fb9291506102ff565b5090565b5b808211156102fb5760008155600101610300565b60006020828403121561032657600080fd5b5035919050565b6020808252825182820181905260009190848201906040850190845b8181101561036e5783516001600160a01b031683529284019291840191600101610349565b50909695505050505050565b80356001600160a01b038116811461039157600080fd5b919050565b6000602082840312156103a857600080fd5b6103b18261037a565b9392505050565b634e487b7160e01b600052604160045260246000fd5b600060208083850312156103e157600080fd5b823567ffffffffffffffff808211156103f957600080fd5b818501915085601f83011261040d57600080fd5b81358181111561041f5761041f6103b8565b8060051b604051601f19603f83011681018181108582111715610444576104446103b8565b60405291825284820192508381018501918883111561046257600080fd5b938501935b82851015610487576104788561037a565b84529385019392850192610467565b98975050505050505050565b634e487b7160e01b600052603260045260246000fd5b6000600182016104c957634e487b7160e01b600052601160045260246000fd5b506001019056fea26469706673582212205146224b565d4d87cfe53fea40b1d5c1055a306912736874d37e06cb1f23b3ce64736f6c634300080f0033",
					"opcodes": "PUSH1 0x80 PUSH1 0x40 MSTORE CALLVALUE DUP1 ISZERO PUSH2 0x10 JUMPI PUSH1 0x0 DUP1 REVERT JUMPDEST POP PUSH1 0x40 MLOAD PUSH2 0x5B5 CODESIZE SUB DUP1 PUSH2 0x5B5 DUP4 CODECOPY DUP2 ADD PUSH1 0x40 DUP2 SWAP1 MSTORE PUSH2 0x2F SWAP2 PUSH2 0x63 JUMP JUMPDEST PUSH1 0x0 SWAP2 SWAP1 SWAP2 SSTORE PUSH1 0x1 DUP1 SLOAD PUSH1 0x1 PUSH1 0x1 PUSH1 0xA0 SHL SUB SWAP1 SWAP3 AND PUSH1 0x1 PUSH1 0x1 PUSH1 0xA0 SHL SUB NOT SWAP3 DUP4 AND OR SWAP1 SSTORE PUSH1 0x2 DUP1 SLOAD SWAP1 SWAP2 AND CALLER OR SWAP1 SSTORE PUSH2 0xA0 JUMP JUMPDEST PUSH1 0x0 DUP1 PUSH1 0x40 DUP4 DUP6 SUB SLT ISZERO PUSH2 0x76 JUMPI PUSH1 0x0 DUP1 REVERT JUMPDEST DUP3 MLOAD PUSH1 0x20 DUP5 ADD MLOAD SWAP1 SWAP3 POP PUSH1 0x1 PUSH1 0x1 PUSH1 0xA0 SHL SUB DUP2 AND DUP2 EQ PUSH2 0x95 JUMPI PUSH1 0x0 DUP1 REVERT JUMPDEST DUP1 SWAP2 POP POP SWAP3 POP SWAP3 SWAP1 POP JUMP JUMPDEST PUSH2 0x506 DUP1 PUSH2 0xAF PUSH1 0x0 CODECOPY PUSH1 0x0 RETURN INVALID PUSH1 0x80 PUSH1 0x40 MSTORE CALLVALUE DUP1 ISZERO PUSH2 0x10 JUMPI PUSH1 0x0 DUP1 REVERT JUMPDEST POP PUSH1 0x4 CALLDATASIZE LT PUSH2 0x88 JUMPI PUSH1 0x0 CALLDATALOAD PUSH1 0xE0 SHR DUP1 PUSH4 0x8DA5CB5B GT PUSH2 0x5B JUMPI DUP1 PUSH4 0x8DA5CB5B EQ PUSH2 0x132 JUMPI DUP1 PUSH4 0xC392F766 EQ PUSH2 0x145 JUMPI DUP1 PUSH4 0xF41185B8 EQ PUSH2 0x15C JUMPI DUP1 PUSH4 0xF7C618C1 EQ PUSH2 0x16F JUMPI PUSH1 0x0 DUP1 REVERT JUMPDEST DUP1 PUSH4 0x16C3F92C EQ PUSH2 0x8D JUMPI DUP1 PUSH4 0x5A42B7A0 EQ PUSH2 0xBD JUMPI DUP1 PUSH4 0x7B1D591D EQ PUSH2 0xD2 JUMPI DUP1 PUSH4 0x8C93ECFF EQ PUSH2 0xE5 JUMPI JUMPDEST PUSH1 0x0 DUP1 REVERT JUMPDEST PUSH2 0xA0 PUSH2 0x9B CALLDATASIZE PUSH1 0x4 PUSH2 0x314 JUMP JUMPDEST PUSH2 0x182 JUMP JUMPDEST PUSH1 0x40 MLOAD PUSH1 0x1 PUSH1 0x1 PUSH1 0xA0 SHL SUB SWAP1 SWAP2 AND DUP2 MSTORE PUSH1 0x20 ADD JUMPDEST PUSH1 0x40 MLOAD DUP1 SWAP2 SUB SWAP1 RETURN JUMPDEST PUSH2 0xC5 PUSH2 0x1AC JUMP JUMPDEST PUSH1 0x40 MLOAD PUSH2 0xB4 SWAP2 SWAP1 PUSH2 0x32D JUMP JUMPDEST PUSH1 0x1 JUMPDEST PUSH1 0x40 MLOAD SWAP1 ISZERO ISZERO DUP2 MSTORE PUSH1 0x20 ADD PUSH2 0xB4 JUMP JUMPDEST PUSH2 0x117 PUSH2 0xF3 CALLDATASIZE PUSH1 0x4 PUSH2 0x396 JUMP JUMPDEST PUSH1 0x4 PUSH1 0x20 MSTORE PUSH1 0x0 SWAP1 DUP2 MSTORE PUSH1 0x40 SWAP1 KECCAK256 DUP1 SLOAD PUSH1 0x1 DUP3 ADD SLOAD PUSH1 0x2 SWAP1 SWAP3 ADD SLOAD SWAP1 SWAP2 PUSH1 0xFF AND SWAP1 DUP4 JUMP JUMPDEST PUSH1 0x40 DUP1 MLOAD SWAP4 DUP5 MSTORE SWAP2 ISZERO ISZERO PUSH1 0x20 DUP5 ADD MSTORE SWAP1 DUP3 ADD MSTORE PUSH1 0x60 ADD PUSH2 0xB4 JUMP JUMPDEST PUSH1 0x2 SLOAD PUSH2 0xA0 SWAP1 PUSH1 0x1 PUSH1 0x1 PUSH1 0xA0 SHL SUB AND DUP2 JUMP JUMPDEST PUSH2 0x14E PUSH1 0x0 SLOAD DUP2 JUMP JUMPDEST PUSH1 0x40 MLOAD SWAP1 DUP2 MSTORE PUSH1 0x20 ADD PUSH2 0xB4 JUMP JUMPDEST PUSH2 0xD5 PUSH2 0x16A CALLDATASIZE PUSH1 0x4 PUSH2 0x3CE JUMP JUMPDEST PUSH2 0x20E JUMP JUMPDEST PUSH1 0x1 SLOAD PUSH2 0xA0 SWAP1 PUSH1 0x1 PUSH1 0x1 PUSH1 0xA0 SHL SUB AND DUP2 JUMP JUMPDEST PUSH1 0x3 DUP2 DUP2 SLOAD DUP2 LT PUSH2 0x192 JUMPI PUSH1 0x0 DUP1 REVERT JUMPDEST PUSH1 0x0 SWAP2 DUP3 MSTORE PUSH1 0x20 SWAP1 SWAP2 KECCAK256 ADD SLOAD PUSH1 0x1 PUSH1 0x1 PUSH1 0xA0 SHL SUB AND SWAP1 POP DUP2 JUMP JUMPDEST PUSH1 0x60 PUSH1 0x3 DUP1 SLOAD DUP1 PUSH1 0x20 MUL PUSH1 0x20 ADD PUSH1 0x40 MLOAD SWAP1 DUP2 ADD PUSH1 0x40 MSTORE DUP1 SWAP3 SWAP2 SWAP1 DUP2 DUP2 MSTORE PUSH1 0x20 ADD DUP3 DUP1 SLOAD DUP1 ISZERO PUSH2 0x204 JUMPI PUSH1 0x20 MUL DUP3 ADD SWAP2 SWAP1 PUSH1 0x0 MSTORE PUSH1 0x20 PUSH1 0x0 KECCAK256 SWAP1 JUMPDEST DUP2 SLOAD PUSH1 0x1 PUSH1 0x1 PUSH1 0xA0 SHL SUB AND DUP2 MSTORE PUSH1 0x1 SWAP1 SWAP2 ADD SWAP1 PUSH1 0x20 ADD DUP1 DUP4 GT PUSH2 0x1E6 JUMPI JUMPDEST POP POP POP POP POP SWAP1 POP SWAP1 JUMP JUMPDEST DUP1 MLOAD PUSH1 0x0 SWAP1 PUSH2 0x224 SWAP1 PUSH1 0x3 SWAP1 PUSH1 0x20 DUP6 ADD SWAP1 PUSH2 0x29A JUMP JUMPDEST POP PUSH1 0x0 JUMPDEST PUSH1 0x3 SLOAD DUP2 LT ISZERO PUSH2 0x291 JUMPI PUSH1 0x1 PUSH1 0x4 PUSH1 0x0 DUP6 DUP5 DUP2 MLOAD DUP2 LT PUSH2 0x24A JUMPI PUSH2 0x24A PUSH2 0x493 JUMP JUMPDEST PUSH1 0x20 SWAP1 DUP2 MUL SWAP2 SWAP1 SWAP2 ADD DUP2 ADD MLOAD PUSH1 0x1 PUSH1 0x1 PUSH1 0xA0 SHL SUB AND DUP3 MSTORE DUP2 ADD SWAP2 SWAP1 SWAP2 MSTORE PUSH1 0x40 ADD PUSH1 0x0 KECCAK256 PUSH1 0x1 ADD DUP1 SLOAD PUSH1 0xFF NOT AND SWAP2 ISZERO ISZERO SWAP2 SWAP1 SWAP2 OR SWAP1 SSTORE DUP1 PUSH2 0x289 DUP2 PUSH2 0x4A9 JUMP JUMPDEST SWAP2 POP POP PUSH2 0x228 JUMP JUMPDEST POP PUSH1 0x1 SWAP3 SWAP2 POP POP JUMP JUMPDEST DUP3 DUP1 SLOAD DUP3 DUP3 SSTORE SWAP1 PUSH1 0x0 MSTORE PUSH1 0x20 PUSH1 0x0 KECCAK256 SWAP1 DUP2 ADD SWAP3 DUP3 ISZERO PUSH2 0x2EF JUMPI SWAP2 PUSH1 0x20 MUL DUP3 ADD JUMPDEST DUP3 DUP2 GT ISZERO PUSH2 0x2EF JUMPI DUP3 MLOAD DUP3 SLOAD PUSH1 0x1 PUSH1 0x1 PUSH1 0xA0 SHL SUB NOT AND PUSH1 0x1 PUSH1 0x1 PUSH1 0xA0 SHL SUB SWAP1 SWAP2 AND OR DUP3 SSTORE PUSH1 0x20 SWAP1 SWAP3 ADD SWAP2 PUSH1 0x1 SWAP1 SWAP2 ADD SWAP1 PUSH2 0x2BA JUMP JUMPDEST POP PUSH2 0x2FB SWAP3 SWAP2 POP PUSH2 0x2FF JUMP JUMPDEST POP SWAP1 JUMP JUMPDEST JUMPDEST DUP1 DUP3 GT ISZERO PUSH2 0x2FB JUMPI PUSH1 0x0 DUP2 SSTORE PUSH1 0x1 ADD PUSH2 0x300 JUMP JUMPDEST PUSH1 0x0 PUSH1 0x20 DUP3 DUP5 SUB SLT ISZERO PUSH2 0x326 JUMPI PUSH1 0x0 DUP1 REVERT JUMPDEST POP CALLDATALOAD SWAP2 SWAP1 POP JUMP JUMPDEST PUSH1 0x20 DUP1 DUP3 MSTORE DUP3 MLOAD DUP3 DUP3 ADD DUP2 SWAP1 MSTORE PUSH1 0x0 SWAP2 SWAP1 DUP5 DUP3 ADD SWAP1 PUSH1 0x40 DUP6 ADD SWAP1 DUP5 JUMPDEST DUP2 DUP2 LT ISZERO PUSH2 0x36E JUMPI DUP4 MLOAD PUSH1 0x1 PUSH1 0x1 PUSH1 0xA0 SHL SUB AND DUP4 MSTORE SWAP3 DUP5 ADD SWAP3 SWAP2 DUP5 ADD SWAP2 PUSH1 0x1 ADD PUSH2 0x349 JUMP JUMPDEST POP SWAP1 SWAP7 SWAP6 POP POP POP POP POP POP JUMP JUMPDEST DUP1 CALLDATALOAD PUSH1 0x1 PUSH1 0x1 PUSH1 0xA0 SHL SUB DUP2 AND DUP2 EQ PUSH2 0x391 JUMPI PUSH1 0x0 DUP1 REVERT JUMPDEST SWAP2 SWAP1 POP JUMP JUMPDEST PUSH1 0x0 PUSH1 0x20 DUP3 DUP5 SUB SLT ISZERO PUSH2 0x3A8 JUMPI PUSH1 0x0 DUP1 REVERT JUMPDEST PUSH2 0x3B1 DUP3 PUSH2 0x37A JUMP JUMPDEST SWAP4 SWAP3 POP POP POP JUMP JUMPDEST PUSH4 0x4E487B71 PUSH1 0xE0 SHL PUSH1 0x0 MSTORE PUSH1 0x41 PUSH1 0x4 MSTORE PUSH1 0x24 PUSH1 0x0 REVERT JUMPDEST PUSH1 0x0 PUSH1 0x20 DUP1 DUP4 DUP6 SUB SLT ISZERO PUSH2 0x3E1 JUMPI PUSH1 0x0 DUP1 REVERT JUMPDEST DUP3 CALLDATALOAD PUSH8 0xFFFFFFFFFFFFFFFF DUP1 DUP3 GT ISZERO PUSH2 0x3F9 JUMPI PUSH1 0x0 DUP1 REVERT JUMPDEST DUP2 DUP6 ADD SWAP2 POP DUP6 PUSH1 0x1F DUP4 ADD SLT PUSH2 0x40D JUMPI PUSH1 0x0 DUP1 REVERT JUMPDEST DUP2 CALLDATALOAD DUP2 DUP2 GT ISZERO PUSH2 0x41F JUMPI PUSH2 0x41F PUSH2 0x3B8 JUMP JUMPDEST DUP1 PUSH1 0x5 SHL PUSH1 0x40 MLOAD PUSH1 0x1F NOT PUSH1 0x3F DUP4 ADD AND DUP2 ADD DUP2 DUP2 LT DUP6 DUP3 GT OR ISZERO PUSH2 0x444 JUMPI PUSH2 0x444 PUSH2 0x3B8 JUMP JUMPDEST PUSH1 0x40 MSTORE SWAP2 DUP3 MSTORE DUP5 DUP3 ADD SWAP3 POP DUP4 DUP2 ADD DUP6 ADD SWAP2 DUP9 DUP4 GT ISZERO PUSH2 0x462 JUMPI PUSH1 0x0 DUP1 REVERT JUMPDEST SWAP4 DUP6 ADD SWAP4 JUMPDEST DUP3 DUP6 LT ISZERO PUSH2 0x487 JUMPI PUSH2 0x478 DUP6 PUSH2 0x37A JUMP JUMPDEST DUP5 MSTORE SWAP4 DUP6 ADD SWAP4 SWAP3 DUP6 ADD SWAP3 PUSH2 0x467 JUMP JUMPDEST SWAP9 SWAP8 POP POP POP POP POP POP POP POP JUMP JUMPDEST PUSH4 0x4E487B71 PUSH1 0xE0 SHL PUSH1 0x0 MSTORE PUSH1 0x32 PUSH1 0x4 MSTORE PUSH1 0x24 PUSH1 0x0 REVERT JUMPDEST PUSH1 0x0 PUSH1 0x1 DUP3 ADD PUSH2 0x4C9 JUMPI PUSH4 0x4E487B71 PUSH1 0xE0 SHL PUSH1 0x0 MSTORE PUSH1 0x11 PUSH1 0x4 MSTORE PUSH1 0x24 PUSH1 0x0 REVERT JUMPDEST POP PUSH1 0x1 ADD SWAP1 JUMP INVALID LOG2 PUSH5 0x6970667358 0x22 SLT KECCAK256 MLOAD CHAINID 0x22 0x4B JUMP 0x5D 0x4D DUP8 0xCF 0xE5 EXTCODEHASH 0xEA BLOCKHASH 0xB1 0xD5 0xC1 SDIV GAS ADDRESS PUSH10 0x12736874D37E06CB1F23 0xB3 0xCE PUSH5 0x736F6C6343 STOP ADDMOD 0xF STOP CALLER "
				},
				"gasEstimates": {
					"creation": {
						"codeDepositCost": "257200",
						"executionCost": "infinite",
						"totalCost": "infinite"
					},
					"external": {
						"GetRewardUser()": "infinite",
						"SetReward(address[])": "infinite",
						"UserReward()": "232",
						"User_Map(address)": "6867",
						"interest()": "2317",
						"owner()": "2326",
						"rewardToken()": "2392",
						"rewarduser(uint256)": "4604"
					}
				},
				"methodIdentifiers": {
					"GetRewardUser()": "5a42b7a0",
					"SetReward(address[])": "f41185b8",
					"UserReward()": "7b1d591d",
					"User_Map(address)": "8c93ecff",
					"interest()": "c392f766",
					"owner()": "8da5cb5b",
					"rewardToken()": "f7c618c1",
					"rewarduser(uint256)": "16c3f92c"
				}
			},
			"storageLayout": {
				"storage": [
					{
						"astId": 3,
						"contract": "写项目基础/写个蓝图计划.sol:BluePlan",
						"label": "interest",
						"offset": 0,
						"slot": "0",
						"type": "t_uint256"
					},
					{
						"astId": 5,
						"contract": "写项目基础/写个蓝图计划.sol:BluePlan",
						"label": "rewardToken",
						"offset": 0,
						"slot": "1",
						"type": "t_address"
					},
					{
						"astId": 7,
						"contract": "写项目基础/写个蓝图计划.sol:BluePlan",
						"label": "owner",
						"offset": 0,
						"slot": "2",
						"type": "t_address"
					},
					{
						"astId": 10,
						"contract": "写项目基础/写个蓝图计划.sol:BluePlan",
						"label": "rewarduser",
						"offset": 0,
						"slot": "3",
						"type": "t_array(t_address)dyn_storage"
					},
					{
						"astId": 22,
						"contract": "写项目基础/写个蓝图计划.sol:BluePlan",
						"label": "User_Map",
						"offset": 0,
						"slot": "4",
						"type": "t_mapping(t_address,t_struct(User)17_storage)"
					}
				],
				"types": {
					"t_address": {
						"encoding": "inplace",
						"label": "address",
						"numberOfBytes": "20"
					},
					"t_array(t_address)dyn_storage": {
						"base": "t_address",
						"encoding": "dynamic_array",
						"label": "address[]",
						"numberOfBytes": "32"
					},
					"t_bool": {
						"encoding": "inplace",
						"label": "bool",
						"numberOfBytes": "1"
					},
					"t_mapping(t_address,t_struct(User)17_storage)": {
						"encoding": "mapping",
						"key": "t_address",
						"label": "mapping(address => struct BluePlan.User)",
						"numberOfBytes": "32",
						"value": "t_struct(User)17_storage"
					},
					"t_struct(User)17_storage": {
						"encoding": "inplace",
						"label": "struct BluePlan.User",
						"members": [
							{
								"astId": 12,
								"contract": "写项目基础/写个蓝图计划.sol:BluePlan",
								"label": "userReward",
								"offset": 0,
								"slot": "0",
								"type": "t_uint256"
							},
							{
								"astId": 14,
								"contract": "写项目基础/写个蓝图计划.sol:BluePlan",
								"label": "userState",
								"offset": 0,
								"slot": "1",
								"type": "t_bool"
							},
							{
								"astId": 16,
								"contract": "写项目基础/写个蓝图计划.sol:BluePlan",
								"label": "userStart",
								"offset": 0,
								"slot": "2",
								"type": "t_uint256"
							}
						],
						"numberOfBytes": "96"
					},
					"t_uint256": {
						"encoding": "inplace",
						"label": "uint256",
						"numberOfBytes": "32"
					}
				}
			},
			"userdoc": {
				"kind": "user",
				"methods": {},
				"version": 1
			}
		}
	}
}