{
	"学习基础/写个蓝图计划.sol": {
		"BluePlan": {
			"abi": [
				{
					"inputs": [
						{
							"internalType": "uint256",
							"name": "_interest",
							"type": "uint256"
						},
						{
							"internalType": "address",
							"name": "_rewardToken",
							"type": "address"
						}
					],
					"stateMutability": "nonpayable",
					"type": "constructor"
				},
				{
					"inputs": [],
					"name": "interest",
					"outputs": [
						{
							"internalType": "uint256",
							"name": "",
							"type": "uint256"
						}
					],
					"stateMutability": "view",
					"type": "function"
				},
				{
					"inputs": [],
					"name": "owner",
					"outputs": [
						{
							"internalType": "address",
							"name": "",
							"type": "address"
						}
					],
					"stateMutability": "view",
					"type": "function"
				},
				{
					"inputs": [],
					"name": "rewardToken",
					"outputs": [
						{
							"internalType": "address",
							"name": "",
							"type": "address"
						}
					],
					"stateMutability": "view",
					"type": "function"
				}
			],
			"devdoc": {
				"kind": "dev",
				"methods": {},
				"version": 1
			},
			"evm": {
				"assembly": "    /* \"\\xe5\\xad\\xa6\\xe4\\xb9\\xa0\\xe5\\x9f\\xba\\xe7\\xa1\\x80/\\xe5\\x86\\x99\\xe4\\xb8\\xaa\\xe8\\x93\\x9d\\xe5\\x9b\\xbe\\xe8\\xae\\xa1\\xe5\\x88\\x92.sol\":67:290  contract BluePlan {... */\n  mstore(0x40, 0x80)\n    /* \"\\xe5\\xad\\xa6\\xe4\\xb9\\xa0\\xe5\\x9f\\xba\\xe7\\xa1\\x80/\\xe5\\x86\\x99\\xe4\\xb8\\xaa\\xe8\\x93\\x9d\\xe5\\x9b\\xbe\\xe8\\xae\\xa1\\xe5\\x88\\x92.sol\":185:279  constructor (uint _interest, address _rewardToken) {... */\n  callvalue\n  dup1\n  iszero\n  tag_1\n  jumpi\n  0x00\n  dup1\n  revert\ntag_1:\n  pop\n  mload(0x40)\n  sub(codesize, bytecodeSize)\n  dup1\n  bytecodeSize\n  dup4\n  codecopy\n  dup2\n  add\n  0x40\n  dup2\n  swap1\n  mstore\n  tag_2\n  swap2\n  tag_3\n  jump\t// in\ntag_2:\n  pop\n    /* \"\\xe5\\xad\\xa6\\xe4\\xb9\\xa0\\xe5\\x9f\\xba\\xe7\\xa1\\x80/\\xe5\\x86\\x99\\xe4\\xb8\\xaa\\xe8\\x93\\x9d\\xe5\\x9b\\xbe\\xe8\\xae\\xa1\\xe5\\x88\\x92.sol\":247:255  interest */\n  0x00\n    /* \"\\xe5\\xad\\xa6\\xe4\\xb9\\xa0\\xe5\\x9f\\xba\\xe7\\xa1\\x80/\\xe5\\x86\\x99\\xe4\\xb8\\xaa\\xe8\\x93\\x9d\\xe5\\x9b\\xbe\\xe8\\xae\\xa1\\xe5\\x88\\x92.sol\":247:267  interest = _interest */\n  sstore\n    /* \"\\xe5\\xad\\xa6\\xe4\\xb9\\xa0\\xe5\\x9f\\xba\\xe7\\xa1\\x80/\\xe5\\x86\\x99\\xe4\\xb8\\xaa\\xe8\\x93\\x9d\\xe5\\x9b\\xbe\\xe8\\xae\\xa1\\xe5\\x88\\x92.sol\":67:290  contract BluePlan {... */\n  jump(tag_7)\n    /* \"#utility.yul\":14:365   */\ntag_3:\n    /* \"#utility.yul\":93:99   */\n  0x00\n    /* \"#utility.yul\":101:107   */\n  dup1\n    /* \"#utility.yul\":154:156   */\n  0x40\n    /* \"#utility.yul\":142:151   */\n  dup4\n    /* \"#utility.yul\":133:140   */\n  dup6\n    /* \"#utility.yul\":129:152   */\n  sub\n    /* \"#utility.yul\":125:157   */\n  slt\n    /* \"#utility.yul\":122:174   */\n  iszero\n  tag_9\n  jumpi\n    /* \"#utility.yul\":170:171   */\n  0x00\n    /* \"#utility.yul\":167:168   */\n  dup1\n    /* \"#utility.yul\":160:172   */\n  revert\n    /* \"#utility.yul\":122:174   */\ntag_9:\n    /* \"#utility.yul\":193:209   */\n  dup3\n  mload\n    /* \"#utility.yul\":252:254   */\n  0x20\n    /* \"#utility.yul\":237:255   */\n  dup5\n  add\n    /* \"#utility.yul\":231:256   */\n  mload\n    /* \"#utility.yul\":193:209   */\n  swap1\n  swap3\n  pop\n  sub(shl(0xa0, 0x01), 0x01)\n    /* \"#utility.yul\":285:316   */\n  dup2\n  and\n    /* \"#utility.yul\":275:317   */\n  dup2\n  eq\n    /* \"#utility.yul\":265:335   */\n  tag_10\n  jumpi\n    /* \"#utility.yul\":331:332   */\n  0x00\n    /* \"#utility.yul\":328:329   */\n  dup1\n    /* \"#utility.yul\":321:333   */\n  revert\n    /* \"#utility.yul\":265:335   */\ntag_10:\n    /* \"#utility.yul\":354:359   */\n  dup1\n    /* \"#utility.yul\":344:359   */\n  swap2\n  pop\n  pop\n    /* \"#utility.yul\":14:365   */\n  swap3\n  pop\n  swap3\n  swap1\n  pop\n  jump\t// out\ntag_7:\n    /* \"\\xe5\\xad\\xa6\\xe4\\xb9\\xa0\\xe5\\x9f\\xba\\xe7\\xa1\\x80/\\xe5\\x86\\x99\\xe4\\xb8\\xaa\\xe8\\x93\\x9d\\xe5\\x9b\\xbe\\xe8\\xae\\xa1\\xe5\\x88\\x92.sol\":67:290  contract BluePlan {... */\n  dataSize(sub_0)\n  dup1\n  dataOffset(sub_0)\n  0x00\n  codecopy\n  0x00\n  return\nstop\n\nsub_0: assembly {\n        /* \"\\xe5\\xad\\xa6\\xe4\\xb9\\xa0\\xe5\\x9f\\xba\\xe7\\xa1\\x80/\\xe5\\x86\\x99\\xe4\\xb8\\xaa\\xe8\\x93\\x9d\\xe5\\x9b\\xbe\\xe8\\xae\\xa1\\xe5\\x88\\x92.sol\":67:290  contract BluePlan {... */\n      mstore(0x40, 0x80)\n      callvalue\n      dup1\n      iszero\n      tag_1\n      jumpi\n      0x00\n      dup1\n      revert\n    tag_1:\n      pop\n      jumpi(tag_2, lt(calldatasize, 0x04))\n      shr(0xe0, calldataload(0x00))\n      dup1\n      0x8da5cb5b\n      eq\n      tag_3\n      jumpi\n      dup1\n      0xc392f766\n      eq\n      tag_4\n      jumpi\n      dup1\n      0xf7c618c1\n      eq\n      tag_5\n      jumpi\n    tag_2:\n      0x00\n      dup1\n      revert\n        /* \"\\xe5\\xad\\xa6\\xe4\\xb9\\xa0\\xe5\\x9f\\xba\\xe7\\xa1\\x80/\\xe5\\x86\\x99\\xe4\\xb8\\xaa\\xe8\\x93\\x9d\\xe5\\x9b\\xbe\\xe8\\xae\\xa1\\xe5\\x88\\x92.sol\":154:174  address public owner */\n    tag_3:\n      sload(0x02)\n      tag_6\n      swap1\n      sub(shl(0xa0, 0x01), 0x01)\n      and\n      dup2\n      jump\n    tag_6:\n      mload(0x40)\n      sub(shl(0xa0, 0x01), 0x01)\n        /* \"#utility.yul\":178:210   */\n      swap1\n      swap2\n      and\n        /* \"#utility.yul\":160:211   */\n      dup2\n      mstore\n        /* \"#utility.yul\":148:150   */\n      0x20\n        /* \"#utility.yul\":133:151   */\n      add\n        /* \"\\xe5\\xad\\xa6\\xe4\\xb9\\xa0\\xe5\\x9f\\xba\\xe7\\xa1\\x80/\\xe5\\x86\\x99\\xe4\\xb8\\xaa\\xe8\\x93\\x9d\\xe5\\x9b\\xbe\\xe8\\xae\\xa1\\xe5\\x88\\x92.sol\":154:174  address public owner */\n    tag_8:\n      mload(0x40)\n      dup1\n      swap2\n      sub\n      swap1\n      return\n        /* \"\\xe5\\xad\\xa6\\xe4\\xb9\\xa0\\xe5\\x9f\\xba\\xe7\\xa1\\x80/\\xe5\\x86\\x99\\xe4\\xb8\\xaa\\xe8\\x93\\x9d\\xe5\\x9b\\xbe\\xe8\\xae\\xa1\\xe5\\x88\\x92.sol\":94:114  uint public interest */\n    tag_4:\n      tag_10\n      sload(0x00)\n      dup2\n      jump\n    tag_10:\n      mload(0x40)\n        /* \"#utility.yul\":368:393   */\n      swap1\n      dup2\n      mstore\n        /* \"#utility.yul\":356:358   */\n      0x20\n        /* \"#utility.yul\":341:359   */\n      add\n        /* \"\\xe5\\xad\\xa6\\xe4\\xb9\\xa0\\xe5\\x9f\\xba\\xe7\\xa1\\x80/\\xe5\\x86\\x99\\xe4\\xb8\\xaa\\xe8\\x93\\x9d\\xe5\\x9b\\xbe\\xe8\\xae\\xa1\\xe5\\x88\\x92.sol\":94:114  uint public interest */\n      tag_8\n        /* \"#utility.yul\":222:399   */\n      jump\n        /* \"\\xe5\\xad\\xa6\\xe4\\xb9\\xa0\\xe5\\x9f\\xba\\xe7\\xa1\\x80/\\xe5\\x86\\x99\\xe4\\xb8\\xaa\\xe8\\x93\\x9d\\xe5\\x9b\\xbe\\xe8\\xae\\xa1\\xe5\\x88\\x92.sol\":121:147  address public rewardToken */\n    tag_5:\n      sload(0x01)\n      tag_6\n      swap1\n      sub(shl(0xa0, 0x01), 0x01)\n      and\n      dup2\n      jump\n\n    auxdata: 0xa264697066735822122028f330e33cb06d729cc4344e40d3bf1ef16fd55f96ea4d77f7602fce5f6630c664736f6c634300080f0033\n}\n",
				"bytecode": {
					"linkReferences": {},
					"object": "608060405234801561001057600080fd5b5060405161015038038061015083398101604081905261002f91610038565b50600055610075565b6000806040838503121561004b57600080fd5b825160208401519092506001600160a01b038116811461006a57600080fd5b809150509250929050565b60cd806100836000396000f3fe6080604052348015600f57600080fd5b5060043610603c5760003560e01c80638da5cb5b146041578063c392f766146070578063f7c618c1146085575b600080fd5b6002546053906001600160a01b031681565b6040516001600160a01b0390911681526020015b60405180910390f35b607860005481565b6040519081526020016067565b6001546053906001600160a01b03168156fea264697066735822122028f330e33cb06d729cc4344e40d3bf1ef16fd55f96ea4d77f7602fce5f6630c664736f6c634300080f0033",
					"opcodes": "PUSH1 0x80 PUSH1 0x40 MSTORE CALLVALUE DUP1 ISZERO PUSH2 0x10 JUMPI PUSH1 0x0 DUP1 REVERT JUMPDEST POP PUSH1 0x40 MLOAD PUSH2 0x150 CODESIZE SUB DUP1 PUSH2 0x150 DUP4 CODECOPY DUP2 ADD PUSH1 0x40 DUP2 SWAP1 MSTORE PUSH2 0x2F SWAP2 PUSH2 0x38 JUMP JUMPDEST POP PUSH1 0x0 SSTORE PUSH2 0x75 JUMP JUMPDEST PUSH1 0x0 DUP1 PUSH1 0x40 DUP4 DUP6 SUB SLT ISZERO PUSH2 0x4B JUMPI PUSH1 0x0 DUP1 REVERT JUMPDEST DUP3 MLOAD PUSH1 0x20 DUP5 ADD MLOAD SWAP1 SWAP3 POP PUSH1 0x1 PUSH1 0x1 PUSH1 0xA0 SHL SUB DUP2 AND DUP2 EQ PUSH2 0x6A JUMPI PUSH1 0x0 DUP1 REVERT JUMPDEST DUP1 SWAP2 POP POP SWAP3 POP SWAP3 SWAP1 POP JUMP JUMPDEST PUSH1 0xCD DUP1 PUSH2 0x83 PUSH1 0x0 CODECOPY PUSH1 0x0 RETURN INVALID PUSH1 0x80 PUSH1 0x40 MSTORE CALLVALUE DUP1 ISZERO PUSH1 0xF JUMPI PUSH1 0x0 DUP1 REVERT JUMPDEST POP PUSH1 0x4 CALLDATASIZE LT PUSH1 0x3C JUMPI PUSH1 0x0 CALLDATALOAD PUSH1 0xE0 SHR DUP1 PUSH4 0x8DA5CB5B EQ PUSH1 0x41 JUMPI DUP1 PUSH4 0xC392F766 EQ PUSH1 0x70 JUMPI DUP1 PUSH4 0xF7C618C1 EQ PUSH1 0x85 JUMPI JUMPDEST PUSH1 0x0 DUP1 REVERT JUMPDEST PUSH1 0x2 SLOAD PUSH1 0x53 SWAP1 PUSH1 0x1 PUSH1 0x1 PUSH1 0xA0 SHL SUB AND DUP2 JUMP JUMPDEST PUSH1 0x40 MLOAD PUSH1 0x1 PUSH1 0x1 PUSH1 0xA0 SHL SUB SWAP1 SWAP2 AND DUP2 MSTORE PUSH1 0x20 ADD JUMPDEST PUSH1 0x40 MLOAD DUP1 SWAP2 SUB SWAP1 RETURN JUMPDEST PUSH1 0x78 PUSH1 0x0 SLOAD DUP2 JUMP JUMPDEST PUSH1 0x40 MLOAD SWAP1 DUP2 MSTORE PUSH1 0x20 ADD PUSH1 0x67 JUMP JUMPDEST PUSH1 0x1 SLOAD PUSH1 0x53 SWAP1 PUSH1 0x1 PUSH1 0x1 PUSH1 0xA0 SHL SUB AND DUP2 JUMP INVALID LOG2 PUSH5 0x6970667358 0x22 SLT KECCAK256 0x28 RETURN ADDRESS 0xE3 EXTCODECOPY 0xB0 PUSH14 0x729CC4344E40D3BF1EF16FD55F96 0xEA 0x4D PUSH24 0xF7602FCE5F6630C664736F6C634300080F00330000000000 "
				},
				"gasEstimates": {
					"creation": {
						"codeDepositCost": "41000",
						"executionCost": "infinite",
						"totalCost": "infinite"
					},
					"external": {
						"interest()": "2295",
						"owner()": "2304",
						"rewardToken()": "2348"
					}
				},
				"methodIdentifiers": {
					"interest()": "c392f766",
					"owner()": "8da5cb5b",
					"rewardToken()": "f7c618c1"
				}
			},
			"storageLayout": {
				"storage": [
					{
						"astId": 3,
						"contract": "学习基础/写个蓝图计划.sol:BluePlan",
						"label": "interest",
						"offset": 0,
						"slot": "0",
						"type": "t_uint256"
					},
					{
						"astId": 5,
						"contract": "学习基础/写个蓝图计划.sol:BluePlan",
						"label": "rewardToken",
						"offset": 0,
						"slot": "1",
						"type": "t_address"
					},
					{
						"astId": 7,
						"contract": "学习基础/写个蓝图计划.sol:BluePlan",
						"label": "owner",
						"offset": 0,
						"slot": "2",
						"type": "t_address"
					}
				],
				"types": {
					"t_address": {
						"encoding": "inplace",
						"label": "address",
						"numberOfBytes": "20"
					},
					"t_uint256": {
						"encoding": "inplace",
						"label": "uint256",
						"numberOfBytes": "32"
					}
				}
			},
			"userdoc": {
				"kind": "user",
				"methods": {},
				"version": 1
			}
		}
	}
}