{
	"写项目基础/写uni算法矿池.sol": {
		"StakeContract": {
			"abi": [
				{
					"anonymous": false,
					"inputs": [
						{
							"indexed": true,
							"internalType": "address",
							"name": "owner",
							"type": "address"
						},
						{
							"indexed": true,
							"internalType": "address",
							"name": "spender",
							"type": "address"
						},
						{
							"indexed": false,
							"internalType": "uint256",
							"name": "amout",
							"type": "uint256"
						}
					],
					"name": "Approveal",
					"type": "event"
				},
				{
					"anonymous": false,
					"inputs": [
						{
							"indexed": true,
							"internalType": "address",
							"name": "from",
							"type": "address"
						},
						{
							"indexed": true,
							"internalType": "address",
							"name": "to",
							"type": "address"
						},
						{
							"indexed": false,
							"internalType": "uint256",
							"name": "amout",
							"type": "uint256"
						}
					],
					"name": "Trasfer",
					"type": "event"
				},
				{
					"anonymous": false,
					"inputs": [
						{
							"indexed": true,
							"internalType": "address",
							"name": "to",
							"type": "address"
						},
						{
							"indexed": false,
							"internalType": "uint256",
							"name": "amout",
							"type": "uint256"
						}
					],
					"name": "transfer",
					"type": "event"
				},
				{
					"inputs": [],
					"name": "max_a_token_reward",
					"outputs": [
						{
							"internalType": "uint256",
							"name": "",
							"type": "uint256"
						}
					],
					"stateMutability": "view",
					"type": "function"
				},
				{
					"inputs": [],
					"name": "owner",
					"outputs": [
						{
							"internalType": "address",
							"name": "",
							"type": "address"
						}
					],
					"stateMutability": "view",
					"type": "function"
				},
				{
					"inputs": [],
					"name": "ratio",
					"outputs": [
						{
							"internalType": "uint256",
							"name": "",
							"type": "uint256"
						}
					],
					"stateMutability": "view",
					"type": "function"
				},
				{
					"inputs": [
						{
							"internalType": "uint256",
							"name": "_amount",
							"type": "uint256"
						}
					],
					"name": "stake",
					"outputs": [
						{
							"internalType": "bool",
							"name": "",
							"type": "bool"
						}
					],
					"stateMutability": "nonpayable",
					"type": "function"
				},
				{
					"inputs": [],
					"name": "stakeSupple",
					"outputs": [
						{
							"internalType": "uint256",
							"name": "",
							"type": "uint256"
						}
					],
					"stateMutability": "view",
					"type": "function"
				},
				{
					"inputs": [],
					"name": "staketoken",
					"outputs": [
						{
							"internalType": "address",
							"name": "",
							"type": "address"
						}
					],
					"stateMutability": "view",
					"type": "function"
				},
				{
					"inputs": [],
					"name": "totoken",
					"outputs": [
						{
							"internalType": "address",
							"name": "",
							"type": "address"
						}
					],
					"stateMutability": "view",
					"type": "function"
				}
			],
			"devdoc": {
				"kind": "dev",
				"methods": {},
				"version": 1
			},
			"evm": {
				"assembly": "    /* \"\\xe5\\x86\\x99\\xe9\\xa1\\xb9\\xe7\\x9b\\xae\\xe5\\x9f\\xba\\xe7\\xa1\\x80/\\xe5\\x86\\x99uni\\xe7\\xae\\x97\\xe6\\xb3\\x95\\xe7\\x9f\\xbf\\xe6\\xb1\\xa0.sol\":694:1616  contract StakeContract {... */\n  mstore(0x40, 0x80)\n  callvalue\n  dup1\n  iszero\n  tag_1\n  jumpi\n  0x00\n  dup1\n  revert\ntag_1:\n  pop\n  dataSize(sub_0)\n  dup1\n  dataOffset(sub_0)\n  0x00\n  codecopy\n  0x00\n  return\nstop\n\nsub_0: assembly {\n        /* \"\\xe5\\x86\\x99\\xe9\\xa1\\xb9\\xe7\\x9b\\xae\\xe5\\x9f\\xba\\xe7\\xa1\\x80/\\xe5\\x86\\x99uni\\xe7\\xae\\x97\\xe6\\xb3\\x95\\xe7\\x9f\\xbf\\xe6\\xb1\\xa0.sol\":694:1616  contract StakeContract {... */\n      mstore(0x40, 0x80)\n      callvalue\n      dup1\n      iszero\n      tag_1\n      jumpi\n      0x00\n      dup1\n      revert\n    tag_1:\n      pop\n      jumpi(tag_2, lt(calldatasize, 0x04))\n      shr(0xe0, calldataload(0x00))\n      dup1\n      0xa6643c90\n      gt\n      tag_10\n      jumpi\n      dup1\n      0xa6643c90\n      eq\n      tag_6\n      jumpi\n      dup1\n      0xa694fc3a\n      eq\n      tag_7\n      jumpi\n      dup1\n      0xd942727f\n      eq\n      tag_8\n      jumpi\n      dup1\n      0xdab2997b\n      eq\n      tag_9\n      jumpi\n      0x00\n      dup1\n      revert\n    tag_10:\n      dup1\n      0x2c46502d\n      eq\n      tag_3\n      jumpi\n      dup1\n      0x71ca337d\n      eq\n      tag_4\n      jumpi\n      dup1\n      0x8da5cb5b\n      eq\n      tag_5\n      jumpi\n    tag_2:\n      0x00\n      dup1\n      revert\n        /* \"\\xe5\\x86\\x99\\xe9\\xa1\\xb9\\xe7\\x9b\\xae\\xe5\\x9f\\xba\\xe7\\xa1\\x80/\\xe5\\x86\\x99uni\\xe7\\xae\\x97\\xe6\\xb3\\x95\\xe7\\x9f\\xbf\\xe6\\xb1\\xa0.sol\":811:833  address public totoken */\n    tag_3:\n      sload(0x02)\n      tag_11\n      swap1\n      sub(shl(0xa0, 0x01), 0x01)\n      and\n      dup2\n      jump\n    tag_11:\n      mload(0x40)\n      sub(shl(0xa0, 0x01), 0x01)\n        /* \"#utility.yul\":178:210   */\n      swap1\n      swap2\n      and\n        /* \"#utility.yul\":160:211   */\n      dup2\n      mstore\n        /* \"#utility.yul\":148:150   */\n      0x20\n        /* \"#utility.yul\":133:151   */\n      add\n        /* \"\\xe5\\x86\\x99\\xe9\\xa1\\xb9\\xe7\\x9b\\xae\\xe5\\x9f\\xba\\xe7\\xa1\\x80/\\xe5\\x86\\x99uni\\xe7\\xae\\x97\\xe6\\xb3\\x95\\xe7\\x9f\\xbf\\xe6\\xb1\\xa0.sol\":811:833  address public totoken */\n    tag_13:\n      mload(0x40)\n      dup1\n      swap2\n      sub\n      swap1\n      return\n        /* \"\\xe5\\x86\\x99\\xe9\\xa1\\xb9\\xe7\\x9b\\xae\\xe5\\x9f\\xba\\xe7\\xa1\\x80/\\xe5\\x86\\x99uni\\xe7\\xae\\x97\\xe6\\xb3\\x95\\xe7\\x9f\\xbf\\xe6\\xb1\\xa0.sol\":755:772  uint public ratio */\n    tag_4:\n      tag_15\n      sload(0x00)\n      dup2\n      jump\n    tag_15:\n      mload(0x40)\n        /* \"#utility.yul\":368:393   */\n      swap1\n      dup2\n      mstore\n        /* \"#utility.yul\":356:358   */\n      0x20\n        /* \"#utility.yul\":341:359   */\n      add\n        /* \"\\xe5\\x86\\x99\\xe9\\xa1\\xb9\\xe7\\x9b\\xae\\xe5\\x9f\\xba\\xe7\\xa1\\x80/\\xe5\\x86\\x99uni\\xe7\\xae\\x97\\xe6\\xb3\\x95\\xe7\\x9f\\xbf\\xe6\\xb1\\xa0.sol\":755:772  uint public ratio */\n      tag_13\n        /* \"#utility.yul\":222:399   */\n      jump\n        /* \"\\xe5\\x86\\x99\\xe9\\xa1\\xb9\\xe7\\x9b\\xae\\xe5\\x9f\\xba\\xe7\\xa1\\x80/\\xe5\\x86\\x99uni\\xe7\\xae\\x97\\xe6\\xb3\\x95\\xe7\\x9f\\xbf\\xe6\\xb1\\xa0.sol\":870:890  address public owner */\n    tag_5:\n      sload(0x04)\n      tag_11\n      swap1\n      sub(shl(0xa0, 0x01), 0x01)\n      and\n      dup2\n      jump\n        /* \"\\xe5\\x86\\x99\\xe9\\xa1\\xb9\\xe7\\x9b\\xae\\xe5\\x9f\\xba\\xe7\\xa1\\x80/\\xe5\\x86\\x99uni\\xe7\\xae\\x97\\xe6\\xb3\\x95\\xe7\\x9f\\xbf\\xe6\\xb1\\xa0.sol\":942:972  uint public max_a_token_reward */\n    tag_6:\n      tag_15\n      sload(0x05)\n      dup2\n      jump\n        /* \"\\xe5\\x86\\x99\\xe9\\xa1\\xb9\\xe7\\x9b\\xae\\xe5\\x9f\\xba\\xe7\\xa1\\x80/\\xe5\\x86\\x99uni\\xe7\\xae\\x97\\xe6\\xb3\\x95\\xe7\\x9f\\xbf\\xe6\\xb1\\xa0.sol\":1398:1609  function stake(uint _amount) public returns (bool) {... */\n    tag_7:\n      tag_25\n      tag_26\n      calldatasize\n      0x04\n      tag_27\n      jump\t// in\n    tag_26:\n      tag_28\n      jump\t// in\n    tag_25:\n      mload(0x40)\n        /* \"#utility.yul\":754:768   */\n      swap1\n      iszero\n        /* \"#utility.yul\":747:769   */\n      iszero\n        /* \"#utility.yul\":729:770   */\n      dup2\n      mstore\n        /* \"#utility.yul\":717:719   */\n      0x20\n        /* \"#utility.yul\":702:720   */\n      add\n        /* \"\\xe5\\x86\\x99\\xe9\\xa1\\xb9\\xe7\\x9b\\xae\\xe5\\x9f\\xba\\xe7\\xa1\\x80/\\xe5\\x86\\x99uni\\xe7\\xae\\x97\\xe6\\xb3\\x95\\xe7\\x9f\\xbf\\xe6\\xb1\\xa0.sol\":1398:1609  function stake(uint _amount) public returns (bool) {... */\n      tag_13\n        /* \"#utility.yul\":589:776   */\n      jump\n        /* \"\\xe5\\x86\\x99\\xe9\\xa1\\xb9\\xe7\\x9b\\xae\\xe5\\x9f\\xba\\xe7\\xa1\\x80/\\xe5\\x86\\x99uni\\xe7\\xae\\x97\\xe6\\xb3\\x95\\xe7\\x9f\\xbf\\xe6\\xb1\\xa0.sol\":840:863  uint public stakeSupple */\n    tag_8:\n      tag_15\n      sload(0x03)\n      dup2\n      jump\n        /* \"\\xe5\\x86\\x99\\xe9\\xa1\\xb9\\xe7\\x9b\\xae\\xe5\\x9f\\xba\\xe7\\xa1\\x80/\\xe5\\x86\\x99uni\\xe7\\xae\\x97\\xe6\\xb3\\x95\\xe7\\x9f\\xbf\\xe6\\xb1\\xa0.sol\":779:804  address public staketoken */\n    tag_9:\n      sload(0x01)\n      tag_11\n      swap1\n      sub(shl(0xa0, 0x01), 0x01)\n      and\n      dup2\n      jump\n        /* \"\\xe5\\x86\\x99\\xe9\\xa1\\xb9\\xe7\\x9b\\xae\\xe5\\x9f\\xba\\xe7\\xa1\\x80/\\xe5\\x86\\x99uni\\xe7\\xae\\x97\\xe6\\xb3\\x95\\xe7\\x9f\\xbf\\xe6\\xb1\\xa0.sol\":1398:1609  function stake(uint _amount) public returns (bool) {... */\n    tag_28:\n        /* \"\\xe5\\x86\\x99\\xe9\\xa1\\xb9\\xe7\\x9b\\xae\\xe5\\x9f\\xba\\xe7\\xa1\\x80/\\xe5\\x86\\x99uni\\xe7\\xae\\x97\\xe6\\xb3\\x95\\xe7\\x9f\\xbf\\xe6\\xb1\\xa0.sol\":1467:1477  staketoken */\n      sload(0x01)\n        /* \"\\xe5\\x86\\x99\\xe9\\xa1\\xb9\\xe7\\x9b\\xae\\xe5\\x9f\\xba\\xe7\\xa1\\x80/\\xe5\\x86\\x99uni\\xe7\\xae\\x97\\xe6\\xb3\\x95\\xe7\\x9f\\xbf\\xe6\\xb1\\xa0.sol\":1460:1527  IERC20(staketoken).transferFrom(msg.sender, address(this), _amount) */\n      mload(0x40)\n      shl(0xe0, 0x23b872dd)\n      dup2\n      mstore\n        /* \"\\xe5\\x86\\x99\\xe9\\xa1\\xb9\\xe7\\x9b\\xae\\xe5\\x9f\\xba\\xe7\\xa1\\x80/\\xe5\\x86\\x99uni\\xe7\\xae\\x97\\xe6\\xb3\\x95\\xe7\\x9f\\xbf\\xe6\\xb1\\xa0.sol\":1492:1502  msg.sender */\n      caller\n        /* \"\\xe5\\x86\\x99\\xe9\\xa1\\xb9\\xe7\\x9b\\xae\\xe5\\x9f\\xba\\xe7\\xa1\\x80/\\xe5\\x86\\x99uni\\xe7\\xae\\x97\\xe6\\xb3\\x95\\xe7\\x9f\\xbf\\xe6\\xb1\\xa0.sol\":1460:1527  IERC20(staketoken).transferFrom(msg.sender, address(this), _amount) */\n      0x04\n      dup3\n      add\n        /* \"#utility.yul\":1021:1055   */\n      mstore\n        /* \"\\xe5\\x86\\x99\\xe9\\xa1\\xb9\\xe7\\x9b\\xae\\xe5\\x9f\\xba\\xe7\\xa1\\x80/\\xe5\\x86\\x99uni\\xe7\\xae\\x97\\xe6\\xb3\\x95\\xe7\\x9f\\xbf\\xe6\\xb1\\xa0.sol\":1512:1516  this */\n      address\n        /* \"#utility.yul\":1071:1089   */\n      0x24\n      dup3\n      add\n        /* \"#utility.yul\":1064:1107   */\n      mstore\n        /* \"#utility.yul\":1123:1141   */\n      0x44\n      dup2\n      add\n        /* \"#utility.yul\":1116:1150   */\n      dup4\n      swap1\n      mstore\n        /* \"\\xe5\\x86\\x99\\xe9\\xa1\\xb9\\xe7\\x9b\\xae\\xe5\\x9f\\xba\\xe7\\xa1\\x80/\\xe5\\x86\\x99uni\\xe7\\xae\\x97\\xe6\\xb3\\x95\\xe7\\x9f\\xbf\\xe6\\xb1\\xa0.sol\":1443:1447  bool */\n      0x00\n      swap2\n      sub(shl(0xa0, 0x01), 0x01)\n        /* \"\\xe5\\x86\\x99\\xe9\\xa1\\xb9\\xe7\\x9b\\xae\\xe5\\x9f\\xba\\xe7\\xa1\\x80/\\xe5\\x86\\x99uni\\xe7\\xae\\x97\\xe6\\xb3\\x95\\xe7\\x9f\\xbf\\xe6\\xb1\\xa0.sol\":1467:1477  staketoken */\n      and\n      swap1\n        /* \"\\xe5\\x86\\x99\\xe9\\xa1\\xb9\\xe7\\x9b\\xae\\xe5\\x9f\\xba\\xe7\\xa1\\x80/\\xe5\\x86\\x99uni\\xe7\\xae\\x97\\xe6\\xb3\\x95\\xe7\\x9f\\xbf\\xe6\\xb1\\xa0.sol\":1460:1491  IERC20(staketoken).transferFrom */\n      0x23b872dd\n      swap1\n        /* \"#utility.yul\":956:974   */\n      0x64\n      add\n        /* \"\\xe5\\x86\\x99\\xe9\\xa1\\xb9\\xe7\\x9b\\xae\\xe5\\x9f\\xba\\xe7\\xa1\\x80/\\xe5\\x86\\x99uni\\xe7\\xae\\x97\\xe6\\xb3\\x95\\xe7\\x9f\\xbf\\xe6\\xb1\\xa0.sol\":1460:1527  IERC20(staketoken).transferFrom(msg.sender, address(this), _amount) */\n      0x20\n      mload(0x40)\n      dup1\n      dup4\n      sub\n      dup2\n      0x00\n      dup8\n      gas\n      call\n      iszero\n      dup1\n      iszero\n      tag_41\n      jumpi\n      returndatasize\n      0x00\n      dup1\n      returndatacopy\n      revert(0x00, returndatasize)\n    tag_41:\n      pop\n      pop\n      pop\n      pop\n      mload(0x40)\n      returndatasize\n      not(0x1f)\n      0x1f\n      dup3\n      add\n      and\n      dup3\n      add\n      dup1\n      0x40\n      mstore\n      pop\n      dup2\n      add\n      swap1\n      tag_42\n      swap2\n      swap1\n      tag_43\n      jump\t// in\n    tag_42:\n      pop\n        /* \"\\xe5\\x86\\x99\\xe9\\xa1\\xb9\\xe7\\x9b\\xae\\xe5\\x9f\\xba\\xe7\\xa1\\x80/\\xe5\\x86\\x99uni\\xe7\\xae\\x97\\xe6\\xb3\\x95\\xe7\\x9f\\xbf\\xe6\\xb1\\xa0.sol\":1544:1587  Trasfer(msg.sender, address(this), _amount) */\n      mload(0x40)\n        /* \"#utility.yul\":368:393   */\n      dup3\n      dup2\n      mstore\n        /* \"\\xe5\\x86\\x99\\xe9\\xa1\\xb9\\xe7\\x9b\\xae\\xe5\\x9f\\xba\\xe7\\xa1\\x80/\\xe5\\x86\\x99uni\\xe7\\xae\\x97\\xe6\\xb3\\x95\\xe7\\x9f\\xbf\\xe6\\xb1\\xa0.sol\":1572:1576  this */\n      address\n      swap1\n        /* \"\\xe5\\x86\\x99\\xe9\\xa1\\xb9\\xe7\\x9b\\xae\\xe5\\x9f\\xba\\xe7\\xa1\\x80/\\xe5\\x86\\x99uni\\xe7\\xae\\x97\\xe6\\xb3\\x95\\xe7\\x9f\\xbf\\xe6\\xb1\\xa0.sol\":1552:1562  msg.sender */\n      caller\n      swap1\n        /* \"\\xe5\\x86\\x99\\xe9\\xa1\\xb9\\xe7\\x9b\\xae\\xe5\\x9f\\xba\\xe7\\xa1\\x80/\\xe5\\x86\\x99uni\\xe7\\xae\\x97\\xe6\\xb3\\x95\\xe7\\x9f\\xbf\\xe6\\xb1\\xa0.sol\":1544:1587  Trasfer(msg.sender, address(this), _amount) */\n      0x1fd6ebb971d137acf3f01670862b8a96758cfc7e39dccb093e68daf461b0262c\n      swap1\n        /* \"#utility.yul\":356:358   */\n      0x20\n        /* \"#utility.yul\":341:359   */\n      add\n        /* \"\\xe5\\x86\\x99\\xe9\\xa1\\xb9\\xe7\\x9b\\xae\\xe5\\x9f\\xba\\xe7\\xa1\\x80/\\xe5\\x86\\x99uni\\xe7\\xae\\x97\\xe6\\xb3\\x95\\xe7\\x9f\\xbf\\xe6\\xb1\\xa0.sol\":1544:1587  Trasfer(msg.sender, address(this), _amount) */\n      mload(0x40)\n      dup1\n      swap2\n      sub\n      swap1\n      log3\n        /* \"\\xe5\\x86\\x99\\xe9\\xa1\\xb9\\xe7\\x9b\\xae\\xe5\\x9f\\xba\\xe7\\xa1\\x80/\\xe5\\x86\\x99uni\\xe7\\xae\\x97\\xe6\\xb3\\x95\\xe7\\x9f\\xbf\\xe6\\xb1\\xa0.sol\":1398:1609  function stake(uint _amount) public returns (bool) {... */\n      swap2\n      swap1\n      pop\n      jump\t// out\n        /* \"#utility.yul\":404:584   */\n    tag_27:\n        /* \"#utility.yul\":463:469   */\n      0x00\n        /* \"#utility.yul\":516:518   */\n      0x20\n        /* \"#utility.yul\":504:513   */\n      dup3\n        /* \"#utility.yul\":495:502   */\n      dup5\n        /* \"#utility.yul\":491:514   */\n      sub\n        /* \"#utility.yul\":487:519   */\n      slt\n        /* \"#utility.yul\":484:536   */\n      iszero\n      tag_49\n      jumpi\n        /* \"#utility.yul\":532:533   */\n      0x00\n        /* \"#utility.yul\":529:530   */\n      dup1\n        /* \"#utility.yul\":522:534   */\n      revert\n        /* \"#utility.yul\":484:536   */\n    tag_49:\n      pop\n        /* \"#utility.yul\":555:578   */\n      calldataload\n      swap2\n        /* \"#utility.yul\":404:584   */\n      swap1\n      pop\n      jump\t// out\n        /* \"#utility.yul\":1161:1438   */\n    tag_43:\n        /* \"#utility.yul\":1228:1234   */\n      0x00\n        /* \"#utility.yul\":1281:1283   */\n      0x20\n        /* \"#utility.yul\":1269:1278   */\n      dup3\n        /* \"#utility.yul\":1260:1267   */\n      dup5\n        /* \"#utility.yul\":1256:1279   */\n      sub\n        /* \"#utility.yul\":1252:1284   */\n      slt\n        /* \"#utility.yul\":1249:1301   */\n      iszero\n      tag_53\n      jumpi\n        /* \"#utility.yul\":1297:1298   */\n      0x00\n        /* \"#utility.yul\":1294:1295   */\n      dup1\n        /* \"#utility.yul\":1287:1299   */\n      revert\n        /* \"#utility.yul\":1249:1301   */\n    tag_53:\n        /* \"#utility.yul\":1329:1338   */\n      dup2\n        /* \"#utility.yul\":1323:1339   */\n      mload\n        /* \"#utility.yul\":1382:1387   */\n      dup1\n        /* \"#utility.yul\":1375:1388   */\n      iszero\n        /* \"#utility.yul\":1368:1389   */\n      iszero\n        /* \"#utility.yul\":1361:1366   */\n      dup2\n        /* \"#utility.yul\":1358:1390   */\n      eq\n        /* \"#utility.yul\":1348:1408   */\n      tag_54\n      jumpi\n        /* \"#utility.yul\":1404:1405   */\n      0x00\n        /* \"#utility.yul\":1401:1402   */\n      dup1\n        /* \"#utility.yul\":1394:1406   */\n      revert\n        /* \"#utility.yul\":1348:1408   */\n    tag_54:\n        /* \"#utility.yul\":1427:1432   */\n      swap4\n        /* \"#utility.yul\":1161:1438   */\n      swap3\n      pop\n      pop\n      pop\n      jump\t// out\n\n    auxdata: 0xa26469706673582212201653e9c55d6b9724751777506e33086e45c385bfbabd37c8ea30b26a77b8be8a64736f6c634300080f0033\n}\n",
				"bytecode": {
					"linkReferences": {},
					"object": "608060405234801561001057600080fd5b50610255806100206000396000f3fe608060405234801561001057600080fd5b506004361061007d5760003560e01c8063a6643c901161005b578063a6643c90146100dc578063a694fc3a146100e5578063d942727f14610108578063dab2997b1461011157600080fd5b80632c46502d1461008257806371ca337d146100b25780638da5cb5b146100c9575b600080fd5b600254610095906001600160a01b031681565b6040516001600160a01b0390911681526020015b60405180910390f35b6100bb60005481565b6040519081526020016100a9565b600454610095906001600160a01b031681565b6100bb60055481565b6100f86100f33660046101dd565b610124565b60405190151581526020016100a9565b6100bb60035481565b600154610095906001600160a01b031681565b6001546040516323b872dd60e01b8152336004820152306024820152604481018390526000916001600160a01b0316906323b872dd906064016020604051808303816000875af115801561017c573d6000803e3d6000fd5b505050506040513d601f19601f820116820180604052508101906101a091906101f6565b50604051828152309033907f1fd6ebb971d137acf3f01670862b8a96758cfc7e39dccb093e68daf461b0262c9060200160405180910390a3919050565b6000602082840312156101ef57600080fd5b5035919050565b60006020828403121561020857600080fd5b8151801515811461021857600080fd5b939250505056fea26469706673582212201653e9c55d6b9724751777506e33086e45c385bfbabd37c8ea30b26a77b8be8a64736f6c634300080f0033",
					"opcodes": "PUSH1 0x80 PUSH1 0x40 MSTORE CALLVALUE DUP1 ISZERO PUSH2 0x10 JUMPI PUSH1 0x0 DUP1 REVERT JUMPDEST POP PUSH2 0x255 DUP1 PUSH2 0x20 PUSH1 0x0 CODECOPY PUSH1 0x0 RETURN INVALID PUSH1 0x80 PUSH1 0x40 MSTORE CALLVALUE DUP1 ISZERO PUSH2 0x10 JUMPI PUSH1 0x0 DUP1 REVERT JUMPDEST POP PUSH1 0x4 CALLDATASIZE LT PUSH2 0x7D JUMPI PUSH1 0x0 CALLDATALOAD PUSH1 0xE0 SHR DUP1 PUSH4 0xA6643C90 GT PUSH2 0x5B JUMPI DUP1 PUSH4 0xA6643C90 EQ PUSH2 0xDC JUMPI DUP1 PUSH4 0xA694FC3A EQ PUSH2 0xE5 JUMPI DUP1 PUSH4 0xD942727F EQ PUSH2 0x108 JUMPI DUP1 PUSH4 0xDAB2997B EQ PUSH2 0x111 JUMPI PUSH1 0x0 DUP1 REVERT JUMPDEST DUP1 PUSH4 0x2C46502D EQ PUSH2 0x82 JUMPI DUP1 PUSH4 0x71CA337D EQ PUSH2 0xB2 JUMPI DUP1 PUSH4 0x8DA5CB5B EQ PUSH2 0xC9 JUMPI JUMPDEST PUSH1 0x0 DUP1 REVERT JUMPDEST PUSH1 0x2 SLOAD PUSH2 0x95 SWAP1 PUSH1 0x1 PUSH1 0x1 PUSH1 0xA0 SHL SUB AND DUP2 JUMP JUMPDEST PUSH1 0x40 MLOAD PUSH1 0x1 PUSH1 0x1 PUSH1 0xA0 SHL SUB SWAP1 SWAP2 AND DUP2 MSTORE PUSH1 0x20 ADD JUMPDEST PUSH1 0x40 MLOAD DUP1 SWAP2 SUB SWAP1 RETURN JUMPDEST PUSH2 0xBB PUSH1 0x0 SLOAD DUP2 JUMP JUMPDEST PUSH1 0x40 MLOAD SWAP1 DUP2 MSTORE PUSH1 0x20 ADD PUSH2 0xA9 JUMP JUMPDEST PUSH1 0x4 SLOAD PUSH2 0x95 SWAP1 PUSH1 0x1 PUSH1 0x1 PUSH1 0xA0 SHL SUB AND DUP2 JUMP JUMPDEST PUSH2 0xBB PUSH1 0x5 SLOAD DUP2 JUMP JUMPDEST PUSH2 0xF8 PUSH2 0xF3 CALLDATASIZE PUSH1 0x4 PUSH2 0x1DD JUMP JUMPDEST PUSH2 0x124 JUMP JUMPDEST PUSH1 0x40 MLOAD SWAP1 ISZERO ISZERO DUP2 MSTORE PUSH1 0x20 ADD PUSH2 0xA9 JUMP JUMPDEST PUSH2 0xBB PUSH1 0x3 SLOAD DUP2 JUMP JUMPDEST PUSH1 0x1 SLOAD PUSH2 0x95 SWAP1 PUSH1 0x1 PUSH1 0x1 PUSH1 0xA0 SHL SUB AND DUP2 JUMP JUMPDEST PUSH1 0x1 SLOAD PUSH1 0x40 MLOAD PUSH4 0x23B872DD PUSH1 0xE0 SHL DUP2 MSTORE CALLER PUSH1 0x4 DUP3 ADD MSTORE ADDRESS PUSH1 0x24 DUP3 ADD MSTORE PUSH1 0x44 DUP2 ADD DUP4 SWAP1 MSTORE PUSH1 0x0 SWAP2 PUSH1 0x1 PUSH1 0x1 PUSH1 0xA0 SHL SUB AND SWAP1 PUSH4 0x23B872DD SWAP1 PUSH1 0x64 ADD PUSH1 0x20 PUSH1 0x40 MLOAD DUP1 DUP4 SUB DUP2 PUSH1 0x0 DUP8 GAS CALL ISZERO DUP1 ISZERO PUSH2 0x17C JUMPI RETURNDATASIZE PUSH1 0x0 DUP1 RETURNDATACOPY RETURNDATASIZE PUSH1 0x0 REVERT JUMPDEST POP POP POP POP PUSH1 0x40 MLOAD RETURNDATASIZE PUSH1 0x1F NOT PUSH1 0x1F DUP3 ADD AND DUP3 ADD DUP1 PUSH1 0x40 MSTORE POP DUP2 ADD SWAP1 PUSH2 0x1A0 SWAP2 SWAP1 PUSH2 0x1F6 JUMP JUMPDEST POP PUSH1 0x40 MLOAD DUP3 DUP2 MSTORE ADDRESS SWAP1 CALLER SWAP1 PUSH32 0x1FD6EBB971D137ACF3F01670862B8A96758CFC7E39DCCB093E68DAF461B0262C SWAP1 PUSH1 0x20 ADD PUSH1 0x40 MLOAD DUP1 SWAP2 SUB SWAP1 LOG3 SWAP2 SWAP1 POP JUMP JUMPDEST PUSH1 0x0 PUSH1 0x20 DUP3 DUP5 SUB SLT ISZERO PUSH2 0x1EF JUMPI PUSH1 0x0 DUP1 REVERT JUMPDEST POP CALLDATALOAD SWAP2 SWAP1 POP JUMP JUMPDEST PUSH1 0x0 PUSH1 0x20 DUP3 DUP5 SUB SLT ISZERO PUSH2 0x208 JUMPI PUSH1 0x0 DUP1 REVERT JUMPDEST DUP2 MLOAD DUP1 ISZERO ISZERO DUP2 EQ PUSH2 0x218 JUMPI PUSH1 0x0 DUP1 REVERT JUMPDEST SWAP4 SWAP3 POP POP POP JUMP INVALID LOG2 PUSH5 0x6970667358 0x22 SLT KECCAK256 AND MSTORE8 0xE9 0xC5 0x5D PUSH12 0x9724751777506E33086E45C3 DUP6 0xBF 0xBA 0xBD CALLDATACOPY 0xC8 0xEA ADDRESS 0xB2 PUSH11 0x77B8BE8A64736F6C634300 ADDMOD 0xF STOP CALLER "
				},
				"gasEstimates": {
					"creation": {
						"codeDepositCost": "119400",
						"executionCost": "165",
						"totalCost": "119565"
					},
					"external": {
						"max_a_token_reward()": "2295",
						"owner()": "2371",
						"ratio()": "2318",
						"stake(uint256)": "infinite",
						"stakeSupple()": "2339",
						"staketoken()": "2392",
						"totoken()": "2327"
					}
				},
				"methodIdentifiers": {
					"max_a_token_reward()": "a6643c90",
					"owner()": "8da5cb5b",
					"ratio()": "71ca337d",
					"stake(uint256)": "a694fc3a",
					"stakeSupple()": "d942727f",
					"staketoken()": "dab2997b",
					"totoken()": "2c46502d"
				}
			},
			"storageLayout": {
				"storage": [
					{
						"astId": 70,
						"contract": "写项目基础/写uni算法矿池.sol:StakeContract",
						"label": "ratio",
						"offset": 0,
						"slot": "0",
						"type": "t_uint256"
					},
					{
						"astId": 72,
						"contract": "写项目基础/写uni算法矿池.sol:StakeContract",
						"label": "staketoken",
						"offset": 0,
						"slot": "1",
						"type": "t_address"
					},
					{
						"astId": 74,
						"contract": "写项目基础/写uni算法矿池.sol:StakeContract",
						"label": "totoken",
						"offset": 0,
						"slot": "2",
						"type": "t_address"
					},
					{
						"astId": 76,
						"contract": "写项目基础/写uni算法矿池.sol:StakeContract",
						"label": "stakeSupple",
						"offset": 0,
						"slot": "3",
						"type": "t_uint256"
					},
					{
						"astId": 78,
						"contract": "写项目基础/写uni算法矿池.sol:StakeContract",
						"label": "owner",
						"offset": 0,
						"slot": "4",
						"type": "t_address"
					},
					{
						"astId": 80,
						"contract": "写项目基础/写uni算法矿池.sol:StakeContract",
						"label": "max_a_token_reward",
						"offset": 0,
						"slot": "5",
						"type": "t_uint256"
					}
				],
				"types": {
					"t_address": {
						"encoding": "inplace",
						"label": "address",
						"numberOfBytes": "20"
					},
					"t_uint256": {
						"encoding": "inplace",
						"label": "uint256",
						"numberOfBytes": "32"
					}
				}
			},
			"userdoc": {
				"kind": "user",
				"methods": {},
				"version": 1
			}
		}
	}
}