{
	"写项目基础/写uni算法矿池.sol": {
		"StakeContract": {
			"abi": [
				{
					"inputs": [
						{
							"internalType": "address",
							"name": "_staketoken",
							"type": "address"
						},
						{
							"internalType": "address",
							"name": "_totoken",
							"type": "address"
						}
					],
					"stateMutability": "nonpayable",
					"type": "constructor"
				},
				{
					"anonymous": false,
					"inputs": [
						{
							"indexed": true,
							"internalType": "address",
							"name": "owner",
							"type": "address"
						},
						{
							"indexed": true,
							"internalType": "address",
							"name": "spender",
							"type": "address"
						},
						{
							"indexed": false,
							"internalType": "uint256",
							"name": "amout",
							"type": "uint256"
						}
					],
					"name": "Approveal",
					"type": "event"
				},
				{
					"anonymous": false,
					"inputs": [
						{
							"indexed": true,
							"internalType": "address",
							"name": "from",
							"type": "address"
						},
						{
							"indexed": true,
							"internalType": "address",
							"name": "to",
							"type": "address"
						},
						{
							"indexed": false,
							"internalType": "uint256",
							"name": "amout",
							"type": "uint256"
						}
					],
					"name": "Trasfer",
					"type": "event"
				},
				{
					"anonymous": false,
					"inputs": [
						{
							"indexed": true,
							"internalType": "address",
							"name": "to",
							"type": "address"
						},
						{
							"indexed": false,
							"internalType": "uint256",
							"name": "amout",
							"type": "uint256"
						}
					],
					"name": "transfer",
					"type": "event"
				},
				{
					"inputs": [
						{
							"internalType": "address",
							"name": "",
							"type": "address"
						}
					],
					"name": "User_Map",
					"outputs": [
						{
							"internalType": "uint256",
							"name": "stakeNumber",
							"type": "uint256"
						},
						{
							"internalType": "uint256",
							"name": "last_Stake_Time",
							"type": "uint256"
						},
						{
							"internalType": "uint256",
							"name": "last_totoken_ratio",
							"type": "uint256"
						},
						{
							"internalType": "uint256",
							"name": "last_a_token_reward",
							"type": "uint256"
						}
					],
					"stateMutability": "view",
					"type": "function"
				},
				{
					"inputs": [],
					"name": "max_a_token_reward",
					"outputs": [
						{
							"internalType": "uint256",
							"name": "",
							"type": "uint256"
						}
					],
					"stateMutability": "view",
					"type": "function"
				},
				{
					"inputs": [],
					"name": "owner",
					"outputs": [
						{
							"internalType": "address",
							"name": "",
							"type": "address"
						}
					],
					"stateMutability": "view",
					"type": "function"
				},
				{
					"inputs": [],
					"name": "ratio",
					"outputs": [
						{
							"internalType": "uint256",
							"name": "",
							"type": "uint256"
						}
					],
					"stateMutability": "view",
					"type": "function"
				},
				{
					"inputs": [
						{
							"internalType": "uint256",
							"name": "_ratio",
							"type": "uint256"
						}
					],
					"name": "setRatio",
					"outputs": [],
					"stateMutability": "nonpayable",
					"type": "function"
				},
				{
					"inputs": [
						{
							"internalType": "uint256",
							"name": "_amount",
							"type": "uint256"
						}
					],
					"name": "stake",
					"outputs": [
						{
							"internalType": "bool",
							"name": "",
							"type": "bool"
						}
					],
					"stateMutability": "nonpayable",
					"type": "function"
				},
				{
					"inputs": [],
					"name": "stakeSupple",
					"outputs": [
						{
							"internalType": "uint256",
							"name": "",
							"type": "uint256"
						}
					],
					"stateMutability": "view",
					"type": "function"
				},
				{
					"inputs": [],
					"name": "staketoken",
					"outputs": [
						{
							"internalType": "address",
							"name": "",
							"type": "address"
						}
					],
					"stateMutability": "view",
					"type": "function"
				},
				{
					"inputs": [],
					"name": "totoken",
					"outputs": [
						{
							"internalType": "address",
							"name": "",
							"type": "address"
						}
					],
					"stateMutability": "view",
					"type": "function"
				}
			],
			"devdoc": {
				"kind": "dev",
				"methods": {},
				"version": 1
			},
			"evm": {
				"assembly": "    /* \"\\xe5\\x86\\x99\\xe9\\xa1\\xb9\\xe7\\x9b\\xae\\xe5\\x9f\\xba\\xe7\\xa1\\x80/\\xe5\\x86\\x99uni\\xe7\\xae\\x97\\xe6\\xb3\\x95\\xe7\\x9f\\xbf\\xe6\\xb1\\xa0.sol\":694:2441  contract StakeContract {... */\n  mstore(0x40, 0x80)\n    /* \"\\xe5\\x86\\x99\\xe9\\xa1\\xb9\\xe7\\x9b\\xae\\xe5\\x9f\\xba\\xe7\\xa1\\x80/\\xe5\\x86\\x99uni\\xe7\\xae\\x97\\xe6\\xb3\\x95\\xe7\\x9f\\xbf\\xe6\\xb1\\xa0.sol\":1447:1785  constructor (address _staketoken, address _totoken) {... */\n  callvalue\n  dup1\n  iszero\n  tag_1\n  jumpi\n  0x00\n  dup1\n  revert\ntag_1:\n  pop\n  mload(0x40)\n  sub(codesize, bytecodeSize)\n  dup1\n  bytecodeSize\n  dup4\n  codecopy\n  dup2\n  add\n  0x40\n  dup2\n  swap1\n  mstore\n  tag_2\n  swap2\n  tag_3\n  jump\t// in\ntag_2:\n    /* \"\\xe5\\x86\\x99\\xe9\\xa1\\xb9\\xe7\\x9b\\xae\\xe5\\x9f\\xba\\xe7\\xa1\\x80/\\xe5\\x86\\x99uni\\xe7\\xae\\x97\\xe6\\xb3\\x95\\xe7\\x9f\\xbf\\xe6\\xb1\\xa0.sol\":1510:1515  owner */\n  0x04\n    /* \"\\xe5\\x86\\x99\\xe9\\xa1\\xb9\\xe7\\x9b\\xae\\xe5\\x9f\\xba\\xe7\\xa1\\x80/\\xe5\\x86\\x99uni\\xe7\\xae\\x97\\xe6\\xb3\\x95\\xe7\\x9f\\xbf\\xe6\\xb1\\xa0.sol\":1510:1528  owner = msg.sender */\n  dup1\n  sload\n  not(sub(shl(0xa0, 0x01), 0x01))\n  and\n    /* \"\\xe5\\x86\\x99\\xe9\\xa1\\xb9\\xe7\\x9b\\xae\\xe5\\x9f\\xba\\xe7\\xa1\\x80/\\xe5\\x86\\x99uni\\xe7\\xae\\x97\\xe6\\xb3\\x95\\xe7\\x9f\\xbf\\xe6\\xb1\\xa0.sol\":1518:1528  msg.sender */\n  caller\n    /* \"\\xe5\\x86\\x99\\xe9\\xa1\\xb9\\xe7\\x9b\\xae\\xe5\\x9f\\xba\\xe7\\xa1\\x80/\\xe5\\x86\\x99uni\\xe7\\xae\\x97\\xe6\\xb3\\x95\\xe7\\x9f\\xbf\\xe6\\xb1\\xa0.sol\":1510:1528  owner = msg.sender */\n  or\n  swap1\n  sstore\n  sub(shl(0xa0, 0x01), 0x01)\n    /* \"\\xe5\\x86\\x99\\xe9\\xa1\\xb9\\xe7\\x9b\\xae\\xe5\\x9f\\xba\\xe7\\xa1\\x80/\\xe5\\x86\\x99uni\\xe7\\xae\\x97\\xe6\\xb3\\x95\\xe7\\x9f\\xbf\\xe6\\xb1\\xa0.sol\":1547:1572  _staketoken != address(0) */\n  dup3\n  and\n    /* \"\\xe5\\x86\\x99\\xe9\\xa1\\xb9\\xe7\\x9b\\xae\\xe5\\x9f\\xba\\xe7\\xa1\\x80/\\xe5\\x86\\x99uni\\xe7\\xae\\x97\\xe6\\xb3\\x95\\xe7\\x9f\\xbf\\xe6\\xb1\\xa0.sol\":1539:1592  require(_staketoken != address(0),\"NOT,S 0X ADDRESS\") */\n  tag_6\n  jumpi\n  mload(0x40)\n  shl(0xe5, 0x461bcd)\n  dup2\n  mstore\n    /* \"#utility.yul\":696:698   */\n  0x20\n    /* \"\\xe5\\x86\\x99\\xe9\\xa1\\xb9\\xe7\\x9b\\xae\\xe5\\x9f\\xba\\xe7\\xa1\\x80/\\xe5\\x86\\x99uni\\xe7\\xae\\x97\\xe6\\xb3\\x95\\xe7\\x9f\\xbf\\xe6\\xb1\\xa0.sol\":1539:1592  require(_staketoken != address(0),\"NOT,S 0X ADDRESS\") */\n  0x04\n  dup3\n  add\n    /* \"#utility.yul\":678:699   */\n  mstore\n    /* \"#utility.yul\":735:737   */\n  0x10\n    /* \"#utility.yul\":715:733   */\n  0x24\n  dup3\n  add\n    /* \"#utility.yul\":708:738   */\n  mstore\n  shl(0x80, 0x4e4f542c532030582041444452455353)\n    /* \"#utility.yul\":754:772   */\n  0x44\n  dup3\n  add\n    /* \"#utility.yul\":747:793   */\n  mstore\n    /* \"#utility.yul\":810:828   */\n  0x64\n  add\n    /* \"\\xe5\\x86\\x99\\xe9\\xa1\\xb9\\xe7\\x9b\\xae\\xe5\\x9f\\xba\\xe7\\xa1\\x80/\\xe5\\x86\\x99uni\\xe7\\xae\\x97\\xe6\\xb3\\x95\\xe7\\x9f\\xbf\\xe6\\xb1\\xa0.sol\":1539:1592  require(_staketoken != address(0),\"NOT,S 0X ADDRESS\") */\ntag_7:\n  mload(0x40)\n  dup1\n  swap2\n  sub\n  swap1\n  revert\ntag_6:\n  sub(shl(0xa0, 0x01), 0x01)\n    /* \"\\xe5\\x86\\x99\\xe9\\xa1\\xb9\\xe7\\x9b\\xae\\xe5\\x9f\\xba\\xe7\\xa1\\x80/\\xe5\\x86\\x99uni\\xe7\\xae\\x97\\xe6\\xb3\\x95\\xe7\\x9f\\xbf\\xe6\\xb1\\xa0.sol\":1611:1633  _totoken != address(0) */\n  dup2\n  and\n    /* \"\\xe5\\x86\\x99\\xe9\\xa1\\xb9\\xe7\\x9b\\xae\\xe5\\x9f\\xba\\xe7\\xa1\\x80/\\xe5\\x86\\x99uni\\xe7\\xae\\x97\\xe6\\xb3\\x95\\xe7\\x9f\\xbf\\xe6\\xb1\\xa0.sol\":1603:1653  require(_totoken != address(0),\"NOT,S 0X ADDRESS\") */\n  tag_9\n  jumpi\n  mload(0x40)\n  shl(0xe5, 0x461bcd)\n  dup2\n  mstore\n    /* \"#utility.yul\":696:698   */\n  0x20\n    /* \"\\xe5\\x86\\x99\\xe9\\xa1\\xb9\\xe7\\x9b\\xae\\xe5\\x9f\\xba\\xe7\\xa1\\x80/\\xe5\\x86\\x99uni\\xe7\\xae\\x97\\xe6\\xb3\\x95\\xe7\\x9f\\xbf\\xe6\\xb1\\xa0.sol\":1603:1653  require(_totoken != address(0),\"NOT,S 0X ADDRESS\") */\n  0x04\n  dup3\n  add\n    /* \"#utility.yul\":678:699   */\n  mstore\n    /* \"#utility.yul\":735:737   */\n  0x10\n    /* \"#utility.yul\":715:733   */\n  0x24\n  dup3\n  add\n    /* \"#utility.yul\":708:738   */\n  mstore\n  shl(0x80, 0x4e4f542c532030582041444452455353)\n    /* \"#utility.yul\":754:772   */\n  0x44\n  dup3\n  add\n    /* \"#utility.yul\":747:793   */\n  mstore\n    /* \"#utility.yul\":810:828   */\n  0x64\n  add\n    /* \"\\xe5\\x86\\x99\\xe9\\xa1\\xb9\\xe7\\x9b\\xae\\xe5\\x9f\\xba\\xe7\\xa1\\x80/\\xe5\\x86\\x99uni\\xe7\\xae\\x97\\xe6\\xb3\\x95\\xe7\\x9f\\xbf\\xe6\\xb1\\xa0.sol\":1603:1653  require(_totoken != address(0),\"NOT,S 0X ADDRESS\") */\n  tag_7\n    /* \"#utility.yul\":494:834   */\n  jump\n    /* \"\\xe5\\x86\\x99\\xe9\\xa1\\xb9\\xe7\\x9b\\xae\\xe5\\x9f\\xba\\xe7\\xa1\\x80/\\xe5\\x86\\x99uni\\xe7\\xae\\x97\\xe6\\xb3\\x95\\xe7\\x9f\\xbf\\xe6\\xb1\\xa0.sol\":1603:1653  require(_totoken != address(0),\"NOT,S 0X ADDRESS\") */\ntag_9:\n    /* \"\\xe5\\x86\\x99\\xe9\\xa1\\xb9\\xe7\\x9b\\xae\\xe5\\x9f\\xba\\xe7\\xa1\\x80/\\xe5\\x86\\x99uni\\xe7\\xae\\x97\\xe6\\xb3\\x95\\xe7\\x9f\\xbf\\xe6\\xb1\\xa0.sol\":1687:1695  _totoken */\n  dup1\n  sub(shl(0xa0, 0x01), 0x01)\n    /* \"\\xe5\\x86\\x99\\xe9\\xa1\\xb9\\xe7\\x9b\\xae\\xe5\\x9f\\xba\\xe7\\xa1\\x80/\\xe5\\x86\\x99uni\\xe7\\xae\\x97\\xe6\\xb3\\x95\\xe7\\x9f\\xbf\\xe6\\xb1\\xa0.sol\":1672:1695  _staketoken == _totoken */\n  and\n    /* \"\\xe5\\x86\\x99\\xe9\\xa1\\xb9\\xe7\\x9b\\xae\\xe5\\x9f\\xba\\xe7\\xa1\\x80/\\xe5\\x86\\x99uni\\xe7\\xae\\x97\\xe6\\xb3\\x95\\xe7\\x9f\\xbf\\xe6\\xb1\\xa0.sol\":1672:1683  _staketoken */\n  dup3\n  sub(shl(0xa0, 0x01), 0x01)\n    /* \"\\xe5\\x86\\x99\\xe9\\xa1\\xb9\\xe7\\x9b\\xae\\xe5\\x9f\\xba\\xe7\\xa1\\x80/\\xe5\\x86\\x99uni\\xe7\\xae\\x97\\xe6\\xb3\\x95\\xe7\\x9f\\xbf\\xe6\\xb1\\xa0.sol\":1672:1695  _staketoken == _totoken */\n  and\n  eq\n    /* \"\\xe5\\x86\\x99\\xe9\\xa1\\xb9\\xe7\\x9b\\xae\\xe5\\x9f\\xba\\xe7\\xa1\\x80/\\xe5\\x86\\x99uni\\xe7\\xae\\x97\\xe6\\xb3\\x95\\xe7\\x9f\\xbf\\xe6\\xb1\\xa0.sol\":1664:1713  require(_staketoken == _totoken,\"NEED agreement\") */\n  tag_11\n  jumpi\n  mload(0x40)\n  shl(0xe5, 0x461bcd)\n  dup2\n  mstore\n    /* \"#utility.yul\":1041:1043   */\n  0x20\n    /* \"\\xe5\\x86\\x99\\xe9\\xa1\\xb9\\xe7\\x9b\\xae\\xe5\\x9f\\xba\\xe7\\xa1\\x80/\\xe5\\x86\\x99uni\\xe7\\xae\\x97\\xe6\\xb3\\x95\\xe7\\x9f\\xbf\\xe6\\xb1\\xa0.sol\":1664:1713  require(_staketoken == _totoken,\"NEED agreement\") */\n  0x04\n  dup3\n  add\n    /* \"#utility.yul\":1023:1044   */\n  mstore\n    /* \"#utility.yul\":1080:1082   */\n  0x0e\n    /* \"#utility.yul\":1060:1078   */\n  0x24\n  dup3\n  add\n    /* \"#utility.yul\":1053:1083   */\n  mstore\n  shl(0x92, 0x13915151081859dc99595b595b9d)\n    /* \"#utility.yul\":1099:1117   */\n  0x44\n  dup3\n  add\n    /* \"#utility.yul\":1092:1136   */\n  mstore\n    /* \"#utility.yul\":1153:1171   */\n  0x64\n  add\n    /* \"\\xe5\\x86\\x99\\xe9\\xa1\\xb9\\xe7\\x9b\\xae\\xe5\\x9f\\xba\\xe7\\xa1\\x80/\\xe5\\x86\\x99uni\\xe7\\xae\\x97\\xe6\\xb3\\x95\\xe7\\x9f\\xbf\\xe6\\xb1\\xa0.sol\":1664:1713  require(_staketoken == _totoken,\"NEED agreement\") */\n  tag_7\n    /* \"#utility.yul\":839:1177   */\n  jump\n    /* \"\\xe5\\x86\\x99\\xe9\\xa1\\xb9\\xe7\\x9b\\xae\\xe5\\x9f\\xba\\xe7\\xa1\\x80/\\xe5\\x86\\x99uni\\xe7\\xae\\x97\\xe6\\xb3\\x95\\xe7\\x9f\\xbf\\xe6\\xb1\\xa0.sol\":1664:1713  require(_staketoken == _totoken,\"NEED agreement\") */\ntag_11:\n    /* \"\\xe5\\x86\\x99\\xe9\\xa1\\xb9\\xe7\\x9b\\xae\\xe5\\x9f\\xba\\xe7\\xa1\\x80/\\xe5\\x86\\x99uni\\xe7\\xae\\x97\\xe6\\xb3\\x95\\xe7\\x9f\\xbf\\xe6\\xb1\\xa0.sol\":1724:1734  staketoken */\n  0x01\n    /* \"\\xe5\\x86\\x99\\xe9\\xa1\\xb9\\xe7\\x9b\\xae\\xe5\\x9f\\xba\\xe7\\xa1\\x80/\\xe5\\x86\\x99uni\\xe7\\xae\\x97\\xe6\\xb3\\x95\\xe7\\x9f\\xbf\\xe6\\xb1\\xa0.sol\":1724:1748  staketoken = _staketoken */\n  dup1\n  sload\n  sub(shl(0xa0, 0x01), 0x01)\n  swap4\n  dup5\n  and\n  not(sub(shl(0xa0, 0x01), 0x01))\n  swap2\n  dup3\n  and\n  or\n  swap1\n  swap2\n  sstore\n    /* \"\\xe5\\x86\\x99\\xe9\\xa1\\xb9\\xe7\\x9b\\xae\\xe5\\x9f\\xba\\xe7\\xa1\\x80/\\xe5\\x86\\x99uni\\xe7\\xae\\x97\\xe6\\xb3\\x95\\xe7\\x9f\\xbf\\xe6\\xb1\\xa0.sol\":1759:1766  totoken */\n  0x02\n    /* \"\\xe5\\x86\\x99\\xe9\\xa1\\xb9\\xe7\\x9b\\xae\\xe5\\x9f\\xba\\xe7\\xa1\\x80/\\xe5\\x86\\x99uni\\xe7\\xae\\x97\\xe6\\xb3\\x95\\xe7\\x9f\\xbf\\xe6\\xb1\\xa0.sol\":1759:1777  totoken = _totoken */\n  dup1\n  sload\n  swap3\n  swap1\n  swap4\n  and\n  swap2\n  and\n  or\n  swap1\n  sstore\n    /* \"\\xe5\\x86\\x99\\xe9\\xa1\\xb9\\xe7\\x9b\\xae\\xe5\\x9f\\xba\\xe7\\xa1\\x80/\\xe5\\x86\\x99uni\\xe7\\xae\\x97\\xe6\\xb3\\x95\\xe7\\x9f\\xbf\\xe6\\xb1\\xa0.sol\":694:2441  contract StakeContract {... */\n  jump(tag_16)\n    /* \"#utility.yul\":14:191   */\ntag_15:\n    /* \"#utility.yul\":93:106   */\n  dup1\n  mload\n  sub(shl(0xa0, 0x01), 0x01)\n    /* \"#utility.yul\":135:166   */\n  dup2\n  and\n    /* \"#utility.yul\":125:167   */\n  dup2\n  eq\n    /* \"#utility.yul\":115:185   */\n  tag_18\n  jumpi\n    /* \"#utility.yul\":181:182   */\n  0x00\n    /* \"#utility.yul\":178:179   */\n  dup1\n    /* \"#utility.yul\":171:183   */\n  revert\n    /* \"#utility.yul\":115:185   */\ntag_18:\n    /* \"#utility.yul\":14:191   */\n  swap2\n  swap1\n  pop\n  jump\t// out\n    /* \"#utility.yul\":196:489   */\ntag_3:\n    /* \"#utility.yul\":275:281   */\n  0x00\n    /* \"#utility.yul\":283:289   */\n  dup1\n    /* \"#utility.yul\":336:338   */\n  0x40\n    /* \"#utility.yul\":324:333   */\n  dup4\n    /* \"#utility.yul\":315:322   */\n  dup6\n    /* \"#utility.yul\":311:334   */\n  sub\n    /* \"#utility.yul\":307:339   */\n  slt\n    /* \"#utility.yul\":304:356   */\n  iszero\n  tag_20\n  jumpi\n    /* \"#utility.yul\":352:353   */\n  0x00\n    /* \"#utility.yul\":349:350   */\n  dup1\n    /* \"#utility.yul\":342:354   */\n  revert\n    /* \"#utility.yul\":304:356   */\ntag_20:\n    /* \"#utility.yul\":375:415   */\n  tag_21\n    /* \"#utility.yul\":405:414   */\n  dup4\n    /* \"#utility.yul\":375:415   */\n  tag_15\n  jump\t// in\ntag_21:\n    /* \"#utility.yul\":365:415   */\n  swap2\n  pop\n    /* \"#utility.yul\":434:483   */\n  tag_22\n    /* \"#utility.yul\":479:481   */\n  0x20\n    /* \"#utility.yul\":468:477   */\n  dup5\n    /* \"#utility.yul\":464:482   */\n  add\n    /* \"#utility.yul\":434:483   */\n  tag_15\n  jump\t// in\ntag_22:\n    /* \"#utility.yul\":424:483   */\n  swap1\n  pop\n    /* \"#utility.yul\":196:489   */\n  swap3\n  pop\n  swap3\n  swap1\n  pop\n  jump\t// out\n    /* \"#utility.yul\":839:1177   */\ntag_16:\n    /* \"\\xe5\\x86\\x99\\xe9\\xa1\\xb9\\xe7\\x9b\\xae\\xe5\\x9f\\xba\\xe7\\xa1\\x80/\\xe5\\x86\\x99uni\\xe7\\xae\\x97\\xe6\\xb3\\x95\\xe7\\x9f\\xbf\\xe6\\xb1\\xa0.sol\":694:2441  contract StakeContract {... */\n  dataSize(sub_0)\n  dup1\n  dataOffset(sub_0)\n  0x00\n  codecopy\n  0x00\n  return\nstop\n\nsub_0: assembly {\n        /* \"\\xe5\\x86\\x99\\xe9\\xa1\\xb9\\xe7\\x9b\\xae\\xe5\\x9f\\xba\\xe7\\xa1\\x80/\\xe5\\x86\\x99uni\\xe7\\xae\\x97\\xe6\\xb3\\x95\\xe7\\x9f\\xbf\\xe6\\xb1\\xa0.sol\":694:2441  contract StakeContract {... */\n      mstore(0x40, 0x80)\n      callvalue\n      dup1\n      iszero\n      tag_1\n      jumpi\n      0x00\n      dup1\n      revert\n    tag_1:\n      pop\n      jumpi(tag_2, lt(calldatasize, 0x04))\n      shr(0xe0, calldataload(0x00))\n      dup1\n      0xa6643c90\n      gt\n      tag_12\n      jumpi\n      dup1\n      0xa6643c90\n      eq\n      tag_7\n      jumpi\n      dup1\n      0xa694fc3a\n      eq\n      tag_8\n      jumpi\n      dup1\n      0xb2237ba3\n      eq\n      tag_9\n      jumpi\n      dup1\n      0xd942727f\n      eq\n      tag_10\n      jumpi\n      dup1\n      0xdab2997b\n      eq\n      tag_11\n      jumpi\n      0x00\n      dup1\n      revert\n    tag_12:\n      dup1\n      0x2c46502d\n      eq\n      tag_3\n      jumpi\n      dup1\n      0x71ca337d\n      eq\n      tag_4\n      jumpi\n      dup1\n      0x8c93ecff\n      eq\n      tag_5\n      jumpi\n      dup1\n      0x8da5cb5b\n      eq\n      tag_6\n      jumpi\n    tag_2:\n      0x00\n      dup1\n      revert\n        /* \"\\xe5\\x86\\x99\\xe9\\xa1\\xb9\\xe7\\x9b\\xae\\xe5\\x9f\\xba\\xe7\\xa1\\x80/\\xe5\\x86\\x99uni\\xe7\\xae\\x97\\xe6\\xb3\\x95\\xe7\\x9f\\xbf\\xe6\\xb1\\xa0.sol\":811:833  address public totoken */\n    tag_3:\n      sload(0x02)\n      tag_13\n      swap1\n      sub(shl(0xa0, 0x01), 0x01)\n      and\n      dup2\n      jump\n    tag_13:\n      mload(0x40)\n      sub(shl(0xa0, 0x01), 0x01)\n        /* \"#utility.yul\":178:210   */\n      swap1\n      swap2\n      and\n        /* \"#utility.yul\":160:211   */\n      dup2\n      mstore\n        /* \"#utility.yul\":148:150   */\n      0x20\n        /* \"#utility.yul\":133:151   */\n      add\n        /* \"\\xe5\\x86\\x99\\xe9\\xa1\\xb9\\xe7\\x9b\\xae\\xe5\\x9f\\xba\\xe7\\xa1\\x80/\\xe5\\x86\\x99uni\\xe7\\xae\\x97\\xe6\\xb3\\x95\\xe7\\x9f\\xbf\\xe6\\xb1\\xa0.sol\":811:833  address public totoken */\n    tag_15:\n      mload(0x40)\n      dup1\n      swap2\n      sub\n      swap1\n      return\n        /* \"\\xe5\\x86\\x99\\xe9\\xa1\\xb9\\xe7\\x9b\\xae\\xe5\\x9f\\xba\\xe7\\xa1\\x80/\\xe5\\x86\\x99uni\\xe7\\xae\\x97\\xe6\\xb3\\x95\\xe7\\x9f\\xbf\\xe6\\xb1\\xa0.sol\":755:772  uint public ratio */\n    tag_4:\n      tag_17\n      sload(0x00)\n      dup2\n      jump\n    tag_17:\n      mload(0x40)\n        /* \"#utility.yul\":368:393   */\n      swap1\n      dup2\n      mstore\n        /* \"#utility.yul\":356:358   */\n      0x20\n        /* \"#utility.yul\":341:359   */\n      add\n        /* \"\\xe5\\x86\\x99\\xe9\\xa1\\xb9\\xe7\\x9b\\xae\\xe5\\x9f\\xba\\xe7\\xa1\\x80/\\xe5\\x86\\x99uni\\xe7\\xae\\x97\\xe6\\xb3\\x95\\xe7\\x9f\\xbf\\xe6\\xb1\\xa0.sol\":755:772  uint public ratio */\n      tag_15\n        /* \"#utility.yul\":222:399   */\n      jump\n        /* \"\\xe5\\x86\\x99\\xe9\\xa1\\xb9\\xe7\\x9b\\xae\\xe5\\x9f\\xba\\xe7\\xa1\\x80/\\xe5\\x86\\x99uni\\xe7\\xae\\x97\\xe6\\xb3\\x95\\xe7\\x9f\\xbf\\xe6\\xb1\\xa0.sol\":1398:1438  mapping(address => User) public User_Map */\n    tag_5:\n      tag_21\n      tag_22\n      calldatasize\n      0x04\n      tag_23\n      jump\t// in\n    tag_22:\n      mstore(0x20, 0x06)\n      0x00\n      swap1\n      dup2\n      mstore\n      0x40\n      swap1\n      keccak256\n      dup1\n      sload\n      0x01\n      dup3\n      add\n      sload\n      0x02\n      dup4\n      add\n      sload\n      0x03\n      swap1\n      swap4\n      add\n      sload\n      swap2\n      swap3\n      swap1\n      swap2\n      dup5\n      jump\n    tag_21:\n      0x40\n      dup1\n      mload\n        /* \"#utility.yul\":926:951   */\n      swap5\n      dup6\n      mstore\n        /* \"#utility.yul\":982:984   */\n      0x20\n        /* \"#utility.yul\":967:985   */\n      dup6\n      add\n        /* \"#utility.yul\":960:994   */\n      swap4\n      swap1\n      swap4\n      mstore\n        /* \"#utility.yul\":1010:1028   */\n      swap2\n      dup4\n      add\n        /* \"#utility.yul\":1003:1037   */\n      mstore\n        /* \"#utility.yul\":1068:1070   */\n      0x60\n        /* \"#utility.yul\":1053:1071   */\n      dup3\n      add\n        /* \"#utility.yul\":1046:1080   */\n      mstore\n        /* \"#utility.yul\":913:916   */\n      0x80\n        /* \"#utility.yul\":898:917   */\n      add\n        /* \"\\xe5\\x86\\x99\\xe9\\xa1\\xb9\\xe7\\x9b\\xae\\xe5\\x9f\\xba\\xe7\\xa1\\x80/\\xe5\\x86\\x99uni\\xe7\\xae\\x97\\xe6\\xb3\\x95\\xe7\\x9f\\xbf\\xe6\\xb1\\xa0.sol\":1398:1438  mapping(address => User) public User_Map */\n      tag_15\n        /* \"#utility.yul\":695:1086   */\n      jump\n        /* \"\\xe5\\x86\\x99\\xe9\\xa1\\xb9\\xe7\\x9b\\xae\\xe5\\x9f\\xba\\xe7\\xa1\\x80/\\xe5\\x86\\x99uni\\xe7\\xae\\x97\\xe6\\xb3\\x95\\xe7\\x9f\\xbf\\xe6\\xb1\\xa0.sol\":870:890  address public owner */\n    tag_6:\n      sload(0x04)\n      tag_13\n      swap1\n      sub(shl(0xa0, 0x01), 0x01)\n      and\n      dup2\n      jump\n        /* \"\\xe5\\x86\\x99\\xe9\\xa1\\xb9\\xe7\\x9b\\xae\\xe5\\x9f\\xba\\xe7\\xa1\\x80/\\xe5\\x86\\x99uni\\xe7\\xae\\x97\\xe6\\xb3\\x95\\xe7\\x9f\\xbf\\xe6\\xb1\\xa0.sol\":942:972  uint public max_a_token_reward */\n    tag_7:\n      tag_17\n      sload(0x05)\n      dup2\n      jump\n        /* \"\\xe5\\x86\\x99\\xe9\\xa1\\xb9\\xe7\\x9b\\xae\\xe5\\x9f\\xba\\xe7\\xa1\\x80/\\xe5\\x86\\x99uni\\xe7\\xae\\x97\\xe6\\xb3\\x95\\xe7\\x9f\\xbf\\xe6\\xb1\\xa0.sol\":2098:2434  function stake(uint _amount) public returns (bool) {... */\n    tag_8:\n      tag_33\n      tag_34\n      calldatasize\n      0x04\n      tag_35\n      jump\t// in\n    tag_34:\n      tag_36\n      jump\t// in\n    tag_33:\n      mload(0x40)\n        /* \"#utility.yul\":1441:1455   */\n      swap1\n      iszero\n        /* \"#utility.yul\":1434:1456   */\n      iszero\n        /* \"#utility.yul\":1416:1457   */\n      dup2\n      mstore\n        /* \"#utility.yul\":1404:1406   */\n      0x20\n        /* \"#utility.yul\":1389:1407   */\n      add\n        /* \"\\xe5\\x86\\x99\\xe9\\xa1\\xb9\\xe7\\x9b\\xae\\xe5\\x9f\\xba\\xe7\\xa1\\x80/\\xe5\\x86\\x99uni\\xe7\\xae\\x97\\xe6\\xb3\\x95\\xe7\\x9f\\xbf\\xe6\\xb1\\xa0.sol\":2098:2434  function stake(uint _amount) public returns (bool) {... */\n      tag_15\n        /* \"#utility.yul\":1276:1463   */\n      jump\n        /* \"\\xe5\\x86\\x99\\xe9\\xa1\\xb9\\xe7\\x9b\\xae\\xe5\\x9f\\xba\\xe7\\xa1\\x80/\\xe5\\x86\\x99uni\\xe7\\xae\\x97\\xe6\\xb3\\x95\\xe7\\x9f\\xbf\\xe6\\xb1\\xa0.sol\":1998:2090  function setRatio(uint _ratio) external onlyOwner {    ... */\n    tag_9:\n      tag_39\n      tag_40\n      calldatasize\n      0x04\n      tag_35\n      jump\t// in\n    tag_40:\n      tag_41\n      jump\t// in\n    tag_39:\n      stop\n        /* \"\\xe5\\x86\\x99\\xe9\\xa1\\xb9\\xe7\\x9b\\xae\\xe5\\x9f\\xba\\xe7\\xa1\\x80/\\xe5\\x86\\x99uni\\xe7\\xae\\x97\\xe6\\xb3\\x95\\xe7\\x9f\\xbf\\xe6\\xb1\\xa0.sol\":840:863  uint public stakeSupple */\n    tag_10:\n      tag_17\n      sload(0x03)\n      dup2\n      jump\n        /* \"\\xe5\\x86\\x99\\xe9\\xa1\\xb9\\xe7\\x9b\\xae\\xe5\\x9f\\xba\\xe7\\xa1\\x80/\\xe5\\x86\\x99uni\\xe7\\xae\\x97\\xe6\\xb3\\x95\\xe7\\x9f\\xbf\\xe6\\xb1\\xa0.sol\":779:804  address public staketoken */\n    tag_11:\n      sload(0x01)\n      tag_13\n      swap1\n      sub(shl(0xa0, 0x01), 0x01)\n      and\n      dup2\n      jump\n        /* \"\\xe5\\x86\\x99\\xe9\\xa1\\xb9\\xe7\\x9b\\xae\\xe5\\x9f\\xba\\xe7\\xa1\\x80/\\xe5\\x86\\x99uni\\xe7\\xae\\x97\\xe6\\xb3\\x95\\xe7\\x9f\\xbf\\xe6\\xb1\\xa0.sol\":2098:2434  function stake(uint _amount) public returns (bool) {... */\n    tag_36:\n        /* \"\\xe5\\x86\\x99\\xe9\\xa1\\xb9\\xe7\\x9b\\xae\\xe5\\x9f\\xba\\xe7\\xa1\\x80/\\xe5\\x86\\x99uni\\xe7\\xae\\x97\\xe6\\xb3\\x95\\xe7\\x9f\\xbf\\xe6\\xb1\\xa0.sol\":2167:2177  staketoken */\n      sload(0x01)\n        /* \"\\xe5\\x86\\x99\\xe9\\xa1\\xb9\\xe7\\x9b\\xae\\xe5\\x9f\\xba\\xe7\\xa1\\x80/\\xe5\\x86\\x99uni\\xe7\\xae\\x97\\xe6\\xb3\\x95\\xe7\\x9f\\xbf\\xe6\\xb1\\xa0.sol\":2160:2227  IERC20(staketoken).transferFrom(msg.sender, address(this), _amount) */\n      mload(0x40)\n      shl(0xe0, 0x23b872dd)\n      dup2\n      mstore\n        /* \"\\xe5\\x86\\x99\\xe9\\xa1\\xb9\\xe7\\x9b\\xae\\xe5\\x9f\\xba\\xe7\\xa1\\x80/\\xe5\\x86\\x99uni\\xe7\\xae\\x97\\xe6\\xb3\\x95\\xe7\\x9f\\xbf\\xe6\\xb1\\xa0.sol\":2192:2202  msg.sender */\n      caller\n        /* \"\\xe5\\x86\\x99\\xe9\\xa1\\xb9\\xe7\\x9b\\xae\\xe5\\x9f\\xba\\xe7\\xa1\\x80/\\xe5\\x86\\x99uni\\xe7\\xae\\x97\\xe6\\xb3\\x95\\xe7\\x9f\\xbf\\xe6\\xb1\\xa0.sol\":2160:2227  IERC20(staketoken).transferFrom(msg.sender, address(this), _amount) */\n      0x04\n      dup3\n      add\n        /* \"#utility.yul\":1708:1742   */\n      mstore\n        /* \"\\xe5\\x86\\x99\\xe9\\xa1\\xb9\\xe7\\x9b\\xae\\xe5\\x9f\\xba\\xe7\\xa1\\x80/\\xe5\\x86\\x99uni\\xe7\\xae\\x97\\xe6\\xb3\\x95\\xe7\\x9f\\xbf\\xe6\\xb1\\xa0.sol\":2212:2216  this */\n      address\n        /* \"#utility.yul\":1758:1776   */\n      0x24\n      dup3\n      add\n        /* \"#utility.yul\":1751:1794   */\n      mstore\n        /* \"#utility.yul\":1810:1828   */\n      0x44\n      dup2\n      add\n        /* \"#utility.yul\":1803:1837   */\n      dup4\n      swap1\n      mstore\n        /* \"\\xe5\\x86\\x99\\xe9\\xa1\\xb9\\xe7\\x9b\\xae\\xe5\\x9f\\xba\\xe7\\xa1\\x80/\\xe5\\x86\\x99uni\\xe7\\xae\\x97\\xe6\\xb3\\x95\\xe7\\x9f\\xbf\\xe6\\xb1\\xa0.sol\":2143:2147  bool */\n      0x00\n      swap2\n      sub(shl(0xa0, 0x01), 0x01)\n        /* \"\\xe5\\x86\\x99\\xe9\\xa1\\xb9\\xe7\\x9b\\xae\\xe5\\x9f\\xba\\xe7\\xa1\\x80/\\xe5\\x86\\x99uni\\xe7\\xae\\x97\\xe6\\xb3\\x95\\xe7\\x9f\\xbf\\xe6\\xb1\\xa0.sol\":2167:2177  staketoken */\n      and\n      swap1\n        /* \"\\xe5\\x86\\x99\\xe9\\xa1\\xb9\\xe7\\x9b\\xae\\xe5\\x9f\\xba\\xe7\\xa1\\x80/\\xe5\\x86\\x99uni\\xe7\\xae\\x97\\xe6\\xb3\\x95\\xe7\\x9f\\xbf\\xe6\\xb1\\xa0.sol\":2160:2191  IERC20(staketoken).transferFrom */\n      0x23b872dd\n      swap1\n        /* \"#utility.yul\":1643:1661   */\n      0x64\n      add\n        /* \"\\xe5\\x86\\x99\\xe9\\xa1\\xb9\\xe7\\x9b\\xae\\xe5\\x9f\\xba\\xe7\\xa1\\x80/\\xe5\\x86\\x99uni\\xe7\\xae\\x97\\xe6\\xb3\\x95\\xe7\\x9f\\xbf\\xe6\\xb1\\xa0.sol\":2160:2227  IERC20(staketoken).transferFrom(msg.sender, address(this), _amount) */\n      0x20\n      mload(0x40)\n      dup1\n      dup4\n      sub\n      dup2\n      0x00\n      dup8\n      gas\n      call\n      iszero\n      dup1\n      iszero\n      tag_52\n      jumpi\n      returndatasize\n      0x00\n      dup1\n      returndatacopy\n      revert(0x00, returndatasize)\n    tag_52:\n      pop\n      pop\n      pop\n      pop\n      mload(0x40)\n      returndatasize\n      not(0x1f)\n      0x1f\n      dup3\n      add\n      and\n      dup3\n      add\n      dup1\n      0x40\n      mstore\n      pop\n      dup2\n      add\n      swap1\n      tag_53\n      swap2\n      swap1\n      tag_54\n      jump\t// in\n    tag_53:\n      pop\n        /* \"\\xe5\\x86\\x99\\xe9\\xa1\\xb9\\xe7\\x9b\\xae\\xe5\\x9f\\xba\\xe7\\xa1\\x80/\\xe5\\x86\\x99uni\\xe7\\xae\\x97\\xe6\\xb3\\x95\\xe7\\x9f\\xbf\\xe6\\xb1\\xa0.sol\":2244:2287  Trasfer(msg.sender, address(this), _amount) */\n      mload(0x40)\n        /* \"#utility.yul\":368:393   */\n      dup3\n      dup2\n      mstore\n        /* \"\\xe5\\x86\\x99\\xe9\\xa1\\xb9\\xe7\\x9b\\xae\\xe5\\x9f\\xba\\xe7\\xa1\\x80/\\xe5\\x86\\x99uni\\xe7\\xae\\x97\\xe6\\xb3\\x95\\xe7\\x9f\\xbf\\xe6\\xb1\\xa0.sol\":2272:2276  this */\n      address\n      swap1\n        /* \"\\xe5\\x86\\x99\\xe9\\xa1\\xb9\\xe7\\x9b\\xae\\xe5\\x9f\\xba\\xe7\\xa1\\x80/\\xe5\\x86\\x99uni\\xe7\\xae\\x97\\xe6\\xb3\\x95\\xe7\\x9f\\xbf\\xe6\\xb1\\xa0.sol\":2252:2262  msg.sender */\n      caller\n      swap1\n        /* \"\\xe5\\x86\\x99\\xe9\\xa1\\xb9\\xe7\\x9b\\xae\\xe5\\x9f\\xba\\xe7\\xa1\\x80/\\xe5\\x86\\x99uni\\xe7\\xae\\x97\\xe6\\xb3\\x95\\xe7\\x9f\\xbf\\xe6\\xb1\\xa0.sol\":2244:2287  Trasfer(msg.sender, address(this), _amount) */\n      0x1fd6ebb971d137acf3f01670862b8a96758cfc7e39dccb093e68daf461b0262c\n      swap1\n        /* \"#utility.yul\":356:358   */\n      0x20\n        /* \"#utility.yul\":341:359   */\n      add\n        /* \"\\xe5\\x86\\x99\\xe9\\xa1\\xb9\\xe7\\x9b\\xae\\xe5\\x9f\\xba\\xe7\\xa1\\x80/\\xe5\\x86\\x99uni\\xe7\\xae\\x97\\xe6\\xb3\\x95\\xe7\\x9f\\xbf\\xe6\\xb1\\xa0.sol\":2244:2287  Trasfer(msg.sender, address(this), _amount) */\n      mload(0x40)\n      dup1\n      swap2\n      sub\n      swap1\n      log3\n        /* \"\\xe5\\x86\\x99\\xe9\\xa1\\xb9\\xe7\\x9b\\xae\\xe5\\x9f\\xba\\xe7\\xa1\\x80/\\xe5\\x86\\x99uni\\xe7\\xae\\x97\\xe6\\xb3\\x95\\xe7\\x9f\\xbf\\xe6\\xb1\\xa0.sol\":2407:2418  stakeSupple */\n      sload(0x03)\n        /* \"\\xe5\\x86\\x99\\xe9\\xa1\\xb9\\xe7\\x9b\\xae\\xe5\\x9f\\xba\\xe7\\xa1\\x80/\\xe5\\x86\\x99uni\\xe7\\xae\\x97\\xe6\\xb3\\x95\\xe7\\x9f\\xbf\\xe6\\xb1\\xa0.sol\":2399:2404  ratio */\n      sload(0x00)\n        /* \"\\xe5\\x86\\x99\\xe9\\xa1\\xb9\\xe7\\x9b\\xae\\xe5\\x9f\\xba\\xe7\\xa1\\x80/\\xe5\\x86\\x99uni\\xe7\\xae\\x97\\xe6\\xb3\\x95\\xe7\\x9f\\xbf\\xe6\\xb1\\xa0.sol\":2399:2418  ratio / stakeSupple */\n      tag_56\n      swap2\n      swap1\n      tag_57\n      jump\t// in\n    tag_56:\n        /* \"\\xe5\\x86\\x99\\xe9\\xa1\\xb9\\xe7\\x9b\\xae\\xe5\\x9f\\xba\\xe7\\xa1\\x80/\\xe5\\x86\\x99uni\\xe7\\xae\\x97\\xe6\\xb3\\x95\\xe7\\x9f\\xbf\\xe6\\xb1\\xa0.sol\":2369:2379  msg.sender */\n      caller\n        /* \"\\xe5\\x86\\x99\\xe9\\xa1\\xb9\\xe7\\x9b\\xae\\xe5\\x9f\\xba\\xe7\\xa1\\x80/\\xe5\\x86\\x99uni\\xe7\\xae\\x97\\xe6\\xb3\\x95\\xe7\\x9f\\xbf\\xe6\\xb1\\xa0.sol\":2360:2380  User_Map[msg.sender] */\n      0x00\n      swap1\n      dup2\n      mstore\n        /* \"\\xe5\\x86\\x99\\xe9\\xa1\\xb9\\xe7\\x9b\\xae\\xe5\\x9f\\xba\\xe7\\xa1\\x80/\\xe5\\x86\\x99uni\\xe7\\xae\\x97\\xe6\\xb3\\x95\\xe7\\x9f\\xbf\\xe6\\xb1\\xa0.sol\":2360:2368  User_Map */\n      0x06\n        /* \"\\xe5\\x86\\x99\\xe9\\xa1\\xb9\\xe7\\x9b\\xae\\xe5\\x9f\\xba\\xe7\\xa1\\x80/\\xe5\\x86\\x99uni\\xe7\\xae\\x97\\xe6\\xb3\\x95\\xe7\\x9f\\xbf\\xe6\\xb1\\xa0.sol\":2360:2380  User_Map[msg.sender] */\n      0x20\n      mstore\n      0x40\n      swap1\n      keccak256\n        /* \"\\xe5\\x86\\x99\\xe9\\xa1\\xb9\\xe7\\x9b\\xae\\xe5\\x9f\\xba\\xe7\\xa1\\x80/\\xe5\\x86\\x99uni\\xe7\\xae\\x97\\xe6\\xb3\\x95\\xe7\\x9f\\xbf\\xe6\\xb1\\xa0.sol\":2360:2396  User_Map[msg.sender].last_Stake_Time */\n      0x01\n      add\n      sload\n        /* \"\\xe5\\x86\\x99\\xe9\\xa1\\xb9\\xe7\\x9b\\xae\\xe5\\x9f\\xba\\xe7\\xa1\\x80/\\xe5\\x86\\x99uni\\xe7\\xae\\x97\\xe6\\xb3\\x95\\xe7\\x9f\\xbf\\xe6\\xb1\\xa0.sol\":2342:2396  block.timestamp - User_Map[msg.sender].last_Stake_Time */\n      tag_58\n      swap1\n        /* \"\\xe5\\x86\\x99\\xe9\\xa1\\xb9\\xe7\\x9b\\xae\\xe5\\x9f\\xba\\xe7\\xa1\\x80/\\xe5\\x86\\x99uni\\xe7\\xae\\x97\\xe6\\xb3\\x95\\xe7\\x9f\\xbf\\xe6\\xb1\\xa0.sol\":2342:2357  block.timestamp */\n      timestamp\n        /* \"\\xe5\\x86\\x99\\xe9\\xa1\\xb9\\xe7\\x9b\\xae\\xe5\\x9f\\xba\\xe7\\xa1\\x80/\\xe5\\x86\\x99uni\\xe7\\xae\\x97\\xe6\\xb3\\x95\\xe7\\x9f\\xbf\\xe6\\xb1\\xa0.sol\":2342:2396  block.timestamp - User_Map[msg.sender].last_Stake_Time */\n      tag_59\n      jump\t// in\n    tag_58:\n        /* \"\\xe5\\x86\\x99\\xe9\\xa1\\xb9\\xe7\\x9b\\xae\\xe5\\x9f\\xba\\xe7\\xa1\\x80/\\xe5\\x86\\x99uni\\xe7\\xae\\x97\\xe6\\xb3\\x95\\xe7\\x9f\\xbf\\xe6\\xb1\\xa0.sol\":2341:2419  (block.timestamp - User_Map[msg.sender].last_Stake_Time)*(ratio / stakeSupple) */\n      tag_60\n      swap2\n      swap1\n      tag_61\n      jump\t// in\n    tag_60:\n        /* \"\\xe5\\x86\\x99\\xe9\\xa1\\xb9\\xe7\\x9b\\xae\\xe5\\x9f\\xba\\xe7\\xa1\\x80/\\xe5\\x86\\x99uni\\xe7\\xae\\x97\\xe6\\xb3\\x95\\xe7\\x9f\\xbf\\xe6\\xb1\\xa0.sol\":2319:2337  max_a_token_reward */\n      sload(0x05)\n        /* \"\\xe5\\x86\\x99\\xe9\\xa1\\xb9\\xe7\\x9b\\xae\\xe5\\x9f\\xba\\xe7\\xa1\\x80/\\xe5\\x86\\x99uni\\xe7\\xae\\x97\\xe6\\xb3\\x95\\xe7\\x9f\\xbf\\xe6\\xb1\\xa0.sol\":2319:2420  max_a_token_reward + ((block.timestamp - User_Map[msg.sender].last_Stake_Time)*(ratio / stakeSupple)) */\n      tag_62\n      swap2\n      swap1\n      tag_63\n      jump\t// in\n    tag_62:\n        /* \"\\xe5\\x86\\x99\\xe9\\xa1\\xb9\\xe7\\x9b\\xae\\xe5\\x9f\\xba\\xe7\\xa1\\x80/\\xe5\\x86\\x99uni\\xe7\\xae\\x97\\xe6\\xb3\\x95\\xe7\\x9f\\xbf\\xe6\\xb1\\xa0.sol\":2298:2316  max_a_token_reward */\n      0x05\n        /* \"\\xe5\\x86\\x99\\xe9\\xa1\\xb9\\xe7\\x9b\\xae\\xe5\\x9f\\xba\\xe7\\xa1\\x80/\\xe5\\x86\\x99uni\\xe7\\xae\\x97\\xe6\\xb3\\x95\\xe7\\x9f\\xbf\\xe6\\xb1\\xa0.sol\":2298:2420  max_a_token_reward = max_a_token_reward + ((block.timestamp - User_Map[msg.sender].last_Stake_Time)*(ratio / stakeSupple)) */\n      sstore\n        /* \"\\xe5\\x86\\x99\\xe9\\xa1\\xb9\\xe7\\x9b\\xae\\xe5\\x9f\\xba\\xe7\\xa1\\x80/\\xe5\\x86\\x99uni\\xe7\\xae\\x97\\xe6\\xb3\\x95\\xe7\\x9f\\xbf\\xe6\\xb1\\xa0.sol\":2098:2434  function stake(uint _amount) public returns (bool) {... */\n      swap2\n      swap1\n      pop\n      jump\t// out\n        /* \"\\xe5\\x86\\x99\\xe9\\xa1\\xb9\\xe7\\x9b\\xae\\xe5\\x9f\\xba\\xe7\\xa1\\x80/\\xe5\\x86\\x99uni\\xe7\\xae\\x97\\xe6\\xb3\\x95\\xe7\\x9f\\xbf\\xe6\\xb1\\xa0.sol\":1998:2090  function setRatio(uint _ratio) external onlyOwner {    ... */\n    tag_41:\n        /* \"\\xe5\\x86\\x99\\xe9\\xa1\\xb9\\xe7\\x9b\\xae\\xe5\\x9f\\xba\\xe7\\xa1\\x80/\\xe5\\x86\\x99uni\\xe7\\xae\\x97\\xe6\\xb3\\x95\\xe7\\x9f\\xbf\\xe6\\xb1\\xa0.sol\":1847:1852  owner */\n      and(sub(shl(0xa0, 0x01), 0x01), sload(0x04))\n        /* \"\\xe5\\x86\\x99\\xe9\\xa1\\xb9\\xe7\\x9b\\xae\\xe5\\x9f\\xba\\xe7\\xa1\\x80/\\xe5\\x86\\x99uni\\xe7\\xae\\x97\\xe6\\xb3\\x95\\xe7\\x9f\\xbf\\xe6\\xb1\\xa0.sol\":1833:1843  msg.sender */\n      caller\n        /* \"\\xe5\\x86\\x99\\xe9\\xa1\\xb9\\xe7\\x9b\\xae\\xe5\\x9f\\xba\\xe7\\xa1\\x80/\\xe5\\x86\\x99uni\\xe7\\xae\\x97\\xe6\\xb3\\x95\\xe7\\x9f\\xbf\\xe6\\xb1\\xa0.sol\":1833:1852  msg.sender == owner */\n      eq\n        /* \"\\xe5\\x86\\x99\\xe9\\xa1\\xb9\\xe7\\x9b\\xae\\xe5\\x9f\\xba\\xe7\\xa1\\x80/\\xe5\\x86\\x99uni\\xe7\\xae\\x97\\xe6\\xb3\\x95\\xe7\\x9f\\xbf\\xe6\\xb1\\xa0.sol\":1825:1867  require(msg.sender == owner , \"not owner\") */\n      tag_65\n      jumpi\n      mload(0x40)\n      shl(0xe5, 0x461bcd)\n      dup2\n      mstore\n        /* \"#utility.yul\":3122:3124   */\n      0x20\n        /* \"\\xe5\\x86\\x99\\xe9\\xa1\\xb9\\xe7\\x9b\\xae\\xe5\\x9f\\xba\\xe7\\xa1\\x80/\\xe5\\x86\\x99uni\\xe7\\xae\\x97\\xe6\\xb3\\x95\\xe7\\x9f\\xbf\\xe6\\xb1\\xa0.sol\":1825:1867  require(msg.sender == owner , \"not owner\") */\n      0x04\n      dup3\n      add\n        /* \"#utility.yul\":3104:3125   */\n      mstore\n        /* \"#utility.yul\":3161:3162   */\n      0x09\n        /* \"#utility.yul\":3141:3159   */\n      0x24\n      dup3\n      add\n        /* \"#utility.yul\":3134:3163   */\n      mstore\n      shl(0xb9, 0x3737ba1037bbb732b9)\n        /* \"#utility.yul\":3179:3197   */\n      0x44\n      dup3\n      add\n        /* \"#utility.yul\":3172:3211   */\n      mstore\n        /* \"#utility.yul\":3228:3246   */\n      0x64\n      add\n        /* \"\\xe5\\x86\\x99\\xe9\\xa1\\xb9\\xe7\\x9b\\xae\\xe5\\x9f\\xba\\xe7\\xa1\\x80/\\xe5\\x86\\x99uni\\xe7\\xae\\x97\\xe6\\xb3\\x95\\xe7\\x9f\\xbf\\xe6\\xb1\\xa0.sol\":1825:1867  require(msg.sender == owner , \"not owner\") */\n      mload(0x40)\n      dup1\n      swap2\n      sub\n      swap1\n      revert\n    tag_65:\n        /* \"\\xe5\\x86\\x99\\xe9\\xa1\\xb9\\xe7\\x9b\\xae\\xe5\\x9f\\xba\\xe7\\xa1\\x80/\\xe5\\x86\\x99uni\\xe7\\xae\\x97\\xe6\\xb3\\x95\\xe7\\x9f\\xbf\\xe6\\xb1\\xa0.sol\":2063:2068  ratio */\n      0x00\n        /* \"\\xe5\\x86\\x99\\xe9\\xa1\\xb9\\xe7\\x9b\\xae\\xe5\\x9f\\xba\\xe7\\xa1\\x80/\\xe5\\x86\\x99uni\\xe7\\xae\\x97\\xe6\\xb3\\x95\\xe7\\x9f\\xbf\\xe6\\xb1\\xa0.sol\":2063:2077  ratio = _ratio */\n      sstore\n        /* \"\\xe5\\x86\\x99\\xe9\\xa1\\xb9\\xe7\\x9b\\xae\\xe5\\x9f\\xba\\xe7\\xa1\\x80/\\xe5\\x86\\x99uni\\xe7\\xae\\x97\\xe6\\xb3\\x95\\xe7\\x9f\\xbf\\xe6\\xb1\\xa0.sol\":1998:2090  function setRatio(uint _ratio) external onlyOwner {    ... */\n      jump\t// out\n        /* \"#utility.yul\":404:690   */\n    tag_23:\n        /* \"#utility.yul\":463:469   */\n      0x00\n        /* \"#utility.yul\":516:518   */\n      0x20\n        /* \"#utility.yul\":504:513   */\n      dup3\n        /* \"#utility.yul\":495:502   */\n      dup5\n        /* \"#utility.yul\":491:514   */\n      sub\n        /* \"#utility.yul\":487:519   */\n      slt\n        /* \"#utility.yul\":484:536   */\n      iszero\n      tag_74\n      jumpi\n        /* \"#utility.yul\":532:533   */\n      0x00\n        /* \"#utility.yul\":529:530   */\n      dup1\n        /* \"#utility.yul\":522:534   */\n      revert\n        /* \"#utility.yul\":484:536   */\n    tag_74:\n        /* \"#utility.yul\":558:581   */\n      dup2\n      calldataload\n      sub(shl(0xa0, 0x01), 0x01)\n        /* \"#utility.yul\":610:641   */\n      dup2\n      and\n        /* \"#utility.yul\":600:642   */\n      dup2\n      eq\n        /* \"#utility.yul\":590:660   */\n      tag_75\n      jumpi\n        /* \"#utility.yul\":656:657   */\n      0x00\n        /* \"#utility.yul\":653:654   */\n      dup1\n        /* \"#utility.yul\":646:658   */\n      revert\n        /* \"#utility.yul\":590:660   */\n    tag_75:\n        /* \"#utility.yul\":679:684   */\n      swap4\n        /* \"#utility.yul\":404:690   */\n      swap3\n      pop\n      pop\n      pop\n      jump\t// out\n        /* \"#utility.yul\":1091:1271   */\n    tag_35:\n        /* \"#utility.yul\":1150:1156   */\n      0x00\n        /* \"#utility.yul\":1203:1205   */\n      0x20\n        /* \"#utility.yul\":1191:1200   */\n      dup3\n        /* \"#utility.yul\":1182:1189   */\n      dup5\n        /* \"#utility.yul\":1178:1201   */\n      sub\n        /* \"#utility.yul\":1174:1206   */\n      slt\n        /* \"#utility.yul\":1171:1223   */\n      iszero\n      tag_78\n      jumpi\n        /* \"#utility.yul\":1219:1220   */\n      0x00\n        /* \"#utility.yul\":1216:1217   */\n      dup1\n        /* \"#utility.yul\":1209:1221   */\n      revert\n        /* \"#utility.yul\":1171:1223   */\n    tag_78:\n      pop\n        /* \"#utility.yul\":1242:1265   */\n      calldataload\n      swap2\n        /* \"#utility.yul\":1091:1271   */\n      swap1\n      pop\n      jump\t// out\n        /* \"#utility.yul\":1848:2125   */\n    tag_54:\n        /* \"#utility.yul\":1915:1921   */\n      0x00\n        /* \"#utility.yul\":1968:1970   */\n      0x20\n        /* \"#utility.yul\":1956:1965   */\n      dup3\n        /* \"#utility.yul\":1947:1954   */\n      dup5\n        /* \"#utility.yul\":1943:1966   */\n      sub\n        /* \"#utility.yul\":1939:1971   */\n      slt\n        /* \"#utility.yul\":1936:1988   */\n      iszero\n      tag_82\n      jumpi\n        /* \"#utility.yul\":1984:1985   */\n      0x00\n        /* \"#utility.yul\":1981:1982   */\n      dup1\n        /* \"#utility.yul\":1974:1986   */\n      revert\n        /* \"#utility.yul\":1936:1988   */\n    tag_82:\n        /* \"#utility.yul\":2016:2025   */\n      dup2\n        /* \"#utility.yul\":2010:2026   */\n      mload\n        /* \"#utility.yul\":2069:2074   */\n      dup1\n        /* \"#utility.yul\":2062:2075   */\n      iszero\n        /* \"#utility.yul\":2055:2076   */\n      iszero\n        /* \"#utility.yul\":2048:2053   */\n      dup2\n        /* \"#utility.yul\":2045:2077   */\n      eq\n        /* \"#utility.yul\":2035:2095   */\n      tag_75\n      jumpi\n        /* \"#utility.yul\":2091:2092   */\n      0x00\n        /* \"#utility.yul\":2088:2089   */\n      dup1\n        /* \"#utility.yul\":2081:2093   */\n      revert\n        /* \"#utility.yul\":2130:2257   */\n    tag_69:\n        /* \"#utility.yul\":2191:2201   */\n      0x4e487b71\n        /* \"#utility.yul\":2186:2189   */\n      0xe0\n        /* \"#utility.yul\":2182:2202   */\n      shl\n        /* \"#utility.yul\":2179:2180   */\n      0x00\n        /* \"#utility.yul\":2172:2203   */\n      mstore\n        /* \"#utility.yul\":2222:2226   */\n      0x11\n        /* \"#utility.yul\":2219:2220   */\n      0x04\n        /* \"#utility.yul\":2212:2227   */\n      mstore\n        /* \"#utility.yul\":2246:2250   */\n      0x24\n        /* \"#utility.yul\":2243:2244   */\n      0x00\n        /* \"#utility.yul\":2236:2251   */\n      revert\n        /* \"#utility.yul\":2262:2479   */\n    tag_57:\n        /* \"#utility.yul\":2302:2303   */\n      0x00\n        /* \"#utility.yul\":2328:2329   */\n      dup3\n        /* \"#utility.yul\":2318:2450   */\n      tag_86\n      jumpi\n        /* \"#utility.yul\":2372:2382   */\n      0x4e487b71\n        /* \"#utility.yul\":2367:2370   */\n      0xe0\n        /* \"#utility.yul\":2363:2383   */\n      shl\n        /* \"#utility.yul\":2360:2361   */\n      0x00\n        /* \"#utility.yul\":2353:2384   */\n      mstore\n        /* \"#utility.yul\":2407:2411   */\n      0x12\n        /* \"#utility.yul\":2404:2405   */\n      0x04\n        /* \"#utility.yul\":2397:2412   */\n      mstore\n        /* \"#utility.yul\":2435:2439   */\n      0x24\n        /* \"#utility.yul\":2432:2433   */\n      0x00\n        /* \"#utility.yul\":2425:2440   */\n      revert\n        /* \"#utility.yul\":2318:2450   */\n    tag_86:\n      pop\n        /* \"#utility.yul\":2464:2473   */\n      div\n      swap1\n        /* \"#utility.yul\":2262:2479   */\n      jump\t// out\n        /* \"#utility.yul\":2484:2609   */\n    tag_59:\n        /* \"#utility.yul\":2524:2528   */\n      0x00\n        /* \"#utility.yul\":2552:2553   */\n      dup3\n        /* \"#utility.yul\":2549:2550   */\n      dup3\n        /* \"#utility.yul\":2546:2554   */\n      lt\n        /* \"#utility.yul\":2543:2577   */\n      iszero\n      tag_89\n      jumpi\n        /* \"#utility.yul\":2557:2575   */\n      tag_89\n      tag_69\n      jump\t// in\n    tag_89:\n      pop\n        /* \"#utility.yul\":2594:2603   */\n      sub\n      swap1\n        /* \"#utility.yul\":2484:2609   */\n      jump\t// out\n        /* \"#utility.yul\":2614:2782   */\n    tag_61:\n        /* \"#utility.yul\":2654:2661   */\n      0x00\n        /* \"#utility.yul\":2720:2721   */\n      dup2\n        /* \"#utility.yul\":2716:2717   */\n      0x00\n        /* \"#utility.yul\":2712:2718   */\n      not\n        /* \"#utility.yul\":2708:2722   */\n      div\n        /* \"#utility.yul\":2705:2706   */\n      dup4\n        /* \"#utility.yul\":2702:2723   */\n      gt\n        /* \"#utility.yul\":2697:2698   */\n      dup3\n        /* \"#utility.yul\":2690:2699   */\n      iszero\n        /* \"#utility.yul\":2683:2700   */\n      iszero\n        /* \"#utility.yul\":2679:2724   */\n      and\n        /* \"#utility.yul\":2676:2747   */\n      iszero\n      tag_92\n      jumpi\n        /* \"#utility.yul\":2727:2745   */\n      tag_92\n      tag_69\n      jump\t// in\n    tag_92:\n      pop\n        /* \"#utility.yul\":2767:2776   */\n      mul\n      swap1\n        /* \"#utility.yul\":2614:2782   */\n      jump\t// out\n        /* \"#utility.yul\":2787:2915   */\n    tag_63:\n        /* \"#utility.yul\":2827:2830   */\n      0x00\n        /* \"#utility.yul\":2858:2859   */\n      dup3\n        /* \"#utility.yul\":2854:2860   */\n      not\n        /* \"#utility.yul\":2851:2852   */\n      dup3\n        /* \"#utility.yul\":2848:2861   */\n      gt\n        /* \"#utility.yul\":2845:2884   */\n      iszero\n      tag_95\n      jumpi\n        /* \"#utility.yul\":2864:2882   */\n      tag_95\n      tag_69\n      jump\t// in\n    tag_95:\n      pop\n        /* \"#utility.yul\":2900:2909   */\n      add\n      swap1\n        /* \"#utility.yul\":2787:2915   */\n      jump\t// out\n\n    auxdata: 0xa264697066735822122011bac1ffbc068677a142ef7d16a809f0796fbd51322afaa8f7ba91c96637423564736f6c634300080f0033\n}\n",
				"bytecode": {
					"linkReferences": {},
					"object": "608060405234801561001057600080fd5b506040516105d33803806105d383398101604081905261002f91610177565b600480546001600160a01b031916331790556001600160a01b03821661008f5760405162461bcd60e51b815260206004820152601060248201526f4e4f542c53203058204144445245535360801b60448201526064015b60405180910390fd5b6001600160a01b0381166100d85760405162461bcd60e51b815260206004820152601060248201526f4e4f542c53203058204144445245535360801b6044820152606401610086565b806001600160a01b0316826001600160a01b03161461012a5760405162461bcd60e51b815260206004820152600e60248201526d13915151081859dc99595b595b9d60921b6044820152606401610086565b600180546001600160a01b039384166001600160a01b031991821617909155600280549290931691161790556101aa565b80516001600160a01b038116811461017257600080fd5b919050565b6000806040838503121561018a57600080fd5b6101938361015b565b91506101a16020840161015b565b90509250929050565b61041a806101b96000396000f3fe608060405234801561001057600080fd5b50600436106100935760003560e01c8063a6643c9011610066578063a6643c9014610147578063a694fc3a14610150578063b2237ba314610173578063d942727f14610188578063dab2997b1461019157600080fd5b80632c46502d1461009857806371ca337d146100c85780638c93ecff146100df5780638da5cb5b14610134575b600080fd5b6002546100ab906001600160a01b031681565b6040516001600160a01b0390911681526020015b60405180910390f35b6100d160005481565b6040519081526020016100bf565b6101146100ed3660046102f3565b60066020526000908152604090208054600182015460028301546003909301549192909184565b6040805194855260208501939093529183015260608201526080016100bf565b6004546100ab906001600160a01b031681565b6100d160055481565b61016361015e366004610323565b6101a4565b60405190151581526020016100bf565b610186610181366004610323565b6102a4565b005b6100d160035481565b6001546100ab906001600160a01b031681565b6001546040516323b872dd60e01b8152336004820152306024820152604481018390526000916001600160a01b0316906323b872dd906064016020604051808303816000875af11580156101fc573d6000803e3d6000fd5b505050506040513d601f19601f82011682018060405250810190610220919061033c565b50604051828152309033907f1fd6ebb971d137acf3f01670862b8a96758cfc7e39dccb093e68daf461b0262c9060200160405180910390a36003546000546102689190610374565b336000908152600660205260409020600101546102859042610396565b61028f91906103ad565b60055461029c91906103cc565b600555919050565b6004546001600160a01b031633146102ee5760405162461bcd60e51b81526020600482015260096024820152683737ba1037bbb732b960b91b604482015260640160405180910390fd5b600055565b60006020828403121561030557600080fd5b81356001600160a01b038116811461031c57600080fd5b9392505050565b60006020828403121561033557600080fd5b5035919050565b60006020828403121561034e57600080fd5b8151801515811461031c57600080fd5b634e487b7160e01b600052601160045260246000fd5b60008261039157634e487b7160e01b600052601260045260246000fd5b500490565b6000828210156103a8576103a861035e565b500390565b60008160001904831182151516156103c7576103c761035e565b500290565b600082198211156103df576103df61035e565b50019056fea264697066735822122011bac1ffbc068677a142ef7d16a809f0796fbd51322afaa8f7ba91c96637423564736f6c634300080f0033",
					"opcodes": "PUSH1 0x80 PUSH1 0x40 MSTORE CALLVALUE DUP1 ISZERO PUSH2 0x10 JUMPI PUSH1 0x0 DUP1 REVERT JUMPDEST POP PUSH1 0x40 MLOAD PUSH2 0x5D3 CODESIZE SUB DUP1 PUSH2 0x5D3 DUP4 CODECOPY DUP2 ADD PUSH1 0x40 DUP2 SWAP1 MSTORE PUSH2 0x2F SWAP2 PUSH2 0x177 JUMP JUMPDEST PUSH1 0x4 DUP1 SLOAD PUSH1 0x1 PUSH1 0x1 PUSH1 0xA0 SHL SUB NOT AND CALLER OR SWAP1 SSTORE PUSH1 0x1 PUSH1 0x1 PUSH1 0xA0 SHL SUB DUP3 AND PUSH2 0x8F JUMPI PUSH1 0x40 MLOAD PUSH3 0x461BCD PUSH1 0xE5 SHL DUP2 MSTORE PUSH1 0x20 PUSH1 0x4 DUP3 ADD MSTORE PUSH1 0x10 PUSH1 0x24 DUP3 ADD MSTORE PUSH16 0x4E4F542C532030582041444452455353 PUSH1 0x80 SHL PUSH1 0x44 DUP3 ADD MSTORE PUSH1 0x64 ADD JUMPDEST PUSH1 0x40 MLOAD DUP1 SWAP2 SUB SWAP1 REVERT JUMPDEST PUSH1 0x1 PUSH1 0x1 PUSH1 0xA0 SHL SUB DUP2 AND PUSH2 0xD8 JUMPI PUSH1 0x40 MLOAD PUSH3 0x461BCD PUSH1 0xE5 SHL DUP2 MSTORE PUSH1 0x20 PUSH1 0x4 DUP3 ADD MSTORE PUSH1 0x10 PUSH1 0x24 DUP3 ADD MSTORE PUSH16 0x4E4F542C532030582041444452455353 PUSH1 0x80 SHL PUSH1 0x44 DUP3 ADD MSTORE PUSH1 0x64 ADD PUSH2 0x86 JUMP JUMPDEST DUP1 PUSH1 0x1 PUSH1 0x1 PUSH1 0xA0 SHL SUB AND DUP3 PUSH1 0x1 PUSH1 0x1 PUSH1 0xA0 SHL SUB AND EQ PUSH2 0x12A JUMPI PUSH1 0x40 MLOAD PUSH3 0x461BCD PUSH1 0xE5 SHL DUP2 MSTORE PUSH1 0x20 PUSH1 0x4 DUP3 ADD MSTORE PUSH1 0xE PUSH1 0x24 DUP3 ADD MSTORE PUSH14 0x13915151081859DC99595B595B9D PUSH1 0x92 SHL PUSH1 0x44 DUP3 ADD MSTORE PUSH1 0x64 ADD PUSH2 0x86 JUMP JUMPDEST PUSH1 0x1 DUP1 SLOAD PUSH1 0x1 PUSH1 0x1 PUSH1 0xA0 SHL SUB SWAP4 DUP5 AND PUSH1 0x1 PUSH1 0x1 PUSH1 0xA0 SHL SUB NOT SWAP2 DUP3 AND OR SWAP1 SWAP2 SSTORE PUSH1 0x2 DUP1 SLOAD SWAP3 SWAP1 SWAP4 AND SWAP2 AND OR SWAP1 SSTORE PUSH2 0x1AA JUMP JUMPDEST DUP1 MLOAD PUSH1 0x1 PUSH1 0x1 PUSH1 0xA0 SHL SUB DUP2 AND DUP2 EQ PUSH2 0x172 JUMPI PUSH1 0x0 DUP1 REVERT JUMPDEST SWAP2 SWAP1 POP JUMP JUMPDEST PUSH1 0x0 DUP1 PUSH1 0x40 DUP4 DUP6 SUB SLT ISZERO PUSH2 0x18A JUMPI PUSH1 0x0 DUP1 REVERT JUMPDEST PUSH2 0x193 DUP4 PUSH2 0x15B JUMP JUMPDEST SWAP2 POP PUSH2 0x1A1 PUSH1 0x20 DUP5 ADD PUSH2 0x15B JUMP JUMPDEST SWAP1 POP SWAP3 POP SWAP3 SWAP1 POP JUMP JUMPDEST PUSH2 0x41A DUP1 PUSH2 0x1B9 PUSH1 0x0 CODECOPY PUSH1 0x0 RETURN INVALID PUSH1 0x80 PUSH1 0x40 MSTORE CALLVALUE DUP1 ISZERO PUSH2 0x10 JUMPI PUSH1 0x0 DUP1 REVERT JUMPDEST POP PUSH1 0x4 CALLDATASIZE LT PUSH2 0x93 JUMPI PUSH1 0x0 CALLDATALOAD PUSH1 0xE0 SHR DUP1 PUSH4 0xA6643C90 GT PUSH2 0x66 JUMPI DUP1 PUSH4 0xA6643C90 EQ PUSH2 0x147 JUMPI DUP1 PUSH4 0xA694FC3A EQ PUSH2 0x150 JUMPI DUP1 PUSH4 0xB2237BA3 EQ PUSH2 0x173 JUMPI DUP1 PUSH4 0xD942727F EQ PUSH2 0x188 JUMPI DUP1 PUSH4 0xDAB2997B EQ PUSH2 0x191 JUMPI PUSH1 0x0 DUP1 REVERT JUMPDEST DUP1 PUSH4 0x2C46502D EQ PUSH2 0x98 JUMPI DUP1 PUSH4 0x71CA337D EQ PUSH2 0xC8 JUMPI DUP1 PUSH4 0x8C93ECFF EQ PUSH2 0xDF JUMPI DUP1 PUSH4 0x8DA5CB5B EQ PUSH2 0x134 JUMPI JUMPDEST PUSH1 0x0 DUP1 REVERT JUMPDEST PUSH1 0x2 SLOAD PUSH2 0xAB SWAP1 PUSH1 0x1 PUSH1 0x1 PUSH1 0xA0 SHL SUB AND DUP2 JUMP JUMPDEST PUSH1 0x40 MLOAD PUSH1 0x1 PUSH1 0x1 PUSH1 0xA0 SHL SUB SWAP1 SWAP2 AND DUP2 MSTORE PUSH1 0x20 ADD JUMPDEST PUSH1 0x40 MLOAD DUP1 SWAP2 SUB SWAP1 RETURN JUMPDEST PUSH2 0xD1 PUSH1 0x0 SLOAD DUP2 JUMP JUMPDEST PUSH1 0x40 MLOAD SWAP1 DUP2 MSTORE PUSH1 0x20 ADD PUSH2 0xBF JUMP JUMPDEST PUSH2 0x114 PUSH2 0xED CALLDATASIZE PUSH1 0x4 PUSH2 0x2F3 JUMP JUMPDEST PUSH1 0x6 PUSH1 0x20 MSTORE PUSH1 0x0 SWAP1 DUP2 MSTORE PUSH1 0x40 SWAP1 KECCAK256 DUP1 SLOAD PUSH1 0x1 DUP3 ADD SLOAD PUSH1 0x2 DUP4 ADD SLOAD PUSH1 0x3 SWAP1 SWAP4 ADD SLOAD SWAP2 SWAP3 SWAP1 SWAP2 DUP5 JUMP JUMPDEST PUSH1 0x40 DUP1 MLOAD SWAP5 DUP6 MSTORE PUSH1 0x20 DUP6 ADD SWAP4 SWAP1 SWAP4 MSTORE SWAP2 DUP4 ADD MSTORE PUSH1 0x60 DUP3 ADD MSTORE PUSH1 0x80 ADD PUSH2 0xBF JUMP JUMPDEST PUSH1 0x4 SLOAD PUSH2 0xAB SWAP1 PUSH1 0x1 PUSH1 0x1 PUSH1 0xA0 SHL SUB AND DUP2 JUMP JUMPDEST PUSH2 0xD1 PUSH1 0x5 SLOAD DUP2 JUMP JUMPDEST PUSH2 0x163 PUSH2 0x15E CALLDATASIZE PUSH1 0x4 PUSH2 0x323 JUMP JUMPDEST PUSH2 0x1A4 JUMP JUMPDEST PUSH1 0x40 MLOAD SWAP1 ISZERO ISZERO DUP2 MSTORE PUSH1 0x20 ADD PUSH2 0xBF JUMP JUMPDEST PUSH2 0x186 PUSH2 0x181 CALLDATASIZE PUSH1 0x4 PUSH2 0x323 JUMP JUMPDEST PUSH2 0x2A4 JUMP JUMPDEST STOP JUMPDEST PUSH2 0xD1 PUSH1 0x3 SLOAD DUP2 JUMP JUMPDEST PUSH1 0x1 SLOAD PUSH2 0xAB SWAP1 PUSH1 0x1 PUSH1 0x1 PUSH1 0xA0 SHL SUB AND DUP2 JUMP JUMPDEST PUSH1 0x1 SLOAD PUSH1 0x40 MLOAD PUSH4 0x23B872DD PUSH1 0xE0 SHL DUP2 MSTORE CALLER PUSH1 0x4 DUP3 ADD MSTORE ADDRESS PUSH1 0x24 DUP3 ADD MSTORE PUSH1 0x44 DUP2 ADD DUP4 SWAP1 MSTORE PUSH1 0x0 SWAP2 PUSH1 0x1 PUSH1 0x1 PUSH1 0xA0 SHL SUB AND SWAP1 PUSH4 0x23B872DD SWAP1 PUSH1 0x64 ADD PUSH1 0x20 PUSH1 0x40 MLOAD DUP1 DUP4 SUB DUP2 PUSH1 0x0 DUP8 GAS CALL ISZERO DUP1 ISZERO PUSH2 0x1FC JUMPI RETURNDATASIZE PUSH1 0x0 DUP1 RETURNDATACOPY RETURNDATASIZE PUSH1 0x0 REVERT JUMPDEST POP POP POP POP PUSH1 0x40 MLOAD RETURNDATASIZE PUSH1 0x1F NOT PUSH1 0x1F DUP3 ADD AND DUP3 ADD DUP1 PUSH1 0x40 MSTORE POP DUP2 ADD SWAP1 PUSH2 0x220 SWAP2 SWAP1 PUSH2 0x33C JUMP JUMPDEST POP PUSH1 0x40 MLOAD DUP3 DUP2 MSTORE ADDRESS SWAP1 CALLER SWAP1 PUSH32 0x1FD6EBB971D137ACF3F01670862B8A96758CFC7E39DCCB093E68DAF461B0262C SWAP1 PUSH1 0x20 ADD PUSH1 0x40 MLOAD DUP1 SWAP2 SUB SWAP1 LOG3 PUSH1 0x3 SLOAD PUSH1 0x0 SLOAD PUSH2 0x268 SWAP2 SWAP1 PUSH2 0x374 JUMP JUMPDEST CALLER PUSH1 0x0 SWAP1 DUP2 MSTORE PUSH1 0x6 PUSH1 0x20 MSTORE PUSH1 0x40 SWAP1 KECCAK256 PUSH1 0x1 ADD SLOAD PUSH2 0x285 SWAP1 TIMESTAMP PUSH2 0x396 JUMP JUMPDEST PUSH2 0x28F SWAP2 SWAP1 PUSH2 0x3AD JUMP JUMPDEST PUSH1 0x5 SLOAD PUSH2 0x29C SWAP2 SWAP1 PUSH2 0x3CC JUMP JUMPDEST PUSH1 0x5 SSTORE SWAP2 SWAP1 POP JUMP JUMPDEST PUSH1 0x4 SLOAD PUSH1 0x1 PUSH1 0x1 PUSH1 0xA0 SHL SUB AND CALLER EQ PUSH2 0x2EE JUMPI PUSH1 0x40 MLOAD PUSH3 0x461BCD PUSH1 0xE5 SHL DUP2 MSTORE PUSH1 0x20 PUSH1 0x4 DUP3 ADD MSTORE PUSH1 0x9 PUSH1 0x24 DUP3 ADD MSTORE PUSH9 0x3737BA1037BBB732B9 PUSH1 0xB9 SHL PUSH1 0x44 DUP3 ADD MSTORE PUSH1 0x64 ADD PUSH1 0x40 MLOAD DUP1 SWAP2 SUB SWAP1 REVERT JUMPDEST PUSH1 0x0 SSTORE JUMP JUMPDEST PUSH1 0x0 PUSH1 0x20 DUP3 DUP5 SUB SLT ISZERO PUSH2 0x305 JUMPI PUSH1 0x0 DUP1 REVERT JUMPDEST DUP2 CALLDATALOAD PUSH1 0x1 PUSH1 0x1 PUSH1 0xA0 SHL SUB DUP2 AND DUP2 EQ PUSH2 0x31C JUMPI PUSH1 0x0 DUP1 REVERT JUMPDEST SWAP4 SWAP3 POP POP POP JUMP JUMPDEST PUSH1 0x0 PUSH1 0x20 DUP3 DUP5 SUB SLT ISZERO PUSH2 0x335 JUMPI PUSH1 0x0 DUP1 REVERT JUMPDEST POP CALLDATALOAD SWAP2 SWAP1 POP JUMP JUMPDEST PUSH1 0x0 PUSH1 0x20 DUP3 DUP5 SUB SLT ISZERO PUSH2 0x34E JUMPI PUSH1 0x0 DUP1 REVERT JUMPDEST DUP2 MLOAD DUP1 ISZERO ISZERO DUP2 EQ PUSH2 0x31C JUMPI PUSH1 0x0 DUP1 REVERT JUMPDEST PUSH4 0x4E487B71 PUSH1 0xE0 SHL PUSH1 0x0 MSTORE PUSH1 0x11 PUSH1 0x4 MSTORE PUSH1 0x24 PUSH1 0x0 REVERT JUMPDEST PUSH1 0x0 DUP3 PUSH2 0x391 JUMPI PUSH4 0x4E487B71 PUSH1 0xE0 SHL PUSH1 0x0 MSTORE PUSH1 0x12 PUSH1 0x4 MSTORE PUSH1 0x24 PUSH1 0x0 REVERT JUMPDEST POP DIV SWAP1 JUMP JUMPDEST PUSH1 0x0 DUP3 DUP3 LT ISZERO PUSH2 0x3A8 JUMPI PUSH2 0x3A8 PUSH2 0x35E JUMP JUMPDEST POP SUB SWAP1 JUMP JUMPDEST PUSH1 0x0 DUP2 PUSH1 0x0 NOT DIV DUP4 GT DUP3 ISZERO ISZERO AND ISZERO PUSH2 0x3C7 JUMPI PUSH2 0x3C7 PUSH2 0x35E JUMP JUMPDEST POP MUL SWAP1 JUMP JUMPDEST PUSH1 0x0 DUP3 NOT DUP3 GT ISZERO PUSH2 0x3DF JUMPI PUSH2 0x3DF PUSH2 0x35E JUMP JUMPDEST POP ADD SWAP1 JUMP INVALID LOG2 PUSH5 0x6970667358 0x22 SLT KECCAK256 GT 0xBA 0xC1 SELFDESTRUCT 0xBC MOD DUP7 PUSH24 0xA142EF7D16A809F0796FBD51322AFAA8F7BA91C966374235 PUSH5 0x736F6C6343 STOP ADDMOD 0xF STOP CALLER "
				},
				"gasEstimates": {
					"creation": {
						"codeDepositCost": "210000",
						"executionCost": "infinite",
						"totalCost": "infinite"
					},
					"external": {
						"User_Map(address)": "8931",
						"max_a_token_reward()": "2295",
						"owner()": "2393",
						"ratio()": "2318",
						"setRatio(uint256)": "24508",
						"stake(uint256)": "infinite",
						"stakeSupple()": "2361",
						"staketoken()": "2414",
						"totoken()": "2327"
					}
				},
				"methodIdentifiers": {
					"User_Map(address)": "8c93ecff",
					"max_a_token_reward()": "a6643c90",
					"owner()": "8da5cb5b",
					"ratio()": "71ca337d",
					"setRatio(uint256)": "b2237ba3",
					"stake(uint256)": "a694fc3a",
					"stakeSupple()": "d942727f",
					"staketoken()": "dab2997b",
					"totoken()": "2c46502d"
				}
			},
			"storageLayout": {
				"storage": [
					{
						"astId": 70,
						"contract": "写项目基础/写uni算法矿池.sol:StakeContract",
						"label": "ratio",
						"offset": 0,
						"slot": "0",
						"type": "t_uint256"
					},
					{
						"astId": 72,
						"contract": "写项目基础/写uni算法矿池.sol:StakeContract",
						"label": "staketoken",
						"offset": 0,
						"slot": "1",
						"type": "t_address"
					},
					{
						"astId": 74,
						"contract": "写项目基础/写uni算法矿池.sol:StakeContract",
						"label": "totoken",
						"offset": 0,
						"slot": "2",
						"type": "t_address"
					},
					{
						"astId": 76,
						"contract": "写项目基础/写uni算法矿池.sol:StakeContract",
						"label": "stakeSupple",
						"offset": 0,
						"slot": "3",
						"type": "t_uint256"
					},
					{
						"astId": 78,
						"contract": "写项目基础/写uni算法矿池.sol:StakeContract",
						"label": "owner",
						"offset": 0,
						"slot": "4",
						"type": "t_address"
					},
					{
						"astId": 80,
						"contract": "写项目基础/写uni算法矿池.sol:StakeContract",
						"label": "max_a_token_reward",
						"offset": 0,
						"slot": "5",
						"type": "t_uint256"
					},
					{
						"astId": 116,
						"contract": "写项目基础/写uni算法矿池.sol:StakeContract",
						"label": "User_Map",
						"offset": 0,
						"slot": "6",
						"type": "t_mapping(t_address,t_struct(User)111_storage)"
					}
				],
				"types": {
					"t_address": {
						"encoding": "inplace",
						"label": "address",
						"numberOfBytes": "20"
					},
					"t_mapping(t_address,t_struct(User)111_storage)": {
						"encoding": "mapping",
						"key": "t_address",
						"label": "mapping(address => struct StakeContract.User)",
						"numberOfBytes": "32",
						"value": "t_struct(User)111_storage"
					},
					"t_struct(User)111_storage": {
						"encoding": "inplace",
						"label": "struct StakeContract.User",
						"members": [
							{
								"astId": 104,
								"contract": "写项目基础/写uni算法矿池.sol:StakeContract",
								"label": "stakeNumber",
								"offset": 0,
								"slot": "0",
								"type": "t_uint256"
							},
							{
								"astId": 106,
								"contract": "写项目基础/写uni算法矿池.sol:StakeContract",
								"label": "last_Stake_Time",
								"offset": 0,
								"slot": "1",
								"type": "t_uint256"
							},
							{
								"astId": 108,
								"contract": "写项目基础/写uni算法矿池.sol:StakeContract",
								"label": "last_totoken_ratio",
								"offset": 0,
								"slot": "2",
								"type": "t_uint256"
							},
							{
								"astId": 110,
								"contract": "写项目基础/写uni算法矿池.sol:StakeContract",
								"label": "last_a_token_reward",
								"offset": 0,
								"slot": "3",
								"type": "t_uint256"
							}
						],
						"numberOfBytes": "128"
					},
					"t_uint256": {
						"encoding": "inplace",
						"label": "uint256",
						"numberOfBytes": "32"
					}
				}
			},
			"userdoc": {
				"kind": "user",
				"methods": {},
				"version": 1
			}
		}
	}
}