{
	"data": {
		"bytecode": {
			"linkReferences": {},
			"object": "6080604052607b60005534801561001557600080fd5b506102f9806100256000396000f3fe608060405234801561001057600080fd5b50600436106100625760003560e01c806320987767146100675780632b813bc01461007c5780632fbebd38146100845780634e70b1dc1461009757806375f7286c146100b2578063b8bd717f146100c5575b600080fd5b61007a61007536600461026e565b6100d8565b005b61007a610182565b61007a61009236600461026e565b610196565b6100a060005481565b60405190815260200160405180910390f35b61007a6100c036600461026e565b6101f2565b61007a6100d336600461026e565b61021d565b600a81111561012e5760405162461bcd60e51b815260206004820152601b60248201527f692043616e6e6f742062652067726561746572207468616e203130000000000060448201526064015b60405180910390fd5b600281101561017f5760405162461bcd60e51b815260206004820152601a60248201527f692043616e6e6f742062652067726561746572207468616e20320000000000006044820152606401610125565b50565b600054607b1461019457610194610287565b565b60016000808282546101a8919061029d565b9091555050600a811061017f5760405162461bcd60e51b815260206004820152601260248201527110249021a0a72a101e1018981022a92927a960711b6044820152606401610125565b600a81111561017f57604051631c47337760e31b815233600482015260248101829052604401610125565b600a81111561017f5760405162461bcd60e51b815260206004820152601b60248201527f692043616e6e6f742062652067726561746572207468616e20313000000000006044820152606401610125565b60006020828403121561028057600080fd5b5035919050565b634e487b7160e01b600052600160045260246000fd5b600082198211156102be57634e487b7160e01b600052601160045260246000fd5b50019056fea2646970667358221220e73b01c3fbc42953696d790ce8c432ff9236ac1369476657c9cd9b441c52fa8064736f6c634300080f0033",
			"opcodes": "PUSH1 0x80 PUSH1 0x40 MSTORE PUSH1 0x7B PUSH1 0x0 SSTORE CALLVALUE DUP1 ISZERO PUSH2 0x15 JUMPI PUSH1 0x0 DUP1 REVERT JUMPDEST POP PUSH2 0x2F9 DUP1 PUSH2 0x25 PUSH1 0x0 CODECOPY PUSH1 0x0 RETURN INVALID PUSH1 0x80 PUSH1 0x40 MSTORE CALLVALUE DUP1 ISZERO PUSH2 0x10 JUMPI PUSH1 0x0 DUP1 REVERT JUMPDEST POP PUSH1 0x4 CALLDATASIZE LT PUSH2 0x62 JUMPI PUSH1 0x0 CALLDATALOAD PUSH1 0xE0 SHR DUP1 PUSH4 0x20987767 EQ PUSH2 0x67 JUMPI DUP1 PUSH4 0x2B813BC0 EQ PUSH2 0x7C JUMPI DUP1 PUSH4 0x2FBEBD38 EQ PUSH2 0x84 JUMPI DUP1 PUSH4 0x4E70B1DC EQ PUSH2 0x97 JUMPI DUP1 PUSH4 0x75F7286C EQ PUSH2 0xB2 JUMPI DUP1 PUSH4 0xB8BD717F EQ PUSH2 0xC5 JUMPI JUMPDEST PUSH1 0x0 DUP1 REVERT JUMPDEST PUSH2 0x7A PUSH2 0x75 CALLDATASIZE PUSH1 0x4 PUSH2 0x26E JUMP JUMPDEST PUSH2 0xD8 JUMP JUMPDEST STOP JUMPDEST PUSH2 0x7A PUSH2 0x182 JUMP JUMPDEST PUSH2 0x7A PUSH2 0x92 CALLDATASIZE PUSH1 0x4 PUSH2 0x26E JUMP JUMPDEST PUSH2 0x196 JUMP JUMPDEST PUSH2 0xA0 PUSH1 0x0 SLOAD DUP2 JUMP JUMPDEST PUSH1 0x40 MLOAD SWAP1 DUP2 MSTORE PUSH1 0x20 ADD PUSH1 0x40 MLOAD DUP1 SWAP2 SUB SWAP1 RETURN JUMPDEST PUSH2 0x7A PUSH2 0xC0 CALLDATASIZE PUSH1 0x4 PUSH2 0x26E JUMP JUMPDEST PUSH2 0x1F2 JUMP JUMPDEST PUSH2 0x7A PUSH2 0xD3 CALLDATASIZE PUSH1 0x4 PUSH2 0x26E JUMP JUMPDEST PUSH2 0x21D JUMP JUMPDEST PUSH1 0xA DUP2 GT ISZERO PUSH2 0x12E JUMPI PUSH1 0x40 MLOAD PUSH3 0x461BCD PUSH1 0xE5 SHL DUP2 MSTORE PUSH1 0x20 PUSH1 0x4 DUP3 ADD MSTORE PUSH1 0x1B PUSH1 0x24 DUP3 ADD MSTORE PUSH32 0x692043616E6E6F742062652067726561746572207468616E2031300000000000 PUSH1 0x44 DUP3 ADD MSTORE PUSH1 0x64 ADD JUMPDEST PUSH1 0x40 MLOAD DUP1 SWAP2 SUB SWAP1 REVERT JUMPDEST PUSH1 0x2 DUP2 LT ISZERO PUSH2 0x17F JUMPI PUSH1 0x40 MLOAD PUSH3 0x461BCD PUSH1 0xE5 SHL DUP2 MSTORE PUSH1 0x20 PUSH1 0x4 DUP3 ADD MSTORE PUSH1 0x1A PUSH1 0x24 DUP3 ADD MSTORE PUSH32 0x692043616E6E6F742062652067726561746572207468616E2032000000000000 PUSH1 0x44 DUP3 ADD MSTORE PUSH1 0x64 ADD PUSH2 0x125 JUMP JUMPDEST POP JUMP JUMPDEST PUSH1 0x0 SLOAD PUSH1 0x7B EQ PUSH2 0x194 JUMPI PUSH2 0x194 PUSH2 0x287 JUMP JUMPDEST JUMP JUMPDEST PUSH1 0x1 PUSH1 0x0 DUP1 DUP3 DUP3 SLOAD PUSH2 0x1A8 SWAP2 SWAP1 PUSH2 0x29D JUMP JUMPDEST SWAP1 SWAP2 SSTORE POP POP PUSH1 0xA DUP2 LT PUSH2 0x17F JUMPI PUSH1 0x40 MLOAD PUSH3 0x461BCD PUSH1 0xE5 SHL DUP2 MSTORE PUSH1 0x20 PUSH1 0x4 DUP3 ADD MSTORE PUSH1 0x12 PUSH1 0x24 DUP3 ADD MSTORE PUSH18 0x10249021A0A72A101E1018981022A92927A9 PUSH1 0x71 SHL PUSH1 0x44 DUP3 ADD MSTORE PUSH1 0x64 ADD PUSH2 0x125 JUMP JUMPDEST PUSH1 0xA DUP2 GT ISZERO PUSH2 0x17F JUMPI PUSH1 0x40 MLOAD PUSH4 0x1C473377 PUSH1 0xE3 SHL DUP2 MSTORE CALLER PUSH1 0x4 DUP3 ADD MSTORE PUSH1 0x24 DUP2 ADD DUP3 SWAP1 MSTORE PUSH1 0x44 ADD PUSH2 0x125 JUMP JUMPDEST PUSH1 0xA DUP2 GT ISZERO PUSH2 0x17F JUMPI PUSH1 0x40 MLOAD PUSH3 0x461BCD PUSH1 0xE5 SHL DUP2 MSTORE PUSH1 0x20 PUSH1 0x4 DUP3 ADD MSTORE PUSH1 0x1B PUSH1 0x24 DUP3 ADD MSTORE PUSH32 0x692043616E6E6F742062652067726561746572207468616E2031300000000000 PUSH1 0x44 DUP3 ADD MSTORE PUSH1 0x64 ADD PUSH2 0x125 JUMP JUMPDEST PUSH1 0x0 PUSH1 0x20 DUP3 DUP5 SUB SLT ISZERO PUSH2 0x280 JUMPI PUSH1 0x0 DUP1 REVERT JUMPDEST POP CALLDATALOAD SWAP2 SWAP1 POP JUMP JUMPDEST PUSH4 0x4E487B71 PUSH1 0xE0 SHL PUSH1 0x0 MSTORE PUSH1 0x1 PUSH1 0x4 MSTORE PUSH1 0x24 PUSH1 0x0 REVERT JUMPDEST PUSH1 0x0 DUP3 NOT DUP3 GT ISZERO PUSH2 0x2BE JUMPI PUSH4 0x4E487B71 PUSH1 0xE0 SHL PUSH1 0x0 MSTORE PUSH1 0x11 PUSH1 0x4 MSTORE PUSH1 0x24 PUSH1 0x0 REVERT JUMPDEST POP ADD SWAP1 JUMP INVALID LOG2 PUSH5 0x6970667358 0x22 SLT KECCAK256 0xE7 EXTCODESIZE ADD 0xC3 0xFB 0xC4 0x29 MSTORE8 PUSH10 0x6D790CE8C432FF9236AC SGT PUSH10 0x476657C9CD9B441C52FA DUP1 PUSH5 0x736F6C6343 STOP ADDMOD 0xF STOP CALLER "
		},
		"gasEstimates": {
			"creation": {
				"codeDepositCost": "152200",
				"executionCost": "22302",
				"totalCost": "174502"
			},
			"external": {
				"foo(uint256)": "24674",
				"num()": "2327",
				"testAssert()": "2302",
				"testCustomError(uint256)": "404",
				"testRequire(uint256)": "442",
				"testRevert(uint256)": "358"
			}
		},
		"methodIdentifiers": {
			"foo(uint256)": "2fbebd38",
			"num()": "4e70b1dc",
			"testAssert()": "2b813bc0",
			"testCustomError(uint256)": "75f7286c",
			"testRequire(uint256)": "b8bd717f",
			"testRevert(uint256)": "20987767"
		}
	},
	"abi": [
		{
			"inputs": [
				{
					"internalType": "address",
					"name": "caller",
					"type": "address"
				},
				{
					"internalType": "uint256",
					"name": "i",
					"type": "uint256"
				}
			],
			"name": "MyError",
			"type": "error"
		},
		{
			"inputs": [
				{
					"internalType": "uint256",
					"name": "_i",
					"type": "uint256"
				}
			],
			"name": "foo",
			"outputs": [],
			"stateMutability": "nonpayable",
			"type": "function"
		},
		{
			"inputs": [],
			"name": "num",
			"outputs": [
				{
					"internalType": "uint256",
					"name": "",
					"type": "uint256"
				}
			],
			"stateMutability": "view",
			"type": "function"
		},
		{
			"inputs": [],
			"name": "testAssert",
			"outputs": [],
			"stateMutability": "view",
			"type": "function"
		},
		{
			"inputs": [
				{
					"internalType": "uint256",
					"name": "_i",
					"type": "uint256"
				}
			],
			"name": "testCustomError",
			"outputs": [],
			"stateMutability": "view",
			"type": "function"
		},
		{
			"inputs": [
				{
					"internalType": "uint256",
					"name": "_i",
					"type": "uint256"
				}
			],
			"name": "testRequire",
			"outputs": [],
			"stateMutability": "pure",
			"type": "function"
		},
		{
			"inputs": [
				{
					"internalType": "uint256",
					"name": "_i",
					"type": "uint256"
				}
			],
			"name": "testRevert",
			"outputs": [],
			"stateMutability": "pure",
			"type": "function"
		}
	]
}