{
	"data": {
		"bytecode": {
			"linkReferences": {},
			"object": "608060405234801561001057600080fd5b5060bb8061001f6000396000f3fe6080604052348015600f57600080fd5b5060043610605a5760003560e01c80631a99893714605f5780635ea5cabe14607c5780638688754414607c578063adb4d99014607c578063cd9440e9146083578063f4d656ca146083575b600080fd5b6001805b6040805192835290151560208301520160405180910390f35b6001806063565b00fea26469706673582212201ac92ba5513a87260bf7dada990d870fd8550d58447e2c627db5e7f413ee65d464736f6c634300080f0033",
			"opcodes": "PUSH1 0x80 PUSH1 0x40 MSTORE CALLVALUE DUP1 ISZERO PUSH2 0x10 JUMPI PUSH1 0x0 DUP1 REVERT JUMPDEST POP PUSH1 0xBB DUP1 PUSH2 0x1F PUSH1 0x0 CODECOPY PUSH1 0x0 RETURN INVALID PUSH1 0x80 PUSH1 0x40 MSTORE CALLVALUE DUP1 ISZERO PUSH1 0xF JUMPI PUSH1 0x0 DUP1 REVERT JUMPDEST POP PUSH1 0x4 CALLDATASIZE LT PUSH1 0x5A JUMPI PUSH1 0x0 CALLDATALOAD PUSH1 0xE0 SHR DUP1 PUSH4 0x1A998937 EQ PUSH1 0x5F JUMPI DUP1 PUSH4 0x5EA5CABE EQ PUSH1 0x7C JUMPI DUP1 PUSH4 0x86887544 EQ PUSH1 0x7C JUMPI DUP1 PUSH4 0xADB4D990 EQ PUSH1 0x7C JUMPI DUP1 PUSH4 0xCD9440E9 EQ PUSH1 0x83 JUMPI DUP1 PUSH4 0xF4D656CA EQ PUSH1 0x83 JUMPI JUMPDEST PUSH1 0x0 DUP1 REVERT JUMPDEST PUSH1 0x1 DUP1 JUMPDEST PUSH1 0x40 DUP1 MLOAD SWAP3 DUP4 MSTORE SWAP1 ISZERO ISZERO PUSH1 0x20 DUP4 ADD MSTORE ADD PUSH1 0x40 MLOAD DUP1 SWAP2 SUB SWAP1 RETURN JUMPDEST PUSH1 0x1 DUP1 PUSH1 0x63 JUMP JUMPDEST STOP INVALID LOG2 PUSH5 0x6970667358 0x22 SLT KECCAK256 BYTE 0xC9 0x2B 0xA5 MLOAD GASPRICE DUP8 0x26 SIGNEXTEND 0xF7 0xDA 0xDA SWAP10 0xD DUP8 0xF 0xD8 SSTORE 0xD PC DIFFICULTY PUSH31 0x2C627DB5E7F413EE65D464736F6C634300080F003300000000000000000000 "
		},
		"gasEstimates": {
			"creation": {
				"codeDepositCost": "37400",
				"executionCost": "87",
				"totalCost": "37487"
			},
			"external": {
				"assigned()": "251",
				"destAss()": "186",
				"destAssigned()": "208",
				"destAssignedTwo()": "174",
				"returnMany()": "229",
				"returnName()": "207"
			}
		},
		"methodIdentifiers": {
			"assigned()": "adb4d990",
			"destAss()": "cd9440e9",
			"destAssigned()": "f4d656ca",
			"destAssignedTwo()": "1a998937",
			"returnMany()": "86887544",
			"returnName()": "5ea5cabe"
		}
	},
	"abi": [
		{
			"inputs": [],
			"name": "assigned",
			"outputs": [
				{
					"internalType": "uint256",
					"name": "x",
					"type": "uint256"
				},
				{
					"internalType": "bool",
					"name": "b",
					"type": "bool"
				}
			],
			"stateMutability": "pure",
			"type": "function"
		},
		{
			"inputs": [],
			"name": "destAss",
			"outputs": [],
			"stateMutability": "pure",
			"type": "function"
		},
		{
			"inputs": [],
			"name": "destAssigned",
			"outputs": [],
			"stateMutability": "pure",
			"type": "function"
		},
		{
			"inputs": [],
			"name": "destAssignedTwo",
			"outputs": [
				{
					"internalType": "uint256",
					"name": "",
					"type": "uint256"
				},
				{
					"internalType": "bool",
					"name": "",
					"type": "bool"
				}
			],
			"stateMutability": "pure",
			"type": "function"
		},
		{
			"inputs": [],
			"name": "returnMany",
			"outputs": [
				{
					"internalType": "uint256",
					"name": "",
					"type": "uint256"
				},
				{
					"internalType": "bool",
					"name": "",
					"type": "bool"
				}
			],
			"stateMutability": "pure",
			"type": "function"
		},
		{
			"inputs": [],
			"name": "returnName",
			"outputs": [
				{
					"internalType": "uint256",
					"name": "x",
					"type": "uint256"
				},
				{
					"internalType": "bool",
					"name": "b",
					"type": "bool"
				}
			],
			"stateMutability": "pure",
			"type": "function"
		}
	]
}