{
	"data": {
		"bytecode": {
			"linkReferences": {},
			"object": "608060405234801561001057600080fd5b50610245806100206000396000f3fe608060405234801561001057600080fd5b50600436106100625760003560e01c80630dbe671f146100675780634df7e3d014610097578063c6a898c5146100b4578063e5aa3d58146100cb578063ee495002146100d4578063f8aab238146100e9575b600080fd5b60035461007a906001600160a01b031681565b6040516001600160a01b0390911681526020015b60405180910390f35b6000546100a49060ff1681565b604051901515815260200161008e565b6100bd60015481565b60405190815260200161008e565b6100bd60025481565b6100dc6100f2565b60405161008e9190610180565b6100bd60045481565b600580546100ff906101d5565b80601f016020809104026020016040519081016040528092919081815260200182805461012b906101d5565b80156101785780601f1061014d57610100808354040283529160200191610178565b820191906000526020600020905b81548152906001019060200180831161015b57829003601f168201915b505050505081565b600060208083528351808285015260005b818110156101ad57858101830151858201604001528201610191565b818111156101bf576000604083870101525b50601f01601f1916929092016040019392505050565b600181811c908216806101e957607f821691505b60208210810361020957634e487b7160e01b600052602260045260246000fd5b5091905056fea2646970667358221220d397a00b0f70c0edf36fba71d473cda8c5600632ab64f0a282f90330c1a1be7264736f6c634300080f0033",
			"opcodes": "PUSH1 0x80 PUSH1 0x40 MSTORE CALLVALUE DUP1 ISZERO PUSH2 0x10 JUMPI PUSH1 0x0 DUP1 REVERT JUMPDEST POP PUSH2 0x245 DUP1 PUSH2 0x20 PUSH1 0x0 CODECOPY PUSH1 0x0 RETURN INVALID PUSH1 0x80 PUSH1 0x40 MSTORE CALLVALUE DUP1 ISZERO PUSH2 0x10 JUMPI PUSH1 0x0 DUP1 REVERT JUMPDEST POP PUSH1 0x4 CALLDATASIZE LT PUSH2 0x62 JUMPI PUSH1 0x0 CALLDATALOAD PUSH1 0xE0 SHR DUP1 PUSH4 0xDBE671F EQ PUSH2 0x67 JUMPI DUP1 PUSH4 0x4DF7E3D0 EQ PUSH2 0x97 JUMPI DUP1 PUSH4 0xC6A898C5 EQ PUSH2 0xB4 JUMPI DUP1 PUSH4 0xE5AA3D58 EQ PUSH2 0xCB JUMPI DUP1 PUSH4 0xEE495002 EQ PUSH2 0xD4 JUMPI DUP1 PUSH4 0xF8AAB238 EQ PUSH2 0xE9 JUMPI JUMPDEST PUSH1 0x0 DUP1 REVERT JUMPDEST PUSH1 0x3 SLOAD PUSH2 0x7A SWAP1 PUSH1 0x1 PUSH1 0x1 PUSH1 0xA0 SHL SUB AND DUP2 JUMP JUMPDEST PUSH1 0x40 MLOAD PUSH1 0x1 PUSH1 0x1 PUSH1 0xA0 SHL SUB SWAP1 SWAP2 AND DUP2 MSTORE PUSH1 0x20 ADD JUMPDEST PUSH1 0x40 MLOAD DUP1 SWAP2 SUB SWAP1 RETURN JUMPDEST PUSH1 0x0 SLOAD PUSH2 0xA4 SWAP1 PUSH1 0xFF AND DUP2 JUMP JUMPDEST PUSH1 0x40 MLOAD SWAP1 ISZERO ISZERO DUP2 MSTORE PUSH1 0x20 ADD PUSH2 0x8E JUMP JUMPDEST PUSH2 0xBD PUSH1 0x1 SLOAD DUP2 JUMP JUMPDEST PUSH1 0x40 MLOAD SWAP1 DUP2 MSTORE PUSH1 0x20 ADD PUSH2 0x8E JUMP JUMPDEST PUSH2 0xBD PUSH1 0x2 SLOAD DUP2 JUMP JUMPDEST PUSH2 0xDC PUSH2 0xF2 JUMP JUMPDEST PUSH1 0x40 MLOAD PUSH2 0x8E SWAP2 SWAP1 PUSH2 0x180 JUMP JUMPDEST PUSH2 0xBD PUSH1 0x4 SLOAD DUP2 JUMP JUMPDEST PUSH1 0x5 DUP1 SLOAD PUSH2 0xFF SWAP1 PUSH2 0x1D5 JUMP JUMPDEST DUP1 PUSH1 0x1F ADD PUSH1 0x20 DUP1 SWAP2 DIV MUL PUSH1 0x20 ADD PUSH1 0x40 MLOAD SWAP1 DUP2 ADD PUSH1 0x40 MSTORE DUP1 SWAP3 SWAP2 SWAP1 DUP2 DUP2 MSTORE PUSH1 0x20 ADD DUP3 DUP1 SLOAD PUSH2 0x12B SWAP1 PUSH2 0x1D5 JUMP JUMPDEST DUP1 ISZERO PUSH2 0x178 JUMPI DUP1 PUSH1 0x1F LT PUSH2 0x14D JUMPI PUSH2 0x100 DUP1 DUP4 SLOAD DIV MUL DUP4 MSTORE SWAP2 PUSH1 0x20 ADD SWAP2 PUSH2 0x178 JUMP JUMPDEST DUP3 ADD SWAP2 SWAP1 PUSH1 0x0 MSTORE PUSH1 0x20 PUSH1 0x0 KECCAK256 SWAP1 JUMPDEST DUP2 SLOAD DUP2 MSTORE SWAP1 PUSH1 0x1 ADD SWAP1 PUSH1 0x20 ADD DUP1 DUP4 GT PUSH2 0x15B JUMPI DUP3 SWAP1 SUB PUSH1 0x1F AND DUP3 ADD SWAP2 JUMPDEST POP POP POP POP POP DUP2 JUMP JUMPDEST PUSH1 0x0 PUSH1 0x20 DUP1 DUP4 MSTORE DUP4 MLOAD DUP1 DUP3 DUP6 ADD MSTORE PUSH1 0x0 JUMPDEST DUP2 DUP2 LT ISZERO PUSH2 0x1AD JUMPI DUP6 DUP2 ADD DUP4 ADD MLOAD DUP6 DUP3 ADD PUSH1 0x40 ADD MSTORE DUP3 ADD PUSH2 0x191 JUMP JUMPDEST DUP2 DUP2 GT ISZERO PUSH2 0x1BF JUMPI PUSH1 0x0 PUSH1 0x40 DUP4 DUP8 ADD ADD MSTORE JUMPDEST POP PUSH1 0x1F ADD PUSH1 0x1F NOT AND SWAP3 SWAP1 SWAP3 ADD PUSH1 0x40 ADD SWAP4 SWAP3 POP POP POP JUMP JUMPDEST PUSH1 0x1 DUP2 DUP2 SHR SWAP1 DUP3 AND DUP1 PUSH2 0x1E9 JUMPI PUSH1 0x7F DUP3 AND SWAP2 POP JUMPDEST PUSH1 0x20 DUP3 LT DUP2 SUB PUSH2 0x209 JUMPI PUSH4 0x4E487B71 PUSH1 0xE0 SHL PUSH1 0x0 MSTORE PUSH1 0x22 PUSH1 0x4 MSTORE PUSH1 0x24 PUSH1 0x0 REVERT JUMPDEST POP SWAP2 SWAP1 POP JUMP INVALID LOG2 PUSH5 0x6970667358 0x22 SLT KECCAK256 0xD3 SWAP8 LOG0 SIGNEXTEND 0xF PUSH17 0xC0EDF36FBA71D473CDA8C5600632AB64F0 LOG2 DUP3 0xF9 SUB ADDRESS 0xC1 LOG1 0xBE PUSH19 0x64736F6C634300080F00330000000000000000 "
		},
		"gasEstimates": {
			"creation": {
				"codeDepositCost": "116200",
				"executionCost": "165",
				"totalCost": "116365"
			},
			"external": {
				"a()": "2304",
				"b()": "2310",
				"b1()": "infinite",
				"b32()": "2383",
				"i()": "2339",
				"u()": "2317"
			}
		},
		"methodIdentifiers": {
			"a()": "0dbe671f",
			"b()": "4df7e3d0",
			"b1()": "ee495002",
			"b32()": "f8aab238",
			"i()": "e5aa3d58",
			"u()": "c6a898c5"
		}
	},
	"abi": [
		{
			"inputs": [],
			"name": "a",
			"outputs": [
				{
					"internalType": "address",
					"name": "",
					"type": "address"
				}
			],
			"stateMutability": "view",
			"type": "function"
		},
		{
			"inputs": [],
			"name": "b",
			"outputs": [
				{
					"internalType": "bool",
					"name": "",
					"type": "bool"
				}
			],
			"stateMutability": "view",
			"type": "function"
		},
		{
			"inputs": [],
			"name": "b1",
			"outputs": [
				{
					"internalType": "bytes",
					"name": "",
					"type": "bytes"
				}
			],
			"stateMutability": "view",
			"type": "function"
		},
		{
			"inputs": [],
			"name": "b32",
			"outputs": [
				{
					"internalType": "bytes32",
					"name": "",
					"type": "bytes32"
				}
			],
			"stateMutability": "view",
			"type": "function"
		},
		{
			"inputs": [],
			"name": "i",
			"outputs": [
				{
					"internalType": "int256",
					"name": "",
					"type": "int256"
				}
			],
			"stateMutability": "view",
			"type": "function"
		},
		{
			"inputs": [],
			"name": "u",
			"outputs": [
				{
					"internalType": "uint256",
					"name": "",
					"type": "uint256"
				}
			],
			"stateMutability": "view",
			"type": "function"
		}
	]
}