{
	"data": {
		"bytecode": {
			"linkReferences": {},
			"object": "6080604052607b60015534801561001557600080fd5b5061015e806100256000396000f3fe6080604052600436106100555760003560e01c806302f42be91461005a5780630c55699c146100735780633fa4f2451461009c5780634018d9aa146100b25780635197c7aa146100d2578063637d4246146100e7575b600080fd5b61007161006836600461010f565b60005534600155565b005b34801561007f57600080fd5b5061008960005481565b6040519081526020015b60405180910390f35b3480156100a857600080fd5b5061008960015481565b3480156100be57600080fd5b506100716100cd36600461010f565b600055565b3480156100de57600080fd5b50600054610089565b3480156100f357600080fd5b5060005460015460408051928352602083019190915201610093565b60006020828403121561012157600080fd5b503591905056fea2646970667358221220f9f16d4debb69fce2227d129c555a998bf9f151912cb72670222fc7db1980e2964736f6c634300080f0033",
			"opcodes": "PUSH1 0x80 PUSH1 0x40 MSTORE PUSH1 0x7B PUSH1 0x1 SSTORE CALLVALUE DUP1 ISZERO PUSH2 0x15 JUMPI PUSH1 0x0 DUP1 REVERT JUMPDEST POP PUSH2 0x15E DUP1 PUSH2 0x25 PUSH1 0x0 CODECOPY PUSH1 0x0 RETURN INVALID PUSH1 0x80 PUSH1 0x40 MSTORE PUSH1 0x4 CALLDATASIZE LT PUSH2 0x55 JUMPI PUSH1 0x0 CALLDATALOAD PUSH1 0xE0 SHR DUP1 PUSH4 0x2F42BE9 EQ PUSH2 0x5A JUMPI DUP1 PUSH4 0xC55699C EQ PUSH2 0x73 JUMPI DUP1 PUSH4 0x3FA4F245 EQ PUSH2 0x9C JUMPI DUP1 PUSH4 0x4018D9AA EQ PUSH2 0xB2 JUMPI DUP1 PUSH4 0x5197C7AA EQ PUSH2 0xD2 JUMPI DUP1 PUSH4 0x637D4246 EQ PUSH2 0xE7 JUMPI JUMPDEST PUSH1 0x0 DUP1 REVERT JUMPDEST PUSH2 0x71 PUSH2 0x68 CALLDATASIZE PUSH1 0x4 PUSH2 0x10F JUMP JUMPDEST PUSH1 0x0 SSTORE CALLVALUE PUSH1 0x1 SSTORE JUMP JUMPDEST STOP JUMPDEST CALLVALUE DUP1 ISZERO PUSH2 0x7F JUMPI PUSH1 0x0 DUP1 REVERT JUMPDEST POP PUSH2 0x89 PUSH1 0x0 SLOAD DUP2 JUMP JUMPDEST PUSH1 0x40 MLOAD SWAP1 DUP2 MSTORE PUSH1 0x20 ADD JUMPDEST PUSH1 0x40 MLOAD DUP1 SWAP2 SUB SWAP1 RETURN JUMPDEST CALLVALUE DUP1 ISZERO PUSH2 0xA8 JUMPI PUSH1 0x0 DUP1 REVERT JUMPDEST POP PUSH2 0x89 PUSH1 0x1 SLOAD DUP2 JUMP JUMPDEST CALLVALUE DUP1 ISZERO PUSH2 0xBE JUMPI PUSH1 0x0 DUP1 REVERT JUMPDEST POP PUSH2 0x71 PUSH2 0xCD CALLDATASIZE PUSH1 0x4 PUSH2 0x10F JUMP JUMPDEST PUSH1 0x0 SSTORE JUMP JUMPDEST CALLVALUE DUP1 ISZERO PUSH2 0xDE JUMPI PUSH1 0x0 DUP1 REVERT JUMPDEST POP PUSH1 0x0 SLOAD PUSH2 0x89 JUMP JUMPDEST CALLVALUE DUP1 ISZERO PUSH2 0xF3 JUMPI PUSH1 0x0 DUP1 REVERT JUMPDEST POP PUSH1 0x0 SLOAD PUSH1 0x1 SLOAD PUSH1 0x40 DUP1 MLOAD SWAP3 DUP4 MSTORE PUSH1 0x20 DUP4 ADD SWAP2 SWAP1 SWAP2 MSTORE ADD PUSH2 0x93 JUMP JUMPDEST PUSH1 0x0 PUSH1 0x20 DUP3 DUP5 SUB SLT ISZERO PUSH2 0x121 JUMPI PUSH1 0x0 DUP1 REVERT JUMPDEST POP CALLDATALOAD SWAP2 SWAP1 POP JUMP INVALID LOG2 PUSH5 0x6970667358 0x22 SLT KECCAK256 0xF9 CALL PUSH14 0x4DEBB69FCE2227D129C555A998BF SWAP16 ISZERO NOT SLT 0xCB PUSH19 0x670222FC7DB1980E2964736F6C634300080F00 CALLER "
		},
		"gasEstimates": {
			"creation": {
				"codeDepositCost": "70000",
				"executionCost": "22223",
				"totalCost": "92223"
			},
			"external": {
				"getX()": "2347",
				"setX(uint256)": "22356",
				"setXandReceiveEther(uint256)": "44371",
				"setXandValue()": "4495",
				"value()": "2306",
				"x()": "2284"
			}
		},
		"methodIdentifiers": {
			"getX()": "5197c7aa",
			"setX(uint256)": "4018d9aa",
			"setXandReceiveEther(uint256)": "02f42be9",
			"setXandValue()": "637d4246",
			"value()": "3fa4f245",
			"x()": "0c55699c"
		}
	},
	"abi": [
		{
			"inputs": [],
			"name": "getX",
			"outputs": [
				{
					"internalType": "uint256",
					"name": "",
					"type": "uint256"
				}
			],
			"stateMutability": "view",
			"type": "function"
		},
		{
			"inputs": [
				{
					"internalType": "uint256",
					"name": "_x",
					"type": "uint256"
				}
			],
			"name": "setX",
			"outputs": [],
			"stateMutability": "nonpayable",
			"type": "function"
		},
		{
			"inputs": [
				{
					"internalType": "uint256",
					"name": "_x",
					"type": "uint256"
				}
			],
			"name": "setXandReceiveEther",
			"outputs": [],
			"stateMutability": "payable",
			"type": "function"
		},
		{
			"inputs": [],
			"name": "setXandValue",
			"outputs": [
				{
					"internalType": "uint256",
					"name": "",
					"type": "uint256"
				},
				{
					"internalType": "uint256",
					"name": "",
					"type": "uint256"
				}
			],
			"stateMutability": "view",
			"type": "function"
		},
		{
			"inputs": [],
			"name": "value",
			"outputs": [
				{
					"internalType": "uint256",
					"name": "",
					"type": "uint256"
				}
			],
			"stateMutability": "view",
			"type": "function"
		},
		{
			"inputs": [],
			"name": "x",
			"outputs": [
				{
					"internalType": "uint256",
					"name": "",
					"type": "uint256"
				}
			],
			"stateMutability": "view",
			"type": "function"
		}
	]
}